{
  "contractName": "LuckyMachineJackpotFactory",
  "abi": [
    {
      "inputs": [
        {
          "internalType": "uint256",
          "name": "",
          "type": "uint256"
        }
      ],
      "name": "machines",
      "outputs": [
        {
          "internalType": "address",
          "name": "",
          "type": "address"
        }
      ],
      "stateMutability": "view",
      "type": "function"
    },
    {
      "inputs": [
        {
          "internalType": "address payable",
          "name": "jackpotAddress",
          "type": "address"
        },
        {
          "internalType": "address payable",
          "name": "machineCoordinator",
          "type": "address"
        },
        {
          "internalType": "address",
          "name": "linkToken",
          "type": "address"
        },
        {
          "internalType": "uint256",
          "name": "entryFee",
          "type": "uint256"
        },
        {
          "internalType": "uint256",
          "name": "maxPick",
          "type": "uint256"
        },
        {
          "internalType": "uint8",
          "name": "totalPicks",
          "type": "uint8"
        },
        {
          "internalType": "uint8[]",
          "name": "winningMatchQuantities",
          "type": "uint8[]"
        },
        {
          "internalType": "uint256[]",
          "name": "winningMatchPayouts",
          "type": "uint256[]"
        },
        {
          "internalType": "uint8",
          "name": "jackpotContribution",
          "type": "uint8"
        }
      ],
      "name": "createMachine",
      "outputs": [
        {
          "internalType": "address",
          "name": "",
          "type": "address"
        }
      ],
      "stateMutability": "nonpayable",
      "type": "function"
    },
    {
      "inputs": [],
      "name": "getMachines",
      "outputs": [
        {
          "internalType": "address[]",
          "name": "",
          "type": "address[]"
        }
      ],
      "stateMutability": "view",
      "type": "function"
    },
    {
      "inputs": [],
      "name": "getOwnedMachines",
      "outputs": [
        {
          "internalType": "address[]",
          "name": "",
          "type": "address[]"
        }
      ],
      "stateMutability": "view",
      "type": "function"
    }
  ],
  "bytecode": "0x608060405234801561001057600080fd5b5061594b806100206000396000f3fe60806040523480156200001157600080fd5b5060043610620000525760003560e01c80632eb4761314620000575780634d42845c14620000ba57806352b07b341462000115578063a85091d81462000178575b600080fd5b6200006162000386565b6040518080602001828103825283818151815260200191508051906020019060200280838360005b83811015620000a657808201518184015260208101905062000089565b505050509050019250505060405180910390f35b620000e960048036036020811015620000d257600080fd5b810190808035906020019092919050505062000453565b604051808273ffffffffffffffffffffffffffffffffffffffff16815260200191505060405180910390f35b6200011f62000490565b6040518080602001828103825283818151815260200191508051906020019060200280838360005b838110156200016457808201518184015260208101905062000147565b505050509050019250505060405180910390f35b6200035a60048036036101208110156200019157600080fd5b81019080803573ffffffffffffffffffffffffffffffffffffffff169060200190929190803573ffffffffffffffffffffffffffffffffffffffff169060200190929190803573ffffffffffffffffffffffffffffffffffffffff1690602001909291908035906020019092919080359060200190929190803560ff169060200190929190803590602001906401000000008111156200023057600080fd5b8201836020820111156200024357600080fd5b803590602001918460208302840111640100000000831117156200026657600080fd5b919080806020026020016040519081016040528093929190818152602001838360200280828437600081840152601f19601f82011690508083019250505050505050919291929080359060200190640100000000811115620002c757600080fd5b820183602082011115620002da57600080fd5b80359060200191846020830284011164010000000083111715620002fd57600080fd5b919080806020026020016040519081016040528093929190818152602001838360200280828437600081840152601f19601f820116905080830192505050505050509192919290803560ff16906020019092919050505062000520565b604051808273ffffffffffffffffffffffffffffffffffffffff16815260200191505060405180910390f35b6060600160003373ffffffffffffffffffffffffffffffffffffffff1673ffffffffffffffffffffffffffffffffffffffff1681526020019081526020016000208054806020026020016040519081016040528092919081815260200182805480156200044957602002820191906000526020600020905b8160009054906101000a900473ffffffffffffffffffffffffffffffffffffffff1673ffffffffffffffffffffffffffffffffffffffff1681526020019060010190808311620003fe575b5050505050905090565b600081815481106200046157fe5b906000526020600020016000915054906101000a900473ffffffffffffffffffffffffffffffffffffffff1681565b606060008054806020026020016040519081016040528092919081815260200182805480156200051657602002820191906000526020600020905b8160009054906101000a900473ffffffffffffffffffffffffffffffffffffffff1673ffffffffffffffffffffffffffffffffffffffff1681526020019060010190808311620004cb575b5050505050905090565b6000808a8a338b8b8b8b8b8b8b6040516200053b9062000825565b808b73ffffffffffffffffffffffffffffffffffffffff1681526020018a73ffffffffffffffffffffffffffffffffffffffff1681526020018973ffffffffffffffffffffffffffffffffffffffff1681526020018873ffffffffffffffffffffffffffffffffffffffff1681526020018781526020018681526020018560ff16815260200180602001806020018460ff168152602001838103835286818151815260200191508051906020019060200280838360005b838110156200060f578082015181840152602081019050620005f2565b50505050905001838103825285818151815260200191508051906020019060200280838360005b838110156200065357808201518184015260208101905062000636565b505050509050019c50505050505050505050505050604051809103906000f08015801562000685573d6000803e3d6000fd5b5090508073ffffffffffffffffffffffffffffffffffffffff1663f2fde38b336040518263ffffffff1660e01b8152600401808273ffffffffffffffffffffffffffffffffffffffff168152602001915050600060405180830381600087803b158015620006f257600080fd5b505af115801562000707573d6000803e3d6000fd5b5050505060008190506000819080600181540180825580915050600190039060005260206000200160009091909190916101000a81548173ffffffffffffffffffffffffffffffffffffffff021916908373ffffffffffffffffffffffffffffffffffffffff160217905550600160003373ffffffffffffffffffffffffffffffffffffffff1673ffffffffffffffffffffffffffffffffffffffff168152602001908152602001600020819080600181540180825580915050600190039060005260206000200160009091909190916101000a81548173ffffffffffffffffffffffffffffffffffffffff021916908373ffffffffffffffffffffffffffffffffffffffff16021790555080925050509998505050505050505050565b6150e280620008348339019056fe60806040526019602060006101000a81548160ff021916908360ff1602179055506064602060016101000a81548160ff021916908360ff1602179055503480156200004957600080fd5b50604051620050e2380380620050e283398181016040526101408110156200007057600080fd5b810190808051906020019092919080519060200190929190805190602001909291908051906020019092919080519060200190929190805190602001909291908051906020019092919080516040519392919084640100000000821115620000d757600080fd5b83820191506020820185811115620000ee57600080fd5b82518660208202830111640100000000821117156200010c57600080fd5b8083526020830192505050908051906020019060200280838360005b838110156200014557808201518184015260208101905062000128565b50505050905001604052602001805160405193929190846401000000008211156200016f57600080fd5b838201915060208201858111156200018657600080fd5b8251866020820283011164010000000082111715620001a457600080fd5b8083526020830192505050908051906020019060200280838360005b83811015620001dd578082015181840152602081019050620001c0565b5050505090500160405260200180519060200190929190505050888888888989600080620002106200085d60201b60201c565b9050806000806101000a81548173ffffffffffffffffffffffffffffffffffffffff021916908373ffffffffffffffffffffffffffffffffffffffff1602179055508073ffffffffffffffffffffffffffffffffffffffff16600073ffffffffffffffffffffffffffffffffffffffff167f8be0079c531659141344cd1fd0a4f28419497f9722a3daafe3b4186f6b6457e060405160405180910390a35086600260006101000a81548173ffffffffffffffffffffffffffffffffffffffff021916908373ffffffffffffffffffffffffffffffffffffffff1602179055506001601281905550600060118190555085601360006101000a81548173ffffffffffffffffffffffffffffffffffffffff021916908373ffffffffffffffffffffffffffffffffffffffff1602179055508260108190555083600f8190555081600e819055508060148190555060016003819055506001600481905550600160058190555060016006819055506001600781905550600160088190555060016009819055506001600a819055506001600b819055506001600c819055506001600d8190555084600160006101000a81548173ffffffffffffffffffffffffffffffffffffffff021916908373ffffffffffffffffffffffffffffffffffffffff16021790555060007fffffffffffffffffffffffffffffffffffffffffffffffffffffffffffffffff9050600160009054906101000a900473ffffffffffffffffffffffffffffffffffffffff1673ffffffffffffffffffffffffffffffffffffffff1663095ea7b3600260009054906101000a900473ffffffffffffffffffffffffffffffffffffffff16836040518363ffffffff1660e01b8152600401808373ffffffffffffffffffffffffffffffffffffffff16815260200182815260200192505050602060405180830381600087803b158015620004d057600080fd5b505af1158015620004e5573d6000803e3d6000fd5b505050506040513d6020811015620004fc57600080fd5b8101908080519060200190929190505050505050505050505050602060019054906101000a900460ff1660ff168511156200059f576040517f08c379a000000000000000000000000000000000000000000000000000000000815260040180806020018281038252601a8152602001807f53696e676c65207069636b206c696d697420657863656564656400000000000081525060200191505060405180910390fd5b8151835114620005fb576040517f08c379a000000000000000000000000000000000000000000000000000000000815260040180806020018281038252602b81526020018062005083602b913960400191505060405180910390fd5b602060009054906101000a900460ff1660ff168351111562000669576040517f08c379a0000000000000000000000000000000000000000000000000000000008152600401808060200182810382526031815260200180620050526031913960400191505060405180910390fd5b60648160ff161115620006c8576040517f08c379a0000000000000000000000000000000000000000000000000000000008152600401808060200182810382526034815260200180620050ae6034913960400191505060405180910390fd5b83601c60006101000a81548160ff021916908360ff16021790555060005b83518160ff1610156200074d57828160ff16815181106200070357fe5b6020026020010151601b6000868460ff16815181106200071f57fe5b602002602001015160ff1660ff168152602001908152602001600020819055508080600101915050620006e6565b5082601d90805190602001906200076692919062000865565b5080601e60006101000a81548160ff021916908360ff16021790555089601a60006101000a81548173ffffffffffffffffffffffffffffffffffffffff021916908373ffffffffffffffffffffffffffffffffffffffff1602179055506000601a60009054906101000a900473ffffffffffffffffffffffffffffffffffffffff1690508073ffffffffffffffffffffffffffffffffffffffff1663d2154c926040518163ffffffff1660e01b8152600401600060405180830381600087803b1580156200083357600080fd5b505af115801562000848573d6000803e3d6000fd5b5050505050505050505050505050506200093d565b600033905090565b82805482825590600052602060002090601f01602090048101928215620009005791602002820160005b83821115620008cf57835183826101000a81548160ff021916908360ff16021790555092602001926001016020816000010492830192600103026200088f565b8015620008fe5782816101000a81549060ff0219169055600101602081600001049283019260010302620008cf565b505b5090506200090f919062000913565b5090565b5b808211156200093957600081816101000a81549060ff02191690555060010162000914565b5090565b614705806200094d6000396000f3fe6080604052600436106102605760003560e01c80639619367d11610144578063b8672c06116100b6578063d9e721f81161007a578063d9e721f814611209578063dfad4c1114611257578063f039d9d5146112be578063f2fde38b146112ec578063f31a4dcd1461133d578063f50ceb4c1461137857610267565b8063b8672c0614611045578063b93030b3146110d5578063bd237741146110ec578063c311d049146110f6578063d0196fb71461113157610267565b8063a4b2409e11610108578063a4b2409e14610d68578063a721b15c14610da3578063a744bdc814610dd1578063ac150fd814610f41578063b1017eb714610f8f578063b843f5ab14610fe057610267565b80639619367d14610a515780639b582e4114610a7c5780639d5c35ae14610c2a578063a02e061614610cba578063a249225e14610d0b57610267565b80634051ddac116101dd5780636bf90c84116101a15780636bf90c84146107b85780636da64a5e1461086c578063715018a61461093b5780637a8042bd1461095257806383bec9931461098d5780638da5cb5b14610a1057610267565b80634051ddac146106a057806350c5f975146106e05780635b8d02d71461070b57806363bd1d4a1461074c5780636bc0b3ba1461077757610267565b80632e5b2168116102245780632e5b2168146105415780632ee42d8a1461056c57806333ea51a8146105975780633638104a146105e85780633a067e641461064f57610267565b80630c610a121461026c578063117a5b90146102bd57806313cbf8c31461034757806319465b7c146104235780632da6eb0c1461046457610267565b3661026757005b600080fd5b34801561027857600080fd5b506102a56004803603602081101561028f57600080fd5b8101908080359060200190929190505050611450565b60405180821515815260200191505060405180910390f35b3480156102c957600080fd5b506102f6600480360360208110156102e057600080fd5b81019080803590602001909291905050506114ce565b604051808781526020018673ffffffffffffffffffffffffffffffffffffffff1681526020018581526020018481526020018381526020018215158152602001965050505050505060405180910390f35b34801561035357600080fd5b5061040a6004803603602081101561036a57600080fd5b810190808035906020019064010000000081111561038757600080fd5b82018360208201111561039957600080fd5b803590602001918460208302840111640100000000831117156103bb57600080fd5b919080806020026020016040519081016040528093929190818152602001838360200280828437600081840152601f19601f820116905080830192505050505050509192919290505050611537565b604051808260ff16815260200191505060405180910390f35b34801561042f57600080fd5b50610438611585565b604051808273ffffffffffffffffffffffffffffffffffffffff16815260200191505060405180910390f35b34801561047057600080fd5b506104796115ab565b6040518088815260200180602001806020018781526020018660ff1681526020018581526020018460ff168152602001838103835289818151815260200191508051906020019060200280838360005b838110156104e45780820151818401526020810190506104c9565b50505050905001838103825288818151815260200191508051906020019060200280838360005b8381101561052657808201518184015260208101905061050b565b50505050905001995050505050505050505060405180910390f35b34801561054d57600080fd5b506105566117ea565b6040518082815260200191505060405180910390f35b34801561057857600080fd5b506105816117f0565b6040518082815260200191505060405180910390f35b3480156105a357600080fd5b506105e6600480360360208110156105ba57600080fd5b81019080803573ffffffffffffffffffffffffffffffffffffffff1690602001909291905050506117f6565b005b3480156105f457600080fd5b506106376004803603602081101561060b57600080fd5b81019080803573ffffffffffffffffffffffffffffffffffffffff1690602001909291905050506118e9565b60405180821515815260200191505060405180910390f35b34801561065b57600080fd5b5061069e6004803603602081101561067257600080fd5b81019080803573ffffffffffffffffffffffffffffffffffffffff169060200190929190505050611909565b005b3480156106ac57600080fd5b506106b5611a64565b6040518085815260200184815260200183815260200182815260200194505050505060405180910390f35b3480156106ec57600080fd5b506106f5611a84565b6040518082815260200191505060405180910390f35b34801561071757600080fd5b50610720611b4f565b604051808273ffffffffffffffffffffffffffffffffffffffff16815260200191505060405180910390f35b34801561075857600080fd5b50610761611b75565b6040518082815260200191505060405180910390f35b34801561078357600080fd5b5061078c611b7b565b604051808273ffffffffffffffffffffffffffffffffffffffff16815260200191505060405180910390f35b3480156107c457600080fd5b506107cd611ba1565b604051808060200180602001838103835285818151815260200191508051906020019060200280838360005b838110156108145780820151818401526020810190506107f9565b50505050905001838103825284818151815260200191508051906020019060200280838360005b8381101561085657808201518184015260208101905061083b565b5050505090500194505050505060405180910390f35b34801561087857600080fd5b506109396004803603604081101561088f57600080fd5b8101908080359060200190929190803590602001906401000000008111156108b657600080fd5b8201836020820111156108c857600080fd5b803590602001918460208302840111640100000000831117156108ea57600080fd5b919080806020026020016040519081016040528093929190818152602001838360200280828437600081840152601f19601f820116905080830192505050505050509192919290505050611cf4565b005b34801561094757600080fd5b50610950612387565b005b34801561095e57600080fd5b5061098b6004803603602081101561097557600080fd5b81019080803590602001909291905050506124f4565b005b34801561099957600080fd5b506109c6600480360360208110156109b057600080fd5b81019080803590602001909291905050506126e4565b604051808681526020018573ffffffffffffffffffffffffffffffffffffffff16815260200184815260200183815260200182151581526020019550505050505060405180910390f35b348015610a1c57600080fd5b50610a25612747565b604051808273ffffffffffffffffffffffffffffffffffffffff16815260200191505060405180910390f35b348015610a5d57600080fd5b50610a66612770565b6040518082815260200191505060405180910390f35b348015610a8857600080fd5b50610bd360048036036040811015610a9f57600080fd5b8101908080359060200190640100000000811115610abc57600080fd5b820183602082011115610ace57600080fd5b80359060200191846020830284011164010000000083111715610af057600080fd5b919080806020026020016040519081016040528093929190818152602001838360200280828437600081840152601f19601f82011690508083019250505050505050919291929080359060200190640100000000811115610b5057600080fd5b820183602082011115610b6257600080fd5b80359060200191846020830284011164010000000083111715610b8457600080fd5b919080806020026020016040519081016040528093929190818152602001838360200280828437600081840152601f19601f820116905080830192505050505050509192919290505050612776565b6040518080602001828103825283818151815260200191508051906020019060200280838360005b83811015610c16578082015181840152602081019050610bfb565b505050509050019250505060405180910390f35b348015610c3657600080fd5b50610c6360048036036020811015610c4d57600080fd5b81019080803590602001909291905050506128f6565b6040518080602001828103825283818151815260200191508051906020019060200280838360005b83811015610ca6578082015181840152602081019050610c8b565b505050509050019250505060405180910390f35b348015610cc657600080fd5b50610d0960048036036020811015610cdd57600080fd5b81019080803573ffffffffffffffffffffffffffffffffffffffff169060200190929190505050612964565b005b348015610d1757600080fd5b50610d6660048036036040811015610d2e57600080fd5b81019080803573ffffffffffffffffffffffffffffffffffffffff169060200190929190803515159060200190929190505050612a57565b005b348015610d7457600080fd5b50610da160048036036020811015610d8b57600080fd5b8101908080359060200190929190505050612b61565b005b348015610daf57600080fd5b50610db8612e58565b604051808260ff16815260200191505060405180910390f35b348015610ddd57600080fd5b50610f2860048036036040811015610df457600080fd5b8101908080359060200190640100000000811115610e1157600080fd5b820183602082011115610e2357600080fd5b80359060200191846020830284011164010000000083111715610e4557600080fd5b919080806020026020016040519081016040528093929190818152602001838360200280828437600081840152601f19601f82011690508083019250505050505050919291929080359060200190640100000000811115610ea557600080fd5b820183602082011115610eb757600080fd5b80359060200191846020830284011164010000000083111715610ed957600080fd5b919080806020026020016040519081016040528093929190818152602001838360200280828437600081840152601f19601f820116905080830192505050505050509192919290505050612e6b565b604051808260ff16815260200191505060405180910390f35b610f8d60048036036040811015610f5757600080fd5b81019080803573ffffffffffffffffffffffffffffffffffffffff16906020019092919080359060200190929190505050612e87565b005b348015610f9b57600080fd5b50610fc860048036036020811015610fb257600080fd5b8101908080359060200190929190505050612ee2565b60405180821515815260200191505060405180910390f35b348015610fec57600080fd5b5061102f6004803603602081101561100357600080fd5b81019080803573ffffffffffffffffffffffffffffffffffffffff169060200190929190505050613070565b6040518082815260200191505060405180910390f35b34801561105157600080fd5b5061107e6004803603602081101561106857600080fd5b8101908080359060200190929190505050613088565b6040518080602001828103825283818151815260200191508051906020019060200280838360005b838110156110c15780820151818401526020810190506110a6565b505050509050019250505060405180910390f35b3480156110e157600080fd5b506110ea6130f6565b005b6110f46134ab565b005b34801561110257600080fd5b5061112f6004803603602081101561111957600080fd5b8101908080359060200190929190505050613536565b005b6112076004803603604081101561114757600080fd5b81019080803573ffffffffffffffffffffffffffffffffffffffff1690602001909291908035906020019064010000000081111561118457600080fd5b82018360208201111561119657600080fd5b803590602001918460208302840111640100000000831117156111b857600080fd5b919080806020026020016040519081016040528093929190818152602001838360200280828437600081840152601f19601f820116905080830192505050505050509192919290505050613718565b005b6112556004803603604081101561121f57600080fd5b81019080803573ffffffffffffffffffffffffffffffffffffffff16906020019092919080359060200190929190505050613a20565b005b34801561126357600080fd5b506112a66004803603602081101561127a57600080fd5b81019080803573ffffffffffffffffffffffffffffffffffffffff169060200190929190505050613a7b565b60405180821515815260200191505060405180910390f35b3480156112ca57600080fd5b506112d3613a9b565b604051808260ff16815260200191505060405180910390f35b3480156112f857600080fd5b5061133b6004803603602081101561130f57600080fd5b81019080803573ffffffffffffffffffffffffffffffffffffffff169060200190929190505050613aae565b005b34801561134957600080fd5b506113766004803603602081101561136057600080fd5b8101908080359060200190929190505050613ca0565b005b61144e6004803603604081101561138e57600080fd5b81019080803573ffffffffffffffffffffffffffffffffffffffff169060200190929190803590602001906401000000008111156113cb57600080fd5b8201836020820111156113dd57600080fd5b803590602001918460208302840111640100000000831117156113ff57600080fd5b919080806020026020016040519081016040528093929190818152602001838360200280828437600081840152601f19601f820116905080830192505050505050509192919290505050613d5b565b005b6000601b6000601d6114716001601d80549050613e9c90919063ffffffff16565b8154811061147b57fe5b90600052602060002090602091828204019190069054906101000a900460ff1660ff1660ff168152602001908152602001600020546114c560115447613e9c90919063ffffffff16565b10159050919050565b60176020528060005260406000206000915090508060000154908060010160009054906101000a900473ffffffffffffffffffffffffffffffffffffffff16908060020154908060030154908060040154908060050160009054906101000a900460ff16905086565b6000806000905060005b835181101561157b57600084828151811061155857fe5b60200260200101511461156e5781806001019250505b8080600101915050611541565b5080915050919050565b600260009054906101000a900473ffffffffffffffffffffffffffffffffffffffff1681565b60006060806000806000806000601a60009054906101000a900473ffffffffffffffffffffffffffffffffffffffff16905060008173ffffffffffffffffffffffffffffffffffffffff166312065fe06040518163ffffffff1660e01b815260040160206040518083038186803b15801561162557600080fd5b505afa158015611639573d6000803e3d6000fd5b505050506040513d602081101561164f57600080fd5b810190808051906020019092919050505090506060601d8054905067ffffffffffffffff8111801561168057600080fd5b506040519080825280602002602001820160405280156116af5781602001602082028036833780820191505090505b50905060005b601d8054905081101561172d57601b6000601d83815481106116d357fe5b90600052602060002090602091828204019190069054906101000a900460ff1660ff1660ff1681526020019081526020016000205482828151811061171457fe5b60200260200101818152505080806001019150506116b5565b50601054601d82600e54601c60009054906101000a900460ff1686601e60009054906101000a900460ff16858054806020026020016040519081016040528092919081815260200182805480156117c957602002820191906000526020600020906000905b82829054906101000a900460ff1660ff16815260200190600101906020826000010492830192600103820291508084116117925790505b50505050509550995099509950995099509950995050505090919293949596565b600f5481565b600e5481565b6117fe613f25565b73ffffffffffffffffffffffffffffffffffffffff1661181c612747565b73ffffffffffffffffffffffffffffffffffffffff16146118a5576040517f08c379a00000000000000000000000000000000000000000000000000000000081526004018080602001828103825260208152602001807f4f776e61626c653a2063616c6c6572206973206e6f7420746865206f776e657281525060200191505060405180910390fd5b80601360006101000a81548173ffffffffffffffffffffffffffffffffffffffff021916908373ffffffffffffffffffffffffffffffffffffffff16021790555050565b60156020528060005260406000206000915054906101000a900460ff1681565b611911613f25565b73ffffffffffffffffffffffffffffffffffffffff1661192f612747565b73ffffffffffffffffffffffffffffffffffffffff16146119b8576040517f08c379a00000000000000000000000000000000000000000000000000000000081526004018080602001828103825260208152602001807f4f776e61626c653a2063616c6c6572206973206e6f7420746865206f776e657281525060200191505060405180910390fd5b6000601a60009054906101000a900473ffffffffffffffffffffffffffffffffffffffff1690508073ffffffffffffffffffffffffffffffffffffffff16633a067e64836040518263ffffffff1660e01b8152600401808273ffffffffffffffffffffffffffffffffffffffff168152602001915050600060405180830381600087803b158015611a4857600080fd5b505af1158015611a5c573d6000803e3d6000fd5b505050505050565b600080600080601054600f54601454600e54935093509350935090919293565b6000600160009054906101000a900473ffffffffffffffffffffffffffffffffffffffff1673ffffffffffffffffffffffffffffffffffffffff166370a08231306040518263ffffffff1660e01b8152600401808273ffffffffffffffffffffffffffffffffffffffff16815260200191505060206040518083038186803b158015611b0f57600080fd5b505afa158015611b23573d6000803e3d6000fd5b505050506040513d6020811015611b3957600080fd5b8101908080519060200190929190505050905090565b601360009054906101000a900473ffffffffffffffffffffffffffffffffffffffff1681565b60145481565b601a60009054906101000a900473ffffffffffffffffffffffffffffffffffffffff1681565b6060806060601d8054905067ffffffffffffffff81118015611bc257600080fd5b50604051908082528060200260200182016040528015611bf15781602001602082028036833780820191505090505b50905060005b601d80549050811015611c6f57601b6000601d8381548110611c1557fe5b90600052602060002090602091828204019190069054906101000a900460ff1660ff1660ff16815260200190815260200160002054828281518110611c5657fe5b6020026020010181815250508080600101915050611bf7565b50601d8181805480602002602001604051908101604052809291908181526020018280548015611ce457602002820191906000526020600020906000905b82829054906101000a900460ff1660ff1681526020019060010190602082600001049283019260010382029150808411611cad5790505b5050505050915092509250509091565b600260009054906101000a900473ffffffffffffffffffffffffffffffffffffffff1673ffffffffffffffffffffffffffffffffffffffff163373ffffffffffffffffffffffffffffffffffffffff1614611d4e57600080fd5b6000601f600060186000868152602001908152602001600020548152602001908152602001600020905060008160000154118015611da15750600015158160060160009054906101000a900460ff161515145b1561232a57600f5481600201541115611dc057600f5481600201819055505b806002015460115410611de6578060020154601160008282540392505081905550611def565b60006011819055505b611df96001611450565b611e0257600080fd5b60018160060160006101000a81548160ff02191690831515021790555060005b601c60009054906101000a900460ff1660ff168160ff161015611eaa57611e7d6001611e6f600e54868560ff1681518110611e5957fe5b6020026020010151613f2d90919063ffffffff16565b613fb790919063ffffffff16565b826004018260ff1681548110611e8f57fe5b90600052602060002001819055508080600101915050611e22565b506000601a60009054906101000a900473ffffffffffffffffffffffffffffffffffffffff1690506000611f106064611f02601e60009054906101000a900460ff1660ff16866002015461403f90919063ffffffff16565b6140c590919063ffffffff16565b90508173ffffffffffffffffffffffffffffffffffffffff1663256bcaa0826040518263ffffffff1660e01b81526004016000604051808303818588803b158015611f5a57600080fd5b505af1158015611f6e573d6000803e3d6000fd5b5050505050600061202384600301805480602002602001604051908101604052809291908181526020018280548015611fc657602002820191906000526020600020905b815481526020019060010190808311611fb2575b50505050508560040180548060200260200160405190810160405280929190818152602001828054801561201957602002820191906000526020600020905b815481526020019060010190808311612005575b5050505050612e6b565b90506000808260ff16111561220557601c60009054906101000a900460ff1660ff168260ff16141561217c578373ffffffffffffffffffffffffffffffffffffffff166312065fe06040518163ffffffff1660e01b815260040160206040518083038186803b15801561209557600080fd5b505afa1580156120a9573d6000803e3d6000fd5b505050506040513d60208110156120bf57600080fd5b810190808051906020019092919050505090508373ffffffffffffffffffffffffffffffffffffffff16630c1e8bc18660010160009054906101000a900473ffffffffffffffffffffffffffffffffffffffff166040518263ffffffff1660e01b8152600401808273ffffffffffffffffffffffffffffffffffffffff168152602001915050600060405180830381600087803b15801561215f57600080fd5b505af1158015612173573d6000803e3d6000fd5b50505050612204565b601b60008360ff1660ff1681526020019081526020016000205490508460010160009054906101000a900473ffffffffffffffffffffffffffffffffffffffff1673ffffffffffffffffffffffffffffffffffffffff166108fc829081150290604051600060405180830381858888f19350505050158015612202573d6000803e3d6000fd5b505b5b8085600501819055507fa6cb1ec482c3fc2195375d491afa6cd9c444f72990732d47680ebe021b0045da8560010160009054906101000a900473ffffffffffffffffffffffffffffffffffffffff168660020154876003018860040185604051808673ffffffffffffffffffffffffffffffffffffffff168152602001858152602001806020018060200184815260200183810383528681815481526020019150805480156122d357602002820191906000526020600020905b8154815260200190600101908083116122bf575b5050838103825285818154815260200191508054801561231257602002820191906000526020600020905b8154815260200190600101908083116122fe575b505097505050505050505060405180910390a1505050505b60016003819055506001600481905550600160058190555060016006819055506001600781905550600160088190555060016009819055506001600a819055506001600b819055506001600c819055506001600d81905550505050565b61238f613f25565b73ffffffffffffffffffffffffffffffffffffffff166123ad612747565b73ffffffffffffffffffffffffffffffffffffffff1614612436576040517f08c379a00000000000000000000000000000000000000000000000000000000081526004018080602001828103825260208152602001807f4f776e61626c653a2063616c6c6572206973206e6f7420746865206f776e657281525060200191505060405180910390fd5b600073ffffffffffffffffffffffffffffffffffffffff1660008054906101000a900473ffffffffffffffffffffffffffffffffffffffff1673ffffffffffffffffffffffffffffffffffffffff167f8be0079c531659141344cd1fd0a4f28419497f9722a3daafe3b4186f6b6457e060405160405180910390a360008060006101000a81548173ffffffffffffffffffffffffffffffffffffffff021916908373ffffffffffffffffffffffffffffffffffffffff160217905550565b3373ffffffffffffffffffffffffffffffffffffffff16612513612747565b73ffffffffffffffffffffffffffffffffffffffff16148061257e5750601560003373ffffffffffffffffffffffffffffffffffffffff1673ffffffffffffffffffffffffffffffffffffffff16815260200190815260200160002060009054906101000a900460ff165b6125f0576040517f08c379a00000000000000000000000000000000000000000000000000000000081526004018080602001828103825260188152602001807f63616c6c6572206973206e6f7420617574686f72697a6564000000000000000081525060200191505060405180910390fd5b600160009054906101000a900473ffffffffffffffffffffffffffffffffffffffff1673ffffffffffffffffffffffffffffffffffffffff1663a9059cbb601360009054906101000a900473ffffffffffffffffffffffffffffffffffffffff16836040518363ffffffff1660e01b8152600401808373ffffffffffffffffffffffffffffffffffffffff16815260200182815260200192505050602060405180830381600087803b1580156126a557600080fd5b505af11580156126b9573d6000803e3d6000fd5b505050506040513d60208110156126cf57600080fd5b81019080805190602001909291905050505050565b601f6020528060005260406000206000915090508060000154908060010160009054906101000a900473ffffffffffffffffffffffffffffffffffffffff16908060020154908060050154908060060160009054906101000a900460ff16905085565b60008060009054906101000a900473ffffffffffffffffffffffffffffffffffffffff16905090565b60105481565b606081518351146127ef576040517f08c379a000000000000000000000000000000000000000000000000000000000815260040180806020018281038252601a8152602001807f617272617973206d7573742062652073616d65206c656e67746800000000000081525060200191505060405180910390fd5b60008351905060608167ffffffffffffffff8111801561280e57600080fd5b5060405190808252806020026020018201604052801561283d5781602001602082028036833780820191505090505b50905060005b828110156128ea5760005b838110156128dc5785818151811061286257fe5b602002602001015187838151811061287657fe5b602002602001015114156128cf5786828151811061289057fe5b60200260200101518383815181106128a457fe5b60200260200101818152505060008682815181106128be57fe5b6020026020010181815250506128dc565b808060010191505061284e565b508080600101915050612843565b50809250505092915050565b6060601f600083815260200190815260200160002060040180548060200260200160405190810160405280929190818152602001828054801561295857602002820191906000526020600020905b815481526020019060010190808311612944575b50505050509050919050565b61296c613f25565b73ffffffffffffffffffffffffffffffffffffffff1661298a612747565b73ffffffffffffffffffffffffffffffffffffffff1614612a13576040517f08c379a00000000000000000000000000000000000000000000000000000000081526004018080602001828103825260208152602001807f4f776e61626c653a2063616c6c6572206973206e6f7420746865206f776e657281525060200191505060405180910390fd5b80600160006101000a81548173ffffffffffffffffffffffffffffffffffffffff021916908373ffffffffffffffffffffffffffffffffffffffff16021790555050565b612a5f613f25565b73ffffffffffffffffffffffffffffffffffffffff16612a7d612747565b73ffffffffffffffffffffffffffffffffffffffff1614612b06576040517f08c379a00000000000000000000000000000000000000000000000000000000081526004018080602001828103825260208152602001807f4f776e61626c653a2063616c6c6572206973206e6f7420746865206f776e657281525060200191505060405180910390fd5b80601560008473ffffffffffffffffffffffffffffffffffffffff1673ffffffffffffffffffffffffffffffffffffffff16815260200190815260200160002060006101000a81548160ff0219169083151502179055505050565b6000601f60008381526020019081526020016000209050601560003373ffffffffffffffffffffffffffffffffffffffff1673ffffffffffffffffffffffffffffffffffffffff16815260200190815260200160002060009054906101000a900460ff1680612c0257503373ffffffffffffffffffffffffffffffffffffffff16612bea612747565b73ffffffffffffffffffffffffffffffffffffffff16145b80612c5c57503373ffffffffffffffffffffffffffffffffffffffff168160010160009054906101000a900473ffffffffffffffffffffffffffffffffffffffff1673ffffffffffffffffffffffffffffffffffffffff16145b612cce576040517f08c379a00000000000000000000000000000000000000000000000000000000081526004018080602001828103825260208152602001807f4e6f7420617574686f72697a656420746f207265717565737420726566756e6481525060200191505060405180910390fd5b600015158160060160009054906101000a900460ff16151514612d3c576040517f08c379a000000000000000000000000000000000000000000000000000000000815260040180806020018281038252602a8152602001806146a6602a913960400191505060405180910390fd5b8060020154471015612d99576040517f08c379a00000000000000000000000000000000000000000000000000000000081526004018080602001828103825260318152602001806146756031913960400191505060405180910390fd5b60018160060160006101000a81548160ff021916908315150217905550806002015460115410612ddc578060020154601160008282540392505081905550612de5565b60006011819055505b8060010160009054906101000a900473ffffffffffffffffffffffffffffffffffffffff1673ffffffffffffffffffffffffffffffffffffffff166108fc82600201549081150290604051600060405180830381858888f19350505050158015612e53573d6000803e3d6000fd5b505050565b601e60009054906101000a900460ff1681565b6000612e7f612e7a8484612776565b611537565b905092915050565b6000612ede576040517f08c379a000000000000000000000000000000000000000000000000000000000815260040180806020018281038252603a81526020018061463b603a913960400191505060405180910390fd5b5050565b600080600260009054906101000a900473ffffffffffffffffffffffffffffffffffffffff16905060008173ffffffffffffffffffffffffffffffffffffffff166350c5f9756040518163ffffffff1660e01b815260040160206040518083038186803b158015612f5257600080fd5b505afa158015612f66573d6000803e3d6000fd5b505050506040513d6020811015612f7c57600080fd5b810190808051906020019092919050505090506000600160009054906101000a900473ffffffffffffffffffffffffffffffffffffffff1673ffffffffffffffffffffffffffffffffffffffff166370a08231306040518263ffffffff1660e01b8152600401808273ffffffffffffffffffffffffffffffffffffffff16815260200191505060206040518083038186803b15801561301a57600080fd5b505afa15801561302e573d6000803e3d6000fd5b505050506040513d602081101561304457600080fd5b8101908080519060200190929190505050905084811015806130665750848210155b9350505050919050565b60196020528060005260406000206000915090505481565b6060601f60008381526020019081526020016000206003018054806020026020016040519081016040528092919081815260200182805480156130ea57602002820191906000526020600020905b8154815260200190600101908083116130d6575b50505050509050919050565b6130fe613f25565b73ffffffffffffffffffffffffffffffffffffffff1661311c612747565b73ffffffffffffffffffffffffffffffffffffffff16146131a5576040517f08c379a00000000000000000000000000000000000000000000000000000000081526004018080602001828103825260208152602001807f4f776e61626c653a2063616c6c6572206973206e6f7420746865206f776e657281525060200191505060405180910390fd5b60006131bc60115447613e9c90919063ffffffff16565b9050601360009054906101000a900473ffffffffffffffffffffffffffffffffffffffff1673ffffffffffffffffffffffffffffffffffffffff166108fc829081150290604051600060405180830381858888f19350505050158015613226573d6000803e3d6000fd5b506000600160009054906101000a900473ffffffffffffffffffffffffffffffffffffffff1673ffffffffffffffffffffffffffffffffffffffff166370a08231306040518263ffffffff1660e01b8152600401808273ffffffffffffffffffffffffffffffffffffffff16815260200191505060206040518083038186803b1580156132b257600080fd5b505afa1580156132c6573d6000803e3d6000fd5b505050506040513d60208110156132dc57600080fd5b810190808051906020019092919050505011156134a857600160009054906101000a900473ffffffffffffffffffffffffffffffffffffffff1673ffffffffffffffffffffffffffffffffffffffff1663a9059cbb601360009054906101000a900473ffffffffffffffffffffffffffffffffffffffff16600160009054906101000a900473ffffffffffffffffffffffffffffffffffffffff1673ffffffffffffffffffffffffffffffffffffffff166370a08231306040518263ffffffff1660e01b8152600401808273ffffffffffffffffffffffffffffffffffffffff16815260200191505060206040518083038186803b1580156133dd57600080fd5b505afa1580156133f1573d6000803e3d6000fd5b505050506040513d602081101561340757600080fd5b81019080805190602001909291905050506040518363ffffffff1660e01b8152600401808373ffffffffffffffffffffffffffffffffffffffff16815260200182815260200192505050602060405180830381600087803b15801561346b57600080fd5b505af115801561347f573d6000803e3d6000fd5b505050506040513d602081101561349557600080fd5b8101908080519060200190929190505050505b50565b6000601a60009054906101000a900473ffffffffffffffffffffffffffffffffffffffff1690508073ffffffffffffffffffffffffffffffffffffffff1663256bcaa0346040518263ffffffff1660e01b81526004016000604051808303818588803b15801561351a57600080fd5b505af115801561352e573d6000803e3d6000fd5b505050505050565b3373ffffffffffffffffffffffffffffffffffffffff16613555612747565b73ffffffffffffffffffffffffffffffffffffffff1614806135c05750601560003373ffffffffffffffffffffffffffffffffffffffff1673ffffffffffffffffffffffffffffffffffffffff16815260200190815260200160002060009054906101000a900460ff165b613632576040517f08c379a00000000000000000000000000000000000000000000000000000000081526004018080602001828103825260188152602001807f63616c6c6572206973206e6f7420617574686f72697a6564000000000000000081525060200191505060405180910390fd5b60115481470310156136ac576040517f08c379a000000000000000000000000000000000000000000000000000000000815260040180806020018281038252601c8152602001807f43616e277420776974686472617720756e706c6179656420626574730000000081525060200191505060405180910390fd5b601360009054906101000a900473ffffffffffffffffffffffffffffffffffffffff1673ffffffffffffffffffffffffffffffffffffffff166108fc829081150290604051600060405180830381858888f19350505050158015613714573d6000803e3d6000fd5b5050565b601c60009054906101000a900460ff1660ff168151146137a0576040517f08c379a00000000000000000000000000000000000000000000000000000000081526004018080602001828103825260198152602001807f496e636f7272656374206e756d626572206f66207069636b730000000000000081525060200191505060405180910390fd5b6137a934611450565b6137fe576040517f08c379a00000000000000000000000000000000000000000000000000000000081526004018080602001828103825260368152602001806145ab6036913960400191505060405180910390fd5b60005b601c60009054906101000a900460ff1660ff168160ff1610156138db57600e54828260ff168151811061383057fe5b60200260200101511115801561385c57506000828260ff168151811061385257fe5b6020026020010151115b6138ce576040517f08c379a000000000000000000000000000000000000000000000000000000000815260040180806020018281038252601a8152602001807f4f757473696465206f66207069636b61626c6520626f756e647300000000000081525060200191505060405180910390fd5b8080600101915050613801565b506138e534614154565b613957576040517f08c379a00000000000000000000000000000000000000000000000000000000081526004018080602001828103825260158152602001807f4f757469736465206f66206265742072616e67652e000000000000000000000081525060200191505060405180910390fd5b600160035414156139a557600360009055600460009055600560009055600660009055600760009055600860009055600960009055600a60009055600b60009055600c60009055600d600090555b6139ba34601154613fb790919063ffffffff16565b6011819055506139cb823483614182565b6139d660125461432f565b601254601960008473ffffffffffffffffffffffffffffffffffffffff1673ffffffffffffffffffffffffffffffffffffffff168152602001908152602001600020819055505050565b6000613a77576040517f08c379a00000000000000000000000000000000000000000000000000000000081526004018080602001828103825260398152602001806145e16039913960400191505060405180910390fd5b5050565b60166020528060005260406000206000915054906101000a900460ff1681565b601c60009054906101000a900460ff1681565b613ab6613f25565b73ffffffffffffffffffffffffffffffffffffffff16613ad4612747565b73ffffffffffffffffffffffffffffffffffffffff1614613b5d576040517f08c379a00000000000000000000000000000000000000000000000000000000081526004018080602001828103825260208152602001807f4f776e61626c653a2063616c6c6572206973206e6f7420746865206f776e657281525060200191505060405180910390fd5b600073ffffffffffffffffffffffffffffffffffffffff168173ffffffffffffffffffffffffffffffffffffffff161415613be3576040517f08c379a00000000000000000000000000000000000000000000000000000000081526004018080602001828103825260268152602001806145856026913960400191505060405180910390fd5b8073ffffffffffffffffffffffffffffffffffffffff1660008054906101000a900473ffffffffffffffffffffffffffffffffffffffff1673ffffffffffffffffffffffffffffffffffffffff167f8be0079c531659141344cd1fd0a4f28419497f9722a3daafe3b4186f6b6457e060405160405180910390a3806000806101000a81548173ffffffffffffffffffffffffffffffffffffffff021916908373ffffffffffffffffffffffffffffffffffffffff16021790555050565b613ca8613f25565b73ffffffffffffffffffffffffffffffffffffffff16613cc6612747565b73ffffffffffffffffffffffffffffffffffffffff1614613d4f576040517f08c379a00000000000000000000000000000000000000000000000000000000081526004018080602001828103825260208152602001807f4f776e61626c653a2063616c6c6572206973206e6f7420746865206f776e657281525060200191505060405180910390fd5b613d588161432f565b50565b601054341015613dd3576040517f08c379a00000000000000000000000000000000000000000000000000000000081526004018080602001828103825260138152602001807f6d696e696d756d20626574206e6f74206d65740000000000000000000000000081525060200191505060405180910390fd5b60016003541415613e2157600360009055600460009055600560009055600660009055600760009055600860009055600960009055600a60009055600b60009055600c60009055600d600090555b613e3634601154613fb790919063ffffffff16565b601181905550613e47823483614182565b613e5260125461432f565b601254601960008473ffffffffffffffffffffffffffffffffffffffff1673ffffffffffffffffffffffffffffffffffffffff168152602001908152602001600020819055505050565b600082821115613f14576040517f08c379a000000000000000000000000000000000000000000000000000000000815260040180806020018281038252601e8152602001807f536166654d6174683a207375627472616374696f6e206f766572666c6f77000081525060200191505060405180910390fd5b600082840390508091505092915050565b600033905090565b600080821415613fa5576040517f08c379a00000000000000000000000000000000000000000000000000000000081526004018080602001828103825260188152602001807f536166654d6174683a206d6f64756c6f206279207a65726f000000000000000081525060200191505060405180910390fd5b818381613fae57fe5b06905092915050565b600080828401905083811015614035576040517f08c379a000000000000000000000000000000000000000000000000000000000815260040180806020018281038252601b8152602001807f536166654d6174683a206164646974696f6e206f766572666c6f77000000000081525060200191505060405180910390fd5b8091505092915050565b60008083141561405257600090506140bf565b600082840290508284828161406357fe5b04146140ba576040517f08c379a000000000000000000000000000000000000000000000000000000000815260040180806020018281038252602181526020018061461a6021913960400191505060405180910390fd5b809150505b92915050565b600080821161413c576040517f08c379a000000000000000000000000000000000000000000000000000000000815260040180806020018281038252601a8152602001807f536166654d6174683a206469766973696f6e206279207a65726f00000000000081525060200191505060405180910390fd5b600082848161414757fe5b0490508091505092915050565b6000601054821015801561416a5750600f548211155b15614178576001905061417d565b600090505b919050565b6141986001601254613fb790919063ffffffff16565b6012819055506141a66144c5565b6040518060e0016040528060125481526020018573ffffffffffffffffffffffffffffffffffffffff168152602001848152602001838152602001601c60009054906101000a900460ff1660ff1667ffffffffffffffff8111801561420a57600080fd5b506040519080825280602002602001820160405280156142395781602001602082028036833780820191505090505b5081526020016000815260200160001515815250905080601f6000836000015181526020019081526020016000206000820151816000015560208201518160010160006101000a81548173ffffffffffffffffffffffffffffffffffffffff021916908373ffffffffffffffffffffffffffffffffffffffff1602179055506040820151816002015560608201518160030190805190602001906142de92919061451a565b5060808201518160040190805190602001906142fb92919061451a565b5060a0820151816005015560c08201518160060160006101000a81548160ff02191690831515021790555090505050505050565b60001515601f600083815260200190815260200160002060060160009054906101000a900460ff161515146143cc576040517f08c379a00000000000000000000000000000000000000000000000000000000081526004018080602001828103825260138152602001807f67616d6520616c726561647920706c617965640000000000000000000000000081525060200191505060405180910390fd5b60006143e6601c60009054906101000a900460ff16614404565b90508160186000838152602001908152602001600020819055505050565b600080600260009054906101000a900473ffffffffffffffffffffffffffffffffffffffff1690508073ffffffffffffffffffffffffffffffffffffffff166339418765846040518263ffffffff1660e01b8152600401808260ff168152602001915050602060405180830381600087803b15801561448257600080fd5b505af1158015614496573d6000803e3d6000fd5b505050506040513d60208110156144ac57600080fd5b8101908080519060200190929190505050915050919050565b6040518060e0016040528060008152602001600073ffffffffffffffffffffffffffffffffffffffff168152602001600081526020016060815260200160608152602001600081526020016000151581525090565b828054828255906000526020600020908101928215614556579160200282015b8281111561455557825182559160200191906001019061453a565b5b5090506145639190614567565b5090565b5b80821115614580576000816000905550600101614568565b509056fe4f776e61626c653a206e6577206f776e657220697320746865207a65726f2061646472657373436f6e74726163742068617320696e737566666963696e742066756e647320746f207061796f757420706f737369626c652077696e2e46756e6374696f6e206e6f74207573656420696e207468697320636f6e74726163742e2055736520736166654a61636b706f74426574466f72536166654d6174683a206d756c7469706c69636174696f6e206f766572666c6f7746756e6374696f6e206e6f74207573656420696e207468697320636f6e74726163742e2055736520706c6163654a61636b706f74426574466f72436f6e74726163742062616c616e636520746f6f206c6f772e20506c656173652074727920616761696e206c617465722e47616d6520616c726561647920636f6d706c6574652e204e6f20726566756e6420706f737369626c652ea264697066735822122076e280ffb0dbedee8db06374290c586b0ae77ada0eb7d066b89fdd0dfe7b7a1564736f6c634300060c003343616e2774206265206d6f72652077696e6e696e67207469657273207468616e207069636b61626c65206e756d626572734d617463682051747920262057696e205061796f757473206d7573742062652073616d65206c656e677468436f6e747269627574696f6e20697320612070657263656e7461676520696e207468652072616e6765206f662030202d20313030a26469706673582212205631333c1ccbc2fac2b4e3b31837ce9bc7db66f8b2e8afe75b90e2d2b00f750e64736f6c634300060c0033",
  "immutableReferences": {},
  "source": "pragma solidity ^0.6.0;\n\nimport \"./LuckyMachines.sol\";\nimport \"./Jackpots.sol\";\n\ncontract LuckyMachineJackpot is LuckyMachine {\n\n    address payable public jackpotAddress;\n\n    mapping(uint8 => uint256) internal _payouts; //(number of matches => amount paid out)\n    uint8 public totalPicks;\n    uint8[] internal winTiers;\n    uint8 public percentToJackpot;\n\n    struct JackpotGame {\n        uint id;\n        address payable player;\n        uint bet;\n        uint[] picks;\n        uint[] winners;\n        uint payout;\n        bool played;\n    }\n\n    mapping(uint => JackpotGame) public jackpotGames;\n\n    event JackpotGamePlayed(address _player, uint256 _bet, uint256[] _picks, uint256[] _winners, uint256 _payout);\n\n    // SAFE LIMITS\n    uint8 internal numPicksLimit = 25; //note: too many picks will return too small of numbers\n    uint8 internal singlePickLimit = 100; // highest single pick, if too high some numbers will never get picked\n\n    constructor(address payable _jackpotAddress, address payable _machineCoordinator, address payable _payoutAddress,  address _linkToken, uint _entryFee, uint _maxPick, uint8 _totalPicks, uint8[] memory _winningMatchQuantities, uint[] memory _winningMatchPayouts, uint8 jackpotContribution)\n            LuckyMachine(\n                _machineCoordinator,\n                _payoutAddress,\n                _linkToken,\n                _entryFee,\n                _entryFee,\n                _maxPick,\n                0 //payout - this contract uses other methods for payout structure\n            ) public {\n                require(_maxPick <= singlePickLimit, \"Single pick limit exceeded\");\n                require(_winningMatchQuantities.length == _winningMatchPayouts.length, \"Match Qty & Win Payouts must be same length\");\n                require(_winningMatchQuantities.length <= numPicksLimit, \"Can't be more winning tiers than pickable numbers\");\n                require(jackpotContribution <= 100, \"Contribution is a percentage in the range of 0 - 100\");\n                totalPicks = _totalPicks;\n                for (uint8 i = 0; i < _winningMatchQuantities.length; i++) {\n                    _payouts[_winningMatchQuantities[i]] = _winningMatchPayouts[i];\n                }\n                winTiers = _winningMatchQuantities;\n                percentToJackpot = jackpotContribution;\n                jackpotAddress = _jackpotAddress;\n                Jackpots jackpots = Jackpots(jackpotAddress);\n                jackpots.registerMachine();\n    }\n\n    function compare(uint[] memory arr1, uint[] memory arr2) public pure returns(uint[] memory) {\n        require(arr1.length == arr2.length, \"arrays must be same length\");\n        uint elements = arr1.length;\n        uint[] memory matches = new uint256[](elements);\n        for (uint i = 0; i < elements; i++) {\n            for(uint j = 0; j < elements; j++) {\n                if(arr1[i] == arr2[j]) {\n                    matches[i] = arr1[i];\n                    arr2[j] = 0;\n                    break;\n                }\n            }\n        }\n        return matches;\n    }\n\n    function countMatches(uint[] memory matches) public pure returns(uint8) {\n        uint8 matchCount = 0;\n        for(uint i = 0; i < matches.length; i++) {\n            if(matches[i] != 0) {\n                matchCount++;\n            }\n        }\n        return matchCount;\n    }\n\n    function checkPicks(uint[] memory userPicks, uint[] memory winningNumbers) public pure returns(uint8) {\n        return countMatches(compare(userPicks, winningNumbers));\n    }\n\n    // Returns [number of matches], [associated payout] e.g. [1,2,3], [100000...,200000...,300000...]\n    // These are independent of jackpot payout\n    function getPayouts() public view returns(uint8[] memory, uint256[] memory) {\n        uint[] memory tierPayouts = new uint[](winTiers.length);\n        for (uint i = 0; i < winTiers.length; i++) {\n            tierPayouts[i] = _payouts[winTiers[i]];\n        }\n        return (winTiers, tierPayouts);\n    }\n\n    function createJackpotGame(address payable _player, uint _bet, uint[] memory _picks) internal {\n        _currentGame = _currentGame.add(1);\n        JackpotGame memory newGame = JackpotGame ({\n            id: _currentGame,\n            player: _player,\n            bet: _bet,\n            picks: _picks,\n            winners: new uint[](totalPicks),\n            payout: 0,\n            played: false\n        });\n        jackpotGames[newGame.id] = newGame;\n    }\n\n    function safeJackpotBetFor(address payable player, uint[] memory picks) public payable{\n        require(picks.length == totalPicks, \"Incorrect number of picks\");\n        require(betPayable(msg.value), \"Contract has insufficint funds to payout possible win.\");\n        for(uint8 i = 0; i < totalPicks; i++){\n            require(picks[i] <= maxPick && picks[i] > 0, \"Outside of pickable bounds\");\n        }\n        require(betInRange(msg.value),\"Outisde of bet range.\");\n\n        if(gas1 == 1) {\n            delete gas1;\n            delete gas2;\n            delete gas3;\n            delete gas4;\n            delete gas5;\n            delete gas6;\n            delete gas7;\n            delete gas8;\n            delete gas9;\n            delete gas10;\n            delete gas11;\n        }\n\n        _unplayedBets = _unplayedBets.add(msg.value);\n        createJackpotGame(player, msg.value, picks);\n        playGame(_currentGame);\n        lastGameCreated[player] = _currentGame;\n    }\n\n    function placeJackpotBetFor(address payable player, uint[] memory picks) public payable{\n        require(msg.value >= minBet, \"minimum bet not met\");\n\n        if(gas1 == 1) {\n            delete gas1;\n            delete gas2;\n            delete gas3;\n            delete gas4;\n            delete gas5;\n            delete gas6;\n            delete gas7;\n            delete gas8;\n            delete gas9;\n            delete gas10;\n            delete gas11;\n        }\n\n        _unplayedBets = _unplayedBets.add(msg.value);\n        createJackpotGame(player, msg.value, picks);\n        playGame(_currentGame);\n        lastGameCreated[player] = _currentGame;\n    }\n\n    function getRandomNumbers(uint8 quantity) internal returns (bytes32 requestId) {\n        LuckyMachineCoordinator mc = LuckyMachineCoordinator(machineCoordinator);\n        return mc.getRandomNumbers(quantity);\n    }\n\n    function getJackpotMachineSummary() public view returns(uint, uint8[] memory, uint[] memory, uint, uint8, uint, uint8) {\n        //entryFee, payoutTiers, payouts, maxPick, totalPicks, currentJackpot, jackpotContribution\n        Jackpots jackpots = Jackpots(jackpotAddress);\n        uint jackpotBal = jackpots.getBalance();\n        uint[] memory tierPayouts = new uint[](winTiers.length);\n        for (uint i = 0; i < winTiers.length; i++) {\n            tierPayouts[i] = _payouts[winTiers[i]];\n        }\n        return(minBet, winTiers, tierPayouts, maxPick, totalPicks, jackpotBal, percentToJackpot);\n    }\n\n    function getWinningNumbers(uint gameID) public view returns(uint[] memory){\n        return jackpotGames[gameID].winners;\n    }\n\n    function getPlayedPicks(uint gameID) public view returns(uint[] memory){\n        return jackpotGames[gameID].picks;\n    }\n\n    // Lucky Machine functions to override:\n    function betPayable(uint bet) override public view returns(bool){\n        return (address(this).balance.sub(_unplayedBets) >= _payouts[winTiers[winTiers.length.sub(1)]]);\n    }\n\n    function playGame(uint gameID) override internal {\n        require(jackpotGames[gameID].played == false, \"game already played\");\n        bytes32 reqID = getRandomNumbers(totalPicks);\n        _gameRequests[reqID] = gameID;\n    }\n\n    function fulfillRandomness(bytes32 requestId, uint256[] memory randomness) override external {\n        // ONLY CALLABLE BY MACHINE COORDINATOR\n        require(msg.sender == machineCoordinator);\n        JackpotGame storage g = jackpotGames[_gameRequests[requestId]];\n        if(g.id > 0 && g.played == false){\n            if(g.bet > maxBet) {\n                g.bet = maxBet;\n            }\n\n            if(_unplayedBets >= g.bet) {\n                _unplayedBets -= g.bet;\n            } else {\n                _unplayedBets = 0;\n            }\n\n            require(betPayable(1));\n\n            g.played = true;\n\n            // store winning numbers\n            for (uint8 i = 0; i < totalPicks; i++) {\n                g.winners[i] = randomness[i].mod(maxPick).add(1);\n            }\n\n            Jackpots jackpots = Jackpots(jackpotAddress);\n\n            //Transfer portion of bet to jackpot\n            uint jackpotContrubution = g.bet.mul(percentToJackpot).div(100);\n            jackpots.addToJackpot{value:jackpotContrubution}();\n\n            // Check for winning numbers\n            uint8 winningPicks = checkPicks(g.picks, g.winners);\n            uint totalPayout = 0;\n\n            // Payout if winner\n            if(winningPicks > 0) {\n                if (winningPicks == totalPicks) {\n                    // Trigger jackpot payout\n                    totalPayout = jackpots.getBalance();\n                    jackpots.payoutJackpot(g.player);\n                } else {\n                    totalPayout = _payouts[winningPicks];\n                    g.player.transfer(totalPayout);\n                }\n            }\n            g.payout = totalPayout;\n            emit JackpotGamePlayed(g.player, g.bet, g.picks, g.winners, totalPayout);\n        }\n        gas1 = 1;\n        gas2 = 1;\n        gas3 = 1;\n        gas4 = 1;\n        gas5 = 1;\n        gas6 = 1;\n        gas7 = 1;\n        gas8 = 1;\n        gas9 = 1;\n        gas10 = 1;\n        gas11 = 1;\n    }\n\n    function requestRefund(uint gameID) override public{\n        JackpotGame storage g = jackpotGames[gameID];\n        require(authorizedAddress[msg.sender] || owner() == msg.sender || g.player == msg.sender, \"Not authorized to request refund\");\n        require(g.played == false, \"Game already complete. No refund possible.\");\n        require(address(this).balance >= g.bet, \"Contract balance too low. Please try again later.\");\n        g.played = true;\n        if(_unplayedBets >= g.bet) {\n            _unplayedBets -= g.bet;\n        } else {\n            _unplayedBets = 0;\n        }\n        g.player.transfer(g.bet);\n    }\n\n    function fundJackpot() public payable{\n        // WARNING: Funds deposited here cannot be refunded, only won from jackpot\n        Jackpots jackpots = Jackpots(jackpotAddress);\n        jackpots.addToJackpot{value:msg.value}();\n    }\n\n    function transferJackpot(address recipient) public onlyOwner{\n        // WARNING: This may not be reversable. Make sure you want to transfer to the recipient machine.\n        Jackpots jackpots = Jackpots(jackpotAddress);\n        jackpots.transferJackpot(recipient);\n    }\n\n    // disable unused functions\n    function placeBetFor(address payable player, uint pick) override public payable{\n        require(false, \"Function not used in this contract. Use placeJackpotBetFor\");\n    }\n\n    function createGame(address payable _player, uint _bet, uint _pick) override internal {\n        require(false, \"Function not used in this contract. Use createJackpotGame\");\n    }\n\n    function safeBetFor(address payable player, uint pick) override public payable{\n        require(false, \"Function not used in this contract. Use safeJackpotBetFor\");\n    }\n\n    // Create Factory specific to these types of machines\n\n}\n\ncontract LuckyMachineJackpotFactory{\n    address[] public machines;\n    mapping(address => address[]) internal ownedMachines;\n\n    /**\n     * @dev Used to create a LuckyMachine that can be verified and included in the\n     * factory list.\n     */\n\n    function createMachine(\n                address payable jackpotAddress,\n                address payable machineCoordinator,\n                address linkToken,\n                uint entryFee,\n                uint maxPick,\n                uint8 totalPicks,\n                uint8[] memory winningMatchQuantities,\n                uint[] memory winningMatchPayouts,\n                uint8 jackpotContribution\n            ) public returns(address){\n                LuckyMachineJackpot newMachine = new LuckyMachineJackpot(\n                                                        jackpotAddress,\n                                                        machineCoordinator,\n                                                        msg.sender,\n                                                        linkToken,\n                                                        entryFee,\n                                                        maxPick,\n                                                        totalPicks,\n                                                        winningMatchQuantities,\n                                                        winningMatchPayouts,\n                                                        jackpotContribution\n                                                    );\n                newMachine.transferOwnership(msg.sender);\n                address newMachineAddress = address(newMachine);\n                machines.push(newMachineAddress);\n                ownedMachines[msg.sender].push(newMachineAddress);\n                return newMachineAddress;\n    }\n\n    /**\n     * @dev Returns a list of all machines created from this factory. Useful to verify\n     * a machine was setup appropriately and is a \"legitimate\" LuckyMachine.\n     */\n    function getMachines() public view returns (address[] memory) {\n        return machines;\n    }\n\n    /**\n     * @dev Returns a list of all machines created by the sender.\n     */\n    function getOwnedMachines() public view returns (address[] memory) {\n        return ownedMachines[msg.sender];\n    }\n}\n",
  "sourcePath": "@luckymachines/contracts/src/v0.2/LuckyMachines+Jackpot.sol",
  "compiler": {
    "name": "solc",
    "version": "0.6.12+commit.27d51765.Emscripten.clang"
  },
  "schemaVersion": "3.3.4",
  "updatedAt": "2021-04-10T03:40:32.618Z",
  "devdoc": {
    "kind": "dev",
    "methods": {
      "createMachine(address,address,address,uint256,uint256,uint8,uint8[],uint256[],uint8)": {
        "details": "Used to create a LuckyMachine that can be verified and included in the factory list."
      },
      "getMachines()": {
        "details": "Returns a list of all machines created from this factory. Useful to verify a machine was setup appropriately and is a \"legitimate\" LuckyMachine."
      },
      "getOwnedMachines()": {
        "details": "Returns a list of all machines created by the sender."
      }
    },
    "version": 1
  },
  "userdoc": {
    "kind": "user",
    "methods": {},
    "version": 1
  }
}