{
  "contractName": "LuckyMachineJackpotFactory",
  "abi": [
    {
      "inputs": [
        {
          "internalType": "uint256",
          "name": "",
          "type": "uint256"
        }
      ],
      "name": "machines",
      "outputs": [
        {
          "internalType": "address",
          "name": "",
          "type": "address"
        }
      ],
      "stateMutability": "view",
      "type": "function"
    },
    {
      "inputs": [
        {
          "internalType": "address payable",
          "name": "jackpotAddress",
          "type": "address"
        },
        {
          "internalType": "address payable",
          "name": "machineCoordinator",
          "type": "address"
        },
        {
          "internalType": "address",
          "name": "linkToken",
          "type": "address"
        },
        {
          "internalType": "uint256",
          "name": "entryFee",
          "type": "uint256"
        },
        {
          "internalType": "uint256",
          "name": "maxPick",
          "type": "uint256"
        },
        {
          "internalType": "uint8",
          "name": "totalPicks",
          "type": "uint8"
        },
        {
          "internalType": "uint8[]",
          "name": "winningMatchQuantities",
          "type": "uint8[]"
        },
        {
          "internalType": "uint256[]",
          "name": "winningMatchPayouts",
          "type": "uint256[]"
        },
        {
          "internalType": "uint8",
          "name": "jackpotContribution",
          "type": "uint8"
        }
      ],
      "name": "createMachine",
      "outputs": [
        {
          "internalType": "address",
          "name": "",
          "type": "address"
        }
      ],
      "stateMutability": "nonpayable",
      "type": "function"
    },
    {
      "inputs": [],
      "name": "getMachines",
      "outputs": [
        {
          "internalType": "address[]",
          "name": "",
          "type": "address[]"
        }
      ],
      "stateMutability": "view",
      "type": "function"
    },
    {
      "inputs": [],
      "name": "getOwnedMachines",
      "outputs": [
        {
          "internalType": "address[]",
          "name": "",
          "type": "address[]"
        }
      ],
      "stateMutability": "view",
      "type": "function"
    }
  ],
  "bytecode": "0x608060405234801561001057600080fd5b50615582806100206000396000f3fe60806040523480156200001157600080fd5b5060043610620000525760003560e01c80632eb4761314620000575780634d42845c14620000ba57806352b07b341462000115578063a85091d81462000178575b600080fd5b6200006162000386565b6040518080602001828103825283818151815260200191508051906020019060200280838360005b83811015620000a657808201518184015260208101905062000089565b505050509050019250505060405180910390f35b620000e960048036036020811015620000d257600080fd5b810190808035906020019092919050505062000453565b604051808273ffffffffffffffffffffffffffffffffffffffff16815260200191505060405180910390f35b6200011f62000490565b6040518080602001828103825283818151815260200191508051906020019060200280838360005b838110156200016457808201518184015260208101905062000147565b505050509050019250505060405180910390f35b6200035a60048036036101208110156200019157600080fd5b81019080803573ffffffffffffffffffffffffffffffffffffffff169060200190929190803573ffffffffffffffffffffffffffffffffffffffff169060200190929190803573ffffffffffffffffffffffffffffffffffffffff1690602001909291908035906020019092919080359060200190929190803560ff169060200190929190803590602001906401000000008111156200023057600080fd5b8201836020820111156200024357600080fd5b803590602001918460208302840111640100000000831117156200026657600080fd5b919080806020026020016040519081016040528093929190818152602001838360200280828437600081840152601f19601f82011690508083019250505050505050919291929080359060200190640100000000811115620002c757600080fd5b820183602082011115620002da57600080fd5b80359060200191846020830284011164010000000083111715620002fd57600080fd5b919080806020026020016040519081016040528093929190818152602001838360200280828437600081840152601f19601f820116905080830192505050505050509192919290803560ff16906020019092919050505062000520565b604051808273ffffffffffffffffffffffffffffffffffffffff16815260200191505060405180910390f35b6060600160003373ffffffffffffffffffffffffffffffffffffffff1673ffffffffffffffffffffffffffffffffffffffff1681526020019081526020016000208054806020026020016040519081016040528092919081815260200182805480156200044957602002820191906000526020600020905b8160009054906101000a900473ffffffffffffffffffffffffffffffffffffffff1673ffffffffffffffffffffffffffffffffffffffff1681526020019060010190808311620003fe575b5050505050905090565b600081815481106200046157fe5b906000526020600020016000915054906101000a900473ffffffffffffffffffffffffffffffffffffffff1681565b606060008054806020026020016040519081016040528092919081815260200182805480156200051657602002820191906000526020600020905b8160009054906101000a900473ffffffffffffffffffffffffffffffffffffffff1673ffffffffffffffffffffffffffffffffffffffff1681526020019060010190808311620004cb575b5050505050905090565b6000808a8a338b8b8b8b8b8b8b6040516200053b9062000825565b808b73ffffffffffffffffffffffffffffffffffffffff1681526020018a73ffffffffffffffffffffffffffffffffffffffff1681526020018973ffffffffffffffffffffffffffffffffffffffff1681526020018873ffffffffffffffffffffffffffffffffffffffff1681526020018781526020018681526020018560ff16815260200180602001806020018460ff168152602001838103835286818151815260200191508051906020019060200280838360005b838110156200060f578082015181840152602081019050620005f2565b50505050905001838103825285818151815260200191508051906020019060200280838360005b838110156200065357808201518184015260208101905062000636565b505050509050019c50505050505050505050505050604051809103906000f08015801562000685573d6000803e3d6000fd5b5090508073ffffffffffffffffffffffffffffffffffffffff1663f2fde38b336040518263ffffffff1660e01b8152600401808273ffffffffffffffffffffffffffffffffffffffff168152602001915050600060405180830381600087803b158015620006f257600080fd5b505af115801562000707573d6000803e3d6000fd5b5050505060008190506000819080600181540180825580915050600190039060005260206000200160009091909190916101000a81548173ffffffffffffffffffffffffffffffffffffffff021916908373ffffffffffffffffffffffffffffffffffffffff160217905550600160003373ffffffffffffffffffffffffffffffffffffffff1673ffffffffffffffffffffffffffffffffffffffff168152602001908152602001600020819080600181540180825580915050600190039060005260206000200160009091909190916101000a81548173ffffffffffffffffffffffffffffffffffffffff021916908373ffffffffffffffffffffffffffffffffffffffff16021790555080925050509998505050505050505050565b614d1980620008348339019056fe60806040526019602060006101000a81548160ff021916908360ff1602179055506064602060016101000a81548160ff021916908360ff1602179055503480156200004957600080fd5b5060405162004d1938038062004d1983398181016040526101408110156200007057600080fd5b810190808051906020019092919080519060200190929190805190602001909291908051906020019092919080519060200190929190805190602001909291908051906020019092919080516040519392919084640100000000821115620000d757600080fd5b83820191506020820185811115620000ee57600080fd5b82518660208202830111640100000000821117156200010c57600080fd5b8083526020830192505050908051906020019060200280838360005b838110156200014557808201518184015260208101905062000128565b50505050905001604052602001805160405193929190846401000000008211156200016f57600080fd5b838201915060208201858111156200018657600080fd5b8251866020820283011164010000000082111715620001a457600080fd5b8083526020830192505050908051906020019060200280838360005b83811015620001dd578082015181840152602081019050620001c0565b5050505090500160405260200180519060200190929190505050888888888989600080620002106200085d60201b60201c565b9050806000806101000a81548173ffffffffffffffffffffffffffffffffffffffff021916908373ffffffffffffffffffffffffffffffffffffffff1602179055508073ffffffffffffffffffffffffffffffffffffffff16600073ffffffffffffffffffffffffffffffffffffffff167f8be0079c531659141344cd1fd0a4f28419497f9722a3daafe3b4186f6b6457e060405160405180910390a35086600260006101000a81548173ffffffffffffffffffffffffffffffffffffffff021916908373ffffffffffffffffffffffffffffffffffffffff1602179055506001601281905550600060118190555085601360006101000a81548173ffffffffffffffffffffffffffffffffffffffff021916908373ffffffffffffffffffffffffffffffffffffffff1602179055508260108190555083600f8190555081600e819055508060148190555060016003819055506001600481905550600160058190555060016006819055506001600781905550600160088190555060016009819055506001600a819055506001600b819055506001600c819055506001600d8190555084600160006101000a81548173ffffffffffffffffffffffffffffffffffffffff021916908373ffffffffffffffffffffffffffffffffffffffff16021790555060007fffffffffffffffffffffffffffffffffffffffffffffffffffffffffffffffff9050600160009054906101000a900473ffffffffffffffffffffffffffffffffffffffff1673ffffffffffffffffffffffffffffffffffffffff1663095ea7b3600260009054906101000a900473ffffffffffffffffffffffffffffffffffffffff16836040518363ffffffff1660e01b8152600401808373ffffffffffffffffffffffffffffffffffffffff16815260200182815260200192505050602060405180830381600087803b158015620004d057600080fd5b505af1158015620004e5573d6000803e3d6000fd5b505050506040513d6020811015620004fc57600080fd5b8101908080519060200190929190505050505050505050505050602060019054906101000a900460ff1660ff168511156200059f576040517f08c379a000000000000000000000000000000000000000000000000000000000815260040180806020018281038252601a8152602001807f53696e676c65207069636b206c696d697420657863656564656400000000000081525060200191505060405180910390fd5b8151835114620005fb576040517f08c379a000000000000000000000000000000000000000000000000000000000815260040180806020018281038252602b81526020018062004cba602b913960400191505060405180910390fd5b602060009054906101000a900460ff1660ff168351111562000669576040517f08c379a000000000000000000000000000000000000000000000000000000000815260040180806020018281038252603181526020018062004c896031913960400191505060405180910390fd5b60648160ff161115620006c8576040517f08c379a000000000000000000000000000000000000000000000000000000000815260040180806020018281038252603481526020018062004ce56034913960400191505060405180910390fd5b83601c60006101000a81548160ff021916908360ff16021790555060005b83518160ff1610156200074d57828160ff16815181106200070357fe5b6020026020010151601b6000868460ff16815181106200071f57fe5b602002602001015160ff1660ff168152602001908152602001600020819055508080600101915050620006e6565b5082601d90805190602001906200076692919062000865565b5080601e60006101000a81548160ff021916908360ff16021790555089601a60006101000a81548173ffffffffffffffffffffffffffffffffffffffff021916908373ffffffffffffffffffffffffffffffffffffffff1602179055506000601a60009054906101000a900473ffffffffffffffffffffffffffffffffffffffff1690508073ffffffffffffffffffffffffffffffffffffffff1663d2154c926040518163ffffffff1660e01b8152600401600060405180830381600087803b1580156200083357600080fd5b505af115801562000848573d6000803e3d6000fd5b5050505050505050505050505050506200093d565b600033905090565b82805482825590600052602060002090601f01602090048101928215620009005791602002820160005b83821115620008cf57835183826101000a81548160ff021916908360ff16021790555092602001926001016020816000010492830192600103026200088f565b8015620008fe5782816101000a81549060ff0219169055600101602081600001049283019260010302620008cf565b505b5090506200090f919062000913565b5090565b5b808211156200093957600081816101000a81549060ff02191690555060010162000914565b5090565b61433c806200094d6000396000f3fe60806040526004361061023f5760003560e01c80639619367d1161012e578063b93030b3116100ab578063dfad4c111161006f578063dfad4c11146110c5578063f039d9d51461112c578063f2fde38b1461115a578063f31a4dcd146111ab578063f50ceb4c146111e657610246565b8063b93030b314610f43578063bd23774114610f5a578063c311d04914610f64578063d0196fb714610f9f578063d9e721f81461107757610246565b8063a721b15c116100f2578063a721b15c14610ca1578063a744bdc814610ccf578063ac150fd814610e3f578063b1017eb714610e8d578063b843f5ab14610ede57610246565b80639619367d146109df5780639b582e4114610a0a578063a02e061614610bb8578063a249225e14610c09578063a4b2409e14610c6657610246565b806350c5f975116101bc5780636da64a5e116101805780636da64a5e146107fa578063715018a6146108c95780637a8042bd146108e057806383bec9931461091b5780638da5cb5b1461099e57610246565b806350c5f9751461066e5780635b8d02d71461069957806363bd1d4a146106da5780636bc0b3ba146107055780636bf90c841461074657610246565b80632e5b2168116102035780632e5b2168146105205780632ee42d8a1461054b57806333ea51a8146105765780633638104a146105c75780634051ddac1461062e57610246565b80630c610a121461024b578063117a5b901461029c57806313cbf8c31461032657806319465b7c146104025780632da6eb0c1461044357610246565b3661024657005b600080fd5b34801561025757600080fd5b506102846004803603602081101561026e57600080fd5b81019080803590602001909291905050506112be565b60405180821515815260200191505060405180910390f35b3480156102a857600080fd5b506102d5600480360360208110156102bf57600080fd5b810190808035906020019092919050505061133c565b604051808781526020018673ffffffffffffffffffffffffffffffffffffffff1681526020018581526020018481526020018381526020018215158152602001965050505050505060405180910390f35b34801561033257600080fd5b506103e96004803603602081101561034957600080fd5b810190808035906020019064010000000081111561036657600080fd5b82018360208201111561037857600080fd5b8035906020019184602083028401116401000000008311171561039a57600080fd5b919080806020026020016040519081016040528093929190818152602001838360200280828437600081840152601f19601f8201169050808301925050505050505091929192905050506113a5565b604051808260ff16815260200191505060405180910390f35b34801561040e57600080fd5b506104176113f3565b604051808273ffffffffffffffffffffffffffffffffffffffff16815260200191505060405180910390f35b34801561044f57600080fd5b50610458611419565b6040518088815260200180602001806020018781526020018660ff1681526020018581526020018460ff168152602001838103835289818151815260200191508051906020019060200280838360005b838110156104c35780820151818401526020810190506104a8565b50505050905001838103825288818151815260200191508051906020019060200280838360005b838110156105055780820151818401526020810190506104ea565b50505050905001995050505050505050505060405180910390f35b34801561052c57600080fd5b50610535611658565b6040518082815260200191505060405180910390f35b34801561055757600080fd5b5061056061165e565b6040518082815260200191505060405180910390f35b34801561058257600080fd5b506105c56004803603602081101561059957600080fd5b81019080803573ffffffffffffffffffffffffffffffffffffffff169060200190929190505050611664565b005b3480156105d357600080fd5b50610616600480360360208110156105ea57600080fd5b81019080803573ffffffffffffffffffffffffffffffffffffffff169060200190929190505050611757565b60405180821515815260200191505060405180910390f35b34801561063a57600080fd5b50610643611777565b6040518085815260200184815260200183815260200182815260200194505050505060405180910390f35b34801561067a57600080fd5b50610683611797565b6040518082815260200191505060405180910390f35b3480156106a557600080fd5b506106ae611862565b604051808273ffffffffffffffffffffffffffffffffffffffff16815260200191505060405180910390f35b3480156106e657600080fd5b506106ef611888565b6040518082815260200191505060405180910390f35b34801561071157600080fd5b5061071a61188e565b604051808273ffffffffffffffffffffffffffffffffffffffff16815260200191505060405180910390f35b34801561075257600080fd5b5061075b6118b4565b604051808060200180602001838103835285818151815260200191508051906020019060200280838360005b838110156107a2578082015181840152602081019050610787565b50505050905001838103825284818151815260200191508051906020019060200280838360005b838110156107e45780820151818401526020810190506107c9565b5050505090500194505050505060405180910390f35b34801561080657600080fd5b506108c76004803603604081101561081d57600080fd5b81019080803590602001909291908035906020019064010000000081111561084457600080fd5b82018360208201111561085657600080fd5b8035906020019184602083028401116401000000008311171561087857600080fd5b919080806020026020016040519081016040528093929190818152602001838360200280828437600081840152601f19601f820116905080830192505050505050509192919290505050611a07565b005b3480156108d557600080fd5b506108de61209a565b005b3480156108ec57600080fd5b506109196004803603602081101561090357600080fd5b8101908080359060200190929190505050612207565b005b34801561092757600080fd5b506109546004803603602081101561093e57600080fd5b81019080803590602001909291905050506123f7565b604051808681526020018573ffffffffffffffffffffffffffffffffffffffff16815260200184815260200183815260200182151581526020019550505050505060405180910390f35b3480156109aa57600080fd5b506109b361245a565b604051808273ffffffffffffffffffffffffffffffffffffffff16815260200191505060405180910390f35b3480156109eb57600080fd5b506109f4612483565b6040518082815260200191505060405180910390f35b348015610a1657600080fd5b50610b6160048036036040811015610a2d57600080fd5b8101908080359060200190640100000000811115610a4a57600080fd5b820183602082011115610a5c57600080fd5b80359060200191846020830284011164010000000083111715610a7e57600080fd5b919080806020026020016040519081016040528093929190818152602001838360200280828437600081840152601f19601f82011690508083019250505050505050919291929080359060200190640100000000811115610ade57600080fd5b820183602082011115610af057600080fd5b80359060200191846020830284011164010000000083111715610b1257600080fd5b919080806020026020016040519081016040528093929190818152602001838360200280828437600081840152601f19601f820116905080830192505050505050509192919290505050612489565b6040518080602001828103825283818151815260200191508051906020019060200280838360005b83811015610ba4578082015181840152602081019050610b89565b505050509050019250505060405180910390f35b348015610bc457600080fd5b50610c0760048036036020811015610bdb57600080fd5b81019080803573ffffffffffffffffffffffffffffffffffffffff169060200190929190505050612609565b005b348015610c1557600080fd5b50610c6460048036036040811015610c2c57600080fd5b81019080803573ffffffffffffffffffffffffffffffffffffffff1690602001909291908035151590602001909291905050506126fc565b005b348015610c7257600080fd5b50610c9f60048036036020811015610c8957600080fd5b8101908080359060200190929190505050612806565b005b348015610cad57600080fd5b50610cb6612afd565b604051808260ff16815260200191505060405180910390f35b348015610cdb57600080fd5b50610e2660048036036040811015610cf257600080fd5b8101908080359060200190640100000000811115610d0f57600080fd5b820183602082011115610d2157600080fd5b80359060200191846020830284011164010000000083111715610d4357600080fd5b919080806020026020016040519081016040528093929190818152602001838360200280828437600081840152601f19601f82011690508083019250505050505050919291929080359060200190640100000000811115610da357600080fd5b820183602082011115610db557600080fd5b80359060200191846020830284011164010000000083111715610dd757600080fd5b919080806020026020016040519081016040528093929190818152602001838360200280828437600081840152601f19601f820116905080830192505050505050509192919290505050612b10565b604051808260ff16815260200191505060405180910390f35b610e8b60048036036040811015610e5557600080fd5b81019080803573ffffffffffffffffffffffffffffffffffffffff16906020019092919080359060200190929190505050612b2c565b005b348015610e9957600080fd5b50610ec660048036036020811015610eb057600080fd5b8101908080359060200190929190505050612b87565b60405180821515815260200191505060405180910390f35b348015610eea57600080fd5b50610f2d60048036036020811015610f0157600080fd5b81019080803573ffffffffffffffffffffffffffffffffffffffff169060200190929190505050612d15565b6040518082815260200191505060405180910390f35b348015610f4f57600080fd5b50610f58612d2d565b005b610f626130e2565b005b348015610f7057600080fd5b50610f9d60048036036020811015610f8757600080fd5b810190808035906020019092919050505061316d565b005b61107560048036036040811015610fb557600080fd5b81019080803573ffffffffffffffffffffffffffffffffffffffff16906020019092919080359060200190640100000000811115610ff257600080fd5b82018360208201111561100457600080fd5b8035906020019184602083028401116401000000008311171561102657600080fd5b919080806020026020016040519081016040528093929190818152602001838360200280828437600081840152601f19601f82011690508083019250505050505050919291929050505061334f565b005b6110c36004803603604081101561108d57600080fd5b81019080803573ffffffffffffffffffffffffffffffffffffffff16906020019092919080359060200190929190505050613657565b005b3480156110d157600080fd5b50611114600480360360208110156110e857600080fd5b81019080803573ffffffffffffffffffffffffffffffffffffffff1690602001909291905050506136b2565b60405180821515815260200191505060405180910390f35b34801561113857600080fd5b506111416136d2565b604051808260ff16815260200191505060405180910390f35b34801561116657600080fd5b506111a96004803603602081101561117d57600080fd5b81019080803573ffffffffffffffffffffffffffffffffffffffff1690602001909291905050506136e5565b005b3480156111b757600080fd5b506111e4600480360360208110156111ce57600080fd5b81019080803590602001909291905050506138d7565b005b6112bc600480360360408110156111fc57600080fd5b81019080803573ffffffffffffffffffffffffffffffffffffffff1690602001909291908035906020019064010000000081111561123957600080fd5b82018360208201111561124b57600080fd5b8035906020019184602083028401116401000000008311171561126d57600080fd5b919080806020026020016040519081016040528093929190818152602001838360200280828437600081840152601f19601f820116905080830192505050505050509192919290505050613992565b005b6000601b6000601d6112df6001601d80549050613ad390919063ffffffff16565b815481106112e957fe5b90600052602060002090602091828204019190069054906101000a900460ff1660ff1660ff1681526020019081526020016000205461133360115447613ad390919063ffffffff16565b10159050919050565b60176020528060005260406000206000915090508060000154908060010160009054906101000a900473ffffffffffffffffffffffffffffffffffffffff16908060020154908060030154908060040154908060050160009054906101000a900460ff16905086565b6000806000905060005b83518110156113e95760008482815181106113c657fe5b6020026020010151146113dc5781806001019250505b80806001019150506113af565b5080915050919050565b600260009054906101000a900473ffffffffffffffffffffffffffffffffffffffff1681565b60006060806000806000806000601a60009054906101000a900473ffffffffffffffffffffffffffffffffffffffff16905060008173ffffffffffffffffffffffffffffffffffffffff166312065fe06040518163ffffffff1660e01b815260040160206040518083038186803b15801561149357600080fd5b505afa1580156114a7573d6000803e3d6000fd5b505050506040513d60208110156114bd57600080fd5b810190808051906020019092919050505090506060601d8054905067ffffffffffffffff811180156114ee57600080fd5b5060405190808252806020026020018201604052801561151d5781602001602082028036833780820191505090505b50905060005b601d8054905081101561159b57601b6000601d838154811061154157fe5b90600052602060002090602091828204019190069054906101000a900460ff1660ff1660ff1681526020019081526020016000205482828151811061158257fe5b6020026020010181815250508080600101915050611523565b50601054601d82600e54601c60009054906101000a900460ff1686601e60009054906101000a900460ff168580548060200260200160405190810160405280929190818152602001828054801561163757602002820191906000526020600020906000905b82829054906101000a900460ff1660ff16815260200190600101906020826000010492830192600103820291508084116116005790505b50505050509550995099509950995099509950995050505090919293949596565b600f5481565b600e5481565b61166c613b5c565b73ffffffffffffffffffffffffffffffffffffffff1661168a61245a565b73ffffffffffffffffffffffffffffffffffffffff1614611713576040517f08c379a00000000000000000000000000000000000000000000000000000000081526004018080602001828103825260208152602001807f4f776e61626c653a2063616c6c6572206973206e6f7420746865206f776e657281525060200191505060405180910390fd5b80601360006101000a81548173ffffffffffffffffffffffffffffffffffffffff021916908373ffffffffffffffffffffffffffffffffffffffff16021790555050565b60156020528060005260406000206000915054906101000a900460ff1681565b600080600080601054600f54601454600e54935093509350935090919293565b6000600160009054906101000a900473ffffffffffffffffffffffffffffffffffffffff1673ffffffffffffffffffffffffffffffffffffffff166370a08231306040518263ffffffff1660e01b8152600401808273ffffffffffffffffffffffffffffffffffffffff16815260200191505060206040518083038186803b15801561182257600080fd5b505afa158015611836573d6000803e3d6000fd5b505050506040513d602081101561184c57600080fd5b8101908080519060200190929190505050905090565b601360009054906101000a900473ffffffffffffffffffffffffffffffffffffffff1681565b60145481565b601a60009054906101000a900473ffffffffffffffffffffffffffffffffffffffff1681565b6060806060601d8054905067ffffffffffffffff811180156118d557600080fd5b506040519080825280602002602001820160405280156119045781602001602082028036833780820191505090505b50905060005b601d8054905081101561198257601b6000601d838154811061192857fe5b90600052602060002090602091828204019190069054906101000a900460ff1660ff1660ff1681526020019081526020016000205482828151811061196957fe5b602002602001018181525050808060010191505061190a565b50601d81818054806020026020016040519081016040528092919081815260200182805480156119f757602002820191906000526020600020906000905b82829054906101000a900460ff1660ff16815260200190600101906020826000010492830192600103820291508084116119c05790505b5050505050915092509250509091565b600260009054906101000a900473ffffffffffffffffffffffffffffffffffffffff1673ffffffffffffffffffffffffffffffffffffffff163373ffffffffffffffffffffffffffffffffffffffff1614611a6157600080fd5b6000601f600060186000868152602001908152602001600020548152602001908152602001600020905060008160000154118015611ab45750600015158160060160009054906101000a900460ff161515145b1561203d57600f5481600201541115611ad357600f5481600201819055505b611add60016112be565b611ae657600080fd5b60005b601c60009054906101000a900460ff1660ff168160ff161015611b7157611b446001611b36600e54868560ff1681518110611b2057fe5b6020026020010151613b6490919063ffffffff16565b613bee90919063ffffffff16565b826004018260ff1681548110611b5657fe5b90600052602060002001819055508080600101915050611ae9565b5060018160060160006101000a81548160ff021916908315150217905550806002015460115410611bb5578060020154601160008282540392505081905550611bbe565b60006011819055505b6000601a60009054906101000a900473ffffffffffffffffffffffffffffffffffffffff1690506000611c236064611c15601e60009054906101000a900460ff1660ff168660020154613c7690919063ffffffff16565b613cfc90919063ffffffff16565b90508173ffffffffffffffffffffffffffffffffffffffff1663256bcaa0826040518263ffffffff1660e01b81526004016000604051808303818588803b158015611c6d57600080fd5b505af1158015611c81573d6000803e3d6000fd5b50505050506000611d3684600301805480602002602001604051908101604052809291908181526020018280548015611cd957602002820191906000526020600020905b815481526020019060010190808311611cc5575b505050505085600401805480602002602001604051908101604052809291908181526020018280548015611d2c57602002820191906000526020600020905b815481526020019060010190808311611d18575b5050505050612b10565b90506000808260ff161115611f1857601c60009054906101000a900460ff1660ff168260ff161415611e8f578373ffffffffffffffffffffffffffffffffffffffff166312065fe06040518163ffffffff1660e01b815260040160206040518083038186803b158015611da857600080fd5b505afa158015611dbc573d6000803e3d6000fd5b505050506040513d6020811015611dd257600080fd5b810190808051906020019092919050505090508373ffffffffffffffffffffffffffffffffffffffff16630c1e8bc18660010160009054906101000a900473ffffffffffffffffffffffffffffffffffffffff166040518263ffffffff1660e01b8152600401808273ffffffffffffffffffffffffffffffffffffffff168152602001915050600060405180830381600087803b158015611e7257600080fd5b505af1158015611e86573d6000803e3d6000fd5b50505050611f17565b601b60008360ff1660ff1681526020019081526020016000205490508460010160009054906101000a900473ffffffffffffffffffffffffffffffffffffffff1673ffffffffffffffffffffffffffffffffffffffff166108fc829081150290604051600060405180830381858888f19350505050158015611f15573d6000803e3d6000fd5b505b5b8085600501819055507fa6cb1ec482c3fc2195375d491afa6cd9c444f72990732d47680ebe021b0045da8560010160009054906101000a900473ffffffffffffffffffffffffffffffffffffffff168660020154876003018860040185604051808673ffffffffffffffffffffffffffffffffffffffff16815260200185815260200180602001806020018481526020018381038352868181548152602001915080548015611fe657602002820191906000526020600020905b815481526020019060010190808311611fd2575b5050838103825285818154815260200191508054801561202557602002820191906000526020600020905b815481526020019060010190808311612011575b505097505050505050505060405180910390a1505050505b60016003819055506001600481905550600160058190555060016006819055506001600781905550600160088190555060016009819055506001600a819055506001600b819055506001600c819055506001600d81905550505050565b6120a2613b5c565b73ffffffffffffffffffffffffffffffffffffffff166120c061245a565b73ffffffffffffffffffffffffffffffffffffffff1614612149576040517f08c379a00000000000000000000000000000000000000000000000000000000081526004018080602001828103825260208152602001807f4f776e61626c653a2063616c6c6572206973206e6f7420746865206f776e657281525060200191505060405180910390fd5b600073ffffffffffffffffffffffffffffffffffffffff1660008054906101000a900473ffffffffffffffffffffffffffffffffffffffff1673ffffffffffffffffffffffffffffffffffffffff167f8be0079c531659141344cd1fd0a4f28419497f9722a3daafe3b4186f6b6457e060405160405180910390a360008060006101000a81548173ffffffffffffffffffffffffffffffffffffffff021916908373ffffffffffffffffffffffffffffffffffffffff160217905550565b3373ffffffffffffffffffffffffffffffffffffffff1661222661245a565b73ffffffffffffffffffffffffffffffffffffffff1614806122915750601560003373ffffffffffffffffffffffffffffffffffffffff1673ffffffffffffffffffffffffffffffffffffffff16815260200190815260200160002060009054906101000a900460ff165b612303576040517f08c379a00000000000000000000000000000000000000000000000000000000081526004018080602001828103825260188152602001807f63616c6c6572206973206e6f7420617574686f72697a6564000000000000000081525060200191505060405180910390fd5b600160009054906101000a900473ffffffffffffffffffffffffffffffffffffffff1673ffffffffffffffffffffffffffffffffffffffff1663a9059cbb601360009054906101000a900473ffffffffffffffffffffffffffffffffffffffff16836040518363ffffffff1660e01b8152600401808373ffffffffffffffffffffffffffffffffffffffff16815260200182815260200192505050602060405180830381600087803b1580156123b857600080fd5b505af11580156123cc573d6000803e3d6000fd5b505050506040513d60208110156123e257600080fd5b81019080805190602001909291905050505050565b601f6020528060005260406000206000915090508060000154908060010160009054906101000a900473ffffffffffffffffffffffffffffffffffffffff16908060020154908060050154908060060160009054906101000a900460ff16905085565b60008060009054906101000a900473ffffffffffffffffffffffffffffffffffffffff16905090565b60105481565b60608151835114612502576040517f08c379a000000000000000000000000000000000000000000000000000000000815260040180806020018281038252601a8152602001807f617272617973206d7573742062652073616d65206c656e67746800000000000081525060200191505060405180910390fd5b60008351905060608167ffffffffffffffff8111801561252157600080fd5b506040519080825280602002602001820160405280156125505781602001602082028036833780820191505090505b50905060005b828110156125fd5760005b838110156125ef5785818151811061257557fe5b602002602001015187838151811061258957fe5b602002602001015114156125e2578682815181106125a357fe5b60200260200101518383815181106125b757fe5b60200260200101818152505060008682815181106125d157fe5b6020026020010181815250506125ef565b8080600101915050612561565b508080600101915050612556565b50809250505092915050565b612611613b5c565b73ffffffffffffffffffffffffffffffffffffffff1661262f61245a565b73ffffffffffffffffffffffffffffffffffffffff16146126b8576040517f08c379a00000000000000000000000000000000000000000000000000000000081526004018080602001828103825260208152602001807f4f776e61626c653a2063616c6c6572206973206e6f7420746865206f776e657281525060200191505060405180910390fd5b80600160006101000a81548173ffffffffffffffffffffffffffffffffffffffff021916908373ffffffffffffffffffffffffffffffffffffffff16021790555050565b612704613b5c565b73ffffffffffffffffffffffffffffffffffffffff1661272261245a565b73ffffffffffffffffffffffffffffffffffffffff16146127ab576040517f08c379a00000000000000000000000000000000000000000000000000000000081526004018080602001828103825260208152602001807f4f776e61626c653a2063616c6c6572206973206e6f7420746865206f776e657281525060200191505060405180910390fd5b80601560008473ffffffffffffffffffffffffffffffffffffffff1673ffffffffffffffffffffffffffffffffffffffff16815260200190815260200160002060006101000a81548160ff0219169083151502179055505050565b6000601f60008381526020019081526020016000209050601560003373ffffffffffffffffffffffffffffffffffffffff1673ffffffffffffffffffffffffffffffffffffffff16815260200190815260200160002060009054906101000a900460ff16806128a757503373ffffffffffffffffffffffffffffffffffffffff1661288f61245a565b73ffffffffffffffffffffffffffffffffffffffff16145b8061290157503373ffffffffffffffffffffffffffffffffffffffff168160010160009054906101000a900473ffffffffffffffffffffffffffffffffffffffff1673ffffffffffffffffffffffffffffffffffffffff16145b612973576040517f08c379a00000000000000000000000000000000000000000000000000000000081526004018080602001828103825260208152602001807f4e6f7420617574686f72697a656420746f207265717565737420726566756e6481525060200191505060405180910390fd5b600015158160060160009054906101000a900460ff161515146129e1576040517f08c379a000000000000000000000000000000000000000000000000000000000815260040180806020018281038252602a8152602001806142dd602a913960400191505060405180910390fd5b8060020154471015612a3e576040517f08c379a00000000000000000000000000000000000000000000000000000000081526004018080602001828103825260318152602001806142ac6031913960400191505060405180910390fd5b60018160060160006101000a81548160ff021916908315150217905550806002015460115410612a81578060020154601160008282540392505081905550612a8a565b60006011819055505b8060010160009054906101000a900473ffffffffffffffffffffffffffffffffffffffff1673ffffffffffffffffffffffffffffffffffffffff166108fc82600201549081150290604051600060405180830381858888f19350505050158015612af8573d6000803e3d6000fd5b505050565b601e60009054906101000a900460ff1681565b6000612b24612b1f8484612489565b6113a5565b905092915050565b6000612b83576040517f08c379a000000000000000000000000000000000000000000000000000000000815260040180806020018281038252603a815260200180614272603a913960400191505060405180910390fd5b5050565b600080600260009054906101000a900473ffffffffffffffffffffffffffffffffffffffff16905060008173ffffffffffffffffffffffffffffffffffffffff166350c5f9756040518163ffffffff1660e01b815260040160206040518083038186803b158015612bf757600080fd5b505afa158015612c0b573d6000803e3d6000fd5b505050506040513d6020811015612c2157600080fd5b810190808051906020019092919050505090506000600160009054906101000a900473ffffffffffffffffffffffffffffffffffffffff1673ffffffffffffffffffffffffffffffffffffffff166370a08231306040518263ffffffff1660e01b8152600401808273ffffffffffffffffffffffffffffffffffffffff16815260200191505060206040518083038186803b158015612cbf57600080fd5b505afa158015612cd3573d6000803e3d6000fd5b505050506040513d6020811015612ce957600080fd5b810190808051906020019092919050505090508481101580612d0b5750848210155b9350505050919050565b60196020528060005260406000206000915090505481565b612d35613b5c565b73ffffffffffffffffffffffffffffffffffffffff16612d5361245a565b73ffffffffffffffffffffffffffffffffffffffff1614612ddc576040517f08c379a00000000000000000000000000000000000000000000000000000000081526004018080602001828103825260208152602001807f4f776e61626c653a2063616c6c6572206973206e6f7420746865206f776e657281525060200191505060405180910390fd5b6000612df360115447613ad390919063ffffffff16565b9050601360009054906101000a900473ffffffffffffffffffffffffffffffffffffffff1673ffffffffffffffffffffffffffffffffffffffff166108fc829081150290604051600060405180830381858888f19350505050158015612e5d573d6000803e3d6000fd5b506000600160009054906101000a900473ffffffffffffffffffffffffffffffffffffffff1673ffffffffffffffffffffffffffffffffffffffff166370a08231306040518263ffffffff1660e01b8152600401808273ffffffffffffffffffffffffffffffffffffffff16815260200191505060206040518083038186803b158015612ee957600080fd5b505afa158015612efd573d6000803e3d6000fd5b505050506040513d6020811015612f1357600080fd5b810190808051906020019092919050505011156130df57600160009054906101000a900473ffffffffffffffffffffffffffffffffffffffff1673ffffffffffffffffffffffffffffffffffffffff1663a9059cbb601360009054906101000a900473ffffffffffffffffffffffffffffffffffffffff16600160009054906101000a900473ffffffffffffffffffffffffffffffffffffffff1673ffffffffffffffffffffffffffffffffffffffff166370a08231306040518263ffffffff1660e01b8152600401808273ffffffffffffffffffffffffffffffffffffffff16815260200191505060206040518083038186803b15801561301457600080fd5b505afa158015613028573d6000803e3d6000fd5b505050506040513d602081101561303e57600080fd5b81019080805190602001909291905050506040518363ffffffff1660e01b8152600401808373ffffffffffffffffffffffffffffffffffffffff16815260200182815260200192505050602060405180830381600087803b1580156130a257600080fd5b505af11580156130b6573d6000803e3d6000fd5b505050506040513d60208110156130cc57600080fd5b8101908080519060200190929190505050505b50565b6000601a60009054906101000a900473ffffffffffffffffffffffffffffffffffffffff1690508073ffffffffffffffffffffffffffffffffffffffff1663256bcaa0346040518263ffffffff1660e01b81526004016000604051808303818588803b15801561315157600080fd5b505af1158015613165573d6000803e3d6000fd5b505050505050565b3373ffffffffffffffffffffffffffffffffffffffff1661318c61245a565b73ffffffffffffffffffffffffffffffffffffffff1614806131f75750601560003373ffffffffffffffffffffffffffffffffffffffff1673ffffffffffffffffffffffffffffffffffffffff16815260200190815260200160002060009054906101000a900460ff165b613269576040517f08c379a00000000000000000000000000000000000000000000000000000000081526004018080602001828103825260188152602001807f63616c6c6572206973206e6f7420617574686f72697a6564000000000000000081525060200191505060405180910390fd5b60115481470310156132e3576040517f08c379a000000000000000000000000000000000000000000000000000000000815260040180806020018281038252601c8152602001807f43616e277420776974686472617720756e706c6179656420626574730000000081525060200191505060405180910390fd5b601360009054906101000a900473ffffffffffffffffffffffffffffffffffffffff1673ffffffffffffffffffffffffffffffffffffffff166108fc829081150290604051600060405180830381858888f1935050505015801561334b573d6000803e3d6000fd5b5050565b601c60009054906101000a900460ff1660ff168151146133d7576040517f08c379a00000000000000000000000000000000000000000000000000000000081526004018080602001828103825260198152602001807f496e636f7272656374206e756d626572206f66207069636b730000000000000081525060200191505060405180910390fd5b6133e0346112be565b613435576040517f08c379a00000000000000000000000000000000000000000000000000000000081526004018080602001828103825260368152602001806141e26036913960400191505060405180910390fd5b60005b601c60009054906101000a900460ff1660ff168160ff16101561351257600e54828260ff168151811061346757fe5b60200260200101511115801561349357506000828260ff168151811061348957fe5b6020026020010151115b613505576040517f08c379a000000000000000000000000000000000000000000000000000000000815260040180806020018281038252601a8152602001807f4f757473696465206f66207069636b61626c6520626f756e647300000000000081525060200191505060405180910390fd5b8080600101915050613438565b5061351c34613d8b565b61358e576040517f08c379a00000000000000000000000000000000000000000000000000000000081526004018080602001828103825260158152602001807f4f757469736465206f66206265742072616e67652e000000000000000000000081525060200191505060405180910390fd5b600160035414156135dc57600360009055600460009055600560009055600660009055600760009055600860009055600960009055600a60009055600b60009055600c60009055600d600090555b6135f134601154613bee90919063ffffffff16565b601181905550613602823483613db9565b61360d601254613f66565b601254601960008473ffffffffffffffffffffffffffffffffffffffff1673ffffffffffffffffffffffffffffffffffffffff168152602001908152602001600020819055505050565b60006136ae576040517f08c379a00000000000000000000000000000000000000000000000000000000081526004018080602001828103825260398152602001806142186039913960400191505060405180910390fd5b5050565b60166020528060005260406000206000915054906101000a900460ff1681565b601c60009054906101000a900460ff1681565b6136ed613b5c565b73ffffffffffffffffffffffffffffffffffffffff1661370b61245a565b73ffffffffffffffffffffffffffffffffffffffff1614613794576040517f08c379a00000000000000000000000000000000000000000000000000000000081526004018080602001828103825260208152602001807f4f776e61626c653a2063616c6c6572206973206e6f7420746865206f776e657281525060200191505060405180910390fd5b600073ffffffffffffffffffffffffffffffffffffffff168173ffffffffffffffffffffffffffffffffffffffff16141561381a576040517f08c379a00000000000000000000000000000000000000000000000000000000081526004018080602001828103825260268152602001806141bc6026913960400191505060405180910390fd5b8073ffffffffffffffffffffffffffffffffffffffff1660008054906101000a900473ffffffffffffffffffffffffffffffffffffffff1673ffffffffffffffffffffffffffffffffffffffff167f8be0079c531659141344cd1fd0a4f28419497f9722a3daafe3b4186f6b6457e060405160405180910390a3806000806101000a81548173ffffffffffffffffffffffffffffffffffffffff021916908373ffffffffffffffffffffffffffffffffffffffff16021790555050565b6138df613b5c565b73ffffffffffffffffffffffffffffffffffffffff166138fd61245a565b73ffffffffffffffffffffffffffffffffffffffff1614613986576040517f08c379a00000000000000000000000000000000000000000000000000000000081526004018080602001828103825260208152602001807f4f776e61626c653a2063616c6c6572206973206e6f7420746865206f776e657281525060200191505060405180910390fd5b61398f81613f66565b50565b601054341015613a0a576040517f08c379a00000000000000000000000000000000000000000000000000000000081526004018080602001828103825260138152602001807f6d696e696d756d20626574206e6f74206d65740000000000000000000000000081525060200191505060405180910390fd5b60016003541415613a5857600360009055600460009055600560009055600660009055600760009055600860009055600960009055600a60009055600b60009055600c60009055600d600090555b613a6d34601154613bee90919063ffffffff16565b601181905550613a7e823483613db9565b613a89601254613f66565b601254601960008473ffffffffffffffffffffffffffffffffffffffff1673ffffffffffffffffffffffffffffffffffffffff168152602001908152602001600020819055505050565b600082821115613b4b576040517f08c379a000000000000000000000000000000000000000000000000000000000815260040180806020018281038252601e8152602001807f536166654d6174683a207375627472616374696f6e206f766572666c6f77000081525060200191505060405180910390fd5b600082840390508091505092915050565b600033905090565b600080821415613bdc576040517f08c379a00000000000000000000000000000000000000000000000000000000081526004018080602001828103825260188152602001807f536166654d6174683a206d6f64756c6f206279207a65726f000000000000000081525060200191505060405180910390fd5b818381613be557fe5b06905092915050565b600080828401905083811015613c6c576040517f08c379a000000000000000000000000000000000000000000000000000000000815260040180806020018281038252601b8152602001807f536166654d6174683a206164646974696f6e206f766572666c6f77000000000081525060200191505060405180910390fd5b8091505092915050565b600080831415613c895760009050613cf6565b6000828402905082848281613c9a57fe5b0414613cf1576040517f08c379a00000000000000000000000000000000000000000000000000000000081526004018080602001828103825260218152602001806142516021913960400191505060405180910390fd5b809150505b92915050565b6000808211613d73576040517f08c379a000000000000000000000000000000000000000000000000000000000815260040180806020018281038252601a8152602001807f536166654d6174683a206469766973696f6e206279207a65726f00000000000081525060200191505060405180910390fd5b6000828481613d7e57fe5b0490508091505092915050565b60006010548210158015613da15750600f548211155b15613daf5760019050613db4565b600090505b919050565b613dcf6001601254613bee90919063ffffffff16565b601281905550613ddd6140fc565b6040518060e0016040528060125481526020018573ffffffffffffffffffffffffffffffffffffffff168152602001848152602001838152602001601c60009054906101000a900460ff1660ff1667ffffffffffffffff81118015613e4157600080fd5b50604051908082528060200260200182016040528015613e705781602001602082028036833780820191505090505b5081526020016000815260200160001515815250905080601f6000836000015181526020019081526020016000206000820151816000015560208201518160010160006101000a81548173ffffffffffffffffffffffffffffffffffffffff021916908373ffffffffffffffffffffffffffffffffffffffff160217905550604082015181600201556060820151816003019080519060200190613f15929190614151565b506080820151816004019080519060200190613f32929190614151565b5060a0820151816005015560c08201518160060160006101000a81548160ff02191690831515021790555090505050505050565b60001515601f600083815260200190815260200160002060060160009054906101000a900460ff16151514614003576040517f08c379a00000000000000000000000000000000000000000000000000000000081526004018080602001828103825260138152602001807f67616d6520616c726561647920706c617965640000000000000000000000000081525060200191505060405180910390fd5b600061401d601c60009054906101000a900460ff1661403b565b90508160186000838152602001908152602001600020819055505050565b600080600260009054906101000a900473ffffffffffffffffffffffffffffffffffffffff1690508073ffffffffffffffffffffffffffffffffffffffff166339418765846040518263ffffffff1660e01b8152600401808260ff168152602001915050602060405180830381600087803b1580156140b957600080fd5b505af11580156140cd573d6000803e3d6000fd5b505050506040513d60208110156140e357600080fd5b8101908080519060200190929190505050915050919050565b6040518060e0016040528060008152602001600073ffffffffffffffffffffffffffffffffffffffff168152602001600081526020016060815260200160608152602001600081526020016000151581525090565b82805482825590600052602060002090810192821561418d579160200282015b8281111561418c578251825591602001919060010190614171565b5b50905061419a919061419e565b5090565b5b808211156141b757600081600090555060010161419f565b509056fe4f776e61626c653a206e6577206f776e657220697320746865207a65726f2061646472657373436f6e74726163742068617320696e737566666963696e742066756e647320746f207061796f757420706f737369626c652077696e2e46756e6374696f6e206e6f74207573656420696e207468697320636f6e74726163742e2055736520736166654a61636b706f74426574466f72536166654d6174683a206d756c7469706c69636174696f6e206f766572666c6f7746756e6374696f6e206e6f74207573656420696e207468697320636f6e74726163742e2055736520706c6163654a61636b706f74426574466f72436f6e74726163742062616c616e636520746f6f206c6f772e20506c656173652074727920616761696e206c617465722e47616d6520616c726561647920636f6d706c6574652e204e6f20726566756e6420706f737369626c652ea2646970667358221220e1ddcf4c82ad092bf7b502afb6242a4385579aac8d25e58bf4b351980d8cc7e464736f6c634300060c003343616e2774206265206d6f72652077696e6e696e67207469657273207468616e207069636b61626c65206e756d626572734d617463682051747920262057696e205061796f757473206d7573742062652073616d65206c656e677468436f6e747269627574696f6e20697320612070657263656e7461676520696e207468652072616e6765206f662030202d20313030a2646970667358221220f72f5922d3af015eb2e807ca562ac9b0e7221bf11e8b261b36f15a92ecbb2f5864736f6c634300060c0033",
  "immutableReferences": {},
  "source": "pragma solidity ^0.6.0;\n\nimport \"./LuckyMachines.sol\";\nimport \"./Jackpots.sol\";\n\ncontract LuckyMachineJackpot is LuckyMachine {\n\n    address payable public jackpotAddress;\n\n    mapping(uint8 => uint256) internal _payouts; //(number of matches => amount paid out)\n    uint8 public totalPicks;\n    uint8[] internal winTiers;\n    uint8 public percentToJackpot;\n\n    struct JackpotGame {\n        uint id;\n        address payable player;\n        uint bet;\n        uint[] picks;\n        uint[] winners;\n        uint payout;\n        bool played;\n    }\n\n    mapping(uint => JackpotGame) public jackpotGames;\n\n    event JackpotGamePlayed(address _player, uint256 _bet, uint256[] _picks, uint256[] _winners, uint256 _payout);\n\n    // SAFE LIMITS\n    uint8 internal numPicksLimit = 25; //note: too many picks will return too small of numbers\n    uint8 internal singlePickLimit = 100; // highest single pick, if too high some numbers will never get picked\n\n    constructor(address payable _jackpotAddress, address payable _machineCoordinator, address payable _payoutAddress,  address _linkToken, uint _entryFee, uint _maxPick, uint8 _totalPicks, uint8[] memory _winningMatchQuantities, uint[] memory _winningMatchPayouts, uint8 jackpotContribution)\n            LuckyMachine(\n                _machineCoordinator,\n                _payoutAddress,\n                _linkToken,\n                _entryFee,\n                _entryFee,\n                _maxPick,\n                0 //payout - this contract uses other methods for payout structure\n            ) public {\n                require(_maxPick <= singlePickLimit, \"Single pick limit exceeded\");\n                require(_winningMatchQuantities.length == _winningMatchPayouts.length, \"Match Qty & Win Payouts must be same length\");\n                require(_winningMatchQuantities.length <= numPicksLimit, \"Can't be more winning tiers than pickable numbers\");\n                require(jackpotContribution <= 100, \"Contribution is a percentage in the range of 0 - 100\");\n                totalPicks = _totalPicks;\n                for (uint8 i = 0; i < _winningMatchQuantities.length; i++) {\n                    _payouts[_winningMatchQuantities[i]] = _winningMatchPayouts[i];\n                }\n                winTiers = _winningMatchQuantities;\n                percentToJackpot = jackpotContribution;\n                jackpotAddress = _jackpotAddress;\n                Jackpots jackpots = Jackpots(jackpotAddress);\n                jackpots.registerMachine();\n    }\n\n    function compare(uint[] memory arr1, uint[] memory arr2) public pure returns(uint[] memory) {\n        require(arr1.length == arr2.length, \"arrays must be same length\");\n        uint elements = arr1.length;\n        uint[] memory matches = new uint256[](elements);\n        for (uint i = 0; i < elements; i++) {\n            for(uint j = 0; j < elements; j++) {\n                if(arr1[i] == arr2[j]) {\n                    matches[i] = arr1[i];\n                    arr2[j] = 0;\n                    break;\n                }\n            }\n        }\n        return matches;\n    }\n\n    function countMatches(uint[] memory matches) public pure returns(uint8) {\n        uint8 matchCount = 0;\n        for(uint i = 0; i < matches.length; i++) {\n            if(matches[i] != 0) {\n                matchCount++;\n            }\n        }\n        return matchCount;\n    }\n\n    function checkPicks(uint[] memory userPicks, uint[] memory winningNumbers) public pure returns(uint8) {\n        return countMatches(compare(userPicks, winningNumbers));\n    }\n\n    // Returns [number of matches], [associated payout] e.g. [1,2,3], [100000...,200000...,300000...]\n    // These are independent of jackpot payout\n    function getPayouts() public view returns(uint8[] memory, uint256[] memory) {\n        uint[] memory tierPayouts = new uint[](winTiers.length);\n        for (uint i = 0; i < winTiers.length; i++) {\n            tierPayouts[i] = _payouts[winTiers[i]];\n        }\n        return (winTiers, tierPayouts);\n    }\n\n    function createJackpotGame(address payable _player, uint _bet, uint[] memory _picks) internal {\n        _currentGame = _currentGame.add(1);\n        JackpotGame memory newGame = JackpotGame ({\n            id: _currentGame,\n            player: _player,\n            bet: _bet,\n            picks: _picks,\n            winners: new uint[](totalPicks),\n            payout: 0,\n            played: false\n        });\n        jackpotGames[newGame.id] = newGame;\n    }\n\n    function safeJackpotBetFor(address payable player, uint[] memory picks) public payable{\n        require(picks.length == totalPicks, \"Incorrect number of picks\");\n        require(betPayable(msg.value), \"Contract has insufficint funds to payout possible win.\");\n        for(uint8 i = 0; i < totalPicks; i++){\n            require(picks[i] <= maxPick && picks[i] > 0, \"Outside of pickable bounds\");\n        }\n        require(betInRange(msg.value),\"Outisde of bet range.\");\n\n        if(gas1 == 1) {\n            delete gas1;\n            delete gas2;\n            delete gas3;\n            delete gas4;\n            delete gas5;\n            delete gas6;\n            delete gas7;\n            delete gas8;\n            delete gas9;\n            delete gas10;\n            delete gas11;\n        }\n\n        _unplayedBets = _unplayedBets.add(msg.value);\n        createJackpotGame(player, msg.value, picks);\n        playGame(_currentGame);\n        lastGameCreated[player] = _currentGame;\n    }\n\n    function placeJackpotBetFor(address payable player, uint[] memory picks) public payable{\n        require(msg.value >= minBet, \"minimum bet not met\");\n\n        if(gas1 == 1) {\n            delete gas1;\n            delete gas2;\n            delete gas3;\n            delete gas4;\n            delete gas5;\n            delete gas6;\n            delete gas7;\n            delete gas8;\n            delete gas9;\n            delete gas10;\n            delete gas11;\n        }\n\n        _unplayedBets = _unplayedBets.add(msg.value);\n        createJackpotGame(player, msg.value, picks);\n        playGame(_currentGame);\n        lastGameCreated[player] = _currentGame;\n    }\n\n    function getRandomNumbers(uint8 quantity) internal returns (bytes32 requestId) {\n        LuckyMachineCoordinator mc = LuckyMachineCoordinator(machineCoordinator);\n        return mc.getRandomNumbers(quantity);\n    }\n\n    function getJackpotMachineSummary() public view returns(uint, uint8[] memory, uint[] memory, uint, uint8, uint, uint8) {\n        //entryFee, payoutTiers, payouts, maxPick, totalPicks, currentJackpot, jackpotContribution\n        Jackpots jackpots = Jackpots(jackpotAddress);\n        uint jackpotBal = jackpots.getBalance();\n        uint[] memory tierPayouts = new uint[](winTiers.length);\n        for (uint i = 0; i < winTiers.length; i++) {\n            tierPayouts[i] = _payouts[winTiers[i]];\n        }\n        return(minBet, winTiers, tierPayouts, maxPick, totalPicks, jackpotBal, percentToJackpot);\n    }\n\n    // Lucky Machine functions to override:\n    function betPayable(uint bet) override public view returns(bool){\n        return (address(this).balance.sub(_unplayedBets) >= _payouts[winTiers[winTiers.length.sub(1)]]);\n    }\n\n    function playGame(uint gameID) override internal {\n        require(jackpotGames[gameID].played == false, \"game already played\");\n        bytes32 reqID = getRandomNumbers(totalPicks);\n        _gameRequests[reqID] = gameID;\n    }\n\n    function fulfillRandomness(bytes32 requestId, uint256[] memory randomness) override external {\n        // ONLY CALLABLE BY MACHINE COORDINATOR\n        require(msg.sender == machineCoordinator);\n        JackpotGame storage g = jackpotGames[_gameRequests[requestId]];\n        if(g.id > 0 && g.played == false){\n            if(g.bet > maxBet) {\n                g.bet = maxBet;\n            }\n            require(betPayable(1));\n\n            // store winning numbers\n            for (uint8 i = 0; i < totalPicks; i++) {\n                g.winners[i] = randomness[i].mod(maxPick).add(1);\n            }\n\n            g.played = true;\n\n            if(_unplayedBets >= g.bet) {\n                _unplayedBets -= g.bet;\n            } else {\n                _unplayedBets = 0;\n            }\n\n            Jackpots jackpots = Jackpots(jackpotAddress);\n\n            //Transfer portion of bet to jackpot\n            uint jackpotContrubution = g.bet.mul(percentToJackpot).div(100);\n            jackpots.addToJackpot{value:jackpotContrubution}();\n\n            // Check for winning numbers\n            uint8 winningPicks = checkPicks(g.picks, g.winners);\n            uint totalPayout = 0;\n\n            // Payout if winner\n            if(winningPicks > 0) {\n                if (winningPicks == totalPicks) {\n                    // Trigger jackpot payout\n                    totalPayout = jackpots.getBalance();\n                    jackpots.payoutJackpot(g.player);\n                } else {\n                    totalPayout = _payouts[winningPicks];\n                    g.player.transfer(totalPayout);\n                }\n            }\n            g.payout = totalPayout;\n            emit JackpotGamePlayed(g.player, g.bet, g.picks, g.winners, totalPayout);\n        }\n        gas1 = 1;\n        gas2 = 1;\n        gas3 = 1;\n        gas4 = 1;\n        gas5 = 1;\n        gas6 = 1;\n        gas7 = 1;\n        gas8 = 1;\n        gas9 = 1;\n        gas10 = 1;\n        gas11 = 1;\n    }\n\n    function requestRefund(uint gameID) override public{\n        JackpotGame storage g = jackpotGames[gameID];\n        require(authorizedAddress[msg.sender] || owner() == msg.sender || g.player == msg.sender, \"Not authorized to request refund\");\n        require(g.played == false, \"Game already complete. No refund possible.\");\n        require(address(this).balance >= g.bet, \"Contract balance too low. Please try again later.\");\n        g.played = true;\n        if(_unplayedBets >= g.bet) {\n            _unplayedBets -= g.bet;\n        } else {\n            _unplayedBets = 0;\n        }\n        g.player.transfer(g.bet);\n    }\n\n    function fundJackpot() public payable{\n        // WARNING: Funds deposited here cannot be refunded, only won from jackpot\n        Jackpots jackpots = Jackpots(jackpotAddress);\n        jackpots.addToJackpot{value:msg.value}();\n    }\n\n    // disable unused functions\n    function placeBetFor(address payable player, uint pick) override public payable{\n        require(false, \"Function not used in this contract. Use placeJackpotBetFor\");\n    }\n\n    function createGame(address payable _player, uint _bet, uint _pick) override internal {\n        require(false, \"Function not used in this contract. Use createJackpotGame\");\n    }\n\n    function safeBetFor(address payable player, uint pick) override public payable{\n        require(false, \"Function not used in this contract. Use safeJackpotBetFor\");\n    }\n\n    // Create Factory specific to these types of machines\n\n}\n\ncontract LuckyMachineJackpotFactory{\n    address[] public machines;\n    mapping(address => address[]) internal ownedMachines;\n\n    /**\n     * @dev Used to create a LuckyMachine that can be verified and included in the\n     * factory list.\n     */\n\n    function createMachine(\n                address payable jackpotAddress,\n                address payable machineCoordinator,\n                address linkToken,\n                uint entryFee,\n                uint maxPick,\n                uint8 totalPicks,\n                uint8[] memory winningMatchQuantities,\n                uint[] memory winningMatchPayouts,\n                uint8 jackpotContribution\n            ) public returns(address){\n                LuckyMachineJackpot newMachine = new LuckyMachineJackpot(\n                                                        jackpotAddress,\n                                                        machineCoordinator,\n                                                        msg.sender,\n                                                        linkToken,\n                                                        entryFee,\n                                                        maxPick,\n                                                        totalPicks,\n                                                        winningMatchQuantities,\n                                                        winningMatchPayouts,\n                                                        jackpotContribution\n                                                    );\n                newMachine.transferOwnership(msg.sender);\n                address newMachineAddress = address(newMachine);\n                machines.push(newMachineAddress);\n                ownedMachines[msg.sender].push(newMachineAddress);\n                return newMachineAddress;\n    }\n\n    /**\n     * @dev Returns a list of all machines created from this factory. Useful to verify\n     * a machine was setup appropriately and is a \"legitimate\" LuckyMachine.\n     */\n    function getMachines() public view returns (address[] memory) {\n        return machines;\n    }\n\n    /**\n     * @dev Returns a list of all machines created by the sender.\n     */\n    function getOwnedMachines() public view returns (address[] memory) {\n        return ownedMachines[msg.sender];\n    }\n}\n",
  "sourcePath": "@luckymachines/contracts/src/v0.2/LuckyMachines+Jackpot.sol",
  "compiler": {
    "name": "solc",
    "version": "0.6.12+commit.27d51765.Emscripten.clang"
  },
  "schemaVersion": "3.3.4",
  "updatedAt": "2021-04-09T07:13:02.608Z",
  "devdoc": {
    "kind": "dev",
    "methods": {
      "createMachine(address,address,address,uint256,uint256,uint8,uint8[],uint256[],uint8)": {
        "details": "Used to create a LuckyMachine that can be verified and included in the factory list."
      },
      "getMachines()": {
        "details": "Returns a list of all machines created from this factory. Useful to verify a machine was setup appropriately and is a \"legitimate\" LuckyMachine."
      },
      "getOwnedMachines()": {
        "details": "Returns a list of all machines created by the sender."
      }
    },
    "version": 1
  },
  "userdoc": {
    "kind": "user",
    "methods": {},
    "version": 1
  }
}