{"abi":[{"inputs":[{"internalType":"address payable","name":"_payoutAddress","type":"address"},{"internalType":"uint256","name":"_maxBet","type":"uint256"},{"internalType":"uint256","name":"_minBet","type":"uint256"},{"internalType":"uint256","name":"_maxPick","type":"uint256"},{"internalType":"uint256","name":"_payout","type":"uint256"}],"stateMutability":"nonpayable","type":"constructor"},{"anonymous":false,"inputs":[{"indexed":false,"internalType":"address","name":"_player","type":"address"},{"indexed":false,"internalType":"uint256","name":"_bet","type":"uint256"},{"indexed":false,"internalType":"uint256","name":"_pick","type":"uint256"},{"indexed":false,"internalType":"uint256","name":"_winner","type":"uint256"},{"indexed":false,"internalType":"uint256","name":"_payout","type":"uint256"}],"name":"GamePlayed","type":"event"},{"anonymous":false,"inputs":[{"indexed":true,"internalType":"address","name":"previousOwner","type":"address"},{"indexed":true,"internalType":"address","name":"newOwner","type":"address"}],"name":"OwnershipTransferred","type":"event"},{"inputs":[],"name":"_unplayedBets","outputs":[{"internalType":"uint256","name":"","type":"uint256"}],"stateMutability":"view","type":"function"},{"inputs":[{"internalType":"address[]","name":"userAddresses","type":"address[]"},{"internalType":"bool","name":"allowed","type":"bool"}],"name":"allowGasFreeBet","outputs":[],"stateMutability":"nonpayable","type":"function"},{"inputs":[{"internalType":"address","name":"","type":"address"}],"name":"authorizedAddress","outputs":[{"internalType":"bool","name":"","type":"bool"}],"stateMutability":"view","type":"function"},{"inputs":[{"internalType":"uint256","name":"bet","type":"uint256"}],"name":"betPayable","outputs":[{"internalType":"bool","name":"","type":"bool"}],"stateMutability":"view","type":"function"},{"inputs":[],"name":"closeMachine","outputs":[],"stateMutability":"nonpayable","type":"function"},{"inputs":[{"internalType":"uint256","name":"","type":"uint256"}],"name":"games","outputs":[{"internalType":"uint256","name":"id","type":"uint256"},{"internalType":"address payable","name":"player","type":"address"},{"internalType":"uint256","name":"bet","type":"uint256"},{"internalType":"uint256","name":"pick","type":"uint256"},{"internalType":"uint256","name":"winner","type":"uint256"},{"internalType":"bool","name":"played","type":"bool"}],"stateMutability":"view","type":"function"},{"inputs":[{"internalType":"address","name":"","type":"address"}],"name":"gasFreeBetAllowed","outputs":[{"internalType":"bool","name":"","type":"bool"}],"stateMutability":"view","type":"function"},{"inputs":[],"name":"getLinkBalance","outputs":[{"internalType":"uint256","name":"","type":"uint256"}],"stateMutability":"view","type":"function"},{"inputs":[],"name":"getSummary","outputs":[{"internalType":"uint256","name":"","type":"uint256"},{"internalType":"uint256","name":"","type":"uint256"},{"internalType":"uint256","name":"","type":"uint256"},{"internalType":"uint256","name":"","type":"uint256"}],"stateMutability":"view","type":"function"},{"inputs":[{"internalType":"address","name":"","type":"address"}],"name":"lastGameCreated","outputs":[{"internalType":"uint256","name":"","type":"uint256"}],"stateMutability":"view","type":"function"},{"inputs":[],"name":"maxBet","outputs":[{"internalType":"uint256","name":"","type":"uint256"}],"stateMutability":"view","type":"function"},{"inputs":[],"name":"maxPick","outputs":[{"internalType":"uint256","name":"","type":"uint256"}],"stateMutability":"view","type":"function"},{"inputs":[],"name":"minBet","outputs":[{"internalType":"uint256","name":"","type":"uint256"}],"stateMutability":"view","type":"function"},{"inputs":[{"internalType":"bytes32","name":"","type":"bytes32"}],"name":"nonces","outputs":[{"internalType":"uint256","name":"","type":"uint256"}],"stateMutability":"view","type":"function"},{"inputs":[],"name":"owner","outputs":[{"internalType":"address","name":"","type":"address"}],"stateMutability":"view","type":"function"},{"inputs":[],"name":"payout","outputs":[{"internalType":"uint256","name":"","type":"uint256"}],"stateMutability":"view","type":"function"},{"inputs":[],"name":"payoutAddress","outputs":[{"internalType":"address payable","name":"","type":"address"}],"stateMutability":"view","type":"function"},{"inputs":[{"internalType":"address payable","name":"player","type":"address"},{"internalType":"uint256","name":"pick","type":"uint256"}],"name":"placeBetFor","outputs":[],"stateMutability":"payable","type":"function"},{"inputs":[{"internalType":"bytes32","name":"requestId","type":"bytes32"},{"internalType":"uint256","name":"randomness","type":"uint256"}],"name":"rawFulfillRandomness","outputs":[],"stateMutability":"nonpayable","type":"function"},{"inputs":[],"name":"renounceOwnership","outputs":[],"stateMutability":"nonpayable","type":"function"},{"inputs":[{"internalType":"uint256","name":"gameID","type":"uint256"}],"name":"replayGame","outputs":[],"stateMutability":"nonpayable","type":"function"},{"inputs":[{"internalType":"uint256","name":"gameID","type":"uint256"}],"name":"requestRefund","outputs":[],"stateMutability":"nonpayable","type":"function"},{"inputs":[{"internalType":"address payable","name":"player","type":"address"},{"internalType":"uint256","name":"pick","type":"uint256"}],"name":"safeBetFor","outputs":[],"stateMutability":"payable","type":"function"},{"inputs":[{"internalType":"address","name":"userAddress","type":"address"},{"internalType":"bool","name":"authorized","type":"bool"}],"name":"setAuthorizedUser","outputs":[],"stateMutability":"nonpayable","type":"function"},{"inputs":[{"internalType":"bytes32","name":"_keyHash","type":"bytes32"}],"name":"setKeyHash","outputs":[],"stateMutability":"nonpayable","type":"function"},{"inputs":[{"internalType":"address","name":"_linkAddress","type":"address"}],"name":"setLINK","outputs":[],"stateMutability":"nonpayable","type":"function"},{"inputs":[{"internalType":"address payable","name":"_payoutAddress","type":"address"}],"name":"setPayoutAddress","outputs":[],"stateMutability":"nonpayable","type":"function"},{"inputs":[{"internalType":"address","name":"_vrfCoordinator","type":"address"}],"name":"setVRFCoordinator","outputs":[],"stateMutability":"nonpayable","type":"function"},{"inputs":[],"name":"testCloseMachine","outputs":[],"stateMutability":"nonpayable","type":"function"},{"inputs":[{"internalType":"address payable","name":"_player","type":"address"},{"internalType":"uint256","name":"_bet","type":"uint256"},{"internalType":"uint256","name":"_pick","type":"uint256"},{"internalType":"bool","name":"_played","type":"bool"},{"internalType":"uint256","name":"_gameID","type":"uint256"}],"name":"testCreateGame","outputs":[],"stateMutability":"nonpayable","type":"function"},{"inputs":[{"internalType":"bytes32","name":"requestId","type":"bytes32"},{"internalType":"uint256","name":"randomness","type":"uint256"}],"name":"testFulfillRandomness","outputs":[],"stateMutability":"nonpayable","type":"function"},{"inputs":[{"internalType":"address payable","name":"player","type":"address"},{"internalType":"uint256","name":"pick","type":"uint256"},{"internalType":"uint256","name":"testRandomNumber","type":"uint256"}],"name":"testPlaceBetFor","outputs":[],"stateMutability":"payable","type":"function"},{"inputs":[{"internalType":"uint256","name":"gameID","type":"uint256"},{"internalType":"uint256","name":"testRandomNumber","type":"uint256"}],"name":"testPlayGame","outputs":[],"stateMutability":"nonpayable","type":"function"},{"inputs":[{"internalType":"address","name":"newOwner","type":"address"}],"name":"transferOwnership","outputs":[],"stateMutability":"nonpayable","type":"function"},{"inputs":[{"internalType":"uint256","name":"amount","type":"uint256"}],"name":"withdrawEth","outputs":[],"stateMutability":"nonpayable","type":"function"},{"inputs":[{"internalType":"uint256","name":"amount","type":"uint256"}],"name":"withdrawLink","outputs":[],"stateMutability":"nonpayable","type":"function"},{"stateMutability":"payable","type":"receive"}],"devdoc":{"methods":{"allowGasFreeBet(address[],bool)":{"details":"Set group of addresses to be eligible for gas free bets. Note: currently gasFreeBetFor() not enabled, however this value could be checked by operator and bets placed on behalf of user, thereby covring the gas costs."},"betPayable(uint256)":{"details":"Returns whether a winning bet can by paid out by machine. Balance of machine must be at least value of bet + (value of bet * payout)."},"closeMachine()":{"details":"Withdraws all available funds from the machine, leaving behind only _unplayedBets, which must remain for any refund requests. This does not do anything to halt operations other than removing funding, which automatically disallows play. If machine is re-funded, play may continue."},"getSummary()":{"details":"Returns summary of machine requirements for play and payout multiplier."},"owner()":{"details":"Returns the address of the current owner."},"placeBetFor(address,uint256)":{"details":"Returns Game ID, which can be queried for status of game using games('gameID'). This will fail if machine conditions are not met. Use safeBetFor() if all conditions have not been pre-verified."},"renounceOwnership()":{"details":"Leaves the contract without owner. It will not be possible to call `onlyOwner` functions anymore. Can only be called by the current owner.     * NOTE: Renouncing ownership will leave the contract without an owner, thereby removing any functionality that is only available to the owner."},"replayGame(uint256)":{"details":"Option to replay any games that may have been created, but unable to complete initial play for some reason. Unplayed games may be refunded or replayed until the number has been generated and game is marked as played."},"requestRefund(uint256)":{"details":"Request a refund for an unplayed game. If game is created, but machine conditions are not appropriate to allow play, no number will be generated and player or authorized address can request refund. Regardless of who requests refund, payout will always be to player listed in game."},"safeBetFor(address,uint256)":{"details":"Returns Game ID, which can be queried for status of game using games('gameID'). Places bet after ensuring all conditions are met (bet within minimum - maximum range, maximum pick not exceeded, winning bet is payable)."},"setAuthorizedUser(address,bool)":{"details":"Add any address as authorized user. Can be used to whitelist other contracts that may want to interact with authorized functions."},"setKeyHash(bytes32)":{"details":"Can update keyHash if access to node is compromised. This should not be updated unless you are sure what you are doing."},"setLINK(address)":{"details":"Can update LINK address if necessary. Should not have to call this, but here in case testnet address is set or token address updated for any reason."},"setPayoutAddress(address)":{"details":"Updates the address to which all withdrawals of ETH & LINK will be sent. If machine is closed (all funds withdrawn), this address receives all available funds."},"setVRFCoordinator(address)":{"details":"Can update vrfCoordinator if access to node is compromised. This should not be updated unless you are sure what you are doing."},"transferOwnership(address)":{"details":"Transfers ownership of the contract to a new account (`newOwner`). Can only be called by the current owner."},"withdrawEth(uint256)":{"details":"Withdraw specified amount of ETH from machine. Amount must be less than any unplayed bets in machine to allow for refunds."},"withdrawLink(uint256)":{"details":"Withdraw specified amount of LINK from machine."}}},"evm":{"assembly":"    /* \"AllContracts-test.sol\":5733:21618  contract LuckyMachine is VRFConsumerBase, Ownable {... */\n  mstore(0x40, 0x80)\n    /* \"AllContracts-test.sol\":6940:7870  constructor(address payable _payoutAddress, uint _maxBet, uint _minBet, uint _maxPick, uint _payout)... */\n  callvalue\n    /* \"--CODEGEN--\":8:17   */\n  dup1\n    /* \"--CODEGEN--\":5:7   */\n  iszero\n  tag_1\n  jumpi\n    /* \"--CODEGEN--\":30:31   */\n  0x00\n    /* \"--CODEGEN--\":27:28   */\n  dup1\n    /* \"--CODEGEN--\":20:32   */\n  revert\n    /* \"--CODEGEN--\":5:7   */\ntag_1:\n    /* \"AllContracts-test.sol\":6940:7870  constructor(address payable _payoutAddress, uint _maxBet, uint _minBet, uint _maxPick, uint _payout)... */\n  pop\n  mload(0x40)\n  sub(codesize, bytecodeSize)\n  dup1\n  bytecodeSize\n  dup4\n  codecopy\n  dup2\n  dup2\n  add\n  0x40\n  mstore\n    /* \"--CODEGEN--\":13:16   */\n  0xa0\n    /* \"--CODEGEN--\":8:11   */\n  dup2\n    /* \"--CODEGEN--\":5:17   */\n  lt\n    /* \"--CODEGEN--\":2:4   */\n  iszero\n  tag_2\n  jumpi\n    /* \"--CODEGEN--\":30:31   */\n  0x00\n    /* \"--CODEGEN--\":27:28   */\n  dup1\n    /* \"--CODEGEN--\":20:32   */\n  revert\n    /* \"--CODEGEN--\":2:4   */\ntag_2:\n    /* \"AllContracts-test.sol\":6940:7870  constructor(address payable _payoutAddress, uint _maxBet, uint _minBet, uint _maxPick, uint _payout)... */\n  dup2\n  add\n  swap1\n  dup1\n  dup1\n  mload\n  swap1\n  0x20\n  add\n  swap1\n  swap3\n  swap2\n  swap1\n  dup1\n  mload\n  swap1\n  0x20\n  add\n  swap1\n  swap3\n  swap2\n  swap1\n  dup1\n  mload\n  swap1\n  0x20\n  add\n  swap1\n  swap3\n  swap2\n  swap1\n  dup1\n  mload\n  swap1\n  0x20\n  add\n  swap1\n  swap3\n  swap2\n  swap1\n  dup1\n  mload\n  swap1\n  0x20\n  add\n  swap1\n  swap3\n  swap2\n  swap1\n  pop\n  pop\n  pop\n    /* \"AllContracts-test.sol\":7104:7146  0xdD3782915140c8f3b190B5D67eAc6dc5760C46E9 */\n  0xdd3782915140c8f3b190b5d67eac6dc5760c46e9\n    /* \"AllContracts-test.sol\":7179:7221  0xa36085F69e2889c224210F603D836748e7dC0088 */\n  0xa36085f69e2889c224210f603d836748e7dc0088\n    /* \"AllContracts-test.sol\":5460:5475  _vrfCoordinator */\n  dup2\n    /* \"AllContracts-test.sol\":5443:5457  vrfCoordinator */\n  0x01\n  0x00\n    /* \"AllContracts-test.sol\":5443:5475  vrfCoordinator = _vrfCoordinator */\n  0x0100\n  exp\n  dup2\n  sload\n  dup2\n  0xffffffffffffffffffffffffffffffffffffffff\n  mul\n  not\n  and\n  swap1\n  dup4\n  0xffffffffffffffffffffffffffffffffffffffff\n  and\n  mul\n  or\n  swap1\n  sstore\n  pop\n    /* \"AllContracts-test.sol\":5507:5512  _link */\n  dup1\n    /* \"AllContracts-test.sol\":5481:5485  LINK */\n  0x00\n  dup1\n    /* \"AllContracts-test.sol\":5481:5513  LINK = LinkTokenInterface(_link) */\n  0x0100\n  exp\n  dup2\n  sload\n  dup2\n  0xffffffffffffffffffffffffffffffffffffffff\n  mul\n  not\n  and\n  swap1\n  dup4\n  0xffffffffffffffffffffffffffffffffffffffff\n  and\n  mul\n  or\n  swap1\n  sstore\n  pop\n    /* \"AllContracts-test.sol\":5378:5518  constructor(address _vrfCoordinator, address _link) public {... */\n  pop\n  pop\n    /* \"AllContracts-test.sol\":726:743  address msgSender */\n  0x00\n    /* \"AllContracts-test.sol\":746:758  _msgSender() */\n  tag_8\n    /* \"AllContracts-test.sol\":746:756  _msgSender */\n  shl(0x20, tag_9)\n    /* \"AllContracts-test.sol\":746:758  _msgSender() */\n  0x20\n  shr\n  jump\t// in\ntag_8:\n    /* \"AllContracts-test.sol\":726:758  address msgSender = _msgSender() */\n  swap1\n  pop\n    /* \"AllContracts-test.sol\":777:786  msgSender */\n  dup1\n    /* \"AllContracts-test.sol\":768:774  _owner */\n  0x03\n  0x00\n    /* \"AllContracts-test.sol\":768:786  _owner = msgSender */\n  0x0100\n  exp\n  dup2\n  sload\n  dup2\n  0xffffffffffffffffffffffffffffffffffffffff\n  mul\n  not\n  and\n  swap1\n  dup4\n  0xffffffffffffffffffffffffffffffffffffffff\n  and\n  mul\n  or\n  swap1\n  sstore\n  pop\n    /* \"AllContracts-test.sol\":834:843  msgSender */\n  dup1\n    /* \"AllContracts-test.sol\":801:844  OwnershipTransferred(address(0), msgSender) */\n  0xffffffffffffffffffffffffffffffffffffffff\n  and\n    /* \"AllContracts-test.sol\":830:831  0 */\n  0x00\n    /* \"AllContracts-test.sol\":801:844  OwnershipTransferred(address(0), msgSender) */\n  0xffffffffffffffffffffffffffffffffffffffff\n  and\n  0x8be0079c531659141344cd1fd0a4f28419497f9722a3daafe3b4186f6b6457e0\n  mload(0x40)\n  mload(0x40)\n  dup1\n  swap2\n  sub\n  swap1\n  log3\n    /* \"AllContracts-test.sol\":692:851  constructor () internal {... */\n  pop\n    /* \"AllContracts-test.sol\":7278:7344  0x6c3699283bda56ad74f6b855546325b68d482e983852a7a82979cc4807b641f4 */\n  0x6c3699283bda56ad74f6b855546325b68d482e983852a7a82979cc4807b641f4\n    /* \"AllContracts-test.sol\":7268:7344  keyHash = 0x6c3699283bda56ad74f6b855546325b68d482e983852a7a82979cc4807b641f4 */\n  0x00\n  shl\n    /* \"AllContracts-test.sol\":7268:7275  keyHash */\n  0x04\n    /* \"AllContracts-test.sol\":7268:7344  keyHash = 0x6c3699283bda56ad74f6b855546325b68d482e983852a7a82979cc4807b641f4 */\n  dup2\n  swap1\n  sstore\n  pop\n    /* \"AllContracts-test.sol\":7364:7378  0.1 * 10 ** 18 */\n  0x016345785d8a0000\n    /* \"AllContracts-test.sol\":7358:7361  fee */\n  0x05\n    /* \"AllContracts-test.sol\":7358:7378  fee = 0.1 * 10 ** 18 */\n  dup2\n  swap1\n  sstore\n  pop\n    /* \"AllContracts-test.sol\":7420:7421  1 */\n  0x01\n    /* \"AllContracts-test.sol\":7405:7417  _currentGame */\n  0x15\n    /* \"AllContracts-test.sol\":7405:7421  _currentGame = 1 */\n  dup2\n  swap1\n  sstore\n  pop\n    /* \"AllContracts-test.sol\":7451:7452  0 */\n  0x00\n    /* \"AllContracts-test.sol\":7435:7448  _unplayedBets */\n  0x14\n    /* \"AllContracts-test.sol\":7435:7452  _unplayedBets = 0 */\n  dup2\n  swap1\n  sstore\n  pop\n    /* \"AllContracts-test.sol\":7482:7496  _payoutAddress */\n  dup5\n    /* \"AllContracts-test.sol\":7466:7479  payoutAddress */\n  0x16\n  0x00\n    /* \"AllContracts-test.sol\":7466:7496  payoutAddress = _payoutAddress */\n  0x0100\n  exp\n  dup2\n  sload\n  dup2\n  0xffffffffffffffffffffffffffffffffffffffff\n  mul\n  not\n  and\n  swap1\n  dup4\n  0xffffffffffffffffffffffffffffffffffffffff\n  and\n  mul\n  or\n  swap1\n  sstore\n  pop\n    /* \"AllContracts-test.sol\":7519:7526  _minBet */\n  dup3\n    /* \"AllContracts-test.sol\":7510:7516  minBet */\n  0x13\n    /* \"AllContracts-test.sol\":7510:7526  minBet = _minBet */\n  dup2\n  swap1\n  sstore\n  pop\n    /* \"AllContracts-test.sol\":7549:7556  _maxBet */\n  dup4\n    /* \"AllContracts-test.sol\":7540:7546  maxBet */\n  0x12\n    /* \"AllContracts-test.sol\":7540:7556  maxBet = _maxBet */\n  dup2\n  swap1\n  sstore\n  pop\n    /* \"AllContracts-test.sol\":7580:7588  _maxPick */\n  dup2\n    /* \"AllContracts-test.sol\":7570:7577  maxPick */\n  0x11\n    /* \"AllContracts-test.sol\":7570:7588  maxPick = _maxPick */\n  dup2\n  swap1\n  sstore\n  pop\n    /* \"AllContracts-test.sol\":7611:7618  _payout */\n  dup1\n    /* \"AllContracts-test.sol\":7602:7608  payout */\n  0x17\n    /* \"AllContracts-test.sol\":7602:7618  payout = _payout */\n  dup2\n  swap1\n  sstore\n  pop\n    /* \"AllContracts-test.sol\":7640:7641  1 */\n  0x01\n    /* \"AllContracts-test.sol\":7633:7637  gas1 */\n  0x06\n    /* \"AllContracts-test.sol\":7633:7641  gas1 = 1 */\n  dup2\n  swap1\n  sstore\n  pop\n    /* \"AllContracts-test.sol\":7662:7663  1 */\n  0x01\n    /* \"AllContracts-test.sol\":7655:7659  gas2 */\n  0x07\n    /* \"AllContracts-test.sol\":7655:7663  gas2 = 1 */\n  dup2\n  swap1\n  sstore\n  pop\n    /* \"AllContracts-test.sol\":7684:7685  1 */\n  0x01\n    /* \"AllContracts-test.sol\":7677:7681  gas3 */\n  0x08\n    /* \"AllContracts-test.sol\":7677:7685  gas3 = 1 */\n  dup2\n  swap1\n  sstore\n  pop\n    /* \"AllContracts-test.sol\":7706:7707  1 */\n  0x01\n    /* \"AllContracts-test.sol\":7699:7703  gas4 */\n  0x09\n    /* \"AllContracts-test.sol\":7699:7707  gas4 = 1 */\n  dup2\n  swap1\n  sstore\n  pop\n    /* \"AllContracts-test.sol\":7728:7729  1 */\n  0x01\n    /* \"AllContracts-test.sol\":7721:7725  gas5 */\n  0x0a\n    /* \"AllContracts-test.sol\":7721:7729  gas5 = 1 */\n  dup2\n  swap1\n  sstore\n  pop\n    /* \"AllContracts-test.sol\":7750:7751  1 */\n  0x01\n    /* \"AllContracts-test.sol\":7743:7747  gas6 */\n  0x0b\n    /* \"AllContracts-test.sol\":7743:7751  gas6 = 1 */\n  dup2\n  swap1\n  sstore\n  pop\n    /* \"AllContracts-test.sol\":7772:7773  1 */\n  0x01\n    /* \"AllContracts-test.sol\":7765:7769  gas7 */\n  0x0c\n    /* \"AllContracts-test.sol\":7765:7773  gas7 = 1 */\n  dup2\n  swap1\n  sstore\n  pop\n    /* \"AllContracts-test.sol\":7794:7795  1 */\n  0x01\n    /* \"AllContracts-test.sol\":7787:7791  gas8 */\n  0x0d\n    /* \"AllContracts-test.sol\":7787:7795  gas8 = 1 */\n  dup2\n  swap1\n  sstore\n  pop\n    /* \"AllContracts-test.sol\":7816:7817  1 */\n  0x01\n    /* \"AllContracts-test.sol\":7809:7813  gas9 */\n  0x0e\n    /* \"AllContracts-test.sol\":7809:7817  gas9 = 1 */\n  dup2\n  swap1\n  sstore\n  pop\n    /* \"AllContracts-test.sol\":7839:7840  1 */\n  0x01\n    /* \"AllContracts-test.sol\":7831:7836  gas10 */\n  0x0f\n    /* \"AllContracts-test.sol\":7831:7840  gas10 = 1 */\n  dup2\n  swap1\n  sstore\n  pop\n    /* \"AllContracts-test.sol\":7862:7863  1 */\n  0x01\n    /* \"AllContracts-test.sol\":7854:7859  gas11 */\n  0x10\n    /* \"AllContracts-test.sol\":7854:7863  gas11 = 1 */\n  dup2\n  swap1\n  sstore\n  pop\n    /* \"AllContracts-test.sol\":6940:7870  constructor(address payable _payoutAddress, uint _maxBet, uint _minBet, uint _maxPick, uint _payout)... */\n  pop\n  pop\n  pop\n  pop\n  pop\n    /* \"AllContracts-test.sol\":5733:21618  contract LuckyMachine is VRFConsumerBase, Ownable {... */\n  jump(tag_11)\n    /* \"AllContracts-test.sol\":90:194  function _msgSender() internal view virtual returns (address payable) {... */\ntag_9:\n    /* \"AllContracts-test.sol\":143:158  address payable */\n  0x00\n    /* \"AllContracts-test.sol\":177:187  msg.sender */\n  caller\n    /* \"AllContracts-test.sol\":170:187  return msg.sender */\n  swap1\n  pop\n    /* \"AllContracts-test.sol\":90:194  function _msgSender() internal view virtual returns (address payable) {... */\n  swap1\n  jump\t// out\n    /* \"AllContracts-test.sol\":5733:21618  contract LuckyMachine is VRFConsumerBase, Ownable {... */\ntag_11:\n  dataSize(sub_0)\n  dup1\n  dataOffset(sub_0)\n  0x00\n  codecopy\n  0x00\n  return\nstop\n\nsub_0: assembly {\n        /* \"AllContracts-test.sol\":5733:21618  contract LuckyMachine is VRFConsumerBase, Ownable {... */\n      mstore(0x40, 0x80)\n      jumpi(tag_1, lt(calldatasize, 0x04))\n      shr(0xe0, calldataload(0x00))\n      dup1\n      0x95f9b576\n      gt\n      tag_39\n      jumpi\n      dup1\n      0xb93030b3\n      gt\n      tag_40\n      jumpi\n      dup1\n      0xde4fa6af\n      gt\n      tag_41\n      jumpi\n      dup1\n      0xde4fa6af\n      eq\n      tag_34\n      jumpi\n      dup1\n      0xdfad4c11\n      eq\n      tag_35\n      jumpi\n      dup1\n      0xf2fde38b\n      eq\n      tag_36\n      jumpi\n      dup1\n      0xf31a4dcd\n      eq\n      tag_37\n      jumpi\n      dup1\n      0xfafacab2\n      eq\n      tag_38\n      jumpi\n      jump(tag_2)\n    tag_41:\n      dup1\n      0xb93030b3\n      eq\n      tag_30\n      jumpi\n      dup1\n      0xc311d049\n      eq\n      tag_31\n      jumpi\n      dup1\n      0xc955e79c\n      eq\n      tag_32\n      jumpi\n      dup1\n      0xd9e721f8\n      eq\n      tag_33\n      jumpi\n      jump(tag_2)\n    tag_40:\n      dup1\n      0xa02e0616\n      gt\n      tag_42\n      jumpi\n      dup1\n      0xa02e0616\n      eq\n      tag_25\n      jumpi\n      dup1\n      0xa249225e\n      eq\n      tag_26\n      jumpi\n      dup1\n      0xa4b2409e\n      eq\n      tag_27\n      jumpi\n      dup1\n      0xac150fd8\n      eq\n      tag_28\n      jumpi\n      dup1\n      0xb843f5ab\n      eq\n      tag_29\n      jumpi\n      jump(tag_2)\n    tag_42:\n      dup1\n      0x95f9b576\n      eq\n      tag_21\n      jumpi\n      dup1\n      0x9619367d\n      eq\n      tag_22\n      jumpi\n      dup1\n      0x98544710\n      eq\n      tag_23\n      jumpi\n      dup1\n      0x9e317f12\n      eq\n      tag_24\n      jumpi\n      jump(tag_2)\n    tag_39:\n      dup1\n      0x50c5f975\n      gt\n      tag_43\n      jumpi\n      dup1\n      0x6b25d296\n      gt\n      tag_44\n      jumpi\n      dup1\n      0x6b25d296\n      eq\n      tag_16\n      jumpi\n      dup1\n      0x715018a6\n      eq\n      tag_17\n      jumpi\n      dup1\n      0x7a8042bd\n      eq\n      tag_18\n      jumpi\n      dup1\n      0x8da5cb5b\n      eq\n      tag_19\n      jumpi\n      dup1\n      0x94985ddd\n      eq\n      tag_20\n      jumpi\n      jump(tag_2)\n    tag_44:\n      dup1\n      0x50c5f975\n      eq\n      tag_12\n      jumpi\n      dup1\n      0x5b8d02d7\n      eq\n      tag_13\n      jumpi\n      dup1\n      0x6168eac9\n      eq\n      tag_14\n      jumpi\n      dup1\n      0x63bd1d4a\n      eq\n      tag_15\n      jumpi\n      jump(tag_2)\n    tag_43:\n      dup1\n      0x2ee42d8a\n      gt\n      tag_45\n      jumpi\n      dup1\n      0x2ee42d8a\n      eq\n      tag_7\n      jumpi\n      dup1\n      0x33ea51a8\n      eq\n      tag_8\n      jumpi\n      dup1\n      0x3638104a\n      eq\n      tag_9\n      jumpi\n      dup1\n      0x4051ddac\n      eq\n      tag_10\n      jumpi\n      dup1\n      0x44ff81ce\n      eq\n      tag_11\n      jumpi\n      jump(tag_2)\n    tag_45:\n      dup1\n      0x0c610a12\n      eq\n      tag_3\n      jumpi\n      dup1\n      0x117a5b90\n      eq\n      tag_4\n      jumpi\n      dup1\n      0x130a1efa\n      eq\n      tag_5\n      jumpi\n      dup1\n      0x2e5b2168\n      eq\n      tag_6\n      jumpi\n      jump(tag_2)\n    tag_1:\n      jumpi(tag_2, calldatasize)\n      stop\n    tag_2:\n      0x00\n      dup1\n      revert\n        /* \"AllContracts-test.sol\":8650:8799  function betPayable(uint bet) public view returns(bool){... */\n    tag_3:\n      callvalue\n        /* \"--CODEGEN--\":8:17   */\n      dup1\n        /* \"--CODEGEN--\":5:7   */\n      iszero\n      tag_48\n      jumpi\n        /* \"--CODEGEN--\":30:31   */\n      0x00\n        /* \"--CODEGEN--\":27:28   */\n      dup1\n        /* \"--CODEGEN--\":20:32   */\n      revert\n        /* \"--CODEGEN--\":5:7   */\n    tag_48:\n        /* \"AllContracts-test.sol\":8650:8799  function betPayable(uint bet) public view returns(bool){... */\n      pop\n      tag_49\n      0x04\n      dup1\n      calldatasize\n      sub\n        /* \"--CODEGEN--\":13:15   */\n      0x20\n        /* \"--CODEGEN--\":8:11   */\n      dup2\n        /* \"--CODEGEN--\":5:16   */\n      lt\n        /* \"--CODEGEN--\":2:4   */\n      iszero\n      tag_50\n      jumpi\n        /* \"--CODEGEN--\":29:30   */\n      0x00\n        /* \"--CODEGEN--\":26:27   */\n      dup1\n        /* \"--CODEGEN--\":19:31   */\n      revert\n        /* \"--CODEGEN--\":2:4   */\n    tag_50:\n        /* \"AllContracts-test.sol\":8650:8799  function betPayable(uint bet) public view returns(bool){... */\n      dup2\n      add\n      swap1\n      dup1\n      dup1\n      calldataload\n      swap1\n      0x20\n      add\n      swap1\n      swap3\n      swap2\n      swap1\n      pop\n      pop\n      pop\n      tag_51\n      jump\t// in\n    tag_49:\n      mload(0x40)\n      dup1\n      dup3\n      iszero\n      iszero\n      iszero\n      iszero\n      dup2\n      mstore\n      0x20\n      add\n      swap2\n      pop\n      pop\n      mload(0x40)\n      dup1\n      swap2\n      sub\n      swap1\n      return\n        /* \"AllContracts-test.sol\":6691:6725  mapping(uint => Game) public games */\n    tag_4:\n      callvalue\n        /* \"--CODEGEN--\":8:17   */\n      dup1\n        /* \"--CODEGEN--\":5:7   */\n      iszero\n      tag_52\n      jumpi\n        /* \"--CODEGEN--\":30:31   */\n      0x00\n        /* \"--CODEGEN--\":27:28   */\n      dup1\n        /* \"--CODEGEN--\":20:32   */\n      revert\n        /* \"--CODEGEN--\":5:7   */\n    tag_52:\n        /* \"AllContracts-test.sol\":6691:6725  mapping(uint => Game) public games */\n      pop\n      tag_53\n      0x04\n      dup1\n      calldatasize\n      sub\n        /* \"--CODEGEN--\":13:15   */\n      0x20\n        /* \"--CODEGEN--\":8:11   */\n      dup2\n        /* \"--CODEGEN--\":5:16   */\n      lt\n        /* \"--CODEGEN--\":2:4   */\n      iszero\n      tag_54\n      jumpi\n        /* \"--CODEGEN--\":29:30   */\n      0x00\n        /* \"--CODEGEN--\":26:27   */\n      dup1\n        /* \"--CODEGEN--\":19:31   */\n      revert\n        /* \"--CODEGEN--\":2:4   */\n    tag_54:\n        /* \"AllContracts-test.sol\":6691:6725  mapping(uint => Game) public games */\n      dup2\n      add\n      swap1\n      dup1\n      dup1\n      calldataload\n      swap1\n      0x20\n      add\n      swap1\n      swap3\n      swap2\n      swap1\n      pop\n      pop\n      pop\n      tag_55\n      jump\t// in\n    tag_53:\n      mload(0x40)\n      dup1\n      dup8\n      dup2\n      mstore\n      0x20\n      add\n      dup7\n      0xffffffffffffffffffffffffffffffffffffffff\n      and\n      0xffffffffffffffffffffffffffffffffffffffff\n      and\n      dup2\n      mstore\n      0x20\n      add\n      dup6\n      dup2\n      mstore\n      0x20\n      add\n      dup5\n      dup2\n      mstore\n      0x20\n      add\n      dup4\n      dup2\n      mstore\n      0x20\n      add\n      dup3\n      iszero\n      iszero\n      iszero\n      iszero\n      dup2\n      mstore\n      0x20\n      add\n      swap7\n      pop\n      pop\n      pop\n      pop\n      pop\n      pop\n      pop\n      mload(0x40)\n      dup1\n      swap2\n      sub\n      swap1\n      return\n        /* \"AllContracts-test.sol\":20261:21361  function testFulfillRandomness(bytes32 requestId, uint256 randomness) public {... */\n    tag_5:\n      callvalue\n        /* \"--CODEGEN--\":8:17   */\n      dup1\n        /* \"--CODEGEN--\":5:7   */\n      iszero\n      tag_56\n      jumpi\n        /* \"--CODEGEN--\":30:31   */\n      0x00\n        /* \"--CODEGEN--\":27:28   */\n      dup1\n        /* \"--CODEGEN--\":20:32   */\n      revert\n        /* \"--CODEGEN--\":5:7   */\n    tag_56:\n        /* \"AllContracts-test.sol\":20261:21361  function testFulfillRandomness(bytes32 requestId, uint256 randomness) public {... */\n      pop\n      tag_57\n      0x04\n      dup1\n      calldatasize\n      sub\n        /* \"--CODEGEN--\":13:15   */\n      0x40\n        /* \"--CODEGEN--\":8:11   */\n      dup2\n        /* \"--CODEGEN--\":5:16   */\n      lt\n        /* \"--CODEGEN--\":2:4   */\n      iszero\n      tag_58\n      jumpi\n        /* \"--CODEGEN--\":29:30   */\n      0x00\n        /* \"--CODEGEN--\":26:27   */\n      dup1\n        /* \"--CODEGEN--\":19:31   */\n      revert\n        /* \"--CODEGEN--\":2:4   */\n    tag_58:\n        /* \"AllContracts-test.sol\":20261:21361  function testFulfillRandomness(bytes32 requestId, uint256 randomness) public {... */\n      dup2\n      add\n      swap1\n      dup1\n      dup1\n      calldataload\n      swap1\n      0x20\n      add\n      swap1\n      swap3\n      swap2\n      swap1\n      dup1\n      calldataload\n      swap1\n      0x20\n      add\n      swap1\n      swap3\n      swap2\n      swap1\n      pop\n      pop\n      pop\n      tag_59\n      jump\t// in\n    tag_57:\n      stop\n        /* \"AllContracts-test.sol\":6323:6341  uint public maxBet */\n    tag_6:\n      callvalue\n        /* \"--CODEGEN--\":8:17   */\n      dup1\n        /* \"--CODEGEN--\":5:7   */\n      iszero\n      tag_60\n      jumpi\n        /* \"--CODEGEN--\":30:31   */\n      0x00\n        /* \"--CODEGEN--\":27:28   */\n      dup1\n        /* \"--CODEGEN--\":20:32   */\n      revert\n        /* \"--CODEGEN--\":5:7   */\n    tag_60:\n        /* \"AllContracts-test.sol\":6323:6341  uint public maxBet */\n      pop\n      tag_61\n      tag_62\n      jump\t// in\n    tag_61:\n      mload(0x40)\n      dup1\n      dup3\n      dup2\n      mstore\n      0x20\n      add\n      swap2\n      pop\n      pop\n      mload(0x40)\n      dup1\n      swap2\n      sub\n      swap1\n      return\n        /* \"AllContracts-test.sol\":6298:6317  uint public maxPick */\n    tag_7:\n      callvalue\n        /* \"--CODEGEN--\":8:17   */\n      dup1\n        /* \"--CODEGEN--\":5:7   */\n      iszero\n      tag_63\n      jumpi\n        /* \"--CODEGEN--\":30:31   */\n      0x00\n        /* \"--CODEGEN--\":27:28   */\n      dup1\n        /* \"--CODEGEN--\":20:32   */\n      revert\n        /* \"--CODEGEN--\":5:7   */\n    tag_63:\n        /* \"AllContracts-test.sol\":6298:6317  uint public maxPick */\n      pop\n      tag_64\n      tag_65\n      jump\t// in\n    tag_64:\n      mload(0x40)\n      dup1\n      dup3\n      dup2\n      mstore\n      0x20\n      add\n      swap2\n      pop\n      pop\n      mload(0x40)\n      dup1\n      swap2\n      sub\n      swap1\n      return\n        /* \"AllContracts-test.sol\":17966:18088  function setPayoutAddress(address payable _payoutAddress) public onlyOwner {... */\n    tag_8:\n      callvalue\n        /* \"--CODEGEN--\":8:17   */\n      dup1\n        /* \"--CODEGEN--\":5:7   */\n      iszero\n      tag_66\n      jumpi\n        /* \"--CODEGEN--\":30:31   */\n      0x00\n        /* \"--CODEGEN--\":27:28   */\n      dup1\n        /* \"--CODEGEN--\":20:32   */\n      revert\n        /* \"--CODEGEN--\":5:7   */\n    tag_66:\n        /* \"AllContracts-test.sol\":17966:18088  function setPayoutAddress(address payable _payoutAddress) public onlyOwner {... */\n      pop\n      tag_67\n      0x04\n      dup1\n      calldatasize\n      sub\n        /* \"--CODEGEN--\":13:15   */\n      0x20\n        /* \"--CODEGEN--\":8:11   */\n      dup2\n        /* \"--CODEGEN--\":5:16   */\n      lt\n        /* \"--CODEGEN--\":2:4   */\n      iszero\n      tag_68\n      jumpi\n        /* \"--CODEGEN--\":29:30   */\n      0x00\n        /* \"--CODEGEN--\":26:27   */\n      dup1\n        /* \"--CODEGEN--\":19:31   */\n      revert\n        /* \"--CODEGEN--\":2:4   */\n    tag_68:\n        /* \"AllContracts-test.sol\":17966:18088  function setPayoutAddress(address payable _payoutAddress) public onlyOwner {... */\n      dup2\n      add\n      swap1\n      dup1\n      dup1\n      calldataload\n      0xffffffffffffffffffffffffffffffffffffffff\n      and\n      swap1\n      0x20\n      add\n      swap1\n      swap3\n      swap2\n      swap1\n      pop\n      pop\n      pop\n      tag_69\n      jump\t// in\n    tag_67:\n      stop\n        /* \"AllContracts-test.sol\":6580:6629  mapping(address => bool) public authorizedAddress */\n    tag_9:\n      callvalue\n        /* \"--CODEGEN--\":8:17   */\n      dup1\n        /* \"--CODEGEN--\":5:7   */\n      iszero\n      tag_70\n      jumpi\n        /* \"--CODEGEN--\":30:31   */\n      0x00\n        /* \"--CODEGEN--\":27:28   */\n      dup1\n        /* \"--CODEGEN--\":20:32   */\n      revert\n        /* \"--CODEGEN--\":5:7   */\n    tag_70:\n        /* \"AllContracts-test.sol\":6580:6629  mapping(address => bool) public authorizedAddress */\n      pop\n      tag_71\n      0x04\n      dup1\n      calldatasize\n      sub\n        /* \"--CODEGEN--\":13:15   */\n      0x20\n        /* \"--CODEGEN--\":8:11   */\n      dup2\n        /* \"--CODEGEN--\":5:16   */\n      lt\n        /* \"--CODEGEN--\":2:4   */\n      iszero\n      tag_72\n      jumpi\n        /* \"--CODEGEN--\":29:30   */\n      0x00\n        /* \"--CODEGEN--\":26:27   */\n      dup1\n        /* \"--CODEGEN--\":19:31   */\n      revert\n        /* \"--CODEGEN--\":2:4   */\n    tag_72:\n        /* \"AllContracts-test.sol\":6580:6629  mapping(address => bool) public authorizedAddress */\n      dup2\n      add\n      swap1\n      dup1\n      dup1\n      calldataload\n      0xffffffffffffffffffffffffffffffffffffffff\n      and\n      swap1\n      0x20\n      add\n      swap1\n      swap3\n      swap2\n      swap1\n      pop\n      pop\n      pop\n      tag_73\n      jump\t// in\n    tag_71:\n      mload(0x40)\n      dup1\n      dup3\n      iszero\n      iszero\n      iszero\n      iszero\n      dup2\n      mstore\n      0x20\n      add\n      swap2\n      pop\n      pop\n      mload(0x40)\n      dup1\n      swap2\n      sub\n      swap1\n      return\n        /* \"AllContracts-test.sol\":14408:14572  function getSummary() public view returns(uint, uint, uint, uint) {... */\n    tag_10:\n      callvalue\n        /* \"--CODEGEN--\":8:17   */\n      dup1\n        /* \"--CODEGEN--\":5:7   */\n      iszero\n      tag_74\n      jumpi\n        /* \"--CODEGEN--\":30:31   */\n      0x00\n        /* \"--CODEGEN--\":27:28   */\n      dup1\n        /* \"--CODEGEN--\":20:32   */\n      revert\n        /* \"--CODEGEN--\":5:7   */\n    tag_74:\n        /* \"AllContracts-test.sol\":14408:14572  function getSummary() public view returns(uint, uint, uint, uint) {... */\n      pop\n      tag_75\n      tag_76\n      jump\t// in\n    tag_75:\n      mload(0x40)\n      dup1\n      dup6\n      dup2\n      mstore\n      0x20\n      add\n      dup5\n      dup2\n      mstore\n      0x20\n      add\n      dup4\n      dup2\n      mstore\n      0x20\n      add\n      dup3\n      dup2\n      mstore\n      0x20\n      add\n      swap5\n      pop\n      pop\n      pop\n      pop\n      pop\n      mload(0x40)\n      dup1\n      swap2\n      sub\n      swap1\n      return\n        /* \"AllContracts-test.sol\":17094:17212  function setVRFCoordinator(address _vrfCoordinator) public onlyOwner {... */\n    tag_11:\n      callvalue\n        /* \"--CODEGEN--\":8:17   */\n      dup1\n        /* \"--CODEGEN--\":5:7   */\n      iszero\n      tag_77\n      jumpi\n        /* \"--CODEGEN--\":30:31   */\n      0x00\n        /* \"--CODEGEN--\":27:28   */\n      dup1\n        /* \"--CODEGEN--\":20:32   */\n      revert\n        /* \"--CODEGEN--\":5:7   */\n    tag_77:\n        /* \"AllContracts-test.sol\":17094:17212  function setVRFCoordinator(address _vrfCoordinator) public onlyOwner {... */\n      pop\n      tag_78\n      0x04\n      dup1\n      calldatasize\n      sub\n        /* \"--CODEGEN--\":13:15   */\n      0x20\n        /* \"--CODEGEN--\":8:11   */\n      dup2\n        /* \"--CODEGEN--\":5:16   */\n      lt\n        /* \"--CODEGEN--\":2:4   */\n      iszero\n      tag_79\n      jumpi\n        /* \"--CODEGEN--\":29:30   */\n      0x00\n        /* \"--CODEGEN--\":26:27   */\n      dup1\n        /* \"--CODEGEN--\":19:31   */\n      revert\n        /* \"--CODEGEN--\":2:4   */\n    tag_79:\n        /* \"AllContracts-test.sol\":17094:17212  function setVRFCoordinator(address _vrfCoordinator) public onlyOwner {... */\n      dup2\n      add\n      swap1\n      dup1\n      dup1\n      calldataload\n      0xffffffffffffffffffffffffffffffffffffffff\n      and\n      swap1\n      0x20\n      add\n      swap1\n      swap3\n      swap2\n      swap1\n      pop\n      pop\n      pop\n      tag_80\n      jump\t// in\n    tag_78:\n      stop\n        /* \"AllContracts-test.sol\":8068:8172  function getLinkBalance() public view returns(uint){... */\n    tag_12:\n      callvalue\n        /* \"--CODEGEN--\":8:17   */\n      dup1\n        /* \"--CODEGEN--\":5:7   */\n      iszero\n      tag_81\n      jumpi\n        /* \"--CODEGEN--\":30:31   */\n      0x00\n        /* \"--CODEGEN--\":27:28   */\n      dup1\n        /* \"--CODEGEN--\":20:32   */\n      revert\n        /* \"--CODEGEN--\":5:7   */\n    tag_81:\n        /* \"AllContracts-test.sol\":8068:8172  function getLinkBalance() public view returns(uint){... */\n      pop\n      tag_82\n      tag_83\n      jump\t// in\n    tag_82:\n      mload(0x40)\n      dup1\n      dup3\n      dup2\n      mstore\n      0x20\n      add\n      swap2\n      pop\n      pop\n      mload(0x40)\n      dup1\n      swap2\n      sub\n      swap1\n      return\n        /* \"AllContracts-test.sol\":6466:6502  address payable public payoutAddress */\n    tag_13:\n      callvalue\n        /* \"--CODEGEN--\":8:17   */\n      dup1\n        /* \"--CODEGEN--\":5:7   */\n      iszero\n      tag_84\n      jumpi\n        /* \"--CODEGEN--\":30:31   */\n      0x00\n        /* \"--CODEGEN--\":27:28   */\n      dup1\n        /* \"--CODEGEN--\":20:32   */\n      revert\n        /* \"--CODEGEN--\":5:7   */\n    tag_84:\n        /* \"AllContracts-test.sol\":6466:6502  address payable public payoutAddress */\n      pop\n      tag_85\n      tag_86\n      jump\t// in\n    tag_85:\n      mload(0x40)\n      dup1\n      dup3\n      0xffffffffffffffffffffffffffffffffffffffff\n      and\n      0xffffffffffffffffffffffffffffffffffffffff\n      and\n      dup2\n      mstore\n      0x20\n      add\n      swap2\n      pop\n      pop\n      mload(0x40)\n      dup1\n      swap2\n      sub\n      swap1\n      return\n        /* \"AllContracts-test.sol\":19926:20255  function testPlayGame(uint gameID, uint256 testRandomNumber) public {... */\n    tag_14:\n      callvalue\n        /* \"--CODEGEN--\":8:17   */\n      dup1\n        /* \"--CODEGEN--\":5:7   */\n      iszero\n      tag_87\n      jumpi\n        /* \"--CODEGEN--\":30:31   */\n      0x00\n        /* \"--CODEGEN--\":27:28   */\n      dup1\n        /* \"--CODEGEN--\":20:32   */\n      revert\n        /* \"--CODEGEN--\":5:7   */\n    tag_87:\n        /* \"AllContracts-test.sol\":19926:20255  function testPlayGame(uint gameID, uint256 testRandomNumber) public {... */\n      pop\n      tag_88\n      0x04\n      dup1\n      calldatasize\n      sub\n        /* \"--CODEGEN--\":13:15   */\n      0x40\n        /* \"--CODEGEN--\":8:11   */\n      dup2\n        /* \"--CODEGEN--\":5:16   */\n      lt\n        /* \"--CODEGEN--\":2:4   */\n      iszero\n      tag_89\n      jumpi\n        /* \"--CODEGEN--\":29:30   */\n      0x00\n        /* \"--CODEGEN--\":26:27   */\n      dup1\n        /* \"--CODEGEN--\":19:31   */\n      revert\n        /* \"--CODEGEN--\":2:4   */\n    tag_89:\n        /* \"AllContracts-test.sol\":19926:20255  function testPlayGame(uint gameID, uint256 testRandomNumber) public {... */\n      dup2\n      add\n      swap1\n      dup1\n      dup1\n      calldataload\n      swap1\n      0x20\n      add\n      swap1\n      swap3\n      swap2\n      swap1\n      dup1\n      calldataload\n      swap1\n      0x20\n      add\n      swap1\n      swap3\n      swap2\n      swap1\n      pop\n      pop\n      pop\n      tag_90\n      jump\t// in\n    tag_88:\n      stop\n        /* \"AllContracts-test.sol\":6508:6526  uint public payout */\n    tag_15:\n      callvalue\n        /* \"--CODEGEN--\":8:17   */\n      dup1\n        /* \"--CODEGEN--\":5:7   */\n      iszero\n      tag_91\n      jumpi\n        /* \"--CODEGEN--\":30:31   */\n      0x00\n        /* \"--CODEGEN--\":27:28   */\n      dup1\n        /* \"--CODEGEN--\":20:32   */\n      revert\n        /* \"--CODEGEN--\":5:7   */\n    tag_91:\n        /* \"AllContracts-test.sol\":6508:6526  uint public payout */\n      pop\n      tag_92\n      tag_93\n      jump\t// in\n    tag_92:\n      mload(0x40)\n      dup1\n      dup3\n      dup2\n      mstore\n      0x20\n      add\n      swap2\n      pop\n      pop\n      mload(0x40)\n      dup1\n      swap2\n      sub\n      swap1\n      return\n        /* \"AllContracts-test.sol\":6371:6396  uint public _unplayedBets */\n    tag_16:\n      callvalue\n        /* \"--CODEGEN--\":8:17   */\n      dup1\n        /* \"--CODEGEN--\":5:7   */\n      iszero\n      tag_94\n      jumpi\n        /* \"--CODEGEN--\":30:31   */\n      0x00\n        /* \"--CODEGEN--\":27:28   */\n      dup1\n        /* \"--CODEGEN--\":20:32   */\n      revert\n        /* \"--CODEGEN--\":5:7   */\n    tag_94:\n        /* \"AllContracts-test.sol\":6371:6396  uint public _unplayedBets */\n      pop\n      tag_95\n      tag_96\n      jump\t// in\n    tag_95:\n      mload(0x40)\n      dup1\n      dup3\n      dup2\n      mstore\n      0x20\n      add\n      swap2\n      pop\n      pop\n      mload(0x40)\n      dup1\n      swap2\n      sub\n      swap1\n      return\n        /* \"AllContracts-test.sol\":1550:1695  function renounceOwnership() public virtual onlyOwner {... */\n    tag_17:\n      callvalue\n        /* \"--CODEGEN--\":8:17   */\n      dup1\n        /* \"--CODEGEN--\":5:7   */\n      iszero\n      tag_97\n      jumpi\n        /* \"--CODEGEN--\":30:31   */\n      0x00\n        /* \"--CODEGEN--\":27:28   */\n      dup1\n        /* \"--CODEGEN--\":20:32   */\n      revert\n        /* \"--CODEGEN--\":5:7   */\n    tag_97:\n        /* \"AllContracts-test.sol\":1550:1695  function renounceOwnership() public virtual onlyOwner {... */\n      pop\n      tag_98\n      tag_99\n      jump\t// in\n    tag_98:\n      stop\n        /* \"AllContracts-test.sol\":16480:16590  function withdrawLink(uint amount) public onlyAuthorized {... */\n    tag_18:\n      callvalue\n        /* \"--CODEGEN--\":8:17   */\n      dup1\n        /* \"--CODEGEN--\":5:7   */\n      iszero\n      tag_100\n      jumpi\n        /* \"--CODEGEN--\":30:31   */\n      0x00\n        /* \"--CODEGEN--\":27:28   */\n      dup1\n        /* \"--CODEGEN--\":20:32   */\n      revert\n        /* \"--CODEGEN--\":5:7   */\n    tag_100:\n        /* \"AllContracts-test.sol\":16480:16590  function withdrawLink(uint amount) public onlyAuthorized {... */\n      pop\n      tag_101\n      0x04\n      dup1\n      calldatasize\n      sub\n        /* \"--CODEGEN--\":13:15   */\n      0x20\n        /* \"--CODEGEN--\":8:11   */\n      dup2\n        /* \"--CODEGEN--\":5:16   */\n      lt\n        /* \"--CODEGEN--\":2:4   */\n      iszero\n      tag_102\n      jumpi\n        /* \"--CODEGEN--\":29:30   */\n      0x00\n        /* \"--CODEGEN--\":26:27   */\n      dup1\n        /* \"--CODEGEN--\":19:31   */\n      revert\n        /* \"--CODEGEN--\":2:4   */\n    tag_102:\n        /* \"AllContracts-test.sol\":16480:16590  function withdrawLink(uint amount) public onlyAuthorized {... */\n      dup2\n      add\n      swap1\n      dup1\n      dup1\n      calldataload\n      swap1\n      0x20\n      add\n      swap1\n      swap3\n      swap2\n      swap1\n      pop\n      pop\n      pop\n      tag_103\n      jump\t// in\n    tag_101:\n      stop\n        /* \"AllContracts-test.sol\":927:1004  function owner() public view returns (address) {... */\n    tag_19:\n      callvalue\n        /* \"--CODEGEN--\":8:17   */\n      dup1\n        /* \"--CODEGEN--\":5:7   */\n      iszero\n      tag_104\n      jumpi\n        /* \"--CODEGEN--\":30:31   */\n      0x00\n        /* \"--CODEGEN--\":27:28   */\n      dup1\n        /* \"--CODEGEN--\":20:32   */\n      revert\n        /* \"--CODEGEN--\":5:7   */\n    tag_104:\n        /* \"AllContracts-test.sol\":927:1004  function owner() public view returns (address) {... */\n      pop\n      tag_105\n      tag_106\n      jump\t// in\n    tag_105:\n      mload(0x40)\n      dup1\n      dup3\n      0xffffffffffffffffffffffffffffffffffffffff\n      and\n      0xffffffffffffffffffffffffffffffffffffffff\n      and\n      dup2\n      mstore\n      0x20\n      add\n      swap2\n      pop\n      pop\n      mload(0x40)\n      dup1\n      swap2\n      sub\n      swap1\n      return\n        /* \"AllContracts-test.sol\":5522:5729  function rawFulfillRandomness(bytes32 requestId, uint256 randomness) external {... */\n    tag_20:\n      callvalue\n        /* \"--CODEGEN--\":8:17   */\n      dup1\n        /* \"--CODEGEN--\":5:7   */\n      iszero\n      tag_107\n      jumpi\n        /* \"--CODEGEN--\":30:31   */\n      0x00\n        /* \"--CODEGEN--\":27:28   */\n      dup1\n        /* \"--CODEGEN--\":20:32   */\n      revert\n        /* \"--CODEGEN--\":5:7   */\n    tag_107:\n        /* \"AllContracts-test.sol\":5522:5729  function rawFulfillRandomness(bytes32 requestId, uint256 randomness) external {... */\n      pop\n      tag_108\n      0x04\n      dup1\n      calldatasize\n      sub\n        /* \"--CODEGEN--\":13:15   */\n      0x40\n        /* \"--CODEGEN--\":8:11   */\n      dup2\n        /* \"--CODEGEN--\":5:16   */\n      lt\n        /* \"--CODEGEN--\":2:4   */\n      iszero\n      tag_109\n      jumpi\n        /* \"--CODEGEN--\":29:30   */\n      0x00\n        /* \"--CODEGEN--\":26:27   */\n      dup1\n        /* \"--CODEGEN--\":19:31   */\n      revert\n        /* \"--CODEGEN--\":2:4   */\n    tag_109:\n        /* \"AllContracts-test.sol\":5522:5729  function rawFulfillRandomness(bytes32 requestId, uint256 randomness) external {... */\n      dup2\n      add\n      swap1\n      dup1\n      dup1\n      calldataload\n      swap1\n      0x20\n      add\n      swap1\n      swap3\n      swap2\n      swap1\n      dup1\n      calldataload\n      swap1\n      0x20\n      add\n      swap1\n      swap3\n      swap2\n      swap1\n      pop\n      pop\n      pop\n      tag_110\n      jump\t// in\n    tag_108:\n      stop\n        /* \"AllContracts-test.sol\":15805:16030  function allowGasFreeBet(address[] memory userAddresses, bool allowed) public onlyAuthorized{... */\n    tag_21:\n      callvalue\n        /* \"--CODEGEN--\":8:17   */\n      dup1\n        /* \"--CODEGEN--\":5:7   */\n      iszero\n      tag_111\n      jumpi\n        /* \"--CODEGEN--\":30:31   */\n      0x00\n        /* \"--CODEGEN--\":27:28   */\n      dup1\n        /* \"--CODEGEN--\":20:32   */\n      revert\n        /* \"--CODEGEN--\":5:7   */\n    tag_111:\n        /* \"AllContracts-test.sol\":15805:16030  function allowGasFreeBet(address[] memory userAddresses, bool allowed) public onlyAuthorized{... */\n      pop\n      tag_112\n      0x04\n      dup1\n      calldatasize\n      sub\n        /* \"--CODEGEN--\":13:15   */\n      0x40\n        /* \"--CODEGEN--\":8:11   */\n      dup2\n        /* \"--CODEGEN--\":5:16   */\n      lt\n        /* \"--CODEGEN--\":2:4   */\n      iszero\n      tag_113\n      jumpi\n        /* \"--CODEGEN--\":29:30   */\n      0x00\n        /* \"--CODEGEN--\":26:27   */\n      dup1\n        /* \"--CODEGEN--\":19:31   */\n      revert\n        /* \"--CODEGEN--\":2:4   */\n    tag_113:\n        /* \"AllContracts-test.sol\":15805:16030  function allowGasFreeBet(address[] memory userAddresses, bool allowed) public onlyAuthorized{... */\n      dup2\n      add\n      swap1\n      dup1\n      dup1\n      calldataload\n      swap1\n      0x20\n      add\n      swap1\n        /* \"--CODEGEN--\":21:32   */\n      0x0100000000\n        /* \"--CODEGEN--\":8:19   */\n      dup2\n        /* \"--CODEGEN--\":5:33   */\n      gt\n        /* \"--CODEGEN--\":2:4   */\n      iszero\n      tag_114\n      jumpi\n        /* \"--CODEGEN--\":46:47   */\n      0x00\n        /* \"--CODEGEN--\":43:44   */\n      dup1\n        /* \"--CODEGEN--\":36:48   */\n      revert\n        /* \"--CODEGEN--\":2:4   */\n    tag_114:\n        /* \"AllContracts-test.sol\":15805:16030  function allowGasFreeBet(address[] memory userAddresses, bool allowed) public onlyAuthorized{... */\n      dup3\n      add\n        /* \"--CODEGEN--\":35:44   */\n      dup4\n        /* \"--CODEGEN--\":28:32   */\n      0x20\n        /* \"--CODEGEN--\":12:26   */\n      dup3\n        /* \"--CODEGEN--\":8:33   */\n      add\n        /* \"--CODEGEN--\":5:45   */\n      gt\n        /* \"--CODEGEN--\":2:4   */\n      iszero\n      tag_115\n      jumpi\n        /* \"--CODEGEN--\":58:59   */\n      0x00\n        /* \"--CODEGEN--\":55:56   */\n      dup1\n        /* \"--CODEGEN--\":48:60   */\n      revert\n        /* \"--CODEGEN--\":2:4   */\n    tag_115:\n        /* \"AllContracts-test.sol\":15805:16030  function allowGasFreeBet(address[] memory userAddresses, bool allowed) public onlyAuthorized{... */\n      dup1\n      calldataload\n      swap1\n      0x20\n      add\n      swap2\n        /* \"--CODEGEN--\":101:110   */\n      dup5\n        /* \"--CODEGEN--\":95:97   */\n      0x20\n        /* \"--CODEGEN--\":81:93   */\n      dup4\n        /* \"--CODEGEN--\":77:98   */\n      mul\n        /* \"--CODEGEN--\":67:75   */\n      dup5\n        /* \"--CODEGEN--\":63:99   */\n      add\n        /* \"--CODEGEN--\":60:111   */\n      gt\n        /* \"--CODEGEN--\":39:50   */\n      0x0100000000\n        /* \"--CODEGEN--\":25:37   */\n      dup4\n        /* \"--CODEGEN--\":22:51   */\n      gt\n        /* \"--CODEGEN--\":11:119   */\n      or\n        /* \"--CODEGEN--\":8:10   */\n      iszero\n      tag_116\n      jumpi\n        /* \"--CODEGEN--\":132:133   */\n      0x00\n        /* \"--CODEGEN--\":129:130   */\n      dup1\n        /* \"--CODEGEN--\":122:134   */\n      revert\n        /* \"--CODEGEN--\":8:10   */\n    tag_116:\n        /* \"AllContracts-test.sol\":15805:16030  function allowGasFreeBet(address[] memory userAddresses, bool allowed) public onlyAuthorized{... */\n      swap2\n      swap1\n      dup1\n      dup1\n      0x20\n      mul\n      0x20\n      add\n      mload(0x40)\n      swap1\n      dup2\n      add\n      0x40\n      mstore\n      dup1\n      swap4\n      swap3\n      swap2\n      swap1\n      dup2\n      dup2\n      mstore\n      0x20\n      add\n      dup4\n      dup4\n      0x20\n      mul\n        /* \"--CODEGEN--\":30:33   */\n      dup1\n        /* \"--CODEGEN--\":22:28   */\n      dup3\n        /* \"--CODEGEN--\":14:20   */\n      dup5\n        /* \"--CODEGEN--\":1:34   */\n      calldatacopy\n        /* \"--CODEGEN--\":99:100   */\n      0x00\n        /* \"--CODEGEN--\":93:96   */\n      dup2\n        /* \"--CODEGEN--\":85:91   */\n      dup5\n        /* \"--CODEGEN--\":81:97   */\n      add\n        /* \"--CODEGEN--\":74:101   */\n      mstore\n        /* \"--CODEGEN--\":137:141   */\n      0x1f\n        /* \"--CODEGEN--\":133:142   */\n      not\n        /* \"--CODEGEN--\":126:130   */\n      0x1f\n        /* \"--CODEGEN--\":121:124   */\n      dup3\n        /* \"--CODEGEN--\":117:131   */\n      add\n        /* \"--CODEGEN--\":113:143   */\n      and\n        /* \"--CODEGEN--\":106:143   */\n      swap1\n      pop\n        /* \"--CODEGEN--\":169:172   */\n      dup1\n        /* \"--CODEGEN--\":161:167   */\n      dup4\n        /* \"--CODEGEN--\":157:173   */\n      add\n        /* \"--CODEGEN--\":147:173   */\n      swap3\n      pop\n        /* \"AllContracts-test.sol\":15805:16030  function allowGasFreeBet(address[] memory userAddresses, bool allowed) public onlyAuthorized{... */\n      pop\n      pop\n      pop\n      pop\n      pop\n      pop\n      swap2\n      swap3\n      swap2\n      swap3\n      swap1\n      dup1\n      calldataload\n      iszero\n      iszero\n      swap1\n      0x20\n      add\n      swap1\n      swap3\n      swap2\n      swap1\n      pop\n      pop\n      pop\n      tag_117\n      jump\t// in\n    tag_112:\n      stop\n        /* \"AllContracts-test.sol\":6347:6365  uint public minBet */\n    tag_22:\n      callvalue\n        /* \"--CODEGEN--\":8:17   */\n      dup1\n        /* \"--CODEGEN--\":5:7   */\n      iszero\n      tag_118\n      jumpi\n        /* \"--CODEGEN--\":30:31   */\n      0x00\n        /* \"--CODEGEN--\":27:28   */\n      dup1\n        /* \"--CODEGEN--\":20:32   */\n      revert\n        /* \"--CODEGEN--\":5:7   */\n    tag_118:\n        /* \"AllContracts-test.sol\":6347:6365  uint public minBet */\n      pop\n      tag_119\n      tag_120\n      jump\t// in\n    tag_119:\n      mload(0x40)\n      dup1\n      dup3\n      dup2\n      mstore\n      0x20\n      add\n      swap2\n      pop\n      pop\n      mload(0x40)\n      dup1\n      swap2\n      sub\n      swap1\n      return\n        /* \"AllContracts-test.sol\":17373:17463  function setKeyHash(bytes32 _keyHash) public onlyOwner {... */\n    tag_23:\n      callvalue\n        /* \"--CODEGEN--\":8:17   */\n      dup1\n        /* \"--CODEGEN--\":5:7   */\n      iszero\n      tag_121\n      jumpi\n        /* \"--CODEGEN--\":30:31   */\n      0x00\n        /* \"--CODEGEN--\":27:28   */\n      dup1\n        /* \"--CODEGEN--\":20:32   */\n      revert\n        /* \"--CODEGEN--\":5:7   */\n    tag_121:\n        /* \"AllContracts-test.sol\":17373:17463  function setKeyHash(bytes32 _keyHash) public onlyOwner {... */\n      pop\n      tag_122\n      0x04\n      dup1\n      calldatasize\n      sub\n        /* \"--CODEGEN--\":13:15   */\n      0x20\n        /* \"--CODEGEN--\":8:11   */\n      dup2\n        /* \"--CODEGEN--\":5:16   */\n      lt\n        /* \"--CODEGEN--\":2:4   */\n      iszero\n      tag_123\n      jumpi\n        /* \"--CODEGEN--\":29:30   */\n      0x00\n        /* \"--CODEGEN--\":26:27   */\n      dup1\n        /* \"--CODEGEN--\":19:31   */\n      revert\n        /* \"--CODEGEN--\":2:4   */\n    tag_123:\n        /* \"AllContracts-test.sol\":17373:17463  function setKeyHash(bytes32 _keyHash) public onlyOwner {... */\n      dup2\n      add\n      swap1\n      dup1\n      dup1\n      calldataload\n      swap1\n      0x20\n      add\n      swap1\n      swap3\n      swap2\n      swap1\n      pop\n      pop\n      pop\n      tag_124\n      jump\t// in\n    tag_122:\n      stop\n        /* \"AllContracts-test.sol\":5307:5374  mapping(bytes32 /* keyHash */ => uint256 /* nonce */) public nonces */\n    tag_24:\n      callvalue\n        /* \"--CODEGEN--\":8:17   */\n      dup1\n        /* \"--CODEGEN--\":5:7   */\n      iszero\n      tag_125\n      jumpi\n        /* \"--CODEGEN--\":30:31   */\n      0x00\n        /* \"--CODEGEN--\":27:28   */\n      dup1\n        /* \"--CODEGEN--\":20:32   */\n      revert\n        /* \"--CODEGEN--\":5:7   */\n    tag_125:\n        /* \"AllContracts-test.sol\":5307:5374  mapping(bytes32 /* keyHash */ => uint256 /* nonce */) public nonces */\n      pop\n      tag_126\n      0x04\n      dup1\n      calldatasize\n      sub\n        /* \"--CODEGEN--\":13:15   */\n      0x20\n        /* \"--CODEGEN--\":8:11   */\n      dup2\n        /* \"--CODEGEN--\":5:16   */\n      lt\n        /* \"--CODEGEN--\":2:4   */\n      iszero\n      tag_127\n      jumpi\n        /* \"--CODEGEN--\":29:30   */\n      0x00\n        /* \"--CODEGEN--\":26:27   */\n      dup1\n        /* \"--CODEGEN--\":19:31   */\n      revert\n        /* \"--CODEGEN--\":2:4   */\n    tag_127:\n        /* \"AllContracts-test.sol\":5307:5374  mapping(bytes32 /* keyHash */ => uint256 /* nonce */) public nonces */\n      dup2\n      add\n      swap1\n      dup1\n      dup1\n      calldataload\n      swap1\n      0x20\n      add\n      swap1\n      swap3\n      swap2\n      swap1\n      pop\n      pop\n      pop\n      tag_128\n      jump\t// in\n    tag_126:\n      mload(0x40)\n      dup1\n      dup3\n      dup2\n      mstore\n      0x20\n      add\n      swap2\n      pop\n      pop\n      mload(0x40)\n      dup1\n      swap2\n      sub\n      swap1\n      return\n        /* \"AllContracts-test.sol\":17653:17765  function setLINK(address _linkAddress) public onlyOwner {... */\n    tag_25:\n      callvalue\n        /* \"--CODEGEN--\":8:17   */\n      dup1\n        /* \"--CODEGEN--\":5:7   */\n      iszero\n      tag_129\n      jumpi\n        /* \"--CODEGEN--\":30:31   */\n      0x00\n        /* \"--CODEGEN--\":27:28   */\n      dup1\n        /* \"--CODEGEN--\":20:32   */\n      revert\n        /* \"--CODEGEN--\":5:7   */\n    tag_129:\n        /* \"AllContracts-test.sol\":17653:17765  function setLINK(address _linkAddress) public onlyOwner {... */\n      pop\n      tag_130\n      0x04\n      dup1\n      calldatasize\n      sub\n        /* \"--CODEGEN--\":13:15   */\n      0x20\n        /* \"--CODEGEN--\":8:11   */\n      dup2\n        /* \"--CODEGEN--\":5:16   */\n      lt\n        /* \"--CODEGEN--\":2:4   */\n      iszero\n      tag_131\n      jumpi\n        /* \"--CODEGEN--\":29:30   */\n      0x00\n        /* \"--CODEGEN--\":26:27   */\n      dup1\n        /* \"--CODEGEN--\":19:31   */\n      revert\n        /* \"--CODEGEN--\":2:4   */\n    tag_131:\n        /* \"AllContracts-test.sol\":17653:17765  function setLINK(address _linkAddress) public onlyOwner {... */\n      dup2\n      add\n      swap1\n      dup1\n      dup1\n      calldataload\n      0xffffffffffffffffffffffffffffffffffffffff\n      and\n      swap1\n      0x20\n      add\n      swap1\n      swap3\n      swap2\n      swap1\n      pop\n      pop\n      pop\n      tag_132\n      jump\t// in\n    tag_130:\n      stop\n        /* \"AllContracts-test.sol\":16784:16926  function setAuthorizedUser(address userAddress, bool authorized) public onlyOwner {... */\n    tag_26:\n      callvalue\n        /* \"--CODEGEN--\":8:17   */\n      dup1\n        /* \"--CODEGEN--\":5:7   */\n      iszero\n      tag_133\n      jumpi\n        /* \"--CODEGEN--\":30:31   */\n      0x00\n        /* \"--CODEGEN--\":27:28   */\n      dup1\n        /* \"--CODEGEN--\":20:32   */\n      revert\n        /* \"--CODEGEN--\":5:7   */\n    tag_133:\n        /* \"AllContracts-test.sol\":16784:16926  function setAuthorizedUser(address userAddress, bool authorized) public onlyOwner {... */\n      pop\n      tag_134\n      0x04\n      dup1\n      calldatasize\n      sub\n        /* \"--CODEGEN--\":13:15   */\n      0x40\n        /* \"--CODEGEN--\":8:11   */\n      dup2\n        /* \"--CODEGEN--\":5:16   */\n      lt\n        /* \"--CODEGEN--\":2:4   */\n      iszero\n      tag_135\n      jumpi\n        /* \"--CODEGEN--\":29:30   */\n      0x00\n        /* \"--CODEGEN--\":26:27   */\n      dup1\n        /* \"--CODEGEN--\":19:31   */\n      revert\n        /* \"--CODEGEN--\":2:4   */\n    tag_135:\n        /* \"AllContracts-test.sol\":16784:16926  function setAuthorizedUser(address userAddress, bool authorized) public onlyOwner {... */\n      dup2\n      add\n      swap1\n      dup1\n      dup1\n      calldataload\n      0xffffffffffffffffffffffffffffffffffffffff\n      and\n      swap1\n      0x20\n      add\n      swap1\n      swap3\n      swap2\n      swap1\n      dup1\n      calldataload\n      iszero\n      iszero\n      swap1\n      0x20\n      add\n      swap1\n      swap3\n      swap2\n      swap1\n      pop\n      pop\n      pop\n      tag_136\n      jump\t// in\n    tag_134:\n      stop\n        /* \"AllContracts-test.sol\":14943:15541  function requestRefund(uint gameID) public{... */\n    tag_27:\n      callvalue\n        /* \"--CODEGEN--\":8:17   */\n      dup1\n        /* \"--CODEGEN--\":5:7   */\n      iszero\n      tag_137\n      jumpi\n        /* \"--CODEGEN--\":30:31   */\n      0x00\n        /* \"--CODEGEN--\":27:28   */\n      dup1\n        /* \"--CODEGEN--\":20:32   */\n      revert\n        /* \"--CODEGEN--\":5:7   */\n    tag_137:\n        /* \"AllContracts-test.sol\":14943:15541  function requestRefund(uint gameID) public{... */\n      pop\n      tag_138\n      0x04\n      dup1\n      calldatasize\n      sub\n        /* \"--CODEGEN--\":13:15   */\n      0x20\n        /* \"--CODEGEN--\":8:11   */\n      dup2\n        /* \"--CODEGEN--\":5:16   */\n      lt\n        /* \"--CODEGEN--\":2:4   */\n      iszero\n      tag_139\n      jumpi\n        /* \"--CODEGEN--\":29:30   */\n      0x00\n        /* \"--CODEGEN--\":26:27   */\n      dup1\n        /* \"--CODEGEN--\":19:31   */\n      revert\n        /* \"--CODEGEN--\":2:4   */\n    tag_139:\n        /* \"AllContracts-test.sol\":14943:15541  function requestRefund(uint gameID) public{... */\n      dup2\n      add\n      swap1\n      dup1\n      dup1\n      calldataload\n      swap1\n      0x20\n      add\n      swap1\n      swap3\n      swap2\n      swap1\n      pop\n      pop\n      pop\n      tag_140\n      jump\t// in\n    tag_138:\n      stop\n        /* \"AllContracts-test.sol\":9040:9669  function placeBetFor(address payable player, uint pick) public payable{... */\n    tag_28:\n      tag_141\n      0x04\n      dup1\n      calldatasize\n      sub\n        /* \"--CODEGEN--\":13:15   */\n      0x40\n        /* \"--CODEGEN--\":8:11   */\n      dup2\n        /* \"--CODEGEN--\":5:16   */\n      lt\n        /* \"--CODEGEN--\":2:4   */\n      iszero\n      tag_142\n      jumpi\n        /* \"--CODEGEN--\":29:30   */\n      0x00\n        /* \"--CODEGEN--\":26:27   */\n      dup1\n        /* \"--CODEGEN--\":19:31   */\n      revert\n        /* \"--CODEGEN--\":2:4   */\n    tag_142:\n        /* \"AllContracts-test.sol\":9040:9669  function placeBetFor(address payable player, uint pick) public payable{... */\n      dup2\n      add\n      swap1\n      dup1\n      dup1\n      calldataload\n      0xffffffffffffffffffffffffffffffffffffffff\n      and\n      swap1\n      0x20\n      add\n      swap1\n      swap3\n      swap2\n      swap1\n      dup1\n      calldataload\n      swap1\n      0x20\n      add\n      swap1\n      swap3\n      swap2\n      swap1\n      pop\n      pop\n      pop\n      tag_143\n      jump\t// in\n    tag_141:\n      stop\n        /* \"AllContracts-test.sol\":6783:6830  mapping(address => uint) public lastGameCreated */\n    tag_29:\n      callvalue\n        /* \"--CODEGEN--\":8:17   */\n      dup1\n        /* \"--CODEGEN--\":5:7   */\n      iszero\n      tag_144\n      jumpi\n        /* \"--CODEGEN--\":30:31   */\n      0x00\n        /* \"--CODEGEN--\":27:28   */\n      dup1\n        /* \"--CODEGEN--\":20:32   */\n      revert\n        /* \"--CODEGEN--\":5:7   */\n    tag_144:\n        /* \"AllContracts-test.sol\":6783:6830  mapping(address => uint) public lastGameCreated */\n      pop\n      tag_145\n      0x04\n      dup1\n      calldatasize\n      sub\n        /* \"--CODEGEN--\":13:15   */\n      0x20\n        /* \"--CODEGEN--\":8:11   */\n      dup2\n        /* \"--CODEGEN--\":5:16   */\n      lt\n        /* \"--CODEGEN--\":2:4   */\n      iszero\n      tag_146\n      jumpi\n        /* \"--CODEGEN--\":29:30   */\n      0x00\n        /* \"--CODEGEN--\":26:27   */\n      dup1\n        /* \"--CODEGEN--\":19:31   */\n      revert\n        /* \"--CODEGEN--\":2:4   */\n    tag_146:\n        /* \"AllContracts-test.sol\":6783:6830  mapping(address => uint) public lastGameCreated */\n      dup2\n      add\n      swap1\n      dup1\n      dup1\n      calldataload\n      0xffffffffffffffffffffffffffffffffffffffff\n      and\n      swap1\n      0x20\n      add\n      swap1\n      swap3\n      swap2\n      swap1\n      pop\n      pop\n      pop\n      tag_147\n      jump\t// in\n    tag_145:\n      mload(0x40)\n      dup1\n      dup3\n      dup2\n      mstore\n      0x20\n      add\n      swap2\n      pop\n      pop\n      mload(0x40)\n      dup1\n      swap2\n      sub\n      swap1\n      return\n        /* \"AllContracts-test.sol\":18423:18745  function closeMachine() public onlyOwner {... */\n    tag_30:\n      callvalue\n        /* \"--CODEGEN--\":8:17   */\n      dup1\n        /* \"--CODEGEN--\":5:7   */\n      iszero\n      tag_148\n      jumpi\n        /* \"--CODEGEN--\":30:31   */\n      0x00\n        /* \"--CODEGEN--\":27:28   */\n      dup1\n        /* \"--CODEGEN--\":20:32   */\n      revert\n        /* \"--CODEGEN--\":5:7   */\n    tag_148:\n        /* \"AllContracts-test.sol\":18423:18745  function closeMachine() public onlyOwner {... */\n      pop\n      tag_149\n      tag_150\n      jump\t// in\n    tag_149:\n      stop\n        /* \"AllContracts-test.sol\":16194:16398  function withdrawEth(uint amount) public onlyAuthorized {... */\n    tag_31:\n      callvalue\n        /* \"--CODEGEN--\":8:17   */\n      dup1\n        /* \"--CODEGEN--\":5:7   */\n      iszero\n      tag_151\n      jumpi\n        /* \"--CODEGEN--\":30:31   */\n      0x00\n        /* \"--CODEGEN--\":27:28   */\n      dup1\n        /* \"--CODEGEN--\":20:32   */\n      revert\n        /* \"--CODEGEN--\":5:7   */\n    tag_151:\n        /* \"AllContracts-test.sol\":16194:16398  function withdrawEth(uint amount) public onlyAuthorized {... */\n      pop\n      tag_152\n      0x04\n      dup1\n      calldatasize\n      sub\n        /* \"--CODEGEN--\":13:15   */\n      0x20\n        /* \"--CODEGEN--\":8:11   */\n      dup2\n        /* \"--CODEGEN--\":5:16   */\n      lt\n        /* \"--CODEGEN--\":2:4   */\n      iszero\n      tag_153\n      jumpi\n        /* \"--CODEGEN--\":29:30   */\n      0x00\n        /* \"--CODEGEN--\":26:27   */\n      dup1\n        /* \"--CODEGEN--\":19:31   */\n      revert\n        /* \"--CODEGEN--\":2:4   */\n    tag_153:\n        /* \"AllContracts-test.sol\":16194:16398  function withdrawEth(uint amount) public onlyAuthorized {... */\n      dup2\n      add\n      swap1\n      dup1\n      dup1\n      calldataload\n      swap1\n      0x20\n      add\n      swap1\n      swap3\n      swap2\n      swap1\n      pop\n      pop\n      pop\n      tag_154\n      jump\t// in\n    tag_152:\n      stop\n        /* \"AllContracts-test.sol\":21367:21616  function testCloseMachine() public onlyOwner {... */\n    tag_32:\n      callvalue\n        /* \"--CODEGEN--\":8:17   */\n      dup1\n        /* \"--CODEGEN--\":5:7   */\n      iszero\n      tag_155\n      jumpi\n        /* \"--CODEGEN--\":30:31   */\n      0x00\n        /* \"--CODEGEN--\":27:28   */\n      dup1\n        /* \"--CODEGEN--\":20:32   */\n      revert\n        /* \"--CODEGEN--\":5:7   */\n    tag_155:\n        /* \"AllContracts-test.sol\":21367:21616  function testCloseMachine() public onlyOwner {... */\n      pop\n      tag_156\n      tag_157\n      jump\t// in\n    tag_156:\n      stop\n        /* \"AllContracts-test.sol\":9936:10742  function safeBetFor(address payable player, uint pick) public payable{... */\n    tag_33:\n      tag_158\n      0x04\n      dup1\n      calldatasize\n      sub\n        /* \"--CODEGEN--\":13:15   */\n      0x40\n        /* \"--CODEGEN--\":8:11   */\n      dup2\n        /* \"--CODEGEN--\":5:16   */\n      lt\n        /* \"--CODEGEN--\":2:4   */\n      iszero\n      tag_159\n      jumpi\n        /* \"--CODEGEN--\":29:30   */\n      0x00\n        /* \"--CODEGEN--\":26:27   */\n      dup1\n        /* \"--CODEGEN--\":19:31   */\n      revert\n        /* \"--CODEGEN--\":2:4   */\n    tag_159:\n        /* \"AllContracts-test.sol\":9936:10742  function safeBetFor(address payable player, uint pick) public payable{... */\n      dup2\n      add\n      swap1\n      dup1\n      dup1\n      calldataload\n      0xffffffffffffffffffffffffffffffffffffffff\n      and\n      swap1\n      0x20\n      add\n      swap1\n      swap3\n      swap2\n      swap1\n      dup1\n      calldataload\n      swap1\n      0x20\n      add\n      swap1\n      swap3\n      swap2\n      swap1\n      pop\n      pop\n      pop\n      tag_160\n      jump\t// in\n    tag_158:\n      stop\n        /* \"AllContracts-test.sol\":19190:19544  function testCreateGame(address payable _player, uint _bet, uint _pick, bool _played, uint _gameID) public {... */\n    tag_34:\n      callvalue\n        /* \"--CODEGEN--\":8:17   */\n      dup1\n        /* \"--CODEGEN--\":5:7   */\n      iszero\n      tag_161\n      jumpi\n        /* \"--CODEGEN--\":30:31   */\n      0x00\n        /* \"--CODEGEN--\":27:28   */\n      dup1\n        /* \"--CODEGEN--\":20:32   */\n      revert\n        /* \"--CODEGEN--\":5:7   */\n    tag_161:\n        /* \"AllContracts-test.sol\":19190:19544  function testCreateGame(address payable _player, uint _bet, uint _pick, bool _played, uint _gameID) public {... */\n      pop\n      tag_162\n      0x04\n      dup1\n      calldatasize\n      sub\n        /* \"--CODEGEN--\":13:16   */\n      0xa0\n        /* \"--CODEGEN--\":8:11   */\n      dup2\n        /* \"--CODEGEN--\":5:17   */\n      lt\n        /* \"--CODEGEN--\":2:4   */\n      iszero\n      tag_163\n      jumpi\n        /* \"--CODEGEN--\":30:31   */\n      0x00\n        /* \"--CODEGEN--\":27:28   */\n      dup1\n        /* \"--CODEGEN--\":20:32   */\n      revert\n        /* \"--CODEGEN--\":2:4   */\n    tag_163:\n        /* \"AllContracts-test.sol\":19190:19544  function testCreateGame(address payable _player, uint _bet, uint _pick, bool _played, uint _gameID) public {... */\n      dup2\n      add\n      swap1\n      dup1\n      dup1\n      calldataload\n      0xffffffffffffffffffffffffffffffffffffffff\n      and\n      swap1\n      0x20\n      add\n      swap1\n      swap3\n      swap2\n      swap1\n      dup1\n      calldataload\n      swap1\n      0x20\n      add\n      swap1\n      swap3\n      swap2\n      swap1\n      dup1\n      calldataload\n      swap1\n      0x20\n      add\n      swap1\n      swap3\n      swap2\n      swap1\n      dup1\n      calldataload\n      iszero\n      iszero\n      swap1\n      0x20\n      add\n      swap1\n      swap3\n      swap2\n      swap1\n      dup1\n      calldataload\n      swap1\n      0x20\n      add\n      swap1\n      swap3\n      swap2\n      swap1\n      pop\n      pop\n      pop\n      tag_164\n      jump\t// in\n    tag_162:\n      stop\n        /* \"AllContracts-test.sol\":6635:6684  mapping(address => bool) public gasFreeBetAllowed */\n    tag_35:\n      callvalue\n        /* \"--CODEGEN--\":8:17   */\n      dup1\n        /* \"--CODEGEN--\":5:7   */\n      iszero\n      tag_165\n      jumpi\n        /* \"--CODEGEN--\":30:31   */\n      0x00\n        /* \"--CODEGEN--\":27:28   */\n      dup1\n        /* \"--CODEGEN--\":20:32   */\n      revert\n        /* \"--CODEGEN--\":5:7   */\n    tag_165:\n        /* \"AllContracts-test.sol\":6635:6684  mapping(address => bool) public gasFreeBetAllowed */\n      pop\n      tag_166\n      0x04\n      dup1\n      calldatasize\n      sub\n        /* \"--CODEGEN--\":13:15   */\n      0x20\n        /* \"--CODEGEN--\":8:11   */\n      dup2\n        /* \"--CODEGEN--\":5:16   */\n      lt\n        /* \"--CODEGEN--\":2:4   */\n      iszero\n      tag_167\n      jumpi\n        /* \"--CODEGEN--\":29:30   */\n      0x00\n        /* \"--CODEGEN--\":26:27   */\n      dup1\n        /* \"--CODEGEN--\":19:31   */\n      revert\n        /* \"--CODEGEN--\":2:4   */\n    tag_167:\n        /* \"AllContracts-test.sol\":6635:6684  mapping(address => bool) public gasFreeBetAllowed */\n      dup2\n      add\n      swap1\n      dup1\n      dup1\n      calldataload\n      0xffffffffffffffffffffffffffffffffffffffff\n      and\n      swap1\n      0x20\n      add\n      swap1\n      swap3\n      swap2\n      swap1\n      pop\n      pop\n      pop\n      tag_168\n      jump\t// in\n    tag_166:\n      mload(0x40)\n      dup1\n      dup3\n      iszero\n      iszero\n      iszero\n      iszero\n      dup2\n      mstore\n      0x20\n      add\n      swap2\n      pop\n      pop\n      mload(0x40)\n      dup1\n      swap2\n      sub\n      swap1\n      return\n        /* \"AllContracts-test.sol\":1844:2084  function transferOwnership(address newOwner) public virtual onlyOwner {... */\n    tag_36:\n      callvalue\n        /* \"--CODEGEN--\":8:17   */\n      dup1\n        /* \"--CODEGEN--\":5:7   */\n      iszero\n      tag_169\n      jumpi\n        /* \"--CODEGEN--\":30:31   */\n      0x00\n        /* \"--CODEGEN--\":27:28   */\n      dup1\n        /* \"--CODEGEN--\":20:32   */\n      revert\n        /* \"--CODEGEN--\":5:7   */\n    tag_169:\n        /* \"AllContracts-test.sol\":1844:2084  function transferOwnership(address newOwner) public virtual onlyOwner {... */\n      pop\n      tag_170\n      0x04\n      dup1\n      calldatasize\n      sub\n        /* \"--CODEGEN--\":13:15   */\n      0x20\n        /* \"--CODEGEN--\":8:11   */\n      dup2\n        /* \"--CODEGEN--\":5:16   */\n      lt\n        /* \"--CODEGEN--\":2:4   */\n      iszero\n      tag_171\n      jumpi\n        /* \"--CODEGEN--\":29:30   */\n      0x00\n        /* \"--CODEGEN--\":26:27   */\n      dup1\n        /* \"--CODEGEN--\":19:31   */\n      revert\n        /* \"--CODEGEN--\":2:4   */\n    tag_171:\n        /* \"AllContracts-test.sol\":1844:2084  function transferOwnership(address newOwner) public virtual onlyOwner {... */\n      dup2\n      add\n      swap1\n      dup1\n      dup1\n      calldataload\n      0xffffffffffffffffffffffffffffffffffffffff\n      and\n      swap1\n      0x20\n      add\n      swap1\n      swap3\n      swap2\n      swap1\n      pop\n      pop\n      pop\n      tag_172\n      jump\t// in\n    tag_170:\n      stop\n        /* \"AllContracts-test.sol\":19010:19093  function replayGame(uint gameID) public onlyOwner {... */\n    tag_37:\n      callvalue\n        /* \"--CODEGEN--\":8:17   */\n      dup1\n        /* \"--CODEGEN--\":5:7   */\n      iszero\n      tag_173\n      jumpi\n        /* \"--CODEGEN--\":30:31   */\n      0x00\n        /* \"--CODEGEN--\":27:28   */\n      dup1\n        /* \"--CODEGEN--\":20:32   */\n      revert\n        /* \"--CODEGEN--\":5:7   */\n    tag_173:\n        /* \"AllContracts-test.sol\":19010:19093  function replayGame(uint gameID) public onlyOwner {... */\n      pop\n      tag_174\n      0x04\n      dup1\n      calldatasize\n      sub\n        /* \"--CODEGEN--\":13:15   */\n      0x20\n        /* \"--CODEGEN--\":8:11   */\n      dup2\n        /* \"--CODEGEN--\":5:16   */\n      lt\n        /* \"--CODEGEN--\":2:4   */\n      iszero\n      tag_175\n      jumpi\n        /* \"--CODEGEN--\":29:30   */\n      0x00\n        /* \"--CODEGEN--\":26:27   */\n      dup1\n        /* \"--CODEGEN--\":19:31   */\n      revert\n        /* \"--CODEGEN--\":2:4   */\n    tag_175:\n        /* \"AllContracts-test.sol\":19010:19093  function replayGame(uint gameID) public onlyOwner {... */\n      dup2\n      add\n      swap1\n      dup1\n      dup1\n      calldataload\n      swap1\n      0x20\n      add\n      swap1\n      swap3\n      swap2\n      swap1\n      pop\n      pop\n      pop\n      tag_176\n      jump\t// in\n    tag_174:\n      stop\n        /* \"AllContracts-test.sol\":19550:19920  function testPlaceBetFor(address payable player, uint pick, uint256 testRandomNumber) public payable {... */\n    tag_38:\n      tag_177\n      0x04\n      dup1\n      calldatasize\n      sub\n        /* \"--CODEGEN--\":13:15   */\n      0x60\n        /* \"--CODEGEN--\":8:11   */\n      dup2\n        /* \"--CODEGEN--\":5:16   */\n      lt\n        /* \"--CODEGEN--\":2:4   */\n      iszero\n      tag_178\n      jumpi\n        /* \"--CODEGEN--\":29:30   */\n      0x00\n        /* \"--CODEGEN--\":26:27   */\n      dup1\n        /* \"--CODEGEN--\":19:31   */\n      revert\n        /* \"--CODEGEN--\":2:4   */\n    tag_178:\n        /* \"AllContracts-test.sol\":19550:19920  function testPlaceBetFor(address payable player, uint pick, uint256 testRandomNumber) public payable {... */\n      dup2\n      add\n      swap1\n      dup1\n      dup1\n      calldataload\n      0xffffffffffffffffffffffffffffffffffffffff\n      and\n      swap1\n      0x20\n      add\n      swap1\n      swap3\n      swap2\n      swap1\n      dup1\n      calldataload\n      swap1\n      0x20\n      add\n      swap1\n      swap3\n      swap2\n      swap1\n      dup1\n      calldataload\n      swap1\n      0x20\n      add\n      swap1\n      swap3\n      swap2\n      swap1\n      pop\n      pop\n      pop\n      tag_179\n      jump\t// in\n    tag_177:\n      stop\n        /* \"AllContracts-test.sol\":8650:8799  function betPayable(uint bet) public view returns(bool){... */\n    tag_51:\n        /* \"AllContracts-test.sol\":8700:8704  bool */\n      0x00\n        /* \"AllContracts-test.sol\":8767:8791  bet.mul(payout).add(bet) */\n      tag_181\n        /* \"AllContracts-test.sol\":8787:8790  bet */\n      dup3\n        /* \"AllContracts-test.sol\":8767:8782  bet.mul(payout) */\n      tag_182\n        /* \"AllContracts-test.sol\":8775:8781  payout */\n      sload(0x17)\n        /* \"AllContracts-test.sol\":8767:8770  bet */\n      dup6\n        /* \"AllContracts-test.sol\":8767:8774  bet.mul */\n      tag_183\n      swap1\n        /* \"AllContracts-test.sol\":8767:8782  bet.mul(payout) */\n      swap2\n      swap1\n      0xffffffff\n      and\n      jump\t// in\n    tag_182:\n        /* \"AllContracts-test.sol\":8767:8786  bet.mul(payout).add */\n      tag_184\n      swap1\n        /* \"AllContracts-test.sol\":8767:8791  bet.mul(payout).add(bet) */\n      swap2\n      swap1\n      0xffffffff\n      and\n      jump\t// in\n    tag_181:\n        /* \"AllContracts-test.sol\":8723:8763  address(this).balance.sub(_unplayedBets) */\n      tag_185\n        /* \"AllContracts-test.sol\":8749:8762  _unplayedBets */\n      sload(0x14)\n        /* \"AllContracts-test.sol\":8723:8744  address(this).balance */\n      selfbalance\n        /* \"AllContracts-test.sol\":8723:8748  address(this).balance.sub */\n      tag_186\n      swap1\n        /* \"AllContracts-test.sol\":8723:8763  address(this).balance.sub(_unplayedBets) */\n      swap2\n      swap1\n      0xffffffff\n      and\n      jump\t// in\n    tag_185:\n        /* \"AllContracts-test.sol\":8723:8791  address(this).balance.sub(_unplayedBets) >= bet.mul(payout).add(bet) */\n      lt\n      iszero\n        /* \"AllContracts-test.sol\":8715:8792  return (address(this).balance.sub(_unplayedBets) >= bet.mul(payout).add(bet)) */\n      swap1\n      pop\n        /* \"AllContracts-test.sol\":8650:8799  function betPayable(uint bet) public view returns(bool){... */\n      swap2\n      swap1\n      pop\n      jump\t// out\n        /* \"AllContracts-test.sol\":6691:6725  mapping(uint => Game) public games */\n    tag_55:\n      mstore(0x20, 0x1a)\n      dup1\n      0x00\n      mstore\n      keccak256(0x00, 0x40)\n      0x00\n      swap2\n      pop\n      swap1\n      pop\n      dup1\n      0x00\n      add\n      sload\n      swap1\n      dup1\n      0x01\n      add\n      0x00\n      swap1\n      sload\n      swap1\n      0x0100\n      exp\n      swap1\n      div\n      0xffffffffffffffffffffffffffffffffffffffff\n      and\n      swap1\n      dup1\n      0x02\n      add\n      sload\n      swap1\n      dup1\n      0x03\n      add\n      sload\n      swap1\n      dup1\n      0x04\n      add\n      sload\n      swap1\n      dup1\n      0x05\n      add\n      0x00\n      swap1\n      sload\n      swap1\n      0x0100\n      exp\n      swap1\n      div\n      0xff\n      and\n      swap1\n      pop\n      dup7\n      jump\t// out\n        /* \"AllContracts-test.sol\":20261:21361  function testFulfillRandomness(bytes32 requestId, uint256 randomness) public {... */\n    tag_59:\n        /* \"AllContracts-test.sol\":20348:20362  Game storage g */\n      0x00\n        /* \"AllContracts-test.sol\":20365:20370  games */\n      0x1a\n        /* \"AllContracts-test.sol\":20365:20396  games[_gameRequests[requestId]] */\n      0x00\n        /* \"AllContracts-test.sol\":20371:20384  _gameRequests */\n      0x1b\n        /* \"AllContracts-test.sol\":20371:20395  _gameRequests[requestId] */\n      0x00\n        /* \"AllContracts-test.sol\":20385:20394  requestId */\n      dup7\n        /* \"AllContracts-test.sol\":20371:20395  _gameRequests[requestId] */\n      dup2\n      mstore\n      0x20\n      add\n      swap1\n      dup2\n      mstore\n      0x20\n      add\n      0x00\n      keccak256\n      sload\n        /* \"AllContracts-test.sol\":20365:20396  games[_gameRequests[requestId]] */\n      dup2\n      mstore\n      0x20\n      add\n      swap1\n      dup2\n      mstore\n      0x20\n      add\n      0x00\n      keccak256\n        /* \"AllContracts-test.sol\":20348:20396  Game storage g = games[_gameRequests[requestId]] */\n      swap1\n      pop\n        /* \"AllContracts-test.sol\":20416:20417  0 */\n      0x00\n        /* \"AllContracts-test.sol\":20409:20410  g */\n      dup2\n        /* \"AllContracts-test.sol\":20409:20413  g.id */\n      0x00\n      add\n      sload\n        /* \"AllContracts-test.sol\":20409:20417  g.id > 0 */\n      gt\n        /* \"AllContracts-test.sol\":20409:20438  g.id > 0 && g.played == false */\n      dup1\n      iszero\n      tag_188\n      jumpi\n      pop\n        /* \"AllContracts-test.sol\":20433:20438  false */\n      0x00\n        /* \"AllContracts-test.sol\":20421:20438  g.played == false */\n      iszero\n      iszero\n        /* \"AllContracts-test.sol\":20421:20422  g */\n      dup2\n        /* \"AllContracts-test.sol\":20421:20429  g.played */\n      0x05\n      add\n      0x00\n      swap1\n      sload\n      swap1\n      0x0100\n      exp\n      swap1\n      div\n      0xff\n      and\n        /* \"AllContracts-test.sol\":20421:20438  g.played == false */\n      iszero\n      iszero\n      eq\n        /* \"AllContracts-test.sol\":20409:20438  g.id > 0 && g.played == false */\n    tag_188:\n        /* \"AllContracts-test.sol\":20406:21155  if(g.id > 0 && g.played == false){... */\n      iszero\n      tag_189\n      jumpi\n        /* \"AllContracts-test.sol\":20464:20470  maxBet */\n      sload(0x12)\n        /* \"AllContracts-test.sol\":20456:20457  g */\n      dup2\n        /* \"AllContracts-test.sol\":20456:20461  g.bet */\n      0x02\n      add\n      sload\n        /* \"AllContracts-test.sol\":20456:20470  g.bet > maxBet */\n      gt\n        /* \"AllContracts-test.sol\":20453:20519  if(g.bet > maxBet) {... */\n      iszero\n      tag_190\n      jumpi\n        /* \"AllContracts-test.sol\":20498:20504  maxBet */\n      sload(0x12)\n        /* \"AllContracts-test.sol\":20490:20491  g */\n      dup2\n        /* \"AllContracts-test.sol\":20490:20495  g.bet */\n      0x02\n      add\n        /* \"AllContracts-test.sol\":20490:20504  g.bet = maxBet */\n      dup2\n      swap1\n      sstore\n      pop\n        /* \"AllContracts-test.sol\":20453:20519  if(g.bet > maxBet) {... */\n    tag_190:\n        /* \"AllContracts-test.sol\":20532:20548  uint totalPayout */\n      0x00\n        /* \"AllContracts-test.sol\":20551:20579  g.bet.mul(payout).add(g.bet) */\n      tag_191\n        /* \"AllContracts-test.sol\":20573:20574  g */\n      dup3\n        /* \"AllContracts-test.sol\":20573:20578  g.bet */\n      0x02\n      add\n      sload\n        /* \"AllContracts-test.sol\":20551:20568  g.bet.mul(payout) */\n      tag_192\n        /* \"AllContracts-test.sol\":20561:20567  payout */\n      sload(0x17)\n        /* \"AllContracts-test.sol\":20551:20552  g */\n      dup6\n        /* \"AllContracts-test.sol\":20551:20556  g.bet */\n      0x02\n      add\n      sload\n        /* \"AllContracts-test.sol\":20551:20560  g.bet.mul */\n      tag_183\n      swap1\n        /* \"AllContracts-test.sol\":20551:20568  g.bet.mul(payout) */\n      swap2\n      swap1\n      0xffffffff\n      and\n      jump\t// in\n    tag_192:\n        /* \"AllContracts-test.sol\":20551:20572  g.bet.mul(payout).add */\n      tag_184\n      swap1\n        /* \"AllContracts-test.sol\":20551:20579  g.bet.mul(payout).add(g.bet) */\n      swap2\n      swap1\n      0xffffffff\n      and\n      jump\t// in\n    tag_191:\n        /* \"AllContracts-test.sol\":20532:20579  uint totalPayout = g.bet.mul(payout).add(g.bet) */\n      swap1\n      pop\n        /* \"AllContracts-test.sol\":20626:20637  totalPayout */\n      dup1\n        /* \"AllContracts-test.sol\":20601:20622  address(this).balance */\n      selfbalance\n        /* \"AllContracts-test.sol\":20601:20637  address(this).balance >= totalPayout */\n      lt\n      iszero\n        /* \"AllContracts-test.sol\":20593:20693  require(address(this).balance >= totalPayout, \"Unable to pay. Please play again or request refund.\") */\n      tag_193\n      jumpi\n      mload(0x40)\n      0x08c379a000000000000000000000000000000000000000000000000000000000\n      dup2\n      mstore\n      0x04\n      add\n      dup1\n      dup1\n      0x20\n      add\n      dup3\n      dup2\n      sub\n      dup3\n      mstore\n      0x33\n      dup2\n      mstore\n      0x20\n      add\n      dup1\n      data_ef92889bcd3368ac0e5c94a5c325c5cf21da03eb1576ee7d446327960d5fae81\n      0x33\n      swap2\n      codecopy\n      0x40\n      add\n      swap2\n      pop\n      pop\n      mload(0x40)\n      dup1\n      swap2\n      sub\n      swap1\n      revert\n    tag_193:\n        /* \"AllContracts-test.sol\":20719:20729  randomness */\n      dup3\n        /* \"AllContracts-test.sol\":20708:20709  g */\n      dup3\n        /* \"AllContracts-test.sol\":20708:20716  g.winner */\n      0x04\n      add\n        /* \"AllContracts-test.sol\":20708:20729  g.winner = randomness */\n      dup2\n      swap1\n      sstore\n      pop\n        /* \"AllContracts-test.sol\":20755:20759  true */\n      0x01\n        /* \"AllContracts-test.sol\":20744:20745  g */\n      dup3\n        /* \"AllContracts-test.sol\":20744:20752  g.played */\n      0x05\n      add\n      0x00\n        /* \"AllContracts-test.sol\":20744:20759  g.played = true */\n      0x0100\n      exp\n      dup2\n      sload\n      dup2\n      0xff\n      mul\n      not\n      and\n      swap1\n      dup4\n      iszero\n      iszero\n      mul\n      or\n      swap1\n      sstore\n      pop\n        /* \"AllContracts-test.sol\":20794:20795  g */\n      dup2\n        /* \"AllContracts-test.sol\":20794:20799  g.bet */\n      0x02\n      add\n      sload\n        /* \"AllContracts-test.sol\":20777:20790  _unplayedBets */\n      sload(0x14)\n        /* \"AllContracts-test.sol\":20777:20799  _unplayedBets >= g.bet */\n      lt\n        /* \"AllContracts-test.sol\":20774:20912  if(_unplayedBets >= g.bet) {... */\n      tag_194\n      jumpi\n        /* \"AllContracts-test.sol\":20836:20837  g */\n      dup2\n        /* \"AllContracts-test.sol\":20836:20841  g.bet */\n      0x02\n      add\n      sload\n        /* \"AllContracts-test.sol\":20819:20832  _unplayedBets */\n      0x14\n      0x00\n        /* \"AllContracts-test.sol\":20819:20841  _unplayedBets -= g.bet */\n      dup3\n      dup3\n      sload\n      sub\n      swap3\n      pop\n      pop\n      dup2\n      swap1\n      sstore\n      pop\n        /* \"AllContracts-test.sol\":20774:20912  if(_unplayedBets >= g.bet) {... */\n      jump(tag_195)\n    tag_194:\n        /* \"AllContracts-test.sol\":20896:20897  0 */\n      0x00\n        /* \"AllContracts-test.sol\":20880:20893  _unplayedBets */\n      0x14\n        /* \"AllContracts-test.sol\":20880:20897  _unplayedBets = 0 */\n      dup2\n      swap1\n      sstore\n      pop\n        /* \"AllContracts-test.sol\":20774:20912  if(_unplayedBets >= g.bet) {... */\n    tag_195:\n        /* \"AllContracts-test.sol\":20940:20941  g */\n      dup2\n        /* \"AllContracts-test.sol\":20940:20948  g.winner */\n      0x04\n      add\n      sload\n        /* \"AllContracts-test.sol\":20930:20931  g */\n      dup3\n        /* \"AllContracts-test.sol\":20930:20936  g.pick */\n      0x03\n      add\n      sload\n        /* \"AllContracts-test.sol\":20930:20948  g.pick == g.winner */\n      eq\n        /* \"AllContracts-test.sol\":20926:21067  if (g.pick == g.winner) {... */\n      iszero\n      tag_196\n      jumpi\n        /* \"AllContracts-test.sol\":20968:20969  g */\n      dup2\n        /* \"AllContracts-test.sol\":20968:20976  g.player */\n      0x01\n      add\n      0x00\n      swap1\n      sload\n      swap1\n      0x0100\n      exp\n      swap1\n      div\n      0xffffffffffffffffffffffffffffffffffffffff\n      and\n        /* \"AllContracts-test.sol\":20968:20985  g.player.transfer */\n      0xffffffffffffffffffffffffffffffffffffffff\n      and\n        /* \"AllContracts-test.sol\":20968:20998  g.player.transfer(totalPayout) */\n      0x08fc\n        /* \"AllContracts-test.sol\":20986:20997  totalPayout */\n      dup3\n        /* \"AllContracts-test.sol\":20968:20998  g.player.transfer(totalPayout) */\n      swap1\n      dup2\n      iszero\n      mul\n      swap1\n      mload(0x40)\n      0x00\n      mload(0x40)\n      dup1\n      dup4\n      sub\n      dup2\n      dup6\n      dup9\n      dup9\n      call\n      swap4\n      pop\n      pop\n      pop\n      pop\n      iszero\n        /* \"--CODEGEN--\":8:17   */\n      dup1\n        /* \"--CODEGEN--\":5:7   */\n      iszero\n      tag_198\n      jumpi\n        /* \"--CODEGEN--\":45:61   */\n      returndatasize\n        /* \"--CODEGEN--\":42:43   */\n      0x00\n        /* \"--CODEGEN--\":39:40   */\n      dup1\n        /* \"--CODEGEN--\":24:62   */\n      returndatacopy\n        /* \"--CODEGEN--\":77:93   */\n      returndatasize\n        /* \"--CODEGEN--\":74:75   */\n      0x00\n        /* \"--CODEGEN--\":67:94   */\n      revert\n        /* \"--CODEGEN--\":5:7   */\n    tag_198:\n        /* \"AllContracts-test.sol\":20968:20998  g.player.transfer(totalPayout) */\n      pop\n        /* \"AllContracts-test.sol\":20926:21067  if (g.pick == g.winner) {... */\n      jump(tag_199)\n    tag_196:\n        /* \"AllContracts-test.sol\":21051:21052  0 */\n      0x00\n        /* \"AllContracts-test.sol\":21037:21052  totalPayout = 0 */\n      swap1\n      pop\n        /* \"AllContracts-test.sol\":20926:21067  if (g.pick == g.winner) {... */\n    tag_199:\n        /* \"AllContracts-test.sol\":21086:21144  GamePlayed(g.player, g.bet, g.pick, g.winner, totalPayout) */\n      0xc06600d6399308f270bc6ae70d5377121b685c974bb7f7355824fddd8a2b3497\n        /* \"AllContracts-test.sol\":21097:21098  g */\n      dup3\n        /* \"AllContracts-test.sol\":21097:21105  g.player */\n      0x01\n      add\n      0x00\n      swap1\n      sload\n      swap1\n      0x0100\n      exp\n      swap1\n      div\n      0xffffffffffffffffffffffffffffffffffffffff\n      and\n        /* \"AllContracts-test.sol\":21107:21108  g */\n      dup4\n        /* \"AllContracts-test.sol\":21107:21112  g.bet */\n      0x02\n      add\n      sload\n        /* \"AllContracts-test.sol\":21114:21115  g */\n      dup5\n        /* \"AllContracts-test.sol\":21114:21120  g.pick */\n      0x03\n      add\n      sload\n        /* \"AllContracts-test.sol\":21122:21123  g */\n      dup6\n        /* \"AllContracts-test.sol\":21122:21130  g.winner */\n      0x04\n      add\n      sload\n        /* \"AllContracts-test.sol\":21132:21143  totalPayout */\n      dup6\n        /* \"AllContracts-test.sol\":21086:21144  GamePlayed(g.player, g.bet, g.pick, g.winner, totalPayout) */\n      mload(0x40)\n      dup1\n      dup7\n      0xffffffffffffffffffffffffffffffffffffffff\n      and\n      0xffffffffffffffffffffffffffffffffffffffff\n      and\n      dup2\n      mstore\n      0x20\n      add\n      dup6\n      dup2\n      mstore\n      0x20\n      add\n      dup5\n      dup2\n      mstore\n      0x20\n      add\n      dup4\n      dup2\n      mstore\n      0x20\n      add\n      dup3\n      dup2\n      mstore\n      0x20\n      add\n      swap6\n      pop\n      pop\n      pop\n      pop\n      pop\n      pop\n      mload(0x40)\n      dup1\n      swap2\n      sub\n      swap1\n      log1\n        /* \"AllContracts-test.sol\":20406:21155  if(g.id > 0 && g.played == false){... */\n      pop\n    tag_189:\n        /* \"AllContracts-test.sol\":21171:21172  1 */\n      0x01\n        /* \"AllContracts-test.sol\":21164:21168  gas1 */\n      0x06\n        /* \"AllContracts-test.sol\":21164:21172  gas1 = 1 */\n      dup2\n      swap1\n      sstore\n      pop\n        /* \"AllContracts-test.sol\":21189:21190  1 */\n      0x01\n        /* \"AllContracts-test.sol\":21182:21186  gas2 */\n      0x07\n        /* \"AllContracts-test.sol\":21182:21190  gas2 = 1 */\n      dup2\n      swap1\n      sstore\n      pop\n        /* \"AllContracts-test.sol\":21207:21208  1 */\n      0x01\n        /* \"AllContracts-test.sol\":21200:21204  gas3 */\n      0x08\n        /* \"AllContracts-test.sol\":21200:21208  gas3 = 1 */\n      dup2\n      swap1\n      sstore\n      pop\n        /* \"AllContracts-test.sol\":21225:21226  1 */\n      0x01\n        /* \"AllContracts-test.sol\":21218:21222  gas4 */\n      0x09\n        /* \"AllContracts-test.sol\":21218:21226  gas4 = 1 */\n      dup2\n      swap1\n      sstore\n      pop\n        /* \"AllContracts-test.sol\":21243:21244  1 */\n      0x01\n        /* \"AllContracts-test.sol\":21236:21240  gas5 */\n      0x0a\n        /* \"AllContracts-test.sol\":21236:21244  gas5 = 1 */\n      dup2\n      swap1\n      sstore\n      pop\n        /* \"AllContracts-test.sol\":21261:21262  1 */\n      0x01\n        /* \"AllContracts-test.sol\":21254:21258  gas6 */\n      0x0b\n        /* \"AllContracts-test.sol\":21254:21262  gas6 = 1 */\n      dup2\n      swap1\n      sstore\n      pop\n        /* \"AllContracts-test.sol\":21279:21280  1 */\n      0x01\n        /* \"AllContracts-test.sol\":21272:21276  gas7 */\n      0x0c\n        /* \"AllContracts-test.sol\":21272:21280  gas7 = 1 */\n      dup2\n      swap1\n      sstore\n      pop\n        /* \"AllContracts-test.sol\":21297:21298  1 */\n      0x01\n        /* \"AllContracts-test.sol\":21290:21294  gas8 */\n      0x0d\n        /* \"AllContracts-test.sol\":21290:21298  gas8 = 1 */\n      dup2\n      swap1\n      sstore\n      pop\n        /* \"AllContracts-test.sol\":21315:21316  1 */\n      0x01\n        /* \"AllContracts-test.sol\":21308:21312  gas9 */\n      0x0e\n        /* \"AllContracts-test.sol\":21308:21316  gas9 = 1 */\n      dup2\n      swap1\n      sstore\n      pop\n        /* \"AllContracts-test.sol\":21334:21335  1 */\n      0x01\n        /* \"AllContracts-test.sol\":21326:21331  gas10 */\n      0x0f\n        /* \"AllContracts-test.sol\":21326:21335  gas10 = 1 */\n      dup2\n      swap1\n      sstore\n      pop\n        /* \"AllContracts-test.sol\":21353:21354  1 */\n      0x01\n        /* \"AllContracts-test.sol\":21345:21350  gas11 */\n      0x10\n        /* \"AllContracts-test.sol\":21345:21354  gas11 = 1 */\n      dup2\n      swap1\n      sstore\n      pop\n        /* \"AllContracts-test.sol\":20261:21361  function testFulfillRandomness(bytes32 requestId, uint256 randomness) public {... */\n      pop\n      pop\n      pop\n      jump\t// out\n        /* \"AllContracts-test.sol\":6323:6341  uint public maxBet */\n    tag_62:\n      sload(0x12)\n      dup2\n      jump\t// out\n        /* \"AllContracts-test.sol\":6298:6317  uint public maxPick */\n    tag_65:\n      sload(0x11)\n      dup2\n      jump\t// out\n        /* \"AllContracts-test.sol\":17966:18088  function setPayoutAddress(address payable _payoutAddress) public onlyOwner {... */\n    tag_69:\n        /* \"AllContracts-test.sol\":1141:1153  _msgSender() */\n      tag_201\n        /* \"AllContracts-test.sol\":1141:1151  _msgSender */\n      tag_202\n        /* \"AllContracts-test.sol\":1141:1153  _msgSender() */\n      jump\t// in\n    tag_201:\n        /* \"AllContracts-test.sol\":1131:1153  _owner == _msgSender() */\n      0xffffffffffffffffffffffffffffffffffffffff\n      and\n        /* \"AllContracts-test.sol\":1131:1137  _owner */\n      0x03\n      0x00\n      swap1\n      sload\n      swap1\n      0x0100\n      exp\n      swap1\n      div\n      0xffffffffffffffffffffffffffffffffffffffff\n      and\n        /* \"AllContracts-test.sol\":1131:1153  _owner == _msgSender() */\n      0xffffffffffffffffffffffffffffffffffffffff\n      and\n      eq\n        /* \"AllContracts-test.sol\":1123:1190  require(_owner == _msgSender(), \"Ownable: caller is not the owner\") */\n      tag_203\n      jumpi\n      mload(0x40)\n      0x08c379a000000000000000000000000000000000000000000000000000000000\n      dup2\n      mstore\n      0x04\n      add\n      dup1\n      dup1\n      0x20\n      add\n      dup3\n      dup2\n      sub\n      dup3\n      mstore\n      0x20\n      dup2\n      mstore\n      0x20\n      add\n      dup1\n      0x4f776e61626c653a2063616c6c6572206973206e6f7420746865206f776e6572\n      dup2\n      mstore\n      pop\n      0x20\n      add\n      swap2\n      pop\n      pop\n      mload(0x40)\n      dup1\n      swap2\n      sub\n      swap1\n      revert\n    tag_203:\n        /* \"AllContracts-test.sol\":18067:18081  _payoutAddress */\n      dup1\n        /* \"AllContracts-test.sol\":18051:18064  payoutAddress */\n      0x16\n      0x00\n        /* \"AllContracts-test.sol\":18051:18081  payoutAddress = _payoutAddress */\n      0x0100\n      exp\n      dup2\n      sload\n      dup2\n      0xffffffffffffffffffffffffffffffffffffffff\n      mul\n      not\n      and\n      swap1\n      dup4\n      0xffffffffffffffffffffffffffffffffffffffff\n      and\n      mul\n      or\n      swap1\n      sstore\n      pop\n        /* \"AllContracts-test.sol\":17966:18088  function setPayoutAddress(address payable _payoutAddress) public onlyOwner {... */\n      pop\n      jump\t// out\n        /* \"AllContracts-test.sol\":6580:6629  mapping(address => bool) public authorizedAddress */\n    tag_73:\n      mstore(0x20, 0x18)\n      dup1\n      0x00\n      mstore\n      keccak256(0x00, 0x40)\n      0x00\n      swap2\n      pop\n      sload\n      swap1\n      0x0100\n      exp\n      swap1\n      div\n      0xff\n      and\n      dup2\n      jump\t// out\n        /* \"AllContracts-test.sol\":14408:14572  function getSummary() public view returns(uint, uint, uint, uint) {... */\n    tag_76:\n        /* \"AllContracts-test.sol\":14450:14454  uint */\n      0x00\n        /* \"AllContracts-test.sol\":14456:14460  uint */\n      dup1\n        /* \"AllContracts-test.sol\":14462:14466  uint */\n      0x00\n        /* \"AllContracts-test.sol\":14468:14472  uint */\n      dup1\n        /* \"AllContracts-test.sol\":14533:14539  minBet */\n      sload(0x13)\n        /* \"AllContracts-test.sol\":14541:14547  maxBet */\n      sload(0x12)\n        /* \"AllContracts-test.sol\":14549:14555  payout */\n      sload(0x17)\n        /* \"AllContracts-test.sol\":14557:14564  maxPick */\n      sload(0x11)\n        /* \"AllContracts-test.sol\":14526:14565  return(minBet, maxBet, payout, maxPick) */\n      swap4\n      pop\n      swap4\n      pop\n      swap4\n      pop\n      swap4\n      pop\n        /* \"AllContracts-test.sol\":14408:14572  function getSummary() public view returns(uint, uint, uint, uint) {... */\n      swap1\n      swap2\n      swap3\n      swap4\n      jump\t// out\n        /* \"AllContracts-test.sol\":17094:17212  function setVRFCoordinator(address _vrfCoordinator) public onlyOwner {... */\n    tag_80:\n        /* \"AllContracts-test.sol\":1141:1153  _msgSender() */\n      tag_207\n        /* \"AllContracts-test.sol\":1141:1151  _msgSender */\n      tag_202\n        /* \"AllContracts-test.sol\":1141:1153  _msgSender() */\n      jump\t// in\n    tag_207:\n        /* \"AllContracts-test.sol\":1131:1153  _owner == _msgSender() */\n      0xffffffffffffffffffffffffffffffffffffffff\n      and\n        /* \"AllContracts-test.sol\":1131:1137  _owner */\n      0x03\n      0x00\n      swap1\n      sload\n      swap1\n      0x0100\n      exp\n      swap1\n      div\n      0xffffffffffffffffffffffffffffffffffffffff\n      and\n        /* \"AllContracts-test.sol\":1131:1153  _owner == _msgSender() */\n      0xffffffffffffffffffffffffffffffffffffffff\n      and\n      eq\n        /* \"AllContracts-test.sol\":1123:1190  require(_owner == _msgSender(), \"Ownable: caller is not the owner\") */\n      tag_208\n      jumpi\n      mload(0x40)\n      0x08c379a000000000000000000000000000000000000000000000000000000000\n      dup2\n      mstore\n      0x04\n      add\n      dup1\n      dup1\n      0x20\n      add\n      dup3\n      dup2\n      sub\n      dup3\n      mstore\n      0x20\n      dup2\n      mstore\n      0x20\n      add\n      dup1\n      0x4f776e61626c653a2063616c6c6572206973206e6f7420746865206f776e6572\n      dup2\n      mstore\n      pop\n      0x20\n      add\n      swap2\n      pop\n      pop\n      mload(0x40)\n      dup1\n      swap2\n      sub\n      swap1\n      revert\n    tag_208:\n        /* \"AllContracts-test.sol\":17190:17205  _vrfCoordinator */\n      dup1\n        /* \"AllContracts-test.sol\":17173:17187  vrfCoordinator */\n      0x01\n      0x00\n        /* \"AllContracts-test.sol\":17173:17205  vrfCoordinator = _vrfCoordinator */\n      0x0100\n      exp\n      dup2\n      sload\n      dup2\n      0xffffffffffffffffffffffffffffffffffffffff\n      mul\n      not\n      and\n      swap1\n      dup4\n      0xffffffffffffffffffffffffffffffffffffffff\n      and\n      mul\n      or\n      swap1\n      sstore\n      pop\n        /* \"AllContracts-test.sol\":17094:17212  function setVRFCoordinator(address _vrfCoordinator) public onlyOwner {... */\n      pop\n      jump\t// out\n        /* \"AllContracts-test.sol\":8068:8172  function getLinkBalance() public view returns(uint){... */\n    tag_83:\n        /* \"AllContracts-test.sol\":8114:8118  uint */\n      0x00\n        /* \"AllContracts-test.sol\":8136:8140  LINK */\n      dup1\n      0x00\n      swap1\n      sload\n      swap1\n      0x0100\n      exp\n      swap1\n      div\n      0xffffffffffffffffffffffffffffffffffffffff\n      and\n        /* \"AllContracts-test.sol\":8136:8150  LINK.balanceOf */\n      0xffffffffffffffffffffffffffffffffffffffff\n      and\n      0x70a08231\n        /* \"AllContracts-test.sol\":8159:8163  this */\n      address\n        /* \"AllContracts-test.sol\":8136:8165  LINK.balanceOf(address(this)) */\n      mload(0x40)\n      dup3\n      0xffffffff\n      and\n      0xe0\n      shl\n      dup2\n      mstore\n      0x04\n      add\n      dup1\n      dup3\n      0xffffffffffffffffffffffffffffffffffffffff\n      and\n      0xffffffffffffffffffffffffffffffffffffffff\n      and\n      dup2\n      mstore\n      0x20\n      add\n      swap2\n      pop\n      pop\n      0x20\n      mload(0x40)\n      dup1\n      dup4\n      sub\n      dup2\n      dup7\n      dup1\n      extcodesize\n      iszero\n        /* \"--CODEGEN--\":8:17   */\n      dup1\n        /* \"--CODEGEN--\":5:7   */\n      iszero\n      tag_211\n      jumpi\n        /* \"--CODEGEN--\":30:31   */\n      0x00\n        /* \"--CODEGEN--\":27:28   */\n      dup1\n        /* \"--CODEGEN--\":20:32   */\n      revert\n        /* \"--CODEGEN--\":5:7   */\n    tag_211:\n        /* \"AllContracts-test.sol\":8136:8165  LINK.balanceOf(address(this)) */\n      pop\n      gas\n      staticcall\n      iszero\n        /* \"--CODEGEN--\":8:17   */\n      dup1\n        /* \"--CODEGEN--\":5:7   */\n      iszero\n      tag_213\n      jumpi\n        /* \"--CODEGEN--\":45:61   */\n      returndatasize\n        /* \"--CODEGEN--\":42:43   */\n      0x00\n        /* \"--CODEGEN--\":39:40   */\n      dup1\n        /* \"--CODEGEN--\":24:62   */\n      returndatacopy\n        /* \"--CODEGEN--\":77:93   */\n      returndatasize\n        /* \"--CODEGEN--\":74:75   */\n      0x00\n        /* \"--CODEGEN--\":67:94   */\n      revert\n        /* \"--CODEGEN--\":5:7   */\n    tag_213:\n        /* \"AllContracts-test.sol\":8136:8165  LINK.balanceOf(address(this)) */\n      pop\n      pop\n      pop\n      pop\n      mload(0x40)\n      returndatasize\n        /* \"--CODEGEN--\":13:15   */\n      0x20\n        /* \"--CODEGEN--\":8:11   */\n      dup2\n        /* \"--CODEGEN--\":5:16   */\n      lt\n        /* \"--CODEGEN--\":2:4   */\n      iszero\n      tag_214\n      jumpi\n        /* \"--CODEGEN--\":29:30   */\n      0x00\n        /* \"--CODEGEN--\":26:27   */\n      dup1\n        /* \"--CODEGEN--\":19:31   */\n      revert\n        /* \"--CODEGEN--\":2:4   */\n    tag_214:\n        /* \"AllContracts-test.sol\":8136:8165  LINK.balanceOf(address(this)) */\n      dup2\n      add\n      swap1\n      dup1\n      dup1\n      mload\n      swap1\n      0x20\n      add\n      swap1\n      swap3\n      swap2\n      swap1\n      pop\n      pop\n      pop\n        /* \"AllContracts-test.sol\":8129:8165  return LINK.balanceOf(address(this)) */\n      swap1\n      pop\n        /* \"AllContracts-test.sol\":8068:8172  function getLinkBalance() public view returns(uint){... */\n      swap1\n      jump\t// out\n        /* \"AllContracts-test.sol\":6466:6502  address payable public payoutAddress */\n    tag_86:\n      0x16\n      0x00\n      swap1\n      sload\n      swap1\n      0x0100\n      exp\n      swap1\n      div\n      0xffffffffffffffffffffffffffffffffffffffff\n      and\n      dup2\n      jump\t// out\n        /* \"AllContracts-test.sol\":19926:20255  function testPlayGame(uint gameID, uint256 testRandomNumber) public {... */\n    tag_90:\n        /* \"AllContracts-test.sol\":20036:20041  false */\n      0x00\n        /* \"AllContracts-test.sol\":20012:20041  games[gameID].played == false */\n      iszero\n      iszero\n        /* \"AllContracts-test.sol\":20012:20017  games */\n      0x1a\n        /* \"AllContracts-test.sol\":20012:20025  games[gameID] */\n      0x00\n        /* \"AllContracts-test.sol\":20018:20024  gameID */\n      dup5\n        /* \"AllContracts-test.sol\":20012:20025  games[gameID] */\n      dup2\n      mstore\n      0x20\n      add\n      swap1\n      dup2\n      mstore\n      0x20\n      add\n      0x00\n      keccak256\n        /* \"AllContracts-test.sol\":20012:20032  games[gameID].played */\n      0x05\n      add\n      0x00\n      swap1\n      sload\n      swap1\n      0x0100\n      exp\n      swap1\n      div\n      0xff\n      and\n        /* \"AllContracts-test.sol\":20012:20041  games[gameID].played == false */\n      iszero\n      iszero\n      eq\n        /* \"AllContracts-test.sol\":20004:20065  require(games[gameID].played == false, \"game already played\") */\n      tag_216\n      jumpi\n      mload(0x40)\n      0x08c379a000000000000000000000000000000000000000000000000000000000\n      dup2\n      mstore\n      0x04\n      add\n      dup1\n      dup1\n      0x20\n      add\n      dup3\n      dup2\n      sub\n      dup3\n      mstore\n      0x13\n      dup2\n      mstore\n      0x20\n      add\n      dup1\n      0x67616d6520616c726561647920706c6179656400000000000000000000000000\n      dup2\n      mstore\n      pop\n      0x20\n      add\n      swap2\n      pop\n      pop\n      mload(0x40)\n      dup1\n      swap2\n      sub\n      swap1\n      revert\n    tag_216:\n        /* \"AllContracts-test.sol\":20075:20088  bytes32 reqID */\n      0x00\n        /* \"AllContracts-test.sol\":20118:20121  now */\n      timestamp\n        /* \"AllContracts-test.sol\":20123:20139  block.difficulty */\n      difficulty\n        /* \"AllContracts-test.sol\":20141:20151  msg.sender */\n      caller\n        /* \"AllContracts-test.sol\":20101:20152  abi.encodePacked(now, block.difficulty, msg.sender) */\n      add(0x20, mload(0x40))\n      dup1\n      dup5\n      dup2\n      mstore\n      0x20\n      add\n      dup4\n      dup2\n      mstore\n      0x20\n      add\n      dup3\n      0xffffffffffffffffffffffffffffffffffffffff\n      and\n      0xffffffffffffffffffffffffffffffffffffffff\n      and\n      0x60\n      shl\n      dup2\n      mstore\n      0x14\n      add\n      swap4\n      pop\n      pop\n      pop\n      pop\n      mload(0x40)\n        /* \"--CODEGEN--\":49:53   */\n      0x20\n        /* \"--CODEGEN--\":39:46   */\n      dup2\n        /* \"--CODEGEN--\":30:37   */\n      dup4\n        /* \"--CODEGEN--\":26:47   */\n      sub\n        /* \"--CODEGEN--\":22:54   */\n      sub\n        /* \"--CODEGEN--\":13:20   */\n      dup2\n        /* \"--CODEGEN--\":6:55   */\n      mstore\n        /* \"AllContracts-test.sol\":20101:20152  abi.encodePacked(now, block.difficulty, msg.sender) */\n      swap1\n      0x40\n      mstore\n        /* \"AllContracts-test.sol\":20091:20153  keccak256(abi.encodePacked(now, block.difficulty, msg.sender)) */\n      dup1\n      mload\n      swap1\n      0x20\n      add\n      keccak256\n        /* \"AllContracts-test.sol\":20075:20153  bytes32 reqID = keccak256(abi.encodePacked(now, block.difficulty, msg.sender)) */\n      swap1\n      pop\n        /* \"AllContracts-test.sol\":20186:20192  gameID */\n      dup3\n        /* \"AllContracts-test.sol\":20163:20176  _gameRequests */\n      0x1b\n        /* \"AllContracts-test.sol\":20163:20183  _gameRequests[reqID] */\n      0x00\n        /* \"AllContracts-test.sol\":20177:20182  reqID */\n      dup4\n        /* \"AllContracts-test.sol\":20163:20183  _gameRequests[reqID] */\n      dup2\n      mstore\n      0x20\n      add\n      swap1\n      dup2\n      mstore\n      0x20\n      add\n      0x00\n      keccak256\n        /* \"AllContracts-test.sol\":20163:20192  _gameRequests[reqID] = gameID */\n      dup2\n      swap1\n      sstore\n      pop\n        /* \"AllContracts-test.sol\":20202:20248  testFulfillRandomness(reqID, testRandomNumber) */\n      tag_217\n        /* \"AllContracts-test.sol\":20224:20229  reqID */\n      dup2\n        /* \"AllContracts-test.sol\":20231:20247  testRandomNumber */\n      dup4\n        /* \"AllContracts-test.sol\":20202:20223  testFulfillRandomness */\n      tag_59\n        /* \"AllContracts-test.sol\":20202:20248  testFulfillRandomness(reqID, testRandomNumber) */\n      jump\t// in\n    tag_217:\n        /* \"AllContracts-test.sol\":19926:20255  function testPlayGame(uint gameID, uint256 testRandomNumber) public {... */\n      pop\n      pop\n      pop\n      jump\t// out\n        /* \"AllContracts-test.sol\":6508:6526  uint public payout */\n    tag_93:\n      sload(0x17)\n      dup2\n      jump\t// out\n        /* \"AllContracts-test.sol\":6371:6396  uint public _unplayedBets */\n    tag_96:\n      sload(0x14)\n      dup2\n      jump\t// out\n        /* \"AllContracts-test.sol\":1550:1695  function renounceOwnership() public virtual onlyOwner {... */\n    tag_99:\n        /* \"AllContracts-test.sol\":1141:1153  _msgSender() */\n      tag_219\n        /* \"AllContracts-test.sol\":1141:1151  _msgSender */\n      tag_202\n        /* \"AllContracts-test.sol\":1141:1153  _msgSender() */\n      jump\t// in\n    tag_219:\n        /* \"AllContracts-test.sol\":1131:1153  _owner == _msgSender() */\n      0xffffffffffffffffffffffffffffffffffffffff\n      and\n        /* \"AllContracts-test.sol\":1131:1137  _owner */\n      0x03\n      0x00\n      swap1\n      sload\n      swap1\n      0x0100\n      exp\n      swap1\n      div\n      0xffffffffffffffffffffffffffffffffffffffff\n      and\n        /* \"AllContracts-test.sol\":1131:1153  _owner == _msgSender() */\n      0xffffffffffffffffffffffffffffffffffffffff\n      and\n      eq\n        /* \"AllContracts-test.sol\":1123:1190  require(_owner == _msgSender(), \"Ownable: caller is not the owner\") */\n      tag_220\n      jumpi\n      mload(0x40)\n      0x08c379a000000000000000000000000000000000000000000000000000000000\n      dup2\n      mstore\n      0x04\n      add\n      dup1\n      dup1\n      0x20\n      add\n      dup3\n      dup2\n      sub\n      dup3\n      mstore\n      0x20\n      dup2\n      mstore\n      0x20\n      add\n      dup1\n      0x4f776e61626c653a2063616c6c6572206973206e6f7420746865206f776e6572\n      dup2\n      mstore\n      pop\n      0x20\n      add\n      swap2\n      pop\n      pop\n      mload(0x40)\n      dup1\n      swap2\n      sub\n      swap1\n      revert\n    tag_220:\n        /* \"AllContracts-test.sol\":1656:1657  0 */\n      0x00\n        /* \"AllContracts-test.sol\":1619:1659  OwnershipTransferred(_owner, address(0)) */\n      0xffffffffffffffffffffffffffffffffffffffff\n      and\n        /* \"AllContracts-test.sol\":1640:1646  _owner */\n      0x03\n      0x00\n      swap1\n      sload\n      swap1\n      0x0100\n      exp\n      swap1\n      div\n      0xffffffffffffffffffffffffffffffffffffffff\n      and\n        /* \"AllContracts-test.sol\":1619:1659  OwnershipTransferred(_owner, address(0)) */\n      0xffffffffffffffffffffffffffffffffffffffff\n      and\n      0x8be0079c531659141344cd1fd0a4f28419497f9722a3daafe3b4186f6b6457e0\n      mload(0x40)\n      mload(0x40)\n      dup1\n      swap2\n      sub\n      swap1\n      log3\n        /* \"AllContracts-test.sol\":1686:1687  0 */\n      0x00\n        /* \"AllContracts-test.sol\":1669:1675  _owner */\n      0x03\n      0x00\n        /* \"AllContracts-test.sol\":1669:1688  _owner = address(0) */\n      0x0100\n      exp\n      dup2\n      sload\n      dup2\n      0xffffffffffffffffffffffffffffffffffffffff\n      mul\n      not\n      and\n      swap1\n      dup4\n      0xffffffffffffffffffffffffffffffffffffffff\n      and\n      mul\n      or\n      swap1\n      sstore\n      pop\n        /* \"AllContracts-test.sol\":1550:1695  function renounceOwnership() public virtual onlyOwner {... */\n      jump\t// out\n        /* \"AllContracts-test.sol\":16480:16590  function withdrawLink(uint amount) public onlyAuthorized {... */\n    tag_103:\n        /* \"AllContracts-test.sol\":7972:7982  msg.sender */\n      caller\n        /* \"AllContracts-test.sol\":7961:7982  owner() == msg.sender */\n      0xffffffffffffffffffffffffffffffffffffffff\n      and\n        /* \"AllContracts-test.sol\":7961:7968  owner() */\n      tag_223\n        /* \"AllContracts-test.sol\":7961:7966  owner */\n      tag_106\n        /* \"AllContracts-test.sol\":7961:7968  owner() */\n      jump\t// in\n    tag_223:\n        /* \"AllContracts-test.sol\":7961:7982  owner() == msg.sender */\n      0xffffffffffffffffffffffffffffffffffffffff\n      and\n      eq\n        /* \"AllContracts-test.sol\":7961:8015  owner() == msg.sender || authorizedAddress[msg.sender] */\n      dup1\n      tag_224\n      jumpi\n      pop\n        /* \"AllContracts-test.sol\":7986:8003  authorizedAddress */\n      0x18\n        /* \"AllContracts-test.sol\":7986:8015  authorizedAddress[msg.sender] */\n      0x00\n        /* \"AllContracts-test.sol\":8004:8014  msg.sender */\n      caller\n        /* \"AllContracts-test.sol\":7986:8015  authorizedAddress[msg.sender] */\n      0xffffffffffffffffffffffffffffffffffffffff\n      and\n      0xffffffffffffffffffffffffffffffffffffffff\n      and\n      dup2\n      mstore\n      0x20\n      add\n      swap1\n      dup2\n      mstore\n      0x20\n      add\n      0x00\n      keccak256\n      0x00\n      swap1\n      sload\n      swap1\n      0x0100\n      exp\n      swap1\n      div\n      0xff\n      and\n        /* \"AllContracts-test.sol\":7961:8015  owner() == msg.sender || authorizedAddress[msg.sender] */\n    tag_224:\n        /* \"AllContracts-test.sol\":7953:8044  require(owner() == msg.sender || authorizedAddress[msg.sender], \"caller is not authorized\") */\n      tag_225\n      jumpi\n      mload(0x40)\n      0x08c379a000000000000000000000000000000000000000000000000000000000\n      dup2\n      mstore\n      0x04\n      add\n      dup1\n      dup1\n      0x20\n      add\n      dup3\n      dup2\n      sub\n      dup3\n      mstore\n      0x18\n      dup2\n      mstore\n      0x20\n      add\n      dup1\n      0x63616c6c6572206973206e6f7420617574686f72697a65640000000000000000\n      dup2\n      mstore\n      pop\n      0x20\n      add\n      swap2\n      pop\n      pop\n      mload(0x40)\n      dup1\n      swap2\n      sub\n      swap1\n      revert\n    tag_225:\n        /* \"AllContracts-test.sol\":16547:16551  LINK */\n      0x00\n      dup1\n      swap1\n      sload\n      swap1\n      0x0100\n      exp\n      swap1\n      div\n      0xffffffffffffffffffffffffffffffffffffffff\n      and\n        /* \"AllContracts-test.sol\":16547:16560  LINK.transfer */\n      0xffffffffffffffffffffffffffffffffffffffff\n      and\n      0xa9059cbb\n        /* \"AllContracts-test.sol\":16561:16574  payoutAddress */\n      0x16\n      0x00\n      swap1\n      sload\n      swap1\n      0x0100\n      exp\n      swap1\n      div\n      0xffffffffffffffffffffffffffffffffffffffff\n      and\n        /* \"AllContracts-test.sol\":16576:16582  amount */\n      dup4\n        /* \"AllContracts-test.sol\":16547:16583  LINK.transfer(payoutAddress, amount) */\n      mload(0x40)\n      dup4\n      0xffffffff\n      and\n      0xe0\n      shl\n      dup2\n      mstore\n      0x04\n      add\n      dup1\n      dup4\n      0xffffffffffffffffffffffffffffffffffffffff\n      and\n      0xffffffffffffffffffffffffffffffffffffffff\n      and\n      dup2\n      mstore\n      0x20\n      add\n      dup3\n      dup2\n      mstore\n      0x20\n      add\n      swap3\n      pop\n      pop\n      pop\n      0x20\n      mload(0x40)\n      dup1\n      dup4\n      sub\n      dup2\n      0x00\n      dup8\n      dup1\n      extcodesize\n      iszero\n        /* \"--CODEGEN--\":8:17   */\n      dup1\n        /* \"--CODEGEN--\":5:7   */\n      iszero\n      tag_227\n      jumpi\n        /* \"--CODEGEN--\":30:31   */\n      0x00\n        /* \"--CODEGEN--\":27:28   */\n      dup1\n        /* \"--CODEGEN--\":20:32   */\n      revert\n        /* \"--CODEGEN--\":5:7   */\n    tag_227:\n        /* \"AllContracts-test.sol\":16547:16583  LINK.transfer(payoutAddress, amount) */\n      pop\n      gas\n      call\n      iszero\n        /* \"--CODEGEN--\":8:17   */\n      dup1\n        /* \"--CODEGEN--\":5:7   */\n      iszero\n      tag_229\n      jumpi\n        /* \"--CODEGEN--\":45:61   */\n      returndatasize\n        /* \"--CODEGEN--\":42:43   */\n      0x00\n        /* \"--CODEGEN--\":39:40   */\n      dup1\n        /* \"--CODEGEN--\":24:62   */\n      returndatacopy\n        /* \"--CODEGEN--\":77:93   */\n      returndatasize\n        /* \"--CODEGEN--\":74:75   */\n      0x00\n        /* \"--CODEGEN--\":67:94   */\n      revert\n        /* \"--CODEGEN--\":5:7   */\n    tag_229:\n        /* \"AllContracts-test.sol\":16547:16583  LINK.transfer(payoutAddress, amount) */\n      pop\n      pop\n      pop\n      pop\n      mload(0x40)\n      returndatasize\n        /* \"--CODEGEN--\":13:15   */\n      0x20\n        /* \"--CODEGEN--\":8:11   */\n      dup2\n        /* \"--CODEGEN--\":5:16   */\n      lt\n        /* \"--CODEGEN--\":2:4   */\n      iszero\n      tag_230\n      jumpi\n        /* \"--CODEGEN--\":29:30   */\n      0x00\n        /* \"--CODEGEN--\":26:27   */\n      dup1\n        /* \"--CODEGEN--\":19:31   */\n      revert\n        /* \"--CODEGEN--\":2:4   */\n    tag_230:\n        /* \"AllContracts-test.sol\":16547:16583  LINK.transfer(payoutAddress, amount) */\n      dup2\n      add\n      swap1\n      dup1\n      dup1\n      mload\n      swap1\n      0x20\n      add\n      swap1\n      swap3\n      swap2\n      swap1\n      pop\n      pop\n      pop\n      pop\n        /* \"AllContracts-test.sol\":16480:16590  function withdrawLink(uint amount) public onlyAuthorized {... */\n      pop\n      jump\t// out\n        /* \"AllContracts-test.sol\":927:1004  function owner() public view returns (address) {... */\n    tag_106:\n        /* \"AllContracts-test.sol\":965:972  address */\n      0x00\n        /* \"AllContracts-test.sol\":991:997  _owner */\n      0x03\n      0x00\n      swap1\n      sload\n      swap1\n      0x0100\n      exp\n      swap1\n      div\n      0xffffffffffffffffffffffffffffffffffffffff\n      and\n        /* \"AllContracts-test.sol\":984:997  return _owner */\n      swap1\n      pop\n        /* \"AllContracts-test.sol\":927:1004  function owner() public view returns (address) {... */\n      swap1\n      jump\t// out\n        /* \"AllContracts-test.sol\":5522:5729  function rawFulfillRandomness(bytes32 requestId, uint256 randomness) external {... */\n    tag_110:\n        /* \"AllContracts-test.sol\":5628:5642  vrfCoordinator */\n      0x01\n      0x00\n      swap1\n      sload\n      swap1\n      0x0100\n      exp\n      swap1\n      div\n      0xffffffffffffffffffffffffffffffffffffffff\n      and\n        /* \"AllContracts-test.sol\":5614:5642  msg.sender == vrfCoordinator */\n      0xffffffffffffffffffffffffffffffffffffffff\n      and\n        /* \"AllContracts-test.sol\":5614:5624  msg.sender */\n      caller\n        /* \"AllContracts-test.sol\":5614:5642  msg.sender == vrfCoordinator */\n      0xffffffffffffffffffffffffffffffffffffffff\n      and\n      eq\n        /* \"AllContracts-test.sol\":5606:5678  require(msg.sender == vrfCoordinator, \"Only VRFCoordinator can fulfill\") */\n      tag_233\n      jumpi\n      mload(0x40)\n      0x08c379a000000000000000000000000000000000000000000000000000000000\n      dup2\n      mstore\n      0x04\n      add\n      dup1\n      dup1\n      0x20\n      add\n      dup3\n      dup2\n      sub\n      dup3\n      mstore\n      0x1f\n      dup2\n      mstore\n      0x20\n      add\n      dup1\n      0x4f6e6c7920565246436f6f7264696e61746f722063616e2066756c66696c6c00\n      dup2\n      mstore\n      pop\n      0x20\n      add\n      swap2\n      pop\n      pop\n      mload(0x40)\n      dup1\n      swap2\n      sub\n      swap1\n      revert\n    tag_233:\n        /* \"AllContracts-test.sol\":5684:5724  fulfillRandomness(requestId, randomness) */\n      tag_234\n        /* \"AllContracts-test.sol\":5702:5711  requestId */\n      dup3\n        /* \"AllContracts-test.sol\":5713:5723  randomness */\n      dup3\n        /* \"AllContracts-test.sol\":5684:5701  fulfillRandomness */\n      tag_235\n        /* \"AllContracts-test.sol\":5684:5724  fulfillRandomness(requestId, randomness) */\n      jump\t// in\n    tag_234:\n        /* \"AllContracts-test.sol\":5522:5729  function rawFulfillRandomness(bytes32 requestId, uint256 randomness) external {... */\n      pop\n      pop\n      jump\t// out\n        /* \"AllContracts-test.sol\":15805:16030  function allowGasFreeBet(address[] memory userAddresses, bool allowed) public onlyAuthorized{... */\n    tag_117:\n        /* \"AllContracts-test.sol\":7972:7982  msg.sender */\n      caller\n        /* \"AllContracts-test.sol\":7961:7982  owner() == msg.sender */\n      0xffffffffffffffffffffffffffffffffffffffff\n      and\n        /* \"AllContracts-test.sol\":7961:7968  owner() */\n      tag_237\n        /* \"AllContracts-test.sol\":7961:7966  owner */\n      tag_106\n        /* \"AllContracts-test.sol\":7961:7968  owner() */\n      jump\t// in\n    tag_237:\n        /* \"AllContracts-test.sol\":7961:7982  owner() == msg.sender */\n      0xffffffffffffffffffffffffffffffffffffffff\n      and\n      eq\n        /* \"AllContracts-test.sol\":7961:8015  owner() == msg.sender || authorizedAddress[msg.sender] */\n      dup1\n      tag_238\n      jumpi\n      pop\n        /* \"AllContracts-test.sol\":7986:8003  authorizedAddress */\n      0x18\n        /* \"AllContracts-test.sol\":7986:8015  authorizedAddress[msg.sender] */\n      0x00\n        /* \"AllContracts-test.sol\":8004:8014  msg.sender */\n      caller\n        /* \"AllContracts-test.sol\":7986:8015  authorizedAddress[msg.sender] */\n      0xffffffffffffffffffffffffffffffffffffffff\n      and\n      0xffffffffffffffffffffffffffffffffffffffff\n      and\n      dup2\n      mstore\n      0x20\n      add\n      swap1\n      dup2\n      mstore\n      0x20\n      add\n      0x00\n      keccak256\n      0x00\n      swap1\n      sload\n      swap1\n      0x0100\n      exp\n      swap1\n      div\n      0xff\n      and\n        /* \"AllContracts-test.sol\":7961:8015  owner() == msg.sender || authorizedAddress[msg.sender] */\n    tag_238:\n        /* \"AllContracts-test.sol\":7953:8044  require(owner() == msg.sender || authorizedAddress[msg.sender], \"caller is not authorized\") */\n      tag_239\n      jumpi\n      mload(0x40)\n      0x08c379a000000000000000000000000000000000000000000000000000000000\n      dup2\n      mstore\n      0x04\n      add\n      dup1\n      dup1\n      0x20\n      add\n      dup3\n      dup2\n      sub\n      dup3\n      mstore\n      0x18\n      dup2\n      mstore\n      0x20\n      add\n      dup1\n      0x63616c6c6572206973206e6f7420617574686f72697a65640000000000000000\n      dup2\n      mstore\n      pop\n      0x20\n      add\n      swap2\n      pop\n      pop\n      mload(0x40)\n      dup1\n      swap2\n      sub\n      swap1\n      revert\n    tag_239:\n        /* \"AllContracts-test.sol\":15912:15918  uint i */\n      0x00\n        /* \"AllContracts-test.sol\":15921:15922  0 */\n      dup1\n        /* \"AllContracts-test.sol\":15912:15922  uint i = 0 */\n      swap1\n      pop\n        /* \"AllContracts-test.sol\":15907:16024  for (uint i = 0; i < userAddresses.length; i++){... */\n    tag_241:\n        /* \"AllContracts-test.sol\":15928:15941  userAddresses */\n      dup3\n        /* \"AllContracts-test.sol\":15928:15948  userAddresses.length */\n      mload\n        /* \"AllContracts-test.sol\":15924:15925  i */\n      dup2\n        /* \"AllContracts-test.sol\":15924:15948  i < userAddresses.length */\n      lt\n        /* \"AllContracts-test.sol\":15907:16024  for (uint i = 0; i < userAddresses.length; i++){... */\n      iszero\n      tag_242\n      jumpi\n        /* \"AllContracts-test.sol\":16006:16013  allowed */\n      dup2\n        /* \"AllContracts-test.sol\":15968:15985  gasFreeBetAllowed */\n      0x19\n        /* \"AllContracts-test.sol\":15968:16003  gasFreeBetAllowed[userAddresses[i]] */\n      0x00\n        /* \"AllContracts-test.sol\":15986:15999  userAddresses */\n      dup6\n        /* \"AllContracts-test.sol\":16000:16001  i */\n      dup5\n        /* \"AllContracts-test.sol\":15986:16002  userAddresses[i] */\n      dup2\n      mload\n      dup2\n      lt\n      tag_244\n      jumpi\n      invalid\n    tag_244:\n      0x20\n      mul\n      0x20\n      add\n      add\n      mload\n        /* \"AllContracts-test.sol\":15968:16003  gasFreeBetAllowed[userAddresses[i]] */\n      0xffffffffffffffffffffffffffffffffffffffff\n      and\n      0xffffffffffffffffffffffffffffffffffffffff\n      and\n      dup2\n      mstore\n      0x20\n      add\n      swap1\n      dup2\n      mstore\n      0x20\n      add\n      0x00\n      keccak256\n      0x00\n        /* \"AllContracts-test.sol\":15968:16013  gasFreeBetAllowed[userAddresses[i]] = allowed */\n      0x0100\n      exp\n      dup2\n      sload\n      dup2\n      0xff\n      mul\n      not\n      and\n      swap1\n      dup4\n      iszero\n      iszero\n      mul\n      or\n      swap1\n      sstore\n      pop\n        /* \"AllContracts-test.sol\":15950:15953  i++ */\n      dup1\n      dup1\n      0x01\n      add\n      swap2\n      pop\n      pop\n        /* \"AllContracts-test.sol\":15907:16024  for (uint i = 0; i < userAddresses.length; i++){... */\n      jump(tag_241)\n    tag_242:\n      pop\n        /* \"AllContracts-test.sol\":15805:16030  function allowGasFreeBet(address[] memory userAddresses, bool allowed) public onlyAuthorized{... */\n      pop\n      pop\n      jump\t// out\n        /* \"AllContracts-test.sol\":6347:6365  uint public minBet */\n    tag_120:\n      sload(0x13)\n      dup2\n      jump\t// out\n        /* \"AllContracts-test.sol\":17373:17463  function setKeyHash(bytes32 _keyHash) public onlyOwner {... */\n    tag_124:\n        /* \"AllContracts-test.sol\":1141:1153  _msgSender() */\n      tag_246\n        /* \"AllContracts-test.sol\":1141:1151  _msgSender */\n      tag_202\n        /* \"AllContracts-test.sol\":1141:1153  _msgSender() */\n      jump\t// in\n    tag_246:\n        /* \"AllContracts-test.sol\":1131:1153  _owner == _msgSender() */\n      0xffffffffffffffffffffffffffffffffffffffff\n      and\n        /* \"AllContracts-test.sol\":1131:1137  _owner */\n      0x03\n      0x00\n      swap1\n      sload\n      swap1\n      0x0100\n      exp\n      swap1\n      div\n      0xffffffffffffffffffffffffffffffffffffffff\n      and\n        /* \"AllContracts-test.sol\":1131:1153  _owner == _msgSender() */\n      0xffffffffffffffffffffffffffffffffffffffff\n      and\n      eq\n        /* \"AllContracts-test.sol\":1123:1190  require(_owner == _msgSender(), \"Ownable: caller is not the owner\") */\n      tag_247\n      jumpi\n      mload(0x40)\n      0x08c379a000000000000000000000000000000000000000000000000000000000\n      dup2\n      mstore\n      0x04\n      add\n      dup1\n      dup1\n      0x20\n      add\n      dup3\n      dup2\n      sub\n      dup3\n      mstore\n      0x20\n      dup2\n      mstore\n      0x20\n      add\n      dup1\n      0x4f776e61626c653a2063616c6c6572206973206e6f7420746865206f776e6572\n      dup2\n      mstore\n      pop\n      0x20\n      add\n      swap2\n      pop\n      pop\n      mload(0x40)\n      dup1\n      swap2\n      sub\n      swap1\n      revert\n    tag_247:\n        /* \"AllContracts-test.sol\":17448:17456  _keyHash */\n      dup1\n        /* \"AllContracts-test.sol\":17438:17445  keyHash */\n      0x04\n        /* \"AllContracts-test.sol\":17438:17456  keyHash = _keyHash */\n      dup2\n      swap1\n      sstore\n      pop\n        /* \"AllContracts-test.sol\":17373:17463  function setKeyHash(bytes32 _keyHash) public onlyOwner {... */\n      pop\n      jump\t// out\n        /* \"AllContracts-test.sol\":5307:5374  mapping(bytes32 /* keyHash */ => uint256 /* nonce */) public nonces */\n    tag_128:\n      mstore(0x20, 0x02)\n      dup1\n      0x00\n      mstore\n      keccak256(0x00, 0x40)\n      0x00\n      swap2\n      pop\n      swap1\n      pop\n      sload\n      dup2\n      jump\t// out\n        /* \"AllContracts-test.sol\":17653:17765  function setLINK(address _linkAddress) public onlyOwner {... */\n    tag_132:\n        /* \"AllContracts-test.sol\":1141:1153  _msgSender() */\n      tag_250\n        /* \"AllContracts-test.sol\":1141:1151  _msgSender */\n      tag_202\n        /* \"AllContracts-test.sol\":1141:1153  _msgSender() */\n      jump\t// in\n    tag_250:\n        /* \"AllContracts-test.sol\":1131:1153  _owner == _msgSender() */\n      0xffffffffffffffffffffffffffffffffffffffff\n      and\n        /* \"AllContracts-test.sol\":1131:1137  _owner */\n      0x03\n      0x00\n      swap1\n      sload\n      swap1\n      0x0100\n      exp\n      swap1\n      div\n      0xffffffffffffffffffffffffffffffffffffffff\n      and\n        /* \"AllContracts-test.sol\":1131:1153  _owner == _msgSender() */\n      0xffffffffffffffffffffffffffffffffffffffff\n      and\n      eq\n        /* \"AllContracts-test.sol\":1123:1190  require(_owner == _msgSender(), \"Ownable: caller is not the owner\") */\n      tag_251\n      jumpi\n      mload(0x40)\n      0x08c379a000000000000000000000000000000000000000000000000000000000\n      dup2\n      mstore\n      0x04\n      add\n      dup1\n      dup1\n      0x20\n      add\n      dup3\n      dup2\n      sub\n      dup3\n      mstore\n      0x20\n      dup2\n      mstore\n      0x20\n      add\n      dup1\n      0x4f776e61626c653a2063616c6c6572206973206e6f7420746865206f776e6572\n      dup2\n      mstore\n      pop\n      0x20\n      add\n      swap2\n      pop\n      pop\n      mload(0x40)\n      dup1\n      swap2\n      sub\n      swap1\n      revert\n    tag_251:\n        /* \"AllContracts-test.sol\":17745:17757  _linkAddress */\n      dup1\n        /* \"AllContracts-test.sol\":17719:17723  LINK */\n      0x00\n      dup1\n        /* \"AllContracts-test.sol\":17719:17758  LINK = LinkTokenInterface(_linkAddress) */\n      0x0100\n      exp\n      dup2\n      sload\n      dup2\n      0xffffffffffffffffffffffffffffffffffffffff\n      mul\n      not\n      and\n      swap1\n      dup4\n      0xffffffffffffffffffffffffffffffffffffffff\n      and\n      mul\n      or\n      swap1\n      sstore\n      pop\n        /* \"AllContracts-test.sol\":17653:17765  function setLINK(address _linkAddress) public onlyOwner {... */\n      pop\n      jump\t// out\n        /* \"AllContracts-test.sol\":16784:16926  function setAuthorizedUser(address userAddress, bool authorized) public onlyOwner {... */\n    tag_136:\n        /* \"AllContracts-test.sol\":1141:1153  _msgSender() */\n      tag_254\n        /* \"AllContracts-test.sol\":1141:1151  _msgSender */\n      tag_202\n        /* \"AllContracts-test.sol\":1141:1153  _msgSender() */\n      jump\t// in\n    tag_254:\n        /* \"AllContracts-test.sol\":1131:1153  _owner == _msgSender() */\n      0xffffffffffffffffffffffffffffffffffffffff\n      and\n        /* \"AllContracts-test.sol\":1131:1137  _owner */\n      0x03\n      0x00\n      swap1\n      sload\n      swap1\n      0x0100\n      exp\n      swap1\n      div\n      0xffffffffffffffffffffffffffffffffffffffff\n      and\n        /* \"AllContracts-test.sol\":1131:1153  _owner == _msgSender() */\n      0xffffffffffffffffffffffffffffffffffffffff\n      and\n      eq\n        /* \"AllContracts-test.sol\":1123:1190  require(_owner == _msgSender(), \"Ownable: caller is not the owner\") */\n      tag_255\n      jumpi\n      mload(0x40)\n      0x08c379a000000000000000000000000000000000000000000000000000000000\n      dup2\n      mstore\n      0x04\n      add\n      dup1\n      dup1\n      0x20\n      add\n      dup3\n      dup2\n      sub\n      dup3\n      mstore\n      0x20\n      dup2\n      mstore\n      0x20\n      add\n      dup1\n      0x4f776e61626c653a2063616c6c6572206973206e6f7420746865206f776e6572\n      dup2\n      mstore\n      pop\n      0x20\n      add\n      swap2\n      pop\n      pop\n      mload(0x40)\n      dup1\n      swap2\n      sub\n      swap1\n      revert\n    tag_255:\n        /* \"AllContracts-test.sol\":16909:16919  authorized */\n      dup1\n        /* \"AllContracts-test.sol\":16876:16893  authorizedAddress */\n      0x18\n        /* \"AllContracts-test.sol\":16876:16906  authorizedAddress[userAddress] */\n      0x00\n        /* \"AllContracts-test.sol\":16894:16905  userAddress */\n      dup5\n        /* \"AllContracts-test.sol\":16876:16906  authorizedAddress[userAddress] */\n      0xffffffffffffffffffffffffffffffffffffffff\n      and\n      0xffffffffffffffffffffffffffffffffffffffff\n      and\n      dup2\n      mstore\n      0x20\n      add\n      swap1\n      dup2\n      mstore\n      0x20\n      add\n      0x00\n      keccak256\n      0x00\n        /* \"AllContracts-test.sol\":16876:16919  authorizedAddress[userAddress] = authorized */\n      0x0100\n      exp\n      dup2\n      sload\n      dup2\n      0xff\n      mul\n      not\n      and\n      swap1\n      dup4\n      iszero\n      iszero\n      mul\n      or\n      swap1\n      sstore\n      pop\n        /* \"AllContracts-test.sol\":16784:16926  function setAuthorizedUser(address userAddress, bool authorized) public onlyOwner {... */\n      pop\n      pop\n      jump\t// out\n        /* \"AllContracts-test.sol\":14943:15541  function requestRefund(uint gameID) public{... */\n    tag_140:\n        /* \"AllContracts-test.sol\":14995:15009  Game storage g */\n      0x00\n        /* \"AllContracts-test.sol\":15012:15017  games */\n      0x1a\n        /* \"AllContracts-test.sol\":15012:15025  games[gameID] */\n      0x00\n        /* \"AllContracts-test.sol\":15018:15024  gameID */\n      dup4\n        /* \"AllContracts-test.sol\":15012:15025  games[gameID] */\n      dup2\n      mstore\n      0x20\n      add\n      swap1\n      dup2\n      mstore\n      0x20\n      add\n      0x00\n      keccak256\n        /* \"AllContracts-test.sol\":14995:15025  Game storage g = games[gameID] */\n      swap1\n      pop\n        /* \"AllContracts-test.sol\":15043:15060  authorizedAddress */\n      0x18\n        /* \"AllContracts-test.sol\":15043:15072  authorizedAddress[msg.sender] */\n      0x00\n        /* \"AllContracts-test.sol\":15061:15071  msg.sender */\n      caller\n        /* \"AllContracts-test.sol\":15043:15072  authorizedAddress[msg.sender] */\n      0xffffffffffffffffffffffffffffffffffffffff\n      and\n      0xffffffffffffffffffffffffffffffffffffffff\n      and\n      dup2\n      mstore\n      0x20\n      add\n      swap1\n      dup2\n      mstore\n      0x20\n      add\n      0x00\n      keccak256\n      0x00\n      swap1\n      sload\n      swap1\n      0x0100\n      exp\n      swap1\n      div\n      0xff\n      and\n        /* \"AllContracts-test.sol\":15043:15097  authorizedAddress[msg.sender] || owner() == msg.sender */\n      dup1\n      tag_258\n      jumpi\n      pop\n        /* \"AllContracts-test.sol\":15087:15097  msg.sender */\n      caller\n        /* \"AllContracts-test.sol\":15076:15097  owner() == msg.sender */\n      0xffffffffffffffffffffffffffffffffffffffff\n      and\n        /* \"AllContracts-test.sol\":15076:15083  owner() */\n      tag_259\n        /* \"AllContracts-test.sol\":15076:15081  owner */\n      tag_106\n        /* \"AllContracts-test.sol\":15076:15083  owner() */\n      jump\t// in\n    tag_259:\n        /* \"AllContracts-test.sol\":15076:15097  owner() == msg.sender */\n      0xffffffffffffffffffffffffffffffffffffffff\n      and\n      eq\n        /* \"AllContracts-test.sol\":15043:15097  authorizedAddress[msg.sender] || owner() == msg.sender */\n    tag_258:\n        /* \"AllContracts-test.sol\":15043:15123  authorizedAddress[msg.sender] || owner() == msg.sender || g.player == msg.sender */\n      dup1\n      tag_260\n      jumpi\n      pop\n        /* \"AllContracts-test.sol\":15113:15123  msg.sender */\n      caller\n        /* \"AllContracts-test.sol\":15101:15123  g.player == msg.sender */\n      0xffffffffffffffffffffffffffffffffffffffff\n      and\n        /* \"AllContracts-test.sol\":15101:15102  g */\n      dup2\n        /* \"AllContracts-test.sol\":15101:15109  g.player */\n      0x01\n      add\n      0x00\n      swap1\n      sload\n      swap1\n      0x0100\n      exp\n      swap1\n      div\n      0xffffffffffffffffffffffffffffffffffffffff\n      and\n        /* \"AllContracts-test.sol\":15101:15123  g.player == msg.sender */\n      0xffffffffffffffffffffffffffffffffffffffff\n      and\n      eq\n        /* \"AllContracts-test.sol\":15043:15123  authorizedAddress[msg.sender] || owner() == msg.sender || g.player == msg.sender */\n    tag_260:\n        /* \"AllContracts-test.sol\":15035:15160  require(authorizedAddress[msg.sender] || owner() == msg.sender || g.player == msg.sender, \"Not authorized to request refund\") */\n      tag_261\n      jumpi\n      mload(0x40)\n      0x08c379a000000000000000000000000000000000000000000000000000000000\n      dup2\n      mstore\n      0x04\n      add\n      dup1\n      dup1\n      0x20\n      add\n      dup3\n      dup2\n      sub\n      dup3\n      mstore\n      0x20\n      dup2\n      mstore\n      0x20\n      add\n      dup1\n      0x4e6f7420617574686f72697a656420746f207265717565737420726566756e64\n      dup2\n      mstore\n      pop\n      0x20\n      add\n      swap2\n      pop\n      pop\n      mload(0x40)\n      dup1\n      swap2\n      sub\n      swap1\n      revert\n    tag_261:\n        /* \"AllContracts-test.sol\":15190:15195  false */\n      0x00\n        /* \"AllContracts-test.sol\":15178:15195  g.played == false */\n      iszero\n      iszero\n        /* \"AllContracts-test.sol\":15178:15179  g */\n      dup2\n        /* \"AllContracts-test.sol\":15178:15186  g.played */\n      0x05\n      add\n      0x00\n      swap1\n      sload\n      swap1\n      0x0100\n      exp\n      swap1\n      div\n      0xff\n      and\n        /* \"AllContracts-test.sol\":15178:15195  g.played == false */\n      iszero\n      iszero\n      eq\n        /* \"AllContracts-test.sol\":15170:15242  require(g.played == false, \"Game already complete. No refund possible.\") */\n      tag_262\n      jumpi\n      mload(0x40)\n      0x08c379a000000000000000000000000000000000000000000000000000000000\n      dup2\n      mstore\n      0x04\n      add\n      dup1\n      dup1\n      0x20\n      add\n      dup3\n      dup2\n      sub\n      dup3\n      mstore\n      0x2a\n      dup2\n      mstore\n      0x20\n      add\n      dup1\n      data_c34c85fa0e0680ac47dc2c21fdf93b1adcc71d9a1a3b3b1788b881c3f4f390ac\n      0x2a\n      swap2\n      codecopy\n      0x40\n      add\n      swap2\n      pop\n      pop\n      mload(0x40)\n      dup1\n      swap2\n      sub\n      swap1\n      revert\n    tag_262:\n        /* \"AllContracts-test.sol\":15285:15286  g */\n      dup1\n        /* \"AllContracts-test.sol\":15285:15290  g.bet */\n      0x02\n      add\n      sload\n        /* \"AllContracts-test.sol\":15260:15281  address(this).balance */\n      selfbalance\n        /* \"AllContracts-test.sol\":15260:15290  address(this).balance >= g.bet */\n      lt\n      iszero\n        /* \"AllContracts-test.sol\":15252:15344  require(address(this).balance >= g.bet, \"Contract balance too low. Please try again later.\") */\n      tag_263\n      jumpi\n      mload(0x40)\n      0x08c379a000000000000000000000000000000000000000000000000000000000\n      dup2\n      mstore\n      0x04\n      add\n      dup1\n      dup1\n      0x20\n      add\n      dup3\n      dup2\n      sub\n      dup3\n      mstore\n      0x31\n      dup2\n      mstore\n      0x20\n      add\n      dup1\n      data_b719f220e413600c7e92ed4736b96c6908e0428122610fe965fcc60eefeedbad\n      0x31\n      swap2\n      codecopy\n      0x40\n      add\n      swap2\n      pop\n      pop\n      mload(0x40)\n      dup1\n      swap2\n      sub\n      swap1\n      revert\n    tag_263:\n        /* \"AllContracts-test.sol\":15365:15369  true */\n      0x01\n        /* \"AllContracts-test.sol\":15354:15355  g */\n      dup2\n        /* \"AllContracts-test.sol\":15354:15362  g.played */\n      0x05\n      add\n      0x00\n        /* \"AllContracts-test.sol\":15354:15369  g.played = true */\n      0x0100\n      exp\n      dup2\n      sload\n      dup2\n      0xff\n      mul\n      not\n      and\n      swap1\n      dup4\n      iszero\n      iszero\n      mul\n      or\n      swap1\n      sstore\n      pop\n        /* \"AllContracts-test.sol\":15399:15400  g */\n      dup1\n        /* \"AllContracts-test.sol\":15399:15404  g.bet */\n      0x02\n      add\n      sload\n        /* \"AllContracts-test.sol\":15382:15395  _unplayedBets */\n      sload(0x14)\n        /* \"AllContracts-test.sol\":15382:15404  _unplayedBets >= g.bet */\n      lt\n        /* \"AllContracts-test.sol\":15379:15501  if(_unplayedBets >= g.bet) {... */\n      tag_264\n      jumpi\n        /* \"AllContracts-test.sol\":15437:15438  g */\n      dup1\n        /* \"AllContracts-test.sol\":15437:15442  g.bet */\n      0x02\n      add\n      sload\n        /* \"AllContracts-test.sol\":15420:15433  _unplayedBets */\n      0x14\n      0x00\n        /* \"AllContracts-test.sol\":15420:15442  _unplayedBets -= g.bet */\n      dup3\n      dup3\n      sload\n      sub\n      swap3\n      pop\n      pop\n      dup2\n      swap1\n      sstore\n      pop\n        /* \"AllContracts-test.sol\":15379:15501  if(_unplayedBets >= g.bet) {... */\n      jump(tag_265)\n    tag_264:\n        /* \"AllContracts-test.sol\":15489:15490  0 */\n      0x00\n        /* \"AllContracts-test.sol\":15473:15486  _unplayedBets */\n      0x14\n        /* \"AllContracts-test.sol\":15473:15490  _unplayedBets = 0 */\n      dup2\n      swap1\n      sstore\n      pop\n        /* \"AllContracts-test.sol\":15379:15501  if(_unplayedBets >= g.bet) {... */\n    tag_265:\n        /* \"AllContracts-test.sol\":15510:15511  g */\n      dup1\n        /* \"AllContracts-test.sol\":15510:15518  g.player */\n      0x01\n      add\n      0x00\n      swap1\n      sload\n      swap1\n      0x0100\n      exp\n      swap1\n      div\n      0xffffffffffffffffffffffffffffffffffffffff\n      and\n        /* \"AllContracts-test.sol\":15510:15527  g.player.transfer */\n      0xffffffffffffffffffffffffffffffffffffffff\n      and\n        /* \"AllContracts-test.sol\":15510:15534  g.player.transfer(g.bet) */\n      0x08fc\n        /* \"AllContracts-test.sol\":15528:15529  g */\n      dup3\n        /* \"AllContracts-test.sol\":15528:15533  g.bet */\n      0x02\n      add\n      sload\n        /* \"AllContracts-test.sol\":15510:15534  g.player.transfer(g.bet) */\n      swap1\n      dup2\n      iszero\n      mul\n      swap1\n      mload(0x40)\n      0x00\n      mload(0x40)\n      dup1\n      dup4\n      sub\n      dup2\n      dup6\n      dup9\n      dup9\n      call\n      swap4\n      pop\n      pop\n      pop\n      pop\n      iszero\n        /* \"--CODEGEN--\":8:17   */\n      dup1\n        /* \"--CODEGEN--\":5:7   */\n      iszero\n      tag_267\n      jumpi\n        /* \"--CODEGEN--\":45:61   */\n      returndatasize\n        /* \"--CODEGEN--\":42:43   */\n      0x00\n        /* \"--CODEGEN--\":39:40   */\n      dup1\n        /* \"--CODEGEN--\":24:62   */\n      returndatacopy\n        /* \"--CODEGEN--\":77:93   */\n      returndatasize\n        /* \"--CODEGEN--\":74:75   */\n      0x00\n        /* \"--CODEGEN--\":67:94   */\n      revert\n        /* \"--CODEGEN--\":5:7   */\n    tag_267:\n        /* \"AllContracts-test.sol\":15510:15534  g.player.transfer(g.bet) */\n      pop\n        /* \"AllContracts-test.sol\":14943:15541  function requestRefund(uint gameID) public{... */\n      pop\n      pop\n      jump\t// out\n        /* \"AllContracts-test.sol\":9040:9669  function placeBetFor(address payable player, uint pick) public payable{... */\n    tag_143:\n        /* \"AllContracts-test.sol\":9141:9147  minBet */\n      sload(0x13)\n        /* \"AllContracts-test.sol\":9128:9137  msg.value */\n      callvalue\n        /* \"AllContracts-test.sol\":9128:9147  msg.value >= minBet */\n      lt\n      iszero\n        /* \"AllContracts-test.sol\":9120:9171  require(msg.value >= minBet, \"minimum bet not met\") */\n      tag_269\n      jumpi\n      mload(0x40)\n      0x08c379a000000000000000000000000000000000000000000000000000000000\n      dup2\n      mstore\n      0x04\n      add\n      dup1\n      dup1\n      0x20\n      add\n      dup3\n      dup2\n      sub\n      dup3\n      mstore\n      0x13\n      dup2\n      mstore\n      0x20\n      add\n      dup1\n      0x6d696e696d756d20626574206e6f74206d657400000000000000000000000000\n      dup2\n      mstore\n      pop\n      0x20\n      add\n      swap2\n      pop\n      pop\n      mload(0x40)\n      dup1\n      swap2\n      sub\n      swap1\n      revert\n    tag_269:\n        /* \"AllContracts-test.sol\":9192:9193  1 */\n      0x01\n        /* \"AllContracts-test.sol\":9184:9188  gas1 */\n      sload(0x06)\n        /* \"AllContracts-test.sol\":9184:9193  gas1 == 1 */\n      eq\n        /* \"AllContracts-test.sol\":9181:9483  if(gas1 == 1) {... */\n      iszero\n      tag_270\n      jumpi\n        /* \"AllContracts-test.sol\":9216:9220  gas1 */\n      0x06\n        /* \"AllContracts-test.sol\":9209:9220  delete gas1 */\n      0x00\n      swap1\n      sstore\n        /* \"AllContracts-test.sol\":9241:9245  gas2 */\n      0x07\n        /* \"AllContracts-test.sol\":9234:9245  delete gas2 */\n      0x00\n      swap1\n      sstore\n        /* \"AllContracts-test.sol\":9266:9270  gas3 */\n      0x08\n        /* \"AllContracts-test.sol\":9259:9270  delete gas3 */\n      0x00\n      swap1\n      sstore\n        /* \"AllContracts-test.sol\":9291:9295  gas4 */\n      0x09\n        /* \"AllContracts-test.sol\":9284:9295  delete gas4 */\n      0x00\n      swap1\n      sstore\n        /* \"AllContracts-test.sol\":9316:9320  gas5 */\n      0x0a\n        /* \"AllContracts-test.sol\":9309:9320  delete gas5 */\n      0x00\n      swap1\n      sstore\n        /* \"AllContracts-test.sol\":9341:9345  gas6 */\n      0x0b\n        /* \"AllContracts-test.sol\":9334:9345  delete gas6 */\n      0x00\n      swap1\n      sstore\n        /* \"AllContracts-test.sol\":9366:9370  gas7 */\n      0x0c\n        /* \"AllContracts-test.sol\":9359:9370  delete gas7 */\n      0x00\n      swap1\n      sstore\n        /* \"AllContracts-test.sol\":9391:9395  gas8 */\n      0x0d\n        /* \"AllContracts-test.sol\":9384:9395  delete gas8 */\n      0x00\n      swap1\n      sstore\n        /* \"AllContracts-test.sol\":9416:9420  gas9 */\n      0x0e\n        /* \"AllContracts-test.sol\":9409:9420  delete gas9 */\n      0x00\n      swap1\n      sstore\n        /* \"AllContracts-test.sol\":9441:9446  gas10 */\n      0x0f\n        /* \"AllContracts-test.sol\":9434:9446  delete gas10 */\n      0x00\n      swap1\n      sstore\n        /* \"AllContracts-test.sol\":9467:9472  gas11 */\n      0x10\n        /* \"AllContracts-test.sol\":9460:9472  delete gas11 */\n      0x00\n      swap1\n      sstore\n        /* \"AllContracts-test.sol\":9181:9483  if(gas1 == 1) {... */\n    tag_270:\n        /* \"AllContracts-test.sol\":9509:9537  _unplayedBets.add(msg.value) */\n      tag_271\n        /* \"AllContracts-test.sol\":9527:9536  msg.value */\n      callvalue\n        /* \"AllContracts-test.sol\":9509:9522  _unplayedBets */\n      sload(0x14)\n        /* \"AllContracts-test.sol\":9509:9526  _unplayedBets.add */\n      tag_184\n      swap1\n        /* \"AllContracts-test.sol\":9509:9537  _unplayedBets.add(msg.value) */\n      swap2\n      swap1\n      0xffffffff\n      and\n      jump\t// in\n    tag_271:\n        /* \"AllContracts-test.sol\":9493:9506  _unplayedBets */\n      0x14\n        /* \"AllContracts-test.sol\":9493:9537  _unplayedBets = _unplayedBets.add(msg.value) */\n      dup2\n      swap1\n      sstore\n      pop\n        /* \"AllContracts-test.sol\":9547:9582  createGame(player, msg.value, pick) */\n      tag_272\n        /* \"AllContracts-test.sol\":9558:9564  player */\n      dup3\n        /* \"AllContracts-test.sol\":9566:9575  msg.value */\n      callvalue\n        /* \"AllContracts-test.sol\":9577:9581  pick */\n      dup4\n        /* \"AllContracts-test.sol\":9547:9557  createGame */\n      tag_273\n        /* \"AllContracts-test.sol\":9547:9582  createGame(player, msg.value, pick) */\n      jump\t// in\n    tag_272:\n        /* \"AllContracts-test.sol\":9592:9614  playGame(_currentGame) */\n      tag_274\n        /* \"AllContracts-test.sol\":9601:9613  _currentGame */\n      sload(0x15)\n        /* \"AllContracts-test.sol\":9592:9600  playGame */\n      tag_275\n        /* \"AllContracts-test.sol\":9592:9614  playGame(_currentGame) */\n      jump\t// in\n    tag_274:\n        /* \"AllContracts-test.sol\":9650:9662  _currentGame */\n      sload(0x15)\n        /* \"AllContracts-test.sol\":9624:9639  lastGameCreated */\n      0x1c\n        /* \"AllContracts-test.sol\":9624:9647  lastGameCreated[player] */\n      0x00\n        /* \"AllContracts-test.sol\":9640:9646  player */\n      dup5\n        /* \"AllContracts-test.sol\":9624:9647  lastGameCreated[player] */\n      0xffffffffffffffffffffffffffffffffffffffff\n      and\n      0xffffffffffffffffffffffffffffffffffffffff\n      and\n      dup2\n      mstore\n      0x20\n      add\n      swap1\n      dup2\n      mstore\n      0x20\n      add\n      0x00\n      keccak256\n        /* \"AllContracts-test.sol\":9624:9662  lastGameCreated[player] = _currentGame */\n      dup2\n      swap1\n      sstore\n      pop\n        /* \"AllContracts-test.sol\":9040:9669  function placeBetFor(address payable player, uint pick) public payable{... */\n      pop\n      pop\n      jump\t// out\n        /* \"AllContracts-test.sol\":6783:6830  mapping(address => uint) public lastGameCreated */\n    tag_147:\n      mstore(0x20, 0x1c)\n      dup1\n      0x00\n      mstore\n      keccak256(0x00, 0x40)\n      0x00\n      swap2\n      pop\n      swap1\n      pop\n      sload\n      dup2\n      jump\t// out\n        /* \"AllContracts-test.sol\":18423:18745  function closeMachine() public onlyOwner {... */\n    tag_150:\n        /* \"AllContracts-test.sol\":1141:1153  _msgSender() */\n      tag_277\n        /* \"AllContracts-test.sol\":1141:1151  _msgSender */\n      tag_202\n        /* \"AllContracts-test.sol\":1141:1153  _msgSender() */\n      jump\t// in\n    tag_277:\n        /* \"AllContracts-test.sol\":1131:1153  _owner == _msgSender() */\n      0xffffffffffffffffffffffffffffffffffffffff\n      and\n        /* \"AllContracts-test.sol\":1131:1137  _owner */\n      0x03\n      0x00\n      swap1\n      sload\n      swap1\n      0x0100\n      exp\n      swap1\n      div\n      0xffffffffffffffffffffffffffffffffffffffff\n      and\n        /* \"AllContracts-test.sol\":1131:1153  _owner == _msgSender() */\n      0xffffffffffffffffffffffffffffffffffffffff\n      and\n      eq\n        /* \"AllContracts-test.sol\":1123:1190  require(_owner == _msgSender(), \"Ownable: caller is not the owner\") */\n      tag_278\n      jumpi\n      mload(0x40)\n      0x08c379a000000000000000000000000000000000000000000000000000000000\n      dup2\n      mstore\n      0x04\n      add\n      dup1\n      dup1\n      0x20\n      add\n      dup3\n      dup2\n      sub\n      dup3\n      mstore\n      0x20\n      dup2\n      mstore\n      0x20\n      add\n      dup1\n      0x4f776e61626c653a2063616c6c6572206973206e6f7420746865206f776e6572\n      dup2\n      mstore\n      pop\n      0x20\n      add\n      swap2\n      pop\n      pop\n      mload(0x40)\n      dup1\n      swap2\n      sub\n      swap1\n      revert\n    tag_278:\n        /* \"AllContracts-test.sol\":18474:18503  uint availableContractBalance */\n      0x00\n        /* \"AllContracts-test.sol\":18506:18546  address(this).balance.sub(_unplayedBets) */\n      tag_280\n        /* \"AllContracts-test.sol\":18532:18545  _unplayedBets */\n      sload(0x14)\n        /* \"AllContracts-test.sol\":18506:18527  address(this).balance */\n      selfbalance\n        /* \"AllContracts-test.sol\":18506:18531  address(this).balance.sub */\n      tag_186\n      swap1\n        /* \"AllContracts-test.sol\":18506:18546  address(this).balance.sub(_unplayedBets) */\n      swap2\n      swap1\n      0xffffffff\n      and\n      jump\t// in\n    tag_280:\n        /* \"AllContracts-test.sol\":18474:18546  uint availableContractBalance = address(this).balance.sub(_unplayedBets) */\n      swap1\n      pop\n        /* \"AllContracts-test.sol\":18556:18569  payoutAddress */\n      0x16\n      0x00\n      swap1\n      sload\n      swap1\n      0x0100\n      exp\n      swap1\n      div\n      0xffffffffffffffffffffffffffffffffffffffff\n      and\n        /* \"AllContracts-test.sol\":18556:18578  payoutAddress.transfer */\n      0xffffffffffffffffffffffffffffffffffffffff\n      and\n        /* \"AllContracts-test.sol\":18556:18604  payoutAddress.transfer(availableContractBalance) */\n      0x08fc\n        /* \"AllContracts-test.sol\":18579:18603  availableContractBalance */\n      dup3\n        /* \"AllContracts-test.sol\":18556:18604  payoutAddress.transfer(availableContractBalance) */\n      swap1\n      dup2\n      iszero\n      mul\n      swap1\n      mload(0x40)\n      0x00\n      mload(0x40)\n      dup1\n      dup4\n      sub\n      dup2\n      dup6\n      dup9\n      dup9\n      call\n      swap4\n      pop\n      pop\n      pop\n      pop\n      iszero\n        /* \"--CODEGEN--\":8:17   */\n      dup1\n        /* \"--CODEGEN--\":5:7   */\n      iszero\n      tag_282\n      jumpi\n        /* \"--CODEGEN--\":45:61   */\n      returndatasize\n        /* \"--CODEGEN--\":42:43   */\n      0x00\n        /* \"--CODEGEN--\":39:40   */\n      dup1\n        /* \"--CODEGEN--\":24:62   */\n      returndatacopy\n        /* \"--CODEGEN--\":77:93   */\n      returndatasize\n        /* \"--CODEGEN--\":74:75   */\n      0x00\n        /* \"--CODEGEN--\":67:94   */\n      revert\n        /* \"--CODEGEN--\":5:7   */\n    tag_282:\n        /* \"AllContracts-test.sol\":18556:18604  payoutAddress.transfer(availableContractBalance) */\n      pop\n        /* \"AllContracts-test.sol\":18651:18652  0 */\n      0x00\n        /* \"AllContracts-test.sol\":18619:18623  LINK */\n      dup1\n      0x00\n      swap1\n      sload\n      swap1\n      0x0100\n      exp\n      swap1\n      div\n      0xffffffffffffffffffffffffffffffffffffffff\n      and\n        /* \"AllContracts-test.sol\":18619:18633  LINK.balanceOf */\n      0xffffffffffffffffffffffffffffffffffffffff\n      and\n      0x70a08231\n        /* \"AllContracts-test.sol\":18642:18646  this */\n      address\n        /* \"AllContracts-test.sol\":18619:18648  LINK.balanceOf(address(this)) */\n      mload(0x40)\n      dup3\n      0xffffffff\n      and\n      0xe0\n      shl\n      dup2\n      mstore\n      0x04\n      add\n      dup1\n      dup3\n      0xffffffffffffffffffffffffffffffffffffffff\n      and\n      0xffffffffffffffffffffffffffffffffffffffff\n      and\n      dup2\n      mstore\n      0x20\n      add\n      swap2\n      pop\n      pop\n      0x20\n      mload(0x40)\n      dup1\n      dup4\n      sub\n      dup2\n      dup7\n      dup1\n      extcodesize\n      iszero\n        /* \"--CODEGEN--\":8:17   */\n      dup1\n        /* \"--CODEGEN--\":5:7   */\n      iszero\n      tag_283\n      jumpi\n        /* \"--CODEGEN--\":30:31   */\n      0x00\n        /* \"--CODEGEN--\":27:28   */\n      dup1\n        /* \"--CODEGEN--\":20:32   */\n      revert\n        /* \"--CODEGEN--\":5:7   */\n    tag_283:\n        /* \"AllContracts-test.sol\":18619:18648  LINK.balanceOf(address(this)) */\n      pop\n      gas\n      staticcall\n      iszero\n        /* \"--CODEGEN--\":8:17   */\n      dup1\n        /* \"--CODEGEN--\":5:7   */\n      iszero\n      tag_285\n      jumpi\n        /* \"--CODEGEN--\":45:61   */\n      returndatasize\n        /* \"--CODEGEN--\":42:43   */\n      0x00\n        /* \"--CODEGEN--\":39:40   */\n      dup1\n        /* \"--CODEGEN--\":24:62   */\n      returndatacopy\n        /* \"--CODEGEN--\":77:93   */\n      returndatasize\n        /* \"--CODEGEN--\":74:75   */\n      0x00\n        /* \"--CODEGEN--\":67:94   */\n      revert\n        /* \"--CODEGEN--\":5:7   */\n    tag_285:\n        /* \"AllContracts-test.sol\":18619:18648  LINK.balanceOf(address(this)) */\n      pop\n      pop\n      pop\n      pop\n      mload(0x40)\n      returndatasize\n        /* \"--CODEGEN--\":13:15   */\n      0x20\n        /* \"--CODEGEN--\":8:11   */\n      dup2\n        /* \"--CODEGEN--\":5:16   */\n      lt\n        /* \"--CODEGEN--\":2:4   */\n      iszero\n      tag_286\n      jumpi\n        /* \"--CODEGEN--\":29:30   */\n      0x00\n        /* \"--CODEGEN--\":26:27   */\n      dup1\n        /* \"--CODEGEN--\":19:31   */\n      revert\n        /* \"--CODEGEN--\":2:4   */\n    tag_286:\n        /* \"AllContracts-test.sol\":18619:18648  LINK.balanceOf(address(this)) */\n      dup2\n      add\n      swap1\n      dup1\n      dup1\n      mload\n      swap1\n      0x20\n      add\n      swap1\n      swap3\n      swap2\n      swap1\n      pop\n      pop\n      pop\n        /* \"AllContracts-test.sol\":18619:18652  LINK.balanceOf(address(this)) > 0 */\n      gt\n        /* \"AllContracts-test.sol\":18615:18738  if (LINK.balanceOf(address(this)) > 0) {... */\n      iszero\n      tag_287\n      jumpi\n        /* \"AllContracts-test.sol\":18668:18672  LINK */\n      0x00\n      dup1\n      swap1\n      sload\n      swap1\n      0x0100\n      exp\n      swap1\n      div\n      0xffffffffffffffffffffffffffffffffffffffff\n      and\n        /* \"AllContracts-test.sol\":18668:18681  LINK.transfer */\n      0xffffffffffffffffffffffffffffffffffffffff\n      and\n      0xa9059cbb\n        /* \"AllContracts-test.sol\":18682:18695  payoutAddress */\n      0x16\n      0x00\n      swap1\n      sload\n      swap1\n      0x0100\n      exp\n      swap1\n      div\n      0xffffffffffffffffffffffffffffffffffffffff\n      and\n        /* \"AllContracts-test.sol\":18697:18701  LINK */\n      0x00\n      dup1\n      swap1\n      sload\n      swap1\n      0x0100\n      exp\n      swap1\n      div\n      0xffffffffffffffffffffffffffffffffffffffff\n      and\n        /* \"AllContracts-test.sol\":18697:18711  LINK.balanceOf */\n      0xffffffffffffffffffffffffffffffffffffffff\n      and\n      0x70a08231\n        /* \"AllContracts-test.sol\":18720:18724  this */\n      address\n        /* \"AllContracts-test.sol\":18697:18726  LINK.balanceOf(address(this)) */\n      mload(0x40)\n      dup3\n      0xffffffff\n      and\n      0xe0\n      shl\n      dup2\n      mstore\n      0x04\n      add\n      dup1\n      dup3\n      0xffffffffffffffffffffffffffffffffffffffff\n      and\n      0xffffffffffffffffffffffffffffffffffffffff\n      and\n      dup2\n      mstore\n      0x20\n      add\n      swap2\n      pop\n      pop\n      0x20\n      mload(0x40)\n      dup1\n      dup4\n      sub\n      dup2\n      dup7\n      dup1\n      extcodesize\n      iszero\n        /* \"--CODEGEN--\":8:17   */\n      dup1\n        /* \"--CODEGEN--\":5:7   */\n      iszero\n      tag_288\n      jumpi\n        /* \"--CODEGEN--\":30:31   */\n      0x00\n        /* \"--CODEGEN--\":27:28   */\n      dup1\n        /* \"--CODEGEN--\":20:32   */\n      revert\n        /* \"--CODEGEN--\":5:7   */\n    tag_288:\n        /* \"AllContracts-test.sol\":18697:18726  LINK.balanceOf(address(this)) */\n      pop\n      gas\n      staticcall\n      iszero\n        /* \"--CODEGEN--\":8:17   */\n      dup1\n        /* \"--CODEGEN--\":5:7   */\n      iszero\n      tag_290\n      jumpi\n        /* \"--CODEGEN--\":45:61   */\n      returndatasize\n        /* \"--CODEGEN--\":42:43   */\n      0x00\n        /* \"--CODEGEN--\":39:40   */\n      dup1\n        /* \"--CODEGEN--\":24:62   */\n      returndatacopy\n        /* \"--CODEGEN--\":77:93   */\n      returndatasize\n        /* \"--CODEGEN--\":74:75   */\n      0x00\n        /* \"--CODEGEN--\":67:94   */\n      revert\n        /* \"--CODEGEN--\":5:7   */\n    tag_290:\n        /* \"AllContracts-test.sol\":18697:18726  LINK.balanceOf(address(this)) */\n      pop\n      pop\n      pop\n      pop\n      mload(0x40)\n      returndatasize\n        /* \"--CODEGEN--\":13:15   */\n      0x20\n        /* \"--CODEGEN--\":8:11   */\n      dup2\n        /* \"--CODEGEN--\":5:16   */\n      lt\n        /* \"--CODEGEN--\":2:4   */\n      iszero\n      tag_291\n      jumpi\n        /* \"--CODEGEN--\":29:30   */\n      0x00\n        /* \"--CODEGEN--\":26:27   */\n      dup1\n        /* \"--CODEGEN--\":19:31   */\n      revert\n        /* \"--CODEGEN--\":2:4   */\n    tag_291:\n        /* \"AllContracts-test.sol\":18697:18726  LINK.balanceOf(address(this)) */\n      dup2\n      add\n      swap1\n      dup1\n      dup1\n      mload\n      swap1\n      0x20\n      add\n      swap1\n      swap3\n      swap2\n      swap1\n      pop\n      pop\n      pop\n        /* \"AllContracts-test.sol\":18668:18727  LINK.transfer(payoutAddress, LINK.balanceOf(address(this))) */\n      mload(0x40)\n      dup4\n      0xffffffff\n      and\n      0xe0\n      shl\n      dup2\n      mstore\n      0x04\n      add\n      dup1\n      dup4\n      0xffffffffffffffffffffffffffffffffffffffff\n      and\n      0xffffffffffffffffffffffffffffffffffffffff\n      and\n      dup2\n      mstore\n      0x20\n      add\n      dup3\n      dup2\n      mstore\n      0x20\n      add\n      swap3\n      pop\n      pop\n      pop\n      0x20\n      mload(0x40)\n      dup1\n      dup4\n      sub\n      dup2\n      0x00\n      dup8\n      dup1\n      extcodesize\n      iszero\n        /* \"--CODEGEN--\":8:17   */\n      dup1\n        /* \"--CODEGEN--\":5:7   */\n      iszero\n      tag_292\n      jumpi\n        /* \"--CODEGEN--\":30:31   */\n      0x00\n        /* \"--CODEGEN--\":27:28   */\n      dup1\n        /* \"--CODEGEN--\":20:32   */\n      revert\n        /* \"--CODEGEN--\":5:7   */\n    tag_292:\n        /* \"AllContracts-test.sol\":18668:18727  LINK.transfer(payoutAddress, LINK.balanceOf(address(this))) */\n      pop\n      gas\n      call\n      iszero\n        /* \"--CODEGEN--\":8:17   */\n      dup1\n        /* \"--CODEGEN--\":5:7   */\n      iszero\n      tag_294\n      jumpi\n        /* \"--CODEGEN--\":45:61   */\n      returndatasize\n        /* \"--CODEGEN--\":42:43   */\n      0x00\n        /* \"--CODEGEN--\":39:40   */\n      dup1\n        /* \"--CODEGEN--\":24:62   */\n      returndatacopy\n        /* \"--CODEGEN--\":77:93   */\n      returndatasize\n        /* \"--CODEGEN--\":74:75   */\n      0x00\n        /* \"--CODEGEN--\":67:94   */\n      revert\n        /* \"--CODEGEN--\":5:7   */\n    tag_294:\n        /* \"AllContracts-test.sol\":18668:18727  LINK.transfer(payoutAddress, LINK.balanceOf(address(this))) */\n      pop\n      pop\n      pop\n      pop\n      mload(0x40)\n      returndatasize\n        /* \"--CODEGEN--\":13:15   */\n      0x20\n        /* \"--CODEGEN--\":8:11   */\n      dup2\n        /* \"--CODEGEN--\":5:16   */\n      lt\n        /* \"--CODEGEN--\":2:4   */\n      iszero\n      tag_295\n      jumpi\n        /* \"--CODEGEN--\":29:30   */\n      0x00\n        /* \"--CODEGEN--\":26:27   */\n      dup1\n        /* \"--CODEGEN--\":19:31   */\n      revert\n        /* \"--CODEGEN--\":2:4   */\n    tag_295:\n        /* \"AllContracts-test.sol\":18668:18727  LINK.transfer(payoutAddress, LINK.balanceOf(address(this))) */\n      dup2\n      add\n      swap1\n      dup1\n      dup1\n      mload\n      swap1\n      0x20\n      add\n      swap1\n      swap3\n      swap2\n      swap1\n      pop\n      pop\n      pop\n      pop\n        /* \"AllContracts-test.sol\":18615:18738  if (LINK.balanceOf(address(this)) > 0) {... */\n    tag_287:\n        /* \"AllContracts-test.sol\":1200:1201  _ */\n      pop\n        /* \"AllContracts-test.sol\":18423:18745  function closeMachine() public onlyOwner {... */\n      jump\t// out\n        /* \"AllContracts-test.sol\":16194:16398  function withdrawEth(uint amount) public onlyAuthorized {... */\n    tag_154:\n        /* \"AllContracts-test.sol\":7972:7982  msg.sender */\n      caller\n        /* \"AllContracts-test.sol\":7961:7982  owner() == msg.sender */\n      0xffffffffffffffffffffffffffffffffffffffff\n      and\n        /* \"AllContracts-test.sol\":7961:7968  owner() */\n      tag_297\n        /* \"AllContracts-test.sol\":7961:7966  owner */\n      tag_106\n        /* \"AllContracts-test.sol\":7961:7968  owner() */\n      jump\t// in\n    tag_297:\n        /* \"AllContracts-test.sol\":7961:7982  owner() == msg.sender */\n      0xffffffffffffffffffffffffffffffffffffffff\n      and\n      eq\n        /* \"AllContracts-test.sol\":7961:8015  owner() == msg.sender || authorizedAddress[msg.sender] */\n      dup1\n      tag_298\n      jumpi\n      pop\n        /* \"AllContracts-test.sol\":7986:8003  authorizedAddress */\n      0x18\n        /* \"AllContracts-test.sol\":7986:8015  authorizedAddress[msg.sender] */\n      0x00\n        /* \"AllContracts-test.sol\":8004:8014  msg.sender */\n      caller\n        /* \"AllContracts-test.sol\":7986:8015  authorizedAddress[msg.sender] */\n      0xffffffffffffffffffffffffffffffffffffffff\n      and\n      0xffffffffffffffffffffffffffffffffffffffff\n      and\n      dup2\n      mstore\n      0x20\n      add\n      swap1\n      dup2\n      mstore\n      0x20\n      add\n      0x00\n      keccak256\n      0x00\n      swap1\n      sload\n      swap1\n      0x0100\n      exp\n      swap1\n      div\n      0xff\n      and\n        /* \"AllContracts-test.sol\":7961:8015  owner() == msg.sender || authorizedAddress[msg.sender] */\n    tag_298:\n        /* \"AllContracts-test.sol\":7953:8044  require(owner() == msg.sender || authorizedAddress[msg.sender], \"caller is not authorized\") */\n      tag_299\n      jumpi\n      mload(0x40)\n      0x08c379a000000000000000000000000000000000000000000000000000000000\n      dup2\n      mstore\n      0x04\n      add\n      dup1\n      dup1\n      0x20\n      add\n      dup3\n      dup2\n      sub\n      dup3\n      mstore\n      0x18\n      dup2\n      mstore\n      0x20\n      add\n      dup1\n      0x63616c6c6572206973206e6f7420617574686f72697a65640000000000000000\n      dup2\n      mstore\n      pop\n      0x20\n      add\n      swap2\n      pop\n      pop\n      mload(0x40)\n      dup1\n      swap2\n      sub\n      swap1\n      revert\n    tag_299:\n        /* \"AllContracts-test.sol\":16305:16318  _unplayedBets */\n      sload(0x14)\n        /* \"AllContracts-test.sol\":16294:16300  amount */\n      dup2\n        /* \"AllContracts-test.sol\":16270:16291  address(this).balance */\n      selfbalance\n        /* \"AllContracts-test.sol\":16270:16300  address(this).balance - amount */\n      sub\n        /* \"AllContracts-test.sol\":16269:16318  (address(this).balance - amount) >= _unplayedBets */\n      lt\n      iszero\n        /* \"AllContracts-test.sol\":16260:16351  require ((address(this).balance - amount) >= _unplayedBets, \"Can't withdraw unplayed bets\") */\n      tag_301\n      jumpi\n      mload(0x40)\n      0x08c379a000000000000000000000000000000000000000000000000000000000\n      dup2\n      mstore\n      0x04\n      add\n      dup1\n      dup1\n      0x20\n      add\n      dup3\n      dup2\n      sub\n      dup3\n      mstore\n      0x1c\n      dup2\n      mstore\n      0x20\n      add\n      dup1\n      0x43616e277420776974686472617720756e706c61796564206265747300000000\n      dup2\n      mstore\n      pop\n      0x20\n      add\n      swap2\n      pop\n      pop\n      mload(0x40)\n      dup1\n      swap2\n      sub\n      swap1\n      revert\n    tag_301:\n        /* \"AllContracts-test.sol\":16361:16374  payoutAddress */\n      0x16\n      0x00\n      swap1\n      sload\n      swap1\n      0x0100\n      exp\n      swap1\n      div\n      0xffffffffffffffffffffffffffffffffffffffff\n      and\n        /* \"AllContracts-test.sol\":16361:16383  payoutAddress.transfer */\n      0xffffffffffffffffffffffffffffffffffffffff\n      and\n        /* \"AllContracts-test.sol\":16361:16391  payoutAddress.transfer(amount) */\n      0x08fc\n        /* \"AllContracts-test.sol\":16384:16390  amount */\n      dup3\n        /* \"AllContracts-test.sol\":16361:16391  payoutAddress.transfer(amount) */\n      swap1\n      dup2\n      iszero\n      mul\n      swap1\n      mload(0x40)\n      0x00\n      mload(0x40)\n      dup1\n      dup4\n      sub\n      dup2\n      dup6\n      dup9\n      dup9\n      call\n      swap4\n      pop\n      pop\n      pop\n      pop\n      iszero\n        /* \"--CODEGEN--\":8:17   */\n      dup1\n        /* \"--CODEGEN--\":5:7   */\n      iszero\n      tag_303\n      jumpi\n        /* \"--CODEGEN--\":45:61   */\n      returndatasize\n        /* \"--CODEGEN--\":42:43   */\n      0x00\n        /* \"--CODEGEN--\":39:40   */\n      dup1\n        /* \"--CODEGEN--\":24:62   */\n      returndatacopy\n        /* \"--CODEGEN--\":77:93   */\n      returndatasize\n        /* \"--CODEGEN--\":74:75   */\n      0x00\n        /* \"--CODEGEN--\":67:94   */\n      revert\n        /* \"--CODEGEN--\":5:7   */\n    tag_303:\n        /* \"AllContracts-test.sol\":16361:16391  payoutAddress.transfer(amount) */\n      pop\n        /* \"AllContracts-test.sol\":16194:16398  function withdrawEth(uint amount) public onlyAuthorized {... */\n      pop\n      jump\t// out\n        /* \"AllContracts-test.sol\":21367:21616  function testCloseMachine() public onlyOwner {... */\n    tag_157:\n        /* \"AllContracts-test.sol\":1141:1153  _msgSender() */\n      tag_305\n        /* \"AllContracts-test.sol\":1141:1151  _msgSender */\n      tag_202\n        /* \"AllContracts-test.sol\":1141:1153  _msgSender() */\n      jump\t// in\n    tag_305:\n        /* \"AllContracts-test.sol\":1131:1153  _owner == _msgSender() */\n      0xffffffffffffffffffffffffffffffffffffffff\n      and\n        /* \"AllContracts-test.sol\":1131:1137  _owner */\n      0x03\n      0x00\n      swap1\n      sload\n      swap1\n      0x0100\n      exp\n      swap1\n      div\n      0xffffffffffffffffffffffffffffffffffffffff\n      and\n        /* \"AllContracts-test.sol\":1131:1153  _owner == _msgSender() */\n      0xffffffffffffffffffffffffffffffffffffffff\n      and\n      eq\n        /* \"AllContracts-test.sol\":1123:1190  require(_owner == _msgSender(), \"Ownable: caller is not the owner\") */\n      tag_306\n      jumpi\n      mload(0x40)\n      0x08c379a000000000000000000000000000000000000000000000000000000000\n      dup2\n      mstore\n      0x04\n      add\n      dup1\n      dup1\n      0x20\n      add\n      dup3\n      dup2\n      sub\n      dup3\n      mstore\n      0x20\n      dup2\n      mstore\n      0x20\n      add\n      dup1\n      0x4f776e61626c653a2063616c6c6572206973206e6f7420746865206f776e6572\n      dup2\n      mstore\n      pop\n      0x20\n      add\n      swap2\n      pop\n      pop\n      mload(0x40)\n      dup1\n      swap2\n      sub\n      swap1\n      revert\n    tag_306:\n        /* \"AllContracts-test.sol\":21455:21468  _unplayedBets */\n      sload(0x14)\n        /* \"AllContracts-test.sol\":21431:21452  address(this).balance */\n      selfbalance\n        /* \"AllContracts-test.sol\":21431:21468  address(this).balance > _unplayedBets */\n      gt\n        /* \"AllContracts-test.sol\":21422:21469  require (address(this).balance > _unplayedBets) */\n      tag_308\n      jumpi\n      0x00\n      dup1\n      revert\n    tag_308:\n        /* \"AllContracts-test.sol\":21479:21508  uint availableContractBalance */\n      0x00\n        /* \"AllContracts-test.sol\":21511:21551  address(this).balance.sub(_unplayedBets) */\n      tag_309\n        /* \"AllContracts-test.sol\":21537:21550  _unplayedBets */\n      sload(0x14)\n        /* \"AllContracts-test.sol\":21511:21532  address(this).balance */\n      selfbalance\n        /* \"AllContracts-test.sol\":21511:21536  address(this).balance.sub */\n      tag_186\n      swap1\n        /* \"AllContracts-test.sol\":21511:21551  address(this).balance.sub(_unplayedBets) */\n      swap2\n      swap1\n      0xffffffff\n      and\n      jump\t// in\n    tag_309:\n        /* \"AllContracts-test.sol\":21479:21551  uint availableContractBalance = address(this).balance.sub(_unplayedBets) */\n      swap1\n      pop\n        /* \"AllContracts-test.sol\":21561:21574  payoutAddress */\n      0x16\n      0x00\n      swap1\n      sload\n      swap1\n      0x0100\n      exp\n      swap1\n      div\n      0xffffffffffffffffffffffffffffffffffffffff\n      and\n        /* \"AllContracts-test.sol\":21561:21583  payoutAddress.transfer */\n      0xffffffffffffffffffffffffffffffffffffffff\n      and\n        /* \"AllContracts-test.sol\":21561:21609  payoutAddress.transfer(availableContractBalance) */\n      0x08fc\n        /* \"AllContracts-test.sol\":21584:21608  availableContractBalance */\n      dup3\n        /* \"AllContracts-test.sol\":21561:21609  payoutAddress.transfer(availableContractBalance) */\n      swap1\n      dup2\n      iszero\n      mul\n      swap1\n      mload(0x40)\n      0x00\n      mload(0x40)\n      dup1\n      dup4\n      sub\n      dup2\n      dup6\n      dup9\n      dup9\n      call\n      swap4\n      pop\n      pop\n      pop\n      pop\n      iszero\n        /* \"--CODEGEN--\":8:17   */\n      dup1\n        /* \"--CODEGEN--\":5:7   */\n      iszero\n      tag_311\n      jumpi\n        /* \"--CODEGEN--\":45:61   */\n      returndatasize\n        /* \"--CODEGEN--\":42:43   */\n      0x00\n        /* \"--CODEGEN--\":39:40   */\n      dup1\n        /* \"--CODEGEN--\":24:62   */\n      returndatacopy\n        /* \"--CODEGEN--\":77:93   */\n      returndatasize\n        /* \"--CODEGEN--\":74:75   */\n      0x00\n        /* \"--CODEGEN--\":67:94   */\n      revert\n        /* \"--CODEGEN--\":5:7   */\n    tag_311:\n        /* \"AllContracts-test.sol\":21561:21609  payoutAddress.transfer(availableContractBalance) */\n      pop\n        /* \"AllContracts-test.sol\":1200:1201  _ */\n      pop\n        /* \"AllContracts-test.sol\":21367:21616  function testCloseMachine() public onlyOwner {... */\n      jump\t// out\n        /* \"AllContracts-test.sol\":9936:10742  function safeBetFor(address payable player, uint pick) public payable{... */\n    tag_160:\n        /* \"AllContracts-test.sol\":10023:10044  betPayable(msg.value) */\n      tag_313\n        /* \"AllContracts-test.sol\":10034:10043  msg.value */\n      callvalue\n        /* \"AllContracts-test.sol\":10023:10033  betPayable */\n      tag_51\n        /* \"AllContracts-test.sol\":10023:10044  betPayable(msg.value) */\n      jump\t// in\n    tag_313:\n        /* \"AllContracts-test.sol\":10015:10103  require(betPayable(msg.value), \"Contract has insufficint funds to payout possible win.\") */\n      tag_314\n      jumpi\n      mload(0x40)\n      0x08c379a000000000000000000000000000000000000000000000000000000000\n      dup2\n      mstore\n      0x04\n      add\n      dup1\n      dup1\n      0x20\n      add\n      dup3\n      dup2\n      sub\n      dup3\n      mstore\n      0x36\n      dup2\n      mstore\n      0x20\n      add\n      dup1\n      data_588b68a2a6ccdc15b2dae26a385280edec71bed95b5b14a24b760c56e4f665d6\n      0x36\n      swap2\n      codecopy\n      0x40\n      add\n      swap2\n      pop\n      pop\n      mload(0x40)\n      dup1\n      swap2\n      sub\n      swap1\n      revert\n    tag_314:\n        /* \"AllContracts-test.sol\":10129:10136  maxPick */\n      sload(0x11)\n        /* \"AllContracts-test.sol\":10121:10125  pick */\n      dup2\n        /* \"AllContracts-test.sol\":10121:10136  pick <= maxPick */\n      gt\n      iszero\n        /* \"AllContracts-test.sol\":10121:10148  pick <= maxPick && pick > 0 */\n      dup1\n      iszero\n      tag_315\n      jumpi\n      pop\n        /* \"AllContracts-test.sol\":10147:10148  0 */\n      0x00\n        /* \"AllContracts-test.sol\":10140:10144  pick */\n      dup2\n        /* \"AllContracts-test.sol\":10140:10148  pick > 0 */\n      gt\n        /* \"AllContracts-test.sol\":10121:10148  pick <= maxPick && pick > 0 */\n    tag_315:\n        /* \"AllContracts-test.sol\":10113:10179  require(pick <= maxPick && pick > 0, \"Outside of pickable bounds\") */\n      tag_316\n      jumpi\n      mload(0x40)\n      0x08c379a000000000000000000000000000000000000000000000000000000000\n      dup2\n      mstore\n      0x04\n      add\n      dup1\n      dup1\n      0x20\n      add\n      dup3\n      dup2\n      sub\n      dup3\n      mstore\n      0x1a\n      dup2\n      mstore\n      0x20\n      add\n      dup1\n      0x4f757473696465206f66207069636b61626c6520626f756e6473000000000000\n      dup2\n      mstore\n      pop\n      0x20\n      add\n      swap2\n      pop\n      pop\n      mload(0x40)\n      dup1\n      swap2\n      sub\n      swap1\n      revert\n    tag_316:\n        /* \"AllContracts-test.sol\":10197:10218  betInRange(msg.value) */\n      tag_317\n        /* \"AllContracts-test.sol\":10208:10217  msg.value */\n      callvalue\n        /* \"AllContracts-test.sol\":10197:10207  betInRange */\n      tag_318\n        /* \"AllContracts-test.sol\":10197:10218  betInRange(msg.value) */\n      jump\t// in\n    tag_317:\n        /* \"AllContracts-test.sol\":10189:10243  require(betInRange(msg.value),\"Outisde of bet range.\") */\n      tag_319\n      jumpi\n      mload(0x40)\n      0x08c379a000000000000000000000000000000000000000000000000000000000\n      dup2\n      mstore\n      0x04\n      add\n      dup1\n      dup1\n      0x20\n      add\n      dup3\n      dup2\n      sub\n      dup3\n      mstore\n      0x15\n      dup2\n      mstore\n      0x20\n      add\n      dup1\n      0x4f757469736465206f66206265742072616e67652e0000000000000000000000\n      dup2\n      mstore\n      pop\n      0x20\n      add\n      swap2\n      pop\n      pop\n      mload(0x40)\n      dup1\n      swap2\n      sub\n      swap1\n      revert\n    tag_319:\n        /* \"AllContracts-test.sol\":10265:10266  1 */\n      0x01\n        /* \"AllContracts-test.sol\":10257:10261  gas1 */\n      sload(0x06)\n        /* \"AllContracts-test.sol\":10257:10266  gas1 == 1 */\n      eq\n        /* \"AllContracts-test.sol\":10254:10556  if(gas1 == 1) {... */\n      iszero\n      tag_320\n      jumpi\n        /* \"AllContracts-test.sol\":10289:10293  gas1 */\n      0x06\n        /* \"AllContracts-test.sol\":10282:10293  delete gas1 */\n      0x00\n      swap1\n      sstore\n        /* \"AllContracts-test.sol\":10314:10318  gas2 */\n      0x07\n        /* \"AllContracts-test.sol\":10307:10318  delete gas2 */\n      0x00\n      swap1\n      sstore\n        /* \"AllContracts-test.sol\":10339:10343  gas3 */\n      0x08\n        /* \"AllContracts-test.sol\":10332:10343  delete gas3 */\n      0x00\n      swap1\n      sstore\n        /* \"AllContracts-test.sol\":10364:10368  gas4 */\n      0x09\n        /* \"AllContracts-test.sol\":10357:10368  delete gas4 */\n      0x00\n      swap1\n      sstore\n        /* \"AllContracts-test.sol\":10389:10393  gas5 */\n      0x0a\n        /* \"AllContracts-test.sol\":10382:10393  delete gas5 */\n      0x00\n      swap1\n      sstore\n        /* \"AllContracts-test.sol\":10414:10418  gas6 */\n      0x0b\n        /* \"AllContracts-test.sol\":10407:10418  delete gas6 */\n      0x00\n      swap1\n      sstore\n        /* \"AllContracts-test.sol\":10439:10443  gas7 */\n      0x0c\n        /* \"AllContracts-test.sol\":10432:10443  delete gas7 */\n      0x00\n      swap1\n      sstore\n        /* \"AllContracts-test.sol\":10464:10468  gas8 */\n      0x0d\n        /* \"AllContracts-test.sol\":10457:10468  delete gas8 */\n      0x00\n      swap1\n      sstore\n        /* \"AllContracts-test.sol\":10489:10493  gas9 */\n      0x0e\n        /* \"AllContracts-test.sol\":10482:10493  delete gas9 */\n      0x00\n      swap1\n      sstore\n        /* \"AllContracts-test.sol\":10514:10519  gas10 */\n      0x0f\n        /* \"AllContracts-test.sol\":10507:10519  delete gas10 */\n      0x00\n      swap1\n      sstore\n        /* \"AllContracts-test.sol\":10540:10545  gas11 */\n      0x10\n        /* \"AllContracts-test.sol\":10533:10545  delete gas11 */\n      0x00\n      swap1\n      sstore\n        /* \"AllContracts-test.sol\":10254:10556  if(gas1 == 1) {... */\n    tag_320:\n        /* \"AllContracts-test.sol\":10582:10610  _unplayedBets.add(msg.value) */\n      tag_321\n        /* \"AllContracts-test.sol\":10600:10609  msg.value */\n      callvalue\n        /* \"AllContracts-test.sol\":10582:10595  _unplayedBets */\n      sload(0x14)\n        /* \"AllContracts-test.sol\":10582:10599  _unplayedBets.add */\n      tag_184\n      swap1\n        /* \"AllContracts-test.sol\":10582:10610  _unplayedBets.add(msg.value) */\n      swap2\n      swap1\n      0xffffffff\n      and\n      jump\t// in\n    tag_321:\n        /* \"AllContracts-test.sol\":10566:10579  _unplayedBets */\n      0x14\n        /* \"AllContracts-test.sol\":10566:10610  _unplayedBets = _unplayedBets.add(msg.value) */\n      dup2\n      swap1\n      sstore\n      pop\n        /* \"AllContracts-test.sol\":10620:10655  createGame(player, msg.value, pick) */\n      tag_322\n        /* \"AllContracts-test.sol\":10631:10637  player */\n      dup3\n        /* \"AllContracts-test.sol\":10639:10648  msg.value */\n      callvalue\n        /* \"AllContracts-test.sol\":10650:10654  pick */\n      dup4\n        /* \"AllContracts-test.sol\":10620:10630  createGame */\n      tag_273\n        /* \"AllContracts-test.sol\":10620:10655  createGame(player, msg.value, pick) */\n      jump\t// in\n    tag_322:\n        /* \"AllContracts-test.sol\":10665:10687  playGame(_currentGame) */\n      tag_323\n        /* \"AllContracts-test.sol\":10674:10686  _currentGame */\n      sload(0x15)\n        /* \"AllContracts-test.sol\":10665:10673  playGame */\n      tag_275\n        /* \"AllContracts-test.sol\":10665:10687  playGame(_currentGame) */\n      jump\t// in\n    tag_323:\n        /* \"AllContracts-test.sol\":10723:10735  _currentGame */\n      sload(0x15)\n        /* \"AllContracts-test.sol\":10697:10712  lastGameCreated */\n      0x1c\n        /* \"AllContracts-test.sol\":10697:10720  lastGameCreated[player] */\n      0x00\n        /* \"AllContracts-test.sol\":10713:10719  player */\n      dup5\n        /* \"AllContracts-test.sol\":10697:10720  lastGameCreated[player] */\n      0xffffffffffffffffffffffffffffffffffffffff\n      and\n      0xffffffffffffffffffffffffffffffffffffffff\n      and\n      dup2\n      mstore\n      0x20\n      add\n      swap1\n      dup2\n      mstore\n      0x20\n      add\n      0x00\n      keccak256\n        /* \"AllContracts-test.sol\":10697:10735  lastGameCreated[player] = _currentGame */\n      dup2\n      swap1\n      sstore\n      pop\n        /* \"AllContracts-test.sol\":9936:10742  function safeBetFor(address payable player, uint pick) public payable{... */\n      pop\n      pop\n      jump\t// out\n        /* \"AllContracts-test.sol\":19190:19544  function testCreateGame(address payable _player, uint _bet, uint _pick, bool _played, uint _gameID) public {... */\n    tag_164:\n        /* \"AllContracts-test.sol\":19307:19326  Game memory newGame */\n      tag_325\n      tag_326\n      jump\t// in\n    tag_325:\n        /* \"AllContracts-test.sol\":19329:19500  Game ({... */\n      mload(0x40)\n      dup1\n      0xc0\n      add\n      0x40\n      mstore\n      dup1\n        /* \"AllContracts-test.sol\":19353:19360  _gameID */\n      dup4\n        /* \"AllContracts-test.sol\":19329:19500  Game ({... */\n      dup2\n      mstore\n      0x20\n      add\n        /* \"AllContracts-test.sol\":19382:19389  _player */\n      dup8\n        /* \"AllContracts-test.sol\":19329:19500  Game ({... */\n      0xffffffffffffffffffffffffffffffffffffffff\n      and\n      dup2\n      mstore\n      0x20\n      add\n        /* \"AllContracts-test.sol\":19408:19412  _bet */\n      dup7\n        /* \"AllContracts-test.sol\":19329:19500  Game ({... */\n      dup2\n      mstore\n      0x20\n      add\n        /* \"AllContracts-test.sol\":19432:19437  _pick */\n      dup6\n        /* \"AllContracts-test.sol\":19329:19500  Game ({... */\n      dup2\n      mstore\n      0x20\n      add\n        /* \"AllContracts-test.sol\":19459:19460  0 */\n      0x00\n        /* \"AllContracts-test.sol\":19329:19500  Game ({... */\n      dup2\n      mstore\n      0x20\n      add\n        /* \"AllContracts-test.sol\":19482:19489  _played */\n      dup5\n        /* \"AllContracts-test.sol\":19329:19500  Game ({... */\n      iszero\n      iszero\n      dup2\n      mstore\n      pop\n        /* \"AllContracts-test.sol\":19307:19500  Game memory newGame = Game ({... */\n      swap1\n      pop\n        /* \"AllContracts-test.sol\":19530:19537  newGame */\n      dup1\n        /* \"AllContracts-test.sol\":19510:19515  games */\n      0x1a\n        /* \"AllContracts-test.sol\":19510:19527  games[newGame.id] */\n      0x00\n        /* \"AllContracts-test.sol\":19516:19523  newGame */\n      dup4\n        /* \"AllContracts-test.sol\":19516:19526  newGame.id */\n      0x00\n      add\n      mload\n        /* \"AllContracts-test.sol\":19510:19527  games[newGame.id] */\n      dup2\n      mstore\n      0x20\n      add\n      swap1\n      dup2\n      mstore\n      0x20\n      add\n      0x00\n      keccak256\n        /* \"AllContracts-test.sol\":19510:19537  games[newGame.id] = newGame */\n      0x00\n      dup3\n      add\n      mload\n      dup2\n      0x00\n      add\n      sstore\n      0x20\n      dup3\n      add\n      mload\n      dup2\n      0x01\n      add\n      exp(0x0100, 0x00)\n      dup2\n      sload\n      dup2\n      0xffffffffffffffffffffffffffffffffffffffff\n      mul\n      not\n      and\n      swap1\n      dup4\n      0xffffffffffffffffffffffffffffffffffffffff\n      and\n      mul\n      or\n      swap1\n      sstore\n      pop\n      0x40\n      dup3\n      add\n      mload\n      dup2\n      0x02\n      add\n      sstore\n      0x60\n      dup3\n      add\n      mload\n      dup2\n      0x03\n      add\n      sstore\n      0x80\n      dup3\n      add\n      mload\n      dup2\n      0x04\n      add\n      sstore\n      0xa0\n      dup3\n      add\n      mload\n      dup2\n      0x05\n      add\n      exp(0x0100, 0x00)\n      dup2\n      sload\n      dup2\n      0xff\n      mul\n      not\n      and\n      swap1\n      dup4\n      iszero\n      iszero\n      mul\n      or\n      swap1\n      sstore\n      pop\n      swap1\n      pop\n      pop\n        /* \"AllContracts-test.sol\":19190:19544  function testCreateGame(address payable _player, uint _bet, uint _pick, bool _played, uint _gameID) public {... */\n      pop\n      pop\n      pop\n      pop\n      pop\n      pop\n      jump\t// out\n        /* \"AllContracts-test.sol\":6635:6684  mapping(address => bool) public gasFreeBetAllowed */\n    tag_168:\n      mstore(0x20, 0x19)\n      dup1\n      0x00\n      mstore\n      keccak256(0x00, 0x40)\n      0x00\n      swap2\n      pop\n      sload\n      swap1\n      0x0100\n      exp\n      swap1\n      div\n      0xff\n      and\n      dup2\n      jump\t// out\n        /* \"AllContracts-test.sol\":1844:2084  function transferOwnership(address newOwner) public virtual onlyOwner {... */\n    tag_172:\n        /* \"AllContracts-test.sol\":1141:1153  _msgSender() */\n      tag_328\n        /* \"AllContracts-test.sol\":1141:1151  _msgSender */\n      tag_202\n        /* \"AllContracts-test.sol\":1141:1153  _msgSender() */\n      jump\t// in\n    tag_328:\n        /* \"AllContracts-test.sol\":1131:1153  _owner == _msgSender() */\n      0xffffffffffffffffffffffffffffffffffffffff\n      and\n        /* \"AllContracts-test.sol\":1131:1137  _owner */\n      0x03\n      0x00\n      swap1\n      sload\n      swap1\n      0x0100\n      exp\n      swap1\n      div\n      0xffffffffffffffffffffffffffffffffffffffff\n      and\n        /* \"AllContracts-test.sol\":1131:1153  _owner == _msgSender() */\n      0xffffffffffffffffffffffffffffffffffffffff\n      and\n      eq\n        /* \"AllContracts-test.sol\":1123:1190  require(_owner == _msgSender(), \"Ownable: caller is not the owner\") */\n      tag_329\n      jumpi\n      mload(0x40)\n      0x08c379a000000000000000000000000000000000000000000000000000000000\n      dup2\n      mstore\n      0x04\n      add\n      dup1\n      dup1\n      0x20\n      add\n      dup3\n      dup2\n      sub\n      dup3\n      mstore\n      0x20\n      dup2\n      mstore\n      0x20\n      add\n      dup1\n      0x4f776e61626c653a2063616c6c6572206973206e6f7420746865206f776e6572\n      dup2\n      mstore\n      pop\n      0x20\n      add\n      swap2\n      pop\n      pop\n      mload(0x40)\n      dup1\n      swap2\n      sub\n      swap1\n      revert\n    tag_329:\n        /* \"AllContracts-test.sol\":1952:1953  0 */\n      0x00\n        /* \"AllContracts-test.sol\":1932:1954  newOwner != address(0) */\n      0xffffffffffffffffffffffffffffffffffffffff\n      and\n        /* \"AllContracts-test.sol\":1932:1940  newOwner */\n      dup2\n        /* \"AllContracts-test.sol\":1932:1954  newOwner != address(0) */\n      0xffffffffffffffffffffffffffffffffffffffff\n      and\n      eq\n      iszero\n        /* \"AllContracts-test.sol\":1924:1997  require(newOwner != address(0), \"Ownable: new owner is the zero address\") */\n      tag_331\n      jumpi\n      mload(0x40)\n      0x08c379a000000000000000000000000000000000000000000000000000000000\n      dup2\n      mstore\n      0x04\n      add\n      dup1\n      dup1\n      0x20\n      add\n      dup3\n      dup2\n      sub\n      dup3\n      mstore\n      0x26\n      dup2\n      mstore\n      0x20\n      add\n      dup1\n      data_245f15ff17f551913a7a18385165551503906a406f905ac1c2437281a7cd0cfe\n      0x26\n      swap2\n      codecopy\n      0x40\n      add\n      swap2\n      pop\n      pop\n      mload(0x40)\n      dup1\n      swap2\n      sub\n      swap1\n      revert\n    tag_331:\n        /* \"AllContracts-test.sol\":2041:2049  newOwner */\n      dup1\n        /* \"AllContracts-test.sol\":2012:2050  OwnershipTransferred(_owner, newOwner) */\n      0xffffffffffffffffffffffffffffffffffffffff\n      and\n        /* \"AllContracts-test.sol\":2033:2039  _owner */\n      0x03\n      0x00\n      swap1\n      sload\n      swap1\n      0x0100\n      exp\n      swap1\n      div\n      0xffffffffffffffffffffffffffffffffffffffff\n      and\n        /* \"AllContracts-test.sol\":2012:2050  OwnershipTransferred(_owner, newOwner) */\n      0xffffffffffffffffffffffffffffffffffffffff\n      and\n      0x8be0079c531659141344cd1fd0a4f28419497f9722a3daafe3b4186f6b6457e0\n      mload(0x40)\n      mload(0x40)\n      dup1\n      swap2\n      sub\n      swap1\n      log3\n        /* \"AllContracts-test.sol\":2069:2077  newOwner */\n      dup1\n        /* \"AllContracts-test.sol\":2060:2066  _owner */\n      0x03\n      0x00\n        /* \"AllContracts-test.sol\":2060:2077  _owner = newOwner */\n      0x0100\n      exp\n      dup2\n      sload\n      dup2\n      0xffffffffffffffffffffffffffffffffffffffff\n      mul\n      not\n      and\n      swap1\n      dup4\n      0xffffffffffffffffffffffffffffffffffffffff\n      and\n      mul\n      or\n      swap1\n      sstore\n      pop\n        /* \"AllContracts-test.sol\":1844:2084  function transferOwnership(address newOwner) public virtual onlyOwner {... */\n      pop\n      jump\t// out\n        /* \"AllContracts-test.sol\":19010:19093  function replayGame(uint gameID) public onlyOwner {... */\n    tag_176:\n        /* \"AllContracts-test.sol\":1141:1153  _msgSender() */\n      tag_333\n        /* \"AllContracts-test.sol\":1141:1151  _msgSender */\n      tag_202\n        /* \"AllContracts-test.sol\":1141:1153  _msgSender() */\n      jump\t// in\n    tag_333:\n        /* \"AllContracts-test.sol\":1131:1153  _owner == _msgSender() */\n      0xffffffffffffffffffffffffffffffffffffffff\n      and\n        /* \"AllContracts-test.sol\":1131:1137  _owner */\n      0x03\n      0x00\n      swap1\n      sload\n      swap1\n      0x0100\n      exp\n      swap1\n      div\n      0xffffffffffffffffffffffffffffffffffffffff\n      and\n        /* \"AllContracts-test.sol\":1131:1153  _owner == _msgSender() */\n      0xffffffffffffffffffffffffffffffffffffffff\n      and\n      eq\n        /* \"AllContracts-test.sol\":1123:1190  require(_owner == _msgSender(), \"Ownable: caller is not the owner\") */\n      tag_334\n      jumpi\n      mload(0x40)\n      0x08c379a000000000000000000000000000000000000000000000000000000000\n      dup2\n      mstore\n      0x04\n      add\n      dup1\n      dup1\n      0x20\n      add\n      dup3\n      dup2\n      sub\n      dup3\n      mstore\n      0x20\n      dup2\n      mstore\n      0x20\n      add\n      dup1\n      0x4f776e61626c653a2063616c6c6572206973206e6f7420746865206f776e6572\n      dup2\n      mstore\n      pop\n      0x20\n      add\n      swap2\n      pop\n      pop\n      mload(0x40)\n      dup1\n      swap2\n      sub\n      swap1\n      revert\n    tag_334:\n        /* \"AllContracts-test.sol\":19070:19086  playGame(gameID) */\n      tag_336\n        /* \"AllContracts-test.sol\":19079:19085  gameID */\n      dup2\n        /* \"AllContracts-test.sol\":19070:19078  playGame */\n      tag_275\n        /* \"AllContracts-test.sol\":19070:19086  playGame(gameID) */\n      jump\t// in\n    tag_336:\n        /* \"AllContracts-test.sol\":19010:19093  function replayGame(uint gameID) public onlyOwner {... */\n      pop\n      jump\t// out\n        /* \"AllContracts-test.sol\":19550:19920  function testPlaceBetFor(address payable player, uint pick, uint256 testRandomNumber) public payable {... */\n    tag_179:\n        /* \"AllContracts-test.sol\":19682:19688  minBet */\n      sload(0x13)\n        /* \"AllContracts-test.sol\":19669:19678  msg.value */\n      callvalue\n        /* \"AllContracts-test.sol\":19669:19688  msg.value >= minBet */\n      lt\n      iszero\n        /* \"AllContracts-test.sol\":19661:19712  require(msg.value >= minBet, \"minimum bet not met\") */\n      tag_338\n      jumpi\n      mload(0x40)\n      0x08c379a000000000000000000000000000000000000000000000000000000000\n      dup2\n      mstore\n      0x04\n      add\n      dup1\n      dup1\n      0x20\n      add\n      dup3\n      dup2\n      sub\n      dup3\n      mstore\n      0x13\n      dup2\n      mstore\n      0x20\n      add\n      dup1\n      0x6d696e696d756d20626574206e6f74206d657400000000000000000000000000\n      dup2\n      mstore\n      pop\n      0x20\n      add\n      swap2\n      pop\n      pop\n      mload(0x40)\n      dup1\n      swap2\n      sub\n      swap1\n      revert\n    tag_338:\n        /* \"AllContracts-test.sol\":19738:19766  _unplayedBets.add(msg.value) */\n      tag_339\n        /* \"AllContracts-test.sol\":19756:19765  msg.value */\n      callvalue\n        /* \"AllContracts-test.sol\":19738:19751  _unplayedBets */\n      sload(0x14)\n        /* \"AllContracts-test.sol\":19738:19755  _unplayedBets.add */\n      tag_184\n      swap1\n        /* \"AllContracts-test.sol\":19738:19766  _unplayedBets.add(msg.value) */\n      swap2\n      swap1\n      0xffffffff\n      and\n      jump\t// in\n    tag_339:\n        /* \"AllContracts-test.sol\":19722:19735  _unplayedBets */\n      0x14\n        /* \"AllContracts-test.sol\":19722:19766  _unplayedBets = _unplayedBets.add(msg.value) */\n      dup2\n      swap1\n      sstore\n      pop\n        /* \"AllContracts-test.sol\":19776:19811  createGame(player, msg.value, pick) */\n      tag_340\n        /* \"AllContracts-test.sol\":19787:19793  player */\n      dup4\n        /* \"AllContracts-test.sol\":19795:19804  msg.value */\n      callvalue\n        /* \"AllContracts-test.sol\":19806:19810  pick */\n      dup5\n        /* \"AllContracts-test.sol\":19776:19786  createGame */\n      tag_273\n        /* \"AllContracts-test.sol\":19776:19811  createGame(player, msg.value, pick) */\n      jump\t// in\n    tag_340:\n        /* \"AllContracts-test.sol\":19821:19865  testPlayGame(_currentGame, testRandomNumber) */\n      tag_341\n        /* \"AllContracts-test.sol\":19834:19846  _currentGame */\n      sload(0x15)\n        /* \"AllContracts-test.sol\":19848:19864  testRandomNumber */\n      dup3\n        /* \"AllContracts-test.sol\":19821:19833  testPlayGame */\n      tag_90\n        /* \"AllContracts-test.sol\":19821:19865  testPlayGame(_currentGame, testRandomNumber) */\n      jump\t// in\n    tag_341:\n        /* \"AllContracts-test.sol\":19901:19913  _currentGame */\n      sload(0x15)\n        /* \"AllContracts-test.sol\":19875:19890  lastGameCreated */\n      0x1c\n        /* \"AllContracts-test.sol\":19875:19898  lastGameCreated[player] */\n      0x00\n        /* \"AllContracts-test.sol\":19891:19897  player */\n      dup6\n        /* \"AllContracts-test.sol\":19875:19898  lastGameCreated[player] */\n      0xffffffffffffffffffffffffffffffffffffffff\n      and\n      0xffffffffffffffffffffffffffffffffffffffff\n      and\n      dup2\n      mstore\n      0x20\n      add\n      swap1\n      dup2\n      mstore\n      0x20\n      add\n      0x00\n      keccak256\n        /* \"AllContracts-test.sol\":19875:19913  lastGameCreated[player] = _currentGame */\n      dup2\n      swap1\n      sstore\n      pop\n        /* \"AllContracts-test.sol\":19550:19920  function testPlaceBetFor(address payable player, uint pick, uint256 testRandomNumber) public payable {... */\n      pop\n      pop\n      pop\n      jump\t// out\n        /* \"AllContracts-test.sol\":2454:2668  function mul(uint256 a, uint256 b) internal pure returns (uint256) {... */\n    tag_183:\n        /* \"AllContracts-test.sol\":2512:2519  uint256 */\n      0x00\n        /* \"AllContracts-test.sol\":2537:2538  0 */\n      dup1\n        /* \"AllContracts-test.sol\":2532:2533  a */\n      dup4\n        /* \"AllContracts-test.sol\":2532:2538  a == 0 */\n      eq\n        /* \"AllContracts-test.sol\":2528:2563  if (a == 0) {... */\n      iszero\n      tag_343\n      jumpi\n        /* \"AllContracts-test.sol\":2555:2556  0 */\n      0x00\n        /* \"AllContracts-test.sol\":2548:2556  return 0 */\n      swap1\n      pop\n      jump(tag_342)\n        /* \"AllContracts-test.sol\":2528:2563  if (a == 0) {... */\n    tag_343:\n        /* \"AllContracts-test.sol\":2569:2578  uint256 c */\n      0x00\n        /* \"AllContracts-test.sol\":2585:2586  b */\n      dup3\n        /* \"AllContracts-test.sol\":2581:2582  a */\n      dup5\n        /* \"AllContracts-test.sol\":2581:2586  a * b */\n      mul\n        /* \"AllContracts-test.sol\":2569:2586  uint256 c = a * b */\n      swap1\n      pop\n        /* \"AllContracts-test.sol\":2609:2610  b */\n      dup3\n        /* \"AllContracts-test.sol\":2604:2605  a */\n      dup5\n        /* \"AllContracts-test.sol\":2600:2601  c */\n      dup3\n        /* \"AllContracts-test.sol\":2600:2605  c / a */\n      dup2\n      tag_344\n      jumpi\n      invalid\n    tag_344:\n      div\n        /* \"AllContracts-test.sol\":2600:2610  c / a == b */\n      eq\n        /* \"AllContracts-test.sol\":2592:2648  require(c / a == b, \"SafeMath: multiplication overflow\") */\n      tag_345\n      jumpi\n      mload(0x40)\n      0x08c379a000000000000000000000000000000000000000000000000000000000\n      dup2\n      mstore\n      0x04\n      add\n      dup1\n      dup1\n      0x20\n      add\n      dup3\n      dup2\n      sub\n      dup3\n      mstore\n      0x21\n      dup2\n      mstore\n      0x20\n      add\n      dup1\n      data_9113bb53c2876a3805b2c9242029423fc540a728243ce887ab24c82cf119fba3\n      0x21\n      swap2\n      codecopy\n      0x40\n      add\n      swap2\n      pop\n      pop\n      mload(0x40)\n      dup1\n      swap2\n      sub\n      swap1\n      revert\n    tag_345:\n        /* \"AllContracts-test.sol\":2662:2663  c */\n      dup1\n        /* \"AllContracts-test.sol\":2655:2663  return c */\n      swap2\n      pop\n      pop\n        /* \"AllContracts-test.sol\":2454:2668  function mul(uint256 a, uint256 b) internal pure returns (uint256) {... */\n    tag_342:\n      swap3\n      swap2\n      pop\n      pop\n      jump\t// out\n        /* \"AllContracts-test.sol\":2119:2281  function add(uint256 a, uint256 b) internal pure returns (uint256) {... */\n    tag_184:\n        /* \"AllContracts-test.sol\":2177:2184  uint256 */\n      0x00\n        /* \"AllContracts-test.sol\":2192:2201  uint256 c */\n      dup1\n        /* \"AllContracts-test.sol\":2208:2209  b */\n      dup3\n        /* \"AllContracts-test.sol\":2204:2205  a */\n      dup5\n        /* \"AllContracts-test.sol\":2204:2209  a + b */\n      add\n        /* \"AllContracts-test.sol\":2192:2209  uint256 c = a + b */\n      swap1\n      pop\n        /* \"AllContracts-test.sol\":2228:2229  a */\n      dup4\n        /* \"AllContracts-test.sol\":2223:2224  c */\n      dup2\n        /* \"AllContracts-test.sol\":2223:2229  c >= a */\n      lt\n      iszero\n        /* \"AllContracts-test.sol\":2215:2261  require(c >= a, \"SafeMath: addition overflow\") */\n      tag_347\n      jumpi\n      mload(0x40)\n      0x08c379a000000000000000000000000000000000000000000000000000000000\n      dup2\n      mstore\n      0x04\n      add\n      dup1\n      dup1\n      0x20\n      add\n      dup3\n      dup2\n      sub\n      dup3\n      mstore\n      0x1b\n      dup2\n      mstore\n      0x20\n      add\n      dup1\n      0x536166654d6174683a206164646974696f6e206f766572666c6f770000000000\n      dup2\n      mstore\n      pop\n      0x20\n      add\n      swap2\n      pop\n      pop\n      mload(0x40)\n      dup1\n      swap2\n      sub\n      swap1\n      revert\n    tag_347:\n        /* \"AllContracts-test.sol\":2275:2276  c */\n      dup1\n        /* \"AllContracts-test.sol\":2268:2276  return c */\n      swap2\n      pop\n      pop\n        /* \"AllContracts-test.sol\":2119:2281  function add(uint256 a, uint256 b) internal pure returns (uint256) {... */\n      swap3\n      swap2\n      pop\n      pop\n      jump\t// out\n        /* \"AllContracts-test.sol\":2285:2450  function sub(uint256 a, uint256 b) internal pure returns (uint256) {... */\n    tag_186:\n        /* \"AllContracts-test.sol\":2343:2350  uint256 */\n      0x00\n        /* \"AllContracts-test.sol\":2371:2372  a */\n      dup3\n        /* \"AllContracts-test.sol\":2366:2367  b */\n      dup3\n        /* \"AllContracts-test.sol\":2366:2372  b <= a */\n      gt\n      iszero\n        /* \"AllContracts-test.sol\":2358:2407  require(b <= a, \"SafeMath: subtraction overflow\") */\n      tag_349\n      jumpi\n      mload(0x40)\n      0x08c379a000000000000000000000000000000000000000000000000000000000\n      dup2\n      mstore\n      0x04\n      add\n      dup1\n      dup1\n      0x20\n      add\n      dup3\n      dup2\n      sub\n      dup3\n      mstore\n      0x1e\n      dup2\n      mstore\n      0x20\n      add\n      dup1\n      0x536166654d6174683a207375627472616374696f6e206f766572666c6f770000\n      dup2\n      mstore\n      pop\n      0x20\n      add\n      swap2\n      pop\n      pop\n      mload(0x40)\n      dup1\n      swap2\n      sub\n      swap1\n      revert\n    tag_349:\n        /* \"AllContracts-test.sol\":2413:2422  uint256 c */\n      0x00\n        /* \"AllContracts-test.sol\":2429:2430  b */\n      dup3\n        /* \"AllContracts-test.sol\":2425:2426  a */\n      dup5\n        /* \"AllContracts-test.sol\":2425:2430  a - b */\n      sub\n        /* \"AllContracts-test.sol\":2413:2430  uint256 c = a - b */\n      swap1\n      pop\n        /* \"AllContracts-test.sol\":2444:2445  c */\n      dup1\n        /* \"AllContracts-test.sol\":2437:2445  return c */\n      swap2\n      pop\n      pop\n        /* \"AllContracts-test.sol\":2285:2450  function sub(uint256 a, uint256 b) internal pure returns (uint256) {... */\n      swap3\n      swap2\n      pop\n      pop\n      jump\t// out\n        /* \"AllContracts-test.sol\":90:194  function _msgSender() internal view virtual returns (address payable) {... */\n    tag_202:\n        /* \"AllContracts-test.sol\":143:158  address payable */\n      0x00\n        /* \"AllContracts-test.sol\":177:187  msg.sender */\n      caller\n        /* \"AllContracts-test.sol\":170:187  return msg.sender */\n      swap1\n      pop\n        /* \"AllContracts-test.sol\":90:194  function _msgSender() internal view virtual returns (address payable) {... */\n      swap1\n      jump\t// out\n        /* \"AllContracts-test.sol\":13157:14302  function fulfillRandomness(bytes32 requestId, uint256 randomness) internal override {... */\n    tag_235:\n        /* \"AllContracts-test.sol\":13288:13302  Game storage g */\n      0x00\n        /* \"AllContracts-test.sol\":13305:13310  games */\n      0x1a\n        /* \"AllContracts-test.sol\":13305:13336  games[_gameRequests[requestId]] */\n      0x00\n        /* \"AllContracts-test.sol\":13311:13324  _gameRequests */\n      0x1b\n        /* \"AllContracts-test.sol\":13311:13335  _gameRequests[requestId] */\n      0x00\n        /* \"AllContracts-test.sol\":13325:13334  requestId */\n      dup7\n        /* \"AllContracts-test.sol\":13311:13335  _gameRequests[requestId] */\n      dup2\n      mstore\n      0x20\n      add\n      swap1\n      dup2\n      mstore\n      0x20\n      add\n      0x00\n      keccak256\n      sload\n        /* \"AllContracts-test.sol\":13305:13336  games[_gameRequests[requestId]] */\n      dup2\n      mstore\n      0x20\n      add\n      swap1\n      dup2\n      mstore\n      0x20\n      add\n      0x00\n      keccak256\n        /* \"AllContracts-test.sol\":13288:13336  Game storage g = games[_gameRequests[requestId]] */\n      swap1\n      pop\n        /* \"AllContracts-test.sol\":13356:13357  0 */\n      0x00\n        /* \"AllContracts-test.sol\":13349:13350  g */\n      dup2\n        /* \"AllContracts-test.sol\":13349:13353  g.id */\n      0x00\n      add\n      sload\n        /* \"AllContracts-test.sol\":13349:13357  g.id > 0 */\n      gt\n        /* \"AllContracts-test.sol\":13349:13378  g.id > 0 && g.played == false */\n      dup1\n      iszero\n      tag_352\n      jumpi\n      pop\n        /* \"AllContracts-test.sol\":13373:13378  false */\n      0x00\n        /* \"AllContracts-test.sol\":13361:13378  g.played == false */\n      iszero\n      iszero\n        /* \"AllContracts-test.sol\":13361:13362  g */\n      dup2\n        /* \"AllContracts-test.sol\":13361:13369  g.played */\n      0x05\n      add\n      0x00\n      swap1\n      sload\n      swap1\n      0x0100\n      exp\n      swap1\n      div\n      0xff\n      and\n        /* \"AllContracts-test.sol\":13361:13378  g.played == false */\n      iszero\n      iszero\n      eq\n        /* \"AllContracts-test.sol\":13349:13378  g.id > 0 && g.played == false */\n    tag_352:\n        /* \"AllContracts-test.sol\":13346:14096  if(g.id > 0 && g.played == false){... */\n      iszero\n      tag_353\n      jumpi\n        /* \"AllContracts-test.sol\":13404:13410  maxBet */\n      sload(0x12)\n        /* \"AllContracts-test.sol\":13396:13397  g */\n      dup2\n        /* \"AllContracts-test.sol\":13396:13401  g.bet */\n      0x02\n      add\n      sload\n        /* \"AllContracts-test.sol\":13396:13410  g.bet > maxBet */\n      gt\n        /* \"AllContracts-test.sol\":13393:13459  if(g.bet > maxBet) {... */\n      iszero\n      tag_354\n      jumpi\n        /* \"AllContracts-test.sol\":13438:13444  maxBet */\n      sload(0x12)\n        /* \"AllContracts-test.sol\":13430:13431  g */\n      dup2\n        /* \"AllContracts-test.sol\":13430:13435  g.bet */\n      0x02\n      add\n        /* \"AllContracts-test.sol\":13430:13444  g.bet = maxBet */\n      dup2\n      swap1\n      sstore\n      pop\n        /* \"AllContracts-test.sol\":13393:13459  if(g.bet > maxBet) {... */\n    tag_354:\n        /* \"AllContracts-test.sol\":13472:13488  uint totalPayout */\n      0x00\n        /* \"AllContracts-test.sol\":13491:13519  g.bet.mul(payout).add(g.bet) */\n      tag_355\n        /* \"AllContracts-test.sol\":13513:13514  g */\n      dup3\n        /* \"AllContracts-test.sol\":13513:13518  g.bet */\n      0x02\n      add\n      sload\n        /* \"AllContracts-test.sol\":13491:13508  g.bet.mul(payout) */\n      tag_356\n        /* \"AllContracts-test.sol\":13501:13507  payout */\n      sload(0x17)\n        /* \"AllContracts-test.sol\":13491:13492  g */\n      dup6\n        /* \"AllContracts-test.sol\":13491:13496  g.bet */\n      0x02\n      add\n      sload\n        /* \"AllContracts-test.sol\":13491:13500  g.bet.mul */\n      tag_183\n      swap1\n        /* \"AllContracts-test.sol\":13491:13508  g.bet.mul(payout) */\n      swap2\n      swap1\n      0xffffffff\n      and\n      jump\t// in\n    tag_356:\n        /* \"AllContracts-test.sol\":13491:13512  g.bet.mul(payout).add */\n      tag_184\n      swap1\n        /* \"AllContracts-test.sol\":13491:13519  g.bet.mul(payout).add(g.bet) */\n      swap2\n      swap1\n      0xffffffff\n      and\n      jump\t// in\n    tag_355:\n        /* \"AllContracts-test.sol\":13472:13519  uint totalPayout = g.bet.mul(payout).add(g.bet) */\n      swap1\n      pop\n        /* \"AllContracts-test.sol\":13566:13577  totalPayout */\n      dup1\n        /* \"AllContracts-test.sol\":13541:13562  address(this).balance */\n      selfbalance\n        /* \"AllContracts-test.sol\":13541:13577  address(this).balance >= totalPayout */\n      lt\n      iszero\n        /* \"AllContracts-test.sol\":13533:13614  require(address(this).balance >= totalPayout, \"Contract balance too low to play\") */\n      tag_357\n      jumpi\n      mload(0x40)\n      0x08c379a000000000000000000000000000000000000000000000000000000000\n      dup2\n      mstore\n      0x04\n      add\n      dup1\n      dup1\n      0x20\n      add\n      dup3\n      dup2\n      sub\n      dup3\n      mstore\n      0x20\n      dup2\n      mstore\n      0x20\n      add\n      dup1\n      0x436f6e74726163742062616c616e636520746f6f206c6f7720746f20706c6179\n      dup2\n      mstore\n      pop\n      0x20\n      add\n      swap2\n      pop\n      pop\n      mload(0x40)\n      dup1\n      swap2\n      sub\n      swap1\n      revert\n    tag_357:\n        /* \"AllContracts-test.sol\":13640:13670  randomness.mod(maxPick).add(1) */\n      tag_358\n        /* \"AllContracts-test.sol\":13668:13669  1 */\n      0x01\n        /* \"AllContracts-test.sol\":13640:13663  randomness.mod(maxPick) */\n      tag_359\n        /* \"AllContracts-test.sol\":13655:13662  maxPick */\n      sload(0x11)\n        /* \"AllContracts-test.sol\":13640:13650  randomness */\n      dup7\n        /* \"AllContracts-test.sol\":13640:13654  randomness.mod */\n      tag_360\n      swap1\n        /* \"AllContracts-test.sol\":13640:13663  randomness.mod(maxPick) */\n      swap2\n      swap1\n      0xffffffff\n      and\n      jump\t// in\n    tag_359:\n        /* \"AllContracts-test.sol\":13640:13667  randomness.mod(maxPick).add */\n      tag_184\n      swap1\n        /* \"AllContracts-test.sol\":13640:13670  randomness.mod(maxPick).add(1) */\n      swap2\n      swap1\n      0xffffffff\n      and\n      jump\t// in\n    tag_358:\n        /* \"AllContracts-test.sol\":13629:13630  g */\n      dup3\n        /* \"AllContracts-test.sol\":13629:13637  g.winner */\n      0x04\n      add\n        /* \"AllContracts-test.sol\":13629:13670  g.winner = randomness.mod(maxPick).add(1) */\n      dup2\n      swap1\n      sstore\n      pop\n        /* \"AllContracts-test.sol\":13696:13700  true */\n      0x01\n        /* \"AllContracts-test.sol\":13685:13686  g */\n      dup3\n        /* \"AllContracts-test.sol\":13685:13693  g.played */\n      0x05\n      add\n      0x00\n        /* \"AllContracts-test.sol\":13685:13700  g.played = true */\n      0x0100\n      exp\n      dup2\n      sload\n      dup2\n      0xff\n      mul\n      not\n      and\n      swap1\n      dup4\n      iszero\n      iszero\n      mul\n      or\n      swap1\n      sstore\n      pop\n        /* \"AllContracts-test.sol\":13735:13736  g */\n      dup2\n        /* \"AllContracts-test.sol\":13735:13740  g.bet */\n      0x02\n      add\n      sload\n        /* \"AllContracts-test.sol\":13718:13731  _unplayedBets */\n      sload(0x14)\n        /* \"AllContracts-test.sol\":13718:13740  _unplayedBets >= g.bet */\n      lt\n        /* \"AllContracts-test.sol\":13715:13853  if(_unplayedBets >= g.bet) {... */\n      tag_361\n      jumpi\n        /* \"AllContracts-test.sol\":13777:13778  g */\n      dup2\n        /* \"AllContracts-test.sol\":13777:13782  g.bet */\n      0x02\n      add\n      sload\n        /* \"AllContracts-test.sol\":13760:13773  _unplayedBets */\n      0x14\n      0x00\n        /* \"AllContracts-test.sol\":13760:13782  _unplayedBets -= g.bet */\n      dup3\n      dup3\n      sload\n      sub\n      swap3\n      pop\n      pop\n      dup2\n      swap1\n      sstore\n      pop\n        /* \"AllContracts-test.sol\":13715:13853  if(_unplayedBets >= g.bet) {... */\n      jump(tag_362)\n    tag_361:\n        /* \"AllContracts-test.sol\":13837:13838  0 */\n      0x00\n        /* \"AllContracts-test.sol\":13821:13834  _unplayedBets */\n      0x14\n        /* \"AllContracts-test.sol\":13821:13838  _unplayedBets = 0 */\n      dup2\n      swap1\n      sstore\n      pop\n        /* \"AllContracts-test.sol\":13715:13853  if(_unplayedBets >= g.bet) {... */\n    tag_362:\n        /* \"AllContracts-test.sol\":13881:13882  g */\n      dup2\n        /* \"AllContracts-test.sol\":13881:13889  g.winner */\n      0x04\n      add\n      sload\n        /* \"AllContracts-test.sol\":13871:13872  g */\n      dup3\n        /* \"AllContracts-test.sol\":13871:13877  g.pick */\n      0x03\n      add\n      sload\n        /* \"AllContracts-test.sol\":13871:13889  g.pick == g.winner */\n      eq\n        /* \"AllContracts-test.sol\":13867:14008  if (g.pick == g.winner) {... */\n      iszero\n      tag_363\n      jumpi\n        /* \"AllContracts-test.sol\":13909:13910  g */\n      dup2\n        /* \"AllContracts-test.sol\":13909:13917  g.player */\n      0x01\n      add\n      0x00\n      swap1\n      sload\n      swap1\n      0x0100\n      exp\n      swap1\n      div\n      0xffffffffffffffffffffffffffffffffffffffff\n      and\n        /* \"AllContracts-test.sol\":13909:13926  g.player.transfer */\n      0xffffffffffffffffffffffffffffffffffffffff\n      and\n        /* \"AllContracts-test.sol\":13909:13939  g.player.transfer(totalPayout) */\n      0x08fc\n        /* \"AllContracts-test.sol\":13927:13938  totalPayout */\n      dup3\n        /* \"AllContracts-test.sol\":13909:13939  g.player.transfer(totalPayout) */\n      swap1\n      dup2\n      iszero\n      mul\n      swap1\n      mload(0x40)\n      0x00\n      mload(0x40)\n      dup1\n      dup4\n      sub\n      dup2\n      dup6\n      dup9\n      dup9\n      call\n      swap4\n      pop\n      pop\n      pop\n      pop\n      iszero\n        /* \"--CODEGEN--\":8:17   */\n      dup1\n        /* \"--CODEGEN--\":5:7   */\n      iszero\n      tag_365\n      jumpi\n        /* \"--CODEGEN--\":45:61   */\n      returndatasize\n        /* \"--CODEGEN--\":42:43   */\n      0x00\n        /* \"--CODEGEN--\":39:40   */\n      dup1\n        /* \"--CODEGEN--\":24:62   */\n      returndatacopy\n        /* \"--CODEGEN--\":77:93   */\n      returndatasize\n        /* \"--CODEGEN--\":74:75   */\n      0x00\n        /* \"--CODEGEN--\":67:94   */\n      revert\n        /* \"--CODEGEN--\":5:7   */\n    tag_365:\n        /* \"AllContracts-test.sol\":13909:13939  g.player.transfer(totalPayout) */\n      pop\n        /* \"AllContracts-test.sol\":13867:14008  if (g.pick == g.winner) {... */\n      jump(tag_366)\n    tag_363:\n        /* \"AllContracts-test.sol\":13992:13993  0 */\n      0x00\n        /* \"AllContracts-test.sol\":13978:13993  totalPayout = 0 */\n      swap1\n      pop\n        /* \"AllContracts-test.sol\":13867:14008  if (g.pick == g.winner) {... */\n    tag_366:\n        /* \"AllContracts-test.sol\":14027:14085  GamePlayed(g.player, g.bet, g.pick, g.winner, totalPayout) */\n      0xc06600d6399308f270bc6ae70d5377121b685c974bb7f7355824fddd8a2b3497\n        /* \"AllContracts-test.sol\":14038:14039  g */\n      dup3\n        /* \"AllContracts-test.sol\":14038:14046  g.player */\n      0x01\n      add\n      0x00\n      swap1\n      sload\n      swap1\n      0x0100\n      exp\n      swap1\n      div\n      0xffffffffffffffffffffffffffffffffffffffff\n      and\n        /* \"AllContracts-test.sol\":14048:14049  g */\n      dup4\n        /* \"AllContracts-test.sol\":14048:14053  g.bet */\n      0x02\n      add\n      sload\n        /* \"AllContracts-test.sol\":14055:14056  g */\n      dup5\n        /* \"AllContracts-test.sol\":14055:14061  g.pick */\n      0x03\n      add\n      sload\n        /* \"AllContracts-test.sol\":14063:14064  g */\n      dup6\n        /* \"AllContracts-test.sol\":14063:14071  g.winner */\n      0x04\n      add\n      sload\n        /* \"AllContracts-test.sol\":14073:14084  totalPayout */\n      dup6\n        /* \"AllContracts-test.sol\":14027:14085  GamePlayed(g.player, g.bet, g.pick, g.winner, totalPayout) */\n      mload(0x40)\n      dup1\n      dup7\n      0xffffffffffffffffffffffffffffffffffffffff\n      and\n      0xffffffffffffffffffffffffffffffffffffffff\n      and\n      dup2\n      mstore\n      0x20\n      add\n      dup6\n      dup2\n      mstore\n      0x20\n      add\n      dup5\n      dup2\n      mstore\n      0x20\n      add\n      dup4\n      dup2\n      mstore\n      0x20\n      add\n      dup3\n      dup2\n      mstore\n      0x20\n      add\n      swap6\n      pop\n      pop\n      pop\n      pop\n      pop\n      pop\n      mload(0x40)\n      dup1\n      swap2\n      sub\n      swap1\n      log1\n        /* \"AllContracts-test.sol\":13346:14096  if(g.id > 0 && g.played == false){... */\n      pop\n    tag_353:\n        /* \"AllContracts-test.sol\":14112:14113  1 */\n      0x01\n        /* \"AllContracts-test.sol\":14105:14109  gas1 */\n      0x06\n        /* \"AllContracts-test.sol\":14105:14113  gas1 = 1 */\n      dup2\n      swap1\n      sstore\n      pop\n        /* \"AllContracts-test.sol\":14130:14131  1 */\n      0x01\n        /* \"AllContracts-test.sol\":14123:14127  gas2 */\n      0x07\n        /* \"AllContracts-test.sol\":14123:14131  gas2 = 1 */\n      dup2\n      swap1\n      sstore\n      pop\n        /* \"AllContracts-test.sol\":14148:14149  1 */\n      0x01\n        /* \"AllContracts-test.sol\":14141:14145  gas3 */\n      0x08\n        /* \"AllContracts-test.sol\":14141:14149  gas3 = 1 */\n      dup2\n      swap1\n      sstore\n      pop\n        /* \"AllContracts-test.sol\":14166:14167  1 */\n      0x01\n        /* \"AllContracts-test.sol\":14159:14163  gas4 */\n      0x09\n        /* \"AllContracts-test.sol\":14159:14167  gas4 = 1 */\n      dup2\n      swap1\n      sstore\n      pop\n        /* \"AllContracts-test.sol\":14184:14185  1 */\n      0x01\n        /* \"AllContracts-test.sol\":14177:14181  gas5 */\n      0x0a\n        /* \"AllContracts-test.sol\":14177:14185  gas5 = 1 */\n      dup2\n      swap1\n      sstore\n      pop\n        /* \"AllContracts-test.sol\":14202:14203  1 */\n      0x01\n        /* \"AllContracts-test.sol\":14195:14199  gas6 */\n      0x0b\n        /* \"AllContracts-test.sol\":14195:14203  gas6 = 1 */\n      dup2\n      swap1\n      sstore\n      pop\n        /* \"AllContracts-test.sol\":14220:14221  1 */\n      0x01\n        /* \"AllContracts-test.sol\":14213:14217  gas7 */\n      0x0c\n        /* \"AllContracts-test.sol\":14213:14221  gas7 = 1 */\n      dup2\n      swap1\n      sstore\n      pop\n        /* \"AllContracts-test.sol\":14238:14239  1 */\n      0x01\n        /* \"AllContracts-test.sol\":14231:14235  gas8 */\n      0x0d\n        /* \"AllContracts-test.sol\":14231:14239  gas8 = 1 */\n      dup2\n      swap1\n      sstore\n      pop\n        /* \"AllContracts-test.sol\":14256:14257  1 */\n      0x01\n        /* \"AllContracts-test.sol\":14249:14253  gas9 */\n      0x0e\n        /* \"AllContracts-test.sol\":14249:14257  gas9 = 1 */\n      dup2\n      swap1\n      sstore\n      pop\n        /* \"AllContracts-test.sol\":14275:14276  1 */\n      0x01\n        /* \"AllContracts-test.sol\":14267:14272  gas10 */\n      0x0f\n        /* \"AllContracts-test.sol\":14267:14276  gas10 = 1 */\n      dup2\n      swap1\n      sstore\n      pop\n        /* \"AllContracts-test.sol\":14294:14295  1 */\n      0x01\n        /* \"AllContracts-test.sol\":14286:14291  gas11 */\n      0x10\n        /* \"AllContracts-test.sol\":14286:14295  gas11 = 1 */\n      dup2\n      swap1\n      sstore\n      pop\n        /* \"AllContracts-test.sol\":13157:14302  function fulfillRandomness(bytes32 requestId, uint256 randomness) internal override {... */\n      pop\n      pop\n      pop\n      jump\t// out\n        /* \"AllContracts-test.sol\":11399:11771  function createGame(address payable _player, uint _bet, uint _pick) internal {... */\n    tag_273:\n        /* \"AllContracts-test.sol\":11502:11521  _currentGame.add(1) */\n      tag_368\n        /* \"AllContracts-test.sol\":11519:11520  1 */\n      0x01\n        /* \"AllContracts-test.sol\":11502:11514  _currentGame */\n      sload(0x15)\n        /* \"AllContracts-test.sol\":11502:11518  _currentGame.add */\n      tag_184\n      swap1\n        /* \"AllContracts-test.sol\":11502:11521  _currentGame.add(1) */\n      swap2\n      swap1\n      0xffffffff\n      and\n      jump\t// in\n    tag_368:\n        /* \"AllContracts-test.sol\":11487:11499  _currentGame */\n      0x15\n        /* \"AllContracts-test.sol\":11487:11521  _currentGame = _currentGame.add(1) */\n      dup2\n      swap1\n      sstore\n      pop\n        /* \"AllContracts-test.sol\":11531:11550  Game memory newGame */\n      tag_369\n      tag_326\n      jump\t// in\n    tag_369:\n        /* \"AllContracts-test.sol\":11553:11727  Game ({... */\n      mload(0x40)\n      dup1\n      0xc0\n      add\n      0x40\n      mstore\n      dup1\n        /* \"AllContracts-test.sol\":11577:11589  _currentGame */\n      sload(0x15)\n        /* \"AllContracts-test.sol\":11553:11727  Game ({... */\n      dup2\n      mstore\n      0x20\n      add\n        /* \"AllContracts-test.sol\":11611:11618  _player */\n      dup6\n        /* \"AllContracts-test.sol\":11553:11727  Game ({... */\n      0xffffffffffffffffffffffffffffffffffffffff\n      and\n      dup2\n      mstore\n      0x20\n      add\n        /* \"AllContracts-test.sol\":11637:11641  _bet */\n      dup5\n        /* \"AllContracts-test.sol\":11553:11727  Game ({... */\n      dup2\n      mstore\n      0x20\n      add\n        /* \"AllContracts-test.sol\":11661:11666  _pick */\n      dup4\n        /* \"AllContracts-test.sol\":11553:11727  Game ({... */\n      dup2\n      mstore\n      0x20\n      add\n        /* \"AllContracts-test.sol\":11688:11689  0 */\n      0x00\n        /* \"AllContracts-test.sol\":11553:11727  Game ({... */\n      dup2\n      mstore\n      0x20\n      add\n        /* \"AllContracts-test.sol\":11711:11716  false */\n      0x00\n        /* \"AllContracts-test.sol\":11553:11727  Game ({... */\n      iszero\n      iszero\n      dup2\n      mstore\n      pop\n        /* \"AllContracts-test.sol\":11531:11727  Game memory newGame = Game ({... */\n      swap1\n      pop\n        /* \"AllContracts-test.sol\":11757:11764  newGame */\n      dup1\n        /* \"AllContracts-test.sol\":11737:11742  games */\n      0x1a\n        /* \"AllContracts-test.sol\":11737:11754  games[newGame.id] */\n      0x00\n        /* \"AllContracts-test.sol\":11743:11750  newGame */\n      dup4\n        /* \"AllContracts-test.sol\":11743:11753  newGame.id */\n      0x00\n      add\n      mload\n        /* \"AllContracts-test.sol\":11737:11754  games[newGame.id] */\n      dup2\n      mstore\n      0x20\n      add\n      swap1\n      dup2\n      mstore\n      0x20\n      add\n      0x00\n      keccak256\n        /* \"AllContracts-test.sol\":11737:11764  games[newGame.id] = newGame */\n      0x00\n      dup3\n      add\n      mload\n      dup2\n      0x00\n      add\n      sstore\n      0x20\n      dup3\n      add\n      mload\n      dup2\n      0x01\n      add\n      exp(0x0100, 0x00)\n      dup2\n      sload\n      dup2\n      0xffffffffffffffffffffffffffffffffffffffff\n      mul\n      not\n      and\n      swap1\n      dup4\n      0xffffffffffffffffffffffffffffffffffffffff\n      and\n      mul\n      or\n      swap1\n      sstore\n      pop\n      0x40\n      dup3\n      add\n      mload\n      dup2\n      0x02\n      add\n      sstore\n      0x60\n      dup3\n      add\n      mload\n      dup2\n      0x03\n      add\n      sstore\n      0x80\n      dup3\n      add\n      mload\n      dup2\n      0x04\n      add\n      sstore\n      0xa0\n      dup3\n      add\n      mload\n      dup2\n      0x05\n      add\n      exp(0x0100, 0x00)\n      dup2\n      sload\n      dup2\n      0xff\n      mul\n      not\n      and\n      swap1\n      dup4\n      iszero\n      iszero\n      mul\n      or\n      swap1\n      sstore\n      pop\n      swap1\n      pop\n      pop\n        /* \"AllContracts-test.sol\":11399:11771  function createGame(address payable _player, uint _bet, uint _pick) internal {... */\n      pop\n      pop\n      pop\n      pop\n      jump\t// out\n        /* \"AllContracts-test.sol\":12413:12622  function playGame(uint gameID) internal {... */\n    tag_275:\n        /* \"AllContracts-test.sol\":12495:12500  false */\n      0x00\n        /* \"AllContracts-test.sol\":12471:12500  games[gameID].played == false */\n      iszero\n      iszero\n        /* \"AllContracts-test.sol\":12471:12476  games */\n      0x1a\n        /* \"AllContracts-test.sol\":12471:12484  games[gameID] */\n      0x00\n        /* \"AllContracts-test.sol\":12477:12483  gameID */\n      dup4\n        /* \"AllContracts-test.sol\":12471:12484  games[gameID] */\n      dup2\n      mstore\n      0x20\n      add\n      swap1\n      dup2\n      mstore\n      0x20\n      add\n      0x00\n      keccak256\n        /* \"AllContracts-test.sol\":12471:12491  games[gameID].played */\n      0x05\n      add\n      0x00\n      swap1\n      sload\n      swap1\n      0x0100\n      exp\n      swap1\n      div\n      0xff\n      and\n        /* \"AllContracts-test.sol\":12471:12500  games[gameID].played == false */\n      iszero\n      iszero\n      eq\n        /* \"AllContracts-test.sol\":12463:12524  require(games[gameID].played == false, \"game already played\") */\n      tag_371\n      jumpi\n      mload(0x40)\n      0x08c379a000000000000000000000000000000000000000000000000000000000\n      dup2\n      mstore\n      0x04\n      add\n      dup1\n      dup1\n      0x20\n      add\n      dup3\n      dup2\n      sub\n      dup3\n      mstore\n      0x13\n      dup2\n      mstore\n      0x20\n      add\n      dup1\n      0x67616d6520616c726561647920706c6179656400000000000000000000000000\n      dup2\n      mstore\n      pop\n      0x20\n      add\n      swap2\n      pop\n      pop\n      mload(0x40)\n      dup1\n      swap2\n      sub\n      swap1\n      revert\n    tag_371:\n        /* \"AllContracts-test.sol\":12534:12547  bytes32 reqID */\n      0x00\n        /* \"AllContracts-test.sol\":12550:12576  getRandomNumber(getSeed()) */\n      tag_372\n        /* \"AllContracts-test.sol\":12566:12575  getSeed() */\n      tag_373\n        /* \"AllContracts-test.sol\":12566:12573  getSeed */\n      tag_374\n        /* \"AllContracts-test.sol\":12566:12575  getSeed() */\n      jump\t// in\n    tag_373:\n        /* \"AllContracts-test.sol\":12550:12565  getRandomNumber */\n      tag_375\n        /* \"AllContracts-test.sol\":12550:12576  getRandomNumber(getSeed()) */\n      jump\t// in\n    tag_372:\n        /* \"AllContracts-test.sol\":12534:12576  bytes32 reqID = getRandomNumber(getSeed()) */\n      swap1\n      pop\n        /* \"AllContracts-test.sol\":12609:12615  gameID */\n      dup2\n        /* \"AllContracts-test.sol\":12586:12599  _gameRequests */\n      0x1b\n        /* \"AllContracts-test.sol\":12586:12606  _gameRequests[reqID] */\n      0x00\n        /* \"AllContracts-test.sol\":12600:12605  reqID */\n      dup4\n        /* \"AllContracts-test.sol\":12586:12606  _gameRequests[reqID] */\n      dup2\n      mstore\n      0x20\n      add\n      swap1\n      dup2\n      mstore\n      0x20\n      add\n      0x00\n      keccak256\n        /* \"AllContracts-test.sol\":12586:12615  _gameRequests[reqID] = gameID */\n      dup2\n      swap1\n      sstore\n      pop\n        /* \"AllContracts-test.sol\":12413:12622  function playGame(uint gameID) internal {... */\n      pop\n      pop\n      jump\t// out\n        /* \"AllContracts-test.sol\":8287:8475  function betInRange(uint bet) internal view returns(bool){... */\n    tag_318:\n        /* \"AllContracts-test.sol\":8339:8343  bool */\n      0x00\n        /* \"AllContracts-test.sol\":8365:8371  minBet */\n      sload(0x13)\n        /* \"AllContracts-test.sol\":8358:8361  bet */\n      dup3\n        /* \"AllContracts-test.sol\":8358:8371  bet >= minBet */\n      lt\n      iszero\n        /* \"AllContracts-test.sol\":8358:8388  bet >= minBet && bet <= maxBet */\n      dup1\n      iszero\n      tag_377\n      jumpi\n      pop\n        /* \"AllContracts-test.sol\":8382:8388  maxBet */\n      sload(0x12)\n        /* \"AllContracts-test.sol\":8375:8378  bet */\n      dup3\n        /* \"AllContracts-test.sol\":8375:8388  bet <= maxBet */\n      gt\n      iszero\n        /* \"AllContracts-test.sol\":8358:8388  bet >= minBet && bet <= maxBet */\n    tag_377:\n        /* \"AllContracts-test.sol\":8354:8469  if (bet >= minBet && bet <= maxBet) {... */\n      iszero\n      tag_378\n      jumpi\n        /* \"AllContracts-test.sol\":8411:8415  true */\n      0x01\n        /* \"AllContracts-test.sol\":8404:8415  return true */\n      swap1\n      pop\n      jump(tag_376)\n        /* \"AllContracts-test.sol\":8354:8469  if (bet >= minBet && bet <= maxBet) {... */\n    tag_378:\n        /* \"AllContracts-test.sol\":8453:8458  false */\n      0x00\n        /* \"AllContracts-test.sol\":8446:8458  return false */\n      swap1\n      pop\n        /* \"AllContracts-test.sol\":8287:8475  function betInRange(uint bet) internal view returns(bool){... */\n    tag_376:\n      swap2\n      swap1\n      pop\n      jump\t// out\n        /* \"AllContracts-test.sol\":2980:3119  function mod(uint256 a, uint256 b) internal pure returns (uint256) {... */\n    tag_360:\n        /* \"AllContracts-test.sol\":3038:3045  uint256 */\n      0x00\n        /* \"AllContracts-test.sol\":3066:3067  0 */\n      dup1\n        /* \"AllContracts-test.sol\":3061:3062  b */\n      dup3\n        /* \"AllContracts-test.sol\":3061:3067  b != 0 */\n      eq\n      iszero\n        /* \"AllContracts-test.sol\":3053:3096  require(b != 0, \"SafeMath: modulo by zero\") */\n      tag_381\n      jumpi\n      mload(0x40)\n      0x08c379a000000000000000000000000000000000000000000000000000000000\n      dup2\n      mstore\n      0x04\n      add\n      dup1\n      dup1\n      0x20\n      add\n      dup3\n      dup2\n      sub\n      dup3\n      mstore\n      0x18\n      dup2\n      mstore\n      0x20\n      add\n      dup1\n      0x536166654d6174683a206d6f64756c6f206279207a65726f0000000000000000\n      dup2\n      mstore\n      pop\n      0x20\n      add\n      swap2\n      pop\n      pop\n      mload(0x40)\n      dup1\n      swap2\n      sub\n      swap1\n      revert\n    tag_381:\n        /* \"AllContracts-test.sol\":3113:3114  b */\n      dup2\n        /* \"AllContracts-test.sol\":3109:3110  a */\n      dup4\n        /* \"AllContracts-test.sol\":3109:3114  a % b */\n      dup2\n      tag_382\n      jumpi\n      invalid\n    tag_382:\n      mod\n        /* \"AllContracts-test.sol\":3102:3114  return a % b */\n      swap1\n      pop\n        /* \"AllContracts-test.sol\":2980:3119  function mod(uint256 a, uint256 b) internal pure returns (uint256) {... */\n      swap3\n      swap2\n      pop\n      pop\n      jump\t// out\n        /* \"AllContracts-test.sol\":11852:12044  function getSeed() internal view returns(uint256) {... */\n    tag_374:\n        /* \"AllContracts-test.sol\":11893:11900  uint256 */\n      0x00\n        /* \"AllContracts-test.sol\":11912:11925  Game memory g */\n      tag_384\n      tag_326\n      jump\t// in\n    tag_384:\n        /* \"AllContracts-test.sol\":11928:11933  games */\n      0x1a\n        /* \"AllContracts-test.sol\":11928:11947  games[_currentGame] */\n      0x00\n        /* \"AllContracts-test.sol\":11934:11946  _currentGame */\n      sload(0x15)\n        /* \"AllContracts-test.sol\":11928:11947  games[_currentGame] */\n      dup2\n      mstore\n      0x20\n      add\n      swap1\n      dup2\n      mstore\n      0x20\n      add\n      0x00\n      keccak256\n        /* \"AllContracts-test.sol\":11912:11947  Game memory g = games[_currentGame] */\n      mload(0x40)\n      dup1\n      0xc0\n      add\n      0x40\n      mstore\n      swap1\n      dup2\n      0x00\n      dup3\n      add\n      sload\n      dup2\n      mstore\n      0x20\n      add\n      0x01\n      dup3\n      add\n      0x00\n      swap1\n      sload\n      swap1\n      0x0100\n      exp\n      swap1\n      div\n      0xffffffffffffffffffffffffffffffffffffffff\n      and\n      0xffffffffffffffffffffffffffffffffffffffff\n      and\n      0xffffffffffffffffffffffffffffffffffffffff\n      and\n      dup2\n      mstore\n      0x20\n      add\n      0x02\n      dup3\n      add\n      sload\n      dup2\n      mstore\n      0x20\n      add\n      0x03\n      dup3\n      add\n      sload\n      dup2\n      mstore\n      0x20\n      add\n      0x04\n      dup3\n      add\n      sload\n      dup2\n      mstore\n      0x20\n      add\n      0x05\n      dup3\n      add\n      0x00\n      swap1\n      sload\n      swap1\n      0x0100\n      exp\n      swap1\n      div\n      0xff\n      and\n      iszero\n      iszero\n      iszero\n      iszero\n      dup2\n      mstore\n      pop\n      pop\n      swap1\n      pop\n        /* \"AllContracts-test.sol\":11996:12008  block.number */\n      number\n        /* \"AllContracts-test.sol\":12010:12013  now */\n      timestamp\n        /* \"AllContracts-test.sol\":12015:12016  g */\n      dup3\n        /* \"AllContracts-test.sol\":12015:12021  g.pick */\n      0x60\n      add\n      mload\n        /* \"AllContracts-test.sol\":12023:12024  g */\n      dup4\n        /* \"AllContracts-test.sol\":12023:12028  g.bet */\n      0x40\n      add\n      mload\n        /* \"AllContracts-test.sol\":12030:12031  g */\n      dup5\n        /* \"AllContracts-test.sol\":12030:12034  g.id */\n      0x00\n      add\n      mload\n        /* \"AllContracts-test.sol\":11979:12035  abi.encodePacked(block.number, now, g.pick, g.bet, g.id) */\n      add(0x20, mload(0x40))\n      dup1\n      dup7\n      dup2\n      mstore\n      0x20\n      add\n      dup6\n      dup2\n      mstore\n      0x20\n      add\n      dup5\n      dup2\n      mstore\n      0x20\n      add\n      dup4\n      dup2\n      mstore\n      0x20\n      add\n      dup3\n      dup2\n      mstore\n      0x20\n      add\n      swap6\n      pop\n      pop\n      pop\n      pop\n      pop\n      pop\n      mload(0x40)\n        /* \"--CODEGEN--\":49:53   */\n      0x20\n        /* \"--CODEGEN--\":39:46   */\n      dup2\n        /* \"--CODEGEN--\":30:37   */\n      dup4\n        /* \"--CODEGEN--\":26:47   */\n      sub\n        /* \"--CODEGEN--\":22:54   */\n      sub\n        /* \"--CODEGEN--\":13:20   */\n      dup2\n        /* \"--CODEGEN--\":6:55   */\n      mstore\n        /* \"AllContracts-test.sol\":11979:12035  abi.encodePacked(block.number, now, g.pick, g.bet, g.id) */\n      swap1\n      0x40\n      mstore\n        /* \"AllContracts-test.sol\":11969:12036  keccak256(abi.encodePacked(block.number, now, g.pick, g.bet, g.id)) */\n      dup1\n      mload\n      swap1\n      0x20\n      add\n      keccak256\n        /* \"AllContracts-test.sol\":11964:12037  uint(keccak256(abi.encodePacked(block.number, now, g.pick, g.bet, g.id))) */\n      0x00\n      shr\n        /* \"AllContracts-test.sol\":11957:12037  return uint(keccak256(abi.encodePacked(block.number, now, g.pick, g.bet, g.id))) */\n      swap2\n      pop\n      pop\n        /* \"AllContracts-test.sol\":11852:12044  function getSeed() internal view returns(uint256) {... */\n      swap1\n      jump\t// out\n        /* \"AllContracts-test.sol\":12754:12964  function getRandomNumber(uint256 seed) internal returns (bytes32 requestId) {... */\n    tag_375:\n        /* \"AllContracts-test.sol\":12811:12828  bytes32 requestId */\n      0x00\n        /* \"AllContracts-test.sol\":12880:12883  fee */\n      sload(0x05)\n        /* \"AllContracts-test.sol\":12848:12852  LINK */\n      0x00\n      dup1\n      swap1\n      sload\n      swap1\n      0x0100\n      exp\n      swap1\n      div\n      0xffffffffffffffffffffffffffffffffffffffff\n      and\n        /* \"AllContracts-test.sol\":12848:12862  LINK.balanceOf */\n      0xffffffffffffffffffffffffffffffffffffffff\n      and\n      0x70a08231\n        /* \"AllContracts-test.sol\":12871:12875  this */\n      address\n        /* \"AllContracts-test.sol\":12848:12877  LINK.balanceOf(address(this)) */\n      mload(0x40)\n      dup3\n      0xffffffff\n      and\n      0xe0\n      shl\n      dup2\n      mstore\n      0x04\n      add\n      dup1\n      dup3\n      0xffffffffffffffffffffffffffffffffffffffff\n      and\n      0xffffffffffffffffffffffffffffffffffffffff\n      and\n      dup2\n      mstore\n      0x20\n      add\n      swap2\n      pop\n      pop\n      0x20\n      mload(0x40)\n      dup1\n      dup4\n      sub\n      dup2\n      dup7\n      dup1\n      extcodesize\n      iszero\n        /* \"--CODEGEN--\":8:17   */\n      dup1\n        /* \"--CODEGEN--\":5:7   */\n      iszero\n      tag_386\n      jumpi\n        /* \"--CODEGEN--\":30:31   */\n      0x00\n        /* \"--CODEGEN--\":27:28   */\n      dup1\n        /* \"--CODEGEN--\":20:32   */\n      revert\n        /* \"--CODEGEN--\":5:7   */\n    tag_386:\n        /* \"AllContracts-test.sol\":12848:12877  LINK.balanceOf(address(this)) */\n      pop\n      gas\n      staticcall\n      iszero\n        /* \"--CODEGEN--\":8:17   */\n      dup1\n        /* \"--CODEGEN--\":5:7   */\n      iszero\n      tag_388\n      jumpi\n        /* \"--CODEGEN--\":45:61   */\n      returndatasize\n        /* \"--CODEGEN--\":42:43   */\n      0x00\n        /* \"--CODEGEN--\":39:40   */\n      dup1\n        /* \"--CODEGEN--\":24:62   */\n      returndatacopy\n        /* \"--CODEGEN--\":77:93   */\n      returndatasize\n        /* \"--CODEGEN--\":74:75   */\n      0x00\n        /* \"--CODEGEN--\":67:94   */\n      revert\n        /* \"--CODEGEN--\":5:7   */\n    tag_388:\n        /* \"AllContracts-test.sol\":12848:12877  LINK.balanceOf(address(this)) */\n      pop\n      pop\n      pop\n      pop\n      mload(0x40)\n      returndatasize\n        /* \"--CODEGEN--\":13:15   */\n      0x20\n        /* \"--CODEGEN--\":8:11   */\n      dup2\n        /* \"--CODEGEN--\":5:16   */\n      lt\n        /* \"--CODEGEN--\":2:4   */\n      iszero\n      tag_389\n      jumpi\n        /* \"--CODEGEN--\":29:30   */\n      0x00\n        /* \"--CODEGEN--\":26:27   */\n      dup1\n        /* \"--CODEGEN--\":19:31   */\n      revert\n        /* \"--CODEGEN--\":2:4   */\n    tag_389:\n        /* \"AllContracts-test.sol\":12848:12877  LINK.balanceOf(address(this)) */\n      dup2\n      add\n      swap1\n      dup1\n      dup1\n      mload\n      swap1\n      0x20\n      add\n      swap1\n      swap3\n      swap2\n      swap1\n      pop\n      pop\n      pop\n        /* \"AllContracts-test.sol\":12848:12883  LINK.balanceOf(address(this)) > fee */\n      gt\n        /* \"AllContracts-test.sol\":12840:12903  require(LINK.balanceOf(address(this)) > fee, \"Not enough LINK\") */\n      tag_390\n      jumpi\n      mload(0x40)\n      0x08c379a000000000000000000000000000000000000000000000000000000000\n      dup2\n      mstore\n      0x04\n      add\n      dup1\n      dup1\n      0x20\n      add\n      dup3\n      dup2\n      sub\n      dup3\n      mstore\n      0x0f\n      dup2\n      mstore\n      0x20\n      add\n      dup1\n      0x4e6f7420656e6f756768204c494e4b0000000000000000000000000000000000\n      dup2\n      mstore\n      pop\n      0x20\n      add\n      swap2\n      pop\n      pop\n      mload(0x40)\n      dup1\n      swap2\n      sub\n      swap1\n      revert\n    tag_390:\n        /* \"AllContracts-test.sol\":12920:12957  requestRandomness(keyHash, fee, seed) */\n      tag_391\n        /* \"AllContracts-test.sol\":12938:12945  keyHash */\n      sload(0x04)\n        /* \"AllContracts-test.sol\":12947:12950  fee */\n      sload(0x05)\n        /* \"AllContracts-test.sol\":12952:12956  seed */\n      dup5\n        /* \"AllContracts-test.sol\":12920:12937  requestRandomness */\n      tag_392\n        /* \"AllContracts-test.sol\":12920:12957  requestRandomness(keyHash, fee, seed) */\n      jump\t// in\n    tag_391:\n        /* \"AllContracts-test.sol\":12913:12957  return requestRandomness(keyHash, fee, seed) */\n      swap1\n      pop\n        /* \"AllContracts-test.sol\":12754:12964  function getRandomNumber(uint256 seed) internal returns (bytes32 requestId) {... */\n      swap2\n      swap1\n      pop\n      jump\t// out\n        /* \"AllContracts-test.sol\":4790:5175  function requestRandomness(bytes32 _keyHash, uint256 _fee, uint256 _seed)... */\n    tag_392:\n        /* \"AllContracts-test.sol\":4886:4903  bytes32 requestId */\n      0x00\n        /* \"AllContracts-test.sol\":4913:4917  LINK */\n      dup1\n      0x00\n      swap1\n      sload\n      swap1\n      0x0100\n      exp\n      swap1\n      div\n      0xffffffffffffffffffffffffffffffffffffffff\n      and\n        /* \"AllContracts-test.sol\":4913:4933  LINK.transferAndCall */\n      0xffffffffffffffffffffffffffffffffffffffff\n      and\n      0x4000aea0\n        /* \"AllContracts-test.sol\":4934:4948  vrfCoordinator */\n      0x01\n      0x00\n      swap1\n      sload\n      swap1\n      0x0100\n      exp\n      swap1\n      div\n      0xffffffffffffffffffffffffffffffffffffffff\n      and\n        /* \"AllContracts-test.sol\":4950:4954  _fee */\n      dup6\n        /* \"AllContracts-test.sol\":4967:4975  _keyHash */\n      dup8\n        /* \"AllContracts-test.sol\":4977:4982  _seed */\n      dup7\n        /* \"AllContracts-test.sol\":4956:4983  abi.encode(_keyHash, _seed) */\n      add(0x20, mload(0x40))\n      dup1\n      dup4\n      dup2\n      mstore\n      0x20\n      add\n      dup3\n      dup2\n      mstore\n      0x20\n      add\n      swap3\n      pop\n      pop\n      pop\n      mload(0x40)\n        /* \"--CODEGEN--\":49:53   */\n      0x20\n        /* \"--CODEGEN--\":39:46   */\n      dup2\n        /* \"--CODEGEN--\":30:37   */\n      dup4\n        /* \"--CODEGEN--\":26:47   */\n      sub\n        /* \"--CODEGEN--\":22:54   */\n      sub\n        /* \"--CODEGEN--\":13:20   */\n      dup2\n        /* \"--CODEGEN--\":6:55   */\n      mstore\n        /* \"AllContracts-test.sol\":4956:4983  abi.encode(_keyHash, _seed) */\n      swap1\n      0x40\n      mstore\n        /* \"AllContracts-test.sol\":4913:4984  LINK.transferAndCall(vrfCoordinator, _fee, abi.encode(_keyHash, _seed)) */\n      mload(0x40)\n      dup5\n      0xffffffff\n      and\n      0xe0\n      shl\n      dup2\n      mstore\n      0x04\n      add\n      dup1\n      dup5\n      0xffffffffffffffffffffffffffffffffffffffff\n      and\n      0xffffffffffffffffffffffffffffffffffffffff\n      and\n      dup2\n      mstore\n      0x20\n      add\n      dup4\n      dup2\n      mstore\n      0x20\n      add\n      dup1\n      0x20\n      add\n      dup3\n      dup2\n      sub\n      dup3\n      mstore\n      dup4\n      dup2\n      dup2\n      mload\n      dup2\n      mstore\n      0x20\n      add\n      swap2\n      pop\n      dup1\n      mload\n      swap1\n      0x20\n      add\n      swap1\n      dup1\n      dup4\n      dup4\n        /* \"--CODEGEN--\":23:24   */\n      0x00\n        /* \"--CODEGEN--\":8:108   */\n    tag_394:\n        /* \"--CODEGEN--\":33:36   */\n      dup4\n        /* \"--CODEGEN--\":30:31   */\n      dup2\n        /* \"--CODEGEN--\":27:37   */\n      lt\n        /* \"--CODEGEN--\":8:108   */\n      iszero\n      tag_396\n      jumpi\n        /* \"--CODEGEN--\":99:100   */\n      dup1\n        /* \"--CODEGEN--\":94:97   */\n      dup3\n        /* \"--CODEGEN--\":90:101   */\n      add\n        /* \"--CODEGEN--\":84:102   */\n      mload\n        /* \"--CODEGEN--\":80:81   */\n      dup2\n        /* \"--CODEGEN--\":75:78   */\n      dup5\n        /* \"--CODEGEN--\":71:82   */\n      add\n        /* \"--CODEGEN--\":64:103   */\n      mstore\n        /* \"--CODEGEN--\":52:54   */\n      0x20\n        /* \"--CODEGEN--\":49:50   */\n      dup2\n        /* \"--CODEGEN--\":45:55   */\n      add\n        /* \"--CODEGEN--\":40:55   */\n      swap1\n      pop\n        /* \"--CODEGEN--\":8:108   */\n      jump(tag_394)\n    tag_396:\n        /* \"--CODEGEN--\":12:26   */\n      pop\n        /* \"AllContracts-test.sol\":4913:4984  LINK.transferAndCall(vrfCoordinator, _fee, abi.encode(_keyHash, _seed)) */\n      pop\n      pop\n      pop\n      swap1\n      pop\n      swap1\n      dup2\n      add\n      swap1\n      0x1f\n      and\n      dup1\n      iszero\n      tag_397\n      jumpi\n      dup1\n      dup3\n      sub\n      dup1\n      mload\n      0x01\n      dup4\n      0x20\n      sub\n      0x0100\n      exp\n      sub\n      not\n      and\n      dup2\n      mstore\n      0x20\n      add\n      swap2\n      pop\n    tag_397:\n      pop\n      swap5\n      pop\n      pop\n      pop\n      pop\n      pop\n      0x20\n      mload(0x40)\n      dup1\n      dup4\n      sub\n      dup2\n      0x00\n      dup8\n      dup1\n      extcodesize\n      iszero\n        /* \"--CODEGEN--\":8:17   */\n      dup1\n        /* \"--CODEGEN--\":5:7   */\n      iszero\n      tag_398\n      jumpi\n        /* \"--CODEGEN--\":30:31   */\n      0x00\n        /* \"--CODEGEN--\":27:28   */\n      dup1\n        /* \"--CODEGEN--\":20:32   */\n      revert\n        /* \"--CODEGEN--\":5:7   */\n    tag_398:\n        /* \"AllContracts-test.sol\":4913:4984  LINK.transferAndCall(vrfCoordinator, _fee, abi.encode(_keyHash, _seed)) */\n      pop\n      gas\n      call\n      iszero\n        /* \"--CODEGEN--\":8:17   */\n      dup1\n        /* \"--CODEGEN--\":5:7   */\n      iszero\n      tag_400\n      jumpi\n        /* \"--CODEGEN--\":45:61   */\n      returndatasize\n        /* \"--CODEGEN--\":42:43   */\n      0x00\n        /* \"--CODEGEN--\":39:40   */\n      dup1\n        /* \"--CODEGEN--\":24:62   */\n      returndatacopy\n        /* \"--CODEGEN--\":77:93   */\n      returndatasize\n        /* \"--CODEGEN--\":74:75   */\n      0x00\n        /* \"--CODEGEN--\":67:94   */\n      revert\n        /* \"--CODEGEN--\":5:7   */\n    tag_400:\n        /* \"AllContracts-test.sol\":4913:4984  LINK.transferAndCall(vrfCoordinator, _fee, abi.encode(_keyHash, _seed)) */\n      pop\n      pop\n      pop\n      pop\n      mload(0x40)\n      returndatasize\n        /* \"--CODEGEN--\":13:15   */\n      0x20\n        /* \"--CODEGEN--\":8:11   */\n      dup2\n        /* \"--CODEGEN--\":5:16   */\n      lt\n        /* \"--CODEGEN--\":2:4   */\n      iszero\n      tag_401\n      jumpi\n        /* \"--CODEGEN--\":29:30   */\n      0x00\n        /* \"--CODEGEN--\":26:27   */\n      dup1\n        /* \"--CODEGEN--\":19:31   */\n      revert\n        /* \"--CODEGEN--\":2:4   */\n    tag_401:\n        /* \"AllContracts-test.sol\":4913:4984  LINK.transferAndCall(vrfCoordinator, _fee, abi.encode(_keyHash, _seed)) */\n      dup2\n      add\n      swap1\n      dup1\n      dup1\n      mload\n      swap1\n      0x20\n      add\n      swap1\n      swap3\n      swap2\n      swap1\n      pop\n      pop\n      pop\n      pop\n        /* \"AllContracts-test.sol\":4991:5006  uint256 vRFSeed */\n      0x00\n        /* \"AllContracts-test.sol\":5010:5076  makeVRFInputSeed(_keyHash, _seed, address(this), nonces[_keyHash]) */\n      tag_402\n        /* \"AllContracts-test.sol\":5027:5035  _keyHash */\n      dup6\n        /* \"AllContracts-test.sol\":5037:5042  _seed */\n      dup5\n        /* \"AllContracts-test.sol\":5052:5056  this */\n      address\n        /* \"AllContracts-test.sol\":5059:5065  nonces */\n      0x02\n        /* \"AllContracts-test.sol\":5059:5075  nonces[_keyHash] */\n      0x00\n        /* \"AllContracts-test.sol\":5066:5074  _keyHash */\n      dup11\n        /* \"AllContracts-test.sol\":5059:5075  nonces[_keyHash] */\n      dup2\n      mstore\n      0x20\n      add\n      swap1\n      dup2\n      mstore\n      0x20\n      add\n      0x00\n      keccak256\n      sload\n        /* \"AllContracts-test.sol\":5010:5026  makeVRFInputSeed */\n      tag_403\n        /* \"AllContracts-test.sol\":5010:5076  makeVRFInputSeed(_keyHash, _seed, address(this), nonces[_keyHash]) */\n      jump\t// in\n    tag_402:\n        /* \"AllContracts-test.sol\":4991:5076  uint256 vRFSeed  = makeVRFInputSeed(_keyHash, _seed, address(this), nonces[_keyHash]) */\n      swap1\n      pop\n        /* \"AllContracts-test.sol\":5102:5125  nonces[_keyHash].add(1) */\n      tag_404\n        /* \"AllContracts-test.sol\":5123:5124  1 */\n      0x01\n        /* \"AllContracts-test.sol\":5102:5108  nonces */\n      0x02\n        /* \"AllContracts-test.sol\":5102:5118  nonces[_keyHash] */\n      0x00\n        /* \"AllContracts-test.sol\":5109:5117  _keyHash */\n      dup9\n        /* \"AllContracts-test.sol\":5102:5118  nonces[_keyHash] */\n      dup2\n      mstore\n      0x20\n      add\n      swap1\n      dup2\n      mstore\n      0x20\n      add\n      0x00\n      keccak256\n      sload\n        /* \"AllContracts-test.sol\":5102:5122  nonces[_keyHash].add */\n      tag_184\n      swap1\n        /* \"AllContracts-test.sol\":5102:5125  nonces[_keyHash].add(1) */\n      swap2\n      swap1\n      0xffffffff\n      and\n      jump\t// in\n    tag_404:\n        /* \"AllContracts-test.sol\":5083:5089  nonces */\n      0x02\n        /* \"AllContracts-test.sol\":5083:5099  nonces[_keyHash] */\n      0x00\n        /* \"AllContracts-test.sol\":5090:5098  _keyHash */\n      dup8\n        /* \"AllContracts-test.sol\":5083:5099  nonces[_keyHash] */\n      dup2\n      mstore\n      0x20\n      add\n      swap1\n      dup2\n      mstore\n      0x20\n      add\n      0x00\n      keccak256\n        /* \"AllContracts-test.sol\":5083:5125  nonces[_keyHash] = nonces[_keyHash].add(1) */\n      dup2\n      swap1\n      sstore\n      pop\n        /* \"AllContracts-test.sol\":5138:5170  makeRequestId(_keyHash, vRFSeed) */\n      tag_405\n        /* \"AllContracts-test.sol\":5152:5160  _keyHash */\n      dup6\n        /* \"AllContracts-test.sol\":5162:5169  vRFSeed */\n      dup3\n        /* \"AllContracts-test.sol\":5138:5151  makeRequestId */\n      tag_406\n        /* \"AllContracts-test.sol\":5138:5170  makeRequestId(_keyHash, vRFSeed) */\n      jump\t// in\n    tag_405:\n        /* \"AllContracts-test.sol\":5131:5170  return makeRequestId(_keyHash, vRFSeed) */\n      swap2\n      pop\n      pop\n        /* \"AllContracts-test.sol\":4790:5175  function requestRandomness(bytes32 _keyHash, uint256 _fee, uint256 _seed)... */\n      swap4\n      swap3\n      pop\n      pop\n      pop\n      jump\t// out\n        /* \"AllContracts-test.sol\":3154:3385  function makeVRFInputSeed(bytes32 _keyHash, uint256 _userSeed,... */\n    tag_403:\n        /* \"AllContracts-test.sol\":3284:3291  uint256 */\n      0x00\n        /* \"AllContracts-test.sol\":3338:3346  _keyHash */\n      dup5\n        /* \"AllContracts-test.sol\":3348:3357  _userSeed */\n      dup5\n        /* \"AllContracts-test.sol\":3359:3369  _requester */\n      dup5\n        /* \"AllContracts-test.sol\":3371:3377  _nonce */\n      dup5\n        /* \"AllContracts-test.sol\":3327:3378  abi.encode(_keyHash, _userSeed, _requester, _nonce) */\n      add(0x20, mload(0x40))\n      dup1\n      dup6\n      dup2\n      mstore\n      0x20\n      add\n      dup5\n      dup2\n      mstore\n      0x20\n      add\n      dup4\n      0xffffffffffffffffffffffffffffffffffffffff\n      and\n      0xffffffffffffffffffffffffffffffffffffffff\n      and\n      dup2\n      mstore\n      0x20\n      add\n      dup3\n      dup2\n      mstore\n      0x20\n      add\n      swap5\n      pop\n      pop\n      pop\n      pop\n      pop\n      mload(0x40)\n        /* \"--CODEGEN--\":49:53   */\n      0x20\n        /* \"--CODEGEN--\":39:46   */\n      dup2\n        /* \"--CODEGEN--\":30:37   */\n      dup4\n        /* \"--CODEGEN--\":26:47   */\n      sub\n        /* \"--CODEGEN--\":22:54   */\n      sub\n        /* \"--CODEGEN--\":13:20   */\n      dup2\n        /* \"--CODEGEN--\":6:55   */\n      mstore\n        /* \"AllContracts-test.sol\":3327:3378  abi.encode(_keyHash, _userSeed, _requester, _nonce) */\n      swap1\n      0x40\n      mstore\n        /* \"AllContracts-test.sol\":3317:3379  keccak256(abi.encode(_keyHash, _userSeed, _requester, _nonce)) */\n      dup1\n      mload\n      swap1\n      0x20\n      add\n      keccak256\n        /* \"AllContracts-test.sol\":3309:3380  uint256(keccak256(abi.encode(_keyHash, _userSeed, _requester, _nonce))) */\n      0x00\n      shr\n        /* \"AllContracts-test.sol\":3301:3380  return  uint256(keccak256(abi.encode(_keyHash, _userSeed, _requester, _nonce))) */\n      swap1\n      pop\n        /* \"AllContracts-test.sol\":3154:3385  function makeVRFInputSeed(bytes32 _keyHash, uint256 _userSeed,... */\n      swap5\n      swap4\n      pop\n      pop\n      pop\n      pop\n      jump\t// out\n        /* \"AllContracts-test.sol\":3389:3560  function makeRequestId(... */\n    tag_406:\n        /* \"AllContracts-test.sol\":3481:3488  bytes32 */\n      0x00\n        /* \"AllContracts-test.sol\":3530:3538  _keyHash */\n      dup3\n        /* \"AllContracts-test.sol\":3540:3553  _vRFInputSeed */\n      dup3\n        /* \"AllContracts-test.sol\":3513:3554  abi.encodePacked(_keyHash, _vRFInputSeed) */\n      add(0x20, mload(0x40))\n      dup1\n      dup4\n      dup2\n      mstore\n      0x20\n      add\n      dup3\n      dup2\n      mstore\n      0x20\n      add\n      swap3\n      pop\n      pop\n      pop\n      mload(0x40)\n        /* \"--CODEGEN--\":49:53   */\n      0x20\n        /* \"--CODEGEN--\":39:46   */\n      dup2\n        /* \"--CODEGEN--\":30:37   */\n      dup4\n        /* \"--CODEGEN--\":26:47   */\n      sub\n        /* \"--CODEGEN--\":22:54   */\n      sub\n        /* \"--CODEGEN--\":13:20   */\n      dup2\n        /* \"--CODEGEN--\":6:55   */\n      mstore\n        /* \"AllContracts-test.sol\":3513:3554  abi.encodePacked(_keyHash, _vRFInputSeed) */\n      swap1\n      0x40\n      mstore\n        /* \"AllContracts-test.sol\":3503:3555  keccak256(abi.encodePacked(_keyHash, _vRFInputSeed)) */\n      dup1\n      mload\n      swap1\n      0x20\n      add\n      keccak256\n        /* \"AllContracts-test.sol\":3496:3555  return keccak256(abi.encodePacked(_keyHash, _vRFInputSeed)) */\n      swap1\n      pop\n        /* \"AllContracts-test.sol\":3389:3560  function makeRequestId(... */\n      swap3\n      swap2\n      pop\n      pop\n      jump\t// out\n        /* \"AllContracts-test.sol\":5733:21618  contract LuckyMachine is VRFConsumerBase, Ownable {... */\n    tag_326:\n      mload(0x40)\n      dup1\n      0xc0\n      add\n      0x40\n      mstore\n      dup1\n      0x00\n      dup2\n      mstore\n      0x20\n      add\n      and(0xffffffffffffffffffffffffffffffffffffffff, 0x00)\n      dup2\n      mstore\n      0x20\n      add\n      0x00\n      dup2\n      mstore\n      0x20\n      add\n      0x00\n      dup2\n      mstore\n      0x20\n      add\n      0x00\n      dup2\n      mstore\n      0x20\n      add\n      iszero(iszero(0x00))\n      dup2\n      mstore\n      pop\n      swap1\n      jump\t// out\n    stop\n    data_245f15ff17f551913a7a18385165551503906a406f905ac1c2437281a7cd0cfe 4f776e61626c653a206e6577206f776e657220697320746865207a65726f2061646472657373\n    data_588b68a2a6ccdc15b2dae26a385280edec71bed95b5b14a24b760c56e4f665d6 436f6e74726163742068617320696e737566666963696e742066756e647320746f207061796f757420706f737369626c652077696e2e\n    data_9113bb53c2876a3805b2c9242029423fc540a728243ce887ab24c82cf119fba3 536166654d6174683a206d756c7469706c69636174696f6e206f766572666c6f77\n    data_b719f220e413600c7e92ed4736b96c6908e0428122610fe965fcc60eefeedbad 436f6e74726163742062616c616e636520746f6f206c6f772e20506c656173652074727920616761696e206c617465722e\n    data_c34c85fa0e0680ac47dc2c21fdf93b1adcc71d9a1a3b3b1788b881c3f4f390ac 47616d6520616c726561647920636f6d706c6574652e204e6f20726566756e6420706f737369626c652e\n    data_ef92889bcd3368ac0e5c94a5c325c5cf21da03eb1576ee7d446327960d5fae81 556e61626c6520746f207061792e20506c6561736520706c617920616761696e206f72207265717565737420726566756e642e\n\n    auxdata: 0xa264697066735822122041fe7c061ae8125426d1f361b5f9c856431e51fb4aff4b1df89793bacc860dc164736f6c63430006000033\n}\n","bytecode":{"linkReferences":{},"object":"60806040523480156200001157600080fd5b506040516200421a3803806200421a833981810160405260a08110156200003757600080fd5b81019080805190602001909291908051906020019092919080519060200190929190805190602001909291908051906020019092919050505073dd3782915140c8f3b190b5d67eac6dc5760c46e973a36085f69e2889c224210f603d836748e7dc008881600160006101000a81548173ffffffffffffffffffffffffffffffffffffffff021916908373ffffffffffffffffffffffffffffffffffffffff160217905550806000806101000a81548173ffffffffffffffffffffffffffffffffffffffff021916908373ffffffffffffffffffffffffffffffffffffffff160217905550505060006200012f620002d760201b60201c565b905080600360006101000a81548173ffffffffffffffffffffffffffffffffffffffff021916908373ffffffffffffffffffffffffffffffffffffffff1602179055508073ffffffffffffffffffffffffffffffffffffffff16600073ffffffffffffffffffffffffffffffffffffffff167f8be0079c531659141344cd1fd0a4f28419497f9722a3daafe3b4186f6b6457e060405160405180910390a3507f6c3699283bda56ad74f6b855546325b68d482e983852a7a82979cc4807b641f460001b60048190555067016345785d8a00006005819055506001601581905550600060148190555084601660006101000a81548173ffffffffffffffffffffffffffffffffffffffff021916908373ffffffffffffffffffffffffffffffffffffffff1602179055508260138190555083601281905550816011819055508060178190555060016006819055506001600781905550600160088190555060016009819055506001600a819055506001600b819055506001600c819055506001600d819055506001600e819055506001600f8190555060016010819055505050505050620002df565b600033905090565b613f2b80620002ef6000396000f3fe6080604052600436106102135760003560e01c806395f9b57611610118578063b93030b3116100a0578063de4fa6af1161006f578063de4fa6af14610ade578063dfad4c1114610b59578063f2fde38b14610bc2578063f31a4dcd14610c13578063fafacab214610c4e5761021a565b8063b93030b314610a27578063c311d04914610a3e578063c955e79c14610a79578063d9e721f814610a905761021a565b8063a02e0616116100e7578063a02e06161461088b578063a249225e146108dc578063a4b2409e14610939578063ac150fd814610974578063b843f5ab146109c25761021a565b806395f9b576146107055780639619367d146107d657806398544710146108015780639e317f121461083c5761021a565b806350c5f9751161019b5780636b25d2961161016a5780636b25d296146105ec578063715018a6146106175780637a8042bd1461062e5780638da5cb5b1461066957806394985ddd146106c05761021a565b806350c5f975146104fa5780635b8d02d7146105255780636168eac91461057c57806363bd1d4a146105c15761021a565b80632ee42d8a116101e25780632ee42d8a1461038457806333ea51a8146103af5780633638104a146104005780634051ddac1461046957806344ff81ce146104a95761021a565b80630c610a121461021f578063117a5b9014610272578063130a1efa146103145780632e5b2168146103595761021a565b3661021a57005b600080fd5b34801561022b57600080fd5b506102586004803603602081101561024257600080fd5b8101908080359060200190929190505050610ca6565b604051808215151515815260200191505060405180910390f35b34801561027e57600080fd5b506102ab6004803603602081101561029557600080fd5b8101908080359060200190929190505050610ced565b604051808781526020018673ffffffffffffffffffffffffffffffffffffffff1673ffffffffffffffffffffffffffffffffffffffff16815260200185815260200184815260200183815260200182151515158152602001965050505050505060405180910390f35b34801561032057600080fd5b506103576004803603604081101561033757600080fd5b810190808035906020019092919080359060200190929190505050610d56565b005b34801561036557600080fd5b5061036e611040565b6040518082815260200191505060405180910390f35b34801561039057600080fd5b50610399611046565b6040518082815260200191505060405180910390f35b3480156103bb57600080fd5b506103fe600480360360208110156103d257600080fd5b81019080803573ffffffffffffffffffffffffffffffffffffffff16906020019092919050505061104c565b005b34801561040c57600080fd5b5061044f6004803603602081101561042357600080fd5b81019080803573ffffffffffffffffffffffffffffffffffffffff16906020019092919050505061115a565b604051808215151515815260200191505060405180910390f35b34801561047557600080fd5b5061047e61117a565b6040518085815260200184815260200183815260200182815260200194505050505060405180910390f35b3480156104b557600080fd5b506104f8600480360360208110156104cc57600080fd5b81019080803573ffffffffffffffffffffffffffffffffffffffff16906020019092919050505061119a565b005b34801561050657600080fd5b5061050f6112a8565b6040518082815260200191505060405180910390f35b34801561053157600080fd5b5061053a611388565b604051808273ffffffffffffffffffffffffffffffffffffffff1673ffffffffffffffffffffffffffffffffffffffff16815260200191505060405180910390f35b34801561058857600080fd5b506105bf6004803603604081101561059f57600080fd5b8101908080359060200190929190803590602001909291905050506113ae565b005b3480156105cd57600080fd5b506105d66114dc565b6040518082815260200191505060405180910390f35b3480156105f857600080fd5b506106016114e2565b6040518082815260200191505060405180910390f35b34801561062357600080fd5b5061062c6114e8565b005b34801561063a57600080fd5b506106676004803603602081101561065157600080fd5b8101908080359060200190929190505050611673565b005b34801561067557600080fd5b5061067e611878565b604051808273ffffffffffffffffffffffffffffffffffffffff1673ffffffffffffffffffffffffffffffffffffffff16815260200191505060405180910390f35b3480156106cc57600080fd5b50610703600480360360408110156106e357600080fd5b8101908080359060200190929190803590602001909291905050506118a2565b005b34801561071157600080fd5b506107d46004803603604081101561072857600080fd5b810190808035906020019064010000000081111561074557600080fd5b82018360208201111561075757600080fd5b8035906020019184602083028401116401000000008311171561077957600080fd5b919080806020026020016040519081016040528093929190818152602001838360200280828437600081840152601f19601f820116905080830192505050505050509192919290803515159060200190929190505050611973565b005b3480156107e257600080fd5b506107eb611afa565b6040518082815260200191505060405180910390f35b34801561080d57600080fd5b5061083a6004803603602081101561082457600080fd5b8101908080359060200190929190505050611b00565b005b34801561084857600080fd5b506108756004803603602081101561085f57600080fd5b8101908080359060200190929190505050611bd4565b6040518082815260200191505060405180910390f35b34801561089757600080fd5b506108da600480360360208110156108ae57600080fd5b81019080803573ffffffffffffffffffffffffffffffffffffffff169060200190929190505050611bec565b005b3480156108e857600080fd5b50610937600480360360408110156108ff57600080fd5b81019080803573ffffffffffffffffffffffffffffffffffffffff169060200190929190803515159060200190929190505050611cf9565b005b34801561094557600080fd5b506109726004803603602081101561095c57600080fd5b8101908080359060200190929190505050611e1e565b005b6109c06004803603604081101561098a57600080fd5b81019080803573ffffffffffffffffffffffffffffffffffffffff16906020019092919080359060200190929190505050612115565b005b3480156109ce57600080fd5b50610a11600480360360208110156109e557600080fd5b81019080803573ffffffffffffffffffffffffffffffffffffffff169060200190929190505050612256565b6040518082815260200191505060405180910390f35b348015610a3357600080fd5b50610a3c61226e565b005b348015610a4a57600080fd5b50610a7760048036036020811015610a6157600080fd5b810190808035906020019092919050505061267d565b005b348015610a8557600080fd5b50610a8e61285f565b005b610adc60048036036040811015610aa657600080fd5b81019080803573ffffffffffffffffffffffffffffffffffffffff169060200190929190803590602001909291905050506129bc565b005b348015610aea57600080fd5b50610b57600480360360a0811015610b0157600080fd5b81019080803573ffffffffffffffffffffffffffffffffffffffff169060200190929190803590602001909291908035906020019092919080351515906020019092919080359060200190929190505050612be2565b005b348015610b6557600080fd5b50610ba860048036036020811015610b7c57600080fd5b81019080803573ffffffffffffffffffffffffffffffffffffffff169060200190929190505050612ce4565b604051808215151515815260200191505060405180910390f35b348015610bce57600080fd5b50610c1160048036036020811015610be557600080fd5b81019080803573ffffffffffffffffffffffffffffffffffffffff169060200190929190505050612d04565b005b348015610c1f57600080fd5b50610c4c60048036036020811015610c3657600080fd5b8101908080359060200190929190505050612f14565b005b610ca460048036036060811015610c6457600080fd5b81019080803573ffffffffffffffffffffffffffffffffffffffff1690602001909291908035906020019092919080359060200190929190505050612fea565b005b6000610ccf82610cc1601754856130df90919063ffffffff16565b61316590919063ffffffff16565b610ce4601454476131ed90919063ffffffff16565b10159050919050565b601a6020528060005260406000206000915090508060000154908060010160009054906101000a900473ffffffffffffffffffffffffffffffffffffffff16908060020154908060030154908060040154908060050160009054906101000a900460ff16905086565b6000601a6000601b6000868152602001908152602001600020548152602001908152602001600020905060008160000154118015610da95750600015158160050160009054906101000a900460ff161515145b15610fe35760125481600201541115610dc85760125481600201819055505b6000610df98260020154610deb60175485600201546130df90919063ffffffff16565b61316590919063ffffffff16565b905080471015610e54576040517f08c379a0000000000000000000000000000000000000000000000000000000008152600401808060200182810382526033815260200180613ec36033913960400191505060405180910390fd5b82826004018190555060018260050160006101000a81548160ff021916908315150217905550816002015460145410610ea0578160020154601460008282540392505081905550610ea9565b60006014819055505b816004015482600301541415610f29578160010160009054906101000a900473ffffffffffffffffffffffffffffffffffffffff1673ffffffffffffffffffffffffffffffffffffffff166108fc829081150290604051600060405180830381858888f19350505050158015610f23573d6000803e3d6000fd5b50610f2e565b600090505b7fc06600d6399308f270bc6ae70d5377121b685c974bb7f7355824fddd8a2b34978260010160009054906101000a900473ffffffffffffffffffffffffffffffffffffffff1683600201548460030154856004015485604051808673ffffffffffffffffffffffffffffffffffffffff1673ffffffffffffffffffffffffffffffffffffffff1681526020018581526020018481526020018381526020018281526020019550505050505060405180910390a1505b60016006819055506001600781905550600160088190555060016009819055506001600a819055506001600b819055506001600c819055506001600d819055506001600e819055506001600f819055506001601081905550505050565b60125481565b60115481565b611054613276565b73ffffffffffffffffffffffffffffffffffffffff16600360009054906101000a900473ffffffffffffffffffffffffffffffffffffffff1673ffffffffffffffffffffffffffffffffffffffff1614611116576040517f08c379a00000000000000000000000000000000000000000000000000000000081526004018080602001828103825260208152602001807f4f776e61626c653a2063616c6c6572206973206e6f7420746865206f776e657281525060200191505060405180910390fd5b80601660006101000a81548173ffffffffffffffffffffffffffffffffffffffff021916908373ffffffffffffffffffffffffffffffffffffffff16021790555050565b60186020528060005260406000206000915054906101000a900460ff1681565b600080600080601354601254601754601154935093509350935090919293565b6111a2613276565b73ffffffffffffffffffffffffffffffffffffffff16600360009054906101000a900473ffffffffffffffffffffffffffffffffffffffff1673ffffffffffffffffffffffffffffffffffffffff1614611264576040517f08c379a00000000000000000000000000000000000000000000000000000000081526004018080602001828103825260208152602001807f4f776e61626c653a2063616c6c6572206973206e6f7420746865206f776e657281525060200191505060405180910390fd5b80600160006101000a81548173ffffffffffffffffffffffffffffffffffffffff021916908373ffffffffffffffffffffffffffffffffffffffff16021790555050565b60008060009054906101000a900473ffffffffffffffffffffffffffffffffffffffff1673ffffffffffffffffffffffffffffffffffffffff166370a08231306040518263ffffffff1660e01b8152600401808273ffffffffffffffffffffffffffffffffffffffff1673ffffffffffffffffffffffffffffffffffffffff16815260200191505060206040518083038186803b15801561134857600080fd5b505afa15801561135c573d6000803e3d6000fd5b505050506040513d602081101561137257600080fd5b8101908080519060200190929190505050905090565b601660009054906101000a900473ffffffffffffffffffffffffffffffffffffffff1681565b60001515601a600084815260200190815260200160002060050160009054906101000a900460ff1615151461144b576040517f08c379a00000000000000000000000000000000000000000000000000000000081526004018080602001828103825260138152602001807f67616d6520616c726561647920706c617965640000000000000000000000000081525060200191505060405180910390fd5b6000424433604051602001808481526020018381526020018273ffffffffffffffffffffffffffffffffffffffff1673ffffffffffffffffffffffffffffffffffffffff1660601b8152601401935050505060405160208183030381529060405280519060200120905082601b6000838152602001908152602001600020819055506114d78183610d56565b505050565b60175481565b60145481565b6114f0613276565b73ffffffffffffffffffffffffffffffffffffffff16600360009054906101000a900473ffffffffffffffffffffffffffffffffffffffff1673ffffffffffffffffffffffffffffffffffffffff16146115b2576040517f08c379a00000000000000000000000000000000000000000000000000000000081526004018080602001828103825260208152602001807f4f776e61626c653a2063616c6c6572206973206e6f7420746865206f776e657281525060200191505060405180910390fd5b600073ffffffffffffffffffffffffffffffffffffffff16600360009054906101000a900473ffffffffffffffffffffffffffffffffffffffff1673ffffffffffffffffffffffffffffffffffffffff167f8be0079c531659141344cd1fd0a4f28419497f9722a3daafe3b4186f6b6457e060405160405180910390a36000600360006101000a81548173ffffffffffffffffffffffffffffffffffffffff021916908373ffffffffffffffffffffffffffffffffffffffff160217905550565b3373ffffffffffffffffffffffffffffffffffffffff16611692611878565b73ffffffffffffffffffffffffffffffffffffffff1614806116fd5750601860003373ffffffffffffffffffffffffffffffffffffffff1673ffffffffffffffffffffffffffffffffffffffff16815260200190815260200160002060009054906101000a900460ff165b61176f576040517f08c379a00000000000000000000000000000000000000000000000000000000081526004018080602001828103825260188152602001807f63616c6c6572206973206e6f7420617574686f72697a6564000000000000000081525060200191505060405180910390fd5b6000809054906101000a900473ffffffffffffffffffffffffffffffffffffffff1673ffffffffffffffffffffffffffffffffffffffff1663a9059cbb601660009054906101000a900473ffffffffffffffffffffffffffffffffffffffff16836040518363ffffffff1660e01b8152600401808373ffffffffffffffffffffffffffffffffffffffff1673ffffffffffffffffffffffffffffffffffffffff16815260200182815260200192505050602060405180830381600087803b15801561183957600080fd5b505af115801561184d573d6000803e3d6000fd5b505050506040513d602081101561186357600080fd5b81019080805190602001909291905050505050565b6000600360009054906101000a900473ffffffffffffffffffffffffffffffffffffffff16905090565b600160009054906101000a900473ffffffffffffffffffffffffffffffffffffffff1673ffffffffffffffffffffffffffffffffffffffff163373ffffffffffffffffffffffffffffffffffffffff1614611965576040517f08c379a000000000000000000000000000000000000000000000000000000000815260040180806020018281038252601f8152602001807f4f6e6c7920565246436f6f7264696e61746f722063616e2066756c66696c6c0081525060200191505060405180910390fd5b61196f828261327e565b5050565b3373ffffffffffffffffffffffffffffffffffffffff16611992611878565b73ffffffffffffffffffffffffffffffffffffffff1614806119fd5750601860003373ffffffffffffffffffffffffffffffffffffffff1673ffffffffffffffffffffffffffffffffffffffff16815260200190815260200160002060009054906101000a900460ff165b611a6f576040517f08c379a00000000000000000000000000000000000000000000000000000000081526004018080602001828103825260188152602001807f63616c6c6572206973206e6f7420617574686f72697a6564000000000000000081525060200191505060405180910390fd5b60008090505b8251811015611af5578160196000858481518110611a8f57fe5b602002602001015173ffffffffffffffffffffffffffffffffffffffff1673ffffffffffffffffffffffffffffffffffffffff16815260200190815260200160002060006101000a81548160ff0219169083151502179055508080600101915050611a75565b505050565b60135481565b611b08613276565b73ffffffffffffffffffffffffffffffffffffffff16600360009054906101000a900473ffffffffffffffffffffffffffffffffffffffff1673ffffffffffffffffffffffffffffffffffffffff1614611bca576040517f08c379a00000000000000000000000000000000000000000000000000000000081526004018080602001828103825260208152602001807f4f776e61626c653a2063616c6c6572206973206e6f7420746865206f776e657281525060200191505060405180910390fd5b8060048190555050565b60026020528060005260406000206000915090505481565b611bf4613276565b73ffffffffffffffffffffffffffffffffffffffff16600360009054906101000a900473ffffffffffffffffffffffffffffffffffffffff1673ffffffffffffffffffffffffffffffffffffffff1614611cb6576040517f08c379a00000000000000000000000000000000000000000000000000000000081526004018080602001828103825260208152602001807f4f776e61626c653a2063616c6c6572206973206e6f7420746865206f776e657281525060200191505060405180910390fd5b806000806101000a81548173ffffffffffffffffffffffffffffffffffffffff021916908373ffffffffffffffffffffffffffffffffffffffff16021790555050565b611d01613276565b73ffffffffffffffffffffffffffffffffffffffff16600360009054906101000a900473ffffffffffffffffffffffffffffffffffffffff1673ffffffffffffffffffffffffffffffffffffffff1614611dc3576040517f08c379a00000000000000000000000000000000000000000000000000000000081526004018080602001828103825260208152602001807f4f776e61626c653a2063616c6c6572206973206e6f7420746865206f776e657281525060200191505060405180910390fd5b80601860008473ffffffffffffffffffffffffffffffffffffffff1673ffffffffffffffffffffffffffffffffffffffff16815260200190815260200160002060006101000a81548160ff0219169083151502179055505050565b6000601a60008381526020019081526020016000209050601860003373ffffffffffffffffffffffffffffffffffffffff1673ffffffffffffffffffffffffffffffffffffffff16815260200190815260200160002060009054906101000a900460ff1680611ebf57503373ffffffffffffffffffffffffffffffffffffffff16611ea7611878565b73ffffffffffffffffffffffffffffffffffffffff16145b80611f1957503373ffffffffffffffffffffffffffffffffffffffff168160010160009054906101000a900473ffffffffffffffffffffffffffffffffffffffff1673ffffffffffffffffffffffffffffffffffffffff16145b611f8b576040517f08c379a00000000000000000000000000000000000000000000000000000000081526004018080602001828103825260208152602001807f4e6f7420617574686f72697a656420746f207265717565737420726566756e6481525060200191505060405180910390fd5b600015158160050160009054906101000a900460ff16151514611ff9576040517f08c379a000000000000000000000000000000000000000000000000000000000815260040180806020018281038252602a815260200180613e99602a913960400191505060405180910390fd5b8060020154471015612056576040517f08c379a0000000000000000000000000000000000000000000000000000000008152600401808060200182810382526031815260200180613e686031913960400191505060405180910390fd5b60018160050160006101000a81548160ff0219169083151502179055508060020154601454106120995780600201546014600082825403925050819055506120a2565b60006014819055505b8060010160009054906101000a900473ffffffffffffffffffffffffffffffffffffffff1673ffffffffffffffffffffffffffffffffffffffff166108fc82600201549081150290604051600060405180830381858888f19350505050158015612110573d6000803e3d6000fd5b505050565b60135434101561218d576040517f08c379a00000000000000000000000000000000000000000000000000000000081526004018080602001828103825260138152602001807f6d696e696d756d20626574206e6f74206d65740000000000000000000000000081525060200191505060405180910390fd5b600160065414156121db57600660009055600760009055600860009055600960009055600a60009055600b60009055600c60009055600d60009055600e60009055600f600090556010600090555b6121f03460145461316590919063ffffffff16565b6014819055506122018234836135ac565b61220c6015546136cb565b601554601c60008473ffffffffffffffffffffffffffffffffffffffff1673ffffffffffffffffffffffffffffffffffffffff168152602001908152602001600020819055505050565b601c6020528060005260406000206000915090505481565b612276613276565b73ffffffffffffffffffffffffffffffffffffffff16600360009054906101000a900473ffffffffffffffffffffffffffffffffffffffff1673ffffffffffffffffffffffffffffffffffffffff1614612338576040517f08c379a00000000000000000000000000000000000000000000000000000000081526004018080602001828103825260208152602001807f4f776e61626c653a2063616c6c6572206973206e6f7420746865206f776e657281525060200191505060405180910390fd5b600061234f601454476131ed90919063ffffffff16565b9050601660009054906101000a900473ffffffffffffffffffffffffffffffffffffffff1673ffffffffffffffffffffffffffffffffffffffff166108fc829081150290604051600060405180830381858888f193505050501580156123b9573d6000803e3d6000fd5b5060008060009054906101000a900473ffffffffffffffffffffffffffffffffffffffff1673ffffffffffffffffffffffffffffffffffffffff166370a08231306040518263ffffffff1660e01b8152600401808273ffffffffffffffffffffffffffffffffffffffff1673ffffffffffffffffffffffffffffffffffffffff16815260200191505060206040518083038186803b15801561245a57600080fd5b505afa15801561246e573d6000803e3d6000fd5b505050506040513d602081101561248457600080fd5b8101908080519060200190929190505050111561267a576000809054906101000a900473ffffffffffffffffffffffffffffffffffffffff1673ffffffffffffffffffffffffffffffffffffffff1663a9059cbb601660009054906101000a900473ffffffffffffffffffffffffffffffffffffffff166000809054906101000a900473ffffffffffffffffffffffffffffffffffffffff1673ffffffffffffffffffffffffffffffffffffffff166370a08231306040518263ffffffff1660e01b8152600401808273ffffffffffffffffffffffffffffffffffffffff1673ffffffffffffffffffffffffffffffffffffffff16815260200191505060206040518083038186803b15801561259957600080fd5b505afa1580156125ad573d6000803e3d6000fd5b505050506040513d60208110156125c357600080fd5b81019080805190602001909291905050506040518363ffffffff1660e01b8152600401808373ffffffffffffffffffffffffffffffffffffffff1673ffffffffffffffffffffffffffffffffffffffff16815260200182815260200192505050602060405180830381600087803b15801561263d57600080fd5b505af1158015612651573d6000803e3d6000fd5b505050506040513d602081101561266757600080fd5b8101908080519060200190929190505050505b50565b3373ffffffffffffffffffffffffffffffffffffffff1661269c611878565b73ffffffffffffffffffffffffffffffffffffffff1614806127075750601860003373ffffffffffffffffffffffffffffffffffffffff1673ffffffffffffffffffffffffffffffffffffffff16815260200190815260200160002060009054906101000a900460ff165b612779576040517f08c379a00000000000000000000000000000000000000000000000000000000081526004018080602001828103825260188152602001807f63616c6c6572206973206e6f7420617574686f72697a6564000000000000000081525060200191505060405180910390fd5b60145481470310156127f3576040517f08c379a000000000000000000000000000000000000000000000000000000000815260040180806020018281038252601c8152602001807f43616e277420776974686472617720756e706c6179656420626574730000000081525060200191505060405180910390fd5b601660009054906101000a900473ffffffffffffffffffffffffffffffffffffffff1673ffffffffffffffffffffffffffffffffffffffff166108fc829081150290604051600060405180830381858888f1935050505015801561285b573d6000803e3d6000fd5b5050565b612867613276565b73ffffffffffffffffffffffffffffffffffffffff16600360009054906101000a900473ffffffffffffffffffffffffffffffffffffffff1673ffffffffffffffffffffffffffffffffffffffff1614612929576040517f08c379a00000000000000000000000000000000000000000000000000000000081526004018080602001828103825260208152602001807f4f776e61626c653a2063616c6c6572206973206e6f7420746865206f776e657281525060200191505060405180910390fd5b601454471161293757600080fd5b600061294e601454476131ed90919063ffffffff16565b9050601660009054906101000a900473ffffffffffffffffffffffffffffffffffffffff1673ffffffffffffffffffffffffffffffffffffffff166108fc829081150290604051600060405180830381858888f193505050501580156129b8573d6000803e3d6000fd5b5050565b6129c534610ca6565b612a1a576040517f08c379a0000000000000000000000000000000000000000000000000000000008152600401808060200182810382526036815260200180613e116036913960400191505060405180910390fd5b6011548111158015612a2c5750600081115b612a9e576040517f08c379a000000000000000000000000000000000000000000000000000000000815260040180806020018281038252601a8152602001807f4f757473696465206f66207069636b61626c6520626f756e647300000000000081525060200191505060405180910390fd5b612aa734613798565b612b19576040517f08c379a00000000000000000000000000000000000000000000000000000000081526004018080602001828103825260158152602001807f4f757469736465206f66206265742072616e67652e000000000000000000000081525060200191505060405180910390fd5b60016006541415612b6757600660009055600760009055600860009055600960009055600a60009055600b60009055600c60009055600d60009055600e60009055600f600090556010600090555b612b7c3460145461316590919063ffffffff16565b601481905550612b8d8234836135ac565b612b986015546136cb565b601554601c60008473ffffffffffffffffffffffffffffffffffffffff1673ffffffffffffffffffffffffffffffffffffffff168152602001908152602001600020819055505050565b612bea613d9c565b6040518060c001604052808381526020018773ffffffffffffffffffffffffffffffffffffffff16815260200186815260200185815260200160008152602001841515815250905080601a6000836000015181526020019081526020016000206000820151816000015560208201518160010160006101000a81548173ffffffffffffffffffffffffffffffffffffffff021916908373ffffffffffffffffffffffffffffffffffffffff16021790555060408201518160020155606082015181600301556080820151816004015560a08201518160050160006101000a81548160ff021916908315150217905550905050505050505050565b60196020528060005260406000206000915054906101000a900460ff1681565b612d0c613276565b73ffffffffffffffffffffffffffffffffffffffff16600360009054906101000a900473ffffffffffffffffffffffffffffffffffffffff1673ffffffffffffffffffffffffffffffffffffffff1614612dce576040517f08c379a00000000000000000000000000000000000000000000000000000000081526004018080602001828103825260208152602001807f4f776e61626c653a2063616c6c6572206973206e6f7420746865206f776e657281525060200191505060405180910390fd5b600073ffffffffffffffffffffffffffffffffffffffff168173ffffffffffffffffffffffffffffffffffffffff161415612e54576040517f08c379a0000000000000000000000000000000000000000000000000000000008152600401808060200182810382526026815260200180613deb6026913960400191505060405180910390fd5b8073ffffffffffffffffffffffffffffffffffffffff16600360009054906101000a900473ffffffffffffffffffffffffffffffffffffffff1673ffffffffffffffffffffffffffffffffffffffff167f8be0079c531659141344cd1fd0a4f28419497f9722a3daafe3b4186f6b6457e060405160405180910390a380600360006101000a81548173ffffffffffffffffffffffffffffffffffffffff021916908373ffffffffffffffffffffffffffffffffffffffff16021790555050565b612f1c613276565b73ffffffffffffffffffffffffffffffffffffffff16600360009054906101000a900473ffffffffffffffffffffffffffffffffffffffff1673ffffffffffffffffffffffffffffffffffffffff1614612fde576040517f08c379a00000000000000000000000000000000000000000000000000000000081526004018080602001828103825260208152602001807f4f776e61626c653a2063616c6c6572206973206e6f7420746865206f776e657281525060200191505060405180910390fd5b612fe7816136cb565b50565b601354341015613062576040517f08c379a00000000000000000000000000000000000000000000000000000000081526004018080602001828103825260138152602001807f6d696e696d756d20626574206e6f74206d65740000000000000000000000000081525060200191505060405180910390fd5b6130773460145461316590919063ffffffff16565b6014819055506130888334846135ac565b613094601554826113ae565b601554601c60008573ffffffffffffffffffffffffffffffffffffffff1673ffffffffffffffffffffffffffffffffffffffff16815260200190815260200160002081905550505050565b6000808314156130f2576000905061315f565b600082840290508284828161310357fe5b041461315a576040517f08c379a0000000000000000000000000000000000000000000000000000000008152600401808060200182810382526021815260200180613e476021913960400191505060405180910390fd5b809150505b92915050565b6000808284019050838110156131e3576040517f08c379a000000000000000000000000000000000000000000000000000000000815260040180806020018281038252601b8152602001807f536166654d6174683a206164646974696f6e206f766572666c6f77000000000081525060200191505060405180910390fd5b8091505092915050565b600082821115613265576040517f08c379a000000000000000000000000000000000000000000000000000000000815260040180806020018281038252601e8152602001807f536166654d6174683a207375627472616374696f6e206f766572666c6f77000081525060200191505060405180910390fd5b600082840390508091505092915050565b600033905090565b6000601a6000601b60008681526020019081526020016000205481526020019081526020016000209050600081600001541180156132d15750600015158160050160009054906101000a900460ff161515145b1561354f57601254816002015411156132f05760125481600201819055505b6000613321826002015461331360175485600201546130df90919063ffffffff16565b61316590919063ffffffff16565b905080471015613399576040517f08c379a00000000000000000000000000000000000000000000000000000000081526004018080602001828103825260208152602001807f436f6e74726163742062616c616e636520746f6f206c6f7720746f20706c617981525060200191505060405180910390fd5b6133c160016133b3601154866137c690919063ffffffff16565b61316590919063ffffffff16565b826004018190555060018260050160006101000a81548160ff02191690831515021790555081600201546014541061340c578160020154601460008282540392505081905550613415565b60006014819055505b816004015482600301541415613495578160010160009054906101000a900473ffffffffffffffffffffffffffffffffffffffff1673ffffffffffffffffffffffffffffffffffffffff166108fc829081150290604051600060405180830381858888f1935050505015801561348f573d6000803e3d6000fd5b5061349a565b600090505b7fc06600d6399308f270bc6ae70d5377121b685c974bb7f7355824fddd8a2b34978260010160009054906101000a900473ffffffffffffffffffffffffffffffffffffffff1683600201548460030154856004015485604051808673ffffffffffffffffffffffffffffffffffffffff1673ffffffffffffffffffffffffffffffffffffffff1681526020018581526020018481526020018381526020018281526020019550505050505060405180910390a1505b60016006819055506001600781905550600160088190555060016009819055506001600a819055506001600b819055506001600c819055506001600d819055506001600e819055506001600f819055506001601081905550505050565b6135c2600160155461316590919063ffffffff16565b6015819055506135d0613d9c565b6040518060c0016040528060155481526020018573ffffffffffffffffffffffffffffffffffffffff1681526020018481526020018381526020016000815260200160001515815250905080601a6000836000015181526020019081526020016000206000820151816000015560208201518160010160006101000a81548173ffffffffffffffffffffffffffffffffffffffff021916908373ffffffffffffffffffffffffffffffffffffffff16021790555060408201518160020155606082015181600301556080820151816004015560a08201518160050160006101000a81548160ff02191690831515021790555090505050505050565b60001515601a600083815260200190815260200160002060050160009054906101000a900460ff16151514613768576040517f08c379a00000000000000000000000000000000000000000000000000000000081526004018080602001828103825260138152602001807f67616d6520616c726561647920706c617965640000000000000000000000000081525060200191505060405180910390fd5b600061377a613775613850565b613971565b905081601b6000838152602001908152602001600020819055505050565b600060135482101580156137ae57506012548211155b156137bc57600190506137c1565b600090505b919050565b60008082141561383e576040517f08c379a00000000000000000000000000000000000000000000000000000000081526004018080602001828103825260188152602001807f536166654d6174683a206d6f64756c6f206279207a65726f000000000000000081525060200191505060405180910390fd5b81838161384757fe5b06905092915050565b600061385a613d9c565b601a600060155481526020019081526020016000206040518060c0016040529081600082015481526020016001820160009054906101000a900473ffffffffffffffffffffffffffffffffffffffff1673ffffffffffffffffffffffffffffffffffffffff1673ffffffffffffffffffffffffffffffffffffffff1681526020016002820154815260200160038201548152602001600482015481526020016005820160009054906101000a900460ff1615151515815250509050434282606001518360400151846000015160405160200180868152602001858152602001848152602001838152602001828152602001955050505050506040516020818303038152906040528051906020012060001c91505090565b60006005546000809054906101000a900473ffffffffffffffffffffffffffffffffffffffff1673ffffffffffffffffffffffffffffffffffffffff166370a08231306040518263ffffffff1660e01b8152600401808273ffffffffffffffffffffffffffffffffffffffff1673ffffffffffffffffffffffffffffffffffffffff16815260200191505060206040518083038186803b158015613a1457600080fd5b505afa158015613a28573d6000803e3d6000fd5b505050506040513d6020811015613a3e57600080fd5b810190808051906020019092919050505011613ac2576040517f08c379a000000000000000000000000000000000000000000000000000000000815260040180806020018281038252600f8152602001807f4e6f7420656e6f756768204c494e4b000000000000000000000000000000000081525060200191505060405180910390fd5b613ad160045460055484613ad8565b9050919050565b60008060009054906101000a900473ffffffffffffffffffffffffffffffffffffffff1673ffffffffffffffffffffffffffffffffffffffff16634000aea0600160009054906101000a900473ffffffffffffffffffffffffffffffffffffffff1685878660405160200180838152602001828152602001925050506040516020818303038152906040526040518463ffffffff1660e01b8152600401808473ffffffffffffffffffffffffffffffffffffffff1673ffffffffffffffffffffffffffffffffffffffff16815260200183815260200180602001828103825283818151815260200191508051906020019080838360005b83811015613bea578082015181840152602081019050613bcf565b50505050905090810190601f168015613c175780820380516001836020036101000a031916815260200191505b50945050505050602060405180830381600087803b158015613c3857600080fd5b505af1158015613c4c573d6000803e3d6000fd5b505050506040513d6020811015613c6257600080fd5b8101908080519060200190929190505050506000613c95858430600260008a815260200190815260200160002054613ce9565b9050613cbe6001600260008881526020019081526020016000205461316590919063ffffffff16565b6002600087815260200190815260200160002081905550613cdf8582613d63565b9150509392505050565b600084848484604051602001808581526020018481526020018373ffffffffffffffffffffffffffffffffffffffff1673ffffffffffffffffffffffffffffffffffffffff1681526020018281526020019450505050506040516020818303038152906040528051906020012060001c9050949350505050565b60008282604051602001808381526020018281526020019250505060405160208183030381529060405280519060200120905092915050565b6040518060c0016040528060008152602001600073ffffffffffffffffffffffffffffffffffffffff168152602001600081526020016000815260200160008152602001600015158152509056fe4f776e61626c653a206e6577206f776e657220697320746865207a65726f2061646472657373436f6e74726163742068617320696e737566666963696e742066756e647320746f207061796f757420706f737369626c652077696e2e536166654d6174683a206d756c7469706c69636174696f6e206f766572666c6f77436f6e74726163742062616c616e636520746f6f206c6f772e20506c656173652074727920616761696e206c617465722e47616d6520616c726561647920636f6d706c6574652e204e6f20726566756e6420706f737369626c652e556e61626c6520746f207061792e20506c6561736520706c617920616761696e206f72207265717565737420726566756e642ea264697066735822122041fe7c061ae8125426d1f361b5f9c856431e51fb4aff4b1df89793bacc860dc164736f6c63430006000033","opcodes":"PUSH1 0x80 PUSH1 0x40 MSTORE CALLVALUE DUP1 ISZERO PUSH3 0x11 JUMPI PUSH1 0x0 DUP1 REVERT JUMPDEST POP PUSH1 0x40 MLOAD PUSH3 0x421A CODESIZE SUB DUP1 PUSH3 0x421A DUP4 CODECOPY DUP2 DUP2 ADD PUSH1 0x40 MSTORE PUSH1 0xA0 DUP2 LT ISZERO PUSH3 0x37 JUMPI PUSH1 0x0 DUP1 REVERT JUMPDEST DUP2 ADD SWAP1 DUP1 DUP1 MLOAD SWAP1 PUSH1 0x20 ADD SWAP1 SWAP3 SWAP2 SWAP1 DUP1 MLOAD SWAP1 PUSH1 0x20 ADD SWAP1 SWAP3 SWAP2 SWAP1 DUP1 MLOAD SWAP1 PUSH1 0x20 ADD SWAP1 SWAP3 SWAP2 SWAP1 DUP1 MLOAD SWAP1 PUSH1 0x20 ADD SWAP1 SWAP3 SWAP2 SWAP1 DUP1 MLOAD SWAP1 PUSH1 0x20 ADD SWAP1 SWAP3 SWAP2 SWAP1 POP POP POP PUSH20 0xDD3782915140C8F3B190B5D67EAC6DC5760C46E9 PUSH20 0xA36085F69E2889C224210F603D836748E7DC0088 DUP2 PUSH1 0x1 PUSH1 0x0 PUSH2 0x100 EXP DUP2 SLOAD DUP2 PUSH20 0xFFFFFFFFFFFFFFFFFFFFFFFFFFFFFFFFFFFFFFFF MUL NOT AND SWAP1 DUP4 PUSH20 0xFFFFFFFFFFFFFFFFFFFFFFFFFFFFFFFFFFFFFFFF AND MUL OR SWAP1 SSTORE POP DUP1 PUSH1 0x0 DUP1 PUSH2 0x100 EXP DUP2 SLOAD DUP2 PUSH20 0xFFFFFFFFFFFFFFFFFFFFFFFFFFFFFFFFFFFFFFFF MUL NOT AND SWAP1 DUP4 PUSH20 0xFFFFFFFFFFFFFFFFFFFFFFFFFFFFFFFFFFFFFFFF AND MUL OR SWAP1 SSTORE POP POP POP PUSH1 0x0 PUSH3 0x12F PUSH3 0x2D7 PUSH1 0x20 SHL PUSH1 0x20 SHR JUMP JUMPDEST SWAP1 POP DUP1 PUSH1 0x3 PUSH1 0x0 PUSH2 0x100 EXP DUP2 SLOAD DUP2 PUSH20 0xFFFFFFFFFFFFFFFFFFFFFFFFFFFFFFFFFFFFFFFF MUL NOT AND SWAP1 DUP4 PUSH20 0xFFFFFFFFFFFFFFFFFFFFFFFFFFFFFFFFFFFFFFFF AND MUL OR SWAP1 SSTORE POP DUP1 PUSH20 0xFFFFFFFFFFFFFFFFFFFFFFFFFFFFFFFFFFFFFFFF AND PUSH1 0x0 PUSH20 0xFFFFFFFFFFFFFFFFFFFFFFFFFFFFFFFFFFFFFFFF AND PUSH32 0x8BE0079C531659141344CD1FD0A4F28419497F9722A3DAAFE3B4186F6B6457E0 PUSH1 0x40 MLOAD PUSH1 0x40 MLOAD DUP1 SWAP2 SUB SWAP1 LOG3 POP PUSH32 0x6C3699283BDA56AD74F6B855546325B68D482E983852A7A82979CC4807B641F4 PUSH1 0x0 SHL PUSH1 0x4 DUP2 SWAP1 SSTORE POP PUSH8 0x16345785D8A0000 PUSH1 0x5 DUP2 SWAP1 SSTORE POP PUSH1 0x1 PUSH1 0x15 DUP2 SWAP1 SSTORE POP PUSH1 0x0 PUSH1 0x14 DUP2 SWAP1 SSTORE POP DUP5 PUSH1 0x16 PUSH1 0x0 PUSH2 0x100 EXP DUP2 SLOAD DUP2 PUSH20 0xFFFFFFFFFFFFFFFFFFFFFFFFFFFFFFFFFFFFFFFF MUL NOT AND SWAP1 DUP4 PUSH20 0xFFFFFFFFFFFFFFFFFFFFFFFFFFFFFFFFFFFFFFFF AND MUL OR SWAP1 SSTORE POP DUP3 PUSH1 0x13 DUP2 SWAP1 SSTORE POP DUP4 PUSH1 0x12 DUP2 SWAP1 SSTORE POP DUP2 PUSH1 0x11 DUP2 SWAP1 SSTORE POP DUP1 PUSH1 0x17 DUP2 SWAP1 SSTORE POP PUSH1 0x1 PUSH1 0x6 DUP2 SWAP1 SSTORE POP PUSH1 0x1 PUSH1 0x7 DUP2 SWAP1 SSTORE POP PUSH1 0x1 PUSH1 0x8 DUP2 SWAP1 SSTORE POP PUSH1 0x1 PUSH1 0x9 DUP2 SWAP1 SSTORE POP PUSH1 0x1 PUSH1 0xA DUP2 SWAP1 SSTORE POP PUSH1 0x1 PUSH1 0xB DUP2 SWAP1 SSTORE POP PUSH1 0x1 PUSH1 0xC DUP2 SWAP1 SSTORE POP PUSH1 0x1 PUSH1 0xD DUP2 SWAP1 SSTORE POP PUSH1 0x1 PUSH1 0xE DUP2 SWAP1 SSTORE POP PUSH1 0x1 PUSH1 0xF DUP2 SWAP1 SSTORE POP PUSH1 0x1 PUSH1 0x10 DUP2 SWAP1 SSTORE POP POP POP POP POP POP PUSH3 0x2DF JUMP JUMPDEST PUSH1 0x0 CALLER SWAP1 POP SWAP1 JUMP JUMPDEST PUSH2 0x3F2B DUP1 PUSH3 0x2EF PUSH1 0x0 CODECOPY PUSH1 0x0 RETURN INVALID PUSH1 0x80 PUSH1 0x40 MSTORE PUSH1 0x4 CALLDATASIZE LT PUSH2 0x213 JUMPI PUSH1 0x0 CALLDATALOAD PUSH1 0xE0 SHR DUP1 PUSH4 0x95F9B576 GT PUSH2 0x118 JUMPI DUP1 PUSH4 0xB93030B3 GT PUSH2 0xA0 JUMPI DUP1 PUSH4 0xDE4FA6AF GT PUSH2 0x6F JUMPI DUP1 PUSH4 0xDE4FA6AF EQ PUSH2 0xADE JUMPI DUP1 PUSH4 0xDFAD4C11 EQ PUSH2 0xB59 JUMPI DUP1 PUSH4 0xF2FDE38B EQ PUSH2 0xBC2 JUMPI DUP1 PUSH4 0xF31A4DCD EQ PUSH2 0xC13 JUMPI DUP1 PUSH4 0xFAFACAB2 EQ PUSH2 0xC4E JUMPI PUSH2 0x21A JUMP JUMPDEST DUP1 PUSH4 0xB93030B3 EQ PUSH2 0xA27 JUMPI DUP1 PUSH4 0xC311D049 EQ PUSH2 0xA3E JUMPI DUP1 PUSH4 0xC955E79C EQ PUSH2 0xA79 JUMPI DUP1 PUSH4 0xD9E721F8 EQ PUSH2 0xA90 JUMPI PUSH2 0x21A JUMP JUMPDEST DUP1 PUSH4 0xA02E0616 GT PUSH2 0xE7 JUMPI DUP1 PUSH4 0xA02E0616 EQ PUSH2 0x88B JUMPI DUP1 PUSH4 0xA249225E EQ PUSH2 0x8DC JUMPI DUP1 PUSH4 0xA4B2409E EQ PUSH2 0x939 JUMPI DUP1 PUSH4 0xAC150FD8 EQ PUSH2 0x974 JUMPI DUP1 PUSH4 0xB843F5AB EQ PUSH2 0x9C2 JUMPI PUSH2 0x21A JUMP JUMPDEST DUP1 PUSH4 0x95F9B576 EQ PUSH2 0x705 JUMPI DUP1 PUSH4 0x9619367D EQ PUSH2 0x7D6 JUMPI DUP1 PUSH4 0x98544710 EQ PUSH2 0x801 JUMPI DUP1 PUSH4 0x9E317F12 EQ PUSH2 0x83C JUMPI PUSH2 0x21A JUMP JUMPDEST DUP1 PUSH4 0x50C5F975 GT PUSH2 0x19B JUMPI DUP1 PUSH4 0x6B25D296 GT PUSH2 0x16A JUMPI DUP1 PUSH4 0x6B25D296 EQ PUSH2 0x5EC JUMPI DUP1 PUSH4 0x715018A6 EQ PUSH2 0x617 JUMPI DUP1 PUSH4 0x7A8042BD EQ PUSH2 0x62E JUMPI DUP1 PUSH4 0x8DA5CB5B EQ PUSH2 0x669 JUMPI DUP1 PUSH4 0x94985DDD EQ PUSH2 0x6C0 JUMPI PUSH2 0x21A JUMP JUMPDEST DUP1 PUSH4 0x50C5F975 EQ PUSH2 0x4FA JUMPI DUP1 PUSH4 0x5B8D02D7 EQ PUSH2 0x525 JUMPI DUP1 PUSH4 0x6168EAC9 EQ PUSH2 0x57C JUMPI DUP1 PUSH4 0x63BD1D4A EQ PUSH2 0x5C1 JUMPI PUSH2 0x21A JUMP JUMPDEST DUP1 PUSH4 0x2EE42D8A GT PUSH2 0x1E2 JUMPI DUP1 PUSH4 0x2EE42D8A EQ PUSH2 0x384 JUMPI DUP1 PUSH4 0x33EA51A8 EQ PUSH2 0x3AF JUMPI DUP1 PUSH4 0x3638104A EQ PUSH2 0x400 JUMPI DUP1 PUSH4 0x4051DDAC EQ PUSH2 0x469 JUMPI DUP1 PUSH4 0x44FF81CE EQ PUSH2 0x4A9 JUMPI PUSH2 0x21A JUMP JUMPDEST DUP1 PUSH4 0xC610A12 EQ PUSH2 0x21F JUMPI DUP1 PUSH4 0x117A5B90 EQ PUSH2 0x272 JUMPI DUP1 PUSH4 0x130A1EFA EQ PUSH2 0x314 JUMPI DUP1 PUSH4 0x2E5B2168 EQ PUSH2 0x359 JUMPI PUSH2 0x21A JUMP JUMPDEST CALLDATASIZE PUSH2 0x21A JUMPI STOP JUMPDEST PUSH1 0x0 DUP1 REVERT JUMPDEST CALLVALUE DUP1 ISZERO PUSH2 0x22B JUMPI PUSH1 0x0 DUP1 REVERT JUMPDEST POP PUSH2 0x258 PUSH1 0x4 DUP1 CALLDATASIZE SUB PUSH1 0x20 DUP2 LT ISZERO PUSH2 0x242 JUMPI PUSH1 0x0 DUP1 REVERT JUMPDEST DUP2 ADD SWAP1 DUP1 DUP1 CALLDATALOAD SWAP1 PUSH1 0x20 ADD SWAP1 SWAP3 SWAP2 SWAP1 POP POP POP PUSH2 0xCA6 JUMP JUMPDEST PUSH1 0x40 MLOAD DUP1 DUP3 ISZERO ISZERO ISZERO ISZERO DUP2 MSTORE PUSH1 0x20 ADD SWAP2 POP POP PUSH1 0x40 MLOAD DUP1 SWAP2 SUB SWAP1 RETURN JUMPDEST CALLVALUE DUP1 ISZERO PUSH2 0x27E JUMPI PUSH1 0x0 DUP1 REVERT JUMPDEST POP PUSH2 0x2AB PUSH1 0x4 DUP1 CALLDATASIZE SUB PUSH1 0x20 DUP2 LT ISZERO PUSH2 0x295 JUMPI PUSH1 0x0 DUP1 REVERT JUMPDEST DUP2 ADD SWAP1 DUP1 DUP1 CALLDATALOAD SWAP1 PUSH1 0x20 ADD SWAP1 SWAP3 SWAP2 SWAP1 POP POP POP PUSH2 0xCED JUMP JUMPDEST PUSH1 0x40 MLOAD DUP1 DUP8 DUP2 MSTORE PUSH1 0x20 ADD DUP7 PUSH20 0xFFFFFFFFFFFFFFFFFFFFFFFFFFFFFFFFFFFFFFFF AND PUSH20 0xFFFFFFFFFFFFFFFFFFFFFFFFFFFFFFFFFFFFFFFF AND DUP2 MSTORE PUSH1 0x20 ADD DUP6 DUP2 MSTORE PUSH1 0x20 ADD DUP5 DUP2 MSTORE PUSH1 0x20 ADD DUP4 DUP2 MSTORE PUSH1 0x20 ADD DUP3 ISZERO ISZERO ISZERO ISZERO DUP2 MSTORE PUSH1 0x20 ADD SWAP7 POP POP POP POP POP POP POP PUSH1 0x40 MLOAD DUP1 SWAP2 SUB SWAP1 RETURN JUMPDEST CALLVALUE DUP1 ISZERO PUSH2 0x320 JUMPI PUSH1 0x0 DUP1 REVERT JUMPDEST POP PUSH2 0x357 PUSH1 0x4 DUP1 CALLDATASIZE SUB PUSH1 0x40 DUP2 LT ISZERO PUSH2 0x337 JUMPI PUSH1 0x0 DUP1 REVERT JUMPDEST DUP2 ADD SWAP1 DUP1 DUP1 CALLDATALOAD SWAP1 PUSH1 0x20 ADD SWAP1 SWAP3 SWAP2 SWAP1 DUP1 CALLDATALOAD SWAP1 PUSH1 0x20 ADD SWAP1 SWAP3 SWAP2 SWAP1 POP POP POP PUSH2 0xD56 JUMP JUMPDEST STOP JUMPDEST CALLVALUE DUP1 ISZERO PUSH2 0x365 JUMPI PUSH1 0x0 DUP1 REVERT JUMPDEST POP PUSH2 0x36E PUSH2 0x1040 JUMP JUMPDEST PUSH1 0x40 MLOAD DUP1 DUP3 DUP2 MSTORE PUSH1 0x20 ADD SWAP2 POP POP PUSH1 0x40 MLOAD DUP1 SWAP2 SUB SWAP1 RETURN JUMPDEST CALLVALUE DUP1 ISZERO PUSH2 0x390 JUMPI PUSH1 0x0 DUP1 REVERT JUMPDEST POP PUSH2 0x399 PUSH2 0x1046 JUMP JUMPDEST PUSH1 0x40 MLOAD DUP1 DUP3 DUP2 MSTORE PUSH1 0x20 ADD SWAP2 POP POP PUSH1 0x40 MLOAD DUP1 SWAP2 SUB SWAP1 RETURN JUMPDEST CALLVALUE DUP1 ISZERO PUSH2 0x3BB JUMPI PUSH1 0x0 DUP1 REVERT JUMPDEST POP PUSH2 0x3FE PUSH1 0x4 DUP1 CALLDATASIZE SUB PUSH1 0x20 DUP2 LT ISZERO PUSH2 0x3D2 JUMPI PUSH1 0x0 DUP1 REVERT JUMPDEST DUP2 ADD SWAP1 DUP1 DUP1 CALLDATALOAD PUSH20 0xFFFFFFFFFFFFFFFFFFFFFFFFFFFFFFFFFFFFFFFF AND SWAP1 PUSH1 0x20 ADD SWAP1 SWAP3 SWAP2 SWAP1 POP POP POP PUSH2 0x104C JUMP JUMPDEST STOP JUMPDEST CALLVALUE DUP1 ISZERO PUSH2 0x40C JUMPI PUSH1 0x0 DUP1 REVERT JUMPDEST POP PUSH2 0x44F PUSH1 0x4 DUP1 CALLDATASIZE SUB PUSH1 0x20 DUP2 LT ISZERO PUSH2 0x423 JUMPI PUSH1 0x0 DUP1 REVERT JUMPDEST DUP2 ADD SWAP1 DUP1 DUP1 CALLDATALOAD PUSH20 0xFFFFFFFFFFFFFFFFFFFFFFFFFFFFFFFFFFFFFFFF AND SWAP1 PUSH1 0x20 ADD SWAP1 SWAP3 SWAP2 SWAP1 POP POP POP PUSH2 0x115A JUMP JUMPDEST PUSH1 0x40 MLOAD DUP1 DUP3 ISZERO ISZERO ISZERO ISZERO DUP2 MSTORE PUSH1 0x20 ADD SWAP2 POP POP PUSH1 0x40 MLOAD DUP1 SWAP2 SUB SWAP1 RETURN JUMPDEST CALLVALUE DUP1 ISZERO PUSH2 0x475 JUMPI PUSH1 0x0 DUP1 REVERT JUMPDEST POP PUSH2 0x47E PUSH2 0x117A JUMP JUMPDEST PUSH1 0x40 MLOAD DUP1 DUP6 DUP2 MSTORE PUSH1 0x20 ADD DUP5 DUP2 MSTORE PUSH1 0x20 ADD DUP4 DUP2 MSTORE PUSH1 0x20 ADD DUP3 DUP2 MSTORE PUSH1 0x20 ADD SWAP5 POP POP POP POP POP PUSH1 0x40 MLOAD DUP1 SWAP2 SUB SWAP1 RETURN JUMPDEST CALLVALUE DUP1 ISZERO PUSH2 0x4B5 JUMPI PUSH1 0x0 DUP1 REVERT JUMPDEST POP PUSH2 0x4F8 PUSH1 0x4 DUP1 CALLDATASIZE SUB PUSH1 0x20 DUP2 LT ISZERO PUSH2 0x4CC JUMPI PUSH1 0x0 DUP1 REVERT JUMPDEST DUP2 ADD SWAP1 DUP1 DUP1 CALLDATALOAD PUSH20 0xFFFFFFFFFFFFFFFFFFFFFFFFFFFFFFFFFFFFFFFF AND SWAP1 PUSH1 0x20 ADD SWAP1 SWAP3 SWAP2 SWAP1 POP POP POP PUSH2 0x119A JUMP JUMPDEST STOP JUMPDEST CALLVALUE DUP1 ISZERO PUSH2 0x506 JUMPI PUSH1 0x0 DUP1 REVERT JUMPDEST POP PUSH2 0x50F PUSH2 0x12A8 JUMP JUMPDEST PUSH1 0x40 MLOAD DUP1 DUP3 DUP2 MSTORE PUSH1 0x20 ADD SWAP2 POP POP PUSH1 0x40 MLOAD DUP1 SWAP2 SUB SWAP1 RETURN JUMPDEST CALLVALUE DUP1 ISZERO PUSH2 0x531 JUMPI PUSH1 0x0 DUP1 REVERT JUMPDEST POP PUSH2 0x53A PUSH2 0x1388 JUMP JUMPDEST PUSH1 0x40 MLOAD DUP1 DUP3 PUSH20 0xFFFFFFFFFFFFFFFFFFFFFFFFFFFFFFFFFFFFFFFF AND PUSH20 0xFFFFFFFFFFFFFFFFFFFFFFFFFFFFFFFFFFFFFFFF AND DUP2 MSTORE PUSH1 0x20 ADD SWAP2 POP POP PUSH1 0x40 MLOAD DUP1 SWAP2 SUB SWAP1 RETURN JUMPDEST CALLVALUE DUP1 ISZERO PUSH2 0x588 JUMPI PUSH1 0x0 DUP1 REVERT JUMPDEST POP PUSH2 0x5BF PUSH1 0x4 DUP1 CALLDATASIZE SUB PUSH1 0x40 DUP2 LT ISZERO PUSH2 0x59F JUMPI PUSH1 0x0 DUP1 REVERT JUMPDEST DUP2 ADD SWAP1 DUP1 DUP1 CALLDATALOAD SWAP1 PUSH1 0x20 ADD SWAP1 SWAP3 SWAP2 SWAP1 DUP1 CALLDATALOAD SWAP1 PUSH1 0x20 ADD SWAP1 SWAP3 SWAP2 SWAP1 POP POP POP PUSH2 0x13AE JUMP JUMPDEST STOP JUMPDEST CALLVALUE DUP1 ISZERO PUSH2 0x5CD JUMPI PUSH1 0x0 DUP1 REVERT JUMPDEST POP PUSH2 0x5D6 PUSH2 0x14DC JUMP JUMPDEST PUSH1 0x40 MLOAD DUP1 DUP3 DUP2 MSTORE PUSH1 0x20 ADD SWAP2 POP POP PUSH1 0x40 MLOAD DUP1 SWAP2 SUB SWAP1 RETURN JUMPDEST CALLVALUE DUP1 ISZERO PUSH2 0x5F8 JUMPI PUSH1 0x0 DUP1 REVERT JUMPDEST POP PUSH2 0x601 PUSH2 0x14E2 JUMP JUMPDEST PUSH1 0x40 MLOAD DUP1 DUP3 DUP2 MSTORE PUSH1 0x20 ADD SWAP2 POP POP PUSH1 0x40 MLOAD DUP1 SWAP2 SUB SWAP1 RETURN JUMPDEST CALLVALUE DUP1 ISZERO PUSH2 0x623 JUMPI PUSH1 0x0 DUP1 REVERT JUMPDEST POP PUSH2 0x62C PUSH2 0x14E8 JUMP JUMPDEST STOP JUMPDEST CALLVALUE DUP1 ISZERO PUSH2 0x63A JUMPI PUSH1 0x0 DUP1 REVERT JUMPDEST POP PUSH2 0x667 PUSH1 0x4 DUP1 CALLDATASIZE SUB PUSH1 0x20 DUP2 LT ISZERO PUSH2 0x651 JUMPI PUSH1 0x0 DUP1 REVERT JUMPDEST DUP2 ADD SWAP1 DUP1 DUP1 CALLDATALOAD SWAP1 PUSH1 0x20 ADD SWAP1 SWAP3 SWAP2 SWAP1 POP POP POP PUSH2 0x1673 JUMP JUMPDEST STOP JUMPDEST CALLVALUE DUP1 ISZERO PUSH2 0x675 JUMPI PUSH1 0x0 DUP1 REVERT JUMPDEST POP PUSH2 0x67E PUSH2 0x1878 JUMP JUMPDEST PUSH1 0x40 MLOAD DUP1 DUP3 PUSH20 0xFFFFFFFFFFFFFFFFFFFFFFFFFFFFFFFFFFFFFFFF AND PUSH20 0xFFFFFFFFFFFFFFFFFFFFFFFFFFFFFFFFFFFFFFFF AND DUP2 MSTORE PUSH1 0x20 ADD SWAP2 POP POP PUSH1 0x40 MLOAD DUP1 SWAP2 SUB SWAP1 RETURN JUMPDEST CALLVALUE DUP1 ISZERO PUSH2 0x6CC JUMPI PUSH1 0x0 DUP1 REVERT JUMPDEST POP PUSH2 0x703 PUSH1 0x4 DUP1 CALLDATASIZE SUB PUSH1 0x40 DUP2 LT ISZERO PUSH2 0x6E3 JUMPI PUSH1 0x0 DUP1 REVERT JUMPDEST DUP2 ADD SWAP1 DUP1 DUP1 CALLDATALOAD SWAP1 PUSH1 0x20 ADD SWAP1 SWAP3 SWAP2 SWAP1 DUP1 CALLDATALOAD SWAP1 PUSH1 0x20 ADD SWAP1 SWAP3 SWAP2 SWAP1 POP POP POP PUSH2 0x18A2 JUMP JUMPDEST STOP JUMPDEST CALLVALUE DUP1 ISZERO PUSH2 0x711 JUMPI PUSH1 0x0 DUP1 REVERT JUMPDEST POP PUSH2 0x7D4 PUSH1 0x4 DUP1 CALLDATASIZE SUB PUSH1 0x40 DUP2 LT ISZERO PUSH2 0x728 JUMPI PUSH1 0x0 DUP1 REVERT JUMPDEST DUP2 ADD SWAP1 DUP1 DUP1 CALLDATALOAD SWAP1 PUSH1 0x20 ADD SWAP1 PUSH5 0x100000000 DUP2 GT ISZERO PUSH2 0x745 JUMPI PUSH1 0x0 DUP1 REVERT JUMPDEST DUP3 ADD DUP4 PUSH1 0x20 DUP3 ADD GT ISZERO PUSH2 0x757 JUMPI PUSH1 0x0 DUP1 REVERT JUMPDEST DUP1 CALLDATALOAD SWAP1 PUSH1 0x20 ADD SWAP2 DUP5 PUSH1 0x20 DUP4 MUL DUP5 ADD GT PUSH5 0x100000000 DUP4 GT OR ISZERO PUSH2 0x779 JUMPI PUSH1 0x0 DUP1 REVERT JUMPDEST SWAP2 SWAP1 DUP1 DUP1 PUSH1 0x20 MUL PUSH1 0x20 ADD PUSH1 0x40 MLOAD SWAP1 DUP2 ADD PUSH1 0x40 MSTORE DUP1 SWAP4 SWAP3 SWAP2 SWAP1 DUP2 DUP2 MSTORE PUSH1 0x20 ADD DUP4 DUP4 PUSH1 0x20 MUL DUP1 DUP3 DUP5 CALLDATACOPY PUSH1 0x0 DUP2 DUP5 ADD MSTORE PUSH1 0x1F NOT PUSH1 0x1F DUP3 ADD AND SWAP1 POP DUP1 DUP4 ADD SWAP3 POP POP POP POP POP POP POP SWAP2 SWAP3 SWAP2 SWAP3 SWAP1 DUP1 CALLDATALOAD ISZERO ISZERO SWAP1 PUSH1 0x20 ADD SWAP1 SWAP3 SWAP2 SWAP1 POP POP POP PUSH2 0x1973 JUMP JUMPDEST STOP JUMPDEST CALLVALUE DUP1 ISZERO PUSH2 0x7E2 JUMPI PUSH1 0x0 DUP1 REVERT JUMPDEST POP PUSH2 0x7EB PUSH2 0x1AFA JUMP JUMPDEST PUSH1 0x40 MLOAD DUP1 DUP3 DUP2 MSTORE PUSH1 0x20 ADD SWAP2 POP POP PUSH1 0x40 MLOAD DUP1 SWAP2 SUB SWAP1 RETURN JUMPDEST CALLVALUE DUP1 ISZERO PUSH2 0x80D JUMPI PUSH1 0x0 DUP1 REVERT JUMPDEST POP PUSH2 0x83A PUSH1 0x4 DUP1 CALLDATASIZE SUB PUSH1 0x20 DUP2 LT ISZERO PUSH2 0x824 JUMPI PUSH1 0x0 DUP1 REVERT JUMPDEST DUP2 ADD SWAP1 DUP1 DUP1 CALLDATALOAD SWAP1 PUSH1 0x20 ADD SWAP1 SWAP3 SWAP2 SWAP1 POP POP POP PUSH2 0x1B00 JUMP JUMPDEST STOP JUMPDEST CALLVALUE DUP1 ISZERO PUSH2 0x848 JUMPI PUSH1 0x0 DUP1 REVERT JUMPDEST POP PUSH2 0x875 PUSH1 0x4 DUP1 CALLDATASIZE SUB PUSH1 0x20 DUP2 LT ISZERO PUSH2 0x85F JUMPI PUSH1 0x0 DUP1 REVERT JUMPDEST DUP2 ADD SWAP1 DUP1 DUP1 CALLDATALOAD SWAP1 PUSH1 0x20 ADD SWAP1 SWAP3 SWAP2 SWAP1 POP POP POP PUSH2 0x1BD4 JUMP JUMPDEST PUSH1 0x40 MLOAD DUP1 DUP3 DUP2 MSTORE PUSH1 0x20 ADD SWAP2 POP POP PUSH1 0x40 MLOAD DUP1 SWAP2 SUB SWAP1 RETURN JUMPDEST CALLVALUE DUP1 ISZERO PUSH2 0x897 JUMPI PUSH1 0x0 DUP1 REVERT JUMPDEST POP PUSH2 0x8DA PUSH1 0x4 DUP1 CALLDATASIZE SUB PUSH1 0x20 DUP2 LT ISZERO PUSH2 0x8AE JUMPI PUSH1 0x0 DUP1 REVERT JUMPDEST DUP2 ADD SWAP1 DUP1 DUP1 CALLDATALOAD PUSH20 0xFFFFFFFFFFFFFFFFFFFFFFFFFFFFFFFFFFFFFFFF AND SWAP1 PUSH1 0x20 ADD SWAP1 SWAP3 SWAP2 SWAP1 POP POP POP PUSH2 0x1BEC JUMP JUMPDEST STOP JUMPDEST CALLVALUE DUP1 ISZERO PUSH2 0x8E8 JUMPI PUSH1 0x0 DUP1 REVERT JUMPDEST POP PUSH2 0x937 PUSH1 0x4 DUP1 CALLDATASIZE SUB PUSH1 0x40 DUP2 LT ISZERO PUSH2 0x8FF JUMPI PUSH1 0x0 DUP1 REVERT JUMPDEST DUP2 ADD SWAP1 DUP1 DUP1 CALLDATALOAD PUSH20 0xFFFFFFFFFFFFFFFFFFFFFFFFFFFFFFFFFFFFFFFF AND SWAP1 PUSH1 0x20 ADD SWAP1 SWAP3 SWAP2 SWAP1 DUP1 CALLDATALOAD ISZERO ISZERO SWAP1 PUSH1 0x20 ADD SWAP1 SWAP3 SWAP2 SWAP1 POP POP POP PUSH2 0x1CF9 JUMP JUMPDEST STOP JUMPDEST CALLVALUE DUP1 ISZERO PUSH2 0x945 JUMPI PUSH1 0x0 DUP1 REVERT JUMPDEST POP PUSH2 0x972 PUSH1 0x4 DUP1 CALLDATASIZE SUB PUSH1 0x20 DUP2 LT ISZERO PUSH2 0x95C JUMPI PUSH1 0x0 DUP1 REVERT JUMPDEST DUP2 ADD SWAP1 DUP1 DUP1 CALLDATALOAD SWAP1 PUSH1 0x20 ADD SWAP1 SWAP3 SWAP2 SWAP1 POP POP POP PUSH2 0x1E1E JUMP JUMPDEST STOP JUMPDEST PUSH2 0x9C0 PUSH1 0x4 DUP1 CALLDATASIZE SUB PUSH1 0x40 DUP2 LT ISZERO PUSH2 0x98A JUMPI PUSH1 0x0 DUP1 REVERT JUMPDEST DUP2 ADD SWAP1 DUP1 DUP1 CALLDATALOAD PUSH20 0xFFFFFFFFFFFFFFFFFFFFFFFFFFFFFFFFFFFFFFFF AND SWAP1 PUSH1 0x20 ADD SWAP1 SWAP3 SWAP2 SWAP1 DUP1 CALLDATALOAD SWAP1 PUSH1 0x20 ADD SWAP1 SWAP3 SWAP2 SWAP1 POP POP POP PUSH2 0x2115 JUMP JUMPDEST STOP JUMPDEST CALLVALUE DUP1 ISZERO PUSH2 0x9CE JUMPI PUSH1 0x0 DUP1 REVERT JUMPDEST POP PUSH2 0xA11 PUSH1 0x4 DUP1 CALLDATASIZE SUB PUSH1 0x20 DUP2 LT ISZERO PUSH2 0x9E5 JUMPI PUSH1 0x0 DUP1 REVERT JUMPDEST DUP2 ADD SWAP1 DUP1 DUP1 CALLDATALOAD PUSH20 0xFFFFFFFFFFFFFFFFFFFFFFFFFFFFFFFFFFFFFFFF AND SWAP1 PUSH1 0x20 ADD SWAP1 SWAP3 SWAP2 SWAP1 POP POP POP PUSH2 0x2256 JUMP JUMPDEST PUSH1 0x40 MLOAD DUP1 DUP3 DUP2 MSTORE PUSH1 0x20 ADD SWAP2 POP POP PUSH1 0x40 MLOAD DUP1 SWAP2 SUB SWAP1 RETURN JUMPDEST CALLVALUE DUP1 ISZERO PUSH2 0xA33 JUMPI PUSH1 0x0 DUP1 REVERT JUMPDEST POP PUSH2 0xA3C PUSH2 0x226E JUMP JUMPDEST STOP JUMPDEST CALLVALUE DUP1 ISZERO PUSH2 0xA4A JUMPI PUSH1 0x0 DUP1 REVERT JUMPDEST POP PUSH2 0xA77 PUSH1 0x4 DUP1 CALLDATASIZE SUB PUSH1 0x20 DUP2 LT ISZERO PUSH2 0xA61 JUMPI PUSH1 0x0 DUP1 REVERT JUMPDEST DUP2 ADD SWAP1 DUP1 DUP1 CALLDATALOAD SWAP1 PUSH1 0x20 ADD SWAP1 SWAP3 SWAP2 SWAP1 POP POP POP PUSH2 0x267D JUMP JUMPDEST STOP JUMPDEST CALLVALUE DUP1 ISZERO PUSH2 0xA85 JUMPI PUSH1 0x0 DUP1 REVERT JUMPDEST POP PUSH2 0xA8E PUSH2 0x285F JUMP JUMPDEST STOP JUMPDEST PUSH2 0xADC PUSH1 0x4 DUP1 CALLDATASIZE SUB PUSH1 0x40 DUP2 LT ISZERO PUSH2 0xAA6 JUMPI PUSH1 0x0 DUP1 REVERT JUMPDEST DUP2 ADD SWAP1 DUP1 DUP1 CALLDATALOAD PUSH20 0xFFFFFFFFFFFFFFFFFFFFFFFFFFFFFFFFFFFFFFFF AND SWAP1 PUSH1 0x20 ADD SWAP1 SWAP3 SWAP2 SWAP1 DUP1 CALLDATALOAD SWAP1 PUSH1 0x20 ADD SWAP1 SWAP3 SWAP2 SWAP1 POP POP POP PUSH2 0x29BC JUMP JUMPDEST STOP JUMPDEST CALLVALUE DUP1 ISZERO PUSH2 0xAEA JUMPI PUSH1 0x0 DUP1 REVERT JUMPDEST POP PUSH2 0xB57 PUSH1 0x4 DUP1 CALLDATASIZE SUB PUSH1 0xA0 DUP2 LT ISZERO PUSH2 0xB01 JUMPI PUSH1 0x0 DUP1 REVERT JUMPDEST DUP2 ADD SWAP1 DUP1 DUP1 CALLDATALOAD PUSH20 0xFFFFFFFFFFFFFFFFFFFFFFFFFFFFFFFFFFFFFFFF AND SWAP1 PUSH1 0x20 ADD SWAP1 SWAP3 SWAP2 SWAP1 DUP1 CALLDATALOAD SWAP1 PUSH1 0x20 ADD SWAP1 SWAP3 SWAP2 SWAP1 DUP1 CALLDATALOAD SWAP1 PUSH1 0x20 ADD SWAP1 SWAP3 SWAP2 SWAP1 DUP1 CALLDATALOAD ISZERO ISZERO SWAP1 PUSH1 0x20 ADD SWAP1 SWAP3 SWAP2 SWAP1 DUP1 CALLDATALOAD SWAP1 PUSH1 0x20 ADD SWAP1 SWAP3 SWAP2 SWAP1 POP POP POP PUSH2 0x2BE2 JUMP JUMPDEST STOP JUMPDEST CALLVALUE DUP1 ISZERO PUSH2 0xB65 JUMPI PUSH1 0x0 DUP1 REVERT JUMPDEST POP PUSH2 0xBA8 PUSH1 0x4 DUP1 CALLDATASIZE SUB PUSH1 0x20 DUP2 LT ISZERO PUSH2 0xB7C JUMPI PUSH1 0x0 DUP1 REVERT JUMPDEST DUP2 ADD SWAP1 DUP1 DUP1 CALLDATALOAD PUSH20 0xFFFFFFFFFFFFFFFFFFFFFFFFFFFFFFFFFFFFFFFF AND SWAP1 PUSH1 0x20 ADD SWAP1 SWAP3 SWAP2 SWAP1 POP POP POP PUSH2 0x2CE4 JUMP JUMPDEST PUSH1 0x40 MLOAD DUP1 DUP3 ISZERO ISZERO ISZERO ISZERO DUP2 MSTORE PUSH1 0x20 ADD SWAP2 POP POP PUSH1 0x40 MLOAD DUP1 SWAP2 SUB SWAP1 RETURN JUMPDEST CALLVALUE DUP1 ISZERO PUSH2 0xBCE JUMPI PUSH1 0x0 DUP1 REVERT JUMPDEST POP PUSH2 0xC11 PUSH1 0x4 DUP1 CALLDATASIZE SUB PUSH1 0x20 DUP2 LT ISZERO PUSH2 0xBE5 JUMPI PUSH1 0x0 DUP1 REVERT JUMPDEST DUP2 ADD SWAP1 DUP1 DUP1 CALLDATALOAD PUSH20 0xFFFFFFFFFFFFFFFFFFFFFFFFFFFFFFFFFFFFFFFF AND SWAP1 PUSH1 0x20 ADD SWAP1 SWAP3 SWAP2 SWAP1 POP POP POP PUSH2 0x2D04 JUMP JUMPDEST STOP JUMPDEST CALLVALUE DUP1 ISZERO PUSH2 0xC1F JUMPI PUSH1 0x0 DUP1 REVERT JUMPDEST POP PUSH2 0xC4C PUSH1 0x4 DUP1 CALLDATASIZE SUB PUSH1 0x20 DUP2 LT ISZERO PUSH2 0xC36 JUMPI PUSH1 0x0 DUP1 REVERT JUMPDEST DUP2 ADD SWAP1 DUP1 DUP1 CALLDATALOAD SWAP1 PUSH1 0x20 ADD SWAP1 SWAP3 SWAP2 SWAP1 POP POP POP PUSH2 0x2F14 JUMP JUMPDEST STOP JUMPDEST PUSH2 0xCA4 PUSH1 0x4 DUP1 CALLDATASIZE SUB PUSH1 0x60 DUP2 LT ISZERO PUSH2 0xC64 JUMPI PUSH1 0x0 DUP1 REVERT JUMPDEST DUP2 ADD SWAP1 DUP1 DUP1 CALLDATALOAD PUSH20 0xFFFFFFFFFFFFFFFFFFFFFFFFFFFFFFFFFFFFFFFF AND SWAP1 PUSH1 0x20 ADD SWAP1 SWAP3 SWAP2 SWAP1 DUP1 CALLDATALOAD SWAP1 PUSH1 0x20 ADD SWAP1 SWAP3 SWAP2 SWAP1 DUP1 CALLDATALOAD SWAP1 PUSH1 0x20 ADD SWAP1 SWAP3 SWAP2 SWAP1 POP POP POP PUSH2 0x2FEA JUMP JUMPDEST STOP JUMPDEST PUSH1 0x0 PUSH2 0xCCF DUP3 PUSH2 0xCC1 PUSH1 0x17 SLOAD DUP6 PUSH2 0x30DF SWAP1 SWAP2 SWAP1 PUSH4 0xFFFFFFFF AND JUMP JUMPDEST PUSH2 0x3165 SWAP1 SWAP2 SWAP1 PUSH4 0xFFFFFFFF AND JUMP JUMPDEST PUSH2 0xCE4 PUSH1 0x14 SLOAD SELFBALANCE PUSH2 0x31ED SWAP1 SWAP2 SWAP1 PUSH4 0xFFFFFFFF AND JUMP JUMPDEST LT ISZERO SWAP1 POP SWAP2 SWAP1 POP JUMP JUMPDEST PUSH1 0x1A PUSH1 0x20 MSTORE DUP1 PUSH1 0x0 MSTORE PUSH1 0x40 PUSH1 0x0 KECCAK256 PUSH1 0x0 SWAP2 POP SWAP1 POP DUP1 PUSH1 0x0 ADD SLOAD SWAP1 DUP1 PUSH1 0x1 ADD PUSH1 0x0 SWAP1 SLOAD SWAP1 PUSH2 0x100 EXP SWAP1 DIV PUSH20 0xFFFFFFFFFFFFFFFFFFFFFFFFFFFFFFFFFFFFFFFF AND SWAP1 DUP1 PUSH1 0x2 ADD SLOAD SWAP1 DUP1 PUSH1 0x3 ADD SLOAD SWAP1 DUP1 PUSH1 0x4 ADD SLOAD SWAP1 DUP1 PUSH1 0x5 ADD PUSH1 0x0 SWAP1 SLOAD SWAP1 PUSH2 0x100 EXP SWAP1 DIV PUSH1 0xFF AND SWAP1 POP DUP7 JUMP JUMPDEST PUSH1 0x0 PUSH1 0x1A PUSH1 0x0 PUSH1 0x1B PUSH1 0x0 DUP7 DUP2 MSTORE PUSH1 0x20 ADD SWAP1 DUP2 MSTORE PUSH1 0x20 ADD PUSH1 0x0 KECCAK256 SLOAD DUP2 MSTORE PUSH1 0x20 ADD SWAP1 DUP2 MSTORE PUSH1 0x20 ADD PUSH1 0x0 KECCAK256 SWAP1 POP PUSH1 0x0 DUP2 PUSH1 0x0 ADD SLOAD GT DUP1 ISZERO PUSH2 0xDA9 JUMPI POP PUSH1 0x0 ISZERO ISZERO DUP2 PUSH1 0x5 ADD PUSH1 0x0 SWAP1 SLOAD SWAP1 PUSH2 0x100 EXP SWAP1 DIV PUSH1 0xFF AND ISZERO ISZERO EQ JUMPDEST ISZERO PUSH2 0xFE3 JUMPI PUSH1 0x12 SLOAD DUP2 PUSH1 0x2 ADD SLOAD GT ISZERO PUSH2 0xDC8 JUMPI PUSH1 0x12 SLOAD DUP2 PUSH1 0x2 ADD DUP2 SWAP1 SSTORE POP JUMPDEST PUSH1 0x0 PUSH2 0xDF9 DUP3 PUSH1 0x2 ADD SLOAD PUSH2 0xDEB PUSH1 0x17 SLOAD DUP6 PUSH1 0x2 ADD SLOAD PUSH2 0x30DF SWAP1 SWAP2 SWAP1 PUSH4 0xFFFFFFFF AND JUMP JUMPDEST PUSH2 0x3165 SWAP1 SWAP2 SWAP1 PUSH4 0xFFFFFFFF AND JUMP JUMPDEST SWAP1 POP DUP1 SELFBALANCE LT ISZERO PUSH2 0xE54 JUMPI PUSH1 0x40 MLOAD PUSH32 0x8C379A000000000000000000000000000000000000000000000000000000000 DUP2 MSTORE PUSH1 0x4 ADD DUP1 DUP1 PUSH1 0x20 ADD DUP3 DUP2 SUB DUP3 MSTORE PUSH1 0x33 DUP2 MSTORE PUSH1 0x20 ADD DUP1 PUSH2 0x3EC3 PUSH1 0x33 SWAP2 CODECOPY PUSH1 0x40 ADD SWAP2 POP POP PUSH1 0x40 MLOAD DUP1 SWAP2 SUB SWAP1 REVERT JUMPDEST DUP3 DUP3 PUSH1 0x4 ADD DUP2 SWAP1 SSTORE POP PUSH1 0x1 DUP3 PUSH1 0x5 ADD PUSH1 0x0 PUSH2 0x100 EXP DUP2 SLOAD DUP2 PUSH1 0xFF MUL NOT AND SWAP1 DUP4 ISZERO ISZERO MUL OR SWAP1 SSTORE POP DUP2 PUSH1 0x2 ADD SLOAD PUSH1 0x14 SLOAD LT PUSH2 0xEA0 JUMPI DUP2 PUSH1 0x2 ADD SLOAD PUSH1 0x14 PUSH1 0x0 DUP3 DUP3 SLOAD SUB SWAP3 POP POP DUP2 SWAP1 SSTORE POP PUSH2 0xEA9 JUMP JUMPDEST PUSH1 0x0 PUSH1 0x14 DUP2 SWAP1 SSTORE POP JUMPDEST DUP2 PUSH1 0x4 ADD SLOAD DUP3 PUSH1 0x3 ADD SLOAD EQ ISZERO PUSH2 0xF29 JUMPI DUP2 PUSH1 0x1 ADD PUSH1 0x0 SWAP1 SLOAD SWAP1 PUSH2 0x100 EXP SWAP1 DIV PUSH20 0xFFFFFFFFFFFFFFFFFFFFFFFFFFFFFFFFFFFFFFFF AND PUSH20 0xFFFFFFFFFFFFFFFFFFFFFFFFFFFFFFFFFFFFFFFF AND PUSH2 0x8FC DUP3 SWAP1 DUP2 ISZERO MUL SWAP1 PUSH1 0x40 MLOAD PUSH1 0x0 PUSH1 0x40 MLOAD DUP1 DUP4 SUB DUP2 DUP6 DUP9 DUP9 CALL SWAP4 POP POP POP POP ISZERO DUP1 ISZERO PUSH2 0xF23 JUMPI RETURNDATASIZE PUSH1 0x0 DUP1 RETURNDATACOPY RETURNDATASIZE PUSH1 0x0 REVERT JUMPDEST POP PUSH2 0xF2E JUMP JUMPDEST PUSH1 0x0 SWAP1 POP JUMPDEST PUSH32 0xC06600D6399308F270BC6AE70D5377121B685C974BB7F7355824FDDD8A2B3497 DUP3 PUSH1 0x1 ADD PUSH1 0x0 SWAP1 SLOAD SWAP1 PUSH2 0x100 EXP SWAP1 DIV PUSH20 0xFFFFFFFFFFFFFFFFFFFFFFFFFFFFFFFFFFFFFFFF AND DUP4 PUSH1 0x2 ADD SLOAD DUP5 PUSH1 0x3 ADD SLOAD DUP6 PUSH1 0x4 ADD SLOAD DUP6 PUSH1 0x40 MLOAD DUP1 DUP7 PUSH20 0xFFFFFFFFFFFFFFFFFFFFFFFFFFFFFFFFFFFFFFFF AND PUSH20 0xFFFFFFFFFFFFFFFFFFFFFFFFFFFFFFFFFFFFFFFF AND DUP2 MSTORE PUSH1 0x20 ADD DUP6 DUP2 MSTORE PUSH1 0x20 ADD DUP5 DUP2 MSTORE PUSH1 0x20 ADD DUP4 DUP2 MSTORE PUSH1 0x20 ADD DUP3 DUP2 MSTORE PUSH1 0x20 ADD SWAP6 POP POP POP POP POP POP PUSH1 0x40 MLOAD DUP1 SWAP2 SUB SWAP1 LOG1 POP JUMPDEST PUSH1 0x1 PUSH1 0x6 DUP2 SWAP1 SSTORE POP PUSH1 0x1 PUSH1 0x7 DUP2 SWAP1 SSTORE POP PUSH1 0x1 PUSH1 0x8 DUP2 SWAP1 SSTORE POP PUSH1 0x1 PUSH1 0x9 DUP2 SWAP1 SSTORE POP PUSH1 0x1 PUSH1 0xA DUP2 SWAP1 SSTORE POP PUSH1 0x1 PUSH1 0xB DUP2 SWAP1 SSTORE POP PUSH1 0x1 PUSH1 0xC DUP2 SWAP1 SSTORE POP PUSH1 0x1 PUSH1 0xD DUP2 SWAP1 SSTORE POP PUSH1 0x1 PUSH1 0xE DUP2 SWAP1 SSTORE POP PUSH1 0x1 PUSH1 0xF DUP2 SWAP1 SSTORE POP PUSH1 0x1 PUSH1 0x10 DUP2 SWAP1 SSTORE POP POP POP POP JUMP JUMPDEST PUSH1 0x12 SLOAD DUP2 JUMP JUMPDEST PUSH1 0x11 SLOAD DUP2 JUMP JUMPDEST PUSH2 0x1054 PUSH2 0x3276 JUMP JUMPDEST PUSH20 0xFFFFFFFFFFFFFFFFFFFFFFFFFFFFFFFFFFFFFFFF AND PUSH1 0x3 PUSH1 0x0 SWAP1 SLOAD SWAP1 PUSH2 0x100 EXP SWAP1 DIV PUSH20 0xFFFFFFFFFFFFFFFFFFFFFFFFFFFFFFFFFFFFFFFF AND PUSH20 0xFFFFFFFFFFFFFFFFFFFFFFFFFFFFFFFFFFFFFFFF AND EQ PUSH2 0x1116 JUMPI PUSH1 0x40 MLOAD PUSH32 0x8C379A000000000000000000000000000000000000000000000000000000000 DUP2 MSTORE PUSH1 0x4 ADD DUP1 DUP1 PUSH1 0x20 ADD DUP3 DUP2 SUB DUP3 MSTORE PUSH1 0x20 DUP2 MSTORE PUSH1 0x20 ADD DUP1 PUSH32 0x4F776E61626C653A2063616C6C6572206973206E6F7420746865206F776E6572 DUP2 MSTORE POP PUSH1 0x20 ADD SWAP2 POP POP PUSH1 0x40 MLOAD DUP1 SWAP2 SUB SWAP1 REVERT JUMPDEST DUP1 PUSH1 0x16 PUSH1 0x0 PUSH2 0x100 EXP DUP2 SLOAD DUP2 PUSH20 0xFFFFFFFFFFFFFFFFFFFFFFFFFFFFFFFFFFFFFFFF MUL NOT AND SWAP1 DUP4 PUSH20 0xFFFFFFFFFFFFFFFFFFFFFFFFFFFFFFFFFFFFFFFF AND MUL OR SWAP1 SSTORE POP POP JUMP JUMPDEST PUSH1 0x18 PUSH1 0x20 MSTORE DUP1 PUSH1 0x0 MSTORE PUSH1 0x40 PUSH1 0x0 KECCAK256 PUSH1 0x0 SWAP2 POP SLOAD SWAP1 PUSH2 0x100 EXP SWAP1 DIV PUSH1 0xFF AND DUP2 JUMP JUMPDEST PUSH1 0x0 DUP1 PUSH1 0x0 DUP1 PUSH1 0x13 SLOAD PUSH1 0x12 SLOAD PUSH1 0x17 SLOAD PUSH1 0x11 SLOAD SWAP4 POP SWAP4 POP SWAP4 POP SWAP4 POP SWAP1 SWAP2 SWAP3 SWAP4 JUMP JUMPDEST PUSH2 0x11A2 PUSH2 0x3276 JUMP JUMPDEST PUSH20 0xFFFFFFFFFFFFFFFFFFFFFFFFFFFFFFFFFFFFFFFF AND PUSH1 0x3 PUSH1 0x0 SWAP1 SLOAD SWAP1 PUSH2 0x100 EXP SWAP1 DIV PUSH20 0xFFFFFFFFFFFFFFFFFFFFFFFFFFFFFFFFFFFFFFFF AND PUSH20 0xFFFFFFFFFFFFFFFFFFFFFFFFFFFFFFFFFFFFFFFF AND EQ PUSH2 0x1264 JUMPI PUSH1 0x40 MLOAD PUSH32 0x8C379A000000000000000000000000000000000000000000000000000000000 DUP2 MSTORE PUSH1 0x4 ADD DUP1 DUP1 PUSH1 0x20 ADD DUP3 DUP2 SUB DUP3 MSTORE PUSH1 0x20 DUP2 MSTORE PUSH1 0x20 ADD DUP1 PUSH32 0x4F776E61626C653A2063616C6C6572206973206E6F7420746865206F776E6572 DUP2 MSTORE POP PUSH1 0x20 ADD SWAP2 POP POP PUSH1 0x40 MLOAD DUP1 SWAP2 SUB SWAP1 REVERT JUMPDEST DUP1 PUSH1 0x1 PUSH1 0x0 PUSH2 0x100 EXP DUP2 SLOAD DUP2 PUSH20 0xFFFFFFFFFFFFFFFFFFFFFFFFFFFFFFFFFFFFFFFF MUL NOT AND SWAP1 DUP4 PUSH20 0xFFFFFFFFFFFFFFFFFFFFFFFFFFFFFFFFFFFFFFFF AND MUL OR SWAP1 SSTORE POP POP JUMP JUMPDEST PUSH1 0x0 DUP1 PUSH1 0x0 SWAP1 SLOAD SWAP1 PUSH2 0x100 EXP SWAP1 DIV PUSH20 0xFFFFFFFFFFFFFFFFFFFFFFFFFFFFFFFFFFFFFFFF AND PUSH20 0xFFFFFFFFFFFFFFFFFFFFFFFFFFFFFFFFFFFFFFFF AND PUSH4 0x70A08231 ADDRESS PUSH1 0x40 MLOAD DUP3 PUSH4 0xFFFFFFFF AND PUSH1 0xE0 SHL DUP2 MSTORE PUSH1 0x4 ADD DUP1 DUP3 PUSH20 0xFFFFFFFFFFFFFFFFFFFFFFFFFFFFFFFFFFFFFFFF AND PUSH20 0xFFFFFFFFFFFFFFFFFFFFFFFFFFFFFFFFFFFFFFFF AND DUP2 MSTORE PUSH1 0x20 ADD SWAP2 POP POP PUSH1 0x20 PUSH1 0x40 MLOAD DUP1 DUP4 SUB DUP2 DUP7 DUP1 EXTCODESIZE ISZERO DUP1 ISZERO PUSH2 0x1348 JUMPI PUSH1 0x0 DUP1 REVERT JUMPDEST POP GAS STATICCALL ISZERO DUP1 ISZERO PUSH2 0x135C JUMPI RETURNDATASIZE PUSH1 0x0 DUP1 RETURNDATACOPY RETURNDATASIZE PUSH1 0x0 REVERT JUMPDEST POP POP POP POP PUSH1 0x40 MLOAD RETURNDATASIZE PUSH1 0x20 DUP2 LT ISZERO PUSH2 0x1372 JUMPI PUSH1 0x0 DUP1 REVERT JUMPDEST DUP2 ADD SWAP1 DUP1 DUP1 MLOAD SWAP1 PUSH1 0x20 ADD SWAP1 SWAP3 SWAP2 SWAP1 POP POP POP SWAP1 POP SWAP1 JUMP JUMPDEST PUSH1 0x16 PUSH1 0x0 SWAP1 SLOAD SWAP1 PUSH2 0x100 EXP SWAP1 DIV PUSH20 0xFFFFFFFFFFFFFFFFFFFFFFFFFFFFFFFFFFFFFFFF AND DUP2 JUMP JUMPDEST PUSH1 0x0 ISZERO ISZERO PUSH1 0x1A PUSH1 0x0 DUP5 DUP2 MSTORE PUSH1 0x20 ADD SWAP1 DUP2 MSTORE PUSH1 0x20 ADD PUSH1 0x0 KECCAK256 PUSH1 0x5 ADD PUSH1 0x0 SWAP1 SLOAD SWAP1 PUSH2 0x100 EXP SWAP1 DIV PUSH1 0xFF AND ISZERO ISZERO EQ PUSH2 0x144B JUMPI PUSH1 0x40 MLOAD PUSH32 0x8C379A000000000000000000000000000000000000000000000000000000000 DUP2 MSTORE PUSH1 0x4 ADD DUP1 DUP1 PUSH1 0x20 ADD DUP3 DUP2 SUB DUP3 MSTORE PUSH1 0x13 DUP2 MSTORE PUSH1 0x20 ADD DUP1 PUSH32 0x67616D6520616C726561647920706C6179656400000000000000000000000000 DUP2 MSTORE POP PUSH1 0x20 ADD SWAP2 POP POP PUSH1 0x40 MLOAD DUP1 SWAP2 SUB SWAP1 REVERT JUMPDEST PUSH1 0x0 TIMESTAMP DIFFICULTY CALLER PUSH1 0x40 MLOAD PUSH1 0x20 ADD DUP1 DUP5 DUP2 MSTORE PUSH1 0x20 ADD DUP4 DUP2 MSTORE PUSH1 0x20 ADD DUP3 PUSH20 0xFFFFFFFFFFFFFFFFFFFFFFFFFFFFFFFFFFFFFFFF AND PUSH20 0xFFFFFFFFFFFFFFFFFFFFFFFFFFFFFFFFFFFFFFFF AND PUSH1 0x60 SHL DUP2 MSTORE PUSH1 0x14 ADD SWAP4 POP POP POP POP PUSH1 0x40 MLOAD PUSH1 0x20 DUP2 DUP4 SUB SUB DUP2 MSTORE SWAP1 PUSH1 0x40 MSTORE DUP1 MLOAD SWAP1 PUSH1 0x20 ADD KECCAK256 SWAP1 POP DUP3 PUSH1 0x1B PUSH1 0x0 DUP4 DUP2 MSTORE PUSH1 0x20 ADD SWAP1 DUP2 MSTORE PUSH1 0x20 ADD PUSH1 0x0 KECCAK256 DUP2 SWAP1 SSTORE POP PUSH2 0x14D7 DUP2 DUP4 PUSH2 0xD56 JUMP JUMPDEST POP POP POP JUMP JUMPDEST PUSH1 0x17 SLOAD DUP2 JUMP JUMPDEST PUSH1 0x14 SLOAD DUP2 JUMP JUMPDEST PUSH2 0x14F0 PUSH2 0x3276 JUMP JUMPDEST PUSH20 0xFFFFFFFFFFFFFFFFFFFFFFFFFFFFFFFFFFFFFFFF AND PUSH1 0x3 PUSH1 0x0 SWAP1 SLOAD SWAP1 PUSH2 0x100 EXP SWAP1 DIV PUSH20 0xFFFFFFFFFFFFFFFFFFFFFFFFFFFFFFFFFFFFFFFF AND PUSH20 0xFFFFFFFFFFFFFFFFFFFFFFFFFFFFFFFFFFFFFFFF AND EQ PUSH2 0x15B2 JUMPI PUSH1 0x40 MLOAD PUSH32 0x8C379A000000000000000000000000000000000000000000000000000000000 DUP2 MSTORE PUSH1 0x4 ADD DUP1 DUP1 PUSH1 0x20 ADD DUP3 DUP2 SUB DUP3 MSTORE PUSH1 0x20 DUP2 MSTORE PUSH1 0x20 ADD DUP1 PUSH32 0x4F776E61626C653A2063616C6C6572206973206E6F7420746865206F776E6572 DUP2 MSTORE POP PUSH1 0x20 ADD SWAP2 POP POP PUSH1 0x40 MLOAD DUP1 SWAP2 SUB SWAP1 REVERT JUMPDEST PUSH1 0x0 PUSH20 0xFFFFFFFFFFFFFFFFFFFFFFFFFFFFFFFFFFFFFFFF AND PUSH1 0x3 PUSH1 0x0 SWAP1 SLOAD SWAP1 PUSH2 0x100 EXP SWAP1 DIV PUSH20 0xFFFFFFFFFFFFFFFFFFFFFFFFFFFFFFFFFFFFFFFF AND PUSH20 0xFFFFFFFFFFFFFFFFFFFFFFFFFFFFFFFFFFFFFFFF AND PUSH32 0x8BE0079C531659141344CD1FD0A4F28419497F9722A3DAAFE3B4186F6B6457E0 PUSH1 0x40 MLOAD PUSH1 0x40 MLOAD DUP1 SWAP2 SUB SWAP1 LOG3 PUSH1 0x0 PUSH1 0x3 PUSH1 0x0 PUSH2 0x100 EXP DUP2 SLOAD DUP2 PUSH20 0xFFFFFFFFFFFFFFFFFFFFFFFFFFFFFFFFFFFFFFFF MUL NOT AND SWAP1 DUP4 PUSH20 0xFFFFFFFFFFFFFFFFFFFFFFFFFFFFFFFFFFFFFFFF AND MUL OR SWAP1 SSTORE POP JUMP JUMPDEST CALLER PUSH20 0xFFFFFFFFFFFFFFFFFFFFFFFFFFFFFFFFFFFFFFFF AND PUSH2 0x1692 PUSH2 0x1878 JUMP JUMPDEST PUSH20 0xFFFFFFFFFFFFFFFFFFFFFFFFFFFFFFFFFFFFFFFF AND EQ DUP1 PUSH2 0x16FD JUMPI POP PUSH1 0x18 PUSH1 0x0 CALLER PUSH20 0xFFFFFFFFFFFFFFFFFFFFFFFFFFFFFFFFFFFFFFFF AND PUSH20 0xFFFFFFFFFFFFFFFFFFFFFFFFFFFFFFFFFFFFFFFF AND DUP2 MSTORE PUSH1 0x20 ADD SWAP1 DUP2 MSTORE PUSH1 0x20 ADD PUSH1 0x0 KECCAK256 PUSH1 0x0 SWAP1 SLOAD SWAP1 PUSH2 0x100 EXP SWAP1 DIV PUSH1 0xFF AND JUMPDEST PUSH2 0x176F JUMPI PUSH1 0x40 MLOAD PUSH32 0x8C379A000000000000000000000000000000000000000000000000000000000 DUP2 MSTORE PUSH1 0x4 ADD DUP1 DUP1 PUSH1 0x20 ADD DUP3 DUP2 SUB DUP3 MSTORE PUSH1 0x18 DUP2 MSTORE PUSH1 0x20 ADD DUP1 PUSH32 0x63616C6C6572206973206E6F7420617574686F72697A65640000000000000000 DUP2 MSTORE POP PUSH1 0x20 ADD SWAP2 POP POP PUSH1 0x40 MLOAD DUP1 SWAP2 SUB SWAP1 REVERT JUMPDEST PUSH1 0x0 DUP1 SWAP1 SLOAD SWAP1 PUSH2 0x100 EXP SWAP1 DIV PUSH20 0xFFFFFFFFFFFFFFFFFFFFFFFFFFFFFFFFFFFFFFFF AND PUSH20 0xFFFFFFFFFFFFFFFFFFFFFFFFFFFFFFFFFFFFFFFF AND PUSH4 0xA9059CBB PUSH1 0x16 PUSH1 0x0 SWAP1 SLOAD SWAP1 PUSH2 0x100 EXP SWAP1 DIV PUSH20 0xFFFFFFFFFFFFFFFFFFFFFFFFFFFFFFFFFFFFFFFF AND DUP4 PUSH1 0x40 MLOAD DUP4 PUSH4 0xFFFFFFFF AND PUSH1 0xE0 SHL DUP2 MSTORE PUSH1 0x4 ADD DUP1 DUP4 PUSH20 0xFFFFFFFFFFFFFFFFFFFFFFFFFFFFFFFFFFFFFFFF AND PUSH20 0xFFFFFFFFFFFFFFFFFFFFFFFFFFFFFFFFFFFFFFFF AND DUP2 MSTORE PUSH1 0x20 ADD DUP3 DUP2 MSTORE PUSH1 0x20 ADD SWAP3 POP POP POP PUSH1 0x20 PUSH1 0x40 MLOAD DUP1 DUP4 SUB DUP2 PUSH1 0x0 DUP8 DUP1 EXTCODESIZE ISZERO DUP1 ISZERO PUSH2 0x1839 JUMPI PUSH1 0x0 DUP1 REVERT JUMPDEST POP GAS CALL ISZERO DUP1 ISZERO PUSH2 0x184D JUMPI RETURNDATASIZE PUSH1 0x0 DUP1 RETURNDATACOPY RETURNDATASIZE PUSH1 0x0 REVERT JUMPDEST POP POP POP POP PUSH1 0x40 MLOAD RETURNDATASIZE PUSH1 0x20 DUP2 LT ISZERO PUSH2 0x1863 JUMPI PUSH1 0x0 DUP1 REVERT JUMPDEST DUP2 ADD SWAP1 DUP1 DUP1 MLOAD SWAP1 PUSH1 0x20 ADD SWAP1 SWAP3 SWAP2 SWAP1 POP POP POP POP POP JUMP JUMPDEST PUSH1 0x0 PUSH1 0x3 PUSH1 0x0 SWAP1 SLOAD SWAP1 PUSH2 0x100 EXP SWAP1 DIV PUSH20 0xFFFFFFFFFFFFFFFFFFFFFFFFFFFFFFFFFFFFFFFF AND SWAP1 POP SWAP1 JUMP JUMPDEST PUSH1 0x1 PUSH1 0x0 SWAP1 SLOAD SWAP1 PUSH2 0x100 EXP SWAP1 DIV PUSH20 0xFFFFFFFFFFFFFFFFFFFFFFFFFFFFFFFFFFFFFFFF AND PUSH20 0xFFFFFFFFFFFFFFFFFFFFFFFFFFFFFFFFFFFFFFFF AND CALLER PUSH20 0xFFFFFFFFFFFFFFFFFFFFFFFFFFFFFFFFFFFFFFFF AND EQ PUSH2 0x1965 JUMPI PUSH1 0x40 MLOAD PUSH32 0x8C379A000000000000000000000000000000000000000000000000000000000 DUP2 MSTORE PUSH1 0x4 ADD DUP1 DUP1 PUSH1 0x20 ADD DUP3 DUP2 SUB DUP3 MSTORE PUSH1 0x1F DUP2 MSTORE PUSH1 0x20 ADD DUP1 PUSH32 0x4F6E6C7920565246436F6F7264696E61746F722063616E2066756C66696C6C00 DUP2 MSTORE POP PUSH1 0x20 ADD SWAP2 POP POP PUSH1 0x40 MLOAD DUP1 SWAP2 SUB SWAP1 REVERT JUMPDEST PUSH2 0x196F DUP3 DUP3 PUSH2 0x327E JUMP JUMPDEST POP POP JUMP JUMPDEST CALLER PUSH20 0xFFFFFFFFFFFFFFFFFFFFFFFFFFFFFFFFFFFFFFFF AND PUSH2 0x1992 PUSH2 0x1878 JUMP JUMPDEST PUSH20 0xFFFFFFFFFFFFFFFFFFFFFFFFFFFFFFFFFFFFFFFF AND EQ DUP1 PUSH2 0x19FD JUMPI POP PUSH1 0x18 PUSH1 0x0 CALLER PUSH20 0xFFFFFFFFFFFFFFFFFFFFFFFFFFFFFFFFFFFFFFFF AND PUSH20 0xFFFFFFFFFFFFFFFFFFFFFFFFFFFFFFFFFFFFFFFF AND DUP2 MSTORE PUSH1 0x20 ADD SWAP1 DUP2 MSTORE PUSH1 0x20 ADD PUSH1 0x0 KECCAK256 PUSH1 0x0 SWAP1 SLOAD SWAP1 PUSH2 0x100 EXP SWAP1 DIV PUSH1 0xFF AND JUMPDEST PUSH2 0x1A6F JUMPI PUSH1 0x40 MLOAD PUSH32 0x8C379A000000000000000000000000000000000000000000000000000000000 DUP2 MSTORE PUSH1 0x4 ADD DUP1 DUP1 PUSH1 0x20 ADD DUP3 DUP2 SUB DUP3 MSTORE PUSH1 0x18 DUP2 MSTORE PUSH1 0x20 ADD DUP1 PUSH32 0x63616C6C6572206973206E6F7420617574686F72697A65640000000000000000 DUP2 MSTORE POP PUSH1 0x20 ADD SWAP2 POP POP PUSH1 0x40 MLOAD DUP1 SWAP2 SUB SWAP1 REVERT JUMPDEST PUSH1 0x0 DUP1 SWAP1 POP JUMPDEST DUP3 MLOAD DUP2 LT ISZERO PUSH2 0x1AF5 JUMPI DUP2 PUSH1 0x19 PUSH1 0x0 DUP6 DUP5 DUP2 MLOAD DUP2 LT PUSH2 0x1A8F JUMPI INVALID JUMPDEST PUSH1 0x20 MUL PUSH1 0x20 ADD ADD MLOAD PUSH20 0xFFFFFFFFFFFFFFFFFFFFFFFFFFFFFFFFFFFFFFFF AND PUSH20 0xFFFFFFFFFFFFFFFFFFFFFFFFFFFFFFFFFFFFFFFF AND DUP2 MSTORE PUSH1 0x20 ADD SWAP1 DUP2 MSTORE PUSH1 0x20 ADD PUSH1 0x0 KECCAK256 PUSH1 0x0 PUSH2 0x100 EXP DUP2 SLOAD DUP2 PUSH1 0xFF MUL NOT AND SWAP1 DUP4 ISZERO ISZERO MUL OR SWAP1 SSTORE POP DUP1 DUP1 PUSH1 0x1 ADD SWAP2 POP POP PUSH2 0x1A75 JUMP JUMPDEST POP POP POP JUMP JUMPDEST PUSH1 0x13 SLOAD DUP2 JUMP JUMPDEST PUSH2 0x1B08 PUSH2 0x3276 JUMP JUMPDEST PUSH20 0xFFFFFFFFFFFFFFFFFFFFFFFFFFFFFFFFFFFFFFFF AND PUSH1 0x3 PUSH1 0x0 SWAP1 SLOAD SWAP1 PUSH2 0x100 EXP SWAP1 DIV PUSH20 0xFFFFFFFFFFFFFFFFFFFFFFFFFFFFFFFFFFFFFFFF AND PUSH20 0xFFFFFFFFFFFFFFFFFFFFFFFFFFFFFFFFFFFFFFFF AND EQ PUSH2 0x1BCA JUMPI PUSH1 0x40 MLOAD PUSH32 0x8C379A000000000000000000000000000000000000000000000000000000000 DUP2 MSTORE PUSH1 0x4 ADD DUP1 DUP1 PUSH1 0x20 ADD DUP3 DUP2 SUB DUP3 MSTORE PUSH1 0x20 DUP2 MSTORE PUSH1 0x20 ADD DUP1 PUSH32 0x4F776E61626C653A2063616C6C6572206973206E6F7420746865206F776E6572 DUP2 MSTORE POP PUSH1 0x20 ADD SWAP2 POP POP PUSH1 0x40 MLOAD DUP1 SWAP2 SUB SWAP1 REVERT JUMPDEST DUP1 PUSH1 0x4 DUP2 SWAP1 SSTORE POP POP JUMP JUMPDEST PUSH1 0x2 PUSH1 0x20 MSTORE DUP1 PUSH1 0x0 MSTORE PUSH1 0x40 PUSH1 0x0 KECCAK256 PUSH1 0x0 SWAP2 POP SWAP1 POP SLOAD DUP2 JUMP JUMPDEST PUSH2 0x1BF4 PUSH2 0x3276 JUMP JUMPDEST PUSH20 0xFFFFFFFFFFFFFFFFFFFFFFFFFFFFFFFFFFFFFFFF AND PUSH1 0x3 PUSH1 0x0 SWAP1 SLOAD SWAP1 PUSH2 0x100 EXP SWAP1 DIV PUSH20 0xFFFFFFFFFFFFFFFFFFFFFFFFFFFFFFFFFFFFFFFF AND PUSH20 0xFFFFFFFFFFFFFFFFFFFFFFFFFFFFFFFFFFFFFFFF AND EQ PUSH2 0x1CB6 JUMPI PUSH1 0x40 MLOAD PUSH32 0x8C379A000000000000000000000000000000000000000000000000000000000 DUP2 MSTORE PUSH1 0x4 ADD DUP1 DUP1 PUSH1 0x20 ADD DUP3 DUP2 SUB DUP3 MSTORE PUSH1 0x20 DUP2 MSTORE PUSH1 0x20 ADD DUP1 PUSH32 0x4F776E61626C653A2063616C6C6572206973206E6F7420746865206F776E6572 DUP2 MSTORE POP PUSH1 0x20 ADD SWAP2 POP POP PUSH1 0x40 MLOAD DUP1 SWAP2 SUB SWAP1 REVERT JUMPDEST DUP1 PUSH1 0x0 DUP1 PUSH2 0x100 EXP DUP2 SLOAD DUP2 PUSH20 0xFFFFFFFFFFFFFFFFFFFFFFFFFFFFFFFFFFFFFFFF MUL NOT AND SWAP1 DUP4 PUSH20 0xFFFFFFFFFFFFFFFFFFFFFFFFFFFFFFFFFFFFFFFF AND MUL OR SWAP1 SSTORE POP POP JUMP JUMPDEST PUSH2 0x1D01 PUSH2 0x3276 JUMP JUMPDEST PUSH20 0xFFFFFFFFFFFFFFFFFFFFFFFFFFFFFFFFFFFFFFFF AND PUSH1 0x3 PUSH1 0x0 SWAP1 SLOAD SWAP1 PUSH2 0x100 EXP SWAP1 DIV PUSH20 0xFFFFFFFFFFFFFFFFFFFFFFFFFFFFFFFFFFFFFFFF AND PUSH20 0xFFFFFFFFFFFFFFFFFFFFFFFFFFFFFFFFFFFFFFFF AND EQ PUSH2 0x1DC3 JUMPI PUSH1 0x40 MLOAD PUSH32 0x8C379A000000000000000000000000000000000000000000000000000000000 DUP2 MSTORE PUSH1 0x4 ADD DUP1 DUP1 PUSH1 0x20 ADD DUP3 DUP2 SUB DUP3 MSTORE PUSH1 0x20 DUP2 MSTORE PUSH1 0x20 ADD DUP1 PUSH32 0x4F776E61626C653A2063616C6C6572206973206E6F7420746865206F776E6572 DUP2 MSTORE POP PUSH1 0x20 ADD SWAP2 POP POP PUSH1 0x40 MLOAD DUP1 SWAP2 SUB SWAP1 REVERT JUMPDEST DUP1 PUSH1 0x18 PUSH1 0x0 DUP5 PUSH20 0xFFFFFFFFFFFFFFFFFFFFFFFFFFFFFFFFFFFFFFFF AND PUSH20 0xFFFFFFFFFFFFFFFFFFFFFFFFFFFFFFFFFFFFFFFF AND DUP2 MSTORE PUSH1 0x20 ADD SWAP1 DUP2 MSTORE PUSH1 0x20 ADD PUSH1 0x0 KECCAK256 PUSH1 0x0 PUSH2 0x100 EXP DUP2 SLOAD DUP2 PUSH1 0xFF MUL NOT AND SWAP1 DUP4 ISZERO ISZERO MUL OR SWAP1 SSTORE POP POP POP JUMP JUMPDEST PUSH1 0x0 PUSH1 0x1A PUSH1 0x0 DUP4 DUP2 MSTORE PUSH1 0x20 ADD SWAP1 DUP2 MSTORE PUSH1 0x20 ADD PUSH1 0x0 KECCAK256 SWAP1 POP PUSH1 0x18 PUSH1 0x0 CALLER PUSH20 0xFFFFFFFFFFFFFFFFFFFFFFFFFFFFFFFFFFFFFFFF AND PUSH20 0xFFFFFFFFFFFFFFFFFFFFFFFFFFFFFFFFFFFFFFFF AND DUP2 MSTORE PUSH1 0x20 ADD SWAP1 DUP2 MSTORE PUSH1 0x20 ADD PUSH1 0x0 KECCAK256 PUSH1 0x0 SWAP1 SLOAD SWAP1 PUSH2 0x100 EXP SWAP1 DIV PUSH1 0xFF AND DUP1 PUSH2 0x1EBF JUMPI POP CALLER PUSH20 0xFFFFFFFFFFFFFFFFFFFFFFFFFFFFFFFFFFFFFFFF AND PUSH2 0x1EA7 PUSH2 0x1878 JUMP JUMPDEST PUSH20 0xFFFFFFFFFFFFFFFFFFFFFFFFFFFFFFFFFFFFFFFF AND EQ JUMPDEST DUP1 PUSH2 0x1F19 JUMPI POP CALLER PUSH20 0xFFFFFFFFFFFFFFFFFFFFFFFFFFFFFFFFFFFFFFFF AND DUP2 PUSH1 0x1 ADD PUSH1 0x0 SWAP1 SLOAD SWAP1 PUSH2 0x100 EXP SWAP1 DIV PUSH20 0xFFFFFFFFFFFFFFFFFFFFFFFFFFFFFFFFFFFFFFFF AND PUSH20 0xFFFFFFFFFFFFFFFFFFFFFFFFFFFFFFFFFFFFFFFF AND EQ JUMPDEST PUSH2 0x1F8B JUMPI PUSH1 0x40 MLOAD PUSH32 0x8C379A000000000000000000000000000000000000000000000000000000000 DUP2 MSTORE PUSH1 0x4 ADD DUP1 DUP1 PUSH1 0x20 ADD DUP3 DUP2 SUB DUP3 MSTORE PUSH1 0x20 DUP2 MSTORE PUSH1 0x20 ADD DUP1 PUSH32 0x4E6F7420617574686F72697A656420746F207265717565737420726566756E64 DUP2 MSTORE POP PUSH1 0x20 ADD SWAP2 POP POP PUSH1 0x40 MLOAD DUP1 SWAP2 SUB SWAP1 REVERT JUMPDEST PUSH1 0x0 ISZERO ISZERO DUP2 PUSH1 0x5 ADD PUSH1 0x0 SWAP1 SLOAD SWAP1 PUSH2 0x100 EXP SWAP1 DIV PUSH1 0xFF AND ISZERO ISZERO EQ PUSH2 0x1FF9 JUMPI PUSH1 0x40 MLOAD PUSH32 0x8C379A000000000000000000000000000000000000000000000000000000000 DUP2 MSTORE PUSH1 0x4 ADD DUP1 DUP1 PUSH1 0x20 ADD DUP3 DUP2 SUB DUP3 MSTORE PUSH1 0x2A DUP2 MSTORE PUSH1 0x20 ADD DUP1 PUSH2 0x3E99 PUSH1 0x2A SWAP2 CODECOPY PUSH1 0x40 ADD SWAP2 POP POP PUSH1 0x40 MLOAD DUP1 SWAP2 SUB SWAP1 REVERT JUMPDEST DUP1 PUSH1 0x2 ADD SLOAD SELFBALANCE LT ISZERO PUSH2 0x2056 JUMPI PUSH1 0x40 MLOAD PUSH32 0x8C379A000000000000000000000000000000000000000000000000000000000 DUP2 MSTORE PUSH1 0x4 ADD DUP1 DUP1 PUSH1 0x20 ADD DUP3 DUP2 SUB DUP3 MSTORE PUSH1 0x31 DUP2 MSTORE PUSH1 0x20 ADD DUP1 PUSH2 0x3E68 PUSH1 0x31 SWAP2 CODECOPY PUSH1 0x40 ADD SWAP2 POP POP PUSH1 0x40 MLOAD DUP1 SWAP2 SUB SWAP1 REVERT JUMPDEST PUSH1 0x1 DUP2 PUSH1 0x5 ADD PUSH1 0x0 PUSH2 0x100 EXP DUP2 SLOAD DUP2 PUSH1 0xFF MUL NOT AND SWAP1 DUP4 ISZERO ISZERO MUL OR SWAP1 SSTORE POP DUP1 PUSH1 0x2 ADD SLOAD PUSH1 0x14 SLOAD LT PUSH2 0x2099 JUMPI DUP1 PUSH1 0x2 ADD SLOAD PUSH1 0x14 PUSH1 0x0 DUP3 DUP3 SLOAD SUB SWAP3 POP POP DUP2 SWAP1 SSTORE POP PUSH2 0x20A2 JUMP JUMPDEST PUSH1 0x0 PUSH1 0x14 DUP2 SWAP1 SSTORE POP JUMPDEST DUP1 PUSH1 0x1 ADD PUSH1 0x0 SWAP1 SLOAD SWAP1 PUSH2 0x100 EXP SWAP1 DIV PUSH20 0xFFFFFFFFFFFFFFFFFFFFFFFFFFFFFFFFFFFFFFFF AND PUSH20 0xFFFFFFFFFFFFFFFFFFFFFFFFFFFFFFFFFFFFFFFF AND PUSH2 0x8FC DUP3 PUSH1 0x2 ADD SLOAD SWAP1 DUP2 ISZERO MUL SWAP1 PUSH1 0x40 MLOAD PUSH1 0x0 PUSH1 0x40 MLOAD DUP1 DUP4 SUB DUP2 DUP6 DUP9 DUP9 CALL SWAP4 POP POP POP POP ISZERO DUP1 ISZERO PUSH2 0x2110 JUMPI RETURNDATASIZE PUSH1 0x0 DUP1 RETURNDATACOPY RETURNDATASIZE PUSH1 0x0 REVERT JUMPDEST POP POP POP JUMP JUMPDEST PUSH1 0x13 SLOAD CALLVALUE LT ISZERO PUSH2 0x218D JUMPI PUSH1 0x40 MLOAD PUSH32 0x8C379A000000000000000000000000000000000000000000000000000000000 DUP2 MSTORE PUSH1 0x4 ADD DUP1 DUP1 PUSH1 0x20 ADD DUP3 DUP2 SUB DUP3 MSTORE PUSH1 0x13 DUP2 MSTORE PUSH1 0x20 ADD DUP1 PUSH32 0x6D696E696D756D20626574206E6F74206D657400000000000000000000000000 DUP2 MSTORE POP PUSH1 0x20 ADD SWAP2 POP POP PUSH1 0x40 MLOAD DUP1 SWAP2 SUB SWAP1 REVERT JUMPDEST PUSH1 0x1 PUSH1 0x6 SLOAD EQ ISZERO PUSH2 0x21DB JUMPI PUSH1 0x6 PUSH1 0x0 SWAP1 SSTORE PUSH1 0x7 PUSH1 0x0 SWAP1 SSTORE PUSH1 0x8 PUSH1 0x0 SWAP1 SSTORE PUSH1 0x9 PUSH1 0x0 SWAP1 SSTORE PUSH1 0xA PUSH1 0x0 SWAP1 SSTORE PUSH1 0xB PUSH1 0x0 SWAP1 SSTORE PUSH1 0xC PUSH1 0x0 SWAP1 SSTORE PUSH1 0xD PUSH1 0x0 SWAP1 SSTORE PUSH1 0xE PUSH1 0x0 SWAP1 SSTORE PUSH1 0xF PUSH1 0x0 SWAP1 SSTORE PUSH1 0x10 PUSH1 0x0 SWAP1 SSTORE JUMPDEST PUSH2 0x21F0 CALLVALUE PUSH1 0x14 SLOAD PUSH2 0x3165 SWAP1 SWAP2 SWAP1 PUSH4 0xFFFFFFFF AND JUMP JUMPDEST PUSH1 0x14 DUP2 SWAP1 SSTORE POP PUSH2 0x2201 DUP3 CALLVALUE DUP4 PUSH2 0x35AC JUMP JUMPDEST PUSH2 0x220C PUSH1 0x15 SLOAD PUSH2 0x36CB JUMP JUMPDEST PUSH1 0x15 SLOAD PUSH1 0x1C PUSH1 0x0 DUP5 PUSH20 0xFFFFFFFFFFFFFFFFFFFFFFFFFFFFFFFFFFFFFFFF AND PUSH20 0xFFFFFFFFFFFFFFFFFFFFFFFFFFFFFFFFFFFFFFFF AND DUP2 MSTORE PUSH1 0x20 ADD SWAP1 DUP2 MSTORE PUSH1 0x20 ADD PUSH1 0x0 KECCAK256 DUP2 SWAP1 SSTORE POP POP POP JUMP JUMPDEST PUSH1 0x1C PUSH1 0x20 MSTORE DUP1 PUSH1 0x0 MSTORE PUSH1 0x40 PUSH1 0x0 KECCAK256 PUSH1 0x0 SWAP2 POP SWAP1 POP SLOAD DUP2 JUMP JUMPDEST PUSH2 0x2276 PUSH2 0x3276 JUMP JUMPDEST PUSH20 0xFFFFFFFFFFFFFFFFFFFFFFFFFFFFFFFFFFFFFFFF AND PUSH1 0x3 PUSH1 0x0 SWAP1 SLOAD SWAP1 PUSH2 0x100 EXP SWAP1 DIV PUSH20 0xFFFFFFFFFFFFFFFFFFFFFFFFFFFFFFFFFFFFFFFF AND PUSH20 0xFFFFFFFFFFFFFFFFFFFFFFFFFFFFFFFFFFFFFFFF AND EQ PUSH2 0x2338 JUMPI PUSH1 0x40 MLOAD PUSH32 0x8C379A000000000000000000000000000000000000000000000000000000000 DUP2 MSTORE PUSH1 0x4 ADD DUP1 DUP1 PUSH1 0x20 ADD DUP3 DUP2 SUB DUP3 MSTORE PUSH1 0x20 DUP2 MSTORE PUSH1 0x20 ADD DUP1 PUSH32 0x4F776E61626C653A2063616C6C6572206973206E6F7420746865206F776E6572 DUP2 MSTORE POP PUSH1 0x20 ADD SWAP2 POP POP PUSH1 0x40 MLOAD DUP1 SWAP2 SUB SWAP1 REVERT JUMPDEST PUSH1 0x0 PUSH2 0x234F PUSH1 0x14 SLOAD SELFBALANCE PUSH2 0x31ED SWAP1 SWAP2 SWAP1 PUSH4 0xFFFFFFFF AND JUMP JUMPDEST SWAP1 POP PUSH1 0x16 PUSH1 0x0 SWAP1 SLOAD SWAP1 PUSH2 0x100 EXP SWAP1 DIV PUSH20 0xFFFFFFFFFFFFFFFFFFFFFFFFFFFFFFFFFFFFFFFF AND PUSH20 0xFFFFFFFFFFFFFFFFFFFFFFFFFFFFFFFFFFFFFFFF AND PUSH2 0x8FC DUP3 SWAP1 DUP2 ISZERO MUL SWAP1 PUSH1 0x40 MLOAD PUSH1 0x0 PUSH1 0x40 MLOAD DUP1 DUP4 SUB DUP2 DUP6 DUP9 DUP9 CALL SWAP4 POP POP POP POP ISZERO DUP1 ISZERO PUSH2 0x23B9 JUMPI RETURNDATASIZE PUSH1 0x0 DUP1 RETURNDATACOPY RETURNDATASIZE PUSH1 0x0 REVERT JUMPDEST POP PUSH1 0x0 DUP1 PUSH1 0x0 SWAP1 SLOAD SWAP1 PUSH2 0x100 EXP SWAP1 DIV PUSH20 0xFFFFFFFFFFFFFFFFFFFFFFFFFFFFFFFFFFFFFFFF AND PUSH20 0xFFFFFFFFFFFFFFFFFFFFFFFFFFFFFFFFFFFFFFFF AND PUSH4 0x70A08231 ADDRESS PUSH1 0x40 MLOAD DUP3 PUSH4 0xFFFFFFFF AND PUSH1 0xE0 SHL DUP2 MSTORE PUSH1 0x4 ADD DUP1 DUP3 PUSH20 0xFFFFFFFFFFFFFFFFFFFFFFFFFFFFFFFFFFFFFFFF AND PUSH20 0xFFFFFFFFFFFFFFFFFFFFFFFFFFFFFFFFFFFFFFFF AND DUP2 MSTORE PUSH1 0x20 ADD SWAP2 POP POP PUSH1 0x20 PUSH1 0x40 MLOAD DUP1 DUP4 SUB DUP2 DUP7 DUP1 EXTCODESIZE ISZERO DUP1 ISZERO PUSH2 0x245A JUMPI PUSH1 0x0 DUP1 REVERT JUMPDEST POP GAS STATICCALL ISZERO DUP1 ISZERO PUSH2 0x246E JUMPI RETURNDATASIZE PUSH1 0x0 DUP1 RETURNDATACOPY RETURNDATASIZE PUSH1 0x0 REVERT JUMPDEST POP POP POP POP PUSH1 0x40 MLOAD RETURNDATASIZE PUSH1 0x20 DUP2 LT ISZERO PUSH2 0x2484 JUMPI PUSH1 0x0 DUP1 REVERT JUMPDEST DUP2 ADD SWAP1 DUP1 DUP1 MLOAD SWAP1 PUSH1 0x20 ADD SWAP1 SWAP3 SWAP2 SWAP1 POP POP POP GT ISZERO PUSH2 0x267A JUMPI PUSH1 0x0 DUP1 SWAP1 SLOAD SWAP1 PUSH2 0x100 EXP SWAP1 DIV PUSH20 0xFFFFFFFFFFFFFFFFFFFFFFFFFFFFFFFFFFFFFFFF AND PUSH20 0xFFFFFFFFFFFFFFFFFFFFFFFFFFFFFFFFFFFFFFFF AND PUSH4 0xA9059CBB PUSH1 0x16 PUSH1 0x0 SWAP1 SLOAD SWAP1 PUSH2 0x100 EXP SWAP1 DIV PUSH20 0xFFFFFFFFFFFFFFFFFFFFFFFFFFFFFFFFFFFFFFFF AND PUSH1 0x0 DUP1 SWAP1 SLOAD SWAP1 PUSH2 0x100 EXP SWAP1 DIV PUSH20 0xFFFFFFFFFFFFFFFFFFFFFFFFFFFFFFFFFFFFFFFF AND PUSH20 0xFFFFFFFFFFFFFFFFFFFFFFFFFFFFFFFFFFFFFFFF AND PUSH4 0x70A08231 ADDRESS PUSH1 0x40 MLOAD DUP3 PUSH4 0xFFFFFFFF AND PUSH1 0xE0 SHL DUP2 MSTORE PUSH1 0x4 ADD DUP1 DUP3 PUSH20 0xFFFFFFFFFFFFFFFFFFFFFFFFFFFFFFFFFFFFFFFF AND PUSH20 0xFFFFFFFFFFFFFFFFFFFFFFFFFFFFFFFFFFFFFFFF AND DUP2 MSTORE PUSH1 0x20 ADD SWAP2 POP POP PUSH1 0x20 PUSH1 0x40 MLOAD DUP1 DUP4 SUB DUP2 DUP7 DUP1 EXTCODESIZE ISZERO DUP1 ISZERO PUSH2 0x2599 JUMPI PUSH1 0x0 DUP1 REVERT JUMPDEST POP GAS STATICCALL ISZERO DUP1 ISZERO PUSH2 0x25AD JUMPI RETURNDATASIZE PUSH1 0x0 DUP1 RETURNDATACOPY RETURNDATASIZE PUSH1 0x0 REVERT JUMPDEST POP POP POP POP PUSH1 0x40 MLOAD RETURNDATASIZE PUSH1 0x20 DUP2 LT ISZERO PUSH2 0x25C3 JUMPI PUSH1 0x0 DUP1 REVERT JUMPDEST DUP2 ADD SWAP1 DUP1 DUP1 MLOAD SWAP1 PUSH1 0x20 ADD SWAP1 SWAP3 SWAP2 SWAP1 POP POP POP PUSH1 0x40 MLOAD DUP4 PUSH4 0xFFFFFFFF AND PUSH1 0xE0 SHL DUP2 MSTORE PUSH1 0x4 ADD DUP1 DUP4 PUSH20 0xFFFFFFFFFFFFFFFFFFFFFFFFFFFFFFFFFFFFFFFF AND PUSH20 0xFFFFFFFFFFFFFFFFFFFFFFFFFFFFFFFFFFFFFFFF AND DUP2 MSTORE PUSH1 0x20 ADD DUP3 DUP2 MSTORE PUSH1 0x20 ADD SWAP3 POP POP POP PUSH1 0x20 PUSH1 0x40 MLOAD DUP1 DUP4 SUB DUP2 PUSH1 0x0 DUP8 DUP1 EXTCODESIZE ISZERO DUP1 ISZERO PUSH2 0x263D JUMPI PUSH1 0x0 DUP1 REVERT JUMPDEST POP GAS CALL ISZERO DUP1 ISZERO PUSH2 0x2651 JUMPI RETURNDATASIZE PUSH1 0x0 DUP1 RETURNDATACOPY RETURNDATASIZE PUSH1 0x0 REVERT JUMPDEST POP POP POP POP PUSH1 0x40 MLOAD RETURNDATASIZE PUSH1 0x20 DUP2 LT ISZERO PUSH2 0x2667 JUMPI PUSH1 0x0 DUP1 REVERT JUMPDEST DUP2 ADD SWAP1 DUP1 DUP1 MLOAD SWAP1 PUSH1 0x20 ADD SWAP1 SWAP3 SWAP2 SWAP1 POP POP POP POP JUMPDEST POP JUMP JUMPDEST CALLER PUSH20 0xFFFFFFFFFFFFFFFFFFFFFFFFFFFFFFFFFFFFFFFF AND PUSH2 0x269C PUSH2 0x1878 JUMP JUMPDEST PUSH20 0xFFFFFFFFFFFFFFFFFFFFFFFFFFFFFFFFFFFFFFFF AND EQ DUP1 PUSH2 0x2707 JUMPI POP PUSH1 0x18 PUSH1 0x0 CALLER PUSH20 0xFFFFFFFFFFFFFFFFFFFFFFFFFFFFFFFFFFFFFFFF AND PUSH20 0xFFFFFFFFFFFFFFFFFFFFFFFFFFFFFFFFFFFFFFFF AND DUP2 MSTORE PUSH1 0x20 ADD SWAP1 DUP2 MSTORE PUSH1 0x20 ADD PUSH1 0x0 KECCAK256 PUSH1 0x0 SWAP1 SLOAD SWAP1 PUSH2 0x100 EXP SWAP1 DIV PUSH1 0xFF AND JUMPDEST PUSH2 0x2779 JUMPI PUSH1 0x40 MLOAD PUSH32 0x8C379A000000000000000000000000000000000000000000000000000000000 DUP2 MSTORE PUSH1 0x4 ADD DUP1 DUP1 PUSH1 0x20 ADD DUP3 DUP2 SUB DUP3 MSTORE PUSH1 0x18 DUP2 MSTORE PUSH1 0x20 ADD DUP1 PUSH32 0x63616C6C6572206973206E6F7420617574686F72697A65640000000000000000 DUP2 MSTORE POP PUSH1 0x20 ADD SWAP2 POP POP PUSH1 0x40 MLOAD DUP1 SWAP2 SUB SWAP1 REVERT JUMPDEST PUSH1 0x14 SLOAD DUP2 SELFBALANCE SUB LT ISZERO PUSH2 0x27F3 JUMPI PUSH1 0x40 MLOAD PUSH32 0x8C379A000000000000000000000000000000000000000000000000000000000 DUP2 MSTORE PUSH1 0x4 ADD DUP1 DUP1 PUSH1 0x20 ADD DUP3 DUP2 SUB DUP3 MSTORE PUSH1 0x1C DUP2 MSTORE PUSH1 0x20 ADD DUP1 PUSH32 0x43616E277420776974686472617720756E706C61796564206265747300000000 DUP2 MSTORE POP PUSH1 0x20 ADD SWAP2 POP POP PUSH1 0x40 MLOAD DUP1 SWAP2 SUB SWAP1 REVERT JUMPDEST PUSH1 0x16 PUSH1 0x0 SWAP1 SLOAD SWAP1 PUSH2 0x100 EXP SWAP1 DIV PUSH20 0xFFFFFFFFFFFFFFFFFFFFFFFFFFFFFFFFFFFFFFFF AND PUSH20 0xFFFFFFFFFFFFFFFFFFFFFFFFFFFFFFFFFFFFFFFF AND PUSH2 0x8FC DUP3 SWAP1 DUP2 ISZERO MUL SWAP1 PUSH1 0x40 MLOAD PUSH1 0x0 PUSH1 0x40 MLOAD DUP1 DUP4 SUB DUP2 DUP6 DUP9 DUP9 CALL SWAP4 POP POP POP POP ISZERO DUP1 ISZERO PUSH2 0x285B JUMPI RETURNDATASIZE PUSH1 0x0 DUP1 RETURNDATACOPY RETURNDATASIZE PUSH1 0x0 REVERT JUMPDEST POP POP JUMP JUMPDEST PUSH2 0x2867 PUSH2 0x3276 JUMP JUMPDEST PUSH20 0xFFFFFFFFFFFFFFFFFFFFFFFFFFFFFFFFFFFFFFFF AND PUSH1 0x3 PUSH1 0x0 SWAP1 SLOAD SWAP1 PUSH2 0x100 EXP SWAP1 DIV PUSH20 0xFFFFFFFFFFFFFFFFFFFFFFFFFFFFFFFFFFFFFFFF AND PUSH20 0xFFFFFFFFFFFFFFFFFFFFFFFFFFFFFFFFFFFFFFFF AND EQ PUSH2 0x2929 JUMPI PUSH1 0x40 MLOAD PUSH32 0x8C379A000000000000000000000000000000000000000000000000000000000 DUP2 MSTORE PUSH1 0x4 ADD DUP1 DUP1 PUSH1 0x20 ADD DUP3 DUP2 SUB DUP3 MSTORE PUSH1 0x20 DUP2 MSTORE PUSH1 0x20 ADD DUP1 PUSH32 0x4F776E61626C653A2063616C6C6572206973206E6F7420746865206F776E6572 DUP2 MSTORE POP PUSH1 0x20 ADD SWAP2 POP POP PUSH1 0x40 MLOAD DUP1 SWAP2 SUB SWAP1 REVERT JUMPDEST PUSH1 0x14 SLOAD SELFBALANCE GT PUSH2 0x2937 JUMPI PUSH1 0x0 DUP1 REVERT JUMPDEST PUSH1 0x0 PUSH2 0x294E PUSH1 0x14 SLOAD SELFBALANCE PUSH2 0x31ED SWAP1 SWAP2 SWAP1 PUSH4 0xFFFFFFFF AND JUMP JUMPDEST SWAP1 POP PUSH1 0x16 PUSH1 0x0 SWAP1 SLOAD SWAP1 PUSH2 0x100 EXP SWAP1 DIV PUSH20 0xFFFFFFFFFFFFFFFFFFFFFFFFFFFFFFFFFFFFFFFF AND PUSH20 0xFFFFFFFFFFFFFFFFFFFFFFFFFFFFFFFFFFFFFFFF AND PUSH2 0x8FC DUP3 SWAP1 DUP2 ISZERO MUL SWAP1 PUSH1 0x40 MLOAD PUSH1 0x0 PUSH1 0x40 MLOAD DUP1 DUP4 SUB DUP2 DUP6 DUP9 DUP9 CALL SWAP4 POP POP POP POP ISZERO DUP1 ISZERO PUSH2 0x29B8 JUMPI RETURNDATASIZE PUSH1 0x0 DUP1 RETURNDATACOPY RETURNDATASIZE PUSH1 0x0 REVERT JUMPDEST POP POP JUMP JUMPDEST PUSH2 0x29C5 CALLVALUE PUSH2 0xCA6 JUMP JUMPDEST PUSH2 0x2A1A JUMPI PUSH1 0x40 MLOAD PUSH32 0x8C379A000000000000000000000000000000000000000000000000000000000 DUP2 MSTORE PUSH1 0x4 ADD DUP1 DUP1 PUSH1 0x20 ADD DUP3 DUP2 SUB DUP3 MSTORE PUSH1 0x36 DUP2 MSTORE PUSH1 0x20 ADD DUP1 PUSH2 0x3E11 PUSH1 0x36 SWAP2 CODECOPY PUSH1 0x40 ADD SWAP2 POP POP PUSH1 0x40 MLOAD DUP1 SWAP2 SUB SWAP1 REVERT JUMPDEST PUSH1 0x11 SLOAD DUP2 GT ISZERO DUP1 ISZERO PUSH2 0x2A2C JUMPI POP PUSH1 0x0 DUP2 GT JUMPDEST PUSH2 0x2A9E JUMPI PUSH1 0x40 MLOAD PUSH32 0x8C379A000000000000000000000000000000000000000000000000000000000 DUP2 MSTORE PUSH1 0x4 ADD DUP1 DUP1 PUSH1 0x20 ADD DUP3 DUP2 SUB DUP3 MSTORE PUSH1 0x1A DUP2 MSTORE PUSH1 0x20 ADD DUP1 PUSH32 0x4F757473696465206F66207069636B61626C6520626F756E6473000000000000 DUP2 MSTORE POP PUSH1 0x20 ADD SWAP2 POP POP PUSH1 0x40 MLOAD DUP1 SWAP2 SUB SWAP1 REVERT JUMPDEST PUSH2 0x2AA7 CALLVALUE PUSH2 0x3798 JUMP JUMPDEST PUSH2 0x2B19 JUMPI PUSH1 0x40 MLOAD PUSH32 0x8C379A000000000000000000000000000000000000000000000000000000000 DUP2 MSTORE PUSH1 0x4 ADD DUP1 DUP1 PUSH1 0x20 ADD DUP3 DUP2 SUB DUP3 MSTORE PUSH1 0x15 DUP2 MSTORE PUSH1 0x20 ADD DUP1 PUSH32 0x4F757469736465206F66206265742072616E67652E0000000000000000000000 DUP2 MSTORE POP PUSH1 0x20 ADD SWAP2 POP POP PUSH1 0x40 MLOAD DUP1 SWAP2 SUB SWAP1 REVERT JUMPDEST PUSH1 0x1 PUSH1 0x6 SLOAD EQ ISZERO PUSH2 0x2B67 JUMPI PUSH1 0x6 PUSH1 0x0 SWAP1 SSTORE PUSH1 0x7 PUSH1 0x0 SWAP1 SSTORE PUSH1 0x8 PUSH1 0x0 SWAP1 SSTORE PUSH1 0x9 PUSH1 0x0 SWAP1 SSTORE PUSH1 0xA PUSH1 0x0 SWAP1 SSTORE PUSH1 0xB PUSH1 0x0 SWAP1 SSTORE PUSH1 0xC PUSH1 0x0 SWAP1 SSTORE PUSH1 0xD PUSH1 0x0 SWAP1 SSTORE PUSH1 0xE PUSH1 0x0 SWAP1 SSTORE PUSH1 0xF PUSH1 0x0 SWAP1 SSTORE PUSH1 0x10 PUSH1 0x0 SWAP1 SSTORE JUMPDEST PUSH2 0x2B7C CALLVALUE PUSH1 0x14 SLOAD PUSH2 0x3165 SWAP1 SWAP2 SWAP1 PUSH4 0xFFFFFFFF AND JUMP JUMPDEST PUSH1 0x14 DUP2 SWAP1 SSTORE POP PUSH2 0x2B8D DUP3 CALLVALUE DUP4 PUSH2 0x35AC JUMP JUMPDEST PUSH2 0x2B98 PUSH1 0x15 SLOAD PUSH2 0x36CB JUMP JUMPDEST PUSH1 0x15 SLOAD PUSH1 0x1C PUSH1 0x0 DUP5 PUSH20 0xFFFFFFFFFFFFFFFFFFFFFFFFFFFFFFFFFFFFFFFF AND PUSH20 0xFFFFFFFFFFFFFFFFFFFFFFFFFFFFFFFFFFFFFFFF AND DUP2 MSTORE PUSH1 0x20 ADD SWAP1 DUP2 MSTORE PUSH1 0x20 ADD PUSH1 0x0 KECCAK256 DUP2 SWAP1 SSTORE POP POP POP JUMP JUMPDEST PUSH2 0x2BEA PUSH2 0x3D9C JUMP JUMPDEST PUSH1 0x40 MLOAD DUP1 PUSH1 0xC0 ADD PUSH1 0x40 MSTORE DUP1 DUP4 DUP2 MSTORE PUSH1 0x20 ADD DUP8 PUSH20 0xFFFFFFFFFFFFFFFFFFFFFFFFFFFFFFFFFFFFFFFF AND DUP2 MSTORE PUSH1 0x20 ADD DUP7 DUP2 MSTORE PUSH1 0x20 ADD DUP6 DUP2 MSTORE PUSH1 0x20 ADD PUSH1 0x0 DUP2 MSTORE PUSH1 0x20 ADD DUP5 ISZERO ISZERO DUP2 MSTORE POP SWAP1 POP DUP1 PUSH1 0x1A PUSH1 0x0 DUP4 PUSH1 0x0 ADD MLOAD DUP2 MSTORE PUSH1 0x20 ADD SWAP1 DUP2 MSTORE PUSH1 0x20 ADD PUSH1 0x0 KECCAK256 PUSH1 0x0 DUP3 ADD MLOAD DUP2 PUSH1 0x0 ADD SSTORE PUSH1 0x20 DUP3 ADD MLOAD DUP2 PUSH1 0x1 ADD PUSH1 0x0 PUSH2 0x100 EXP DUP2 SLOAD DUP2 PUSH20 0xFFFFFFFFFFFFFFFFFFFFFFFFFFFFFFFFFFFFFFFF MUL NOT AND SWAP1 DUP4 PUSH20 0xFFFFFFFFFFFFFFFFFFFFFFFFFFFFFFFFFFFFFFFF AND MUL OR SWAP1 SSTORE POP PUSH1 0x40 DUP3 ADD MLOAD DUP2 PUSH1 0x2 ADD SSTORE PUSH1 0x60 DUP3 ADD MLOAD DUP2 PUSH1 0x3 ADD SSTORE PUSH1 0x80 DUP3 ADD MLOAD DUP2 PUSH1 0x4 ADD SSTORE PUSH1 0xA0 DUP3 ADD MLOAD DUP2 PUSH1 0x5 ADD PUSH1 0x0 PUSH2 0x100 EXP DUP2 SLOAD DUP2 PUSH1 0xFF MUL NOT AND SWAP1 DUP4 ISZERO ISZERO MUL OR SWAP1 SSTORE POP SWAP1 POP POP POP POP POP POP POP POP JUMP JUMPDEST PUSH1 0x19 PUSH1 0x20 MSTORE DUP1 PUSH1 0x0 MSTORE PUSH1 0x40 PUSH1 0x0 KECCAK256 PUSH1 0x0 SWAP2 POP SLOAD SWAP1 PUSH2 0x100 EXP SWAP1 DIV PUSH1 0xFF AND DUP2 JUMP JUMPDEST PUSH2 0x2D0C PUSH2 0x3276 JUMP JUMPDEST PUSH20 0xFFFFFFFFFFFFFFFFFFFFFFFFFFFFFFFFFFFFFFFF AND PUSH1 0x3 PUSH1 0x0 SWAP1 SLOAD SWAP1 PUSH2 0x100 EXP SWAP1 DIV PUSH20 0xFFFFFFFFFFFFFFFFFFFFFFFFFFFFFFFFFFFFFFFF AND PUSH20 0xFFFFFFFFFFFFFFFFFFFFFFFFFFFFFFFFFFFFFFFF AND EQ PUSH2 0x2DCE JUMPI PUSH1 0x40 MLOAD PUSH32 0x8C379A000000000000000000000000000000000000000000000000000000000 DUP2 MSTORE PUSH1 0x4 ADD DUP1 DUP1 PUSH1 0x20 ADD DUP3 DUP2 SUB DUP3 MSTORE PUSH1 0x20 DUP2 MSTORE PUSH1 0x20 ADD DUP1 PUSH32 0x4F776E61626C653A2063616C6C6572206973206E6F7420746865206F776E6572 DUP2 MSTORE POP PUSH1 0x20 ADD SWAP2 POP POP PUSH1 0x40 MLOAD DUP1 SWAP2 SUB SWAP1 REVERT JUMPDEST PUSH1 0x0 PUSH20 0xFFFFFFFFFFFFFFFFFFFFFFFFFFFFFFFFFFFFFFFF AND DUP2 PUSH20 0xFFFFFFFFFFFFFFFFFFFFFFFFFFFFFFFFFFFFFFFF AND EQ ISZERO PUSH2 0x2E54 JUMPI PUSH1 0x40 MLOAD PUSH32 0x8C379A000000000000000000000000000000000000000000000000000000000 DUP2 MSTORE PUSH1 0x4 ADD DUP1 DUP1 PUSH1 0x20 ADD DUP3 DUP2 SUB DUP3 MSTORE PUSH1 0x26 DUP2 MSTORE PUSH1 0x20 ADD DUP1 PUSH2 0x3DEB PUSH1 0x26 SWAP2 CODECOPY PUSH1 0x40 ADD SWAP2 POP POP PUSH1 0x40 MLOAD DUP1 SWAP2 SUB SWAP1 REVERT JUMPDEST DUP1 PUSH20 0xFFFFFFFFFFFFFFFFFFFFFFFFFFFFFFFFFFFFFFFF AND PUSH1 0x3 PUSH1 0x0 SWAP1 SLOAD SWAP1 PUSH2 0x100 EXP SWAP1 DIV PUSH20 0xFFFFFFFFFFFFFFFFFFFFFFFFFFFFFFFFFFFFFFFF AND PUSH20 0xFFFFFFFFFFFFFFFFFFFFFFFFFFFFFFFFFFFFFFFF AND PUSH32 0x8BE0079C531659141344CD1FD0A4F28419497F9722A3DAAFE3B4186F6B6457E0 PUSH1 0x40 MLOAD PUSH1 0x40 MLOAD DUP1 SWAP2 SUB SWAP1 LOG3 DUP1 PUSH1 0x3 PUSH1 0x0 PUSH2 0x100 EXP DUP2 SLOAD DUP2 PUSH20 0xFFFFFFFFFFFFFFFFFFFFFFFFFFFFFFFFFFFFFFFF MUL NOT AND SWAP1 DUP4 PUSH20 0xFFFFFFFFFFFFFFFFFFFFFFFFFFFFFFFFFFFFFFFF AND MUL OR SWAP1 SSTORE POP POP JUMP JUMPDEST PUSH2 0x2F1C PUSH2 0x3276 JUMP JUMPDEST PUSH20 0xFFFFFFFFFFFFFFFFFFFFFFFFFFFFFFFFFFFFFFFF AND PUSH1 0x3 PUSH1 0x0 SWAP1 SLOAD SWAP1 PUSH2 0x100 EXP SWAP1 DIV PUSH20 0xFFFFFFFFFFFFFFFFFFFFFFFFFFFFFFFFFFFFFFFF AND PUSH20 0xFFFFFFFFFFFFFFFFFFFFFFFFFFFFFFFFFFFFFFFF AND EQ PUSH2 0x2FDE JUMPI PUSH1 0x40 MLOAD PUSH32 0x8C379A000000000000000000000000000000000000000000000000000000000 DUP2 MSTORE PUSH1 0x4 ADD DUP1 DUP1 PUSH1 0x20 ADD DUP3 DUP2 SUB DUP3 MSTORE PUSH1 0x20 DUP2 MSTORE PUSH1 0x20 ADD DUP1 PUSH32 0x4F776E61626C653A2063616C6C6572206973206E6F7420746865206F776E6572 DUP2 MSTORE POP PUSH1 0x20 ADD SWAP2 POP POP PUSH1 0x40 MLOAD DUP1 SWAP2 SUB SWAP1 REVERT JUMPDEST PUSH2 0x2FE7 DUP2 PUSH2 0x36CB JUMP JUMPDEST POP JUMP JUMPDEST PUSH1 0x13 SLOAD CALLVALUE LT ISZERO PUSH2 0x3062 JUMPI PUSH1 0x40 MLOAD PUSH32 0x8C379A000000000000000000000000000000000000000000000000000000000 DUP2 MSTORE PUSH1 0x4 ADD DUP1 DUP1 PUSH1 0x20 ADD DUP3 DUP2 SUB DUP3 MSTORE PUSH1 0x13 DUP2 MSTORE PUSH1 0x20 ADD DUP1 PUSH32 0x6D696E696D756D20626574206E6F74206D657400000000000000000000000000 DUP2 MSTORE POP PUSH1 0x20 ADD SWAP2 POP POP PUSH1 0x40 MLOAD DUP1 SWAP2 SUB SWAP1 REVERT JUMPDEST PUSH2 0x3077 CALLVALUE PUSH1 0x14 SLOAD PUSH2 0x3165 SWAP1 SWAP2 SWAP1 PUSH4 0xFFFFFFFF AND JUMP JUMPDEST PUSH1 0x14 DUP2 SWAP1 SSTORE POP PUSH2 0x3088 DUP4 CALLVALUE DUP5 PUSH2 0x35AC JUMP JUMPDEST PUSH2 0x3094 PUSH1 0x15 SLOAD DUP3 PUSH2 0x13AE JUMP JUMPDEST PUSH1 0x15 SLOAD PUSH1 0x1C PUSH1 0x0 DUP6 PUSH20 0xFFFFFFFFFFFFFFFFFFFFFFFFFFFFFFFFFFFFFFFF AND PUSH20 0xFFFFFFFFFFFFFFFFFFFFFFFFFFFFFFFFFFFFFFFF AND DUP2 MSTORE PUSH1 0x20 ADD SWAP1 DUP2 MSTORE PUSH1 0x20 ADD PUSH1 0x0 KECCAK256 DUP2 SWAP1 SSTORE POP POP POP POP JUMP JUMPDEST PUSH1 0x0 DUP1 DUP4 EQ ISZERO PUSH2 0x30F2 JUMPI PUSH1 0x0 SWAP1 POP PUSH2 0x315F JUMP JUMPDEST PUSH1 0x0 DUP3 DUP5 MUL SWAP1 POP DUP3 DUP5 DUP3 DUP2 PUSH2 0x3103 JUMPI INVALID JUMPDEST DIV EQ PUSH2 0x315A JUMPI PUSH1 0x40 MLOAD PUSH32 0x8C379A000000000000000000000000000000000000000000000000000000000 DUP2 MSTORE PUSH1 0x4 ADD DUP1 DUP1 PUSH1 0x20 ADD DUP3 DUP2 SUB DUP3 MSTORE PUSH1 0x21 DUP2 MSTORE PUSH1 0x20 ADD DUP1 PUSH2 0x3E47 PUSH1 0x21 SWAP2 CODECOPY PUSH1 0x40 ADD SWAP2 POP POP PUSH1 0x40 MLOAD DUP1 SWAP2 SUB SWAP1 REVERT JUMPDEST DUP1 SWAP2 POP POP JUMPDEST SWAP3 SWAP2 POP POP JUMP JUMPDEST PUSH1 0x0 DUP1 DUP3 DUP5 ADD SWAP1 POP DUP4 DUP2 LT ISZERO PUSH2 0x31E3 JUMPI PUSH1 0x40 MLOAD PUSH32 0x8C379A000000000000000000000000000000000000000000000000000000000 DUP2 MSTORE PUSH1 0x4 ADD DUP1 DUP1 PUSH1 0x20 ADD DUP3 DUP2 SUB DUP3 MSTORE PUSH1 0x1B DUP2 MSTORE PUSH1 0x20 ADD DUP1 PUSH32 0x536166654D6174683A206164646974696F6E206F766572666C6F770000000000 DUP2 MSTORE POP PUSH1 0x20 ADD SWAP2 POP POP PUSH1 0x40 MLOAD DUP1 SWAP2 SUB SWAP1 REVERT JUMPDEST DUP1 SWAP2 POP POP SWAP3 SWAP2 POP POP JUMP JUMPDEST PUSH1 0x0 DUP3 DUP3 GT ISZERO PUSH2 0x3265 JUMPI PUSH1 0x40 MLOAD PUSH32 0x8C379A000000000000000000000000000000000000000000000000000000000 DUP2 MSTORE PUSH1 0x4 ADD DUP1 DUP1 PUSH1 0x20 ADD DUP3 DUP2 SUB DUP3 MSTORE PUSH1 0x1E DUP2 MSTORE PUSH1 0x20 ADD DUP1 PUSH32 0x536166654D6174683A207375627472616374696F6E206F766572666C6F770000 DUP2 MSTORE POP PUSH1 0x20 ADD SWAP2 POP POP PUSH1 0x40 MLOAD DUP1 SWAP2 SUB SWAP1 REVERT JUMPDEST PUSH1 0x0 DUP3 DUP5 SUB SWAP1 POP DUP1 SWAP2 POP POP SWAP3 SWAP2 POP POP JUMP JUMPDEST PUSH1 0x0 CALLER SWAP1 POP SWAP1 JUMP JUMPDEST PUSH1 0x0 PUSH1 0x1A PUSH1 0x0 PUSH1 0x1B PUSH1 0x0 DUP7 DUP2 MSTORE PUSH1 0x20 ADD SWAP1 DUP2 MSTORE PUSH1 0x20 ADD PUSH1 0x0 KECCAK256 SLOAD DUP2 MSTORE PUSH1 0x20 ADD SWAP1 DUP2 MSTORE PUSH1 0x20 ADD PUSH1 0x0 KECCAK256 SWAP1 POP PUSH1 0x0 DUP2 PUSH1 0x0 ADD SLOAD GT DUP1 ISZERO PUSH2 0x32D1 JUMPI POP PUSH1 0x0 ISZERO ISZERO DUP2 PUSH1 0x5 ADD PUSH1 0x0 SWAP1 SLOAD SWAP1 PUSH2 0x100 EXP SWAP1 DIV PUSH1 0xFF AND ISZERO ISZERO EQ JUMPDEST ISZERO PUSH2 0x354F JUMPI PUSH1 0x12 SLOAD DUP2 PUSH1 0x2 ADD SLOAD GT ISZERO PUSH2 0x32F0 JUMPI PUSH1 0x12 SLOAD DUP2 PUSH1 0x2 ADD DUP2 SWAP1 SSTORE POP JUMPDEST PUSH1 0x0 PUSH2 0x3321 DUP3 PUSH1 0x2 ADD SLOAD PUSH2 0x3313 PUSH1 0x17 SLOAD DUP6 PUSH1 0x2 ADD SLOAD PUSH2 0x30DF SWAP1 SWAP2 SWAP1 PUSH4 0xFFFFFFFF AND JUMP JUMPDEST PUSH2 0x3165 SWAP1 SWAP2 SWAP1 PUSH4 0xFFFFFFFF AND JUMP JUMPDEST SWAP1 POP DUP1 SELFBALANCE LT ISZERO PUSH2 0x3399 JUMPI PUSH1 0x40 MLOAD PUSH32 0x8C379A000000000000000000000000000000000000000000000000000000000 DUP2 MSTORE PUSH1 0x4 ADD DUP1 DUP1 PUSH1 0x20 ADD DUP3 DUP2 SUB DUP3 MSTORE PUSH1 0x20 DUP2 MSTORE PUSH1 0x20 ADD DUP1 PUSH32 0x436F6E74726163742062616C616E636520746F6F206C6F7720746F20706C6179 DUP2 MSTORE POP PUSH1 0x20 ADD SWAP2 POP POP PUSH1 0x40 MLOAD DUP1 SWAP2 SUB SWAP1 REVERT JUMPDEST PUSH2 0x33C1 PUSH1 0x1 PUSH2 0x33B3 PUSH1 0x11 SLOAD DUP7 PUSH2 0x37C6 SWAP1 SWAP2 SWAP1 PUSH4 0xFFFFFFFF AND JUMP JUMPDEST PUSH2 0x3165 SWAP1 SWAP2 SWAP1 PUSH4 0xFFFFFFFF AND JUMP JUMPDEST DUP3 PUSH1 0x4 ADD DUP2 SWAP1 SSTORE POP PUSH1 0x1 DUP3 PUSH1 0x5 ADD PUSH1 0x0 PUSH2 0x100 EXP DUP2 SLOAD DUP2 PUSH1 0xFF MUL NOT AND SWAP1 DUP4 ISZERO ISZERO MUL OR SWAP1 SSTORE POP DUP2 PUSH1 0x2 ADD SLOAD PUSH1 0x14 SLOAD LT PUSH2 0x340C JUMPI DUP2 PUSH1 0x2 ADD SLOAD PUSH1 0x14 PUSH1 0x0 DUP3 DUP3 SLOAD SUB SWAP3 POP POP DUP2 SWAP1 SSTORE POP PUSH2 0x3415 JUMP JUMPDEST PUSH1 0x0 PUSH1 0x14 DUP2 SWAP1 SSTORE POP JUMPDEST DUP2 PUSH1 0x4 ADD SLOAD DUP3 PUSH1 0x3 ADD SLOAD EQ ISZERO PUSH2 0x3495 JUMPI DUP2 PUSH1 0x1 ADD PUSH1 0x0 SWAP1 SLOAD SWAP1 PUSH2 0x100 EXP SWAP1 DIV PUSH20 0xFFFFFFFFFFFFFFFFFFFFFFFFFFFFFFFFFFFFFFFF AND PUSH20 0xFFFFFFFFFFFFFFFFFFFFFFFFFFFFFFFFFFFFFFFF AND PUSH2 0x8FC DUP3 SWAP1 DUP2 ISZERO MUL SWAP1 PUSH1 0x40 MLOAD PUSH1 0x0 PUSH1 0x40 MLOAD DUP1 DUP4 SUB DUP2 DUP6 DUP9 DUP9 CALL SWAP4 POP POP POP POP ISZERO DUP1 ISZERO PUSH2 0x348F JUMPI RETURNDATASIZE PUSH1 0x0 DUP1 RETURNDATACOPY RETURNDATASIZE PUSH1 0x0 REVERT JUMPDEST POP PUSH2 0x349A JUMP JUMPDEST PUSH1 0x0 SWAP1 POP JUMPDEST PUSH32 0xC06600D6399308F270BC6AE70D5377121B685C974BB7F7355824FDDD8A2B3497 DUP3 PUSH1 0x1 ADD PUSH1 0x0 SWAP1 SLOAD SWAP1 PUSH2 0x100 EXP SWAP1 DIV PUSH20 0xFFFFFFFFFFFFFFFFFFFFFFFFFFFFFFFFFFFFFFFF AND DUP4 PUSH1 0x2 ADD SLOAD DUP5 PUSH1 0x3 ADD SLOAD DUP6 PUSH1 0x4 ADD SLOAD DUP6 PUSH1 0x40 MLOAD DUP1 DUP7 PUSH20 0xFFFFFFFFFFFFFFFFFFFFFFFFFFFFFFFFFFFFFFFF AND PUSH20 0xFFFFFFFFFFFFFFFFFFFFFFFFFFFFFFFFFFFFFFFF AND DUP2 MSTORE PUSH1 0x20 ADD DUP6 DUP2 MSTORE PUSH1 0x20 ADD DUP5 DUP2 MSTORE PUSH1 0x20 ADD DUP4 DUP2 MSTORE PUSH1 0x20 ADD DUP3 DUP2 MSTORE PUSH1 0x20 ADD SWAP6 POP POP POP POP POP POP PUSH1 0x40 MLOAD DUP1 SWAP2 SUB SWAP1 LOG1 POP JUMPDEST PUSH1 0x1 PUSH1 0x6 DUP2 SWAP1 SSTORE POP PUSH1 0x1 PUSH1 0x7 DUP2 SWAP1 SSTORE POP PUSH1 0x1 PUSH1 0x8 DUP2 SWAP1 SSTORE POP PUSH1 0x1 PUSH1 0x9 DUP2 SWAP1 SSTORE POP PUSH1 0x1 PUSH1 0xA DUP2 SWAP1 SSTORE POP PUSH1 0x1 PUSH1 0xB DUP2 SWAP1 SSTORE POP PUSH1 0x1 PUSH1 0xC DUP2 SWAP1 SSTORE POP PUSH1 0x1 PUSH1 0xD DUP2 SWAP1 SSTORE POP PUSH1 0x1 PUSH1 0xE DUP2 SWAP1 SSTORE POP PUSH1 0x1 PUSH1 0xF DUP2 SWAP1 SSTORE POP PUSH1 0x1 PUSH1 0x10 DUP2 SWAP1 SSTORE POP POP POP POP JUMP JUMPDEST PUSH2 0x35C2 PUSH1 0x1 PUSH1 0x15 SLOAD PUSH2 0x3165 SWAP1 SWAP2 SWAP1 PUSH4 0xFFFFFFFF AND JUMP JUMPDEST PUSH1 0x15 DUP2 SWAP1 SSTORE POP PUSH2 0x35D0 PUSH2 0x3D9C JUMP JUMPDEST PUSH1 0x40 MLOAD DUP1 PUSH1 0xC0 ADD PUSH1 0x40 MSTORE DUP1 PUSH1 0x15 SLOAD DUP2 MSTORE PUSH1 0x20 ADD DUP6 PUSH20 0xFFFFFFFFFFFFFFFFFFFFFFFFFFFFFFFFFFFFFFFF AND DUP2 MSTORE PUSH1 0x20 ADD DUP5 DUP2 MSTORE PUSH1 0x20 ADD DUP4 DUP2 MSTORE PUSH1 0x20 ADD PUSH1 0x0 DUP2 MSTORE PUSH1 0x20 ADD PUSH1 0x0 ISZERO ISZERO DUP2 MSTORE POP SWAP1 POP DUP1 PUSH1 0x1A PUSH1 0x0 DUP4 PUSH1 0x0 ADD MLOAD DUP2 MSTORE PUSH1 0x20 ADD SWAP1 DUP2 MSTORE PUSH1 0x20 ADD PUSH1 0x0 KECCAK256 PUSH1 0x0 DUP3 ADD MLOAD DUP2 PUSH1 0x0 ADD SSTORE PUSH1 0x20 DUP3 ADD MLOAD DUP2 PUSH1 0x1 ADD PUSH1 0x0 PUSH2 0x100 EXP DUP2 SLOAD DUP2 PUSH20 0xFFFFFFFFFFFFFFFFFFFFFFFFFFFFFFFFFFFFFFFF MUL NOT AND SWAP1 DUP4 PUSH20 0xFFFFFFFFFFFFFFFFFFFFFFFFFFFFFFFFFFFFFFFF AND MUL OR SWAP1 SSTORE POP PUSH1 0x40 DUP3 ADD MLOAD DUP2 PUSH1 0x2 ADD SSTORE PUSH1 0x60 DUP3 ADD MLOAD DUP2 PUSH1 0x3 ADD SSTORE PUSH1 0x80 DUP3 ADD MLOAD DUP2 PUSH1 0x4 ADD SSTORE PUSH1 0xA0 DUP3 ADD MLOAD DUP2 PUSH1 0x5 ADD PUSH1 0x0 PUSH2 0x100 EXP DUP2 SLOAD DUP2 PUSH1 0xFF MUL NOT AND SWAP1 DUP4 ISZERO ISZERO MUL OR SWAP1 SSTORE POP SWAP1 POP POP POP POP POP POP JUMP JUMPDEST PUSH1 0x0 ISZERO ISZERO PUSH1 0x1A PUSH1 0x0 DUP4 DUP2 MSTORE PUSH1 0x20 ADD SWAP1 DUP2 MSTORE PUSH1 0x20 ADD PUSH1 0x0 KECCAK256 PUSH1 0x5 ADD PUSH1 0x0 SWAP1 SLOAD SWAP1 PUSH2 0x100 EXP SWAP1 DIV PUSH1 0xFF AND ISZERO ISZERO EQ PUSH2 0x3768 JUMPI PUSH1 0x40 MLOAD PUSH32 0x8C379A000000000000000000000000000000000000000000000000000000000 DUP2 MSTORE PUSH1 0x4 ADD DUP1 DUP1 PUSH1 0x20 ADD DUP3 DUP2 SUB DUP3 MSTORE PUSH1 0x13 DUP2 MSTORE PUSH1 0x20 ADD DUP1 PUSH32 0x67616D6520616C726561647920706C6179656400000000000000000000000000 DUP2 MSTORE POP PUSH1 0x20 ADD SWAP2 POP POP PUSH1 0x40 MLOAD DUP1 SWAP2 SUB SWAP1 REVERT JUMPDEST PUSH1 0x0 PUSH2 0x377A PUSH2 0x3775 PUSH2 0x3850 JUMP JUMPDEST PUSH2 0x3971 JUMP JUMPDEST SWAP1 POP DUP2 PUSH1 0x1B PUSH1 0x0 DUP4 DUP2 MSTORE PUSH1 0x20 ADD SWAP1 DUP2 MSTORE PUSH1 0x20 ADD PUSH1 0x0 KECCAK256 DUP2 SWAP1 SSTORE POP POP POP JUMP JUMPDEST PUSH1 0x0 PUSH1 0x13 SLOAD DUP3 LT ISZERO DUP1 ISZERO PUSH2 0x37AE JUMPI POP PUSH1 0x12 SLOAD DUP3 GT ISZERO JUMPDEST ISZERO PUSH2 0x37BC JUMPI PUSH1 0x1 SWAP1 POP PUSH2 0x37C1 JUMP JUMPDEST PUSH1 0x0 SWAP1 POP JUMPDEST SWAP2 SWAP1 POP JUMP JUMPDEST PUSH1 0x0 DUP1 DUP3 EQ ISZERO PUSH2 0x383E JUMPI PUSH1 0x40 MLOAD PUSH32 0x8C379A000000000000000000000000000000000000000000000000000000000 DUP2 MSTORE PUSH1 0x4 ADD DUP1 DUP1 PUSH1 0x20 ADD DUP3 DUP2 SUB DUP3 MSTORE PUSH1 0x18 DUP2 MSTORE PUSH1 0x20 ADD DUP1 PUSH32 0x536166654D6174683A206D6F64756C6F206279207A65726F0000000000000000 DUP2 MSTORE POP PUSH1 0x20 ADD SWAP2 POP POP PUSH1 0x40 MLOAD DUP1 SWAP2 SUB SWAP1 REVERT JUMPDEST DUP2 DUP4 DUP2 PUSH2 0x3847 JUMPI INVALID JUMPDEST MOD SWAP1 POP SWAP3 SWAP2 POP POP JUMP JUMPDEST PUSH1 0x0 PUSH2 0x385A PUSH2 0x3D9C JUMP JUMPDEST PUSH1 0x1A PUSH1 0x0 PUSH1 0x15 SLOAD DUP2 MSTORE PUSH1 0x20 ADD SWAP1 DUP2 MSTORE PUSH1 0x20 ADD PUSH1 0x0 KECCAK256 PUSH1 0x40 MLOAD DUP1 PUSH1 0xC0 ADD PUSH1 0x40 MSTORE SWAP1 DUP2 PUSH1 0x0 DUP3 ADD SLOAD DUP2 MSTORE PUSH1 0x20 ADD PUSH1 0x1 DUP3 ADD PUSH1 0x0 SWAP1 SLOAD SWAP1 PUSH2 0x100 EXP SWAP1 DIV PUSH20 0xFFFFFFFFFFFFFFFFFFFFFFFFFFFFFFFFFFFFFFFF AND PUSH20 0xFFFFFFFFFFFFFFFFFFFFFFFFFFFFFFFFFFFFFFFF AND PUSH20 0xFFFFFFFFFFFFFFFFFFFFFFFFFFFFFFFFFFFFFFFF AND DUP2 MSTORE PUSH1 0x20 ADD PUSH1 0x2 DUP3 ADD SLOAD DUP2 MSTORE PUSH1 0x20 ADD PUSH1 0x3 DUP3 ADD SLOAD DUP2 MSTORE PUSH1 0x20 ADD PUSH1 0x4 DUP3 ADD SLOAD DUP2 MSTORE PUSH1 0x20 ADD PUSH1 0x5 DUP3 ADD PUSH1 0x0 SWAP1 SLOAD SWAP1 PUSH2 0x100 EXP SWAP1 DIV PUSH1 0xFF AND ISZERO ISZERO ISZERO ISZERO DUP2 MSTORE POP POP SWAP1 POP NUMBER TIMESTAMP DUP3 PUSH1 0x60 ADD MLOAD DUP4 PUSH1 0x40 ADD MLOAD DUP5 PUSH1 0x0 ADD MLOAD PUSH1 0x40 MLOAD PUSH1 0x20 ADD DUP1 DUP7 DUP2 MSTORE PUSH1 0x20 ADD DUP6 DUP2 MSTORE PUSH1 0x20 ADD DUP5 DUP2 MSTORE PUSH1 0x20 ADD DUP4 DUP2 MSTORE PUSH1 0x20 ADD DUP3 DUP2 MSTORE PUSH1 0x20 ADD SWAP6 POP POP POP POP POP POP PUSH1 0x40 MLOAD PUSH1 0x20 DUP2 DUP4 SUB SUB DUP2 MSTORE SWAP1 PUSH1 0x40 MSTORE DUP1 MLOAD SWAP1 PUSH1 0x20 ADD KECCAK256 PUSH1 0x0 SHR SWAP2 POP POP SWAP1 JUMP JUMPDEST PUSH1 0x0 PUSH1 0x5 SLOAD PUSH1 0x0 DUP1 SWAP1 SLOAD SWAP1 PUSH2 0x100 EXP SWAP1 DIV PUSH20 0xFFFFFFFFFFFFFFFFFFFFFFFFFFFFFFFFFFFFFFFF AND PUSH20 0xFFFFFFFFFFFFFFFFFFFFFFFFFFFFFFFFFFFFFFFF AND PUSH4 0x70A08231 ADDRESS PUSH1 0x40 MLOAD DUP3 PUSH4 0xFFFFFFFF AND PUSH1 0xE0 SHL DUP2 MSTORE PUSH1 0x4 ADD DUP1 DUP3 PUSH20 0xFFFFFFFFFFFFFFFFFFFFFFFFFFFFFFFFFFFFFFFF AND PUSH20 0xFFFFFFFFFFFFFFFFFFFFFFFFFFFFFFFFFFFFFFFF AND DUP2 MSTORE PUSH1 0x20 ADD SWAP2 POP POP PUSH1 0x20 PUSH1 0x40 MLOAD DUP1 DUP4 SUB DUP2 DUP7 DUP1 EXTCODESIZE ISZERO DUP1 ISZERO PUSH2 0x3A14 JUMPI PUSH1 0x0 DUP1 REVERT JUMPDEST POP GAS STATICCALL ISZERO DUP1 ISZERO PUSH2 0x3A28 JUMPI RETURNDATASIZE PUSH1 0x0 DUP1 RETURNDATACOPY RETURNDATASIZE PUSH1 0x0 REVERT JUMPDEST POP POP POP POP PUSH1 0x40 MLOAD RETURNDATASIZE PUSH1 0x20 DUP2 LT ISZERO PUSH2 0x3A3E JUMPI PUSH1 0x0 DUP1 REVERT JUMPDEST DUP2 ADD SWAP1 DUP1 DUP1 MLOAD SWAP1 PUSH1 0x20 ADD SWAP1 SWAP3 SWAP2 SWAP1 POP POP POP GT PUSH2 0x3AC2 JUMPI PUSH1 0x40 MLOAD PUSH32 0x8C379A000000000000000000000000000000000000000000000000000000000 DUP2 MSTORE PUSH1 0x4 ADD DUP1 DUP1 PUSH1 0x20 ADD DUP3 DUP2 SUB DUP3 MSTORE PUSH1 0xF DUP2 MSTORE PUSH1 0x20 ADD DUP1 PUSH32 0x4E6F7420656E6F756768204C494E4B0000000000000000000000000000000000 DUP2 MSTORE POP PUSH1 0x20 ADD SWAP2 POP POP PUSH1 0x40 MLOAD DUP1 SWAP2 SUB SWAP1 REVERT JUMPDEST PUSH2 0x3AD1 PUSH1 0x4 SLOAD PUSH1 0x5 SLOAD DUP5 PUSH2 0x3AD8 JUMP JUMPDEST SWAP1 POP SWAP2 SWAP1 POP JUMP JUMPDEST PUSH1 0x0 DUP1 PUSH1 0x0 SWAP1 SLOAD SWAP1 PUSH2 0x100 EXP SWAP1 DIV PUSH20 0xFFFFFFFFFFFFFFFFFFFFFFFFFFFFFFFFFFFFFFFF AND PUSH20 0xFFFFFFFFFFFFFFFFFFFFFFFFFFFFFFFFFFFFFFFF AND PUSH4 0x4000AEA0 PUSH1 0x1 PUSH1 0x0 SWAP1 SLOAD SWAP1 PUSH2 0x100 EXP SWAP1 DIV PUSH20 0xFFFFFFFFFFFFFFFFFFFFFFFFFFFFFFFFFFFFFFFF AND DUP6 DUP8 DUP7 PUSH1 0x40 MLOAD PUSH1 0x20 ADD DUP1 DUP4 DUP2 MSTORE PUSH1 0x20 ADD DUP3 DUP2 MSTORE PUSH1 0x20 ADD SWAP3 POP POP POP PUSH1 0x40 MLOAD PUSH1 0x20 DUP2 DUP4 SUB SUB DUP2 MSTORE SWAP1 PUSH1 0x40 MSTORE PUSH1 0x40 MLOAD DUP5 PUSH4 0xFFFFFFFF AND PUSH1 0xE0 SHL DUP2 MSTORE PUSH1 0x4 ADD DUP1 DUP5 PUSH20 0xFFFFFFFFFFFFFFFFFFFFFFFFFFFFFFFFFFFFFFFF AND PUSH20 0xFFFFFFFFFFFFFFFFFFFFFFFFFFFFFFFFFFFFFFFF AND DUP2 MSTORE PUSH1 0x20 ADD DUP4 DUP2 MSTORE PUSH1 0x20 ADD DUP1 PUSH1 0x20 ADD DUP3 DUP2 SUB DUP3 MSTORE DUP4 DUP2 DUP2 MLOAD DUP2 MSTORE PUSH1 0x20 ADD SWAP2 POP DUP1 MLOAD SWAP1 PUSH1 0x20 ADD SWAP1 DUP1 DUP4 DUP4 PUSH1 0x0 JUMPDEST DUP4 DUP2 LT ISZERO PUSH2 0x3BEA JUMPI DUP1 DUP3 ADD MLOAD DUP2 DUP5 ADD MSTORE PUSH1 0x20 DUP2 ADD SWAP1 POP PUSH2 0x3BCF JUMP JUMPDEST POP POP POP POP SWAP1 POP SWAP1 DUP2 ADD SWAP1 PUSH1 0x1F AND DUP1 ISZERO PUSH2 0x3C17 JUMPI DUP1 DUP3 SUB DUP1 MLOAD PUSH1 0x1 DUP4 PUSH1 0x20 SUB PUSH2 0x100 EXP SUB NOT AND DUP2 MSTORE PUSH1 0x20 ADD SWAP2 POP JUMPDEST POP SWAP5 POP POP POP POP POP PUSH1 0x20 PUSH1 0x40 MLOAD DUP1 DUP4 SUB DUP2 PUSH1 0x0 DUP8 DUP1 EXTCODESIZE ISZERO DUP1 ISZERO PUSH2 0x3C38 JUMPI PUSH1 0x0 DUP1 REVERT JUMPDEST POP GAS CALL ISZERO DUP1 ISZERO PUSH2 0x3C4C JUMPI RETURNDATASIZE PUSH1 0x0 DUP1 RETURNDATACOPY RETURNDATASIZE PUSH1 0x0 REVERT JUMPDEST POP POP POP POP PUSH1 0x40 MLOAD RETURNDATASIZE PUSH1 0x20 DUP2 LT ISZERO PUSH2 0x3C62 JUMPI PUSH1 0x0 DUP1 REVERT JUMPDEST DUP2 ADD SWAP1 DUP1 DUP1 MLOAD SWAP1 PUSH1 0x20 ADD SWAP1 SWAP3 SWAP2 SWAP1 POP POP POP POP PUSH1 0x0 PUSH2 0x3C95 DUP6 DUP5 ADDRESS PUSH1 0x2 PUSH1 0x0 DUP11 DUP2 MSTORE PUSH1 0x20 ADD SWAP1 DUP2 MSTORE PUSH1 0x20 ADD PUSH1 0x0 KECCAK256 SLOAD PUSH2 0x3CE9 JUMP JUMPDEST SWAP1 POP PUSH2 0x3CBE PUSH1 0x1 PUSH1 0x2 PUSH1 0x0 DUP9 DUP2 MSTORE PUSH1 0x20 ADD SWAP1 DUP2 MSTORE PUSH1 0x20 ADD PUSH1 0x0 KECCAK256 SLOAD PUSH2 0x3165 SWAP1 SWAP2 SWAP1 PUSH4 0xFFFFFFFF AND JUMP JUMPDEST PUSH1 0x2 PUSH1 0x0 DUP8 DUP2 MSTORE PUSH1 0x20 ADD SWAP1 DUP2 MSTORE PUSH1 0x20 ADD PUSH1 0x0 KECCAK256 DUP2 SWAP1 SSTORE POP PUSH2 0x3CDF DUP6 DUP3 PUSH2 0x3D63 JUMP JUMPDEST SWAP2 POP POP SWAP4 SWAP3 POP POP POP JUMP JUMPDEST PUSH1 0x0 DUP5 DUP5 DUP5 DUP5 PUSH1 0x40 MLOAD PUSH1 0x20 ADD DUP1 DUP6 DUP2 MSTORE PUSH1 0x20 ADD DUP5 DUP2 MSTORE PUSH1 0x20 ADD DUP4 PUSH20 0xFFFFFFFFFFFFFFFFFFFFFFFFFFFFFFFFFFFFFFFF AND PUSH20 0xFFFFFFFFFFFFFFFFFFFFFFFFFFFFFFFFFFFFFFFF AND DUP2 MSTORE PUSH1 0x20 ADD DUP3 DUP2 MSTORE PUSH1 0x20 ADD SWAP5 POP POP POP POP POP PUSH1 0x40 MLOAD PUSH1 0x20 DUP2 DUP4 SUB SUB DUP2 MSTORE SWAP1 PUSH1 0x40 MSTORE DUP1 MLOAD SWAP1 PUSH1 0x20 ADD KECCAK256 PUSH1 0x0 SHR SWAP1 POP SWAP5 SWAP4 POP POP POP POP JUMP JUMPDEST PUSH1 0x0 DUP3 DUP3 PUSH1 0x40 MLOAD PUSH1 0x20 ADD DUP1 DUP4 DUP2 MSTORE PUSH1 0x20 ADD DUP3 DUP2 MSTORE PUSH1 0x20 ADD SWAP3 POP POP POP PUSH1 0x40 MLOAD PUSH1 0x20 DUP2 DUP4 SUB SUB DUP2 MSTORE SWAP1 PUSH1 0x40 MSTORE DUP1 MLOAD SWAP1 PUSH1 0x20 ADD KECCAK256 SWAP1 POP SWAP3 SWAP2 POP POP JUMP JUMPDEST PUSH1 0x40 MLOAD DUP1 PUSH1 0xC0 ADD PUSH1 0x40 MSTORE DUP1 PUSH1 0x0 DUP2 MSTORE PUSH1 0x20 ADD PUSH1 0x0 PUSH20 0xFFFFFFFFFFFFFFFFFFFFFFFFFFFFFFFFFFFFFFFF AND DUP2 MSTORE PUSH1 0x20 ADD PUSH1 0x0 DUP2 MSTORE PUSH1 0x20 ADD PUSH1 0x0 DUP2 MSTORE PUSH1 0x20 ADD PUSH1 0x0 DUP2 MSTORE PUSH1 0x20 ADD PUSH1 0x0 ISZERO ISZERO DUP2 MSTORE POP SWAP1 JUMP INVALID 0x4F PUSH24 0x6E61626C653A206E6577206F776E65722069732074686520 PUSH27 0x65726F2061646472657373436F6E74726163742068617320696E73 PUSH22 0x66666963696E742066756E647320746F207061796F75 PUSH21 0x20706F737369626C652077696E2E536166654D6174 PUSH9 0x3A206D756C7469706C PUSH10 0x636174696F6E206F7665 PUSH19 0x666C6F77436F6E74726163742062616C616E63 PUSH6 0x20746F6F206C PUSH16 0x772E20506C6561736520747279206167 PUSH2 0x696E KECCAK256 PUSH13 0x617465722E47616D6520616C72 PUSH6 0x61647920636F PUSH14 0x706C6574652E204E6F2072656675 PUSH15 0x6420706F737369626C652E556E6162 PUSH13 0x6520746F207061792E20506C65 PUSH2 0x7365 KECCAK256 PUSH17 0x6C617920616761696E206F722072657175 PUSH6 0x737420726566 PUSH22 0x6E642EA264697066735822122041FE7C061AE8125426 0xD1 RETURN PUSH2 0xB5F9 0xC8 JUMP NUMBER 0x1E MLOAD 0xFB 0x4A SELFDESTRUCT 0x4B SAR 0xF8 SWAP8 SWAP4 0xBA 0xCC DUP7 0xD 0xC1 PUSH5 0x736F6C6343 STOP MOD STOP STOP CALLER "},"gasEstimates":{"creation":{"codeDepositCost":"3234200","executionCost":"infinite","totalCost":"infinite"},"external":{"_unplayedBets()":"1050","allowGasFreeBet(address[],bool)":"infinite","authorizedAddress(address)":"1296","betPayable(uint256)":"infinite","closeMachine()":"infinite","games(uint256)":"5502","gasFreeBetAllowed(address)":"1272","getLinkBalance()":"infinite","getSummary()":"3627","lastGameCreated(address)":"1302","maxBet()":"1118","maxPick()":"1051","minBet()":"1073","nonces(bytes32)":"1275","owner()":"1172","payout()":"1117","payoutAddress()":"1121","placeBetFor(address,uint256)":"infinite","rawFulfillRandomness(bytes32,uint256)":"infinite","renounceOwnership()":"24364","replayGame(uint256)":"infinite","requestRefund(uint256)":"infinite","safeBetFor(address,uint256)":"infinite","setAuthorizedUser(address,bool)":"22198","setKeyHash(bytes32)":"21237","setLINK(address)":"22051","setPayoutAddress(address)":"22074","setVRFCoordinator(address)":"22140","testCloseMachine()":"infinite","testCreateGame(address,uint256,uint256,bool,uint256)":"107665","testFulfillRandomness(bytes32,uint256)":"infinite","testPlaceBetFor(address,uint256,uint256)":"infinite","testPlayGame(uint256,uint256)":"infinite","transferOwnership(address)":"infinite","withdrawEth(uint256)":"infinite","withdrawLink(uint256)":"infinite"},"internal":{"betInRange(uint256)":"1702","createGame(address payable,uint256,uint256)":"infinite","fulfillRandomness(bytes32,uint256)":"infinite","getRandomNumber(uint256)":"infinite","getSeed()":"infinite","playGame(uint256)":"infinite"}},"methodIdentifiers":{"_unplayedBets()":"6b25d296","allowGasFreeBet(address[],bool)":"95f9b576","authorizedAddress(address)":"3638104a","betPayable(uint256)":"0c610a12","closeMachine()":"b93030b3","games(uint256)":"117a5b90","gasFreeBetAllowed(address)":"dfad4c11","getLinkBalance()":"50c5f975","getSummary()":"4051ddac","lastGameCreated(address)":"b843f5ab","maxBet()":"2e5b2168","maxPick()":"2ee42d8a","minBet()":"9619367d","nonces(bytes32)":"9e317f12","owner()":"8da5cb5b","payout()":"63bd1d4a","payoutAddress()":"5b8d02d7","placeBetFor(address,uint256)":"ac150fd8","rawFulfillRandomness(bytes32,uint256)":"94985ddd","renounceOwnership()":"715018a6","replayGame(uint256)":"f31a4dcd","requestRefund(uint256)":"a4b2409e","safeBetFor(address,uint256)":"d9e721f8","setAuthorizedUser(address,bool)":"a249225e","setKeyHash(bytes32)":"98544710","setLINK(address)":"a02e0616","setPayoutAddress(address)":"33ea51a8","setVRFCoordinator(address)":"44ff81ce","testCloseMachine()":"c955e79c","testCreateGame(address,uint256,uint256,bool,uint256)":"de4fa6af","testFulfillRandomness(bytes32,uint256)":"130a1efa","testPlaceBetFor(address,uint256,uint256)":"fafacab2","testPlayGame(uint256,uint256)":"6168eac9","transferOwnership(address)":"f2fde38b","withdrawEth(uint256)":"c311d049","withdrawLink(uint256)":"7a8042bd"}},"storageLayout":{"storage":[{"astId":460,"contract":"AllContracts-test.sol:LuckyMachine","label":"LINK","offset":0,"slot":"0","type":"t_contract(LinkTokenInterface)392"},{"astId":462,"contract":"AllContracts-test.sol:LuckyMachine","label":"vrfCoordinator","offset":0,"slot":"1","type":"t_address"},{"astId":466,"contract":"AllContracts-test.sol:LuckyMachine","label":"nonces","offset":0,"slot":"2","type":"t_mapping(t_bytes32,t_uint256)"},{"astId":26,"contract":"AllContracts-test.sol:LuckyMachine","label":"_owner","offset":0,"slot":"3","type":"t_address"},{"astId":515,"contract":"AllContracts-test.sol:LuckyMachine","label":"keyHash","offset":0,"slot":"4","type":"t_bytes32"},{"astId":517,"contract":"AllContracts-test.sol:LuckyMachine","label":"fee","offset":0,"slot":"5","type":"t_uint256"},{"astId":532,"contract":"AllContracts-test.sol:LuckyMachine","label":"gas1","offset":0,"slot":"6","type":"t_uint256"},{"astId":534,"contract":"AllContracts-test.sol:LuckyMachine","label":"gas2","offset":0,"slot":"7","type":"t_uint256"},{"astId":536,"contract":"AllContracts-test.sol:LuckyMachine","label":"gas3","offset":0,"slot":"8","type":"t_uint256"},{"astId":538,"contract":"AllContracts-test.sol:LuckyMachine","label":"gas4","offset":0,"slot":"9","type":"t_uint256"},{"astId":540,"contract":"AllContracts-test.sol:LuckyMachine","label":"gas5","offset":0,"slot":"10","type":"t_uint256"},{"astId":542,"contract":"AllContracts-test.sol:LuckyMachine","label":"gas6","offset":0,"slot":"11","type":"t_uint256"},{"astId":544,"contract":"AllContracts-test.sol:LuckyMachine","label":"gas7","offset":0,"slot":"12","type":"t_uint256"},{"astId":546,"contract":"AllContracts-test.sol:LuckyMachine","label":"gas8","offset":0,"slot":"13","type":"t_uint256"},{"astId":548,"contract":"AllContracts-test.sol:LuckyMachine","label":"gas9","offset":0,"slot":"14","type":"t_uint256"},{"astId":550,"contract":"AllContracts-test.sol:LuckyMachine","label":"gas10","offset":0,"slot":"15","type":"t_uint256"},{"astId":552,"contract":"AllContracts-test.sol:LuckyMachine","label":"gas11","offset":0,"slot":"16","type":"t_uint256"},{"astId":554,"contract":"AllContracts-test.sol:LuckyMachine","label":"maxPick","offset":0,"slot":"17","type":"t_uint256"},{"astId":556,"contract":"AllContracts-test.sol:LuckyMachine","label":"maxBet","offset":0,"slot":"18","type":"t_uint256"},{"astId":558,"contract":"AllContracts-test.sol:LuckyMachine","label":"minBet","offset":0,"slot":"19","type":"t_uint256"},{"astId":560,"contract":"AllContracts-test.sol:LuckyMachine","label":"_unplayedBets","offset":0,"slot":"20","type":"t_uint256"},{"astId":562,"contract":"AllContracts-test.sol:LuckyMachine","label":"_currentGame","offset":0,"slot":"21","type":"t_uint256"},{"astId":564,"contract":"AllContracts-test.sol:LuckyMachine","label":"payoutAddress","offset":0,"slot":"22","type":"t_address_payable"},{"astId":566,"contract":"AllContracts-test.sol:LuckyMachine","label":"payout","offset":0,"slot":"23","type":"t_uint256"},{"astId":570,"contract":"AllContracts-test.sol:LuckyMachine","label":"authorizedAddress","offset":0,"slot":"24","type":"t_mapping(t_address,t_bool)"},{"astId":574,"contract":"AllContracts-test.sol:LuckyMachine","label":"gasFreeBetAllowed","offset":0,"slot":"25","type":"t_mapping(t_address,t_bool)"},{"astId":578,"contract":"AllContracts-test.sol:LuckyMachine","label":"games","offset":0,"slot":"26","type":"t_mapping(t_uint256,t_struct(Game)530_storage)"},{"astId":582,"contract":"AllContracts-test.sol:LuckyMachine","label":"_gameRequests","offset":0,"slot":"27","type":"t_mapping(t_bytes32,t_uint256)"},{"astId":586,"contract":"AllContracts-test.sol:LuckyMachine","label":"lastGameCreated","offset":0,"slot":"28","type":"t_mapping(t_address,t_uint256)"}],"types":{"t_address":{"encoding":"inplace","label":"address","numberOfBytes":"20"},"t_address_payable":{"encoding":"inplace","label":"address payable","numberOfBytes":"20"},"t_bool":{"encoding":"inplace","label":"bool","numberOfBytes":"1"},"t_bytes32":{"encoding":"inplace","label":"bytes32","numberOfBytes":"32"},"t_contract(LinkTokenInterface)392":{"encoding":"inplace","label":"contract LinkTokenInterface","numberOfBytes":"20"},"t_mapping(t_address,t_bool)":{"encoding":"mapping","key":"t_address","label":"mapping(address => bool)","numberOfBytes":"32","value":"t_bool"},"t_mapping(t_address,t_uint256)":{"encoding":"mapping","key":"t_address","label":"mapping(address => uint256)","numberOfBytes":"32","value":"t_uint256"},"t_mapping(t_bytes32,t_uint256)":{"encoding":"mapping","key":"t_bytes32","label":"mapping(bytes32 => uint256)","numberOfBytes":"32","value":"t_uint256"},"t_mapping(t_uint256,t_struct(Game)530_storage)":{"encoding":"mapping","key":"t_uint256","label":"mapping(uint256 => struct LuckyMachine.Game)","numberOfBytes":"32","value":"t_struct(Game)530_storage"},"t_struct(Game)530_storage":{"encoding":"inplace","label":"struct LuckyMachine.Game","members":[{"astId":519,"contract":"AllContracts-test.sol:LuckyMachine","label":"id","offset":0,"slot":"0","type":"t_uint256"},{"astId":521,"contract":"AllContracts-test.sol:LuckyMachine","label":"player","offset":0,"slot":"1","type":"t_address_payable"},{"astId":523,"contract":"AllContracts-test.sol:LuckyMachine","label":"bet","offset":0,"slot":"2","type":"t_uint256"},{"astId":525,"contract":"AllContracts-test.sol:LuckyMachine","label":"pick","offset":0,"slot":"3","type":"t_uint256"},{"astId":527,"contract":"AllContracts-test.sol:LuckyMachine","label":"winner","offset":0,"slot":"4","type":"t_uint256"},{"astId":529,"contract":"AllContracts-test.sol:LuckyMachine","label":"played","offset":0,"slot":"5","type":"t_bool"}],"numberOfBytes":"192"},"t_uint256":{"encoding":"inplace","label":"uint256","numberOfBytes":"32"}}},"userdoc":{"methods":{"safeBetFor(address,uint256)":{"notice":"s"}}}}