{"abi":[{"inputs":[{"internalType":"address","name":"machineCoordinator","type":"address"},{"internalType":"uint256","name":"maxBet","type":"uint256"},{"internalType":"uint256","name":"minBet","type":"uint256"},{"internalType":"uint256","name":"maxPick","type":"uint256"},{"internalType":"uint256","name":"payout","type":"uint256"}],"name":"createMachine","outputs":[{"internalType":"address","name":"","type":"address"}],"stateMutability":"nonpayable","type":"function"},{"inputs":[],"name":"getMachines","outputs":[{"internalType":"address[]","name":"","type":"address[]"}],"stateMutability":"view","type":"function"},{"inputs":[],"name":"getOwnedMachines","outputs":[{"internalType":"address[]","name":"","type":"address[]"}],"stateMutability":"view","type":"function"},{"inputs":[{"internalType":"uint256","name":"","type":"uint256"}],"name":"machines","outputs":[{"internalType":"address","name":"","type":"address"}],"stateMutability":"view","type":"function"}],"devdoc":{"methods":{"createMachine(address,uint256,uint256,uint256,uint256)":{"details":"Used to create a LuckyMachine that can be verified and included in the factory list."},"getMachines()":{"details":"Returns a list of all machines created from this factory. Useful to verify a machine was setup appropriately and is a \"legitimate\" LuckyMachine."},"getOwnedMachines()":{"details":"Returns a list of all machines created by the sender."}}},"evm":{"assembly":"    /* \"AllContracts.sol\":19855:21077  contract LuckyMachineFactory{... */\n  mstore(0x40, 0x80)\n  callvalue\n    /* \"--CODEGEN--\":8:17   */\n  dup1\n    /* \"--CODEGEN--\":5:7   */\n  iszero\n  tag_1\n  jumpi\n    /* \"--CODEGEN--\":30:31   */\n  0x00\n    /* \"--CODEGEN--\":27:28   */\n  dup1\n    /* \"--CODEGEN--\":20:32   */\n  revert\n    /* \"--CODEGEN--\":5:7   */\ntag_1:\n    /* \"AllContracts.sol\":19855:21077  contract LuckyMachineFactory{... */\n  pop\n  dataSize(sub_0)\n  dup1\n  dataOffset(sub_0)\n  0x00\n  codecopy\n  0x00\n  return\nstop\n\nsub_0: assembly {\n        /* \"AllContracts.sol\":19855:21077  contract LuckyMachineFactory{... */\n      mstore(0x40, 0x80)\n      callvalue\n        /* \"--CODEGEN--\":8:17   */\n      dup1\n        /* \"--CODEGEN--\":5:7   */\n      iszero\n      tag_1\n      jumpi\n        /* \"--CODEGEN--\":30:31   */\n      0x00\n        /* \"--CODEGEN--\":27:28   */\n      dup1\n        /* \"--CODEGEN--\":20:32   */\n      revert\n        /* \"--CODEGEN--\":5:7   */\n    tag_1:\n        /* \"AllContracts.sol\":19855:21077  contract LuckyMachineFactory{... */\n      pop\n      jumpi(tag_2, lt(calldatasize, 0x04))\n      shr(0xe0, calldataload(0x00))\n      dup1\n      0x2eb47613\n      eq\n      tag_3\n      jumpi\n      dup1\n      0x3df4f579\n      eq\n      tag_4\n      jumpi\n      dup1\n      0x4d42845c\n      eq\n      tag_5\n      jumpi\n      dup1\n      0x52b07b34\n      eq\n      tag_6\n      jumpi\n    tag_2:\n      0x00\n      dup1\n      revert\n        /* \"AllContracts.sol\":20959:21075  function getOwnedMachines() public view returns (address[] memory) {... */\n    tag_3:\n      tag_7\n      tag_8\n      jump\t// in\n    tag_7:\n      mload(0x40)\n      dup1\n      dup1\n      0x20\n      add\n      dup3\n      dup2\n      sub\n      dup3\n      mstore\n      dup4\n      dup2\n      dup2\n      mload\n      dup2\n      mstore\n      0x20\n      add\n      swap2\n      pop\n      dup1\n      mload\n      swap1\n      0x20\n      add\n      swap1\n      0x20\n      mul\n      dup1\n      dup4\n      dup4\n        /* \"--CODEGEN--\":23:24   */\n      0x00\n        /* \"--CODEGEN--\":8:108   */\n    tag_9:\n        /* \"--CODEGEN--\":33:36   */\n      dup4\n        /* \"--CODEGEN--\":30:31   */\n      dup2\n        /* \"--CODEGEN--\":27:37   */\n      lt\n        /* \"--CODEGEN--\":8:108   */\n      iszero\n      tag_11\n      jumpi\n        /* \"--CODEGEN--\":99:100   */\n      dup1\n        /* \"--CODEGEN--\":94:97   */\n      dup3\n        /* \"--CODEGEN--\":90:101   */\n      add\n        /* \"--CODEGEN--\":84:102   */\n      mload\n        /* \"--CODEGEN--\":80:81   */\n      dup2\n        /* \"--CODEGEN--\":75:78   */\n      dup5\n        /* \"--CODEGEN--\":71:82   */\n      add\n        /* \"--CODEGEN--\":64:103   */\n      mstore\n        /* \"--CODEGEN--\":52:54   */\n      0x20\n        /* \"--CODEGEN--\":49:50   */\n      dup2\n        /* \"--CODEGEN--\":45:55   */\n      add\n        /* \"--CODEGEN--\":40:55   */\n      swap1\n      pop\n        /* \"--CODEGEN--\":8:108   */\n      jump(tag_9)\n    tag_11:\n        /* \"--CODEGEN--\":12:26   */\n      pop\n        /* \"AllContracts.sol\":20959:21075  function getOwnedMachines() public view returns (address[] memory) {... */\n      pop\n      pop\n      pop\n      swap1\n      pop\n      add\n      swap3\n      pop\n      pop\n      pop\n      mload(0x40)\n      dup1\n      swap2\n      sub\n      swap1\n      return\n        /* \"AllContracts.sol\":20098:20591  function createMachine(address machineCoordinator, uint maxBet, uint minBet, uint maxPick, uint payout) public returns(address){... */\n    tag_4:\n      tag_12\n      0x04\n      dup1\n      calldatasize\n      sub\n        /* \"--CODEGEN--\":13:16   */\n      0xa0\n        /* \"--CODEGEN--\":8:11   */\n      dup2\n        /* \"--CODEGEN--\":5:17   */\n      lt\n        /* \"--CODEGEN--\":2:4   */\n      iszero\n      tag_13\n      jumpi\n        /* \"--CODEGEN--\":30:31   */\n      0x00\n        /* \"--CODEGEN--\":27:28   */\n      dup1\n        /* \"--CODEGEN--\":20:32   */\n      revert\n        /* \"--CODEGEN--\":2:4   */\n    tag_13:\n        /* \"AllContracts.sol\":20098:20591  function createMachine(address machineCoordinator, uint maxBet, uint minBet, uint maxPick, uint payout) public returns(address){... */\n      dup2\n      add\n      swap1\n      dup1\n      dup1\n      calldataload\n      0xffffffffffffffffffffffffffffffffffffffff\n      and\n      swap1\n      0x20\n      add\n      swap1\n      swap3\n      swap2\n      swap1\n      dup1\n      calldataload\n      swap1\n      0x20\n      add\n      swap1\n      swap3\n      swap2\n      swap1\n      dup1\n      calldataload\n      swap1\n      0x20\n      add\n      swap1\n      swap3\n      swap2\n      swap1\n      dup1\n      calldataload\n      swap1\n      0x20\n      add\n      swap1\n      swap3\n      swap2\n      swap1\n      dup1\n      calldataload\n      swap1\n      0x20\n      add\n      swap1\n      swap3\n      swap2\n      swap1\n      pop\n      pop\n      pop\n      tag_14\n      jump\t// in\n    tag_12:\n      mload(0x40)\n      dup1\n      dup3\n      0xffffffffffffffffffffffffffffffffffffffff\n      and\n      0xffffffffffffffffffffffffffffffffffffffff\n      and\n      dup2\n      mstore\n      0x20\n      add\n      swap2\n      pop\n      pop\n      mload(0x40)\n      dup1\n      swap2\n      sub\n      swap1\n      return\n        /* \"AllContracts.sol\":19889:19914  address[] public machines */\n    tag_5:\n      tag_15\n      0x04\n      dup1\n      calldatasize\n      sub\n        /* \"--CODEGEN--\":13:15   */\n      0x20\n        /* \"--CODEGEN--\":8:11   */\n      dup2\n        /* \"--CODEGEN--\":5:16   */\n      lt\n        /* \"--CODEGEN--\":2:4   */\n      iszero\n      tag_16\n      jumpi\n        /* \"--CODEGEN--\":29:30   */\n      0x00\n        /* \"--CODEGEN--\":26:27   */\n      dup1\n        /* \"--CODEGEN--\":19:31   */\n      revert\n        /* \"--CODEGEN--\":2:4   */\n    tag_16:\n        /* \"AllContracts.sol\":19889:19914  address[] public machines */\n      dup2\n      add\n      swap1\n      dup1\n      dup1\n      calldataload\n      swap1\n      0x20\n      add\n      swap1\n      swap3\n      swap2\n      swap1\n      pop\n      pop\n      pop\n      tag_17\n      jump\t// in\n    tag_15:\n      mload(0x40)\n      dup1\n      dup3\n      0xffffffffffffffffffffffffffffffffffffffff\n      and\n      0xffffffffffffffffffffffffffffffffffffffff\n      and\n      dup2\n      mstore\n      0x20\n      add\n      swap2\n      pop\n      pop\n      mload(0x40)\n      dup1\n      swap2\n      sub\n      swap1\n      return\n        /* \"AllContracts.sol\":20777:20871  function getMachines() public view returns (address[] memory) {... */\n    tag_6:\n      tag_18\n      tag_19\n      jump\t// in\n    tag_18:\n      mload(0x40)\n      dup1\n      dup1\n      0x20\n      add\n      dup3\n      dup2\n      sub\n      dup3\n      mstore\n      dup4\n      dup2\n      dup2\n      mload\n      dup2\n      mstore\n      0x20\n      add\n      swap2\n      pop\n      dup1\n      mload\n      swap1\n      0x20\n      add\n      swap1\n      0x20\n      mul\n      dup1\n      dup4\n      dup4\n        /* \"--CODEGEN--\":23:24   */\n      0x00\n        /* \"--CODEGEN--\":8:108   */\n    tag_20:\n        /* \"--CODEGEN--\":33:36   */\n      dup4\n        /* \"--CODEGEN--\":30:31   */\n      dup2\n        /* \"--CODEGEN--\":27:37   */\n      lt\n        /* \"--CODEGEN--\":8:108   */\n      iszero\n      tag_22\n      jumpi\n        /* \"--CODEGEN--\":99:100   */\n      dup1\n        /* \"--CODEGEN--\":94:97   */\n      dup3\n        /* \"--CODEGEN--\":90:101   */\n      add\n        /* \"--CODEGEN--\":84:102   */\n      mload\n        /* \"--CODEGEN--\":80:81   */\n      dup2\n        /* \"--CODEGEN--\":75:78   */\n      dup5\n        /* \"--CODEGEN--\":71:82   */\n      add\n        /* \"--CODEGEN--\":64:103   */\n      mstore\n        /* \"--CODEGEN--\":52:54   */\n      0x20\n        /* \"--CODEGEN--\":49:50   */\n      dup2\n        /* \"--CODEGEN--\":45:55   */\n      add\n        /* \"--CODEGEN--\":40:55   */\n      swap1\n      pop\n        /* \"--CODEGEN--\":8:108   */\n      jump(tag_20)\n    tag_22:\n        /* \"--CODEGEN--\":12:26   */\n      pop\n        /* \"AllContracts.sol\":20777:20871  function getMachines() public view returns (address[] memory) {... */\n      pop\n      pop\n      pop\n      swap1\n      pop\n      add\n      swap3\n      pop\n      pop\n      pop\n      mload(0x40)\n      dup1\n      swap2\n      sub\n      swap1\n      return\n        /* \"AllContracts.sol\":20959:21075  function getOwnedMachines() public view returns (address[] memory) {... */\n    tag_8:\n        /* \"AllContracts.sol\":21008:21024  address[] memory */\n      0x60\n        /* \"AllContracts.sol\":21043:21056  ownedMachines */\n      0x01\n        /* \"AllContracts.sol\":21043:21068  ownedMachines[msg.sender] */\n      0x00\n        /* \"AllContracts.sol\":21057:21067  msg.sender */\n      caller\n        /* \"AllContracts.sol\":21043:21068  ownedMachines[msg.sender] */\n      0xffffffffffffffffffffffffffffffffffffffff\n      and\n      0xffffffffffffffffffffffffffffffffffffffff\n      and\n      dup2\n      mstore\n      0x20\n      add\n      swap1\n      dup2\n      mstore\n      0x20\n      add\n      0x00\n      keccak256\n        /* \"AllContracts.sol\":21036:21068  return ownedMachines[msg.sender] */\n      dup1\n      sload\n      dup1\n      0x20\n      mul\n      0x20\n      add\n      mload(0x40)\n      swap1\n      dup2\n      add\n      0x40\n      mstore\n      dup1\n      swap3\n      swap2\n      swap1\n      dup2\n      dup2\n      mstore\n      0x20\n      add\n      dup3\n      dup1\n      sload\n      dup1\n      iszero\n      tag_24\n      jumpi\n      0x20\n      mul\n      dup3\n      add\n      swap2\n      swap1\n      0x00\n      mstore\n      keccak256(0x00, 0x20)\n      swap1\n    tag_25:\n      dup2\n      0x00\n      swap1\n      sload\n      swap1\n      0x0100\n      exp\n      swap1\n      div\n      0xffffffffffffffffffffffffffffffffffffffff\n      and\n      0xffffffffffffffffffffffffffffffffffffffff\n      and\n      dup2\n      mstore\n      0x20\n      add\n      swap1\n      0x01\n      add\n      swap1\n      dup1\n      dup4\n      gt\n      tag_25\n      jumpi\n    tag_24:\n      pop\n      pop\n      pop\n      pop\n      pop\n      swap1\n      pop\n        /* \"AllContracts.sol\":20959:21075  function getOwnedMachines() public view returns (address[] memory) {... */\n      swap1\n      jump\t// out\n        /* \"AllContracts.sol\":20098:20591  function createMachine(address machineCoordinator, uint maxBet, uint minBet, uint maxPick, uint payout) public returns(address){... */\n    tag_14:\n        /* \"AllContracts.sol\":20217:20224  address */\n      0x00\n        /* \"AllContracts.sol\":20235:20258  LuckyMachine newMachine */\n      dup1\n        /* \"AllContracts.sol\":20278:20296  machineCoordinator */\n      dup7\n        /* \"AllContracts.sol\":20298:20308  msg.sender */\n      caller\n        /* \"AllContracts.sol\":20310:20316  maxBet */\n      dup8\n        /* \"AllContracts.sol\":20318:20324  minBet */\n      dup8\n        /* \"AllContracts.sol\":20326:20333  maxPick */\n      dup8\n        /* \"AllContracts.sol\":20335:20341  payout */\n      dup8\n        /* \"AllContracts.sol\":20261:20342  new LuckyMachine(machineCoordinator, msg.sender, maxBet, minBet, maxPick, payout) */\n      mload(0x40)\n      tag_27\n      swap1\n      tag_28\n      jump\t// in\n    tag_27:\n      dup1\n      dup8\n      0xffffffffffffffffffffffffffffffffffffffff\n      and\n      0xffffffffffffffffffffffffffffffffffffffff\n      and\n      dup2\n      mstore\n      0x20\n      add\n      dup7\n      0xffffffffffffffffffffffffffffffffffffffff\n      and\n      0xffffffffffffffffffffffffffffffffffffffff\n      and\n      dup2\n      mstore\n      0x20\n      add\n      dup6\n      dup2\n      mstore\n      0x20\n      add\n      dup5\n      dup2\n      mstore\n      0x20\n      add\n      dup4\n      dup2\n      mstore\n      0x20\n      add\n      dup3\n      dup2\n      mstore\n      0x20\n      add\n      swap7\n      pop\n      pop\n      pop\n      pop\n      pop\n      pop\n      pop\n      mload(0x40)\n      dup1\n      swap2\n      sub\n      swap1\n      0x00\n      create\n      dup1\n      iszero\n        /* \"--CODEGEN--\":8:17   */\n      dup1\n        /* \"--CODEGEN--\":5:7   */\n      iszero\n      tag_29\n      jumpi\n        /* \"--CODEGEN--\":45:61   */\n      returndatasize\n        /* \"--CODEGEN--\":42:43   */\n      0x00\n        /* \"--CODEGEN--\":39:40   */\n      dup1\n        /* \"--CODEGEN--\":24:62   */\n      returndatacopy\n        /* \"--CODEGEN--\":77:93   */\n      returndatasize\n        /* \"--CODEGEN--\":74:75   */\n      0x00\n        /* \"--CODEGEN--\":67:94   */\n      revert\n        /* \"--CODEGEN--\":5:7   */\n    tag_29:\n        /* \"AllContracts.sol\":20261:20342  new LuckyMachine(machineCoordinator, msg.sender, maxBet, minBet, maxPick, payout) */\n      pop\n        /* \"AllContracts.sol\":20235:20342  LuckyMachine newMachine = new LuckyMachine(machineCoordinator, msg.sender, maxBet, minBet, maxPick, payout) */\n      swap1\n      pop\n        /* \"AllContracts.sol\":20352:20362  newMachine */\n      dup1\n        /* \"AllContracts.sol\":20352:20380  newMachine.transferOwnership */\n      0xffffffffffffffffffffffffffffffffffffffff\n      and\n      0xf2fde38b\n        /* \"AllContracts.sol\":20381:20391  msg.sender */\n      caller\n        /* \"AllContracts.sol\":20352:20392  newMachine.transferOwnership(msg.sender) */\n      mload(0x40)\n      dup3\n      0xffffffff\n      and\n      0xe0\n      shl\n      dup2\n      mstore\n      0x04\n      add\n      dup1\n      dup3\n      0xffffffffffffffffffffffffffffffffffffffff\n      and\n      0xffffffffffffffffffffffffffffffffffffffff\n      and\n      dup2\n      mstore\n      0x20\n      add\n      swap2\n      pop\n      pop\n      0x00\n      mload(0x40)\n      dup1\n      dup4\n      sub\n      dup2\n      0x00\n      dup8\n      dup1\n      extcodesize\n      iszero\n        /* \"--CODEGEN--\":8:17   */\n      dup1\n        /* \"--CODEGEN--\":5:7   */\n      iszero\n      tag_30\n      jumpi\n        /* \"--CODEGEN--\":30:31   */\n      0x00\n        /* \"--CODEGEN--\":27:28   */\n      dup1\n        /* \"--CODEGEN--\":20:32   */\n      revert\n        /* \"--CODEGEN--\":5:7   */\n    tag_30:\n        /* \"AllContracts.sol\":20352:20392  newMachine.transferOwnership(msg.sender) */\n      pop\n      gas\n      call\n      iszero\n        /* \"--CODEGEN--\":8:17   */\n      dup1\n        /* \"--CODEGEN--\":5:7   */\n      iszero\n      tag_32\n      jumpi\n        /* \"--CODEGEN--\":45:61   */\n      returndatasize\n        /* \"--CODEGEN--\":42:43   */\n      0x00\n        /* \"--CODEGEN--\":39:40   */\n      dup1\n        /* \"--CODEGEN--\":24:62   */\n      returndatacopy\n        /* \"--CODEGEN--\":77:93   */\n      returndatasize\n        /* \"--CODEGEN--\":74:75   */\n      0x00\n        /* \"--CODEGEN--\":67:94   */\n      revert\n        /* \"--CODEGEN--\":5:7   */\n    tag_32:\n        /* \"AllContracts.sol\":20352:20392  newMachine.transferOwnership(msg.sender) */\n      pop\n      pop\n      pop\n      pop\n        /* \"AllContracts.sol\":20402:20427  address newMachineAddress */\n      0x00\n        /* \"AllContracts.sol\":20438:20448  newMachine */\n      dup2\n        /* \"AllContracts.sol\":20402:20449  address newMachineAddress = address(newMachine) */\n      swap1\n      pop\n        /* \"AllContracts.sol\":20459:20467  machines */\n      0x00\n        /* \"AllContracts.sol\":20473:20490  newMachineAddress */\n      dup2\n        /* \"AllContracts.sol\":20459:20491  machines.push(newMachineAddress) */\n      swap1\n      dup1\n        /* \"--CODEGEN--\":39:40   */\n      0x01\n        /* \"--CODEGEN--\":33:36   */\n      dup2\n        /* \"--CODEGEN--\":27:37   */\n      sload\n        /* \"--CODEGEN--\":23:41   */\n      add\n        /* \"--CODEGEN--\":57:67   */\n      dup1\n        /* \"--CODEGEN--\":52:55   */\n      dup3\n        /* \"--CODEGEN--\":45:68   */\n      sstore\n        /* \"--CODEGEN--\":79:89   */\n      dup1\n        /* \"--CODEGEN--\":72:89   */\n      swap2\n      pop\n        /* \"--CODEGEN--\":0:93   */\n      pop\n        /* \"AllContracts.sol\":20459:20491  machines.push(newMachineAddress) */\n      0x01\n      swap1\n      sub\n      swap1\n      0x00\n      mstore\n      keccak256(0x00, 0x20)\n      add\n      0x00\n      swap1\n      swap2\n      swap1\n      swap2\n      swap1\n      swap2\n      0x0100\n      exp\n      dup2\n      sload\n      dup2\n      0xffffffffffffffffffffffffffffffffffffffff\n      mul\n      not\n      and\n      swap1\n      dup4\n      0xffffffffffffffffffffffffffffffffffffffff\n      and\n      mul\n      or\n      swap1\n      sstore\n      pop\n        /* \"AllContracts.sol\":20501:20514  ownedMachines */\n      0x01\n        /* \"AllContracts.sol\":20501:20526  ownedMachines[msg.sender] */\n      0x00\n        /* \"AllContracts.sol\":20515:20525  msg.sender */\n      caller\n        /* \"AllContracts.sol\":20501:20526  ownedMachines[msg.sender] */\n      0xffffffffffffffffffffffffffffffffffffffff\n      and\n      0xffffffffffffffffffffffffffffffffffffffff\n      and\n      dup2\n      mstore\n      0x20\n      add\n      swap1\n      dup2\n      mstore\n      0x20\n      add\n      0x00\n      keccak256\n        /* \"AllContracts.sol\":20532:20549  newMachineAddress */\n      dup2\n        /* \"AllContracts.sol\":20501:20550  ownedMachines[msg.sender].push(newMachineAddress) */\n      swap1\n      dup1\n        /* \"--CODEGEN--\":39:40   */\n      0x01\n        /* \"--CODEGEN--\":33:36   */\n      dup2\n        /* \"--CODEGEN--\":27:37   */\n      sload\n        /* \"--CODEGEN--\":23:41   */\n      add\n        /* \"--CODEGEN--\":57:67   */\n      dup1\n        /* \"--CODEGEN--\":52:55   */\n      dup3\n        /* \"--CODEGEN--\":45:68   */\n      sstore\n        /* \"--CODEGEN--\":79:89   */\n      dup1\n        /* \"--CODEGEN--\":72:89   */\n      swap2\n      pop\n        /* \"--CODEGEN--\":0:93   */\n      pop\n        /* \"AllContracts.sol\":20501:20550  ownedMachines[msg.sender].push(newMachineAddress) */\n      0x01\n      swap1\n      sub\n      swap1\n      0x00\n      mstore\n      keccak256(0x00, 0x20)\n      add\n      0x00\n      swap1\n      swap2\n      swap1\n      swap2\n      swap1\n      swap2\n      0x0100\n      exp\n      dup2\n      sload\n      dup2\n      0xffffffffffffffffffffffffffffffffffffffff\n      mul\n      not\n      and\n      swap1\n      dup4\n      0xffffffffffffffffffffffffffffffffffffffff\n      and\n      mul\n      or\n      swap1\n      sstore\n      pop\n        /* \"AllContracts.sol\":20567:20584  newMachineAddress */\n      dup1\n        /* \"AllContracts.sol\":20560:20584  return newMachineAddress */\n      swap3\n      pop\n      pop\n      pop\n        /* \"AllContracts.sol\":20098:20591  function createMachine(address machineCoordinator, uint maxBet, uint minBet, uint maxPick, uint payout) public returns(address){... */\n      swap6\n      swap5\n      pop\n      pop\n      pop\n      pop\n      pop\n      jump\t// out\n        /* \"AllContracts.sol\":19889:19914  address[] public machines */\n    tag_17:\n      0x00\n      dup2\n      dup2\n      sload\n      dup2\n      lt\n      tag_35\n      jumpi\n      invalid\n    tag_35:\n      swap1\n      0x00\n      mstore\n      keccak256(0x00, 0x20)\n      add\n      0x00\n      swap2\n      pop\n      sload\n      swap1\n      0x0100\n      exp\n      swap1\n      div\n      0xffffffffffffffffffffffffffffffffffffffff\n      and\n      dup2\n      jump\t// out\n        /* \"AllContracts.sol\":20777:20871  function getMachines() public view returns (address[] memory) {... */\n    tag_19:\n        /* \"AllContracts.sol\":20821:20837  address[] memory */\n      0x60\n        /* \"AllContracts.sol\":20856:20864  machines */\n      0x00\n        /* \"AllContracts.sol\":20849:20864  return machines */\n      dup1\n      sload\n      dup1\n      0x20\n      mul\n      0x20\n      add\n      mload(0x40)\n      swap1\n      dup2\n      add\n      0x40\n      mstore\n      dup1\n      swap3\n      swap2\n      swap1\n      dup2\n      dup2\n      mstore\n      0x20\n      add\n      dup3\n      dup1\n      sload\n      dup1\n      iszero\n      tag_38\n      jumpi\n      0x20\n      mul\n      dup3\n      add\n      swap2\n      swap1\n      0x00\n      mstore\n      keccak256(0x00, 0x20)\n      swap1\n    tag_39:\n      dup2\n      0x00\n      swap1\n      sload\n      swap1\n      0x0100\n      exp\n      swap1\n      div\n      0xffffffffffffffffffffffffffffffffffffffff\n      and\n      0xffffffffffffffffffffffffffffffffffffffff\n      and\n      dup2\n      mstore\n      0x20\n      add\n      swap1\n      0x01\n      add\n      swap1\n      dup1\n      dup4\n      gt\n      tag_39\n      jumpi\n    tag_38:\n      pop\n      pop\n      pop\n      pop\n      pop\n      swap1\n      pop\n        /* \"AllContracts.sol\":20777:20871  function getMachines() public view returns (address[] memory) {... */\n      swap1\n      jump\t// out\n        /* \"AllContracts.sol\":19855:21077  contract LuckyMachineFactory{... */\n    tag_28:\n      dataSize(sub_0)\n      dup1\n      dataOffset(sub_0)\n      dup4\n      codecopy\n      add\n      swap1\n      jump\t// out\n    stop\n\n    sub_0: assembly {\n            /* \"AllContracts.sol\":8218:19853  contract LuckyMachine is Ownable {... */\n          mstore(0x40, 0x80)\n            /* \"AllContracts.sol\":9417:10356  constructor(address _machineCoordinator, address payable _payoutAddress, uint _maxBet, uint _minBet, uint _maxPick, uint _payout) public {... */\n          callvalue\n            /* \"--CODEGEN--\":8:17   */\n          dup1\n            /* \"--CODEGEN--\":5:7   */\n          iszero\n          tag_1\n          jumpi\n            /* \"--CODEGEN--\":30:31   */\n          0x00\n            /* \"--CODEGEN--\":27:28   */\n          dup1\n            /* \"--CODEGEN--\":20:32   */\n          revert\n            /* \"--CODEGEN--\":5:7   */\n        tag_1:\n            /* \"AllContracts.sol\":9417:10356  constructor(address _machineCoordinator, address payable _payoutAddress, uint _maxBet, uint _minBet, uint _maxPick, uint _payout) public {... */\n          pop\n          mload(0x40)\n          sub(codesize, bytecodeSize)\n          dup1\n          bytecodeSize\n          dup4\n          codecopy\n          dup2\n          dup2\n          add\n          0x40\n          mstore\n            /* \"--CODEGEN--\":13:16   */\n          0xc0\n            /* \"--CODEGEN--\":8:11   */\n          dup2\n            /* \"--CODEGEN--\":5:17   */\n          lt\n            /* \"--CODEGEN--\":2:4   */\n          iszero\n          tag_2\n          jumpi\n            /* \"--CODEGEN--\":30:31   */\n          0x00\n            /* \"--CODEGEN--\":27:28   */\n          dup1\n            /* \"--CODEGEN--\":20:32   */\n          revert\n            /* \"--CODEGEN--\":2:4   */\n        tag_2:\n            /* \"AllContracts.sol\":9417:10356  constructor(address _machineCoordinator, address payable _payoutAddress, uint _maxBet, uint _minBet, uint _maxPick, uint _payout) public {... */\n          dup2\n          add\n          swap1\n          dup1\n          dup1\n          mload\n          swap1\n          0x20\n          add\n          swap1\n          swap3\n          swap2\n          swap1\n          dup1\n          mload\n          swap1\n          0x20\n          add\n          swap1\n          swap3\n          swap2\n          swap1\n          dup1\n          mload\n          swap1\n          0x20\n          add\n          swap1\n          swap3\n          swap2\n          swap1\n          dup1\n          mload\n          swap1\n          0x20\n          add\n          swap1\n          swap3\n          swap2\n          swap1\n          dup1\n          mload\n          swap1\n          0x20\n          add\n          swap1\n          swap3\n          swap2\n          swap1\n          dup1\n          mload\n          swap1\n          0x20\n          add\n          swap1\n          swap3\n          swap2\n          swap1\n          pop\n          pop\n          pop\n            /* \"AllContracts.sol\":726:743  address msgSender */\n          0x00\n            /* \"AllContracts.sol\":746:758  _msgSender() */\n          tag_6\n            /* \"AllContracts.sol\":746:756  _msgSender */\n          shl(0x20, tag_7)\n            /* \"AllContracts.sol\":746:758  _msgSender() */\n          0x20\n          shr\n          jump\t// in\n        tag_6:\n            /* \"AllContracts.sol\":726:758  address msgSender = _msgSender() */\n          swap1\n          pop\n            /* \"AllContracts.sol\":777:786  msgSender */\n          dup1\n            /* \"AllContracts.sol\":768:774  _owner */\n          0x00\n          dup1\n            /* \"AllContracts.sol\":768:786  _owner = msgSender */\n          0x0100\n          exp\n          dup2\n          sload\n          dup2\n          0xffffffffffffffffffffffffffffffffffffffff\n          mul\n          not\n          and\n          swap1\n          dup4\n          0xffffffffffffffffffffffffffffffffffffffff\n          and\n          mul\n          or\n          swap1\n          sstore\n          pop\n            /* \"AllContracts.sol\":834:843  msgSender */\n          dup1\n            /* \"AllContracts.sol\":801:844  OwnershipTransferred(address(0), msgSender) */\n          0xffffffffffffffffffffffffffffffffffffffff\n          and\n            /* \"AllContracts.sol\":830:831  0 */\n          0x00\n            /* \"AllContracts.sol\":801:844  OwnershipTransferred(address(0), msgSender) */\n          0xffffffffffffffffffffffffffffffffffffffff\n          and\n          0x8be0079c531659141344cd1fd0a4f28419497f9722a3daafe3b4186f6b6457e0\n          mload(0x40)\n          mload(0x40)\n          dup1\n          swap2\n          sub\n          swap1\n          log3\n            /* \"AllContracts.sol\":692:851  constructor () internal {... */\n          pop\n            /* \"AllContracts.sol\":9589:9608  _machineCoordinator */\n          dup6\n            /* \"AllContracts.sol\":9568:9586  machineCoordinator */\n          0x02\n          0x00\n            /* \"AllContracts.sol\":9568:9608  machineCoordinator = _machineCoordinator */\n          0x0100\n          exp\n          dup2\n          sload\n          dup2\n          0xffffffffffffffffffffffffffffffffffffffff\n          mul\n          not\n          and\n          swap1\n          dup4\n          0xffffffffffffffffffffffffffffffffffffffff\n          and\n          mul\n          or\n          swap1\n          sstore\n          pop\n            /* \"AllContracts.sol\":9637:9638  1 */\n          0x01\n            /* \"AllContracts.sol\":9622:9634  _currentGame */\n          0x12\n            /* \"AllContracts.sol\":9622:9638  _currentGame = 1 */\n          dup2\n          swap1\n          sstore\n          pop\n            /* \"AllContracts.sol\":9668:9669  0 */\n          0x00\n            /* \"AllContracts.sol\":9652:9665  _unplayedBets */\n          0x11\n            /* \"AllContracts.sol\":9652:9669  _unplayedBets = 0 */\n          dup2\n          swap1\n          sstore\n          pop\n            /* \"AllContracts.sol\":9699:9713  _payoutAddress */\n          dup5\n            /* \"AllContracts.sol\":9683:9696  payoutAddress */\n          0x13\n          0x00\n            /* \"AllContracts.sol\":9683:9713  payoutAddress = _payoutAddress */\n          0x0100\n          exp\n          dup2\n          sload\n          dup2\n          0xffffffffffffffffffffffffffffffffffffffff\n          mul\n          not\n          and\n          swap1\n          dup4\n          0xffffffffffffffffffffffffffffffffffffffff\n          and\n          mul\n          or\n          swap1\n          sstore\n          pop\n            /* \"AllContracts.sol\":9736:9743  _minBet */\n          dup3\n            /* \"AllContracts.sol\":9727:9733  minBet */\n          0x10\n            /* \"AllContracts.sol\":9727:9743  minBet = _minBet */\n          dup2\n          swap1\n          sstore\n          pop\n            /* \"AllContracts.sol\":9766:9773  _maxBet */\n          dup4\n            /* \"AllContracts.sol\":9757:9763  maxBet */\n          0x0f\n            /* \"AllContracts.sol\":9757:9773  maxBet = _maxBet */\n          dup2\n          swap1\n          sstore\n          pop\n            /* \"AllContracts.sol\":9797:9805  _maxPick */\n          dup2\n            /* \"AllContracts.sol\":9787:9794  maxPick */\n          0x0e\n            /* \"AllContracts.sol\":9787:9805  maxPick = _maxPick */\n          dup2\n          swap1\n          sstore\n          pop\n            /* \"AllContracts.sol\":9828:9835  _payout */\n          dup1\n            /* \"AllContracts.sol\":9819:9825  payout */\n          0x14\n            /* \"AllContracts.sol\":9819:9835  payout = _payout */\n          dup2\n          swap1\n          sstore\n          pop\n            /* \"AllContracts.sol\":9857:9858  1 */\n          0x01\n            /* \"AllContracts.sol\":9850:9854  gas1 */\n          0x03\n            /* \"AllContracts.sol\":9850:9858  gas1 = 1 */\n          dup2\n          swap1\n          sstore\n          pop\n            /* \"AllContracts.sol\":9879:9880  1 */\n          0x01\n            /* \"AllContracts.sol\":9872:9876  gas2 */\n          0x04\n            /* \"AllContracts.sol\":9872:9880  gas2 = 1 */\n          dup2\n          swap1\n          sstore\n          pop\n            /* \"AllContracts.sol\":9901:9902  1 */\n          0x01\n            /* \"AllContracts.sol\":9894:9898  gas3 */\n          0x05\n            /* \"AllContracts.sol\":9894:9902  gas3 = 1 */\n          dup2\n          swap1\n          sstore\n          pop\n            /* \"AllContracts.sol\":9923:9924  1 */\n          0x01\n            /* \"AllContracts.sol\":9916:9920  gas4 */\n          0x06\n            /* \"AllContracts.sol\":9916:9924  gas4 = 1 */\n          dup2\n          swap1\n          sstore\n          pop\n            /* \"AllContracts.sol\":9945:9946  1 */\n          0x01\n            /* \"AllContracts.sol\":9938:9942  gas5 */\n          0x07\n            /* \"AllContracts.sol\":9938:9946  gas5 = 1 */\n          dup2\n          swap1\n          sstore\n          pop\n            /* \"AllContracts.sol\":9967:9968  1 */\n          0x01\n            /* \"AllContracts.sol\":9960:9964  gas6 */\n          0x08\n            /* \"AllContracts.sol\":9960:9968  gas6 = 1 */\n          dup2\n          swap1\n          sstore\n          pop\n            /* \"AllContracts.sol\":9989:9990  1 */\n          0x01\n            /* \"AllContracts.sol\":9982:9986  gas7 */\n          0x09\n            /* \"AllContracts.sol\":9982:9990  gas7 = 1 */\n          dup2\n          swap1\n          sstore\n          pop\n            /* \"AllContracts.sol\":10011:10012  1 */\n          0x01\n            /* \"AllContracts.sol\":10004:10008  gas8 */\n          0x0a\n            /* \"AllContracts.sol\":10004:10012  gas8 = 1 */\n          dup2\n          swap1\n          sstore\n          pop\n            /* \"AllContracts.sol\":10033:10034  1 */\n          0x01\n            /* \"AllContracts.sol\":10026:10030  gas9 */\n          0x0b\n            /* \"AllContracts.sol\":10026:10034  gas9 = 1 */\n          dup2\n          swap1\n          sstore\n          pop\n            /* \"AllContracts.sol\":10056:10057  1 */\n          0x01\n            /* \"AllContracts.sol\":10048:10053  gas10 */\n          0x0c\n            /* \"AllContracts.sol\":10048:10057  gas10 = 1 */\n          dup2\n          swap1\n          sstore\n          pop\n            /* \"AllContracts.sol\":10079:10080  1 */\n          0x01\n            /* \"AllContracts.sol\":10071:10076  gas11 */\n          0x0d\n            /* \"AllContracts.sol\":10071:10080  gas11 = 1 */\n          dup2\n          swap1\n          sstore\n          pop\n            /* \"AllContracts.sol\":10170:10212  0xa36085F69e2889c224210F603D836748e7dC0088 */\n          0xa36085f69e2889c224210f603d836748e7dc0088\n            /* \"AllContracts.sol\":10136:10140  LINK */\n          0x01\n          0x00\n            /* \"AllContracts.sol\":10136:10214  LINK = LinkTokenInterface(address(0xa36085F69e2889c224210F603D836748e7dC0088)) */\n          0x0100\n          exp\n          dup2\n          sload\n          dup2\n          0xffffffffffffffffffffffffffffffffffffffff\n          mul\n          not\n          and\n          swap1\n          dup4\n          0xffffffffffffffffffffffffffffffffffffffff\n          and\n          mul\n          or\n          swap1\n          sstore\n          pop\n            /* \"AllContracts.sol\":10228:10250  uint256 approvalAmount */\n          0x00\n            /* \"AllContracts.sol\":10253:10254  0 */\n          dup1\n            /* \"AllContracts.sol\":10228:10254  uint256 approvalAmount = 0 */\n          swap1\n          pop\n            /* \"AllContracts.sol\":10286:10287  1 */\n          0x01\n            /* \"AllContracts.sol\":10268:10287  approvalAmount -= 1 */\n          dup2\n          sub\n          swap1\n          pop\n            /* \"AllContracts.sol\":10301:10305  LINK */\n          0x01\n          0x00\n          swap1\n          sload\n          swap1\n          0x0100\n          exp\n          swap1\n          div\n          0xffffffffffffffffffffffffffffffffffffffff\n          and\n            /* \"AllContracts.sol\":10301:10313  LINK.approve */\n          0xffffffffffffffffffffffffffffffffffffffff\n          and\n          0x095ea7b3\n            /* \"AllContracts.sol\":10314:10332  machineCoordinator */\n          0x02\n          0x00\n          swap1\n          sload\n          swap1\n          0x0100\n          exp\n          swap1\n          div\n          0xffffffffffffffffffffffffffffffffffffffff\n          and\n            /* \"AllContracts.sol\":10334:10348  approvalAmount */\n          dup4\n            /* \"AllContracts.sol\":10301:10349  LINK.approve(machineCoordinator, approvalAmount) */\n          mload(0x40)\n          dup4\n          0xffffffff\n          and\n          0xe0\n          shl\n          dup2\n          mstore\n          0x04\n          add\n          dup1\n          dup4\n          0xffffffffffffffffffffffffffffffffffffffff\n          and\n          0xffffffffffffffffffffffffffffffffffffffff\n          and\n          dup2\n          mstore\n          0x20\n          add\n          dup3\n          dup2\n          mstore\n          0x20\n          add\n          swap3\n          pop\n          pop\n          pop\n          0x20\n          mload(0x40)\n          dup1\n          dup4\n          sub\n          dup2\n          0x00\n          dup8\n          dup1\n          extcodesize\n          iszero\n            /* \"--CODEGEN--\":8:17   */\n          dup1\n            /* \"--CODEGEN--\":5:7   */\n          iszero\n          tag_9\n          jumpi\n            /* \"--CODEGEN--\":30:31   */\n          0x00\n            /* \"--CODEGEN--\":27:28   */\n          dup1\n            /* \"--CODEGEN--\":20:32   */\n          revert\n            /* \"--CODEGEN--\":5:7   */\n        tag_9:\n            /* \"AllContracts.sol\":10301:10349  LINK.approve(machineCoordinator, approvalAmount) */\n          pop\n          gas\n          call\n          iszero\n            /* \"--CODEGEN--\":8:17   */\n          dup1\n            /* \"--CODEGEN--\":5:7   */\n          iszero\n          tag_11\n          jumpi\n            /* \"--CODEGEN--\":45:61   */\n          returndatasize\n            /* \"--CODEGEN--\":42:43   */\n          0x00\n            /* \"--CODEGEN--\":39:40   */\n          dup1\n            /* \"--CODEGEN--\":24:62   */\n          returndatacopy\n            /* \"--CODEGEN--\":77:93   */\n          returndatasize\n            /* \"--CODEGEN--\":74:75   */\n          0x00\n            /* \"--CODEGEN--\":67:94   */\n          revert\n            /* \"--CODEGEN--\":5:7   */\n        tag_11:\n            /* \"AllContracts.sol\":10301:10349  LINK.approve(machineCoordinator, approvalAmount) */\n          pop\n          pop\n          pop\n          pop\n          mload(0x40)\n          returndatasize\n            /* \"--CODEGEN--\":13:15   */\n          0x20\n            /* \"--CODEGEN--\":8:11   */\n          dup2\n            /* \"--CODEGEN--\":5:16   */\n          lt\n            /* \"--CODEGEN--\":2:4   */\n          iszero\n          tag_12\n          jumpi\n            /* \"--CODEGEN--\":29:30   */\n          0x00\n            /* \"--CODEGEN--\":26:27   */\n          dup1\n            /* \"--CODEGEN--\":19:31   */\n          revert\n            /* \"--CODEGEN--\":2:4   */\n        tag_12:\n            /* \"AllContracts.sol\":10301:10349  LINK.approve(machineCoordinator, approvalAmount) */\n          dup2\n          add\n          swap1\n          dup1\n          dup1\n          mload\n          swap1\n          0x20\n          add\n          swap1\n          swap3\n          swap2\n          swap1\n          pop\n          pop\n          pop\n          pop\n            /* \"AllContracts.sol\":9417:10356  constructor(address _machineCoordinator, address payable _payoutAddress, uint _maxBet, uint _minBet, uint _maxPick, uint _payout) public {... */\n          pop\n          pop\n          pop\n          pop\n          pop\n          pop\n          pop\n            /* \"AllContracts.sol\":8218:19853  contract LuckyMachine is Ownable {... */\n          jump(tag_13)\n            /* \"AllContracts.sol\":90:194  function _msgSender() internal view virtual returns (address payable) {... */\n        tag_7:\n            /* \"AllContracts.sol\":143:158  address payable */\n          0x00\n            /* \"AllContracts.sol\":177:187  msg.sender */\n          caller\n            /* \"AllContracts.sol\":170:187  return msg.sender */\n          swap1\n          pop\n            /* \"AllContracts.sol\":90:194  function _msgSender() internal view virtual returns (address payable) {... */\n          swap1\n          jump\t// out\n            /* \"AllContracts.sol\":8218:19853  contract LuckyMachine is Ownable {... */\n        tag_13:\n          dataSize(sub_0)\n          dup1\n          dataOffset(sub_0)\n          0x00\n          codecopy\n          0x00\n          return\n        stop\n\n        sub_0: assembly {\n                /* \"AllContracts.sol\":8218:19853  contract LuckyMachine is Ownable {... */\n              mstore(0x40, 0x80)\n              jumpi(tag_1, lt(calldatasize, 0x04))\n              shr(0xe0, calldataload(0x00))\n              dup1\n              0x7a8042bd\n              gt\n              tag_30\n              jumpi\n              dup1\n              0xb843f5ab\n              gt\n              tag_31\n              jumpi\n              dup1\n              0xd9e721f8\n              gt\n              tag_32\n              jumpi\n              dup1\n              0xd9e721f8\n              eq\n              tag_26\n              jumpi\n              dup1\n              0xdfad4c11\n              eq\n              tag_27\n              jumpi\n              dup1\n              0xf2fde38b\n              eq\n              tag_28\n              jumpi\n              dup1\n              0xf31a4dcd\n              eq\n              tag_29\n              jumpi\n              jump(tag_2)\n            tag_32:\n              dup1\n              0xb843f5ab\n              eq\n              tag_23\n              jumpi\n              dup1\n              0xb93030b3\n              eq\n              tag_24\n              jumpi\n              dup1\n              0xc311d049\n              eq\n              tag_25\n              jumpi\n              jump(tag_2)\n            tag_31:\n              dup1\n              0xa02e0616\n              gt\n              tag_33\n              jumpi\n              dup1\n              0xa02e0616\n              eq\n              tag_19\n              jumpi\n              dup1\n              0xa249225e\n              eq\n              tag_20\n              jumpi\n              dup1\n              0xa4b2409e\n              eq\n              tag_21\n              jumpi\n              dup1\n              0xac150fd8\n              eq\n              tag_22\n              jumpi\n              jump(tag_2)\n            tag_33:\n              dup1\n              0x7a8042bd\n              eq\n              tag_16\n              jumpi\n              dup1\n              0x8da5cb5b\n              eq\n              tag_17\n              jumpi\n              dup1\n              0x9619367d\n              eq\n              tag_18\n              jumpi\n              jump(tag_2)\n            tag_30:\n              dup1\n              0x33ea51a8\n              gt\n              tag_34\n              jumpi\n              dup1\n              0x50c5f975\n              gt\n              tag_35\n              jumpi\n              dup1\n              0x50c5f975\n              eq\n              tag_12\n              jumpi\n              dup1\n              0x5b8d02d7\n              eq\n              tag_13\n              jumpi\n              dup1\n              0x63bd1d4a\n              eq\n              tag_14\n              jumpi\n              dup1\n              0x715018a6\n              eq\n              tag_15\n              jumpi\n              jump(tag_2)\n            tag_35:\n              dup1\n              0x33ea51a8\n              eq\n              tag_9\n              jumpi\n              dup1\n              0x3638104a\n              eq\n              tag_10\n              jumpi\n              dup1\n              0x4051ddac\n              eq\n              tag_11\n              jumpi\n              jump(tag_2)\n            tag_34:\n              dup1\n              0x0c610a12\n              eq\n              tag_3\n              jumpi\n              dup1\n              0x117a5b90\n              eq\n              tag_4\n              jumpi\n              dup1\n              0x19465b7c\n              eq\n              tag_5\n              jumpi\n              dup1\n              0x1f1f897f\n              eq\n              tag_6\n              jumpi\n              dup1\n              0x2e5b2168\n              eq\n              tag_7\n              jumpi\n              dup1\n              0x2ee42d8a\n              eq\n              tag_8\n              jumpi\n              jump(tag_2)\n            tag_1:\n              jumpi(tag_2, calldatasize)\n              stop\n            tag_2:\n              0x00\n              dup1\n              revert\n                /* \"AllContracts.sol\":11136:11285  function betPayable(uint bet) public view returns(bool){... */\n            tag_3:\n              callvalue\n                /* \"--CODEGEN--\":8:17   */\n              dup1\n                /* \"--CODEGEN--\":5:7   */\n              iszero\n              tag_38\n              jumpi\n                /* \"--CODEGEN--\":30:31   */\n              0x00\n                /* \"--CODEGEN--\":27:28   */\n              dup1\n                /* \"--CODEGEN--\":20:32   */\n              revert\n                /* \"--CODEGEN--\":5:7   */\n            tag_38:\n                /* \"AllContracts.sol\":11136:11285  function betPayable(uint bet) public view returns(bool){... */\n              pop\n              tag_39\n              0x04\n              dup1\n              calldatasize\n              sub\n                /* \"--CODEGEN--\":13:15   */\n              0x20\n                /* \"--CODEGEN--\":8:11   */\n              dup2\n                /* \"--CODEGEN--\":5:16   */\n              lt\n                /* \"--CODEGEN--\":2:4   */\n              iszero\n              tag_40\n              jumpi\n                /* \"--CODEGEN--\":29:30   */\n              0x00\n                /* \"--CODEGEN--\":26:27   */\n              dup1\n                /* \"--CODEGEN--\":19:31   */\n              revert\n                /* \"--CODEGEN--\":2:4   */\n            tag_40:\n                /* \"AllContracts.sol\":11136:11285  function betPayable(uint bet) public view returns(bool){... */\n              dup2\n              add\n              swap1\n              dup1\n              dup1\n              calldataload\n              swap1\n              0x20\n              add\n              swap1\n              swap3\n              swap2\n              swap1\n              pop\n              pop\n              pop\n              tag_41\n              jump\t// in\n            tag_39:\n              mload(0x40)\n              dup1\n              dup3\n              iszero\n              iszero\n              iszero\n              iszero\n              dup2\n              mstore\n              0x20\n              add\n              swap2\n              pop\n              pop\n              mload(0x40)\n              dup1\n              swap2\n              sub\n              swap1\n              return\n                /* \"AllContracts.sol\":9168:9202  mapping(uint => Game) public games */\n            tag_4:\n              callvalue\n                /* \"--CODEGEN--\":8:17   */\n              dup1\n                /* \"--CODEGEN--\":5:7   */\n              iszero\n              tag_42\n              jumpi\n                /* \"--CODEGEN--\":30:31   */\n              0x00\n                /* \"--CODEGEN--\":27:28   */\n              dup1\n                /* \"--CODEGEN--\":20:32   */\n              revert\n                /* \"--CODEGEN--\":5:7   */\n            tag_42:\n                /* \"AllContracts.sol\":9168:9202  mapping(uint => Game) public games */\n              pop\n              tag_43\n              0x04\n              dup1\n              calldatasize\n              sub\n                /* \"--CODEGEN--\":13:15   */\n              0x20\n                /* \"--CODEGEN--\":8:11   */\n              dup2\n                /* \"--CODEGEN--\":5:16   */\n              lt\n                /* \"--CODEGEN--\":2:4   */\n              iszero\n              tag_44\n              jumpi\n                /* \"--CODEGEN--\":29:30   */\n              0x00\n                /* \"--CODEGEN--\":26:27   */\n              dup1\n                /* \"--CODEGEN--\":19:31   */\n              revert\n                /* \"--CODEGEN--\":2:4   */\n            tag_44:\n                /* \"AllContracts.sol\":9168:9202  mapping(uint => Game) public games */\n              dup2\n              add\n              swap1\n              dup1\n              dup1\n              calldataload\n              swap1\n              0x20\n              add\n              swap1\n              swap3\n              swap2\n              swap1\n              pop\n              pop\n              pop\n              tag_45\n              jump\t// in\n            tag_43:\n              mload(0x40)\n              dup1\n              dup8\n              dup2\n              mstore\n              0x20\n              add\n              dup7\n              0xffffffffffffffffffffffffffffffffffffffff\n              and\n              0xffffffffffffffffffffffffffffffffffffffff\n              and\n              dup2\n              mstore\n              0x20\n              add\n              dup6\n              dup2\n              mstore\n              0x20\n              add\n              dup5\n              dup2\n              mstore\n              0x20\n              add\n              dup4\n              dup2\n              mstore\n              0x20\n              add\n              dup3\n              iszero\n              iszero\n              iszero\n              iszero\n              dup2\n              mstore\n              0x20\n              add\n              swap7\n              pop\n              pop\n              pop\n              pop\n              pop\n              pop\n              pop\n              mload(0x40)\n              dup1\n              swap2\n              sub\n              swap1\n              return\n                /* \"AllContracts.sol\":8339:8372  address public machineCoordinator */\n            tag_5:\n              callvalue\n                /* \"--CODEGEN--\":8:17   */\n              dup1\n                /* \"--CODEGEN--\":5:7   */\n              iszero\n              tag_46\n              jumpi\n                /* \"--CODEGEN--\":30:31   */\n              0x00\n                /* \"--CODEGEN--\":27:28   */\n              dup1\n                /* \"--CODEGEN--\":20:32   */\n              revert\n                /* \"--CODEGEN--\":5:7   */\n            tag_46:\n                /* \"AllContracts.sol\":8339:8372  address public machineCoordinator */\n              pop\n              tag_47\n              tag_48\n              jump\t// in\n            tag_47:\n              mload(0x40)\n              dup1\n              dup3\n              0xffffffffffffffffffffffffffffffffffffffff\n              and\n              0xffffffffffffffffffffffffffffffffffffffff\n              and\n              dup2\n              mstore\n              0x20\n              add\n              swap2\n              pop\n              pop\n              mload(0x40)\n              dup1\n              swap2\n              sub\n              swap1\n              return\n                /* \"AllContracts.sol\":14777:16012  function fulfillRandomness(bytes32 requestId, uint256 randomness) external {... */\n            tag_6:\n              callvalue\n                /* \"--CODEGEN--\":8:17   */\n              dup1\n                /* \"--CODEGEN--\":5:7   */\n              iszero\n              tag_49\n              jumpi\n                /* \"--CODEGEN--\":30:31   */\n              0x00\n                /* \"--CODEGEN--\":27:28   */\n              dup1\n                /* \"--CODEGEN--\":20:32   */\n              revert\n                /* \"--CODEGEN--\":5:7   */\n            tag_49:\n                /* \"AllContracts.sol\":14777:16012  function fulfillRandomness(bytes32 requestId, uint256 randomness) external {... */\n              pop\n              tag_50\n              0x04\n              dup1\n              calldatasize\n              sub\n                /* \"--CODEGEN--\":13:15   */\n              0x40\n                /* \"--CODEGEN--\":8:11   */\n              dup2\n                /* \"--CODEGEN--\":5:16   */\n              lt\n                /* \"--CODEGEN--\":2:4   */\n              iszero\n              tag_51\n              jumpi\n                /* \"--CODEGEN--\":29:30   */\n              0x00\n                /* \"--CODEGEN--\":26:27   */\n              dup1\n                /* \"--CODEGEN--\":19:31   */\n              revert\n                /* \"--CODEGEN--\":2:4   */\n            tag_51:\n                /* \"AllContracts.sol\":14777:16012  function fulfillRandomness(bytes32 requestId, uint256 randomness) external {... */\n              dup2\n              add\n              swap1\n              dup1\n              dup1\n              calldataload\n              swap1\n              0x20\n              add\n              swap1\n              swap3\n              swap2\n              swap1\n              dup1\n              calldataload\n              swap1\n              0x20\n              add\n              swap1\n              swap3\n              swap2\n              swap1\n              pop\n              pop\n              pop\n              tag_52\n              jump\t// in\n            tag_50:\n              stop\n                /* \"AllContracts.sol\":8813:8831  uint public maxBet */\n            tag_7:\n              callvalue\n                /* \"--CODEGEN--\":8:17   */\n              dup1\n                /* \"--CODEGEN--\":5:7   */\n              iszero\n              tag_53\n              jumpi\n                /* \"--CODEGEN--\":30:31   */\n              0x00\n                /* \"--CODEGEN--\":27:28   */\n              dup1\n                /* \"--CODEGEN--\":20:32   */\n              revert\n                /* \"--CODEGEN--\":5:7   */\n            tag_53:\n                /* \"AllContracts.sol\":8813:8831  uint public maxBet */\n              pop\n              tag_54\n              tag_55\n              jump\t// in\n            tag_54:\n              mload(0x40)\n              dup1\n              dup3\n              dup2\n              mstore\n              0x20\n              add\n              swap2\n              pop\n              pop\n              mload(0x40)\n              dup1\n              swap2\n              sub\n              swap1\n              return\n                /* \"AllContracts.sol\":8788:8807  uint public maxPick */\n            tag_8:\n              callvalue\n                /* \"--CODEGEN--\":8:17   */\n              dup1\n                /* \"--CODEGEN--\":5:7   */\n              iszero\n              tag_56\n              jumpi\n                /* \"--CODEGEN--\":30:31   */\n              0x00\n                /* \"--CODEGEN--\":27:28   */\n              dup1\n                /* \"--CODEGEN--\":20:32   */\n              revert\n                /* \"--CODEGEN--\":5:7   */\n            tag_56:\n                /* \"AllContracts.sol\":8788:8807  uint public maxPick */\n              pop\n              tag_57\n              tag_58\n              jump\t// in\n            tag_57:\n              mload(0x40)\n              dup1\n              dup3\n              dup2\n              mstore\n              0x20\n              add\n              swap2\n              pop\n              pop\n              mload(0x40)\n              dup1\n              swap2\n              sub\n              swap1\n              return\n                /* \"AllContracts.sol\":18348:18470  function setPayoutAddress(address payable _payoutAddress) public onlyOwner {... */\n            tag_9:\n              callvalue\n                /* \"--CODEGEN--\":8:17   */\n              dup1\n                /* \"--CODEGEN--\":5:7   */\n              iszero\n              tag_59\n              jumpi\n                /* \"--CODEGEN--\":30:31   */\n              0x00\n                /* \"--CODEGEN--\":27:28   */\n              dup1\n                /* \"--CODEGEN--\":20:32   */\n              revert\n                /* \"--CODEGEN--\":5:7   */\n            tag_59:\n                /* \"AllContracts.sol\":18348:18470  function setPayoutAddress(address payable _payoutAddress) public onlyOwner {... */\n              pop\n              tag_60\n              0x04\n              dup1\n              calldatasize\n              sub\n                /* \"--CODEGEN--\":13:15   */\n              0x20\n                /* \"--CODEGEN--\":8:11   */\n              dup2\n                /* \"--CODEGEN--\":5:16   */\n              lt\n                /* \"--CODEGEN--\":2:4   */\n              iszero\n              tag_61\n              jumpi\n                /* \"--CODEGEN--\":29:30   */\n              0x00\n                /* \"--CODEGEN--\":26:27   */\n              dup1\n                /* \"--CODEGEN--\":19:31   */\n              revert\n                /* \"--CODEGEN--\":2:4   */\n            tag_61:\n                /* \"AllContracts.sol\":18348:18470  function setPayoutAddress(address payable _payoutAddress) public onlyOwner {... */\n              dup2\n              add\n              swap1\n              dup1\n              dup1\n              calldataload\n              0xffffffffffffffffffffffffffffffffffffffff\n              and\n              swap1\n              0x20\n              add\n              swap1\n              swap3\n              swap2\n              swap1\n              pop\n              pop\n              pop\n              tag_62\n              jump\t// in\n            tag_60:\n              stop\n                /* \"AllContracts.sol\":9057:9106  mapping(address => bool) public authorizedAddress */\n            tag_10:\n              callvalue\n                /* \"--CODEGEN--\":8:17   */\n              dup1\n                /* \"--CODEGEN--\":5:7   */\n              iszero\n              tag_63\n              jumpi\n                /* \"--CODEGEN--\":30:31   */\n              0x00\n                /* \"--CODEGEN--\":27:28   */\n              dup1\n                /* \"--CODEGEN--\":20:32   */\n              revert\n                /* \"--CODEGEN--\":5:7   */\n            tag_63:\n                /* \"AllContracts.sol\":9057:9106  mapping(address => bool) public authorizedAddress */\n              pop\n              tag_64\n              0x04\n              dup1\n              calldatasize\n              sub\n                /* \"--CODEGEN--\":13:15   */\n              0x20\n                /* \"--CODEGEN--\":8:11   */\n              dup2\n                /* \"--CODEGEN--\":5:16   */\n              lt\n                /* \"--CODEGEN--\":2:4   */\n              iszero\n              tag_65\n              jumpi\n                /* \"--CODEGEN--\":29:30   */\n              0x00\n                /* \"--CODEGEN--\":26:27   */\n              dup1\n                /* \"--CODEGEN--\":19:31   */\n              revert\n                /* \"--CODEGEN--\":2:4   */\n            tag_65:\n                /* \"AllContracts.sol\":9057:9106  mapping(address => bool) public authorizedAddress */\n              dup2\n              add\n              swap1\n              dup1\n              dup1\n              calldataload\n              0xffffffffffffffffffffffffffffffffffffffff\n              and\n              swap1\n              0x20\n              add\n              swap1\n              swap3\n              swap2\n              swap1\n              pop\n              pop\n              pop\n              tag_66\n              jump\t// in\n            tag_64:\n              mload(0x40)\n              dup1\n              dup3\n              iszero\n              iszero\n              iszero\n              iszero\n              dup2\n              mstore\n              0x20\n              add\n              swap2\n              pop\n              pop\n              mload(0x40)\n              dup1\n              swap2\n              sub\n              swap1\n              return\n                /* \"AllContracts.sol\":16118:16282  function getSummary() public view returns(uint, uint, uint, uint) {... */\n            tag_11:\n              callvalue\n                /* \"--CODEGEN--\":8:17   */\n              dup1\n                /* \"--CODEGEN--\":5:7   */\n              iszero\n              tag_67\n              jumpi\n                /* \"--CODEGEN--\":30:31   */\n              0x00\n                /* \"--CODEGEN--\":27:28   */\n              dup1\n                /* \"--CODEGEN--\":20:32   */\n              revert\n                /* \"--CODEGEN--\":5:7   */\n            tag_67:\n                /* \"AllContracts.sol\":16118:16282  function getSummary() public view returns(uint, uint, uint, uint) {... */\n              pop\n              tag_68\n              tag_69\n              jump\t// in\n            tag_68:\n              mload(0x40)\n              dup1\n              dup6\n              dup2\n              mstore\n              0x20\n              add\n              dup5\n              dup2\n              mstore\n              0x20\n              add\n              dup4\n              dup2\n              mstore\n              0x20\n              add\n              dup3\n              dup2\n              mstore\n              0x20\n              add\n              swap5\n              pop\n              pop\n              pop\n              pop\n              pop\n              mload(0x40)\n              dup1\n              swap2\n              sub\n              swap1\n              return\n                /* \"AllContracts.sol\":10554:10658  function getLinkBalance() public view returns(uint){... */\n            tag_12:\n              callvalue\n                /* \"--CODEGEN--\":8:17   */\n              dup1\n                /* \"--CODEGEN--\":5:7   */\n              iszero\n              tag_70\n              jumpi\n                /* \"--CODEGEN--\":30:31   */\n              0x00\n                /* \"--CODEGEN--\":27:28   */\n              dup1\n                /* \"--CODEGEN--\":20:32   */\n              revert\n                /* \"--CODEGEN--\":5:7   */\n            tag_70:\n                /* \"AllContracts.sol\":10554:10658  function getLinkBalance() public view returns(uint){... */\n              pop\n              tag_71\n              tag_72\n              jump\t// in\n            tag_71:\n              mload(0x40)\n              dup1\n              dup3\n              dup2\n              mstore\n              0x20\n              add\n              swap2\n              pop\n              pop\n              mload(0x40)\n              dup1\n              swap2\n              sub\n              swap1\n              return\n                /* \"AllContracts.sol\":8924:8960  address payable public payoutAddress */\n            tag_13:\n              callvalue\n                /* \"--CODEGEN--\":8:17   */\n              dup1\n                /* \"--CODEGEN--\":5:7   */\n              iszero\n              tag_73\n              jumpi\n                /* \"--CODEGEN--\":30:31   */\n              0x00\n                /* \"--CODEGEN--\":27:28   */\n              dup1\n                /* \"--CODEGEN--\":20:32   */\n              revert\n                /* \"--CODEGEN--\":5:7   */\n            tag_73:\n                /* \"AllContracts.sol\":8924:8960  address payable public payoutAddress */\n              pop\n              tag_74\n              tag_75\n              jump\t// in\n            tag_74:\n              mload(0x40)\n              dup1\n              dup3\n              0xffffffffffffffffffffffffffffffffffffffff\n              and\n              0xffffffffffffffffffffffffffffffffffffffff\n              and\n              dup2\n              mstore\n              0x20\n              add\n              swap2\n              pop\n              pop\n              mload(0x40)\n              dup1\n              swap2\n              sub\n              swap1\n              return\n                /* \"AllContracts.sol\":8966:8984  uint public payout */\n            tag_14:\n              callvalue\n                /* \"--CODEGEN--\":8:17   */\n              dup1\n                /* \"--CODEGEN--\":5:7   */\n              iszero\n              tag_76\n              jumpi\n                /* \"--CODEGEN--\":30:31   */\n              0x00\n                /* \"--CODEGEN--\":27:28   */\n              dup1\n                /* \"--CODEGEN--\":20:32   */\n              revert\n                /* \"--CODEGEN--\":5:7   */\n            tag_76:\n                /* \"AllContracts.sol\":8966:8984  uint public payout */\n              pop\n              tag_77\n              tag_78\n              jump\t// in\n            tag_77:\n              mload(0x40)\n              dup1\n              dup3\n              dup2\n              mstore\n              0x20\n              add\n              swap2\n              pop\n              pop\n              mload(0x40)\n              dup1\n              swap2\n              sub\n              swap1\n              return\n                /* \"AllContracts.sol\":1550:1695  function renounceOwnership() public virtual onlyOwner {... */\n            tag_15:\n              callvalue\n                /* \"--CODEGEN--\":8:17   */\n              dup1\n                /* \"--CODEGEN--\":5:7   */\n              iszero\n              tag_79\n              jumpi\n                /* \"--CODEGEN--\":30:31   */\n              0x00\n                /* \"--CODEGEN--\":27:28   */\n              dup1\n                /* \"--CODEGEN--\":20:32   */\n              revert\n                /* \"--CODEGEN--\":5:7   */\n            tag_79:\n                /* \"AllContracts.sol\":1550:1695  function renounceOwnership() public virtual onlyOwner {... */\n              pop\n              tag_80\n              tag_81\n              jump\t// in\n            tag_80:\n              stop\n                /* \"AllContracts.sol\":17701:17811  function withdrawLink(uint amount) public onlyAuthorized {... */\n            tag_16:\n              callvalue\n                /* \"--CODEGEN--\":8:17   */\n              dup1\n                /* \"--CODEGEN--\":5:7   */\n              iszero\n              tag_82\n              jumpi\n                /* \"--CODEGEN--\":30:31   */\n              0x00\n                /* \"--CODEGEN--\":27:28   */\n              dup1\n                /* \"--CODEGEN--\":20:32   */\n              revert\n                /* \"--CODEGEN--\":5:7   */\n            tag_82:\n                /* \"AllContracts.sol\":17701:17811  function withdrawLink(uint amount) public onlyAuthorized {... */\n              pop\n              tag_83\n              0x04\n              dup1\n              calldatasize\n              sub\n                /* \"--CODEGEN--\":13:15   */\n              0x20\n                /* \"--CODEGEN--\":8:11   */\n              dup2\n                /* \"--CODEGEN--\":5:16   */\n              lt\n                /* \"--CODEGEN--\":2:4   */\n              iszero\n              tag_84\n              jumpi\n                /* \"--CODEGEN--\":29:30   */\n              0x00\n                /* \"--CODEGEN--\":26:27   */\n              dup1\n                /* \"--CODEGEN--\":19:31   */\n              revert\n                /* \"--CODEGEN--\":2:4   */\n            tag_84:\n                /* \"AllContracts.sol\":17701:17811  function withdrawLink(uint amount) public onlyAuthorized {... */\n              dup2\n              add\n              swap1\n              dup1\n              dup1\n              calldataload\n              swap1\n              0x20\n              add\n              swap1\n              swap3\n              swap2\n              swap1\n              pop\n              pop\n              pop\n              tag_85\n              jump\t// in\n            tag_83:\n              stop\n                /* \"AllContracts.sol\":927:1004  function owner() public view returns (address) {... */\n            tag_17:\n              callvalue\n                /* \"--CODEGEN--\":8:17   */\n              dup1\n                /* \"--CODEGEN--\":5:7   */\n              iszero\n              tag_86\n              jumpi\n                /* \"--CODEGEN--\":30:31   */\n              0x00\n                /* \"--CODEGEN--\":27:28   */\n              dup1\n                /* \"--CODEGEN--\":20:32   */\n              revert\n                /* \"--CODEGEN--\":5:7   */\n            tag_86:\n                /* \"AllContracts.sol\":927:1004  function owner() public view returns (address) {... */\n              pop\n              tag_87\n              tag_88\n              jump\t// in\n            tag_87:\n              mload(0x40)\n              dup1\n              dup3\n              0xffffffffffffffffffffffffffffffffffffffff\n              and\n              0xffffffffffffffffffffffffffffffffffffffff\n              and\n              dup2\n              mstore\n              0x20\n              add\n              swap2\n              pop\n              pop\n              mload(0x40)\n              dup1\n              swap2\n              sub\n              swap1\n              return\n                /* \"AllContracts.sol\":8837:8855  uint public minBet */\n            tag_18:\n              callvalue\n                /* \"--CODEGEN--\":8:17   */\n              dup1\n                /* \"--CODEGEN--\":5:7   */\n              iszero\n              tag_89\n              jumpi\n                /* \"--CODEGEN--\":30:31   */\n              0x00\n                /* \"--CODEGEN--\":27:28   */\n              dup1\n                /* \"--CODEGEN--\":20:32   */\n              revert\n                /* \"--CODEGEN--\":5:7   */\n            tag_89:\n                /* \"AllContracts.sol\":8837:8855  uint public minBet */\n              pop\n              tag_90\n              tag_91\n              jump\t// in\n            tag_90:\n              mload(0x40)\n              dup1\n              dup3\n              dup2\n              mstore\n              0x20\n              add\n              swap2\n              pop\n              pop\n              mload(0x40)\n              dup1\n              swap2\n              sub\n              swap1\n              return\n                /* \"AllContracts.sol\":19391:19503  function setLINK(address _linkAddress) public onlyOwner {... */\n            tag_19:\n              callvalue\n                /* \"--CODEGEN--\":8:17   */\n              dup1\n                /* \"--CODEGEN--\":5:7   */\n              iszero\n              tag_92\n              jumpi\n                /* \"--CODEGEN--\":30:31   */\n              0x00\n                /* \"--CODEGEN--\":27:28   */\n              dup1\n                /* \"--CODEGEN--\":20:32   */\n              revert\n                /* \"--CODEGEN--\":5:7   */\n            tag_92:\n                /* \"AllContracts.sol\":19391:19503  function setLINK(address _linkAddress) public onlyOwner {... */\n              pop\n              tag_93\n              0x04\n              dup1\n              calldatasize\n              sub\n                /* \"--CODEGEN--\":13:15   */\n              0x20\n                /* \"--CODEGEN--\":8:11   */\n              dup2\n                /* \"--CODEGEN--\":5:16   */\n              lt\n                /* \"--CODEGEN--\":2:4   */\n              iszero\n              tag_94\n              jumpi\n                /* \"--CODEGEN--\":29:30   */\n              0x00\n                /* \"--CODEGEN--\":26:27   */\n              dup1\n                /* \"--CODEGEN--\":19:31   */\n              revert\n                /* \"--CODEGEN--\":2:4   */\n            tag_94:\n                /* \"AllContracts.sol\":19391:19503  function setLINK(address _linkAddress) public onlyOwner {... */\n              dup2\n              add\n              swap1\n              dup1\n              dup1\n              calldataload\n              0xffffffffffffffffffffffffffffffffffffffff\n              and\n              swap1\n              0x20\n              add\n              swap1\n              swap3\n              swap2\n              swap1\n              pop\n              pop\n              pop\n              tag_95\n              jump\t// in\n            tag_93:\n              stop\n                /* \"AllContracts.sol\":18005:18147  function setAuthorizedUser(address userAddress, bool authorized) public onlyOwner {... */\n            tag_20:\n              callvalue\n                /* \"--CODEGEN--\":8:17   */\n              dup1\n                /* \"--CODEGEN--\":5:7   */\n              iszero\n              tag_96\n              jumpi\n                /* \"--CODEGEN--\":30:31   */\n              0x00\n                /* \"--CODEGEN--\":27:28   */\n              dup1\n                /* \"--CODEGEN--\":20:32   */\n              revert\n                /* \"--CODEGEN--\":5:7   */\n            tag_96:\n                /* \"AllContracts.sol\":18005:18147  function setAuthorizedUser(address userAddress, bool authorized) public onlyOwner {... */\n              pop\n              tag_97\n              0x04\n              dup1\n              calldatasize\n              sub\n                /* \"--CODEGEN--\":13:15   */\n              0x40\n                /* \"--CODEGEN--\":8:11   */\n              dup2\n                /* \"--CODEGEN--\":5:16   */\n              lt\n                /* \"--CODEGEN--\":2:4   */\n              iszero\n              tag_98\n              jumpi\n                /* \"--CODEGEN--\":29:30   */\n              0x00\n                /* \"--CODEGEN--\":26:27   */\n              dup1\n                /* \"--CODEGEN--\":19:31   */\n              revert\n                /* \"--CODEGEN--\":2:4   */\n            tag_98:\n                /* \"AllContracts.sol\":18005:18147  function setAuthorizedUser(address userAddress, bool authorized) public onlyOwner {... */\n              dup2\n              add\n              swap1\n              dup1\n              dup1\n              calldataload\n              0xffffffffffffffffffffffffffffffffffffffff\n              and\n              swap1\n              0x20\n              add\n              swap1\n              swap3\n              swap2\n              swap1\n              dup1\n              calldataload\n              iszero\n              iszero\n              swap1\n              0x20\n              add\n              swap1\n              swap3\n              swap2\n              swap1\n              pop\n              pop\n              pop\n              tag_99\n              jump\t// in\n            tag_97:\n              stop\n                /* \"AllContracts.sol\":16653:17251  function requestRefund(uint gameID) public{... */\n            tag_21:\n              callvalue\n                /* \"--CODEGEN--\":8:17   */\n              dup1\n                /* \"--CODEGEN--\":5:7   */\n              iszero\n              tag_100\n              jumpi\n                /* \"--CODEGEN--\":30:31   */\n              0x00\n                /* \"--CODEGEN--\":27:28   */\n              dup1\n                /* \"--CODEGEN--\":20:32   */\n              revert\n                /* \"--CODEGEN--\":5:7   */\n            tag_100:\n                /* \"AllContracts.sol\":16653:17251  function requestRefund(uint gameID) public{... */\n              pop\n              tag_101\n              0x04\n              dup1\n              calldatasize\n              sub\n                /* \"--CODEGEN--\":13:15   */\n              0x20\n                /* \"--CODEGEN--\":8:11   */\n              dup2\n                /* \"--CODEGEN--\":5:16   */\n              lt\n                /* \"--CODEGEN--\":2:4   */\n              iszero\n              tag_102\n              jumpi\n                /* \"--CODEGEN--\":29:30   */\n              0x00\n                /* \"--CODEGEN--\":26:27   */\n              dup1\n                /* \"--CODEGEN--\":19:31   */\n              revert\n                /* \"--CODEGEN--\":2:4   */\n            tag_102:\n                /* \"AllContracts.sol\":16653:17251  function requestRefund(uint gameID) public{... */\n              dup2\n              add\n              swap1\n              dup1\n              dup1\n              calldataload\n              swap1\n              0x20\n              add\n              swap1\n              swap3\n              swap2\n              swap1\n              pop\n              pop\n              pop\n              tag_103\n              jump\t// in\n            tag_101:\n              stop\n                /* \"AllContracts.sol\":11526:12155  function placeBetFor(address payable player, uint pick) public payable{... */\n            tag_22:\n              tag_104\n              0x04\n              dup1\n              calldatasize\n              sub\n                /* \"--CODEGEN--\":13:15   */\n              0x40\n                /* \"--CODEGEN--\":8:11   */\n              dup2\n                /* \"--CODEGEN--\":5:16   */\n              lt\n                /* \"--CODEGEN--\":2:4   */\n              iszero\n              tag_105\n              jumpi\n                /* \"--CODEGEN--\":29:30   */\n              0x00\n                /* \"--CODEGEN--\":26:27   */\n              dup1\n                /* \"--CODEGEN--\":19:31   */\n              revert\n                /* \"--CODEGEN--\":2:4   */\n            tag_105:\n                /* \"AllContracts.sol\":11526:12155  function placeBetFor(address payable player, uint pick) public payable{... */\n              dup2\n              add\n              swap1\n              dup1\n              dup1\n              calldataload\n              0xffffffffffffffffffffffffffffffffffffffff\n              and\n              swap1\n              0x20\n              add\n              swap1\n              swap3\n              swap2\n              swap1\n              dup1\n              calldataload\n              swap1\n              0x20\n              add\n              swap1\n              swap3\n              swap2\n              swap1\n              pop\n              pop\n              pop\n              tag_106\n              jump\t// in\n            tag_104:\n              stop\n                /* \"AllContracts.sol\":9260:9307  mapping(address => uint) public lastGameCreated */\n            tag_23:\n              callvalue\n                /* \"--CODEGEN--\":8:17   */\n              dup1\n                /* \"--CODEGEN--\":5:7   */\n              iszero\n              tag_107\n              jumpi\n                /* \"--CODEGEN--\":30:31   */\n              0x00\n                /* \"--CODEGEN--\":27:28   */\n              dup1\n                /* \"--CODEGEN--\":20:32   */\n              revert\n                /* \"--CODEGEN--\":5:7   */\n            tag_107:\n                /* \"AllContracts.sol\":9260:9307  mapping(address => uint) public lastGameCreated */\n              pop\n              tag_108\n              0x04\n              dup1\n              calldatasize\n              sub\n                /* \"--CODEGEN--\":13:15   */\n              0x20\n                /* \"--CODEGEN--\":8:11   */\n              dup2\n                /* \"--CODEGEN--\":5:16   */\n              lt\n                /* \"--CODEGEN--\":2:4   */\n              iszero\n              tag_109\n              jumpi\n                /* \"--CODEGEN--\":29:30   */\n              0x00\n                /* \"--CODEGEN--\":26:27   */\n              dup1\n                /* \"--CODEGEN--\":19:31   */\n              revert\n                /* \"--CODEGEN--\":2:4   */\n            tag_109:\n                /* \"AllContracts.sol\":9260:9307  mapping(address => uint) public lastGameCreated */\n              dup2\n              add\n              swap1\n              dup1\n              dup1\n              calldataload\n              0xffffffffffffffffffffffffffffffffffffffff\n              and\n              swap1\n              0x20\n              add\n              swap1\n              swap3\n              swap2\n              swap1\n              pop\n              pop\n              pop\n              tag_110\n              jump\t// in\n            tag_108:\n              mload(0x40)\n              dup1\n              dup3\n              dup2\n              mstore\n              0x20\n              add\n              swap2\n              pop\n              pop\n              mload(0x40)\n              dup1\n              swap2\n              sub\n              swap1\n              return\n                /* \"AllContracts.sol\":18805:19126  function closeMachine() public onlyOwner {... */\n            tag_24:\n              callvalue\n                /* \"--CODEGEN--\":8:17   */\n              dup1\n                /* \"--CODEGEN--\":5:7   */\n              iszero\n              tag_111\n              jumpi\n                /* \"--CODEGEN--\":30:31   */\n              0x00\n                /* \"--CODEGEN--\":27:28   */\n              dup1\n                /* \"--CODEGEN--\":20:32   */\n              revert\n                /* \"--CODEGEN--\":5:7   */\n            tag_111:\n                /* \"AllContracts.sol\":18805:19126  function closeMachine() public onlyOwner {... */\n              pop\n              tag_112\n              tag_113\n              jump\t// in\n            tag_112:\n              stop\n                /* \"AllContracts.sol\":17415:17619  function withdrawEth(uint amount) public onlyAuthorized {... */\n            tag_25:\n              callvalue\n                /* \"--CODEGEN--\":8:17   */\n              dup1\n                /* \"--CODEGEN--\":5:7   */\n              iszero\n              tag_114\n              jumpi\n                /* \"--CODEGEN--\":30:31   */\n              0x00\n                /* \"--CODEGEN--\":27:28   */\n              dup1\n                /* \"--CODEGEN--\":20:32   */\n              revert\n                /* \"--CODEGEN--\":5:7   */\n            tag_114:\n                /* \"AllContracts.sol\":17415:17619  function withdrawEth(uint amount) public onlyAuthorized {... */\n              pop\n              tag_115\n              0x04\n              dup1\n              calldatasize\n              sub\n                /* \"--CODEGEN--\":13:15   */\n              0x20\n                /* \"--CODEGEN--\":8:11   */\n              dup2\n                /* \"--CODEGEN--\":5:16   */\n              lt\n                /* \"--CODEGEN--\":2:4   */\n              iszero\n              tag_116\n              jumpi\n                /* \"--CODEGEN--\":29:30   */\n              0x00\n                /* \"--CODEGEN--\":26:27   */\n              dup1\n                /* \"--CODEGEN--\":19:31   */\n              revert\n                /* \"--CODEGEN--\":2:4   */\n            tag_116:\n                /* \"AllContracts.sol\":17415:17619  function withdrawEth(uint amount) public onlyAuthorized {... */\n              dup2\n              add\n              swap1\n              dup1\n              dup1\n              calldataload\n              swap1\n              0x20\n              add\n              swap1\n              swap3\n              swap2\n              swap1\n              pop\n              pop\n              pop\n              tag_117\n              jump\t// in\n            tag_115:\n              stop\n                /* \"AllContracts.sol\":12422:13228  function safeBetFor(address payable player, uint pick) public payable{... */\n            tag_26:\n              tag_118\n              0x04\n              dup1\n              calldatasize\n              sub\n                /* \"--CODEGEN--\":13:15   */\n              0x40\n                /* \"--CODEGEN--\":8:11   */\n              dup2\n                /* \"--CODEGEN--\":5:16   */\n              lt\n                /* \"--CODEGEN--\":2:4   */\n              iszero\n              tag_119\n              jumpi\n                /* \"--CODEGEN--\":29:30   */\n              0x00\n                /* \"--CODEGEN--\":26:27   */\n              dup1\n                /* \"--CODEGEN--\":19:31   */\n              revert\n                /* \"--CODEGEN--\":2:4   */\n            tag_119:\n                /* \"AllContracts.sol\":12422:13228  function safeBetFor(address payable player, uint pick) public payable{... */\n              dup2\n              add\n              swap1\n              dup1\n              dup1\n              calldataload\n              0xffffffffffffffffffffffffffffffffffffffff\n              and\n              swap1\n              0x20\n              add\n              swap1\n              swap3\n              swap2\n              swap1\n              dup1\n              calldataload\n              swap1\n              0x20\n              add\n              swap1\n              swap3\n              swap2\n              swap1\n              pop\n              pop\n              pop\n              tag_120\n              jump\t// in\n            tag_118:\n              stop\n                /* \"AllContracts.sol\":9112:9161  mapping(address => bool) public gasFreeBetAllowed */\n            tag_27:\n              callvalue\n                /* \"--CODEGEN--\":8:17   */\n              dup1\n                /* \"--CODEGEN--\":5:7   */\n              iszero\n              tag_121\n              jumpi\n                /* \"--CODEGEN--\":30:31   */\n              0x00\n                /* \"--CODEGEN--\":27:28   */\n              dup1\n                /* \"--CODEGEN--\":20:32   */\n              revert\n                /* \"--CODEGEN--\":5:7   */\n            tag_121:\n                /* \"AllContracts.sol\":9112:9161  mapping(address => bool) public gasFreeBetAllowed */\n              pop\n              tag_122\n              0x04\n              dup1\n              calldatasize\n              sub\n                /* \"--CODEGEN--\":13:15   */\n              0x20\n                /* \"--CODEGEN--\":8:11   */\n              dup2\n                /* \"--CODEGEN--\":5:16   */\n              lt\n                /* \"--CODEGEN--\":2:4   */\n              iszero\n              tag_123\n              jumpi\n                /* \"--CODEGEN--\":29:30   */\n              0x00\n                /* \"--CODEGEN--\":26:27   */\n              dup1\n                /* \"--CODEGEN--\":19:31   */\n              revert\n                /* \"--CODEGEN--\":2:4   */\n            tag_123:\n                /* \"AllContracts.sol\":9112:9161  mapping(address => bool) public gasFreeBetAllowed */\n              dup2\n              add\n              swap1\n              dup1\n              dup1\n              calldataload\n              0xffffffffffffffffffffffffffffffffffffffff\n              and\n              swap1\n              0x20\n              add\n              swap1\n              swap3\n              swap2\n              swap1\n              pop\n              pop\n              pop\n              tag_124\n              jump\t// in\n            tag_122:\n              mload(0x40)\n              dup1\n              dup3\n              iszero\n              iszero\n              iszero\n              iszero\n              dup2\n              mstore\n              0x20\n              add\n              swap2\n              pop\n              pop\n              mload(0x40)\n              dup1\n              swap2\n              sub\n              swap1\n              return\n                /* \"AllContracts.sol\":1844:2084  function transferOwnership(address newOwner) public virtual onlyOwner {... */\n            tag_28:\n              callvalue\n                /* \"--CODEGEN--\":8:17   */\n              dup1\n                /* \"--CODEGEN--\":5:7   */\n              iszero\n              tag_125\n              jumpi\n                /* \"--CODEGEN--\":30:31   */\n              0x00\n                /* \"--CODEGEN--\":27:28   */\n              dup1\n                /* \"--CODEGEN--\":20:32   */\n              revert\n                /* \"--CODEGEN--\":5:7   */\n            tag_125:\n                /* \"AllContracts.sol\":1844:2084  function transferOwnership(address newOwner) public virtual onlyOwner {... */\n              pop\n              tag_126\n              0x04\n              dup1\n              calldatasize\n              sub\n                /* \"--CODEGEN--\":13:15   */\n              0x20\n                /* \"--CODEGEN--\":8:11   */\n              dup2\n                /* \"--CODEGEN--\":5:16   */\n              lt\n                /* \"--CODEGEN--\":2:4   */\n              iszero\n              tag_127\n              jumpi\n                /* \"--CODEGEN--\":29:30   */\n              0x00\n                /* \"--CODEGEN--\":26:27   */\n              dup1\n                /* \"--CODEGEN--\":19:31   */\n              revert\n                /* \"--CODEGEN--\":2:4   */\n            tag_127:\n                /* \"AllContracts.sol\":1844:2084  function transferOwnership(address newOwner) public virtual onlyOwner {... */\n              dup2\n              add\n              swap1\n              dup1\n              dup1\n              calldataload\n              0xffffffffffffffffffffffffffffffffffffffff\n              and\n              swap1\n              0x20\n              add\n              swap1\n              swap3\n              swap2\n              swap1\n              pop\n              pop\n              pop\n              tag_128\n              jump\t// in\n            tag_126:\n              stop\n                /* \"AllContracts.sol\":19768:19851  function replayGame(uint gameID) public onlyOwner {... */\n            tag_29:\n              callvalue\n                /* \"--CODEGEN--\":8:17   */\n              dup1\n                /* \"--CODEGEN--\":5:7   */\n              iszero\n              tag_129\n              jumpi\n                /* \"--CODEGEN--\":30:31   */\n              0x00\n                /* \"--CODEGEN--\":27:28   */\n              dup1\n                /* \"--CODEGEN--\":20:32   */\n              revert\n                /* \"--CODEGEN--\":5:7   */\n            tag_129:\n                /* \"AllContracts.sol\":19768:19851  function replayGame(uint gameID) public onlyOwner {... */\n              pop\n              tag_130\n              0x04\n              dup1\n              calldatasize\n              sub\n                /* \"--CODEGEN--\":13:15   */\n              0x20\n                /* \"--CODEGEN--\":8:11   */\n              dup2\n                /* \"--CODEGEN--\":5:16   */\n              lt\n                /* \"--CODEGEN--\":2:4   */\n              iszero\n              tag_131\n              jumpi\n                /* \"--CODEGEN--\":29:30   */\n              0x00\n                /* \"--CODEGEN--\":26:27   */\n              dup1\n                /* \"--CODEGEN--\":19:31   */\n              revert\n                /* \"--CODEGEN--\":2:4   */\n            tag_131:\n                /* \"AllContracts.sol\":19768:19851  function replayGame(uint gameID) public onlyOwner {... */\n              dup2\n              add\n              swap1\n              dup1\n              dup1\n              calldataload\n              swap1\n              0x20\n              add\n              swap1\n              swap3\n              swap2\n              swap1\n              pop\n              pop\n              pop\n              tag_132\n              jump\t// in\n            tag_130:\n              stop\n                /* \"AllContracts.sol\":11136:11285  function betPayable(uint bet) public view returns(bool){... */\n            tag_41:\n                /* \"AllContracts.sol\":11186:11190  bool */\n              0x00\n                /* \"AllContracts.sol\":11253:11277  bet.mul(payout).add(bet) */\n              tag_134\n                /* \"AllContracts.sol\":11273:11276  bet */\n              dup3\n                /* \"AllContracts.sol\":11253:11268  bet.mul(payout) */\n              tag_135\n                /* \"AllContracts.sol\":11261:11267  payout */\n              sload(0x14)\n                /* \"AllContracts.sol\":11253:11256  bet */\n              dup6\n                /* \"AllContracts.sol\":11253:11260  bet.mul */\n              tag_136\n              swap1\n                /* \"AllContracts.sol\":11253:11268  bet.mul(payout) */\n              swap2\n              swap1\n              0xffffffff\n              and\n              jump\t// in\n            tag_135:\n                /* \"AllContracts.sol\":11253:11272  bet.mul(payout).add */\n              tag_137\n              swap1\n                /* \"AllContracts.sol\":11253:11277  bet.mul(payout).add(bet) */\n              swap2\n              swap1\n              0xffffffff\n              and\n              jump\t// in\n            tag_134:\n                /* \"AllContracts.sol\":11209:11249  address(this).balance.sub(_unplayedBets) */\n              tag_138\n                /* \"AllContracts.sol\":11235:11248  _unplayedBets */\n              sload(0x11)\n                /* \"AllContracts.sol\":11209:11230  address(this).balance */\n              selfbalance\n                /* \"AllContracts.sol\":11209:11234  address(this).balance.sub */\n              tag_139\n              swap1\n                /* \"AllContracts.sol\":11209:11249  address(this).balance.sub(_unplayedBets) */\n              swap2\n              swap1\n              0xffffffff\n              and\n              jump\t// in\n            tag_138:\n                /* \"AllContracts.sol\":11209:11277  address(this).balance.sub(_unplayedBets) >= bet.mul(payout).add(bet) */\n              lt\n              iszero\n                /* \"AllContracts.sol\":11201:11278  return (address(this).balance.sub(_unplayedBets) >= bet.mul(payout).add(bet)) */\n              swap1\n              pop\n                /* \"AllContracts.sol\":11136:11285  function betPayable(uint bet) public view returns(bool){... */\n              swap2\n              swap1\n              pop\n              jump\t// out\n                /* \"AllContracts.sol\":9168:9202  mapping(uint => Game) public games */\n            tag_45:\n              mstore(0x20, 0x17)\n              dup1\n              0x00\n              mstore\n              keccak256(0x00, 0x40)\n              0x00\n              swap2\n              pop\n              swap1\n              pop\n              dup1\n              0x00\n              add\n              sload\n              swap1\n              dup1\n              0x01\n              add\n              0x00\n              swap1\n              sload\n              swap1\n              0x0100\n              exp\n              swap1\n              div\n              0xffffffffffffffffffffffffffffffffffffffff\n              and\n              swap1\n              dup1\n              0x02\n              add\n              sload\n              swap1\n              dup1\n              0x03\n              add\n              sload\n              swap1\n              dup1\n              0x04\n              add\n              sload\n              swap1\n              dup1\n              0x05\n              add\n              0x00\n              swap1\n              sload\n              swap1\n              0x0100\n              exp\n              swap1\n              div\n              0xff\n              and\n              swap1\n              pop\n              dup7\n              jump\t// out\n                /* \"AllContracts.sol\":8339:8372  address public machineCoordinator */\n            tag_48:\n              0x02\n              0x00\n              swap1\n              sload\n              swap1\n              0x0100\n              exp\n              swap1\n              div\n              0xffffffffffffffffffffffffffffffffffffffff\n              and\n              dup2\n              jump\t// out\n                /* \"AllContracts.sol\":14777:16012  function fulfillRandomness(bytes32 requestId, uint256 randomness) external {... */\n            tag_52:\n                /* \"AllContracts.sol\":14932:14950  machineCoordinator */\n              0x02\n              0x00\n              swap1\n              sload\n              swap1\n              0x0100\n              exp\n              swap1\n              div\n              0xffffffffffffffffffffffffffffffffffffffff\n              and\n                /* \"AllContracts.sol\":14918:14950  msg.sender == machineCoordinator */\n              0xffffffffffffffffffffffffffffffffffffffff\n              and\n                /* \"AllContracts.sol\":14918:14928  msg.sender */\n              caller\n                /* \"AllContracts.sol\":14918:14950  msg.sender == machineCoordinator */\n              0xffffffffffffffffffffffffffffffffffffffff\n              and\n              eq\n                /* \"AllContracts.sol\":14910:14951  require(msg.sender == machineCoordinator) */\n              tag_141\n              jumpi\n              0x00\n              dup1\n              revert\n            tag_141:\n                /* \"AllContracts.sol\":14998:15012  Game storage g */\n              0x00\n                /* \"AllContracts.sol\":15015:15020  games */\n              0x17\n                /* \"AllContracts.sol\":15015:15046  games[_gameRequests[requestId]] */\n              0x00\n                /* \"AllContracts.sol\":15021:15034  _gameRequests */\n              0x18\n                /* \"AllContracts.sol\":15021:15045  _gameRequests[requestId] */\n              0x00\n                /* \"AllContracts.sol\":15035:15044  requestId */\n              dup7\n                /* \"AllContracts.sol\":15021:15045  _gameRequests[requestId] */\n              dup2\n              mstore\n              0x20\n              add\n              swap1\n              dup2\n              mstore\n              0x20\n              add\n              0x00\n              keccak256\n              sload\n                /* \"AllContracts.sol\":15015:15046  games[_gameRequests[requestId]] */\n              dup2\n              mstore\n              0x20\n              add\n              swap1\n              dup2\n              mstore\n              0x20\n              add\n              0x00\n              keccak256\n                /* \"AllContracts.sol\":14998:15046  Game storage g = games[_gameRequests[requestId]] */\n              swap1\n              pop\n                /* \"AllContracts.sol\":15066:15067  0 */\n              0x00\n                /* \"AllContracts.sol\":15059:15060  g */\n              dup2\n                /* \"AllContracts.sol\":15059:15063  g.id */\n              0x00\n              add\n              sload\n                /* \"AllContracts.sol\":15059:15067  g.id > 0 */\n              gt\n                /* \"AllContracts.sol\":15059:15088  g.id > 0 && g.played == false */\n              dup1\n              iszero\n              tag_142\n              jumpi\n              pop\n                /* \"AllContracts.sol\":15083:15088  false */\n              0x00\n                /* \"AllContracts.sol\":15071:15088  g.played == false */\n              iszero\n              iszero\n                /* \"AllContracts.sol\":15071:15072  g */\n              dup2\n                /* \"AllContracts.sol\":15071:15079  g.played */\n              0x05\n              add\n              0x00\n              swap1\n              sload\n              swap1\n              0x0100\n              exp\n              swap1\n              div\n              0xff\n              and\n                /* \"AllContracts.sol\":15071:15088  g.played == false */\n              iszero\n              iszero\n              eq\n                /* \"AllContracts.sol\":15059:15088  g.id > 0 && g.played == false */\n            tag_142:\n                /* \"AllContracts.sol\":15056:15806  if(g.id > 0 && g.played == false){... */\n              iszero\n              tag_143\n              jumpi\n                /* \"AllContracts.sol\":15114:15120  maxBet */\n              sload(0x0f)\n                /* \"AllContracts.sol\":15106:15107  g */\n              dup2\n                /* \"AllContracts.sol\":15106:15111  g.bet */\n              0x02\n              add\n              sload\n                /* \"AllContracts.sol\":15106:15120  g.bet > maxBet */\n              gt\n                /* \"AllContracts.sol\":15103:15169  if(g.bet > maxBet) {... */\n              iszero\n              tag_144\n              jumpi\n                /* \"AllContracts.sol\":15148:15154  maxBet */\n              sload(0x0f)\n                /* \"AllContracts.sol\":15140:15141  g */\n              dup2\n                /* \"AllContracts.sol\":15140:15145  g.bet */\n              0x02\n              add\n                /* \"AllContracts.sol\":15140:15154  g.bet = maxBet */\n              dup2\n              swap1\n              sstore\n              pop\n                /* \"AllContracts.sol\":15103:15169  if(g.bet > maxBet) {... */\n            tag_144:\n                /* \"AllContracts.sol\":15182:15198  uint totalPayout */\n              0x00\n                /* \"AllContracts.sol\":15201:15229  g.bet.mul(payout).add(g.bet) */\n              tag_145\n                /* \"AllContracts.sol\":15223:15224  g */\n              dup3\n                /* \"AllContracts.sol\":15223:15228  g.bet */\n              0x02\n              add\n              sload\n                /* \"AllContracts.sol\":15201:15218  g.bet.mul(payout) */\n              tag_146\n                /* \"AllContracts.sol\":15211:15217  payout */\n              sload(0x14)\n                /* \"AllContracts.sol\":15201:15202  g */\n              dup6\n                /* \"AllContracts.sol\":15201:15206  g.bet */\n              0x02\n              add\n              sload\n                /* \"AllContracts.sol\":15201:15210  g.bet.mul */\n              tag_136\n              swap1\n                /* \"AllContracts.sol\":15201:15218  g.bet.mul(payout) */\n              swap2\n              swap1\n              0xffffffff\n              and\n              jump\t// in\n            tag_146:\n                /* \"AllContracts.sol\":15201:15222  g.bet.mul(payout).add */\n              tag_137\n              swap1\n                /* \"AllContracts.sol\":15201:15229  g.bet.mul(payout).add(g.bet) */\n              swap2\n              swap1\n              0xffffffff\n              and\n              jump\t// in\n            tag_145:\n                /* \"AllContracts.sol\":15182:15229  uint totalPayout = g.bet.mul(payout).add(g.bet) */\n              swap1\n              pop\n                /* \"AllContracts.sol\":15276:15287  totalPayout */\n              dup1\n                /* \"AllContracts.sol\":15251:15272  address(this).balance */\n              selfbalance\n                /* \"AllContracts.sol\":15251:15287  address(this).balance >= totalPayout */\n              lt\n              iszero\n                /* \"AllContracts.sol\":15243:15324  require(address(this).balance >= totalPayout, \"Contract balance too low to play\") */\n              tag_147\n              jumpi\n              mload(0x40)\n              0x08c379a000000000000000000000000000000000000000000000000000000000\n              dup2\n              mstore\n              0x04\n              add\n              dup1\n              dup1\n              0x20\n              add\n              dup3\n              dup2\n              sub\n              dup3\n              mstore\n              0x20\n              dup2\n              mstore\n              0x20\n              add\n              dup1\n              0x436f6e74726163742062616c616e636520746f6f206c6f7720746f20706c6179\n              dup2\n              mstore\n              pop\n              0x20\n              add\n              swap2\n              pop\n              pop\n              mload(0x40)\n              dup1\n              swap2\n              sub\n              swap1\n              revert\n            tag_147:\n                /* \"AllContracts.sol\":15350:15380  randomness.mod(maxPick).add(1) */\n              tag_148\n                /* \"AllContracts.sol\":15378:15379  1 */\n              0x01\n                /* \"AllContracts.sol\":15350:15373  randomness.mod(maxPick) */\n              tag_149\n                /* \"AllContracts.sol\":15365:15372  maxPick */\n              sload(0x0e)\n                /* \"AllContracts.sol\":15350:15360  randomness */\n              dup7\n                /* \"AllContracts.sol\":15350:15364  randomness.mod */\n              tag_150\n              swap1\n                /* \"AllContracts.sol\":15350:15373  randomness.mod(maxPick) */\n              swap2\n              swap1\n              0xffffffff\n              and\n              jump\t// in\n            tag_149:\n                /* \"AllContracts.sol\":15350:15377  randomness.mod(maxPick).add */\n              tag_137\n              swap1\n                /* \"AllContracts.sol\":15350:15380  randomness.mod(maxPick).add(1) */\n              swap2\n              swap1\n              0xffffffff\n              and\n              jump\t// in\n            tag_148:\n                /* \"AllContracts.sol\":15339:15340  g */\n              dup3\n                /* \"AllContracts.sol\":15339:15347  g.winner */\n              0x04\n              add\n                /* \"AllContracts.sol\":15339:15380  g.winner = randomness.mod(maxPick).add(1) */\n              dup2\n              swap1\n              sstore\n              pop\n                /* \"AllContracts.sol\":15406:15410  true */\n              0x01\n                /* \"AllContracts.sol\":15395:15396  g */\n              dup3\n                /* \"AllContracts.sol\":15395:15403  g.played */\n              0x05\n              add\n              0x00\n                /* \"AllContracts.sol\":15395:15410  g.played = true */\n              0x0100\n              exp\n              dup2\n              sload\n              dup2\n              0xff\n              mul\n              not\n              and\n              swap1\n              dup4\n              iszero\n              iszero\n              mul\n              or\n              swap1\n              sstore\n              pop\n                /* \"AllContracts.sol\":15445:15446  g */\n              dup2\n                /* \"AllContracts.sol\":15445:15450  g.bet */\n              0x02\n              add\n              sload\n                /* \"AllContracts.sol\":15428:15441  _unplayedBets */\n              sload(0x11)\n                /* \"AllContracts.sol\":15428:15450  _unplayedBets >= g.bet */\n              lt\n                /* \"AllContracts.sol\":15425:15563  if(_unplayedBets >= g.bet) {... */\n              tag_151\n              jumpi\n                /* \"AllContracts.sol\":15487:15488  g */\n              dup2\n                /* \"AllContracts.sol\":15487:15492  g.bet */\n              0x02\n              add\n              sload\n                /* \"AllContracts.sol\":15470:15483  _unplayedBets */\n              0x11\n              0x00\n                /* \"AllContracts.sol\":15470:15492  _unplayedBets -= g.bet */\n              dup3\n              dup3\n              sload\n              sub\n              swap3\n              pop\n              pop\n              dup2\n              swap1\n              sstore\n              pop\n                /* \"AllContracts.sol\":15425:15563  if(_unplayedBets >= g.bet) {... */\n              jump(tag_152)\n            tag_151:\n                /* \"AllContracts.sol\":15547:15548  0 */\n              0x00\n                /* \"AllContracts.sol\":15531:15544  _unplayedBets */\n              0x11\n                /* \"AllContracts.sol\":15531:15548  _unplayedBets = 0 */\n              dup2\n              swap1\n              sstore\n              pop\n                /* \"AllContracts.sol\":15425:15563  if(_unplayedBets >= g.bet) {... */\n            tag_152:\n                /* \"AllContracts.sol\":15591:15592  g */\n              dup2\n                /* \"AllContracts.sol\":15591:15599  g.winner */\n              0x04\n              add\n              sload\n                /* \"AllContracts.sol\":15581:15582  g */\n              dup3\n                /* \"AllContracts.sol\":15581:15587  g.pick */\n              0x03\n              add\n              sload\n                /* \"AllContracts.sol\":15581:15599  g.pick == g.winner */\n              eq\n                /* \"AllContracts.sol\":15577:15718  if (g.pick == g.winner) {... */\n              iszero\n              tag_153\n              jumpi\n                /* \"AllContracts.sol\":15619:15620  g */\n              dup2\n                /* \"AllContracts.sol\":15619:15627  g.player */\n              0x01\n              add\n              0x00\n              swap1\n              sload\n              swap1\n              0x0100\n              exp\n              swap1\n              div\n              0xffffffffffffffffffffffffffffffffffffffff\n              and\n                /* \"AllContracts.sol\":15619:15636  g.player.transfer */\n              0xffffffffffffffffffffffffffffffffffffffff\n              and\n                /* \"AllContracts.sol\":15619:15649  g.player.transfer(totalPayout) */\n              0x08fc\n                /* \"AllContracts.sol\":15637:15648  totalPayout */\n              dup3\n                /* \"AllContracts.sol\":15619:15649  g.player.transfer(totalPayout) */\n              swap1\n              dup2\n              iszero\n              mul\n              swap1\n              mload(0x40)\n              0x00\n              mload(0x40)\n              dup1\n              dup4\n              sub\n              dup2\n              dup6\n              dup9\n              dup9\n              call\n              swap4\n              pop\n              pop\n              pop\n              pop\n              iszero\n                /* \"--CODEGEN--\":8:17   */\n              dup1\n                /* \"--CODEGEN--\":5:7   */\n              iszero\n              tag_155\n              jumpi\n                /* \"--CODEGEN--\":45:61   */\n              returndatasize\n                /* \"--CODEGEN--\":42:43   */\n              0x00\n                /* \"--CODEGEN--\":39:40   */\n              dup1\n                /* \"--CODEGEN--\":24:62   */\n              returndatacopy\n                /* \"--CODEGEN--\":77:93   */\n              returndatasize\n                /* \"--CODEGEN--\":74:75   */\n              0x00\n                /* \"--CODEGEN--\":67:94   */\n              revert\n                /* \"--CODEGEN--\":5:7   */\n            tag_155:\n                /* \"AllContracts.sol\":15619:15649  g.player.transfer(totalPayout) */\n              pop\n                /* \"AllContracts.sol\":15577:15718  if (g.pick == g.winner) {... */\n              jump(tag_156)\n            tag_153:\n                /* \"AllContracts.sol\":15702:15703  0 */\n              0x00\n                /* \"AllContracts.sol\":15688:15703  totalPayout = 0 */\n              swap1\n              pop\n                /* \"AllContracts.sol\":15577:15718  if (g.pick == g.winner) {... */\n            tag_156:\n                /* \"AllContracts.sol\":15737:15795  GamePlayed(g.player, g.bet, g.pick, g.winner, totalPayout) */\n              0xc06600d6399308f270bc6ae70d5377121b685c974bb7f7355824fddd8a2b3497\n                /* \"AllContracts.sol\":15748:15749  g */\n              dup3\n                /* \"AllContracts.sol\":15748:15756  g.player */\n              0x01\n              add\n              0x00\n              swap1\n              sload\n              swap1\n              0x0100\n              exp\n              swap1\n              div\n              0xffffffffffffffffffffffffffffffffffffffff\n              and\n                /* \"AllContracts.sol\":15758:15759  g */\n              dup4\n                /* \"AllContracts.sol\":15758:15763  g.bet */\n              0x02\n              add\n              sload\n                /* \"AllContracts.sol\":15765:15766  g */\n              dup5\n                /* \"AllContracts.sol\":15765:15771  g.pick */\n              0x03\n              add\n              sload\n                /* \"AllContracts.sol\":15773:15774  g */\n              dup6\n                /* \"AllContracts.sol\":15773:15781  g.winner */\n              0x04\n              add\n              sload\n                /* \"AllContracts.sol\":15783:15794  totalPayout */\n              dup6\n                /* \"AllContracts.sol\":15737:15795  GamePlayed(g.player, g.bet, g.pick, g.winner, totalPayout) */\n              mload(0x40)\n              dup1\n              dup7\n              0xffffffffffffffffffffffffffffffffffffffff\n              and\n              0xffffffffffffffffffffffffffffffffffffffff\n              and\n              dup2\n              mstore\n              0x20\n              add\n              dup6\n              dup2\n              mstore\n              0x20\n              add\n              dup5\n              dup2\n              mstore\n              0x20\n              add\n              dup4\n              dup2\n              mstore\n              0x20\n              add\n              dup3\n              dup2\n              mstore\n              0x20\n              add\n              swap6\n              pop\n              pop\n              pop\n              pop\n              pop\n              pop\n              mload(0x40)\n              dup1\n              swap2\n              sub\n              swap1\n              log1\n                /* \"AllContracts.sol\":15056:15806  if(g.id > 0 && g.played == false){... */\n              pop\n            tag_143:\n                /* \"AllContracts.sol\":15822:15823  1 */\n              0x01\n                /* \"AllContracts.sol\":15815:15819  gas1 */\n              0x03\n                /* \"AllContracts.sol\":15815:15823  gas1 = 1 */\n              dup2\n              swap1\n              sstore\n              pop\n                /* \"AllContracts.sol\":15840:15841  1 */\n              0x01\n                /* \"AllContracts.sol\":15833:15837  gas2 */\n              0x04\n                /* \"AllContracts.sol\":15833:15841  gas2 = 1 */\n              dup2\n              swap1\n              sstore\n              pop\n                /* \"AllContracts.sol\":15858:15859  1 */\n              0x01\n                /* \"AllContracts.sol\":15851:15855  gas3 */\n              0x05\n                /* \"AllContracts.sol\":15851:15859  gas3 = 1 */\n              dup2\n              swap1\n              sstore\n              pop\n                /* \"AllContracts.sol\":15876:15877  1 */\n              0x01\n                /* \"AllContracts.sol\":15869:15873  gas4 */\n              0x06\n                /* \"AllContracts.sol\":15869:15877  gas4 = 1 */\n              dup2\n              swap1\n              sstore\n              pop\n                /* \"AllContracts.sol\":15894:15895  1 */\n              0x01\n                /* \"AllContracts.sol\":15887:15891  gas5 */\n              0x07\n                /* \"AllContracts.sol\":15887:15895  gas5 = 1 */\n              dup2\n              swap1\n              sstore\n              pop\n                /* \"AllContracts.sol\":15912:15913  1 */\n              0x01\n                /* \"AllContracts.sol\":15905:15909  gas6 */\n              0x08\n                /* \"AllContracts.sol\":15905:15913  gas6 = 1 */\n              dup2\n              swap1\n              sstore\n              pop\n                /* \"AllContracts.sol\":15930:15931  1 */\n              0x01\n                /* \"AllContracts.sol\":15923:15927  gas7 */\n              0x09\n                /* \"AllContracts.sol\":15923:15931  gas7 = 1 */\n              dup2\n              swap1\n              sstore\n              pop\n                /* \"AllContracts.sol\":15948:15949  1 */\n              0x01\n                /* \"AllContracts.sol\":15941:15945  gas8 */\n              0x0a\n                /* \"AllContracts.sol\":15941:15949  gas8 = 1 */\n              dup2\n              swap1\n              sstore\n              pop\n                /* \"AllContracts.sol\":15966:15967  1 */\n              0x01\n                /* \"AllContracts.sol\":15959:15963  gas9 */\n              0x0b\n                /* \"AllContracts.sol\":15959:15967  gas9 = 1 */\n              dup2\n              swap1\n              sstore\n              pop\n                /* \"AllContracts.sol\":15985:15986  1 */\n              0x01\n                /* \"AllContracts.sol\":15977:15982  gas10 */\n              0x0c\n                /* \"AllContracts.sol\":15977:15986  gas10 = 1 */\n              dup2\n              swap1\n              sstore\n              pop\n                /* \"AllContracts.sol\":16004:16005  1 */\n              0x01\n                /* \"AllContracts.sol\":15996:16001  gas11 */\n              0x0d\n                /* \"AllContracts.sol\":15996:16005  gas11 = 1 */\n              dup2\n              swap1\n              sstore\n              pop\n                /* \"AllContracts.sol\":14777:16012  function fulfillRandomness(bytes32 requestId, uint256 randomness) external {... */\n              pop\n              pop\n              pop\n              jump\t// out\n                /* \"AllContracts.sol\":8813:8831  uint public maxBet */\n            tag_55:\n              sload(0x0f)\n              dup2\n              jump\t// out\n                /* \"AllContracts.sol\":8788:8807  uint public maxPick */\n            tag_58:\n              sload(0x0e)\n              dup2\n              jump\t// out\n                /* \"AllContracts.sol\":18348:18470  function setPayoutAddress(address payable _payoutAddress) public onlyOwner {... */\n            tag_62:\n                /* \"AllContracts.sol\":1141:1153  _msgSender() */\n              tag_158\n                /* \"AllContracts.sol\":1141:1151  _msgSender */\n              tag_159\n                /* \"AllContracts.sol\":1141:1153  _msgSender() */\n              jump\t// in\n            tag_158:\n                /* \"AllContracts.sol\":1131:1153  _owner == _msgSender() */\n              0xffffffffffffffffffffffffffffffffffffffff\n              and\n                /* \"AllContracts.sol\":1131:1137  _owner */\n              0x00\n              dup1\n              swap1\n              sload\n              swap1\n              0x0100\n              exp\n              swap1\n              div\n              0xffffffffffffffffffffffffffffffffffffffff\n              and\n                /* \"AllContracts.sol\":1131:1153  _owner == _msgSender() */\n              0xffffffffffffffffffffffffffffffffffffffff\n              and\n              eq\n                /* \"AllContracts.sol\":1123:1190  require(_owner == _msgSender(), \"Ownable: caller is not the owner\") */\n              tag_160\n              jumpi\n              mload(0x40)\n              0x08c379a000000000000000000000000000000000000000000000000000000000\n              dup2\n              mstore\n              0x04\n              add\n              dup1\n              dup1\n              0x20\n              add\n              dup3\n              dup2\n              sub\n              dup3\n              mstore\n              0x20\n              dup2\n              mstore\n              0x20\n              add\n              dup1\n              0x4f776e61626c653a2063616c6c6572206973206e6f7420746865206f776e6572\n              dup2\n              mstore\n              pop\n              0x20\n              add\n              swap2\n              pop\n              pop\n              mload(0x40)\n              dup1\n              swap2\n              sub\n              swap1\n              revert\n            tag_160:\n                /* \"AllContracts.sol\":18449:18463  _payoutAddress */\n              dup1\n                /* \"AllContracts.sol\":18433:18446  payoutAddress */\n              0x13\n              0x00\n                /* \"AllContracts.sol\":18433:18463  payoutAddress = _payoutAddress */\n              0x0100\n              exp\n              dup2\n              sload\n              dup2\n              0xffffffffffffffffffffffffffffffffffffffff\n              mul\n              not\n              and\n              swap1\n              dup4\n              0xffffffffffffffffffffffffffffffffffffffff\n              and\n              mul\n              or\n              swap1\n              sstore\n              pop\n                /* \"AllContracts.sol\":18348:18470  function setPayoutAddress(address payable _payoutAddress) public onlyOwner {... */\n              pop\n              jump\t// out\n                /* \"AllContracts.sol\":9057:9106  mapping(address => bool) public authorizedAddress */\n            tag_66:\n              mstore(0x20, 0x15)\n              dup1\n              0x00\n              mstore\n              keccak256(0x00, 0x40)\n              0x00\n              swap2\n              pop\n              sload\n              swap1\n              0x0100\n              exp\n              swap1\n              div\n              0xff\n              and\n              dup2\n              jump\t// out\n                /* \"AllContracts.sol\":16118:16282  function getSummary() public view returns(uint, uint, uint, uint) {... */\n            tag_69:\n                /* \"AllContracts.sol\":16160:16164  uint */\n              0x00\n                /* \"AllContracts.sol\":16166:16170  uint */\n              dup1\n                /* \"AllContracts.sol\":16172:16176  uint */\n              0x00\n                /* \"AllContracts.sol\":16178:16182  uint */\n              dup1\n                /* \"AllContracts.sol\":16243:16249  minBet */\n              sload(0x10)\n                /* \"AllContracts.sol\":16251:16257  maxBet */\n              sload(0x0f)\n                /* \"AllContracts.sol\":16259:16265  payout */\n              sload(0x14)\n                /* \"AllContracts.sol\":16267:16274  maxPick */\n              sload(0x0e)\n                /* \"AllContracts.sol\":16236:16275  return(minBet, maxBet, payout, maxPick) */\n              swap4\n              pop\n              swap4\n              pop\n              swap4\n              pop\n              swap4\n              pop\n                /* \"AllContracts.sol\":16118:16282  function getSummary() public view returns(uint, uint, uint, uint) {... */\n              swap1\n              swap2\n              swap3\n              swap4\n              jump\t// out\n                /* \"AllContracts.sol\":10554:10658  function getLinkBalance() public view returns(uint){... */\n            tag_72:\n                /* \"AllContracts.sol\":10600:10604  uint */\n              0x00\n                /* \"AllContracts.sol\":10622:10626  LINK */\n              0x01\n              0x00\n              swap1\n              sload\n              swap1\n              0x0100\n              exp\n              swap1\n              div\n              0xffffffffffffffffffffffffffffffffffffffff\n              and\n                /* \"AllContracts.sol\":10622:10636  LINK.balanceOf */\n              0xffffffffffffffffffffffffffffffffffffffff\n              and\n              0x70a08231\n                /* \"AllContracts.sol\":10645:10649  this */\n              address\n                /* \"AllContracts.sol\":10622:10651  LINK.balanceOf(address(this)) */\n              mload(0x40)\n              dup3\n              0xffffffff\n              and\n              0xe0\n              shl\n              dup2\n              mstore\n              0x04\n              add\n              dup1\n              dup3\n              0xffffffffffffffffffffffffffffffffffffffff\n              and\n              0xffffffffffffffffffffffffffffffffffffffff\n              and\n              dup2\n              mstore\n              0x20\n              add\n              swap2\n              pop\n              pop\n              0x20\n              mload(0x40)\n              dup1\n              dup4\n              sub\n              dup2\n              dup7\n              dup1\n              extcodesize\n              iszero\n                /* \"--CODEGEN--\":8:17   */\n              dup1\n                /* \"--CODEGEN--\":5:7   */\n              iszero\n              tag_164\n              jumpi\n                /* \"--CODEGEN--\":30:31   */\n              0x00\n                /* \"--CODEGEN--\":27:28   */\n              dup1\n                /* \"--CODEGEN--\":20:32   */\n              revert\n                /* \"--CODEGEN--\":5:7   */\n            tag_164:\n                /* \"AllContracts.sol\":10622:10651  LINK.balanceOf(address(this)) */\n              pop\n              gas\n              staticcall\n              iszero\n                /* \"--CODEGEN--\":8:17   */\n              dup1\n                /* \"--CODEGEN--\":5:7   */\n              iszero\n              tag_166\n              jumpi\n                /* \"--CODEGEN--\":45:61   */\n              returndatasize\n                /* \"--CODEGEN--\":42:43   */\n              0x00\n                /* \"--CODEGEN--\":39:40   */\n              dup1\n                /* \"--CODEGEN--\":24:62   */\n              returndatacopy\n                /* \"--CODEGEN--\":77:93   */\n              returndatasize\n                /* \"--CODEGEN--\":74:75   */\n              0x00\n                /* \"--CODEGEN--\":67:94   */\n              revert\n                /* \"--CODEGEN--\":5:7   */\n            tag_166:\n                /* \"AllContracts.sol\":10622:10651  LINK.balanceOf(address(this)) */\n              pop\n              pop\n              pop\n              pop\n              mload(0x40)\n              returndatasize\n                /* \"--CODEGEN--\":13:15   */\n              0x20\n                /* \"--CODEGEN--\":8:11   */\n              dup2\n                /* \"--CODEGEN--\":5:16   */\n              lt\n                /* \"--CODEGEN--\":2:4   */\n              iszero\n              tag_167\n              jumpi\n                /* \"--CODEGEN--\":29:30   */\n              0x00\n                /* \"--CODEGEN--\":26:27   */\n              dup1\n                /* \"--CODEGEN--\":19:31   */\n              revert\n                /* \"--CODEGEN--\":2:4   */\n            tag_167:\n                /* \"AllContracts.sol\":10622:10651  LINK.balanceOf(address(this)) */\n              dup2\n              add\n              swap1\n              dup1\n              dup1\n              mload\n              swap1\n              0x20\n              add\n              swap1\n              swap3\n              swap2\n              swap1\n              pop\n              pop\n              pop\n                /* \"AllContracts.sol\":10615:10651  return LINK.balanceOf(address(this)) */\n              swap1\n              pop\n                /* \"AllContracts.sol\":10554:10658  function getLinkBalance() public view returns(uint){... */\n              swap1\n              jump\t// out\n                /* \"AllContracts.sol\":8924:8960  address payable public payoutAddress */\n            tag_75:\n              0x13\n              0x00\n              swap1\n              sload\n              swap1\n              0x0100\n              exp\n              swap1\n              div\n              0xffffffffffffffffffffffffffffffffffffffff\n              and\n              dup2\n              jump\t// out\n                /* \"AllContracts.sol\":8966:8984  uint public payout */\n            tag_78:\n              sload(0x14)\n              dup2\n              jump\t// out\n                /* \"AllContracts.sol\":1550:1695  function renounceOwnership() public virtual onlyOwner {... */\n            tag_81:\n                /* \"AllContracts.sol\":1141:1153  _msgSender() */\n              tag_169\n                /* \"AllContracts.sol\":1141:1151  _msgSender */\n              tag_159\n                /* \"AllContracts.sol\":1141:1153  _msgSender() */\n              jump\t// in\n            tag_169:\n                /* \"AllContracts.sol\":1131:1153  _owner == _msgSender() */\n              0xffffffffffffffffffffffffffffffffffffffff\n              and\n                /* \"AllContracts.sol\":1131:1137  _owner */\n              0x00\n              dup1\n              swap1\n              sload\n              swap1\n              0x0100\n              exp\n              swap1\n              div\n              0xffffffffffffffffffffffffffffffffffffffff\n              and\n                /* \"AllContracts.sol\":1131:1153  _owner == _msgSender() */\n              0xffffffffffffffffffffffffffffffffffffffff\n              and\n              eq\n                /* \"AllContracts.sol\":1123:1190  require(_owner == _msgSender(), \"Ownable: caller is not the owner\") */\n              tag_170\n              jumpi\n              mload(0x40)\n              0x08c379a000000000000000000000000000000000000000000000000000000000\n              dup2\n              mstore\n              0x04\n              add\n              dup1\n              dup1\n              0x20\n              add\n              dup3\n              dup2\n              sub\n              dup3\n              mstore\n              0x20\n              dup2\n              mstore\n              0x20\n              add\n              dup1\n              0x4f776e61626c653a2063616c6c6572206973206e6f7420746865206f776e6572\n              dup2\n              mstore\n              pop\n              0x20\n              add\n              swap2\n              pop\n              pop\n              mload(0x40)\n              dup1\n              swap2\n              sub\n              swap1\n              revert\n            tag_170:\n                /* \"AllContracts.sol\":1656:1657  0 */\n              0x00\n                /* \"AllContracts.sol\":1619:1659  OwnershipTransferred(_owner, address(0)) */\n              0xffffffffffffffffffffffffffffffffffffffff\n              and\n                /* \"AllContracts.sol\":1640:1646  _owner */\n              0x00\n              dup1\n              swap1\n              sload\n              swap1\n              0x0100\n              exp\n              swap1\n              div\n              0xffffffffffffffffffffffffffffffffffffffff\n              and\n                /* \"AllContracts.sol\":1619:1659  OwnershipTransferred(_owner, address(0)) */\n              0xffffffffffffffffffffffffffffffffffffffff\n              and\n              0x8be0079c531659141344cd1fd0a4f28419497f9722a3daafe3b4186f6b6457e0\n              mload(0x40)\n              mload(0x40)\n              dup1\n              swap2\n              sub\n              swap1\n              log3\n                /* \"AllContracts.sol\":1686:1687  0 */\n              0x00\n                /* \"AllContracts.sol\":1669:1675  _owner */\n              dup1\n              0x00\n                /* \"AllContracts.sol\":1669:1688  _owner = address(0) */\n              0x0100\n              exp\n              dup2\n              sload\n              dup2\n              0xffffffffffffffffffffffffffffffffffffffff\n              mul\n              not\n              and\n              swap1\n              dup4\n              0xffffffffffffffffffffffffffffffffffffffff\n              and\n              mul\n              or\n              swap1\n              sstore\n              pop\n                /* \"AllContracts.sol\":1550:1695  function renounceOwnership() public virtual onlyOwner {... */\n              jump\t// out\n                /* \"AllContracts.sol\":17701:17811  function withdrawLink(uint amount) public onlyAuthorized {... */\n            tag_85:\n                /* \"AllContracts.sol\":10458:10468  msg.sender */\n              caller\n                /* \"AllContracts.sol\":10447:10468  owner() == msg.sender */\n              0xffffffffffffffffffffffffffffffffffffffff\n              and\n                /* \"AllContracts.sol\":10447:10454  owner() */\n              tag_173\n                /* \"AllContracts.sol\":10447:10452  owner */\n              tag_88\n                /* \"AllContracts.sol\":10447:10454  owner() */\n              jump\t// in\n            tag_173:\n                /* \"AllContracts.sol\":10447:10468  owner() == msg.sender */\n              0xffffffffffffffffffffffffffffffffffffffff\n              and\n              eq\n                /* \"AllContracts.sol\":10447:10501  owner() == msg.sender || authorizedAddress[msg.sender] */\n              dup1\n              tag_174\n              jumpi\n              pop\n                /* \"AllContracts.sol\":10472:10489  authorizedAddress */\n              0x15\n                /* \"AllContracts.sol\":10472:10501  authorizedAddress[msg.sender] */\n              0x00\n                /* \"AllContracts.sol\":10490:10500  msg.sender */\n              caller\n                /* \"AllContracts.sol\":10472:10501  authorizedAddress[msg.sender] */\n              0xffffffffffffffffffffffffffffffffffffffff\n              and\n              0xffffffffffffffffffffffffffffffffffffffff\n              and\n              dup2\n              mstore\n              0x20\n              add\n              swap1\n              dup2\n              mstore\n              0x20\n              add\n              0x00\n              keccak256\n              0x00\n              swap1\n              sload\n              swap1\n              0x0100\n              exp\n              swap1\n              div\n              0xff\n              and\n                /* \"AllContracts.sol\":10447:10501  owner() == msg.sender || authorizedAddress[msg.sender] */\n            tag_174:\n                /* \"AllContracts.sol\":10439:10530  require(owner() == msg.sender || authorizedAddress[msg.sender], \"caller is not authorized\") */\n              tag_175\n              jumpi\n              mload(0x40)\n              0x08c379a000000000000000000000000000000000000000000000000000000000\n              dup2\n              mstore\n              0x04\n              add\n              dup1\n              dup1\n              0x20\n              add\n              dup3\n              dup2\n              sub\n              dup3\n              mstore\n              0x18\n              dup2\n              mstore\n              0x20\n              add\n              dup1\n              0x63616c6c6572206973206e6f7420617574686f72697a65640000000000000000\n              dup2\n              mstore\n              pop\n              0x20\n              add\n              swap2\n              pop\n              pop\n              mload(0x40)\n              dup1\n              swap2\n              sub\n              swap1\n              revert\n            tag_175:\n                /* \"AllContracts.sol\":17768:17772  LINK */\n              0x01\n              0x00\n              swap1\n              sload\n              swap1\n              0x0100\n              exp\n              swap1\n              div\n              0xffffffffffffffffffffffffffffffffffffffff\n              and\n                /* \"AllContracts.sol\":17768:17781  LINK.transfer */\n              0xffffffffffffffffffffffffffffffffffffffff\n              and\n              0xa9059cbb\n                /* \"AllContracts.sol\":17782:17795  payoutAddress */\n              0x13\n              0x00\n              swap1\n              sload\n              swap1\n              0x0100\n              exp\n              swap1\n              div\n              0xffffffffffffffffffffffffffffffffffffffff\n              and\n                /* \"AllContracts.sol\":17797:17803  amount */\n              dup4\n                /* \"AllContracts.sol\":17768:17804  LINK.transfer(payoutAddress, amount) */\n              mload(0x40)\n              dup4\n              0xffffffff\n              and\n              0xe0\n              shl\n              dup2\n              mstore\n              0x04\n              add\n              dup1\n              dup4\n              0xffffffffffffffffffffffffffffffffffffffff\n              and\n              0xffffffffffffffffffffffffffffffffffffffff\n              and\n              dup2\n              mstore\n              0x20\n              add\n              dup3\n              dup2\n              mstore\n              0x20\n              add\n              swap3\n              pop\n              pop\n              pop\n              0x20\n              mload(0x40)\n              dup1\n              dup4\n              sub\n              dup2\n              0x00\n              dup8\n              dup1\n              extcodesize\n              iszero\n                /* \"--CODEGEN--\":8:17   */\n              dup1\n                /* \"--CODEGEN--\":5:7   */\n              iszero\n              tag_177\n              jumpi\n                /* \"--CODEGEN--\":30:31   */\n              0x00\n                /* \"--CODEGEN--\":27:28   */\n              dup1\n                /* \"--CODEGEN--\":20:32   */\n              revert\n                /* \"--CODEGEN--\":5:7   */\n            tag_177:\n                /* \"AllContracts.sol\":17768:17804  LINK.transfer(payoutAddress, amount) */\n              pop\n              gas\n              call\n              iszero\n                /* \"--CODEGEN--\":8:17   */\n              dup1\n                /* \"--CODEGEN--\":5:7   */\n              iszero\n              tag_179\n              jumpi\n                /* \"--CODEGEN--\":45:61   */\n              returndatasize\n                /* \"--CODEGEN--\":42:43   */\n              0x00\n                /* \"--CODEGEN--\":39:40   */\n              dup1\n                /* \"--CODEGEN--\":24:62   */\n              returndatacopy\n                /* \"--CODEGEN--\":77:93   */\n              returndatasize\n                /* \"--CODEGEN--\":74:75   */\n              0x00\n                /* \"--CODEGEN--\":67:94   */\n              revert\n                /* \"--CODEGEN--\":5:7   */\n            tag_179:\n                /* \"AllContracts.sol\":17768:17804  LINK.transfer(payoutAddress, amount) */\n              pop\n              pop\n              pop\n              pop\n              mload(0x40)\n              returndatasize\n                /* \"--CODEGEN--\":13:15   */\n              0x20\n                /* \"--CODEGEN--\":8:11   */\n              dup2\n                /* \"--CODEGEN--\":5:16   */\n              lt\n                /* \"--CODEGEN--\":2:4   */\n              iszero\n              tag_180\n              jumpi\n                /* \"--CODEGEN--\":29:30   */\n              0x00\n                /* \"--CODEGEN--\":26:27   */\n              dup1\n                /* \"--CODEGEN--\":19:31   */\n              revert\n                /* \"--CODEGEN--\":2:4   */\n            tag_180:\n                /* \"AllContracts.sol\":17768:17804  LINK.transfer(payoutAddress, amount) */\n              dup2\n              add\n              swap1\n              dup1\n              dup1\n              mload\n              swap1\n              0x20\n              add\n              swap1\n              swap3\n              swap2\n              swap1\n              pop\n              pop\n              pop\n              pop\n                /* \"AllContracts.sol\":17701:17811  function withdrawLink(uint amount) public onlyAuthorized {... */\n              pop\n              jump\t// out\n                /* \"AllContracts.sol\":927:1004  function owner() public view returns (address) {... */\n            tag_88:\n                /* \"AllContracts.sol\":965:972  address */\n              0x00\n                /* \"AllContracts.sol\":991:997  _owner */\n              dup1\n              0x00\n              swap1\n              sload\n              swap1\n              0x0100\n              exp\n              swap1\n              div\n              0xffffffffffffffffffffffffffffffffffffffff\n              and\n                /* \"AllContracts.sol\":984:997  return _owner */\n              swap1\n              pop\n                /* \"AllContracts.sol\":927:1004  function owner() public view returns (address) {... */\n              swap1\n              jump\t// out\n                /* \"AllContracts.sol\":8837:8855  uint public minBet */\n            tag_91:\n              sload(0x10)\n              dup2\n              jump\t// out\n                /* \"AllContracts.sol\":19391:19503  function setLINK(address _linkAddress) public onlyOwner {... */\n            tag_95:\n                /* \"AllContracts.sol\":1141:1153  _msgSender() */\n              tag_183\n                /* \"AllContracts.sol\":1141:1151  _msgSender */\n              tag_159\n                /* \"AllContracts.sol\":1141:1153  _msgSender() */\n              jump\t// in\n            tag_183:\n                /* \"AllContracts.sol\":1131:1153  _owner == _msgSender() */\n              0xffffffffffffffffffffffffffffffffffffffff\n              and\n                /* \"AllContracts.sol\":1131:1137  _owner */\n              0x00\n              dup1\n              swap1\n              sload\n              swap1\n              0x0100\n              exp\n              swap1\n              div\n              0xffffffffffffffffffffffffffffffffffffffff\n              and\n                /* \"AllContracts.sol\":1131:1153  _owner == _msgSender() */\n              0xffffffffffffffffffffffffffffffffffffffff\n              and\n              eq\n                /* \"AllContracts.sol\":1123:1190  require(_owner == _msgSender(), \"Ownable: caller is not the owner\") */\n              tag_184\n              jumpi\n              mload(0x40)\n              0x08c379a000000000000000000000000000000000000000000000000000000000\n              dup2\n              mstore\n              0x04\n              add\n              dup1\n              dup1\n              0x20\n              add\n              dup3\n              dup2\n              sub\n              dup3\n              mstore\n              0x20\n              dup2\n              mstore\n              0x20\n              add\n              dup1\n              0x4f776e61626c653a2063616c6c6572206973206e6f7420746865206f776e6572\n              dup2\n              mstore\n              pop\n              0x20\n              add\n              swap2\n              pop\n              pop\n              mload(0x40)\n              dup1\n              swap2\n              sub\n              swap1\n              revert\n            tag_184:\n                /* \"AllContracts.sol\":19483:19495  _linkAddress */\n              dup1\n                /* \"AllContracts.sol\":19457:19461  LINK */\n              0x01\n              0x00\n                /* \"AllContracts.sol\":19457:19496  LINK = LinkTokenInterface(_linkAddress) */\n              0x0100\n              exp\n              dup2\n              sload\n              dup2\n              0xffffffffffffffffffffffffffffffffffffffff\n              mul\n              not\n              and\n              swap1\n              dup4\n              0xffffffffffffffffffffffffffffffffffffffff\n              and\n              mul\n              or\n              swap1\n              sstore\n              pop\n                /* \"AllContracts.sol\":19391:19503  function setLINK(address _linkAddress) public onlyOwner {... */\n              pop\n              jump\t// out\n                /* \"AllContracts.sol\":18005:18147  function setAuthorizedUser(address userAddress, bool authorized) public onlyOwner {... */\n            tag_99:\n                /* \"AllContracts.sol\":1141:1153  _msgSender() */\n              tag_187\n                /* \"AllContracts.sol\":1141:1151  _msgSender */\n              tag_159\n                /* \"AllContracts.sol\":1141:1153  _msgSender() */\n              jump\t// in\n            tag_187:\n                /* \"AllContracts.sol\":1131:1153  _owner == _msgSender() */\n              0xffffffffffffffffffffffffffffffffffffffff\n              and\n                /* \"AllContracts.sol\":1131:1137  _owner */\n              0x00\n              dup1\n              swap1\n              sload\n              swap1\n              0x0100\n              exp\n              swap1\n              div\n              0xffffffffffffffffffffffffffffffffffffffff\n              and\n                /* \"AllContracts.sol\":1131:1153  _owner == _msgSender() */\n              0xffffffffffffffffffffffffffffffffffffffff\n              and\n              eq\n                /* \"AllContracts.sol\":1123:1190  require(_owner == _msgSender(), \"Ownable: caller is not the owner\") */\n              tag_188\n              jumpi\n              mload(0x40)\n              0x08c379a000000000000000000000000000000000000000000000000000000000\n              dup2\n              mstore\n              0x04\n              add\n              dup1\n              dup1\n              0x20\n              add\n              dup3\n              dup2\n              sub\n              dup3\n              mstore\n              0x20\n              dup2\n              mstore\n              0x20\n              add\n              dup1\n              0x4f776e61626c653a2063616c6c6572206973206e6f7420746865206f776e6572\n              dup2\n              mstore\n              pop\n              0x20\n              add\n              swap2\n              pop\n              pop\n              mload(0x40)\n              dup1\n              swap2\n              sub\n              swap1\n              revert\n            tag_188:\n                /* \"AllContracts.sol\":18130:18140  authorized */\n              dup1\n                /* \"AllContracts.sol\":18097:18114  authorizedAddress */\n              0x15\n                /* \"AllContracts.sol\":18097:18127  authorizedAddress[userAddress] */\n              0x00\n                /* \"AllContracts.sol\":18115:18126  userAddress */\n              dup5\n                /* \"AllContracts.sol\":18097:18127  authorizedAddress[userAddress] */\n              0xffffffffffffffffffffffffffffffffffffffff\n              and\n              0xffffffffffffffffffffffffffffffffffffffff\n              and\n              dup2\n              mstore\n              0x20\n              add\n              swap1\n              dup2\n              mstore\n              0x20\n              add\n              0x00\n              keccak256\n              0x00\n                /* \"AllContracts.sol\":18097:18140  authorizedAddress[userAddress] = authorized */\n              0x0100\n              exp\n              dup2\n              sload\n              dup2\n              0xff\n              mul\n              not\n              and\n              swap1\n              dup4\n              iszero\n              iszero\n              mul\n              or\n              swap1\n              sstore\n              pop\n                /* \"AllContracts.sol\":18005:18147  function setAuthorizedUser(address userAddress, bool authorized) public onlyOwner {... */\n              pop\n              pop\n              jump\t// out\n                /* \"AllContracts.sol\":16653:17251  function requestRefund(uint gameID) public{... */\n            tag_103:\n                /* \"AllContracts.sol\":16705:16719  Game storage g */\n              0x00\n                /* \"AllContracts.sol\":16722:16727  games */\n              0x17\n                /* \"AllContracts.sol\":16722:16735  games[gameID] */\n              0x00\n                /* \"AllContracts.sol\":16728:16734  gameID */\n              dup4\n                /* \"AllContracts.sol\":16722:16735  games[gameID] */\n              dup2\n              mstore\n              0x20\n              add\n              swap1\n              dup2\n              mstore\n              0x20\n              add\n              0x00\n              keccak256\n                /* \"AllContracts.sol\":16705:16735  Game storage g = games[gameID] */\n              swap1\n              pop\n                /* \"AllContracts.sol\":16753:16770  authorizedAddress */\n              0x15\n                /* \"AllContracts.sol\":16753:16782  authorizedAddress[msg.sender] */\n              0x00\n                /* \"AllContracts.sol\":16771:16781  msg.sender */\n              caller\n                /* \"AllContracts.sol\":16753:16782  authorizedAddress[msg.sender] */\n              0xffffffffffffffffffffffffffffffffffffffff\n              and\n              0xffffffffffffffffffffffffffffffffffffffff\n              and\n              dup2\n              mstore\n              0x20\n              add\n              swap1\n              dup2\n              mstore\n              0x20\n              add\n              0x00\n              keccak256\n              0x00\n              swap1\n              sload\n              swap1\n              0x0100\n              exp\n              swap1\n              div\n              0xff\n              and\n                /* \"AllContracts.sol\":16753:16807  authorizedAddress[msg.sender] || owner() == msg.sender */\n              dup1\n              tag_191\n              jumpi\n              pop\n                /* \"AllContracts.sol\":16797:16807  msg.sender */\n              caller\n                /* \"AllContracts.sol\":16786:16807  owner() == msg.sender */\n              0xffffffffffffffffffffffffffffffffffffffff\n              and\n                /* \"AllContracts.sol\":16786:16793  owner() */\n              tag_192\n                /* \"AllContracts.sol\":16786:16791  owner */\n              tag_88\n                /* \"AllContracts.sol\":16786:16793  owner() */\n              jump\t// in\n            tag_192:\n                /* \"AllContracts.sol\":16786:16807  owner() == msg.sender */\n              0xffffffffffffffffffffffffffffffffffffffff\n              and\n              eq\n                /* \"AllContracts.sol\":16753:16807  authorizedAddress[msg.sender] || owner() == msg.sender */\n            tag_191:\n                /* \"AllContracts.sol\":16753:16833  authorizedAddress[msg.sender] || owner() == msg.sender || g.player == msg.sender */\n              dup1\n              tag_193\n              jumpi\n              pop\n                /* \"AllContracts.sol\":16823:16833  msg.sender */\n              caller\n                /* \"AllContracts.sol\":16811:16833  g.player == msg.sender */\n              0xffffffffffffffffffffffffffffffffffffffff\n              and\n                /* \"AllContracts.sol\":16811:16812  g */\n              dup2\n                /* \"AllContracts.sol\":16811:16819  g.player */\n              0x01\n              add\n              0x00\n              swap1\n              sload\n              swap1\n              0x0100\n              exp\n              swap1\n              div\n              0xffffffffffffffffffffffffffffffffffffffff\n              and\n                /* \"AllContracts.sol\":16811:16833  g.player == msg.sender */\n              0xffffffffffffffffffffffffffffffffffffffff\n              and\n              eq\n                /* \"AllContracts.sol\":16753:16833  authorizedAddress[msg.sender] || owner() == msg.sender || g.player == msg.sender */\n            tag_193:\n                /* \"AllContracts.sol\":16745:16870  require(authorizedAddress[msg.sender] || owner() == msg.sender || g.player == msg.sender, \"Not authorized to request refund\") */\n              tag_194\n              jumpi\n              mload(0x40)\n              0x08c379a000000000000000000000000000000000000000000000000000000000\n              dup2\n              mstore\n              0x04\n              add\n              dup1\n              dup1\n              0x20\n              add\n              dup3\n              dup2\n              sub\n              dup3\n              mstore\n              0x20\n              dup2\n              mstore\n              0x20\n              add\n              dup1\n              0x4e6f7420617574686f72697a656420746f207265717565737420726566756e64\n              dup2\n              mstore\n              pop\n              0x20\n              add\n              swap2\n              pop\n              pop\n              mload(0x40)\n              dup1\n              swap2\n              sub\n              swap1\n              revert\n            tag_194:\n                /* \"AllContracts.sol\":16900:16905  false */\n              0x00\n                /* \"AllContracts.sol\":16888:16905  g.played == false */\n              iszero\n              iszero\n                /* \"AllContracts.sol\":16888:16889  g */\n              dup2\n                /* \"AllContracts.sol\":16888:16896  g.played */\n              0x05\n              add\n              0x00\n              swap1\n              sload\n              swap1\n              0x0100\n              exp\n              swap1\n              div\n              0xff\n              and\n                /* \"AllContracts.sol\":16888:16905  g.played == false */\n              iszero\n              iszero\n              eq\n                /* \"AllContracts.sol\":16880:16952  require(g.played == false, \"Game already complete. No refund possible.\") */\n              tag_195\n              jumpi\n              mload(0x40)\n              0x08c379a000000000000000000000000000000000000000000000000000000000\n              dup2\n              mstore\n              0x04\n              add\n              dup1\n              dup1\n              0x20\n              add\n              dup3\n              dup2\n              sub\n              dup3\n              mstore\n              0x2a\n              dup2\n              mstore\n              0x20\n              add\n              dup1\n              data_c34c85fa0e0680ac47dc2c21fdf93b1adcc71d9a1a3b3b1788b881c3f4f390ac\n              0x2a\n              swap2\n              codecopy\n              0x40\n              add\n              swap2\n              pop\n              pop\n              mload(0x40)\n              dup1\n              swap2\n              sub\n              swap1\n              revert\n            tag_195:\n                /* \"AllContracts.sol\":16995:16996  g */\n              dup1\n                /* \"AllContracts.sol\":16995:17000  g.bet */\n              0x02\n              add\n              sload\n                /* \"AllContracts.sol\":16970:16991  address(this).balance */\n              selfbalance\n                /* \"AllContracts.sol\":16970:17000  address(this).balance >= g.bet */\n              lt\n              iszero\n                /* \"AllContracts.sol\":16962:17054  require(address(this).balance >= g.bet, \"Contract balance too low. Please try again later.\") */\n              tag_196\n              jumpi\n              mload(0x40)\n              0x08c379a000000000000000000000000000000000000000000000000000000000\n              dup2\n              mstore\n              0x04\n              add\n              dup1\n              dup1\n              0x20\n              add\n              dup3\n              dup2\n              sub\n              dup3\n              mstore\n              0x31\n              dup2\n              mstore\n              0x20\n              add\n              dup1\n              data_b719f220e413600c7e92ed4736b96c6908e0428122610fe965fcc60eefeedbad\n              0x31\n              swap2\n              codecopy\n              0x40\n              add\n              swap2\n              pop\n              pop\n              mload(0x40)\n              dup1\n              swap2\n              sub\n              swap1\n              revert\n            tag_196:\n                /* \"AllContracts.sol\":17075:17079  true */\n              0x01\n                /* \"AllContracts.sol\":17064:17065  g */\n              dup2\n                /* \"AllContracts.sol\":17064:17072  g.played */\n              0x05\n              add\n              0x00\n                /* \"AllContracts.sol\":17064:17079  g.played = true */\n              0x0100\n              exp\n              dup2\n              sload\n              dup2\n              0xff\n              mul\n              not\n              and\n              swap1\n              dup4\n              iszero\n              iszero\n              mul\n              or\n              swap1\n              sstore\n              pop\n                /* \"AllContracts.sol\":17109:17110  g */\n              dup1\n                /* \"AllContracts.sol\":17109:17114  g.bet */\n              0x02\n              add\n              sload\n                /* \"AllContracts.sol\":17092:17105  _unplayedBets */\n              sload(0x11)\n                /* \"AllContracts.sol\":17092:17114  _unplayedBets >= g.bet */\n              lt\n                /* \"AllContracts.sol\":17089:17211  if(_unplayedBets >= g.bet) {... */\n              tag_197\n              jumpi\n                /* \"AllContracts.sol\":17147:17148  g */\n              dup1\n                /* \"AllContracts.sol\":17147:17152  g.bet */\n              0x02\n              add\n              sload\n                /* \"AllContracts.sol\":17130:17143  _unplayedBets */\n              0x11\n              0x00\n                /* \"AllContracts.sol\":17130:17152  _unplayedBets -= g.bet */\n              dup3\n              dup3\n              sload\n              sub\n              swap3\n              pop\n              pop\n              dup2\n              swap1\n              sstore\n              pop\n                /* \"AllContracts.sol\":17089:17211  if(_unplayedBets >= g.bet) {... */\n              jump(tag_198)\n            tag_197:\n                /* \"AllContracts.sol\":17199:17200  0 */\n              0x00\n                /* \"AllContracts.sol\":17183:17196  _unplayedBets */\n              0x11\n                /* \"AllContracts.sol\":17183:17200  _unplayedBets = 0 */\n              dup2\n              swap1\n              sstore\n              pop\n                /* \"AllContracts.sol\":17089:17211  if(_unplayedBets >= g.bet) {... */\n            tag_198:\n                /* \"AllContracts.sol\":17220:17221  g */\n              dup1\n                /* \"AllContracts.sol\":17220:17228  g.player */\n              0x01\n              add\n              0x00\n              swap1\n              sload\n              swap1\n              0x0100\n              exp\n              swap1\n              div\n              0xffffffffffffffffffffffffffffffffffffffff\n              and\n                /* \"AllContracts.sol\":17220:17237  g.player.transfer */\n              0xffffffffffffffffffffffffffffffffffffffff\n              and\n                /* \"AllContracts.sol\":17220:17244  g.player.transfer(g.bet) */\n              0x08fc\n                /* \"AllContracts.sol\":17238:17239  g */\n              dup3\n                /* \"AllContracts.sol\":17238:17243  g.bet */\n              0x02\n              add\n              sload\n                /* \"AllContracts.sol\":17220:17244  g.player.transfer(g.bet) */\n              swap1\n              dup2\n              iszero\n              mul\n              swap1\n              mload(0x40)\n              0x00\n              mload(0x40)\n              dup1\n              dup4\n              sub\n              dup2\n              dup6\n              dup9\n              dup9\n              call\n              swap4\n              pop\n              pop\n              pop\n              pop\n              iszero\n                /* \"--CODEGEN--\":8:17   */\n              dup1\n                /* \"--CODEGEN--\":5:7   */\n              iszero\n              tag_200\n              jumpi\n                /* \"--CODEGEN--\":45:61   */\n              returndatasize\n                /* \"--CODEGEN--\":42:43   */\n              0x00\n                /* \"--CODEGEN--\":39:40   */\n              dup1\n                /* \"--CODEGEN--\":24:62   */\n              returndatacopy\n                /* \"--CODEGEN--\":77:93   */\n              returndatasize\n                /* \"--CODEGEN--\":74:75   */\n              0x00\n                /* \"--CODEGEN--\":67:94   */\n              revert\n                /* \"--CODEGEN--\":5:7   */\n            tag_200:\n                /* \"AllContracts.sol\":17220:17244  g.player.transfer(g.bet) */\n              pop\n                /* \"AllContracts.sol\":16653:17251  function requestRefund(uint gameID) public{... */\n              pop\n              pop\n              jump\t// out\n                /* \"AllContracts.sol\":11526:12155  function placeBetFor(address payable player, uint pick) public payable{... */\n            tag_106:\n                /* \"AllContracts.sol\":11627:11633  minBet */\n              sload(0x10)\n                /* \"AllContracts.sol\":11614:11623  msg.value */\n              callvalue\n                /* \"AllContracts.sol\":11614:11633  msg.value >= minBet */\n              lt\n              iszero\n                /* \"AllContracts.sol\":11606:11657  require(msg.value >= minBet, \"minimum bet not met\") */\n              tag_202\n              jumpi\n              mload(0x40)\n              0x08c379a000000000000000000000000000000000000000000000000000000000\n              dup2\n              mstore\n              0x04\n              add\n              dup1\n              dup1\n              0x20\n              add\n              dup3\n              dup2\n              sub\n              dup3\n              mstore\n              0x13\n              dup2\n              mstore\n              0x20\n              add\n              dup1\n              0x6d696e696d756d20626574206e6f74206d657400000000000000000000000000\n              dup2\n              mstore\n              pop\n              0x20\n              add\n              swap2\n              pop\n              pop\n              mload(0x40)\n              dup1\n              swap2\n              sub\n              swap1\n              revert\n            tag_202:\n                /* \"AllContracts.sol\":11678:11679  1 */\n              0x01\n                /* \"AllContracts.sol\":11670:11674  gas1 */\n              sload(0x03)\n                /* \"AllContracts.sol\":11670:11679  gas1 == 1 */\n              eq\n                /* \"AllContracts.sol\":11667:11969  if(gas1 == 1) {... */\n              iszero\n              tag_203\n              jumpi\n                /* \"AllContracts.sol\":11702:11706  gas1 */\n              0x03\n                /* \"AllContracts.sol\":11695:11706  delete gas1 */\n              0x00\n              swap1\n              sstore\n                /* \"AllContracts.sol\":11727:11731  gas2 */\n              0x04\n                /* \"AllContracts.sol\":11720:11731  delete gas2 */\n              0x00\n              swap1\n              sstore\n                /* \"AllContracts.sol\":11752:11756  gas3 */\n              0x05\n                /* \"AllContracts.sol\":11745:11756  delete gas3 */\n              0x00\n              swap1\n              sstore\n                /* \"AllContracts.sol\":11777:11781  gas4 */\n              0x06\n                /* \"AllContracts.sol\":11770:11781  delete gas4 */\n              0x00\n              swap1\n              sstore\n                /* \"AllContracts.sol\":11802:11806  gas5 */\n              0x07\n                /* \"AllContracts.sol\":11795:11806  delete gas5 */\n              0x00\n              swap1\n              sstore\n                /* \"AllContracts.sol\":11827:11831  gas6 */\n              0x08\n                /* \"AllContracts.sol\":11820:11831  delete gas6 */\n              0x00\n              swap1\n              sstore\n                /* \"AllContracts.sol\":11852:11856  gas7 */\n              0x09\n                /* \"AllContracts.sol\":11845:11856  delete gas7 */\n              0x00\n              swap1\n              sstore\n                /* \"AllContracts.sol\":11877:11881  gas8 */\n              0x0a\n                /* \"AllContracts.sol\":11870:11881  delete gas8 */\n              0x00\n              swap1\n              sstore\n                /* \"AllContracts.sol\":11902:11906  gas9 */\n              0x0b\n                /* \"AllContracts.sol\":11895:11906  delete gas9 */\n              0x00\n              swap1\n              sstore\n                /* \"AllContracts.sol\":11927:11932  gas10 */\n              0x0c\n                /* \"AllContracts.sol\":11920:11932  delete gas10 */\n              0x00\n              swap1\n              sstore\n                /* \"AllContracts.sol\":11953:11958  gas11 */\n              0x0d\n                /* \"AllContracts.sol\":11946:11958  delete gas11 */\n              0x00\n              swap1\n              sstore\n                /* \"AllContracts.sol\":11667:11969  if(gas1 == 1) {... */\n            tag_203:\n                /* \"AllContracts.sol\":11995:12023  _unplayedBets.add(msg.value) */\n              tag_204\n                /* \"AllContracts.sol\":12013:12022  msg.value */\n              callvalue\n                /* \"AllContracts.sol\":11995:12008  _unplayedBets */\n              sload(0x11)\n                /* \"AllContracts.sol\":11995:12012  _unplayedBets.add */\n              tag_137\n              swap1\n                /* \"AllContracts.sol\":11995:12023  _unplayedBets.add(msg.value) */\n              swap2\n              swap1\n              0xffffffff\n              and\n              jump\t// in\n            tag_204:\n                /* \"AllContracts.sol\":11979:11992  _unplayedBets */\n              0x11\n                /* \"AllContracts.sol\":11979:12023  _unplayedBets = _unplayedBets.add(msg.value) */\n              dup2\n              swap1\n              sstore\n              pop\n                /* \"AllContracts.sol\":12033:12068  createGame(player, msg.value, pick) */\n              tag_205\n                /* \"AllContracts.sol\":12044:12050  player */\n              dup3\n                /* \"AllContracts.sol\":12052:12061  msg.value */\n              callvalue\n                /* \"AllContracts.sol\":12063:12067  pick */\n              dup4\n                /* \"AllContracts.sol\":12033:12043  createGame */\n              tag_206\n                /* \"AllContracts.sol\":12033:12068  createGame(player, msg.value, pick) */\n              jump\t// in\n            tag_205:\n                /* \"AllContracts.sol\":12078:12100  playGame(_currentGame) */\n              tag_207\n                /* \"AllContracts.sol\":12087:12099  _currentGame */\n              sload(0x12)\n                /* \"AllContracts.sol\":12078:12086  playGame */\n              tag_208\n                /* \"AllContracts.sol\":12078:12100  playGame(_currentGame) */\n              jump\t// in\n            tag_207:\n                /* \"AllContracts.sol\":12136:12148  _currentGame */\n              sload(0x12)\n                /* \"AllContracts.sol\":12110:12125  lastGameCreated */\n              0x19\n                /* \"AllContracts.sol\":12110:12133  lastGameCreated[player] */\n              0x00\n                /* \"AllContracts.sol\":12126:12132  player */\n              dup5\n                /* \"AllContracts.sol\":12110:12133  lastGameCreated[player] */\n              0xffffffffffffffffffffffffffffffffffffffff\n              and\n              0xffffffffffffffffffffffffffffffffffffffff\n              and\n              dup2\n              mstore\n              0x20\n              add\n              swap1\n              dup2\n              mstore\n              0x20\n              add\n              0x00\n              keccak256\n                /* \"AllContracts.sol\":12110:12148  lastGameCreated[player] = _currentGame */\n              dup2\n              swap1\n              sstore\n              pop\n                /* \"AllContracts.sol\":11526:12155  function placeBetFor(address payable player, uint pick) public payable{... */\n              pop\n              pop\n              jump\t// out\n                /* \"AllContracts.sol\":9260:9307  mapping(address => uint) public lastGameCreated */\n            tag_110:\n              mstore(0x20, 0x19)\n              dup1\n              0x00\n              mstore\n              keccak256(0x00, 0x40)\n              0x00\n              swap2\n              pop\n              swap1\n              pop\n              sload\n              dup2\n              jump\t// out\n                /* \"AllContracts.sol\":18805:19126  function closeMachine() public onlyOwner {... */\n            tag_113:\n                /* \"AllContracts.sol\":1141:1153  _msgSender() */\n              tag_210\n                /* \"AllContracts.sol\":1141:1151  _msgSender */\n              tag_159\n                /* \"AllContracts.sol\":1141:1153  _msgSender() */\n              jump\t// in\n            tag_210:\n                /* \"AllContracts.sol\":1131:1153  _owner == _msgSender() */\n              0xffffffffffffffffffffffffffffffffffffffff\n              and\n                /* \"AllContracts.sol\":1131:1137  _owner */\n              0x00\n              dup1\n              swap1\n              sload\n              swap1\n              0x0100\n              exp\n              swap1\n              div\n              0xffffffffffffffffffffffffffffffffffffffff\n              and\n                /* \"AllContracts.sol\":1131:1153  _owner == _msgSender() */\n              0xffffffffffffffffffffffffffffffffffffffff\n              and\n              eq\n                /* \"AllContracts.sol\":1123:1190  require(_owner == _msgSender(), \"Ownable: caller is not the owner\") */\n              tag_211\n              jumpi\n              mload(0x40)\n              0x08c379a000000000000000000000000000000000000000000000000000000000\n              dup2\n              mstore\n              0x04\n              add\n              dup1\n              dup1\n              0x20\n              add\n              dup3\n              dup2\n              sub\n              dup3\n              mstore\n              0x20\n              dup2\n              mstore\n              0x20\n              add\n              dup1\n              0x4f776e61626c653a2063616c6c6572206973206e6f7420746865206f776e6572\n              dup2\n              mstore\n              pop\n              0x20\n              add\n              swap2\n              pop\n              pop\n              mload(0x40)\n              dup1\n              swap2\n              sub\n              swap1\n              revert\n            tag_211:\n                /* \"AllContracts.sol\":18856:18885  uint availableContractBalance */\n              0x00\n                /* \"AllContracts.sol\":18888:18928  address(this).balance.sub(_unplayedBets) */\n              tag_213\n                /* \"AllContracts.sol\":18914:18927  _unplayedBets */\n              sload(0x11)\n                /* \"AllContracts.sol\":18888:18909  address(this).balance */\n              selfbalance\n                /* \"AllContracts.sol\":18888:18913  address(this).balance.sub */\n              tag_139\n              swap1\n                /* \"AllContracts.sol\":18888:18928  address(this).balance.sub(_unplayedBets) */\n              swap2\n              swap1\n              0xffffffff\n              and\n              jump\t// in\n            tag_213:\n                /* \"AllContracts.sol\":18856:18928  uint availableContractBalance = address(this).balance.sub(_unplayedBets) */\n              swap1\n              pop\n                /* \"AllContracts.sol\":18938:18951  payoutAddress */\n              0x13\n              0x00\n              swap1\n              sload\n              swap1\n              0x0100\n              exp\n              swap1\n              div\n              0xffffffffffffffffffffffffffffffffffffffff\n              and\n                /* \"AllContracts.sol\":18938:18960  payoutAddress.transfer */\n              0xffffffffffffffffffffffffffffffffffffffff\n              and\n                /* \"AllContracts.sol\":18938:18986  payoutAddress.transfer(availableContractBalance) */\n              0x08fc\n                /* \"AllContracts.sol\":18961:18985  availableContractBalance */\n              dup3\n                /* \"AllContracts.sol\":18938:18986  payoutAddress.transfer(availableContractBalance) */\n              swap1\n              dup2\n              iszero\n              mul\n              swap1\n              mload(0x40)\n              0x00\n              mload(0x40)\n              dup1\n              dup4\n              sub\n              dup2\n              dup6\n              dup9\n              dup9\n              call\n              swap4\n              pop\n              pop\n              pop\n              pop\n              iszero\n                /* \"--CODEGEN--\":8:17   */\n              dup1\n                /* \"--CODEGEN--\":5:7   */\n              iszero\n              tag_215\n              jumpi\n                /* \"--CODEGEN--\":45:61   */\n              returndatasize\n                /* \"--CODEGEN--\":42:43   */\n              0x00\n                /* \"--CODEGEN--\":39:40   */\n              dup1\n                /* \"--CODEGEN--\":24:62   */\n              returndatacopy\n                /* \"--CODEGEN--\":77:93   */\n              returndatasize\n                /* \"--CODEGEN--\":74:75   */\n              0x00\n                /* \"--CODEGEN--\":67:94   */\n              revert\n                /* \"--CODEGEN--\":5:7   */\n            tag_215:\n                /* \"AllContracts.sol\":18938:18986  payoutAddress.transfer(availableContractBalance) */\n              pop\n                /* \"AllContracts.sol\":19033:19034  0 */\n              0x00\n                /* \"AllContracts.sol\":19001:19005  LINK */\n              0x01\n              0x00\n              swap1\n              sload\n              swap1\n              0x0100\n              exp\n              swap1\n              div\n              0xffffffffffffffffffffffffffffffffffffffff\n              and\n                /* \"AllContracts.sol\":19001:19015  LINK.balanceOf */\n              0xffffffffffffffffffffffffffffffffffffffff\n              and\n              0x70a08231\n                /* \"AllContracts.sol\":19024:19028  this */\n              address\n                /* \"AllContracts.sol\":19001:19030  LINK.balanceOf(address(this)) */\n              mload(0x40)\n              dup3\n              0xffffffff\n              and\n              0xe0\n              shl\n              dup2\n              mstore\n              0x04\n              add\n              dup1\n              dup3\n              0xffffffffffffffffffffffffffffffffffffffff\n              and\n              0xffffffffffffffffffffffffffffffffffffffff\n              and\n              dup2\n              mstore\n              0x20\n              add\n              swap2\n              pop\n              pop\n              0x20\n              mload(0x40)\n              dup1\n              dup4\n              sub\n              dup2\n              dup7\n              dup1\n              extcodesize\n              iszero\n                /* \"--CODEGEN--\":8:17   */\n              dup1\n                /* \"--CODEGEN--\":5:7   */\n              iszero\n              tag_216\n              jumpi\n                /* \"--CODEGEN--\":30:31   */\n              0x00\n                /* \"--CODEGEN--\":27:28   */\n              dup1\n                /* \"--CODEGEN--\":20:32   */\n              revert\n                /* \"--CODEGEN--\":5:7   */\n            tag_216:\n                /* \"AllContracts.sol\":19001:19030  LINK.balanceOf(address(this)) */\n              pop\n              gas\n              staticcall\n              iszero\n                /* \"--CODEGEN--\":8:17   */\n              dup1\n                /* \"--CODEGEN--\":5:7   */\n              iszero\n              tag_218\n              jumpi\n                /* \"--CODEGEN--\":45:61   */\n              returndatasize\n                /* \"--CODEGEN--\":42:43   */\n              0x00\n                /* \"--CODEGEN--\":39:40   */\n              dup1\n                /* \"--CODEGEN--\":24:62   */\n              returndatacopy\n                /* \"--CODEGEN--\":77:93   */\n              returndatasize\n                /* \"--CODEGEN--\":74:75   */\n              0x00\n                /* \"--CODEGEN--\":67:94   */\n              revert\n                /* \"--CODEGEN--\":5:7   */\n            tag_218:\n                /* \"AllContracts.sol\":19001:19030  LINK.balanceOf(address(this)) */\n              pop\n              pop\n              pop\n              pop\n              mload(0x40)\n              returndatasize\n                /* \"--CODEGEN--\":13:15   */\n              0x20\n                /* \"--CODEGEN--\":8:11   */\n              dup2\n                /* \"--CODEGEN--\":5:16   */\n              lt\n                /* \"--CODEGEN--\":2:4   */\n              iszero\n              tag_219\n              jumpi\n                /* \"--CODEGEN--\":29:30   */\n              0x00\n                /* \"--CODEGEN--\":26:27   */\n              dup1\n                /* \"--CODEGEN--\":19:31   */\n              revert\n                /* \"--CODEGEN--\":2:4   */\n            tag_219:\n                /* \"AllContracts.sol\":19001:19030  LINK.balanceOf(address(this)) */\n              dup2\n              add\n              swap1\n              dup1\n              dup1\n              mload\n              swap1\n              0x20\n              add\n              swap1\n              swap3\n              swap2\n              swap1\n              pop\n              pop\n              pop\n                /* \"AllContracts.sol\":19001:19034  LINK.balanceOf(address(this)) > 0 */\n              gt\n                /* \"AllContracts.sol\":18997:19120  if (LINK.balanceOf(address(this)) > 0) {... */\n              iszero\n              tag_220\n              jumpi\n                /* \"AllContracts.sol\":19050:19054  LINK */\n              0x01\n              0x00\n              swap1\n              sload\n              swap1\n              0x0100\n              exp\n              swap1\n              div\n              0xffffffffffffffffffffffffffffffffffffffff\n              and\n                /* \"AllContracts.sol\":19050:19063  LINK.transfer */\n              0xffffffffffffffffffffffffffffffffffffffff\n              and\n              0xa9059cbb\n                /* \"AllContracts.sol\":19064:19077  payoutAddress */\n              0x13\n              0x00\n              swap1\n              sload\n              swap1\n              0x0100\n              exp\n              swap1\n              div\n              0xffffffffffffffffffffffffffffffffffffffff\n              and\n                /* \"AllContracts.sol\":19079:19083  LINK */\n              0x01\n              0x00\n              swap1\n              sload\n              swap1\n              0x0100\n              exp\n              swap1\n              div\n              0xffffffffffffffffffffffffffffffffffffffff\n              and\n                /* \"AllContracts.sol\":19079:19093  LINK.balanceOf */\n              0xffffffffffffffffffffffffffffffffffffffff\n              and\n              0x70a08231\n                /* \"AllContracts.sol\":19102:19106  this */\n              address\n                /* \"AllContracts.sol\":19079:19108  LINK.balanceOf(address(this)) */\n              mload(0x40)\n              dup3\n              0xffffffff\n              and\n              0xe0\n              shl\n              dup2\n              mstore\n              0x04\n              add\n              dup1\n              dup3\n              0xffffffffffffffffffffffffffffffffffffffff\n              and\n              0xffffffffffffffffffffffffffffffffffffffff\n              and\n              dup2\n              mstore\n              0x20\n              add\n              swap2\n              pop\n              pop\n              0x20\n              mload(0x40)\n              dup1\n              dup4\n              sub\n              dup2\n              dup7\n              dup1\n              extcodesize\n              iszero\n                /* \"--CODEGEN--\":8:17   */\n              dup1\n                /* \"--CODEGEN--\":5:7   */\n              iszero\n              tag_221\n              jumpi\n                /* \"--CODEGEN--\":30:31   */\n              0x00\n                /* \"--CODEGEN--\":27:28   */\n              dup1\n                /* \"--CODEGEN--\":20:32   */\n              revert\n                /* \"--CODEGEN--\":5:7   */\n            tag_221:\n                /* \"AllContracts.sol\":19079:19108  LINK.balanceOf(address(this)) */\n              pop\n              gas\n              staticcall\n              iszero\n                /* \"--CODEGEN--\":8:17   */\n              dup1\n                /* \"--CODEGEN--\":5:7   */\n              iszero\n              tag_223\n              jumpi\n                /* \"--CODEGEN--\":45:61   */\n              returndatasize\n                /* \"--CODEGEN--\":42:43   */\n              0x00\n                /* \"--CODEGEN--\":39:40   */\n              dup1\n                /* \"--CODEGEN--\":24:62   */\n              returndatacopy\n                /* \"--CODEGEN--\":77:93   */\n              returndatasize\n                /* \"--CODEGEN--\":74:75   */\n              0x00\n                /* \"--CODEGEN--\":67:94   */\n              revert\n                /* \"--CODEGEN--\":5:7   */\n            tag_223:\n                /* \"AllContracts.sol\":19079:19108  LINK.balanceOf(address(this)) */\n              pop\n              pop\n              pop\n              pop\n              mload(0x40)\n              returndatasize\n                /* \"--CODEGEN--\":13:15   */\n              0x20\n                /* \"--CODEGEN--\":8:11   */\n              dup2\n                /* \"--CODEGEN--\":5:16   */\n              lt\n                /* \"--CODEGEN--\":2:4   */\n              iszero\n              tag_224\n              jumpi\n                /* \"--CODEGEN--\":29:30   */\n              0x00\n                /* \"--CODEGEN--\":26:27   */\n              dup1\n                /* \"--CODEGEN--\":19:31   */\n              revert\n                /* \"--CODEGEN--\":2:4   */\n            tag_224:\n                /* \"AllContracts.sol\":19079:19108  LINK.balanceOf(address(this)) */\n              dup2\n              add\n              swap1\n              dup1\n              dup1\n              mload\n              swap1\n              0x20\n              add\n              swap1\n              swap3\n              swap2\n              swap1\n              pop\n              pop\n              pop\n                /* \"AllContracts.sol\":19050:19109  LINK.transfer(payoutAddress, LINK.balanceOf(address(this))) */\n              mload(0x40)\n              dup4\n              0xffffffff\n              and\n              0xe0\n              shl\n              dup2\n              mstore\n              0x04\n              add\n              dup1\n              dup4\n              0xffffffffffffffffffffffffffffffffffffffff\n              and\n              0xffffffffffffffffffffffffffffffffffffffff\n              and\n              dup2\n              mstore\n              0x20\n              add\n              dup3\n              dup2\n              mstore\n              0x20\n              add\n              swap3\n              pop\n              pop\n              pop\n              0x20\n              mload(0x40)\n              dup1\n              dup4\n              sub\n              dup2\n              0x00\n              dup8\n              dup1\n              extcodesize\n              iszero\n                /* \"--CODEGEN--\":8:17   */\n              dup1\n                /* \"--CODEGEN--\":5:7   */\n              iszero\n              tag_225\n              jumpi\n                /* \"--CODEGEN--\":30:31   */\n              0x00\n                /* \"--CODEGEN--\":27:28   */\n              dup1\n                /* \"--CODEGEN--\":20:32   */\n              revert\n                /* \"--CODEGEN--\":5:7   */\n            tag_225:\n                /* \"AllContracts.sol\":19050:19109  LINK.transfer(payoutAddress, LINK.balanceOf(address(this))) */\n              pop\n              gas\n              call\n              iszero\n                /* \"--CODEGEN--\":8:17   */\n              dup1\n                /* \"--CODEGEN--\":5:7   */\n              iszero\n              tag_227\n              jumpi\n                /* \"--CODEGEN--\":45:61   */\n              returndatasize\n                /* \"--CODEGEN--\":42:43   */\n              0x00\n                /* \"--CODEGEN--\":39:40   */\n              dup1\n                /* \"--CODEGEN--\":24:62   */\n              returndatacopy\n                /* \"--CODEGEN--\":77:93   */\n              returndatasize\n                /* \"--CODEGEN--\":74:75   */\n              0x00\n                /* \"--CODEGEN--\":67:94   */\n              revert\n                /* \"--CODEGEN--\":5:7   */\n            tag_227:\n                /* \"AllContracts.sol\":19050:19109  LINK.transfer(payoutAddress, LINK.balanceOf(address(this))) */\n              pop\n              pop\n              pop\n              pop\n              mload(0x40)\n              returndatasize\n                /* \"--CODEGEN--\":13:15   */\n              0x20\n                /* \"--CODEGEN--\":8:11   */\n              dup2\n                /* \"--CODEGEN--\":5:16   */\n              lt\n                /* \"--CODEGEN--\":2:4   */\n              iszero\n              tag_228\n              jumpi\n                /* \"--CODEGEN--\":29:30   */\n              0x00\n                /* \"--CODEGEN--\":26:27   */\n              dup1\n                /* \"--CODEGEN--\":19:31   */\n              revert\n                /* \"--CODEGEN--\":2:4   */\n            tag_228:\n                /* \"AllContracts.sol\":19050:19109  LINK.transfer(payoutAddress, LINK.balanceOf(address(this))) */\n              dup2\n              add\n              swap1\n              dup1\n              dup1\n              mload\n              swap1\n              0x20\n              add\n              swap1\n              swap3\n              swap2\n              swap1\n              pop\n              pop\n              pop\n              pop\n                /* \"AllContracts.sol\":18997:19120  if (LINK.balanceOf(address(this)) > 0) {... */\n            tag_220:\n                /* \"AllContracts.sol\":1200:1201  _ */\n              pop\n                /* \"AllContracts.sol\":18805:19126  function closeMachine() public onlyOwner {... */\n              jump\t// out\n                /* \"AllContracts.sol\":17415:17619  function withdrawEth(uint amount) public onlyAuthorized {... */\n            tag_117:\n                /* \"AllContracts.sol\":10458:10468  msg.sender */\n              caller\n                /* \"AllContracts.sol\":10447:10468  owner() == msg.sender */\n              0xffffffffffffffffffffffffffffffffffffffff\n              and\n                /* \"AllContracts.sol\":10447:10454  owner() */\n              tag_230\n                /* \"AllContracts.sol\":10447:10452  owner */\n              tag_88\n                /* \"AllContracts.sol\":10447:10454  owner() */\n              jump\t// in\n            tag_230:\n                /* \"AllContracts.sol\":10447:10468  owner() == msg.sender */\n              0xffffffffffffffffffffffffffffffffffffffff\n              and\n              eq\n                /* \"AllContracts.sol\":10447:10501  owner() == msg.sender || authorizedAddress[msg.sender] */\n              dup1\n              tag_231\n              jumpi\n              pop\n                /* \"AllContracts.sol\":10472:10489  authorizedAddress */\n              0x15\n                /* \"AllContracts.sol\":10472:10501  authorizedAddress[msg.sender] */\n              0x00\n                /* \"AllContracts.sol\":10490:10500  msg.sender */\n              caller\n                /* \"AllContracts.sol\":10472:10501  authorizedAddress[msg.sender] */\n              0xffffffffffffffffffffffffffffffffffffffff\n              and\n              0xffffffffffffffffffffffffffffffffffffffff\n              and\n              dup2\n              mstore\n              0x20\n              add\n              swap1\n              dup2\n              mstore\n              0x20\n              add\n              0x00\n              keccak256\n              0x00\n              swap1\n              sload\n              swap1\n              0x0100\n              exp\n              swap1\n              div\n              0xff\n              and\n                /* \"AllContracts.sol\":10447:10501  owner() == msg.sender || authorizedAddress[msg.sender] */\n            tag_231:\n                /* \"AllContracts.sol\":10439:10530  require(owner() == msg.sender || authorizedAddress[msg.sender], \"caller is not authorized\") */\n              tag_232\n              jumpi\n              mload(0x40)\n              0x08c379a000000000000000000000000000000000000000000000000000000000\n              dup2\n              mstore\n              0x04\n              add\n              dup1\n              dup1\n              0x20\n              add\n              dup3\n              dup2\n              sub\n              dup3\n              mstore\n              0x18\n              dup2\n              mstore\n              0x20\n              add\n              dup1\n              0x63616c6c6572206973206e6f7420617574686f72697a65640000000000000000\n              dup2\n              mstore\n              pop\n              0x20\n              add\n              swap2\n              pop\n              pop\n              mload(0x40)\n              dup1\n              swap2\n              sub\n              swap1\n              revert\n            tag_232:\n                /* \"AllContracts.sol\":17526:17539  _unplayedBets */\n              sload(0x11)\n                /* \"AllContracts.sol\":17515:17521  amount */\n              dup2\n                /* \"AllContracts.sol\":17491:17512  address(this).balance */\n              selfbalance\n                /* \"AllContracts.sol\":17491:17521  address(this).balance - amount */\n              sub\n                /* \"AllContracts.sol\":17490:17539  (address(this).balance - amount) >= _unplayedBets */\n              lt\n              iszero\n                /* \"AllContracts.sol\":17481:17572  require ((address(this).balance - amount) >= _unplayedBets, \"Can't withdraw unplayed bets\") */\n              tag_234\n              jumpi\n              mload(0x40)\n              0x08c379a000000000000000000000000000000000000000000000000000000000\n              dup2\n              mstore\n              0x04\n              add\n              dup1\n              dup1\n              0x20\n              add\n              dup3\n              dup2\n              sub\n              dup3\n              mstore\n              0x1c\n              dup2\n              mstore\n              0x20\n              add\n              dup1\n              0x43616e277420776974686472617720756e706c61796564206265747300000000\n              dup2\n              mstore\n              pop\n              0x20\n              add\n              swap2\n              pop\n              pop\n              mload(0x40)\n              dup1\n              swap2\n              sub\n              swap1\n              revert\n            tag_234:\n                /* \"AllContracts.sol\":17582:17595  payoutAddress */\n              0x13\n              0x00\n              swap1\n              sload\n              swap1\n              0x0100\n              exp\n              swap1\n              div\n              0xffffffffffffffffffffffffffffffffffffffff\n              and\n                /* \"AllContracts.sol\":17582:17604  payoutAddress.transfer */\n              0xffffffffffffffffffffffffffffffffffffffff\n              and\n                /* \"AllContracts.sol\":17582:17612  payoutAddress.transfer(amount) */\n              0x08fc\n                /* \"AllContracts.sol\":17605:17611  amount */\n              dup3\n                /* \"AllContracts.sol\":17582:17612  payoutAddress.transfer(amount) */\n              swap1\n              dup2\n              iszero\n              mul\n              swap1\n              mload(0x40)\n              0x00\n              mload(0x40)\n              dup1\n              dup4\n              sub\n              dup2\n              dup6\n              dup9\n              dup9\n              call\n              swap4\n              pop\n              pop\n              pop\n              pop\n              iszero\n                /* \"--CODEGEN--\":8:17   */\n              dup1\n                /* \"--CODEGEN--\":5:7   */\n              iszero\n              tag_236\n              jumpi\n                /* \"--CODEGEN--\":45:61   */\n              returndatasize\n                /* \"--CODEGEN--\":42:43   */\n              0x00\n                /* \"--CODEGEN--\":39:40   */\n              dup1\n                /* \"--CODEGEN--\":24:62   */\n              returndatacopy\n                /* \"--CODEGEN--\":77:93   */\n              returndatasize\n                /* \"--CODEGEN--\":74:75   */\n              0x00\n                /* \"--CODEGEN--\":67:94   */\n              revert\n                /* \"--CODEGEN--\":5:7   */\n            tag_236:\n                /* \"AllContracts.sol\":17582:17612  payoutAddress.transfer(amount) */\n              pop\n                /* \"AllContracts.sol\":17415:17619  function withdrawEth(uint amount) public onlyAuthorized {... */\n              pop\n              jump\t// out\n                /* \"AllContracts.sol\":12422:13228  function safeBetFor(address payable player, uint pick) public payable{... */\n            tag_120:\n                /* \"AllContracts.sol\":12509:12530  betPayable(msg.value) */\n              tag_238\n                /* \"AllContracts.sol\":12520:12529  msg.value */\n              callvalue\n                /* \"AllContracts.sol\":12509:12519  betPayable */\n              tag_41\n                /* \"AllContracts.sol\":12509:12530  betPayable(msg.value) */\n              jump\t// in\n            tag_238:\n                /* \"AllContracts.sol\":12501:12589  require(betPayable(msg.value), \"Contract has insufficint funds to payout possible win.\") */\n              tag_239\n              jumpi\n              mload(0x40)\n              0x08c379a000000000000000000000000000000000000000000000000000000000\n              dup2\n              mstore\n              0x04\n              add\n              dup1\n              dup1\n              0x20\n              add\n              dup3\n              dup2\n              sub\n              dup3\n              mstore\n              0x36\n              dup2\n              mstore\n              0x20\n              add\n              dup1\n              data_588b68a2a6ccdc15b2dae26a385280edec71bed95b5b14a24b760c56e4f665d6\n              0x36\n              swap2\n              codecopy\n              0x40\n              add\n              swap2\n              pop\n              pop\n              mload(0x40)\n              dup1\n              swap2\n              sub\n              swap1\n              revert\n            tag_239:\n                /* \"AllContracts.sol\":12615:12622  maxPick */\n              sload(0x0e)\n                /* \"AllContracts.sol\":12607:12611  pick */\n              dup2\n                /* \"AllContracts.sol\":12607:12622  pick <= maxPick */\n              gt\n              iszero\n                /* \"AllContracts.sol\":12607:12634  pick <= maxPick && pick > 0 */\n              dup1\n              iszero\n              tag_240\n              jumpi\n              pop\n                /* \"AllContracts.sol\":12633:12634  0 */\n              0x00\n                /* \"AllContracts.sol\":12626:12630  pick */\n              dup2\n                /* \"AllContracts.sol\":12626:12634  pick > 0 */\n              gt\n                /* \"AllContracts.sol\":12607:12634  pick <= maxPick && pick > 0 */\n            tag_240:\n                /* \"AllContracts.sol\":12599:12665  require(pick <= maxPick && pick > 0, \"Outside of pickable bounds\") */\n              tag_241\n              jumpi\n              mload(0x40)\n              0x08c379a000000000000000000000000000000000000000000000000000000000\n              dup2\n              mstore\n              0x04\n              add\n              dup1\n              dup1\n              0x20\n              add\n              dup3\n              dup2\n              sub\n              dup3\n              mstore\n              0x1a\n              dup2\n              mstore\n              0x20\n              add\n              dup1\n              0x4f757473696465206f66207069636b61626c6520626f756e6473000000000000\n              dup2\n              mstore\n              pop\n              0x20\n              add\n              swap2\n              pop\n              pop\n              mload(0x40)\n              dup1\n              swap2\n              sub\n              swap1\n              revert\n            tag_241:\n                /* \"AllContracts.sol\":12683:12704  betInRange(msg.value) */\n              tag_242\n                /* \"AllContracts.sol\":12694:12703  msg.value */\n              callvalue\n                /* \"AllContracts.sol\":12683:12693  betInRange */\n              tag_243\n                /* \"AllContracts.sol\":12683:12704  betInRange(msg.value) */\n              jump\t// in\n            tag_242:\n                /* \"AllContracts.sol\":12675:12729  require(betInRange(msg.value),\"Outisde of bet range.\") */\n              tag_244\n              jumpi\n              mload(0x40)\n              0x08c379a000000000000000000000000000000000000000000000000000000000\n              dup2\n              mstore\n              0x04\n              add\n              dup1\n              dup1\n              0x20\n              add\n              dup3\n              dup2\n              sub\n              dup3\n              mstore\n              0x15\n              dup2\n              mstore\n              0x20\n              add\n              dup1\n              0x4f757469736465206f66206265742072616e67652e0000000000000000000000\n              dup2\n              mstore\n              pop\n              0x20\n              add\n              swap2\n              pop\n              pop\n              mload(0x40)\n              dup1\n              swap2\n              sub\n              swap1\n              revert\n            tag_244:\n                /* \"AllContracts.sol\":12751:12752  1 */\n              0x01\n                /* \"AllContracts.sol\":12743:12747  gas1 */\n              sload(0x03)\n                /* \"AllContracts.sol\":12743:12752  gas1 == 1 */\n              eq\n                /* \"AllContracts.sol\":12740:13042  if(gas1 == 1) {... */\n              iszero\n              tag_245\n              jumpi\n                /* \"AllContracts.sol\":12775:12779  gas1 */\n              0x03\n                /* \"AllContracts.sol\":12768:12779  delete gas1 */\n              0x00\n              swap1\n              sstore\n                /* \"AllContracts.sol\":12800:12804  gas2 */\n              0x04\n                /* \"AllContracts.sol\":12793:12804  delete gas2 */\n              0x00\n              swap1\n              sstore\n                /* \"AllContracts.sol\":12825:12829  gas3 */\n              0x05\n                /* \"AllContracts.sol\":12818:12829  delete gas3 */\n              0x00\n              swap1\n              sstore\n                /* \"AllContracts.sol\":12850:12854  gas4 */\n              0x06\n                /* \"AllContracts.sol\":12843:12854  delete gas4 */\n              0x00\n              swap1\n              sstore\n                /* \"AllContracts.sol\":12875:12879  gas5 */\n              0x07\n                /* \"AllContracts.sol\":12868:12879  delete gas5 */\n              0x00\n              swap1\n              sstore\n                /* \"AllContracts.sol\":12900:12904  gas6 */\n              0x08\n                /* \"AllContracts.sol\":12893:12904  delete gas6 */\n              0x00\n              swap1\n              sstore\n                /* \"AllContracts.sol\":12925:12929  gas7 */\n              0x09\n                /* \"AllContracts.sol\":12918:12929  delete gas7 */\n              0x00\n              swap1\n              sstore\n                /* \"AllContracts.sol\":12950:12954  gas8 */\n              0x0a\n                /* \"AllContracts.sol\":12943:12954  delete gas8 */\n              0x00\n              swap1\n              sstore\n                /* \"AllContracts.sol\":12975:12979  gas9 */\n              0x0b\n                /* \"AllContracts.sol\":12968:12979  delete gas9 */\n              0x00\n              swap1\n              sstore\n                /* \"AllContracts.sol\":13000:13005  gas10 */\n              0x0c\n                /* \"AllContracts.sol\":12993:13005  delete gas10 */\n              0x00\n              swap1\n              sstore\n                /* \"AllContracts.sol\":13026:13031  gas11 */\n              0x0d\n                /* \"AllContracts.sol\":13019:13031  delete gas11 */\n              0x00\n              swap1\n              sstore\n                /* \"AllContracts.sol\":12740:13042  if(gas1 == 1) {... */\n            tag_245:\n                /* \"AllContracts.sol\":13068:13096  _unplayedBets.add(msg.value) */\n              tag_246\n                /* \"AllContracts.sol\":13086:13095  msg.value */\n              callvalue\n                /* \"AllContracts.sol\":13068:13081  _unplayedBets */\n              sload(0x11)\n                /* \"AllContracts.sol\":13068:13085  _unplayedBets.add */\n              tag_137\n              swap1\n                /* \"AllContracts.sol\":13068:13096  _unplayedBets.add(msg.value) */\n              swap2\n              swap1\n              0xffffffff\n              and\n              jump\t// in\n            tag_246:\n                /* \"AllContracts.sol\":13052:13065  _unplayedBets */\n              0x11\n                /* \"AllContracts.sol\":13052:13096  _unplayedBets = _unplayedBets.add(msg.value) */\n              dup2\n              swap1\n              sstore\n              pop\n                /* \"AllContracts.sol\":13106:13141  createGame(player, msg.value, pick) */\n              tag_247\n                /* \"AllContracts.sol\":13117:13123  player */\n              dup3\n                /* \"AllContracts.sol\":13125:13134  msg.value */\n              callvalue\n                /* \"AllContracts.sol\":13136:13140  pick */\n              dup4\n                /* \"AllContracts.sol\":13106:13116  createGame */\n              tag_206\n                /* \"AllContracts.sol\":13106:13141  createGame(player, msg.value, pick) */\n              jump\t// in\n            tag_247:\n                /* \"AllContracts.sol\":13151:13173  playGame(_currentGame) */\n              tag_248\n                /* \"AllContracts.sol\":13160:13172  _currentGame */\n              sload(0x12)\n                /* \"AllContracts.sol\":13151:13159  playGame */\n              tag_208\n                /* \"AllContracts.sol\":13151:13173  playGame(_currentGame) */\n              jump\t// in\n            tag_248:\n                /* \"AllContracts.sol\":13209:13221  _currentGame */\n              sload(0x12)\n                /* \"AllContracts.sol\":13183:13198  lastGameCreated */\n              0x19\n                /* \"AllContracts.sol\":13183:13206  lastGameCreated[player] */\n              0x00\n                /* \"AllContracts.sol\":13199:13205  player */\n              dup5\n                /* \"AllContracts.sol\":13183:13206  lastGameCreated[player] */\n              0xffffffffffffffffffffffffffffffffffffffff\n              and\n              0xffffffffffffffffffffffffffffffffffffffff\n              and\n              dup2\n              mstore\n              0x20\n              add\n              swap1\n              dup2\n              mstore\n              0x20\n              add\n              0x00\n              keccak256\n                /* \"AllContracts.sol\":13183:13221  lastGameCreated[player] = _currentGame */\n              dup2\n              swap1\n              sstore\n              pop\n                /* \"AllContracts.sol\":12422:13228  function safeBetFor(address payable player, uint pick) public payable{... */\n              pop\n              pop\n              jump\t// out\n                /* \"AllContracts.sol\":9112:9161  mapping(address => bool) public gasFreeBetAllowed */\n            tag_124:\n              mstore(0x20, 0x16)\n              dup1\n              0x00\n              mstore\n              keccak256(0x00, 0x40)\n              0x00\n              swap2\n              pop\n              sload\n              swap1\n              0x0100\n              exp\n              swap1\n              div\n              0xff\n              and\n              dup2\n              jump\t// out\n                /* \"AllContracts.sol\":1844:2084  function transferOwnership(address newOwner) public virtual onlyOwner {... */\n            tag_128:\n                /* \"AllContracts.sol\":1141:1153  _msgSender() */\n              tag_250\n                /* \"AllContracts.sol\":1141:1151  _msgSender */\n              tag_159\n                /* \"AllContracts.sol\":1141:1153  _msgSender() */\n              jump\t// in\n            tag_250:\n                /* \"AllContracts.sol\":1131:1153  _owner == _msgSender() */\n              0xffffffffffffffffffffffffffffffffffffffff\n              and\n                /* \"AllContracts.sol\":1131:1137  _owner */\n              0x00\n              dup1\n              swap1\n              sload\n              swap1\n              0x0100\n              exp\n              swap1\n              div\n              0xffffffffffffffffffffffffffffffffffffffff\n              and\n                /* \"AllContracts.sol\":1131:1153  _owner == _msgSender() */\n              0xffffffffffffffffffffffffffffffffffffffff\n              and\n              eq\n                /* \"AllContracts.sol\":1123:1190  require(_owner == _msgSender(), \"Ownable: caller is not the owner\") */\n              tag_251\n              jumpi\n              mload(0x40)\n              0x08c379a000000000000000000000000000000000000000000000000000000000\n              dup2\n              mstore\n              0x04\n              add\n              dup1\n              dup1\n              0x20\n              add\n              dup3\n              dup2\n              sub\n              dup3\n              mstore\n              0x20\n              dup2\n              mstore\n              0x20\n              add\n              dup1\n              0x4f776e61626c653a2063616c6c6572206973206e6f7420746865206f776e6572\n              dup2\n              mstore\n              pop\n              0x20\n              add\n              swap2\n              pop\n              pop\n              mload(0x40)\n              dup1\n              swap2\n              sub\n              swap1\n              revert\n            tag_251:\n                /* \"AllContracts.sol\":1952:1953  0 */\n              0x00\n                /* \"AllContracts.sol\":1932:1954  newOwner != address(0) */\n              0xffffffffffffffffffffffffffffffffffffffff\n              and\n                /* \"AllContracts.sol\":1932:1940  newOwner */\n              dup2\n                /* \"AllContracts.sol\":1932:1954  newOwner != address(0) */\n              0xffffffffffffffffffffffffffffffffffffffff\n              and\n              eq\n              iszero\n                /* \"AllContracts.sol\":1924:1997  require(newOwner != address(0), \"Ownable: new owner is the zero address\") */\n              tag_253\n              jumpi\n              mload(0x40)\n              0x08c379a000000000000000000000000000000000000000000000000000000000\n              dup2\n              mstore\n              0x04\n              add\n              dup1\n              dup1\n              0x20\n              add\n              dup3\n              dup2\n              sub\n              dup3\n              mstore\n              0x26\n              dup2\n              mstore\n              0x20\n              add\n              dup1\n              data_245f15ff17f551913a7a18385165551503906a406f905ac1c2437281a7cd0cfe\n              0x26\n              swap2\n              codecopy\n              0x40\n              add\n              swap2\n              pop\n              pop\n              mload(0x40)\n              dup1\n              swap2\n              sub\n              swap1\n              revert\n            tag_253:\n                /* \"AllContracts.sol\":2041:2049  newOwner */\n              dup1\n                /* \"AllContracts.sol\":2012:2050  OwnershipTransferred(_owner, newOwner) */\n              0xffffffffffffffffffffffffffffffffffffffff\n              and\n                /* \"AllContracts.sol\":2033:2039  _owner */\n              0x00\n              dup1\n              swap1\n              sload\n              swap1\n              0x0100\n              exp\n              swap1\n              div\n              0xffffffffffffffffffffffffffffffffffffffff\n              and\n                /* \"AllContracts.sol\":2012:2050  OwnershipTransferred(_owner, newOwner) */\n              0xffffffffffffffffffffffffffffffffffffffff\n              and\n              0x8be0079c531659141344cd1fd0a4f28419497f9722a3daafe3b4186f6b6457e0\n              mload(0x40)\n              mload(0x40)\n              dup1\n              swap2\n              sub\n              swap1\n              log3\n                /* \"AllContracts.sol\":2069:2077  newOwner */\n              dup1\n                /* \"AllContracts.sol\":2060:2066  _owner */\n              0x00\n              dup1\n                /* \"AllContracts.sol\":2060:2077  _owner = newOwner */\n              0x0100\n              exp\n              dup2\n              sload\n              dup2\n              0xffffffffffffffffffffffffffffffffffffffff\n              mul\n              not\n              and\n              swap1\n              dup4\n              0xffffffffffffffffffffffffffffffffffffffff\n              and\n              mul\n              or\n              swap1\n              sstore\n              pop\n                /* \"AllContracts.sol\":1844:2084  function transferOwnership(address newOwner) public virtual onlyOwner {... */\n              pop\n              jump\t// out\n                /* \"AllContracts.sol\":19768:19851  function replayGame(uint gameID) public onlyOwner {... */\n            tag_132:\n                /* \"AllContracts.sol\":1141:1153  _msgSender() */\n              tag_255\n                /* \"AllContracts.sol\":1141:1151  _msgSender */\n              tag_159\n                /* \"AllContracts.sol\":1141:1153  _msgSender() */\n              jump\t// in\n            tag_255:\n                /* \"AllContracts.sol\":1131:1153  _owner == _msgSender() */\n              0xffffffffffffffffffffffffffffffffffffffff\n              and\n                /* \"AllContracts.sol\":1131:1137  _owner */\n              0x00\n              dup1\n              swap1\n              sload\n              swap1\n              0x0100\n              exp\n              swap1\n              div\n              0xffffffffffffffffffffffffffffffffffffffff\n              and\n                /* \"AllContracts.sol\":1131:1153  _owner == _msgSender() */\n              0xffffffffffffffffffffffffffffffffffffffff\n              and\n              eq\n                /* \"AllContracts.sol\":1123:1190  require(_owner == _msgSender(), \"Ownable: caller is not the owner\") */\n              tag_256\n              jumpi\n              mload(0x40)\n              0x08c379a000000000000000000000000000000000000000000000000000000000\n              dup2\n              mstore\n              0x04\n              add\n              dup1\n              dup1\n              0x20\n              add\n              dup3\n              dup2\n              sub\n              dup3\n              mstore\n              0x20\n              dup2\n              mstore\n              0x20\n              add\n              dup1\n              0x4f776e61626c653a2063616c6c6572206973206e6f7420746865206f776e6572\n              dup2\n              mstore\n              pop\n              0x20\n              add\n              swap2\n              pop\n              pop\n              mload(0x40)\n              dup1\n              swap2\n              sub\n              swap1\n              revert\n            tag_256:\n                /* \"AllContracts.sol\":19828:19844  playGame(gameID) */\n              tag_258\n                /* \"AllContracts.sol\":19837:19843  gameID */\n              dup2\n                /* \"AllContracts.sol\":19828:19836  playGame */\n              tag_208\n                /* \"AllContracts.sol\":19828:19844  playGame(gameID) */\n              jump\t// in\n            tag_258:\n                /* \"AllContracts.sol\":19768:19851  function replayGame(uint gameID) public onlyOwner {... */\n              pop\n              jump\t// out\n                /* \"AllContracts.sol\":2454:2668  function mul(uint256 a, uint256 b) internal pure returns (uint256) {... */\n            tag_136:\n                /* \"AllContracts.sol\":2512:2519  uint256 */\n              0x00\n                /* \"AllContracts.sol\":2537:2538  0 */\n              dup1\n                /* \"AllContracts.sol\":2532:2533  a */\n              dup4\n                /* \"AllContracts.sol\":2532:2538  a == 0 */\n              eq\n                /* \"AllContracts.sol\":2528:2563  if (a == 0) {... */\n              iszero\n              tag_260\n              jumpi\n                /* \"AllContracts.sol\":2555:2556  0 */\n              0x00\n                /* \"AllContracts.sol\":2548:2556  return 0 */\n              swap1\n              pop\n              jump(tag_259)\n                /* \"AllContracts.sol\":2528:2563  if (a == 0) {... */\n            tag_260:\n                /* \"AllContracts.sol\":2569:2578  uint256 c */\n              0x00\n                /* \"AllContracts.sol\":2585:2586  b */\n              dup3\n                /* \"AllContracts.sol\":2581:2582  a */\n              dup5\n                /* \"AllContracts.sol\":2581:2586  a * b */\n              mul\n                /* \"AllContracts.sol\":2569:2586  uint256 c = a * b */\n              swap1\n              pop\n                /* \"AllContracts.sol\":2609:2610  b */\n              dup3\n                /* \"AllContracts.sol\":2604:2605  a */\n              dup5\n                /* \"AllContracts.sol\":2600:2601  c */\n              dup3\n                /* \"AllContracts.sol\":2600:2605  c / a */\n              dup2\n              tag_261\n              jumpi\n              invalid\n            tag_261:\n              div\n                /* \"AllContracts.sol\":2600:2610  c / a == b */\n              eq\n                /* \"AllContracts.sol\":2592:2648  require(c / a == b, \"SafeMath: multiplication overflow\") */\n              tag_262\n              jumpi\n              mload(0x40)\n              0x08c379a000000000000000000000000000000000000000000000000000000000\n              dup2\n              mstore\n              0x04\n              add\n              dup1\n              dup1\n              0x20\n              add\n              dup3\n              dup2\n              sub\n              dup3\n              mstore\n              0x21\n              dup2\n              mstore\n              0x20\n              add\n              dup1\n              data_9113bb53c2876a3805b2c9242029423fc540a728243ce887ab24c82cf119fba3\n              0x21\n              swap2\n              codecopy\n              0x40\n              add\n              swap2\n              pop\n              pop\n              mload(0x40)\n              dup1\n              swap2\n              sub\n              swap1\n              revert\n            tag_262:\n                /* \"AllContracts.sol\":2662:2663  c */\n              dup1\n                /* \"AllContracts.sol\":2655:2663  return c */\n              swap2\n              pop\n              pop\n                /* \"AllContracts.sol\":2454:2668  function mul(uint256 a, uint256 b) internal pure returns (uint256) {... */\n            tag_259:\n              swap3\n              swap2\n              pop\n              pop\n              jump\t// out\n                /* \"AllContracts.sol\":2119:2281  function add(uint256 a, uint256 b) internal pure returns (uint256) {... */\n            tag_137:\n                /* \"AllContracts.sol\":2177:2184  uint256 */\n              0x00\n                /* \"AllContracts.sol\":2192:2201  uint256 c */\n              dup1\n                /* \"AllContracts.sol\":2208:2209  b */\n              dup3\n                /* \"AllContracts.sol\":2204:2205  a */\n              dup5\n                /* \"AllContracts.sol\":2204:2209  a + b */\n              add\n                /* \"AllContracts.sol\":2192:2209  uint256 c = a + b */\n              swap1\n              pop\n                /* \"AllContracts.sol\":2228:2229  a */\n              dup4\n                /* \"AllContracts.sol\":2223:2224  c */\n              dup2\n                /* \"AllContracts.sol\":2223:2229  c >= a */\n              lt\n              iszero\n                /* \"AllContracts.sol\":2215:2261  require(c >= a, \"SafeMath: addition overflow\") */\n              tag_264\n              jumpi\n              mload(0x40)\n              0x08c379a000000000000000000000000000000000000000000000000000000000\n              dup2\n              mstore\n              0x04\n              add\n              dup1\n              dup1\n              0x20\n              add\n              dup3\n              dup2\n              sub\n              dup3\n              mstore\n              0x1b\n              dup2\n              mstore\n              0x20\n              add\n              dup1\n              0x536166654d6174683a206164646974696f6e206f766572666c6f770000000000\n              dup2\n              mstore\n              pop\n              0x20\n              add\n              swap2\n              pop\n              pop\n              mload(0x40)\n              dup1\n              swap2\n              sub\n              swap1\n              revert\n            tag_264:\n                /* \"AllContracts.sol\":2275:2276  c */\n              dup1\n                /* \"AllContracts.sol\":2268:2276  return c */\n              swap2\n              pop\n              pop\n                /* \"AllContracts.sol\":2119:2281  function add(uint256 a, uint256 b) internal pure returns (uint256) {... */\n              swap3\n              swap2\n              pop\n              pop\n              jump\t// out\n                /* \"AllContracts.sol\":2285:2450  function sub(uint256 a, uint256 b) internal pure returns (uint256) {... */\n            tag_139:\n                /* \"AllContracts.sol\":2343:2350  uint256 */\n              0x00\n                /* \"AllContracts.sol\":2371:2372  a */\n              dup3\n                /* \"AllContracts.sol\":2366:2367  b */\n              dup3\n                /* \"AllContracts.sol\":2366:2372  b <= a */\n              gt\n              iszero\n                /* \"AllContracts.sol\":2358:2407  require(b <= a, \"SafeMath: subtraction overflow\") */\n              tag_266\n              jumpi\n              mload(0x40)\n              0x08c379a000000000000000000000000000000000000000000000000000000000\n              dup2\n              mstore\n              0x04\n              add\n              dup1\n              dup1\n              0x20\n              add\n              dup3\n              dup2\n              sub\n              dup3\n              mstore\n              0x1e\n              dup2\n              mstore\n              0x20\n              add\n              dup1\n              0x536166654d6174683a207375627472616374696f6e206f766572666c6f770000\n              dup2\n              mstore\n              pop\n              0x20\n              add\n              swap2\n              pop\n              pop\n              mload(0x40)\n              dup1\n              swap2\n              sub\n              swap1\n              revert\n            tag_266:\n                /* \"AllContracts.sol\":2413:2422  uint256 c */\n              0x00\n                /* \"AllContracts.sol\":2429:2430  b */\n              dup3\n                /* \"AllContracts.sol\":2425:2426  a */\n              dup5\n                /* \"AllContracts.sol\":2425:2430  a - b */\n              sub\n                /* \"AllContracts.sol\":2413:2430  uint256 c = a - b */\n              swap1\n              pop\n                /* \"AllContracts.sol\":2444:2445  c */\n              dup1\n                /* \"AllContracts.sol\":2437:2445  return c */\n              swap2\n              pop\n              pop\n                /* \"AllContracts.sol\":2285:2450  function sub(uint256 a, uint256 b) internal pure returns (uint256) {... */\n              swap3\n              swap2\n              pop\n              pop\n              jump\t// out\n                /* \"AllContracts.sol\":2980:3119  function mod(uint256 a, uint256 b) internal pure returns (uint256) {... */\n            tag_150:\n                /* \"AllContracts.sol\":3038:3045  uint256 */\n              0x00\n                /* \"AllContracts.sol\":3066:3067  0 */\n              dup1\n                /* \"AllContracts.sol\":3061:3062  b */\n              dup3\n                /* \"AllContracts.sol\":3061:3067  b != 0 */\n              eq\n              iszero\n                /* \"AllContracts.sol\":3053:3096  require(b != 0, \"SafeMath: modulo by zero\") */\n              tag_268\n              jumpi\n              mload(0x40)\n              0x08c379a000000000000000000000000000000000000000000000000000000000\n              dup2\n              mstore\n              0x04\n              add\n              dup1\n              dup1\n              0x20\n              add\n              dup3\n              dup2\n              sub\n              dup3\n              mstore\n              0x18\n              dup2\n              mstore\n              0x20\n              add\n              dup1\n              0x536166654d6174683a206d6f64756c6f206279207a65726f0000000000000000\n              dup2\n              mstore\n              pop\n              0x20\n              add\n              swap2\n              pop\n              pop\n              mload(0x40)\n              dup1\n              swap2\n              sub\n              swap1\n              revert\n            tag_268:\n                /* \"AllContracts.sol\":3113:3114  b */\n              dup2\n                /* \"AllContracts.sol\":3109:3110  a */\n              dup4\n                /* \"AllContracts.sol\":3109:3114  a % b */\n              dup2\n              tag_269\n              jumpi\n              invalid\n            tag_269:\n              mod\n                /* \"AllContracts.sol\":3102:3114  return a % b */\n              swap1\n              pop\n                /* \"AllContracts.sol\":2980:3119  function mod(uint256 a, uint256 b) internal pure returns (uint256) {... */\n              swap3\n              swap2\n              pop\n              pop\n              jump\t// out\n                /* \"AllContracts.sol\":90:194  function _msgSender() internal view virtual returns (address payable) {... */\n            tag_159:\n                /* \"AllContracts.sol\":143:158  address payable */\n              0x00\n                /* \"AllContracts.sol\":177:187  msg.sender */\n              caller\n                /* \"AllContracts.sol\":170:187  return msg.sender */\n              swap1\n              pop\n                /* \"AllContracts.sol\":90:194  function _msgSender() internal view virtual returns (address payable) {... */\n              swap1\n              jump\t// out\n                /* \"AllContracts.sol\":13321:13693  function createGame(address payable _player, uint _bet, uint _pick) internal {... */\n            tag_206:\n                /* \"AllContracts.sol\":13424:13443  _currentGame.add(1) */\n              tag_272\n                /* \"AllContracts.sol\":13441:13442  1 */\n              0x01\n                /* \"AllContracts.sol\":13424:13436  _currentGame */\n              sload(0x12)\n                /* \"AllContracts.sol\":13424:13440  _currentGame.add */\n              tag_137\n              swap1\n                /* \"AllContracts.sol\":13424:13443  _currentGame.add(1) */\n              swap2\n              swap1\n              0xffffffff\n              and\n              jump\t// in\n            tag_272:\n                /* \"AllContracts.sol\":13409:13421  _currentGame */\n              0x12\n                /* \"AllContracts.sol\":13409:13443  _currentGame = _currentGame.add(1) */\n              dup2\n              swap1\n              sstore\n              pop\n                /* \"AllContracts.sol\":13453:13472  Game memory newGame */\n              tag_273\n              tag_274\n              jump\t// in\n            tag_273:\n                /* \"AllContracts.sol\":13475:13649  Game ({... */\n              mload(0x40)\n              dup1\n              0xc0\n              add\n              0x40\n              mstore\n              dup1\n                /* \"AllContracts.sol\":13499:13511  _currentGame */\n              sload(0x12)\n                /* \"AllContracts.sol\":13475:13649  Game ({... */\n              dup2\n              mstore\n              0x20\n              add\n                /* \"AllContracts.sol\":13533:13540  _player */\n              dup6\n                /* \"AllContracts.sol\":13475:13649  Game ({... */\n              0xffffffffffffffffffffffffffffffffffffffff\n              and\n              dup2\n              mstore\n              0x20\n              add\n                /* \"AllContracts.sol\":13559:13563  _bet */\n              dup5\n                /* \"AllContracts.sol\":13475:13649  Game ({... */\n              dup2\n              mstore\n              0x20\n              add\n                /* \"AllContracts.sol\":13583:13588  _pick */\n              dup4\n                /* \"AllContracts.sol\":13475:13649  Game ({... */\n              dup2\n              mstore\n              0x20\n              add\n                /* \"AllContracts.sol\":13610:13611  0 */\n              0x00\n                /* \"AllContracts.sol\":13475:13649  Game ({... */\n              dup2\n              mstore\n              0x20\n              add\n                /* \"AllContracts.sol\":13633:13638  false */\n              0x00\n                /* \"AllContracts.sol\":13475:13649  Game ({... */\n              iszero\n              iszero\n              dup2\n              mstore\n              pop\n                /* \"AllContracts.sol\":13453:13649  Game memory newGame = Game ({... */\n              swap1\n              pop\n                /* \"AllContracts.sol\":13679:13686  newGame */\n              dup1\n                /* \"AllContracts.sol\":13659:13664  games */\n              0x17\n                /* \"AllContracts.sol\":13659:13676  games[newGame.id] */\n              0x00\n                /* \"AllContracts.sol\":13665:13672  newGame */\n              dup4\n                /* \"AllContracts.sol\":13665:13675  newGame.id */\n              0x00\n              add\n              mload\n                /* \"AllContracts.sol\":13659:13676  games[newGame.id] */\n              dup2\n              mstore\n              0x20\n              add\n              swap1\n              dup2\n              mstore\n              0x20\n              add\n              0x00\n              keccak256\n                /* \"AllContracts.sol\":13659:13686  games[newGame.id] = newGame */\n              0x00\n              dup3\n              add\n              mload\n              dup2\n              0x00\n              add\n              sstore\n              0x20\n              dup3\n              add\n              mload\n              dup2\n              0x01\n              add\n              exp(0x0100, 0x00)\n              dup2\n              sload\n              dup2\n              0xffffffffffffffffffffffffffffffffffffffff\n              mul\n              not\n              and\n              swap1\n              dup4\n              0xffffffffffffffffffffffffffffffffffffffff\n              and\n              mul\n              or\n              swap1\n              sstore\n              pop\n              0x40\n              dup3\n              add\n              mload\n              dup2\n              0x02\n              add\n              sstore\n              0x60\n              dup3\n              add\n              mload\n              dup2\n              0x03\n              add\n              sstore\n              0x80\n              dup3\n              add\n              mload\n              dup2\n              0x04\n              add\n              sstore\n              0xa0\n              dup3\n              add\n              mload\n              dup2\n              0x05\n              add\n              exp(0x0100, 0x00)\n              dup2\n              sload\n              dup2\n              0xff\n              mul\n              not\n              and\n              swap1\n              dup4\n              iszero\n              iszero\n              mul\n              or\n              swap1\n              sstore\n              pop\n              swap1\n              pop\n              pop\n                /* \"AllContracts.sol\":13321:13693  function createGame(address payable _player, uint _bet, uint _pick) internal {... */\n              pop\n              pop\n              pop\n              pop\n              jump\t// out\n                /* \"AllContracts.sol\":14062:14262  function playGame(uint gameID) internal {... */\n            tag_208:\n                /* \"AllContracts.sol\":14144:14149  false */\n              0x00\n                /* \"AllContracts.sol\":14120:14149  games[gameID].played == false */\n              iszero\n              iszero\n                /* \"AllContracts.sol\":14120:14125  games */\n              0x17\n                /* \"AllContracts.sol\":14120:14133  games[gameID] */\n              0x00\n                /* \"AllContracts.sol\":14126:14132  gameID */\n              dup4\n                /* \"AllContracts.sol\":14120:14133  games[gameID] */\n              dup2\n              mstore\n              0x20\n              add\n              swap1\n              dup2\n              mstore\n              0x20\n              add\n              0x00\n              keccak256\n                /* \"AllContracts.sol\":14120:14140  games[gameID].played */\n              0x05\n              add\n              0x00\n              swap1\n              sload\n              swap1\n              0x0100\n              exp\n              swap1\n              div\n              0xff\n              and\n                /* \"AllContracts.sol\":14120:14149  games[gameID].played == false */\n              iszero\n              iszero\n              eq\n                /* \"AllContracts.sol\":14112:14173  require(games[gameID].played == false, \"game already played\") */\n              tag_276\n              jumpi\n              mload(0x40)\n              0x08c379a000000000000000000000000000000000000000000000000000000000\n              dup2\n              mstore\n              0x04\n              add\n              dup1\n              dup1\n              0x20\n              add\n              dup3\n              dup2\n              sub\n              dup3\n              mstore\n              0x13\n              dup2\n              mstore\n              0x20\n              add\n              dup1\n              0x67616d6520616c726561647920706c6179656400000000000000000000000000\n              dup2\n              mstore\n              pop\n              0x20\n              add\n              swap2\n              pop\n              pop\n              mload(0x40)\n              dup1\n              swap2\n              sub\n              swap1\n              revert\n            tag_276:\n                /* \"AllContracts.sol\":14183:14196  bytes32 reqID */\n              0x00\n                /* \"AllContracts.sol\":14199:14216  getRandomNumber() */\n              tag_277\n                /* \"AllContracts.sol\":14199:14214  getRandomNumber */\n              tag_278\n                /* \"AllContracts.sol\":14199:14216  getRandomNumber() */\n              jump\t// in\n            tag_277:\n                /* \"AllContracts.sol\":14183:14216  bytes32 reqID = getRandomNumber() */\n              swap1\n              pop\n                /* \"AllContracts.sol\":14249:14255  gameID */\n              dup2\n                /* \"AllContracts.sol\":14226:14239  _gameRequests */\n              0x18\n                /* \"AllContracts.sol\":14226:14246  _gameRequests[reqID] */\n              0x00\n                /* \"AllContracts.sol\":14240:14245  reqID */\n              dup4\n                /* \"AllContracts.sol\":14226:14246  _gameRequests[reqID] */\n              dup2\n              mstore\n              0x20\n              add\n              swap1\n              dup2\n              mstore\n              0x20\n              add\n              0x00\n              keccak256\n                /* \"AllContracts.sol\":14226:14255  _gameRequests[reqID] = gameID */\n              dup2\n              swap1\n              sstore\n              pop\n                /* \"AllContracts.sol\":14062:14262  function playGame(uint gameID) internal {... */\n              pop\n              pop\n              jump\t// out\n                /* \"AllContracts.sol\":10773:10961  function betInRange(uint bet) internal view returns(bool){... */\n            tag_243:\n                /* \"AllContracts.sol\":10825:10829  bool */\n              0x00\n                /* \"AllContracts.sol\":10851:10857  minBet */\n              sload(0x10)\n                /* \"AllContracts.sol\":10844:10847  bet */\n              dup3\n                /* \"AllContracts.sol\":10844:10857  bet >= minBet */\n              lt\n              iszero\n                /* \"AllContracts.sol\":10844:10874  bet >= minBet && bet <= maxBet */\n              dup1\n              iszero\n              tag_280\n              jumpi\n              pop\n                /* \"AllContracts.sol\":10868:10874  maxBet */\n              sload(0x0f)\n                /* \"AllContracts.sol\":10861:10864  bet */\n              dup3\n                /* \"AllContracts.sol\":10861:10874  bet <= maxBet */\n              gt\n              iszero\n                /* \"AllContracts.sol\":10844:10874  bet >= minBet && bet <= maxBet */\n            tag_280:\n                /* \"AllContracts.sol\":10840:10955  if (bet >= minBet && bet <= maxBet) {... */\n              iszero\n              tag_281\n              jumpi\n                /* \"AllContracts.sol\":10897:10901  true */\n              0x01\n                /* \"AllContracts.sol\":10890:10901  return true */\n              swap1\n              pop\n              jump(tag_279)\n                /* \"AllContracts.sol\":10840:10955  if (bet >= minBet && bet <= maxBet) {... */\n            tag_281:\n                /* \"AllContracts.sol\":10939:10944  false */\n              0x00\n                /* \"AllContracts.sol\":10932:10944  return false */\n              swap1\n              pop\n                /* \"AllContracts.sol\":10773:10961  function betInRange(uint bet) internal view returns(bool){... */\n            tag_279:\n              swap2\n              swap1\n              pop\n              jump\t// out\n                /* \"AllContracts.sol\":14394:14584  function getRandomNumber() internal returns (bytes32 requestId) {... */\n            tag_278:\n                /* \"AllContracts.sol\":14439:14456  bytes32 requestId */\n              0x00\n                /* \"AllContracts.sol\":14468:14494  LuckyMachineCoordinator mc */\n              dup1\n                /* \"AllContracts.sol\":14521:14539  machineCoordinator */\n              0x02\n              0x00\n              swap1\n              sload\n              swap1\n              0x0100\n              exp\n              swap1\n              div\n              0xffffffffffffffffffffffffffffffffffffffff\n              and\n                /* \"AllContracts.sol\":14468:14540  LuckyMachineCoordinator mc = LuckyMachineCoordinator(machineCoordinator) */\n              swap1\n              pop\n                /* \"AllContracts.sol\":14557:14559  mc */\n              dup1\n                /* \"AllContracts.sol\":14557:14575  mc.getRandomNumber */\n              0xffffffffffffffffffffffffffffffffffffffff\n              and\n              0xdbdff2c1\n                /* \"AllContracts.sol\":14557:14577  mc.getRandomNumber() */\n              mload(0x40)\n              dup2\n              0xffffffff\n              and\n              0xe0\n              shl\n              dup2\n              mstore\n              0x04\n              add\n              0x20\n              mload(0x40)\n              dup1\n              dup4\n              sub\n              dup2\n              0x00\n              dup8\n              dup1\n              extcodesize\n              iszero\n                /* \"--CODEGEN--\":8:17   */\n              dup1\n                /* \"--CODEGEN--\":5:7   */\n              iszero\n              tag_284\n              jumpi\n                /* \"--CODEGEN--\":30:31   */\n              0x00\n                /* \"--CODEGEN--\":27:28   */\n              dup1\n                /* \"--CODEGEN--\":20:32   */\n              revert\n                /* \"--CODEGEN--\":5:7   */\n            tag_284:\n                /* \"AllContracts.sol\":14557:14577  mc.getRandomNumber() */\n              pop\n              gas\n              call\n              iszero\n                /* \"--CODEGEN--\":8:17   */\n              dup1\n                /* \"--CODEGEN--\":5:7   */\n              iszero\n              tag_286\n              jumpi\n                /* \"--CODEGEN--\":45:61   */\n              returndatasize\n                /* \"--CODEGEN--\":42:43   */\n              0x00\n                /* \"--CODEGEN--\":39:40   */\n              dup1\n                /* \"--CODEGEN--\":24:62   */\n              returndatacopy\n                /* \"--CODEGEN--\":77:93   */\n              returndatasize\n                /* \"--CODEGEN--\":74:75   */\n              0x00\n                /* \"--CODEGEN--\":67:94   */\n              revert\n                /* \"--CODEGEN--\":5:7   */\n            tag_286:\n                /* \"AllContracts.sol\":14557:14577  mc.getRandomNumber() */\n              pop\n              pop\n              pop\n              pop\n              mload(0x40)\n              returndatasize\n                /* \"--CODEGEN--\":13:15   */\n              0x20\n                /* \"--CODEGEN--\":8:11   */\n              dup2\n                /* \"--CODEGEN--\":5:16   */\n              lt\n                /* \"--CODEGEN--\":2:4   */\n              iszero\n              tag_287\n              jumpi\n                /* \"--CODEGEN--\":29:30   */\n              0x00\n                /* \"--CODEGEN--\":26:27   */\n              dup1\n                /* \"--CODEGEN--\":19:31   */\n              revert\n                /* \"--CODEGEN--\":2:4   */\n            tag_287:\n                /* \"AllContracts.sol\":14557:14577  mc.getRandomNumber() */\n              dup2\n              add\n              swap1\n              dup1\n              dup1\n              mload\n              swap1\n              0x20\n              add\n              swap1\n              swap3\n              swap2\n              swap1\n              pop\n              pop\n              pop\n                /* \"AllContracts.sol\":14550:14577  return mc.getRandomNumber() */\n              swap2\n              pop\n              pop\n                /* \"AllContracts.sol\":14394:14584  function getRandomNumber() internal returns (bytes32 requestId) {... */\n              swap1\n              jump\t// out\n                /* \"AllContracts.sol\":8218:19853  contract LuckyMachine is Ownable {... */\n            tag_274:\n              mload(0x40)\n              dup1\n              0xc0\n              add\n              0x40\n              mstore\n              dup1\n              0x00\n              dup2\n              mstore\n              0x20\n              add\n              and(0xffffffffffffffffffffffffffffffffffffffff, 0x00)\n              dup2\n              mstore\n              0x20\n              add\n              0x00\n              dup2\n              mstore\n              0x20\n              add\n              0x00\n              dup2\n              mstore\n              0x20\n              add\n              0x00\n              dup2\n              mstore\n              0x20\n              add\n              iszero(iszero(0x00))\n              dup2\n              mstore\n              pop\n              swap1\n              jump\t// out\n            stop\n            data_245f15ff17f551913a7a18385165551503906a406f905ac1c2437281a7cd0cfe 4f776e61626c653a206e6577206f776e657220697320746865207a65726f2061646472657373\n            data_588b68a2a6ccdc15b2dae26a385280edec71bed95b5b14a24b760c56e4f665d6 436f6e74726163742068617320696e737566666963696e742066756e647320746f207061796f757420706f737369626c652077696e2e\n            data_9113bb53c2876a3805b2c9242029423fc540a728243ce887ab24c82cf119fba3 536166654d6174683a206d756c7469706c69636174696f6e206f766572666c6f77\n            data_b719f220e413600c7e92ed4736b96c6908e0428122610fe965fcc60eefeedbad 436f6e74726163742062616c616e636520746f6f206c6f772e20506c656173652074727920616761696e206c617465722e\n            data_c34c85fa0e0680ac47dc2c21fdf93b1adcc71d9a1a3b3b1788b881c3f4f390ac 47616d6520616c726561647920636f6d706c6574652e204e6f20726566756e6420706f737369626c652e\n\n            auxdata: 0xa264697066735822122058b3e94a5e978f9e7e5f120c71c08fe2910025b0e3596415af3e25a7c0dc2df764736f6c63430006000033\n        }\n    }\n\n    auxdata: 0xa26469706673582212200515fba6f74c37ac9b5b961f289c0bd5afb80c5f68e08173bc1706021a90dbbb64736f6c63430006000033\n}\n","bytecode":{"linkReferences":{},"object":"608060405234801561001057600080fd5b506135ca806100206000396000f3fe608060405234801561001057600080fd5b506004361061004c5760003560e01c80632eb47613146100515780633df4f579146100b05780634d42845c1461015c57806352b07b34146101ca575b600080fd5b610059610229565b6040518080602001828103825283818151815260200191508051906020019060200280838360005b8381101561009c578082015181840152602081019050610081565b505050509050019250505060405180910390f35b61011a600480360360a08110156100c657600080fd5b81019080803573ffffffffffffffffffffffffffffffffffffffff169060200190929190803590602001909291908035906020019092919080359060200190929190803590602001909291905050506102f4565b604051808273ffffffffffffffffffffffffffffffffffffffff1673ffffffffffffffffffffffffffffffffffffffff16815260200191505060405180910390f35b6101886004803603602081101561017257600080fd5b810190808035906020019092919050505061055a565b604051808273ffffffffffffffffffffffffffffffffffffffff1673ffffffffffffffffffffffffffffffffffffffff16815260200191505060405180910390f35b6101d2610596565b6040518080602001828103825283818151815260200191508051906020019060200280838360005b838110156102155780820151818401526020810190506101fa565b505050509050019250505060405180910390f35b6060600160003373ffffffffffffffffffffffffffffffffffffffff1673ffffffffffffffffffffffffffffffffffffffff1681526020019081526020016000208054806020026020016040519081016040528092919081815260200182805480156102ea57602002820191906000526020600020905b8160009054906101000a900473ffffffffffffffffffffffffffffffffffffffff1673ffffffffffffffffffffffffffffffffffffffff16815260200190600101908083116102a0575b5050505050905090565b60008086338787878760405161030990610624565b808773ffffffffffffffffffffffffffffffffffffffff1673ffffffffffffffffffffffffffffffffffffffff1681526020018673ffffffffffffffffffffffffffffffffffffffff1673ffffffffffffffffffffffffffffffffffffffff1681526020018581526020018481526020018381526020018281526020019650505050505050604051809103906000f0801580156103aa573d6000803e3d6000fd5b5090508073ffffffffffffffffffffffffffffffffffffffff1663f2fde38b336040518263ffffffff1660e01b8152600401808273ffffffffffffffffffffffffffffffffffffffff1673ffffffffffffffffffffffffffffffffffffffff168152602001915050600060405180830381600087803b15801561042c57600080fd5b505af1158015610440573d6000803e3d6000fd5b5050505060008190506000819080600181540180825580915050600190039060005260206000200160009091909190916101000a81548173ffffffffffffffffffffffffffffffffffffffff021916908373ffffffffffffffffffffffffffffffffffffffff160217905550600160003373ffffffffffffffffffffffffffffffffffffffff1673ffffffffffffffffffffffffffffffffffffffff168152602001908152602001600020819080600181540180825580915050600190039060005260206000200160009091909190916101000a81548173ffffffffffffffffffffffffffffffffffffffff021916908373ffffffffffffffffffffffffffffffffffffffff160217905550809250505095945050505050565b6000818154811061056757fe5b906000526020600020016000915054906101000a900473ffffffffffffffffffffffffffffffffffffffff1681565b6060600080548060200260200160405190810160405280929190818152602001828054801561061a57602002820191906000526020600020905b8160009054906101000a900473ffffffffffffffffffffffffffffffffffffffff1673ffffffffffffffffffffffffffffffffffffffff16815260200190600101908083116105d0575b5050505050905090565b612f63806106328339019056fe60806040523480156200001157600080fd5b5060405162002f6338038062002f63833981810160405260c08110156200003757600080fd5b8101908080519060200190929190805190602001909291908051906020019092919080519060200190929190805190602001909291908051906020019092919050505060006200008c620003a760201b60201c565b9050806000806101000a81548173ffffffffffffffffffffffffffffffffffffffff021916908373ffffffffffffffffffffffffffffffffffffffff1602179055508073ffffffffffffffffffffffffffffffffffffffff16600073ffffffffffffffffffffffffffffffffffffffff167f8be0079c531659141344cd1fd0a4f28419497f9722a3daafe3b4186f6b6457e060405160405180910390a35085600260006101000a81548173ffffffffffffffffffffffffffffffffffffffff021916908373ffffffffffffffffffffffffffffffffffffffff1602179055506001601281905550600060118190555084601360006101000a81548173ffffffffffffffffffffffffffffffffffffffff021916908373ffffffffffffffffffffffffffffffffffffffff1602179055508260108190555083600f8190555081600e819055508060148190555060016003819055506001600481905550600160058190555060016006819055506001600781905550600160088190555060016009819055506001600a819055506001600b819055506001600c819055506001600d8190555073a36085f69e2889c224210f603d836748e7dc0088600160006101000a81548173ffffffffffffffffffffffffffffffffffffffff021916908373ffffffffffffffffffffffffffffffffffffffff1602179055506000809050600181039050600160009054906101000a900473ffffffffffffffffffffffffffffffffffffffff1673ffffffffffffffffffffffffffffffffffffffff1663095ea7b3600260009054906101000a900473ffffffffffffffffffffffffffffffffffffffff16836040518363ffffffff1660e01b8152600401808373ffffffffffffffffffffffffffffffffffffffff1673ffffffffffffffffffffffffffffffffffffffff16815260200182815260200192505050602060405180830381600087803b1580156200035c57600080fd5b505af115801562000371573d6000803e3d6000fd5b505050506040513d60208110156200038857600080fd5b81019080805190602001909291905050505050505050505050620003af565b600033905090565b612ba480620003bf6000396000f3fe6080604052600436106101a05760003560e01c80637a8042bd116100ec578063b843f5ab1161008a578063d9e721f811610064578063d9e721f8146107fc578063dfad4c111461084a578063f2fde38b146108b3578063f31a4dcd14610904576101a7565b8063b843f5ab14610745578063b93030b3146107aa578063c311d049146107c1576101a7565b8063a02e0616116100c6578063a02e06161461060e578063a249225e1461065f578063a4b2409e146106bc578063ac150fd8146106f7576101a7565b80637a8042bd146105515780638da5cb5b1461058c5780639619367d146105e3576101a7565b806333ea51a81161015957806350c5f9751161013357806350c5f9751461048d5780635b8d02d7146104b857806363bd1d4a1461050f578063715018a61461053a576101a7565b806333ea51a8146103935780633638104a146103e45780634051ddac1461044d576101a7565b80630c610a12146101ac578063117a5b90146101ff57806319465b7c146102a15780631f1f897f146102f85780632e5b21681461033d5780632ee42d8a14610368576101a7565b366101a757005b600080fd5b3480156101b857600080fd5b506101e5600480360360208110156101cf57600080fd5b810190808035906020019092919050505061093f565b604051808215151515815260200191505060405180910390f35b34801561020b57600080fd5b506102386004803603602081101561022257600080fd5b8101908080359060200190929190505050610986565b604051808781526020018673ffffffffffffffffffffffffffffffffffffffff1673ffffffffffffffffffffffffffffffffffffffff16815260200185815260200184815260200183815260200182151515158152602001965050505050505060405180910390f35b3480156102ad57600080fd5b506102b66109ef565b604051808273ffffffffffffffffffffffffffffffffffffffff1673ffffffffffffffffffffffffffffffffffffffff16815260200191505060405180910390f35b34801561030457600080fd5b5061033b6004803603604081101561031b57600080fd5b810190808035906020019092919080359060200190929190505050610a15565b005b34801561034957600080fd5b50610352610d9d565b6040518082815260200191505060405180910390f35b34801561037457600080fd5b5061037d610da3565b6040518082815260200191505060405180910390f35b34801561039f57600080fd5b506103e2600480360360208110156103b657600080fd5b81019080803573ffffffffffffffffffffffffffffffffffffffff169060200190929190505050610da9565b005b3480156103f057600080fd5b506104336004803603602081101561040757600080fd5b81019080803573ffffffffffffffffffffffffffffffffffffffff169060200190929190505050610eb6565b604051808215151515815260200191505060405180910390f35b34801561045957600080fd5b50610462610ed6565b6040518085815260200184815260200183815260200182815260200194505050505060405180910390f35b34801561049957600080fd5b506104a2610ef6565b6040518082815260200191505060405180910390f35b3480156104c457600080fd5b506104cd610fd7565b604051808273ffffffffffffffffffffffffffffffffffffffff1673ffffffffffffffffffffffffffffffffffffffff16815260200191505060405180910390f35b34801561051b57600080fd5b50610524610ffd565b6040518082815260200191505060405180910390f35b34801561054657600080fd5b5061054f611003565b005b34801561055d57600080fd5b5061058a6004803603602081101561057457600080fd5b810190808035906020019092919050505061118b565b005b34801561059857600080fd5b506105a1611391565b604051808273ffffffffffffffffffffffffffffffffffffffff1673ffffffffffffffffffffffffffffffffffffffff16815260200191505060405180910390f35b3480156105ef57600080fd5b506105f86113ba565b6040518082815260200191505060405180910390f35b34801561061a57600080fd5b5061065d6004803603602081101561063157600080fd5b81019080803573ffffffffffffffffffffffffffffffffffffffff1690602001909291905050506113c0565b005b34801561066b57600080fd5b506106ba6004803603604081101561068257600080fd5b81019080803573ffffffffffffffffffffffffffffffffffffffff1690602001909291908035151590602001909291905050506114cd565b005b3480156106c857600080fd5b506106f5600480360360208110156106df57600080fd5b81019080803590602001909291905050506115f1565b005b6107436004803603604081101561070d57600080fd5b81019080803573ffffffffffffffffffffffffffffffffffffffff169060200190929190803590602001909291905050506118e8565b005b34801561075157600080fd5b506107946004803603602081101561076857600080fd5b81019080803573ffffffffffffffffffffffffffffffffffffffff169060200190929190505050611a29565b6040518082815260200191505060405180910390f35b3480156107b657600080fd5b506107bf611a41565b005b3480156107cd57600080fd5b506107fa600480360360208110156107e457600080fd5b8101908080359060200190929190505050611e52565b005b6108486004803603604081101561081257600080fd5b81019080803573ffffffffffffffffffffffffffffffffffffffff16906020019092919080359060200190929190505050612034565b005b34801561085657600080fd5b506108996004803603602081101561086d57600080fd5b81019080803573ffffffffffffffffffffffffffffffffffffffff16906020019092919050505061225a565b604051808215151515815260200191505060405180910390f35b3480156108bf57600080fd5b50610902600480360360208110156108d657600080fd5b81019080803573ffffffffffffffffffffffffffffffffffffffff16906020019092919050505061227a565b005b34801561091057600080fd5b5061093d6004803603602081101561092757600080fd5b8101908080359060200190929190505050612487565b005b60006109688261095a6014548561255c90919063ffffffff16565b6125e290919063ffffffff16565b61097d6011544761266a90919063ffffffff16565b10159050919050565b60176020528060005260406000206000915090508060000154908060010160009054906101000a900473ffffffffffffffffffffffffffffffffffffffff16908060020154908060030154908060040154908060050160009054906101000a900460ff16905086565b600260009054906101000a900473ffffffffffffffffffffffffffffffffffffffff1681565b600260009054906101000a900473ffffffffffffffffffffffffffffffffffffffff1673ffffffffffffffffffffffffffffffffffffffff163373ffffffffffffffffffffffffffffffffffffffff1614610a6f57600080fd5b60006017600060186000868152602001908152602001600020548152602001908152602001600020905060008160000154118015610ac25750600015158160050160009054906101000a900460ff161515145b15610d4057600f5481600201541115610ae157600f5481600201819055505b6000610b128260020154610b04601454856002015461255c90919063ffffffff16565b6125e290919063ffffffff16565b905080471015610b8a576040517f08c379a00000000000000000000000000000000000000000000000000000000081526004018080602001828103825260208152602001807f436f6e74726163742062616c616e636520746f6f206c6f7720746f20706c617981525060200191505060405180910390fd5b610bb26001610ba4600e54866126f390919063ffffffff16565b6125e290919063ffffffff16565b826004018190555060018260050160006101000a81548160ff021916908315150217905550816002015460115410610bfd578160020154601160008282540392505081905550610c06565b60006011819055505b816004015482600301541415610c86578160010160009054906101000a900473ffffffffffffffffffffffffffffffffffffffff1673ffffffffffffffffffffffffffffffffffffffff166108fc829081150290604051600060405180830381858888f19350505050158015610c80573d6000803e3d6000fd5b50610c8b565b600090505b7fc06600d6399308f270bc6ae70d5377121b685c974bb7f7355824fddd8a2b34978260010160009054906101000a900473ffffffffffffffffffffffffffffffffffffffff1683600201548460030154856004015485604051808673ffffffffffffffffffffffffffffffffffffffff1673ffffffffffffffffffffffffffffffffffffffff1681526020018581526020018481526020018381526020018281526020019550505050505060405180910390a1505b60016003819055506001600481905550600160058190555060016006819055506001600781905550600160088190555060016009819055506001600a819055506001600b819055506001600c819055506001600d81905550505050565b600f5481565b600e5481565b610db161277d565b73ffffffffffffffffffffffffffffffffffffffff166000809054906101000a900473ffffffffffffffffffffffffffffffffffffffff1673ffffffffffffffffffffffffffffffffffffffff1614610e72576040517f08c379a00000000000000000000000000000000000000000000000000000000081526004018080602001828103825260208152602001807f4f776e61626c653a2063616c6c6572206973206e6f7420746865206f776e657281525060200191505060405180910390fd5b80601360006101000a81548173ffffffffffffffffffffffffffffffffffffffff021916908373ffffffffffffffffffffffffffffffffffffffff16021790555050565b60156020528060005260406000206000915054906101000a900460ff1681565b600080600080601054600f54601454600e54935093509350935090919293565b6000600160009054906101000a900473ffffffffffffffffffffffffffffffffffffffff1673ffffffffffffffffffffffffffffffffffffffff166370a08231306040518263ffffffff1660e01b8152600401808273ffffffffffffffffffffffffffffffffffffffff1673ffffffffffffffffffffffffffffffffffffffff16815260200191505060206040518083038186803b158015610f9757600080fd5b505afa158015610fab573d6000803e3d6000fd5b505050506040513d6020811015610fc157600080fd5b8101908080519060200190929190505050905090565b601360009054906101000a900473ffffffffffffffffffffffffffffffffffffffff1681565b60145481565b61100b61277d565b73ffffffffffffffffffffffffffffffffffffffff166000809054906101000a900473ffffffffffffffffffffffffffffffffffffffff1673ffffffffffffffffffffffffffffffffffffffff16146110cc576040517f08c379a00000000000000000000000000000000000000000000000000000000081526004018080602001828103825260208152602001807f4f776e61626c653a2063616c6c6572206973206e6f7420746865206f776e657281525060200191505060405180910390fd5b600073ffffffffffffffffffffffffffffffffffffffff166000809054906101000a900473ffffffffffffffffffffffffffffffffffffffff1673ffffffffffffffffffffffffffffffffffffffff167f8be0079c531659141344cd1fd0a4f28419497f9722a3daafe3b4186f6b6457e060405160405180910390a360008060006101000a81548173ffffffffffffffffffffffffffffffffffffffff021916908373ffffffffffffffffffffffffffffffffffffffff160217905550565b3373ffffffffffffffffffffffffffffffffffffffff166111aa611391565b73ffffffffffffffffffffffffffffffffffffffff1614806112155750601560003373ffffffffffffffffffffffffffffffffffffffff1673ffffffffffffffffffffffffffffffffffffffff16815260200190815260200160002060009054906101000a900460ff165b611287576040517f08c379a00000000000000000000000000000000000000000000000000000000081526004018080602001828103825260188152602001807f63616c6c6572206973206e6f7420617574686f72697a6564000000000000000081525060200191505060405180910390fd5b600160009054906101000a900473ffffffffffffffffffffffffffffffffffffffff1673ffffffffffffffffffffffffffffffffffffffff1663a9059cbb601360009054906101000a900473ffffffffffffffffffffffffffffffffffffffff16836040518363ffffffff1660e01b8152600401808373ffffffffffffffffffffffffffffffffffffffff1673ffffffffffffffffffffffffffffffffffffffff16815260200182815260200192505050602060405180830381600087803b15801561135257600080fd5b505af1158015611366573d6000803e3d6000fd5b505050506040513d602081101561137c57600080fd5b81019080805190602001909291905050505050565b60008060009054906101000a900473ffffffffffffffffffffffffffffffffffffffff16905090565b60105481565b6113c861277d565b73ffffffffffffffffffffffffffffffffffffffff166000809054906101000a900473ffffffffffffffffffffffffffffffffffffffff1673ffffffffffffffffffffffffffffffffffffffff1614611489576040517f08c379a00000000000000000000000000000000000000000000000000000000081526004018080602001828103825260208152602001807f4f776e61626c653a2063616c6c6572206973206e6f7420746865206f776e657281525060200191505060405180910390fd5b80600160006101000a81548173ffffffffffffffffffffffffffffffffffffffff021916908373ffffffffffffffffffffffffffffffffffffffff16021790555050565b6114d561277d565b73ffffffffffffffffffffffffffffffffffffffff166000809054906101000a900473ffffffffffffffffffffffffffffffffffffffff1673ffffffffffffffffffffffffffffffffffffffff1614611596576040517f08c379a00000000000000000000000000000000000000000000000000000000081526004018080602001828103825260208152602001807f4f776e61626c653a2063616c6c6572206973206e6f7420746865206f776e657281525060200191505060405180910390fd5b80601560008473ffffffffffffffffffffffffffffffffffffffff1673ffffffffffffffffffffffffffffffffffffffff16815260200190815260200160002060006101000a81548160ff0219169083151502179055505050565b6000601760008381526020019081526020016000209050601560003373ffffffffffffffffffffffffffffffffffffffff1673ffffffffffffffffffffffffffffffffffffffff16815260200190815260200160002060009054906101000a900460ff168061169257503373ffffffffffffffffffffffffffffffffffffffff1661167a611391565b73ffffffffffffffffffffffffffffffffffffffff16145b806116ec57503373ffffffffffffffffffffffffffffffffffffffff168160010160009054906101000a900473ffffffffffffffffffffffffffffffffffffffff1673ffffffffffffffffffffffffffffffffffffffff16145b61175e576040517f08c379a00000000000000000000000000000000000000000000000000000000081526004018080602001828103825260208152602001807f4e6f7420617574686f72697a656420746f207265717565737420726566756e6481525060200191505060405180910390fd5b600015158160050160009054906101000a900460ff161515146117cc576040517f08c379a000000000000000000000000000000000000000000000000000000000815260040180806020018281038252602a815260200180612b45602a913960400191505060405180910390fd5b8060020154471015611829576040517f08c379a0000000000000000000000000000000000000000000000000000000008152600401808060200182810382526031815260200180612b146031913960400191505060405180910390fd5b60018160050160006101000a81548160ff02191690831515021790555080600201546011541061186c578060020154601160008282540392505081905550611875565b60006011819055505b8060010160009054906101000a900473ffffffffffffffffffffffffffffffffffffffff1673ffffffffffffffffffffffffffffffffffffffff166108fc82600201549081150290604051600060405180830381858888f193505050501580156118e3573d6000803e3d6000fd5b505050565b601054341015611960576040517f08c379a00000000000000000000000000000000000000000000000000000000081526004018080602001828103825260138152602001807f6d696e696d756d20626574206e6f74206d65740000000000000000000000000081525060200191505060405180910390fd5b600160035414156119ae57600360009055600460009055600560009055600660009055600760009055600860009055600960009055600a60009055600b60009055600c60009055600d600090555b6119c3346011546125e290919063ffffffff16565b6011819055506119d4823483612785565b6119df6012546128a4565b601254601960008473ffffffffffffffffffffffffffffffffffffffff1673ffffffffffffffffffffffffffffffffffffffff168152602001908152602001600020819055505050565b60196020528060005260406000206000915090505481565b611a4961277d565b73ffffffffffffffffffffffffffffffffffffffff166000809054906101000a900473ffffffffffffffffffffffffffffffffffffffff1673ffffffffffffffffffffffffffffffffffffffff1614611b0a576040517f08c379a00000000000000000000000000000000000000000000000000000000081526004018080602001828103825260208152602001807f4f776e61626c653a2063616c6c6572206973206e6f7420746865206f776e657281525060200191505060405180910390fd5b6000611b216011544761266a90919063ffffffff16565b9050601360009054906101000a900473ffffffffffffffffffffffffffffffffffffffff1673ffffffffffffffffffffffffffffffffffffffff166108fc829081150290604051600060405180830381858888f19350505050158015611b8b573d6000803e3d6000fd5b506000600160009054906101000a900473ffffffffffffffffffffffffffffffffffffffff1673ffffffffffffffffffffffffffffffffffffffff166370a08231306040518263ffffffff1660e01b8152600401808273ffffffffffffffffffffffffffffffffffffffff1673ffffffffffffffffffffffffffffffffffffffff16815260200191505060206040518083038186803b158015611c2d57600080fd5b505afa158015611c41573d6000803e3d6000fd5b505050506040513d6020811015611c5757600080fd5b81019080805190602001909291905050501115611e4f57600160009054906101000a900473ffffffffffffffffffffffffffffffffffffffff1673ffffffffffffffffffffffffffffffffffffffff1663a9059cbb601360009054906101000a900473ffffffffffffffffffffffffffffffffffffffff16600160009054906101000a900473ffffffffffffffffffffffffffffffffffffffff1673ffffffffffffffffffffffffffffffffffffffff166370a08231306040518263ffffffff1660e01b8152600401808273ffffffffffffffffffffffffffffffffffffffff1673ffffffffffffffffffffffffffffffffffffffff16815260200191505060206040518083038186803b158015611d6e57600080fd5b505afa158015611d82573d6000803e3d6000fd5b505050506040513d6020811015611d9857600080fd5b81019080805190602001909291905050506040518363ffffffff1660e01b8152600401808373ffffffffffffffffffffffffffffffffffffffff1673ffffffffffffffffffffffffffffffffffffffff16815260200182815260200192505050602060405180830381600087803b158015611e1257600080fd5b505af1158015611e26573d6000803e3d6000fd5b505050506040513d6020811015611e3c57600080fd5b8101908080519060200190929190505050505b50565b3373ffffffffffffffffffffffffffffffffffffffff16611e71611391565b73ffffffffffffffffffffffffffffffffffffffff161480611edc5750601560003373ffffffffffffffffffffffffffffffffffffffff1673ffffffffffffffffffffffffffffffffffffffff16815260200190815260200160002060009054906101000a900460ff165b611f4e576040517f08c379a00000000000000000000000000000000000000000000000000000000081526004018080602001828103825260188152602001807f63616c6c6572206973206e6f7420617574686f72697a6564000000000000000081525060200191505060405180910390fd5b6011548147031015611fc8576040517f08c379a000000000000000000000000000000000000000000000000000000000815260040180806020018281038252601c8152602001807f43616e277420776974686472617720756e706c6179656420626574730000000081525060200191505060405180910390fd5b601360009054906101000a900473ffffffffffffffffffffffffffffffffffffffff1673ffffffffffffffffffffffffffffffffffffffff166108fc829081150290604051600060405180830381858888f19350505050158015612030573d6000803e3d6000fd5b5050565b61203d3461093f565b612092576040517f08c379a0000000000000000000000000000000000000000000000000000000008152600401808060200182810382526036815260200180612abd6036913960400191505060405180910390fd5b600e5481111580156120a45750600081115b612116576040517f08c379a000000000000000000000000000000000000000000000000000000000815260040180806020018281038252601a8152602001807f4f757473696465206f66207069636b61626c6520626f756e647300000000000081525060200191505060405180910390fd5b61211f34612969565b612191576040517f08c379a00000000000000000000000000000000000000000000000000000000081526004018080602001828103825260158152602001807f4f757469736465206f66206265742072616e67652e000000000000000000000081525060200191505060405180910390fd5b600160035414156121df57600360009055600460009055600560009055600660009055600760009055600860009055600960009055600a60009055600b60009055600c60009055600d600090555b6121f4346011546125e290919063ffffffff16565b601181905550612205823483612785565b6122106012546128a4565b601254601960008473ffffffffffffffffffffffffffffffffffffffff1673ffffffffffffffffffffffffffffffffffffffff168152602001908152602001600020819055505050565b60166020528060005260406000206000915054906101000a900460ff1681565b61228261277d565b73ffffffffffffffffffffffffffffffffffffffff166000809054906101000a900473ffffffffffffffffffffffffffffffffffffffff1673ffffffffffffffffffffffffffffffffffffffff1614612343576040517f08c379a00000000000000000000000000000000000000000000000000000000081526004018080602001828103825260208152602001807f4f776e61626c653a2063616c6c6572206973206e6f7420746865206f776e657281525060200191505060405180910390fd5b600073ffffffffffffffffffffffffffffffffffffffff168173ffffffffffffffffffffffffffffffffffffffff1614156123c9576040517f08c379a0000000000000000000000000000000000000000000000000000000008152600401808060200182810382526026815260200180612a976026913960400191505060405180910390fd5b8073ffffffffffffffffffffffffffffffffffffffff166000809054906101000a900473ffffffffffffffffffffffffffffffffffffffff1673ffffffffffffffffffffffffffffffffffffffff167f8be0079c531659141344cd1fd0a4f28419497f9722a3daafe3b4186f6b6457e060405160405180910390a3806000806101000a81548173ffffffffffffffffffffffffffffffffffffffff021916908373ffffffffffffffffffffffffffffffffffffffff16021790555050565b61248f61277d565b73ffffffffffffffffffffffffffffffffffffffff166000809054906101000a900473ffffffffffffffffffffffffffffffffffffffff1673ffffffffffffffffffffffffffffffffffffffff1614612550576040517f08c379a00000000000000000000000000000000000000000000000000000000081526004018080602001828103825260208152602001807f4f776e61626c653a2063616c6c6572206973206e6f7420746865206f776e657281525060200191505060405180910390fd5b612559816128a4565b50565b60008083141561256f57600090506125dc565b600082840290508284828161258057fe5b04146125d7576040517f08c379a0000000000000000000000000000000000000000000000000000000008152600401808060200182810382526021815260200180612af36021913960400191505060405180910390fd5b809150505b92915050565b600080828401905083811015612660576040517f08c379a000000000000000000000000000000000000000000000000000000000815260040180806020018281038252601b8152602001807f536166654d6174683a206164646974696f6e206f766572666c6f77000000000081525060200191505060405180910390fd5b8091505092915050565b6000828211156126e2576040517f08c379a000000000000000000000000000000000000000000000000000000000815260040180806020018281038252601e8152602001807f536166654d6174683a207375627472616374696f6e206f766572666c6f77000081525060200191505060405180910390fd5b600082840390508091505092915050565b60008082141561276b576040517f08c379a00000000000000000000000000000000000000000000000000000000081526004018080602001828103825260188152602001807f536166654d6174683a206d6f64756c6f206279207a65726f000000000000000081525060200191505060405180910390fd5b81838161277457fe5b06905092915050565b600033905090565b61279b60016012546125e290919063ffffffff16565b6012819055506127a9612a48565b6040518060c0016040528060125481526020018573ffffffffffffffffffffffffffffffffffffffff168152602001848152602001838152602001600081526020016000151581525090508060176000836000015181526020019081526020016000206000820151816000015560208201518160010160006101000a81548173ffffffffffffffffffffffffffffffffffffffff021916908373ffffffffffffffffffffffffffffffffffffffff16021790555060408201518160020155606082015181600301556080820151816004015560a08201518160050160006101000a81548160ff02191690831515021790555090505050505050565b600015156017600083815260200190815260200160002060050160009054906101000a900460ff16151514612941576040517f08c379a00000000000000000000000000000000000000000000000000000000081526004018080602001828103825260138152602001807f67616d6520616c726561647920706c617965640000000000000000000000000081525060200191505060405180910390fd5b600061294b612997565b90508160186000838152602001908152602001600020819055505050565b6000601054821015801561297f5750600f548211155b1561298d5760019050612992565b600090505b919050565b600080600260009054906101000a900473ffffffffffffffffffffffffffffffffffffffff1690508073ffffffffffffffffffffffffffffffffffffffff1663dbdff2c16040518163ffffffff1660e01b8152600401602060405180830381600087803b158015612a0757600080fd5b505af1158015612a1b573d6000803e3d6000fd5b505050506040513d6020811015612a3157600080fd5b810190808051906020019092919050505091505090565b6040518060c0016040528060008152602001600073ffffffffffffffffffffffffffffffffffffffff168152602001600081526020016000815260200160008152602001600015158152509056fe4f776e61626c653a206e6577206f776e657220697320746865207a65726f2061646472657373436f6e74726163742068617320696e737566666963696e742066756e647320746f207061796f757420706f737369626c652077696e2e536166654d6174683a206d756c7469706c69636174696f6e206f766572666c6f77436f6e74726163742062616c616e636520746f6f206c6f772e20506c656173652074727920616761696e206c617465722e47616d6520616c726561647920636f6d706c6574652e204e6f20726566756e6420706f737369626c652ea264697066735822122058b3e94a5e978f9e7e5f120c71c08fe2910025b0e3596415af3e25a7c0dc2df764736f6c63430006000033a26469706673582212200515fba6f74c37ac9b5b961f289c0bd5afb80c5f68e08173bc1706021a90dbbb64736f6c63430006000033","opcodes":"PUSH1 0x80 PUSH1 0x40 MSTORE CALLVALUE DUP1 ISZERO PUSH2 0x10 JUMPI PUSH1 0x0 DUP1 REVERT JUMPDEST POP PUSH2 0x35CA DUP1 PUSH2 0x20 PUSH1 0x0 CODECOPY PUSH1 0x0 RETURN INVALID PUSH1 0x80 PUSH1 0x40 MSTORE CALLVALUE DUP1 ISZERO PUSH2 0x10 JUMPI PUSH1 0x0 DUP1 REVERT JUMPDEST POP PUSH1 0x4 CALLDATASIZE LT PUSH2 0x4C JUMPI PUSH1 0x0 CALLDATALOAD PUSH1 0xE0 SHR DUP1 PUSH4 0x2EB47613 EQ PUSH2 0x51 JUMPI DUP1 PUSH4 0x3DF4F579 EQ PUSH2 0xB0 JUMPI DUP1 PUSH4 0x4D42845C EQ PUSH2 0x15C JUMPI DUP1 PUSH4 0x52B07B34 EQ PUSH2 0x1CA JUMPI JUMPDEST PUSH1 0x0 DUP1 REVERT JUMPDEST PUSH2 0x59 PUSH2 0x229 JUMP JUMPDEST PUSH1 0x40 MLOAD DUP1 DUP1 PUSH1 0x20 ADD DUP3 DUP2 SUB DUP3 MSTORE DUP4 DUP2 DUP2 MLOAD DUP2 MSTORE PUSH1 0x20 ADD SWAP2 POP DUP1 MLOAD SWAP1 PUSH1 0x20 ADD SWAP1 PUSH1 0x20 MUL DUP1 DUP4 DUP4 PUSH1 0x0 JUMPDEST DUP4 DUP2 LT ISZERO PUSH2 0x9C JUMPI DUP1 DUP3 ADD MLOAD DUP2 DUP5 ADD MSTORE PUSH1 0x20 DUP2 ADD SWAP1 POP PUSH2 0x81 JUMP JUMPDEST POP POP POP POP SWAP1 POP ADD SWAP3 POP POP POP PUSH1 0x40 MLOAD DUP1 SWAP2 SUB SWAP1 RETURN JUMPDEST PUSH2 0x11A PUSH1 0x4 DUP1 CALLDATASIZE SUB PUSH1 0xA0 DUP2 LT ISZERO PUSH2 0xC6 JUMPI PUSH1 0x0 DUP1 REVERT JUMPDEST DUP2 ADD SWAP1 DUP1 DUP1 CALLDATALOAD PUSH20 0xFFFFFFFFFFFFFFFFFFFFFFFFFFFFFFFFFFFFFFFF AND SWAP1 PUSH1 0x20 ADD SWAP1 SWAP3 SWAP2 SWAP1 DUP1 CALLDATALOAD SWAP1 PUSH1 0x20 ADD SWAP1 SWAP3 SWAP2 SWAP1 DUP1 CALLDATALOAD SWAP1 PUSH1 0x20 ADD SWAP1 SWAP3 SWAP2 SWAP1 DUP1 CALLDATALOAD SWAP1 PUSH1 0x20 ADD SWAP1 SWAP3 SWAP2 SWAP1 DUP1 CALLDATALOAD SWAP1 PUSH1 0x20 ADD SWAP1 SWAP3 SWAP2 SWAP1 POP POP POP PUSH2 0x2F4 JUMP JUMPDEST PUSH1 0x40 MLOAD DUP1 DUP3 PUSH20 0xFFFFFFFFFFFFFFFFFFFFFFFFFFFFFFFFFFFFFFFF AND PUSH20 0xFFFFFFFFFFFFFFFFFFFFFFFFFFFFFFFFFFFFFFFF AND DUP2 MSTORE PUSH1 0x20 ADD SWAP2 POP POP PUSH1 0x40 MLOAD DUP1 SWAP2 SUB SWAP1 RETURN JUMPDEST PUSH2 0x188 PUSH1 0x4 DUP1 CALLDATASIZE SUB PUSH1 0x20 DUP2 LT ISZERO PUSH2 0x172 JUMPI PUSH1 0x0 DUP1 REVERT JUMPDEST DUP2 ADD SWAP1 DUP1 DUP1 CALLDATALOAD SWAP1 PUSH1 0x20 ADD SWAP1 SWAP3 SWAP2 SWAP1 POP POP POP PUSH2 0x55A JUMP JUMPDEST PUSH1 0x40 MLOAD DUP1 DUP3 PUSH20 0xFFFFFFFFFFFFFFFFFFFFFFFFFFFFFFFFFFFFFFFF AND PUSH20 0xFFFFFFFFFFFFFFFFFFFFFFFFFFFFFFFFFFFFFFFF AND DUP2 MSTORE PUSH1 0x20 ADD SWAP2 POP POP PUSH1 0x40 MLOAD DUP1 SWAP2 SUB SWAP1 RETURN JUMPDEST PUSH2 0x1D2 PUSH2 0x596 JUMP JUMPDEST PUSH1 0x40 MLOAD DUP1 DUP1 PUSH1 0x20 ADD DUP3 DUP2 SUB DUP3 MSTORE DUP4 DUP2 DUP2 MLOAD DUP2 MSTORE PUSH1 0x20 ADD SWAP2 POP DUP1 MLOAD SWAP1 PUSH1 0x20 ADD SWAP1 PUSH1 0x20 MUL DUP1 DUP4 DUP4 PUSH1 0x0 JUMPDEST DUP4 DUP2 LT ISZERO PUSH2 0x215 JUMPI DUP1 DUP3 ADD MLOAD DUP2 DUP5 ADD MSTORE PUSH1 0x20 DUP2 ADD SWAP1 POP PUSH2 0x1FA JUMP JUMPDEST POP POP POP POP SWAP1 POP ADD SWAP3 POP POP POP PUSH1 0x40 MLOAD DUP1 SWAP2 SUB SWAP1 RETURN JUMPDEST PUSH1 0x60 PUSH1 0x1 PUSH1 0x0 CALLER PUSH20 0xFFFFFFFFFFFFFFFFFFFFFFFFFFFFFFFFFFFFFFFF AND PUSH20 0xFFFFFFFFFFFFFFFFFFFFFFFFFFFFFFFFFFFFFFFF AND DUP2 MSTORE PUSH1 0x20 ADD SWAP1 DUP2 MSTORE PUSH1 0x20 ADD PUSH1 0x0 KECCAK256 DUP1 SLOAD DUP1 PUSH1 0x20 MUL PUSH1 0x20 ADD PUSH1 0x40 MLOAD SWAP1 DUP2 ADD PUSH1 0x40 MSTORE DUP1 SWAP3 SWAP2 SWAP1 DUP2 DUP2 MSTORE PUSH1 0x20 ADD DUP3 DUP1 SLOAD DUP1 ISZERO PUSH2 0x2EA JUMPI PUSH1 0x20 MUL DUP3 ADD SWAP2 SWAP1 PUSH1 0x0 MSTORE PUSH1 0x20 PUSH1 0x0 KECCAK256 SWAP1 JUMPDEST DUP2 PUSH1 0x0 SWAP1 SLOAD SWAP1 PUSH2 0x100 EXP SWAP1 DIV PUSH20 0xFFFFFFFFFFFFFFFFFFFFFFFFFFFFFFFFFFFFFFFF AND PUSH20 0xFFFFFFFFFFFFFFFFFFFFFFFFFFFFFFFFFFFFFFFF AND DUP2 MSTORE PUSH1 0x20 ADD SWAP1 PUSH1 0x1 ADD SWAP1 DUP1 DUP4 GT PUSH2 0x2A0 JUMPI JUMPDEST POP POP POP POP POP SWAP1 POP SWAP1 JUMP JUMPDEST PUSH1 0x0 DUP1 DUP7 CALLER DUP8 DUP8 DUP8 DUP8 PUSH1 0x40 MLOAD PUSH2 0x309 SWAP1 PUSH2 0x624 JUMP JUMPDEST DUP1 DUP8 PUSH20 0xFFFFFFFFFFFFFFFFFFFFFFFFFFFFFFFFFFFFFFFF AND PUSH20 0xFFFFFFFFFFFFFFFFFFFFFFFFFFFFFFFFFFFFFFFF AND DUP2 MSTORE PUSH1 0x20 ADD DUP7 PUSH20 0xFFFFFFFFFFFFFFFFFFFFFFFFFFFFFFFFFFFFFFFF AND PUSH20 0xFFFFFFFFFFFFFFFFFFFFFFFFFFFFFFFFFFFFFFFF AND DUP2 MSTORE PUSH1 0x20 ADD DUP6 DUP2 MSTORE PUSH1 0x20 ADD DUP5 DUP2 MSTORE PUSH1 0x20 ADD DUP4 DUP2 MSTORE PUSH1 0x20 ADD DUP3 DUP2 MSTORE PUSH1 0x20 ADD SWAP7 POP POP POP POP POP POP POP PUSH1 0x40 MLOAD DUP1 SWAP2 SUB SWAP1 PUSH1 0x0 CREATE DUP1 ISZERO DUP1 ISZERO PUSH2 0x3AA JUMPI RETURNDATASIZE PUSH1 0x0 DUP1 RETURNDATACOPY RETURNDATASIZE PUSH1 0x0 REVERT JUMPDEST POP SWAP1 POP DUP1 PUSH20 0xFFFFFFFFFFFFFFFFFFFFFFFFFFFFFFFFFFFFFFFF AND PUSH4 0xF2FDE38B CALLER PUSH1 0x40 MLOAD DUP3 PUSH4 0xFFFFFFFF AND PUSH1 0xE0 SHL DUP2 MSTORE PUSH1 0x4 ADD DUP1 DUP3 PUSH20 0xFFFFFFFFFFFFFFFFFFFFFFFFFFFFFFFFFFFFFFFF AND PUSH20 0xFFFFFFFFFFFFFFFFFFFFFFFFFFFFFFFFFFFFFFFF AND DUP2 MSTORE PUSH1 0x20 ADD SWAP2 POP POP PUSH1 0x0 PUSH1 0x40 MLOAD DUP1 DUP4 SUB DUP2 PUSH1 0x0 DUP8 DUP1 EXTCODESIZE ISZERO DUP1 ISZERO PUSH2 0x42C JUMPI PUSH1 0x0 DUP1 REVERT JUMPDEST POP GAS CALL ISZERO DUP1 ISZERO PUSH2 0x440 JUMPI RETURNDATASIZE PUSH1 0x0 DUP1 RETURNDATACOPY RETURNDATASIZE PUSH1 0x0 REVERT JUMPDEST POP POP POP POP PUSH1 0x0 DUP2 SWAP1 POP PUSH1 0x0 DUP2 SWAP1 DUP1 PUSH1 0x1 DUP2 SLOAD ADD DUP1 DUP3 SSTORE DUP1 SWAP2 POP POP PUSH1 0x1 SWAP1 SUB SWAP1 PUSH1 0x0 MSTORE PUSH1 0x20 PUSH1 0x0 KECCAK256 ADD PUSH1 0x0 SWAP1 SWAP2 SWAP1 SWAP2 SWAP1 SWAP2 PUSH2 0x100 EXP DUP2 SLOAD DUP2 PUSH20 0xFFFFFFFFFFFFFFFFFFFFFFFFFFFFFFFFFFFFFFFF MUL NOT AND SWAP1 DUP4 PUSH20 0xFFFFFFFFFFFFFFFFFFFFFFFFFFFFFFFFFFFFFFFF AND MUL OR SWAP1 SSTORE POP PUSH1 0x1 PUSH1 0x0 CALLER PUSH20 0xFFFFFFFFFFFFFFFFFFFFFFFFFFFFFFFFFFFFFFFF AND PUSH20 0xFFFFFFFFFFFFFFFFFFFFFFFFFFFFFFFFFFFFFFFF AND DUP2 MSTORE PUSH1 0x20 ADD SWAP1 DUP2 MSTORE PUSH1 0x20 ADD PUSH1 0x0 KECCAK256 DUP2 SWAP1 DUP1 PUSH1 0x1 DUP2 SLOAD ADD DUP1 DUP3 SSTORE DUP1 SWAP2 POP POP PUSH1 0x1 SWAP1 SUB SWAP1 PUSH1 0x0 MSTORE PUSH1 0x20 PUSH1 0x0 KECCAK256 ADD PUSH1 0x0 SWAP1 SWAP2 SWAP1 SWAP2 SWAP1 SWAP2 PUSH2 0x100 EXP DUP2 SLOAD DUP2 PUSH20 0xFFFFFFFFFFFFFFFFFFFFFFFFFFFFFFFFFFFFFFFF MUL NOT AND SWAP1 DUP4 PUSH20 0xFFFFFFFFFFFFFFFFFFFFFFFFFFFFFFFFFFFFFFFF AND MUL OR SWAP1 SSTORE POP DUP1 SWAP3 POP POP POP SWAP6 SWAP5 POP POP POP POP POP JUMP JUMPDEST PUSH1 0x0 DUP2 DUP2 SLOAD DUP2 LT PUSH2 0x567 JUMPI INVALID JUMPDEST SWAP1 PUSH1 0x0 MSTORE PUSH1 0x20 PUSH1 0x0 KECCAK256 ADD PUSH1 0x0 SWAP2 POP SLOAD SWAP1 PUSH2 0x100 EXP SWAP1 DIV PUSH20 0xFFFFFFFFFFFFFFFFFFFFFFFFFFFFFFFFFFFFFFFF AND DUP2 JUMP JUMPDEST PUSH1 0x60 PUSH1 0x0 DUP1 SLOAD DUP1 PUSH1 0x20 MUL PUSH1 0x20 ADD PUSH1 0x40 MLOAD SWAP1 DUP2 ADD PUSH1 0x40 MSTORE DUP1 SWAP3 SWAP2 SWAP1 DUP2 DUP2 MSTORE PUSH1 0x20 ADD DUP3 DUP1 SLOAD DUP1 ISZERO PUSH2 0x61A JUMPI PUSH1 0x20 MUL DUP3 ADD SWAP2 SWAP1 PUSH1 0x0 MSTORE PUSH1 0x20 PUSH1 0x0 KECCAK256 SWAP1 JUMPDEST DUP2 PUSH1 0x0 SWAP1 SLOAD SWAP1 PUSH2 0x100 EXP SWAP1 DIV PUSH20 0xFFFFFFFFFFFFFFFFFFFFFFFFFFFFFFFFFFFFFFFF AND PUSH20 0xFFFFFFFFFFFFFFFFFFFFFFFFFFFFFFFFFFFFFFFF AND DUP2 MSTORE PUSH1 0x20 ADD SWAP1 PUSH1 0x1 ADD SWAP1 DUP1 DUP4 GT PUSH2 0x5D0 JUMPI JUMPDEST POP POP POP POP POP SWAP1 POP SWAP1 JUMP JUMPDEST PUSH2 0x2F63 DUP1 PUSH2 0x632 DUP4 CODECOPY ADD SWAP1 JUMP INVALID PUSH1 0x80 PUSH1 0x40 MSTORE CALLVALUE DUP1 ISZERO PUSH3 0x11 JUMPI PUSH1 0x0 DUP1 REVERT JUMPDEST POP PUSH1 0x40 MLOAD PUSH3 0x2F63 CODESIZE SUB DUP1 PUSH3 0x2F63 DUP4 CODECOPY DUP2 DUP2 ADD PUSH1 0x40 MSTORE PUSH1 0xC0 DUP2 LT ISZERO PUSH3 0x37 JUMPI PUSH1 0x0 DUP1 REVERT JUMPDEST DUP2 ADD SWAP1 DUP1 DUP1 MLOAD SWAP1 PUSH1 0x20 ADD SWAP1 SWAP3 SWAP2 SWAP1 DUP1 MLOAD SWAP1 PUSH1 0x20 ADD SWAP1 SWAP3 SWAP2 SWAP1 DUP1 MLOAD SWAP1 PUSH1 0x20 ADD SWAP1 SWAP3 SWAP2 SWAP1 DUP1 MLOAD SWAP1 PUSH1 0x20 ADD SWAP1 SWAP3 SWAP2 SWAP1 DUP1 MLOAD SWAP1 PUSH1 0x20 ADD SWAP1 SWAP3 SWAP2 SWAP1 DUP1 MLOAD SWAP1 PUSH1 0x20 ADD SWAP1 SWAP3 SWAP2 SWAP1 POP POP POP PUSH1 0x0 PUSH3 0x8C PUSH3 0x3A7 PUSH1 0x20 SHL PUSH1 0x20 SHR JUMP JUMPDEST SWAP1 POP DUP1 PUSH1 0x0 DUP1 PUSH2 0x100 EXP DUP2 SLOAD DUP2 PUSH20 0xFFFFFFFFFFFFFFFFFFFFFFFFFFFFFFFFFFFFFFFF MUL NOT AND SWAP1 DUP4 PUSH20 0xFFFFFFFFFFFFFFFFFFFFFFFFFFFFFFFFFFFFFFFF AND MUL OR SWAP1 SSTORE POP DUP1 PUSH20 0xFFFFFFFFFFFFFFFFFFFFFFFFFFFFFFFFFFFFFFFF AND PUSH1 0x0 PUSH20 0xFFFFFFFFFFFFFFFFFFFFFFFFFFFFFFFFFFFFFFFF AND PUSH32 0x8BE0079C531659141344CD1FD0A4F28419497F9722A3DAAFE3B4186F6B6457E0 PUSH1 0x40 MLOAD PUSH1 0x40 MLOAD DUP1 SWAP2 SUB SWAP1 LOG3 POP DUP6 PUSH1 0x2 PUSH1 0x0 PUSH2 0x100 EXP DUP2 SLOAD DUP2 PUSH20 0xFFFFFFFFFFFFFFFFFFFFFFFFFFFFFFFFFFFFFFFF MUL NOT AND SWAP1 DUP4 PUSH20 0xFFFFFFFFFFFFFFFFFFFFFFFFFFFFFFFFFFFFFFFF AND MUL OR SWAP1 SSTORE POP PUSH1 0x1 PUSH1 0x12 DUP2 SWAP1 SSTORE POP PUSH1 0x0 PUSH1 0x11 DUP2 SWAP1 SSTORE POP DUP5 PUSH1 0x13 PUSH1 0x0 PUSH2 0x100 EXP DUP2 SLOAD DUP2 PUSH20 0xFFFFFFFFFFFFFFFFFFFFFFFFFFFFFFFFFFFFFFFF MUL NOT AND SWAP1 DUP4 PUSH20 0xFFFFFFFFFFFFFFFFFFFFFFFFFFFFFFFFFFFFFFFF AND MUL OR SWAP1 SSTORE POP DUP3 PUSH1 0x10 DUP2 SWAP1 SSTORE POP DUP4 PUSH1 0xF DUP2 SWAP1 SSTORE POP DUP2 PUSH1 0xE DUP2 SWAP1 SSTORE POP DUP1 PUSH1 0x14 DUP2 SWAP1 SSTORE POP PUSH1 0x1 PUSH1 0x3 DUP2 SWAP1 SSTORE POP PUSH1 0x1 PUSH1 0x4 DUP2 SWAP1 SSTORE POP PUSH1 0x1 PUSH1 0x5 DUP2 SWAP1 SSTORE POP PUSH1 0x1 PUSH1 0x6 DUP2 SWAP1 SSTORE POP PUSH1 0x1 PUSH1 0x7 DUP2 SWAP1 SSTORE POP PUSH1 0x1 PUSH1 0x8 DUP2 SWAP1 SSTORE POP PUSH1 0x1 PUSH1 0x9 DUP2 SWAP1 SSTORE POP PUSH1 0x1 PUSH1 0xA DUP2 SWAP1 SSTORE POP PUSH1 0x1 PUSH1 0xB DUP2 SWAP1 SSTORE POP PUSH1 0x1 PUSH1 0xC DUP2 SWAP1 SSTORE POP PUSH1 0x1 PUSH1 0xD DUP2 SWAP1 SSTORE POP PUSH20 0xA36085F69E2889C224210F603D836748E7DC0088 PUSH1 0x1 PUSH1 0x0 PUSH2 0x100 EXP DUP2 SLOAD DUP2 PUSH20 0xFFFFFFFFFFFFFFFFFFFFFFFFFFFFFFFFFFFFFFFF MUL NOT AND SWAP1 DUP4 PUSH20 0xFFFFFFFFFFFFFFFFFFFFFFFFFFFFFFFFFFFFFFFF AND MUL OR SWAP1 SSTORE POP PUSH1 0x0 DUP1 SWAP1 POP PUSH1 0x1 DUP2 SUB SWAP1 POP PUSH1 0x1 PUSH1 0x0 SWAP1 SLOAD SWAP1 PUSH2 0x100 EXP SWAP1 DIV PUSH20 0xFFFFFFFFFFFFFFFFFFFFFFFFFFFFFFFFFFFFFFFF AND PUSH20 0xFFFFFFFFFFFFFFFFFFFFFFFFFFFFFFFFFFFFFFFF AND PUSH4 0x95EA7B3 PUSH1 0x2 PUSH1 0x0 SWAP1 SLOAD SWAP1 PUSH2 0x100 EXP SWAP1 DIV PUSH20 0xFFFFFFFFFFFFFFFFFFFFFFFFFFFFFFFFFFFFFFFF AND DUP4 PUSH1 0x40 MLOAD DUP4 PUSH4 0xFFFFFFFF AND PUSH1 0xE0 SHL DUP2 MSTORE PUSH1 0x4 ADD DUP1 DUP4 PUSH20 0xFFFFFFFFFFFFFFFFFFFFFFFFFFFFFFFFFFFFFFFF AND PUSH20 0xFFFFFFFFFFFFFFFFFFFFFFFFFFFFFFFFFFFFFFFF AND DUP2 MSTORE PUSH1 0x20 ADD DUP3 DUP2 MSTORE PUSH1 0x20 ADD SWAP3 POP POP POP PUSH1 0x20 PUSH1 0x40 MLOAD DUP1 DUP4 SUB DUP2 PUSH1 0x0 DUP8 DUP1 EXTCODESIZE ISZERO DUP1 ISZERO PUSH3 0x35C JUMPI PUSH1 0x0 DUP1 REVERT JUMPDEST POP GAS CALL ISZERO DUP1 ISZERO PUSH3 0x371 JUMPI RETURNDATASIZE PUSH1 0x0 DUP1 RETURNDATACOPY RETURNDATASIZE PUSH1 0x0 REVERT JUMPDEST POP POP POP POP PUSH1 0x40 MLOAD RETURNDATASIZE PUSH1 0x20 DUP2 LT ISZERO PUSH3 0x388 JUMPI PUSH1 0x0 DUP1 REVERT JUMPDEST DUP2 ADD SWAP1 DUP1 DUP1 MLOAD SWAP1 PUSH1 0x20 ADD SWAP1 SWAP3 SWAP2 SWAP1 POP POP POP POP POP POP POP POP POP POP POP PUSH3 0x3AF JUMP JUMPDEST PUSH1 0x0 CALLER SWAP1 POP SWAP1 JUMP JUMPDEST PUSH2 0x2BA4 DUP1 PUSH3 0x3BF PUSH1 0x0 CODECOPY PUSH1 0x0 RETURN INVALID PUSH1 0x80 PUSH1 0x40 MSTORE PUSH1 0x4 CALLDATASIZE LT PUSH2 0x1A0 JUMPI PUSH1 0x0 CALLDATALOAD PUSH1 0xE0 SHR DUP1 PUSH4 0x7A8042BD GT PUSH2 0xEC JUMPI DUP1 PUSH4 0xB843F5AB GT PUSH2 0x8A JUMPI DUP1 PUSH4 0xD9E721F8 GT PUSH2 0x64 JUMPI DUP1 PUSH4 0xD9E721F8 EQ PUSH2 0x7FC JUMPI DUP1 PUSH4 0xDFAD4C11 EQ PUSH2 0x84A JUMPI DUP1 PUSH4 0xF2FDE38B EQ PUSH2 0x8B3 JUMPI DUP1 PUSH4 0xF31A4DCD EQ PUSH2 0x904 JUMPI PUSH2 0x1A7 JUMP JUMPDEST DUP1 PUSH4 0xB843F5AB EQ PUSH2 0x745 JUMPI DUP1 PUSH4 0xB93030B3 EQ PUSH2 0x7AA JUMPI DUP1 PUSH4 0xC311D049 EQ PUSH2 0x7C1 JUMPI PUSH2 0x1A7 JUMP JUMPDEST DUP1 PUSH4 0xA02E0616 GT PUSH2 0xC6 JUMPI DUP1 PUSH4 0xA02E0616 EQ PUSH2 0x60E JUMPI DUP1 PUSH4 0xA249225E EQ PUSH2 0x65F JUMPI DUP1 PUSH4 0xA4B2409E EQ PUSH2 0x6BC JUMPI DUP1 PUSH4 0xAC150FD8 EQ PUSH2 0x6F7 JUMPI PUSH2 0x1A7 JUMP JUMPDEST DUP1 PUSH4 0x7A8042BD EQ PUSH2 0x551 JUMPI DUP1 PUSH4 0x8DA5CB5B EQ PUSH2 0x58C JUMPI DUP1 PUSH4 0x9619367D EQ PUSH2 0x5E3 JUMPI PUSH2 0x1A7 JUMP JUMPDEST DUP1 PUSH4 0x33EA51A8 GT PUSH2 0x159 JUMPI DUP1 PUSH4 0x50C5F975 GT PUSH2 0x133 JUMPI DUP1 PUSH4 0x50C5F975 EQ PUSH2 0x48D JUMPI DUP1 PUSH4 0x5B8D02D7 EQ PUSH2 0x4B8 JUMPI DUP1 PUSH4 0x63BD1D4A EQ PUSH2 0x50F JUMPI DUP1 PUSH4 0x715018A6 EQ PUSH2 0x53A JUMPI PUSH2 0x1A7 JUMP JUMPDEST DUP1 PUSH4 0x33EA51A8 EQ PUSH2 0x393 JUMPI DUP1 PUSH4 0x3638104A EQ PUSH2 0x3E4 JUMPI DUP1 PUSH4 0x4051DDAC EQ PUSH2 0x44D JUMPI PUSH2 0x1A7 JUMP JUMPDEST DUP1 PUSH4 0xC610A12 EQ PUSH2 0x1AC JUMPI DUP1 PUSH4 0x117A5B90 EQ PUSH2 0x1FF JUMPI DUP1 PUSH4 0x19465B7C EQ PUSH2 0x2A1 JUMPI DUP1 PUSH4 0x1F1F897F EQ PUSH2 0x2F8 JUMPI DUP1 PUSH4 0x2E5B2168 EQ PUSH2 0x33D JUMPI DUP1 PUSH4 0x2EE42D8A EQ PUSH2 0x368 JUMPI PUSH2 0x1A7 JUMP JUMPDEST CALLDATASIZE PUSH2 0x1A7 JUMPI STOP JUMPDEST PUSH1 0x0 DUP1 REVERT JUMPDEST CALLVALUE DUP1 ISZERO PUSH2 0x1B8 JUMPI PUSH1 0x0 DUP1 REVERT JUMPDEST POP PUSH2 0x1E5 PUSH1 0x4 DUP1 CALLDATASIZE SUB PUSH1 0x20 DUP2 LT ISZERO PUSH2 0x1CF JUMPI PUSH1 0x0 DUP1 REVERT JUMPDEST DUP2 ADD SWAP1 DUP1 DUP1 CALLDATALOAD SWAP1 PUSH1 0x20 ADD SWAP1 SWAP3 SWAP2 SWAP1 POP POP POP PUSH2 0x93F JUMP JUMPDEST PUSH1 0x40 MLOAD DUP1 DUP3 ISZERO ISZERO ISZERO ISZERO DUP2 MSTORE PUSH1 0x20 ADD SWAP2 POP POP PUSH1 0x40 MLOAD DUP1 SWAP2 SUB SWAP1 RETURN JUMPDEST CALLVALUE DUP1 ISZERO PUSH2 0x20B JUMPI PUSH1 0x0 DUP1 REVERT JUMPDEST POP PUSH2 0x238 PUSH1 0x4 DUP1 CALLDATASIZE SUB PUSH1 0x20 DUP2 LT ISZERO PUSH2 0x222 JUMPI PUSH1 0x0 DUP1 REVERT JUMPDEST DUP2 ADD SWAP1 DUP1 DUP1 CALLDATALOAD SWAP1 PUSH1 0x20 ADD SWAP1 SWAP3 SWAP2 SWAP1 POP POP POP PUSH2 0x986 JUMP JUMPDEST PUSH1 0x40 MLOAD DUP1 DUP8 DUP2 MSTORE PUSH1 0x20 ADD DUP7 PUSH20 0xFFFFFFFFFFFFFFFFFFFFFFFFFFFFFFFFFFFFFFFF AND PUSH20 0xFFFFFFFFFFFFFFFFFFFFFFFFFFFFFFFFFFFFFFFF AND DUP2 MSTORE PUSH1 0x20 ADD DUP6 DUP2 MSTORE PUSH1 0x20 ADD DUP5 DUP2 MSTORE PUSH1 0x20 ADD DUP4 DUP2 MSTORE PUSH1 0x20 ADD DUP3 ISZERO ISZERO ISZERO ISZERO DUP2 MSTORE PUSH1 0x20 ADD SWAP7 POP POP POP POP POP POP POP PUSH1 0x40 MLOAD DUP1 SWAP2 SUB SWAP1 RETURN JUMPDEST CALLVALUE DUP1 ISZERO PUSH2 0x2AD JUMPI PUSH1 0x0 DUP1 REVERT JUMPDEST POP PUSH2 0x2B6 PUSH2 0x9EF JUMP JUMPDEST PUSH1 0x40 MLOAD DUP1 DUP3 PUSH20 0xFFFFFFFFFFFFFFFFFFFFFFFFFFFFFFFFFFFFFFFF AND PUSH20 0xFFFFFFFFFFFFFFFFFFFFFFFFFFFFFFFFFFFFFFFF AND DUP2 MSTORE PUSH1 0x20 ADD SWAP2 POP POP PUSH1 0x40 MLOAD DUP1 SWAP2 SUB SWAP1 RETURN JUMPDEST CALLVALUE DUP1 ISZERO PUSH2 0x304 JUMPI PUSH1 0x0 DUP1 REVERT JUMPDEST POP PUSH2 0x33B PUSH1 0x4 DUP1 CALLDATASIZE SUB PUSH1 0x40 DUP2 LT ISZERO PUSH2 0x31B JUMPI PUSH1 0x0 DUP1 REVERT JUMPDEST DUP2 ADD SWAP1 DUP1 DUP1 CALLDATALOAD SWAP1 PUSH1 0x20 ADD SWAP1 SWAP3 SWAP2 SWAP1 DUP1 CALLDATALOAD SWAP1 PUSH1 0x20 ADD SWAP1 SWAP3 SWAP2 SWAP1 POP POP POP PUSH2 0xA15 JUMP JUMPDEST STOP JUMPDEST CALLVALUE DUP1 ISZERO PUSH2 0x349 JUMPI PUSH1 0x0 DUP1 REVERT JUMPDEST POP PUSH2 0x352 PUSH2 0xD9D JUMP JUMPDEST PUSH1 0x40 MLOAD DUP1 DUP3 DUP2 MSTORE PUSH1 0x20 ADD SWAP2 POP POP PUSH1 0x40 MLOAD DUP1 SWAP2 SUB SWAP1 RETURN JUMPDEST CALLVALUE DUP1 ISZERO PUSH2 0x374 JUMPI PUSH1 0x0 DUP1 REVERT JUMPDEST POP PUSH2 0x37D PUSH2 0xDA3 JUMP JUMPDEST PUSH1 0x40 MLOAD DUP1 DUP3 DUP2 MSTORE PUSH1 0x20 ADD SWAP2 POP POP PUSH1 0x40 MLOAD DUP1 SWAP2 SUB SWAP1 RETURN JUMPDEST CALLVALUE DUP1 ISZERO PUSH2 0x39F JUMPI PUSH1 0x0 DUP1 REVERT JUMPDEST POP PUSH2 0x3E2 PUSH1 0x4 DUP1 CALLDATASIZE SUB PUSH1 0x20 DUP2 LT ISZERO PUSH2 0x3B6 JUMPI PUSH1 0x0 DUP1 REVERT JUMPDEST DUP2 ADD SWAP1 DUP1 DUP1 CALLDATALOAD PUSH20 0xFFFFFFFFFFFFFFFFFFFFFFFFFFFFFFFFFFFFFFFF AND SWAP1 PUSH1 0x20 ADD SWAP1 SWAP3 SWAP2 SWAP1 POP POP POP PUSH2 0xDA9 JUMP JUMPDEST STOP JUMPDEST CALLVALUE DUP1 ISZERO PUSH2 0x3F0 JUMPI PUSH1 0x0 DUP1 REVERT JUMPDEST POP PUSH2 0x433 PUSH1 0x4 DUP1 CALLDATASIZE SUB PUSH1 0x20 DUP2 LT ISZERO PUSH2 0x407 JUMPI PUSH1 0x0 DUP1 REVERT JUMPDEST DUP2 ADD SWAP1 DUP1 DUP1 CALLDATALOAD PUSH20 0xFFFFFFFFFFFFFFFFFFFFFFFFFFFFFFFFFFFFFFFF AND SWAP1 PUSH1 0x20 ADD SWAP1 SWAP3 SWAP2 SWAP1 POP POP POP PUSH2 0xEB6 JUMP JUMPDEST PUSH1 0x40 MLOAD DUP1 DUP3 ISZERO ISZERO ISZERO ISZERO DUP2 MSTORE PUSH1 0x20 ADD SWAP2 POP POP PUSH1 0x40 MLOAD DUP1 SWAP2 SUB SWAP1 RETURN JUMPDEST CALLVALUE DUP1 ISZERO PUSH2 0x459 JUMPI PUSH1 0x0 DUP1 REVERT JUMPDEST POP PUSH2 0x462 PUSH2 0xED6 JUMP JUMPDEST PUSH1 0x40 MLOAD DUP1 DUP6 DUP2 MSTORE PUSH1 0x20 ADD DUP5 DUP2 MSTORE PUSH1 0x20 ADD DUP4 DUP2 MSTORE PUSH1 0x20 ADD DUP3 DUP2 MSTORE PUSH1 0x20 ADD SWAP5 POP POP POP POP POP PUSH1 0x40 MLOAD DUP1 SWAP2 SUB SWAP1 RETURN JUMPDEST CALLVALUE DUP1 ISZERO PUSH2 0x499 JUMPI PUSH1 0x0 DUP1 REVERT JUMPDEST POP PUSH2 0x4A2 PUSH2 0xEF6 JUMP JUMPDEST PUSH1 0x40 MLOAD DUP1 DUP3 DUP2 MSTORE PUSH1 0x20 ADD SWAP2 POP POP PUSH1 0x40 MLOAD DUP1 SWAP2 SUB SWAP1 RETURN JUMPDEST CALLVALUE DUP1 ISZERO PUSH2 0x4C4 JUMPI PUSH1 0x0 DUP1 REVERT JUMPDEST POP PUSH2 0x4CD PUSH2 0xFD7 JUMP JUMPDEST PUSH1 0x40 MLOAD DUP1 DUP3 PUSH20 0xFFFFFFFFFFFFFFFFFFFFFFFFFFFFFFFFFFFFFFFF AND PUSH20 0xFFFFFFFFFFFFFFFFFFFFFFFFFFFFFFFFFFFFFFFF AND DUP2 MSTORE PUSH1 0x20 ADD SWAP2 POP POP PUSH1 0x40 MLOAD DUP1 SWAP2 SUB SWAP1 RETURN JUMPDEST CALLVALUE DUP1 ISZERO PUSH2 0x51B JUMPI PUSH1 0x0 DUP1 REVERT JUMPDEST POP PUSH2 0x524 PUSH2 0xFFD JUMP JUMPDEST PUSH1 0x40 MLOAD DUP1 DUP3 DUP2 MSTORE PUSH1 0x20 ADD SWAP2 POP POP PUSH1 0x40 MLOAD DUP1 SWAP2 SUB SWAP1 RETURN JUMPDEST CALLVALUE DUP1 ISZERO PUSH2 0x546 JUMPI PUSH1 0x0 DUP1 REVERT JUMPDEST POP PUSH2 0x54F PUSH2 0x1003 JUMP JUMPDEST STOP JUMPDEST CALLVALUE DUP1 ISZERO PUSH2 0x55D JUMPI PUSH1 0x0 DUP1 REVERT JUMPDEST POP PUSH2 0x58A PUSH1 0x4 DUP1 CALLDATASIZE SUB PUSH1 0x20 DUP2 LT ISZERO PUSH2 0x574 JUMPI PUSH1 0x0 DUP1 REVERT JUMPDEST DUP2 ADD SWAP1 DUP1 DUP1 CALLDATALOAD SWAP1 PUSH1 0x20 ADD SWAP1 SWAP3 SWAP2 SWAP1 POP POP POP PUSH2 0x118B JUMP JUMPDEST STOP JUMPDEST CALLVALUE DUP1 ISZERO PUSH2 0x598 JUMPI PUSH1 0x0 DUP1 REVERT JUMPDEST POP PUSH2 0x5A1 PUSH2 0x1391 JUMP JUMPDEST PUSH1 0x40 MLOAD DUP1 DUP3 PUSH20 0xFFFFFFFFFFFFFFFFFFFFFFFFFFFFFFFFFFFFFFFF AND PUSH20 0xFFFFFFFFFFFFFFFFFFFFFFFFFFFFFFFFFFFFFFFF AND DUP2 MSTORE PUSH1 0x20 ADD SWAP2 POP POP PUSH1 0x40 MLOAD DUP1 SWAP2 SUB SWAP1 RETURN JUMPDEST CALLVALUE DUP1 ISZERO PUSH2 0x5EF JUMPI PUSH1 0x0 DUP1 REVERT JUMPDEST POP PUSH2 0x5F8 PUSH2 0x13BA JUMP JUMPDEST PUSH1 0x40 MLOAD DUP1 DUP3 DUP2 MSTORE PUSH1 0x20 ADD SWAP2 POP POP PUSH1 0x40 MLOAD DUP1 SWAP2 SUB SWAP1 RETURN JUMPDEST CALLVALUE DUP1 ISZERO PUSH2 0x61A JUMPI PUSH1 0x0 DUP1 REVERT JUMPDEST POP PUSH2 0x65D PUSH1 0x4 DUP1 CALLDATASIZE SUB PUSH1 0x20 DUP2 LT ISZERO PUSH2 0x631 JUMPI PUSH1 0x0 DUP1 REVERT JUMPDEST DUP2 ADD SWAP1 DUP1 DUP1 CALLDATALOAD PUSH20 0xFFFFFFFFFFFFFFFFFFFFFFFFFFFFFFFFFFFFFFFF AND SWAP1 PUSH1 0x20 ADD SWAP1 SWAP3 SWAP2 SWAP1 POP POP POP PUSH2 0x13C0 JUMP JUMPDEST STOP JUMPDEST CALLVALUE DUP1 ISZERO PUSH2 0x66B JUMPI PUSH1 0x0 DUP1 REVERT JUMPDEST POP PUSH2 0x6BA PUSH1 0x4 DUP1 CALLDATASIZE SUB PUSH1 0x40 DUP2 LT ISZERO PUSH2 0x682 JUMPI PUSH1 0x0 DUP1 REVERT JUMPDEST DUP2 ADD SWAP1 DUP1 DUP1 CALLDATALOAD PUSH20 0xFFFFFFFFFFFFFFFFFFFFFFFFFFFFFFFFFFFFFFFF AND SWAP1 PUSH1 0x20 ADD SWAP1 SWAP3 SWAP2 SWAP1 DUP1 CALLDATALOAD ISZERO ISZERO SWAP1 PUSH1 0x20 ADD SWAP1 SWAP3 SWAP2 SWAP1 POP POP POP PUSH2 0x14CD JUMP JUMPDEST STOP JUMPDEST CALLVALUE DUP1 ISZERO PUSH2 0x6C8 JUMPI PUSH1 0x0 DUP1 REVERT JUMPDEST POP PUSH2 0x6F5 PUSH1 0x4 DUP1 CALLDATASIZE SUB PUSH1 0x20 DUP2 LT ISZERO PUSH2 0x6DF JUMPI PUSH1 0x0 DUP1 REVERT JUMPDEST DUP2 ADD SWAP1 DUP1 DUP1 CALLDATALOAD SWAP1 PUSH1 0x20 ADD SWAP1 SWAP3 SWAP2 SWAP1 POP POP POP PUSH2 0x15F1 JUMP JUMPDEST STOP JUMPDEST PUSH2 0x743 PUSH1 0x4 DUP1 CALLDATASIZE SUB PUSH1 0x40 DUP2 LT ISZERO PUSH2 0x70D JUMPI PUSH1 0x0 DUP1 REVERT JUMPDEST DUP2 ADD SWAP1 DUP1 DUP1 CALLDATALOAD PUSH20 0xFFFFFFFFFFFFFFFFFFFFFFFFFFFFFFFFFFFFFFFF AND SWAP1 PUSH1 0x20 ADD SWAP1 SWAP3 SWAP2 SWAP1 DUP1 CALLDATALOAD SWAP1 PUSH1 0x20 ADD SWAP1 SWAP3 SWAP2 SWAP1 POP POP POP PUSH2 0x18E8 JUMP JUMPDEST STOP JUMPDEST CALLVALUE DUP1 ISZERO PUSH2 0x751 JUMPI PUSH1 0x0 DUP1 REVERT JUMPDEST POP PUSH2 0x794 PUSH1 0x4 DUP1 CALLDATASIZE SUB PUSH1 0x20 DUP2 LT ISZERO PUSH2 0x768 JUMPI PUSH1 0x0 DUP1 REVERT JUMPDEST DUP2 ADD SWAP1 DUP1 DUP1 CALLDATALOAD PUSH20 0xFFFFFFFFFFFFFFFFFFFFFFFFFFFFFFFFFFFFFFFF AND SWAP1 PUSH1 0x20 ADD SWAP1 SWAP3 SWAP2 SWAP1 POP POP POP PUSH2 0x1A29 JUMP JUMPDEST PUSH1 0x40 MLOAD DUP1 DUP3 DUP2 MSTORE PUSH1 0x20 ADD SWAP2 POP POP PUSH1 0x40 MLOAD DUP1 SWAP2 SUB SWAP1 RETURN JUMPDEST CALLVALUE DUP1 ISZERO PUSH2 0x7B6 JUMPI PUSH1 0x0 DUP1 REVERT JUMPDEST POP PUSH2 0x7BF PUSH2 0x1A41 JUMP JUMPDEST STOP JUMPDEST CALLVALUE DUP1 ISZERO PUSH2 0x7CD JUMPI PUSH1 0x0 DUP1 REVERT JUMPDEST POP PUSH2 0x7FA PUSH1 0x4 DUP1 CALLDATASIZE SUB PUSH1 0x20 DUP2 LT ISZERO PUSH2 0x7E4 JUMPI PUSH1 0x0 DUP1 REVERT JUMPDEST DUP2 ADD SWAP1 DUP1 DUP1 CALLDATALOAD SWAP1 PUSH1 0x20 ADD SWAP1 SWAP3 SWAP2 SWAP1 POP POP POP PUSH2 0x1E52 JUMP JUMPDEST STOP JUMPDEST PUSH2 0x848 PUSH1 0x4 DUP1 CALLDATASIZE SUB PUSH1 0x40 DUP2 LT ISZERO PUSH2 0x812 JUMPI PUSH1 0x0 DUP1 REVERT JUMPDEST DUP2 ADD SWAP1 DUP1 DUP1 CALLDATALOAD PUSH20 0xFFFFFFFFFFFFFFFFFFFFFFFFFFFFFFFFFFFFFFFF AND SWAP1 PUSH1 0x20 ADD SWAP1 SWAP3 SWAP2 SWAP1 DUP1 CALLDATALOAD SWAP1 PUSH1 0x20 ADD SWAP1 SWAP3 SWAP2 SWAP1 POP POP POP PUSH2 0x2034 JUMP JUMPDEST STOP JUMPDEST CALLVALUE DUP1 ISZERO PUSH2 0x856 JUMPI PUSH1 0x0 DUP1 REVERT JUMPDEST POP PUSH2 0x899 PUSH1 0x4 DUP1 CALLDATASIZE SUB PUSH1 0x20 DUP2 LT ISZERO PUSH2 0x86D JUMPI PUSH1 0x0 DUP1 REVERT JUMPDEST DUP2 ADD SWAP1 DUP1 DUP1 CALLDATALOAD PUSH20 0xFFFFFFFFFFFFFFFFFFFFFFFFFFFFFFFFFFFFFFFF AND SWAP1 PUSH1 0x20 ADD SWAP1 SWAP3 SWAP2 SWAP1 POP POP POP PUSH2 0x225A JUMP JUMPDEST PUSH1 0x40 MLOAD DUP1 DUP3 ISZERO ISZERO ISZERO ISZERO DUP2 MSTORE PUSH1 0x20 ADD SWAP2 POP POP PUSH1 0x40 MLOAD DUP1 SWAP2 SUB SWAP1 RETURN JUMPDEST CALLVALUE DUP1 ISZERO PUSH2 0x8BF JUMPI PUSH1 0x0 DUP1 REVERT JUMPDEST POP PUSH2 0x902 PUSH1 0x4 DUP1 CALLDATASIZE SUB PUSH1 0x20 DUP2 LT ISZERO PUSH2 0x8D6 JUMPI PUSH1 0x0 DUP1 REVERT JUMPDEST DUP2 ADD SWAP1 DUP1 DUP1 CALLDATALOAD PUSH20 0xFFFFFFFFFFFFFFFFFFFFFFFFFFFFFFFFFFFFFFFF AND SWAP1 PUSH1 0x20 ADD SWAP1 SWAP3 SWAP2 SWAP1 POP POP POP PUSH2 0x227A JUMP JUMPDEST STOP JUMPDEST CALLVALUE DUP1 ISZERO PUSH2 0x910 JUMPI PUSH1 0x0 DUP1 REVERT JUMPDEST POP PUSH2 0x93D PUSH1 0x4 DUP1 CALLDATASIZE SUB PUSH1 0x20 DUP2 LT ISZERO PUSH2 0x927 JUMPI PUSH1 0x0 DUP1 REVERT JUMPDEST DUP2 ADD SWAP1 DUP1 DUP1 CALLDATALOAD SWAP1 PUSH1 0x20 ADD SWAP1 SWAP3 SWAP2 SWAP1 POP POP POP PUSH2 0x2487 JUMP JUMPDEST STOP JUMPDEST PUSH1 0x0 PUSH2 0x968 DUP3 PUSH2 0x95A PUSH1 0x14 SLOAD DUP6 PUSH2 0x255C SWAP1 SWAP2 SWAP1 PUSH4 0xFFFFFFFF AND JUMP JUMPDEST PUSH2 0x25E2 SWAP1 SWAP2 SWAP1 PUSH4 0xFFFFFFFF AND JUMP JUMPDEST PUSH2 0x97D PUSH1 0x11 SLOAD SELFBALANCE PUSH2 0x266A SWAP1 SWAP2 SWAP1 PUSH4 0xFFFFFFFF AND JUMP JUMPDEST LT ISZERO SWAP1 POP SWAP2 SWAP1 POP JUMP JUMPDEST PUSH1 0x17 PUSH1 0x20 MSTORE DUP1 PUSH1 0x0 MSTORE PUSH1 0x40 PUSH1 0x0 KECCAK256 PUSH1 0x0 SWAP2 POP SWAP1 POP DUP1 PUSH1 0x0 ADD SLOAD SWAP1 DUP1 PUSH1 0x1 ADD PUSH1 0x0 SWAP1 SLOAD SWAP1 PUSH2 0x100 EXP SWAP1 DIV PUSH20 0xFFFFFFFFFFFFFFFFFFFFFFFFFFFFFFFFFFFFFFFF AND SWAP1 DUP1 PUSH1 0x2 ADD SLOAD SWAP1 DUP1 PUSH1 0x3 ADD SLOAD SWAP1 DUP1 PUSH1 0x4 ADD SLOAD SWAP1 DUP1 PUSH1 0x5 ADD PUSH1 0x0 SWAP1 SLOAD SWAP1 PUSH2 0x100 EXP SWAP1 DIV PUSH1 0xFF AND SWAP1 POP DUP7 JUMP JUMPDEST PUSH1 0x2 PUSH1 0x0 SWAP1 SLOAD SWAP1 PUSH2 0x100 EXP SWAP1 DIV PUSH20 0xFFFFFFFFFFFFFFFFFFFFFFFFFFFFFFFFFFFFFFFF AND DUP2 JUMP JUMPDEST PUSH1 0x2 PUSH1 0x0 SWAP1 SLOAD SWAP1 PUSH2 0x100 EXP SWAP1 DIV PUSH20 0xFFFFFFFFFFFFFFFFFFFFFFFFFFFFFFFFFFFFFFFF AND PUSH20 0xFFFFFFFFFFFFFFFFFFFFFFFFFFFFFFFFFFFFFFFF AND CALLER PUSH20 0xFFFFFFFFFFFFFFFFFFFFFFFFFFFFFFFFFFFFFFFF AND EQ PUSH2 0xA6F JUMPI PUSH1 0x0 DUP1 REVERT JUMPDEST PUSH1 0x0 PUSH1 0x17 PUSH1 0x0 PUSH1 0x18 PUSH1 0x0 DUP7 DUP2 MSTORE PUSH1 0x20 ADD SWAP1 DUP2 MSTORE PUSH1 0x20 ADD PUSH1 0x0 KECCAK256 SLOAD DUP2 MSTORE PUSH1 0x20 ADD SWAP1 DUP2 MSTORE PUSH1 0x20 ADD PUSH1 0x0 KECCAK256 SWAP1 POP PUSH1 0x0 DUP2 PUSH1 0x0 ADD SLOAD GT DUP1 ISZERO PUSH2 0xAC2 JUMPI POP PUSH1 0x0 ISZERO ISZERO DUP2 PUSH1 0x5 ADD PUSH1 0x0 SWAP1 SLOAD SWAP1 PUSH2 0x100 EXP SWAP1 DIV PUSH1 0xFF AND ISZERO ISZERO EQ JUMPDEST ISZERO PUSH2 0xD40 JUMPI PUSH1 0xF SLOAD DUP2 PUSH1 0x2 ADD SLOAD GT ISZERO PUSH2 0xAE1 JUMPI PUSH1 0xF SLOAD DUP2 PUSH1 0x2 ADD DUP2 SWAP1 SSTORE POP JUMPDEST PUSH1 0x0 PUSH2 0xB12 DUP3 PUSH1 0x2 ADD SLOAD PUSH2 0xB04 PUSH1 0x14 SLOAD DUP6 PUSH1 0x2 ADD SLOAD PUSH2 0x255C SWAP1 SWAP2 SWAP1 PUSH4 0xFFFFFFFF AND JUMP JUMPDEST PUSH2 0x25E2 SWAP1 SWAP2 SWAP1 PUSH4 0xFFFFFFFF AND JUMP JUMPDEST SWAP1 POP DUP1 SELFBALANCE LT ISZERO PUSH2 0xB8A JUMPI PUSH1 0x40 MLOAD PUSH32 0x8C379A000000000000000000000000000000000000000000000000000000000 DUP2 MSTORE PUSH1 0x4 ADD DUP1 DUP1 PUSH1 0x20 ADD DUP3 DUP2 SUB DUP3 MSTORE PUSH1 0x20 DUP2 MSTORE PUSH1 0x20 ADD DUP1 PUSH32 0x436F6E74726163742062616C616E636520746F6F206C6F7720746F20706C6179 DUP2 MSTORE POP PUSH1 0x20 ADD SWAP2 POP POP PUSH1 0x40 MLOAD DUP1 SWAP2 SUB SWAP1 REVERT JUMPDEST PUSH2 0xBB2 PUSH1 0x1 PUSH2 0xBA4 PUSH1 0xE SLOAD DUP7 PUSH2 0x26F3 SWAP1 SWAP2 SWAP1 PUSH4 0xFFFFFFFF AND JUMP JUMPDEST PUSH2 0x25E2 SWAP1 SWAP2 SWAP1 PUSH4 0xFFFFFFFF AND JUMP JUMPDEST DUP3 PUSH1 0x4 ADD DUP2 SWAP1 SSTORE POP PUSH1 0x1 DUP3 PUSH1 0x5 ADD PUSH1 0x0 PUSH2 0x100 EXP DUP2 SLOAD DUP2 PUSH1 0xFF MUL NOT AND SWAP1 DUP4 ISZERO ISZERO MUL OR SWAP1 SSTORE POP DUP2 PUSH1 0x2 ADD SLOAD PUSH1 0x11 SLOAD LT PUSH2 0xBFD JUMPI DUP2 PUSH1 0x2 ADD SLOAD PUSH1 0x11 PUSH1 0x0 DUP3 DUP3 SLOAD SUB SWAP3 POP POP DUP2 SWAP1 SSTORE POP PUSH2 0xC06 JUMP JUMPDEST PUSH1 0x0 PUSH1 0x11 DUP2 SWAP1 SSTORE POP JUMPDEST DUP2 PUSH1 0x4 ADD SLOAD DUP3 PUSH1 0x3 ADD SLOAD EQ ISZERO PUSH2 0xC86 JUMPI DUP2 PUSH1 0x1 ADD PUSH1 0x0 SWAP1 SLOAD SWAP1 PUSH2 0x100 EXP SWAP1 DIV PUSH20 0xFFFFFFFFFFFFFFFFFFFFFFFFFFFFFFFFFFFFFFFF AND PUSH20 0xFFFFFFFFFFFFFFFFFFFFFFFFFFFFFFFFFFFFFFFF AND PUSH2 0x8FC DUP3 SWAP1 DUP2 ISZERO MUL SWAP1 PUSH1 0x40 MLOAD PUSH1 0x0 PUSH1 0x40 MLOAD DUP1 DUP4 SUB DUP2 DUP6 DUP9 DUP9 CALL SWAP4 POP POP POP POP ISZERO DUP1 ISZERO PUSH2 0xC80 JUMPI RETURNDATASIZE PUSH1 0x0 DUP1 RETURNDATACOPY RETURNDATASIZE PUSH1 0x0 REVERT JUMPDEST POP PUSH2 0xC8B JUMP JUMPDEST PUSH1 0x0 SWAP1 POP JUMPDEST PUSH32 0xC06600D6399308F270BC6AE70D5377121B685C974BB7F7355824FDDD8A2B3497 DUP3 PUSH1 0x1 ADD PUSH1 0x0 SWAP1 SLOAD SWAP1 PUSH2 0x100 EXP SWAP1 DIV PUSH20 0xFFFFFFFFFFFFFFFFFFFFFFFFFFFFFFFFFFFFFFFF AND DUP4 PUSH1 0x2 ADD SLOAD DUP5 PUSH1 0x3 ADD SLOAD DUP6 PUSH1 0x4 ADD SLOAD DUP6 PUSH1 0x40 MLOAD DUP1 DUP7 PUSH20 0xFFFFFFFFFFFFFFFFFFFFFFFFFFFFFFFFFFFFFFFF AND PUSH20 0xFFFFFFFFFFFFFFFFFFFFFFFFFFFFFFFFFFFFFFFF AND DUP2 MSTORE PUSH1 0x20 ADD DUP6 DUP2 MSTORE PUSH1 0x20 ADD DUP5 DUP2 MSTORE PUSH1 0x20 ADD DUP4 DUP2 MSTORE PUSH1 0x20 ADD DUP3 DUP2 MSTORE PUSH1 0x20 ADD SWAP6 POP POP POP POP POP POP PUSH1 0x40 MLOAD DUP1 SWAP2 SUB SWAP1 LOG1 POP JUMPDEST PUSH1 0x1 PUSH1 0x3 DUP2 SWAP1 SSTORE POP PUSH1 0x1 PUSH1 0x4 DUP2 SWAP1 SSTORE POP PUSH1 0x1 PUSH1 0x5 DUP2 SWAP1 SSTORE POP PUSH1 0x1 PUSH1 0x6 DUP2 SWAP1 SSTORE POP PUSH1 0x1 PUSH1 0x7 DUP2 SWAP1 SSTORE POP PUSH1 0x1 PUSH1 0x8 DUP2 SWAP1 SSTORE POP PUSH1 0x1 PUSH1 0x9 DUP2 SWAP1 SSTORE POP PUSH1 0x1 PUSH1 0xA DUP2 SWAP1 SSTORE POP PUSH1 0x1 PUSH1 0xB DUP2 SWAP1 SSTORE POP PUSH1 0x1 PUSH1 0xC DUP2 SWAP1 SSTORE POP PUSH1 0x1 PUSH1 0xD DUP2 SWAP1 SSTORE POP POP POP POP JUMP JUMPDEST PUSH1 0xF SLOAD DUP2 JUMP JUMPDEST PUSH1 0xE SLOAD DUP2 JUMP JUMPDEST PUSH2 0xDB1 PUSH2 0x277D JUMP JUMPDEST PUSH20 0xFFFFFFFFFFFFFFFFFFFFFFFFFFFFFFFFFFFFFFFF AND PUSH1 0x0 DUP1 SWAP1 SLOAD SWAP1 PUSH2 0x100 EXP SWAP1 DIV PUSH20 0xFFFFFFFFFFFFFFFFFFFFFFFFFFFFFFFFFFFFFFFF AND PUSH20 0xFFFFFFFFFFFFFFFFFFFFFFFFFFFFFFFFFFFFFFFF AND EQ PUSH2 0xE72 JUMPI PUSH1 0x40 MLOAD PUSH32 0x8C379A000000000000000000000000000000000000000000000000000000000 DUP2 MSTORE PUSH1 0x4 ADD DUP1 DUP1 PUSH1 0x20 ADD DUP3 DUP2 SUB DUP3 MSTORE PUSH1 0x20 DUP2 MSTORE PUSH1 0x20 ADD DUP1 PUSH32 0x4F776E61626C653A2063616C6C6572206973206E6F7420746865206F776E6572 DUP2 MSTORE POP PUSH1 0x20 ADD SWAP2 POP POP PUSH1 0x40 MLOAD DUP1 SWAP2 SUB SWAP1 REVERT JUMPDEST DUP1 PUSH1 0x13 PUSH1 0x0 PUSH2 0x100 EXP DUP2 SLOAD DUP2 PUSH20 0xFFFFFFFFFFFFFFFFFFFFFFFFFFFFFFFFFFFFFFFF MUL NOT AND SWAP1 DUP4 PUSH20 0xFFFFFFFFFFFFFFFFFFFFFFFFFFFFFFFFFFFFFFFF AND MUL OR SWAP1 SSTORE POP POP JUMP JUMPDEST PUSH1 0x15 PUSH1 0x20 MSTORE DUP1 PUSH1 0x0 MSTORE PUSH1 0x40 PUSH1 0x0 KECCAK256 PUSH1 0x0 SWAP2 POP SLOAD SWAP1 PUSH2 0x100 EXP SWAP1 DIV PUSH1 0xFF AND DUP2 JUMP JUMPDEST PUSH1 0x0 DUP1 PUSH1 0x0 DUP1 PUSH1 0x10 SLOAD PUSH1 0xF SLOAD PUSH1 0x14 SLOAD PUSH1 0xE SLOAD SWAP4 POP SWAP4 POP SWAP4 POP SWAP4 POP SWAP1 SWAP2 SWAP3 SWAP4 JUMP JUMPDEST PUSH1 0x0 PUSH1 0x1 PUSH1 0x0 SWAP1 SLOAD SWAP1 PUSH2 0x100 EXP SWAP1 DIV PUSH20 0xFFFFFFFFFFFFFFFFFFFFFFFFFFFFFFFFFFFFFFFF AND PUSH20 0xFFFFFFFFFFFFFFFFFFFFFFFFFFFFFFFFFFFFFFFF AND PUSH4 0x70A08231 ADDRESS PUSH1 0x40 MLOAD DUP3 PUSH4 0xFFFFFFFF AND PUSH1 0xE0 SHL DUP2 MSTORE PUSH1 0x4 ADD DUP1 DUP3 PUSH20 0xFFFFFFFFFFFFFFFFFFFFFFFFFFFFFFFFFFFFFFFF AND PUSH20 0xFFFFFFFFFFFFFFFFFFFFFFFFFFFFFFFFFFFFFFFF AND DUP2 MSTORE PUSH1 0x20 ADD SWAP2 POP POP PUSH1 0x20 PUSH1 0x40 MLOAD DUP1 DUP4 SUB DUP2 DUP7 DUP1 EXTCODESIZE ISZERO DUP1 ISZERO PUSH2 0xF97 JUMPI PUSH1 0x0 DUP1 REVERT JUMPDEST POP GAS STATICCALL ISZERO DUP1 ISZERO PUSH2 0xFAB JUMPI RETURNDATASIZE PUSH1 0x0 DUP1 RETURNDATACOPY RETURNDATASIZE PUSH1 0x0 REVERT JUMPDEST POP POP POP POP PUSH1 0x40 MLOAD RETURNDATASIZE PUSH1 0x20 DUP2 LT ISZERO PUSH2 0xFC1 JUMPI PUSH1 0x0 DUP1 REVERT JUMPDEST DUP2 ADD SWAP1 DUP1 DUP1 MLOAD SWAP1 PUSH1 0x20 ADD SWAP1 SWAP3 SWAP2 SWAP1 POP POP POP SWAP1 POP SWAP1 JUMP JUMPDEST PUSH1 0x13 PUSH1 0x0 SWAP1 SLOAD SWAP1 PUSH2 0x100 EXP SWAP1 DIV PUSH20 0xFFFFFFFFFFFFFFFFFFFFFFFFFFFFFFFFFFFFFFFF AND DUP2 JUMP JUMPDEST PUSH1 0x14 SLOAD DUP2 JUMP JUMPDEST PUSH2 0x100B PUSH2 0x277D JUMP JUMPDEST PUSH20 0xFFFFFFFFFFFFFFFFFFFFFFFFFFFFFFFFFFFFFFFF AND PUSH1 0x0 DUP1 SWAP1 SLOAD SWAP1 PUSH2 0x100 EXP SWAP1 DIV PUSH20 0xFFFFFFFFFFFFFFFFFFFFFFFFFFFFFFFFFFFFFFFF AND PUSH20 0xFFFFFFFFFFFFFFFFFFFFFFFFFFFFFFFFFFFFFFFF AND EQ PUSH2 0x10CC JUMPI PUSH1 0x40 MLOAD PUSH32 0x8C379A000000000000000000000000000000000000000000000000000000000 DUP2 MSTORE PUSH1 0x4 ADD DUP1 DUP1 PUSH1 0x20 ADD DUP3 DUP2 SUB DUP3 MSTORE PUSH1 0x20 DUP2 MSTORE PUSH1 0x20 ADD DUP1 PUSH32 0x4F776E61626C653A2063616C6C6572206973206E6F7420746865206F776E6572 DUP2 MSTORE POP PUSH1 0x20 ADD SWAP2 POP POP PUSH1 0x40 MLOAD DUP1 SWAP2 SUB SWAP1 REVERT JUMPDEST PUSH1 0x0 PUSH20 0xFFFFFFFFFFFFFFFFFFFFFFFFFFFFFFFFFFFFFFFF AND PUSH1 0x0 DUP1 SWAP1 SLOAD SWAP1 PUSH2 0x100 EXP SWAP1 DIV PUSH20 0xFFFFFFFFFFFFFFFFFFFFFFFFFFFFFFFFFFFFFFFF AND PUSH20 0xFFFFFFFFFFFFFFFFFFFFFFFFFFFFFFFFFFFFFFFF AND PUSH32 0x8BE0079C531659141344CD1FD0A4F28419497F9722A3DAAFE3B4186F6B6457E0 PUSH1 0x40 MLOAD PUSH1 0x40 MLOAD DUP1 SWAP2 SUB SWAP1 LOG3 PUSH1 0x0 DUP1 PUSH1 0x0 PUSH2 0x100 EXP DUP2 SLOAD DUP2 PUSH20 0xFFFFFFFFFFFFFFFFFFFFFFFFFFFFFFFFFFFFFFFF MUL NOT AND SWAP1 DUP4 PUSH20 0xFFFFFFFFFFFFFFFFFFFFFFFFFFFFFFFFFFFFFFFF AND MUL OR SWAP1 SSTORE POP JUMP JUMPDEST CALLER PUSH20 0xFFFFFFFFFFFFFFFFFFFFFFFFFFFFFFFFFFFFFFFF AND PUSH2 0x11AA PUSH2 0x1391 JUMP JUMPDEST PUSH20 0xFFFFFFFFFFFFFFFFFFFFFFFFFFFFFFFFFFFFFFFF AND EQ DUP1 PUSH2 0x1215 JUMPI POP PUSH1 0x15 PUSH1 0x0 CALLER PUSH20 0xFFFFFFFFFFFFFFFFFFFFFFFFFFFFFFFFFFFFFFFF AND PUSH20 0xFFFFFFFFFFFFFFFFFFFFFFFFFFFFFFFFFFFFFFFF AND DUP2 MSTORE PUSH1 0x20 ADD SWAP1 DUP2 MSTORE PUSH1 0x20 ADD PUSH1 0x0 KECCAK256 PUSH1 0x0 SWAP1 SLOAD SWAP1 PUSH2 0x100 EXP SWAP1 DIV PUSH1 0xFF AND JUMPDEST PUSH2 0x1287 JUMPI PUSH1 0x40 MLOAD PUSH32 0x8C379A000000000000000000000000000000000000000000000000000000000 DUP2 MSTORE PUSH1 0x4 ADD DUP1 DUP1 PUSH1 0x20 ADD DUP3 DUP2 SUB DUP3 MSTORE PUSH1 0x18 DUP2 MSTORE PUSH1 0x20 ADD DUP1 PUSH32 0x63616C6C6572206973206E6F7420617574686F72697A65640000000000000000 DUP2 MSTORE POP PUSH1 0x20 ADD SWAP2 POP POP PUSH1 0x40 MLOAD DUP1 SWAP2 SUB SWAP1 REVERT JUMPDEST PUSH1 0x1 PUSH1 0x0 SWAP1 SLOAD SWAP1 PUSH2 0x100 EXP SWAP1 DIV PUSH20 0xFFFFFFFFFFFFFFFFFFFFFFFFFFFFFFFFFFFFFFFF AND PUSH20 0xFFFFFFFFFFFFFFFFFFFFFFFFFFFFFFFFFFFFFFFF AND PUSH4 0xA9059CBB PUSH1 0x13 PUSH1 0x0 SWAP1 SLOAD SWAP1 PUSH2 0x100 EXP SWAP1 DIV PUSH20 0xFFFFFFFFFFFFFFFFFFFFFFFFFFFFFFFFFFFFFFFF AND DUP4 PUSH1 0x40 MLOAD DUP4 PUSH4 0xFFFFFFFF AND PUSH1 0xE0 SHL DUP2 MSTORE PUSH1 0x4 ADD DUP1 DUP4 PUSH20 0xFFFFFFFFFFFFFFFFFFFFFFFFFFFFFFFFFFFFFFFF AND PUSH20 0xFFFFFFFFFFFFFFFFFFFFFFFFFFFFFFFFFFFFFFFF AND DUP2 MSTORE PUSH1 0x20 ADD DUP3 DUP2 MSTORE PUSH1 0x20 ADD SWAP3 POP POP POP PUSH1 0x20 PUSH1 0x40 MLOAD DUP1 DUP4 SUB DUP2 PUSH1 0x0 DUP8 DUP1 EXTCODESIZE ISZERO DUP1 ISZERO PUSH2 0x1352 JUMPI PUSH1 0x0 DUP1 REVERT JUMPDEST POP GAS CALL ISZERO DUP1 ISZERO PUSH2 0x1366 JUMPI RETURNDATASIZE PUSH1 0x0 DUP1 RETURNDATACOPY RETURNDATASIZE PUSH1 0x0 REVERT JUMPDEST POP POP POP POP PUSH1 0x40 MLOAD RETURNDATASIZE PUSH1 0x20 DUP2 LT ISZERO PUSH2 0x137C JUMPI PUSH1 0x0 DUP1 REVERT JUMPDEST DUP2 ADD SWAP1 DUP1 DUP1 MLOAD SWAP1 PUSH1 0x20 ADD SWAP1 SWAP3 SWAP2 SWAP1 POP POP POP POP POP JUMP JUMPDEST PUSH1 0x0 DUP1 PUSH1 0x0 SWAP1 SLOAD SWAP1 PUSH2 0x100 EXP SWAP1 DIV PUSH20 0xFFFFFFFFFFFFFFFFFFFFFFFFFFFFFFFFFFFFFFFF AND SWAP1 POP SWAP1 JUMP JUMPDEST PUSH1 0x10 SLOAD DUP2 JUMP JUMPDEST PUSH2 0x13C8 PUSH2 0x277D JUMP JUMPDEST PUSH20 0xFFFFFFFFFFFFFFFFFFFFFFFFFFFFFFFFFFFFFFFF AND PUSH1 0x0 DUP1 SWAP1 SLOAD SWAP1 PUSH2 0x100 EXP SWAP1 DIV PUSH20 0xFFFFFFFFFFFFFFFFFFFFFFFFFFFFFFFFFFFFFFFF AND PUSH20 0xFFFFFFFFFFFFFFFFFFFFFFFFFFFFFFFFFFFFFFFF AND EQ PUSH2 0x1489 JUMPI PUSH1 0x40 MLOAD PUSH32 0x8C379A000000000000000000000000000000000000000000000000000000000 DUP2 MSTORE PUSH1 0x4 ADD DUP1 DUP1 PUSH1 0x20 ADD DUP3 DUP2 SUB DUP3 MSTORE PUSH1 0x20 DUP2 MSTORE PUSH1 0x20 ADD DUP1 PUSH32 0x4F776E61626C653A2063616C6C6572206973206E6F7420746865206F776E6572 DUP2 MSTORE POP PUSH1 0x20 ADD SWAP2 POP POP PUSH1 0x40 MLOAD DUP1 SWAP2 SUB SWAP1 REVERT JUMPDEST DUP1 PUSH1 0x1 PUSH1 0x0 PUSH2 0x100 EXP DUP2 SLOAD DUP2 PUSH20 0xFFFFFFFFFFFFFFFFFFFFFFFFFFFFFFFFFFFFFFFF MUL NOT AND SWAP1 DUP4 PUSH20 0xFFFFFFFFFFFFFFFFFFFFFFFFFFFFFFFFFFFFFFFF AND MUL OR SWAP1 SSTORE POP POP JUMP JUMPDEST PUSH2 0x14D5 PUSH2 0x277D JUMP JUMPDEST PUSH20 0xFFFFFFFFFFFFFFFFFFFFFFFFFFFFFFFFFFFFFFFF AND PUSH1 0x0 DUP1 SWAP1 SLOAD SWAP1 PUSH2 0x100 EXP SWAP1 DIV PUSH20 0xFFFFFFFFFFFFFFFFFFFFFFFFFFFFFFFFFFFFFFFF AND PUSH20 0xFFFFFFFFFFFFFFFFFFFFFFFFFFFFFFFFFFFFFFFF AND EQ PUSH2 0x1596 JUMPI PUSH1 0x40 MLOAD PUSH32 0x8C379A000000000000000000000000000000000000000000000000000000000 DUP2 MSTORE PUSH1 0x4 ADD DUP1 DUP1 PUSH1 0x20 ADD DUP3 DUP2 SUB DUP3 MSTORE PUSH1 0x20 DUP2 MSTORE PUSH1 0x20 ADD DUP1 PUSH32 0x4F776E61626C653A2063616C6C6572206973206E6F7420746865206F776E6572 DUP2 MSTORE POP PUSH1 0x20 ADD SWAP2 POP POP PUSH1 0x40 MLOAD DUP1 SWAP2 SUB SWAP1 REVERT JUMPDEST DUP1 PUSH1 0x15 PUSH1 0x0 DUP5 PUSH20 0xFFFFFFFFFFFFFFFFFFFFFFFFFFFFFFFFFFFFFFFF AND PUSH20 0xFFFFFFFFFFFFFFFFFFFFFFFFFFFFFFFFFFFFFFFF AND DUP2 MSTORE PUSH1 0x20 ADD SWAP1 DUP2 MSTORE PUSH1 0x20 ADD PUSH1 0x0 KECCAK256 PUSH1 0x0 PUSH2 0x100 EXP DUP2 SLOAD DUP2 PUSH1 0xFF MUL NOT AND SWAP1 DUP4 ISZERO ISZERO MUL OR SWAP1 SSTORE POP POP POP JUMP JUMPDEST PUSH1 0x0 PUSH1 0x17 PUSH1 0x0 DUP4 DUP2 MSTORE PUSH1 0x20 ADD SWAP1 DUP2 MSTORE PUSH1 0x20 ADD PUSH1 0x0 KECCAK256 SWAP1 POP PUSH1 0x15 PUSH1 0x0 CALLER PUSH20 0xFFFFFFFFFFFFFFFFFFFFFFFFFFFFFFFFFFFFFFFF AND PUSH20 0xFFFFFFFFFFFFFFFFFFFFFFFFFFFFFFFFFFFFFFFF AND DUP2 MSTORE PUSH1 0x20 ADD SWAP1 DUP2 MSTORE PUSH1 0x20 ADD PUSH1 0x0 KECCAK256 PUSH1 0x0 SWAP1 SLOAD SWAP1 PUSH2 0x100 EXP SWAP1 DIV PUSH1 0xFF AND DUP1 PUSH2 0x1692 JUMPI POP CALLER PUSH20 0xFFFFFFFFFFFFFFFFFFFFFFFFFFFFFFFFFFFFFFFF AND PUSH2 0x167A PUSH2 0x1391 JUMP JUMPDEST PUSH20 0xFFFFFFFFFFFFFFFFFFFFFFFFFFFFFFFFFFFFFFFF AND EQ JUMPDEST DUP1 PUSH2 0x16EC JUMPI POP CALLER PUSH20 0xFFFFFFFFFFFFFFFFFFFFFFFFFFFFFFFFFFFFFFFF AND DUP2 PUSH1 0x1 ADD PUSH1 0x0 SWAP1 SLOAD SWAP1 PUSH2 0x100 EXP SWAP1 DIV PUSH20 0xFFFFFFFFFFFFFFFFFFFFFFFFFFFFFFFFFFFFFFFF AND PUSH20 0xFFFFFFFFFFFFFFFFFFFFFFFFFFFFFFFFFFFFFFFF AND EQ JUMPDEST PUSH2 0x175E JUMPI PUSH1 0x40 MLOAD PUSH32 0x8C379A000000000000000000000000000000000000000000000000000000000 DUP2 MSTORE PUSH1 0x4 ADD DUP1 DUP1 PUSH1 0x20 ADD DUP3 DUP2 SUB DUP3 MSTORE PUSH1 0x20 DUP2 MSTORE PUSH1 0x20 ADD DUP1 PUSH32 0x4E6F7420617574686F72697A656420746F207265717565737420726566756E64 DUP2 MSTORE POP PUSH1 0x20 ADD SWAP2 POP POP PUSH1 0x40 MLOAD DUP1 SWAP2 SUB SWAP1 REVERT JUMPDEST PUSH1 0x0 ISZERO ISZERO DUP2 PUSH1 0x5 ADD PUSH1 0x0 SWAP1 SLOAD SWAP1 PUSH2 0x100 EXP SWAP1 DIV PUSH1 0xFF AND ISZERO ISZERO EQ PUSH2 0x17CC JUMPI PUSH1 0x40 MLOAD PUSH32 0x8C379A000000000000000000000000000000000000000000000000000000000 DUP2 MSTORE PUSH1 0x4 ADD DUP1 DUP1 PUSH1 0x20 ADD DUP3 DUP2 SUB DUP3 MSTORE PUSH1 0x2A DUP2 MSTORE PUSH1 0x20 ADD DUP1 PUSH2 0x2B45 PUSH1 0x2A SWAP2 CODECOPY PUSH1 0x40 ADD SWAP2 POP POP PUSH1 0x40 MLOAD DUP1 SWAP2 SUB SWAP1 REVERT JUMPDEST DUP1 PUSH1 0x2 ADD SLOAD SELFBALANCE LT ISZERO PUSH2 0x1829 JUMPI PUSH1 0x40 MLOAD PUSH32 0x8C379A000000000000000000000000000000000000000000000000000000000 DUP2 MSTORE PUSH1 0x4 ADD DUP1 DUP1 PUSH1 0x20 ADD DUP3 DUP2 SUB DUP3 MSTORE PUSH1 0x31 DUP2 MSTORE PUSH1 0x20 ADD DUP1 PUSH2 0x2B14 PUSH1 0x31 SWAP2 CODECOPY PUSH1 0x40 ADD SWAP2 POP POP PUSH1 0x40 MLOAD DUP1 SWAP2 SUB SWAP1 REVERT JUMPDEST PUSH1 0x1 DUP2 PUSH1 0x5 ADD PUSH1 0x0 PUSH2 0x100 EXP DUP2 SLOAD DUP2 PUSH1 0xFF MUL NOT AND SWAP1 DUP4 ISZERO ISZERO MUL OR SWAP1 SSTORE POP DUP1 PUSH1 0x2 ADD SLOAD PUSH1 0x11 SLOAD LT PUSH2 0x186C JUMPI DUP1 PUSH1 0x2 ADD SLOAD PUSH1 0x11 PUSH1 0x0 DUP3 DUP3 SLOAD SUB SWAP3 POP POP DUP2 SWAP1 SSTORE POP PUSH2 0x1875 JUMP JUMPDEST PUSH1 0x0 PUSH1 0x11 DUP2 SWAP1 SSTORE POP JUMPDEST DUP1 PUSH1 0x1 ADD PUSH1 0x0 SWAP1 SLOAD SWAP1 PUSH2 0x100 EXP SWAP1 DIV PUSH20 0xFFFFFFFFFFFFFFFFFFFFFFFFFFFFFFFFFFFFFFFF AND PUSH20 0xFFFFFFFFFFFFFFFFFFFFFFFFFFFFFFFFFFFFFFFF AND PUSH2 0x8FC DUP3 PUSH1 0x2 ADD SLOAD SWAP1 DUP2 ISZERO MUL SWAP1 PUSH1 0x40 MLOAD PUSH1 0x0 PUSH1 0x40 MLOAD DUP1 DUP4 SUB DUP2 DUP6 DUP9 DUP9 CALL SWAP4 POP POP POP POP ISZERO DUP1 ISZERO PUSH2 0x18E3 JUMPI RETURNDATASIZE PUSH1 0x0 DUP1 RETURNDATACOPY RETURNDATASIZE PUSH1 0x0 REVERT JUMPDEST POP POP POP JUMP JUMPDEST PUSH1 0x10 SLOAD CALLVALUE LT ISZERO PUSH2 0x1960 JUMPI PUSH1 0x40 MLOAD PUSH32 0x8C379A000000000000000000000000000000000000000000000000000000000 DUP2 MSTORE PUSH1 0x4 ADD DUP1 DUP1 PUSH1 0x20 ADD DUP3 DUP2 SUB DUP3 MSTORE PUSH1 0x13 DUP2 MSTORE PUSH1 0x20 ADD DUP1 PUSH32 0x6D696E696D756D20626574206E6F74206D657400000000000000000000000000 DUP2 MSTORE POP PUSH1 0x20 ADD SWAP2 POP POP PUSH1 0x40 MLOAD DUP1 SWAP2 SUB SWAP1 REVERT JUMPDEST PUSH1 0x1 PUSH1 0x3 SLOAD EQ ISZERO PUSH2 0x19AE JUMPI PUSH1 0x3 PUSH1 0x0 SWAP1 SSTORE PUSH1 0x4 PUSH1 0x0 SWAP1 SSTORE PUSH1 0x5 PUSH1 0x0 SWAP1 SSTORE PUSH1 0x6 PUSH1 0x0 SWAP1 SSTORE PUSH1 0x7 PUSH1 0x0 SWAP1 SSTORE PUSH1 0x8 PUSH1 0x0 SWAP1 SSTORE PUSH1 0x9 PUSH1 0x0 SWAP1 SSTORE PUSH1 0xA PUSH1 0x0 SWAP1 SSTORE PUSH1 0xB PUSH1 0x0 SWAP1 SSTORE PUSH1 0xC PUSH1 0x0 SWAP1 SSTORE PUSH1 0xD PUSH1 0x0 SWAP1 SSTORE JUMPDEST PUSH2 0x19C3 CALLVALUE PUSH1 0x11 SLOAD PUSH2 0x25E2 SWAP1 SWAP2 SWAP1 PUSH4 0xFFFFFFFF AND JUMP JUMPDEST PUSH1 0x11 DUP2 SWAP1 SSTORE POP PUSH2 0x19D4 DUP3 CALLVALUE DUP4 PUSH2 0x2785 JUMP JUMPDEST PUSH2 0x19DF PUSH1 0x12 SLOAD PUSH2 0x28A4 JUMP JUMPDEST PUSH1 0x12 SLOAD PUSH1 0x19 PUSH1 0x0 DUP5 PUSH20 0xFFFFFFFFFFFFFFFFFFFFFFFFFFFFFFFFFFFFFFFF AND PUSH20 0xFFFFFFFFFFFFFFFFFFFFFFFFFFFFFFFFFFFFFFFF AND DUP2 MSTORE PUSH1 0x20 ADD SWAP1 DUP2 MSTORE PUSH1 0x20 ADD PUSH1 0x0 KECCAK256 DUP2 SWAP1 SSTORE POP POP POP JUMP JUMPDEST PUSH1 0x19 PUSH1 0x20 MSTORE DUP1 PUSH1 0x0 MSTORE PUSH1 0x40 PUSH1 0x0 KECCAK256 PUSH1 0x0 SWAP2 POP SWAP1 POP SLOAD DUP2 JUMP JUMPDEST PUSH2 0x1A49 PUSH2 0x277D JUMP JUMPDEST PUSH20 0xFFFFFFFFFFFFFFFFFFFFFFFFFFFFFFFFFFFFFFFF AND PUSH1 0x0 DUP1 SWAP1 SLOAD SWAP1 PUSH2 0x100 EXP SWAP1 DIV PUSH20 0xFFFFFFFFFFFFFFFFFFFFFFFFFFFFFFFFFFFFFFFF AND PUSH20 0xFFFFFFFFFFFFFFFFFFFFFFFFFFFFFFFFFFFFFFFF AND EQ PUSH2 0x1B0A JUMPI PUSH1 0x40 MLOAD PUSH32 0x8C379A000000000000000000000000000000000000000000000000000000000 DUP2 MSTORE PUSH1 0x4 ADD DUP1 DUP1 PUSH1 0x20 ADD DUP3 DUP2 SUB DUP3 MSTORE PUSH1 0x20 DUP2 MSTORE PUSH1 0x20 ADD DUP1 PUSH32 0x4F776E61626C653A2063616C6C6572206973206E6F7420746865206F776E6572 DUP2 MSTORE POP PUSH1 0x20 ADD SWAP2 POP POP PUSH1 0x40 MLOAD DUP1 SWAP2 SUB SWAP1 REVERT JUMPDEST PUSH1 0x0 PUSH2 0x1B21 PUSH1 0x11 SLOAD SELFBALANCE PUSH2 0x266A SWAP1 SWAP2 SWAP1 PUSH4 0xFFFFFFFF AND JUMP JUMPDEST SWAP1 POP PUSH1 0x13 PUSH1 0x0 SWAP1 SLOAD SWAP1 PUSH2 0x100 EXP SWAP1 DIV PUSH20 0xFFFFFFFFFFFFFFFFFFFFFFFFFFFFFFFFFFFFFFFF AND PUSH20 0xFFFFFFFFFFFFFFFFFFFFFFFFFFFFFFFFFFFFFFFF AND PUSH2 0x8FC DUP3 SWAP1 DUP2 ISZERO MUL SWAP1 PUSH1 0x40 MLOAD PUSH1 0x0 PUSH1 0x40 MLOAD DUP1 DUP4 SUB DUP2 DUP6 DUP9 DUP9 CALL SWAP4 POP POP POP POP ISZERO DUP1 ISZERO PUSH2 0x1B8B JUMPI RETURNDATASIZE PUSH1 0x0 DUP1 RETURNDATACOPY RETURNDATASIZE PUSH1 0x0 REVERT JUMPDEST POP PUSH1 0x0 PUSH1 0x1 PUSH1 0x0 SWAP1 SLOAD SWAP1 PUSH2 0x100 EXP SWAP1 DIV PUSH20 0xFFFFFFFFFFFFFFFFFFFFFFFFFFFFFFFFFFFFFFFF AND PUSH20 0xFFFFFFFFFFFFFFFFFFFFFFFFFFFFFFFFFFFFFFFF AND PUSH4 0x70A08231 ADDRESS PUSH1 0x40 MLOAD DUP3 PUSH4 0xFFFFFFFF AND PUSH1 0xE0 SHL DUP2 MSTORE PUSH1 0x4 ADD DUP1 DUP3 PUSH20 0xFFFFFFFFFFFFFFFFFFFFFFFFFFFFFFFFFFFFFFFF AND PUSH20 0xFFFFFFFFFFFFFFFFFFFFFFFFFFFFFFFFFFFFFFFF AND DUP2 MSTORE PUSH1 0x20 ADD SWAP2 POP POP PUSH1 0x20 PUSH1 0x40 MLOAD DUP1 DUP4 SUB DUP2 DUP7 DUP1 EXTCODESIZE ISZERO DUP1 ISZERO PUSH2 0x1C2D JUMPI PUSH1 0x0 DUP1 REVERT JUMPDEST POP GAS STATICCALL ISZERO DUP1 ISZERO PUSH2 0x1C41 JUMPI RETURNDATASIZE PUSH1 0x0 DUP1 RETURNDATACOPY RETURNDATASIZE PUSH1 0x0 REVERT JUMPDEST POP POP POP POP PUSH1 0x40 MLOAD RETURNDATASIZE PUSH1 0x20 DUP2 LT ISZERO PUSH2 0x1C57 JUMPI PUSH1 0x0 DUP1 REVERT JUMPDEST DUP2 ADD SWAP1 DUP1 DUP1 MLOAD SWAP1 PUSH1 0x20 ADD SWAP1 SWAP3 SWAP2 SWAP1 POP POP POP GT ISZERO PUSH2 0x1E4F JUMPI PUSH1 0x1 PUSH1 0x0 SWAP1 SLOAD SWAP1 PUSH2 0x100 EXP SWAP1 DIV PUSH20 0xFFFFFFFFFFFFFFFFFFFFFFFFFFFFFFFFFFFFFFFF AND PUSH20 0xFFFFFFFFFFFFFFFFFFFFFFFFFFFFFFFFFFFFFFFF AND PUSH4 0xA9059CBB PUSH1 0x13 PUSH1 0x0 SWAP1 SLOAD SWAP1 PUSH2 0x100 EXP SWAP1 DIV PUSH20 0xFFFFFFFFFFFFFFFFFFFFFFFFFFFFFFFFFFFFFFFF AND PUSH1 0x1 PUSH1 0x0 SWAP1 SLOAD SWAP1 PUSH2 0x100 EXP SWAP1 DIV PUSH20 0xFFFFFFFFFFFFFFFFFFFFFFFFFFFFFFFFFFFFFFFF AND PUSH20 0xFFFFFFFFFFFFFFFFFFFFFFFFFFFFFFFFFFFFFFFF AND PUSH4 0x70A08231 ADDRESS PUSH1 0x40 MLOAD DUP3 PUSH4 0xFFFFFFFF AND PUSH1 0xE0 SHL DUP2 MSTORE PUSH1 0x4 ADD DUP1 DUP3 PUSH20 0xFFFFFFFFFFFFFFFFFFFFFFFFFFFFFFFFFFFFFFFF AND PUSH20 0xFFFFFFFFFFFFFFFFFFFFFFFFFFFFFFFFFFFFFFFF AND DUP2 MSTORE PUSH1 0x20 ADD SWAP2 POP POP PUSH1 0x20 PUSH1 0x40 MLOAD DUP1 DUP4 SUB DUP2 DUP7 DUP1 EXTCODESIZE ISZERO DUP1 ISZERO PUSH2 0x1D6E JUMPI PUSH1 0x0 DUP1 REVERT JUMPDEST POP GAS STATICCALL ISZERO DUP1 ISZERO PUSH2 0x1D82 JUMPI RETURNDATASIZE PUSH1 0x0 DUP1 RETURNDATACOPY RETURNDATASIZE PUSH1 0x0 REVERT JUMPDEST POP POP POP POP PUSH1 0x40 MLOAD RETURNDATASIZE PUSH1 0x20 DUP2 LT ISZERO PUSH2 0x1D98 JUMPI PUSH1 0x0 DUP1 REVERT JUMPDEST DUP2 ADD SWAP1 DUP1 DUP1 MLOAD SWAP1 PUSH1 0x20 ADD SWAP1 SWAP3 SWAP2 SWAP1 POP POP POP PUSH1 0x40 MLOAD DUP4 PUSH4 0xFFFFFFFF AND PUSH1 0xE0 SHL DUP2 MSTORE PUSH1 0x4 ADD DUP1 DUP4 PUSH20 0xFFFFFFFFFFFFFFFFFFFFFFFFFFFFFFFFFFFFFFFF AND PUSH20 0xFFFFFFFFFFFFFFFFFFFFFFFFFFFFFFFFFFFFFFFF AND DUP2 MSTORE PUSH1 0x20 ADD DUP3 DUP2 MSTORE PUSH1 0x20 ADD SWAP3 POP POP POP PUSH1 0x20 PUSH1 0x40 MLOAD DUP1 DUP4 SUB DUP2 PUSH1 0x0 DUP8 DUP1 EXTCODESIZE ISZERO DUP1 ISZERO PUSH2 0x1E12 JUMPI PUSH1 0x0 DUP1 REVERT JUMPDEST POP GAS CALL ISZERO DUP1 ISZERO PUSH2 0x1E26 JUMPI RETURNDATASIZE PUSH1 0x0 DUP1 RETURNDATACOPY RETURNDATASIZE PUSH1 0x0 REVERT JUMPDEST POP POP POP POP PUSH1 0x40 MLOAD RETURNDATASIZE PUSH1 0x20 DUP2 LT ISZERO PUSH2 0x1E3C JUMPI PUSH1 0x0 DUP1 REVERT JUMPDEST DUP2 ADD SWAP1 DUP1 DUP1 MLOAD SWAP1 PUSH1 0x20 ADD SWAP1 SWAP3 SWAP2 SWAP1 POP POP POP POP JUMPDEST POP JUMP JUMPDEST CALLER PUSH20 0xFFFFFFFFFFFFFFFFFFFFFFFFFFFFFFFFFFFFFFFF AND PUSH2 0x1E71 PUSH2 0x1391 JUMP JUMPDEST PUSH20 0xFFFFFFFFFFFFFFFFFFFFFFFFFFFFFFFFFFFFFFFF AND EQ DUP1 PUSH2 0x1EDC JUMPI POP PUSH1 0x15 PUSH1 0x0 CALLER PUSH20 0xFFFFFFFFFFFFFFFFFFFFFFFFFFFFFFFFFFFFFFFF AND PUSH20 0xFFFFFFFFFFFFFFFFFFFFFFFFFFFFFFFFFFFFFFFF AND DUP2 MSTORE PUSH1 0x20 ADD SWAP1 DUP2 MSTORE PUSH1 0x20 ADD PUSH1 0x0 KECCAK256 PUSH1 0x0 SWAP1 SLOAD SWAP1 PUSH2 0x100 EXP SWAP1 DIV PUSH1 0xFF AND JUMPDEST PUSH2 0x1F4E JUMPI PUSH1 0x40 MLOAD PUSH32 0x8C379A000000000000000000000000000000000000000000000000000000000 DUP2 MSTORE PUSH1 0x4 ADD DUP1 DUP1 PUSH1 0x20 ADD DUP3 DUP2 SUB DUP3 MSTORE PUSH1 0x18 DUP2 MSTORE PUSH1 0x20 ADD DUP1 PUSH32 0x63616C6C6572206973206E6F7420617574686F72697A65640000000000000000 DUP2 MSTORE POP PUSH1 0x20 ADD SWAP2 POP POP PUSH1 0x40 MLOAD DUP1 SWAP2 SUB SWAP1 REVERT JUMPDEST PUSH1 0x11 SLOAD DUP2 SELFBALANCE SUB LT ISZERO PUSH2 0x1FC8 JUMPI PUSH1 0x40 MLOAD PUSH32 0x8C379A000000000000000000000000000000000000000000000000000000000 DUP2 MSTORE PUSH1 0x4 ADD DUP1 DUP1 PUSH1 0x20 ADD DUP3 DUP2 SUB DUP3 MSTORE PUSH1 0x1C DUP2 MSTORE PUSH1 0x20 ADD DUP1 PUSH32 0x43616E277420776974686472617720756E706C61796564206265747300000000 DUP2 MSTORE POP PUSH1 0x20 ADD SWAP2 POP POP PUSH1 0x40 MLOAD DUP1 SWAP2 SUB SWAP1 REVERT JUMPDEST PUSH1 0x13 PUSH1 0x0 SWAP1 SLOAD SWAP1 PUSH2 0x100 EXP SWAP1 DIV PUSH20 0xFFFFFFFFFFFFFFFFFFFFFFFFFFFFFFFFFFFFFFFF AND PUSH20 0xFFFFFFFFFFFFFFFFFFFFFFFFFFFFFFFFFFFFFFFF AND PUSH2 0x8FC DUP3 SWAP1 DUP2 ISZERO MUL SWAP1 PUSH1 0x40 MLOAD PUSH1 0x0 PUSH1 0x40 MLOAD DUP1 DUP4 SUB DUP2 DUP6 DUP9 DUP9 CALL SWAP4 POP POP POP POP ISZERO DUP1 ISZERO PUSH2 0x2030 JUMPI RETURNDATASIZE PUSH1 0x0 DUP1 RETURNDATACOPY RETURNDATASIZE PUSH1 0x0 REVERT JUMPDEST POP POP JUMP JUMPDEST PUSH2 0x203D CALLVALUE PUSH2 0x93F JUMP JUMPDEST PUSH2 0x2092 JUMPI PUSH1 0x40 MLOAD PUSH32 0x8C379A000000000000000000000000000000000000000000000000000000000 DUP2 MSTORE PUSH1 0x4 ADD DUP1 DUP1 PUSH1 0x20 ADD DUP3 DUP2 SUB DUP3 MSTORE PUSH1 0x36 DUP2 MSTORE PUSH1 0x20 ADD DUP1 PUSH2 0x2ABD PUSH1 0x36 SWAP2 CODECOPY PUSH1 0x40 ADD SWAP2 POP POP PUSH1 0x40 MLOAD DUP1 SWAP2 SUB SWAP1 REVERT JUMPDEST PUSH1 0xE SLOAD DUP2 GT ISZERO DUP1 ISZERO PUSH2 0x20A4 JUMPI POP PUSH1 0x0 DUP2 GT JUMPDEST PUSH2 0x2116 JUMPI PUSH1 0x40 MLOAD PUSH32 0x8C379A000000000000000000000000000000000000000000000000000000000 DUP2 MSTORE PUSH1 0x4 ADD DUP1 DUP1 PUSH1 0x20 ADD DUP3 DUP2 SUB DUP3 MSTORE PUSH1 0x1A DUP2 MSTORE PUSH1 0x20 ADD DUP1 PUSH32 0x4F757473696465206F66207069636B61626C6520626F756E6473000000000000 DUP2 MSTORE POP PUSH1 0x20 ADD SWAP2 POP POP PUSH1 0x40 MLOAD DUP1 SWAP2 SUB SWAP1 REVERT JUMPDEST PUSH2 0x211F CALLVALUE PUSH2 0x2969 JUMP JUMPDEST PUSH2 0x2191 JUMPI PUSH1 0x40 MLOAD PUSH32 0x8C379A000000000000000000000000000000000000000000000000000000000 DUP2 MSTORE PUSH1 0x4 ADD DUP1 DUP1 PUSH1 0x20 ADD DUP3 DUP2 SUB DUP3 MSTORE PUSH1 0x15 DUP2 MSTORE PUSH1 0x20 ADD DUP1 PUSH32 0x4F757469736465206F66206265742072616E67652E0000000000000000000000 DUP2 MSTORE POP PUSH1 0x20 ADD SWAP2 POP POP PUSH1 0x40 MLOAD DUP1 SWAP2 SUB SWAP1 REVERT JUMPDEST PUSH1 0x1 PUSH1 0x3 SLOAD EQ ISZERO PUSH2 0x21DF JUMPI PUSH1 0x3 PUSH1 0x0 SWAP1 SSTORE PUSH1 0x4 PUSH1 0x0 SWAP1 SSTORE PUSH1 0x5 PUSH1 0x0 SWAP1 SSTORE PUSH1 0x6 PUSH1 0x0 SWAP1 SSTORE PUSH1 0x7 PUSH1 0x0 SWAP1 SSTORE PUSH1 0x8 PUSH1 0x0 SWAP1 SSTORE PUSH1 0x9 PUSH1 0x0 SWAP1 SSTORE PUSH1 0xA PUSH1 0x0 SWAP1 SSTORE PUSH1 0xB PUSH1 0x0 SWAP1 SSTORE PUSH1 0xC PUSH1 0x0 SWAP1 SSTORE PUSH1 0xD PUSH1 0x0 SWAP1 SSTORE JUMPDEST PUSH2 0x21F4 CALLVALUE PUSH1 0x11 SLOAD PUSH2 0x25E2 SWAP1 SWAP2 SWAP1 PUSH4 0xFFFFFFFF AND JUMP JUMPDEST PUSH1 0x11 DUP2 SWAP1 SSTORE POP PUSH2 0x2205 DUP3 CALLVALUE DUP4 PUSH2 0x2785 JUMP JUMPDEST PUSH2 0x2210 PUSH1 0x12 SLOAD PUSH2 0x28A4 JUMP JUMPDEST PUSH1 0x12 SLOAD PUSH1 0x19 PUSH1 0x0 DUP5 PUSH20 0xFFFFFFFFFFFFFFFFFFFFFFFFFFFFFFFFFFFFFFFF AND PUSH20 0xFFFFFFFFFFFFFFFFFFFFFFFFFFFFFFFFFFFFFFFF AND DUP2 MSTORE PUSH1 0x20 ADD SWAP1 DUP2 MSTORE PUSH1 0x20 ADD PUSH1 0x0 KECCAK256 DUP2 SWAP1 SSTORE POP POP POP JUMP JUMPDEST PUSH1 0x16 PUSH1 0x20 MSTORE DUP1 PUSH1 0x0 MSTORE PUSH1 0x40 PUSH1 0x0 KECCAK256 PUSH1 0x0 SWAP2 POP SLOAD SWAP1 PUSH2 0x100 EXP SWAP1 DIV PUSH1 0xFF AND DUP2 JUMP JUMPDEST PUSH2 0x2282 PUSH2 0x277D JUMP JUMPDEST PUSH20 0xFFFFFFFFFFFFFFFFFFFFFFFFFFFFFFFFFFFFFFFF AND PUSH1 0x0 DUP1 SWAP1 SLOAD SWAP1 PUSH2 0x100 EXP SWAP1 DIV PUSH20 0xFFFFFFFFFFFFFFFFFFFFFFFFFFFFFFFFFFFFFFFF AND PUSH20 0xFFFFFFFFFFFFFFFFFFFFFFFFFFFFFFFFFFFFFFFF AND EQ PUSH2 0x2343 JUMPI PUSH1 0x40 MLOAD PUSH32 0x8C379A000000000000000000000000000000000000000000000000000000000 DUP2 MSTORE PUSH1 0x4 ADD DUP1 DUP1 PUSH1 0x20 ADD DUP3 DUP2 SUB DUP3 MSTORE PUSH1 0x20 DUP2 MSTORE PUSH1 0x20 ADD DUP1 PUSH32 0x4F776E61626C653A2063616C6C6572206973206E6F7420746865206F776E6572 DUP2 MSTORE POP PUSH1 0x20 ADD SWAP2 POP POP PUSH1 0x40 MLOAD DUP1 SWAP2 SUB SWAP1 REVERT JUMPDEST PUSH1 0x0 PUSH20 0xFFFFFFFFFFFFFFFFFFFFFFFFFFFFFFFFFFFFFFFF AND DUP2 PUSH20 0xFFFFFFFFFFFFFFFFFFFFFFFFFFFFFFFFFFFFFFFF AND EQ ISZERO PUSH2 0x23C9 JUMPI PUSH1 0x40 MLOAD PUSH32 0x8C379A000000000000000000000000000000000000000000000000000000000 DUP2 MSTORE PUSH1 0x4 ADD DUP1 DUP1 PUSH1 0x20 ADD DUP3 DUP2 SUB DUP3 MSTORE PUSH1 0x26 DUP2 MSTORE PUSH1 0x20 ADD DUP1 PUSH2 0x2A97 PUSH1 0x26 SWAP2 CODECOPY PUSH1 0x40 ADD SWAP2 POP POP PUSH1 0x40 MLOAD DUP1 SWAP2 SUB SWAP1 REVERT JUMPDEST DUP1 PUSH20 0xFFFFFFFFFFFFFFFFFFFFFFFFFFFFFFFFFFFFFFFF AND PUSH1 0x0 DUP1 SWAP1 SLOAD SWAP1 PUSH2 0x100 EXP SWAP1 DIV PUSH20 0xFFFFFFFFFFFFFFFFFFFFFFFFFFFFFFFFFFFFFFFF AND PUSH20 0xFFFFFFFFFFFFFFFFFFFFFFFFFFFFFFFFFFFFFFFF AND PUSH32 0x8BE0079C531659141344CD1FD0A4F28419497F9722A3DAAFE3B4186F6B6457E0 PUSH1 0x40 MLOAD PUSH1 0x40 MLOAD DUP1 SWAP2 SUB SWAP1 LOG3 DUP1 PUSH1 0x0 DUP1 PUSH2 0x100 EXP DUP2 SLOAD DUP2 PUSH20 0xFFFFFFFFFFFFFFFFFFFFFFFFFFFFFFFFFFFFFFFF MUL NOT AND SWAP1 DUP4 PUSH20 0xFFFFFFFFFFFFFFFFFFFFFFFFFFFFFFFFFFFFFFFF AND MUL OR SWAP1 SSTORE POP POP JUMP JUMPDEST PUSH2 0x248F PUSH2 0x277D JUMP JUMPDEST PUSH20 0xFFFFFFFFFFFFFFFFFFFFFFFFFFFFFFFFFFFFFFFF AND PUSH1 0x0 DUP1 SWAP1 SLOAD SWAP1 PUSH2 0x100 EXP SWAP1 DIV PUSH20 0xFFFFFFFFFFFFFFFFFFFFFFFFFFFFFFFFFFFFFFFF AND PUSH20 0xFFFFFFFFFFFFFFFFFFFFFFFFFFFFFFFFFFFFFFFF AND EQ PUSH2 0x2550 JUMPI PUSH1 0x40 MLOAD PUSH32 0x8C379A000000000000000000000000000000000000000000000000000000000 DUP2 MSTORE PUSH1 0x4 ADD DUP1 DUP1 PUSH1 0x20 ADD DUP3 DUP2 SUB DUP3 MSTORE PUSH1 0x20 DUP2 MSTORE PUSH1 0x20 ADD DUP1 PUSH32 0x4F776E61626C653A2063616C6C6572206973206E6F7420746865206F776E6572 DUP2 MSTORE POP PUSH1 0x20 ADD SWAP2 POP POP PUSH1 0x40 MLOAD DUP1 SWAP2 SUB SWAP1 REVERT JUMPDEST PUSH2 0x2559 DUP2 PUSH2 0x28A4 JUMP JUMPDEST POP JUMP JUMPDEST PUSH1 0x0 DUP1 DUP4 EQ ISZERO PUSH2 0x256F JUMPI PUSH1 0x0 SWAP1 POP PUSH2 0x25DC JUMP JUMPDEST PUSH1 0x0 DUP3 DUP5 MUL SWAP1 POP DUP3 DUP5 DUP3 DUP2 PUSH2 0x2580 JUMPI INVALID JUMPDEST DIV EQ PUSH2 0x25D7 JUMPI PUSH1 0x40 MLOAD PUSH32 0x8C379A000000000000000000000000000000000000000000000000000000000 DUP2 MSTORE PUSH1 0x4 ADD DUP1 DUP1 PUSH1 0x20 ADD DUP3 DUP2 SUB DUP3 MSTORE PUSH1 0x21 DUP2 MSTORE PUSH1 0x20 ADD DUP1 PUSH2 0x2AF3 PUSH1 0x21 SWAP2 CODECOPY PUSH1 0x40 ADD SWAP2 POP POP PUSH1 0x40 MLOAD DUP1 SWAP2 SUB SWAP1 REVERT JUMPDEST DUP1 SWAP2 POP POP JUMPDEST SWAP3 SWAP2 POP POP JUMP JUMPDEST PUSH1 0x0 DUP1 DUP3 DUP5 ADD SWAP1 POP DUP4 DUP2 LT ISZERO PUSH2 0x2660 JUMPI PUSH1 0x40 MLOAD PUSH32 0x8C379A000000000000000000000000000000000000000000000000000000000 DUP2 MSTORE PUSH1 0x4 ADD DUP1 DUP1 PUSH1 0x20 ADD DUP3 DUP2 SUB DUP3 MSTORE PUSH1 0x1B DUP2 MSTORE PUSH1 0x20 ADD DUP1 PUSH32 0x536166654D6174683A206164646974696F6E206F766572666C6F770000000000 DUP2 MSTORE POP PUSH1 0x20 ADD SWAP2 POP POP PUSH1 0x40 MLOAD DUP1 SWAP2 SUB SWAP1 REVERT JUMPDEST DUP1 SWAP2 POP POP SWAP3 SWAP2 POP POP JUMP JUMPDEST PUSH1 0x0 DUP3 DUP3 GT ISZERO PUSH2 0x26E2 JUMPI PUSH1 0x40 MLOAD PUSH32 0x8C379A000000000000000000000000000000000000000000000000000000000 DUP2 MSTORE PUSH1 0x4 ADD DUP1 DUP1 PUSH1 0x20 ADD DUP3 DUP2 SUB DUP3 MSTORE PUSH1 0x1E DUP2 MSTORE PUSH1 0x20 ADD DUP1 PUSH32 0x536166654D6174683A207375627472616374696F6E206F766572666C6F770000 DUP2 MSTORE POP PUSH1 0x20 ADD SWAP2 POP POP PUSH1 0x40 MLOAD DUP1 SWAP2 SUB SWAP1 REVERT JUMPDEST PUSH1 0x0 DUP3 DUP5 SUB SWAP1 POP DUP1 SWAP2 POP POP SWAP3 SWAP2 POP POP JUMP JUMPDEST PUSH1 0x0 DUP1 DUP3 EQ ISZERO PUSH2 0x276B JUMPI PUSH1 0x40 MLOAD PUSH32 0x8C379A000000000000000000000000000000000000000000000000000000000 DUP2 MSTORE PUSH1 0x4 ADD DUP1 DUP1 PUSH1 0x20 ADD DUP3 DUP2 SUB DUP3 MSTORE PUSH1 0x18 DUP2 MSTORE PUSH1 0x20 ADD DUP1 PUSH32 0x536166654D6174683A206D6F64756C6F206279207A65726F0000000000000000 DUP2 MSTORE POP PUSH1 0x20 ADD SWAP2 POP POP PUSH1 0x40 MLOAD DUP1 SWAP2 SUB SWAP1 REVERT JUMPDEST DUP2 DUP4 DUP2 PUSH2 0x2774 JUMPI INVALID JUMPDEST MOD SWAP1 POP SWAP3 SWAP2 POP POP JUMP JUMPDEST PUSH1 0x0 CALLER SWAP1 POP SWAP1 JUMP JUMPDEST PUSH2 0x279B PUSH1 0x1 PUSH1 0x12 SLOAD PUSH2 0x25E2 SWAP1 SWAP2 SWAP1 PUSH4 0xFFFFFFFF AND JUMP JUMPDEST PUSH1 0x12 DUP2 SWAP1 SSTORE POP PUSH2 0x27A9 PUSH2 0x2A48 JUMP JUMPDEST PUSH1 0x40 MLOAD DUP1 PUSH1 0xC0 ADD PUSH1 0x40 MSTORE DUP1 PUSH1 0x12 SLOAD DUP2 MSTORE PUSH1 0x20 ADD DUP6 PUSH20 0xFFFFFFFFFFFFFFFFFFFFFFFFFFFFFFFFFFFFFFFF AND DUP2 MSTORE PUSH1 0x20 ADD DUP5 DUP2 MSTORE PUSH1 0x20 ADD DUP4 DUP2 MSTORE PUSH1 0x20 ADD PUSH1 0x0 DUP2 MSTORE PUSH1 0x20 ADD PUSH1 0x0 ISZERO ISZERO DUP2 MSTORE POP SWAP1 POP DUP1 PUSH1 0x17 PUSH1 0x0 DUP4 PUSH1 0x0 ADD MLOAD DUP2 MSTORE PUSH1 0x20 ADD SWAP1 DUP2 MSTORE PUSH1 0x20 ADD PUSH1 0x0 KECCAK256 PUSH1 0x0 DUP3 ADD MLOAD DUP2 PUSH1 0x0 ADD SSTORE PUSH1 0x20 DUP3 ADD MLOAD DUP2 PUSH1 0x1 ADD PUSH1 0x0 PUSH2 0x100 EXP DUP2 SLOAD DUP2 PUSH20 0xFFFFFFFFFFFFFFFFFFFFFFFFFFFFFFFFFFFFFFFF MUL NOT AND SWAP1 DUP4 PUSH20 0xFFFFFFFFFFFFFFFFFFFFFFFFFFFFFFFFFFFFFFFF AND MUL OR SWAP1 SSTORE POP PUSH1 0x40 DUP3 ADD MLOAD DUP2 PUSH1 0x2 ADD SSTORE PUSH1 0x60 DUP3 ADD MLOAD DUP2 PUSH1 0x3 ADD SSTORE PUSH1 0x80 DUP3 ADD MLOAD DUP2 PUSH1 0x4 ADD SSTORE PUSH1 0xA0 DUP3 ADD MLOAD DUP2 PUSH1 0x5 ADD PUSH1 0x0 PUSH2 0x100 EXP DUP2 SLOAD DUP2 PUSH1 0xFF MUL NOT AND SWAP1 DUP4 ISZERO ISZERO MUL OR SWAP1 SSTORE POP SWAP1 POP POP POP POP POP POP JUMP JUMPDEST PUSH1 0x0 ISZERO ISZERO PUSH1 0x17 PUSH1 0x0 DUP4 DUP2 MSTORE PUSH1 0x20 ADD SWAP1 DUP2 MSTORE PUSH1 0x20 ADD PUSH1 0x0 KECCAK256 PUSH1 0x5 ADD PUSH1 0x0 SWAP1 SLOAD SWAP1 PUSH2 0x100 EXP SWAP1 DIV PUSH1 0xFF AND ISZERO ISZERO EQ PUSH2 0x2941 JUMPI PUSH1 0x40 MLOAD PUSH32 0x8C379A000000000000000000000000000000000000000000000000000000000 DUP2 MSTORE PUSH1 0x4 ADD DUP1 DUP1 PUSH1 0x20 ADD DUP3 DUP2 SUB DUP3 MSTORE PUSH1 0x13 DUP2 MSTORE PUSH1 0x20 ADD DUP1 PUSH32 0x67616D6520616C726561647920706C6179656400000000000000000000000000 DUP2 MSTORE POP PUSH1 0x20 ADD SWAP2 POP POP PUSH1 0x40 MLOAD DUP1 SWAP2 SUB SWAP1 REVERT JUMPDEST PUSH1 0x0 PUSH2 0x294B PUSH2 0x2997 JUMP JUMPDEST SWAP1 POP DUP2 PUSH1 0x18 PUSH1 0x0 DUP4 DUP2 MSTORE PUSH1 0x20 ADD SWAP1 DUP2 MSTORE PUSH1 0x20 ADD PUSH1 0x0 KECCAK256 DUP2 SWAP1 SSTORE POP POP POP JUMP JUMPDEST PUSH1 0x0 PUSH1 0x10 SLOAD DUP3 LT ISZERO DUP1 ISZERO PUSH2 0x297F JUMPI POP PUSH1 0xF SLOAD DUP3 GT ISZERO JUMPDEST ISZERO PUSH2 0x298D JUMPI PUSH1 0x1 SWAP1 POP PUSH2 0x2992 JUMP JUMPDEST PUSH1 0x0 SWAP1 POP JUMPDEST SWAP2 SWAP1 POP JUMP JUMPDEST PUSH1 0x0 DUP1 PUSH1 0x2 PUSH1 0x0 SWAP1 SLOAD SWAP1 PUSH2 0x100 EXP SWAP1 DIV PUSH20 0xFFFFFFFFFFFFFFFFFFFFFFFFFFFFFFFFFFFFFFFF AND SWAP1 POP DUP1 PUSH20 0xFFFFFFFFFFFFFFFFFFFFFFFFFFFFFFFFFFFFFFFF AND PUSH4 0xDBDFF2C1 PUSH1 0x40 MLOAD DUP2 PUSH4 0xFFFFFFFF AND PUSH1 0xE0 SHL DUP2 MSTORE PUSH1 0x4 ADD PUSH1 0x20 PUSH1 0x40 MLOAD DUP1 DUP4 SUB DUP2 PUSH1 0x0 DUP8 DUP1 EXTCODESIZE ISZERO DUP1 ISZERO PUSH2 0x2A07 JUMPI PUSH1 0x0 DUP1 REVERT JUMPDEST POP GAS CALL ISZERO DUP1 ISZERO PUSH2 0x2A1B JUMPI RETURNDATASIZE PUSH1 0x0 DUP1 RETURNDATACOPY RETURNDATASIZE PUSH1 0x0 REVERT JUMPDEST POP POP POP POP PUSH1 0x40 MLOAD RETURNDATASIZE PUSH1 0x20 DUP2 LT ISZERO PUSH2 0x2A31 JUMPI PUSH1 0x0 DUP1 REVERT JUMPDEST DUP2 ADD SWAP1 DUP1 DUP1 MLOAD SWAP1 PUSH1 0x20 ADD SWAP1 SWAP3 SWAP2 SWAP1 POP POP POP SWAP2 POP POP SWAP1 JUMP JUMPDEST PUSH1 0x40 MLOAD DUP1 PUSH1 0xC0 ADD PUSH1 0x40 MSTORE DUP1 PUSH1 0x0 DUP2 MSTORE PUSH1 0x20 ADD PUSH1 0x0 PUSH20 0xFFFFFFFFFFFFFFFFFFFFFFFFFFFFFFFFFFFFFFFF AND DUP2 MSTORE PUSH1 0x20 ADD PUSH1 0x0 DUP2 MSTORE PUSH1 0x20 ADD PUSH1 0x0 DUP2 MSTORE PUSH1 0x20 ADD PUSH1 0x0 DUP2 MSTORE PUSH1 0x20 ADD PUSH1 0x0 ISZERO ISZERO DUP2 MSTORE POP SWAP1 JUMP INVALID 0x4F PUSH24 0x6E61626C653A206E6577206F776E65722069732074686520 PUSH27 0x65726F2061646472657373436F6E74726163742068617320696E73 PUSH22 0x66666963696E742066756E647320746F207061796F75 PUSH21 0x20706F737369626C652077696E2E536166654D6174 PUSH9 0x3A206D756C7469706C PUSH10 0x636174696F6E206F7665 PUSH19 0x666C6F77436F6E74726163742062616C616E63 PUSH6 0x20746F6F206C PUSH16 0x772E20506C6561736520747279206167 PUSH2 0x696E KECCAK256 PUSH13 0x617465722E47616D6520616C72 PUSH6 0x61647920636F PUSH14 0x706C6574652E204E6F2072656675 PUSH15 0x6420706F737369626C652EA2646970 PUSH7 0x735822122058B3 0xE9 0x4A 0x5E SWAP8 DUP16 SWAP15 PUSH31 0x5F120C71C08FE2910025B0E3596415AF3E25A7C0DC2DF764736F6C63430006 STOP STOP CALLER LOG2 PUSH5 0x6970667358 0x22 SLT KECCAK256 SDIV ISZERO 0xFB 0xA6 0xF7 0x4C CALLDATACOPY 0xAC SWAP12 JUMPDEST SWAP7 0x1F 0x28 SWAP13 SIGNEXTEND 0xD5 0xAF 0xB8 0xC 0x5F PUSH9 0xE08173BC1706021A90 0xDB 0xBB PUSH5 0x736F6C6343 STOP MOD STOP STOP CALLER "},"gasEstimates":{"creation":{"codeDepositCost":"2754000","executionCost":"2999","totalCost":"2756999"},"external":{"createMachine(address,uint256,uint256,uint256,uint256)":"infinite","getMachines()":"infinite","getOwnedMachines()":"infinite","machines(uint256)":"2039"}},"methodIdentifiers":{"createMachine(address,uint256,uint256,uint256,uint256)":"3df4f579","getMachines()":"52b07b34","getOwnedMachines()":"2eb47613","machines(uint256)":"4d42845c"}},"storageLayout":{"storage":[{"astId":1679,"contract":"AllContracts.sol:LuckyMachineFactory","label":"machines","offset":0,"slot":"0","type":"t_array(t_address)dyn_storage"},{"astId":1684,"contract":"AllContracts.sol:LuckyMachineFactory","label":"ownedMachines","offset":0,"slot":"1","type":"t_mapping(t_address,t_array(t_address)dyn_storage)"}],"types":{"t_address":{"encoding":"inplace","label":"address","numberOfBytes":"20"},"t_array(t_address)dyn_storage":{"base":"t_address","encoding":"dynamic_array","label":"address[]","numberOfBytes":"32"},"t_mapping(t_address,t_array(t_address)dyn_storage)":{"encoding":"mapping","key":"t_address","label":"mapping(address => address[])","numberOfBytes":"32","value":"t_array(t_address)dyn_storage"}}},"userdoc":{"methods":{}}}