{
  "contractName": "LuckyMachineCoordinator",
  "abi": [
    {
      "inputs": [
        {
          "internalType": "address",
          "name": "_coordinator",
          "type": "address"
        },
        {
          "internalType": "address",
          "name": "_linkToken",
          "type": "address"
        },
        {
          "internalType": "bytes32",
          "name": "_keyHash",
          "type": "bytes32"
        },
        {
          "internalType": "uint256",
          "name": "_fee",
          "type": "uint256"
        }
      ],
      "stateMutability": "nonpayable",
      "type": "constructor"
    },
    {
      "anonymous": false,
      "inputs": [
        {
          "indexed": true,
          "internalType": "address",
          "name": "previousOwner",
          "type": "address"
        },
        {
          "indexed": true,
          "internalType": "address",
          "name": "newOwner",
          "type": "address"
        }
      ],
      "name": "OwnershipTransferred",
      "type": "event"
    },
    {
      "inputs": [],
      "name": "maxRandomNumbers",
      "outputs": [
        {
          "internalType": "uint8",
          "name": "",
          "type": "uint8"
        }
      ],
      "stateMutability": "view",
      "type": "function"
    },
    {
      "inputs": [],
      "name": "owner",
      "outputs": [
        {
          "internalType": "address",
          "name": "",
          "type": "address"
        }
      ],
      "stateMutability": "view",
      "type": "function"
    },
    {
      "inputs": [
        {
          "internalType": "bytes32",
          "name": "requestId",
          "type": "bytes32"
        },
        {
          "internalType": "uint256",
          "name": "randomness",
          "type": "uint256"
        }
      ],
      "name": "rawFulfillRandomness",
      "outputs": [],
      "stateMutability": "nonpayable",
      "type": "function"
    },
    {
      "inputs": [],
      "name": "renounceOwnership",
      "outputs": [],
      "stateMutability": "nonpayable",
      "type": "function"
    },
    {
      "inputs": [
        {
          "internalType": "address",
          "name": "newOwner",
          "type": "address"
        }
      ],
      "name": "transferOwnership",
      "outputs": [],
      "stateMutability": "nonpayable",
      "type": "function"
    },
    {
      "stateMutability": "payable",
      "type": "receive"
    },
    {
      "inputs": [
        {
          "internalType": "bytes32",
          "name": "_keyHash",
          "type": "bytes32"
        }
      ],
      "name": "setKeyHash",
      "outputs": [],
      "stateMutability": "nonpayable",
      "type": "function"
    },
    {
      "inputs": [
        {
          "internalType": "uint256",
          "name": "_fee",
          "type": "uint256"
        }
      ],
      "name": "setFee",
      "outputs": [],
      "stateMutability": "nonpayable",
      "type": "function"
    },
    {
      "inputs": [
        {
          "internalType": "address",
          "name": "_linkAddress",
          "type": "address"
        }
      ],
      "name": "setLINK",
      "outputs": [],
      "stateMutability": "nonpayable",
      "type": "function"
    },
    {
      "inputs": [
        {
          "internalType": "uint8",
          "name": "quantity",
          "type": "uint8"
        }
      ],
      "name": "getRandomNumbers",
      "outputs": [
        {
          "internalType": "bytes32",
          "name": "requestID",
          "type": "bytes32"
        }
      ],
      "stateMutability": "nonpayable",
      "type": "function"
    },
    {
      "inputs": [
        {
          "internalType": "uint256",
          "name": "number",
          "type": "uint256"
        },
        {
          "internalType": "uint256",
          "name": "n",
          "type": "uint256"
        }
      ],
      "name": "lastN",
      "outputs": [
        {
          "internalType": "uint256",
          "name": "",
          "type": "uint256"
        }
      ],
      "stateMutability": "pure",
      "type": "function"
    },
    {
      "inputs": [
        {
          "internalType": "uint8",
          "name": "quantity",
          "type": "uint8"
        }
      ],
      "name": "setMaxRandomQuantity",
      "outputs": [],
      "stateMutability": "nonpayable",
      "type": "function"
    },
    {
      "inputs": [],
      "name": "getLinkBalance",
      "outputs": [
        {
          "internalType": "uint256",
          "name": "",
          "type": "uint256"
        }
      ],
      "stateMutability": "view",
      "type": "function"
    },
    {
      "inputs": [],
      "name": "withdrawLink",
      "outputs": [],
      "stateMutability": "nonpayable",
      "type": "function"
    }
  ],
  "bytecode": "0x60a060405234801561001057600080fd5b50604051611c8a380380611c8a8339818101604052608081101561003357600080fd5b810190808051906020019092919080519060200190929190805190602001909291908051906020019092919050505083838173ffffffffffffffffffffffffffffffffffffffff1660808173ffffffffffffffffffffffffffffffffffffffff1660601b81525050806000806101000a81548173ffffffffffffffffffffffffffffffffffffffff021916908373ffffffffffffffffffffffffffffffffffffffff160217905550505060006100ed6101bf60201b60201c565b905080600260006101000a81548173ffffffffffffffffffffffffffffffffffffffff021916908373ffffffffffffffffffffffffffffffffffffffff1602179055508073ffffffffffffffffffffffffffffffffffffffff16600073ffffffffffffffffffffffffffffffffffffffff167f8be0079c531659141344cd1fd0a4f28419497f9722a3daafe3b4186f6b6457e060405160405180910390a3508160038190555080600481905550604e600760006101000a81548160ff021916908360ff160217905550505050506101c7565b600033905090565b60805160601c611aa16101e960003980610f3852806113e65250611aa16000f3fe6080604052600436106100c65760003560e01c8063715018a61161007f57806394985ddd1161005957806394985ddd146102be5780639854471014610303578063a02e06161461033e578063f2fde38b1461038f576100cd565b8063715018a61461024f5780638da5cb5b146102665780638dc654a2146102a7576100cd565b806339418765146100d25780634bdef5281461012457806350c5f9751461017d57806354ffb119146101a8578063620c5b42146101e657806369fe0e2d14610214576100cd565b366100cd57005b600080fd5b3480156100de57600080fd5b5061010e600480360360208110156100f557600080fd5b81019080803560ff1690602001909291905050506103e0565b6040518082815260200191505060405180910390f35b34801561013057600080fd5b506101676004803603604081101561014757600080fd5b8101908080359060200190929190803590602001909291905050506108e3565b6040518082815260200191505060405180910390f35b34801561018957600080fd5b506101926108fa565b6040518082815260200191505060405180910390f35b3480156101b457600080fd5b506101e4600480360360208110156101cb57600080fd5b81019080803560ff1690602001909291905050506109c4565b005b3480156101f257600080fd5b506101fb610a91565b604051808260ff16815260200191505060405180910390f35b34801561022057600080fd5b5061024d6004803603602081101561023757600080fd5b8101908080359060200190929190505050610aa4565b005b34801561025b57600080fd5b50610264610b5d565b005b34801561027257600080fd5b5061027b610ccd565b604051808273ffffffffffffffffffffffffffffffffffffffff16815260200191505060405180910390f35b3480156102b357600080fd5b506102bc610cf7565b005b3480156102ca57600080fd5b50610301600480360360408110156102e157600080fd5b810190808035906020019092919080359060200190929190505050610f36565b005b34801561030f57600080fd5b5061033c6004803603602081101561032657600080fd5b8101908080359060200190929190505050611005565b005b34801561034a57600080fd5b5061038d6004803603602081101561036157600080fd5b81019080803573ffffffffffffffffffffffffffffffffffffffff1690602001909291905050506110be565b005b34801561039b57600080fd5b506103de600480360360208110156103b257600080fd5b81019080803573ffffffffffffffffffffffffffffffffffffffff1690602001909291905050506111b0565b005b6000600760009054906101000a900460ff1660ff168260ff161115801561040a575060008260ff16115b61047c576040517f08c379a000000000000000000000000000000000000000000000000000000000815260040180806020018281038252601a8152602001807f7175616e74697479206f757473696465206f6620626f756e647300000000000081525060200191505060405180910390fd5b60045460008054906101000a900473ffffffffffffffffffffffffffffffffffffffff1673ffffffffffffffffffffffffffffffffffffffff166370a08231306040518263ffffffff1660e01b8152600401808273ffffffffffffffffffffffffffffffffffffffff16815260200191505060206040518083038186803b15801561050657600080fd5b505afa15801561051a573d6000803e3d6000fd5b505050506040513d602081101561053057600080fd5b8101908080519060200190929190505050101580610611575060045460008054906101000a900473ffffffffffffffffffffffffffffffffffffffff1673ffffffffffffffffffffffffffffffffffffffff166370a08231336040518263ffffffff1660e01b8152600401808273ffffffffffffffffffffffffffffffffffffffff16815260200191505060206040518083038186803b1580156105d357600080fd5b505afa1580156105e7573d6000803e3d6000fd5b505050506040513d60208110156105fd57600080fd5b810190808051906020019092919050505010155b610683576040517f08c379a000000000000000000000000000000000000000000000000000000000815260040180806020018281038252600f8152602001807f4e6f7420656e6f756768204c494e4b000000000000000000000000000000000081525060200191505060405180910390fd5b60045460008054906101000a900473ffffffffffffffffffffffffffffffffffffffff1673ffffffffffffffffffffffffffffffffffffffff166370a08231306040518263ffffffff1660e01b8152600401808273ffffffffffffffffffffffffffffffffffffffff16815260200191505060206040518083038186803b15801561070d57600080fd5b505afa158015610721573d6000803e3d6000fd5b505050506040513d602081101561073757600080fd5b8101908080519060200190929190505050101561083c5760008054906101000a900473ffffffffffffffffffffffffffffffffffffffff1673ffffffffffffffffffffffffffffffffffffffff166323b872dd33306004546040518463ffffffff1660e01b8152600401808473ffffffffffffffffffffffffffffffffffffffff1681526020018373ffffffffffffffffffffffffffffffffffffffff1681526020018281526020019350505050602060405180830381600087803b1580156107ff57600080fd5b505af1158015610813573d6000803e3d6000fd5b505050506040513d602081101561082957600080fd5b8101908080519060200190929190505050505b6000600143034060001c90506000610859600354600454846113a5565b9050336005600083815260200190815260200160002060006101000a81548173ffffffffffffffffffffffffffffffffffffffff021916908373ffffffffffffffffffffffffffffffffffffffff160217905550836006600083815260200190815260200160002060006101000a81548160ff021916908360ff1602179055508092505050919050565b600081600a0a83816108f157fe5b06905092915050565b60008060009054906101000a900473ffffffffffffffffffffffffffffffffffffffff1673ffffffffffffffffffffffffffffffffffffffff166370a08231306040518263ffffffff1660e01b8152600401808273ffffffffffffffffffffffffffffffffffffffff16815260200191505060206040518083038186803b15801561098457600080fd5b505afa158015610998573d6000803e3d6000fd5b505050506040513d60208110156109ae57600080fd5b8101908080519060200190929190505050905090565b6109cc61159d565b73ffffffffffffffffffffffffffffffffffffffff166109ea610ccd565b73ffffffffffffffffffffffffffffffffffffffff1614610a73576040517f08c379a00000000000000000000000000000000000000000000000000000000081526004018080602001828103825260208152602001807f4f776e61626c653a2063616c6c6572206973206e6f7420746865206f776e657281525060200191505060405180910390fd5b80600760006101000a81548160ff021916908360ff16021790555050565b600760009054906101000a900460ff1681565b610aac61159d565b73ffffffffffffffffffffffffffffffffffffffff16610aca610ccd565b73ffffffffffffffffffffffffffffffffffffffff1614610b53576040517f08c379a00000000000000000000000000000000000000000000000000000000081526004018080602001828103825260208152602001807f4f776e61626c653a2063616c6c6572206973206e6f7420746865206f776e657281525060200191505060405180910390fd5b8060048190555050565b610b6561159d565b73ffffffffffffffffffffffffffffffffffffffff16610b83610ccd565b73ffffffffffffffffffffffffffffffffffffffff1614610c0c576040517f08c379a00000000000000000000000000000000000000000000000000000000081526004018080602001828103825260208152602001807f4f776e61626c653a2063616c6c6572206973206e6f7420746865206f776e657281525060200191505060405180910390fd5b600073ffffffffffffffffffffffffffffffffffffffff16600260009054906101000a900473ffffffffffffffffffffffffffffffffffffffff1673ffffffffffffffffffffffffffffffffffffffff167f8be0079c531659141344cd1fd0a4f28419497f9722a3daafe3b4186f6b6457e060405160405180910390a36000600260006101000a81548173ffffffffffffffffffffffffffffffffffffffff021916908373ffffffffffffffffffffffffffffffffffffffff160217905550565b6000600260009054906101000a900473ffffffffffffffffffffffffffffffffffffffff16905090565b610cff61159d565b73ffffffffffffffffffffffffffffffffffffffff16610d1d610ccd565b73ffffffffffffffffffffffffffffffffffffffff1614610da6576040517f08c379a00000000000000000000000000000000000000000000000000000000081526004018080602001828103825260208152602001807f4f776e61626c653a2063616c6c6572206973206e6f7420746865206f776e657281525060200191505060405180910390fd5b60008054906101000a900473ffffffffffffffffffffffffffffffffffffffff1673ffffffffffffffffffffffffffffffffffffffff1663a9059cbb3360008054906101000a900473ffffffffffffffffffffffffffffffffffffffff1673ffffffffffffffffffffffffffffffffffffffff166370a08231306040518263ffffffff1660e01b8152600401808273ffffffffffffffffffffffffffffffffffffffff16815260200191505060206040518083038186803b158015610e6a57600080fd5b505afa158015610e7e573d6000803e3d6000fd5b505050506040513d6020811015610e9457600080fd5b81019080805190602001909291905050506040518363ffffffff1660e01b8152600401808373ffffffffffffffffffffffffffffffffffffffff16815260200182815260200192505050602060405180830381600087803b158015610ef857600080fd5b505af1158015610f0c573d6000803e3d6000fd5b505050506040513d6020811015610f2257600080fd5b810190808051906020019092919050505050565b7f000000000000000000000000000000000000000000000000000000000000000073ffffffffffffffffffffffffffffffffffffffff163373ffffffffffffffffffffffffffffffffffffffff1614610ff7576040517f08c379a000000000000000000000000000000000000000000000000000000000815260040180806020018281038252601f8152602001807f4f6e6c7920565246436f6f7264696e61746f722063616e2066756c66696c6c0081525060200191505060405180910390fd5b61100182826115a5565b5050565b61100d61159d565b73ffffffffffffffffffffffffffffffffffffffff1661102b610ccd565b73ffffffffffffffffffffffffffffffffffffffff16146110b4576040517f08c379a00000000000000000000000000000000000000000000000000000000081526004018080602001828103825260208152602001807f4f776e61626c653a2063616c6c6572206973206e6f7420746865206f776e657281525060200191505060405180910390fd5b8060038190555050565b6110c661159d565b73ffffffffffffffffffffffffffffffffffffffff166110e4610ccd565b73ffffffffffffffffffffffffffffffffffffffff161461116d576040517f08c379a00000000000000000000000000000000000000000000000000000000081526004018080602001828103825260208152602001807f4f776e61626c653a2063616c6c6572206973206e6f7420746865206f776e657281525060200191505060405180910390fd5b806000806101000a81548173ffffffffffffffffffffffffffffffffffffffff021916908373ffffffffffffffffffffffffffffffffffffffff16021790555050565b6111b861159d565b73ffffffffffffffffffffffffffffffffffffffff166111d6610ccd565b73ffffffffffffffffffffffffffffffffffffffff161461125f576040517f08c379a00000000000000000000000000000000000000000000000000000000081526004018080602001828103825260208152602001807f4f776e61626c653a2063616c6c6572206973206e6f7420746865206f776e657281525060200191505060405180910390fd5b600073ffffffffffffffffffffffffffffffffffffffff168173ffffffffffffffffffffffffffffffffffffffff1614156112e5576040517f08c379a0000000000000000000000000000000000000000000000000000000008152600401808060200182810382526026815260200180611a466026913960400191505060405180910390fd5b8073ffffffffffffffffffffffffffffffffffffffff16600260009054906101000a900473ffffffffffffffffffffffffffffffffffffffff1673ffffffffffffffffffffffffffffffffffffffff167f8be0079c531659141344cd1fd0a4f28419497f9722a3daafe3b4186f6b6457e060405160405180910390a380600260006101000a81548173ffffffffffffffffffffffffffffffffffffffff021916908373ffffffffffffffffffffffffffffffffffffffff16021790555050565b60008060009054906101000a900473ffffffffffffffffffffffffffffffffffffffff1673ffffffffffffffffffffffffffffffffffffffff16634000aea07f000000000000000000000000000000000000000000000000000000000000000085878660405160200180838152602001828152602001925050506040516020818303038152906040526040518463ffffffff1660e01b8152600401808473ffffffffffffffffffffffffffffffffffffffff16815260200183815260200180602001828103825283818151815260200191508051906020019080838360005b8381101561149f578082015181840152602081019050611484565b50505050905090810190601f1680156114cc5780820380516001836020036101000a031916815260200191505b50945050505050602060405180830381600087803b1580156114ed57600080fd5b505af1158015611501573d6000803e3d6000fd5b505050506040513d602081101561151757600080fd5b810190808051906020019092919050505050600061154a858430600160008a815260200190815260200160002054611812565b905061157260018060008881526020019081526020016000205461187690919063ffffffff16565b600160008781526020019081526020016000208190555061159385826118fe565b9150509392505050565b600033905090565b60006005600084815260200190815260200160002060009054906101000a900473ffffffffffffffffffffffffffffffffffffffff16905060016006600085815260200190815260200160002060009054906101000a900460ff1660ff1611156116f1576060611635836006600087815260200190815260200160002060009054906101000a900460ff16611937565b90508173ffffffffffffffffffffffffffffffffffffffff16636da64a5e85836040518363ffffffff1660e01b81526004018083815260200180602001828103825283818151815260200191508051906020019060200280838360005b838110156116ad578082015181840152602081019050611692565b505050509050019350505050600060405180830381600087803b1580156116d357600080fd5b505af11580156116e7573d6000803e3d6000fd5b505050505061180d565b6060600167ffffffffffffffff8111801561170b57600080fd5b5060405190808252806020026020018201604052801561173a5781602001602082028036833780820191505090505b509050828160008151811061174b57fe5b6020026020010181815250508173ffffffffffffffffffffffffffffffffffffffff16636da64a5e85836040518363ffffffff1660e01b81526004018083815260200180602001828103825283818151815260200191508051906020019060200280838360005b838110156117cd5780820151818401526020810190506117b2565b505050509050019350505050600060405180830381600087803b1580156117f357600080fd5b505af1158015611807573d6000803e3d6000fd5b50505050505b505050565b600084848484604051602001808581526020018481526020018373ffffffffffffffffffffffffffffffffffffffff1681526020018281526020019450505050506040516020818303038152906040528051906020012060001c9050949350505050565b6000808284019050838110156118f4576040517f08c379a000000000000000000000000000000000000000000000000000000000815260040180806020018281038252601b8152602001807f536166654d6174683a206164646974696f6e206f766572666c6f77000000000081525060200191505060405180910390fd5b8091505092915050565b60008282604051602001808381526020018281526020019250505060405160208183030381529060405280519060200120905092915050565b6060808260ff1667ffffffffffffffff8111801561195457600080fd5b506040519080825280602002602001820160405280156119835781602001602082028036833780820191505090505b50905060008360ff16604e8161199557fe5b0460ff16905060006119a786836108e3565b905080836001870360ff16815181106119bc57fe5b602002602001018181525050600082600a0a828803816119d857fe5b04905060006001870360ff1690505b6000811115611a37576119fa82856108e3565b925082856001830381518110611a0c57fe5b60200260200101818152505083600a0a83830381611a2657fe5b0491508080600190039150506119e7565b50839450505050509291505056fe4f776e61626c653a206e6577206f776e657220697320746865207a65726f2061646472657373a2646970667358221220485b4b25ca08961bbb88e7aee1929c8c3f7884614d1875ad4bd292d0068b326364736f6c634300060c0033",
  "immutableReferences": {
    "366": [
      {
        "length": 32,
        "start": 3896
      },
      {
        "length": 32,
        "start": 5094
      }
    ]
  },
  "source": "// SPDX-License-Identifier: MIT\npragma solidity ^0.6.0;\n\nimport \"@openzeppelin/contracts/access/Ownable.sol\";\nimport \"@chainlink/contracts/src/v0.6/vendor/SafeMathChainlink.sol\";\nimport \"@chainlink/contracts/src/v0.6/interfaces/LinkTokenInterface.sol\";\nimport \"@chainlink/contracts/src/v0.6/VRFRequestIDBase.sol\";\nimport \"./LuckyMachines.sol\";\n\nabstract contract VRFConsumerBase is VRFRequestIDBase {\n\n  using SafeMathChainlink for uint256;\n\n  function fulfillRandomness(bytes32 requestId, uint256 randomness)\n    internal virtual;\n\n  function requestRandomness(bytes32 _keyHash, uint256 _fee, uint256 _seed)\n    internal returns (bytes32 requestId)\n  {\n    LINK.transferAndCall(vrfCoordinator, _fee, abi.encode(_keyHash, _seed));\n\n    uint256 vRFSeed  = makeVRFInputSeed(_keyHash, _seed, address(this), nonces[_keyHash]);\n\n    nonces[_keyHash] = nonces[_keyHash].add(1);\n    return makeRequestId(_keyHash, vRFSeed);\n  }\n\n  //NOTE: this is set to immutable in original contract. Using this due to\n  // temporary token used on Polygon/Matic. Will need to be updated eventually.\n  LinkTokenInterface internal LINK;\n  address immutable private vrfCoordinator;\n\n  mapping(bytes32 /* keyHash */ => uint256 /* nonce */) private nonces;\n\n  constructor(address _vrfCoordinator, address _link) public {\n    vrfCoordinator = _vrfCoordinator;\n    LINK = LinkTokenInterface(_link);\n  }\n\n  function rawFulfillRandomness(bytes32 requestId, uint256 randomness) external {\n    require(msg.sender == vrfCoordinator, \"Only VRFCoordinator can fulfill\");\n    fulfillRandomness(requestId, randomness);\n  }\n}\n\n\ncontract LuckyMachineCoordinator is VRFConsumerBase, Ownable {\n    using SafeMathChainlink for uint256;\n\n    bytes32 internal keyHash;\n    uint256 internal fee;\n\n    mapping(bytes32 => address payable) private _machineRequests;\n    mapping(bytes32 => uint8) private _requestQuantities;\n    uint8 public maxRandomNumbers;\n\n    constructor(address _coordinator, address _linkToken, bytes32 _keyHash, uint256 _fee)\n        VRFConsumerBase(\n            _coordinator, // VRF Coordinator\n            _linkToken  // LINK Token\n        ) public {\n            keyHash = _keyHash;\n            fee = _fee;\n            maxRandomNumbers = 78;\n    }\n\n    receive() external payable {\n\n    }\n\n    /**\n     * @dev Shouldn't be updated unless set incorrectly to begin with.\n     */\n    function setKeyHash(bytes32 _keyHash) public onlyOwner {\n        keyHash = _keyHash;\n    }\n\n    /**\n     * @dev Can update fee if operator changes fee amount.\n     */\n    function setFee(uint256 _fee) public onlyOwner {\n      fee = _fee;\n    }\n\n    /**\n     * @dev Can update LINK address if necessary. Should not have to call this, but here\n     * in case token address updated for any reason.\n     */\n    function setLINK(address _linkAddress) public onlyOwner {\n        LINK = LinkTokenInterface(_linkAddress);\n    }\n\n    function getRandomNumbers(uint8 quantity) external returns(bytes32 requestID){\n        require(quantity <= maxRandomNumbers && quantity > 0, \"quantity outside of bounds\");\n        require(LINK.balanceOf(address(this)) >= fee || LINK.balanceOf(msg.sender) >= fee, \"Not enough LINK\");\n        if (LINK.balanceOf(address(this)) < fee) {\n            LINK.transferFrom(msg.sender, address(this), fee);\n        }\n        uint256 seed = uint256(blockhash(block.number - 1));\n        bytes32 rid = requestRandomness(keyHash, fee, seed);\n        _machineRequests[rid] = msg.sender;\n        _requestQuantities[rid] = quantity;\n        return rid;\n    }\n\n    function fulfillRandomness(bytes32 requestId, uint256 randomness) internal override {\n        LuckyMachine machine = LuckyMachine(_machineRequests[requestId]);\n        if(_requestQuantities[requestId] > 1){\n          uint256[] memory randomArray = sliceNumber(randomness, _requestQuantities[requestId]);\n          // send array to machine\n          machine.fulfillRandomness(requestId, randomArray);\n        } else {\n          uint256[] memory numberArray = new uint256[](1);\n          numberArray[0] = randomness;\n          machine.fulfillRandomness(requestId, numberArray);\n        }\n    }\n\n    function sliceNumber(uint256 inputNumber, uint8 elements) internal returns (uint256[] memory){\n\n        uint256[] memory numberArray = new uint256[](elements);\n        uint digitsPerSection = 78 / elements;\n\n        // get last digits\n        uint lastDigits = lastN(inputNumber, digitsPerSection);\n\n        // add to end of array\n        numberArray[elements - 1] = lastDigits;\n\n        // strip away digits added to the array\n        uint newNumber = (inputNumber - lastDigits) / (10 ** digitsPerSection);\n\n        for (uint i = (elements - 1); i > 0; i--) {\n            lastDigits = lastN(newNumber, digitsPerSection);\n            // add to end of array\n            numberArray[i-1] = lastDigits;\n            // strip away digits added to the array\n            newNumber = (newNumber - lastDigits) / (10 ** digitsPerSection);\n        }\n\n        return numberArray;\n    }\n\n    function lastN(uint number, uint n) public pure returns (uint) {\n        return number % 10 ** n;\n    }\n\n    function setMaxRandomQuantity(uint8 quantity) public onlyOwner {\n      maxRandomNumbers = quantity;\n    }\n\n    function getLinkBalance() public view returns(uint){\n        return LINK.balanceOf(address(this));\n    }\n\n    function withdrawLink() public onlyOwner {\n        LINK.transfer(msg.sender, LINK.balanceOf(address(this)));\n    }\n}\n",
  "sourcePath": "@luckymachines/contracts/src/v0.1/LuckyMachineCoordinator.sol",
  "compiler": {
    "name": "solc",
    "version": "0.6.12+commit.27d51765.Emscripten.clang"
  },
  "schemaVersion": "3.3.4",
  "updatedAt": "2021-03-28T01:13:51.096Z",
  "devdoc": {
    "kind": "dev",
    "methods": {
      "owner()": {
        "details": "Returns the address of the current owner."
      },
      "renounceOwnership()": {
        "details": "Leaves the contract without owner. It will not be possible to call `onlyOwner` functions anymore. Can only be called by the current owner. NOTE: Renouncing ownership will leave the contract without an owner, thereby removing any functionality that is only available to the owner."
      },
      "setFee(uint256)": {
        "details": "Can update fee if operator changes fee amount."
      },
      "setKeyHash(bytes32)": {
        "details": "Shouldn't be updated unless set incorrectly to begin with."
      },
      "setLINK(address)": {
        "details": "Can update LINK address if necessary. Should not have to call this, but here in case token address updated for any reason."
      },
      "transferOwnership(address)": {
        "details": "Transfers ownership of the contract to a new account (`newOwner`). Can only be called by the current owner."
      }
    },
    "version": 1
  },
  "userdoc": {
    "kind": "user",
    "methods": {},
    "version": 1
  }
}