{"abi":[{"inputs":[{"internalType":"uint256","name":"maxBet","type":"uint256"},{"internalType":"uint256","name":"minBet","type":"uint256"},{"internalType":"uint256","name":"maxPick","type":"uint256"},{"internalType":"uint256","name":"payout","type":"uint256"}],"name":"createMachine","outputs":[{"internalType":"address","name":"","type":"address"}],"stateMutability":"nonpayable","type":"function"},{"inputs":[],"name":"getMachines","outputs":[{"internalType":"address[]","name":"","type":"address[]"}],"stateMutability":"view","type":"function"},{"inputs":[{"internalType":"uint256","name":"","type":"uint256"}],"name":"machines","outputs":[{"internalType":"address","name":"","type":"address"}],"stateMutability":"view","type":"function"}],"devdoc":{"methods":{}},"evm":{"assembly":"    /* \"AllContracts.sol\":16042:16686  contract LuckyMachineFactory{... */\n  mstore(0x40, 0x80)\n  callvalue\n    /* \"--CODEGEN--\":8:17   */\n  dup1\n    /* \"--CODEGEN--\":5:7   */\n  iszero\n  tag_1\n  jumpi\n    /* \"--CODEGEN--\":30:31   */\n  0x00\n    /* \"--CODEGEN--\":27:28   */\n  dup1\n    /* \"--CODEGEN--\":20:32   */\n  revert\n    /* \"--CODEGEN--\":5:7   */\ntag_1:\n    /* \"AllContracts.sol\":16042:16686  contract LuckyMachineFactory{... */\n  pop\n  dataSize(sub_0)\n  dup1\n  dataOffset(sub_0)\n  0x00\n  codecopy\n  0x00\n  return\nstop\n\nsub_0: assembly {\n        /* \"AllContracts.sol\":16042:16686  contract LuckyMachineFactory{... */\n      mstore(0x40, 0x80)\n      callvalue\n        /* \"--CODEGEN--\":8:17   */\n      dup1\n        /* \"--CODEGEN--\":5:7   */\n      iszero\n      tag_1\n      jumpi\n        /* \"--CODEGEN--\":30:31   */\n      0x00\n        /* \"--CODEGEN--\":27:28   */\n      dup1\n        /* \"--CODEGEN--\":20:32   */\n      revert\n        /* \"--CODEGEN--\":5:7   */\n    tag_1:\n        /* \"AllContracts.sol\":16042:16686  contract LuckyMachineFactory{... */\n      pop\n      jumpi(tag_2, lt(calldatasize, 0x04))\n      shr(0xe0, calldataload(0x00))\n      dup1\n      0x06373b9a\n      eq\n      tag_3\n      jumpi\n      dup1\n      0x4d42845c\n      eq\n      tag_4\n      jumpi\n      dup1\n      0x52b07b34\n      eq\n      tag_5\n      jumpi\n    tag_2:\n      0x00\n      dup1\n      revert\n        /* \"AllContracts.sol\":16108:16584  function createMachine(uint maxBet, uint minBet, uint maxPick, uint payout) public returns(address){... */\n    tag_3:\n      tag_6\n      0x04\n      dup1\n      calldatasize\n      sub\n        /* \"--CODEGEN--\":13:16   */\n      0x80\n        /* \"--CODEGEN--\":8:11   */\n      dup2\n        /* \"--CODEGEN--\":5:17   */\n      lt\n        /* \"--CODEGEN--\":2:4   */\n      iszero\n      tag_7\n      jumpi\n        /* \"--CODEGEN--\":30:31   */\n      0x00\n        /* \"--CODEGEN--\":27:28   */\n      dup1\n        /* \"--CODEGEN--\":20:32   */\n      revert\n        /* \"--CODEGEN--\":2:4   */\n    tag_7:\n        /* \"AllContracts.sol\":16108:16584  function createMachine(uint maxBet, uint minBet, uint maxPick, uint payout) public returns(address){... */\n      dup2\n      add\n      swap1\n      dup1\n      dup1\n      calldataload\n      swap1\n      0x20\n      add\n      swap1\n      swap3\n      swap2\n      swap1\n      dup1\n      calldataload\n      swap1\n      0x20\n      add\n      swap1\n      swap3\n      swap2\n      swap1\n      dup1\n      calldataload\n      swap1\n      0x20\n      add\n      swap1\n      swap3\n      swap2\n      swap1\n      dup1\n      calldataload\n      swap1\n      0x20\n      add\n      swap1\n      swap3\n      swap2\n      swap1\n      pop\n      pop\n      pop\n      tag_8\n      jump\t// in\n    tag_6:\n      mload(0x40)\n      dup1\n      dup3\n      0xffffffffffffffffffffffffffffffffffffffff\n      and\n      0xffffffffffffffffffffffffffffffffffffffff\n      and\n      dup2\n      mstore\n      0x20\n      add\n      swap2\n      pop\n      pop\n      mload(0x40)\n      dup1\n      swap2\n      sub\n      swap1\n      return\n        /* \"AllContracts.sol\":16076:16101  address[] public machines */\n    tag_4:\n      tag_9\n      0x04\n      dup1\n      calldatasize\n      sub\n        /* \"--CODEGEN--\":13:15   */\n      0x20\n        /* \"--CODEGEN--\":8:11   */\n      dup2\n        /* \"--CODEGEN--\":5:16   */\n      lt\n        /* \"--CODEGEN--\":2:4   */\n      iszero\n      tag_10\n      jumpi\n        /* \"--CODEGEN--\":29:30   */\n      0x00\n        /* \"--CODEGEN--\":26:27   */\n      dup1\n        /* \"--CODEGEN--\":19:31   */\n      revert\n        /* \"--CODEGEN--\":2:4   */\n    tag_10:\n        /* \"AllContracts.sol\":16076:16101  address[] public machines */\n      dup2\n      add\n      swap1\n      dup1\n      dup1\n      calldataload\n      swap1\n      0x20\n      add\n      swap1\n      swap3\n      swap2\n      swap1\n      pop\n      pop\n      pop\n      tag_11\n      jump\t// in\n    tag_9:\n      mload(0x40)\n      dup1\n      dup3\n      0xffffffffffffffffffffffffffffffffffffffff\n      and\n      0xffffffffffffffffffffffffffffffffffffffff\n      and\n      dup2\n      mstore\n      0x20\n      add\n      swap2\n      pop\n      pop\n      mload(0x40)\n      dup1\n      swap2\n      sub\n      swap1\n      return\n        /* \"AllContracts.sol\":16590:16684  function getMachines() public view returns (address[] memory) {... */\n    tag_5:\n      tag_12\n      tag_13\n      jump\t// in\n    tag_12:\n      mload(0x40)\n      dup1\n      dup1\n      0x20\n      add\n      dup3\n      dup2\n      sub\n      dup3\n      mstore\n      dup4\n      dup2\n      dup2\n      mload\n      dup2\n      mstore\n      0x20\n      add\n      swap2\n      pop\n      dup1\n      mload\n      swap1\n      0x20\n      add\n      swap1\n      0x20\n      mul\n      dup1\n      dup4\n      dup4\n        /* \"--CODEGEN--\":23:24   */\n      0x00\n        /* \"--CODEGEN--\":8:108   */\n    tag_14:\n        /* \"--CODEGEN--\":33:36   */\n      dup4\n        /* \"--CODEGEN--\":30:31   */\n      dup2\n        /* \"--CODEGEN--\":27:37   */\n      lt\n        /* \"--CODEGEN--\":8:108   */\n      iszero\n      tag_16\n      jumpi\n        /* \"--CODEGEN--\":99:100   */\n      dup1\n        /* \"--CODEGEN--\":94:97   */\n      dup3\n        /* \"--CODEGEN--\":90:101   */\n      add\n        /* \"--CODEGEN--\":84:102   */\n      mload\n        /* \"--CODEGEN--\":80:81   */\n      dup2\n        /* \"--CODEGEN--\":75:78   */\n      dup5\n        /* \"--CODEGEN--\":71:82   */\n      add\n        /* \"--CODEGEN--\":64:103   */\n      mstore\n        /* \"--CODEGEN--\":52:54   */\n      0x20\n        /* \"--CODEGEN--\":49:50   */\n      dup2\n        /* \"--CODEGEN--\":45:55   */\n      add\n        /* \"--CODEGEN--\":40:55   */\n      swap1\n      pop\n        /* \"--CODEGEN--\":8:108   */\n      jump(tag_14)\n    tag_16:\n        /* \"--CODEGEN--\":12:26   */\n      pop\n        /* \"AllContracts.sol\":16590:16684  function getMachines() public view returns (address[] memory) {... */\n      pop\n      pop\n      pop\n      swap1\n      pop\n      add\n      swap3\n      pop\n      pop\n      pop\n      mload(0x40)\n      dup1\n      swap2\n      sub\n      swap1\n      return\n        /* \"AllContracts.sol\":16108:16584  function createMachine(uint maxBet, uint minBet, uint maxPick, uint payout) public returns(address){... */\n    tag_8:\n        /* \"AllContracts.sol\":16199:16206  address */\n      0x00\n        /* \"AllContracts.sol\":16307:16330  LuckyMachine newMachine */\n      dup1\n        /* \"AllContracts.sol\":16350:16360  msg.sender */\n      caller\n        /* \"AllContracts.sol\":16362:16368  maxBet */\n      dup7\n        /* \"AllContracts.sol\":16370:16376  minBet */\n      dup7\n        /* \"AllContracts.sol\":16378:16385  maxPick */\n      dup7\n        /* \"AllContracts.sol\":16387:16393  payout */\n      dup7\n        /* \"AllContracts.sol\":16333:16394  new LuckyMachine(msg.sender, maxBet, minBet, maxPick, payout) */\n      mload(0x40)\n      tag_18\n      swap1\n      tag_19\n      jump\t// in\n    tag_18:\n      dup1\n      dup7\n      0xffffffffffffffffffffffffffffffffffffffff\n      and\n      0xffffffffffffffffffffffffffffffffffffffff\n      and\n      dup2\n      mstore\n      0x20\n      add\n      dup6\n      dup2\n      mstore\n      0x20\n      add\n      dup5\n      dup2\n      mstore\n      0x20\n      add\n      dup4\n      dup2\n      mstore\n      0x20\n      add\n      dup3\n      dup2\n      mstore\n      0x20\n      add\n      swap6\n      pop\n      pop\n      pop\n      pop\n      pop\n      pop\n      mload(0x40)\n      dup1\n      swap2\n      sub\n      swap1\n      0x00\n      create\n      dup1\n      iszero\n        /* \"--CODEGEN--\":8:17   */\n      dup1\n        /* \"--CODEGEN--\":5:7   */\n      iszero\n      tag_20\n      jumpi\n        /* \"--CODEGEN--\":45:61   */\n      returndatasize\n        /* \"--CODEGEN--\":42:43   */\n      0x00\n        /* \"--CODEGEN--\":39:40   */\n      dup1\n        /* \"--CODEGEN--\":24:62   */\n      returndatacopy\n        /* \"--CODEGEN--\":77:93   */\n      returndatasize\n        /* \"--CODEGEN--\":74:75   */\n      0x00\n        /* \"--CODEGEN--\":67:94   */\n      revert\n        /* \"--CODEGEN--\":5:7   */\n    tag_20:\n        /* \"AllContracts.sol\":16333:16394  new LuckyMachine(msg.sender, maxBet, minBet, maxPick, payout) */\n      pop\n        /* \"AllContracts.sol\":16307:16394  LuckyMachine newMachine = new LuckyMachine(msg.sender, maxBet, minBet, maxPick, payout) */\n      swap1\n      pop\n        /* \"AllContracts.sol\":16404:16414  newMachine */\n      dup1\n        /* \"AllContracts.sol\":16404:16432  newMachine.transferOwnership */\n      0xffffffffffffffffffffffffffffffffffffffff\n      and\n      0xf2fde38b\n        /* \"AllContracts.sol\":16433:16443  msg.sender */\n      caller\n        /* \"AllContracts.sol\":16404:16444  newMachine.transferOwnership(msg.sender) */\n      mload(0x40)\n      dup3\n      0xffffffff\n      and\n      0xe0\n      shl\n      dup2\n      mstore\n      0x04\n      add\n      dup1\n      dup3\n      0xffffffffffffffffffffffffffffffffffffffff\n      and\n      0xffffffffffffffffffffffffffffffffffffffff\n      and\n      dup2\n      mstore\n      0x20\n      add\n      swap2\n      pop\n      pop\n      0x00\n      mload(0x40)\n      dup1\n      dup4\n      sub\n      dup2\n      0x00\n      dup8\n      dup1\n      extcodesize\n      iszero\n        /* \"--CODEGEN--\":8:17   */\n      dup1\n        /* \"--CODEGEN--\":5:7   */\n      iszero\n      tag_21\n      jumpi\n        /* \"--CODEGEN--\":30:31   */\n      0x00\n        /* \"--CODEGEN--\":27:28   */\n      dup1\n        /* \"--CODEGEN--\":20:32   */\n      revert\n        /* \"--CODEGEN--\":5:7   */\n    tag_21:\n        /* \"AllContracts.sol\":16404:16444  newMachine.transferOwnership(msg.sender) */\n      pop\n      gas\n      call\n      iszero\n        /* \"--CODEGEN--\":8:17   */\n      dup1\n        /* \"--CODEGEN--\":5:7   */\n      iszero\n      tag_23\n      jumpi\n        /* \"--CODEGEN--\":45:61   */\n      returndatasize\n        /* \"--CODEGEN--\":42:43   */\n      0x00\n        /* \"--CODEGEN--\":39:40   */\n      dup1\n        /* \"--CODEGEN--\":24:62   */\n      returndatacopy\n        /* \"--CODEGEN--\":77:93   */\n      returndatasize\n        /* \"--CODEGEN--\":74:75   */\n      0x00\n        /* \"--CODEGEN--\":67:94   */\n      revert\n        /* \"--CODEGEN--\":5:7   */\n    tag_23:\n        /* \"AllContracts.sol\":16404:16444  newMachine.transferOwnership(msg.sender) */\n      pop\n      pop\n      pop\n      pop\n        /* \"AllContracts.sol\":16454:16479  address newMachineAddress */\n      0x00\n        /* \"AllContracts.sol\":16490:16500  newMachine */\n      dup2\n        /* \"AllContracts.sol\":16454:16501  address newMachineAddress = address(newMachine) */\n      swap1\n      pop\n        /* \"AllContracts.sol\":16511:16519  machines */\n      0x00\n        /* \"AllContracts.sol\":16525:16542  newMachineAddress */\n      dup2\n        /* \"AllContracts.sol\":16511:16543  machines.push(newMachineAddress) */\n      swap1\n      dup1\n        /* \"--CODEGEN--\":39:40   */\n      0x01\n        /* \"--CODEGEN--\":33:36   */\n      dup2\n        /* \"--CODEGEN--\":27:37   */\n      sload\n        /* \"--CODEGEN--\":23:41   */\n      add\n        /* \"--CODEGEN--\":57:67   */\n      dup1\n        /* \"--CODEGEN--\":52:55   */\n      dup3\n        /* \"--CODEGEN--\":45:68   */\n      sstore\n        /* \"--CODEGEN--\":79:89   */\n      dup1\n        /* \"--CODEGEN--\":72:89   */\n      swap2\n      pop\n        /* \"--CODEGEN--\":0:93   */\n      pop\n        /* \"AllContracts.sol\":16511:16543  machines.push(newMachineAddress) */\n      0x01\n      swap1\n      sub\n      swap1\n      0x00\n      mstore\n      keccak256(0x00, 0x20)\n      add\n      0x00\n      swap1\n      swap2\n      swap1\n      swap2\n      swap1\n      swap2\n      0x0100\n      exp\n      dup2\n      sload\n      dup2\n      0xffffffffffffffffffffffffffffffffffffffff\n      mul\n      not\n      and\n      swap1\n      dup4\n      0xffffffffffffffffffffffffffffffffffffffff\n      and\n      mul\n      or\n      swap1\n      sstore\n      pop\n        /* \"AllContracts.sol\":16560:16577  newMachineAddress */\n      dup1\n        /* \"AllContracts.sol\":16553:16577  return newMachineAddress */\n      swap3\n      pop\n      pop\n      pop\n        /* \"AllContracts.sol\":16108:16584  function createMachine(uint maxBet, uint minBet, uint maxPick, uint payout) public returns(address){... */\n      swap5\n      swap4\n      pop\n      pop\n      pop\n      pop\n      jump\t// out\n        /* \"AllContracts.sol\":16076:16101  address[] public machines */\n    tag_11:\n      0x00\n      dup2\n      dup2\n      sload\n      dup2\n      lt\n      tag_25\n      jumpi\n      invalid\n    tag_25:\n      swap1\n      0x00\n      mstore\n      keccak256(0x00, 0x20)\n      add\n      0x00\n      swap2\n      pop\n      sload\n      swap1\n      0x0100\n      exp\n      swap1\n      div\n      0xffffffffffffffffffffffffffffffffffffffff\n      and\n      dup2\n      jump\t// out\n        /* \"AllContracts.sol\":16590:16684  function getMachines() public view returns (address[] memory) {... */\n    tag_13:\n        /* \"AllContracts.sol\":16634:16650  address[] memory */\n      0x60\n        /* \"AllContracts.sol\":16669:16677  machines */\n      0x00\n        /* \"AllContracts.sol\":16662:16677  return machines */\n      dup1\n      sload\n      dup1\n      0x20\n      mul\n      0x20\n      add\n      mload(0x40)\n      swap1\n      dup2\n      add\n      0x40\n      mstore\n      dup1\n      swap3\n      swap2\n      swap1\n      dup2\n      dup2\n      mstore\n      0x20\n      add\n      dup3\n      dup1\n      sload\n      dup1\n      iszero\n      tag_28\n      jumpi\n      0x20\n      mul\n      dup3\n      add\n      swap2\n      swap1\n      0x00\n      mstore\n      keccak256(0x00, 0x20)\n      swap1\n    tag_29:\n      dup2\n      0x00\n      swap1\n      sload\n      swap1\n      0x0100\n      exp\n      swap1\n      div\n      0xffffffffffffffffffffffffffffffffffffffff\n      and\n      0xffffffffffffffffffffffffffffffffffffffff\n      and\n      dup2\n      mstore\n      0x20\n      add\n      swap1\n      0x01\n      add\n      swap1\n      dup1\n      dup4\n      gt\n      tag_29\n      jumpi\n    tag_28:\n      pop\n      pop\n      pop\n      pop\n      pop\n      swap1\n      pop\n        /* \"AllContracts.sol\":16590:16684  function getMachines() public view returns (address[] memory) {... */\n      swap1\n      jump\t// out\n        /* \"AllContracts.sol\":16042:16686  contract LuckyMachineFactory{... */\n    tag_19:\n      dataSize(sub_0)\n      dup1\n      dataOffset(sub_0)\n      dup4\n      codecopy\n      add\n      swap1\n      jump\t// out\n    stop\n\n    sub_0: assembly {\n            /* \"AllContracts.sol\":5733:16040  contract LuckyMachine is VRFConsumerBase, Ownable {... */\n          mstore(0x40, 0x80)\n            /* \"AllContracts.sol\":6614:7568  constructor(address payable _payoutAddress, uint _maxBet, uint _minBet, uint _maxPick, uint _payout)... */\n          callvalue\n            /* \"--CODEGEN--\":8:17   */\n          dup1\n            /* \"--CODEGEN--\":5:7   */\n          iszero\n          tag_1\n          jumpi\n            /* \"--CODEGEN--\":30:31   */\n          0x00\n            /* \"--CODEGEN--\":27:28   */\n          dup1\n            /* \"--CODEGEN--\":20:32   */\n          revert\n            /* \"--CODEGEN--\":5:7   */\n        tag_1:\n            /* \"AllContracts.sol\":6614:7568  constructor(address payable _payoutAddress, uint _maxBet, uint _minBet, uint _maxPick, uint _payout)... */\n          pop\n          mload(0x40)\n          sub(codesize, bytecodeSize)\n          dup1\n          bytecodeSize\n          dup4\n          codecopy\n          dup2\n          dup2\n          add\n          0x40\n          mstore\n            /* \"--CODEGEN--\":13:16   */\n          0xa0\n            /* \"--CODEGEN--\":8:11   */\n          dup2\n            /* \"--CODEGEN--\":5:17   */\n          lt\n            /* \"--CODEGEN--\":2:4   */\n          iszero\n          tag_2\n          jumpi\n            /* \"--CODEGEN--\":30:31   */\n          0x00\n            /* \"--CODEGEN--\":27:28   */\n          dup1\n            /* \"--CODEGEN--\":20:32   */\n          revert\n            /* \"--CODEGEN--\":2:4   */\n        tag_2:\n            /* \"AllContracts.sol\":6614:7568  constructor(address payable _payoutAddress, uint _maxBet, uint _minBet, uint _maxPick, uint _payout)... */\n          dup2\n          add\n          swap1\n          dup1\n          dup1\n          mload\n          swap1\n          0x20\n          add\n          swap1\n          swap3\n          swap2\n          swap1\n          dup1\n          mload\n          swap1\n          0x20\n          add\n          swap1\n          swap3\n          swap2\n          swap1\n          dup1\n          mload\n          swap1\n          0x20\n          add\n          swap1\n          swap3\n          swap2\n          swap1\n          dup1\n          mload\n          swap1\n          0x20\n          add\n          swap1\n          swap3\n          swap2\n          swap1\n          dup1\n          mload\n          swap1\n          0x20\n          add\n          swap1\n          swap3\n          swap2\n          swap1\n          pop\n          pop\n          pop\n            /* \"AllContracts.sol\":6825:6867  0xdD3782915140c8f3b190B5D67eAc6dc5760C46E9 */\n          0xdd3782915140c8f3b190b5d67eac6dc5760c46e9\n            /* \"AllContracts.sol\":6900:6942  0xa36085F69e2889c224210F603D836748e7dC0088 */\n          0xa36085f69e2889c224210f603d836748e7dc0088\n            /* \"AllContracts.sol\":5460:5475  _vrfCoordinator */\n          dup2\n            /* \"AllContracts.sol\":5443:5457  vrfCoordinator */\n          0x01\n          0x00\n            /* \"AllContracts.sol\":5443:5475  vrfCoordinator = _vrfCoordinator */\n          0x0100\n          exp\n          dup2\n          sload\n          dup2\n          0xffffffffffffffffffffffffffffffffffffffff\n          mul\n          not\n          and\n          swap1\n          dup4\n          0xffffffffffffffffffffffffffffffffffffffff\n          and\n          mul\n          or\n          swap1\n          sstore\n          pop\n            /* \"AllContracts.sol\":5507:5512  _link */\n          dup1\n            /* \"AllContracts.sol\":5481:5485  LINK */\n          0x00\n          dup1\n            /* \"AllContracts.sol\":5481:5513  LINK = LinkTokenInterface(_link) */\n          0x0100\n          exp\n          dup2\n          sload\n          dup2\n          0xffffffffffffffffffffffffffffffffffffffff\n          mul\n          not\n          and\n          swap1\n          dup4\n          0xffffffffffffffffffffffffffffffffffffffff\n          and\n          mul\n          or\n          swap1\n          sstore\n          pop\n            /* \"AllContracts.sol\":5378:5518  constructor(address _vrfCoordinator, address _link) public {... */\n          pop\n          pop\n            /* \"AllContracts.sol\":726:743  address msgSender */\n          0x00\n            /* \"AllContracts.sol\":746:758  _msgSender() */\n          tag_8\n            /* \"AllContracts.sol\":746:756  _msgSender */\n          shl(0x20, tag_9)\n            /* \"AllContracts.sol\":746:758  _msgSender() */\n          0x20\n          shr\n          jump\t// in\n        tag_8:\n            /* \"AllContracts.sol\":726:758  address msgSender = _msgSender() */\n          swap1\n          pop\n            /* \"AllContracts.sol\":777:786  msgSender */\n          dup1\n            /* \"AllContracts.sol\":768:774  _owner */\n          0x03\n          0x00\n            /* \"AllContracts.sol\":768:786  _owner = msgSender */\n          0x0100\n          exp\n          dup2\n          sload\n          dup2\n          0xffffffffffffffffffffffffffffffffffffffff\n          mul\n          not\n          and\n          swap1\n          dup4\n          0xffffffffffffffffffffffffffffffffffffffff\n          and\n          mul\n          or\n          swap1\n          sstore\n          pop\n            /* \"AllContracts.sol\":834:843  msgSender */\n          dup1\n            /* \"AllContracts.sol\":801:844  OwnershipTransferred(address(0), msgSender) */\n          0xffffffffffffffffffffffffffffffffffffffff\n          and\n            /* \"AllContracts.sol\":830:831  0 */\n          0x00\n            /* \"AllContracts.sol\":801:844  OwnershipTransferred(address(0), msgSender) */\n          0xffffffffffffffffffffffffffffffffffffffff\n          and\n          0x8be0079c531659141344cd1fd0a4f28419497f9722a3daafe3b4186f6b6457e0\n          mload(0x40)\n          mload(0x40)\n          dup1\n          swap2\n          sub\n          swap1\n          log3\n            /* \"AllContracts.sol\":692:851  constructor () internal {... */\n          pop\n            /* \"AllContracts.sol\":6999:7065  0x6c3699283bda56ad74f6b855546325b68d482e983852a7a82979cc4807b641f4 */\n          0x6c3699283bda56ad74f6b855546325b68d482e983852a7a82979cc4807b641f4\n            /* \"AllContracts.sol\":6989:7065  keyHash = 0x6c3699283bda56ad74f6b855546325b68d482e983852a7a82979cc4807b641f4 */\n          0x00\n          shl\n            /* \"AllContracts.sol\":6989:6996  keyHash */\n          0x04\n            /* \"AllContracts.sol\":6989:7065  keyHash = 0x6c3699283bda56ad74f6b855546325b68d482e983852a7a82979cc4807b641f4 */\n          dup2\n          swap1\n          sstore\n          pop\n            /* \"AllContracts.sol\":7085:7099  0.1 * 10 ** 18 */\n          0x016345785d8a0000\n            /* \"AllContracts.sol\":7079:7082  fee */\n          0x05\n            /* \"AllContracts.sol\":7079:7099  fee = 0.1 * 10 ** 18 */\n          dup2\n          swap1\n          sstore\n          pop\n            /* \"AllContracts.sol\":7141:7142  1 */\n          0x01\n            /* \"AllContracts.sol\":7126:7138  _currentGame */\n          0x14\n            /* \"AllContracts.sol\":7126:7142  _currentGame = 1 */\n          dup2\n          swap1\n          sstore\n          pop\n            /* \"AllContracts.sol\":7172:7173  0 */\n          0x00\n            /* \"AllContracts.sol\":7156:7169  _unplayedBets */\n          0x13\n            /* \"AllContracts.sol\":7156:7173  _unplayedBets = 0 */\n          dup2\n          swap1\n          sstore\n          pop\n            /* \"AllContracts.sol\":7203:7217  _payoutAddress */\n          dup5\n            /* \"AllContracts.sol\":7187:7200  payoutAddress */\n          0x15\n          0x00\n            /* \"AllContracts.sol\":7187:7217  payoutAddress = _payoutAddress */\n          0x0100\n          exp\n          dup2\n          sload\n          dup2\n          0xffffffffffffffffffffffffffffffffffffffff\n          mul\n          not\n          and\n          swap1\n          dup4\n          0xffffffffffffffffffffffffffffffffffffffff\n          and\n          mul\n          or\n          swap1\n          sstore\n          pop\n            /* \"AllContracts.sol\":7240:7247  _minBet */\n          dup3\n            /* \"AllContracts.sol\":7231:7237  minBet */\n          0x12\n            /* \"AllContracts.sol\":7231:7247  minBet = _minBet */\n          dup2\n          swap1\n          sstore\n          pop\n            /* \"AllContracts.sol\":7270:7277  _maxBet */\n          dup4\n            /* \"AllContracts.sol\":7261:7267  maxBet */\n          0x11\n            /* \"AllContracts.sol\":7261:7277  maxBet = _maxBet */\n          dup2\n          swap1\n          sstore\n          pop\n            /* \"AllContracts.sol\":7301:7309  _maxPick */\n          dup2\n            /* \"AllContracts.sol\":7291:7298  maxPick */\n          0x10\n            /* \"AllContracts.sol\":7291:7309  maxPick = _maxPick */\n          dup2\n          swap1\n          sstore\n          pop\n            /* \"AllContracts.sol\":7332:7339  _payout */\n          dup1\n            /* \"AllContracts.sol\":7323:7329  payout */\n          0x16\n            /* \"AllContracts.sol\":7323:7339  payout = _payout */\n          dup2\n          swap1\n          sstore\n          pop\n            /* \"AllContracts.sol\":7361:7362  1 */\n          0x01\n            /* \"AllContracts.sol\":7354:7358  gas1 */\n          0x06\n            /* \"AllContracts.sol\":7354:7362  gas1 = 1 */\n          dup2\n          swap1\n          sstore\n          pop\n            /* \"AllContracts.sol\":7383:7384  1 */\n          0x01\n            /* \"AllContracts.sol\":7376:7380  gas2 */\n          0x07\n            /* \"AllContracts.sol\":7376:7384  gas2 = 1 */\n          dup2\n          swap1\n          sstore\n          pop\n            /* \"AllContracts.sol\":7405:7406  1 */\n          0x01\n            /* \"AllContracts.sol\":7398:7402  gas3 */\n          0x08\n            /* \"AllContracts.sol\":7398:7406  gas3 = 1 */\n          dup2\n          swap1\n          sstore\n          pop\n            /* \"AllContracts.sol\":7427:7428  1 */\n          0x01\n            /* \"AllContracts.sol\":7420:7424  gas4 */\n          0x09\n            /* \"AllContracts.sol\":7420:7428  gas4 = 1 */\n          dup2\n          swap1\n          sstore\n          pop\n            /* \"AllContracts.sol\":7449:7450  1 */\n          0x01\n            /* \"AllContracts.sol\":7442:7446  gas5 */\n          0x0a\n            /* \"AllContracts.sol\":7442:7450  gas5 = 1 */\n          dup2\n          swap1\n          sstore\n          pop\n            /* \"AllContracts.sol\":7471:7472  1 */\n          0x01\n            /* \"AllContracts.sol\":7464:7468  gas6 */\n          0x0b\n            /* \"AllContracts.sol\":7464:7472  gas6 = 1 */\n          dup2\n          swap1\n          sstore\n          pop\n            /* \"AllContracts.sol\":7493:7494  1 */\n          0x01\n            /* \"AllContracts.sol\":7486:7490  gas7 */\n          0x0c\n            /* \"AllContracts.sol\":7486:7494  gas7 = 1 */\n          dup2\n          swap1\n          sstore\n          pop\n            /* \"AllContracts.sol\":7515:7516  1 */\n          0x01\n            /* \"AllContracts.sol\":7508:7512  gas8 */\n          0x0d\n            /* \"AllContracts.sol\":7508:7516  gas8 = 1 */\n          dup2\n          swap1\n          sstore\n          pop\n            /* \"AllContracts.sol\":7537:7538  1 */\n          0x01\n            /* \"AllContracts.sol\":7530:7534  gas9 */\n          0x0e\n            /* \"AllContracts.sol\":7530:7538  gas9 = 1 */\n          dup2\n          swap1\n          sstore\n          pop\n            /* \"AllContracts.sol\":7560:7561  1 */\n          0x01\n            /* \"AllContracts.sol\":7552:7557  gas10 */\n          0x0f\n            /* \"AllContracts.sol\":7552:7561  gas10 = 1 */\n          dup2\n          swap1\n          sstore\n          pop\n            /* \"AllContracts.sol\":6614:7568  constructor(address payable _payoutAddress, uint _maxBet, uint _minBet, uint _maxPick, uint _payout)... */\n          pop\n          pop\n          pop\n          pop\n          pop\n            /* \"AllContracts.sol\":5733:16040  contract LuckyMachine is VRFConsumerBase, Ownable {... */\n          jump(tag_11)\n            /* \"AllContracts.sol\":90:194  function _msgSender() internal view virtual returns (address payable) {... */\n        tag_9:\n            /* \"AllContracts.sol\":143:158  address payable */\n          0x00\n            /* \"AllContracts.sol\":177:187  msg.sender */\n          caller\n            /* \"AllContracts.sol\":170:187  return msg.sender */\n          swap1\n          pop\n            /* \"AllContracts.sol\":90:194  function _msgSender() internal view virtual returns (address payable) {... */\n          swap1\n          jump\t// out\n            /* \"AllContracts.sol\":5733:16040  contract LuckyMachine is VRFConsumerBase, Ownable {... */\n        tag_11:\n          dataSize(sub_0)\n          dup1\n          dataOffset(sub_0)\n          0x00\n          codecopy\n          0x00\n          return\n        stop\n\n        sub_0: assembly {\n                /* \"AllContracts.sol\":5733:16040  contract LuckyMachine is VRFConsumerBase, Ownable {... */\n              mstore(0x40, 0x80)\n              jumpi(tag_1, lt(calldatasize, 0x04))\n              shr(0xe0, calldataload(0x00))\n              dup1\n              0x82e39ac5\n              gt\n              tag_40\n              jumpi\n              dup1\n              0xa02e0616\n              gt\n              tag_41\n              jumpi\n              dup1\n              0xc955e79c\n              gt\n              tag_42\n              jumpi\n              dup1\n              0xc955e79c\n              eq\n              tag_35\n              jumpi\n              dup1\n              0xde4fa6af\n              eq\n              tag_36\n              jumpi\n              dup1\n              0xf2fde38b\n              eq\n              tag_37\n              jumpi\n              dup1\n              0xfa63b7ad\n              eq\n              tag_38\n              jumpi\n              dup1\n              0xfafacab2\n              eq\n              tag_39\n              jumpi\n              jump(tag_2)\n            tag_42:\n              dup1\n              0xa02e0616\n              eq\n              tag_30\n              jumpi\n              dup1\n              0xa4b2409e\n              eq\n              tag_31\n              jumpi\n              dup1\n              0xac150fd8\n              eq\n              tag_32\n              jumpi\n              dup1\n              0xb37217a4\n              eq\n              tag_33\n              jumpi\n              dup1\n              0xb93030b3\n              eq\n              tag_34\n              jumpi\n              jump(tag_2)\n            tag_41:\n              dup1\n              0x94985ddd\n              gt\n              tag_43\n              jumpi\n              dup1\n              0x94985ddd\n              eq\n              tag_25\n              jumpi\n              dup1\n              0x9619367d\n              eq\n              tag_26\n              jumpi\n              dup1\n              0x98544710\n              eq\n              tag_27\n              jumpi\n              dup1\n              0x9920cf81\n              eq\n              tag_28\n              jumpi\n              dup1\n              0x9e317f12\n              eq\n              tag_29\n              jumpi\n              jump(tag_2)\n            tag_43:\n              dup1\n              0x82e39ac5\n              eq\n              tag_21\n              jumpi\n              dup1\n              0x881eff1e\n              eq\n              tag_22\n              jumpi\n              dup1\n              0x88ea41b9\n              eq\n              tag_23\n              jumpi\n              dup1\n              0x8da5cb5b\n              eq\n              tag_24\n              jumpi\n              jump(tag_2)\n            tag_40:\n              dup1\n              0x44c18aa7\n              gt\n              tag_44\n              jumpi\n              dup1\n              0x5b8d02d7\n              gt\n              tag_45\n              jumpi\n              dup1\n              0x5b8d02d7\n              eq\n              tag_16\n              jumpi\n              dup1\n              0x6168eac9\n              eq\n              tag_17\n              jumpi\n              dup1\n              0x63bd1d4a\n              eq\n              tag_18\n              jumpi\n              dup1\n              0x6b25d296\n              eq\n              tag_19\n              jumpi\n              dup1\n              0x715018a6\n              eq\n              tag_20\n              jumpi\n              jump(tag_2)\n            tag_45:\n              dup1\n              0x44c18aa7\n              eq\n              tag_12\n              jumpi\n              dup1\n              0x44ff81ce\n              eq\n              tag_13\n              jumpi\n              dup1\n              0x50c5f975\n              eq\n              tag_14\n              jumpi\n              dup1\n              0x5873533d\n              eq\n              tag_15\n              jumpi\n              jump(tag_2)\n            tag_44:\n              dup1\n              0x2e5b2168\n              gt\n              tag_46\n              jumpi\n              dup1\n              0x2e5b2168\n              eq\n              tag_7\n              jumpi\n              dup1\n              0x2ee42d8a\n              eq\n              tag_8\n              jumpi\n              dup1\n              0x33ea51a8\n              eq\n              tag_9\n              jumpi\n              dup1\n              0x39e7357c\n              eq\n              tag_10\n              jumpi\n              dup1\n              0x4051ddac\n              eq\n              tag_11\n              jumpi\n              jump(tag_2)\n            tag_46:\n              dup1\n              0x0c610a12\n              eq\n              tag_3\n              jumpi\n              dup1\n              0x10fe7c48\n              eq\n              tag_4\n              jumpi\n              dup1\n              0x117a5b90\n              eq\n              tag_5\n              jumpi\n              dup1\n              0x2de0f182\n              eq\n              tag_6\n              jumpi\n              jump(tag_2)\n            tag_1:\n              jumpi(tag_2, calldatasize)\n              stop\n            tag_2:\n              0x00\n              dup1\n              revert\n                /* \"AllContracts.sol\":8202:8351  function betPayable(uint bet) public view returns(bool){... */\n            tag_3:\n              callvalue\n                /* \"--CODEGEN--\":8:17   */\n              dup1\n                /* \"--CODEGEN--\":5:7   */\n              iszero\n              tag_49\n              jumpi\n                /* \"--CODEGEN--\":30:31   */\n              0x00\n                /* \"--CODEGEN--\":27:28   */\n              dup1\n                /* \"--CODEGEN--\":20:32   */\n              revert\n                /* \"--CODEGEN--\":5:7   */\n            tag_49:\n                /* \"AllContracts.sol\":8202:8351  function betPayable(uint bet) public view returns(bool){... */\n              pop\n              tag_50\n              0x04\n              dup1\n              calldatasize\n              sub\n                /* \"--CODEGEN--\":13:15   */\n              0x20\n                /* \"--CODEGEN--\":8:11   */\n              dup2\n                /* \"--CODEGEN--\":5:16   */\n              lt\n                /* \"--CODEGEN--\":2:4   */\n              iszero\n              tag_51\n              jumpi\n                /* \"--CODEGEN--\":29:30   */\n              0x00\n                /* \"--CODEGEN--\":26:27   */\n              dup1\n                /* \"--CODEGEN--\":19:31   */\n              revert\n                /* \"--CODEGEN--\":2:4   */\n            tag_51:\n                /* \"AllContracts.sol\":8202:8351  function betPayable(uint bet) public view returns(bool){... */\n              dup2\n              add\n              swap1\n              dup1\n              dup1\n              calldataload\n              swap1\n              0x20\n              add\n              swap1\n              swap3\n              swap2\n              swap1\n              pop\n              pop\n              pop\n              tag_52\n              jump\t// in\n            tag_50:\n              mload(0x40)\n              dup1\n              dup3\n              iszero\n              iszero\n              iszero\n              iszero\n              dup2\n              mstore\n              0x20\n              add\n              swap2\n              pop\n              pop\n              mload(0x40)\n              dup1\n              swap2\n              sub\n              swap1\n              return\n                /* \"AllContracts.sol\":8357:8698  function placeBet(uint pick) public payable{... */\n            tag_4:\n              tag_53\n              0x04\n              dup1\n              calldatasize\n              sub\n                /* \"--CODEGEN--\":13:15   */\n              0x20\n                /* \"--CODEGEN--\":8:11   */\n              dup2\n                /* \"--CODEGEN--\":5:16   */\n              lt\n                /* \"--CODEGEN--\":2:4   */\n              iszero\n              tag_54\n              jumpi\n                /* \"--CODEGEN--\":29:30   */\n              0x00\n                /* \"--CODEGEN--\":26:27   */\n              dup1\n                /* \"--CODEGEN--\":19:31   */\n              revert\n                /* \"--CODEGEN--\":2:4   */\n            tag_54:\n                /* \"AllContracts.sol\":8357:8698  function placeBet(uint pick) public payable{... */\n              dup2\n              add\n              swap1\n              dup1\n              dup1\n              calldataload\n              swap1\n              0x20\n              add\n              swap1\n              swap3\n              swap2\n              swap1\n              pop\n              pop\n              pop\n              tag_55\n              jump\t// in\n            tag_53:\n              stop\n                /* \"AllContracts.sol\":6522:6556  mapping(uint => Game) public games */\n            tag_5:\n              callvalue\n                /* \"--CODEGEN--\":8:17   */\n              dup1\n                /* \"--CODEGEN--\":5:7   */\n              iszero\n              tag_56\n              jumpi\n                /* \"--CODEGEN--\":30:31   */\n              0x00\n                /* \"--CODEGEN--\":27:28   */\n              dup1\n                /* \"--CODEGEN--\":20:32   */\n              revert\n                /* \"--CODEGEN--\":5:7   */\n            tag_56:\n                /* \"AllContracts.sol\":6522:6556  mapping(uint => Game) public games */\n              pop\n              tag_57\n              0x04\n              dup1\n              calldatasize\n              sub\n                /* \"--CODEGEN--\":13:15   */\n              0x20\n                /* \"--CODEGEN--\":8:11   */\n              dup2\n                /* \"--CODEGEN--\":5:16   */\n              lt\n                /* \"--CODEGEN--\":2:4   */\n              iszero\n              tag_58\n              jumpi\n                /* \"--CODEGEN--\":29:30   */\n              0x00\n                /* \"--CODEGEN--\":26:27   */\n              dup1\n                /* \"--CODEGEN--\":19:31   */\n              revert\n                /* \"--CODEGEN--\":2:4   */\n            tag_58:\n                /* \"AllContracts.sol\":6522:6556  mapping(uint => Game) public games */\n              dup2\n              add\n              swap1\n              dup1\n              dup1\n              calldataload\n              swap1\n              0x20\n              add\n              swap1\n              swap3\n              swap2\n              swap1\n              pop\n              pop\n              pop\n              tag_59\n              jump\t// in\n            tag_57:\n              mload(0x40)\n              dup1\n              dup8\n              dup2\n              mstore\n              0x20\n              add\n              dup7\n              0xffffffffffffffffffffffffffffffffffffffff\n              and\n              0xffffffffffffffffffffffffffffffffffffffff\n              and\n              dup2\n              mstore\n              0x20\n              add\n              dup6\n              dup2\n              mstore\n              0x20\n              add\n              dup5\n              dup2\n              mstore\n              0x20\n              add\n              dup4\n              dup2\n              mstore\n              0x20\n              add\n              dup3\n              iszero\n              iszero\n              iszero\n              iszero\n              dup2\n              mstore\n              0x20\n              add\n              swap7\n              pop\n              pop\n              pop\n              pop\n              pop\n              pop\n              pop\n              mload(0x40)\n              dup1\n              swap2\n              sub\n              swap1\n              return\n                /* \"AllContracts.sol\":11946:11992  function fundMachine() public payable {... */\n            tag_6:\n              tag_60\n              tag_61\n              jump\t// in\n            tag_60:\n              stop\n                /* \"AllContracts.sol\":6299:6317  uint public maxBet */\n            tag_7:\n              callvalue\n                /* \"--CODEGEN--\":8:17   */\n              dup1\n                /* \"--CODEGEN--\":5:7   */\n              iszero\n              tag_62\n              jumpi\n                /* \"--CODEGEN--\":30:31   */\n              0x00\n                /* \"--CODEGEN--\":27:28   */\n              dup1\n                /* \"--CODEGEN--\":20:32   */\n              revert\n                /* \"--CODEGEN--\":5:7   */\n            tag_62:\n                /* \"AllContracts.sol\":6299:6317  uint public maxBet */\n              pop\n              tag_63\n              tag_64\n              jump\t// in\n            tag_63:\n              mload(0x40)\n              dup1\n              dup3\n              dup2\n              mstore\n              0x20\n              add\n              swap2\n              pop\n              pop\n              mload(0x40)\n              dup1\n              swap2\n              sub\n              swap1\n              return\n                /* \"AllContracts.sol\":6274:6293  uint public maxPick */\n            tag_8:\n              callvalue\n                /* \"--CODEGEN--\":8:17   */\n              dup1\n                /* \"--CODEGEN--\":5:7   */\n              iszero\n              tag_65\n              jumpi\n                /* \"--CODEGEN--\":30:31   */\n              0x00\n                /* \"--CODEGEN--\":27:28   */\n              dup1\n                /* \"--CODEGEN--\":20:32   */\n              revert\n                /* \"--CODEGEN--\":5:7   */\n            tag_65:\n                /* \"AllContracts.sol\":6274:6293  uint public maxPick */\n              pop\n              tag_66\n              tag_67\n              jump\t// in\n            tag_66:\n              mload(0x40)\n              dup1\n              dup3\n              dup2\n              mstore\n              0x20\n              add\n              swap2\n              pop\n              pop\n              mload(0x40)\n              dup1\n              swap2\n              sub\n              swap1\n              return\n                /* \"AllContracts.sol\":12603:12725  function setPayoutAddress(address payable _payoutAddress) public onlyOwner {... */\n            tag_9:\n              callvalue\n                /* \"--CODEGEN--\":8:17   */\n              dup1\n                /* \"--CODEGEN--\":5:7   */\n              iszero\n              tag_68\n              jumpi\n                /* \"--CODEGEN--\":30:31   */\n              0x00\n                /* \"--CODEGEN--\":27:28   */\n              dup1\n                /* \"--CODEGEN--\":20:32   */\n              revert\n                /* \"--CODEGEN--\":5:7   */\n            tag_68:\n                /* \"AllContracts.sol\":12603:12725  function setPayoutAddress(address payable _payoutAddress) public onlyOwner {... */\n              pop\n              tag_69\n              0x04\n              dup1\n              calldatasize\n              sub\n                /* \"--CODEGEN--\":13:15   */\n              0x20\n                /* \"--CODEGEN--\":8:11   */\n              dup2\n                /* \"--CODEGEN--\":5:16   */\n              lt\n                /* \"--CODEGEN--\":2:4   */\n              iszero\n              tag_70\n              jumpi\n                /* \"--CODEGEN--\":29:30   */\n              0x00\n                /* \"--CODEGEN--\":26:27   */\n              dup1\n                /* \"--CODEGEN--\":19:31   */\n              revert\n                /* \"--CODEGEN--\":2:4   */\n            tag_70:\n                /* \"AllContracts.sol\":12603:12725  function setPayoutAddress(address payable _payoutAddress) public onlyOwner {... */\n              dup2\n              add\n              swap1\n              dup1\n              dup1\n              calldataload\n              0xffffffffffffffffffffffffffffffffffffffff\n              and\n              swap1\n              0x20\n              add\n              swap1\n              swap3\n              swap2\n              swap1\n              pop\n              pop\n              pop\n              tag_71\n              jump\t// in\n            tag_69:\n              stop\n                /* \"AllContracts.sol\":9587:9664  function getSeed() public view returns(uint256) {... */\n            tag_10:\n              callvalue\n                /* \"--CODEGEN--\":8:17   */\n              dup1\n                /* \"--CODEGEN--\":5:7   */\n              iszero\n              tag_72\n              jumpi\n                /* \"--CODEGEN--\":30:31   */\n              0x00\n                /* \"--CODEGEN--\":27:28   */\n              dup1\n                /* \"--CODEGEN--\":20:32   */\n              revert\n                /* \"--CODEGEN--\":5:7   */\n            tag_72:\n                /* \"AllContracts.sol\":9587:9664  function getSeed() public view returns(uint256) {... */\n              pop\n              tag_73\n              tag_74\n              jump\t// in\n            tag_73:\n              mload(0x40)\n              dup1\n              dup3\n              dup2\n              mstore\n              0x20\n              add\n              swap2\n              pop\n              pop\n              mload(0x40)\n              dup1\n              swap2\n              sub\n              swap1\n              return\n                /* \"AllContracts.sol\":11752:11916  function getSummary() public view returns(uint, uint, uint, uint) {... */\n            tag_11:\n              callvalue\n                /* \"--CODEGEN--\":8:17   */\n              dup1\n                /* \"--CODEGEN--\":5:7   */\n              iszero\n              tag_75\n              jumpi\n                /* \"--CODEGEN--\":30:31   */\n              0x00\n                /* \"--CODEGEN--\":27:28   */\n              dup1\n                /* \"--CODEGEN--\":20:32   */\n              revert\n                /* \"--CODEGEN--\":5:7   */\n            tag_75:\n                /* \"AllContracts.sol\":11752:11916  function getSummary() public view returns(uint, uint, uint, uint) {... */\n              pop\n              tag_76\n              tag_77\n              jump\t// in\n            tag_76:\n              mload(0x40)\n              dup1\n              dup6\n              dup2\n              mstore\n              0x20\n              add\n              dup5\n              dup2\n              mstore\n              0x20\n              add\n              dup4\n              dup2\n              mstore\n              0x20\n              add\n              dup3\n              dup2\n              mstore\n              0x20\n              add\n              swap5\n              pop\n              pop\n              pop\n              pop\n              pop\n              mload(0x40)\n              dup1\n              swap2\n              sub\n              swap1\n              return\n                /* \"AllContracts.sol\":12514:12597  function setPayout(uint _payout) public onlyOwner {... */\n            tag_12:\n              callvalue\n                /* \"--CODEGEN--\":8:17   */\n              dup1\n                /* \"--CODEGEN--\":5:7   */\n              iszero\n              tag_78\n              jumpi\n                /* \"--CODEGEN--\":30:31   */\n              0x00\n                /* \"--CODEGEN--\":27:28   */\n              dup1\n                /* \"--CODEGEN--\":20:32   */\n              revert\n                /* \"--CODEGEN--\":5:7   */\n            tag_78:\n                /* \"AllContracts.sol\":12514:12597  function setPayout(uint _payout) public onlyOwner {... */\n              pop\n              tag_79\n              0x04\n              dup1\n              calldatasize\n              sub\n                /* \"--CODEGEN--\":13:15   */\n              0x20\n                /* \"--CODEGEN--\":8:11   */\n              dup2\n                /* \"--CODEGEN--\":5:16   */\n              lt\n                /* \"--CODEGEN--\":2:4   */\n              iszero\n              tag_80\n              jumpi\n                /* \"--CODEGEN--\":29:30   */\n              0x00\n                /* \"--CODEGEN--\":26:27   */\n              dup1\n                /* \"--CODEGEN--\":19:31   */\n              revert\n                /* \"--CODEGEN--\":2:4   */\n            tag_80:\n                /* \"AllContracts.sol\":12514:12597  function setPayout(uint _payout) public onlyOwner {... */\n              dup2\n              add\n              swap1\n              dup1\n              dup1\n              calldataload\n              swap1\n              0x20\n              add\n              swap1\n              swap3\n              swap2\n              swap1\n              pop\n              pop\n              pop\n              tag_81\n              jump\t// in\n            tag_79:\n              stop\n                /* \"AllContracts.sol\":11998:12116  function setVRFCoordinator(address _vrfCoordinator) public onlyOwner {... */\n            tag_13:\n              callvalue\n                /* \"--CODEGEN--\":8:17   */\n              dup1\n                /* \"--CODEGEN--\":5:7   */\n              iszero\n              tag_82\n              jumpi\n                /* \"--CODEGEN--\":30:31   */\n              0x00\n                /* \"--CODEGEN--\":27:28   */\n              dup1\n                /* \"--CODEGEN--\":20:32   */\n              revert\n                /* \"--CODEGEN--\":5:7   */\n            tag_82:\n                /* \"AllContracts.sol\":11998:12116  function setVRFCoordinator(address _vrfCoordinator) public onlyOwner {... */\n              pop\n              tag_83\n              0x04\n              dup1\n              calldatasize\n              sub\n                /* \"--CODEGEN--\":13:15   */\n              0x20\n                /* \"--CODEGEN--\":8:11   */\n              dup2\n                /* \"--CODEGEN--\":5:16   */\n              lt\n                /* \"--CODEGEN--\":2:4   */\n              iszero\n              tag_84\n              jumpi\n                /* \"--CODEGEN--\":29:30   */\n              0x00\n                /* \"--CODEGEN--\":26:27   */\n              dup1\n                /* \"--CODEGEN--\":19:31   */\n              revert\n                /* \"--CODEGEN--\":2:4   */\n            tag_84:\n                /* \"AllContracts.sol\":11998:12116  function setVRFCoordinator(address _vrfCoordinator) public onlyOwner {... */\n              dup2\n              add\n              swap1\n              dup1\n              dup1\n              calldataload\n              0xffffffffffffffffffffffffffffffffffffffff\n              and\n              swap1\n              0x20\n              add\n              swap1\n              swap3\n              swap2\n              swap1\n              pop\n              pop\n              pop\n              tag_85\n              jump\t// in\n            tag_83:\n              stop\n                /* \"AllContracts.sol\":7615:7719  function getLinkBalance() public view returns(uint){... */\n            tag_14:\n              callvalue\n                /* \"--CODEGEN--\":8:17   */\n              dup1\n                /* \"--CODEGEN--\":5:7   */\n              iszero\n              tag_86\n              jumpi\n                /* \"--CODEGEN--\":30:31   */\n              0x00\n                /* \"--CODEGEN--\":27:28   */\n              dup1\n                /* \"--CODEGEN--\":20:32   */\n              revert\n                /* \"--CODEGEN--\":5:7   */\n            tag_86:\n                /* \"AllContracts.sol\":7615:7719  function getLinkBalance() public view returns(uint){... */\n              pop\n              tag_87\n              tag_88\n              jump\t// in\n            tag_87:\n              mload(0x40)\n              dup1\n              dup3\n              dup2\n              mstore\n              0x20\n              add\n              swap2\n              pop\n              pop\n              mload(0x40)\n              dup1\n              swap2\n              sub\n              swap1\n              return\n                /* \"AllContracts.sol\":9670:9928  function playGame(uint gameID) public {... */\n            tag_15:\n              callvalue\n                /* \"--CODEGEN--\":8:17   */\n              dup1\n                /* \"--CODEGEN--\":5:7   */\n              iszero\n              tag_89\n              jumpi\n                /* \"--CODEGEN--\":30:31   */\n              0x00\n                /* \"--CODEGEN--\":27:28   */\n              dup1\n                /* \"--CODEGEN--\":20:32   */\n              revert\n                /* \"--CODEGEN--\":5:7   */\n            tag_89:\n                /* \"AllContracts.sol\":9670:9928  function playGame(uint gameID) public {... */\n              pop\n              tag_90\n              0x04\n              dup1\n              calldatasize\n              sub\n                /* \"--CODEGEN--\":13:15   */\n              0x20\n                /* \"--CODEGEN--\":8:11   */\n              dup2\n                /* \"--CODEGEN--\":5:16   */\n              lt\n                /* \"--CODEGEN--\":2:4   */\n              iszero\n              tag_91\n              jumpi\n                /* \"--CODEGEN--\":29:30   */\n              0x00\n                /* \"--CODEGEN--\":26:27   */\n              dup1\n                /* \"--CODEGEN--\":19:31   */\n              revert\n                /* \"--CODEGEN--\":2:4   */\n            tag_91:\n                /* \"AllContracts.sol\":9670:9928  function playGame(uint gameID) public {... */\n              dup2\n              add\n              swap1\n              dup1\n              dup1\n              calldataload\n              swap1\n              0x20\n              add\n              swap1\n              swap3\n              swap2\n              swap1\n              pop\n              pop\n              pop\n              tag_92\n              jump\t// in\n            tag_90:\n              stop\n                /* \"AllContracts.sol\":6408:6444  address payable public payoutAddress */\n            tag_16:\n              callvalue\n                /* \"--CODEGEN--\":8:17   */\n              dup1\n                /* \"--CODEGEN--\":5:7   */\n              iszero\n              tag_93\n              jumpi\n                /* \"--CODEGEN--\":30:31   */\n              0x00\n                /* \"--CODEGEN--\":27:28   */\n              dup1\n                /* \"--CODEGEN--\":20:32   */\n              revert\n                /* \"--CODEGEN--\":5:7   */\n            tag_93:\n                /* \"AllContracts.sol\":6408:6444  address payable public payoutAddress */\n              pop\n              tag_94\n              tag_95\n              jump\t// in\n            tag_94:\n              mload(0x40)\n              dup1\n              dup3\n              0xffffffffffffffffffffffffffffffffffffffff\n              and\n              0xffffffffffffffffffffffffffffffffffffffff\n              and\n              dup2\n              mstore\n              0x20\n              add\n              swap2\n              pop\n              pop\n              mload(0x40)\n              dup1\n              swap2\n              sub\n              swap1\n              return\n                /* \"AllContracts.sol\":14523:14852  function testPlayGame(uint gameID, uint256 testRandomNumber) public {... */\n            tag_17:\n              callvalue\n                /* \"--CODEGEN--\":8:17   */\n              dup1\n                /* \"--CODEGEN--\":5:7   */\n              iszero\n              tag_96\n              jumpi\n                /* \"--CODEGEN--\":30:31   */\n              0x00\n                /* \"--CODEGEN--\":27:28   */\n              dup1\n                /* \"--CODEGEN--\":20:32   */\n              revert\n                /* \"--CODEGEN--\":5:7   */\n            tag_96:\n                /* \"AllContracts.sol\":14523:14852  function testPlayGame(uint gameID, uint256 testRandomNumber) public {... */\n              pop\n              tag_97\n              0x04\n              dup1\n              calldatasize\n              sub\n                /* \"--CODEGEN--\":13:15   */\n              0x40\n                /* \"--CODEGEN--\":8:11   */\n              dup2\n                /* \"--CODEGEN--\":5:16   */\n              lt\n                /* \"--CODEGEN--\":2:4   */\n              iszero\n              tag_98\n              jumpi\n                /* \"--CODEGEN--\":29:30   */\n              0x00\n                /* \"--CODEGEN--\":26:27   */\n              dup1\n                /* \"--CODEGEN--\":19:31   */\n              revert\n                /* \"--CODEGEN--\":2:4   */\n            tag_98:\n                /* \"AllContracts.sol\":14523:14852  function testPlayGame(uint gameID, uint256 testRandomNumber) public {... */\n              dup2\n              add\n              swap1\n              dup1\n              dup1\n              calldataload\n              swap1\n              0x20\n              add\n              swap1\n              swap3\n              swap2\n              swap1\n              dup1\n              calldataload\n              swap1\n              0x20\n              add\n              swap1\n              swap3\n              swap2\n              swap1\n              pop\n              pop\n              pop\n              tag_99\n              jump\t// in\n            tag_97:\n              stop\n                /* \"AllContracts.sol\":6450:6468  uint public payout */\n            tag_18:\n              callvalue\n                /* \"--CODEGEN--\":8:17   */\n              dup1\n                /* \"--CODEGEN--\":5:7   */\n              iszero\n              tag_100\n              jumpi\n                /* \"--CODEGEN--\":30:31   */\n              0x00\n                /* \"--CODEGEN--\":27:28   */\n              dup1\n                /* \"--CODEGEN--\":20:32   */\n              revert\n                /* \"--CODEGEN--\":5:7   */\n            tag_100:\n                /* \"AllContracts.sol\":6450:6468  uint public payout */\n              pop\n              tag_101\n              tag_102\n              jump\t// in\n            tag_101:\n              mload(0x40)\n              dup1\n              dup3\n              dup2\n              mstore\n              0x20\n              add\n              swap2\n              pop\n              pop\n              mload(0x40)\n              dup1\n              swap2\n              sub\n              swap1\n              return\n                /* \"AllContracts.sol\":6347:6372  uint public _unplayedBets */\n            tag_19:\n              callvalue\n                /* \"--CODEGEN--\":8:17   */\n              dup1\n                /* \"--CODEGEN--\":5:7   */\n              iszero\n              tag_103\n              jumpi\n                /* \"--CODEGEN--\":30:31   */\n              0x00\n                /* \"--CODEGEN--\":27:28   */\n              dup1\n                /* \"--CODEGEN--\":20:32   */\n              revert\n                /* \"--CODEGEN--\":5:7   */\n            tag_103:\n                /* \"AllContracts.sol\":6347:6372  uint public _unplayedBets */\n              pop\n              tag_104\n              tag_105\n              jump\t// in\n            tag_104:\n              mload(0x40)\n              dup1\n              dup3\n              dup2\n              mstore\n              0x20\n              add\n              swap2\n              pop\n              pop\n              mload(0x40)\n              dup1\n              swap2\n              sub\n              swap1\n              return\n                /* \"AllContracts.sol\":1550:1695  function renounceOwnership() public virtual onlyOwner {... */\n            tag_20:\n              callvalue\n                /* \"--CODEGEN--\":8:17   */\n              dup1\n                /* \"--CODEGEN--\":5:7   */\n              iszero\n              tag_106\n              jumpi\n                /* \"--CODEGEN--\":30:31   */\n              0x00\n                /* \"--CODEGEN--\":27:28   */\n              dup1\n                /* \"--CODEGEN--\":20:32   */\n              revert\n                /* \"--CODEGEN--\":5:7   */\n            tag_106:\n                /* \"AllContracts.sol\":1550:1695  function renounceOwnership() public virtual onlyOwner {... */\n              pop\n              tag_107\n              tag_108\n              jump\t// in\n            tag_107:\n              stop\n                /* \"AllContracts.sol\":6562:6607  mapping(bytes32 => uint) public _gameRequests */\n            tag_21:\n              callvalue\n                /* \"--CODEGEN--\":8:17   */\n              dup1\n                /* \"--CODEGEN--\":5:7   */\n              iszero\n              tag_109\n              jumpi\n                /* \"--CODEGEN--\":30:31   */\n              0x00\n                /* \"--CODEGEN--\":27:28   */\n              dup1\n                /* \"--CODEGEN--\":20:32   */\n              revert\n                /* \"--CODEGEN--\":5:7   */\n            tag_109:\n                /* \"AllContracts.sol\":6562:6607  mapping(bytes32 => uint) public _gameRequests */\n              pop\n              tag_110\n              0x04\n              dup1\n              calldatasize\n              sub\n                /* \"--CODEGEN--\":13:15   */\n              0x20\n                /* \"--CODEGEN--\":8:11   */\n              dup2\n                /* \"--CODEGEN--\":5:16   */\n              lt\n                /* \"--CODEGEN--\":2:4   */\n              iszero\n              tag_111\n              jumpi\n                /* \"--CODEGEN--\":29:30   */\n              0x00\n                /* \"--CODEGEN--\":26:27   */\n              dup1\n                /* \"--CODEGEN--\":19:31   */\n              revert\n                /* \"--CODEGEN--\":2:4   */\n            tag_111:\n                /* \"AllContracts.sol\":6562:6607  mapping(bytes32 => uint) public _gameRequests */\n              dup2\n              add\n              swap1\n              dup1\n              dup1\n              calldataload\n              swap1\n              0x20\n              add\n              swap1\n              swap3\n              swap2\n              swap1\n              pop\n              pop\n              pop\n              tag_112\n              jump\t// in\n            tag_110:\n              mload(0x40)\n              dup1\n              dup3\n              dup2\n              mstore\n              0x20\n              add\n              swap2\n              pop\n              pop\n              mload(0x40)\n              dup1\n              swap2\n              sub\n              swap1\n              return\n                /* \"AllContracts.sol\":12336:12419  function setMaxBet(uint _maxBet) public onlyOwner {... */\n            tag_22:\n              callvalue\n                /* \"--CODEGEN--\":8:17   */\n              dup1\n                /* \"--CODEGEN--\":5:7   */\n              iszero\n              tag_113\n              jumpi\n                /* \"--CODEGEN--\":30:31   */\n              0x00\n                /* \"--CODEGEN--\":27:28   */\n              dup1\n                /* \"--CODEGEN--\":20:32   */\n              revert\n                /* \"--CODEGEN--\":5:7   */\n            tag_113:\n                /* \"AllContracts.sol\":12336:12419  function setMaxBet(uint _maxBet) public onlyOwner {... */\n              pop\n              tag_114\n              0x04\n              dup1\n              calldatasize\n              sub\n                /* \"--CODEGEN--\":13:15   */\n              0x20\n                /* \"--CODEGEN--\":8:11   */\n              dup2\n                /* \"--CODEGEN--\":5:16   */\n              lt\n                /* \"--CODEGEN--\":2:4   */\n              iszero\n              tag_115\n              jumpi\n                /* \"--CODEGEN--\":29:30   */\n              0x00\n                /* \"--CODEGEN--\":26:27   */\n              dup1\n                /* \"--CODEGEN--\":19:31   */\n              revert\n                /* \"--CODEGEN--\":2:4   */\n            tag_115:\n                /* \"AllContracts.sol\":12336:12419  function setMaxBet(uint _maxBet) public onlyOwner {... */\n              dup2\n              add\n              swap1\n              dup1\n              dup1\n              calldataload\n              swap1\n              0x20\n              add\n              swap1\n              swap3\n              swap2\n              swap1\n              pop\n              pop\n              pop\n              tag_116\n              jump\t// in\n            tag_114:\n              stop\n                /* \"AllContracts.sol\":12425:12508  function setMinBet(uint _minBet) public onlyOwner {... */\n            tag_23:\n              callvalue\n                /* \"--CODEGEN--\":8:17   */\n              dup1\n                /* \"--CODEGEN--\":5:7   */\n              iszero\n              tag_117\n              jumpi\n                /* \"--CODEGEN--\":30:31   */\n              0x00\n                /* \"--CODEGEN--\":27:28   */\n              dup1\n                /* \"--CODEGEN--\":20:32   */\n              revert\n                /* \"--CODEGEN--\":5:7   */\n            tag_117:\n                /* \"AllContracts.sol\":12425:12508  function setMinBet(uint _minBet) public onlyOwner {... */\n              pop\n              tag_118\n              0x04\n              dup1\n              calldatasize\n              sub\n                /* \"--CODEGEN--\":13:15   */\n              0x20\n                /* \"--CODEGEN--\":8:11   */\n              dup2\n                /* \"--CODEGEN--\":5:16   */\n              lt\n                /* \"--CODEGEN--\":2:4   */\n              iszero\n              tag_119\n              jumpi\n                /* \"--CODEGEN--\":29:30   */\n              0x00\n                /* \"--CODEGEN--\":26:27   */\n              dup1\n                /* \"--CODEGEN--\":19:31   */\n              revert\n                /* \"--CODEGEN--\":2:4   */\n            tag_119:\n                /* \"AllContracts.sol\":12425:12508  function setMinBet(uint _minBet) public onlyOwner {... */\n              dup2\n              add\n              swap1\n              dup1\n              dup1\n              calldataload\n              swap1\n              0x20\n              add\n              swap1\n              swap3\n              swap2\n              swap1\n              pop\n              pop\n              pop\n              tag_120\n              jump\t// in\n            tag_118:\n              stop\n                /* \"AllContracts.sol\":927:1004  function owner() public view returns (address) {... */\n            tag_24:\n              callvalue\n                /* \"--CODEGEN--\":8:17   */\n              dup1\n                /* \"--CODEGEN--\":5:7   */\n              iszero\n              tag_121\n              jumpi\n                /* \"--CODEGEN--\":30:31   */\n              0x00\n                /* \"--CODEGEN--\":27:28   */\n              dup1\n                /* \"--CODEGEN--\":20:32   */\n              revert\n                /* \"--CODEGEN--\":5:7   */\n            tag_121:\n                /* \"AllContracts.sol\":927:1004  function owner() public view returns (address) {... */\n              pop\n              tag_122\n              tag_123\n              jump\t// in\n            tag_122:\n              mload(0x40)\n              dup1\n              dup3\n              0xffffffffffffffffffffffffffffffffffffffff\n              and\n              0xffffffffffffffffffffffffffffffffffffffff\n              and\n              dup2\n              mstore\n              0x20\n              add\n              swap2\n              pop\n              pop\n              mload(0x40)\n              dup1\n              swap2\n              sub\n              swap1\n              return\n                /* \"AllContracts.sol\":5522:5729  function rawFulfillRandomness(bytes32 requestId, uint256 randomness) external {... */\n            tag_25:\n              callvalue\n                /* \"--CODEGEN--\":8:17   */\n              dup1\n                /* \"--CODEGEN--\":5:7   */\n              iszero\n              tag_124\n              jumpi\n                /* \"--CODEGEN--\":30:31   */\n              0x00\n                /* \"--CODEGEN--\":27:28   */\n              dup1\n                /* \"--CODEGEN--\":20:32   */\n              revert\n                /* \"--CODEGEN--\":5:7   */\n            tag_124:\n                /* \"AllContracts.sol\":5522:5729  function rawFulfillRandomness(bytes32 requestId, uint256 randomness) external {... */\n              pop\n              tag_125\n              0x04\n              dup1\n              calldatasize\n              sub\n                /* \"--CODEGEN--\":13:15   */\n              0x40\n                /* \"--CODEGEN--\":8:11   */\n              dup2\n                /* \"--CODEGEN--\":5:16   */\n              lt\n                /* \"--CODEGEN--\":2:4   */\n              iszero\n              tag_126\n              jumpi\n                /* \"--CODEGEN--\":29:30   */\n              0x00\n                /* \"--CODEGEN--\":26:27   */\n              dup1\n                /* \"--CODEGEN--\":19:31   */\n              revert\n                /* \"--CODEGEN--\":2:4   */\n            tag_126:\n                /* \"AllContracts.sol\":5522:5729  function rawFulfillRandomness(bytes32 requestId, uint256 randomness) external {... */\n              dup2\n              add\n              swap1\n              dup1\n              dup1\n              calldataload\n              swap1\n              0x20\n              add\n              swap1\n              swap3\n              swap2\n              swap1\n              dup1\n              calldataload\n              swap1\n              0x20\n              add\n              swap1\n              swap3\n              swap2\n              swap1\n              pop\n              pop\n              pop\n              tag_127\n              jump\t// in\n            tag_125:\n              stop\n                /* \"AllContracts.sol\":6323:6341  uint public minBet */\n            tag_26:\n              callvalue\n                /* \"--CODEGEN--\":8:17   */\n              dup1\n                /* \"--CODEGEN--\":5:7   */\n              iszero\n              tag_128\n              jumpi\n                /* \"--CODEGEN--\":30:31   */\n              0x00\n                /* \"--CODEGEN--\":27:28   */\n              dup1\n                /* \"--CODEGEN--\":20:32   */\n              revert\n                /* \"--CODEGEN--\":5:7   */\n            tag_128:\n                /* \"AllContracts.sol\":6323:6341  uint public minBet */\n              pop\n              tag_129\n              tag_130\n              jump\t// in\n            tag_129:\n              mload(0x40)\n              dup1\n              dup3\n              dup2\n              mstore\n              0x20\n              add\n              swap2\n              pop\n              pop\n              mload(0x40)\n              dup1\n              swap2\n              sub\n              swap1\n              return\n                /* \"AllContracts.sol\":12122:12212  function setKeyHash(bytes32 _keyHash) public onlyOwner {... */\n            tag_27:\n              callvalue\n                /* \"--CODEGEN--\":8:17   */\n              dup1\n                /* \"--CODEGEN--\":5:7   */\n              iszero\n              tag_131\n              jumpi\n                /* \"--CODEGEN--\":30:31   */\n              0x00\n                /* \"--CODEGEN--\":27:28   */\n              dup1\n                /* \"--CODEGEN--\":20:32   */\n              revert\n                /* \"--CODEGEN--\":5:7   */\n            tag_131:\n                /* \"AllContracts.sol\":12122:12212  function setKeyHash(bytes32 _keyHash) public onlyOwner {... */\n              pop\n              tag_132\n              0x04\n              dup1\n              calldatasize\n              sub\n                /* \"--CODEGEN--\":13:15   */\n              0x20\n                /* \"--CODEGEN--\":8:11   */\n              dup2\n                /* \"--CODEGEN--\":5:16   */\n              lt\n                /* \"--CODEGEN--\":2:4   */\n              iszero\n              tag_133\n              jumpi\n                /* \"--CODEGEN--\":29:30   */\n              0x00\n                /* \"--CODEGEN--\":26:27   */\n              dup1\n                /* \"--CODEGEN--\":19:31   */\n              revert\n                /* \"--CODEGEN--\":2:4   */\n            tag_133:\n                /* \"AllContracts.sol\":12122:12212  function setKeyHash(bytes32 _keyHash) public onlyOwner {... */\n              dup2\n              add\n              swap1\n              dup1\n              dup1\n              calldataload\n              swap1\n              0x20\n              add\n              swap1\n              swap3\n              swap2\n              swap1\n              pop\n              pop\n              pop\n              tag_134\n              jump\t// in\n            tag_132:\n              stop\n                /* \"AllContracts.sol\":6378:6402  uint public _currentGame */\n            tag_28:\n              callvalue\n                /* \"--CODEGEN--\":8:17   */\n              dup1\n                /* \"--CODEGEN--\":5:7   */\n              iszero\n              tag_135\n              jumpi\n                /* \"--CODEGEN--\":30:31   */\n              0x00\n                /* \"--CODEGEN--\":27:28   */\n              dup1\n                /* \"--CODEGEN--\":20:32   */\n              revert\n                /* \"--CODEGEN--\":5:7   */\n            tag_135:\n                /* \"AllContracts.sol\":6378:6402  uint public _currentGame */\n              pop\n              tag_136\n              tag_137\n              jump\t// in\n            tag_136:\n              mload(0x40)\n              dup1\n              dup3\n              dup2\n              mstore\n              0x20\n              add\n              swap2\n              pop\n              pop\n              mload(0x40)\n              dup1\n              swap2\n              sub\n              swap1\n              return\n                /* \"AllContracts.sol\":5307:5374  mapping(bytes32 /* keyHash */ => uint256 /* nonce */) public nonces */\n            tag_29:\n              callvalue\n                /* \"--CODEGEN--\":8:17   */\n              dup1\n                /* \"--CODEGEN--\":5:7   */\n              iszero\n              tag_138\n              jumpi\n                /* \"--CODEGEN--\":30:31   */\n              0x00\n                /* \"--CODEGEN--\":27:28   */\n              dup1\n                /* \"--CODEGEN--\":20:32   */\n              revert\n                /* \"--CODEGEN--\":5:7   */\n            tag_138:\n                /* \"AllContracts.sol\":5307:5374  mapping(bytes32 /* keyHash */ => uint256 /* nonce */) public nonces */\n              pop\n              tag_139\n              0x04\n              dup1\n              calldatasize\n              sub\n                /* \"--CODEGEN--\":13:15   */\n              0x20\n                /* \"--CODEGEN--\":8:11   */\n              dup2\n                /* \"--CODEGEN--\":5:16   */\n              lt\n                /* \"--CODEGEN--\":2:4   */\n              iszero\n              tag_140\n              jumpi\n                /* \"--CODEGEN--\":29:30   */\n              0x00\n                /* \"--CODEGEN--\":26:27   */\n              dup1\n                /* \"--CODEGEN--\":19:31   */\n              revert\n                /* \"--CODEGEN--\":2:4   */\n            tag_140:\n                /* \"AllContracts.sol\":5307:5374  mapping(bytes32 /* keyHash */ => uint256 /* nonce */) public nonces */\n              dup2\n              add\n              swap1\n              dup1\n              dup1\n              calldataload\n              swap1\n              0x20\n              add\n              swap1\n              swap3\n              swap2\n              swap1\n              pop\n              pop\n              pop\n              tag_141\n              jump\t// in\n            tag_139:\n              mload(0x40)\n              dup1\n              dup3\n              dup2\n              mstore\n              0x20\n              add\n              swap2\n              pop\n              pop\n              mload(0x40)\n              dup1\n              swap2\n              sub\n              swap1\n              return\n                /* \"AllContracts.sol\":12218:12330  function setLINK(address _linkAddress) public onlyOwner {... */\n            tag_30:\n              callvalue\n                /* \"--CODEGEN--\":8:17   */\n              dup1\n                /* \"--CODEGEN--\":5:7   */\n              iszero\n              tag_142\n              jumpi\n                /* \"--CODEGEN--\":30:31   */\n              0x00\n                /* \"--CODEGEN--\":27:28   */\n              dup1\n                /* \"--CODEGEN--\":20:32   */\n              revert\n                /* \"--CODEGEN--\":5:7   */\n            tag_142:\n                /* \"AllContracts.sol\":12218:12330  function setLINK(address _linkAddress) public onlyOwner {... */\n              pop\n              tag_143\n              0x04\n              dup1\n              calldatasize\n              sub\n                /* \"--CODEGEN--\":13:15   */\n              0x20\n                /* \"--CODEGEN--\":8:11   */\n              dup2\n                /* \"--CODEGEN--\":5:16   */\n              lt\n                /* \"--CODEGEN--\":2:4   */\n              iszero\n              tag_144\n              jumpi\n                /* \"--CODEGEN--\":29:30   */\n              0x00\n                /* \"--CODEGEN--\":26:27   */\n              dup1\n                /* \"--CODEGEN--\":19:31   */\n              revert\n                /* \"--CODEGEN--\":2:4   */\n            tag_144:\n                /* \"AllContracts.sol\":12218:12330  function setLINK(address _linkAddress) public onlyOwner {... */\n              dup2\n              add\n              swap1\n              dup1\n              dup1\n              calldataload\n              0xffffffffffffffffffffffffffffffffffffffff\n              and\n              swap1\n              0x20\n              add\n              swap1\n              swap3\n              swap2\n              swap1\n              pop\n              pop\n              pop\n              tag_145\n              jump\t// in\n            tag_143:\n              stop\n                /* \"AllContracts.sol\":11283:11746  function requestRefund(uint gameID) public{... */\n            tag_31:\n              callvalue\n                /* \"--CODEGEN--\":8:17   */\n              dup1\n                /* \"--CODEGEN--\":5:7   */\n              iszero\n              tag_146\n              jumpi\n                /* \"--CODEGEN--\":30:31   */\n              0x00\n                /* \"--CODEGEN--\":27:28   */\n              dup1\n                /* \"--CODEGEN--\":20:32   */\n              revert\n                /* \"--CODEGEN--\":5:7   */\n            tag_146:\n                /* \"AllContracts.sol\":11283:11746  function requestRefund(uint gameID) public{... */\n              pop\n              tag_147\n              0x04\n              dup1\n              calldatasize\n              sub\n                /* \"--CODEGEN--\":13:15   */\n              0x20\n                /* \"--CODEGEN--\":8:11   */\n              dup2\n                /* \"--CODEGEN--\":5:16   */\n              lt\n                /* \"--CODEGEN--\":2:4   */\n              iszero\n              tag_148\n              jumpi\n                /* \"--CODEGEN--\":29:30   */\n              0x00\n                /* \"--CODEGEN--\":26:27   */\n              dup1\n                /* \"--CODEGEN--\":19:31   */\n              revert\n                /* \"--CODEGEN--\":2:4   */\n            tag_148:\n                /* \"AllContracts.sol\":11283:11746  function requestRefund(uint gameID) public{... */\n              dup2\n              add\n              swap1\n              dup1\n              dup1\n              calldataload\n              swap1\n              0x20\n              add\n              swap1\n              swap3\n              swap2\n              swap1\n              pop\n              pop\n              pop\n              tag_149\n              jump\t// in\n            tag_147:\n              stop\n                /* \"AllContracts.sol\":8704:9142  function placeBetFor(address payable player, uint pick) public payable {... */\n            tag_32:\n              tag_150\n              0x04\n              dup1\n              calldatasize\n              sub\n                /* \"--CODEGEN--\":13:15   */\n              0x40\n                /* \"--CODEGEN--\":8:11   */\n              dup2\n                /* \"--CODEGEN--\":5:16   */\n              lt\n                /* \"--CODEGEN--\":2:4   */\n              iszero\n              tag_151\n              jumpi\n                /* \"--CODEGEN--\":29:30   */\n              0x00\n                /* \"--CODEGEN--\":26:27   */\n              dup1\n                /* \"--CODEGEN--\":19:31   */\n              revert\n                /* \"--CODEGEN--\":2:4   */\n            tag_151:\n                /* \"AllContracts.sol\":8704:9142  function placeBetFor(address payable player, uint pick) public payable {... */\n              dup2\n              add\n              swap1\n              dup1\n              dup1\n              calldataload\n              0xffffffffffffffffffffffffffffffffffffffff\n              and\n              swap1\n              0x20\n              add\n              swap1\n              swap3\n              swap2\n              swap1\n              dup1\n              calldataload\n              swap1\n              0x20\n              add\n              swap1\n              swap3\n              swap2\n              swap1\n              pop\n              pop\n              pop\n              tag_152\n              jump\t// in\n            tag_150:\n              stop\n                /* \"AllContracts.sol\":9934:10142  function getRandomNumber(uint256 seed) public returns (bytes32 requestId) {... */\n            tag_33:\n              callvalue\n                /* \"--CODEGEN--\":8:17   */\n              dup1\n                /* \"--CODEGEN--\":5:7   */\n              iszero\n              tag_153\n              jumpi\n                /* \"--CODEGEN--\":30:31   */\n              0x00\n                /* \"--CODEGEN--\":27:28   */\n              dup1\n                /* \"--CODEGEN--\":20:32   */\n              revert\n                /* \"--CODEGEN--\":5:7   */\n            tag_153:\n                /* \"AllContracts.sol\":9934:10142  function getRandomNumber(uint256 seed) public returns (bytes32 requestId) {... */\n              pop\n              tag_154\n              0x04\n              dup1\n              calldatasize\n              sub\n                /* \"--CODEGEN--\":13:15   */\n              0x20\n                /* \"--CODEGEN--\":8:11   */\n              dup2\n                /* \"--CODEGEN--\":5:16   */\n              lt\n                /* \"--CODEGEN--\":2:4   */\n              iszero\n              tag_155\n              jumpi\n                /* \"--CODEGEN--\":29:30   */\n              0x00\n                /* \"--CODEGEN--\":26:27   */\n              dup1\n                /* \"--CODEGEN--\":19:31   */\n              revert\n                /* \"--CODEGEN--\":2:4   */\n            tag_155:\n                /* \"AllContracts.sol\":9934:10142  function getRandomNumber(uint256 seed) public returns (bytes32 requestId) {... */\n              dup2\n              add\n              swap1\n              dup1\n              dup1\n              calldataload\n              swap1\n              0x20\n              add\n              swap1\n              swap3\n              swap2\n              swap1\n              pop\n              pop\n              pop\n              tag_156\n              jump\t// in\n            tag_154:\n              mload(0x40)\n              dup1\n              dup3\n              dup2\n              mstore\n              0x20\n              add\n              swap2\n              pop\n              pop\n              mload(0x40)\n              dup1\n              swap2\n              sub\n              swap1\n              return\n                /* \"AllContracts.sol\":12731:13311  function closeMachine() public onlyOwner {... */\n            tag_34:\n              callvalue\n                /* \"--CODEGEN--\":8:17   */\n              dup1\n                /* \"--CODEGEN--\":5:7   */\n              iszero\n              tag_157\n              jumpi\n                /* \"--CODEGEN--\":30:31   */\n              0x00\n                /* \"--CODEGEN--\":27:28   */\n              dup1\n                /* \"--CODEGEN--\":20:32   */\n              revert\n                /* \"--CODEGEN--\":5:7   */\n            tag_157:\n                /* \"AllContracts.sol\":12731:13311  function closeMachine() public onlyOwner {... */\n              pop\n              tag_158\n              tag_159\n              jump\t// in\n            tag_158:\n              stop\n                /* \"AllContracts.sol\":15789:16038  function testCloseMachine() public onlyOwner {... */\n            tag_35:\n              callvalue\n                /* \"--CODEGEN--\":8:17   */\n              dup1\n                /* \"--CODEGEN--\":5:7   */\n              iszero\n              tag_160\n              jumpi\n                /* \"--CODEGEN--\":30:31   */\n              0x00\n                /* \"--CODEGEN--\":27:28   */\n              dup1\n                /* \"--CODEGEN--\":20:32   */\n              revert\n                /* \"--CODEGEN--\":5:7   */\n            tag_160:\n                /* \"AllContracts.sol\":15789:16038  function testCloseMachine() public onlyOwner {... */\n              pop\n              tag_161\n              tag_162\n              jump\t// in\n            tag_161:\n              stop\n                /* \"AllContracts.sol\":13408:13823  function testCreateGame(address payable _player, uint _bet, uint _pick, bool _played, uint _gameID) public {... */\n            tag_36:\n              callvalue\n                /* \"--CODEGEN--\":8:17   */\n              dup1\n                /* \"--CODEGEN--\":5:7   */\n              iszero\n              tag_163\n              jumpi\n                /* \"--CODEGEN--\":30:31   */\n              0x00\n                /* \"--CODEGEN--\":27:28   */\n              dup1\n                /* \"--CODEGEN--\":20:32   */\n              revert\n                /* \"--CODEGEN--\":5:7   */\n            tag_163:\n                /* \"AllContracts.sol\":13408:13823  function testCreateGame(address payable _player, uint _bet, uint _pick, bool _played, uint _gameID) public {... */\n              pop\n              tag_164\n              0x04\n              dup1\n              calldatasize\n              sub\n                /* \"--CODEGEN--\":13:16   */\n              0xa0\n                /* \"--CODEGEN--\":8:11   */\n              dup2\n                /* \"--CODEGEN--\":5:17   */\n              lt\n                /* \"--CODEGEN--\":2:4   */\n              iszero\n              tag_165\n              jumpi\n                /* \"--CODEGEN--\":30:31   */\n              0x00\n                /* \"--CODEGEN--\":27:28   */\n              dup1\n                /* \"--CODEGEN--\":20:32   */\n              revert\n                /* \"--CODEGEN--\":2:4   */\n            tag_165:\n                /* \"AllContracts.sol\":13408:13823  function testCreateGame(address payable _player, uint _bet, uint _pick, bool _played, uint _gameID) public {... */\n              dup2\n              add\n              swap1\n              dup1\n              dup1\n              calldataload\n              0xffffffffffffffffffffffffffffffffffffffff\n              and\n              swap1\n              0x20\n              add\n              swap1\n              swap3\n              swap2\n              swap1\n              dup1\n              calldataload\n              swap1\n              0x20\n              add\n              swap1\n              swap3\n              swap2\n              swap1\n              dup1\n              calldataload\n              swap1\n              0x20\n              add\n              swap1\n              swap3\n              swap2\n              swap1\n              dup1\n              calldataload\n              iszero\n              iszero\n              swap1\n              0x20\n              add\n              swap1\n              swap3\n              swap2\n              swap1\n              dup1\n              calldataload\n              swap1\n              0x20\n              add\n              swap1\n              swap3\n              swap2\n              swap1\n              pop\n              pop\n              pop\n              tag_166\n              jump\t// in\n            tag_164:\n              stop\n                /* \"AllContracts.sol\":1844:2084  function transferOwnership(address newOwner) public virtual onlyOwner {... */\n            tag_37:\n              callvalue\n                /* \"--CODEGEN--\":8:17   */\n              dup1\n                /* \"--CODEGEN--\":5:7   */\n              iszero\n              tag_167\n              jumpi\n                /* \"--CODEGEN--\":30:31   */\n              0x00\n                /* \"--CODEGEN--\":27:28   */\n              dup1\n                /* \"--CODEGEN--\":20:32   */\n              revert\n                /* \"--CODEGEN--\":5:7   */\n            tag_167:\n                /* \"AllContracts.sol\":1844:2084  function transferOwnership(address newOwner) public virtual onlyOwner {... */\n              pop\n              tag_168\n              0x04\n              dup1\n              calldatasize\n              sub\n                /* \"--CODEGEN--\":13:15   */\n              0x20\n                /* \"--CODEGEN--\":8:11   */\n              dup2\n                /* \"--CODEGEN--\":5:16   */\n              lt\n                /* \"--CODEGEN--\":2:4   */\n              iszero\n              tag_169\n              jumpi\n                /* \"--CODEGEN--\":29:30   */\n              0x00\n                /* \"--CODEGEN--\":26:27   */\n              dup1\n                /* \"--CODEGEN--\":19:31   */\n              revert\n                /* \"--CODEGEN--\":2:4   */\n            tag_169:\n                /* \"AllContracts.sol\":1844:2084  function transferOwnership(address newOwner) public virtual onlyOwner {... */\n              dup2\n              add\n              swap1\n              dup1\n              dup1\n              calldataload\n              0xffffffffffffffffffffffffffffffffffffffff\n              and\n              swap1\n              0x20\n              add\n              swap1\n              swap3\n              swap2\n              swap1\n              pop\n              pop\n              pop\n              tag_170\n              jump\t// in\n            tag_168:\n              stop\n                /* \"AllContracts.sol\":7725:8196  function betInRange(uint bet) public view returns(bool){... */\n            tag_38:\n              callvalue\n                /* \"--CODEGEN--\":8:17   */\n              dup1\n                /* \"--CODEGEN--\":5:7   */\n              iszero\n              tag_171\n              jumpi\n                /* \"--CODEGEN--\":30:31   */\n              0x00\n                /* \"--CODEGEN--\":27:28   */\n              dup1\n                /* \"--CODEGEN--\":20:32   */\n              revert\n                /* \"--CODEGEN--\":5:7   */\n            tag_171:\n                /* \"AllContracts.sol\":7725:8196  function betInRange(uint bet) public view returns(bool){... */\n              pop\n              tag_172\n              0x04\n              dup1\n              calldatasize\n              sub\n                /* \"--CODEGEN--\":13:15   */\n              0x20\n                /* \"--CODEGEN--\":8:11   */\n              dup2\n                /* \"--CODEGEN--\":5:16   */\n              lt\n                /* \"--CODEGEN--\":2:4   */\n              iszero\n              tag_173\n              jumpi\n                /* \"--CODEGEN--\":29:30   */\n              0x00\n                /* \"--CODEGEN--\":26:27   */\n              dup1\n                /* \"--CODEGEN--\":19:31   */\n              revert\n                /* \"--CODEGEN--\":2:4   */\n            tag_173:\n                /* \"AllContracts.sol\":7725:8196  function betInRange(uint bet) public view returns(bool){... */\n              dup2\n              add\n              swap1\n              dup1\n              dup1\n              calldataload\n              swap1\n              0x20\n              add\n              swap1\n              swap3\n              swap2\n              swap1\n              pop\n              pop\n              pop\n              tag_174\n              jump\t// in\n            tag_172:\n              mload(0x40)\n              dup1\n              dup3\n              iszero\n              iszero\n              iszero\n              iszero\n              dup2\n              mstore\n              0x20\n              add\n              swap2\n              pop\n              pop\n              mload(0x40)\n              dup1\n              swap2\n              sub\n              swap1\n              return\n                /* \"AllContracts.sol\":13829:14517  function testPlaceBetFor(address payable player, uint pick, uint256 testRandomNumber) public payable {... */\n            tag_39:\n              tag_175\n              0x04\n              dup1\n              calldatasize\n              sub\n                /* \"--CODEGEN--\":13:15   */\n              0x60\n                /* \"--CODEGEN--\":8:11   */\n              dup2\n                /* \"--CODEGEN--\":5:16   */\n              lt\n                /* \"--CODEGEN--\":2:4   */\n              iszero\n              tag_176\n              jumpi\n                /* \"--CODEGEN--\":29:30   */\n              0x00\n                /* \"--CODEGEN--\":26:27   */\n              dup1\n                /* \"--CODEGEN--\":19:31   */\n              revert\n                /* \"--CODEGEN--\":2:4   */\n            tag_176:\n                /* \"AllContracts.sol\":13829:14517  function testPlaceBetFor(address payable player, uint pick, uint256 testRandomNumber) public payable {... */\n              dup2\n              add\n              swap1\n              dup1\n              dup1\n              calldataload\n              0xffffffffffffffffffffffffffffffffffffffff\n              and\n              swap1\n              0x20\n              add\n              swap1\n              swap3\n              swap2\n              swap1\n              dup1\n              calldataload\n              swap1\n              0x20\n              add\n              swap1\n              swap3\n              swap2\n              swap1\n              dup1\n              calldataload\n              swap1\n              0x20\n              add\n              swap1\n              swap3\n              swap2\n              swap1\n              pop\n              pop\n              pop\n              tag_177\n              jump\t// in\n            tag_175:\n              stop\n                /* \"AllContracts.sol\":8202:8351  function betPayable(uint bet) public view returns(bool){... */\n            tag_52:\n                /* \"AllContracts.sol\":8252:8256  bool */\n              0x00\n                /* \"AllContracts.sol\":8319:8343  bet.mul(payout).add(bet) */\n              tag_179\n                /* \"AllContracts.sol\":8339:8342  bet */\n              dup3\n                /* \"AllContracts.sol\":8319:8334  bet.mul(payout) */\n              tag_180\n                /* \"AllContracts.sol\":8327:8333  payout */\n              sload(0x16)\n                /* \"AllContracts.sol\":8319:8322  bet */\n              dup6\n                /* \"AllContracts.sol\":8319:8326  bet.mul */\n              tag_181\n              swap1\n                /* \"AllContracts.sol\":8319:8334  bet.mul(payout) */\n              swap2\n              swap1\n              0xffffffff\n              and\n              jump\t// in\n            tag_180:\n                /* \"AllContracts.sol\":8319:8338  bet.mul(payout).add */\n              tag_182\n              swap1\n                /* \"AllContracts.sol\":8319:8343  bet.mul(payout).add(bet) */\n              swap2\n              swap1\n              0xffffffff\n              and\n              jump\t// in\n            tag_179:\n                /* \"AllContracts.sol\":8275:8315  address(this).balance.sub(_unplayedBets) */\n              tag_183\n                /* \"AllContracts.sol\":8301:8314  _unplayedBets */\n              sload(0x13)\n                /* \"AllContracts.sol\":8275:8296  address(this).balance */\n              selfbalance\n                /* \"AllContracts.sol\":8275:8300  address(this).balance.sub */\n              tag_184\n              swap1\n                /* \"AllContracts.sol\":8275:8315  address(this).balance.sub(_unplayedBets) */\n              swap2\n              swap1\n              0xffffffff\n              and\n              jump\t// in\n            tag_183:\n                /* \"AllContracts.sol\":8275:8343  address(this).balance.sub(_unplayedBets) >= bet.mul(payout).add(bet) */\n              lt\n              iszero\n                /* \"AllContracts.sol\":8267:8344  return (address(this).balance.sub(_unplayedBets) >= bet.mul(payout).add(bet)) */\n              swap1\n              pop\n                /* \"AllContracts.sol\":8202:8351  function betPayable(uint bet) public view returns(bool){... */\n              swap2\n              swap1\n              pop\n              jump\t// out\n                /* \"AllContracts.sol\":8357:8698  function placeBet(uint pick) public payable{... */\n            tag_55:\n                /* \"AllContracts.sol\":8458:8462  gas1 */\n              0x06\n                /* \"AllContracts.sol\":8451:8462  delete gas1 */\n              0x00\n              swap1\n              sstore\n                /* \"AllContracts.sol\":8479:8483  gas2 */\n              0x07\n                /* \"AllContracts.sol\":8472:8483  delete gas2 */\n              0x00\n              swap1\n              sstore\n                /* \"AllContracts.sol\":8500:8504  gas3 */\n              0x08\n                /* \"AllContracts.sol\":8493:8504  delete gas3 */\n              0x00\n              swap1\n              sstore\n                /* \"AllContracts.sol\":8521:8525  gas4 */\n              0x09\n                /* \"AllContracts.sol\":8514:8525  delete gas4 */\n              0x00\n              swap1\n              sstore\n                /* \"AllContracts.sol\":8542:8546  gas5 */\n              0x0a\n                /* \"AllContracts.sol\":8535:8546  delete gas5 */\n              0x00\n              swap1\n              sstore\n                /* \"AllContracts.sol\":8563:8567  gas6 */\n              0x0b\n                /* \"AllContracts.sol\":8556:8567  delete gas6 */\n              0x00\n              swap1\n              sstore\n                /* \"AllContracts.sol\":8584:8588  gas7 */\n              0x0c\n                /* \"AllContracts.sol\":8577:8588  delete gas7 */\n              0x00\n              swap1\n              sstore\n                /* \"AllContracts.sol\":8605:8609  gas8 */\n              0x0d\n                /* \"AllContracts.sol\":8598:8609  delete gas8 */\n              0x00\n              swap1\n              sstore\n                /* \"AllContracts.sol\":8626:8630  gas9 */\n              0x0e\n                /* \"AllContracts.sol\":8619:8630  delete gas9 */\n              0x00\n              swap1\n              sstore\n                /* \"AllContracts.sol\":8647:8652  gas10 */\n              0x0f\n                /* \"AllContracts.sol\":8640:8652  delete gas10 */\n              0x00\n              swap1\n              sstore\n                /* \"AllContracts.sol\":8662:8691  placeBetFor(msg.sender, pick) */\n              tag_186\n                /* \"AllContracts.sol\":8674:8684  msg.sender */\n              caller\n                /* \"AllContracts.sol\":8686:8690  pick */\n              dup3\n                /* \"AllContracts.sol\":8662:8673  placeBetFor */\n              tag_152\n                /* \"AllContracts.sol\":8662:8691  placeBetFor(msg.sender, pick) */\n              jump\t// in\n            tag_186:\n                /* \"AllContracts.sol\":8357:8698  function placeBet(uint pick) public payable{... */\n              pop\n              jump\t// out\n                /* \"AllContracts.sol\":6522:6556  mapping(uint => Game) public games */\n            tag_59:\n              mstore(0x20, 0x17)\n              dup1\n              0x00\n              mstore\n              keccak256(0x00, 0x40)\n              0x00\n              swap2\n              pop\n              swap1\n              pop\n              dup1\n              0x00\n              add\n              sload\n              swap1\n              dup1\n              0x01\n              add\n              0x00\n              swap1\n              sload\n              swap1\n              0x0100\n              exp\n              swap1\n              div\n              0xffffffffffffffffffffffffffffffffffffffff\n              and\n              swap1\n              dup1\n              0x02\n              add\n              sload\n              swap1\n              dup1\n              0x03\n              add\n              sload\n              swap1\n              dup1\n              0x04\n              add\n              sload\n              swap1\n              dup1\n              0x05\n              add\n              0x00\n              swap1\n              sload\n              swap1\n              0x0100\n              exp\n              swap1\n              div\n              0xff\n              and\n              swap1\n              pop\n              dup7\n              jump\t// out\n                /* \"AllContracts.sol\":11946:11992  function fundMachine() public payable {... */\n            tag_61:\n              jump\t// out\n                /* \"AllContracts.sol\":6299:6317  uint public maxBet */\n            tag_64:\n              sload(0x11)\n              dup2\n              jump\t// out\n                /* \"AllContracts.sol\":6274:6293  uint public maxPick */\n            tag_67:\n              sload(0x10)\n              dup2\n              jump\t// out\n                /* \"AllContracts.sol\":12603:12725  function setPayoutAddress(address payable _payoutAddress) public onlyOwner {... */\n            tag_71:\n                /* \"AllContracts.sol\":1141:1153  _msgSender() */\n              tag_189\n                /* \"AllContracts.sol\":1141:1151  _msgSender */\n              tag_190\n                /* \"AllContracts.sol\":1141:1153  _msgSender() */\n              jump\t// in\n            tag_189:\n                /* \"AllContracts.sol\":1131:1153  _owner == _msgSender() */\n              0xffffffffffffffffffffffffffffffffffffffff\n              and\n                /* \"AllContracts.sol\":1131:1137  _owner */\n              0x03\n              0x00\n              swap1\n              sload\n              swap1\n              0x0100\n              exp\n              swap1\n              div\n              0xffffffffffffffffffffffffffffffffffffffff\n              and\n                /* \"AllContracts.sol\":1131:1153  _owner == _msgSender() */\n              0xffffffffffffffffffffffffffffffffffffffff\n              and\n              eq\n                /* \"AllContracts.sol\":1123:1190  require(_owner == _msgSender(), \"Ownable: caller is not the owner\") */\n              tag_191\n              jumpi\n              mload(0x40)\n              0x08c379a000000000000000000000000000000000000000000000000000000000\n              dup2\n              mstore\n              0x04\n              add\n              dup1\n              dup1\n              0x20\n              add\n              dup3\n              dup2\n              sub\n              dup3\n              mstore\n              0x20\n              dup2\n              mstore\n              0x20\n              add\n              dup1\n              0x4f776e61626c653a2063616c6c6572206973206e6f7420746865206f776e6572\n              dup2\n              mstore\n              pop\n              0x20\n              add\n              swap2\n              pop\n              pop\n              mload(0x40)\n              dup1\n              swap2\n              sub\n              swap1\n              revert\n            tag_191:\n                /* \"AllContracts.sol\":12704:12718  _payoutAddress */\n              dup1\n                /* \"AllContracts.sol\":12688:12701  payoutAddress */\n              0x15\n              0x00\n                /* \"AllContracts.sol\":12688:12718  payoutAddress = _payoutAddress */\n              0x0100\n              exp\n              dup2\n              sload\n              dup2\n              0xffffffffffffffffffffffffffffffffffffffff\n              mul\n              not\n              and\n              swap1\n              dup4\n              0xffffffffffffffffffffffffffffffffffffffff\n              and\n              mul\n              or\n              swap1\n              sstore\n              pop\n                /* \"AllContracts.sol\":12603:12725  function setPayoutAddress(address payable _payoutAddress) public onlyOwner {... */\n              pop\n              jump\t// out\n                /* \"AllContracts.sol\":9587:9664  function getSeed() public view returns(uint256) {... */\n            tag_74:\n                /* \"AllContracts.sol\":9626:9633  uint256 */\n              0x00\n                /* \"AllContracts.sol\":9652:9657  12345 */\n              0x3039\n                /* \"AllContracts.sol\":9645:9657  return 12345 */\n              swap1\n              pop\n                /* \"AllContracts.sol\":9587:9664  function getSeed() public view returns(uint256) {... */\n              swap1\n              jump\t// out\n                /* \"AllContracts.sol\":11752:11916  function getSummary() public view returns(uint, uint, uint, uint) {... */\n            tag_77:\n                /* \"AllContracts.sol\":11794:11798  uint */\n              0x00\n                /* \"AllContracts.sol\":11800:11804  uint */\n              dup1\n                /* \"AllContracts.sol\":11806:11810  uint */\n              0x00\n                /* \"AllContracts.sol\":11812:11816  uint */\n              dup1\n                /* \"AllContracts.sol\":11877:11883  minBet */\n              sload(0x12)\n                /* \"AllContracts.sol\":11885:11891  maxBet */\n              sload(0x11)\n                /* \"AllContracts.sol\":11893:11899  payout */\n              sload(0x16)\n                /* \"AllContracts.sol\":11901:11908  maxPick */\n              sload(0x10)\n                /* \"AllContracts.sol\":11870:11909  return(minBet, maxBet, payout, maxPick) */\n              swap4\n              pop\n              swap4\n              pop\n              swap4\n              pop\n              swap4\n              pop\n                /* \"AllContracts.sol\":11752:11916  function getSummary() public view returns(uint, uint, uint, uint) {... */\n              swap1\n              swap2\n              swap3\n              swap4\n              jump\t// out\n                /* \"AllContracts.sol\":12514:12597  function setPayout(uint _payout) public onlyOwner {... */\n            tag_81:\n                /* \"AllContracts.sol\":1141:1153  _msgSender() */\n              tag_196\n                /* \"AllContracts.sol\":1141:1151  _msgSender */\n              tag_190\n                /* \"AllContracts.sol\":1141:1153  _msgSender() */\n              jump\t// in\n            tag_196:\n                /* \"AllContracts.sol\":1131:1153  _owner == _msgSender() */\n              0xffffffffffffffffffffffffffffffffffffffff\n              and\n                /* \"AllContracts.sol\":1131:1137  _owner */\n              0x03\n              0x00\n              swap1\n              sload\n              swap1\n              0x0100\n              exp\n              swap1\n              div\n              0xffffffffffffffffffffffffffffffffffffffff\n              and\n                /* \"AllContracts.sol\":1131:1153  _owner == _msgSender() */\n              0xffffffffffffffffffffffffffffffffffffffff\n              and\n              eq\n                /* \"AllContracts.sol\":1123:1190  require(_owner == _msgSender(), \"Ownable: caller is not the owner\") */\n              tag_197\n              jumpi\n              mload(0x40)\n              0x08c379a000000000000000000000000000000000000000000000000000000000\n              dup2\n              mstore\n              0x04\n              add\n              dup1\n              dup1\n              0x20\n              add\n              dup3\n              dup2\n              sub\n              dup3\n              mstore\n              0x20\n              dup2\n              mstore\n              0x20\n              add\n              dup1\n              0x4f776e61626c653a2063616c6c6572206973206e6f7420746865206f776e6572\n              dup2\n              mstore\n              pop\n              0x20\n              add\n              swap2\n              pop\n              pop\n              mload(0x40)\n              dup1\n              swap2\n              sub\n              swap1\n              revert\n            tag_197:\n                /* \"AllContracts.sol\":12583:12590  _payout */\n              dup1\n                /* \"AllContracts.sol\":12574:12580  payout */\n              0x16\n                /* \"AllContracts.sol\":12574:12590  payout = _payout */\n              dup2\n              swap1\n              sstore\n              pop\n                /* \"AllContracts.sol\":12514:12597  function setPayout(uint _payout) public onlyOwner {... */\n              pop\n              jump\t// out\n                /* \"AllContracts.sol\":11998:12116  function setVRFCoordinator(address _vrfCoordinator) public onlyOwner {... */\n            tag_85:\n                /* \"AllContracts.sol\":1141:1153  _msgSender() */\n              tag_200\n                /* \"AllContracts.sol\":1141:1151  _msgSender */\n              tag_190\n                /* \"AllContracts.sol\":1141:1153  _msgSender() */\n              jump\t// in\n            tag_200:\n                /* \"AllContracts.sol\":1131:1153  _owner == _msgSender() */\n              0xffffffffffffffffffffffffffffffffffffffff\n              and\n                /* \"AllContracts.sol\":1131:1137  _owner */\n              0x03\n              0x00\n              swap1\n              sload\n              swap1\n              0x0100\n              exp\n              swap1\n              div\n              0xffffffffffffffffffffffffffffffffffffffff\n              and\n                /* \"AllContracts.sol\":1131:1153  _owner == _msgSender() */\n              0xffffffffffffffffffffffffffffffffffffffff\n              and\n              eq\n                /* \"AllContracts.sol\":1123:1190  require(_owner == _msgSender(), \"Ownable: caller is not the owner\") */\n              tag_201\n              jumpi\n              mload(0x40)\n              0x08c379a000000000000000000000000000000000000000000000000000000000\n              dup2\n              mstore\n              0x04\n              add\n              dup1\n              dup1\n              0x20\n              add\n              dup3\n              dup2\n              sub\n              dup3\n              mstore\n              0x20\n              dup2\n              mstore\n              0x20\n              add\n              dup1\n              0x4f776e61626c653a2063616c6c6572206973206e6f7420746865206f776e6572\n              dup2\n              mstore\n              pop\n              0x20\n              add\n              swap2\n              pop\n              pop\n              mload(0x40)\n              dup1\n              swap2\n              sub\n              swap1\n              revert\n            tag_201:\n                /* \"AllContracts.sol\":12094:12109  _vrfCoordinator */\n              dup1\n                /* \"AllContracts.sol\":12077:12091  vrfCoordinator */\n              0x01\n              0x00\n                /* \"AllContracts.sol\":12077:12109  vrfCoordinator = _vrfCoordinator */\n              0x0100\n              exp\n              dup2\n              sload\n              dup2\n              0xffffffffffffffffffffffffffffffffffffffff\n              mul\n              not\n              and\n              swap1\n              dup4\n              0xffffffffffffffffffffffffffffffffffffffff\n              and\n              mul\n              or\n              swap1\n              sstore\n              pop\n                /* \"AllContracts.sol\":11998:12116  function setVRFCoordinator(address _vrfCoordinator) public onlyOwner {... */\n              pop\n              jump\t// out\n                /* \"AllContracts.sol\":7615:7719  function getLinkBalance() public view returns(uint){... */\n            tag_88:\n                /* \"AllContracts.sol\":7661:7665  uint */\n              0x00\n                /* \"AllContracts.sol\":7683:7687  LINK */\n              dup1\n              0x00\n              swap1\n              sload\n              swap1\n              0x0100\n              exp\n              swap1\n              div\n              0xffffffffffffffffffffffffffffffffffffffff\n              and\n                /* \"AllContracts.sol\":7683:7697  LINK.balanceOf */\n              0xffffffffffffffffffffffffffffffffffffffff\n              and\n              0x70a08231\n                /* \"AllContracts.sol\":7706:7710  this */\n              address\n                /* \"AllContracts.sol\":7683:7712  LINK.balanceOf(address(this)) */\n              mload(0x40)\n              dup3\n              0xffffffff\n              and\n              0xe0\n              shl\n              dup2\n              mstore\n              0x04\n              add\n              dup1\n              dup3\n              0xffffffffffffffffffffffffffffffffffffffff\n              and\n              0xffffffffffffffffffffffffffffffffffffffff\n              and\n              dup2\n              mstore\n              0x20\n              add\n              swap2\n              pop\n              pop\n              0x20\n              mload(0x40)\n              dup1\n              dup4\n              sub\n              dup2\n              dup7\n              dup1\n              extcodesize\n              iszero\n                /* \"--CODEGEN--\":8:17   */\n              dup1\n                /* \"--CODEGEN--\":5:7   */\n              iszero\n              tag_204\n              jumpi\n                /* \"--CODEGEN--\":30:31   */\n              0x00\n                /* \"--CODEGEN--\":27:28   */\n              dup1\n                /* \"--CODEGEN--\":20:32   */\n              revert\n                /* \"--CODEGEN--\":5:7   */\n            tag_204:\n                /* \"AllContracts.sol\":7683:7712  LINK.balanceOf(address(this)) */\n              pop\n              gas\n              staticcall\n              iszero\n                /* \"--CODEGEN--\":8:17   */\n              dup1\n                /* \"--CODEGEN--\":5:7   */\n              iszero\n              tag_206\n              jumpi\n                /* \"--CODEGEN--\":45:61   */\n              returndatasize\n                /* \"--CODEGEN--\":42:43   */\n              0x00\n                /* \"--CODEGEN--\":39:40   */\n              dup1\n                /* \"--CODEGEN--\":24:62   */\n              returndatacopy\n                /* \"--CODEGEN--\":77:93   */\n              returndatasize\n                /* \"--CODEGEN--\":74:75   */\n              0x00\n                /* \"--CODEGEN--\":67:94   */\n              revert\n                /* \"--CODEGEN--\":5:7   */\n            tag_206:\n                /* \"AllContracts.sol\":7683:7712  LINK.balanceOf(address(this)) */\n              pop\n              pop\n              pop\n              pop\n              mload(0x40)\n              returndatasize\n                /* \"--CODEGEN--\":13:15   */\n              0x20\n                /* \"--CODEGEN--\":8:11   */\n              dup2\n                /* \"--CODEGEN--\":5:16   */\n              lt\n                /* \"--CODEGEN--\":2:4   */\n              iszero\n              tag_207\n              jumpi\n                /* \"--CODEGEN--\":29:30   */\n              0x00\n                /* \"--CODEGEN--\":26:27   */\n              dup1\n                /* \"--CODEGEN--\":19:31   */\n              revert\n                /* \"--CODEGEN--\":2:4   */\n            tag_207:\n                /* \"AllContracts.sol\":7683:7712  LINK.balanceOf(address(this)) */\n              dup2\n              add\n              swap1\n              dup1\n              dup1\n              mload\n              swap1\n              0x20\n              add\n              swap1\n              swap3\n              swap2\n              swap1\n              pop\n              pop\n              pop\n                /* \"AllContracts.sol\":7676:7712  return LINK.balanceOf(address(this)) */\n              swap1\n              pop\n                /* \"AllContracts.sol\":7615:7719  function getLinkBalance() public view returns(uint){... */\n              swap1\n              jump\t// out\n                /* \"AllContracts.sol\":9670:9928  function playGame(uint gameID) public {... */\n            tag_92:\n                /* \"AllContracts.sol\":9750:9755  false */\n              0x00\n                /* \"AllContracts.sol\":9726:9755  games[gameID].played == false */\n              iszero\n              iszero\n                /* \"AllContracts.sol\":9726:9731  games */\n              0x17\n                /* \"AllContracts.sol\":9726:9739  games[gameID] */\n              0x00\n                /* \"AllContracts.sol\":9732:9738  gameID */\n              dup4\n                /* \"AllContracts.sol\":9726:9739  games[gameID] */\n              dup2\n              mstore\n              0x20\n              add\n              swap1\n              dup2\n              mstore\n              0x20\n              add\n              0x00\n              keccak256\n                /* \"AllContracts.sol\":9726:9746  games[gameID].played */\n              0x05\n              add\n              0x00\n              swap1\n              sload\n              swap1\n              0x0100\n              exp\n              swap1\n              div\n              0xff\n              and\n                /* \"AllContracts.sol\":9726:9755  games[gameID].played == false */\n              iszero\n              iszero\n              eq\n                /* \"AllContracts.sol\":9718:9779  require(games[gameID].played == false, \"game already played\") */\n              tag_209\n              jumpi\n              mload(0x40)\n              0x08c379a000000000000000000000000000000000000000000000000000000000\n              dup2\n              mstore\n              0x04\n              add\n              dup1\n              dup1\n              0x20\n              add\n              dup3\n              dup2\n              sub\n              dup3\n              mstore\n              0x13\n              dup2\n              mstore\n              0x20\n              add\n              dup1\n              0x67616d6520616c726561647920706c6179656400000000000000000000000000\n              dup2\n              mstore\n              pop\n              0x20\n              add\n              swap2\n              pop\n              pop\n              mload(0x40)\n              dup1\n              swap2\n              sub\n              swap1\n              revert\n            tag_209:\n                /* \"AllContracts.sol\":9818:9827  uint seed */\n              0x00\n                /* \"AllContracts.sol\":9830:9835  12345 */\n              0x3039\n                /* \"AllContracts.sol\":9818:9835  uint seed = 12345 */\n              swap1\n              pop\n                /* \"AllContracts.sol\":9845:9858  bytes32 reqID */\n              0x00\n                /* \"AllContracts.sol\":9861:9882  getRandomNumber(seed) */\n              tag_210\n                /* \"AllContracts.sol\":9877:9881  seed */\n              dup3\n                /* \"AllContracts.sol\":9861:9876  getRandomNumber */\n              tag_156\n                /* \"AllContracts.sol\":9861:9882  getRandomNumber(seed) */\n              jump\t// in\n            tag_210:\n                /* \"AllContracts.sol\":9845:9882  bytes32 reqID = getRandomNumber(seed) */\n              swap1\n              pop\n                /* \"AllContracts.sol\":9915:9921  gameID */\n              dup3\n                /* \"AllContracts.sol\":9892:9905  _gameRequests */\n              0x18\n                /* \"AllContracts.sol\":9892:9912  _gameRequests[reqID] */\n              0x00\n                /* \"AllContracts.sol\":9906:9911  reqID */\n              dup4\n                /* \"AllContracts.sol\":9892:9912  _gameRequests[reqID] */\n              dup2\n              mstore\n              0x20\n              add\n              swap1\n              dup2\n              mstore\n              0x20\n              add\n              0x00\n              keccak256\n                /* \"AllContracts.sol\":9892:9921  _gameRequests[reqID] = gameID */\n              dup2\n              swap1\n              sstore\n              pop\n                /* \"AllContracts.sol\":9670:9928  function playGame(uint gameID) public {... */\n              pop\n              pop\n              pop\n              jump\t// out\n                /* \"AllContracts.sol\":6408:6444  address payable public payoutAddress */\n            tag_95:\n              0x15\n              0x00\n              swap1\n              sload\n              swap1\n              0x0100\n              exp\n              swap1\n              div\n              0xffffffffffffffffffffffffffffffffffffffff\n              and\n              dup2\n              jump\t// out\n                /* \"AllContracts.sol\":14523:14852  function testPlayGame(uint gameID, uint256 testRandomNumber) public {... */\n            tag_99:\n                /* \"AllContracts.sol\":14633:14638  false */\n              0x00\n                /* \"AllContracts.sol\":14609:14638  games[gameID].played == false */\n              iszero\n              iszero\n                /* \"AllContracts.sol\":14609:14614  games */\n              0x17\n                /* \"AllContracts.sol\":14609:14622  games[gameID] */\n              0x00\n                /* \"AllContracts.sol\":14615:14621  gameID */\n              dup5\n                /* \"AllContracts.sol\":14609:14622  games[gameID] */\n              dup2\n              mstore\n              0x20\n              add\n              swap1\n              dup2\n              mstore\n              0x20\n              add\n              0x00\n              keccak256\n                /* \"AllContracts.sol\":14609:14629  games[gameID].played */\n              0x05\n              add\n              0x00\n              swap1\n              sload\n              swap1\n              0x0100\n              exp\n              swap1\n              div\n              0xff\n              and\n                /* \"AllContracts.sol\":14609:14638  games[gameID].played == false */\n              iszero\n              iszero\n              eq\n                /* \"AllContracts.sol\":14601:14662  require(games[gameID].played == false, \"game already played\") */\n              tag_212\n              jumpi\n              mload(0x40)\n              0x08c379a000000000000000000000000000000000000000000000000000000000\n              dup2\n              mstore\n              0x04\n              add\n              dup1\n              dup1\n              0x20\n              add\n              dup3\n              dup2\n              sub\n              dup3\n              mstore\n              0x13\n              dup2\n              mstore\n              0x20\n              add\n              dup1\n              0x67616d6520616c726561647920706c6179656400000000000000000000000000\n              dup2\n              mstore\n              pop\n              0x20\n              add\n              swap2\n              pop\n              pop\n              mload(0x40)\n              dup1\n              swap2\n              sub\n              swap1\n              revert\n            tag_212:\n                /* \"AllContracts.sol\":14672:14685  bytes32 reqID */\n              0x00\n                /* \"AllContracts.sol\":14715:14718  now */\n              timestamp\n                /* \"AllContracts.sol\":14720:14736  block.difficulty */\n              difficulty\n                /* \"AllContracts.sol\":14738:14748  msg.sender */\n              caller\n                /* \"AllContracts.sol\":14698:14749  abi.encodePacked(now, block.difficulty, msg.sender) */\n              add(0x20, mload(0x40))\n              dup1\n              dup5\n              dup2\n              mstore\n              0x20\n              add\n              dup4\n              dup2\n              mstore\n              0x20\n              add\n              dup3\n              0xffffffffffffffffffffffffffffffffffffffff\n              and\n              0xffffffffffffffffffffffffffffffffffffffff\n              and\n              0x60\n              shl\n              dup2\n              mstore\n              0x14\n              add\n              swap4\n              pop\n              pop\n              pop\n              pop\n              mload(0x40)\n                /* \"--CODEGEN--\":49:53   */\n              0x20\n                /* \"--CODEGEN--\":39:46   */\n              dup2\n                /* \"--CODEGEN--\":30:37   */\n              dup4\n                /* \"--CODEGEN--\":26:47   */\n              sub\n                /* \"--CODEGEN--\":22:54   */\n              sub\n                /* \"--CODEGEN--\":13:20   */\n              dup2\n                /* \"--CODEGEN--\":6:55   */\n              mstore\n                /* \"AllContracts.sol\":14698:14749  abi.encodePacked(now, block.difficulty, msg.sender) */\n              swap1\n              0x40\n              mstore\n                /* \"AllContracts.sol\":14688:14750  keccak256(abi.encodePacked(now, block.difficulty, msg.sender)) */\n              dup1\n              mload\n              swap1\n              0x20\n              add\n              keccak256\n                /* \"AllContracts.sol\":14672:14750  bytes32 reqID = keccak256(abi.encodePacked(now, block.difficulty, msg.sender)) */\n              swap1\n              pop\n                /* \"AllContracts.sol\":14783:14789  gameID */\n              dup3\n                /* \"AllContracts.sol\":14760:14773  _gameRequests */\n              0x18\n                /* \"AllContracts.sol\":14760:14780  _gameRequests[reqID] */\n              0x00\n                /* \"AllContracts.sol\":14774:14779  reqID */\n              dup4\n                /* \"AllContracts.sol\":14760:14780  _gameRequests[reqID] */\n              dup2\n              mstore\n              0x20\n              add\n              swap1\n              dup2\n              mstore\n              0x20\n              add\n              0x00\n              keccak256\n                /* \"AllContracts.sol\":14760:14789  _gameRequests[reqID] = gameID */\n              dup2\n              swap1\n              sstore\n              pop\n                /* \"AllContracts.sol\":14799:14845  testFulfillRandomness(reqID, testRandomNumber) */\n              tag_213\n                /* \"AllContracts.sol\":14821:14826  reqID */\n              dup2\n                /* \"AllContracts.sol\":14828:14844  testRandomNumber */\n              dup4\n                /* \"AllContracts.sol\":14799:14820  testFulfillRandomness */\n              tag_214\n                /* \"AllContracts.sol\":14799:14845  testFulfillRandomness(reqID, testRandomNumber) */\n              jump\t// in\n            tag_213:\n                /* \"AllContracts.sol\":14523:14852  function testPlayGame(uint gameID, uint256 testRandomNumber) public {... */\n              pop\n              pop\n              pop\n              jump\t// out\n                /* \"AllContracts.sol\":6450:6468  uint public payout */\n            tag_102:\n              sload(0x16)\n              dup2\n              jump\t// out\n                /* \"AllContracts.sol\":6347:6372  uint public _unplayedBets */\n            tag_105:\n              sload(0x13)\n              dup2\n              jump\t// out\n                /* \"AllContracts.sol\":1550:1695  function renounceOwnership() public virtual onlyOwner {... */\n            tag_108:\n                /* \"AllContracts.sol\":1141:1153  _msgSender() */\n              tag_216\n                /* \"AllContracts.sol\":1141:1151  _msgSender */\n              tag_190\n                /* \"AllContracts.sol\":1141:1153  _msgSender() */\n              jump\t// in\n            tag_216:\n                /* \"AllContracts.sol\":1131:1153  _owner == _msgSender() */\n              0xffffffffffffffffffffffffffffffffffffffff\n              and\n                /* \"AllContracts.sol\":1131:1137  _owner */\n              0x03\n              0x00\n              swap1\n              sload\n              swap1\n              0x0100\n              exp\n              swap1\n              div\n              0xffffffffffffffffffffffffffffffffffffffff\n              and\n                /* \"AllContracts.sol\":1131:1153  _owner == _msgSender() */\n              0xffffffffffffffffffffffffffffffffffffffff\n              and\n              eq\n                /* \"AllContracts.sol\":1123:1190  require(_owner == _msgSender(), \"Ownable: caller is not the owner\") */\n              tag_217\n              jumpi\n              mload(0x40)\n              0x08c379a000000000000000000000000000000000000000000000000000000000\n              dup2\n              mstore\n              0x04\n              add\n              dup1\n              dup1\n              0x20\n              add\n              dup3\n              dup2\n              sub\n              dup3\n              mstore\n              0x20\n              dup2\n              mstore\n              0x20\n              add\n              dup1\n              0x4f776e61626c653a2063616c6c6572206973206e6f7420746865206f776e6572\n              dup2\n              mstore\n              pop\n              0x20\n              add\n              swap2\n              pop\n              pop\n              mload(0x40)\n              dup1\n              swap2\n              sub\n              swap1\n              revert\n            tag_217:\n                /* \"AllContracts.sol\":1656:1657  0 */\n              0x00\n                /* \"AllContracts.sol\":1619:1659  OwnershipTransferred(_owner, address(0)) */\n              0xffffffffffffffffffffffffffffffffffffffff\n              and\n                /* \"AllContracts.sol\":1640:1646  _owner */\n              0x03\n              0x00\n              swap1\n              sload\n              swap1\n              0x0100\n              exp\n              swap1\n              div\n              0xffffffffffffffffffffffffffffffffffffffff\n              and\n                /* \"AllContracts.sol\":1619:1659  OwnershipTransferred(_owner, address(0)) */\n              0xffffffffffffffffffffffffffffffffffffffff\n              and\n              0x8be0079c531659141344cd1fd0a4f28419497f9722a3daafe3b4186f6b6457e0\n              mload(0x40)\n              mload(0x40)\n              dup1\n              swap2\n              sub\n              swap1\n              log3\n                /* \"AllContracts.sol\":1686:1687  0 */\n              0x00\n                /* \"AllContracts.sol\":1669:1675  _owner */\n              0x03\n              0x00\n                /* \"AllContracts.sol\":1669:1688  _owner = address(0) */\n              0x0100\n              exp\n              dup2\n              sload\n              dup2\n              0xffffffffffffffffffffffffffffffffffffffff\n              mul\n              not\n              and\n              swap1\n              dup4\n              0xffffffffffffffffffffffffffffffffffffffff\n              and\n              mul\n              or\n              swap1\n              sstore\n              pop\n                /* \"AllContracts.sol\":1550:1695  function renounceOwnership() public virtual onlyOwner {... */\n              jump\t// out\n                /* \"AllContracts.sol\":6562:6607  mapping(bytes32 => uint) public _gameRequests */\n            tag_112:\n              mstore(0x20, 0x18)\n              dup1\n              0x00\n              mstore\n              keccak256(0x00, 0x40)\n              0x00\n              swap2\n              pop\n              swap1\n              pop\n              sload\n              dup2\n              jump\t// out\n                /* \"AllContracts.sol\":12336:12419  function setMaxBet(uint _maxBet) public onlyOwner {... */\n            tag_116:\n                /* \"AllContracts.sol\":1141:1153  _msgSender() */\n              tag_220\n                /* \"AllContracts.sol\":1141:1151  _msgSender */\n              tag_190\n                /* \"AllContracts.sol\":1141:1153  _msgSender() */\n              jump\t// in\n            tag_220:\n                /* \"AllContracts.sol\":1131:1153  _owner == _msgSender() */\n              0xffffffffffffffffffffffffffffffffffffffff\n              and\n                /* \"AllContracts.sol\":1131:1137  _owner */\n              0x03\n              0x00\n              swap1\n              sload\n              swap1\n              0x0100\n              exp\n              swap1\n              div\n              0xffffffffffffffffffffffffffffffffffffffff\n              and\n                /* \"AllContracts.sol\":1131:1153  _owner == _msgSender() */\n              0xffffffffffffffffffffffffffffffffffffffff\n              and\n              eq\n                /* \"AllContracts.sol\":1123:1190  require(_owner == _msgSender(), \"Ownable: caller is not the owner\") */\n              tag_221\n              jumpi\n              mload(0x40)\n              0x08c379a000000000000000000000000000000000000000000000000000000000\n              dup2\n              mstore\n              0x04\n              add\n              dup1\n              dup1\n              0x20\n              add\n              dup3\n              dup2\n              sub\n              dup3\n              mstore\n              0x20\n              dup2\n              mstore\n              0x20\n              add\n              dup1\n              0x4f776e61626c653a2063616c6c6572206973206e6f7420746865206f776e6572\n              dup2\n              mstore\n              pop\n              0x20\n              add\n              swap2\n              pop\n              pop\n              mload(0x40)\n              dup1\n              swap2\n              sub\n              swap1\n              revert\n            tag_221:\n                /* \"AllContracts.sol\":12405:12412  _maxBet */\n              dup1\n                /* \"AllContracts.sol\":12396:12402  maxBet */\n              0x11\n                /* \"AllContracts.sol\":12396:12412  maxBet = _maxBet */\n              dup2\n              swap1\n              sstore\n              pop\n                /* \"AllContracts.sol\":12336:12419  function setMaxBet(uint _maxBet) public onlyOwner {... */\n              pop\n              jump\t// out\n                /* \"AllContracts.sol\":12425:12508  function setMinBet(uint _minBet) public onlyOwner {... */\n            tag_120:\n                /* \"AllContracts.sol\":1141:1153  _msgSender() */\n              tag_224\n                /* \"AllContracts.sol\":1141:1151  _msgSender */\n              tag_190\n                /* \"AllContracts.sol\":1141:1153  _msgSender() */\n              jump\t// in\n            tag_224:\n                /* \"AllContracts.sol\":1131:1153  _owner == _msgSender() */\n              0xffffffffffffffffffffffffffffffffffffffff\n              and\n                /* \"AllContracts.sol\":1131:1137  _owner */\n              0x03\n              0x00\n              swap1\n              sload\n              swap1\n              0x0100\n              exp\n              swap1\n              div\n              0xffffffffffffffffffffffffffffffffffffffff\n              and\n                /* \"AllContracts.sol\":1131:1153  _owner == _msgSender() */\n              0xffffffffffffffffffffffffffffffffffffffff\n              and\n              eq\n                /* \"AllContracts.sol\":1123:1190  require(_owner == _msgSender(), \"Ownable: caller is not the owner\") */\n              tag_225\n              jumpi\n              mload(0x40)\n              0x08c379a000000000000000000000000000000000000000000000000000000000\n              dup2\n              mstore\n              0x04\n              add\n              dup1\n              dup1\n              0x20\n              add\n              dup3\n              dup2\n              sub\n              dup3\n              mstore\n              0x20\n              dup2\n              mstore\n              0x20\n              add\n              dup1\n              0x4f776e61626c653a2063616c6c6572206973206e6f7420746865206f776e6572\n              dup2\n              mstore\n              pop\n              0x20\n              add\n              swap2\n              pop\n              pop\n              mload(0x40)\n              dup1\n              swap2\n              sub\n              swap1\n              revert\n            tag_225:\n                /* \"AllContracts.sol\":12494:12501  _minBet */\n              dup1\n                /* \"AllContracts.sol\":12485:12491  minBet */\n              0x12\n                /* \"AllContracts.sol\":12485:12501  minBet = _minBet */\n              dup2\n              swap1\n              sstore\n              pop\n                /* \"AllContracts.sol\":12425:12508  function setMinBet(uint _minBet) public onlyOwner {... */\n              pop\n              jump\t// out\n                /* \"AllContracts.sol\":927:1004  function owner() public view returns (address) {... */\n            tag_123:\n                /* \"AllContracts.sol\":965:972  address */\n              0x00\n                /* \"AllContracts.sol\":991:997  _owner */\n              0x03\n              0x00\n              swap1\n              sload\n              swap1\n              0x0100\n              exp\n              swap1\n              div\n              0xffffffffffffffffffffffffffffffffffffffff\n              and\n                /* \"AllContracts.sol\":984:997  return _owner */\n              swap1\n              pop\n                /* \"AllContracts.sol\":927:1004  function owner() public view returns (address) {... */\n              swap1\n              jump\t// out\n                /* \"AllContracts.sol\":5522:5729  function rawFulfillRandomness(bytes32 requestId, uint256 randomness) external {... */\n            tag_127:\n                /* \"AllContracts.sol\":5628:5642  vrfCoordinator */\n              0x01\n              0x00\n              swap1\n              sload\n              swap1\n              0x0100\n              exp\n              swap1\n              div\n              0xffffffffffffffffffffffffffffffffffffffff\n              and\n                /* \"AllContracts.sol\":5614:5642  msg.sender == vrfCoordinator */\n              0xffffffffffffffffffffffffffffffffffffffff\n              and\n                /* \"AllContracts.sol\":5614:5624  msg.sender */\n              caller\n                /* \"AllContracts.sol\":5614:5642  msg.sender == vrfCoordinator */\n              0xffffffffffffffffffffffffffffffffffffffff\n              and\n              eq\n                /* \"AllContracts.sol\":5606:5678  require(msg.sender == vrfCoordinator, \"Only VRFCoordinator can fulfill\") */\n              tag_229\n              jumpi\n              mload(0x40)\n              0x08c379a000000000000000000000000000000000000000000000000000000000\n              dup2\n              mstore\n              0x04\n              add\n              dup1\n              dup1\n              0x20\n              add\n              dup3\n              dup2\n              sub\n              dup3\n              mstore\n              0x1f\n              dup2\n              mstore\n              0x20\n              add\n              dup1\n              0x4f6e6c7920565246436f6f7264696e61746f722063616e2066756c66696c6c00\n              dup2\n              mstore\n              pop\n              0x20\n              add\n              swap2\n              pop\n              pop\n              mload(0x40)\n              dup1\n              swap2\n              sub\n              swap1\n              revert\n            tag_229:\n                /* \"AllContracts.sol\":5684:5724  fulfillRandomness(requestId, randomness) */\n              tag_230\n                /* \"AllContracts.sol\":5702:5711  requestId */\n              dup3\n                /* \"AllContracts.sol\":5713:5723  randomness */\n              dup3\n                /* \"AllContracts.sol\":5684:5701  fulfillRandomness */\n              tag_231\n                /* \"AllContracts.sol\":5684:5724  fulfillRandomness(requestId, randomness) */\n              jump\t// in\n            tag_230:\n                /* \"AllContracts.sol\":5522:5729  function rawFulfillRandomness(bytes32 requestId, uint256 randomness) external {... */\n              pop\n              pop\n              jump\t// out\n                /* \"AllContracts.sol\":6323:6341  uint public minBet */\n            tag_130:\n              sload(0x12)\n              dup2\n              jump\t// out\n                /* \"AllContracts.sol\":12122:12212  function setKeyHash(bytes32 _keyHash) public onlyOwner {... */\n            tag_134:\n                /* \"AllContracts.sol\":1141:1153  _msgSender() */\n              tag_233\n                /* \"AllContracts.sol\":1141:1151  _msgSender */\n              tag_190\n                /* \"AllContracts.sol\":1141:1153  _msgSender() */\n              jump\t// in\n            tag_233:\n                /* \"AllContracts.sol\":1131:1153  _owner == _msgSender() */\n              0xffffffffffffffffffffffffffffffffffffffff\n              and\n                /* \"AllContracts.sol\":1131:1137  _owner */\n              0x03\n              0x00\n              swap1\n              sload\n              swap1\n              0x0100\n              exp\n              swap1\n              div\n              0xffffffffffffffffffffffffffffffffffffffff\n              and\n                /* \"AllContracts.sol\":1131:1153  _owner == _msgSender() */\n              0xffffffffffffffffffffffffffffffffffffffff\n              and\n              eq\n                /* \"AllContracts.sol\":1123:1190  require(_owner == _msgSender(), \"Ownable: caller is not the owner\") */\n              tag_234\n              jumpi\n              mload(0x40)\n              0x08c379a000000000000000000000000000000000000000000000000000000000\n              dup2\n              mstore\n              0x04\n              add\n              dup1\n              dup1\n              0x20\n              add\n              dup3\n              dup2\n              sub\n              dup3\n              mstore\n              0x20\n              dup2\n              mstore\n              0x20\n              add\n              dup1\n              0x4f776e61626c653a2063616c6c6572206973206e6f7420746865206f776e6572\n              dup2\n              mstore\n              pop\n              0x20\n              add\n              swap2\n              pop\n              pop\n              mload(0x40)\n              dup1\n              swap2\n              sub\n              swap1\n              revert\n            tag_234:\n                /* \"AllContracts.sol\":12197:12205  _keyHash */\n              dup1\n                /* \"AllContracts.sol\":12187:12194  keyHash */\n              0x04\n                /* \"AllContracts.sol\":12187:12205  keyHash = _keyHash */\n              dup2\n              swap1\n              sstore\n              pop\n                /* \"AllContracts.sol\":12122:12212  function setKeyHash(bytes32 _keyHash) public onlyOwner {... */\n              pop\n              jump\t// out\n                /* \"AllContracts.sol\":6378:6402  uint public _currentGame */\n            tag_137:\n              sload(0x14)\n              dup2\n              jump\t// out\n                /* \"AllContracts.sol\":5307:5374  mapping(bytes32 /* keyHash */ => uint256 /* nonce */) public nonces */\n            tag_141:\n              mstore(0x20, 0x02)\n              dup1\n              0x00\n              mstore\n              keccak256(0x00, 0x40)\n              0x00\n              swap2\n              pop\n              swap1\n              pop\n              sload\n              dup2\n              jump\t// out\n                /* \"AllContracts.sol\":12218:12330  function setLINK(address _linkAddress) public onlyOwner {... */\n            tag_145:\n                /* \"AllContracts.sol\":1141:1153  _msgSender() */\n              tag_237\n                /* \"AllContracts.sol\":1141:1151  _msgSender */\n              tag_190\n                /* \"AllContracts.sol\":1141:1153  _msgSender() */\n              jump\t// in\n            tag_237:\n                /* \"AllContracts.sol\":1131:1153  _owner == _msgSender() */\n              0xffffffffffffffffffffffffffffffffffffffff\n              and\n                /* \"AllContracts.sol\":1131:1137  _owner */\n              0x03\n              0x00\n              swap1\n              sload\n              swap1\n              0x0100\n              exp\n              swap1\n              div\n              0xffffffffffffffffffffffffffffffffffffffff\n              and\n                /* \"AllContracts.sol\":1131:1153  _owner == _msgSender() */\n              0xffffffffffffffffffffffffffffffffffffffff\n              and\n              eq\n                /* \"AllContracts.sol\":1123:1190  require(_owner == _msgSender(), \"Ownable: caller is not the owner\") */\n              tag_238\n              jumpi\n              mload(0x40)\n              0x08c379a000000000000000000000000000000000000000000000000000000000\n              dup2\n              mstore\n              0x04\n              add\n              dup1\n              dup1\n              0x20\n              add\n              dup3\n              dup2\n              sub\n              dup3\n              mstore\n              0x20\n              dup2\n              mstore\n              0x20\n              add\n              dup1\n              0x4f776e61626c653a2063616c6c6572206973206e6f7420746865206f776e6572\n              dup2\n              mstore\n              pop\n              0x20\n              add\n              swap2\n              pop\n              pop\n              mload(0x40)\n              dup1\n              swap2\n              sub\n              swap1\n              revert\n            tag_238:\n                /* \"AllContracts.sol\":12310:12322  _linkAddress */\n              dup1\n                /* \"AllContracts.sol\":12284:12288  LINK */\n              0x00\n              dup1\n                /* \"AllContracts.sol\":12284:12323  LINK = LinkTokenInterface(_linkAddress) */\n              0x0100\n              exp\n              dup2\n              sload\n              dup2\n              0xffffffffffffffffffffffffffffffffffffffff\n              mul\n              not\n              and\n              swap1\n              dup4\n              0xffffffffffffffffffffffffffffffffffffffff\n              and\n              mul\n              or\n              swap1\n              sstore\n              pop\n                /* \"AllContracts.sol\":12218:12330  function setLINK(address _linkAddress) public onlyOwner {... */\n              pop\n              jump\t// out\n                /* \"AllContracts.sol\":11283:11746  function requestRefund(uint gameID) public{... */\n            tag_149:\n                /* \"AllContracts.sol\":11335:11349  Game storage g */\n              0x00\n                /* \"AllContracts.sol\":11352:11357  games */\n              0x17\n                /* \"AllContracts.sol\":11352:11365  games[gameID] */\n              0x00\n                /* \"AllContracts.sol\":11358:11364  gameID */\n              dup4\n                /* \"AllContracts.sol\":11352:11365  games[gameID] */\n              dup2\n              mstore\n              0x20\n              add\n              swap1\n              dup2\n              mstore\n              0x20\n              add\n              0x00\n              keccak256\n                /* \"AllContracts.sol\":11335:11365  Game storage g = games[gameID] */\n              swap1\n              pop\n                /* \"AllContracts.sol\":11395:11400  false */\n              0x00\n                /* \"AllContracts.sol\":11383:11400  g.played == false */\n              iszero\n              iszero\n                /* \"AllContracts.sol\":11383:11384  g */\n              dup2\n                /* \"AllContracts.sol\":11383:11391  g.played */\n              0x05\n              add\n              0x00\n              swap1\n              sload\n              swap1\n              0x0100\n              exp\n              swap1\n              div\n              0xff\n              and\n                /* \"AllContracts.sol\":11383:11400  g.played == false */\n              iszero\n              iszero\n              eq\n                /* \"AllContracts.sol\":11375:11447  require(g.played == false, \"Game already complete. No refund possible.\") */\n              tag_241\n              jumpi\n              mload(0x40)\n              0x08c379a000000000000000000000000000000000000000000000000000000000\n              dup2\n              mstore\n              0x04\n              add\n              dup1\n              dup1\n              0x20\n              add\n              dup3\n              dup2\n              sub\n              dup3\n              mstore\n              0x2a\n              dup2\n              mstore\n              0x20\n              add\n              dup1\n              data_c34c85fa0e0680ac47dc2c21fdf93b1adcc71d9a1a3b3b1788b881c3f4f390ac\n              0x2a\n              swap2\n              codecopy\n              0x40\n              add\n              swap2\n              pop\n              pop\n              mload(0x40)\n              dup1\n              swap2\n              sub\n              swap1\n              revert\n            tag_241:\n                /* \"AllContracts.sol\":11490:11491  g */\n              dup1\n                /* \"AllContracts.sol\":11490:11495  g.bet */\n              0x02\n              add\n              sload\n                /* \"AllContracts.sol\":11465:11486  address(this).balance */\n              selfbalance\n                /* \"AllContracts.sol\":11465:11495  address(this).balance >= g.bet */\n              lt\n              iszero\n                /* \"AllContracts.sol\":11457:11549  require(address(this).balance >= g.bet, \"Contract balance too low. Please try again later.\") */\n              tag_242\n              jumpi\n              mload(0x40)\n              0x08c379a000000000000000000000000000000000000000000000000000000000\n              dup2\n              mstore\n              0x04\n              add\n              dup1\n              dup1\n              0x20\n              add\n              dup3\n              dup2\n              sub\n              dup3\n              mstore\n              0x31\n              dup2\n              mstore\n              0x20\n              add\n              dup1\n              data_b719f220e413600c7e92ed4736b96c6908e0428122610fe965fcc60eefeedbad\n              0x31\n              swap2\n              codecopy\n              0x40\n              add\n              swap2\n              pop\n              pop\n              mload(0x40)\n              dup1\n              swap2\n              sub\n              swap1\n              revert\n            tag_242:\n                /* \"AllContracts.sol\":11570:11574  true */\n              0x01\n                /* \"AllContracts.sol\":11559:11560  g */\n              dup2\n                /* \"AllContracts.sol\":11559:11567  g.played */\n              0x05\n              add\n              0x00\n                /* \"AllContracts.sol\":11559:11574  g.played = true */\n              0x0100\n              exp\n              dup2\n              sload\n              dup2\n              0xff\n              mul\n              not\n              and\n              swap1\n              dup4\n              iszero\n              iszero\n              mul\n              or\n              swap1\n              sstore\n              pop\n                /* \"AllContracts.sol\":11604:11605  g */\n              dup1\n                /* \"AllContracts.sol\":11604:11609  g.bet */\n              0x02\n              add\n              sload\n                /* \"AllContracts.sol\":11587:11600  _unplayedBets */\n              sload(0x13)\n                /* \"AllContracts.sol\":11587:11609  _unplayedBets >= g.bet */\n              lt\n                /* \"AllContracts.sol\":11584:11706  if(_unplayedBets >= g.bet) {... */\n              tag_243\n              jumpi\n                /* \"AllContracts.sol\":11642:11643  g */\n              dup1\n                /* \"AllContracts.sol\":11642:11647  g.bet */\n              0x02\n              add\n              sload\n                /* \"AllContracts.sol\":11625:11638  _unplayedBets */\n              0x13\n              0x00\n                /* \"AllContracts.sol\":11625:11647  _unplayedBets -= g.bet */\n              dup3\n              dup3\n              sload\n              sub\n              swap3\n              pop\n              pop\n              dup2\n              swap1\n              sstore\n              pop\n                /* \"AllContracts.sol\":11584:11706  if(_unplayedBets >= g.bet) {... */\n              jump(tag_244)\n            tag_243:\n                /* \"AllContracts.sol\":11694:11695  0 */\n              0x00\n                /* \"AllContracts.sol\":11678:11691  _unplayedBets */\n              0x13\n                /* \"AllContracts.sol\":11678:11695  _unplayedBets = 0 */\n              dup2\n              swap1\n              sstore\n              pop\n                /* \"AllContracts.sol\":11584:11706  if(_unplayedBets >= g.bet) {... */\n            tag_244:\n                /* \"AllContracts.sol\":11715:11716  g */\n              dup1\n                /* \"AllContracts.sol\":11715:11723  g.player */\n              0x01\n              add\n              0x00\n              swap1\n              sload\n              swap1\n              0x0100\n              exp\n              swap1\n              div\n              0xffffffffffffffffffffffffffffffffffffffff\n              and\n                /* \"AllContracts.sol\":11715:11732  g.player.transfer */\n              0xffffffffffffffffffffffffffffffffffffffff\n              and\n                /* \"AllContracts.sol\":11715:11739  g.player.transfer(g.bet) */\n              0x08fc\n                /* \"AllContracts.sol\":11733:11734  g */\n              dup3\n                /* \"AllContracts.sol\":11733:11738  g.bet */\n              0x02\n              add\n              sload\n                /* \"AllContracts.sol\":11715:11739  g.player.transfer(g.bet) */\n              swap1\n              dup2\n              iszero\n              mul\n              swap1\n              mload(0x40)\n              0x00\n              mload(0x40)\n              dup1\n              dup4\n              sub\n              dup2\n              dup6\n              dup9\n              dup9\n              call\n              swap4\n              pop\n              pop\n              pop\n              pop\n              iszero\n                /* \"--CODEGEN--\":8:17   */\n              dup1\n                /* \"--CODEGEN--\":5:7   */\n              iszero\n              tag_246\n              jumpi\n                /* \"--CODEGEN--\":45:61   */\n              returndatasize\n                /* \"--CODEGEN--\":42:43   */\n              0x00\n                /* \"--CODEGEN--\":39:40   */\n              dup1\n                /* \"--CODEGEN--\":24:62   */\n              returndatacopy\n                /* \"--CODEGEN--\":77:93   */\n              returndatasize\n                /* \"--CODEGEN--\":74:75   */\n              0x00\n                /* \"--CODEGEN--\":67:94   */\n              revert\n                /* \"--CODEGEN--\":5:7   */\n            tag_246:\n                /* \"AllContracts.sol\":11715:11739  g.player.transfer(g.bet) */\n              pop\n                /* \"AllContracts.sol\":11283:11746  function requestRefund(uint gameID) public{... */\n              pop\n              pop\n              jump\t// out\n                /* \"AllContracts.sol\":8704:9142  function placeBetFor(address payable player, uint pick) public payable {... */\n            tag_152:\n                /* \"AllContracts.sol\":8791:8812  betPayable(msg.value) */\n              tag_248\n                /* \"AllContracts.sol\":8802:8811  msg.value */\n              callvalue\n                /* \"AllContracts.sol\":8791:8801  betPayable */\n              tag_52\n                /* \"AllContracts.sol\":8791:8812  betPayable(msg.value) */\n              jump\t// in\n            tag_248:\n                /* \"AllContracts.sol\":8783:8871  require(betPayable(msg.value), \"Contract has insufficint funds to payout possible win.\") */\n              tag_249\n              jumpi\n              mload(0x40)\n              0x08c379a000000000000000000000000000000000000000000000000000000000\n              dup2\n              mstore\n              0x04\n              add\n              dup1\n              dup1\n              0x20\n              add\n              dup3\n              dup2\n              sub\n              dup3\n              mstore\n              0x36\n              dup2\n              mstore\n              0x20\n              add\n              dup1\n              data_588b68a2a6ccdc15b2dae26a385280edec71bed95b5b14a24b760c56e4f665d6\n              0x36\n              swap2\n              codecopy\n              0x40\n              add\n              swap2\n              pop\n              pop\n              mload(0x40)\n              dup1\n              swap2\n              sub\n              swap1\n              revert\n            tag_249:\n                /* \"AllContracts.sol\":8895:8902  maxPick */\n              sload(0x10)\n                /* \"AllContracts.sol\":8887:8891  pick */\n              dup2\n                /* \"AllContracts.sol\":8887:8902  pick <= maxPick */\n              gt\n              iszero\n                /* \"AllContracts.sol\":8879:8947  require(pick <= maxPick, \"Pick is too high. Choose a lower number.\") */\n              tag_250\n              jumpi\n              mload(0x40)\n              0x08c379a000000000000000000000000000000000000000000000000000000000\n              dup2\n              mstore\n              0x04\n              add\n              dup1\n              dup1\n              0x20\n              add\n              dup3\n              dup2\n              sub\n              dup3\n              mstore\n              0x28\n              dup2\n              mstore\n              0x20\n              add\n              dup1\n              data_104d4309dbdd0d693502d943a07623e5e639a80ec32910748a6b4f701d61cac8\n              0x28\n              swap2\n              codecopy\n              0x40\n              add\n              swap2\n              pop\n              pop\n              mload(0x40)\n              dup1\n              swap2\n              sub\n              swap1\n              revert\n            tag_250:\n                /* \"AllContracts.sol\":8963:8984  betInRange(msg.value) */\n              tag_251\n                /* \"AllContracts.sol\":8974:8983  msg.value */\n              callvalue\n                /* \"AllContracts.sol\":8963:8973  betInRange */\n              tag_174\n                /* \"AllContracts.sol\":8963:8984  betInRange(msg.value) */\n              jump\t// in\n            tag_251:\n                /* \"AllContracts.sol\":8955:9009  require(betInRange(msg.value),\"Outisde of bet range.\") */\n              tag_252\n              jumpi\n              mload(0x40)\n              0x08c379a000000000000000000000000000000000000000000000000000000000\n              dup2\n              mstore\n              0x04\n              add\n              dup1\n              dup1\n              0x20\n              add\n              dup3\n              dup2\n              sub\n              dup3\n              mstore\n              0x15\n              dup2\n              mstore\n              0x20\n              add\n              dup1\n              0x4f757469736465206f66206265742072616e67652e0000000000000000000000\n              dup2\n              mstore\n              pop\n              0x20\n              add\n              swap2\n              pop\n              pop\n              mload(0x40)\n              dup1\n              swap2\n              sub\n              swap1\n              revert\n            tag_252:\n                /* \"AllContracts.sol\":9034:9062  _unplayedBets.add(msg.value) */\n              tag_253\n                /* \"AllContracts.sol\":9052:9061  msg.value */\n              callvalue\n                /* \"AllContracts.sol\":9034:9047  _unplayedBets */\n              sload(0x13)\n                /* \"AllContracts.sol\":9034:9051  _unplayedBets.add */\n              tag_182\n              swap1\n                /* \"AllContracts.sol\":9034:9062  _unplayedBets.add(msg.value) */\n              swap2\n              swap1\n              0xffffffff\n              and\n              jump\t// in\n            tag_253:\n                /* \"AllContracts.sol\":9018:9031  _unplayedBets */\n              0x13\n                /* \"AllContracts.sol\":9018:9062  _unplayedBets = _unplayedBets.add(msg.value) */\n              dup2\n              swap1\n              sstore\n              pop\n                /* \"AllContracts.sol\":9070:9105  createGame(player, msg.value, pick) */\n              tag_254\n                /* \"AllContracts.sol\":9081:9087  player */\n              dup3\n                /* \"AllContracts.sol\":9089:9098  msg.value */\n              callvalue\n                /* \"AllContracts.sol\":9100:9104  pick */\n              dup4\n                /* \"AllContracts.sol\":9070:9080  createGame */\n              tag_255\n                /* \"AllContracts.sol\":9070:9105  createGame(player, msg.value, pick) */\n              jump\t// in\n            tag_254:\n                /* \"AllContracts.sol\":9113:9135  playGame(_currentGame) */\n              tag_256\n                /* \"AllContracts.sol\":9122:9134  _currentGame */\n              sload(0x14)\n                /* \"AllContracts.sol\":9113:9121  playGame */\n              tag_92\n                /* \"AllContracts.sol\":9113:9135  playGame(_currentGame) */\n              jump\t// in\n            tag_256:\n                /* \"AllContracts.sol\":8704:9142  function placeBetFor(address payable player, uint pick) public payable {... */\n              pop\n              pop\n              jump\t// out\n                /* \"AllContracts.sol\":9934:10142  function getRandomNumber(uint256 seed) public returns (bytes32 requestId) {... */\n            tag_156:\n                /* \"AllContracts.sol\":9989:10006  bytes32 requestId */\n              0x00\n                /* \"AllContracts.sol\":10058:10061  fee */\n              sload(0x05)\n                /* \"AllContracts.sol\":10026:10030  LINK */\n              0x00\n              dup1\n              swap1\n              sload\n              swap1\n              0x0100\n              exp\n              swap1\n              div\n              0xffffffffffffffffffffffffffffffffffffffff\n              and\n                /* \"AllContracts.sol\":10026:10040  LINK.balanceOf */\n              0xffffffffffffffffffffffffffffffffffffffff\n              and\n              0x70a08231\n                /* \"AllContracts.sol\":10049:10053  this */\n              address\n                /* \"AllContracts.sol\":10026:10055  LINK.balanceOf(address(this)) */\n              mload(0x40)\n              dup3\n              0xffffffff\n              and\n              0xe0\n              shl\n              dup2\n              mstore\n              0x04\n              add\n              dup1\n              dup3\n              0xffffffffffffffffffffffffffffffffffffffff\n              and\n              0xffffffffffffffffffffffffffffffffffffffff\n              and\n              dup2\n              mstore\n              0x20\n              add\n              swap2\n              pop\n              pop\n              0x20\n              mload(0x40)\n              dup1\n              dup4\n              sub\n              dup2\n              dup7\n              dup1\n              extcodesize\n              iszero\n                /* \"--CODEGEN--\":8:17   */\n              dup1\n                /* \"--CODEGEN--\":5:7   */\n              iszero\n              tag_258\n              jumpi\n                /* \"--CODEGEN--\":30:31   */\n              0x00\n                /* \"--CODEGEN--\":27:28   */\n              dup1\n                /* \"--CODEGEN--\":20:32   */\n              revert\n                /* \"--CODEGEN--\":5:7   */\n            tag_258:\n                /* \"AllContracts.sol\":10026:10055  LINK.balanceOf(address(this)) */\n              pop\n              gas\n              staticcall\n              iszero\n                /* \"--CODEGEN--\":8:17   */\n              dup1\n                /* \"--CODEGEN--\":5:7   */\n              iszero\n              tag_260\n              jumpi\n                /* \"--CODEGEN--\":45:61   */\n              returndatasize\n                /* \"--CODEGEN--\":42:43   */\n              0x00\n                /* \"--CODEGEN--\":39:40   */\n              dup1\n                /* \"--CODEGEN--\":24:62   */\n              returndatacopy\n                /* \"--CODEGEN--\":77:93   */\n              returndatasize\n                /* \"--CODEGEN--\":74:75   */\n              0x00\n                /* \"--CODEGEN--\":67:94   */\n              revert\n                /* \"--CODEGEN--\":5:7   */\n            tag_260:\n                /* \"AllContracts.sol\":10026:10055  LINK.balanceOf(address(this)) */\n              pop\n              pop\n              pop\n              pop\n              mload(0x40)\n              returndatasize\n                /* \"--CODEGEN--\":13:15   */\n              0x20\n                /* \"--CODEGEN--\":8:11   */\n              dup2\n                /* \"--CODEGEN--\":5:16   */\n              lt\n                /* \"--CODEGEN--\":2:4   */\n              iszero\n              tag_261\n              jumpi\n                /* \"--CODEGEN--\":29:30   */\n              0x00\n                /* \"--CODEGEN--\":26:27   */\n              dup1\n                /* \"--CODEGEN--\":19:31   */\n              revert\n                /* \"--CODEGEN--\":2:4   */\n            tag_261:\n                /* \"AllContracts.sol\":10026:10055  LINK.balanceOf(address(this)) */\n              dup2\n              add\n              swap1\n              dup1\n              dup1\n              mload\n              swap1\n              0x20\n              add\n              swap1\n              swap3\n              swap2\n              swap1\n              pop\n              pop\n              pop\n                /* \"AllContracts.sol\":10026:10061  LINK.balanceOf(address(this)) > fee */\n              gt\n                /* \"AllContracts.sol\":10018:10081  require(LINK.balanceOf(address(this)) > fee, \"Not enough LINK\") */\n              tag_262\n              jumpi\n              mload(0x40)\n              0x08c379a000000000000000000000000000000000000000000000000000000000\n              dup2\n              mstore\n              0x04\n              add\n              dup1\n              dup1\n              0x20\n              add\n              dup3\n              dup2\n              sub\n              dup3\n              mstore\n              0x0f\n              dup2\n              mstore\n              0x20\n              add\n              dup1\n              0x4e6f7420656e6f756768204c494e4b0000000000000000000000000000000000\n              dup2\n              mstore\n              pop\n              0x20\n              add\n              swap2\n              pop\n              pop\n              mload(0x40)\n              dup1\n              swap2\n              sub\n              swap1\n              revert\n            tag_262:\n                /* \"AllContracts.sol\":10098:10135  requestRandomness(keyHash, fee, seed) */\n              tag_263\n                /* \"AllContracts.sol\":10116:10123  keyHash */\n              sload(0x04)\n                /* \"AllContracts.sol\":10125:10128  fee */\n              sload(0x05)\n                /* \"AllContracts.sol\":10130:10134  seed */\n              dup5\n                /* \"AllContracts.sol\":10098:10115  requestRandomness */\n              tag_264\n                /* \"AllContracts.sol\":10098:10135  requestRandomness(keyHash, fee, seed) */\n              jump\t// in\n            tag_263:\n                /* \"AllContracts.sol\":10091:10135  return requestRandomness(keyHash, fee, seed) */\n              swap1\n              pop\n                /* \"AllContracts.sol\":9934:10142  function getRandomNumber(uint256 seed) public returns (bytes32 requestId) {... */\n              swap2\n              swap1\n              pop\n              jump\t// out\n                /* \"AllContracts.sol\":12731:13311  function closeMachine() public onlyOwner {... */\n            tag_159:\n                /* \"AllContracts.sol\":1141:1153  _msgSender() */\n              tag_266\n                /* \"AllContracts.sol\":1141:1151  _msgSender */\n              tag_190\n                /* \"AllContracts.sol\":1141:1153  _msgSender() */\n              jump\t// in\n            tag_266:\n                /* \"AllContracts.sol\":1131:1153  _owner == _msgSender() */\n              0xffffffffffffffffffffffffffffffffffffffff\n              and\n                /* \"AllContracts.sol\":1131:1137  _owner */\n              0x03\n              0x00\n              swap1\n              sload\n              swap1\n              0x0100\n              exp\n              swap1\n              div\n              0xffffffffffffffffffffffffffffffffffffffff\n              and\n                /* \"AllContracts.sol\":1131:1153  _owner == _msgSender() */\n              0xffffffffffffffffffffffffffffffffffffffff\n              and\n              eq\n                /* \"AllContracts.sol\":1123:1190  require(_owner == _msgSender(), \"Ownable: caller is not the owner\") */\n              tag_267\n              jumpi\n              mload(0x40)\n              0x08c379a000000000000000000000000000000000000000000000000000000000\n              dup2\n              mstore\n              0x04\n              add\n              dup1\n              dup1\n              0x20\n              add\n              dup3\n              dup2\n              sub\n              dup3\n              mstore\n              0x20\n              dup2\n              mstore\n              0x20\n              add\n              dup1\n              0x4f776e61626c653a2063616c6c6572206973206e6f7420746865206f776e6572\n              dup2\n              mstore\n              pop\n              0x20\n              add\n              swap2\n              pop\n              pop\n              mload(0x40)\n              dup1\n              swap2\n              sub\n              swap1\n              revert\n            tag_267:\n                /* \"AllContracts.sol\":12816:12829  _unplayedBets */\n              sload(0x13)\n                /* \"AllContracts.sol\":12792:12813  address(this).balance */\n              selfbalance\n                /* \"AllContracts.sol\":12792:12829  address(this).balance > _unplayedBets */\n              gt\n                /* \"AllContracts.sol\":12783:12830  require (address(this).balance > _unplayedBets) */\n              tag_269\n              jumpi\n              0x00\n              dup1\n              revert\n            tag_269:\n                /* \"AllContracts.sol\":13040:13069  uint availableContractBalance */\n              0x00\n                /* \"AllContracts.sol\":13072:13112  address(this).balance.sub(_unplayedBets) */\n              tag_270\n                /* \"AllContracts.sol\":13098:13111  _unplayedBets */\n              sload(0x13)\n                /* \"AllContracts.sol\":13072:13093  address(this).balance */\n              selfbalance\n                /* \"AllContracts.sol\":13072:13097  address(this).balance.sub */\n              tag_184\n              swap1\n                /* \"AllContracts.sol\":13072:13112  address(this).balance.sub(_unplayedBets) */\n              swap2\n              swap1\n              0xffffffff\n              and\n              jump\t// in\n            tag_270:\n                /* \"AllContracts.sol\":13040:13112  uint availableContractBalance = address(this).balance.sub(_unplayedBets) */\n              swap1\n              pop\n                /* \"AllContracts.sol\":13122:13135  payoutAddress */\n              0x15\n              0x00\n              swap1\n              sload\n              swap1\n              0x0100\n              exp\n              swap1\n              div\n              0xffffffffffffffffffffffffffffffffffffffff\n              and\n                /* \"AllContracts.sol\":13122:13144  payoutAddress.transfer */\n              0xffffffffffffffffffffffffffffffffffffffff\n              and\n                /* \"AllContracts.sol\":13122:13170  payoutAddress.transfer(availableContractBalance) */\n              0x08fc\n                /* \"AllContracts.sol\":13145:13169  availableContractBalance */\n              dup3\n                /* \"AllContracts.sol\":13122:13170  payoutAddress.transfer(availableContractBalance) */\n              swap1\n              dup2\n              iszero\n              mul\n              swap1\n              mload(0x40)\n              0x00\n              mload(0x40)\n              dup1\n              dup4\n              sub\n              dup2\n              dup6\n              dup9\n              dup9\n              call\n              swap4\n              pop\n              pop\n              pop\n              pop\n              iszero\n                /* \"--CODEGEN--\":8:17   */\n              dup1\n                /* \"--CODEGEN--\":5:7   */\n              iszero\n              tag_272\n              jumpi\n                /* \"--CODEGEN--\":45:61   */\n              returndatasize\n                /* \"--CODEGEN--\":42:43   */\n              0x00\n                /* \"--CODEGEN--\":39:40   */\n              dup1\n                /* \"--CODEGEN--\":24:62   */\n              returndatacopy\n                /* \"--CODEGEN--\":77:93   */\n              returndatasize\n                /* \"--CODEGEN--\":74:75   */\n              0x00\n                /* \"--CODEGEN--\":67:94   */\n              revert\n                /* \"--CODEGEN--\":5:7   */\n            tag_272:\n                /* \"AllContracts.sol\":13122:13170  payoutAddress.transfer(availableContractBalance) */\n              pop\n                /* \"AllContracts.sol\":13217:13218  0 */\n              0x00\n                /* \"AllContracts.sol\":13185:13189  LINK */\n              dup1\n              0x00\n              swap1\n              sload\n              swap1\n              0x0100\n              exp\n              swap1\n              div\n              0xffffffffffffffffffffffffffffffffffffffff\n              and\n                /* \"AllContracts.sol\":13185:13199  LINK.balanceOf */\n              0xffffffffffffffffffffffffffffffffffffffff\n              and\n              0x70a08231\n                /* \"AllContracts.sol\":13208:13212  this */\n              address\n                /* \"AllContracts.sol\":13185:13214  LINK.balanceOf(address(this)) */\n              mload(0x40)\n              dup3\n              0xffffffff\n              and\n              0xe0\n              shl\n              dup2\n              mstore\n              0x04\n              add\n              dup1\n              dup3\n              0xffffffffffffffffffffffffffffffffffffffff\n              and\n              0xffffffffffffffffffffffffffffffffffffffff\n              and\n              dup2\n              mstore\n              0x20\n              add\n              swap2\n              pop\n              pop\n              0x20\n              mload(0x40)\n              dup1\n              dup4\n              sub\n              dup2\n              dup7\n              dup1\n              extcodesize\n              iszero\n                /* \"--CODEGEN--\":8:17   */\n              dup1\n                /* \"--CODEGEN--\":5:7   */\n              iszero\n              tag_273\n              jumpi\n                /* \"--CODEGEN--\":30:31   */\n              0x00\n                /* \"--CODEGEN--\":27:28   */\n              dup1\n                /* \"--CODEGEN--\":20:32   */\n              revert\n                /* \"--CODEGEN--\":5:7   */\n            tag_273:\n                /* \"AllContracts.sol\":13185:13214  LINK.balanceOf(address(this)) */\n              pop\n              gas\n              staticcall\n              iszero\n                /* \"--CODEGEN--\":8:17   */\n              dup1\n                /* \"--CODEGEN--\":5:7   */\n              iszero\n              tag_275\n              jumpi\n                /* \"--CODEGEN--\":45:61   */\n              returndatasize\n                /* \"--CODEGEN--\":42:43   */\n              0x00\n                /* \"--CODEGEN--\":39:40   */\n              dup1\n                /* \"--CODEGEN--\":24:62   */\n              returndatacopy\n                /* \"--CODEGEN--\":77:93   */\n              returndatasize\n                /* \"--CODEGEN--\":74:75   */\n              0x00\n                /* \"--CODEGEN--\":67:94   */\n              revert\n                /* \"--CODEGEN--\":5:7   */\n            tag_275:\n                /* \"AllContracts.sol\":13185:13214  LINK.balanceOf(address(this)) */\n              pop\n              pop\n              pop\n              pop\n              mload(0x40)\n              returndatasize\n                /* \"--CODEGEN--\":13:15   */\n              0x20\n                /* \"--CODEGEN--\":8:11   */\n              dup2\n                /* \"--CODEGEN--\":5:16   */\n              lt\n                /* \"--CODEGEN--\":2:4   */\n              iszero\n              tag_276\n              jumpi\n                /* \"--CODEGEN--\":29:30   */\n              0x00\n                /* \"--CODEGEN--\":26:27   */\n              dup1\n                /* \"--CODEGEN--\":19:31   */\n              revert\n                /* \"--CODEGEN--\":2:4   */\n            tag_276:\n                /* \"AllContracts.sol\":13185:13214  LINK.balanceOf(address(this)) */\n              dup2\n              add\n              swap1\n              dup1\n              dup1\n              mload\n              swap1\n              0x20\n              add\n              swap1\n              swap3\n              swap2\n              swap1\n              pop\n              pop\n              pop\n                /* \"AllContracts.sol\":13185:13218  LINK.balanceOf(address(this)) > 0 */\n              gt\n                /* \"AllContracts.sol\":13181:13304  if (LINK.balanceOf(address(this)) > 0) {... */\n              iszero\n              tag_277\n              jumpi\n                /* \"AllContracts.sol\":13234:13238  LINK */\n              0x00\n              dup1\n              swap1\n              sload\n              swap1\n              0x0100\n              exp\n              swap1\n              div\n              0xffffffffffffffffffffffffffffffffffffffff\n              and\n                /* \"AllContracts.sol\":13234:13247  LINK.transfer */\n              0xffffffffffffffffffffffffffffffffffffffff\n              and\n              0xa9059cbb\n                /* \"AllContracts.sol\":13248:13261  payoutAddress */\n              0x15\n              0x00\n              swap1\n              sload\n              swap1\n              0x0100\n              exp\n              swap1\n              div\n              0xffffffffffffffffffffffffffffffffffffffff\n              and\n                /* \"AllContracts.sol\":13263:13267  LINK */\n              0x00\n              dup1\n              swap1\n              sload\n              swap1\n              0x0100\n              exp\n              swap1\n              div\n              0xffffffffffffffffffffffffffffffffffffffff\n              and\n                /* \"AllContracts.sol\":13263:13277  LINK.balanceOf */\n              0xffffffffffffffffffffffffffffffffffffffff\n              and\n              0x70a08231\n                /* \"AllContracts.sol\":13286:13290  this */\n              address\n                /* \"AllContracts.sol\":13263:13292  LINK.balanceOf(address(this)) */\n              mload(0x40)\n              dup3\n              0xffffffff\n              and\n              0xe0\n              shl\n              dup2\n              mstore\n              0x04\n              add\n              dup1\n              dup3\n              0xffffffffffffffffffffffffffffffffffffffff\n              and\n              0xffffffffffffffffffffffffffffffffffffffff\n              and\n              dup2\n              mstore\n              0x20\n              add\n              swap2\n              pop\n              pop\n              0x20\n              mload(0x40)\n              dup1\n              dup4\n              sub\n              dup2\n              dup7\n              dup1\n              extcodesize\n              iszero\n                /* \"--CODEGEN--\":8:17   */\n              dup1\n                /* \"--CODEGEN--\":5:7   */\n              iszero\n              tag_278\n              jumpi\n                /* \"--CODEGEN--\":30:31   */\n              0x00\n                /* \"--CODEGEN--\":27:28   */\n              dup1\n                /* \"--CODEGEN--\":20:32   */\n              revert\n                /* \"--CODEGEN--\":5:7   */\n            tag_278:\n                /* \"AllContracts.sol\":13263:13292  LINK.balanceOf(address(this)) */\n              pop\n              gas\n              staticcall\n              iszero\n                /* \"--CODEGEN--\":8:17   */\n              dup1\n                /* \"--CODEGEN--\":5:7   */\n              iszero\n              tag_280\n              jumpi\n                /* \"--CODEGEN--\":45:61   */\n              returndatasize\n                /* \"--CODEGEN--\":42:43   */\n              0x00\n                /* \"--CODEGEN--\":39:40   */\n              dup1\n                /* \"--CODEGEN--\":24:62   */\n              returndatacopy\n                /* \"--CODEGEN--\":77:93   */\n              returndatasize\n                /* \"--CODEGEN--\":74:75   */\n              0x00\n                /* \"--CODEGEN--\":67:94   */\n              revert\n                /* \"--CODEGEN--\":5:7   */\n            tag_280:\n                /* \"AllContracts.sol\":13263:13292  LINK.balanceOf(address(this)) */\n              pop\n              pop\n              pop\n              pop\n              mload(0x40)\n              returndatasize\n                /* \"--CODEGEN--\":13:15   */\n              0x20\n                /* \"--CODEGEN--\":8:11   */\n              dup2\n                /* \"--CODEGEN--\":5:16   */\n              lt\n                /* \"--CODEGEN--\":2:4   */\n              iszero\n              tag_281\n              jumpi\n                /* \"--CODEGEN--\":29:30   */\n              0x00\n                /* \"--CODEGEN--\":26:27   */\n              dup1\n                /* \"--CODEGEN--\":19:31   */\n              revert\n                /* \"--CODEGEN--\":2:4   */\n            tag_281:\n                /* \"AllContracts.sol\":13263:13292  LINK.balanceOf(address(this)) */\n              dup2\n              add\n              swap1\n              dup1\n              dup1\n              mload\n              swap1\n              0x20\n              add\n              swap1\n              swap3\n              swap2\n              swap1\n              pop\n              pop\n              pop\n                /* \"AllContracts.sol\":13234:13293  LINK.transfer(payoutAddress, LINK.balanceOf(address(this))) */\n              mload(0x40)\n              dup4\n              0xffffffff\n              and\n              0xe0\n              shl\n              dup2\n              mstore\n              0x04\n              add\n              dup1\n              dup4\n              0xffffffffffffffffffffffffffffffffffffffff\n              and\n              0xffffffffffffffffffffffffffffffffffffffff\n              and\n              dup2\n              mstore\n              0x20\n              add\n              dup3\n              dup2\n              mstore\n              0x20\n              add\n              swap3\n              pop\n              pop\n              pop\n              0x20\n              mload(0x40)\n              dup1\n              dup4\n              sub\n              dup2\n              0x00\n              dup8\n              dup1\n              extcodesize\n              iszero\n                /* \"--CODEGEN--\":8:17   */\n              dup1\n                /* \"--CODEGEN--\":5:7   */\n              iszero\n              tag_282\n              jumpi\n                /* \"--CODEGEN--\":30:31   */\n              0x00\n                /* \"--CODEGEN--\":27:28   */\n              dup1\n                /* \"--CODEGEN--\":20:32   */\n              revert\n                /* \"--CODEGEN--\":5:7   */\n            tag_282:\n                /* \"AllContracts.sol\":13234:13293  LINK.transfer(payoutAddress, LINK.balanceOf(address(this))) */\n              pop\n              gas\n              call\n              iszero\n                /* \"--CODEGEN--\":8:17   */\n              dup1\n                /* \"--CODEGEN--\":5:7   */\n              iszero\n              tag_284\n              jumpi\n                /* \"--CODEGEN--\":45:61   */\n              returndatasize\n                /* \"--CODEGEN--\":42:43   */\n              0x00\n                /* \"--CODEGEN--\":39:40   */\n              dup1\n                /* \"--CODEGEN--\":24:62   */\n              returndatacopy\n                /* \"--CODEGEN--\":77:93   */\n              returndatasize\n                /* \"--CODEGEN--\":74:75   */\n              0x00\n                /* \"--CODEGEN--\":67:94   */\n              revert\n                /* \"--CODEGEN--\":5:7   */\n            tag_284:\n                /* \"AllContracts.sol\":13234:13293  LINK.transfer(payoutAddress, LINK.balanceOf(address(this))) */\n              pop\n              pop\n              pop\n              pop\n              mload(0x40)\n              returndatasize\n                /* \"--CODEGEN--\":13:15   */\n              0x20\n                /* \"--CODEGEN--\":8:11   */\n              dup2\n                /* \"--CODEGEN--\":5:16   */\n              lt\n                /* \"--CODEGEN--\":2:4   */\n              iszero\n              tag_285\n              jumpi\n                /* \"--CODEGEN--\":29:30   */\n              0x00\n                /* \"--CODEGEN--\":26:27   */\n              dup1\n                /* \"--CODEGEN--\":19:31   */\n              revert\n                /* \"--CODEGEN--\":2:4   */\n            tag_285:\n                /* \"AllContracts.sol\":13234:13293  LINK.transfer(payoutAddress, LINK.balanceOf(address(this))) */\n              dup2\n              add\n              swap1\n              dup1\n              dup1\n              mload\n              swap1\n              0x20\n              add\n              swap1\n              swap3\n              swap2\n              swap1\n              pop\n              pop\n              pop\n              pop\n                /* \"AllContracts.sol\":13181:13304  if (LINK.balanceOf(address(this)) > 0) {... */\n            tag_277:\n                /* \"AllContracts.sol\":1200:1201  _ */\n              pop\n                /* \"AllContracts.sol\":12731:13311  function closeMachine() public onlyOwner {... */\n              jump\t// out\n                /* \"AllContracts.sol\":15789:16038  function testCloseMachine() public onlyOwner {... */\n            tag_162:\n                /* \"AllContracts.sol\":1141:1153  _msgSender() */\n              tag_287\n                /* \"AllContracts.sol\":1141:1151  _msgSender */\n              tag_190\n                /* \"AllContracts.sol\":1141:1153  _msgSender() */\n              jump\t// in\n            tag_287:\n                /* \"AllContracts.sol\":1131:1153  _owner == _msgSender() */\n              0xffffffffffffffffffffffffffffffffffffffff\n              and\n                /* \"AllContracts.sol\":1131:1137  _owner */\n              0x03\n              0x00\n              swap1\n              sload\n              swap1\n              0x0100\n              exp\n              swap1\n              div\n              0xffffffffffffffffffffffffffffffffffffffff\n              and\n                /* \"AllContracts.sol\":1131:1153  _owner == _msgSender() */\n              0xffffffffffffffffffffffffffffffffffffffff\n              and\n              eq\n                /* \"AllContracts.sol\":1123:1190  require(_owner == _msgSender(), \"Ownable: caller is not the owner\") */\n              tag_288\n              jumpi\n              mload(0x40)\n              0x08c379a000000000000000000000000000000000000000000000000000000000\n              dup2\n              mstore\n              0x04\n              add\n              dup1\n              dup1\n              0x20\n              add\n              dup3\n              dup2\n              sub\n              dup3\n              mstore\n              0x20\n              dup2\n              mstore\n              0x20\n              add\n              dup1\n              0x4f776e61626c653a2063616c6c6572206973206e6f7420746865206f776e6572\n              dup2\n              mstore\n              pop\n              0x20\n              add\n              swap2\n              pop\n              pop\n              mload(0x40)\n              dup1\n              swap2\n              sub\n              swap1\n              revert\n            tag_288:\n                /* \"AllContracts.sol\":15877:15890  _unplayedBets */\n              sload(0x13)\n                /* \"AllContracts.sol\":15853:15874  address(this).balance */\n              selfbalance\n                /* \"AllContracts.sol\":15853:15890  address(this).balance > _unplayedBets */\n              gt\n                /* \"AllContracts.sol\":15844:15891  require (address(this).balance > _unplayedBets) */\n              tag_290\n              jumpi\n              0x00\n              dup1\n              revert\n            tag_290:\n                /* \"AllContracts.sol\":15901:15930  uint availableContractBalance */\n              0x00\n                /* \"AllContracts.sol\":15933:15973  address(this).balance.sub(_unplayedBets) */\n              tag_291\n                /* \"AllContracts.sol\":15959:15972  _unplayedBets */\n              sload(0x13)\n                /* \"AllContracts.sol\":15933:15954  address(this).balance */\n              selfbalance\n                /* \"AllContracts.sol\":15933:15958  address(this).balance.sub */\n              tag_184\n              swap1\n                /* \"AllContracts.sol\":15933:15973  address(this).balance.sub(_unplayedBets) */\n              swap2\n              swap1\n              0xffffffff\n              and\n              jump\t// in\n            tag_291:\n                /* \"AllContracts.sol\":15901:15973  uint availableContractBalance = address(this).balance.sub(_unplayedBets) */\n              swap1\n              pop\n                /* \"AllContracts.sol\":15983:15996  payoutAddress */\n              0x15\n              0x00\n              swap1\n              sload\n              swap1\n              0x0100\n              exp\n              swap1\n              div\n              0xffffffffffffffffffffffffffffffffffffffff\n              and\n                /* \"AllContracts.sol\":15983:16005  payoutAddress.transfer */\n              0xffffffffffffffffffffffffffffffffffffffff\n              and\n                /* \"AllContracts.sol\":15983:16031  payoutAddress.transfer(availableContractBalance) */\n              0x08fc\n                /* \"AllContracts.sol\":16006:16030  availableContractBalance */\n              dup3\n                /* \"AllContracts.sol\":15983:16031  payoutAddress.transfer(availableContractBalance) */\n              swap1\n              dup2\n              iszero\n              mul\n              swap1\n              mload(0x40)\n              0x00\n              mload(0x40)\n              dup1\n              dup4\n              sub\n              dup2\n              dup6\n              dup9\n              dup9\n              call\n              swap4\n              pop\n              pop\n              pop\n              pop\n              iszero\n                /* \"--CODEGEN--\":8:17   */\n              dup1\n                /* \"--CODEGEN--\":5:7   */\n              iszero\n              tag_293\n              jumpi\n                /* \"--CODEGEN--\":45:61   */\n              returndatasize\n                /* \"--CODEGEN--\":42:43   */\n              0x00\n                /* \"--CODEGEN--\":39:40   */\n              dup1\n                /* \"--CODEGEN--\":24:62   */\n              returndatacopy\n                /* \"--CODEGEN--\":77:93   */\n              returndatasize\n                /* \"--CODEGEN--\":74:75   */\n              0x00\n                /* \"--CODEGEN--\":67:94   */\n              revert\n                /* \"--CODEGEN--\":5:7   */\n            tag_293:\n                /* \"AllContracts.sol\":15983:16031  payoutAddress.transfer(availableContractBalance) */\n              pop\n                /* \"AllContracts.sol\":1200:1201  _ */\n              pop\n                /* \"AllContracts.sol\":15789:16038  function testCloseMachine() public onlyOwner {... */\n              jump\t// out\n                /* \"AllContracts.sol\":13408:13823  function testCreateGame(address payable _player, uint _bet, uint _pick, bool _played, uint _gameID) public {... */\n            tag_166:\n                /* \"AllContracts.sol\":13525:13544  Game memory newGame */\n              tag_295\n              tag_296\n              jump\t// in\n            tag_295:\n                /* \"AllContracts.sol\":13547:13779  Game ({... */\n              mload(0x40)\n              dup1\n              0xc0\n              add\n              0x40\n              mstore\n              dup1\n                /* \"AllContracts.sol\":13571:13578  _gameID */\n              dup4\n                /* \"AllContracts.sol\":13547:13779  Game ({... */\n              dup2\n              mstore\n              0x20\n              add\n                /* \"AllContracts.sol\":13600:13607  _player */\n              dup8\n                /* \"AllContracts.sol\":13547:13779  Game ({... */\n              0xffffffffffffffffffffffffffffffffffffffff\n              and\n              dup2\n              mstore\n              0x20\n              add\n                /* \"AllContracts.sol\":13626:13630  _bet */\n              dup7\n                /* \"AllContracts.sol\":13547:13779  Game ({... */\n              dup2\n              mstore\n              0x20\n              add\n                /* \"AllContracts.sol\":13650:13655  _pick */\n              dup6\n                /* \"AllContracts.sol\":13547:13779  Game ({... */\n              dup2\n              mstore\n              0x20\n              add\n                /* \"AllContracts.sol\":13677:13692  maxPick.add(10) */\n              tag_297\n                /* \"AllContracts.sol\":13689:13691  10 */\n              0x0a\n                /* \"AllContracts.sol\":13677:13684  maxPick */\n              sload(0x10)\n                /* \"AllContracts.sol\":13677:13688  maxPick.add */\n              tag_182\n              swap1\n                /* \"AllContracts.sol\":13677:13692  maxPick.add(10) */\n              swap2\n              swap1\n              0xffffffff\n              and\n              jump\t// in\n            tag_297:\n                /* \"AllContracts.sol\":13547:13779  Game ({... */\n              dup2\n              mstore\n              0x20\n              add\n                /* \"AllContracts.sol\":13761:13768  _played */\n              dup5\n                /* \"AllContracts.sol\":13547:13779  Game ({... */\n              iszero\n              iszero\n              dup2\n              mstore\n              pop\n                /* \"AllContracts.sol\":13525:13779  Game memory newGame = Game ({... */\n              swap1\n              pop\n                /* \"AllContracts.sol\":13809:13816  newGame */\n              dup1\n                /* \"AllContracts.sol\":13789:13794  games */\n              0x17\n                /* \"AllContracts.sol\":13789:13806  games[newGame.id] */\n              0x00\n                /* \"AllContracts.sol\":13795:13802  newGame */\n              dup4\n                /* \"AllContracts.sol\":13795:13805  newGame.id */\n              0x00\n              add\n              mload\n                /* \"AllContracts.sol\":13789:13806  games[newGame.id] */\n              dup2\n              mstore\n              0x20\n              add\n              swap1\n              dup2\n              mstore\n              0x20\n              add\n              0x00\n              keccak256\n                /* \"AllContracts.sol\":13789:13816  games[newGame.id] = newGame */\n              0x00\n              dup3\n              add\n              mload\n              dup2\n              0x00\n              add\n              sstore\n              0x20\n              dup3\n              add\n              mload\n              dup2\n              0x01\n              add\n              exp(0x0100, 0x00)\n              dup2\n              sload\n              dup2\n              0xffffffffffffffffffffffffffffffffffffffff\n              mul\n              not\n              and\n              swap1\n              dup4\n              0xffffffffffffffffffffffffffffffffffffffff\n              and\n              mul\n              or\n              swap1\n              sstore\n              pop\n              0x40\n              dup3\n              add\n              mload\n              dup2\n              0x02\n              add\n              sstore\n              0x60\n              dup3\n              add\n              mload\n              dup2\n              0x03\n              add\n              sstore\n              0x80\n              dup3\n              add\n              mload\n              dup2\n              0x04\n              add\n              sstore\n              0xa0\n              dup3\n              add\n              mload\n              dup2\n              0x05\n              add\n              exp(0x0100, 0x00)\n              dup2\n              sload\n              dup2\n              0xff\n              mul\n              not\n              and\n              swap1\n              dup4\n              iszero\n              iszero\n              mul\n              or\n              swap1\n              sstore\n              pop\n              swap1\n              pop\n              pop\n                /* \"AllContracts.sol\":13408:13823  function testCreateGame(address payable _player, uint _bet, uint _pick, bool _played, uint _gameID) public {... */\n              pop\n              pop\n              pop\n              pop\n              pop\n              pop\n              jump\t// out\n                /* \"AllContracts.sol\":1844:2084  function transferOwnership(address newOwner) public virtual onlyOwner {... */\n            tag_170:\n                /* \"AllContracts.sol\":1141:1153  _msgSender() */\n              tag_299\n                /* \"AllContracts.sol\":1141:1151  _msgSender */\n              tag_190\n                /* \"AllContracts.sol\":1141:1153  _msgSender() */\n              jump\t// in\n            tag_299:\n                /* \"AllContracts.sol\":1131:1153  _owner == _msgSender() */\n              0xffffffffffffffffffffffffffffffffffffffff\n              and\n                /* \"AllContracts.sol\":1131:1137  _owner */\n              0x03\n              0x00\n              swap1\n              sload\n              swap1\n              0x0100\n              exp\n              swap1\n              div\n              0xffffffffffffffffffffffffffffffffffffffff\n              and\n                /* \"AllContracts.sol\":1131:1153  _owner == _msgSender() */\n              0xffffffffffffffffffffffffffffffffffffffff\n              and\n              eq\n                /* \"AllContracts.sol\":1123:1190  require(_owner == _msgSender(), \"Ownable: caller is not the owner\") */\n              tag_300\n              jumpi\n              mload(0x40)\n              0x08c379a000000000000000000000000000000000000000000000000000000000\n              dup2\n              mstore\n              0x04\n              add\n              dup1\n              dup1\n              0x20\n              add\n              dup3\n              dup2\n              sub\n              dup3\n              mstore\n              0x20\n              dup2\n              mstore\n              0x20\n              add\n              dup1\n              0x4f776e61626c653a2063616c6c6572206973206e6f7420746865206f776e6572\n              dup2\n              mstore\n              pop\n              0x20\n              add\n              swap2\n              pop\n              pop\n              mload(0x40)\n              dup1\n              swap2\n              sub\n              swap1\n              revert\n            tag_300:\n                /* \"AllContracts.sol\":1952:1953  0 */\n              0x00\n                /* \"AllContracts.sol\":1932:1954  newOwner != address(0) */\n              0xffffffffffffffffffffffffffffffffffffffff\n              and\n                /* \"AllContracts.sol\":1932:1940  newOwner */\n              dup2\n                /* \"AllContracts.sol\":1932:1954  newOwner != address(0) */\n              0xffffffffffffffffffffffffffffffffffffffff\n              and\n              eq\n              iszero\n                /* \"AllContracts.sol\":1924:1997  require(newOwner != address(0), \"Ownable: new owner is the zero address\") */\n              tag_302\n              jumpi\n              mload(0x40)\n              0x08c379a000000000000000000000000000000000000000000000000000000000\n              dup2\n              mstore\n              0x04\n              add\n              dup1\n              dup1\n              0x20\n              add\n              dup3\n              dup2\n              sub\n              dup3\n              mstore\n              0x26\n              dup2\n              mstore\n              0x20\n              add\n              dup1\n              data_245f15ff17f551913a7a18385165551503906a406f905ac1c2437281a7cd0cfe\n              0x26\n              swap2\n              codecopy\n              0x40\n              add\n              swap2\n              pop\n              pop\n              mload(0x40)\n              dup1\n              swap2\n              sub\n              swap1\n              revert\n            tag_302:\n                /* \"AllContracts.sol\":2041:2049  newOwner */\n              dup1\n                /* \"AllContracts.sol\":2012:2050  OwnershipTransferred(_owner, newOwner) */\n              0xffffffffffffffffffffffffffffffffffffffff\n              and\n                /* \"AllContracts.sol\":2033:2039  _owner */\n              0x03\n              0x00\n              swap1\n              sload\n              swap1\n              0x0100\n              exp\n              swap1\n              div\n              0xffffffffffffffffffffffffffffffffffffffff\n              and\n                /* \"AllContracts.sol\":2012:2050  OwnershipTransferred(_owner, newOwner) */\n              0xffffffffffffffffffffffffffffffffffffffff\n              and\n              0x8be0079c531659141344cd1fd0a4f28419497f9722a3daafe3b4186f6b6457e0\n              mload(0x40)\n              mload(0x40)\n              dup1\n              swap2\n              sub\n              swap1\n              log3\n                /* \"AllContracts.sol\":2069:2077  newOwner */\n              dup1\n                /* \"AllContracts.sol\":2060:2066  _owner */\n              0x03\n              0x00\n                /* \"AllContracts.sol\":2060:2077  _owner = newOwner */\n              0x0100\n              exp\n              dup2\n              sload\n              dup2\n              0xffffffffffffffffffffffffffffffffffffffff\n              mul\n              not\n              and\n              swap1\n              dup4\n              0xffffffffffffffffffffffffffffffffffffffff\n              and\n              mul\n              or\n              swap1\n              sstore\n              pop\n                /* \"AllContracts.sol\":1844:2084  function transferOwnership(address newOwner) public virtual onlyOwner {... */\n              pop\n              jump\t// out\n                /* \"AllContracts.sol\":7725:8196  function betInRange(uint bet) public view returns(bool){... */\n            tag_174:\n                /* \"AllContracts.sol\":7775:7779  bool */\n              0x00\n                /* \"AllContracts.sol\":7801:7807  minBet */\n              sload(0x12)\n                /* \"AllContracts.sol\":7794:7797  bet */\n              dup3\n                /* \"AllContracts.sol\":7794:7807  bet >= minBet */\n              lt\n              iszero\n                /* \"AllContracts.sol\":7794:7824  bet >= minBet && bet <= maxBet */\n              dup1\n              iszero\n              tag_304\n              jumpi\n              pop\n                /* \"AllContracts.sol\":7818:7824  maxBet */\n              sload(0x11)\n                /* \"AllContracts.sol\":7811:7814  bet */\n              dup3\n                /* \"AllContracts.sol\":7811:7824  bet <= maxBet */\n              gt\n              iszero\n                /* \"AllContracts.sol\":7794:7824  bet >= minBet && bet <= maxBet */\n            tag_304:\n                /* \"AllContracts.sol\":7790:8190  if (bet >= minBet && bet <= maxBet) {... */\n              iszero\n              tag_305\n              jumpi\n                /* \"AllContracts.sol\":8132:8136  true */\n              0x01\n                /* \"AllContracts.sol\":8125:8136  return true */\n              swap1\n              pop\n              jump(tag_303)\n                /* \"AllContracts.sol\":7790:8190  if (bet >= minBet && bet <= maxBet) {... */\n            tag_305:\n                /* \"AllContracts.sol\":8174:8179  false */\n              0x00\n                /* \"AllContracts.sol\":8167:8179  return false */\n              swap1\n              pop\n                /* \"AllContracts.sol\":7725:8196  function betInRange(uint bet) public view returns(bool){... */\n            tag_303:\n              swap2\n              swap1\n              pop\n              jump\t// out\n                /* \"AllContracts.sol\":13829:14517  function testPlaceBetFor(address payable player, uint pick, uint256 testRandomNumber) public payable {... */\n            tag_177:\n                /* \"AllContracts.sol\":13945:13949  gas1 */\n              0x06\n                /* \"AllContracts.sol\":13938:13949  delete gas1 */\n              0x00\n              swap1\n              sstore\n                /* \"AllContracts.sol\":13964:13968  gas2 */\n              0x07\n                /* \"AllContracts.sol\":13957:13968  delete gas2 */\n              0x00\n              swap1\n              sstore\n                /* \"AllContracts.sol\":13983:13987  gas3 */\n              0x08\n                /* \"AllContracts.sol\":13976:13987  delete gas3 */\n              0x00\n              swap1\n              sstore\n                /* \"AllContracts.sol\":14002:14006  gas4 */\n              0x09\n                /* \"AllContracts.sol\":13995:14006  delete gas4 */\n              0x00\n              swap1\n              sstore\n                /* \"AllContracts.sol\":14021:14025  gas5 */\n              0x0a\n                /* \"AllContracts.sol\":14014:14025  delete gas5 */\n              0x00\n              swap1\n              sstore\n                /* \"AllContracts.sol\":14040:14044  gas6 */\n              0x0b\n                /* \"AllContracts.sol\":14033:14044  delete gas6 */\n              0x00\n              swap1\n              sstore\n                /* \"AllContracts.sol\":14059:14063  gas7 */\n              0x0c\n                /* \"AllContracts.sol\":14052:14063  delete gas7 */\n              0x00\n              swap1\n              sstore\n                /* \"AllContracts.sol\":14078:14082  gas8 */\n              0x0d\n                /* \"AllContracts.sol\":14071:14082  delete gas8 */\n              0x00\n              swap1\n              sstore\n                /* \"AllContracts.sol\":14097:14101  gas9 */\n              0x0e\n                /* \"AllContracts.sol\":14090:14101  delete gas9 */\n              0x00\n              swap1\n              sstore\n                /* \"AllContracts.sol\":14116:14121  gas10 */\n              0x0f\n                /* \"AllContracts.sol\":14109:14121  delete gas10 */\n              0x00\n              swap1\n              sstore\n                /* \"AllContracts.sol\":14144:14165  betPayable(msg.value) */\n              tag_308\n                /* \"AllContracts.sol\":14155:14164  msg.value */\n              callvalue\n                /* \"AllContracts.sol\":14144:14154  betPayable */\n              tag_52\n                /* \"AllContracts.sol\":14144:14165  betPayable(msg.value) */\n              jump\t// in\n            tag_308:\n                /* \"AllContracts.sol\":14136:14224  require(betPayable(msg.value), \"Contract has insufficint funds to payout possible win.\") */\n              tag_309\n              jumpi\n              mload(0x40)\n              0x08c379a000000000000000000000000000000000000000000000000000000000\n              dup2\n              mstore\n              0x04\n              add\n              dup1\n              dup1\n              0x20\n              add\n              dup3\n              dup2\n              sub\n              dup3\n              mstore\n              0x36\n              dup2\n              mstore\n              0x20\n              add\n              dup1\n              data_588b68a2a6ccdc15b2dae26a385280edec71bed95b5b14a24b760c56e4f665d6\n              0x36\n              swap2\n              codecopy\n              0x40\n              add\n              swap2\n              pop\n              pop\n              mload(0x40)\n              dup1\n              swap2\n              sub\n              swap1\n              revert\n            tag_309:\n                /* \"AllContracts.sol\":14248:14255  maxPick */\n              sload(0x10)\n                /* \"AllContracts.sol\":14240:14244  pick */\n              dup3\n                /* \"AllContracts.sol\":14240:14255  pick <= maxPick */\n              gt\n              iszero\n                /* \"AllContracts.sol\":14232:14300  require(pick <= maxPick, \"Pick is too high. Choose a lower number.\") */\n              tag_310\n              jumpi\n              mload(0x40)\n              0x08c379a000000000000000000000000000000000000000000000000000000000\n              dup2\n              mstore\n              0x04\n              add\n              dup1\n              dup1\n              0x20\n              add\n              dup3\n              dup2\n              sub\n              dup3\n              mstore\n              0x28\n              dup2\n              mstore\n              0x20\n              add\n              dup1\n              data_104d4309dbdd0d693502d943a07623e5e639a80ec32910748a6b4f701d61cac8\n              0x28\n              swap2\n              codecopy\n              0x40\n              add\n              swap2\n              pop\n              pop\n              mload(0x40)\n              dup1\n              swap2\n              sub\n              swap1\n              revert\n            tag_310:\n                /* \"AllContracts.sol\":14316:14337  betInRange(msg.value) */\n              tag_311\n                /* \"AllContracts.sol\":14327:14336  msg.value */\n              callvalue\n                /* \"AllContracts.sol\":14316:14326  betInRange */\n              tag_174\n                /* \"AllContracts.sol\":14316:14337  betInRange(msg.value) */\n              jump\t// in\n            tag_311:\n                /* \"AllContracts.sol\":14308:14362  require(betInRange(msg.value),\"Outisde of bet range.\") */\n              tag_312\n              jumpi\n              mload(0x40)\n              0x08c379a000000000000000000000000000000000000000000000000000000000\n              dup2\n              mstore\n              0x04\n              add\n              dup1\n              dup1\n              0x20\n              add\n              dup3\n              dup2\n              sub\n              dup3\n              mstore\n              0x15\n              dup2\n              mstore\n              0x20\n              add\n              dup1\n              0x4f757469736465206f66206265742072616e67652e0000000000000000000000\n              dup2\n              mstore\n              pop\n              0x20\n              add\n              swap2\n              pop\n              pop\n              mload(0x40)\n              dup1\n              swap2\n              sub\n              swap1\n              revert\n            tag_312:\n                /* \"AllContracts.sol\":14387:14415  _unplayedBets.add(msg.value) */\n              tag_313\n                /* \"AllContracts.sol\":14405:14414  msg.value */\n              callvalue\n                /* \"AllContracts.sol\":14387:14400  _unplayedBets */\n              sload(0x13)\n                /* \"AllContracts.sol\":14387:14404  _unplayedBets.add */\n              tag_182\n              swap1\n                /* \"AllContracts.sol\":14387:14415  _unplayedBets.add(msg.value) */\n              swap2\n              swap1\n              0xffffffff\n              and\n              jump\t// in\n            tag_313:\n                /* \"AllContracts.sol\":14371:14384  _unplayedBets */\n              0x13\n                /* \"AllContracts.sol\":14371:14415  _unplayedBets = _unplayedBets.add(msg.value) */\n              dup2\n              swap1\n              sstore\n              pop\n                /* \"AllContracts.sol\":14423:14458  createGame(player, msg.value, pick) */\n              tag_314\n                /* \"AllContracts.sol\":14434:14440  player */\n              dup4\n                /* \"AllContracts.sol\":14442:14451  msg.value */\n              callvalue\n                /* \"AllContracts.sol\":14453:14457  pick */\n              dup5\n                /* \"AllContracts.sol\":14423:14433  createGame */\n              tag_255\n                /* \"AllContracts.sol\":14423:14458  createGame(player, msg.value, pick) */\n              jump\t// in\n            tag_314:\n                /* \"AllContracts.sol\":14466:14510  testPlayGame(_currentGame, testRandomNumber) */\n              tag_315\n                /* \"AllContracts.sol\":14479:14491  _currentGame */\n              sload(0x14)\n                /* \"AllContracts.sol\":14493:14509  testRandomNumber */\n              dup3\n                /* \"AllContracts.sol\":14466:14478  testPlayGame */\n              tag_99\n                /* \"AllContracts.sol\":14466:14510  testPlayGame(_currentGame, testRandomNumber) */\n              jump\t// in\n            tag_315:\n                /* \"AllContracts.sol\":13829:14517  function testPlaceBetFor(address payable player, uint pick, uint256 testRandomNumber) public payable {... */\n              pop\n              pop\n              pop\n              jump\t// out\n                /* \"AllContracts.sol\":2454:2668  function mul(uint256 a, uint256 b) internal pure returns (uint256) {... */\n            tag_181:\n                /* \"AllContracts.sol\":2512:2519  uint256 */\n              0x00\n                /* \"AllContracts.sol\":2537:2538  0 */\n              dup1\n                /* \"AllContracts.sol\":2532:2533  a */\n              dup4\n                /* \"AllContracts.sol\":2532:2538  a == 0 */\n              eq\n                /* \"AllContracts.sol\":2528:2563  if (a == 0) {... */\n              iszero\n              tag_317\n              jumpi\n                /* \"AllContracts.sol\":2555:2556  0 */\n              0x00\n                /* \"AllContracts.sol\":2548:2556  return 0 */\n              swap1\n              pop\n              jump(tag_316)\n                /* \"AllContracts.sol\":2528:2563  if (a == 0) {... */\n            tag_317:\n                /* \"AllContracts.sol\":2569:2578  uint256 c */\n              0x00\n                /* \"AllContracts.sol\":2585:2586  b */\n              dup3\n                /* \"AllContracts.sol\":2581:2582  a */\n              dup5\n                /* \"AllContracts.sol\":2581:2586  a * b */\n              mul\n                /* \"AllContracts.sol\":2569:2586  uint256 c = a * b */\n              swap1\n              pop\n                /* \"AllContracts.sol\":2609:2610  b */\n              dup3\n                /* \"AllContracts.sol\":2604:2605  a */\n              dup5\n                /* \"AllContracts.sol\":2600:2601  c */\n              dup3\n                /* \"AllContracts.sol\":2600:2605  c / a */\n              dup2\n              tag_318\n              jumpi\n              invalid\n            tag_318:\n              div\n                /* \"AllContracts.sol\":2600:2610  c / a == b */\n              eq\n                /* \"AllContracts.sol\":2592:2648  require(c / a == b, \"SafeMath: multiplication overflow\") */\n              tag_319\n              jumpi\n              mload(0x40)\n              0x08c379a000000000000000000000000000000000000000000000000000000000\n              dup2\n              mstore\n              0x04\n              add\n              dup1\n              dup1\n              0x20\n              add\n              dup3\n              dup2\n              sub\n              dup3\n              mstore\n              0x21\n              dup2\n              mstore\n              0x20\n              add\n              dup1\n              data_9113bb53c2876a3805b2c9242029423fc540a728243ce887ab24c82cf119fba3\n              0x21\n              swap2\n              codecopy\n              0x40\n              add\n              swap2\n              pop\n              pop\n              mload(0x40)\n              dup1\n              swap2\n              sub\n              swap1\n              revert\n            tag_319:\n                /* \"AllContracts.sol\":2662:2663  c */\n              dup1\n                /* \"AllContracts.sol\":2655:2663  return c */\n              swap2\n              pop\n              pop\n                /* \"AllContracts.sol\":2454:2668  function mul(uint256 a, uint256 b) internal pure returns (uint256) {... */\n            tag_316:\n              swap3\n              swap2\n              pop\n              pop\n              jump\t// out\n                /* \"AllContracts.sol\":2119:2281  function add(uint256 a, uint256 b) internal pure returns (uint256) {... */\n            tag_182:\n                /* \"AllContracts.sol\":2177:2184  uint256 */\n              0x00\n                /* \"AllContracts.sol\":2192:2201  uint256 c */\n              dup1\n                /* \"AllContracts.sol\":2208:2209  b */\n              dup3\n                /* \"AllContracts.sol\":2204:2205  a */\n              dup5\n                /* \"AllContracts.sol\":2204:2209  a + b */\n              add\n                /* \"AllContracts.sol\":2192:2209  uint256 c = a + b */\n              swap1\n              pop\n                /* \"AllContracts.sol\":2228:2229  a */\n              dup4\n                /* \"AllContracts.sol\":2223:2224  c */\n              dup2\n                /* \"AllContracts.sol\":2223:2229  c >= a */\n              lt\n              iszero\n                /* \"AllContracts.sol\":2215:2261  require(c >= a, \"SafeMath: addition overflow\") */\n              tag_321\n              jumpi\n              mload(0x40)\n              0x08c379a000000000000000000000000000000000000000000000000000000000\n              dup2\n              mstore\n              0x04\n              add\n              dup1\n              dup1\n              0x20\n              add\n              dup3\n              dup2\n              sub\n              dup3\n              mstore\n              0x1b\n              dup2\n              mstore\n              0x20\n              add\n              dup1\n              0x536166654d6174683a206164646974696f6e206f766572666c6f770000000000\n              dup2\n              mstore\n              pop\n              0x20\n              add\n              swap2\n              pop\n              pop\n              mload(0x40)\n              dup1\n              swap2\n              sub\n              swap1\n              revert\n            tag_321:\n                /* \"AllContracts.sol\":2275:2276  c */\n              dup1\n                /* \"AllContracts.sol\":2268:2276  return c */\n              swap2\n              pop\n              pop\n                /* \"AllContracts.sol\":2119:2281  function add(uint256 a, uint256 b) internal pure returns (uint256) {... */\n              swap3\n              swap2\n              pop\n              pop\n              jump\t// out\n                /* \"AllContracts.sol\":2285:2450  function sub(uint256 a, uint256 b) internal pure returns (uint256) {... */\n            tag_184:\n                /* \"AllContracts.sol\":2343:2350  uint256 */\n              0x00\n                /* \"AllContracts.sol\":2371:2372  a */\n              dup3\n                /* \"AllContracts.sol\":2366:2367  b */\n              dup3\n                /* \"AllContracts.sol\":2366:2372  b <= a */\n              gt\n              iszero\n                /* \"AllContracts.sol\":2358:2407  require(b <= a, \"SafeMath: subtraction overflow\") */\n              tag_323\n              jumpi\n              mload(0x40)\n              0x08c379a000000000000000000000000000000000000000000000000000000000\n              dup2\n              mstore\n              0x04\n              add\n              dup1\n              dup1\n              0x20\n              add\n              dup3\n              dup2\n              sub\n              dup3\n              mstore\n              0x1e\n              dup2\n              mstore\n              0x20\n              add\n              dup1\n              0x536166654d6174683a207375627472616374696f6e206f766572666c6f770000\n              dup2\n              mstore\n              pop\n              0x20\n              add\n              swap2\n              pop\n              pop\n              mload(0x40)\n              dup1\n              swap2\n              sub\n              swap1\n              revert\n            tag_323:\n                /* \"AllContracts.sol\":2413:2422  uint256 c */\n              0x00\n                /* \"AllContracts.sol\":2429:2430  b */\n              dup3\n                /* \"AllContracts.sol\":2425:2426  a */\n              dup5\n                /* \"AllContracts.sol\":2425:2430  a - b */\n              sub\n                /* \"AllContracts.sol\":2413:2430  uint256 c = a - b */\n              swap1\n              pop\n                /* \"AllContracts.sol\":2444:2445  c */\n              dup1\n                /* \"AllContracts.sol\":2437:2445  return c */\n              swap2\n              pop\n              pop\n                /* \"AllContracts.sol\":2285:2450  function sub(uint256 a, uint256 b) internal pure returns (uint256) {... */\n              swap3\n              swap2\n              pop\n              pop\n              jump\t// out\n                /* \"AllContracts.sol\":90:194  function _msgSender() internal view virtual returns (address payable) {... */\n            tag_190:\n                /* \"AllContracts.sol\":143:158  address payable */\n              0x00\n                /* \"AllContracts.sol\":177:187  msg.sender */\n              caller\n                /* \"AllContracts.sol\":170:187  return msg.sender */\n              swap1\n              pop\n                /* \"AllContracts.sol\":90:194  function _msgSender() internal view virtual returns (address payable) {... */\n              swap1\n              jump\t// out\n                /* \"AllContracts.sol\":14858:15783  function testFulfillRandomness(bytes32 requestId, uint256 randomness) internal {... */\n            tag_214:\n                /* \"AllContracts.sol\":14947:14961  Game storage g */\n              0x00\n                /* \"AllContracts.sol\":14964:14969  games */\n              0x17\n                /* \"AllContracts.sol\":14964:14995  games[_gameRequests[requestId]] */\n              0x00\n                /* \"AllContracts.sol\":14970:14983  _gameRequests */\n              0x18\n                /* \"AllContracts.sol\":14970:14994  _gameRequests[requestId] */\n              0x00\n                /* \"AllContracts.sol\":14984:14993  requestId */\n              dup7\n                /* \"AllContracts.sol\":14970:14994  _gameRequests[requestId] */\n              dup2\n              mstore\n              0x20\n              add\n              swap1\n              dup2\n              mstore\n              0x20\n              add\n              0x00\n              keccak256\n              sload\n                /* \"AllContracts.sol\":14964:14995  games[_gameRequests[requestId]] */\n              dup2\n              mstore\n              0x20\n              add\n              swap1\n              dup2\n              mstore\n              0x20\n              add\n              0x00\n              keccak256\n                /* \"AllContracts.sol\":14947:14995  Game storage g = games[_gameRequests[requestId]] */\n              swap1\n              pop\n                /* \"AllContracts.sol\":15015:15016  0 */\n              0x00\n                /* \"AllContracts.sol\":15008:15009  g */\n              dup2\n                /* \"AllContracts.sol\":15008:15012  g.id */\n              0x00\n              add\n              sload\n                /* \"AllContracts.sol\":15008:15016  g.id > 0 */\n              gt\n                /* \"AllContracts.sol\":15005:15777  if(g.id > 0){... */\n              iszero\n              tag_326\n              jumpi\n                /* \"AllContracts.sol\":15031:15047  uint totalPayout */\n              0x00\n                /* \"AllContracts.sol\":15070:15071  g */\n              dup2\n                /* \"AllContracts.sol\":15070:15075  g.bet */\n              0x02\n              add\n              sload\n                /* \"AllContracts.sol\":15050:15067  g.bet.mul(payout) */\n              tag_327\n                /* \"AllContracts.sol\":15060:15066  payout */\n              sload(0x16)\n                /* \"AllContracts.sol\":15050:15051  g */\n              dup5\n                /* \"AllContracts.sol\":15050:15055  g.bet */\n              0x02\n              add\n              sload\n                /* \"AllContracts.sol\":15050:15059  g.bet.mul */\n              tag_181\n              swap1\n                /* \"AllContracts.sol\":15050:15067  g.bet.mul(payout) */\n              swap2\n              swap1\n              0xffffffff\n              and\n              jump\t// in\n            tag_327:\n                /* \"AllContracts.sol\":15050:15075  g.bet.mul(payout) + g.bet */\n              add\n                /* \"AllContracts.sol\":15031:15075  uint totalPayout = g.bet.mul(payout) + g.bet */\n              swap1\n              pop\n                /* \"AllContracts.sol\":15122:15133  totalPayout */\n              dup1\n                /* \"AllContracts.sol\":15097:15118  address(this).balance */\n              selfbalance\n                /* \"AllContracts.sol\":15097:15133  address(this).balance >= totalPayout */\n              lt\n              iszero\n                /* \"AllContracts.sol\":15089:15189  require(address(this).balance >= totalPayout, \"Unable to pay. Please play again or request refund.\") */\n              tag_328\n              jumpi\n              mload(0x40)\n              0x08c379a000000000000000000000000000000000000000000000000000000000\n              dup2\n              mstore\n              0x04\n              add\n              dup1\n              dup1\n              0x20\n              add\n              dup3\n              dup2\n              sub\n              dup3\n              mstore\n              0x33\n              dup2\n              mstore\n              0x20\n              add\n              dup1\n              data_ef92889bcd3368ac0e5c94a5c325c5cf21da03eb1576ee7d446327960d5fae81\n              0x33\n              swap2\n              codecopy\n              0x40\n              add\n              swap2\n              pop\n              pop\n              mload(0x40)\n              dup1\n              swap2\n              sub\n              swap1\n              revert\n            tag_328:\n                /* \"AllContracts.sol\":15215:15225  randomness */\n              dup3\n                /* \"AllContracts.sol\":15204:15205  g */\n              dup3\n                /* \"AllContracts.sol\":15204:15212  g.winner */\n              0x04\n              add\n                /* \"AllContracts.sol\":15204:15225  g.winner = randomness */\n              dup2\n              swap1\n              sstore\n              pop\n                /* \"AllContracts.sol\":15250:15254  true */\n              0x01\n                /* \"AllContracts.sol\":15239:15240  g */\n              dup3\n                /* \"AllContracts.sol\":15239:15247  g.played */\n              0x05\n              add\n              0x00\n                /* \"AllContracts.sol\":15239:15254  g.played = true */\n              0x0100\n              exp\n              dup2\n              sload\n              dup2\n              0xff\n              mul\n              not\n              and\n              swap1\n              dup4\n              iszero\n              iszero\n              mul\n              or\n              swap1\n              sstore\n              pop\n                /* \"AllContracts.sol\":15289:15290  g */\n              dup2\n                /* \"AllContracts.sol\":15289:15294  g.bet */\n              0x02\n              add\n              sload\n                /* \"AllContracts.sol\":15272:15285  _unplayedBets */\n              sload(0x13)\n                /* \"AllContracts.sol\":15272:15294  _unplayedBets >= g.bet */\n              lt\n                /* \"AllContracts.sol\":15269:15407  if(_unplayedBets >= g.bet) {... */\n              tag_329\n              jumpi\n                /* \"AllContracts.sol\":15331:15332  g */\n              dup2\n                /* \"AllContracts.sol\":15331:15336  g.bet */\n              0x02\n              add\n              sload\n                /* \"AllContracts.sol\":15314:15327  _unplayedBets */\n              0x13\n              0x00\n                /* \"AllContracts.sol\":15314:15336  _unplayedBets -= g.bet */\n              dup3\n              dup3\n              sload\n              sub\n              swap3\n              pop\n              pop\n              dup2\n              swap1\n              sstore\n              pop\n                /* \"AllContracts.sol\":15269:15407  if(_unplayedBets >= g.bet) {... */\n              jump(tag_330)\n            tag_329:\n                /* \"AllContracts.sol\":15391:15392  0 */\n              0x00\n                /* \"AllContracts.sol\":15375:15388  _unplayedBets */\n              0x13\n                /* \"AllContracts.sol\":15375:15392  _unplayedBets = 0 */\n              dup2\n              swap1\n              sstore\n              pop\n                /* \"AllContracts.sol\":15269:15407  if(_unplayedBets >= g.bet) {... */\n            tag_330:\n                /* \"AllContracts.sol\":15435:15436  g */\n              dup2\n                /* \"AllContracts.sol\":15435:15443  g.winner */\n              0x04\n              add\n              sload\n                /* \"AllContracts.sol\":15425:15426  g */\n              dup3\n                /* \"AllContracts.sol\":15425:15431  g.pick */\n              0x03\n              add\n              sload\n                /* \"AllContracts.sol\":15425:15443  g.pick == g.winner */\n              eq\n                /* \"AllContracts.sol\":15421:15508  if (g.pick == g.winner) {... */\n              iszero\n              tag_331\n              jumpi\n                /* \"AllContracts.sol\":15463:15464  g */\n              dup2\n                /* \"AllContracts.sol\":15463:15471  g.player */\n              0x01\n              add\n              0x00\n              swap1\n              sload\n              swap1\n              0x0100\n              exp\n              swap1\n              div\n              0xffffffffffffffffffffffffffffffffffffffff\n              and\n                /* \"AllContracts.sol\":15463:15480  g.player.transfer */\n              0xffffffffffffffffffffffffffffffffffffffff\n              and\n                /* \"AllContracts.sol\":15463:15493  g.player.transfer(totalPayout) */\n              0x08fc\n                /* \"AllContracts.sol\":15481:15492  totalPayout */\n              dup3\n                /* \"AllContracts.sol\":15463:15493  g.player.transfer(totalPayout) */\n              swap1\n              dup2\n              iszero\n              mul\n              swap1\n              mload(0x40)\n              0x00\n              mload(0x40)\n              dup1\n              dup4\n              sub\n              dup2\n              dup6\n              dup9\n              dup9\n              call\n              swap4\n              pop\n              pop\n              pop\n              pop\n              iszero\n                /* \"--CODEGEN--\":8:17   */\n              dup1\n                /* \"--CODEGEN--\":5:7   */\n              iszero\n              tag_333\n              jumpi\n                /* \"--CODEGEN--\":45:61   */\n              returndatasize\n                /* \"--CODEGEN--\":42:43   */\n              0x00\n                /* \"--CODEGEN--\":39:40   */\n              dup1\n                /* \"--CODEGEN--\":24:62   */\n              returndatacopy\n                /* \"--CODEGEN--\":77:93   */\n              returndatasize\n                /* \"--CODEGEN--\":74:75   */\n              0x00\n                /* \"--CODEGEN--\":67:94   */\n              revert\n                /* \"--CODEGEN--\":5:7   */\n            tag_333:\n                /* \"AllContracts.sol\":15463:15493  g.player.transfer(totalPayout) */\n              pop\n                /* \"AllContracts.sol\":15421:15508  if (g.pick == g.winner) {... */\n            tag_331:\n                /* \"AllContracts.sol\":15566:15567  1 */\n              0x01\n                /* \"AllContracts.sol\":15559:15563  gas1 */\n              0x06\n                /* \"AllContracts.sol\":15559:15567  gas1 = 1 */\n              dup2\n              swap1\n              sstore\n              pop\n                /* \"AllContracts.sol\":15588:15589  1 */\n              0x01\n                /* \"AllContracts.sol\":15581:15585  gas2 */\n              0x07\n                /* \"AllContracts.sol\":15581:15589  gas2 = 1 */\n              dup2\n              swap1\n              sstore\n              pop\n                /* \"AllContracts.sol\":15610:15611  1 */\n              0x01\n                /* \"AllContracts.sol\":15603:15607  gas3 */\n              0x08\n                /* \"AllContracts.sol\":15603:15611  gas3 = 1 */\n              dup2\n              swap1\n              sstore\n              pop\n                /* \"AllContracts.sol\":15632:15633  1 */\n              0x01\n                /* \"AllContracts.sol\":15625:15629  gas4 */\n              0x09\n                /* \"AllContracts.sol\":15625:15633  gas4 = 1 */\n              dup2\n              swap1\n              sstore\n              pop\n                /* \"AllContracts.sol\":15654:15655  1 */\n              0x01\n                /* \"AllContracts.sol\":15647:15651  gas5 */\n              0x0a\n                /* \"AllContracts.sol\":15647:15655  gas5 = 1 */\n              dup2\n              swap1\n              sstore\n              pop\n                /* \"AllContracts.sol\":15676:15677  1 */\n              0x01\n                /* \"AllContracts.sol\":15669:15673  gas6 */\n              0x0b\n                /* \"AllContracts.sol\":15669:15677  gas6 = 1 */\n              dup2\n              swap1\n              sstore\n              pop\n                /* \"AllContracts.sol\":15698:15699  1 */\n              0x01\n                /* \"AllContracts.sol\":15691:15695  gas7 */\n              0x0c\n                /* \"AllContracts.sol\":15691:15699  gas7 = 1 */\n              dup2\n              swap1\n              sstore\n              pop\n                /* \"AllContracts.sol\":15720:15721  1 */\n              0x01\n                /* \"AllContracts.sol\":15713:15717  gas8 */\n              0x0d\n                /* \"AllContracts.sol\":15713:15721  gas8 = 1 */\n              dup2\n              swap1\n              sstore\n              pop\n                /* \"AllContracts.sol\":15742:15743  1 */\n              0x01\n                /* \"AllContracts.sol\":15735:15739  gas9 */\n              0x0e\n                /* \"AllContracts.sol\":15735:15743  gas9 = 1 */\n              dup2\n              swap1\n              sstore\n              pop\n                /* \"AllContracts.sol\":15765:15766  1 */\n              0x01\n                /* \"AllContracts.sol\":15757:15762  gas10 */\n              0x0f\n                /* \"AllContracts.sol\":15757:15766  gas10 = 1 */\n              dup2\n              swap1\n              sstore\n              pop\n                /* \"AllContracts.sol\":15005:15777  if(g.id > 0){... */\n              pop\n            tag_326:\n                /* \"AllContracts.sol\":14858:15783  function testFulfillRandomness(bytes32 requestId, uint256 randomness) internal {... */\n              pop\n              pop\n              pop\n              jump\t// out\n                /* \"AllContracts.sol\":10148:11277  function fulfillRandomness(bytes32 requestId, uint256 randomness) internal override {... */\n            tag_231:\n                /* \"AllContracts.sol\":10279:10293  Game storage g */\n              0x00\n                /* \"AllContracts.sol\":10296:10301  games */\n              0x17\n                /* \"AllContracts.sol\":10296:10327  games[_gameRequests[requestId]] */\n              0x00\n                /* \"AllContracts.sol\":10302:10315  _gameRequests */\n              0x18\n                /* \"AllContracts.sol\":10302:10326  _gameRequests[requestId] */\n              0x00\n                /* \"AllContracts.sol\":10316:10325  requestId */\n              dup7\n                /* \"AllContracts.sol\":10302:10326  _gameRequests[requestId] */\n              dup2\n              mstore\n              0x20\n              add\n              swap1\n              dup2\n              mstore\n              0x20\n              add\n              0x00\n              keccak256\n              sload\n                /* \"AllContracts.sol\":10296:10327  games[_gameRequests[requestId]] */\n              dup2\n              mstore\n              0x20\n              add\n              swap1\n              dup2\n              mstore\n              0x20\n              add\n              0x00\n              keccak256\n                /* \"AllContracts.sol\":10279:10327  Game storage g = games[_gameRequests[requestId]] */\n              swap1\n              pop\n                /* \"AllContracts.sol\":10347:10348  0 */\n              0x00\n                /* \"AllContracts.sol\":10340:10341  g */\n              dup2\n                /* \"AllContracts.sol\":10340:10344  g.id */\n              0x00\n              add\n              sload\n                /* \"AllContracts.sol\":10340:10348  g.id > 0 */\n              gt\n                /* \"AllContracts.sol\":10337:11090  if(g.id > 0){... */\n              iszero\n              tag_335\n              jumpi\n                /* \"AllContracts.sol\":10363:10379  uint totalPayout */\n              0x00\n                /* \"AllContracts.sol\":10402:10403  g */\n              dup2\n                /* \"AllContracts.sol\":10402:10407  g.bet */\n              0x02\n              add\n              sload\n                /* \"AllContracts.sol\":10382:10399  g.bet.mul(payout) */\n              tag_336\n                /* \"AllContracts.sol\":10392:10398  payout */\n              sload(0x16)\n                /* \"AllContracts.sol\":10382:10383  g */\n              dup5\n                /* \"AllContracts.sol\":10382:10387  g.bet */\n              0x02\n              add\n              sload\n                /* \"AllContracts.sol\":10382:10391  g.bet.mul */\n              tag_181\n              swap1\n                /* \"AllContracts.sol\":10382:10399  g.bet.mul(payout) */\n              swap2\n              swap1\n              0xffffffff\n              and\n              jump\t// in\n            tag_336:\n                /* \"AllContracts.sol\":10382:10407  g.bet.mul(payout) + g.bet */\n              add\n                /* \"AllContracts.sol\":10363:10407  uint totalPayout = g.bet.mul(payout) + g.bet */\n              swap1\n              pop\n                /* \"AllContracts.sol\":10454:10465  totalPayout */\n              dup1\n                /* \"AllContracts.sol\":10429:10450  address(this).balance */\n              selfbalance\n                /* \"AllContracts.sol\":10429:10465  address(this).balance >= totalPayout */\n              lt\n              iszero\n                /* \"AllContracts.sol\":10421:10521  require(address(this).balance >= totalPayout, \"Unable to pay. Please play again or request refund.\") */\n              tag_337\n              jumpi\n              mload(0x40)\n              0x08c379a000000000000000000000000000000000000000000000000000000000\n              dup2\n              mstore\n              0x04\n              add\n              dup1\n              dup1\n              0x20\n              add\n              dup3\n              dup2\n              sub\n              dup3\n              mstore\n              0x33\n              dup2\n              mstore\n              0x20\n              add\n              dup1\n              data_ef92889bcd3368ac0e5c94a5c325c5cf21da03eb1576ee7d446327960d5fae81\n              0x33\n              swap2\n              codecopy\n              0x40\n              add\n              swap2\n              pop\n              pop\n              mload(0x40)\n              dup1\n              swap2\n              sub\n              swap1\n              revert\n            tag_337:\n                /* \"AllContracts.sol\":10593:10623  randomness.mod(maxPick.add(1)) */\n              tag_338\n                /* \"AllContracts.sol\":10608:10622  maxPick.add(1) */\n              tag_339\n                /* \"AllContracts.sol\":10620:10621  1 */\n              0x01\n                /* \"AllContracts.sol\":10608:10615  maxPick */\n              sload(0x10)\n                /* \"AllContracts.sol\":10608:10619  maxPick.add */\n              tag_182\n              swap1\n                /* \"AllContracts.sol\":10608:10622  maxPick.add(1) */\n              swap2\n              swap1\n              0xffffffff\n              and\n              jump\t// in\n            tag_339:\n                /* \"AllContracts.sol\":10593:10603  randomness */\n              dup5\n                /* \"AllContracts.sol\":10593:10607  randomness.mod */\n              tag_340\n              swap1\n                /* \"AllContracts.sol\":10593:10623  randomness.mod(maxPick.add(1)) */\n              swap2\n              swap1\n              0xffffffff\n              and\n              jump\t// in\n            tag_338:\n                /* \"AllContracts.sol\":10582:10583  g */\n              dup3\n                /* \"AllContracts.sol\":10582:10590  g.winner */\n              0x04\n              add\n                /* \"AllContracts.sol\":10582:10623  g.winner = randomness.mod(maxPick.add(1)) */\n              dup2\n              swap1\n              sstore\n              pop\n                /* \"AllContracts.sol\":10683:10687  true */\n              0x01\n                /* \"AllContracts.sol\":10672:10673  g */\n              dup3\n                /* \"AllContracts.sol\":10672:10680  g.played */\n              0x05\n              add\n              0x00\n                /* \"AllContracts.sol\":10672:10687  g.played = true */\n              0x0100\n              exp\n              dup2\n              sload\n              dup2\n              0xff\n              mul\n              not\n              and\n              swap1\n              dup4\n              iszero\n              iszero\n              mul\n              or\n              swap1\n              sstore\n              pop\n                /* \"AllContracts.sol\":10763:10764  g */\n              dup2\n                /* \"AllContracts.sol\":10763:10768  g.bet */\n              0x02\n              add\n              sload\n                /* \"AllContracts.sol\":10746:10759  _unplayedBets */\n              sload(0x13)\n                /* \"AllContracts.sol\":10746:10768  _unplayedBets >= g.bet */\n              lt\n                /* \"AllContracts.sol\":10743:10881  if(_unplayedBets >= g.bet) {... */\n              tag_341\n              jumpi\n                /* \"AllContracts.sol\":10805:10806  g */\n              dup2\n                /* \"AllContracts.sol\":10805:10810  g.bet */\n              0x02\n              add\n              sload\n                /* \"AllContracts.sol\":10788:10801  _unplayedBets */\n              0x13\n              0x00\n                /* \"AllContracts.sol\":10788:10810  _unplayedBets -= g.bet */\n              dup3\n              dup3\n              sload\n              sub\n              swap3\n              pop\n              pop\n              dup2\n              swap1\n              sstore\n              pop\n                /* \"AllContracts.sol\":10743:10881  if(_unplayedBets >= g.bet) {... */\n              jump(tag_342)\n            tag_341:\n                /* \"AllContracts.sol\":10865:10866  0 */\n              0x00\n                /* \"AllContracts.sol\":10849:10862  _unplayedBets */\n              0x13\n                /* \"AllContracts.sol\":10849:10866  _unplayedBets = 0 */\n              dup2\n              swap1\n              sstore\n              pop\n                /* \"AllContracts.sol\":10743:10881  if(_unplayedBets >= g.bet) {... */\n            tag_342:\n                /* \"AllContracts.sol\":10969:10970  g */\n              dup2\n                /* \"AllContracts.sol\":10969:10977  g.winner */\n              0x04\n              add\n              sload\n                /* \"AllContracts.sol\":10959:10960  g */\n              dup3\n                /* \"AllContracts.sol\":10959:10965  g.pick */\n              0x03\n              add\n              sload\n                /* \"AllContracts.sol\":10959:10977  g.pick == g.winner */\n              eq\n                /* \"AllContracts.sol\":10955:11042  if (g.pick == g.winner) {... */\n              iszero\n              tag_343\n              jumpi\n                /* \"AllContracts.sol\":10997:10998  g */\n              dup2\n                /* \"AllContracts.sol\":10997:11005  g.player */\n              0x01\n              add\n              0x00\n              swap1\n              sload\n              swap1\n              0x0100\n              exp\n              swap1\n              div\n              0xffffffffffffffffffffffffffffffffffffffff\n              and\n                /* \"AllContracts.sol\":10997:11014  g.player.transfer */\n              0xffffffffffffffffffffffffffffffffffffffff\n              and\n                /* \"AllContracts.sol\":10997:11027  g.player.transfer(totalPayout) */\n              0x08fc\n                /* \"AllContracts.sol\":11015:11026  totalPayout */\n              dup3\n                /* \"AllContracts.sol\":10997:11027  g.player.transfer(totalPayout) */\n              swap1\n              dup2\n              iszero\n              mul\n              swap1\n              mload(0x40)\n              0x00\n              mload(0x40)\n              dup1\n              dup4\n              sub\n              dup2\n              dup6\n              dup9\n              dup9\n              call\n              swap4\n              pop\n              pop\n              pop\n              pop\n              iszero\n                /* \"--CODEGEN--\":8:17   */\n              dup1\n                /* \"--CODEGEN--\":5:7   */\n              iszero\n              tag_345\n              jumpi\n                /* \"--CODEGEN--\":45:61   */\n              returndatasize\n                /* \"--CODEGEN--\":42:43   */\n              0x00\n                /* \"--CODEGEN--\":39:40   */\n              dup1\n                /* \"--CODEGEN--\":24:62   */\n              returndatacopy\n                /* \"--CODEGEN--\":77:93   */\n              returndatasize\n                /* \"--CODEGEN--\":74:75   */\n              0x00\n                /* \"--CODEGEN--\":67:94   */\n              revert\n                /* \"--CODEGEN--\":5:7   */\n            tag_345:\n                /* \"AllContracts.sol\":10997:11027  g.player.transfer(totalPayout) */\n              pop\n                /* \"AllContracts.sol\":10955:11042  if (g.pick == g.winner) {... */\n            tag_343:\n                /* \"AllContracts.sol\":10337:11090  if(g.id > 0){... */\n              pop\n            tag_335:\n                /* \"AllContracts.sol\":11106:11107  1 */\n              0x01\n                /* \"AllContracts.sol\":11099:11103  gas1 */\n              0x06\n                /* \"AllContracts.sol\":11099:11107  gas1 = 1 */\n              dup2\n              swap1\n              sstore\n              pop\n                /* \"AllContracts.sol\":11124:11125  1 */\n              0x01\n                /* \"AllContracts.sol\":11117:11121  gas2 */\n              0x07\n                /* \"AllContracts.sol\":11117:11125  gas2 = 1 */\n              dup2\n              swap1\n              sstore\n              pop\n                /* \"AllContracts.sol\":11142:11143  1 */\n              0x01\n                /* \"AllContracts.sol\":11135:11139  gas3 */\n              0x08\n                /* \"AllContracts.sol\":11135:11143  gas3 = 1 */\n              dup2\n              swap1\n              sstore\n              pop\n                /* \"AllContracts.sol\":11160:11161  1 */\n              0x01\n                /* \"AllContracts.sol\":11153:11157  gas4 */\n              0x09\n                /* \"AllContracts.sol\":11153:11161  gas4 = 1 */\n              dup2\n              swap1\n              sstore\n              pop\n                /* \"AllContracts.sol\":11178:11179  1 */\n              0x01\n                /* \"AllContracts.sol\":11171:11175  gas5 */\n              0x0a\n                /* \"AllContracts.sol\":11171:11179  gas5 = 1 */\n              dup2\n              swap1\n              sstore\n              pop\n                /* \"AllContracts.sol\":11196:11197  1 */\n              0x01\n                /* \"AllContracts.sol\":11189:11193  gas6 */\n              0x0b\n                /* \"AllContracts.sol\":11189:11197  gas6 = 1 */\n              dup2\n              swap1\n              sstore\n              pop\n                /* \"AllContracts.sol\":11214:11215  1 */\n              0x01\n                /* \"AllContracts.sol\":11207:11211  gas7 */\n              0x0c\n                /* \"AllContracts.sol\":11207:11215  gas7 = 1 */\n              dup2\n              swap1\n              sstore\n              pop\n                /* \"AllContracts.sol\":11232:11233  1 */\n              0x01\n                /* \"AllContracts.sol\":11225:11229  gas8 */\n              0x0d\n                /* \"AllContracts.sol\":11225:11233  gas8 = 1 */\n              dup2\n              swap1\n              sstore\n              pop\n                /* \"AllContracts.sol\":11250:11251  1 */\n              0x01\n                /* \"AllContracts.sol\":11243:11247  gas9 */\n              0x0e\n                /* \"AllContracts.sol\":11243:11251  gas9 = 1 */\n              dup2\n              swap1\n              sstore\n              pop\n                /* \"AllContracts.sol\":11269:11270  1 */\n              0x01\n                /* \"AllContracts.sol\":11261:11266  gas10 */\n              0x0f\n                /* \"AllContracts.sol\":11261:11270  gas10 = 1 */\n              dup2\n              swap1\n              sstore\n              pop\n                /* \"AllContracts.sol\":10148:11277  function fulfillRandomness(bytes32 requestId, uint256 randomness) internal override {... */\n              pop\n              pop\n              pop\n              jump\t// out\n                /* \"AllContracts.sol\":9148:9581  function createGame(address payable _player, uint _bet, uint _pick) internal {... */\n            tag_255:\n                /* \"AllContracts.sol\":9251:9270  _currentGame.add(1) */\n              tag_347\n                /* \"AllContracts.sol\":9268:9269  1 */\n              0x01\n                /* \"AllContracts.sol\":9251:9263  _currentGame */\n              sload(0x14)\n                /* \"AllContracts.sol\":9251:9267  _currentGame.add */\n              tag_182\n              swap1\n                /* \"AllContracts.sol\":9251:9270  _currentGame.add(1) */\n              swap2\n              swap1\n              0xffffffff\n              and\n              jump\t// in\n            tag_347:\n                /* \"AllContracts.sol\":9236:9248  _currentGame */\n              0x14\n                /* \"AllContracts.sol\":9236:9270  _currentGame = _currentGame.add(1) */\n              dup2\n              swap1\n              sstore\n              pop\n                /* \"AllContracts.sol\":9280:9299  Game memory newGame */\n              tag_348\n              tag_296\n              jump\t// in\n            tag_348:\n                /* \"AllContracts.sol\":9302:9537  Game ({... */\n              mload(0x40)\n              dup1\n              0xc0\n              add\n              0x40\n              mstore\n              dup1\n                /* \"AllContracts.sol\":9326:9338  _currentGame */\n              sload(0x14)\n                /* \"AllContracts.sol\":9302:9537  Game ({... */\n              dup2\n              mstore\n              0x20\n              add\n                /* \"AllContracts.sol\":9360:9367  _player */\n              dup6\n                /* \"AllContracts.sol\":9302:9537  Game ({... */\n              0xffffffffffffffffffffffffffffffffffffffff\n              and\n              dup2\n              mstore\n              0x20\n              add\n                /* \"AllContracts.sol\":9386:9390  _bet */\n              dup5\n                /* \"AllContracts.sol\":9302:9537  Game ({... */\n              dup2\n              mstore\n              0x20\n              add\n                /* \"AllContracts.sol\":9410:9415  _pick */\n              dup4\n                /* \"AllContracts.sol\":9302:9537  Game ({... */\n              dup2\n              mstore\n              0x20\n              add\n                /* \"AllContracts.sol\":9437:9452  maxPick.add(10) */\n              tag_349\n                /* \"AllContracts.sol\":9449:9451  10 */\n              0x0a\n                /* \"AllContracts.sol\":9437:9444  maxPick */\n              sload(0x10)\n                /* \"AllContracts.sol\":9437:9448  maxPick.add */\n              tag_182\n              swap1\n                /* \"AllContracts.sol\":9437:9452  maxPick.add(10) */\n              swap2\n              swap1\n              0xffffffff\n              and\n              jump\t// in\n            tag_349:\n                /* \"AllContracts.sol\":9302:9537  Game ({... */\n              dup2\n              mstore\n              0x20\n              add\n                /* \"AllContracts.sol\":9521:9526  false */\n              0x00\n                /* \"AllContracts.sol\":9302:9537  Game ({... */\n              iszero\n              iszero\n              dup2\n              mstore\n              pop\n                /* \"AllContracts.sol\":9280:9537  Game memory newGame = Game ({... */\n              swap1\n              pop\n                /* \"AllContracts.sol\":9567:9574  newGame */\n              dup1\n                /* \"AllContracts.sol\":9547:9552  games */\n              0x17\n                /* \"AllContracts.sol\":9547:9564  games[newGame.id] */\n              0x00\n                /* \"AllContracts.sol\":9553:9560  newGame */\n              dup4\n                /* \"AllContracts.sol\":9553:9563  newGame.id */\n              0x00\n              add\n              mload\n                /* \"AllContracts.sol\":9547:9564  games[newGame.id] */\n              dup2\n              mstore\n              0x20\n              add\n              swap1\n              dup2\n              mstore\n              0x20\n              add\n              0x00\n              keccak256\n                /* \"AllContracts.sol\":9547:9574  games[newGame.id] = newGame */\n              0x00\n              dup3\n              add\n              mload\n              dup2\n              0x00\n              add\n              sstore\n              0x20\n              dup3\n              add\n              mload\n              dup2\n              0x01\n              add\n              exp(0x0100, 0x00)\n              dup2\n              sload\n              dup2\n              0xffffffffffffffffffffffffffffffffffffffff\n              mul\n              not\n              and\n              swap1\n              dup4\n              0xffffffffffffffffffffffffffffffffffffffff\n              and\n              mul\n              or\n              swap1\n              sstore\n              pop\n              0x40\n              dup3\n              add\n              mload\n              dup2\n              0x02\n              add\n              sstore\n              0x60\n              dup3\n              add\n              mload\n              dup2\n              0x03\n              add\n              sstore\n              0x80\n              dup3\n              add\n              mload\n              dup2\n              0x04\n              add\n              sstore\n              0xa0\n              dup3\n              add\n              mload\n              dup2\n              0x05\n              add\n              exp(0x0100, 0x00)\n              dup2\n              sload\n              dup2\n              0xff\n              mul\n              not\n              and\n              swap1\n              dup4\n              iszero\n              iszero\n              mul\n              or\n              swap1\n              sstore\n              pop\n              swap1\n              pop\n              pop\n                /* \"AllContracts.sol\":9148:9581  function createGame(address payable _player, uint _bet, uint _pick) internal {... */\n              pop\n              pop\n              pop\n              pop\n              jump\t// out\n                /* \"AllContracts.sol\":4790:5175  function requestRandomness(bytes32 _keyHash, uint256 _fee, uint256 _seed)... */\n            tag_264:\n                /* \"AllContracts.sol\":4886:4903  bytes32 requestId */\n              0x00\n                /* \"AllContracts.sol\":4913:4917  LINK */\n              dup1\n              0x00\n              swap1\n              sload\n              swap1\n              0x0100\n              exp\n              swap1\n              div\n              0xffffffffffffffffffffffffffffffffffffffff\n              and\n                /* \"AllContracts.sol\":4913:4933  LINK.transferAndCall */\n              0xffffffffffffffffffffffffffffffffffffffff\n              and\n              0x4000aea0\n                /* \"AllContracts.sol\":4934:4948  vrfCoordinator */\n              0x01\n              0x00\n              swap1\n              sload\n              swap1\n              0x0100\n              exp\n              swap1\n              div\n              0xffffffffffffffffffffffffffffffffffffffff\n              and\n                /* \"AllContracts.sol\":4950:4954  _fee */\n              dup6\n                /* \"AllContracts.sol\":4967:4975  _keyHash */\n              dup8\n                /* \"AllContracts.sol\":4977:4982  _seed */\n              dup7\n                /* \"AllContracts.sol\":4956:4983  abi.encode(_keyHash, _seed) */\n              add(0x20, mload(0x40))\n              dup1\n              dup4\n              dup2\n              mstore\n              0x20\n              add\n              dup3\n              dup2\n              mstore\n              0x20\n              add\n              swap3\n              pop\n              pop\n              pop\n              mload(0x40)\n                /* \"--CODEGEN--\":49:53   */\n              0x20\n                /* \"--CODEGEN--\":39:46   */\n              dup2\n                /* \"--CODEGEN--\":30:37   */\n              dup4\n                /* \"--CODEGEN--\":26:47   */\n              sub\n                /* \"--CODEGEN--\":22:54   */\n              sub\n                /* \"--CODEGEN--\":13:20   */\n              dup2\n                /* \"--CODEGEN--\":6:55   */\n              mstore\n                /* \"AllContracts.sol\":4956:4983  abi.encode(_keyHash, _seed) */\n              swap1\n              0x40\n              mstore\n                /* \"AllContracts.sol\":4913:4984  LINK.transferAndCall(vrfCoordinator, _fee, abi.encode(_keyHash, _seed)) */\n              mload(0x40)\n              dup5\n              0xffffffff\n              and\n              0xe0\n              shl\n              dup2\n              mstore\n              0x04\n              add\n              dup1\n              dup5\n              0xffffffffffffffffffffffffffffffffffffffff\n              and\n              0xffffffffffffffffffffffffffffffffffffffff\n              and\n              dup2\n              mstore\n              0x20\n              add\n              dup4\n              dup2\n              mstore\n              0x20\n              add\n              dup1\n              0x20\n              add\n              dup3\n              dup2\n              sub\n              dup3\n              mstore\n              dup4\n              dup2\n              dup2\n              mload\n              dup2\n              mstore\n              0x20\n              add\n              swap2\n              pop\n              dup1\n              mload\n              swap1\n              0x20\n              add\n              swap1\n              dup1\n              dup4\n              dup4\n                /* \"--CODEGEN--\":23:24   */\n              0x00\n                /* \"--CODEGEN--\":8:108   */\n            tag_351:\n                /* \"--CODEGEN--\":33:36   */\n              dup4\n                /* \"--CODEGEN--\":30:31   */\n              dup2\n                /* \"--CODEGEN--\":27:37   */\n              lt\n                /* \"--CODEGEN--\":8:108   */\n              iszero\n              tag_353\n              jumpi\n                /* \"--CODEGEN--\":99:100   */\n              dup1\n                /* \"--CODEGEN--\":94:97   */\n              dup3\n                /* \"--CODEGEN--\":90:101   */\n              add\n                /* \"--CODEGEN--\":84:102   */\n              mload\n                /* \"--CODEGEN--\":80:81   */\n              dup2\n                /* \"--CODEGEN--\":75:78   */\n              dup5\n                /* \"--CODEGEN--\":71:82   */\n              add\n                /* \"--CODEGEN--\":64:103   */\n              mstore\n                /* \"--CODEGEN--\":52:54   */\n              0x20\n                /* \"--CODEGEN--\":49:50   */\n              dup2\n                /* \"--CODEGEN--\":45:55   */\n              add\n                /* \"--CODEGEN--\":40:55   */\n              swap1\n              pop\n                /* \"--CODEGEN--\":8:108   */\n              jump(tag_351)\n            tag_353:\n                /* \"--CODEGEN--\":12:26   */\n              pop\n                /* \"AllContracts.sol\":4913:4984  LINK.transferAndCall(vrfCoordinator, _fee, abi.encode(_keyHash, _seed)) */\n              pop\n              pop\n              pop\n              swap1\n              pop\n              swap1\n              dup2\n              add\n              swap1\n              0x1f\n              and\n              dup1\n              iszero\n              tag_354\n              jumpi\n              dup1\n              dup3\n              sub\n              dup1\n              mload\n              0x01\n              dup4\n              0x20\n              sub\n              0x0100\n              exp\n              sub\n              not\n              and\n              dup2\n              mstore\n              0x20\n              add\n              swap2\n              pop\n            tag_354:\n              pop\n              swap5\n              pop\n              pop\n              pop\n              pop\n              pop\n              0x20\n              mload(0x40)\n              dup1\n              dup4\n              sub\n              dup2\n              0x00\n              dup8\n              dup1\n              extcodesize\n              iszero\n                /* \"--CODEGEN--\":8:17   */\n              dup1\n                /* \"--CODEGEN--\":5:7   */\n              iszero\n              tag_355\n              jumpi\n                /* \"--CODEGEN--\":30:31   */\n              0x00\n                /* \"--CODEGEN--\":27:28   */\n              dup1\n                /* \"--CODEGEN--\":20:32   */\n              revert\n                /* \"--CODEGEN--\":5:7   */\n            tag_355:\n                /* \"AllContracts.sol\":4913:4984  LINK.transferAndCall(vrfCoordinator, _fee, abi.encode(_keyHash, _seed)) */\n              pop\n              gas\n              call\n              iszero\n                /* \"--CODEGEN--\":8:17   */\n              dup1\n                /* \"--CODEGEN--\":5:7   */\n              iszero\n              tag_357\n              jumpi\n                /* \"--CODEGEN--\":45:61   */\n              returndatasize\n                /* \"--CODEGEN--\":42:43   */\n              0x00\n                /* \"--CODEGEN--\":39:40   */\n              dup1\n                /* \"--CODEGEN--\":24:62   */\n              returndatacopy\n                /* \"--CODEGEN--\":77:93   */\n              returndatasize\n                /* \"--CODEGEN--\":74:75   */\n              0x00\n                /* \"--CODEGEN--\":67:94   */\n              revert\n                /* \"--CODEGEN--\":5:7   */\n            tag_357:\n                /* \"AllContracts.sol\":4913:4984  LINK.transferAndCall(vrfCoordinator, _fee, abi.encode(_keyHash, _seed)) */\n              pop\n              pop\n              pop\n              pop\n              mload(0x40)\n              returndatasize\n                /* \"--CODEGEN--\":13:15   */\n              0x20\n                /* \"--CODEGEN--\":8:11   */\n              dup2\n                /* \"--CODEGEN--\":5:16   */\n              lt\n                /* \"--CODEGEN--\":2:4   */\n              iszero\n              tag_358\n              jumpi\n                /* \"--CODEGEN--\":29:30   */\n              0x00\n                /* \"--CODEGEN--\":26:27   */\n              dup1\n                /* \"--CODEGEN--\":19:31   */\n              revert\n                /* \"--CODEGEN--\":2:4   */\n            tag_358:\n                /* \"AllContracts.sol\":4913:4984  LINK.transferAndCall(vrfCoordinator, _fee, abi.encode(_keyHash, _seed)) */\n              dup2\n              add\n              swap1\n              dup1\n              dup1\n              mload\n              swap1\n              0x20\n              add\n              swap1\n              swap3\n              swap2\n              swap1\n              pop\n              pop\n              pop\n              pop\n                /* \"AllContracts.sol\":4991:5006  uint256 vRFSeed */\n              0x00\n                /* \"AllContracts.sol\":5010:5076  makeVRFInputSeed(_keyHash, _seed, address(this), nonces[_keyHash]) */\n              tag_359\n                /* \"AllContracts.sol\":5027:5035  _keyHash */\n              dup6\n                /* \"AllContracts.sol\":5037:5042  _seed */\n              dup5\n                /* \"AllContracts.sol\":5052:5056  this */\n              address\n                /* \"AllContracts.sol\":5059:5065  nonces */\n              0x02\n                /* \"AllContracts.sol\":5059:5075  nonces[_keyHash] */\n              0x00\n                /* \"AllContracts.sol\":5066:5074  _keyHash */\n              dup11\n                /* \"AllContracts.sol\":5059:5075  nonces[_keyHash] */\n              dup2\n              mstore\n              0x20\n              add\n              swap1\n              dup2\n              mstore\n              0x20\n              add\n              0x00\n              keccak256\n              sload\n                /* \"AllContracts.sol\":5010:5026  makeVRFInputSeed */\n              tag_360\n                /* \"AllContracts.sol\":5010:5076  makeVRFInputSeed(_keyHash, _seed, address(this), nonces[_keyHash]) */\n              jump\t// in\n            tag_359:\n                /* \"AllContracts.sol\":4991:5076  uint256 vRFSeed  = makeVRFInputSeed(_keyHash, _seed, address(this), nonces[_keyHash]) */\n              swap1\n              pop\n                /* \"AllContracts.sol\":5102:5125  nonces[_keyHash].add(1) */\n              tag_361\n                /* \"AllContracts.sol\":5123:5124  1 */\n              0x01\n                /* \"AllContracts.sol\":5102:5108  nonces */\n              0x02\n                /* \"AllContracts.sol\":5102:5118  nonces[_keyHash] */\n              0x00\n                /* \"AllContracts.sol\":5109:5117  _keyHash */\n              dup9\n                /* \"AllContracts.sol\":5102:5118  nonces[_keyHash] */\n              dup2\n              mstore\n              0x20\n              add\n              swap1\n              dup2\n              mstore\n              0x20\n              add\n              0x00\n              keccak256\n              sload\n                /* \"AllContracts.sol\":5102:5122  nonces[_keyHash].add */\n              tag_182\n              swap1\n                /* \"AllContracts.sol\":5102:5125  nonces[_keyHash].add(1) */\n              swap2\n              swap1\n              0xffffffff\n              and\n              jump\t// in\n            tag_361:\n                /* \"AllContracts.sol\":5083:5089  nonces */\n              0x02\n                /* \"AllContracts.sol\":5083:5099  nonces[_keyHash] */\n              0x00\n                /* \"AllContracts.sol\":5090:5098  _keyHash */\n              dup8\n                /* \"AllContracts.sol\":5083:5099  nonces[_keyHash] */\n              dup2\n              mstore\n              0x20\n              add\n              swap1\n              dup2\n              mstore\n              0x20\n              add\n              0x00\n              keccak256\n                /* \"AllContracts.sol\":5083:5125  nonces[_keyHash] = nonces[_keyHash].add(1) */\n              dup2\n              swap1\n              sstore\n              pop\n                /* \"AllContracts.sol\":5138:5170  makeRequestId(_keyHash, vRFSeed) */\n              tag_362\n                /* \"AllContracts.sol\":5152:5160  _keyHash */\n              dup6\n                /* \"AllContracts.sol\":5162:5169  vRFSeed */\n              dup3\n                /* \"AllContracts.sol\":5138:5151  makeRequestId */\n              tag_363\n                /* \"AllContracts.sol\":5138:5170  makeRequestId(_keyHash, vRFSeed) */\n              jump\t// in\n            tag_362:\n                /* \"AllContracts.sol\":5131:5170  return makeRequestId(_keyHash, vRFSeed) */\n              swap2\n              pop\n              pop\n                /* \"AllContracts.sol\":4790:5175  function requestRandomness(bytes32 _keyHash, uint256 _fee, uint256 _seed)... */\n              swap4\n              swap3\n              pop\n              pop\n              pop\n              jump\t// out\n                /* \"AllContracts.sol\":2980:3119  function mod(uint256 a, uint256 b) internal pure returns (uint256) {... */\n            tag_340:\n                /* \"AllContracts.sol\":3038:3045  uint256 */\n              0x00\n                /* \"AllContracts.sol\":3066:3067  0 */\n              dup1\n                /* \"AllContracts.sol\":3061:3062  b */\n              dup3\n                /* \"AllContracts.sol\":3061:3067  b != 0 */\n              eq\n              iszero\n                /* \"AllContracts.sol\":3053:3096  require(b != 0, \"SafeMath: modulo by zero\") */\n              tag_365\n              jumpi\n              mload(0x40)\n              0x08c379a000000000000000000000000000000000000000000000000000000000\n              dup2\n              mstore\n              0x04\n              add\n              dup1\n              dup1\n              0x20\n              add\n              dup3\n              dup2\n              sub\n              dup3\n              mstore\n              0x18\n              dup2\n              mstore\n              0x20\n              add\n              dup1\n              0x536166654d6174683a206d6f64756c6f206279207a65726f0000000000000000\n              dup2\n              mstore\n              pop\n              0x20\n              add\n              swap2\n              pop\n              pop\n              mload(0x40)\n              dup1\n              swap2\n              sub\n              swap1\n              revert\n            tag_365:\n                /* \"AllContracts.sol\":3113:3114  b */\n              dup2\n                /* \"AllContracts.sol\":3109:3110  a */\n              dup4\n                /* \"AllContracts.sol\":3109:3114  a % b */\n              dup2\n              tag_366\n              jumpi\n              invalid\n            tag_366:\n              mod\n                /* \"AllContracts.sol\":3102:3114  return a % b */\n              swap1\n              pop\n                /* \"AllContracts.sol\":2980:3119  function mod(uint256 a, uint256 b) internal pure returns (uint256) {... */\n              swap3\n              swap2\n              pop\n              pop\n              jump\t// out\n                /* \"AllContracts.sol\":3154:3385  function makeVRFInputSeed(bytes32 _keyHash, uint256 _userSeed,... */\n            tag_360:\n                /* \"AllContracts.sol\":3284:3291  uint256 */\n              0x00\n                /* \"AllContracts.sol\":3338:3346  _keyHash */\n              dup5\n                /* \"AllContracts.sol\":3348:3357  _userSeed */\n              dup5\n                /* \"AllContracts.sol\":3359:3369  _requester */\n              dup5\n                /* \"AllContracts.sol\":3371:3377  _nonce */\n              dup5\n                /* \"AllContracts.sol\":3327:3378  abi.encode(_keyHash, _userSeed, _requester, _nonce) */\n              add(0x20, mload(0x40))\n              dup1\n              dup6\n              dup2\n              mstore\n              0x20\n              add\n              dup5\n              dup2\n              mstore\n              0x20\n              add\n              dup4\n              0xffffffffffffffffffffffffffffffffffffffff\n              and\n              0xffffffffffffffffffffffffffffffffffffffff\n              and\n              dup2\n              mstore\n              0x20\n              add\n              dup3\n              dup2\n              mstore\n              0x20\n              add\n              swap5\n              pop\n              pop\n              pop\n              pop\n              pop\n              mload(0x40)\n                /* \"--CODEGEN--\":49:53   */\n              0x20\n                /* \"--CODEGEN--\":39:46   */\n              dup2\n                /* \"--CODEGEN--\":30:37   */\n              dup4\n                /* \"--CODEGEN--\":26:47   */\n              sub\n                /* \"--CODEGEN--\":22:54   */\n              sub\n                /* \"--CODEGEN--\":13:20   */\n              dup2\n                /* \"--CODEGEN--\":6:55   */\n              mstore\n                /* \"AllContracts.sol\":3327:3378  abi.encode(_keyHash, _userSeed, _requester, _nonce) */\n              swap1\n              0x40\n              mstore\n                /* \"AllContracts.sol\":3317:3379  keccak256(abi.encode(_keyHash, _userSeed, _requester, _nonce)) */\n              dup1\n              mload\n              swap1\n              0x20\n              add\n              keccak256\n                /* \"AllContracts.sol\":3309:3380  uint256(keccak256(abi.encode(_keyHash, _userSeed, _requester, _nonce))) */\n              0x00\n              shr\n                /* \"AllContracts.sol\":3301:3380  return  uint256(keccak256(abi.encode(_keyHash, _userSeed, _requester, _nonce))) */\n              swap1\n              pop\n                /* \"AllContracts.sol\":3154:3385  function makeVRFInputSeed(bytes32 _keyHash, uint256 _userSeed,... */\n              swap5\n              swap4\n              pop\n              pop\n              pop\n              pop\n              jump\t// out\n                /* \"AllContracts.sol\":3389:3560  function makeRequestId(... */\n            tag_363:\n                /* \"AllContracts.sol\":3481:3488  bytes32 */\n              0x00\n                /* \"AllContracts.sol\":3530:3538  _keyHash */\n              dup3\n                /* \"AllContracts.sol\":3540:3553  _vRFInputSeed */\n              dup3\n                /* \"AllContracts.sol\":3513:3554  abi.encodePacked(_keyHash, _vRFInputSeed) */\n              add(0x20, mload(0x40))\n              dup1\n              dup4\n              dup2\n              mstore\n              0x20\n              add\n              dup3\n              dup2\n              mstore\n              0x20\n              add\n              swap3\n              pop\n              pop\n              pop\n              mload(0x40)\n                /* \"--CODEGEN--\":49:53   */\n              0x20\n                /* \"--CODEGEN--\":39:46   */\n              dup2\n                /* \"--CODEGEN--\":30:37   */\n              dup4\n                /* \"--CODEGEN--\":26:47   */\n              sub\n                /* \"--CODEGEN--\":22:54   */\n              sub\n                /* \"--CODEGEN--\":13:20   */\n              dup2\n                /* \"--CODEGEN--\":6:55   */\n              mstore\n                /* \"AllContracts.sol\":3513:3554  abi.encodePacked(_keyHash, _vRFInputSeed) */\n              swap1\n              0x40\n              mstore\n                /* \"AllContracts.sol\":3503:3555  keccak256(abi.encodePacked(_keyHash, _vRFInputSeed)) */\n              dup1\n              mload\n              swap1\n              0x20\n              add\n              keccak256\n                /* \"AllContracts.sol\":3496:3555  return keccak256(abi.encodePacked(_keyHash, _vRFInputSeed)) */\n              swap1\n              pop\n                /* \"AllContracts.sol\":3389:3560  function makeRequestId(... */\n              swap3\n              swap2\n              pop\n              pop\n              jump\t// out\n                /* \"AllContracts.sol\":5733:16040  contract LuckyMachine is VRFConsumerBase, Ownable {... */\n            tag_296:\n              mload(0x40)\n              dup1\n              0xc0\n              add\n              0x40\n              mstore\n              dup1\n              0x00\n              dup2\n              mstore\n              0x20\n              add\n              and(0xffffffffffffffffffffffffffffffffffffffff, 0x00)\n              dup2\n              mstore\n              0x20\n              add\n              0x00\n              dup2\n              mstore\n              0x20\n              add\n              0x00\n              dup2\n              mstore\n              0x20\n              add\n              0x00\n              dup2\n              mstore\n              0x20\n              add\n              iszero(iszero(0x00))\n              dup2\n              mstore\n              pop\n              swap1\n              jump\t// out\n            stop\n            data_104d4309dbdd0d693502d943a07623e5e639a80ec32910748a6b4f701d61cac8 5069636b20697320746f6f20686967682e2043686f6f73652061206c6f776572206e756d6265722e\n            data_245f15ff17f551913a7a18385165551503906a406f905ac1c2437281a7cd0cfe 4f776e61626c653a206e6577206f776e657220697320746865207a65726f2061646472657373\n            data_588b68a2a6ccdc15b2dae26a385280edec71bed95b5b14a24b760c56e4f665d6 436f6e74726163742068617320696e737566666963696e742066756e647320746f207061796f757420706f737369626c652077696e2e\n            data_9113bb53c2876a3805b2c9242029423fc540a728243ce887ab24c82cf119fba3 536166654d6174683a206d756c7469706c69636174696f6e206f766572666c6f77\n            data_b719f220e413600c7e92ed4736b96c6908e0428122610fe965fcc60eefeedbad 436f6e74726163742062616c616e636520746f6f206c6f772e20506c656173652074727920616761696e206c617465722e\n            data_c34c85fa0e0680ac47dc2c21fdf93b1adcc71d9a1a3b3b1788b881c3f4f390ac 47616d6520616c726561647920636f6d706c6574652e204e6f20726566756e6420706f737369626c652e\n            data_ef92889bcd3368ac0e5c94a5c325c5cf21da03eb1576ee7d446327960d5fae81 556e61626c6520746f207061792e20506c6561736520706c617920616761696e206f72207265717565737420726566756e642e\n\n            auxdata: 0xa26469706673582212208dcedd1879cd806549aba4763129dd8dad8d1715ea4c9cba75015d4099bee3c964736f6c63430006000033\n        }\n    }\n\n    auxdata: 0xa2646970667358221220ec7f25f188fd38a3abc836006b50eaad37877bd7ae6335ac61f2b5929c1be5bf64736f6c63430006000033\n}\n","bytecode":{"linkReferences":{},"object":"608060405234801561001057600080fd5b50613aab806100206000396000f3fe608060405234801561001057600080fd5b50600436106100415760003560e01c806306373b9a146100465780634d42845c146100d257806352b07b3414610140575b600080fd5b6100906004803603608081101561005c57600080fd5b810190808035906020019092919080359060200190929190803590602001909291908035906020019092919050505061019f565b604051808273ffffffffffffffffffffffffffffffffffffffff1673ffffffffffffffffffffffffffffffffffffffff16815260200191505060405180910390f35b6100fe600480360360208110156100e857600080fd5b8101908080359060200190929190505050610330565b604051808273ffffffffffffffffffffffffffffffffffffffff1673ffffffffffffffffffffffffffffffffffffffff16815260200191505060405180910390f35b61014861036c565b6040518080602001828103825283818151815260200191508051906020019060200280838360005b8381101561018b578082015181840152602081019050610170565b505050509050019250505060405180910390f35b60008033868686866040516101b3906103fa565b808673ffffffffffffffffffffffffffffffffffffffff1673ffffffffffffffffffffffffffffffffffffffff16815260200185815260200184815260200183815260200182815260200195505050505050604051809103906000f080158015610221573d6000803e3d6000fd5b5090508073ffffffffffffffffffffffffffffffffffffffff1663f2fde38b336040518263ffffffff1660e01b8152600401808273ffffffffffffffffffffffffffffffffffffffff1673ffffffffffffffffffffffffffffffffffffffff168152602001915050600060405180830381600087803b1580156102a357600080fd5b505af11580156102b7573d6000803e3d6000fd5b5050505060008190506000819080600181540180825580915050600190039060005260206000200160009091909190916101000a81548173ffffffffffffffffffffffffffffffffffffffff021916908373ffffffffffffffffffffffffffffffffffffffff1602179055508092505050949350505050565b6000818154811061033d57fe5b906000526020600020016000915054906101000a900473ffffffffffffffffffffffffffffffffffffffff1681565b606060008054806020026020016040519081016040528092919081815260200182805480156103f057602002820191906000526020600020905b8160009054906101000a900473ffffffffffffffffffffffffffffffffffffffff1673ffffffffffffffffffffffffffffffffffffffff16815260200190600101908083116103a6575b5050505050905090565b61366e806104088339019056fe60806040523480156200001157600080fd5b506040516200366e3803806200366e833981810160405260a08110156200003757600080fd5b81019080805190602001909291908051906020019092919080519060200190929190805190602001909291908051906020019092919050505073dd3782915140c8f3b190b5d67eac6dc5760c46e973a36085f69e2889c224210f603d836748e7dc008881600160006101000a81548173ffffffffffffffffffffffffffffffffffffffff021916908373ffffffffffffffffffffffffffffffffffffffff160217905550806000806101000a81548173ffffffffffffffffffffffffffffffffffffffff021916908373ffffffffffffffffffffffffffffffffffffffff160217905550505060006200012f620002cf60201b60201c565b905080600360006101000a81548173ffffffffffffffffffffffffffffffffffffffff021916908373ffffffffffffffffffffffffffffffffffffffff1602179055508073ffffffffffffffffffffffffffffffffffffffff16600073ffffffffffffffffffffffffffffffffffffffff167f8be0079c531659141344cd1fd0a4f28419497f9722a3daafe3b4186f6b6457e060405160405180910390a3507f6c3699283bda56ad74f6b855546325b68d482e983852a7a82979cc4807b641f460001b60048190555067016345785d8a00006005819055506001601481905550600060138190555084601560006101000a81548173ffffffffffffffffffffffffffffffffffffffff021916908373ffffffffffffffffffffffffffffffffffffffff1602179055508260128190555083601181905550816010819055508060168190555060016006819055506001600781905550600160088190555060016009819055506001600a819055506001600b819055506001600c819055506001600d819055506001600e819055506001600f819055505050505050620002d7565b600033905090565b61338780620002e76000396000f3fe60806040526004361061021e5760003560e01c806382e39ac511610123578063a02e0616116100ab578063c955e79c1161006f578063c955e79c146109e5578063de4fa6af146109fc578063f2fde38b14610a77578063fa63b7ad14610ac8578063fafacab214610b1b57610225565b8063a02e0616146108a5578063a4b2409e146108f6578063ac150fd814610931578063b37217a41461097f578063b93030b3146109ce57610225565b806394985ddd116100f257806394985ddd146107805780639619367d146107c557806398544710146107f05780639920cf811461082b5780639e317f121461085657610225565b806382e39ac514610664578063881eff1e146106b357806388ea41b9146106ee5780638da5cb5b1461072957610225565b806344c18aa7116101a65780635b8d02d7116101755780635b8d02d71461055b5780636168eac9146105b257806363bd1d4a146105f75780636b25d29614610622578063715018a61461064d57610225565b806344c18aa71461046957806344ff81ce146104a457806350c5f975146104f55780635873533d1461052057610225565b80632e5b2168116101ed5780632e5b2168146103575780632ee42d8a1461038257806333ea51a8146103ad57806339e7357c146103fe5780634051ddac1461042957610225565b80630c610a121461022a57806310fe7c481461027d578063117a5b90146102ab5780632de0f1821461034d57610225565b3661022557005b600080fd5b34801561023657600080fd5b506102636004803603602081101561024d57600080fd5b8101908080359060200190929190505050610b73565b604051808215151515815260200191505060405180910390f35b6102a96004803603602081101561029357600080fd5b8101908080359060200190929190505050610bba565b005b3480156102b757600080fd5b506102e4600480360360208110156102ce57600080fd5b8101908080359060200190929190505050610c03565b604051808781526020018673ffffffffffffffffffffffffffffffffffffffff1673ffffffffffffffffffffffffffffffffffffffff16815260200185815260200184815260200183815260200182151515158152602001965050505050505060405180910390f35b610355610c6c565b005b34801561036357600080fd5b5061036c610c6e565b6040518082815260200191505060405180910390f35b34801561038e57600080fd5b50610397610c74565b6040518082815260200191505060405180910390f35b3480156103b957600080fd5b506103fc600480360360208110156103d057600080fd5b81019080803573ffffffffffffffffffffffffffffffffffffffff169060200190929190505050610c7a565b005b34801561040a57600080fd5b50610413610d88565b6040518082815260200191505060405180910390f35b34801561043557600080fd5b5061043e610d92565b6040518085815260200184815260200183815260200182815260200194505050505060405180910390f35b34801561047557600080fd5b506104a26004803603602081101561048c57600080fd5b8101908080359060200190929190505050610db2565b005b3480156104b057600080fd5b506104f3600480360360208110156104c757600080fd5b81019080803573ffffffffffffffffffffffffffffffffffffffff169060200190929190505050610e86565b005b34801561050157600080fd5b5061050a610f94565b6040518082815260200191505060405180910390f35b34801561052c57600080fd5b506105596004803603602081101561054357600080fd5b8101908080359060200190929190505050611074565b005b34801561056757600080fd5b50610570611142565b604051808273ffffffffffffffffffffffffffffffffffffffff1673ffffffffffffffffffffffffffffffffffffffff16815260200191505060405180910390f35b3480156105be57600080fd5b506105f5600480360360408110156105d557600080fd5b810190808035906020019092919080359060200190929190505050611168565b005b34801561060357600080fd5b5061060c611296565b6040518082815260200191505060405180910390f35b34801561062e57600080fd5b5061063761129c565b6040518082815260200191505060405180910390f35b34801561065957600080fd5b506106626112a2565b005b34801561067057600080fd5b5061069d6004803603602081101561068757600080fd5b810190808035906020019092919050505061142d565b6040518082815260200191505060405180910390f35b3480156106bf57600080fd5b506106ec600480360360208110156106d657600080fd5b8101908080359060200190929190505050611445565b005b3480156106fa57600080fd5b506107276004803603602081101561071157600080fd5b8101908080359060200190929190505050611519565b005b34801561073557600080fd5b5061073e6115ed565b604051808273ffffffffffffffffffffffffffffffffffffffff1673ffffffffffffffffffffffffffffffffffffffff16815260200191505060405180910390f35b34801561078c57600080fd5b506107c3600480360360408110156107a357600080fd5b810190808035906020019092919080359060200190929190505050611617565b005b3480156107d157600080fd5b506107da6116e8565b6040518082815260200191505060405180910390f35b3480156107fc57600080fd5b506108296004803603602081101561081357600080fd5b81019080803590602001909291905050506116ee565b005b34801561083757600080fd5b506108406117c2565b6040518082815260200191505060405180910390f35b34801561086257600080fd5b5061088f6004803603602081101561087957600080fd5b81019080803590602001909291905050506117c8565b6040518082815260200191505060405180910390f35b3480156108b157600080fd5b506108f4600480360360208110156108c857600080fd5b81019080803573ffffffffffffffffffffffffffffffffffffffff1690602001909291905050506117e0565b005b34801561090257600080fd5b5061092f6004803603602081101561091957600080fd5b81019080803590602001909291905050506118ed565b005b61097d6004803603604081101561094757600080fd5b81019080803573ffffffffffffffffffffffffffffffffffffffff16906020019092919080359060200190929190505050611a8e565b005b34801561098b57600080fd5b506109b8600480360360208110156109a257600080fd5b8101908080359060200190929190505050611bf7565b6040518082815260200191505060405180910390f35b3480156109da57600080fd5b506109e3611d5e565b005b3480156109f157600080fd5b506109fa61217b565b005b348015610a0857600080fd5b50610a75600480360360a0811015610a1f57600080fd5b81019080803573ffffffffffffffffffffffffffffffffffffffff1690602001909291908035906020019092919080359060200190929190803515159060200190929190803590602001909291905050506122d8565b005b348015610a8357600080fd5b50610ac660048036036020811015610a9a57600080fd5b81019080803573ffffffffffffffffffffffffffffffffffffffff1690602001909291905050506123ee565b005b348015610ad457600080fd5b50610b0160048036036020811015610aeb57600080fd5b81019080803590602001909291905050506125fe565b604051808215151515815260200191505060405180910390f35b610b7160048036036060811015610b3157600080fd5b81019080803573ffffffffffffffffffffffffffffffffffffffff169060200190929190803590602001909291908035906020019092919050505061262c565b005b6000610b9c82610b8e601654856127d390919063ffffffff16565b61285990919063ffffffff16565b610bb1601354476128e190919063ffffffff16565b10159050919050565b600660009055600760009055600860009055600960009055600a60009055600b60009055600c60009055600d60009055600e60009055600f60009055610c003382611a8e565b50565b60176020528060005260406000206000915090508060000154908060010160009054906101000a900473ffffffffffffffffffffffffffffffffffffffff16908060020154908060030154908060040154908060050160009054906101000a900460ff16905086565b565b60115481565b60105481565b610c8261296a565b73ffffffffffffffffffffffffffffffffffffffff16600360009054906101000a900473ffffffffffffffffffffffffffffffffffffffff1673ffffffffffffffffffffffffffffffffffffffff1614610d44576040517f08c379a00000000000000000000000000000000000000000000000000000000081526004018080602001828103825260208152602001807f4f776e61626c653a2063616c6c6572206973206e6f7420746865206f776e657281525060200191505060405180910390fd5b80601560006101000a81548173ffffffffffffffffffffffffffffffffffffffff021916908373ffffffffffffffffffffffffffffffffffffffff16021790555050565b6000613039905090565b600080600080601254601154601654601054935093509350935090919293565b610dba61296a565b73ffffffffffffffffffffffffffffffffffffffff16600360009054906101000a900473ffffffffffffffffffffffffffffffffffffffff1673ffffffffffffffffffffffffffffffffffffffff1614610e7c576040517f08c379a00000000000000000000000000000000000000000000000000000000081526004018080602001828103825260208152602001807f4f776e61626c653a2063616c6c6572206973206e6f7420746865206f776e657281525060200191505060405180910390fd5b8060168190555050565b610e8e61296a565b73ffffffffffffffffffffffffffffffffffffffff16600360009054906101000a900473ffffffffffffffffffffffffffffffffffffffff1673ffffffffffffffffffffffffffffffffffffffff1614610f50576040517f08c379a00000000000000000000000000000000000000000000000000000000081526004018080602001828103825260208152602001807f4f776e61626c653a2063616c6c6572206973206e6f7420746865206f776e657281525060200191505060405180910390fd5b80600160006101000a81548173ffffffffffffffffffffffffffffffffffffffff021916908373ffffffffffffffffffffffffffffffffffffffff16021790555050565b60008060009054906101000a900473ffffffffffffffffffffffffffffffffffffffff1673ffffffffffffffffffffffffffffffffffffffff166370a08231306040518263ffffffff1660e01b8152600401808273ffffffffffffffffffffffffffffffffffffffff1673ffffffffffffffffffffffffffffffffffffffff16815260200191505060206040518083038186803b15801561103457600080fd5b505afa158015611048573d6000803e3d6000fd5b505050506040513d602081101561105e57600080fd5b8101908080519060200190929190505050905090565b600015156017600083815260200190815260200160002060050160009054906101000a900460ff16151514611111576040517f08c379a00000000000000000000000000000000000000000000000000000000081526004018080602001828103825260138152602001807f67616d6520616c726561647920706c617965640000000000000000000000000081525060200191505060405180910390fd5b60006130399050600061112382611bf7565b9050826018600083815260200190815260200160002081905550505050565b601560009054906101000a900473ffffffffffffffffffffffffffffffffffffffff1681565b600015156017600084815260200190815260200160002060050160009054906101000a900460ff16151514611205576040517f08c379a00000000000000000000000000000000000000000000000000000000081526004018080602001828103825260138152602001807f67616d6520616c726561647920706c617965640000000000000000000000000081525060200191505060405180910390fd5b6000424433604051602001808481526020018381526020018273ffffffffffffffffffffffffffffffffffffffff1673ffffffffffffffffffffffffffffffffffffffff1660601b815260140193505050506040516020818303038152906040528051906020012090508260186000838152602001908152602001600020819055506112918183612972565b505050565b60165481565b60135481565b6112aa61296a565b73ffffffffffffffffffffffffffffffffffffffff16600360009054906101000a900473ffffffffffffffffffffffffffffffffffffffff1673ffffffffffffffffffffffffffffffffffffffff161461136c576040517f08c379a00000000000000000000000000000000000000000000000000000000081526004018080602001828103825260208152602001807f4f776e61626c653a2063616c6c6572206973206e6f7420746865206f776e657281525060200191505060405180910390fd5b600073ffffffffffffffffffffffffffffffffffffffff16600360009054906101000a900473ffffffffffffffffffffffffffffffffffffffff1673ffffffffffffffffffffffffffffffffffffffff167f8be0079c531659141344cd1fd0a4f28419497f9722a3daafe3b4186f6b6457e060405160405180910390a36000600360006101000a81548173ffffffffffffffffffffffffffffffffffffffff021916908373ffffffffffffffffffffffffffffffffffffffff160217905550565b60186020528060005260406000206000915090505481565b61144d61296a565b73ffffffffffffffffffffffffffffffffffffffff16600360009054906101000a900473ffffffffffffffffffffffffffffffffffffffff1673ffffffffffffffffffffffffffffffffffffffff161461150f576040517f08c379a00000000000000000000000000000000000000000000000000000000081526004018080602001828103825260208152602001807f4f776e61626c653a2063616c6c6572206973206e6f7420746865206f776e657281525060200191505060405180910390fd5b8060118190555050565b61152161296a565b73ffffffffffffffffffffffffffffffffffffffff16600360009054906101000a900473ffffffffffffffffffffffffffffffffffffffff1673ffffffffffffffffffffffffffffffffffffffff16146115e3576040517f08c379a00000000000000000000000000000000000000000000000000000000081526004018080602001828103825260208152602001807f4f776e61626c653a2063616c6c6572206973206e6f7420746865206f776e657281525060200191505060405180910390fd5b8060128190555050565b6000600360009054906101000a900473ffffffffffffffffffffffffffffffffffffffff16905090565b600160009054906101000a900473ffffffffffffffffffffffffffffffffffffffff1673ffffffffffffffffffffffffffffffffffffffff163373ffffffffffffffffffffffffffffffffffffffff16146116da576040517f08c379a000000000000000000000000000000000000000000000000000000000815260040180806020018281038252601f8152602001807f4f6e6c7920565246436f6f7264696e61746f722063616e2066756c66696c6c0081525060200191505060405180910390fd5b6116e48282612b4d565b5050565b60125481565b6116f661296a565b73ffffffffffffffffffffffffffffffffffffffff16600360009054906101000a900473ffffffffffffffffffffffffffffffffffffffff1673ffffffffffffffffffffffffffffffffffffffff16146117b8576040517f08c379a00000000000000000000000000000000000000000000000000000000081526004018080602001828103825260208152602001807f4f776e61626c653a2063616c6c6572206973206e6f7420746865206f776e657281525060200191505060405180910390fd5b8060048190555050565b60145481565b60026020528060005260406000206000915090505481565b6117e861296a565b73ffffffffffffffffffffffffffffffffffffffff16600360009054906101000a900473ffffffffffffffffffffffffffffffffffffffff1673ffffffffffffffffffffffffffffffffffffffff16146118aa576040517f08c379a00000000000000000000000000000000000000000000000000000000081526004018080602001828103825260208152602001807f4f776e61626c653a2063616c6c6572206973206e6f7420746865206f776e657281525060200191505060405180910390fd5b806000806101000a81548173ffffffffffffffffffffffffffffffffffffffff021916908373ffffffffffffffffffffffffffffffffffffffff16021790555050565b6000601760008381526020019081526020016000209050600015158160050160009054906101000a900460ff16151514611972576040517f08c379a000000000000000000000000000000000000000000000000000000000815260040180806020018281038252602a8152602001806132f5602a913960400191505060405180910390fd5b80600201544710156119cf576040517f08c379a00000000000000000000000000000000000000000000000000000000081526004018080602001828103825260318152602001806132c46031913960400191505060405180910390fd5b60018160050160006101000a81548160ff021916908315150217905550806002015460135410611a12578060020154601360008282540392505081905550611a1b565b60006013819055505b8060010160009054906101000a900473ffffffffffffffffffffffffffffffffffffffff1673ffffffffffffffffffffffffffffffffffffffff166108fc82600201549081150290604051600060405180830381858888f19350505050158015611a89573d6000803e3d6000fd5b505050565b611a9734610b73565b611aec576040517f08c379a000000000000000000000000000000000000000000000000000000000815260040180806020018281038252603681526020018061326d6036913960400191505060405180910390fd5b601054811115611b47576040517f08c379a000000000000000000000000000000000000000000000000000000000815260040180806020018281038252602881526020018061321f6028913960400191505060405180910390fd5b611b50346125fe565b611bc2576040517f08c379a00000000000000000000000000000000000000000000000000000000081526004018080602001828103825260158152602001807f4f757469736465206f66206265742072616e67652e000000000000000000000081525060200191505060405180910390fd5b611bd73460135461285990919063ffffffff16565b601381905550611be8823483612d4f565b611bf3601454611074565b5050565b60006005546000809054906101000a900473ffffffffffffffffffffffffffffffffffffffff1673ffffffffffffffffffffffffffffffffffffffff166370a08231306040518263ffffffff1660e01b8152600401808273ffffffffffffffffffffffffffffffffffffffff1673ffffffffffffffffffffffffffffffffffffffff16815260200191505060206040518083038186803b158015611c9a57600080fd5b505afa158015611cae573d6000803e3d6000fd5b505050506040513d6020811015611cc457600080fd5b810190808051906020019092919050505011611d48576040517f08c379a000000000000000000000000000000000000000000000000000000000815260040180806020018281038252600f8152602001807f4e6f7420656e6f756768204c494e4b000000000000000000000000000000000081525060200191505060405180910390fd5b611d5760045460055484612e82565b9050919050565b611d6661296a565b73ffffffffffffffffffffffffffffffffffffffff16600360009054906101000a900473ffffffffffffffffffffffffffffffffffffffff1673ffffffffffffffffffffffffffffffffffffffff1614611e28576040517f08c379a00000000000000000000000000000000000000000000000000000000081526004018080602001828103825260208152602001807f4f776e61626c653a2063616c6c6572206973206e6f7420746865206f776e657281525060200191505060405180910390fd5b6013544711611e3657600080fd5b6000611e4d601354476128e190919063ffffffff16565b9050601560009054906101000a900473ffffffffffffffffffffffffffffffffffffffff1673ffffffffffffffffffffffffffffffffffffffff166108fc829081150290604051600060405180830381858888f19350505050158015611eb7573d6000803e3d6000fd5b5060008060009054906101000a900473ffffffffffffffffffffffffffffffffffffffff1673ffffffffffffffffffffffffffffffffffffffff166370a08231306040518263ffffffff1660e01b8152600401808273ffffffffffffffffffffffffffffffffffffffff1673ffffffffffffffffffffffffffffffffffffffff16815260200191505060206040518083038186803b158015611f5857600080fd5b505afa158015611f6c573d6000803e3d6000fd5b505050506040513d6020811015611f8257600080fd5b81019080805190602001909291905050501115612178576000809054906101000a900473ffffffffffffffffffffffffffffffffffffffff1673ffffffffffffffffffffffffffffffffffffffff1663a9059cbb601560009054906101000a900473ffffffffffffffffffffffffffffffffffffffff166000809054906101000a900473ffffffffffffffffffffffffffffffffffffffff1673ffffffffffffffffffffffffffffffffffffffff166370a08231306040518263ffffffff1660e01b8152600401808273ffffffffffffffffffffffffffffffffffffffff1673ffffffffffffffffffffffffffffffffffffffff16815260200191505060206040518083038186803b15801561209757600080fd5b505afa1580156120ab573d6000803e3d6000fd5b505050506040513d60208110156120c157600080fd5b81019080805190602001909291905050506040518363ffffffff1660e01b8152600401808373ffffffffffffffffffffffffffffffffffffffff1673ffffffffffffffffffffffffffffffffffffffff16815260200182815260200192505050602060405180830381600087803b15801561213b57600080fd5b505af115801561214f573d6000803e3d6000fd5b505050506040513d602081101561216557600080fd5b8101908080519060200190929190505050505b50565b61218361296a565b73ffffffffffffffffffffffffffffffffffffffff16600360009054906101000a900473ffffffffffffffffffffffffffffffffffffffff1673ffffffffffffffffffffffffffffffffffffffff1614612245576040517f08c379a00000000000000000000000000000000000000000000000000000000081526004018080602001828103825260208152602001807f4f776e61626c653a2063616c6c6572206973206e6f7420746865206f776e657281525060200191505060405180910390fd5b601354471161225357600080fd5b600061226a601354476128e190919063ffffffff16565b9050601560009054906101000a900473ffffffffffffffffffffffffffffffffffffffff1673ffffffffffffffffffffffffffffffffffffffff166108fc829081150290604051600060405180830381858888f193505050501580156122d4573d6000803e3d6000fd5b5050565b6122e06131d0565b6040518060c001604052808381526020018773ffffffffffffffffffffffffffffffffffffffff16815260200186815260200185815260200161232f600a60105461285990919063ffffffff16565b815260200184151581525090508060176000836000015181526020019081526020016000206000820151816000015560208201518160010160006101000a81548173ffffffffffffffffffffffffffffffffffffffff021916908373ffffffffffffffffffffffffffffffffffffffff16021790555060408201518160020155606082015181600301556080820151816004015560a08201518160050160006101000a81548160ff021916908315150217905550905050505050505050565b6123f661296a565b73ffffffffffffffffffffffffffffffffffffffff16600360009054906101000a900473ffffffffffffffffffffffffffffffffffffffff1673ffffffffffffffffffffffffffffffffffffffff16146124b8576040517f08c379a00000000000000000000000000000000000000000000000000000000081526004018080602001828103825260208152602001807f4f776e61626c653a2063616c6c6572206973206e6f7420746865206f776e657281525060200191505060405180910390fd5b600073ffffffffffffffffffffffffffffffffffffffff168173ffffffffffffffffffffffffffffffffffffffff16141561253e576040517f08c379a00000000000000000000000000000000000000000000000000000000081526004018080602001828103825260268152602001806132476026913960400191505060405180910390fd5b8073ffffffffffffffffffffffffffffffffffffffff16600360009054906101000a900473ffffffffffffffffffffffffffffffffffffffff1673ffffffffffffffffffffffffffffffffffffffff167f8be0079c531659141344cd1fd0a4f28419497f9722a3daafe3b4186f6b6457e060405160405180910390a380600360006101000a81548173ffffffffffffffffffffffffffffffffffffffff021916908373ffffffffffffffffffffffffffffffffffffffff16021790555050565b6000601254821015801561261457506011548211155b156126225760019050612627565b600090505b919050565b600660009055600760009055600860009055600960009055600a60009055600b60009055600c60009055600d60009055600e60009055600f6000905561267134610b73565b6126c6576040517f08c379a000000000000000000000000000000000000000000000000000000000815260040180806020018281038252603681526020018061326d6036913960400191505060405180910390fd5b601054821115612721576040517f08c379a000000000000000000000000000000000000000000000000000000000815260040180806020018281038252602881526020018061321f6028913960400191505060405180910390fd5b61272a346125fe565b61279c576040517f08c379a00000000000000000000000000000000000000000000000000000000081526004018080602001828103825260158152602001807f4f757469736465206f66206265742072616e67652e000000000000000000000081525060200191505060405180910390fd5b6127b13460135461285990919063ffffffff16565b6013819055506127c2833484612d4f565b6127ce60145482611168565b505050565b6000808314156127e65760009050612853565b60008284029050828482816127f757fe5b041461284e576040517f08c379a00000000000000000000000000000000000000000000000000000000081526004018080602001828103825260218152602001806132a36021913960400191505060405180910390fd5b809150505b92915050565b6000808284019050838110156128d7576040517f08c379a000000000000000000000000000000000000000000000000000000000815260040180806020018281038252601b8152602001807f536166654d6174683a206164646974696f6e206f766572666c6f77000000000081525060200191505060405180910390fd5b8091505092915050565b600082821115612959576040517f08c379a000000000000000000000000000000000000000000000000000000000815260040180806020018281038252601e8152602001807f536166654d6174683a207375627472616374696f6e206f766572666c6f77000081525060200191505060405180910390fd5b600082840390508091505092915050565b600033905090565b600060176000601860008681526020019081526020016000205481526020019081526020016000209050600081600001541115612b4857600081600201546129c960165484600201546127d390919063ffffffff16565b01905080471015612a25576040517f08c379a000000000000000000000000000000000000000000000000000000000815260040180806020018281038252603381526020018061331f6033913960400191505060405180910390fd5b82826004018190555060018260050160006101000a81548160ff021916908315150217905550816002015460135410612a71578160020154601360008282540392505081905550612a7a565b60006013819055505b816004015482600301541415612af6578160010160009054906101000a900473ffffffffffffffffffffffffffffffffffffffff1673ffffffffffffffffffffffffffffffffffffffff166108fc829081150290604051600060405180830381858888f19350505050158015612af4573d6000803e3d6000fd5b505b60016006819055506001600781905550600160088190555060016009819055506001600a819055506001600b819055506001600c819055506001600d819055506001600e819055506001600f81905550505b505050565b600060176000601860008681526020019081526020016000205481526020019081526020016000209050600081600001541115612cfa5760008160020154612ba460165484600201546127d390919063ffffffff16565b01905080471015612c00576040517f08c379a000000000000000000000000000000000000000000000000000000000815260040180806020018281038252603381526020018061331f6033913960400191505060405180910390fd5b612c28612c19600160105461285990919063ffffffff16565b8461309390919063ffffffff16565b826004018190555060018260050160006101000a81548160ff021916908315150217905550816002015460135410612c73578160020154601360008282540392505081905550612c7c565b60006013819055505b816004015482600301541415612cf8578160010160009054906101000a900473ffffffffffffffffffffffffffffffffffffffff1673ffffffffffffffffffffffffffffffffffffffff166108fc829081150290604051600060405180830381858888f19350505050158015612cf6573d6000803e3d6000fd5b505b505b60016006819055506001600781905550600160088190555060016009819055506001600a819055506001600b819055506001600c819055506001600d819055506001600e819055506001600f81905550505050565b612d65600160145461285990919063ffffffff16565b601481905550612d736131d0565b6040518060c0016040528060145481526020018573ffffffffffffffffffffffffffffffffffffffff168152602001848152602001838152602001612dc4600a60105461285990919063ffffffff16565b81526020016000151581525090508060176000836000015181526020019081526020016000206000820151816000015560208201518160010160006101000a81548173ffffffffffffffffffffffffffffffffffffffff021916908373ffffffffffffffffffffffffffffffffffffffff16021790555060408201518160020155606082015181600301556080820151816004015560a08201518160050160006101000a81548160ff02191690831515021790555090505050505050565b60008060009054906101000a900473ffffffffffffffffffffffffffffffffffffffff1673ffffffffffffffffffffffffffffffffffffffff16634000aea0600160009054906101000a900473ffffffffffffffffffffffffffffffffffffffff1685878660405160200180838152602001828152602001925050506040516020818303038152906040526040518463ffffffff1660e01b8152600401808473ffffffffffffffffffffffffffffffffffffffff1673ffffffffffffffffffffffffffffffffffffffff16815260200183815260200180602001828103825283818151815260200191508051906020019080838360005b83811015612f94578082015181840152602081019050612f79565b50505050905090810190601f168015612fc15780820380516001836020036101000a031916815260200191505b50945050505050602060405180830381600087803b158015612fe257600080fd5b505af1158015612ff6573d6000803e3d6000fd5b505050506040513d602081101561300c57600080fd5b810190808051906020019092919050505050600061303f858430600260008a81526020019081526020016000205461311d565b90506130686001600260008881526020019081526020016000205461285990919063ffffffff16565b60026000878152602001908152602001600020819055506130898582613197565b9150509392505050565b60008082141561310b576040517f08c379a00000000000000000000000000000000000000000000000000000000081526004018080602001828103825260188152602001807f536166654d6174683a206d6f64756c6f206279207a65726f000000000000000081525060200191505060405180910390fd5b81838161311457fe5b06905092915050565b600084848484604051602001808581526020018481526020018373ffffffffffffffffffffffffffffffffffffffff1673ffffffffffffffffffffffffffffffffffffffff1681526020018281526020019450505050506040516020818303038152906040528051906020012060001c9050949350505050565b60008282604051602001808381526020018281526020019250505060405160208183030381529060405280519060200120905092915050565b6040518060c0016040528060008152602001600073ffffffffffffffffffffffffffffffffffffffff168152602001600081526020016000815260200160008152602001600015158152509056fe5069636b20697320746f6f20686967682e2043686f6f73652061206c6f776572206e756d6265722e4f776e61626c653a206e6577206f776e657220697320746865207a65726f2061646472657373436f6e74726163742068617320696e737566666963696e742066756e647320746f207061796f757420706f737369626c652077696e2e536166654d6174683a206d756c7469706c69636174696f6e206f766572666c6f77436f6e74726163742062616c616e636520746f6f206c6f772e20506c656173652074727920616761696e206c617465722e47616d6520616c726561647920636f6d706c6574652e204e6f20726566756e6420706f737369626c652e556e61626c6520746f207061792e20506c6561736520706c617920616761696e206f72207265717565737420726566756e642ea26469706673582212208dcedd1879cd806549aba4763129dd8dad8d1715ea4c9cba75015d4099bee3c964736f6c63430006000033a2646970667358221220ec7f25f188fd38a3abc836006b50eaad37877bd7ae6335ac61f2b5929c1be5bf64736f6c63430006000033","opcodes":"PUSH1 0x80 PUSH1 0x40 MSTORE CALLVALUE DUP1 ISZERO PUSH2 0x10 JUMPI PUSH1 0x0 DUP1 REVERT JUMPDEST POP PUSH2 0x3AAB DUP1 PUSH2 0x20 PUSH1 0x0 CODECOPY PUSH1 0x0 RETURN INVALID PUSH1 0x80 PUSH1 0x40 MSTORE CALLVALUE DUP1 ISZERO PUSH2 0x10 JUMPI PUSH1 0x0 DUP1 REVERT JUMPDEST POP PUSH1 0x4 CALLDATASIZE LT PUSH2 0x41 JUMPI PUSH1 0x0 CALLDATALOAD PUSH1 0xE0 SHR DUP1 PUSH4 0x6373B9A EQ PUSH2 0x46 JUMPI DUP1 PUSH4 0x4D42845C EQ PUSH2 0xD2 JUMPI DUP1 PUSH4 0x52B07B34 EQ PUSH2 0x140 JUMPI JUMPDEST PUSH1 0x0 DUP1 REVERT JUMPDEST PUSH2 0x90 PUSH1 0x4 DUP1 CALLDATASIZE SUB PUSH1 0x80 DUP2 LT ISZERO PUSH2 0x5C JUMPI PUSH1 0x0 DUP1 REVERT JUMPDEST DUP2 ADD SWAP1 DUP1 DUP1 CALLDATALOAD SWAP1 PUSH1 0x20 ADD SWAP1 SWAP3 SWAP2 SWAP1 DUP1 CALLDATALOAD SWAP1 PUSH1 0x20 ADD SWAP1 SWAP3 SWAP2 SWAP1 DUP1 CALLDATALOAD SWAP1 PUSH1 0x20 ADD SWAP1 SWAP3 SWAP2 SWAP1 DUP1 CALLDATALOAD SWAP1 PUSH1 0x20 ADD SWAP1 SWAP3 SWAP2 SWAP1 POP POP POP PUSH2 0x19F JUMP JUMPDEST PUSH1 0x40 MLOAD DUP1 DUP3 PUSH20 0xFFFFFFFFFFFFFFFFFFFFFFFFFFFFFFFFFFFFFFFF AND PUSH20 0xFFFFFFFFFFFFFFFFFFFFFFFFFFFFFFFFFFFFFFFF AND DUP2 MSTORE PUSH1 0x20 ADD SWAP2 POP POP PUSH1 0x40 MLOAD DUP1 SWAP2 SUB SWAP1 RETURN JUMPDEST PUSH2 0xFE PUSH1 0x4 DUP1 CALLDATASIZE SUB PUSH1 0x20 DUP2 LT ISZERO PUSH2 0xE8 JUMPI PUSH1 0x0 DUP1 REVERT JUMPDEST DUP2 ADD SWAP1 DUP1 DUP1 CALLDATALOAD SWAP1 PUSH1 0x20 ADD SWAP1 SWAP3 SWAP2 SWAP1 POP POP POP PUSH2 0x330 JUMP JUMPDEST PUSH1 0x40 MLOAD DUP1 DUP3 PUSH20 0xFFFFFFFFFFFFFFFFFFFFFFFFFFFFFFFFFFFFFFFF AND PUSH20 0xFFFFFFFFFFFFFFFFFFFFFFFFFFFFFFFFFFFFFFFF AND DUP2 MSTORE PUSH1 0x20 ADD SWAP2 POP POP PUSH1 0x40 MLOAD DUP1 SWAP2 SUB SWAP1 RETURN JUMPDEST PUSH2 0x148 PUSH2 0x36C JUMP JUMPDEST PUSH1 0x40 MLOAD DUP1 DUP1 PUSH1 0x20 ADD DUP3 DUP2 SUB DUP3 MSTORE DUP4 DUP2 DUP2 MLOAD DUP2 MSTORE PUSH1 0x20 ADD SWAP2 POP DUP1 MLOAD SWAP1 PUSH1 0x20 ADD SWAP1 PUSH1 0x20 MUL DUP1 DUP4 DUP4 PUSH1 0x0 JUMPDEST DUP4 DUP2 LT ISZERO PUSH2 0x18B JUMPI DUP1 DUP3 ADD MLOAD DUP2 DUP5 ADD MSTORE PUSH1 0x20 DUP2 ADD SWAP1 POP PUSH2 0x170 JUMP JUMPDEST POP POP POP POP SWAP1 POP ADD SWAP3 POP POP POP PUSH1 0x40 MLOAD DUP1 SWAP2 SUB SWAP1 RETURN JUMPDEST PUSH1 0x0 DUP1 CALLER DUP7 DUP7 DUP7 DUP7 PUSH1 0x40 MLOAD PUSH2 0x1B3 SWAP1 PUSH2 0x3FA JUMP JUMPDEST DUP1 DUP7 PUSH20 0xFFFFFFFFFFFFFFFFFFFFFFFFFFFFFFFFFFFFFFFF AND PUSH20 0xFFFFFFFFFFFFFFFFFFFFFFFFFFFFFFFFFFFFFFFF AND DUP2 MSTORE PUSH1 0x20 ADD DUP6 DUP2 MSTORE PUSH1 0x20 ADD DUP5 DUP2 MSTORE PUSH1 0x20 ADD DUP4 DUP2 MSTORE PUSH1 0x20 ADD DUP3 DUP2 MSTORE PUSH1 0x20 ADD SWAP6 POP POP POP POP POP POP PUSH1 0x40 MLOAD DUP1 SWAP2 SUB SWAP1 PUSH1 0x0 CREATE DUP1 ISZERO DUP1 ISZERO PUSH2 0x221 JUMPI RETURNDATASIZE PUSH1 0x0 DUP1 RETURNDATACOPY RETURNDATASIZE PUSH1 0x0 REVERT JUMPDEST POP SWAP1 POP DUP1 PUSH20 0xFFFFFFFFFFFFFFFFFFFFFFFFFFFFFFFFFFFFFFFF AND PUSH4 0xF2FDE38B CALLER PUSH1 0x40 MLOAD DUP3 PUSH4 0xFFFFFFFF AND PUSH1 0xE0 SHL DUP2 MSTORE PUSH1 0x4 ADD DUP1 DUP3 PUSH20 0xFFFFFFFFFFFFFFFFFFFFFFFFFFFFFFFFFFFFFFFF AND PUSH20 0xFFFFFFFFFFFFFFFFFFFFFFFFFFFFFFFFFFFFFFFF AND DUP2 MSTORE PUSH1 0x20 ADD SWAP2 POP POP PUSH1 0x0 PUSH1 0x40 MLOAD DUP1 DUP4 SUB DUP2 PUSH1 0x0 DUP8 DUP1 EXTCODESIZE ISZERO DUP1 ISZERO PUSH2 0x2A3 JUMPI PUSH1 0x0 DUP1 REVERT JUMPDEST POP GAS CALL ISZERO DUP1 ISZERO PUSH2 0x2B7 JUMPI RETURNDATASIZE PUSH1 0x0 DUP1 RETURNDATACOPY RETURNDATASIZE PUSH1 0x0 REVERT JUMPDEST POP POP POP POP PUSH1 0x0 DUP2 SWAP1 POP PUSH1 0x0 DUP2 SWAP1 DUP1 PUSH1 0x1 DUP2 SLOAD ADD DUP1 DUP3 SSTORE DUP1 SWAP2 POP POP PUSH1 0x1 SWAP1 SUB SWAP1 PUSH1 0x0 MSTORE PUSH1 0x20 PUSH1 0x0 KECCAK256 ADD PUSH1 0x0 SWAP1 SWAP2 SWAP1 SWAP2 SWAP1 SWAP2 PUSH2 0x100 EXP DUP2 SLOAD DUP2 PUSH20 0xFFFFFFFFFFFFFFFFFFFFFFFFFFFFFFFFFFFFFFFF MUL NOT AND SWAP1 DUP4 PUSH20 0xFFFFFFFFFFFFFFFFFFFFFFFFFFFFFFFFFFFFFFFF AND MUL OR SWAP1 SSTORE POP DUP1 SWAP3 POP POP POP SWAP5 SWAP4 POP POP POP POP JUMP JUMPDEST PUSH1 0x0 DUP2 DUP2 SLOAD DUP2 LT PUSH2 0x33D JUMPI INVALID JUMPDEST SWAP1 PUSH1 0x0 MSTORE PUSH1 0x20 PUSH1 0x0 KECCAK256 ADD PUSH1 0x0 SWAP2 POP SLOAD SWAP1 PUSH2 0x100 EXP SWAP1 DIV PUSH20 0xFFFFFFFFFFFFFFFFFFFFFFFFFFFFFFFFFFFFFFFF AND DUP2 JUMP JUMPDEST PUSH1 0x60 PUSH1 0x0 DUP1 SLOAD DUP1 PUSH1 0x20 MUL PUSH1 0x20 ADD PUSH1 0x40 MLOAD SWAP1 DUP2 ADD PUSH1 0x40 MSTORE DUP1 SWAP3 SWAP2 SWAP1 DUP2 DUP2 MSTORE PUSH1 0x20 ADD DUP3 DUP1 SLOAD DUP1 ISZERO PUSH2 0x3F0 JUMPI PUSH1 0x20 MUL DUP3 ADD SWAP2 SWAP1 PUSH1 0x0 MSTORE PUSH1 0x20 PUSH1 0x0 KECCAK256 SWAP1 JUMPDEST DUP2 PUSH1 0x0 SWAP1 SLOAD SWAP1 PUSH2 0x100 EXP SWAP1 DIV PUSH20 0xFFFFFFFFFFFFFFFFFFFFFFFFFFFFFFFFFFFFFFFF AND PUSH20 0xFFFFFFFFFFFFFFFFFFFFFFFFFFFFFFFFFFFFFFFF AND DUP2 MSTORE PUSH1 0x20 ADD SWAP1 PUSH1 0x1 ADD SWAP1 DUP1 DUP4 GT PUSH2 0x3A6 JUMPI JUMPDEST POP POP POP POP POP SWAP1 POP SWAP1 JUMP JUMPDEST PUSH2 0x366E DUP1 PUSH2 0x408 DUP4 CODECOPY ADD SWAP1 JUMP INVALID PUSH1 0x80 PUSH1 0x40 MSTORE CALLVALUE DUP1 ISZERO PUSH3 0x11 JUMPI PUSH1 0x0 DUP1 REVERT JUMPDEST POP PUSH1 0x40 MLOAD PUSH3 0x366E CODESIZE SUB DUP1 PUSH3 0x366E DUP4 CODECOPY DUP2 DUP2 ADD PUSH1 0x40 MSTORE PUSH1 0xA0 DUP2 LT ISZERO PUSH3 0x37 JUMPI PUSH1 0x0 DUP1 REVERT JUMPDEST DUP2 ADD SWAP1 DUP1 DUP1 MLOAD SWAP1 PUSH1 0x20 ADD SWAP1 SWAP3 SWAP2 SWAP1 DUP1 MLOAD SWAP1 PUSH1 0x20 ADD SWAP1 SWAP3 SWAP2 SWAP1 DUP1 MLOAD SWAP1 PUSH1 0x20 ADD SWAP1 SWAP3 SWAP2 SWAP1 DUP1 MLOAD SWAP1 PUSH1 0x20 ADD SWAP1 SWAP3 SWAP2 SWAP1 DUP1 MLOAD SWAP1 PUSH1 0x20 ADD SWAP1 SWAP3 SWAP2 SWAP1 POP POP POP PUSH20 0xDD3782915140C8F3B190B5D67EAC6DC5760C46E9 PUSH20 0xA36085F69E2889C224210F603D836748E7DC0088 DUP2 PUSH1 0x1 PUSH1 0x0 PUSH2 0x100 EXP DUP2 SLOAD DUP2 PUSH20 0xFFFFFFFFFFFFFFFFFFFFFFFFFFFFFFFFFFFFFFFF MUL NOT AND SWAP1 DUP4 PUSH20 0xFFFFFFFFFFFFFFFFFFFFFFFFFFFFFFFFFFFFFFFF AND MUL OR SWAP1 SSTORE POP DUP1 PUSH1 0x0 DUP1 PUSH2 0x100 EXP DUP2 SLOAD DUP2 PUSH20 0xFFFFFFFFFFFFFFFFFFFFFFFFFFFFFFFFFFFFFFFF MUL NOT AND SWAP1 DUP4 PUSH20 0xFFFFFFFFFFFFFFFFFFFFFFFFFFFFFFFFFFFFFFFF AND MUL OR SWAP1 SSTORE POP POP POP PUSH1 0x0 PUSH3 0x12F PUSH3 0x2CF PUSH1 0x20 SHL PUSH1 0x20 SHR JUMP JUMPDEST SWAP1 POP DUP1 PUSH1 0x3 PUSH1 0x0 PUSH2 0x100 EXP DUP2 SLOAD DUP2 PUSH20 0xFFFFFFFFFFFFFFFFFFFFFFFFFFFFFFFFFFFFFFFF MUL NOT AND SWAP1 DUP4 PUSH20 0xFFFFFFFFFFFFFFFFFFFFFFFFFFFFFFFFFFFFFFFF AND MUL OR SWAP1 SSTORE POP DUP1 PUSH20 0xFFFFFFFFFFFFFFFFFFFFFFFFFFFFFFFFFFFFFFFF AND PUSH1 0x0 PUSH20 0xFFFFFFFFFFFFFFFFFFFFFFFFFFFFFFFFFFFFFFFF AND PUSH32 0x8BE0079C531659141344CD1FD0A4F28419497F9722A3DAAFE3B4186F6B6457E0 PUSH1 0x40 MLOAD PUSH1 0x40 MLOAD DUP1 SWAP2 SUB SWAP1 LOG3 POP PUSH32 0x6C3699283BDA56AD74F6B855546325B68D482E983852A7A82979CC4807B641F4 PUSH1 0x0 SHL PUSH1 0x4 DUP2 SWAP1 SSTORE POP PUSH8 0x16345785D8A0000 PUSH1 0x5 DUP2 SWAP1 SSTORE POP PUSH1 0x1 PUSH1 0x14 DUP2 SWAP1 SSTORE POP PUSH1 0x0 PUSH1 0x13 DUP2 SWAP1 SSTORE POP DUP5 PUSH1 0x15 PUSH1 0x0 PUSH2 0x100 EXP DUP2 SLOAD DUP2 PUSH20 0xFFFFFFFFFFFFFFFFFFFFFFFFFFFFFFFFFFFFFFFF MUL NOT AND SWAP1 DUP4 PUSH20 0xFFFFFFFFFFFFFFFFFFFFFFFFFFFFFFFFFFFFFFFF AND MUL OR SWAP1 SSTORE POP DUP3 PUSH1 0x12 DUP2 SWAP1 SSTORE POP DUP4 PUSH1 0x11 DUP2 SWAP1 SSTORE POP DUP2 PUSH1 0x10 DUP2 SWAP1 SSTORE POP DUP1 PUSH1 0x16 DUP2 SWAP1 SSTORE POP PUSH1 0x1 PUSH1 0x6 DUP2 SWAP1 SSTORE POP PUSH1 0x1 PUSH1 0x7 DUP2 SWAP1 SSTORE POP PUSH1 0x1 PUSH1 0x8 DUP2 SWAP1 SSTORE POP PUSH1 0x1 PUSH1 0x9 DUP2 SWAP1 SSTORE POP PUSH1 0x1 PUSH1 0xA DUP2 SWAP1 SSTORE POP PUSH1 0x1 PUSH1 0xB DUP2 SWAP1 SSTORE POP PUSH1 0x1 PUSH1 0xC DUP2 SWAP1 SSTORE POP PUSH1 0x1 PUSH1 0xD DUP2 SWAP1 SSTORE POP PUSH1 0x1 PUSH1 0xE DUP2 SWAP1 SSTORE POP PUSH1 0x1 PUSH1 0xF DUP2 SWAP1 SSTORE POP POP POP POP POP POP PUSH3 0x2D7 JUMP JUMPDEST PUSH1 0x0 CALLER SWAP1 POP SWAP1 JUMP JUMPDEST PUSH2 0x3387 DUP1 PUSH3 0x2E7 PUSH1 0x0 CODECOPY PUSH1 0x0 RETURN INVALID PUSH1 0x80 PUSH1 0x40 MSTORE PUSH1 0x4 CALLDATASIZE LT PUSH2 0x21E JUMPI PUSH1 0x0 CALLDATALOAD PUSH1 0xE0 SHR DUP1 PUSH4 0x82E39AC5 GT PUSH2 0x123 JUMPI DUP1 PUSH4 0xA02E0616 GT PUSH2 0xAB JUMPI DUP1 PUSH4 0xC955E79C GT PUSH2 0x6F JUMPI DUP1 PUSH4 0xC955E79C EQ PUSH2 0x9E5 JUMPI DUP1 PUSH4 0xDE4FA6AF EQ PUSH2 0x9FC JUMPI DUP1 PUSH4 0xF2FDE38B EQ PUSH2 0xA77 JUMPI DUP1 PUSH4 0xFA63B7AD EQ PUSH2 0xAC8 JUMPI DUP1 PUSH4 0xFAFACAB2 EQ PUSH2 0xB1B JUMPI PUSH2 0x225 JUMP JUMPDEST DUP1 PUSH4 0xA02E0616 EQ PUSH2 0x8A5 JUMPI DUP1 PUSH4 0xA4B2409E EQ PUSH2 0x8F6 JUMPI DUP1 PUSH4 0xAC150FD8 EQ PUSH2 0x931 JUMPI DUP1 PUSH4 0xB37217A4 EQ PUSH2 0x97F JUMPI DUP1 PUSH4 0xB93030B3 EQ PUSH2 0x9CE JUMPI PUSH2 0x225 JUMP JUMPDEST DUP1 PUSH4 0x94985DDD GT PUSH2 0xF2 JUMPI DUP1 PUSH4 0x94985DDD EQ PUSH2 0x780 JUMPI DUP1 PUSH4 0x9619367D EQ PUSH2 0x7C5 JUMPI DUP1 PUSH4 0x98544710 EQ PUSH2 0x7F0 JUMPI DUP1 PUSH4 0x9920CF81 EQ PUSH2 0x82B JUMPI DUP1 PUSH4 0x9E317F12 EQ PUSH2 0x856 JUMPI PUSH2 0x225 JUMP JUMPDEST DUP1 PUSH4 0x82E39AC5 EQ PUSH2 0x664 JUMPI DUP1 PUSH4 0x881EFF1E EQ PUSH2 0x6B3 JUMPI DUP1 PUSH4 0x88EA41B9 EQ PUSH2 0x6EE JUMPI DUP1 PUSH4 0x8DA5CB5B EQ PUSH2 0x729 JUMPI PUSH2 0x225 JUMP JUMPDEST DUP1 PUSH4 0x44C18AA7 GT PUSH2 0x1A6 JUMPI DUP1 PUSH4 0x5B8D02D7 GT PUSH2 0x175 JUMPI DUP1 PUSH4 0x5B8D02D7 EQ PUSH2 0x55B JUMPI DUP1 PUSH4 0x6168EAC9 EQ PUSH2 0x5B2 JUMPI DUP1 PUSH4 0x63BD1D4A EQ PUSH2 0x5F7 JUMPI DUP1 PUSH4 0x6B25D296 EQ PUSH2 0x622 JUMPI DUP1 PUSH4 0x715018A6 EQ PUSH2 0x64D JUMPI PUSH2 0x225 JUMP JUMPDEST DUP1 PUSH4 0x44C18AA7 EQ PUSH2 0x469 JUMPI DUP1 PUSH4 0x44FF81CE EQ PUSH2 0x4A4 JUMPI DUP1 PUSH4 0x50C5F975 EQ PUSH2 0x4F5 JUMPI DUP1 PUSH4 0x5873533D EQ PUSH2 0x520 JUMPI PUSH2 0x225 JUMP JUMPDEST DUP1 PUSH4 0x2E5B2168 GT PUSH2 0x1ED JUMPI DUP1 PUSH4 0x2E5B2168 EQ PUSH2 0x357 JUMPI DUP1 PUSH4 0x2EE42D8A EQ PUSH2 0x382 JUMPI DUP1 PUSH4 0x33EA51A8 EQ PUSH2 0x3AD JUMPI DUP1 PUSH4 0x39E7357C EQ PUSH2 0x3FE JUMPI DUP1 PUSH4 0x4051DDAC EQ PUSH2 0x429 JUMPI PUSH2 0x225 JUMP JUMPDEST DUP1 PUSH4 0xC610A12 EQ PUSH2 0x22A JUMPI DUP1 PUSH4 0x10FE7C48 EQ PUSH2 0x27D JUMPI DUP1 PUSH4 0x117A5B90 EQ PUSH2 0x2AB JUMPI DUP1 PUSH4 0x2DE0F182 EQ PUSH2 0x34D JUMPI PUSH2 0x225 JUMP JUMPDEST CALLDATASIZE PUSH2 0x225 JUMPI STOP JUMPDEST PUSH1 0x0 DUP1 REVERT JUMPDEST CALLVALUE DUP1 ISZERO PUSH2 0x236 JUMPI PUSH1 0x0 DUP1 REVERT JUMPDEST POP PUSH2 0x263 PUSH1 0x4 DUP1 CALLDATASIZE SUB PUSH1 0x20 DUP2 LT ISZERO PUSH2 0x24D JUMPI PUSH1 0x0 DUP1 REVERT JUMPDEST DUP2 ADD SWAP1 DUP1 DUP1 CALLDATALOAD SWAP1 PUSH1 0x20 ADD SWAP1 SWAP3 SWAP2 SWAP1 POP POP POP PUSH2 0xB73 JUMP JUMPDEST PUSH1 0x40 MLOAD DUP1 DUP3 ISZERO ISZERO ISZERO ISZERO DUP2 MSTORE PUSH1 0x20 ADD SWAP2 POP POP PUSH1 0x40 MLOAD DUP1 SWAP2 SUB SWAP1 RETURN JUMPDEST PUSH2 0x2A9 PUSH1 0x4 DUP1 CALLDATASIZE SUB PUSH1 0x20 DUP2 LT ISZERO PUSH2 0x293 JUMPI PUSH1 0x0 DUP1 REVERT JUMPDEST DUP2 ADD SWAP1 DUP1 DUP1 CALLDATALOAD SWAP1 PUSH1 0x20 ADD SWAP1 SWAP3 SWAP2 SWAP1 POP POP POP PUSH2 0xBBA JUMP JUMPDEST STOP JUMPDEST CALLVALUE DUP1 ISZERO PUSH2 0x2B7 JUMPI PUSH1 0x0 DUP1 REVERT JUMPDEST POP PUSH2 0x2E4 PUSH1 0x4 DUP1 CALLDATASIZE SUB PUSH1 0x20 DUP2 LT ISZERO PUSH2 0x2CE JUMPI PUSH1 0x0 DUP1 REVERT JUMPDEST DUP2 ADD SWAP1 DUP1 DUP1 CALLDATALOAD SWAP1 PUSH1 0x20 ADD SWAP1 SWAP3 SWAP2 SWAP1 POP POP POP PUSH2 0xC03 JUMP JUMPDEST PUSH1 0x40 MLOAD DUP1 DUP8 DUP2 MSTORE PUSH1 0x20 ADD DUP7 PUSH20 0xFFFFFFFFFFFFFFFFFFFFFFFFFFFFFFFFFFFFFFFF AND PUSH20 0xFFFFFFFFFFFFFFFFFFFFFFFFFFFFFFFFFFFFFFFF AND DUP2 MSTORE PUSH1 0x20 ADD DUP6 DUP2 MSTORE PUSH1 0x20 ADD DUP5 DUP2 MSTORE PUSH1 0x20 ADD DUP4 DUP2 MSTORE PUSH1 0x20 ADD DUP3 ISZERO ISZERO ISZERO ISZERO DUP2 MSTORE PUSH1 0x20 ADD SWAP7 POP POP POP POP POP POP POP PUSH1 0x40 MLOAD DUP1 SWAP2 SUB SWAP1 RETURN JUMPDEST PUSH2 0x355 PUSH2 0xC6C JUMP JUMPDEST STOP JUMPDEST CALLVALUE DUP1 ISZERO PUSH2 0x363 JUMPI PUSH1 0x0 DUP1 REVERT JUMPDEST POP PUSH2 0x36C PUSH2 0xC6E JUMP JUMPDEST PUSH1 0x40 MLOAD DUP1 DUP3 DUP2 MSTORE PUSH1 0x20 ADD SWAP2 POP POP PUSH1 0x40 MLOAD DUP1 SWAP2 SUB SWAP1 RETURN JUMPDEST CALLVALUE DUP1 ISZERO PUSH2 0x38E JUMPI PUSH1 0x0 DUP1 REVERT JUMPDEST POP PUSH2 0x397 PUSH2 0xC74 JUMP JUMPDEST PUSH1 0x40 MLOAD DUP1 DUP3 DUP2 MSTORE PUSH1 0x20 ADD SWAP2 POP POP PUSH1 0x40 MLOAD DUP1 SWAP2 SUB SWAP1 RETURN JUMPDEST CALLVALUE DUP1 ISZERO PUSH2 0x3B9 JUMPI PUSH1 0x0 DUP1 REVERT JUMPDEST POP PUSH2 0x3FC PUSH1 0x4 DUP1 CALLDATASIZE SUB PUSH1 0x20 DUP2 LT ISZERO PUSH2 0x3D0 JUMPI PUSH1 0x0 DUP1 REVERT JUMPDEST DUP2 ADD SWAP1 DUP1 DUP1 CALLDATALOAD PUSH20 0xFFFFFFFFFFFFFFFFFFFFFFFFFFFFFFFFFFFFFFFF AND SWAP1 PUSH1 0x20 ADD SWAP1 SWAP3 SWAP2 SWAP1 POP POP POP PUSH2 0xC7A JUMP JUMPDEST STOP JUMPDEST CALLVALUE DUP1 ISZERO PUSH2 0x40A JUMPI PUSH1 0x0 DUP1 REVERT JUMPDEST POP PUSH2 0x413 PUSH2 0xD88 JUMP JUMPDEST PUSH1 0x40 MLOAD DUP1 DUP3 DUP2 MSTORE PUSH1 0x20 ADD SWAP2 POP POP PUSH1 0x40 MLOAD DUP1 SWAP2 SUB SWAP1 RETURN JUMPDEST CALLVALUE DUP1 ISZERO PUSH2 0x435 JUMPI PUSH1 0x0 DUP1 REVERT JUMPDEST POP PUSH2 0x43E PUSH2 0xD92 JUMP JUMPDEST PUSH1 0x40 MLOAD DUP1 DUP6 DUP2 MSTORE PUSH1 0x20 ADD DUP5 DUP2 MSTORE PUSH1 0x20 ADD DUP4 DUP2 MSTORE PUSH1 0x20 ADD DUP3 DUP2 MSTORE PUSH1 0x20 ADD SWAP5 POP POP POP POP POP PUSH1 0x40 MLOAD DUP1 SWAP2 SUB SWAP1 RETURN JUMPDEST CALLVALUE DUP1 ISZERO PUSH2 0x475 JUMPI PUSH1 0x0 DUP1 REVERT JUMPDEST POP PUSH2 0x4A2 PUSH1 0x4 DUP1 CALLDATASIZE SUB PUSH1 0x20 DUP2 LT ISZERO PUSH2 0x48C JUMPI PUSH1 0x0 DUP1 REVERT JUMPDEST DUP2 ADD SWAP1 DUP1 DUP1 CALLDATALOAD SWAP1 PUSH1 0x20 ADD SWAP1 SWAP3 SWAP2 SWAP1 POP POP POP PUSH2 0xDB2 JUMP JUMPDEST STOP JUMPDEST CALLVALUE DUP1 ISZERO PUSH2 0x4B0 JUMPI PUSH1 0x0 DUP1 REVERT JUMPDEST POP PUSH2 0x4F3 PUSH1 0x4 DUP1 CALLDATASIZE SUB PUSH1 0x20 DUP2 LT ISZERO PUSH2 0x4C7 JUMPI PUSH1 0x0 DUP1 REVERT JUMPDEST DUP2 ADD SWAP1 DUP1 DUP1 CALLDATALOAD PUSH20 0xFFFFFFFFFFFFFFFFFFFFFFFFFFFFFFFFFFFFFFFF AND SWAP1 PUSH1 0x20 ADD SWAP1 SWAP3 SWAP2 SWAP1 POP POP POP PUSH2 0xE86 JUMP JUMPDEST STOP JUMPDEST CALLVALUE DUP1 ISZERO PUSH2 0x501 JUMPI PUSH1 0x0 DUP1 REVERT JUMPDEST POP PUSH2 0x50A PUSH2 0xF94 JUMP JUMPDEST PUSH1 0x40 MLOAD DUP1 DUP3 DUP2 MSTORE PUSH1 0x20 ADD SWAP2 POP POP PUSH1 0x40 MLOAD DUP1 SWAP2 SUB SWAP1 RETURN JUMPDEST CALLVALUE DUP1 ISZERO PUSH2 0x52C JUMPI PUSH1 0x0 DUP1 REVERT JUMPDEST POP PUSH2 0x559 PUSH1 0x4 DUP1 CALLDATASIZE SUB PUSH1 0x20 DUP2 LT ISZERO PUSH2 0x543 JUMPI PUSH1 0x0 DUP1 REVERT JUMPDEST DUP2 ADD SWAP1 DUP1 DUP1 CALLDATALOAD SWAP1 PUSH1 0x20 ADD SWAP1 SWAP3 SWAP2 SWAP1 POP POP POP PUSH2 0x1074 JUMP JUMPDEST STOP JUMPDEST CALLVALUE DUP1 ISZERO PUSH2 0x567 JUMPI PUSH1 0x0 DUP1 REVERT JUMPDEST POP PUSH2 0x570 PUSH2 0x1142 JUMP JUMPDEST PUSH1 0x40 MLOAD DUP1 DUP3 PUSH20 0xFFFFFFFFFFFFFFFFFFFFFFFFFFFFFFFFFFFFFFFF AND PUSH20 0xFFFFFFFFFFFFFFFFFFFFFFFFFFFFFFFFFFFFFFFF AND DUP2 MSTORE PUSH1 0x20 ADD SWAP2 POP POP PUSH1 0x40 MLOAD DUP1 SWAP2 SUB SWAP1 RETURN JUMPDEST CALLVALUE DUP1 ISZERO PUSH2 0x5BE JUMPI PUSH1 0x0 DUP1 REVERT JUMPDEST POP PUSH2 0x5F5 PUSH1 0x4 DUP1 CALLDATASIZE SUB PUSH1 0x40 DUP2 LT ISZERO PUSH2 0x5D5 JUMPI PUSH1 0x0 DUP1 REVERT JUMPDEST DUP2 ADD SWAP1 DUP1 DUP1 CALLDATALOAD SWAP1 PUSH1 0x20 ADD SWAP1 SWAP3 SWAP2 SWAP1 DUP1 CALLDATALOAD SWAP1 PUSH1 0x20 ADD SWAP1 SWAP3 SWAP2 SWAP1 POP POP POP PUSH2 0x1168 JUMP JUMPDEST STOP JUMPDEST CALLVALUE DUP1 ISZERO PUSH2 0x603 JUMPI PUSH1 0x0 DUP1 REVERT JUMPDEST POP PUSH2 0x60C PUSH2 0x1296 JUMP JUMPDEST PUSH1 0x40 MLOAD DUP1 DUP3 DUP2 MSTORE PUSH1 0x20 ADD SWAP2 POP POP PUSH1 0x40 MLOAD DUP1 SWAP2 SUB SWAP1 RETURN JUMPDEST CALLVALUE DUP1 ISZERO PUSH2 0x62E JUMPI PUSH1 0x0 DUP1 REVERT JUMPDEST POP PUSH2 0x637 PUSH2 0x129C JUMP JUMPDEST PUSH1 0x40 MLOAD DUP1 DUP3 DUP2 MSTORE PUSH1 0x20 ADD SWAP2 POP POP PUSH1 0x40 MLOAD DUP1 SWAP2 SUB SWAP1 RETURN JUMPDEST CALLVALUE DUP1 ISZERO PUSH2 0x659 JUMPI PUSH1 0x0 DUP1 REVERT JUMPDEST POP PUSH2 0x662 PUSH2 0x12A2 JUMP JUMPDEST STOP JUMPDEST CALLVALUE DUP1 ISZERO PUSH2 0x670 JUMPI PUSH1 0x0 DUP1 REVERT JUMPDEST POP PUSH2 0x69D PUSH1 0x4 DUP1 CALLDATASIZE SUB PUSH1 0x20 DUP2 LT ISZERO PUSH2 0x687 JUMPI PUSH1 0x0 DUP1 REVERT JUMPDEST DUP2 ADD SWAP1 DUP1 DUP1 CALLDATALOAD SWAP1 PUSH1 0x20 ADD SWAP1 SWAP3 SWAP2 SWAP1 POP POP POP PUSH2 0x142D JUMP JUMPDEST PUSH1 0x40 MLOAD DUP1 DUP3 DUP2 MSTORE PUSH1 0x20 ADD SWAP2 POP POP PUSH1 0x40 MLOAD DUP1 SWAP2 SUB SWAP1 RETURN JUMPDEST CALLVALUE DUP1 ISZERO PUSH2 0x6BF JUMPI PUSH1 0x0 DUP1 REVERT JUMPDEST POP PUSH2 0x6EC PUSH1 0x4 DUP1 CALLDATASIZE SUB PUSH1 0x20 DUP2 LT ISZERO PUSH2 0x6D6 JUMPI PUSH1 0x0 DUP1 REVERT JUMPDEST DUP2 ADD SWAP1 DUP1 DUP1 CALLDATALOAD SWAP1 PUSH1 0x20 ADD SWAP1 SWAP3 SWAP2 SWAP1 POP POP POP PUSH2 0x1445 JUMP JUMPDEST STOP JUMPDEST CALLVALUE DUP1 ISZERO PUSH2 0x6FA JUMPI PUSH1 0x0 DUP1 REVERT JUMPDEST POP PUSH2 0x727 PUSH1 0x4 DUP1 CALLDATASIZE SUB PUSH1 0x20 DUP2 LT ISZERO PUSH2 0x711 JUMPI PUSH1 0x0 DUP1 REVERT JUMPDEST DUP2 ADD SWAP1 DUP1 DUP1 CALLDATALOAD SWAP1 PUSH1 0x20 ADD SWAP1 SWAP3 SWAP2 SWAP1 POP POP POP PUSH2 0x1519 JUMP JUMPDEST STOP JUMPDEST CALLVALUE DUP1 ISZERO PUSH2 0x735 JUMPI PUSH1 0x0 DUP1 REVERT JUMPDEST POP PUSH2 0x73E PUSH2 0x15ED JUMP JUMPDEST PUSH1 0x40 MLOAD DUP1 DUP3 PUSH20 0xFFFFFFFFFFFFFFFFFFFFFFFFFFFFFFFFFFFFFFFF AND PUSH20 0xFFFFFFFFFFFFFFFFFFFFFFFFFFFFFFFFFFFFFFFF AND DUP2 MSTORE PUSH1 0x20 ADD SWAP2 POP POP PUSH1 0x40 MLOAD DUP1 SWAP2 SUB SWAP1 RETURN JUMPDEST CALLVALUE DUP1 ISZERO PUSH2 0x78C JUMPI PUSH1 0x0 DUP1 REVERT JUMPDEST POP PUSH2 0x7C3 PUSH1 0x4 DUP1 CALLDATASIZE SUB PUSH1 0x40 DUP2 LT ISZERO PUSH2 0x7A3 JUMPI PUSH1 0x0 DUP1 REVERT JUMPDEST DUP2 ADD SWAP1 DUP1 DUP1 CALLDATALOAD SWAP1 PUSH1 0x20 ADD SWAP1 SWAP3 SWAP2 SWAP1 DUP1 CALLDATALOAD SWAP1 PUSH1 0x20 ADD SWAP1 SWAP3 SWAP2 SWAP1 POP POP POP PUSH2 0x1617 JUMP JUMPDEST STOP JUMPDEST CALLVALUE DUP1 ISZERO PUSH2 0x7D1 JUMPI PUSH1 0x0 DUP1 REVERT JUMPDEST POP PUSH2 0x7DA PUSH2 0x16E8 JUMP JUMPDEST PUSH1 0x40 MLOAD DUP1 DUP3 DUP2 MSTORE PUSH1 0x20 ADD SWAP2 POP POP PUSH1 0x40 MLOAD DUP1 SWAP2 SUB SWAP1 RETURN JUMPDEST CALLVALUE DUP1 ISZERO PUSH2 0x7FC JUMPI PUSH1 0x0 DUP1 REVERT JUMPDEST POP PUSH2 0x829 PUSH1 0x4 DUP1 CALLDATASIZE SUB PUSH1 0x20 DUP2 LT ISZERO PUSH2 0x813 JUMPI PUSH1 0x0 DUP1 REVERT JUMPDEST DUP2 ADD SWAP1 DUP1 DUP1 CALLDATALOAD SWAP1 PUSH1 0x20 ADD SWAP1 SWAP3 SWAP2 SWAP1 POP POP POP PUSH2 0x16EE JUMP JUMPDEST STOP JUMPDEST CALLVALUE DUP1 ISZERO PUSH2 0x837 JUMPI PUSH1 0x0 DUP1 REVERT JUMPDEST POP PUSH2 0x840 PUSH2 0x17C2 JUMP JUMPDEST PUSH1 0x40 MLOAD DUP1 DUP3 DUP2 MSTORE PUSH1 0x20 ADD SWAP2 POP POP PUSH1 0x40 MLOAD DUP1 SWAP2 SUB SWAP1 RETURN JUMPDEST CALLVALUE DUP1 ISZERO PUSH2 0x862 JUMPI PUSH1 0x0 DUP1 REVERT JUMPDEST POP PUSH2 0x88F PUSH1 0x4 DUP1 CALLDATASIZE SUB PUSH1 0x20 DUP2 LT ISZERO PUSH2 0x879 JUMPI PUSH1 0x0 DUP1 REVERT JUMPDEST DUP2 ADD SWAP1 DUP1 DUP1 CALLDATALOAD SWAP1 PUSH1 0x20 ADD SWAP1 SWAP3 SWAP2 SWAP1 POP POP POP PUSH2 0x17C8 JUMP JUMPDEST PUSH1 0x40 MLOAD DUP1 DUP3 DUP2 MSTORE PUSH1 0x20 ADD SWAP2 POP POP PUSH1 0x40 MLOAD DUP1 SWAP2 SUB SWAP1 RETURN JUMPDEST CALLVALUE DUP1 ISZERO PUSH2 0x8B1 JUMPI PUSH1 0x0 DUP1 REVERT JUMPDEST POP PUSH2 0x8F4 PUSH1 0x4 DUP1 CALLDATASIZE SUB PUSH1 0x20 DUP2 LT ISZERO PUSH2 0x8C8 JUMPI PUSH1 0x0 DUP1 REVERT JUMPDEST DUP2 ADD SWAP1 DUP1 DUP1 CALLDATALOAD PUSH20 0xFFFFFFFFFFFFFFFFFFFFFFFFFFFFFFFFFFFFFFFF AND SWAP1 PUSH1 0x20 ADD SWAP1 SWAP3 SWAP2 SWAP1 POP POP POP PUSH2 0x17E0 JUMP JUMPDEST STOP JUMPDEST CALLVALUE DUP1 ISZERO PUSH2 0x902 JUMPI PUSH1 0x0 DUP1 REVERT JUMPDEST POP PUSH2 0x92F PUSH1 0x4 DUP1 CALLDATASIZE SUB PUSH1 0x20 DUP2 LT ISZERO PUSH2 0x919 JUMPI PUSH1 0x0 DUP1 REVERT JUMPDEST DUP2 ADD SWAP1 DUP1 DUP1 CALLDATALOAD SWAP1 PUSH1 0x20 ADD SWAP1 SWAP3 SWAP2 SWAP1 POP POP POP PUSH2 0x18ED JUMP JUMPDEST STOP JUMPDEST PUSH2 0x97D PUSH1 0x4 DUP1 CALLDATASIZE SUB PUSH1 0x40 DUP2 LT ISZERO PUSH2 0x947 JUMPI PUSH1 0x0 DUP1 REVERT JUMPDEST DUP2 ADD SWAP1 DUP1 DUP1 CALLDATALOAD PUSH20 0xFFFFFFFFFFFFFFFFFFFFFFFFFFFFFFFFFFFFFFFF AND SWAP1 PUSH1 0x20 ADD SWAP1 SWAP3 SWAP2 SWAP1 DUP1 CALLDATALOAD SWAP1 PUSH1 0x20 ADD SWAP1 SWAP3 SWAP2 SWAP1 POP POP POP PUSH2 0x1A8E JUMP JUMPDEST STOP JUMPDEST CALLVALUE DUP1 ISZERO PUSH2 0x98B JUMPI PUSH1 0x0 DUP1 REVERT JUMPDEST POP PUSH2 0x9B8 PUSH1 0x4 DUP1 CALLDATASIZE SUB PUSH1 0x20 DUP2 LT ISZERO PUSH2 0x9A2 JUMPI PUSH1 0x0 DUP1 REVERT JUMPDEST DUP2 ADD SWAP1 DUP1 DUP1 CALLDATALOAD SWAP1 PUSH1 0x20 ADD SWAP1 SWAP3 SWAP2 SWAP1 POP POP POP PUSH2 0x1BF7 JUMP JUMPDEST PUSH1 0x40 MLOAD DUP1 DUP3 DUP2 MSTORE PUSH1 0x20 ADD SWAP2 POP POP PUSH1 0x40 MLOAD DUP1 SWAP2 SUB SWAP1 RETURN JUMPDEST CALLVALUE DUP1 ISZERO PUSH2 0x9DA JUMPI PUSH1 0x0 DUP1 REVERT JUMPDEST POP PUSH2 0x9E3 PUSH2 0x1D5E JUMP JUMPDEST STOP JUMPDEST CALLVALUE DUP1 ISZERO PUSH2 0x9F1 JUMPI PUSH1 0x0 DUP1 REVERT JUMPDEST POP PUSH2 0x9FA PUSH2 0x217B JUMP JUMPDEST STOP JUMPDEST CALLVALUE DUP1 ISZERO PUSH2 0xA08 JUMPI PUSH1 0x0 DUP1 REVERT JUMPDEST POP PUSH2 0xA75 PUSH1 0x4 DUP1 CALLDATASIZE SUB PUSH1 0xA0 DUP2 LT ISZERO PUSH2 0xA1F JUMPI PUSH1 0x0 DUP1 REVERT JUMPDEST DUP2 ADD SWAP1 DUP1 DUP1 CALLDATALOAD PUSH20 0xFFFFFFFFFFFFFFFFFFFFFFFFFFFFFFFFFFFFFFFF AND SWAP1 PUSH1 0x20 ADD SWAP1 SWAP3 SWAP2 SWAP1 DUP1 CALLDATALOAD SWAP1 PUSH1 0x20 ADD SWAP1 SWAP3 SWAP2 SWAP1 DUP1 CALLDATALOAD SWAP1 PUSH1 0x20 ADD SWAP1 SWAP3 SWAP2 SWAP1 DUP1 CALLDATALOAD ISZERO ISZERO SWAP1 PUSH1 0x20 ADD SWAP1 SWAP3 SWAP2 SWAP1 DUP1 CALLDATALOAD SWAP1 PUSH1 0x20 ADD SWAP1 SWAP3 SWAP2 SWAP1 POP POP POP PUSH2 0x22D8 JUMP JUMPDEST STOP JUMPDEST CALLVALUE DUP1 ISZERO PUSH2 0xA83 JUMPI PUSH1 0x0 DUP1 REVERT JUMPDEST POP PUSH2 0xAC6 PUSH1 0x4 DUP1 CALLDATASIZE SUB PUSH1 0x20 DUP2 LT ISZERO PUSH2 0xA9A JUMPI PUSH1 0x0 DUP1 REVERT JUMPDEST DUP2 ADD SWAP1 DUP1 DUP1 CALLDATALOAD PUSH20 0xFFFFFFFFFFFFFFFFFFFFFFFFFFFFFFFFFFFFFFFF AND SWAP1 PUSH1 0x20 ADD SWAP1 SWAP3 SWAP2 SWAP1 POP POP POP PUSH2 0x23EE JUMP JUMPDEST STOP JUMPDEST CALLVALUE DUP1 ISZERO PUSH2 0xAD4 JUMPI PUSH1 0x0 DUP1 REVERT JUMPDEST POP PUSH2 0xB01 PUSH1 0x4 DUP1 CALLDATASIZE SUB PUSH1 0x20 DUP2 LT ISZERO PUSH2 0xAEB JUMPI PUSH1 0x0 DUP1 REVERT JUMPDEST DUP2 ADD SWAP1 DUP1 DUP1 CALLDATALOAD SWAP1 PUSH1 0x20 ADD SWAP1 SWAP3 SWAP2 SWAP1 POP POP POP PUSH2 0x25FE JUMP JUMPDEST PUSH1 0x40 MLOAD DUP1 DUP3 ISZERO ISZERO ISZERO ISZERO DUP2 MSTORE PUSH1 0x20 ADD SWAP2 POP POP PUSH1 0x40 MLOAD DUP1 SWAP2 SUB SWAP1 RETURN JUMPDEST PUSH2 0xB71 PUSH1 0x4 DUP1 CALLDATASIZE SUB PUSH1 0x60 DUP2 LT ISZERO PUSH2 0xB31 JUMPI PUSH1 0x0 DUP1 REVERT JUMPDEST DUP2 ADD SWAP1 DUP1 DUP1 CALLDATALOAD PUSH20 0xFFFFFFFFFFFFFFFFFFFFFFFFFFFFFFFFFFFFFFFF AND SWAP1 PUSH1 0x20 ADD SWAP1 SWAP3 SWAP2 SWAP1 DUP1 CALLDATALOAD SWAP1 PUSH1 0x20 ADD SWAP1 SWAP3 SWAP2 SWAP1 DUP1 CALLDATALOAD SWAP1 PUSH1 0x20 ADD SWAP1 SWAP3 SWAP2 SWAP1 POP POP POP PUSH2 0x262C JUMP JUMPDEST STOP JUMPDEST PUSH1 0x0 PUSH2 0xB9C DUP3 PUSH2 0xB8E PUSH1 0x16 SLOAD DUP6 PUSH2 0x27D3 SWAP1 SWAP2 SWAP1 PUSH4 0xFFFFFFFF AND JUMP JUMPDEST PUSH2 0x2859 SWAP1 SWAP2 SWAP1 PUSH4 0xFFFFFFFF AND JUMP JUMPDEST PUSH2 0xBB1 PUSH1 0x13 SLOAD SELFBALANCE PUSH2 0x28E1 SWAP1 SWAP2 SWAP1 PUSH4 0xFFFFFFFF AND JUMP JUMPDEST LT ISZERO SWAP1 POP SWAP2 SWAP1 POP JUMP JUMPDEST PUSH1 0x6 PUSH1 0x0 SWAP1 SSTORE PUSH1 0x7 PUSH1 0x0 SWAP1 SSTORE PUSH1 0x8 PUSH1 0x0 SWAP1 SSTORE PUSH1 0x9 PUSH1 0x0 SWAP1 SSTORE PUSH1 0xA PUSH1 0x0 SWAP1 SSTORE PUSH1 0xB PUSH1 0x0 SWAP1 SSTORE PUSH1 0xC PUSH1 0x0 SWAP1 SSTORE PUSH1 0xD PUSH1 0x0 SWAP1 SSTORE PUSH1 0xE PUSH1 0x0 SWAP1 SSTORE PUSH1 0xF PUSH1 0x0 SWAP1 SSTORE PUSH2 0xC00 CALLER DUP3 PUSH2 0x1A8E JUMP JUMPDEST POP JUMP JUMPDEST PUSH1 0x17 PUSH1 0x20 MSTORE DUP1 PUSH1 0x0 MSTORE PUSH1 0x40 PUSH1 0x0 KECCAK256 PUSH1 0x0 SWAP2 POP SWAP1 POP DUP1 PUSH1 0x0 ADD SLOAD SWAP1 DUP1 PUSH1 0x1 ADD PUSH1 0x0 SWAP1 SLOAD SWAP1 PUSH2 0x100 EXP SWAP1 DIV PUSH20 0xFFFFFFFFFFFFFFFFFFFFFFFFFFFFFFFFFFFFFFFF AND SWAP1 DUP1 PUSH1 0x2 ADD SLOAD SWAP1 DUP1 PUSH1 0x3 ADD SLOAD SWAP1 DUP1 PUSH1 0x4 ADD SLOAD SWAP1 DUP1 PUSH1 0x5 ADD PUSH1 0x0 SWAP1 SLOAD SWAP1 PUSH2 0x100 EXP SWAP1 DIV PUSH1 0xFF AND SWAP1 POP DUP7 JUMP JUMPDEST JUMP JUMPDEST PUSH1 0x11 SLOAD DUP2 JUMP JUMPDEST PUSH1 0x10 SLOAD DUP2 JUMP JUMPDEST PUSH2 0xC82 PUSH2 0x296A JUMP JUMPDEST PUSH20 0xFFFFFFFFFFFFFFFFFFFFFFFFFFFFFFFFFFFFFFFF AND PUSH1 0x3 PUSH1 0x0 SWAP1 SLOAD SWAP1 PUSH2 0x100 EXP SWAP1 DIV PUSH20 0xFFFFFFFFFFFFFFFFFFFFFFFFFFFFFFFFFFFFFFFF AND PUSH20 0xFFFFFFFFFFFFFFFFFFFFFFFFFFFFFFFFFFFFFFFF AND EQ PUSH2 0xD44 JUMPI PUSH1 0x40 MLOAD PUSH32 0x8C379A000000000000000000000000000000000000000000000000000000000 DUP2 MSTORE PUSH1 0x4 ADD DUP1 DUP1 PUSH1 0x20 ADD DUP3 DUP2 SUB DUP3 MSTORE PUSH1 0x20 DUP2 MSTORE PUSH1 0x20 ADD DUP1 PUSH32 0x4F776E61626C653A2063616C6C6572206973206E6F7420746865206F776E6572 DUP2 MSTORE POP PUSH1 0x20 ADD SWAP2 POP POP PUSH1 0x40 MLOAD DUP1 SWAP2 SUB SWAP1 REVERT JUMPDEST DUP1 PUSH1 0x15 PUSH1 0x0 PUSH2 0x100 EXP DUP2 SLOAD DUP2 PUSH20 0xFFFFFFFFFFFFFFFFFFFFFFFFFFFFFFFFFFFFFFFF MUL NOT AND SWAP1 DUP4 PUSH20 0xFFFFFFFFFFFFFFFFFFFFFFFFFFFFFFFFFFFFFFFF AND MUL OR SWAP1 SSTORE POP POP JUMP JUMPDEST PUSH1 0x0 PUSH2 0x3039 SWAP1 POP SWAP1 JUMP JUMPDEST PUSH1 0x0 DUP1 PUSH1 0x0 DUP1 PUSH1 0x12 SLOAD PUSH1 0x11 SLOAD PUSH1 0x16 SLOAD PUSH1 0x10 SLOAD SWAP4 POP SWAP4 POP SWAP4 POP SWAP4 POP SWAP1 SWAP2 SWAP3 SWAP4 JUMP JUMPDEST PUSH2 0xDBA PUSH2 0x296A JUMP JUMPDEST PUSH20 0xFFFFFFFFFFFFFFFFFFFFFFFFFFFFFFFFFFFFFFFF AND PUSH1 0x3 PUSH1 0x0 SWAP1 SLOAD SWAP1 PUSH2 0x100 EXP SWAP1 DIV PUSH20 0xFFFFFFFFFFFFFFFFFFFFFFFFFFFFFFFFFFFFFFFF AND PUSH20 0xFFFFFFFFFFFFFFFFFFFFFFFFFFFFFFFFFFFFFFFF AND EQ PUSH2 0xE7C JUMPI PUSH1 0x40 MLOAD PUSH32 0x8C379A000000000000000000000000000000000000000000000000000000000 DUP2 MSTORE PUSH1 0x4 ADD DUP1 DUP1 PUSH1 0x20 ADD DUP3 DUP2 SUB DUP3 MSTORE PUSH1 0x20 DUP2 MSTORE PUSH1 0x20 ADD DUP1 PUSH32 0x4F776E61626C653A2063616C6C6572206973206E6F7420746865206F776E6572 DUP2 MSTORE POP PUSH1 0x20 ADD SWAP2 POP POP PUSH1 0x40 MLOAD DUP1 SWAP2 SUB SWAP1 REVERT JUMPDEST DUP1 PUSH1 0x16 DUP2 SWAP1 SSTORE POP POP JUMP JUMPDEST PUSH2 0xE8E PUSH2 0x296A JUMP JUMPDEST PUSH20 0xFFFFFFFFFFFFFFFFFFFFFFFFFFFFFFFFFFFFFFFF AND PUSH1 0x3 PUSH1 0x0 SWAP1 SLOAD SWAP1 PUSH2 0x100 EXP SWAP1 DIV PUSH20 0xFFFFFFFFFFFFFFFFFFFFFFFFFFFFFFFFFFFFFFFF AND PUSH20 0xFFFFFFFFFFFFFFFFFFFFFFFFFFFFFFFFFFFFFFFF AND EQ PUSH2 0xF50 JUMPI PUSH1 0x40 MLOAD PUSH32 0x8C379A000000000000000000000000000000000000000000000000000000000 DUP2 MSTORE PUSH1 0x4 ADD DUP1 DUP1 PUSH1 0x20 ADD DUP3 DUP2 SUB DUP3 MSTORE PUSH1 0x20 DUP2 MSTORE PUSH1 0x20 ADD DUP1 PUSH32 0x4F776E61626C653A2063616C6C6572206973206E6F7420746865206F776E6572 DUP2 MSTORE POP PUSH1 0x20 ADD SWAP2 POP POP PUSH1 0x40 MLOAD DUP1 SWAP2 SUB SWAP1 REVERT JUMPDEST DUP1 PUSH1 0x1 PUSH1 0x0 PUSH2 0x100 EXP DUP2 SLOAD DUP2 PUSH20 0xFFFFFFFFFFFFFFFFFFFFFFFFFFFFFFFFFFFFFFFF MUL NOT AND SWAP1 DUP4 PUSH20 0xFFFFFFFFFFFFFFFFFFFFFFFFFFFFFFFFFFFFFFFF AND MUL OR SWAP1 SSTORE POP POP JUMP JUMPDEST PUSH1 0x0 DUP1 PUSH1 0x0 SWAP1 SLOAD SWAP1 PUSH2 0x100 EXP SWAP1 DIV PUSH20 0xFFFFFFFFFFFFFFFFFFFFFFFFFFFFFFFFFFFFFFFF AND PUSH20 0xFFFFFFFFFFFFFFFFFFFFFFFFFFFFFFFFFFFFFFFF AND PUSH4 0x70A08231 ADDRESS PUSH1 0x40 MLOAD DUP3 PUSH4 0xFFFFFFFF AND PUSH1 0xE0 SHL DUP2 MSTORE PUSH1 0x4 ADD DUP1 DUP3 PUSH20 0xFFFFFFFFFFFFFFFFFFFFFFFFFFFFFFFFFFFFFFFF AND PUSH20 0xFFFFFFFFFFFFFFFFFFFFFFFFFFFFFFFFFFFFFFFF AND DUP2 MSTORE PUSH1 0x20 ADD SWAP2 POP POP PUSH1 0x20 PUSH1 0x40 MLOAD DUP1 DUP4 SUB DUP2 DUP7 DUP1 EXTCODESIZE ISZERO DUP1 ISZERO PUSH2 0x1034 JUMPI PUSH1 0x0 DUP1 REVERT JUMPDEST POP GAS STATICCALL ISZERO DUP1 ISZERO PUSH2 0x1048 JUMPI RETURNDATASIZE PUSH1 0x0 DUP1 RETURNDATACOPY RETURNDATASIZE PUSH1 0x0 REVERT JUMPDEST POP POP POP POP PUSH1 0x40 MLOAD RETURNDATASIZE PUSH1 0x20 DUP2 LT ISZERO PUSH2 0x105E JUMPI PUSH1 0x0 DUP1 REVERT JUMPDEST DUP2 ADD SWAP1 DUP1 DUP1 MLOAD SWAP1 PUSH1 0x20 ADD SWAP1 SWAP3 SWAP2 SWAP1 POP POP POP SWAP1 POP SWAP1 JUMP JUMPDEST PUSH1 0x0 ISZERO ISZERO PUSH1 0x17 PUSH1 0x0 DUP4 DUP2 MSTORE PUSH1 0x20 ADD SWAP1 DUP2 MSTORE PUSH1 0x20 ADD PUSH1 0x0 KECCAK256 PUSH1 0x5 ADD PUSH1 0x0 SWAP1 SLOAD SWAP1 PUSH2 0x100 EXP SWAP1 DIV PUSH1 0xFF AND ISZERO ISZERO EQ PUSH2 0x1111 JUMPI PUSH1 0x40 MLOAD PUSH32 0x8C379A000000000000000000000000000000000000000000000000000000000 DUP2 MSTORE PUSH1 0x4 ADD DUP1 DUP1 PUSH1 0x20 ADD DUP3 DUP2 SUB DUP3 MSTORE PUSH1 0x13 DUP2 MSTORE PUSH1 0x20 ADD DUP1 PUSH32 0x67616D6520616C726561647920706C6179656400000000000000000000000000 DUP2 MSTORE POP PUSH1 0x20 ADD SWAP2 POP POP PUSH1 0x40 MLOAD DUP1 SWAP2 SUB SWAP1 REVERT JUMPDEST PUSH1 0x0 PUSH2 0x3039 SWAP1 POP PUSH1 0x0 PUSH2 0x1123 DUP3 PUSH2 0x1BF7 JUMP JUMPDEST SWAP1 POP DUP3 PUSH1 0x18 PUSH1 0x0 DUP4 DUP2 MSTORE PUSH1 0x20 ADD SWAP1 DUP2 MSTORE PUSH1 0x20 ADD PUSH1 0x0 KECCAK256 DUP2 SWAP1 SSTORE POP POP POP POP JUMP JUMPDEST PUSH1 0x15 PUSH1 0x0 SWAP1 SLOAD SWAP1 PUSH2 0x100 EXP SWAP1 DIV PUSH20 0xFFFFFFFFFFFFFFFFFFFFFFFFFFFFFFFFFFFFFFFF AND DUP2 JUMP JUMPDEST PUSH1 0x0 ISZERO ISZERO PUSH1 0x17 PUSH1 0x0 DUP5 DUP2 MSTORE PUSH1 0x20 ADD SWAP1 DUP2 MSTORE PUSH1 0x20 ADD PUSH1 0x0 KECCAK256 PUSH1 0x5 ADD PUSH1 0x0 SWAP1 SLOAD SWAP1 PUSH2 0x100 EXP SWAP1 DIV PUSH1 0xFF AND ISZERO ISZERO EQ PUSH2 0x1205 JUMPI PUSH1 0x40 MLOAD PUSH32 0x8C379A000000000000000000000000000000000000000000000000000000000 DUP2 MSTORE PUSH1 0x4 ADD DUP1 DUP1 PUSH1 0x20 ADD DUP3 DUP2 SUB DUP3 MSTORE PUSH1 0x13 DUP2 MSTORE PUSH1 0x20 ADD DUP1 PUSH32 0x67616D6520616C726561647920706C6179656400000000000000000000000000 DUP2 MSTORE POP PUSH1 0x20 ADD SWAP2 POP POP PUSH1 0x40 MLOAD DUP1 SWAP2 SUB SWAP1 REVERT JUMPDEST PUSH1 0x0 TIMESTAMP DIFFICULTY CALLER PUSH1 0x40 MLOAD PUSH1 0x20 ADD DUP1 DUP5 DUP2 MSTORE PUSH1 0x20 ADD DUP4 DUP2 MSTORE PUSH1 0x20 ADD DUP3 PUSH20 0xFFFFFFFFFFFFFFFFFFFFFFFFFFFFFFFFFFFFFFFF AND PUSH20 0xFFFFFFFFFFFFFFFFFFFFFFFFFFFFFFFFFFFFFFFF AND PUSH1 0x60 SHL DUP2 MSTORE PUSH1 0x14 ADD SWAP4 POP POP POP POP PUSH1 0x40 MLOAD PUSH1 0x20 DUP2 DUP4 SUB SUB DUP2 MSTORE SWAP1 PUSH1 0x40 MSTORE DUP1 MLOAD SWAP1 PUSH1 0x20 ADD KECCAK256 SWAP1 POP DUP3 PUSH1 0x18 PUSH1 0x0 DUP4 DUP2 MSTORE PUSH1 0x20 ADD SWAP1 DUP2 MSTORE PUSH1 0x20 ADD PUSH1 0x0 KECCAK256 DUP2 SWAP1 SSTORE POP PUSH2 0x1291 DUP2 DUP4 PUSH2 0x2972 JUMP JUMPDEST POP POP POP JUMP JUMPDEST PUSH1 0x16 SLOAD DUP2 JUMP JUMPDEST PUSH1 0x13 SLOAD DUP2 JUMP JUMPDEST PUSH2 0x12AA PUSH2 0x296A JUMP JUMPDEST PUSH20 0xFFFFFFFFFFFFFFFFFFFFFFFFFFFFFFFFFFFFFFFF AND PUSH1 0x3 PUSH1 0x0 SWAP1 SLOAD SWAP1 PUSH2 0x100 EXP SWAP1 DIV PUSH20 0xFFFFFFFFFFFFFFFFFFFFFFFFFFFFFFFFFFFFFFFF AND PUSH20 0xFFFFFFFFFFFFFFFFFFFFFFFFFFFFFFFFFFFFFFFF AND EQ PUSH2 0x136C JUMPI PUSH1 0x40 MLOAD PUSH32 0x8C379A000000000000000000000000000000000000000000000000000000000 DUP2 MSTORE PUSH1 0x4 ADD DUP1 DUP1 PUSH1 0x20 ADD DUP3 DUP2 SUB DUP3 MSTORE PUSH1 0x20 DUP2 MSTORE PUSH1 0x20 ADD DUP1 PUSH32 0x4F776E61626C653A2063616C6C6572206973206E6F7420746865206F776E6572 DUP2 MSTORE POP PUSH1 0x20 ADD SWAP2 POP POP PUSH1 0x40 MLOAD DUP1 SWAP2 SUB SWAP1 REVERT JUMPDEST PUSH1 0x0 PUSH20 0xFFFFFFFFFFFFFFFFFFFFFFFFFFFFFFFFFFFFFFFF AND PUSH1 0x3 PUSH1 0x0 SWAP1 SLOAD SWAP1 PUSH2 0x100 EXP SWAP1 DIV PUSH20 0xFFFFFFFFFFFFFFFFFFFFFFFFFFFFFFFFFFFFFFFF AND PUSH20 0xFFFFFFFFFFFFFFFFFFFFFFFFFFFFFFFFFFFFFFFF AND PUSH32 0x8BE0079C531659141344CD1FD0A4F28419497F9722A3DAAFE3B4186F6B6457E0 PUSH1 0x40 MLOAD PUSH1 0x40 MLOAD DUP1 SWAP2 SUB SWAP1 LOG3 PUSH1 0x0 PUSH1 0x3 PUSH1 0x0 PUSH2 0x100 EXP DUP2 SLOAD DUP2 PUSH20 0xFFFFFFFFFFFFFFFFFFFFFFFFFFFFFFFFFFFFFFFF MUL NOT AND SWAP1 DUP4 PUSH20 0xFFFFFFFFFFFFFFFFFFFFFFFFFFFFFFFFFFFFFFFF AND MUL OR SWAP1 SSTORE POP JUMP JUMPDEST PUSH1 0x18 PUSH1 0x20 MSTORE DUP1 PUSH1 0x0 MSTORE PUSH1 0x40 PUSH1 0x0 KECCAK256 PUSH1 0x0 SWAP2 POP SWAP1 POP SLOAD DUP2 JUMP JUMPDEST PUSH2 0x144D PUSH2 0x296A JUMP JUMPDEST PUSH20 0xFFFFFFFFFFFFFFFFFFFFFFFFFFFFFFFFFFFFFFFF AND PUSH1 0x3 PUSH1 0x0 SWAP1 SLOAD SWAP1 PUSH2 0x100 EXP SWAP1 DIV PUSH20 0xFFFFFFFFFFFFFFFFFFFFFFFFFFFFFFFFFFFFFFFF AND PUSH20 0xFFFFFFFFFFFFFFFFFFFFFFFFFFFFFFFFFFFFFFFF AND EQ PUSH2 0x150F JUMPI PUSH1 0x40 MLOAD PUSH32 0x8C379A000000000000000000000000000000000000000000000000000000000 DUP2 MSTORE PUSH1 0x4 ADD DUP1 DUP1 PUSH1 0x20 ADD DUP3 DUP2 SUB DUP3 MSTORE PUSH1 0x20 DUP2 MSTORE PUSH1 0x20 ADD DUP1 PUSH32 0x4F776E61626C653A2063616C6C6572206973206E6F7420746865206F776E6572 DUP2 MSTORE POP PUSH1 0x20 ADD SWAP2 POP POP PUSH1 0x40 MLOAD DUP1 SWAP2 SUB SWAP1 REVERT JUMPDEST DUP1 PUSH1 0x11 DUP2 SWAP1 SSTORE POP POP JUMP JUMPDEST PUSH2 0x1521 PUSH2 0x296A JUMP JUMPDEST PUSH20 0xFFFFFFFFFFFFFFFFFFFFFFFFFFFFFFFFFFFFFFFF AND PUSH1 0x3 PUSH1 0x0 SWAP1 SLOAD SWAP1 PUSH2 0x100 EXP SWAP1 DIV PUSH20 0xFFFFFFFFFFFFFFFFFFFFFFFFFFFFFFFFFFFFFFFF AND PUSH20 0xFFFFFFFFFFFFFFFFFFFFFFFFFFFFFFFFFFFFFFFF AND EQ PUSH2 0x15E3 JUMPI PUSH1 0x40 MLOAD PUSH32 0x8C379A000000000000000000000000000000000000000000000000000000000 DUP2 MSTORE PUSH1 0x4 ADD DUP1 DUP1 PUSH1 0x20 ADD DUP3 DUP2 SUB DUP3 MSTORE PUSH1 0x20 DUP2 MSTORE PUSH1 0x20 ADD DUP1 PUSH32 0x4F776E61626C653A2063616C6C6572206973206E6F7420746865206F776E6572 DUP2 MSTORE POP PUSH1 0x20 ADD SWAP2 POP POP PUSH1 0x40 MLOAD DUP1 SWAP2 SUB SWAP1 REVERT JUMPDEST DUP1 PUSH1 0x12 DUP2 SWAP1 SSTORE POP POP JUMP JUMPDEST PUSH1 0x0 PUSH1 0x3 PUSH1 0x0 SWAP1 SLOAD SWAP1 PUSH2 0x100 EXP SWAP1 DIV PUSH20 0xFFFFFFFFFFFFFFFFFFFFFFFFFFFFFFFFFFFFFFFF AND SWAP1 POP SWAP1 JUMP JUMPDEST PUSH1 0x1 PUSH1 0x0 SWAP1 SLOAD SWAP1 PUSH2 0x100 EXP SWAP1 DIV PUSH20 0xFFFFFFFFFFFFFFFFFFFFFFFFFFFFFFFFFFFFFFFF AND PUSH20 0xFFFFFFFFFFFFFFFFFFFFFFFFFFFFFFFFFFFFFFFF AND CALLER PUSH20 0xFFFFFFFFFFFFFFFFFFFFFFFFFFFFFFFFFFFFFFFF AND EQ PUSH2 0x16DA JUMPI PUSH1 0x40 MLOAD PUSH32 0x8C379A000000000000000000000000000000000000000000000000000000000 DUP2 MSTORE PUSH1 0x4 ADD DUP1 DUP1 PUSH1 0x20 ADD DUP3 DUP2 SUB DUP3 MSTORE PUSH1 0x1F DUP2 MSTORE PUSH1 0x20 ADD DUP1 PUSH32 0x4F6E6C7920565246436F6F7264696E61746F722063616E2066756C66696C6C00 DUP2 MSTORE POP PUSH1 0x20 ADD SWAP2 POP POP PUSH1 0x40 MLOAD DUP1 SWAP2 SUB SWAP1 REVERT JUMPDEST PUSH2 0x16E4 DUP3 DUP3 PUSH2 0x2B4D JUMP JUMPDEST POP POP JUMP JUMPDEST PUSH1 0x12 SLOAD DUP2 JUMP JUMPDEST PUSH2 0x16F6 PUSH2 0x296A JUMP JUMPDEST PUSH20 0xFFFFFFFFFFFFFFFFFFFFFFFFFFFFFFFFFFFFFFFF AND PUSH1 0x3 PUSH1 0x0 SWAP1 SLOAD SWAP1 PUSH2 0x100 EXP SWAP1 DIV PUSH20 0xFFFFFFFFFFFFFFFFFFFFFFFFFFFFFFFFFFFFFFFF AND PUSH20 0xFFFFFFFFFFFFFFFFFFFFFFFFFFFFFFFFFFFFFFFF AND EQ PUSH2 0x17B8 JUMPI PUSH1 0x40 MLOAD PUSH32 0x8C379A000000000000000000000000000000000000000000000000000000000 DUP2 MSTORE PUSH1 0x4 ADD DUP1 DUP1 PUSH1 0x20 ADD DUP3 DUP2 SUB DUP3 MSTORE PUSH1 0x20 DUP2 MSTORE PUSH1 0x20 ADD DUP1 PUSH32 0x4F776E61626C653A2063616C6C6572206973206E6F7420746865206F776E6572 DUP2 MSTORE POP PUSH1 0x20 ADD SWAP2 POP POP PUSH1 0x40 MLOAD DUP1 SWAP2 SUB SWAP1 REVERT JUMPDEST DUP1 PUSH1 0x4 DUP2 SWAP1 SSTORE POP POP JUMP JUMPDEST PUSH1 0x14 SLOAD DUP2 JUMP JUMPDEST PUSH1 0x2 PUSH1 0x20 MSTORE DUP1 PUSH1 0x0 MSTORE PUSH1 0x40 PUSH1 0x0 KECCAK256 PUSH1 0x0 SWAP2 POP SWAP1 POP SLOAD DUP2 JUMP JUMPDEST PUSH2 0x17E8 PUSH2 0x296A JUMP JUMPDEST PUSH20 0xFFFFFFFFFFFFFFFFFFFFFFFFFFFFFFFFFFFFFFFF AND PUSH1 0x3 PUSH1 0x0 SWAP1 SLOAD SWAP1 PUSH2 0x100 EXP SWAP1 DIV PUSH20 0xFFFFFFFFFFFFFFFFFFFFFFFFFFFFFFFFFFFFFFFF AND PUSH20 0xFFFFFFFFFFFFFFFFFFFFFFFFFFFFFFFFFFFFFFFF AND EQ PUSH2 0x18AA JUMPI PUSH1 0x40 MLOAD PUSH32 0x8C379A000000000000000000000000000000000000000000000000000000000 DUP2 MSTORE PUSH1 0x4 ADD DUP1 DUP1 PUSH1 0x20 ADD DUP3 DUP2 SUB DUP3 MSTORE PUSH1 0x20 DUP2 MSTORE PUSH1 0x20 ADD DUP1 PUSH32 0x4F776E61626C653A2063616C6C6572206973206E6F7420746865206F776E6572 DUP2 MSTORE POP PUSH1 0x20 ADD SWAP2 POP POP PUSH1 0x40 MLOAD DUP1 SWAP2 SUB SWAP1 REVERT JUMPDEST DUP1 PUSH1 0x0 DUP1 PUSH2 0x100 EXP DUP2 SLOAD DUP2 PUSH20 0xFFFFFFFFFFFFFFFFFFFFFFFFFFFFFFFFFFFFFFFF MUL NOT AND SWAP1 DUP4 PUSH20 0xFFFFFFFFFFFFFFFFFFFFFFFFFFFFFFFFFFFFFFFF AND MUL OR SWAP1 SSTORE POP POP JUMP JUMPDEST PUSH1 0x0 PUSH1 0x17 PUSH1 0x0 DUP4 DUP2 MSTORE PUSH1 0x20 ADD SWAP1 DUP2 MSTORE PUSH1 0x20 ADD PUSH1 0x0 KECCAK256 SWAP1 POP PUSH1 0x0 ISZERO ISZERO DUP2 PUSH1 0x5 ADD PUSH1 0x0 SWAP1 SLOAD SWAP1 PUSH2 0x100 EXP SWAP1 DIV PUSH1 0xFF AND ISZERO ISZERO EQ PUSH2 0x1972 JUMPI PUSH1 0x40 MLOAD PUSH32 0x8C379A000000000000000000000000000000000000000000000000000000000 DUP2 MSTORE PUSH1 0x4 ADD DUP1 DUP1 PUSH1 0x20 ADD DUP3 DUP2 SUB DUP3 MSTORE PUSH1 0x2A DUP2 MSTORE PUSH1 0x20 ADD DUP1 PUSH2 0x32F5 PUSH1 0x2A SWAP2 CODECOPY PUSH1 0x40 ADD SWAP2 POP POP PUSH1 0x40 MLOAD DUP1 SWAP2 SUB SWAP1 REVERT JUMPDEST DUP1 PUSH1 0x2 ADD SLOAD SELFBALANCE LT ISZERO PUSH2 0x19CF JUMPI PUSH1 0x40 MLOAD PUSH32 0x8C379A000000000000000000000000000000000000000000000000000000000 DUP2 MSTORE PUSH1 0x4 ADD DUP1 DUP1 PUSH1 0x20 ADD DUP3 DUP2 SUB DUP3 MSTORE PUSH1 0x31 DUP2 MSTORE PUSH1 0x20 ADD DUP1 PUSH2 0x32C4 PUSH1 0x31 SWAP2 CODECOPY PUSH1 0x40 ADD SWAP2 POP POP PUSH1 0x40 MLOAD DUP1 SWAP2 SUB SWAP1 REVERT JUMPDEST PUSH1 0x1 DUP2 PUSH1 0x5 ADD PUSH1 0x0 PUSH2 0x100 EXP DUP2 SLOAD DUP2 PUSH1 0xFF MUL NOT AND SWAP1 DUP4 ISZERO ISZERO MUL OR SWAP1 SSTORE POP DUP1 PUSH1 0x2 ADD SLOAD PUSH1 0x13 SLOAD LT PUSH2 0x1A12 JUMPI DUP1 PUSH1 0x2 ADD SLOAD PUSH1 0x13 PUSH1 0x0 DUP3 DUP3 SLOAD SUB SWAP3 POP POP DUP2 SWAP1 SSTORE POP PUSH2 0x1A1B JUMP JUMPDEST PUSH1 0x0 PUSH1 0x13 DUP2 SWAP1 SSTORE POP JUMPDEST DUP1 PUSH1 0x1 ADD PUSH1 0x0 SWAP1 SLOAD SWAP1 PUSH2 0x100 EXP SWAP1 DIV PUSH20 0xFFFFFFFFFFFFFFFFFFFFFFFFFFFFFFFFFFFFFFFF AND PUSH20 0xFFFFFFFFFFFFFFFFFFFFFFFFFFFFFFFFFFFFFFFF AND PUSH2 0x8FC DUP3 PUSH1 0x2 ADD SLOAD SWAP1 DUP2 ISZERO MUL SWAP1 PUSH1 0x40 MLOAD PUSH1 0x0 PUSH1 0x40 MLOAD DUP1 DUP4 SUB DUP2 DUP6 DUP9 DUP9 CALL SWAP4 POP POP POP POP ISZERO DUP1 ISZERO PUSH2 0x1A89 JUMPI RETURNDATASIZE PUSH1 0x0 DUP1 RETURNDATACOPY RETURNDATASIZE PUSH1 0x0 REVERT JUMPDEST POP POP POP JUMP JUMPDEST PUSH2 0x1A97 CALLVALUE PUSH2 0xB73 JUMP JUMPDEST PUSH2 0x1AEC JUMPI PUSH1 0x40 MLOAD PUSH32 0x8C379A000000000000000000000000000000000000000000000000000000000 DUP2 MSTORE PUSH1 0x4 ADD DUP1 DUP1 PUSH1 0x20 ADD DUP3 DUP2 SUB DUP3 MSTORE PUSH1 0x36 DUP2 MSTORE PUSH1 0x20 ADD DUP1 PUSH2 0x326D PUSH1 0x36 SWAP2 CODECOPY PUSH1 0x40 ADD SWAP2 POP POP PUSH1 0x40 MLOAD DUP1 SWAP2 SUB SWAP1 REVERT JUMPDEST PUSH1 0x10 SLOAD DUP2 GT ISZERO PUSH2 0x1B47 JUMPI PUSH1 0x40 MLOAD PUSH32 0x8C379A000000000000000000000000000000000000000000000000000000000 DUP2 MSTORE PUSH1 0x4 ADD DUP1 DUP1 PUSH1 0x20 ADD DUP3 DUP2 SUB DUP3 MSTORE PUSH1 0x28 DUP2 MSTORE PUSH1 0x20 ADD DUP1 PUSH2 0x321F PUSH1 0x28 SWAP2 CODECOPY PUSH1 0x40 ADD SWAP2 POP POP PUSH1 0x40 MLOAD DUP1 SWAP2 SUB SWAP1 REVERT JUMPDEST PUSH2 0x1B50 CALLVALUE PUSH2 0x25FE JUMP JUMPDEST PUSH2 0x1BC2 JUMPI PUSH1 0x40 MLOAD PUSH32 0x8C379A000000000000000000000000000000000000000000000000000000000 DUP2 MSTORE PUSH1 0x4 ADD DUP1 DUP1 PUSH1 0x20 ADD DUP3 DUP2 SUB DUP3 MSTORE PUSH1 0x15 DUP2 MSTORE PUSH1 0x20 ADD DUP1 PUSH32 0x4F757469736465206F66206265742072616E67652E0000000000000000000000 DUP2 MSTORE POP PUSH1 0x20 ADD SWAP2 POP POP PUSH1 0x40 MLOAD DUP1 SWAP2 SUB SWAP1 REVERT JUMPDEST PUSH2 0x1BD7 CALLVALUE PUSH1 0x13 SLOAD PUSH2 0x2859 SWAP1 SWAP2 SWAP1 PUSH4 0xFFFFFFFF AND JUMP JUMPDEST PUSH1 0x13 DUP2 SWAP1 SSTORE POP PUSH2 0x1BE8 DUP3 CALLVALUE DUP4 PUSH2 0x2D4F JUMP JUMPDEST PUSH2 0x1BF3 PUSH1 0x14 SLOAD PUSH2 0x1074 JUMP JUMPDEST POP POP JUMP JUMPDEST PUSH1 0x0 PUSH1 0x5 SLOAD PUSH1 0x0 DUP1 SWAP1 SLOAD SWAP1 PUSH2 0x100 EXP SWAP1 DIV PUSH20 0xFFFFFFFFFFFFFFFFFFFFFFFFFFFFFFFFFFFFFFFF AND PUSH20 0xFFFFFFFFFFFFFFFFFFFFFFFFFFFFFFFFFFFFFFFF AND PUSH4 0x70A08231 ADDRESS PUSH1 0x40 MLOAD DUP3 PUSH4 0xFFFFFFFF AND PUSH1 0xE0 SHL DUP2 MSTORE PUSH1 0x4 ADD DUP1 DUP3 PUSH20 0xFFFFFFFFFFFFFFFFFFFFFFFFFFFFFFFFFFFFFFFF AND PUSH20 0xFFFFFFFFFFFFFFFFFFFFFFFFFFFFFFFFFFFFFFFF AND DUP2 MSTORE PUSH1 0x20 ADD SWAP2 POP POP PUSH1 0x20 PUSH1 0x40 MLOAD DUP1 DUP4 SUB DUP2 DUP7 DUP1 EXTCODESIZE ISZERO DUP1 ISZERO PUSH2 0x1C9A JUMPI PUSH1 0x0 DUP1 REVERT JUMPDEST POP GAS STATICCALL ISZERO DUP1 ISZERO PUSH2 0x1CAE JUMPI RETURNDATASIZE PUSH1 0x0 DUP1 RETURNDATACOPY RETURNDATASIZE PUSH1 0x0 REVERT JUMPDEST POP POP POP POP PUSH1 0x40 MLOAD RETURNDATASIZE PUSH1 0x20 DUP2 LT ISZERO PUSH2 0x1CC4 JUMPI PUSH1 0x0 DUP1 REVERT JUMPDEST DUP2 ADD SWAP1 DUP1 DUP1 MLOAD SWAP1 PUSH1 0x20 ADD SWAP1 SWAP3 SWAP2 SWAP1 POP POP POP GT PUSH2 0x1D48 JUMPI PUSH1 0x40 MLOAD PUSH32 0x8C379A000000000000000000000000000000000000000000000000000000000 DUP2 MSTORE PUSH1 0x4 ADD DUP1 DUP1 PUSH1 0x20 ADD DUP3 DUP2 SUB DUP3 MSTORE PUSH1 0xF DUP2 MSTORE PUSH1 0x20 ADD DUP1 PUSH32 0x4E6F7420656E6F756768204C494E4B0000000000000000000000000000000000 DUP2 MSTORE POP PUSH1 0x20 ADD SWAP2 POP POP PUSH1 0x40 MLOAD DUP1 SWAP2 SUB SWAP1 REVERT JUMPDEST PUSH2 0x1D57 PUSH1 0x4 SLOAD PUSH1 0x5 SLOAD DUP5 PUSH2 0x2E82 JUMP JUMPDEST SWAP1 POP SWAP2 SWAP1 POP JUMP JUMPDEST PUSH2 0x1D66 PUSH2 0x296A JUMP JUMPDEST PUSH20 0xFFFFFFFFFFFFFFFFFFFFFFFFFFFFFFFFFFFFFFFF AND PUSH1 0x3 PUSH1 0x0 SWAP1 SLOAD SWAP1 PUSH2 0x100 EXP SWAP1 DIV PUSH20 0xFFFFFFFFFFFFFFFFFFFFFFFFFFFFFFFFFFFFFFFF AND PUSH20 0xFFFFFFFFFFFFFFFFFFFFFFFFFFFFFFFFFFFFFFFF AND EQ PUSH2 0x1E28 JUMPI PUSH1 0x40 MLOAD PUSH32 0x8C379A000000000000000000000000000000000000000000000000000000000 DUP2 MSTORE PUSH1 0x4 ADD DUP1 DUP1 PUSH1 0x20 ADD DUP3 DUP2 SUB DUP3 MSTORE PUSH1 0x20 DUP2 MSTORE PUSH1 0x20 ADD DUP1 PUSH32 0x4F776E61626C653A2063616C6C6572206973206E6F7420746865206F776E6572 DUP2 MSTORE POP PUSH1 0x20 ADD SWAP2 POP POP PUSH1 0x40 MLOAD DUP1 SWAP2 SUB SWAP1 REVERT JUMPDEST PUSH1 0x13 SLOAD SELFBALANCE GT PUSH2 0x1E36 JUMPI PUSH1 0x0 DUP1 REVERT JUMPDEST PUSH1 0x0 PUSH2 0x1E4D PUSH1 0x13 SLOAD SELFBALANCE PUSH2 0x28E1 SWAP1 SWAP2 SWAP1 PUSH4 0xFFFFFFFF AND JUMP JUMPDEST SWAP1 POP PUSH1 0x15 PUSH1 0x0 SWAP1 SLOAD SWAP1 PUSH2 0x100 EXP SWAP1 DIV PUSH20 0xFFFFFFFFFFFFFFFFFFFFFFFFFFFFFFFFFFFFFFFF AND PUSH20 0xFFFFFFFFFFFFFFFFFFFFFFFFFFFFFFFFFFFFFFFF AND PUSH2 0x8FC DUP3 SWAP1 DUP2 ISZERO MUL SWAP1 PUSH1 0x40 MLOAD PUSH1 0x0 PUSH1 0x40 MLOAD DUP1 DUP4 SUB DUP2 DUP6 DUP9 DUP9 CALL SWAP4 POP POP POP POP ISZERO DUP1 ISZERO PUSH2 0x1EB7 JUMPI RETURNDATASIZE PUSH1 0x0 DUP1 RETURNDATACOPY RETURNDATASIZE PUSH1 0x0 REVERT JUMPDEST POP PUSH1 0x0 DUP1 PUSH1 0x0 SWAP1 SLOAD SWAP1 PUSH2 0x100 EXP SWAP1 DIV PUSH20 0xFFFFFFFFFFFFFFFFFFFFFFFFFFFFFFFFFFFFFFFF AND PUSH20 0xFFFFFFFFFFFFFFFFFFFFFFFFFFFFFFFFFFFFFFFF AND PUSH4 0x70A08231 ADDRESS PUSH1 0x40 MLOAD DUP3 PUSH4 0xFFFFFFFF AND PUSH1 0xE0 SHL DUP2 MSTORE PUSH1 0x4 ADD DUP1 DUP3 PUSH20 0xFFFFFFFFFFFFFFFFFFFFFFFFFFFFFFFFFFFFFFFF AND PUSH20 0xFFFFFFFFFFFFFFFFFFFFFFFFFFFFFFFFFFFFFFFF AND DUP2 MSTORE PUSH1 0x20 ADD SWAP2 POP POP PUSH1 0x20 PUSH1 0x40 MLOAD DUP1 DUP4 SUB DUP2 DUP7 DUP1 EXTCODESIZE ISZERO DUP1 ISZERO PUSH2 0x1F58 JUMPI PUSH1 0x0 DUP1 REVERT JUMPDEST POP GAS STATICCALL ISZERO DUP1 ISZERO PUSH2 0x1F6C JUMPI RETURNDATASIZE PUSH1 0x0 DUP1 RETURNDATACOPY RETURNDATASIZE PUSH1 0x0 REVERT JUMPDEST POP POP POP POP PUSH1 0x40 MLOAD RETURNDATASIZE PUSH1 0x20 DUP2 LT ISZERO PUSH2 0x1F82 JUMPI PUSH1 0x0 DUP1 REVERT JUMPDEST DUP2 ADD SWAP1 DUP1 DUP1 MLOAD SWAP1 PUSH1 0x20 ADD SWAP1 SWAP3 SWAP2 SWAP1 POP POP POP GT ISZERO PUSH2 0x2178 JUMPI PUSH1 0x0 DUP1 SWAP1 SLOAD SWAP1 PUSH2 0x100 EXP SWAP1 DIV PUSH20 0xFFFFFFFFFFFFFFFFFFFFFFFFFFFFFFFFFFFFFFFF AND PUSH20 0xFFFFFFFFFFFFFFFFFFFFFFFFFFFFFFFFFFFFFFFF AND PUSH4 0xA9059CBB PUSH1 0x15 PUSH1 0x0 SWAP1 SLOAD SWAP1 PUSH2 0x100 EXP SWAP1 DIV PUSH20 0xFFFFFFFFFFFFFFFFFFFFFFFFFFFFFFFFFFFFFFFF AND PUSH1 0x0 DUP1 SWAP1 SLOAD SWAP1 PUSH2 0x100 EXP SWAP1 DIV PUSH20 0xFFFFFFFFFFFFFFFFFFFFFFFFFFFFFFFFFFFFFFFF AND PUSH20 0xFFFFFFFFFFFFFFFFFFFFFFFFFFFFFFFFFFFFFFFF AND PUSH4 0x70A08231 ADDRESS PUSH1 0x40 MLOAD DUP3 PUSH4 0xFFFFFFFF AND PUSH1 0xE0 SHL DUP2 MSTORE PUSH1 0x4 ADD DUP1 DUP3 PUSH20 0xFFFFFFFFFFFFFFFFFFFFFFFFFFFFFFFFFFFFFFFF AND PUSH20 0xFFFFFFFFFFFFFFFFFFFFFFFFFFFFFFFFFFFFFFFF AND DUP2 MSTORE PUSH1 0x20 ADD SWAP2 POP POP PUSH1 0x20 PUSH1 0x40 MLOAD DUP1 DUP4 SUB DUP2 DUP7 DUP1 EXTCODESIZE ISZERO DUP1 ISZERO PUSH2 0x2097 JUMPI PUSH1 0x0 DUP1 REVERT JUMPDEST POP GAS STATICCALL ISZERO DUP1 ISZERO PUSH2 0x20AB JUMPI RETURNDATASIZE PUSH1 0x0 DUP1 RETURNDATACOPY RETURNDATASIZE PUSH1 0x0 REVERT JUMPDEST POP POP POP POP PUSH1 0x40 MLOAD RETURNDATASIZE PUSH1 0x20 DUP2 LT ISZERO PUSH2 0x20C1 JUMPI PUSH1 0x0 DUP1 REVERT JUMPDEST DUP2 ADD SWAP1 DUP1 DUP1 MLOAD SWAP1 PUSH1 0x20 ADD SWAP1 SWAP3 SWAP2 SWAP1 POP POP POP PUSH1 0x40 MLOAD DUP4 PUSH4 0xFFFFFFFF AND PUSH1 0xE0 SHL DUP2 MSTORE PUSH1 0x4 ADD DUP1 DUP4 PUSH20 0xFFFFFFFFFFFFFFFFFFFFFFFFFFFFFFFFFFFFFFFF AND PUSH20 0xFFFFFFFFFFFFFFFFFFFFFFFFFFFFFFFFFFFFFFFF AND DUP2 MSTORE PUSH1 0x20 ADD DUP3 DUP2 MSTORE PUSH1 0x20 ADD SWAP3 POP POP POP PUSH1 0x20 PUSH1 0x40 MLOAD DUP1 DUP4 SUB DUP2 PUSH1 0x0 DUP8 DUP1 EXTCODESIZE ISZERO DUP1 ISZERO PUSH2 0x213B JUMPI PUSH1 0x0 DUP1 REVERT JUMPDEST POP GAS CALL ISZERO DUP1 ISZERO PUSH2 0x214F JUMPI RETURNDATASIZE PUSH1 0x0 DUP1 RETURNDATACOPY RETURNDATASIZE PUSH1 0x0 REVERT JUMPDEST POP POP POP POP PUSH1 0x40 MLOAD RETURNDATASIZE PUSH1 0x20 DUP2 LT ISZERO PUSH2 0x2165 JUMPI PUSH1 0x0 DUP1 REVERT JUMPDEST DUP2 ADD SWAP1 DUP1 DUP1 MLOAD SWAP1 PUSH1 0x20 ADD SWAP1 SWAP3 SWAP2 SWAP1 POP POP POP POP JUMPDEST POP JUMP JUMPDEST PUSH2 0x2183 PUSH2 0x296A JUMP JUMPDEST PUSH20 0xFFFFFFFFFFFFFFFFFFFFFFFFFFFFFFFFFFFFFFFF AND PUSH1 0x3 PUSH1 0x0 SWAP1 SLOAD SWAP1 PUSH2 0x100 EXP SWAP1 DIV PUSH20 0xFFFFFFFFFFFFFFFFFFFFFFFFFFFFFFFFFFFFFFFF AND PUSH20 0xFFFFFFFFFFFFFFFFFFFFFFFFFFFFFFFFFFFFFFFF AND EQ PUSH2 0x2245 JUMPI PUSH1 0x40 MLOAD PUSH32 0x8C379A000000000000000000000000000000000000000000000000000000000 DUP2 MSTORE PUSH1 0x4 ADD DUP1 DUP1 PUSH1 0x20 ADD DUP3 DUP2 SUB DUP3 MSTORE PUSH1 0x20 DUP2 MSTORE PUSH1 0x20 ADD DUP1 PUSH32 0x4F776E61626C653A2063616C6C6572206973206E6F7420746865206F776E6572 DUP2 MSTORE POP PUSH1 0x20 ADD SWAP2 POP POP PUSH1 0x40 MLOAD DUP1 SWAP2 SUB SWAP1 REVERT JUMPDEST PUSH1 0x13 SLOAD SELFBALANCE GT PUSH2 0x2253 JUMPI PUSH1 0x0 DUP1 REVERT JUMPDEST PUSH1 0x0 PUSH2 0x226A PUSH1 0x13 SLOAD SELFBALANCE PUSH2 0x28E1 SWAP1 SWAP2 SWAP1 PUSH4 0xFFFFFFFF AND JUMP JUMPDEST SWAP1 POP PUSH1 0x15 PUSH1 0x0 SWAP1 SLOAD SWAP1 PUSH2 0x100 EXP SWAP1 DIV PUSH20 0xFFFFFFFFFFFFFFFFFFFFFFFFFFFFFFFFFFFFFFFF AND PUSH20 0xFFFFFFFFFFFFFFFFFFFFFFFFFFFFFFFFFFFFFFFF AND PUSH2 0x8FC DUP3 SWAP1 DUP2 ISZERO MUL SWAP1 PUSH1 0x40 MLOAD PUSH1 0x0 PUSH1 0x40 MLOAD DUP1 DUP4 SUB DUP2 DUP6 DUP9 DUP9 CALL SWAP4 POP POP POP POP ISZERO DUP1 ISZERO PUSH2 0x22D4 JUMPI RETURNDATASIZE PUSH1 0x0 DUP1 RETURNDATACOPY RETURNDATASIZE PUSH1 0x0 REVERT JUMPDEST POP POP JUMP JUMPDEST PUSH2 0x22E0 PUSH2 0x31D0 JUMP JUMPDEST PUSH1 0x40 MLOAD DUP1 PUSH1 0xC0 ADD PUSH1 0x40 MSTORE DUP1 DUP4 DUP2 MSTORE PUSH1 0x20 ADD DUP8 PUSH20 0xFFFFFFFFFFFFFFFFFFFFFFFFFFFFFFFFFFFFFFFF AND DUP2 MSTORE PUSH1 0x20 ADD DUP7 DUP2 MSTORE PUSH1 0x20 ADD DUP6 DUP2 MSTORE PUSH1 0x20 ADD PUSH2 0x232F PUSH1 0xA PUSH1 0x10 SLOAD PUSH2 0x2859 SWAP1 SWAP2 SWAP1 PUSH4 0xFFFFFFFF AND JUMP JUMPDEST DUP2 MSTORE PUSH1 0x20 ADD DUP5 ISZERO ISZERO DUP2 MSTORE POP SWAP1 POP DUP1 PUSH1 0x17 PUSH1 0x0 DUP4 PUSH1 0x0 ADD MLOAD DUP2 MSTORE PUSH1 0x20 ADD SWAP1 DUP2 MSTORE PUSH1 0x20 ADD PUSH1 0x0 KECCAK256 PUSH1 0x0 DUP3 ADD MLOAD DUP2 PUSH1 0x0 ADD SSTORE PUSH1 0x20 DUP3 ADD MLOAD DUP2 PUSH1 0x1 ADD PUSH1 0x0 PUSH2 0x100 EXP DUP2 SLOAD DUP2 PUSH20 0xFFFFFFFFFFFFFFFFFFFFFFFFFFFFFFFFFFFFFFFF MUL NOT AND SWAP1 DUP4 PUSH20 0xFFFFFFFFFFFFFFFFFFFFFFFFFFFFFFFFFFFFFFFF AND MUL OR SWAP1 SSTORE POP PUSH1 0x40 DUP3 ADD MLOAD DUP2 PUSH1 0x2 ADD SSTORE PUSH1 0x60 DUP3 ADD MLOAD DUP2 PUSH1 0x3 ADD SSTORE PUSH1 0x80 DUP3 ADD MLOAD DUP2 PUSH1 0x4 ADD SSTORE PUSH1 0xA0 DUP3 ADD MLOAD DUP2 PUSH1 0x5 ADD PUSH1 0x0 PUSH2 0x100 EXP DUP2 SLOAD DUP2 PUSH1 0xFF MUL NOT AND SWAP1 DUP4 ISZERO ISZERO MUL OR SWAP1 SSTORE POP SWAP1 POP POP POP POP POP POP POP POP JUMP JUMPDEST PUSH2 0x23F6 PUSH2 0x296A JUMP JUMPDEST PUSH20 0xFFFFFFFFFFFFFFFFFFFFFFFFFFFFFFFFFFFFFFFF AND PUSH1 0x3 PUSH1 0x0 SWAP1 SLOAD SWAP1 PUSH2 0x100 EXP SWAP1 DIV PUSH20 0xFFFFFFFFFFFFFFFFFFFFFFFFFFFFFFFFFFFFFFFF AND PUSH20 0xFFFFFFFFFFFFFFFFFFFFFFFFFFFFFFFFFFFFFFFF AND EQ PUSH2 0x24B8 JUMPI PUSH1 0x40 MLOAD PUSH32 0x8C379A000000000000000000000000000000000000000000000000000000000 DUP2 MSTORE PUSH1 0x4 ADD DUP1 DUP1 PUSH1 0x20 ADD DUP3 DUP2 SUB DUP3 MSTORE PUSH1 0x20 DUP2 MSTORE PUSH1 0x20 ADD DUP1 PUSH32 0x4F776E61626C653A2063616C6C6572206973206E6F7420746865206F776E6572 DUP2 MSTORE POP PUSH1 0x20 ADD SWAP2 POP POP PUSH1 0x40 MLOAD DUP1 SWAP2 SUB SWAP1 REVERT JUMPDEST PUSH1 0x0 PUSH20 0xFFFFFFFFFFFFFFFFFFFFFFFFFFFFFFFFFFFFFFFF AND DUP2 PUSH20 0xFFFFFFFFFFFFFFFFFFFFFFFFFFFFFFFFFFFFFFFF AND EQ ISZERO PUSH2 0x253E JUMPI PUSH1 0x40 MLOAD PUSH32 0x8C379A000000000000000000000000000000000000000000000000000000000 DUP2 MSTORE PUSH1 0x4 ADD DUP1 DUP1 PUSH1 0x20 ADD DUP3 DUP2 SUB DUP3 MSTORE PUSH1 0x26 DUP2 MSTORE PUSH1 0x20 ADD DUP1 PUSH2 0x3247 PUSH1 0x26 SWAP2 CODECOPY PUSH1 0x40 ADD SWAP2 POP POP PUSH1 0x40 MLOAD DUP1 SWAP2 SUB SWAP1 REVERT JUMPDEST DUP1 PUSH20 0xFFFFFFFFFFFFFFFFFFFFFFFFFFFFFFFFFFFFFFFF AND PUSH1 0x3 PUSH1 0x0 SWAP1 SLOAD SWAP1 PUSH2 0x100 EXP SWAP1 DIV PUSH20 0xFFFFFFFFFFFFFFFFFFFFFFFFFFFFFFFFFFFFFFFF AND PUSH20 0xFFFFFFFFFFFFFFFFFFFFFFFFFFFFFFFFFFFFFFFF AND PUSH32 0x8BE0079C531659141344CD1FD0A4F28419497F9722A3DAAFE3B4186F6B6457E0 PUSH1 0x40 MLOAD PUSH1 0x40 MLOAD DUP1 SWAP2 SUB SWAP1 LOG3 DUP1 PUSH1 0x3 PUSH1 0x0 PUSH2 0x100 EXP DUP2 SLOAD DUP2 PUSH20 0xFFFFFFFFFFFFFFFFFFFFFFFFFFFFFFFFFFFFFFFF MUL NOT AND SWAP1 DUP4 PUSH20 0xFFFFFFFFFFFFFFFFFFFFFFFFFFFFFFFFFFFFFFFF AND MUL OR SWAP1 SSTORE POP POP JUMP JUMPDEST PUSH1 0x0 PUSH1 0x12 SLOAD DUP3 LT ISZERO DUP1 ISZERO PUSH2 0x2614 JUMPI POP PUSH1 0x11 SLOAD DUP3 GT ISZERO JUMPDEST ISZERO PUSH2 0x2622 JUMPI PUSH1 0x1 SWAP1 POP PUSH2 0x2627 JUMP JUMPDEST PUSH1 0x0 SWAP1 POP JUMPDEST SWAP2 SWAP1 POP JUMP JUMPDEST PUSH1 0x6 PUSH1 0x0 SWAP1 SSTORE PUSH1 0x7 PUSH1 0x0 SWAP1 SSTORE PUSH1 0x8 PUSH1 0x0 SWAP1 SSTORE PUSH1 0x9 PUSH1 0x0 SWAP1 SSTORE PUSH1 0xA PUSH1 0x0 SWAP1 SSTORE PUSH1 0xB PUSH1 0x0 SWAP1 SSTORE PUSH1 0xC PUSH1 0x0 SWAP1 SSTORE PUSH1 0xD PUSH1 0x0 SWAP1 SSTORE PUSH1 0xE PUSH1 0x0 SWAP1 SSTORE PUSH1 0xF PUSH1 0x0 SWAP1 SSTORE PUSH2 0x2671 CALLVALUE PUSH2 0xB73 JUMP JUMPDEST PUSH2 0x26C6 JUMPI PUSH1 0x40 MLOAD PUSH32 0x8C379A000000000000000000000000000000000000000000000000000000000 DUP2 MSTORE PUSH1 0x4 ADD DUP1 DUP1 PUSH1 0x20 ADD DUP3 DUP2 SUB DUP3 MSTORE PUSH1 0x36 DUP2 MSTORE PUSH1 0x20 ADD DUP1 PUSH2 0x326D PUSH1 0x36 SWAP2 CODECOPY PUSH1 0x40 ADD SWAP2 POP POP PUSH1 0x40 MLOAD DUP1 SWAP2 SUB SWAP1 REVERT JUMPDEST PUSH1 0x10 SLOAD DUP3 GT ISZERO PUSH2 0x2721 JUMPI PUSH1 0x40 MLOAD PUSH32 0x8C379A000000000000000000000000000000000000000000000000000000000 DUP2 MSTORE PUSH1 0x4 ADD DUP1 DUP1 PUSH1 0x20 ADD DUP3 DUP2 SUB DUP3 MSTORE PUSH1 0x28 DUP2 MSTORE PUSH1 0x20 ADD DUP1 PUSH2 0x321F PUSH1 0x28 SWAP2 CODECOPY PUSH1 0x40 ADD SWAP2 POP POP PUSH1 0x40 MLOAD DUP1 SWAP2 SUB SWAP1 REVERT JUMPDEST PUSH2 0x272A CALLVALUE PUSH2 0x25FE JUMP JUMPDEST PUSH2 0x279C JUMPI PUSH1 0x40 MLOAD PUSH32 0x8C379A000000000000000000000000000000000000000000000000000000000 DUP2 MSTORE PUSH1 0x4 ADD DUP1 DUP1 PUSH1 0x20 ADD DUP3 DUP2 SUB DUP3 MSTORE PUSH1 0x15 DUP2 MSTORE PUSH1 0x20 ADD DUP1 PUSH32 0x4F757469736465206F66206265742072616E67652E0000000000000000000000 DUP2 MSTORE POP PUSH1 0x20 ADD SWAP2 POP POP PUSH1 0x40 MLOAD DUP1 SWAP2 SUB SWAP1 REVERT JUMPDEST PUSH2 0x27B1 CALLVALUE PUSH1 0x13 SLOAD PUSH2 0x2859 SWAP1 SWAP2 SWAP1 PUSH4 0xFFFFFFFF AND JUMP JUMPDEST PUSH1 0x13 DUP2 SWAP1 SSTORE POP PUSH2 0x27C2 DUP4 CALLVALUE DUP5 PUSH2 0x2D4F JUMP JUMPDEST PUSH2 0x27CE PUSH1 0x14 SLOAD DUP3 PUSH2 0x1168 JUMP JUMPDEST POP POP POP JUMP JUMPDEST PUSH1 0x0 DUP1 DUP4 EQ ISZERO PUSH2 0x27E6 JUMPI PUSH1 0x0 SWAP1 POP PUSH2 0x2853 JUMP JUMPDEST PUSH1 0x0 DUP3 DUP5 MUL SWAP1 POP DUP3 DUP5 DUP3 DUP2 PUSH2 0x27F7 JUMPI INVALID JUMPDEST DIV EQ PUSH2 0x284E JUMPI PUSH1 0x40 MLOAD PUSH32 0x8C379A000000000000000000000000000000000000000000000000000000000 DUP2 MSTORE PUSH1 0x4 ADD DUP1 DUP1 PUSH1 0x20 ADD DUP3 DUP2 SUB DUP3 MSTORE PUSH1 0x21 DUP2 MSTORE PUSH1 0x20 ADD DUP1 PUSH2 0x32A3 PUSH1 0x21 SWAP2 CODECOPY PUSH1 0x40 ADD SWAP2 POP POP PUSH1 0x40 MLOAD DUP1 SWAP2 SUB SWAP1 REVERT JUMPDEST DUP1 SWAP2 POP POP JUMPDEST SWAP3 SWAP2 POP POP JUMP JUMPDEST PUSH1 0x0 DUP1 DUP3 DUP5 ADD SWAP1 POP DUP4 DUP2 LT ISZERO PUSH2 0x28D7 JUMPI PUSH1 0x40 MLOAD PUSH32 0x8C379A000000000000000000000000000000000000000000000000000000000 DUP2 MSTORE PUSH1 0x4 ADD DUP1 DUP1 PUSH1 0x20 ADD DUP3 DUP2 SUB DUP3 MSTORE PUSH1 0x1B DUP2 MSTORE PUSH1 0x20 ADD DUP1 PUSH32 0x536166654D6174683A206164646974696F6E206F766572666C6F770000000000 DUP2 MSTORE POP PUSH1 0x20 ADD SWAP2 POP POP PUSH1 0x40 MLOAD DUP1 SWAP2 SUB SWAP1 REVERT JUMPDEST DUP1 SWAP2 POP POP SWAP3 SWAP2 POP POP JUMP JUMPDEST PUSH1 0x0 DUP3 DUP3 GT ISZERO PUSH2 0x2959 JUMPI PUSH1 0x40 MLOAD PUSH32 0x8C379A000000000000000000000000000000000000000000000000000000000 DUP2 MSTORE PUSH1 0x4 ADD DUP1 DUP1 PUSH1 0x20 ADD DUP3 DUP2 SUB DUP3 MSTORE PUSH1 0x1E DUP2 MSTORE PUSH1 0x20 ADD DUP1 PUSH32 0x536166654D6174683A207375627472616374696F6E206F766572666C6F770000 DUP2 MSTORE POP PUSH1 0x20 ADD SWAP2 POP POP PUSH1 0x40 MLOAD DUP1 SWAP2 SUB SWAP1 REVERT JUMPDEST PUSH1 0x0 DUP3 DUP5 SUB SWAP1 POP DUP1 SWAP2 POP POP SWAP3 SWAP2 POP POP JUMP JUMPDEST PUSH1 0x0 CALLER SWAP1 POP SWAP1 JUMP JUMPDEST PUSH1 0x0 PUSH1 0x17 PUSH1 0x0 PUSH1 0x18 PUSH1 0x0 DUP7 DUP2 MSTORE PUSH1 0x20 ADD SWAP1 DUP2 MSTORE PUSH1 0x20 ADD PUSH1 0x0 KECCAK256 SLOAD DUP2 MSTORE PUSH1 0x20 ADD SWAP1 DUP2 MSTORE PUSH1 0x20 ADD PUSH1 0x0 KECCAK256 SWAP1 POP PUSH1 0x0 DUP2 PUSH1 0x0 ADD SLOAD GT ISZERO PUSH2 0x2B48 JUMPI PUSH1 0x0 DUP2 PUSH1 0x2 ADD SLOAD PUSH2 0x29C9 PUSH1 0x16 SLOAD DUP5 PUSH1 0x2 ADD SLOAD PUSH2 0x27D3 SWAP1 SWAP2 SWAP1 PUSH4 0xFFFFFFFF AND JUMP JUMPDEST ADD SWAP1 POP DUP1 SELFBALANCE LT ISZERO PUSH2 0x2A25 JUMPI PUSH1 0x40 MLOAD PUSH32 0x8C379A000000000000000000000000000000000000000000000000000000000 DUP2 MSTORE PUSH1 0x4 ADD DUP1 DUP1 PUSH1 0x20 ADD DUP3 DUP2 SUB DUP3 MSTORE PUSH1 0x33 DUP2 MSTORE PUSH1 0x20 ADD DUP1 PUSH2 0x331F PUSH1 0x33 SWAP2 CODECOPY PUSH1 0x40 ADD SWAP2 POP POP PUSH1 0x40 MLOAD DUP1 SWAP2 SUB SWAP1 REVERT JUMPDEST DUP3 DUP3 PUSH1 0x4 ADD DUP2 SWAP1 SSTORE POP PUSH1 0x1 DUP3 PUSH1 0x5 ADD PUSH1 0x0 PUSH2 0x100 EXP DUP2 SLOAD DUP2 PUSH1 0xFF MUL NOT AND SWAP1 DUP4 ISZERO ISZERO MUL OR SWAP1 SSTORE POP DUP2 PUSH1 0x2 ADD SLOAD PUSH1 0x13 SLOAD LT PUSH2 0x2A71 JUMPI DUP2 PUSH1 0x2 ADD SLOAD PUSH1 0x13 PUSH1 0x0 DUP3 DUP3 SLOAD SUB SWAP3 POP POP DUP2 SWAP1 SSTORE POP PUSH2 0x2A7A JUMP JUMPDEST PUSH1 0x0 PUSH1 0x13 DUP2 SWAP1 SSTORE POP JUMPDEST DUP2 PUSH1 0x4 ADD SLOAD DUP3 PUSH1 0x3 ADD SLOAD EQ ISZERO PUSH2 0x2AF6 JUMPI DUP2 PUSH1 0x1 ADD PUSH1 0x0 SWAP1 SLOAD SWAP1 PUSH2 0x100 EXP SWAP1 DIV PUSH20 0xFFFFFFFFFFFFFFFFFFFFFFFFFFFFFFFFFFFFFFFF AND PUSH20 0xFFFFFFFFFFFFFFFFFFFFFFFFFFFFFFFFFFFFFFFF AND PUSH2 0x8FC DUP3 SWAP1 DUP2 ISZERO MUL SWAP1 PUSH1 0x40 MLOAD PUSH1 0x0 PUSH1 0x40 MLOAD DUP1 DUP4 SUB DUP2 DUP6 DUP9 DUP9 CALL SWAP4 POP POP POP POP ISZERO DUP1 ISZERO PUSH2 0x2AF4 JUMPI RETURNDATASIZE PUSH1 0x0 DUP1 RETURNDATACOPY RETURNDATASIZE PUSH1 0x0 REVERT JUMPDEST POP JUMPDEST PUSH1 0x1 PUSH1 0x6 DUP2 SWAP1 SSTORE POP PUSH1 0x1 PUSH1 0x7 DUP2 SWAP1 SSTORE POP PUSH1 0x1 PUSH1 0x8 DUP2 SWAP1 SSTORE POP PUSH1 0x1 PUSH1 0x9 DUP2 SWAP1 SSTORE POP PUSH1 0x1 PUSH1 0xA DUP2 SWAP1 SSTORE POP PUSH1 0x1 PUSH1 0xB DUP2 SWAP1 SSTORE POP PUSH1 0x1 PUSH1 0xC DUP2 SWAP1 SSTORE POP PUSH1 0x1 PUSH1 0xD DUP2 SWAP1 SSTORE POP PUSH1 0x1 PUSH1 0xE DUP2 SWAP1 SSTORE POP PUSH1 0x1 PUSH1 0xF DUP2 SWAP1 SSTORE POP POP JUMPDEST POP POP POP JUMP JUMPDEST PUSH1 0x0 PUSH1 0x17 PUSH1 0x0 PUSH1 0x18 PUSH1 0x0 DUP7 DUP2 MSTORE PUSH1 0x20 ADD SWAP1 DUP2 MSTORE PUSH1 0x20 ADD PUSH1 0x0 KECCAK256 SLOAD DUP2 MSTORE PUSH1 0x20 ADD SWAP1 DUP2 MSTORE PUSH1 0x20 ADD PUSH1 0x0 KECCAK256 SWAP1 POP PUSH1 0x0 DUP2 PUSH1 0x0 ADD SLOAD GT ISZERO PUSH2 0x2CFA JUMPI PUSH1 0x0 DUP2 PUSH1 0x2 ADD SLOAD PUSH2 0x2BA4 PUSH1 0x16 SLOAD DUP5 PUSH1 0x2 ADD SLOAD PUSH2 0x27D3 SWAP1 SWAP2 SWAP1 PUSH4 0xFFFFFFFF AND JUMP JUMPDEST ADD SWAP1 POP DUP1 SELFBALANCE LT ISZERO PUSH2 0x2C00 JUMPI PUSH1 0x40 MLOAD PUSH32 0x8C379A000000000000000000000000000000000000000000000000000000000 DUP2 MSTORE PUSH1 0x4 ADD DUP1 DUP1 PUSH1 0x20 ADD DUP3 DUP2 SUB DUP3 MSTORE PUSH1 0x33 DUP2 MSTORE PUSH1 0x20 ADD DUP1 PUSH2 0x331F PUSH1 0x33 SWAP2 CODECOPY PUSH1 0x40 ADD SWAP2 POP POP PUSH1 0x40 MLOAD DUP1 SWAP2 SUB SWAP1 REVERT JUMPDEST PUSH2 0x2C28 PUSH2 0x2C19 PUSH1 0x1 PUSH1 0x10 SLOAD PUSH2 0x2859 SWAP1 SWAP2 SWAP1 PUSH4 0xFFFFFFFF AND JUMP JUMPDEST DUP5 PUSH2 0x3093 SWAP1 SWAP2 SWAP1 PUSH4 0xFFFFFFFF AND JUMP JUMPDEST DUP3 PUSH1 0x4 ADD DUP2 SWAP1 SSTORE POP PUSH1 0x1 DUP3 PUSH1 0x5 ADD PUSH1 0x0 PUSH2 0x100 EXP DUP2 SLOAD DUP2 PUSH1 0xFF MUL NOT AND SWAP1 DUP4 ISZERO ISZERO MUL OR SWAP1 SSTORE POP DUP2 PUSH1 0x2 ADD SLOAD PUSH1 0x13 SLOAD LT PUSH2 0x2C73 JUMPI DUP2 PUSH1 0x2 ADD SLOAD PUSH1 0x13 PUSH1 0x0 DUP3 DUP3 SLOAD SUB SWAP3 POP POP DUP2 SWAP1 SSTORE POP PUSH2 0x2C7C JUMP JUMPDEST PUSH1 0x0 PUSH1 0x13 DUP2 SWAP1 SSTORE POP JUMPDEST DUP2 PUSH1 0x4 ADD SLOAD DUP3 PUSH1 0x3 ADD SLOAD EQ ISZERO PUSH2 0x2CF8 JUMPI DUP2 PUSH1 0x1 ADD PUSH1 0x0 SWAP1 SLOAD SWAP1 PUSH2 0x100 EXP SWAP1 DIV PUSH20 0xFFFFFFFFFFFFFFFFFFFFFFFFFFFFFFFFFFFFFFFF AND PUSH20 0xFFFFFFFFFFFFFFFFFFFFFFFFFFFFFFFFFFFFFFFF AND PUSH2 0x8FC DUP3 SWAP1 DUP2 ISZERO MUL SWAP1 PUSH1 0x40 MLOAD PUSH1 0x0 PUSH1 0x40 MLOAD DUP1 DUP4 SUB DUP2 DUP6 DUP9 DUP9 CALL SWAP4 POP POP POP POP ISZERO DUP1 ISZERO PUSH2 0x2CF6 JUMPI RETURNDATASIZE PUSH1 0x0 DUP1 RETURNDATACOPY RETURNDATASIZE PUSH1 0x0 REVERT JUMPDEST POP JUMPDEST POP JUMPDEST PUSH1 0x1 PUSH1 0x6 DUP2 SWAP1 SSTORE POP PUSH1 0x1 PUSH1 0x7 DUP2 SWAP1 SSTORE POP PUSH1 0x1 PUSH1 0x8 DUP2 SWAP1 SSTORE POP PUSH1 0x1 PUSH1 0x9 DUP2 SWAP1 SSTORE POP PUSH1 0x1 PUSH1 0xA DUP2 SWAP1 SSTORE POP PUSH1 0x1 PUSH1 0xB DUP2 SWAP1 SSTORE POP PUSH1 0x1 PUSH1 0xC DUP2 SWAP1 SSTORE POP PUSH1 0x1 PUSH1 0xD DUP2 SWAP1 SSTORE POP PUSH1 0x1 PUSH1 0xE DUP2 SWAP1 SSTORE POP PUSH1 0x1 PUSH1 0xF DUP2 SWAP1 SSTORE POP POP POP POP JUMP JUMPDEST PUSH2 0x2D65 PUSH1 0x1 PUSH1 0x14 SLOAD PUSH2 0x2859 SWAP1 SWAP2 SWAP1 PUSH4 0xFFFFFFFF AND JUMP JUMPDEST PUSH1 0x14 DUP2 SWAP1 SSTORE POP PUSH2 0x2D73 PUSH2 0x31D0 JUMP JUMPDEST PUSH1 0x40 MLOAD DUP1 PUSH1 0xC0 ADD PUSH1 0x40 MSTORE DUP1 PUSH1 0x14 SLOAD DUP2 MSTORE PUSH1 0x20 ADD DUP6 PUSH20 0xFFFFFFFFFFFFFFFFFFFFFFFFFFFFFFFFFFFFFFFF AND DUP2 MSTORE PUSH1 0x20 ADD DUP5 DUP2 MSTORE PUSH1 0x20 ADD DUP4 DUP2 MSTORE PUSH1 0x20 ADD PUSH2 0x2DC4 PUSH1 0xA PUSH1 0x10 SLOAD PUSH2 0x2859 SWAP1 SWAP2 SWAP1 PUSH4 0xFFFFFFFF AND JUMP JUMPDEST DUP2 MSTORE PUSH1 0x20 ADD PUSH1 0x0 ISZERO ISZERO DUP2 MSTORE POP SWAP1 POP DUP1 PUSH1 0x17 PUSH1 0x0 DUP4 PUSH1 0x0 ADD MLOAD DUP2 MSTORE PUSH1 0x20 ADD SWAP1 DUP2 MSTORE PUSH1 0x20 ADD PUSH1 0x0 KECCAK256 PUSH1 0x0 DUP3 ADD MLOAD DUP2 PUSH1 0x0 ADD SSTORE PUSH1 0x20 DUP3 ADD MLOAD DUP2 PUSH1 0x1 ADD PUSH1 0x0 PUSH2 0x100 EXP DUP2 SLOAD DUP2 PUSH20 0xFFFFFFFFFFFFFFFFFFFFFFFFFFFFFFFFFFFFFFFF MUL NOT AND SWAP1 DUP4 PUSH20 0xFFFFFFFFFFFFFFFFFFFFFFFFFFFFFFFFFFFFFFFF AND MUL OR SWAP1 SSTORE POP PUSH1 0x40 DUP3 ADD MLOAD DUP2 PUSH1 0x2 ADD SSTORE PUSH1 0x60 DUP3 ADD MLOAD DUP2 PUSH1 0x3 ADD SSTORE PUSH1 0x80 DUP3 ADD MLOAD DUP2 PUSH1 0x4 ADD SSTORE PUSH1 0xA0 DUP3 ADD MLOAD DUP2 PUSH1 0x5 ADD PUSH1 0x0 PUSH2 0x100 EXP DUP2 SLOAD DUP2 PUSH1 0xFF MUL NOT AND SWAP1 DUP4 ISZERO ISZERO MUL OR SWAP1 SSTORE POP SWAP1 POP POP POP POP POP POP JUMP JUMPDEST PUSH1 0x0 DUP1 PUSH1 0x0 SWAP1 SLOAD SWAP1 PUSH2 0x100 EXP SWAP1 DIV PUSH20 0xFFFFFFFFFFFFFFFFFFFFFFFFFFFFFFFFFFFFFFFF AND PUSH20 0xFFFFFFFFFFFFFFFFFFFFFFFFFFFFFFFFFFFFFFFF AND PUSH4 0x4000AEA0 PUSH1 0x1 PUSH1 0x0 SWAP1 SLOAD SWAP1 PUSH2 0x100 EXP SWAP1 DIV PUSH20 0xFFFFFFFFFFFFFFFFFFFFFFFFFFFFFFFFFFFFFFFF AND DUP6 DUP8 DUP7 PUSH1 0x40 MLOAD PUSH1 0x20 ADD DUP1 DUP4 DUP2 MSTORE PUSH1 0x20 ADD DUP3 DUP2 MSTORE PUSH1 0x20 ADD SWAP3 POP POP POP PUSH1 0x40 MLOAD PUSH1 0x20 DUP2 DUP4 SUB SUB DUP2 MSTORE SWAP1 PUSH1 0x40 MSTORE PUSH1 0x40 MLOAD DUP5 PUSH4 0xFFFFFFFF AND PUSH1 0xE0 SHL DUP2 MSTORE PUSH1 0x4 ADD DUP1 DUP5 PUSH20 0xFFFFFFFFFFFFFFFFFFFFFFFFFFFFFFFFFFFFFFFF AND PUSH20 0xFFFFFFFFFFFFFFFFFFFFFFFFFFFFFFFFFFFFFFFF AND DUP2 MSTORE PUSH1 0x20 ADD DUP4 DUP2 MSTORE PUSH1 0x20 ADD DUP1 PUSH1 0x20 ADD DUP3 DUP2 SUB DUP3 MSTORE DUP4 DUP2 DUP2 MLOAD DUP2 MSTORE PUSH1 0x20 ADD SWAP2 POP DUP1 MLOAD SWAP1 PUSH1 0x20 ADD SWAP1 DUP1 DUP4 DUP4 PUSH1 0x0 JUMPDEST DUP4 DUP2 LT ISZERO PUSH2 0x2F94 JUMPI DUP1 DUP3 ADD MLOAD DUP2 DUP5 ADD MSTORE PUSH1 0x20 DUP2 ADD SWAP1 POP PUSH2 0x2F79 JUMP JUMPDEST POP POP POP POP SWAP1 POP SWAP1 DUP2 ADD SWAP1 PUSH1 0x1F AND DUP1 ISZERO PUSH2 0x2FC1 JUMPI DUP1 DUP3 SUB DUP1 MLOAD PUSH1 0x1 DUP4 PUSH1 0x20 SUB PUSH2 0x100 EXP SUB NOT AND DUP2 MSTORE PUSH1 0x20 ADD SWAP2 POP JUMPDEST POP SWAP5 POP POP POP POP POP PUSH1 0x20 PUSH1 0x40 MLOAD DUP1 DUP4 SUB DUP2 PUSH1 0x0 DUP8 DUP1 EXTCODESIZE ISZERO DUP1 ISZERO PUSH2 0x2FE2 JUMPI PUSH1 0x0 DUP1 REVERT JUMPDEST POP GAS CALL ISZERO DUP1 ISZERO PUSH2 0x2FF6 JUMPI RETURNDATASIZE PUSH1 0x0 DUP1 RETURNDATACOPY RETURNDATASIZE PUSH1 0x0 REVERT JUMPDEST POP POP POP POP PUSH1 0x40 MLOAD RETURNDATASIZE PUSH1 0x20 DUP2 LT ISZERO PUSH2 0x300C JUMPI PUSH1 0x0 DUP1 REVERT JUMPDEST DUP2 ADD SWAP1 DUP1 DUP1 MLOAD SWAP1 PUSH1 0x20 ADD SWAP1 SWAP3 SWAP2 SWAP1 POP POP POP POP PUSH1 0x0 PUSH2 0x303F DUP6 DUP5 ADDRESS PUSH1 0x2 PUSH1 0x0 DUP11 DUP2 MSTORE PUSH1 0x20 ADD SWAP1 DUP2 MSTORE PUSH1 0x20 ADD PUSH1 0x0 KECCAK256 SLOAD PUSH2 0x311D JUMP JUMPDEST SWAP1 POP PUSH2 0x3068 PUSH1 0x1 PUSH1 0x2 PUSH1 0x0 DUP9 DUP2 MSTORE PUSH1 0x20 ADD SWAP1 DUP2 MSTORE PUSH1 0x20 ADD PUSH1 0x0 KECCAK256 SLOAD PUSH2 0x2859 SWAP1 SWAP2 SWAP1 PUSH4 0xFFFFFFFF AND JUMP JUMPDEST PUSH1 0x2 PUSH1 0x0 DUP8 DUP2 MSTORE PUSH1 0x20 ADD SWAP1 DUP2 MSTORE PUSH1 0x20 ADD PUSH1 0x0 KECCAK256 DUP2 SWAP1 SSTORE POP PUSH2 0x3089 DUP6 DUP3 PUSH2 0x3197 JUMP JUMPDEST SWAP2 POP POP SWAP4 SWAP3 POP POP POP JUMP JUMPDEST PUSH1 0x0 DUP1 DUP3 EQ ISZERO PUSH2 0x310B JUMPI PUSH1 0x40 MLOAD PUSH32 0x8C379A000000000000000000000000000000000000000000000000000000000 DUP2 MSTORE PUSH1 0x4 ADD DUP1 DUP1 PUSH1 0x20 ADD DUP3 DUP2 SUB DUP3 MSTORE PUSH1 0x18 DUP2 MSTORE PUSH1 0x20 ADD DUP1 PUSH32 0x536166654D6174683A206D6F64756C6F206279207A65726F0000000000000000 DUP2 MSTORE POP PUSH1 0x20 ADD SWAP2 POP POP PUSH1 0x40 MLOAD DUP1 SWAP2 SUB SWAP1 REVERT JUMPDEST DUP2 DUP4 DUP2 PUSH2 0x3114 JUMPI INVALID JUMPDEST MOD SWAP1 POP SWAP3 SWAP2 POP POP JUMP JUMPDEST PUSH1 0x0 DUP5 DUP5 DUP5 DUP5 PUSH1 0x40 MLOAD PUSH1 0x20 ADD DUP1 DUP6 DUP2 MSTORE PUSH1 0x20 ADD DUP5 DUP2 MSTORE PUSH1 0x20 ADD DUP4 PUSH20 0xFFFFFFFFFFFFFFFFFFFFFFFFFFFFFFFFFFFFFFFF AND PUSH20 0xFFFFFFFFFFFFFFFFFFFFFFFFFFFFFFFFFFFFFFFF AND DUP2 MSTORE PUSH1 0x20 ADD DUP3 DUP2 MSTORE PUSH1 0x20 ADD SWAP5 POP POP POP POP POP PUSH1 0x40 MLOAD PUSH1 0x20 DUP2 DUP4 SUB SUB DUP2 MSTORE SWAP1 PUSH1 0x40 MSTORE DUP1 MLOAD SWAP1 PUSH1 0x20 ADD KECCAK256 PUSH1 0x0 SHR SWAP1 POP SWAP5 SWAP4 POP POP POP POP JUMP JUMPDEST PUSH1 0x0 DUP3 DUP3 PUSH1 0x40 MLOAD PUSH1 0x20 ADD DUP1 DUP4 DUP2 MSTORE PUSH1 0x20 ADD DUP3 DUP2 MSTORE PUSH1 0x20 ADD SWAP3 POP POP POP PUSH1 0x40 MLOAD PUSH1 0x20 DUP2 DUP4 SUB SUB DUP2 MSTORE SWAP1 PUSH1 0x40 MSTORE DUP1 MLOAD SWAP1 PUSH1 0x20 ADD KECCAK256 SWAP1 POP SWAP3 SWAP2 POP POP JUMP JUMPDEST PUSH1 0x40 MLOAD DUP1 PUSH1 0xC0 ADD PUSH1 0x40 MSTORE DUP1 PUSH1 0x0 DUP2 MSTORE PUSH1 0x20 ADD PUSH1 0x0 PUSH20 0xFFFFFFFFFFFFFFFFFFFFFFFFFFFFFFFFFFFFFFFF AND DUP2 MSTORE PUSH1 0x20 ADD PUSH1 0x0 DUP2 MSTORE PUSH1 0x20 ADD PUSH1 0x0 DUP2 MSTORE PUSH1 0x20 ADD PUSH1 0x0 DUP2 MSTORE PUSH1 0x20 ADD PUSH1 0x0 ISZERO ISZERO DUP2 MSTORE POP SWAP1 JUMP INVALID POP PUSH10 0x636B20697320746F6F20 PUSH9 0x6967682E2043686F6F PUSH20 0x652061206C6F776572206E756D6265722E4F776E PUSH2 0x626C PUSH6 0x3A206E657720 PUSH16 0x776E657220697320746865207A65726F KECCAK256 PUSH2 0x6464 PUSH19 0x657373436F6E74726163742068617320696E73 PUSH22 0x66666963696E742066756E647320746F207061796F75 PUSH21 0x20706F737369626C652077696E2E536166654D6174 PUSH9 0x3A206D756C7469706C PUSH10 0x636174696F6E206F7665 PUSH19 0x666C6F77436F6E74726163742062616C616E63 PUSH6 0x20746F6F206C PUSH16 0x772E20506C6561736520747279206167 PUSH2 0x696E KECCAK256 PUSH13 0x617465722E47616D6520616C72 PUSH6 0x61647920636F PUSH14 0x706C6574652E204E6F2072656675 PUSH15 0x6420706F737369626C652E556E6162 PUSH13 0x6520746F207061792E20506C65 PUSH2 0x7365 KECCAK256 PUSH17 0x6C617920616761696E206F722072657175 PUSH6 0x737420726566 PUSH22 0x6E642EA26469706673582212208DCEDD1879CD806549 0xAB LOG4 PUSH23 0x3129DD8DAD8D1715EA4C9CBA75015D4099BEE3C964736F PUSH13 0x63430006000033A26469706673 PC 0x22 SLT KECCAK256 0xEC PUSH32 0x25F188FD38A3ABC836006B50EAAD37877BD7AE6335AC61F2B5929C1BE5BF6473 PUSH16 0x6C634300060000330000000000000000 "},"gasEstimates":{"creation":{"codeDepositCost":"3003800","executionCost":"3302","totalCost":"3007102"},"external":{"createMachine(uint256,uint256,uint256,uint256)":"infinite","getMachines()":"infinite","machines(uint256)":"2017"}},"methodIdentifiers":{"createMachine(uint256,uint256,uint256,uint256)":"06373b9a","getMachines()":"52b07b34","machines(uint256)":"4d42845c"}},"storageLayout":{"storage":[{"astId":1619,"contract":"AllContracts.sol:LuckyMachineFactory","label":"machines","offset":0,"slot":"0","type":"t_array(t_address)dyn_storage"}],"types":{"t_address":{"encoding":"inplace","label":"address","numberOfBytes":"20"},"t_array(t_address)dyn_storage":{"base":"t_address","encoding":"dynamic_array","label":"address[]","numberOfBytes":"32"}}},"userdoc":{"methods":{}}}