{"abi":[{"inputs":[{"internalType":"address payable","name":"_payoutAddress","type":"address"},{"internalType":"uint256","name":"_maxBet","type":"uint256"},{"internalType":"uint256","name":"_minBet","type":"uint256"},{"internalType":"uint256","name":"_maxPick","type":"uint256"},{"internalType":"uint256","name":"_payout","type":"uint256"}],"stateMutability":"nonpayable","type":"constructor"},{"anonymous":false,"inputs":[{"indexed":false,"internalType":"address","name":"_player","type":"address"},{"indexed":false,"internalType":"uint256","name":"_bet","type":"uint256"},{"indexed":false,"internalType":"uint256","name":"_pick","type":"uint256"},{"indexed":false,"internalType":"uint256","name":"_winner","type":"uint256"},{"indexed":false,"internalType":"uint256","name":"_payout","type":"uint256"}],"name":"GamePlayed","type":"event"},{"anonymous":false,"inputs":[{"indexed":true,"internalType":"address","name":"previousOwner","type":"address"},{"indexed":true,"internalType":"address","name":"newOwner","type":"address"}],"name":"OwnershipTransferred","type":"event"},{"inputs":[{"internalType":"address[]","name":"userAddresses","type":"address[]"},{"internalType":"bool","name":"allowed","type":"bool"}],"name":"allowGasFreeBet","outputs":[],"stateMutability":"nonpayable","type":"function"},{"inputs":[{"internalType":"address","name":"","type":"address"}],"name":"authorizedAddress","outputs":[{"internalType":"bool","name":"","type":"bool"}],"stateMutability":"view","type":"function"},{"inputs":[{"internalType":"uint256","name":"bet","type":"uint256"}],"name":"betPayable","outputs":[{"internalType":"bool","name":"","type":"bool"}],"stateMutability":"view","type":"function"},{"inputs":[],"name":"closeMachine","outputs":[],"stateMutability":"nonpayable","type":"function"},{"inputs":[{"internalType":"uint256","name":"","type":"uint256"}],"name":"games","outputs":[{"internalType":"uint256","name":"id","type":"uint256"},{"internalType":"address payable","name":"player","type":"address"},{"internalType":"uint256","name":"bet","type":"uint256"},{"internalType":"uint256","name":"pick","type":"uint256"},{"internalType":"uint256","name":"winner","type":"uint256"},{"internalType":"bool","name":"played","type":"bool"}],"stateMutability":"view","type":"function"},{"inputs":[{"internalType":"address","name":"","type":"address"}],"name":"gasFreeBetAllowed","outputs":[{"internalType":"bool","name":"","type":"bool"}],"stateMutability":"view","type":"function"},{"inputs":[],"name":"getLinkBalance","outputs":[{"internalType":"uint256","name":"","type":"uint256"}],"stateMutability":"view","type":"function"},{"inputs":[],"name":"getSummary","outputs":[{"internalType":"uint256","name":"","type":"uint256"},{"internalType":"uint256","name":"","type":"uint256"},{"internalType":"uint256","name":"","type":"uint256"},{"internalType":"uint256","name":"","type":"uint256"}],"stateMutability":"view","type":"function"},{"inputs":[{"internalType":"address","name":"","type":"address"}],"name":"lastGameCreated","outputs":[{"internalType":"uint256","name":"","type":"uint256"}],"stateMutability":"view","type":"function"},{"inputs":[],"name":"maxBet","outputs":[{"internalType":"uint256","name":"","type":"uint256"}],"stateMutability":"view","type":"function"},{"inputs":[],"name":"maxPick","outputs":[{"internalType":"uint256","name":"","type":"uint256"}],"stateMutability":"view","type":"function"},{"inputs":[],"name":"minBet","outputs":[{"internalType":"uint256","name":"","type":"uint256"}],"stateMutability":"view","type":"function"},{"inputs":[{"internalType":"bytes32","name":"","type":"bytes32"}],"name":"nonces","outputs":[{"internalType":"uint256","name":"","type":"uint256"}],"stateMutability":"view","type":"function"},{"inputs":[],"name":"owner","outputs":[{"internalType":"address","name":"","type":"address"}],"stateMutability":"view","type":"function"},{"inputs":[],"name":"payout","outputs":[{"internalType":"uint256","name":"","type":"uint256"}],"stateMutability":"view","type":"function"},{"inputs":[],"name":"payoutAddress","outputs":[{"internalType":"address payable","name":"","type":"address"}],"stateMutability":"view","type":"function"},{"inputs":[{"internalType":"address payable","name":"player","type":"address"},{"internalType":"uint256","name":"pick","type":"uint256"}],"name":"placeBetFor","outputs":[],"stateMutability":"payable","type":"function"},{"inputs":[{"internalType":"bytes32","name":"requestId","type":"bytes32"},{"internalType":"uint256","name":"randomness","type":"uint256"}],"name":"rawFulfillRandomness","outputs":[],"stateMutability":"nonpayable","type":"function"},{"inputs":[],"name":"renounceOwnership","outputs":[],"stateMutability":"nonpayable","type":"function"},{"inputs":[{"internalType":"uint256","name":"gameID","type":"uint256"}],"name":"replayGame","outputs":[],"stateMutability":"nonpayable","type":"function"},{"inputs":[{"internalType":"uint256","name":"gameID","type":"uint256"}],"name":"requestRefund","outputs":[],"stateMutability":"nonpayable","type":"function"},{"inputs":[{"internalType":"address payable","name":"player","type":"address"},{"internalType":"uint256","name":"pick","type":"uint256"}],"name":"safeBetFor","outputs":[],"stateMutability":"payable","type":"function"},{"inputs":[{"internalType":"address","name":"userAddress","type":"address"},{"internalType":"bool","name":"authorized","type":"bool"}],"name":"setAuthorizedUser","outputs":[],"stateMutability":"nonpayable","type":"function"},{"inputs":[{"internalType":"bytes32","name":"_keyHash","type":"bytes32"}],"name":"setKeyHash","outputs":[],"stateMutability":"nonpayable","type":"function"},{"inputs":[{"internalType":"address","name":"_linkAddress","type":"address"}],"name":"setLINK","outputs":[],"stateMutability":"nonpayable","type":"function"},{"inputs":[{"internalType":"address payable","name":"_payoutAddress","type":"address"}],"name":"setPayoutAddress","outputs":[],"stateMutability":"nonpayable","type":"function"},{"inputs":[{"internalType":"address","name":"_vrfCoordinator","type":"address"}],"name":"setVRFCoordinator","outputs":[],"stateMutability":"nonpayable","type":"function"},{"inputs":[{"internalType":"address","name":"newOwner","type":"address"}],"name":"transferOwnership","outputs":[],"stateMutability":"nonpayable","type":"function"},{"inputs":[{"internalType":"uint256","name":"amount","type":"uint256"}],"name":"withdrawEth","outputs":[],"stateMutability":"nonpayable","type":"function"},{"inputs":[{"internalType":"uint256","name":"amount","type":"uint256"}],"name":"withdrawLink","outputs":[],"stateMutability":"nonpayable","type":"function"},{"stateMutability":"payable","type":"receive"}],"devdoc":{"methods":{"allowGasFreeBet(address[],bool)":{"details":"Set group of addresses to be eligible for gas free bets. Note: currently gasFreeBetFor() not enabled, however this value could be checked by operator and bets placed on behalf of user, thereby covring the gas costs."},"betPayable(uint256)":{"details":"Returns whether a winning bet can by paid out by machine. Balance of machine must be at least value of bet + (value of bet * payout)."},"closeMachine()":{"details":"Withdraws all available funds from the machine, leaving behind only _unplayedBets, which must remain for any refund requests. This does not do anything to halt operations other than removing funding, which automatically disallows play. If machine is re-funded, play may continue."},"getSummary()":{"details":"Returns summary of machine requirements for play and payout multiplier."},"owner()":{"details":"Returns the address of the current owner."},"placeBetFor(address,uint256)":{"details":"Returns Game ID, which can be queried for status of game using games('gameID'). This will fail if machine conditions are not met. Use safeBetFor() if all conditions have not been pre-verified."},"renounceOwnership()":{"details":"Leaves the contract without owner. It will not be possible to call `onlyOwner` functions anymore. Can only be called by the current owner.     * NOTE: Renouncing ownership will leave the contract without an owner, thereby removing any functionality that is only available to the owner."},"replayGame(uint256)":{"details":"Option to replay any games that may have been created, but unable to complete initial play for some reason. Unplayed games may be refunded or replayed until the number has been generated and game is marked as played."},"requestRefund(uint256)":{"details":"Request a refund for an unplayed game. If game is created, but machine conditions are not appropriate to allow play, no number will be generated and player or authorized address can request refund. Regardless of who requests refund, payout will always be to player listed in game."},"safeBetFor(address,uint256)":{"details":"Returns Game ID, which can be queried for status of game using games('gameID'). Places bet after ensuring all conditions are met (bet within minimum - maximum range, maximum pick not exceeded, winning bet is payable)."},"setAuthorizedUser(address,bool)":{"details":"Add any address as authorized user. Can be used to whitelist other contracts that may want to interact with authorized functions."},"setKeyHash(bytes32)":{"details":"Can update keyHash if access to node is compromised. This should not be updated unless you are sure what you are doing."},"setLINK(address)":{"details":"Can update LINK address if necessary. Should not have to call this, but here in case testnet address is set or token address updated for any reason."},"setPayoutAddress(address)":{"details":"Updates the address to which all withdrawals of ETH & LINK will be sent. If machine is closed (all funds withdrawn), this address receives all available funds."},"setVRFCoordinator(address)":{"details":"Can update vrfCoordinator if access to node is compromised. This should not be updated unless you are sure what you are doing."},"transferOwnership(address)":{"details":"Transfers ownership of the contract to a new account (`newOwner`). Can only be called by the current owner."},"withdrawEth(uint256)":{"details":"Withdraw specified amount of ETH from machine. Amount must be less than any unplayed bets in machine to allow for refunds."},"withdrawLink(uint256)":{"details":"Withdraw specified amount of LINK from machine."}}},"evm":{"assembly":"    /* \"AllContracts.sol\":5733:19042  contract LuckyMachine is VRFConsumerBase, Ownable {... */\n  mstore(0x40, 0x80)\n    /* \"AllContracts.sol\":6908:7838  constructor(address payable _payoutAddress, uint _maxBet, uint _minBet, uint _maxPick, uint _payout)... */\n  callvalue\n    /* \"--CODEGEN--\":8:17   */\n  dup1\n    /* \"--CODEGEN--\":5:7   */\n  iszero\n  tag_1\n  jumpi\n    /* \"--CODEGEN--\":30:31   */\n  0x00\n    /* \"--CODEGEN--\":27:28   */\n  dup1\n    /* \"--CODEGEN--\":20:32   */\n  revert\n    /* \"--CODEGEN--\":5:7   */\ntag_1:\n    /* \"AllContracts.sol\":6908:7838  constructor(address payable _payoutAddress, uint _maxBet, uint _minBet, uint _maxPick, uint _payout)... */\n  pop\n  mload(0x40)\n  sub(codesize, bytecodeSize)\n  dup1\n  bytecodeSize\n  dup4\n  codecopy\n  dup2\n  dup2\n  add\n  0x40\n  mstore\n    /* \"--CODEGEN--\":13:16   */\n  0xa0\n    /* \"--CODEGEN--\":8:11   */\n  dup2\n    /* \"--CODEGEN--\":5:17   */\n  lt\n    /* \"--CODEGEN--\":2:4   */\n  iszero\n  tag_2\n  jumpi\n    /* \"--CODEGEN--\":30:31   */\n  0x00\n    /* \"--CODEGEN--\":27:28   */\n  dup1\n    /* \"--CODEGEN--\":20:32   */\n  revert\n    /* \"--CODEGEN--\":2:4   */\ntag_2:\n    /* \"AllContracts.sol\":6908:7838  constructor(address payable _payoutAddress, uint _maxBet, uint _minBet, uint _maxPick, uint _payout)... */\n  dup2\n  add\n  swap1\n  dup1\n  dup1\n  mload\n  swap1\n  0x20\n  add\n  swap1\n  swap3\n  swap2\n  swap1\n  dup1\n  mload\n  swap1\n  0x20\n  add\n  swap1\n  swap3\n  swap2\n  swap1\n  dup1\n  mload\n  swap1\n  0x20\n  add\n  swap1\n  swap3\n  swap2\n  swap1\n  dup1\n  mload\n  swap1\n  0x20\n  add\n  swap1\n  swap3\n  swap2\n  swap1\n  dup1\n  mload\n  swap1\n  0x20\n  add\n  swap1\n  swap3\n  swap2\n  swap1\n  pop\n  pop\n  pop\n    /* \"AllContracts.sol\":7072:7114  0xdD3782915140c8f3b190B5D67eAc6dc5760C46E9 */\n  0xdd3782915140c8f3b190b5d67eac6dc5760c46e9\n    /* \"AllContracts.sol\":7147:7189  0xa36085F69e2889c224210F603D836748e7dC0088 */\n  0xa36085f69e2889c224210f603d836748e7dc0088\n    /* \"AllContracts.sol\":5460:5475  _vrfCoordinator */\n  dup2\n    /* \"AllContracts.sol\":5443:5457  vrfCoordinator */\n  0x01\n  0x00\n    /* \"AllContracts.sol\":5443:5475  vrfCoordinator = _vrfCoordinator */\n  0x0100\n  exp\n  dup2\n  sload\n  dup2\n  0xffffffffffffffffffffffffffffffffffffffff\n  mul\n  not\n  and\n  swap1\n  dup4\n  0xffffffffffffffffffffffffffffffffffffffff\n  and\n  mul\n  or\n  swap1\n  sstore\n  pop\n    /* \"AllContracts.sol\":5507:5512  _link */\n  dup1\n    /* \"AllContracts.sol\":5481:5485  LINK */\n  0x00\n  dup1\n    /* \"AllContracts.sol\":5481:5513  LINK = LinkTokenInterface(_link) */\n  0x0100\n  exp\n  dup2\n  sload\n  dup2\n  0xffffffffffffffffffffffffffffffffffffffff\n  mul\n  not\n  and\n  swap1\n  dup4\n  0xffffffffffffffffffffffffffffffffffffffff\n  and\n  mul\n  or\n  swap1\n  sstore\n  pop\n    /* \"AllContracts.sol\":5378:5518  constructor(address _vrfCoordinator, address _link) public {... */\n  pop\n  pop\n    /* \"AllContracts.sol\":726:743  address msgSender */\n  0x00\n    /* \"AllContracts.sol\":746:758  _msgSender() */\n  tag_8\n    /* \"AllContracts.sol\":746:756  _msgSender */\n  shl(0x20, tag_9)\n    /* \"AllContracts.sol\":746:758  _msgSender() */\n  0x20\n  shr\n  jump\t// in\ntag_8:\n    /* \"AllContracts.sol\":726:758  address msgSender = _msgSender() */\n  swap1\n  pop\n    /* \"AllContracts.sol\":777:786  msgSender */\n  dup1\n    /* \"AllContracts.sol\":768:774  _owner */\n  0x03\n  0x00\n    /* \"AllContracts.sol\":768:786  _owner = msgSender */\n  0x0100\n  exp\n  dup2\n  sload\n  dup2\n  0xffffffffffffffffffffffffffffffffffffffff\n  mul\n  not\n  and\n  swap1\n  dup4\n  0xffffffffffffffffffffffffffffffffffffffff\n  and\n  mul\n  or\n  swap1\n  sstore\n  pop\n    /* \"AllContracts.sol\":834:843  msgSender */\n  dup1\n    /* \"AllContracts.sol\":801:844  OwnershipTransferred(address(0), msgSender) */\n  0xffffffffffffffffffffffffffffffffffffffff\n  and\n    /* \"AllContracts.sol\":830:831  0 */\n  0x00\n    /* \"AllContracts.sol\":801:844  OwnershipTransferred(address(0), msgSender) */\n  0xffffffffffffffffffffffffffffffffffffffff\n  and\n  0x8be0079c531659141344cd1fd0a4f28419497f9722a3daafe3b4186f6b6457e0\n  mload(0x40)\n  mload(0x40)\n  dup1\n  swap2\n  sub\n  swap1\n  log3\n    /* \"AllContracts.sol\":692:851  constructor () internal {... */\n  pop\n    /* \"AllContracts.sol\":7246:7312  0x6c3699283bda56ad74f6b855546325b68d482e983852a7a82979cc4807b641f4 */\n  0x6c3699283bda56ad74f6b855546325b68d482e983852a7a82979cc4807b641f4\n    /* \"AllContracts.sol\":7236:7312  keyHash = 0x6c3699283bda56ad74f6b855546325b68d482e983852a7a82979cc4807b641f4 */\n  0x00\n  shl\n    /* \"AllContracts.sol\":7236:7243  keyHash */\n  0x04\n    /* \"AllContracts.sol\":7236:7312  keyHash = 0x6c3699283bda56ad74f6b855546325b68d482e983852a7a82979cc4807b641f4 */\n  dup2\n  swap1\n  sstore\n  pop\n    /* \"AllContracts.sol\":7332:7346  0.1 * 10 ** 18 */\n  0x016345785d8a0000\n    /* \"AllContracts.sol\":7326:7329  fee */\n  0x05\n    /* \"AllContracts.sol\":7326:7346  fee = 0.1 * 10 ** 18 */\n  dup2\n  swap1\n  sstore\n  pop\n    /* \"AllContracts.sol\":7388:7389  1 */\n  0x01\n    /* \"AllContracts.sol\":7373:7385  _currentGame */\n  0x15\n    /* \"AllContracts.sol\":7373:7389  _currentGame = 1 */\n  dup2\n  swap1\n  sstore\n  pop\n    /* \"AllContracts.sol\":7419:7420  0 */\n  0x00\n    /* \"AllContracts.sol\":7403:7416  _unplayedBets */\n  0x14\n    /* \"AllContracts.sol\":7403:7420  _unplayedBets = 0 */\n  dup2\n  swap1\n  sstore\n  pop\n    /* \"AllContracts.sol\":7450:7464  _payoutAddress */\n  dup5\n    /* \"AllContracts.sol\":7434:7447  payoutAddress */\n  0x16\n  0x00\n    /* \"AllContracts.sol\":7434:7464  payoutAddress = _payoutAddress */\n  0x0100\n  exp\n  dup2\n  sload\n  dup2\n  0xffffffffffffffffffffffffffffffffffffffff\n  mul\n  not\n  and\n  swap1\n  dup4\n  0xffffffffffffffffffffffffffffffffffffffff\n  and\n  mul\n  or\n  swap1\n  sstore\n  pop\n    /* \"AllContracts.sol\":7487:7494  _minBet */\n  dup3\n    /* \"AllContracts.sol\":7478:7484  minBet */\n  0x13\n    /* \"AllContracts.sol\":7478:7494  minBet = _minBet */\n  dup2\n  swap1\n  sstore\n  pop\n    /* \"AllContracts.sol\":7517:7524  _maxBet */\n  dup4\n    /* \"AllContracts.sol\":7508:7514  maxBet */\n  0x12\n    /* \"AllContracts.sol\":7508:7524  maxBet = _maxBet */\n  dup2\n  swap1\n  sstore\n  pop\n    /* \"AllContracts.sol\":7548:7556  _maxPick */\n  dup2\n    /* \"AllContracts.sol\":7538:7545  maxPick */\n  0x11\n    /* \"AllContracts.sol\":7538:7556  maxPick = _maxPick */\n  dup2\n  swap1\n  sstore\n  pop\n    /* \"AllContracts.sol\":7579:7586  _payout */\n  dup1\n    /* \"AllContracts.sol\":7570:7576  payout */\n  0x17\n    /* \"AllContracts.sol\":7570:7586  payout = _payout */\n  dup2\n  swap1\n  sstore\n  pop\n    /* \"AllContracts.sol\":7608:7609  1 */\n  0x01\n    /* \"AllContracts.sol\":7601:7605  gas1 */\n  0x06\n    /* \"AllContracts.sol\":7601:7609  gas1 = 1 */\n  dup2\n  swap1\n  sstore\n  pop\n    /* \"AllContracts.sol\":7630:7631  1 */\n  0x01\n    /* \"AllContracts.sol\":7623:7627  gas2 */\n  0x07\n    /* \"AllContracts.sol\":7623:7631  gas2 = 1 */\n  dup2\n  swap1\n  sstore\n  pop\n    /* \"AllContracts.sol\":7652:7653  1 */\n  0x01\n    /* \"AllContracts.sol\":7645:7649  gas3 */\n  0x08\n    /* \"AllContracts.sol\":7645:7653  gas3 = 1 */\n  dup2\n  swap1\n  sstore\n  pop\n    /* \"AllContracts.sol\":7674:7675  1 */\n  0x01\n    /* \"AllContracts.sol\":7667:7671  gas4 */\n  0x09\n    /* \"AllContracts.sol\":7667:7675  gas4 = 1 */\n  dup2\n  swap1\n  sstore\n  pop\n    /* \"AllContracts.sol\":7696:7697  1 */\n  0x01\n    /* \"AllContracts.sol\":7689:7693  gas5 */\n  0x0a\n    /* \"AllContracts.sol\":7689:7697  gas5 = 1 */\n  dup2\n  swap1\n  sstore\n  pop\n    /* \"AllContracts.sol\":7718:7719  1 */\n  0x01\n    /* \"AllContracts.sol\":7711:7715  gas6 */\n  0x0b\n    /* \"AllContracts.sol\":7711:7719  gas6 = 1 */\n  dup2\n  swap1\n  sstore\n  pop\n    /* \"AllContracts.sol\":7740:7741  1 */\n  0x01\n    /* \"AllContracts.sol\":7733:7737  gas7 */\n  0x0c\n    /* \"AllContracts.sol\":7733:7741  gas7 = 1 */\n  dup2\n  swap1\n  sstore\n  pop\n    /* \"AllContracts.sol\":7762:7763  1 */\n  0x01\n    /* \"AllContracts.sol\":7755:7759  gas8 */\n  0x0d\n    /* \"AllContracts.sol\":7755:7763  gas8 = 1 */\n  dup2\n  swap1\n  sstore\n  pop\n    /* \"AllContracts.sol\":7784:7785  1 */\n  0x01\n    /* \"AllContracts.sol\":7777:7781  gas9 */\n  0x0e\n    /* \"AllContracts.sol\":7777:7785  gas9 = 1 */\n  dup2\n  swap1\n  sstore\n  pop\n    /* \"AllContracts.sol\":7807:7808  1 */\n  0x01\n    /* \"AllContracts.sol\":7799:7804  gas10 */\n  0x0f\n    /* \"AllContracts.sol\":7799:7808  gas10 = 1 */\n  dup2\n  swap1\n  sstore\n  pop\n    /* \"AllContracts.sol\":7830:7831  1 */\n  0x01\n    /* \"AllContracts.sol\":7822:7827  gas11 */\n  0x10\n    /* \"AllContracts.sol\":7822:7831  gas11 = 1 */\n  dup2\n  swap1\n  sstore\n  pop\n    /* \"AllContracts.sol\":6908:7838  constructor(address payable _payoutAddress, uint _maxBet, uint _minBet, uint _maxPick, uint _payout)... */\n  pop\n  pop\n  pop\n  pop\n  pop\n    /* \"AllContracts.sol\":5733:19042  contract LuckyMachine is VRFConsumerBase, Ownable {... */\n  jump(tag_11)\n    /* \"AllContracts.sol\":90:194  function _msgSender() internal view virtual returns (address payable) {... */\ntag_9:\n    /* \"AllContracts.sol\":143:158  address payable */\n  0x00\n    /* \"AllContracts.sol\":177:187  msg.sender */\n  caller\n    /* \"AllContracts.sol\":170:187  return msg.sender */\n  swap1\n  pop\n    /* \"AllContracts.sol\":90:194  function _msgSender() internal view virtual returns (address payable) {... */\n  swap1\n  jump\t// out\n    /* \"AllContracts.sol\":5733:19042  contract LuckyMachine is VRFConsumerBase, Ownable {... */\ntag_11:\n  dataSize(sub_0)\n  dup1\n  dataOffset(sub_0)\n  0x00\n  codecopy\n  0x00\n  return\nstop\n\nsub_0: assembly {\n        /* \"AllContracts.sol\":5733:19042  contract LuckyMachine is VRFConsumerBase, Ownable {... */\n      mstore(0x40, 0x80)\n      jumpi(tag_1, lt(calldatasize, 0x04))\n      shr(0xe0, calldataload(0x00))\n      dup1\n      0x95f9b576\n      gt\n      tag_33\n      jumpi\n      dup1\n      0xac150fd8\n      gt\n      tag_34\n      jumpi\n      dup1\n      0xd9e721f8\n      gt\n      tag_35\n      jumpi\n      dup1\n      0xd9e721f8\n      eq\n      tag_29\n      jumpi\n      dup1\n      0xdfad4c11\n      eq\n      tag_30\n      jumpi\n      dup1\n      0xf2fde38b\n      eq\n      tag_31\n      jumpi\n      dup1\n      0xf31a4dcd\n      eq\n      tag_32\n      jumpi\n      jump(tag_2)\n    tag_35:\n      dup1\n      0xac150fd8\n      eq\n      tag_25\n      jumpi\n      dup1\n      0xb843f5ab\n      eq\n      tag_26\n      jumpi\n      dup1\n      0xb93030b3\n      eq\n      tag_27\n      jumpi\n      dup1\n      0xc311d049\n      eq\n      tag_28\n      jumpi\n      jump(tag_2)\n    tag_34:\n      dup1\n      0x9e317f12\n      gt\n      tag_36\n      jumpi\n      dup1\n      0x9e317f12\n      eq\n      tag_21\n      jumpi\n      dup1\n      0xa02e0616\n      eq\n      tag_22\n      jumpi\n      dup1\n      0xa249225e\n      eq\n      tag_23\n      jumpi\n      dup1\n      0xa4b2409e\n      eq\n      tag_24\n      jumpi\n      jump(tag_2)\n    tag_36:\n      dup1\n      0x95f9b576\n      eq\n      tag_18\n      jumpi\n      dup1\n      0x9619367d\n      eq\n      tag_19\n      jumpi\n      dup1\n      0x98544710\n      eq\n      tag_20\n      jumpi\n      jump(tag_2)\n    tag_33:\n      dup1\n      0x44ff81ce\n      gt\n      tag_37\n      jumpi\n      dup1\n      0x715018a6\n      gt\n      tag_38\n      jumpi\n      dup1\n      0x715018a6\n      eq\n      tag_14\n      jumpi\n      dup1\n      0x7a8042bd\n      eq\n      tag_15\n      jumpi\n      dup1\n      0x8da5cb5b\n      eq\n      tag_16\n      jumpi\n      dup1\n      0x94985ddd\n      eq\n      tag_17\n      jumpi\n      jump(tag_2)\n    tag_38:\n      dup1\n      0x44ff81ce\n      eq\n      tag_10\n      jumpi\n      dup1\n      0x50c5f975\n      eq\n      tag_11\n      jumpi\n      dup1\n      0x5b8d02d7\n      eq\n      tag_12\n      jumpi\n      dup1\n      0x63bd1d4a\n      eq\n      tag_13\n      jumpi\n      jump(tag_2)\n    tag_37:\n      dup1\n      0x2ee42d8a\n      gt\n      tag_39\n      jumpi\n      dup1\n      0x2ee42d8a\n      eq\n      tag_6\n      jumpi\n      dup1\n      0x33ea51a8\n      eq\n      tag_7\n      jumpi\n      dup1\n      0x3638104a\n      eq\n      tag_8\n      jumpi\n      dup1\n      0x4051ddac\n      eq\n      tag_9\n      jumpi\n      jump(tag_2)\n    tag_39:\n      dup1\n      0x0c610a12\n      eq\n      tag_3\n      jumpi\n      dup1\n      0x117a5b90\n      eq\n      tag_4\n      jumpi\n      dup1\n      0x2e5b2168\n      eq\n      tag_5\n      jumpi\n      jump(tag_2)\n    tag_1:\n      jumpi(tag_2, calldatasize)\n      stop\n    tag_2:\n      0x00\n      dup1\n      revert\n        /* \"AllContracts.sol\":8618:8767  function betPayable(uint bet) public view returns(bool){... */\n    tag_3:\n      callvalue\n        /* \"--CODEGEN--\":8:17   */\n      dup1\n        /* \"--CODEGEN--\":5:7   */\n      iszero\n      tag_42\n      jumpi\n        /* \"--CODEGEN--\":30:31   */\n      0x00\n        /* \"--CODEGEN--\":27:28   */\n      dup1\n        /* \"--CODEGEN--\":20:32   */\n      revert\n        /* \"--CODEGEN--\":5:7   */\n    tag_42:\n        /* \"AllContracts.sol\":8618:8767  function betPayable(uint bet) public view returns(bool){... */\n      pop\n      tag_43\n      0x04\n      dup1\n      calldatasize\n      sub\n        /* \"--CODEGEN--\":13:15   */\n      0x20\n        /* \"--CODEGEN--\":8:11   */\n      dup2\n        /* \"--CODEGEN--\":5:16   */\n      lt\n        /* \"--CODEGEN--\":2:4   */\n      iszero\n      tag_44\n      jumpi\n        /* \"--CODEGEN--\":29:30   */\n      0x00\n        /* \"--CODEGEN--\":26:27   */\n      dup1\n        /* \"--CODEGEN--\":19:31   */\n      revert\n        /* \"--CODEGEN--\":2:4   */\n    tag_44:\n        /* \"AllContracts.sol\":8618:8767  function betPayable(uint bet) public view returns(bool){... */\n      dup2\n      add\n      swap1\n      dup1\n      dup1\n      calldataload\n      swap1\n      0x20\n      add\n      swap1\n      swap3\n      swap2\n      swap1\n      pop\n      pop\n      pop\n      tag_45\n      jump\t// in\n    tag_43:\n      mload(0x40)\n      dup1\n      dup3\n      iszero\n      iszero\n      iszero\n      iszero\n      dup2\n      mstore\n      0x20\n      add\n      swap2\n      pop\n      pop\n      mload(0x40)\n      dup1\n      swap2\n      sub\n      swap1\n      return\n        /* \"AllContracts.sol\":6659:6693  mapping(uint => Game) public games */\n    tag_4:\n      callvalue\n        /* \"--CODEGEN--\":8:17   */\n      dup1\n        /* \"--CODEGEN--\":5:7   */\n      iszero\n      tag_46\n      jumpi\n        /* \"--CODEGEN--\":30:31   */\n      0x00\n        /* \"--CODEGEN--\":27:28   */\n      dup1\n        /* \"--CODEGEN--\":20:32   */\n      revert\n        /* \"--CODEGEN--\":5:7   */\n    tag_46:\n        /* \"AllContracts.sol\":6659:6693  mapping(uint => Game) public games */\n      pop\n      tag_47\n      0x04\n      dup1\n      calldatasize\n      sub\n        /* \"--CODEGEN--\":13:15   */\n      0x20\n        /* \"--CODEGEN--\":8:11   */\n      dup2\n        /* \"--CODEGEN--\":5:16   */\n      lt\n        /* \"--CODEGEN--\":2:4   */\n      iszero\n      tag_48\n      jumpi\n        /* \"--CODEGEN--\":29:30   */\n      0x00\n        /* \"--CODEGEN--\":26:27   */\n      dup1\n        /* \"--CODEGEN--\":19:31   */\n      revert\n        /* \"--CODEGEN--\":2:4   */\n    tag_48:\n        /* \"AllContracts.sol\":6659:6693  mapping(uint => Game) public games */\n      dup2\n      add\n      swap1\n      dup1\n      dup1\n      calldataload\n      swap1\n      0x20\n      add\n      swap1\n      swap3\n      swap2\n      swap1\n      pop\n      pop\n      pop\n      tag_49\n      jump\t// in\n    tag_47:\n      mload(0x40)\n      dup1\n      dup8\n      dup2\n      mstore\n      0x20\n      add\n      dup7\n      0xffffffffffffffffffffffffffffffffffffffff\n      and\n      0xffffffffffffffffffffffffffffffffffffffff\n      and\n      dup2\n      mstore\n      0x20\n      add\n      dup6\n      dup2\n      mstore\n      0x20\n      add\n      dup5\n      dup2\n      mstore\n      0x20\n      add\n      dup4\n      dup2\n      mstore\n      0x20\n      add\n      dup3\n      iszero\n      iszero\n      iszero\n      iszero\n      dup2\n      mstore\n      0x20\n      add\n      swap7\n      pop\n      pop\n      pop\n      pop\n      pop\n      pop\n      pop\n      mload(0x40)\n      dup1\n      swap2\n      sub\n      swap1\n      return\n        /* \"AllContracts.sol\":6323:6341  uint public maxBet */\n    tag_5:\n      callvalue\n        /* \"--CODEGEN--\":8:17   */\n      dup1\n        /* \"--CODEGEN--\":5:7   */\n      iszero\n      tag_50\n      jumpi\n        /* \"--CODEGEN--\":30:31   */\n      0x00\n        /* \"--CODEGEN--\":27:28   */\n      dup1\n        /* \"--CODEGEN--\":20:32   */\n      revert\n        /* \"--CODEGEN--\":5:7   */\n    tag_50:\n        /* \"AllContracts.sol\":6323:6341  uint public maxBet */\n      pop\n      tag_51\n      tag_52\n      jump\t// in\n    tag_51:\n      mload(0x40)\n      dup1\n      dup3\n      dup2\n      mstore\n      0x20\n      add\n      swap2\n      pop\n      pop\n      mload(0x40)\n      dup1\n      swap2\n      sub\n      swap1\n      return\n        /* \"AllContracts.sol\":6298:6317  uint public maxPick */\n    tag_6:\n      callvalue\n        /* \"--CODEGEN--\":8:17   */\n      dup1\n        /* \"--CODEGEN--\":5:7   */\n      iszero\n      tag_53\n      jumpi\n        /* \"--CODEGEN--\":30:31   */\n      0x00\n        /* \"--CODEGEN--\":27:28   */\n      dup1\n        /* \"--CODEGEN--\":20:32   */\n      revert\n        /* \"--CODEGEN--\":5:7   */\n    tag_53:\n        /* \"AllContracts.sol\":6298:6317  uint public maxPick */\n      pop\n      tag_54\n      tag_55\n      jump\t// in\n    tag_54:\n      mload(0x40)\n      dup1\n      dup3\n      dup2\n      mstore\n      0x20\n      add\n      swap2\n      pop\n      pop\n      mload(0x40)\n      dup1\n      swap2\n      sub\n      swap1\n      return\n        /* \"AllContracts.sol\":17913:18035  function setPayoutAddress(address payable _payoutAddress) public onlyOwner {... */\n    tag_7:\n      callvalue\n        /* \"--CODEGEN--\":8:17   */\n      dup1\n        /* \"--CODEGEN--\":5:7   */\n      iszero\n      tag_56\n      jumpi\n        /* \"--CODEGEN--\":30:31   */\n      0x00\n        /* \"--CODEGEN--\":27:28   */\n      dup1\n        /* \"--CODEGEN--\":20:32   */\n      revert\n        /* \"--CODEGEN--\":5:7   */\n    tag_56:\n        /* \"AllContracts.sol\":17913:18035  function setPayoutAddress(address payable _payoutAddress) public onlyOwner {... */\n      pop\n      tag_57\n      0x04\n      dup1\n      calldatasize\n      sub\n        /* \"--CODEGEN--\":13:15   */\n      0x20\n        /* \"--CODEGEN--\":8:11   */\n      dup2\n        /* \"--CODEGEN--\":5:16   */\n      lt\n        /* \"--CODEGEN--\":2:4   */\n      iszero\n      tag_58\n      jumpi\n        /* \"--CODEGEN--\":29:30   */\n      0x00\n        /* \"--CODEGEN--\":26:27   */\n      dup1\n        /* \"--CODEGEN--\":19:31   */\n      revert\n        /* \"--CODEGEN--\":2:4   */\n    tag_58:\n        /* \"AllContracts.sol\":17913:18035  function setPayoutAddress(address payable _payoutAddress) public onlyOwner {... */\n      dup2\n      add\n      swap1\n      dup1\n      dup1\n      calldataload\n      0xffffffffffffffffffffffffffffffffffffffff\n      and\n      swap1\n      0x20\n      add\n      swap1\n      swap3\n      swap2\n      swap1\n      pop\n      pop\n      pop\n      tag_59\n      jump\t// in\n    tag_57:\n      stop\n        /* \"AllContracts.sol\":6548:6597  mapping(address => bool) public authorizedAddress */\n    tag_8:\n      callvalue\n        /* \"--CODEGEN--\":8:17   */\n      dup1\n        /* \"--CODEGEN--\":5:7   */\n      iszero\n      tag_60\n      jumpi\n        /* \"--CODEGEN--\":30:31   */\n      0x00\n        /* \"--CODEGEN--\":27:28   */\n      dup1\n        /* \"--CODEGEN--\":20:32   */\n      revert\n        /* \"--CODEGEN--\":5:7   */\n    tag_60:\n        /* \"AllContracts.sol\":6548:6597  mapping(address => bool) public authorizedAddress */\n      pop\n      tag_61\n      0x04\n      dup1\n      calldatasize\n      sub\n        /* \"--CODEGEN--\":13:15   */\n      0x20\n        /* \"--CODEGEN--\":8:11   */\n      dup2\n        /* \"--CODEGEN--\":5:16   */\n      lt\n        /* \"--CODEGEN--\":2:4   */\n      iszero\n      tag_62\n      jumpi\n        /* \"--CODEGEN--\":29:30   */\n      0x00\n        /* \"--CODEGEN--\":26:27   */\n      dup1\n        /* \"--CODEGEN--\":19:31   */\n      revert\n        /* \"--CODEGEN--\":2:4   */\n    tag_62:\n        /* \"AllContracts.sol\":6548:6597  mapping(address => bool) public authorizedAddress */\n      dup2\n      add\n      swap1\n      dup1\n      dup1\n      calldataload\n      0xffffffffffffffffffffffffffffffffffffffff\n      and\n      swap1\n      0x20\n      add\n      swap1\n      swap3\n      swap2\n      swap1\n      pop\n      pop\n      pop\n      tag_63\n      jump\t// in\n    tag_61:\n      mload(0x40)\n      dup1\n      dup3\n      iszero\n      iszero\n      iszero\n      iszero\n      dup2\n      mstore\n      0x20\n      add\n      swap2\n      pop\n      pop\n      mload(0x40)\n      dup1\n      swap2\n      sub\n      swap1\n      return\n        /* \"AllContracts.sol\":14355:14519  function getSummary() public view returns(uint, uint, uint, uint) {... */\n    tag_9:\n      callvalue\n        /* \"--CODEGEN--\":8:17   */\n      dup1\n        /* \"--CODEGEN--\":5:7   */\n      iszero\n      tag_64\n      jumpi\n        /* \"--CODEGEN--\":30:31   */\n      0x00\n        /* \"--CODEGEN--\":27:28   */\n      dup1\n        /* \"--CODEGEN--\":20:32   */\n      revert\n        /* \"--CODEGEN--\":5:7   */\n    tag_64:\n        /* \"AllContracts.sol\":14355:14519  function getSummary() public view returns(uint, uint, uint, uint) {... */\n      pop\n      tag_65\n      tag_66\n      jump\t// in\n    tag_65:\n      mload(0x40)\n      dup1\n      dup6\n      dup2\n      mstore\n      0x20\n      add\n      dup5\n      dup2\n      mstore\n      0x20\n      add\n      dup4\n      dup2\n      mstore\n      0x20\n      add\n      dup3\n      dup2\n      mstore\n      0x20\n      add\n      swap5\n      pop\n      pop\n      pop\n      pop\n      pop\n      mload(0x40)\n      dup1\n      swap2\n      sub\n      swap1\n      return\n        /* \"AllContracts.sol\":17041:17159  function setVRFCoordinator(address _vrfCoordinator) public onlyOwner {... */\n    tag_10:\n      callvalue\n        /* \"--CODEGEN--\":8:17   */\n      dup1\n        /* \"--CODEGEN--\":5:7   */\n      iszero\n      tag_67\n      jumpi\n        /* \"--CODEGEN--\":30:31   */\n      0x00\n        /* \"--CODEGEN--\":27:28   */\n      dup1\n        /* \"--CODEGEN--\":20:32   */\n      revert\n        /* \"--CODEGEN--\":5:7   */\n    tag_67:\n        /* \"AllContracts.sol\":17041:17159  function setVRFCoordinator(address _vrfCoordinator) public onlyOwner {... */\n      pop\n      tag_68\n      0x04\n      dup1\n      calldatasize\n      sub\n        /* \"--CODEGEN--\":13:15   */\n      0x20\n        /* \"--CODEGEN--\":8:11   */\n      dup2\n        /* \"--CODEGEN--\":5:16   */\n      lt\n        /* \"--CODEGEN--\":2:4   */\n      iszero\n      tag_69\n      jumpi\n        /* \"--CODEGEN--\":29:30   */\n      0x00\n        /* \"--CODEGEN--\":26:27   */\n      dup1\n        /* \"--CODEGEN--\":19:31   */\n      revert\n        /* \"--CODEGEN--\":2:4   */\n    tag_69:\n        /* \"AllContracts.sol\":17041:17159  function setVRFCoordinator(address _vrfCoordinator) public onlyOwner {... */\n      dup2\n      add\n      swap1\n      dup1\n      dup1\n      calldataload\n      0xffffffffffffffffffffffffffffffffffffffff\n      and\n      swap1\n      0x20\n      add\n      swap1\n      swap3\n      swap2\n      swap1\n      pop\n      pop\n      pop\n      tag_70\n      jump\t// in\n    tag_68:\n      stop\n        /* \"AllContracts.sol\":8036:8140  function getLinkBalance() public view returns(uint){... */\n    tag_11:\n      callvalue\n        /* \"--CODEGEN--\":8:17   */\n      dup1\n        /* \"--CODEGEN--\":5:7   */\n      iszero\n      tag_71\n      jumpi\n        /* \"--CODEGEN--\":30:31   */\n      0x00\n        /* \"--CODEGEN--\":27:28   */\n      dup1\n        /* \"--CODEGEN--\":20:32   */\n      revert\n        /* \"--CODEGEN--\":5:7   */\n    tag_71:\n        /* \"AllContracts.sol\":8036:8140  function getLinkBalance() public view returns(uint){... */\n      pop\n      tag_72\n      tag_73\n      jump\t// in\n    tag_72:\n      mload(0x40)\n      dup1\n      dup3\n      dup2\n      mstore\n      0x20\n      add\n      swap2\n      pop\n      pop\n      mload(0x40)\n      dup1\n      swap2\n      sub\n      swap1\n      return\n        /* \"AllContracts.sol\":6434:6470  address payable public payoutAddress */\n    tag_12:\n      callvalue\n        /* \"--CODEGEN--\":8:17   */\n      dup1\n        /* \"--CODEGEN--\":5:7   */\n      iszero\n      tag_74\n      jumpi\n        /* \"--CODEGEN--\":30:31   */\n      0x00\n        /* \"--CODEGEN--\":27:28   */\n      dup1\n        /* \"--CODEGEN--\":20:32   */\n      revert\n        /* \"--CODEGEN--\":5:7   */\n    tag_74:\n        /* \"AllContracts.sol\":6434:6470  address payable public payoutAddress */\n      pop\n      tag_75\n      tag_76\n      jump\t// in\n    tag_75:\n      mload(0x40)\n      dup1\n      dup3\n      0xffffffffffffffffffffffffffffffffffffffff\n      and\n      0xffffffffffffffffffffffffffffffffffffffff\n      and\n      dup2\n      mstore\n      0x20\n      add\n      swap2\n      pop\n      pop\n      mload(0x40)\n      dup1\n      swap2\n      sub\n      swap1\n      return\n        /* \"AllContracts.sol\":6476:6494  uint public payout */\n    tag_13:\n      callvalue\n        /* \"--CODEGEN--\":8:17   */\n      dup1\n        /* \"--CODEGEN--\":5:7   */\n      iszero\n      tag_77\n      jumpi\n        /* \"--CODEGEN--\":30:31   */\n      0x00\n        /* \"--CODEGEN--\":27:28   */\n      dup1\n        /* \"--CODEGEN--\":20:32   */\n      revert\n        /* \"--CODEGEN--\":5:7   */\n    tag_77:\n        /* \"AllContracts.sol\":6476:6494  uint public payout */\n      pop\n      tag_78\n      tag_79\n      jump\t// in\n    tag_78:\n      mload(0x40)\n      dup1\n      dup3\n      dup2\n      mstore\n      0x20\n      add\n      swap2\n      pop\n      pop\n      mload(0x40)\n      dup1\n      swap2\n      sub\n      swap1\n      return\n        /* \"AllContracts.sol\":1550:1695  function renounceOwnership() public virtual onlyOwner {... */\n    tag_14:\n      callvalue\n        /* \"--CODEGEN--\":8:17   */\n      dup1\n        /* \"--CODEGEN--\":5:7   */\n      iszero\n      tag_80\n      jumpi\n        /* \"--CODEGEN--\":30:31   */\n      0x00\n        /* \"--CODEGEN--\":27:28   */\n      dup1\n        /* \"--CODEGEN--\":20:32   */\n      revert\n        /* \"--CODEGEN--\":5:7   */\n    tag_80:\n        /* \"AllContracts.sol\":1550:1695  function renounceOwnership() public virtual onlyOwner {... */\n      pop\n      tag_81\n      tag_82\n      jump\t// in\n    tag_81:\n      stop\n        /* \"AllContracts.sol\":16427:16537  function withdrawLink(uint amount) public onlyAuthorized {... */\n    tag_15:\n      callvalue\n        /* \"--CODEGEN--\":8:17   */\n      dup1\n        /* \"--CODEGEN--\":5:7   */\n      iszero\n      tag_83\n      jumpi\n        /* \"--CODEGEN--\":30:31   */\n      0x00\n        /* \"--CODEGEN--\":27:28   */\n      dup1\n        /* \"--CODEGEN--\":20:32   */\n      revert\n        /* \"--CODEGEN--\":5:7   */\n    tag_83:\n        /* \"AllContracts.sol\":16427:16537  function withdrawLink(uint amount) public onlyAuthorized {... */\n      pop\n      tag_84\n      0x04\n      dup1\n      calldatasize\n      sub\n        /* \"--CODEGEN--\":13:15   */\n      0x20\n        /* \"--CODEGEN--\":8:11   */\n      dup2\n        /* \"--CODEGEN--\":5:16   */\n      lt\n        /* \"--CODEGEN--\":2:4   */\n      iszero\n      tag_85\n      jumpi\n        /* \"--CODEGEN--\":29:30   */\n      0x00\n        /* \"--CODEGEN--\":26:27   */\n      dup1\n        /* \"--CODEGEN--\":19:31   */\n      revert\n        /* \"--CODEGEN--\":2:4   */\n    tag_85:\n        /* \"AllContracts.sol\":16427:16537  function withdrawLink(uint amount) public onlyAuthorized {... */\n      dup2\n      add\n      swap1\n      dup1\n      dup1\n      calldataload\n      swap1\n      0x20\n      add\n      swap1\n      swap3\n      swap2\n      swap1\n      pop\n      pop\n      pop\n      tag_86\n      jump\t// in\n    tag_84:\n      stop\n        /* \"AllContracts.sol\":927:1004  function owner() public view returns (address) {... */\n    tag_16:\n      callvalue\n        /* \"--CODEGEN--\":8:17   */\n      dup1\n        /* \"--CODEGEN--\":5:7   */\n      iszero\n      tag_87\n      jumpi\n        /* \"--CODEGEN--\":30:31   */\n      0x00\n        /* \"--CODEGEN--\":27:28   */\n      dup1\n        /* \"--CODEGEN--\":20:32   */\n      revert\n        /* \"--CODEGEN--\":5:7   */\n    tag_87:\n        /* \"AllContracts.sol\":927:1004  function owner() public view returns (address) {... */\n      pop\n      tag_88\n      tag_89\n      jump\t// in\n    tag_88:\n      mload(0x40)\n      dup1\n      dup3\n      0xffffffffffffffffffffffffffffffffffffffff\n      and\n      0xffffffffffffffffffffffffffffffffffffffff\n      and\n      dup2\n      mstore\n      0x20\n      add\n      swap2\n      pop\n      pop\n      mload(0x40)\n      dup1\n      swap2\n      sub\n      swap1\n      return\n        /* \"AllContracts.sol\":5522:5729  function rawFulfillRandomness(bytes32 requestId, uint256 randomness) external {... */\n    tag_17:\n      callvalue\n        /* \"--CODEGEN--\":8:17   */\n      dup1\n        /* \"--CODEGEN--\":5:7   */\n      iszero\n      tag_90\n      jumpi\n        /* \"--CODEGEN--\":30:31   */\n      0x00\n        /* \"--CODEGEN--\":27:28   */\n      dup1\n        /* \"--CODEGEN--\":20:32   */\n      revert\n        /* \"--CODEGEN--\":5:7   */\n    tag_90:\n        /* \"AllContracts.sol\":5522:5729  function rawFulfillRandomness(bytes32 requestId, uint256 randomness) external {... */\n      pop\n      tag_91\n      0x04\n      dup1\n      calldatasize\n      sub\n        /* \"--CODEGEN--\":13:15   */\n      0x40\n        /* \"--CODEGEN--\":8:11   */\n      dup2\n        /* \"--CODEGEN--\":5:16   */\n      lt\n        /* \"--CODEGEN--\":2:4   */\n      iszero\n      tag_92\n      jumpi\n        /* \"--CODEGEN--\":29:30   */\n      0x00\n        /* \"--CODEGEN--\":26:27   */\n      dup1\n        /* \"--CODEGEN--\":19:31   */\n      revert\n        /* \"--CODEGEN--\":2:4   */\n    tag_92:\n        /* \"AllContracts.sol\":5522:5729  function rawFulfillRandomness(bytes32 requestId, uint256 randomness) external {... */\n      dup2\n      add\n      swap1\n      dup1\n      dup1\n      calldataload\n      swap1\n      0x20\n      add\n      swap1\n      swap3\n      swap2\n      swap1\n      dup1\n      calldataload\n      swap1\n      0x20\n      add\n      swap1\n      swap3\n      swap2\n      swap1\n      pop\n      pop\n      pop\n      tag_93\n      jump\t// in\n    tag_91:\n      stop\n        /* \"AllContracts.sol\":15752:15977  function allowGasFreeBet(address[] memory userAddresses, bool allowed) public onlyAuthorized{... */\n    tag_18:\n      callvalue\n        /* \"--CODEGEN--\":8:17   */\n      dup1\n        /* \"--CODEGEN--\":5:7   */\n      iszero\n      tag_94\n      jumpi\n        /* \"--CODEGEN--\":30:31   */\n      0x00\n        /* \"--CODEGEN--\":27:28   */\n      dup1\n        /* \"--CODEGEN--\":20:32   */\n      revert\n        /* \"--CODEGEN--\":5:7   */\n    tag_94:\n        /* \"AllContracts.sol\":15752:15977  function allowGasFreeBet(address[] memory userAddresses, bool allowed) public onlyAuthorized{... */\n      pop\n      tag_95\n      0x04\n      dup1\n      calldatasize\n      sub\n        /* \"--CODEGEN--\":13:15   */\n      0x40\n        /* \"--CODEGEN--\":8:11   */\n      dup2\n        /* \"--CODEGEN--\":5:16   */\n      lt\n        /* \"--CODEGEN--\":2:4   */\n      iszero\n      tag_96\n      jumpi\n        /* \"--CODEGEN--\":29:30   */\n      0x00\n        /* \"--CODEGEN--\":26:27   */\n      dup1\n        /* \"--CODEGEN--\":19:31   */\n      revert\n        /* \"--CODEGEN--\":2:4   */\n    tag_96:\n        /* \"AllContracts.sol\":15752:15977  function allowGasFreeBet(address[] memory userAddresses, bool allowed) public onlyAuthorized{... */\n      dup2\n      add\n      swap1\n      dup1\n      dup1\n      calldataload\n      swap1\n      0x20\n      add\n      swap1\n        /* \"--CODEGEN--\":21:32   */\n      0x0100000000\n        /* \"--CODEGEN--\":8:19   */\n      dup2\n        /* \"--CODEGEN--\":5:33   */\n      gt\n        /* \"--CODEGEN--\":2:4   */\n      iszero\n      tag_97\n      jumpi\n        /* \"--CODEGEN--\":46:47   */\n      0x00\n        /* \"--CODEGEN--\":43:44   */\n      dup1\n        /* \"--CODEGEN--\":36:48   */\n      revert\n        /* \"--CODEGEN--\":2:4   */\n    tag_97:\n        /* \"AllContracts.sol\":15752:15977  function allowGasFreeBet(address[] memory userAddresses, bool allowed) public onlyAuthorized{... */\n      dup3\n      add\n        /* \"--CODEGEN--\":35:44   */\n      dup4\n        /* \"--CODEGEN--\":28:32   */\n      0x20\n        /* \"--CODEGEN--\":12:26   */\n      dup3\n        /* \"--CODEGEN--\":8:33   */\n      add\n        /* \"--CODEGEN--\":5:45   */\n      gt\n        /* \"--CODEGEN--\":2:4   */\n      iszero\n      tag_98\n      jumpi\n        /* \"--CODEGEN--\":58:59   */\n      0x00\n        /* \"--CODEGEN--\":55:56   */\n      dup1\n        /* \"--CODEGEN--\":48:60   */\n      revert\n        /* \"--CODEGEN--\":2:4   */\n    tag_98:\n        /* \"AllContracts.sol\":15752:15977  function allowGasFreeBet(address[] memory userAddresses, bool allowed) public onlyAuthorized{... */\n      dup1\n      calldataload\n      swap1\n      0x20\n      add\n      swap2\n        /* \"--CODEGEN--\":101:110   */\n      dup5\n        /* \"--CODEGEN--\":95:97   */\n      0x20\n        /* \"--CODEGEN--\":81:93   */\n      dup4\n        /* \"--CODEGEN--\":77:98   */\n      mul\n        /* \"--CODEGEN--\":67:75   */\n      dup5\n        /* \"--CODEGEN--\":63:99   */\n      add\n        /* \"--CODEGEN--\":60:111   */\n      gt\n        /* \"--CODEGEN--\":39:50   */\n      0x0100000000\n        /* \"--CODEGEN--\":25:37   */\n      dup4\n        /* \"--CODEGEN--\":22:51   */\n      gt\n        /* \"--CODEGEN--\":11:119   */\n      or\n        /* \"--CODEGEN--\":8:10   */\n      iszero\n      tag_99\n      jumpi\n        /* \"--CODEGEN--\":132:133   */\n      0x00\n        /* \"--CODEGEN--\":129:130   */\n      dup1\n        /* \"--CODEGEN--\":122:134   */\n      revert\n        /* \"--CODEGEN--\":8:10   */\n    tag_99:\n        /* \"AllContracts.sol\":15752:15977  function allowGasFreeBet(address[] memory userAddresses, bool allowed) public onlyAuthorized{... */\n      swap2\n      swap1\n      dup1\n      dup1\n      0x20\n      mul\n      0x20\n      add\n      mload(0x40)\n      swap1\n      dup2\n      add\n      0x40\n      mstore\n      dup1\n      swap4\n      swap3\n      swap2\n      swap1\n      dup2\n      dup2\n      mstore\n      0x20\n      add\n      dup4\n      dup4\n      0x20\n      mul\n        /* \"--CODEGEN--\":30:33   */\n      dup1\n        /* \"--CODEGEN--\":22:28   */\n      dup3\n        /* \"--CODEGEN--\":14:20   */\n      dup5\n        /* \"--CODEGEN--\":1:34   */\n      calldatacopy\n        /* \"--CODEGEN--\":99:100   */\n      0x00\n        /* \"--CODEGEN--\":93:96   */\n      dup2\n        /* \"--CODEGEN--\":85:91   */\n      dup5\n        /* \"--CODEGEN--\":81:97   */\n      add\n        /* \"--CODEGEN--\":74:101   */\n      mstore\n        /* \"--CODEGEN--\":137:141   */\n      0x1f\n        /* \"--CODEGEN--\":133:142   */\n      not\n        /* \"--CODEGEN--\":126:130   */\n      0x1f\n        /* \"--CODEGEN--\":121:124   */\n      dup3\n        /* \"--CODEGEN--\":117:131   */\n      add\n        /* \"--CODEGEN--\":113:143   */\n      and\n        /* \"--CODEGEN--\":106:143   */\n      swap1\n      pop\n        /* \"--CODEGEN--\":169:172   */\n      dup1\n        /* \"--CODEGEN--\":161:167   */\n      dup4\n        /* \"--CODEGEN--\":157:173   */\n      add\n        /* \"--CODEGEN--\":147:173   */\n      swap3\n      pop\n        /* \"AllContracts.sol\":15752:15977  function allowGasFreeBet(address[] memory userAddresses, bool allowed) public onlyAuthorized{... */\n      pop\n      pop\n      pop\n      pop\n      pop\n      pop\n      swap2\n      swap3\n      swap2\n      swap3\n      swap1\n      dup1\n      calldataload\n      iszero\n      iszero\n      swap1\n      0x20\n      add\n      swap1\n      swap3\n      swap2\n      swap1\n      pop\n      pop\n      pop\n      tag_100\n      jump\t// in\n    tag_95:\n      stop\n        /* \"AllContracts.sol\":6347:6365  uint public minBet */\n    tag_19:\n      callvalue\n        /* \"--CODEGEN--\":8:17   */\n      dup1\n        /* \"--CODEGEN--\":5:7   */\n      iszero\n      tag_101\n      jumpi\n        /* \"--CODEGEN--\":30:31   */\n      0x00\n        /* \"--CODEGEN--\":27:28   */\n      dup1\n        /* \"--CODEGEN--\":20:32   */\n      revert\n        /* \"--CODEGEN--\":5:7   */\n    tag_101:\n        /* \"AllContracts.sol\":6347:6365  uint public minBet */\n      pop\n      tag_102\n      tag_103\n      jump\t// in\n    tag_102:\n      mload(0x40)\n      dup1\n      dup3\n      dup2\n      mstore\n      0x20\n      add\n      swap2\n      pop\n      pop\n      mload(0x40)\n      dup1\n      swap2\n      sub\n      swap1\n      return\n        /* \"AllContracts.sol\":17320:17410  function setKeyHash(bytes32 _keyHash) public onlyOwner {... */\n    tag_20:\n      callvalue\n        /* \"--CODEGEN--\":8:17   */\n      dup1\n        /* \"--CODEGEN--\":5:7   */\n      iszero\n      tag_104\n      jumpi\n        /* \"--CODEGEN--\":30:31   */\n      0x00\n        /* \"--CODEGEN--\":27:28   */\n      dup1\n        /* \"--CODEGEN--\":20:32   */\n      revert\n        /* \"--CODEGEN--\":5:7   */\n    tag_104:\n        /* \"AllContracts.sol\":17320:17410  function setKeyHash(bytes32 _keyHash) public onlyOwner {... */\n      pop\n      tag_105\n      0x04\n      dup1\n      calldatasize\n      sub\n        /* \"--CODEGEN--\":13:15   */\n      0x20\n        /* \"--CODEGEN--\":8:11   */\n      dup2\n        /* \"--CODEGEN--\":5:16   */\n      lt\n        /* \"--CODEGEN--\":2:4   */\n      iszero\n      tag_106\n      jumpi\n        /* \"--CODEGEN--\":29:30   */\n      0x00\n        /* \"--CODEGEN--\":26:27   */\n      dup1\n        /* \"--CODEGEN--\":19:31   */\n      revert\n        /* \"--CODEGEN--\":2:4   */\n    tag_106:\n        /* \"AllContracts.sol\":17320:17410  function setKeyHash(bytes32 _keyHash) public onlyOwner {... */\n      dup2\n      add\n      swap1\n      dup1\n      dup1\n      calldataload\n      swap1\n      0x20\n      add\n      swap1\n      swap3\n      swap2\n      swap1\n      pop\n      pop\n      pop\n      tag_107\n      jump\t// in\n    tag_105:\n      stop\n        /* \"AllContracts.sol\":5307:5374  mapping(bytes32 /* keyHash */ => uint256 /* nonce */) public nonces */\n    tag_21:\n      callvalue\n        /* \"--CODEGEN--\":8:17   */\n      dup1\n        /* \"--CODEGEN--\":5:7   */\n      iszero\n      tag_108\n      jumpi\n        /* \"--CODEGEN--\":30:31   */\n      0x00\n        /* \"--CODEGEN--\":27:28   */\n      dup1\n        /* \"--CODEGEN--\":20:32   */\n      revert\n        /* \"--CODEGEN--\":5:7   */\n    tag_108:\n        /* \"AllContracts.sol\":5307:5374  mapping(bytes32 /* keyHash */ => uint256 /* nonce */) public nonces */\n      pop\n      tag_109\n      0x04\n      dup1\n      calldatasize\n      sub\n        /* \"--CODEGEN--\":13:15   */\n      0x20\n        /* \"--CODEGEN--\":8:11   */\n      dup2\n        /* \"--CODEGEN--\":5:16   */\n      lt\n        /* \"--CODEGEN--\":2:4   */\n      iszero\n      tag_110\n      jumpi\n        /* \"--CODEGEN--\":29:30   */\n      0x00\n        /* \"--CODEGEN--\":26:27   */\n      dup1\n        /* \"--CODEGEN--\":19:31   */\n      revert\n        /* \"--CODEGEN--\":2:4   */\n    tag_110:\n        /* \"AllContracts.sol\":5307:5374  mapping(bytes32 /* keyHash */ => uint256 /* nonce */) public nonces */\n      dup2\n      add\n      swap1\n      dup1\n      dup1\n      calldataload\n      swap1\n      0x20\n      add\n      swap1\n      swap3\n      swap2\n      swap1\n      pop\n      pop\n      pop\n      tag_111\n      jump\t// in\n    tag_109:\n      mload(0x40)\n      dup1\n      dup3\n      dup2\n      mstore\n      0x20\n      add\n      swap2\n      pop\n      pop\n      mload(0x40)\n      dup1\n      swap2\n      sub\n      swap1\n      return\n        /* \"AllContracts.sol\":17600:17712  function setLINK(address _linkAddress) public onlyOwner {... */\n    tag_22:\n      callvalue\n        /* \"--CODEGEN--\":8:17   */\n      dup1\n        /* \"--CODEGEN--\":5:7   */\n      iszero\n      tag_112\n      jumpi\n        /* \"--CODEGEN--\":30:31   */\n      0x00\n        /* \"--CODEGEN--\":27:28   */\n      dup1\n        /* \"--CODEGEN--\":20:32   */\n      revert\n        /* \"--CODEGEN--\":5:7   */\n    tag_112:\n        /* \"AllContracts.sol\":17600:17712  function setLINK(address _linkAddress) public onlyOwner {... */\n      pop\n      tag_113\n      0x04\n      dup1\n      calldatasize\n      sub\n        /* \"--CODEGEN--\":13:15   */\n      0x20\n        /* \"--CODEGEN--\":8:11   */\n      dup2\n        /* \"--CODEGEN--\":5:16   */\n      lt\n        /* \"--CODEGEN--\":2:4   */\n      iszero\n      tag_114\n      jumpi\n        /* \"--CODEGEN--\":29:30   */\n      0x00\n        /* \"--CODEGEN--\":26:27   */\n      dup1\n        /* \"--CODEGEN--\":19:31   */\n      revert\n        /* \"--CODEGEN--\":2:4   */\n    tag_114:\n        /* \"AllContracts.sol\":17600:17712  function setLINK(address _linkAddress) public onlyOwner {... */\n      dup2\n      add\n      swap1\n      dup1\n      dup1\n      calldataload\n      0xffffffffffffffffffffffffffffffffffffffff\n      and\n      swap1\n      0x20\n      add\n      swap1\n      swap3\n      swap2\n      swap1\n      pop\n      pop\n      pop\n      tag_115\n      jump\t// in\n    tag_113:\n      stop\n        /* \"AllContracts.sol\":16731:16873  function setAuthorizedUser(address userAddress, bool authorized) public onlyOwner {... */\n    tag_23:\n      callvalue\n        /* \"--CODEGEN--\":8:17   */\n      dup1\n        /* \"--CODEGEN--\":5:7   */\n      iszero\n      tag_116\n      jumpi\n        /* \"--CODEGEN--\":30:31   */\n      0x00\n        /* \"--CODEGEN--\":27:28   */\n      dup1\n        /* \"--CODEGEN--\":20:32   */\n      revert\n        /* \"--CODEGEN--\":5:7   */\n    tag_116:\n        /* \"AllContracts.sol\":16731:16873  function setAuthorizedUser(address userAddress, bool authorized) public onlyOwner {... */\n      pop\n      tag_117\n      0x04\n      dup1\n      calldatasize\n      sub\n        /* \"--CODEGEN--\":13:15   */\n      0x40\n        /* \"--CODEGEN--\":8:11   */\n      dup2\n        /* \"--CODEGEN--\":5:16   */\n      lt\n        /* \"--CODEGEN--\":2:4   */\n      iszero\n      tag_118\n      jumpi\n        /* \"--CODEGEN--\":29:30   */\n      0x00\n        /* \"--CODEGEN--\":26:27   */\n      dup1\n        /* \"--CODEGEN--\":19:31   */\n      revert\n        /* \"--CODEGEN--\":2:4   */\n    tag_118:\n        /* \"AllContracts.sol\":16731:16873  function setAuthorizedUser(address userAddress, bool authorized) public onlyOwner {... */\n      dup2\n      add\n      swap1\n      dup1\n      dup1\n      calldataload\n      0xffffffffffffffffffffffffffffffffffffffff\n      and\n      swap1\n      0x20\n      add\n      swap1\n      swap3\n      swap2\n      swap1\n      dup1\n      calldataload\n      iszero\n      iszero\n      swap1\n      0x20\n      add\n      swap1\n      swap3\n      swap2\n      swap1\n      pop\n      pop\n      pop\n      tag_119\n      jump\t// in\n    tag_117:\n      stop\n        /* \"AllContracts.sol\":14890:15488  function requestRefund(uint gameID) public{... */\n    tag_24:\n      callvalue\n        /* \"--CODEGEN--\":8:17   */\n      dup1\n        /* \"--CODEGEN--\":5:7   */\n      iszero\n      tag_120\n      jumpi\n        /* \"--CODEGEN--\":30:31   */\n      0x00\n        /* \"--CODEGEN--\":27:28   */\n      dup1\n        /* \"--CODEGEN--\":20:32   */\n      revert\n        /* \"--CODEGEN--\":5:7   */\n    tag_120:\n        /* \"AllContracts.sol\":14890:15488  function requestRefund(uint gameID) public{... */\n      pop\n      tag_121\n      0x04\n      dup1\n      calldatasize\n      sub\n        /* \"--CODEGEN--\":13:15   */\n      0x20\n        /* \"--CODEGEN--\":8:11   */\n      dup2\n        /* \"--CODEGEN--\":5:16   */\n      lt\n        /* \"--CODEGEN--\":2:4   */\n      iszero\n      tag_122\n      jumpi\n        /* \"--CODEGEN--\":29:30   */\n      0x00\n        /* \"--CODEGEN--\":26:27   */\n      dup1\n        /* \"--CODEGEN--\":19:31   */\n      revert\n        /* \"--CODEGEN--\":2:4   */\n    tag_122:\n        /* \"AllContracts.sol\":14890:15488  function requestRefund(uint gameID) public{... */\n      dup2\n      add\n      swap1\n      dup1\n      dup1\n      calldataload\n      swap1\n      0x20\n      add\n      swap1\n      swap3\n      swap2\n      swap1\n      pop\n      pop\n      pop\n      tag_123\n      jump\t// in\n    tag_121:\n      stop\n        /* \"AllContracts.sol\":9008:9637  function placeBetFor(address payable player, uint pick) public payable{... */\n    tag_25:\n      tag_124\n      0x04\n      dup1\n      calldatasize\n      sub\n        /* \"--CODEGEN--\":13:15   */\n      0x40\n        /* \"--CODEGEN--\":8:11   */\n      dup2\n        /* \"--CODEGEN--\":5:16   */\n      lt\n        /* \"--CODEGEN--\":2:4   */\n      iszero\n      tag_125\n      jumpi\n        /* \"--CODEGEN--\":29:30   */\n      0x00\n        /* \"--CODEGEN--\":26:27   */\n      dup1\n        /* \"--CODEGEN--\":19:31   */\n      revert\n        /* \"--CODEGEN--\":2:4   */\n    tag_125:\n        /* \"AllContracts.sol\":9008:9637  function placeBetFor(address payable player, uint pick) public payable{... */\n      dup2\n      add\n      swap1\n      dup1\n      dup1\n      calldataload\n      0xffffffffffffffffffffffffffffffffffffffff\n      and\n      swap1\n      0x20\n      add\n      swap1\n      swap3\n      swap2\n      swap1\n      dup1\n      calldataload\n      swap1\n      0x20\n      add\n      swap1\n      swap3\n      swap2\n      swap1\n      pop\n      pop\n      pop\n      tag_126\n      jump\t// in\n    tag_124:\n      stop\n        /* \"AllContracts.sol\":6751:6798  mapping(address => uint) public lastGameCreated */\n    tag_26:\n      callvalue\n        /* \"--CODEGEN--\":8:17   */\n      dup1\n        /* \"--CODEGEN--\":5:7   */\n      iszero\n      tag_127\n      jumpi\n        /* \"--CODEGEN--\":30:31   */\n      0x00\n        /* \"--CODEGEN--\":27:28   */\n      dup1\n        /* \"--CODEGEN--\":20:32   */\n      revert\n        /* \"--CODEGEN--\":5:7   */\n    tag_127:\n        /* \"AllContracts.sol\":6751:6798  mapping(address => uint) public lastGameCreated */\n      pop\n      tag_128\n      0x04\n      dup1\n      calldatasize\n      sub\n        /* \"--CODEGEN--\":13:15   */\n      0x20\n        /* \"--CODEGEN--\":8:11   */\n      dup2\n        /* \"--CODEGEN--\":5:16   */\n      lt\n        /* \"--CODEGEN--\":2:4   */\n      iszero\n      tag_129\n      jumpi\n        /* \"--CODEGEN--\":29:30   */\n      0x00\n        /* \"--CODEGEN--\":26:27   */\n      dup1\n        /* \"--CODEGEN--\":19:31   */\n      revert\n        /* \"--CODEGEN--\":2:4   */\n    tag_129:\n        /* \"AllContracts.sol\":6751:6798  mapping(address => uint) public lastGameCreated */\n      dup2\n      add\n      swap1\n      dup1\n      dup1\n      calldataload\n      0xffffffffffffffffffffffffffffffffffffffff\n      and\n      swap1\n      0x20\n      add\n      swap1\n      swap3\n      swap2\n      swap1\n      pop\n      pop\n      pop\n      tag_130\n      jump\t// in\n    tag_128:\n      mload(0x40)\n      dup1\n      dup3\n      dup2\n      mstore\n      0x20\n      add\n      swap2\n      pop\n      pop\n      mload(0x40)\n      dup1\n      swap2\n      sub\n      swap1\n      return\n        /* \"AllContracts.sol\":18370:18692  function closeMachine() public onlyOwner {... */\n    tag_27:\n      callvalue\n        /* \"--CODEGEN--\":8:17   */\n      dup1\n        /* \"--CODEGEN--\":5:7   */\n      iszero\n      tag_131\n      jumpi\n        /* \"--CODEGEN--\":30:31   */\n      0x00\n        /* \"--CODEGEN--\":27:28   */\n      dup1\n        /* \"--CODEGEN--\":20:32   */\n      revert\n        /* \"--CODEGEN--\":5:7   */\n    tag_131:\n        /* \"AllContracts.sol\":18370:18692  function closeMachine() public onlyOwner {... */\n      pop\n      tag_132\n      tag_133\n      jump\t// in\n    tag_132:\n      stop\n        /* \"AllContracts.sol\":16141:16345  function withdrawEth(uint amount) public onlyAuthorized {... */\n    tag_28:\n      callvalue\n        /* \"--CODEGEN--\":8:17   */\n      dup1\n        /* \"--CODEGEN--\":5:7   */\n      iszero\n      tag_134\n      jumpi\n        /* \"--CODEGEN--\":30:31   */\n      0x00\n        /* \"--CODEGEN--\":27:28   */\n      dup1\n        /* \"--CODEGEN--\":20:32   */\n      revert\n        /* \"--CODEGEN--\":5:7   */\n    tag_134:\n        /* \"AllContracts.sol\":16141:16345  function withdrawEth(uint amount) public onlyAuthorized {... */\n      pop\n      tag_135\n      0x04\n      dup1\n      calldatasize\n      sub\n        /* \"--CODEGEN--\":13:15   */\n      0x20\n        /* \"--CODEGEN--\":8:11   */\n      dup2\n        /* \"--CODEGEN--\":5:16   */\n      lt\n        /* \"--CODEGEN--\":2:4   */\n      iszero\n      tag_136\n      jumpi\n        /* \"--CODEGEN--\":29:30   */\n      0x00\n        /* \"--CODEGEN--\":26:27   */\n      dup1\n        /* \"--CODEGEN--\":19:31   */\n      revert\n        /* \"--CODEGEN--\":2:4   */\n    tag_136:\n        /* \"AllContracts.sol\":16141:16345  function withdrawEth(uint amount) public onlyAuthorized {... */\n      dup2\n      add\n      swap1\n      dup1\n      dup1\n      calldataload\n      swap1\n      0x20\n      add\n      swap1\n      swap3\n      swap2\n      swap1\n      pop\n      pop\n      pop\n      tag_137\n      jump\t// in\n    tag_135:\n      stop\n        /* \"AllContracts.sol\":9904:10710  function safeBetFor(address payable player, uint pick) public payable{... */\n    tag_29:\n      tag_138\n      0x04\n      dup1\n      calldatasize\n      sub\n        /* \"--CODEGEN--\":13:15   */\n      0x40\n        /* \"--CODEGEN--\":8:11   */\n      dup2\n        /* \"--CODEGEN--\":5:16   */\n      lt\n        /* \"--CODEGEN--\":2:4   */\n      iszero\n      tag_139\n      jumpi\n        /* \"--CODEGEN--\":29:30   */\n      0x00\n        /* \"--CODEGEN--\":26:27   */\n      dup1\n        /* \"--CODEGEN--\":19:31   */\n      revert\n        /* \"--CODEGEN--\":2:4   */\n    tag_139:\n        /* \"AllContracts.sol\":9904:10710  function safeBetFor(address payable player, uint pick) public payable{... */\n      dup2\n      add\n      swap1\n      dup1\n      dup1\n      calldataload\n      0xffffffffffffffffffffffffffffffffffffffff\n      and\n      swap1\n      0x20\n      add\n      swap1\n      swap3\n      swap2\n      swap1\n      dup1\n      calldataload\n      swap1\n      0x20\n      add\n      swap1\n      swap3\n      swap2\n      swap1\n      pop\n      pop\n      pop\n      tag_140\n      jump\t// in\n    tag_138:\n      stop\n        /* \"AllContracts.sol\":6603:6652  mapping(address => bool) public gasFreeBetAllowed */\n    tag_30:\n      callvalue\n        /* \"--CODEGEN--\":8:17   */\n      dup1\n        /* \"--CODEGEN--\":5:7   */\n      iszero\n      tag_141\n      jumpi\n        /* \"--CODEGEN--\":30:31   */\n      0x00\n        /* \"--CODEGEN--\":27:28   */\n      dup1\n        /* \"--CODEGEN--\":20:32   */\n      revert\n        /* \"--CODEGEN--\":5:7   */\n    tag_141:\n        /* \"AllContracts.sol\":6603:6652  mapping(address => bool) public gasFreeBetAllowed */\n      pop\n      tag_142\n      0x04\n      dup1\n      calldatasize\n      sub\n        /* \"--CODEGEN--\":13:15   */\n      0x20\n        /* \"--CODEGEN--\":8:11   */\n      dup2\n        /* \"--CODEGEN--\":5:16   */\n      lt\n        /* \"--CODEGEN--\":2:4   */\n      iszero\n      tag_143\n      jumpi\n        /* \"--CODEGEN--\":29:30   */\n      0x00\n        /* \"--CODEGEN--\":26:27   */\n      dup1\n        /* \"--CODEGEN--\":19:31   */\n      revert\n        /* \"--CODEGEN--\":2:4   */\n    tag_143:\n        /* \"AllContracts.sol\":6603:6652  mapping(address => bool) public gasFreeBetAllowed */\n      dup2\n      add\n      swap1\n      dup1\n      dup1\n      calldataload\n      0xffffffffffffffffffffffffffffffffffffffff\n      and\n      swap1\n      0x20\n      add\n      swap1\n      swap3\n      swap2\n      swap1\n      pop\n      pop\n      pop\n      tag_144\n      jump\t// in\n    tag_142:\n      mload(0x40)\n      dup1\n      dup3\n      iszero\n      iszero\n      iszero\n      iszero\n      dup2\n      mstore\n      0x20\n      add\n      swap2\n      pop\n      pop\n      mload(0x40)\n      dup1\n      swap2\n      sub\n      swap1\n      return\n        /* \"AllContracts.sol\":1844:2084  function transferOwnership(address newOwner) public virtual onlyOwner {... */\n    tag_31:\n      callvalue\n        /* \"--CODEGEN--\":8:17   */\n      dup1\n        /* \"--CODEGEN--\":5:7   */\n      iszero\n      tag_145\n      jumpi\n        /* \"--CODEGEN--\":30:31   */\n      0x00\n        /* \"--CODEGEN--\":27:28   */\n      dup1\n        /* \"--CODEGEN--\":20:32   */\n      revert\n        /* \"--CODEGEN--\":5:7   */\n    tag_145:\n        /* \"AllContracts.sol\":1844:2084  function transferOwnership(address newOwner) public virtual onlyOwner {... */\n      pop\n      tag_146\n      0x04\n      dup1\n      calldatasize\n      sub\n        /* \"--CODEGEN--\":13:15   */\n      0x20\n        /* \"--CODEGEN--\":8:11   */\n      dup2\n        /* \"--CODEGEN--\":5:16   */\n      lt\n        /* \"--CODEGEN--\":2:4   */\n      iszero\n      tag_147\n      jumpi\n        /* \"--CODEGEN--\":29:30   */\n      0x00\n        /* \"--CODEGEN--\":26:27   */\n      dup1\n        /* \"--CODEGEN--\":19:31   */\n      revert\n        /* \"--CODEGEN--\":2:4   */\n    tag_147:\n        /* \"AllContracts.sol\":1844:2084  function transferOwnership(address newOwner) public virtual onlyOwner {... */\n      dup2\n      add\n      swap1\n      dup1\n      dup1\n      calldataload\n      0xffffffffffffffffffffffffffffffffffffffff\n      and\n      swap1\n      0x20\n      add\n      swap1\n      swap3\n      swap2\n      swap1\n      pop\n      pop\n      pop\n      tag_148\n      jump\t// in\n    tag_146:\n      stop\n        /* \"AllContracts.sol\":18957:19040  function replayGame(uint gameID) public onlyOwner {... */\n    tag_32:\n      callvalue\n        /* \"--CODEGEN--\":8:17   */\n      dup1\n        /* \"--CODEGEN--\":5:7   */\n      iszero\n      tag_149\n      jumpi\n        /* \"--CODEGEN--\":30:31   */\n      0x00\n        /* \"--CODEGEN--\":27:28   */\n      dup1\n        /* \"--CODEGEN--\":20:32   */\n      revert\n        /* \"--CODEGEN--\":5:7   */\n    tag_149:\n        /* \"AllContracts.sol\":18957:19040  function replayGame(uint gameID) public onlyOwner {... */\n      pop\n      tag_150\n      0x04\n      dup1\n      calldatasize\n      sub\n        /* \"--CODEGEN--\":13:15   */\n      0x20\n        /* \"--CODEGEN--\":8:11   */\n      dup2\n        /* \"--CODEGEN--\":5:16   */\n      lt\n        /* \"--CODEGEN--\":2:4   */\n      iszero\n      tag_151\n      jumpi\n        /* \"--CODEGEN--\":29:30   */\n      0x00\n        /* \"--CODEGEN--\":26:27   */\n      dup1\n        /* \"--CODEGEN--\":19:31   */\n      revert\n        /* \"--CODEGEN--\":2:4   */\n    tag_151:\n        /* \"AllContracts.sol\":18957:19040  function replayGame(uint gameID) public onlyOwner {... */\n      dup2\n      add\n      swap1\n      dup1\n      dup1\n      calldataload\n      swap1\n      0x20\n      add\n      swap1\n      swap3\n      swap2\n      swap1\n      pop\n      pop\n      pop\n      tag_152\n      jump\t// in\n    tag_150:\n      stop\n        /* \"AllContracts.sol\":8618:8767  function betPayable(uint bet) public view returns(bool){... */\n    tag_45:\n        /* \"AllContracts.sol\":8668:8672  bool */\n      0x00\n        /* \"AllContracts.sol\":8735:8759  bet.mul(payout).add(bet) */\n      tag_154\n        /* \"AllContracts.sol\":8755:8758  bet */\n      dup3\n        /* \"AllContracts.sol\":8735:8750  bet.mul(payout) */\n      tag_155\n        /* \"AllContracts.sol\":8743:8749  payout */\n      sload(0x17)\n        /* \"AllContracts.sol\":8735:8738  bet */\n      dup6\n        /* \"AllContracts.sol\":8735:8742  bet.mul */\n      tag_156\n      swap1\n        /* \"AllContracts.sol\":8735:8750  bet.mul(payout) */\n      swap2\n      swap1\n      0xffffffff\n      and\n      jump\t// in\n    tag_155:\n        /* \"AllContracts.sol\":8735:8754  bet.mul(payout).add */\n      tag_157\n      swap1\n        /* \"AllContracts.sol\":8735:8759  bet.mul(payout).add(bet) */\n      swap2\n      swap1\n      0xffffffff\n      and\n      jump\t// in\n    tag_154:\n        /* \"AllContracts.sol\":8691:8731  address(this).balance.sub(_unplayedBets) */\n      tag_158\n        /* \"AllContracts.sol\":8717:8730  _unplayedBets */\n      sload(0x14)\n        /* \"AllContracts.sol\":8691:8712  address(this).balance */\n      selfbalance\n        /* \"AllContracts.sol\":8691:8716  address(this).balance.sub */\n      tag_159\n      swap1\n        /* \"AllContracts.sol\":8691:8731  address(this).balance.sub(_unplayedBets) */\n      swap2\n      swap1\n      0xffffffff\n      and\n      jump\t// in\n    tag_158:\n        /* \"AllContracts.sol\":8691:8759  address(this).balance.sub(_unplayedBets) >= bet.mul(payout).add(bet) */\n      lt\n      iszero\n        /* \"AllContracts.sol\":8683:8760  return (address(this).balance.sub(_unplayedBets) >= bet.mul(payout).add(bet)) */\n      swap1\n      pop\n        /* \"AllContracts.sol\":8618:8767  function betPayable(uint bet) public view returns(bool){... */\n      swap2\n      swap1\n      pop\n      jump\t// out\n        /* \"AllContracts.sol\":6659:6693  mapping(uint => Game) public games */\n    tag_49:\n      mstore(0x20, 0x1a)\n      dup1\n      0x00\n      mstore\n      keccak256(0x00, 0x40)\n      0x00\n      swap2\n      pop\n      swap1\n      pop\n      dup1\n      0x00\n      add\n      sload\n      swap1\n      dup1\n      0x01\n      add\n      0x00\n      swap1\n      sload\n      swap1\n      0x0100\n      exp\n      swap1\n      div\n      0xffffffffffffffffffffffffffffffffffffffff\n      and\n      swap1\n      dup1\n      0x02\n      add\n      sload\n      swap1\n      dup1\n      0x03\n      add\n      sload\n      swap1\n      dup1\n      0x04\n      add\n      sload\n      swap1\n      dup1\n      0x05\n      add\n      0x00\n      swap1\n      sload\n      swap1\n      0x0100\n      exp\n      swap1\n      div\n      0xff\n      and\n      swap1\n      pop\n      dup7\n      jump\t// out\n        /* \"AllContracts.sol\":6323:6341  uint public maxBet */\n    tag_52:\n      sload(0x12)\n      dup2\n      jump\t// out\n        /* \"AllContracts.sol\":6298:6317  uint public maxPick */\n    tag_55:\n      sload(0x11)\n      dup2\n      jump\t// out\n        /* \"AllContracts.sol\":17913:18035  function setPayoutAddress(address payable _payoutAddress) public onlyOwner {... */\n    tag_59:\n        /* \"AllContracts.sol\":1141:1153  _msgSender() */\n      tag_161\n        /* \"AllContracts.sol\":1141:1151  _msgSender */\n      tag_162\n        /* \"AllContracts.sol\":1141:1153  _msgSender() */\n      jump\t// in\n    tag_161:\n        /* \"AllContracts.sol\":1131:1153  _owner == _msgSender() */\n      0xffffffffffffffffffffffffffffffffffffffff\n      and\n        /* \"AllContracts.sol\":1131:1137  _owner */\n      0x03\n      0x00\n      swap1\n      sload\n      swap1\n      0x0100\n      exp\n      swap1\n      div\n      0xffffffffffffffffffffffffffffffffffffffff\n      and\n        /* \"AllContracts.sol\":1131:1153  _owner == _msgSender() */\n      0xffffffffffffffffffffffffffffffffffffffff\n      and\n      eq\n        /* \"AllContracts.sol\":1123:1190  require(_owner == _msgSender(), \"Ownable: caller is not the owner\") */\n      tag_163\n      jumpi\n      mload(0x40)\n      0x08c379a000000000000000000000000000000000000000000000000000000000\n      dup2\n      mstore\n      0x04\n      add\n      dup1\n      dup1\n      0x20\n      add\n      dup3\n      dup2\n      sub\n      dup3\n      mstore\n      0x20\n      dup2\n      mstore\n      0x20\n      add\n      dup1\n      0x4f776e61626c653a2063616c6c6572206973206e6f7420746865206f776e6572\n      dup2\n      mstore\n      pop\n      0x20\n      add\n      swap2\n      pop\n      pop\n      mload(0x40)\n      dup1\n      swap2\n      sub\n      swap1\n      revert\n    tag_163:\n        /* \"AllContracts.sol\":18014:18028  _payoutAddress */\n      dup1\n        /* \"AllContracts.sol\":17998:18011  payoutAddress */\n      0x16\n      0x00\n        /* \"AllContracts.sol\":17998:18028  payoutAddress = _payoutAddress */\n      0x0100\n      exp\n      dup2\n      sload\n      dup2\n      0xffffffffffffffffffffffffffffffffffffffff\n      mul\n      not\n      and\n      swap1\n      dup4\n      0xffffffffffffffffffffffffffffffffffffffff\n      and\n      mul\n      or\n      swap1\n      sstore\n      pop\n        /* \"AllContracts.sol\":17913:18035  function setPayoutAddress(address payable _payoutAddress) public onlyOwner {... */\n      pop\n      jump\t// out\n        /* \"AllContracts.sol\":6548:6597  mapping(address => bool) public authorizedAddress */\n    tag_63:\n      mstore(0x20, 0x18)\n      dup1\n      0x00\n      mstore\n      keccak256(0x00, 0x40)\n      0x00\n      swap2\n      pop\n      sload\n      swap1\n      0x0100\n      exp\n      swap1\n      div\n      0xff\n      and\n      dup2\n      jump\t// out\n        /* \"AllContracts.sol\":14355:14519  function getSummary() public view returns(uint, uint, uint, uint) {... */\n    tag_66:\n        /* \"AllContracts.sol\":14397:14401  uint */\n      0x00\n        /* \"AllContracts.sol\":14403:14407  uint */\n      dup1\n        /* \"AllContracts.sol\":14409:14413  uint */\n      0x00\n        /* \"AllContracts.sol\":14415:14419  uint */\n      dup1\n        /* \"AllContracts.sol\":14480:14486  minBet */\n      sload(0x13)\n        /* \"AllContracts.sol\":14488:14494  maxBet */\n      sload(0x12)\n        /* \"AllContracts.sol\":14496:14502  payout */\n      sload(0x17)\n        /* \"AllContracts.sol\":14504:14511  maxPick */\n      sload(0x11)\n        /* \"AllContracts.sol\":14473:14512  return(minBet, maxBet, payout, maxPick) */\n      swap4\n      pop\n      swap4\n      pop\n      swap4\n      pop\n      swap4\n      pop\n        /* \"AllContracts.sol\":14355:14519  function getSummary() public view returns(uint, uint, uint, uint) {... */\n      swap1\n      swap2\n      swap3\n      swap4\n      jump\t// out\n        /* \"AllContracts.sol\":17041:17159  function setVRFCoordinator(address _vrfCoordinator) public onlyOwner {... */\n    tag_70:\n        /* \"AllContracts.sol\":1141:1153  _msgSender() */\n      tag_167\n        /* \"AllContracts.sol\":1141:1151  _msgSender */\n      tag_162\n        /* \"AllContracts.sol\":1141:1153  _msgSender() */\n      jump\t// in\n    tag_167:\n        /* \"AllContracts.sol\":1131:1153  _owner == _msgSender() */\n      0xffffffffffffffffffffffffffffffffffffffff\n      and\n        /* \"AllContracts.sol\":1131:1137  _owner */\n      0x03\n      0x00\n      swap1\n      sload\n      swap1\n      0x0100\n      exp\n      swap1\n      div\n      0xffffffffffffffffffffffffffffffffffffffff\n      and\n        /* \"AllContracts.sol\":1131:1153  _owner == _msgSender() */\n      0xffffffffffffffffffffffffffffffffffffffff\n      and\n      eq\n        /* \"AllContracts.sol\":1123:1190  require(_owner == _msgSender(), \"Ownable: caller is not the owner\") */\n      tag_168\n      jumpi\n      mload(0x40)\n      0x08c379a000000000000000000000000000000000000000000000000000000000\n      dup2\n      mstore\n      0x04\n      add\n      dup1\n      dup1\n      0x20\n      add\n      dup3\n      dup2\n      sub\n      dup3\n      mstore\n      0x20\n      dup2\n      mstore\n      0x20\n      add\n      dup1\n      0x4f776e61626c653a2063616c6c6572206973206e6f7420746865206f776e6572\n      dup2\n      mstore\n      pop\n      0x20\n      add\n      swap2\n      pop\n      pop\n      mload(0x40)\n      dup1\n      swap2\n      sub\n      swap1\n      revert\n    tag_168:\n        /* \"AllContracts.sol\":17137:17152  _vrfCoordinator */\n      dup1\n        /* \"AllContracts.sol\":17120:17134  vrfCoordinator */\n      0x01\n      0x00\n        /* \"AllContracts.sol\":17120:17152  vrfCoordinator = _vrfCoordinator */\n      0x0100\n      exp\n      dup2\n      sload\n      dup2\n      0xffffffffffffffffffffffffffffffffffffffff\n      mul\n      not\n      and\n      swap1\n      dup4\n      0xffffffffffffffffffffffffffffffffffffffff\n      and\n      mul\n      or\n      swap1\n      sstore\n      pop\n        /* \"AllContracts.sol\":17041:17159  function setVRFCoordinator(address _vrfCoordinator) public onlyOwner {... */\n      pop\n      jump\t// out\n        /* \"AllContracts.sol\":8036:8140  function getLinkBalance() public view returns(uint){... */\n    tag_73:\n        /* \"AllContracts.sol\":8082:8086  uint */\n      0x00\n        /* \"AllContracts.sol\":8104:8108  LINK */\n      dup1\n      0x00\n      swap1\n      sload\n      swap1\n      0x0100\n      exp\n      swap1\n      div\n      0xffffffffffffffffffffffffffffffffffffffff\n      and\n        /* \"AllContracts.sol\":8104:8118  LINK.balanceOf */\n      0xffffffffffffffffffffffffffffffffffffffff\n      and\n      0x70a08231\n        /* \"AllContracts.sol\":8127:8131  this */\n      address\n        /* \"AllContracts.sol\":8104:8133  LINK.balanceOf(address(this)) */\n      mload(0x40)\n      dup3\n      0xffffffff\n      and\n      0xe0\n      shl\n      dup2\n      mstore\n      0x04\n      add\n      dup1\n      dup3\n      0xffffffffffffffffffffffffffffffffffffffff\n      and\n      0xffffffffffffffffffffffffffffffffffffffff\n      and\n      dup2\n      mstore\n      0x20\n      add\n      swap2\n      pop\n      pop\n      0x20\n      mload(0x40)\n      dup1\n      dup4\n      sub\n      dup2\n      dup7\n      dup1\n      extcodesize\n      iszero\n        /* \"--CODEGEN--\":8:17   */\n      dup1\n        /* \"--CODEGEN--\":5:7   */\n      iszero\n      tag_171\n      jumpi\n        /* \"--CODEGEN--\":30:31   */\n      0x00\n        /* \"--CODEGEN--\":27:28   */\n      dup1\n        /* \"--CODEGEN--\":20:32   */\n      revert\n        /* \"--CODEGEN--\":5:7   */\n    tag_171:\n        /* \"AllContracts.sol\":8104:8133  LINK.balanceOf(address(this)) */\n      pop\n      gas\n      staticcall\n      iszero\n        /* \"--CODEGEN--\":8:17   */\n      dup1\n        /* \"--CODEGEN--\":5:7   */\n      iszero\n      tag_173\n      jumpi\n        /* \"--CODEGEN--\":45:61   */\n      returndatasize\n        /* \"--CODEGEN--\":42:43   */\n      0x00\n        /* \"--CODEGEN--\":39:40   */\n      dup1\n        /* \"--CODEGEN--\":24:62   */\n      returndatacopy\n        /* \"--CODEGEN--\":77:93   */\n      returndatasize\n        /* \"--CODEGEN--\":74:75   */\n      0x00\n        /* \"--CODEGEN--\":67:94   */\n      revert\n        /* \"--CODEGEN--\":5:7   */\n    tag_173:\n        /* \"AllContracts.sol\":8104:8133  LINK.balanceOf(address(this)) */\n      pop\n      pop\n      pop\n      pop\n      mload(0x40)\n      returndatasize\n        /* \"--CODEGEN--\":13:15   */\n      0x20\n        /* \"--CODEGEN--\":8:11   */\n      dup2\n        /* \"--CODEGEN--\":5:16   */\n      lt\n        /* \"--CODEGEN--\":2:4   */\n      iszero\n      tag_174\n      jumpi\n        /* \"--CODEGEN--\":29:30   */\n      0x00\n        /* \"--CODEGEN--\":26:27   */\n      dup1\n        /* \"--CODEGEN--\":19:31   */\n      revert\n        /* \"--CODEGEN--\":2:4   */\n    tag_174:\n        /* \"AllContracts.sol\":8104:8133  LINK.balanceOf(address(this)) */\n      dup2\n      add\n      swap1\n      dup1\n      dup1\n      mload\n      swap1\n      0x20\n      add\n      swap1\n      swap3\n      swap2\n      swap1\n      pop\n      pop\n      pop\n        /* \"AllContracts.sol\":8097:8133  return LINK.balanceOf(address(this)) */\n      swap1\n      pop\n        /* \"AllContracts.sol\":8036:8140  function getLinkBalance() public view returns(uint){... */\n      swap1\n      jump\t// out\n        /* \"AllContracts.sol\":6434:6470  address payable public payoutAddress */\n    tag_76:\n      0x16\n      0x00\n      swap1\n      sload\n      swap1\n      0x0100\n      exp\n      swap1\n      div\n      0xffffffffffffffffffffffffffffffffffffffff\n      and\n      dup2\n      jump\t// out\n        /* \"AllContracts.sol\":6476:6494  uint public payout */\n    tag_79:\n      sload(0x17)\n      dup2\n      jump\t// out\n        /* \"AllContracts.sol\":1550:1695  function renounceOwnership() public virtual onlyOwner {... */\n    tag_82:\n        /* \"AllContracts.sol\":1141:1153  _msgSender() */\n      tag_176\n        /* \"AllContracts.sol\":1141:1151  _msgSender */\n      tag_162\n        /* \"AllContracts.sol\":1141:1153  _msgSender() */\n      jump\t// in\n    tag_176:\n        /* \"AllContracts.sol\":1131:1153  _owner == _msgSender() */\n      0xffffffffffffffffffffffffffffffffffffffff\n      and\n        /* \"AllContracts.sol\":1131:1137  _owner */\n      0x03\n      0x00\n      swap1\n      sload\n      swap1\n      0x0100\n      exp\n      swap1\n      div\n      0xffffffffffffffffffffffffffffffffffffffff\n      and\n        /* \"AllContracts.sol\":1131:1153  _owner == _msgSender() */\n      0xffffffffffffffffffffffffffffffffffffffff\n      and\n      eq\n        /* \"AllContracts.sol\":1123:1190  require(_owner == _msgSender(), \"Ownable: caller is not the owner\") */\n      tag_177\n      jumpi\n      mload(0x40)\n      0x08c379a000000000000000000000000000000000000000000000000000000000\n      dup2\n      mstore\n      0x04\n      add\n      dup1\n      dup1\n      0x20\n      add\n      dup3\n      dup2\n      sub\n      dup3\n      mstore\n      0x20\n      dup2\n      mstore\n      0x20\n      add\n      dup1\n      0x4f776e61626c653a2063616c6c6572206973206e6f7420746865206f776e6572\n      dup2\n      mstore\n      pop\n      0x20\n      add\n      swap2\n      pop\n      pop\n      mload(0x40)\n      dup1\n      swap2\n      sub\n      swap1\n      revert\n    tag_177:\n        /* \"AllContracts.sol\":1656:1657  0 */\n      0x00\n        /* \"AllContracts.sol\":1619:1659  OwnershipTransferred(_owner, address(0)) */\n      0xffffffffffffffffffffffffffffffffffffffff\n      and\n        /* \"AllContracts.sol\":1640:1646  _owner */\n      0x03\n      0x00\n      swap1\n      sload\n      swap1\n      0x0100\n      exp\n      swap1\n      div\n      0xffffffffffffffffffffffffffffffffffffffff\n      and\n        /* \"AllContracts.sol\":1619:1659  OwnershipTransferred(_owner, address(0)) */\n      0xffffffffffffffffffffffffffffffffffffffff\n      and\n      0x8be0079c531659141344cd1fd0a4f28419497f9722a3daafe3b4186f6b6457e0\n      mload(0x40)\n      mload(0x40)\n      dup1\n      swap2\n      sub\n      swap1\n      log3\n        /* \"AllContracts.sol\":1686:1687  0 */\n      0x00\n        /* \"AllContracts.sol\":1669:1675  _owner */\n      0x03\n      0x00\n        /* \"AllContracts.sol\":1669:1688  _owner = address(0) */\n      0x0100\n      exp\n      dup2\n      sload\n      dup2\n      0xffffffffffffffffffffffffffffffffffffffff\n      mul\n      not\n      and\n      swap1\n      dup4\n      0xffffffffffffffffffffffffffffffffffffffff\n      and\n      mul\n      or\n      swap1\n      sstore\n      pop\n        /* \"AllContracts.sol\":1550:1695  function renounceOwnership() public virtual onlyOwner {... */\n      jump\t// out\n        /* \"AllContracts.sol\":16427:16537  function withdrawLink(uint amount) public onlyAuthorized {... */\n    tag_86:\n        /* \"AllContracts.sol\":7940:7950  msg.sender */\n      caller\n        /* \"AllContracts.sol\":7929:7950  owner() == msg.sender */\n      0xffffffffffffffffffffffffffffffffffffffff\n      and\n        /* \"AllContracts.sol\":7929:7936  owner() */\n      tag_180\n        /* \"AllContracts.sol\":7929:7934  owner */\n      tag_89\n        /* \"AllContracts.sol\":7929:7936  owner() */\n      jump\t// in\n    tag_180:\n        /* \"AllContracts.sol\":7929:7950  owner() == msg.sender */\n      0xffffffffffffffffffffffffffffffffffffffff\n      and\n      eq\n        /* \"AllContracts.sol\":7929:7983  owner() == msg.sender || authorizedAddress[msg.sender] */\n      dup1\n      tag_181\n      jumpi\n      pop\n        /* \"AllContracts.sol\":7954:7971  authorizedAddress */\n      0x18\n        /* \"AllContracts.sol\":7954:7983  authorizedAddress[msg.sender] */\n      0x00\n        /* \"AllContracts.sol\":7972:7982  msg.sender */\n      caller\n        /* \"AllContracts.sol\":7954:7983  authorizedAddress[msg.sender] */\n      0xffffffffffffffffffffffffffffffffffffffff\n      and\n      0xffffffffffffffffffffffffffffffffffffffff\n      and\n      dup2\n      mstore\n      0x20\n      add\n      swap1\n      dup2\n      mstore\n      0x20\n      add\n      0x00\n      keccak256\n      0x00\n      swap1\n      sload\n      swap1\n      0x0100\n      exp\n      swap1\n      div\n      0xff\n      and\n        /* \"AllContracts.sol\":7929:7983  owner() == msg.sender || authorizedAddress[msg.sender] */\n    tag_181:\n        /* \"AllContracts.sol\":7921:8012  require(owner() == msg.sender || authorizedAddress[msg.sender], \"caller is not authorized\") */\n      tag_182\n      jumpi\n      mload(0x40)\n      0x08c379a000000000000000000000000000000000000000000000000000000000\n      dup2\n      mstore\n      0x04\n      add\n      dup1\n      dup1\n      0x20\n      add\n      dup3\n      dup2\n      sub\n      dup3\n      mstore\n      0x18\n      dup2\n      mstore\n      0x20\n      add\n      dup1\n      0x63616c6c6572206973206e6f7420617574686f72697a65640000000000000000\n      dup2\n      mstore\n      pop\n      0x20\n      add\n      swap2\n      pop\n      pop\n      mload(0x40)\n      dup1\n      swap2\n      sub\n      swap1\n      revert\n    tag_182:\n        /* \"AllContracts.sol\":16494:16498  LINK */\n      0x00\n      dup1\n      swap1\n      sload\n      swap1\n      0x0100\n      exp\n      swap1\n      div\n      0xffffffffffffffffffffffffffffffffffffffff\n      and\n        /* \"AllContracts.sol\":16494:16507  LINK.transfer */\n      0xffffffffffffffffffffffffffffffffffffffff\n      and\n      0xa9059cbb\n        /* \"AllContracts.sol\":16508:16521  payoutAddress */\n      0x16\n      0x00\n      swap1\n      sload\n      swap1\n      0x0100\n      exp\n      swap1\n      div\n      0xffffffffffffffffffffffffffffffffffffffff\n      and\n        /* \"AllContracts.sol\":16523:16529  amount */\n      dup4\n        /* \"AllContracts.sol\":16494:16530  LINK.transfer(payoutAddress, amount) */\n      mload(0x40)\n      dup4\n      0xffffffff\n      and\n      0xe0\n      shl\n      dup2\n      mstore\n      0x04\n      add\n      dup1\n      dup4\n      0xffffffffffffffffffffffffffffffffffffffff\n      and\n      0xffffffffffffffffffffffffffffffffffffffff\n      and\n      dup2\n      mstore\n      0x20\n      add\n      dup3\n      dup2\n      mstore\n      0x20\n      add\n      swap3\n      pop\n      pop\n      pop\n      0x20\n      mload(0x40)\n      dup1\n      dup4\n      sub\n      dup2\n      0x00\n      dup8\n      dup1\n      extcodesize\n      iszero\n        /* \"--CODEGEN--\":8:17   */\n      dup1\n        /* \"--CODEGEN--\":5:7   */\n      iszero\n      tag_184\n      jumpi\n        /* \"--CODEGEN--\":30:31   */\n      0x00\n        /* \"--CODEGEN--\":27:28   */\n      dup1\n        /* \"--CODEGEN--\":20:32   */\n      revert\n        /* \"--CODEGEN--\":5:7   */\n    tag_184:\n        /* \"AllContracts.sol\":16494:16530  LINK.transfer(payoutAddress, amount) */\n      pop\n      gas\n      call\n      iszero\n        /* \"--CODEGEN--\":8:17   */\n      dup1\n        /* \"--CODEGEN--\":5:7   */\n      iszero\n      tag_186\n      jumpi\n        /* \"--CODEGEN--\":45:61   */\n      returndatasize\n        /* \"--CODEGEN--\":42:43   */\n      0x00\n        /* \"--CODEGEN--\":39:40   */\n      dup1\n        /* \"--CODEGEN--\":24:62   */\n      returndatacopy\n        /* \"--CODEGEN--\":77:93   */\n      returndatasize\n        /* \"--CODEGEN--\":74:75   */\n      0x00\n        /* \"--CODEGEN--\":67:94   */\n      revert\n        /* \"--CODEGEN--\":5:7   */\n    tag_186:\n        /* \"AllContracts.sol\":16494:16530  LINK.transfer(payoutAddress, amount) */\n      pop\n      pop\n      pop\n      pop\n      mload(0x40)\n      returndatasize\n        /* \"--CODEGEN--\":13:15   */\n      0x20\n        /* \"--CODEGEN--\":8:11   */\n      dup2\n        /* \"--CODEGEN--\":5:16   */\n      lt\n        /* \"--CODEGEN--\":2:4   */\n      iszero\n      tag_187\n      jumpi\n        /* \"--CODEGEN--\":29:30   */\n      0x00\n        /* \"--CODEGEN--\":26:27   */\n      dup1\n        /* \"--CODEGEN--\":19:31   */\n      revert\n        /* \"--CODEGEN--\":2:4   */\n    tag_187:\n        /* \"AllContracts.sol\":16494:16530  LINK.transfer(payoutAddress, amount) */\n      dup2\n      add\n      swap1\n      dup1\n      dup1\n      mload\n      swap1\n      0x20\n      add\n      swap1\n      swap3\n      swap2\n      swap1\n      pop\n      pop\n      pop\n      pop\n        /* \"AllContracts.sol\":16427:16537  function withdrawLink(uint amount) public onlyAuthorized {... */\n      pop\n      jump\t// out\n        /* \"AllContracts.sol\":927:1004  function owner() public view returns (address) {... */\n    tag_89:\n        /* \"AllContracts.sol\":965:972  address */\n      0x00\n        /* \"AllContracts.sol\":991:997  _owner */\n      0x03\n      0x00\n      swap1\n      sload\n      swap1\n      0x0100\n      exp\n      swap1\n      div\n      0xffffffffffffffffffffffffffffffffffffffff\n      and\n        /* \"AllContracts.sol\":984:997  return _owner */\n      swap1\n      pop\n        /* \"AllContracts.sol\":927:1004  function owner() public view returns (address) {... */\n      swap1\n      jump\t// out\n        /* \"AllContracts.sol\":5522:5729  function rawFulfillRandomness(bytes32 requestId, uint256 randomness) external {... */\n    tag_93:\n        /* \"AllContracts.sol\":5628:5642  vrfCoordinator */\n      0x01\n      0x00\n      swap1\n      sload\n      swap1\n      0x0100\n      exp\n      swap1\n      div\n      0xffffffffffffffffffffffffffffffffffffffff\n      and\n        /* \"AllContracts.sol\":5614:5642  msg.sender == vrfCoordinator */\n      0xffffffffffffffffffffffffffffffffffffffff\n      and\n        /* \"AllContracts.sol\":5614:5624  msg.sender */\n      caller\n        /* \"AllContracts.sol\":5614:5642  msg.sender == vrfCoordinator */\n      0xffffffffffffffffffffffffffffffffffffffff\n      and\n      eq\n        /* \"AllContracts.sol\":5606:5678  require(msg.sender == vrfCoordinator, \"Only VRFCoordinator can fulfill\") */\n      tag_190\n      jumpi\n      mload(0x40)\n      0x08c379a000000000000000000000000000000000000000000000000000000000\n      dup2\n      mstore\n      0x04\n      add\n      dup1\n      dup1\n      0x20\n      add\n      dup3\n      dup2\n      sub\n      dup3\n      mstore\n      0x1f\n      dup2\n      mstore\n      0x20\n      add\n      dup1\n      0x4f6e6c7920565246436f6f7264696e61746f722063616e2066756c66696c6c00\n      dup2\n      mstore\n      pop\n      0x20\n      add\n      swap2\n      pop\n      pop\n      mload(0x40)\n      dup1\n      swap2\n      sub\n      swap1\n      revert\n    tag_190:\n        /* \"AllContracts.sol\":5684:5724  fulfillRandomness(requestId, randomness) */\n      tag_191\n        /* \"AllContracts.sol\":5702:5711  requestId */\n      dup3\n        /* \"AllContracts.sol\":5713:5723  randomness */\n      dup3\n        /* \"AllContracts.sol\":5684:5701  fulfillRandomness */\n      tag_192\n        /* \"AllContracts.sol\":5684:5724  fulfillRandomness(requestId, randomness) */\n      jump\t// in\n    tag_191:\n        /* \"AllContracts.sol\":5522:5729  function rawFulfillRandomness(bytes32 requestId, uint256 randomness) external {... */\n      pop\n      pop\n      jump\t// out\n        /* \"AllContracts.sol\":15752:15977  function allowGasFreeBet(address[] memory userAddresses, bool allowed) public onlyAuthorized{... */\n    tag_100:\n        /* \"AllContracts.sol\":7940:7950  msg.sender */\n      caller\n        /* \"AllContracts.sol\":7929:7950  owner() == msg.sender */\n      0xffffffffffffffffffffffffffffffffffffffff\n      and\n        /* \"AllContracts.sol\":7929:7936  owner() */\n      tag_194\n        /* \"AllContracts.sol\":7929:7934  owner */\n      tag_89\n        /* \"AllContracts.sol\":7929:7936  owner() */\n      jump\t// in\n    tag_194:\n        /* \"AllContracts.sol\":7929:7950  owner() == msg.sender */\n      0xffffffffffffffffffffffffffffffffffffffff\n      and\n      eq\n        /* \"AllContracts.sol\":7929:7983  owner() == msg.sender || authorizedAddress[msg.sender] */\n      dup1\n      tag_195\n      jumpi\n      pop\n        /* \"AllContracts.sol\":7954:7971  authorizedAddress */\n      0x18\n        /* \"AllContracts.sol\":7954:7983  authorizedAddress[msg.sender] */\n      0x00\n        /* \"AllContracts.sol\":7972:7982  msg.sender */\n      caller\n        /* \"AllContracts.sol\":7954:7983  authorizedAddress[msg.sender] */\n      0xffffffffffffffffffffffffffffffffffffffff\n      and\n      0xffffffffffffffffffffffffffffffffffffffff\n      and\n      dup2\n      mstore\n      0x20\n      add\n      swap1\n      dup2\n      mstore\n      0x20\n      add\n      0x00\n      keccak256\n      0x00\n      swap1\n      sload\n      swap1\n      0x0100\n      exp\n      swap1\n      div\n      0xff\n      and\n        /* \"AllContracts.sol\":7929:7983  owner() == msg.sender || authorizedAddress[msg.sender] */\n    tag_195:\n        /* \"AllContracts.sol\":7921:8012  require(owner() == msg.sender || authorizedAddress[msg.sender], \"caller is not authorized\") */\n      tag_196\n      jumpi\n      mload(0x40)\n      0x08c379a000000000000000000000000000000000000000000000000000000000\n      dup2\n      mstore\n      0x04\n      add\n      dup1\n      dup1\n      0x20\n      add\n      dup3\n      dup2\n      sub\n      dup3\n      mstore\n      0x18\n      dup2\n      mstore\n      0x20\n      add\n      dup1\n      0x63616c6c6572206973206e6f7420617574686f72697a65640000000000000000\n      dup2\n      mstore\n      pop\n      0x20\n      add\n      swap2\n      pop\n      pop\n      mload(0x40)\n      dup1\n      swap2\n      sub\n      swap1\n      revert\n    tag_196:\n        /* \"AllContracts.sol\":15859:15865  uint i */\n      0x00\n        /* \"AllContracts.sol\":15868:15869  0 */\n      dup1\n        /* \"AllContracts.sol\":15859:15869  uint i = 0 */\n      swap1\n      pop\n        /* \"AllContracts.sol\":15854:15971  for (uint i = 0; i < userAddresses.length; i++){... */\n    tag_198:\n        /* \"AllContracts.sol\":15875:15888  userAddresses */\n      dup3\n        /* \"AllContracts.sol\":15875:15895  userAddresses.length */\n      mload\n        /* \"AllContracts.sol\":15871:15872  i */\n      dup2\n        /* \"AllContracts.sol\":15871:15895  i < userAddresses.length */\n      lt\n        /* \"AllContracts.sol\":15854:15971  for (uint i = 0; i < userAddresses.length; i++){... */\n      iszero\n      tag_199\n      jumpi\n        /* \"AllContracts.sol\":15953:15960  allowed */\n      dup2\n        /* \"AllContracts.sol\":15915:15932  gasFreeBetAllowed */\n      0x19\n        /* \"AllContracts.sol\":15915:15950  gasFreeBetAllowed[userAddresses[i]] */\n      0x00\n        /* \"AllContracts.sol\":15933:15946  userAddresses */\n      dup6\n        /* \"AllContracts.sol\":15947:15948  i */\n      dup5\n        /* \"AllContracts.sol\":15933:15949  userAddresses[i] */\n      dup2\n      mload\n      dup2\n      lt\n      tag_201\n      jumpi\n      invalid\n    tag_201:\n      0x20\n      mul\n      0x20\n      add\n      add\n      mload\n        /* \"AllContracts.sol\":15915:15950  gasFreeBetAllowed[userAddresses[i]] */\n      0xffffffffffffffffffffffffffffffffffffffff\n      and\n      0xffffffffffffffffffffffffffffffffffffffff\n      and\n      dup2\n      mstore\n      0x20\n      add\n      swap1\n      dup2\n      mstore\n      0x20\n      add\n      0x00\n      keccak256\n      0x00\n        /* \"AllContracts.sol\":15915:15960  gasFreeBetAllowed[userAddresses[i]] = allowed */\n      0x0100\n      exp\n      dup2\n      sload\n      dup2\n      0xff\n      mul\n      not\n      and\n      swap1\n      dup4\n      iszero\n      iszero\n      mul\n      or\n      swap1\n      sstore\n      pop\n        /* \"AllContracts.sol\":15897:15900  i++ */\n      dup1\n      dup1\n      0x01\n      add\n      swap2\n      pop\n      pop\n        /* \"AllContracts.sol\":15854:15971  for (uint i = 0; i < userAddresses.length; i++){... */\n      jump(tag_198)\n    tag_199:\n      pop\n        /* \"AllContracts.sol\":15752:15977  function allowGasFreeBet(address[] memory userAddresses, bool allowed) public onlyAuthorized{... */\n      pop\n      pop\n      jump\t// out\n        /* \"AllContracts.sol\":6347:6365  uint public minBet */\n    tag_103:\n      sload(0x13)\n      dup2\n      jump\t// out\n        /* \"AllContracts.sol\":17320:17410  function setKeyHash(bytes32 _keyHash) public onlyOwner {... */\n    tag_107:\n        /* \"AllContracts.sol\":1141:1153  _msgSender() */\n      tag_203\n        /* \"AllContracts.sol\":1141:1151  _msgSender */\n      tag_162\n        /* \"AllContracts.sol\":1141:1153  _msgSender() */\n      jump\t// in\n    tag_203:\n        /* \"AllContracts.sol\":1131:1153  _owner == _msgSender() */\n      0xffffffffffffffffffffffffffffffffffffffff\n      and\n        /* \"AllContracts.sol\":1131:1137  _owner */\n      0x03\n      0x00\n      swap1\n      sload\n      swap1\n      0x0100\n      exp\n      swap1\n      div\n      0xffffffffffffffffffffffffffffffffffffffff\n      and\n        /* \"AllContracts.sol\":1131:1153  _owner == _msgSender() */\n      0xffffffffffffffffffffffffffffffffffffffff\n      and\n      eq\n        /* \"AllContracts.sol\":1123:1190  require(_owner == _msgSender(), \"Ownable: caller is not the owner\") */\n      tag_204\n      jumpi\n      mload(0x40)\n      0x08c379a000000000000000000000000000000000000000000000000000000000\n      dup2\n      mstore\n      0x04\n      add\n      dup1\n      dup1\n      0x20\n      add\n      dup3\n      dup2\n      sub\n      dup3\n      mstore\n      0x20\n      dup2\n      mstore\n      0x20\n      add\n      dup1\n      0x4f776e61626c653a2063616c6c6572206973206e6f7420746865206f776e6572\n      dup2\n      mstore\n      pop\n      0x20\n      add\n      swap2\n      pop\n      pop\n      mload(0x40)\n      dup1\n      swap2\n      sub\n      swap1\n      revert\n    tag_204:\n        /* \"AllContracts.sol\":17395:17403  _keyHash */\n      dup1\n        /* \"AllContracts.sol\":17385:17392  keyHash */\n      0x04\n        /* \"AllContracts.sol\":17385:17403  keyHash = _keyHash */\n      dup2\n      swap1\n      sstore\n      pop\n        /* \"AllContracts.sol\":17320:17410  function setKeyHash(bytes32 _keyHash) public onlyOwner {... */\n      pop\n      jump\t// out\n        /* \"AllContracts.sol\":5307:5374  mapping(bytes32 /* keyHash */ => uint256 /* nonce */) public nonces */\n    tag_111:\n      mstore(0x20, 0x02)\n      dup1\n      0x00\n      mstore\n      keccak256(0x00, 0x40)\n      0x00\n      swap2\n      pop\n      swap1\n      pop\n      sload\n      dup2\n      jump\t// out\n        /* \"AllContracts.sol\":17600:17712  function setLINK(address _linkAddress) public onlyOwner {... */\n    tag_115:\n        /* \"AllContracts.sol\":1141:1153  _msgSender() */\n      tag_207\n        /* \"AllContracts.sol\":1141:1151  _msgSender */\n      tag_162\n        /* \"AllContracts.sol\":1141:1153  _msgSender() */\n      jump\t// in\n    tag_207:\n        /* \"AllContracts.sol\":1131:1153  _owner == _msgSender() */\n      0xffffffffffffffffffffffffffffffffffffffff\n      and\n        /* \"AllContracts.sol\":1131:1137  _owner */\n      0x03\n      0x00\n      swap1\n      sload\n      swap1\n      0x0100\n      exp\n      swap1\n      div\n      0xffffffffffffffffffffffffffffffffffffffff\n      and\n        /* \"AllContracts.sol\":1131:1153  _owner == _msgSender() */\n      0xffffffffffffffffffffffffffffffffffffffff\n      and\n      eq\n        /* \"AllContracts.sol\":1123:1190  require(_owner == _msgSender(), \"Ownable: caller is not the owner\") */\n      tag_208\n      jumpi\n      mload(0x40)\n      0x08c379a000000000000000000000000000000000000000000000000000000000\n      dup2\n      mstore\n      0x04\n      add\n      dup1\n      dup1\n      0x20\n      add\n      dup3\n      dup2\n      sub\n      dup3\n      mstore\n      0x20\n      dup2\n      mstore\n      0x20\n      add\n      dup1\n      0x4f776e61626c653a2063616c6c6572206973206e6f7420746865206f776e6572\n      dup2\n      mstore\n      pop\n      0x20\n      add\n      swap2\n      pop\n      pop\n      mload(0x40)\n      dup1\n      swap2\n      sub\n      swap1\n      revert\n    tag_208:\n        /* \"AllContracts.sol\":17692:17704  _linkAddress */\n      dup1\n        /* \"AllContracts.sol\":17666:17670  LINK */\n      0x00\n      dup1\n        /* \"AllContracts.sol\":17666:17705  LINK = LinkTokenInterface(_linkAddress) */\n      0x0100\n      exp\n      dup2\n      sload\n      dup2\n      0xffffffffffffffffffffffffffffffffffffffff\n      mul\n      not\n      and\n      swap1\n      dup4\n      0xffffffffffffffffffffffffffffffffffffffff\n      and\n      mul\n      or\n      swap1\n      sstore\n      pop\n        /* \"AllContracts.sol\":17600:17712  function setLINK(address _linkAddress) public onlyOwner {... */\n      pop\n      jump\t// out\n        /* \"AllContracts.sol\":16731:16873  function setAuthorizedUser(address userAddress, bool authorized) public onlyOwner {... */\n    tag_119:\n        /* \"AllContracts.sol\":1141:1153  _msgSender() */\n      tag_211\n        /* \"AllContracts.sol\":1141:1151  _msgSender */\n      tag_162\n        /* \"AllContracts.sol\":1141:1153  _msgSender() */\n      jump\t// in\n    tag_211:\n        /* \"AllContracts.sol\":1131:1153  _owner == _msgSender() */\n      0xffffffffffffffffffffffffffffffffffffffff\n      and\n        /* \"AllContracts.sol\":1131:1137  _owner */\n      0x03\n      0x00\n      swap1\n      sload\n      swap1\n      0x0100\n      exp\n      swap1\n      div\n      0xffffffffffffffffffffffffffffffffffffffff\n      and\n        /* \"AllContracts.sol\":1131:1153  _owner == _msgSender() */\n      0xffffffffffffffffffffffffffffffffffffffff\n      and\n      eq\n        /* \"AllContracts.sol\":1123:1190  require(_owner == _msgSender(), \"Ownable: caller is not the owner\") */\n      tag_212\n      jumpi\n      mload(0x40)\n      0x08c379a000000000000000000000000000000000000000000000000000000000\n      dup2\n      mstore\n      0x04\n      add\n      dup1\n      dup1\n      0x20\n      add\n      dup3\n      dup2\n      sub\n      dup3\n      mstore\n      0x20\n      dup2\n      mstore\n      0x20\n      add\n      dup1\n      0x4f776e61626c653a2063616c6c6572206973206e6f7420746865206f776e6572\n      dup2\n      mstore\n      pop\n      0x20\n      add\n      swap2\n      pop\n      pop\n      mload(0x40)\n      dup1\n      swap2\n      sub\n      swap1\n      revert\n    tag_212:\n        /* \"AllContracts.sol\":16856:16866  authorized */\n      dup1\n        /* \"AllContracts.sol\":16823:16840  authorizedAddress */\n      0x18\n        /* \"AllContracts.sol\":16823:16853  authorizedAddress[userAddress] */\n      0x00\n        /* \"AllContracts.sol\":16841:16852  userAddress */\n      dup5\n        /* \"AllContracts.sol\":16823:16853  authorizedAddress[userAddress] */\n      0xffffffffffffffffffffffffffffffffffffffff\n      and\n      0xffffffffffffffffffffffffffffffffffffffff\n      and\n      dup2\n      mstore\n      0x20\n      add\n      swap1\n      dup2\n      mstore\n      0x20\n      add\n      0x00\n      keccak256\n      0x00\n        /* \"AllContracts.sol\":16823:16866  authorizedAddress[userAddress] = authorized */\n      0x0100\n      exp\n      dup2\n      sload\n      dup2\n      0xff\n      mul\n      not\n      and\n      swap1\n      dup4\n      iszero\n      iszero\n      mul\n      or\n      swap1\n      sstore\n      pop\n        /* \"AllContracts.sol\":16731:16873  function setAuthorizedUser(address userAddress, bool authorized) public onlyOwner {... */\n      pop\n      pop\n      jump\t// out\n        /* \"AllContracts.sol\":14890:15488  function requestRefund(uint gameID) public{... */\n    tag_123:\n        /* \"AllContracts.sol\":14942:14956  Game storage g */\n      0x00\n        /* \"AllContracts.sol\":14959:14964  games */\n      0x1a\n        /* \"AllContracts.sol\":14959:14972  games[gameID] */\n      0x00\n        /* \"AllContracts.sol\":14965:14971  gameID */\n      dup4\n        /* \"AllContracts.sol\":14959:14972  games[gameID] */\n      dup2\n      mstore\n      0x20\n      add\n      swap1\n      dup2\n      mstore\n      0x20\n      add\n      0x00\n      keccak256\n        /* \"AllContracts.sol\":14942:14972  Game storage g = games[gameID] */\n      swap1\n      pop\n        /* \"AllContracts.sol\":14990:15007  authorizedAddress */\n      0x18\n        /* \"AllContracts.sol\":14990:15019  authorizedAddress[msg.sender] */\n      0x00\n        /* \"AllContracts.sol\":15008:15018  msg.sender */\n      caller\n        /* \"AllContracts.sol\":14990:15019  authorizedAddress[msg.sender] */\n      0xffffffffffffffffffffffffffffffffffffffff\n      and\n      0xffffffffffffffffffffffffffffffffffffffff\n      and\n      dup2\n      mstore\n      0x20\n      add\n      swap1\n      dup2\n      mstore\n      0x20\n      add\n      0x00\n      keccak256\n      0x00\n      swap1\n      sload\n      swap1\n      0x0100\n      exp\n      swap1\n      div\n      0xff\n      and\n        /* \"AllContracts.sol\":14990:15044  authorizedAddress[msg.sender] || owner() == msg.sender */\n      dup1\n      tag_215\n      jumpi\n      pop\n        /* \"AllContracts.sol\":15034:15044  msg.sender */\n      caller\n        /* \"AllContracts.sol\":15023:15044  owner() == msg.sender */\n      0xffffffffffffffffffffffffffffffffffffffff\n      and\n        /* \"AllContracts.sol\":15023:15030  owner() */\n      tag_216\n        /* \"AllContracts.sol\":15023:15028  owner */\n      tag_89\n        /* \"AllContracts.sol\":15023:15030  owner() */\n      jump\t// in\n    tag_216:\n        /* \"AllContracts.sol\":15023:15044  owner() == msg.sender */\n      0xffffffffffffffffffffffffffffffffffffffff\n      and\n      eq\n        /* \"AllContracts.sol\":14990:15044  authorizedAddress[msg.sender] || owner() == msg.sender */\n    tag_215:\n        /* \"AllContracts.sol\":14990:15070  authorizedAddress[msg.sender] || owner() == msg.sender || g.player == msg.sender */\n      dup1\n      tag_217\n      jumpi\n      pop\n        /* \"AllContracts.sol\":15060:15070  msg.sender */\n      caller\n        /* \"AllContracts.sol\":15048:15070  g.player == msg.sender */\n      0xffffffffffffffffffffffffffffffffffffffff\n      and\n        /* \"AllContracts.sol\":15048:15049  g */\n      dup2\n        /* \"AllContracts.sol\":15048:15056  g.player */\n      0x01\n      add\n      0x00\n      swap1\n      sload\n      swap1\n      0x0100\n      exp\n      swap1\n      div\n      0xffffffffffffffffffffffffffffffffffffffff\n      and\n        /* \"AllContracts.sol\":15048:15070  g.player == msg.sender */\n      0xffffffffffffffffffffffffffffffffffffffff\n      and\n      eq\n        /* \"AllContracts.sol\":14990:15070  authorizedAddress[msg.sender] || owner() == msg.sender || g.player == msg.sender */\n    tag_217:\n        /* \"AllContracts.sol\":14982:15107  require(authorizedAddress[msg.sender] || owner() == msg.sender || g.player == msg.sender, \"Not authorized to request refund\") */\n      tag_218\n      jumpi\n      mload(0x40)\n      0x08c379a000000000000000000000000000000000000000000000000000000000\n      dup2\n      mstore\n      0x04\n      add\n      dup1\n      dup1\n      0x20\n      add\n      dup3\n      dup2\n      sub\n      dup3\n      mstore\n      0x20\n      dup2\n      mstore\n      0x20\n      add\n      dup1\n      0x4e6f7420617574686f72697a656420746f207265717565737420726566756e64\n      dup2\n      mstore\n      pop\n      0x20\n      add\n      swap2\n      pop\n      pop\n      mload(0x40)\n      dup1\n      swap2\n      sub\n      swap1\n      revert\n    tag_218:\n        /* \"AllContracts.sol\":15137:15142  false */\n      0x00\n        /* \"AllContracts.sol\":15125:15142  g.played == false */\n      iszero\n      iszero\n        /* \"AllContracts.sol\":15125:15126  g */\n      dup2\n        /* \"AllContracts.sol\":15125:15133  g.played */\n      0x05\n      add\n      0x00\n      swap1\n      sload\n      swap1\n      0x0100\n      exp\n      swap1\n      div\n      0xff\n      and\n        /* \"AllContracts.sol\":15125:15142  g.played == false */\n      iszero\n      iszero\n      eq\n        /* \"AllContracts.sol\":15117:15189  require(g.played == false, \"Game already complete. No refund possible.\") */\n      tag_219\n      jumpi\n      mload(0x40)\n      0x08c379a000000000000000000000000000000000000000000000000000000000\n      dup2\n      mstore\n      0x04\n      add\n      dup1\n      dup1\n      0x20\n      add\n      dup3\n      dup2\n      sub\n      dup3\n      mstore\n      0x2a\n      dup2\n      mstore\n      0x20\n      add\n      dup1\n      data_c34c85fa0e0680ac47dc2c21fdf93b1adcc71d9a1a3b3b1788b881c3f4f390ac\n      0x2a\n      swap2\n      codecopy\n      0x40\n      add\n      swap2\n      pop\n      pop\n      mload(0x40)\n      dup1\n      swap2\n      sub\n      swap1\n      revert\n    tag_219:\n        /* \"AllContracts.sol\":15232:15233  g */\n      dup1\n        /* \"AllContracts.sol\":15232:15237  g.bet */\n      0x02\n      add\n      sload\n        /* \"AllContracts.sol\":15207:15228  address(this).balance */\n      selfbalance\n        /* \"AllContracts.sol\":15207:15237  address(this).balance >= g.bet */\n      lt\n      iszero\n        /* \"AllContracts.sol\":15199:15291  require(address(this).balance >= g.bet, \"Contract balance too low. Please try again later.\") */\n      tag_220\n      jumpi\n      mload(0x40)\n      0x08c379a000000000000000000000000000000000000000000000000000000000\n      dup2\n      mstore\n      0x04\n      add\n      dup1\n      dup1\n      0x20\n      add\n      dup3\n      dup2\n      sub\n      dup3\n      mstore\n      0x31\n      dup2\n      mstore\n      0x20\n      add\n      dup1\n      data_b719f220e413600c7e92ed4736b96c6908e0428122610fe965fcc60eefeedbad\n      0x31\n      swap2\n      codecopy\n      0x40\n      add\n      swap2\n      pop\n      pop\n      mload(0x40)\n      dup1\n      swap2\n      sub\n      swap1\n      revert\n    tag_220:\n        /* \"AllContracts.sol\":15312:15316  true */\n      0x01\n        /* \"AllContracts.sol\":15301:15302  g */\n      dup2\n        /* \"AllContracts.sol\":15301:15309  g.played */\n      0x05\n      add\n      0x00\n        /* \"AllContracts.sol\":15301:15316  g.played = true */\n      0x0100\n      exp\n      dup2\n      sload\n      dup2\n      0xff\n      mul\n      not\n      and\n      swap1\n      dup4\n      iszero\n      iszero\n      mul\n      or\n      swap1\n      sstore\n      pop\n        /* \"AllContracts.sol\":15346:15347  g */\n      dup1\n        /* \"AllContracts.sol\":15346:15351  g.bet */\n      0x02\n      add\n      sload\n        /* \"AllContracts.sol\":15329:15342  _unplayedBets */\n      sload(0x14)\n        /* \"AllContracts.sol\":15329:15351  _unplayedBets >= g.bet */\n      lt\n        /* \"AllContracts.sol\":15326:15448  if(_unplayedBets >= g.bet) {... */\n      tag_221\n      jumpi\n        /* \"AllContracts.sol\":15384:15385  g */\n      dup1\n        /* \"AllContracts.sol\":15384:15389  g.bet */\n      0x02\n      add\n      sload\n        /* \"AllContracts.sol\":15367:15380  _unplayedBets */\n      0x14\n      0x00\n        /* \"AllContracts.sol\":15367:15389  _unplayedBets -= g.bet */\n      dup3\n      dup3\n      sload\n      sub\n      swap3\n      pop\n      pop\n      dup2\n      swap1\n      sstore\n      pop\n        /* \"AllContracts.sol\":15326:15448  if(_unplayedBets >= g.bet) {... */\n      jump(tag_222)\n    tag_221:\n        /* \"AllContracts.sol\":15436:15437  0 */\n      0x00\n        /* \"AllContracts.sol\":15420:15433  _unplayedBets */\n      0x14\n        /* \"AllContracts.sol\":15420:15437  _unplayedBets = 0 */\n      dup2\n      swap1\n      sstore\n      pop\n        /* \"AllContracts.sol\":15326:15448  if(_unplayedBets >= g.bet) {... */\n    tag_222:\n        /* \"AllContracts.sol\":15457:15458  g */\n      dup1\n        /* \"AllContracts.sol\":15457:15465  g.player */\n      0x01\n      add\n      0x00\n      swap1\n      sload\n      swap1\n      0x0100\n      exp\n      swap1\n      div\n      0xffffffffffffffffffffffffffffffffffffffff\n      and\n        /* \"AllContracts.sol\":15457:15474  g.player.transfer */\n      0xffffffffffffffffffffffffffffffffffffffff\n      and\n        /* \"AllContracts.sol\":15457:15481  g.player.transfer(g.bet) */\n      0x08fc\n        /* \"AllContracts.sol\":15475:15476  g */\n      dup3\n        /* \"AllContracts.sol\":15475:15480  g.bet */\n      0x02\n      add\n      sload\n        /* \"AllContracts.sol\":15457:15481  g.player.transfer(g.bet) */\n      swap1\n      dup2\n      iszero\n      mul\n      swap1\n      mload(0x40)\n      0x00\n      mload(0x40)\n      dup1\n      dup4\n      sub\n      dup2\n      dup6\n      dup9\n      dup9\n      call\n      swap4\n      pop\n      pop\n      pop\n      pop\n      iszero\n        /* \"--CODEGEN--\":8:17   */\n      dup1\n        /* \"--CODEGEN--\":5:7   */\n      iszero\n      tag_224\n      jumpi\n        /* \"--CODEGEN--\":45:61   */\n      returndatasize\n        /* \"--CODEGEN--\":42:43   */\n      0x00\n        /* \"--CODEGEN--\":39:40   */\n      dup1\n        /* \"--CODEGEN--\":24:62   */\n      returndatacopy\n        /* \"--CODEGEN--\":77:93   */\n      returndatasize\n        /* \"--CODEGEN--\":74:75   */\n      0x00\n        /* \"--CODEGEN--\":67:94   */\n      revert\n        /* \"--CODEGEN--\":5:7   */\n    tag_224:\n        /* \"AllContracts.sol\":15457:15481  g.player.transfer(g.bet) */\n      pop\n        /* \"AllContracts.sol\":14890:15488  function requestRefund(uint gameID) public{... */\n      pop\n      pop\n      jump\t// out\n        /* \"AllContracts.sol\":9008:9637  function placeBetFor(address payable player, uint pick) public payable{... */\n    tag_126:\n        /* \"AllContracts.sol\":9109:9115  minBet */\n      sload(0x13)\n        /* \"AllContracts.sol\":9096:9105  msg.value */\n      callvalue\n        /* \"AllContracts.sol\":9096:9115  msg.value >= minBet */\n      lt\n      iszero\n        /* \"AllContracts.sol\":9088:9139  require(msg.value >= minBet, \"minimum bet not met\") */\n      tag_226\n      jumpi\n      mload(0x40)\n      0x08c379a000000000000000000000000000000000000000000000000000000000\n      dup2\n      mstore\n      0x04\n      add\n      dup1\n      dup1\n      0x20\n      add\n      dup3\n      dup2\n      sub\n      dup3\n      mstore\n      0x13\n      dup2\n      mstore\n      0x20\n      add\n      dup1\n      0x6d696e696d756d20626574206e6f74206d657400000000000000000000000000\n      dup2\n      mstore\n      pop\n      0x20\n      add\n      swap2\n      pop\n      pop\n      mload(0x40)\n      dup1\n      swap2\n      sub\n      swap1\n      revert\n    tag_226:\n        /* \"AllContracts.sol\":9160:9161  1 */\n      0x01\n        /* \"AllContracts.sol\":9152:9156  gas1 */\n      sload(0x06)\n        /* \"AllContracts.sol\":9152:9161  gas1 == 1 */\n      eq\n        /* \"AllContracts.sol\":9149:9451  if(gas1 == 1) {... */\n      iszero\n      tag_227\n      jumpi\n        /* \"AllContracts.sol\":9184:9188  gas1 */\n      0x06\n        /* \"AllContracts.sol\":9177:9188  delete gas1 */\n      0x00\n      swap1\n      sstore\n        /* \"AllContracts.sol\":9209:9213  gas2 */\n      0x07\n        /* \"AllContracts.sol\":9202:9213  delete gas2 */\n      0x00\n      swap1\n      sstore\n        /* \"AllContracts.sol\":9234:9238  gas3 */\n      0x08\n        /* \"AllContracts.sol\":9227:9238  delete gas3 */\n      0x00\n      swap1\n      sstore\n        /* \"AllContracts.sol\":9259:9263  gas4 */\n      0x09\n        /* \"AllContracts.sol\":9252:9263  delete gas4 */\n      0x00\n      swap1\n      sstore\n        /* \"AllContracts.sol\":9284:9288  gas5 */\n      0x0a\n        /* \"AllContracts.sol\":9277:9288  delete gas5 */\n      0x00\n      swap1\n      sstore\n        /* \"AllContracts.sol\":9309:9313  gas6 */\n      0x0b\n        /* \"AllContracts.sol\":9302:9313  delete gas6 */\n      0x00\n      swap1\n      sstore\n        /* \"AllContracts.sol\":9334:9338  gas7 */\n      0x0c\n        /* \"AllContracts.sol\":9327:9338  delete gas7 */\n      0x00\n      swap1\n      sstore\n        /* \"AllContracts.sol\":9359:9363  gas8 */\n      0x0d\n        /* \"AllContracts.sol\":9352:9363  delete gas8 */\n      0x00\n      swap1\n      sstore\n        /* \"AllContracts.sol\":9384:9388  gas9 */\n      0x0e\n        /* \"AllContracts.sol\":9377:9388  delete gas9 */\n      0x00\n      swap1\n      sstore\n        /* \"AllContracts.sol\":9409:9414  gas10 */\n      0x0f\n        /* \"AllContracts.sol\":9402:9414  delete gas10 */\n      0x00\n      swap1\n      sstore\n        /* \"AllContracts.sol\":9435:9440  gas11 */\n      0x10\n        /* \"AllContracts.sol\":9428:9440  delete gas11 */\n      0x00\n      swap1\n      sstore\n        /* \"AllContracts.sol\":9149:9451  if(gas1 == 1) {... */\n    tag_227:\n        /* \"AllContracts.sol\":9477:9505  _unplayedBets.add(msg.value) */\n      tag_228\n        /* \"AllContracts.sol\":9495:9504  msg.value */\n      callvalue\n        /* \"AllContracts.sol\":9477:9490  _unplayedBets */\n      sload(0x14)\n        /* \"AllContracts.sol\":9477:9494  _unplayedBets.add */\n      tag_157\n      swap1\n        /* \"AllContracts.sol\":9477:9505  _unplayedBets.add(msg.value) */\n      swap2\n      swap1\n      0xffffffff\n      and\n      jump\t// in\n    tag_228:\n        /* \"AllContracts.sol\":9461:9474  _unplayedBets */\n      0x14\n        /* \"AllContracts.sol\":9461:9505  _unplayedBets = _unplayedBets.add(msg.value) */\n      dup2\n      swap1\n      sstore\n      pop\n        /* \"AllContracts.sol\":9515:9550  createGame(player, msg.value, pick) */\n      tag_229\n        /* \"AllContracts.sol\":9526:9532  player */\n      dup3\n        /* \"AllContracts.sol\":9534:9543  msg.value */\n      callvalue\n        /* \"AllContracts.sol\":9545:9549  pick */\n      dup4\n        /* \"AllContracts.sol\":9515:9525  createGame */\n      tag_230\n        /* \"AllContracts.sol\":9515:9550  createGame(player, msg.value, pick) */\n      jump\t// in\n    tag_229:\n        /* \"AllContracts.sol\":9560:9582  playGame(_currentGame) */\n      tag_231\n        /* \"AllContracts.sol\":9569:9581  _currentGame */\n      sload(0x15)\n        /* \"AllContracts.sol\":9560:9568  playGame */\n      tag_232\n        /* \"AllContracts.sol\":9560:9582  playGame(_currentGame) */\n      jump\t// in\n    tag_231:\n        /* \"AllContracts.sol\":9618:9630  _currentGame */\n      sload(0x15)\n        /* \"AllContracts.sol\":9592:9607  lastGameCreated */\n      0x1c\n        /* \"AllContracts.sol\":9592:9615  lastGameCreated[player] */\n      0x00\n        /* \"AllContracts.sol\":9608:9614  player */\n      dup5\n        /* \"AllContracts.sol\":9592:9615  lastGameCreated[player] */\n      0xffffffffffffffffffffffffffffffffffffffff\n      and\n      0xffffffffffffffffffffffffffffffffffffffff\n      and\n      dup2\n      mstore\n      0x20\n      add\n      swap1\n      dup2\n      mstore\n      0x20\n      add\n      0x00\n      keccak256\n        /* \"AllContracts.sol\":9592:9630  lastGameCreated[player] = _currentGame */\n      dup2\n      swap1\n      sstore\n      pop\n        /* \"AllContracts.sol\":9008:9637  function placeBetFor(address payable player, uint pick) public payable{... */\n      pop\n      pop\n      jump\t// out\n        /* \"AllContracts.sol\":6751:6798  mapping(address => uint) public lastGameCreated */\n    tag_130:\n      mstore(0x20, 0x1c)\n      dup1\n      0x00\n      mstore\n      keccak256(0x00, 0x40)\n      0x00\n      swap2\n      pop\n      swap1\n      pop\n      sload\n      dup2\n      jump\t// out\n        /* \"AllContracts.sol\":18370:18692  function closeMachine() public onlyOwner {... */\n    tag_133:\n        /* \"AllContracts.sol\":1141:1153  _msgSender() */\n      tag_234\n        /* \"AllContracts.sol\":1141:1151  _msgSender */\n      tag_162\n        /* \"AllContracts.sol\":1141:1153  _msgSender() */\n      jump\t// in\n    tag_234:\n        /* \"AllContracts.sol\":1131:1153  _owner == _msgSender() */\n      0xffffffffffffffffffffffffffffffffffffffff\n      and\n        /* \"AllContracts.sol\":1131:1137  _owner */\n      0x03\n      0x00\n      swap1\n      sload\n      swap1\n      0x0100\n      exp\n      swap1\n      div\n      0xffffffffffffffffffffffffffffffffffffffff\n      and\n        /* \"AllContracts.sol\":1131:1153  _owner == _msgSender() */\n      0xffffffffffffffffffffffffffffffffffffffff\n      and\n      eq\n        /* \"AllContracts.sol\":1123:1190  require(_owner == _msgSender(), \"Ownable: caller is not the owner\") */\n      tag_235\n      jumpi\n      mload(0x40)\n      0x08c379a000000000000000000000000000000000000000000000000000000000\n      dup2\n      mstore\n      0x04\n      add\n      dup1\n      dup1\n      0x20\n      add\n      dup3\n      dup2\n      sub\n      dup3\n      mstore\n      0x20\n      dup2\n      mstore\n      0x20\n      add\n      dup1\n      0x4f776e61626c653a2063616c6c6572206973206e6f7420746865206f776e6572\n      dup2\n      mstore\n      pop\n      0x20\n      add\n      swap2\n      pop\n      pop\n      mload(0x40)\n      dup1\n      swap2\n      sub\n      swap1\n      revert\n    tag_235:\n        /* \"AllContracts.sol\":18421:18450  uint availableContractBalance */\n      0x00\n        /* \"AllContracts.sol\":18453:18493  address(this).balance.sub(_unplayedBets) */\n      tag_237\n        /* \"AllContracts.sol\":18479:18492  _unplayedBets */\n      sload(0x14)\n        /* \"AllContracts.sol\":18453:18474  address(this).balance */\n      selfbalance\n        /* \"AllContracts.sol\":18453:18478  address(this).balance.sub */\n      tag_159\n      swap1\n        /* \"AllContracts.sol\":18453:18493  address(this).balance.sub(_unplayedBets) */\n      swap2\n      swap1\n      0xffffffff\n      and\n      jump\t// in\n    tag_237:\n        /* \"AllContracts.sol\":18421:18493  uint availableContractBalance = address(this).balance.sub(_unplayedBets) */\n      swap1\n      pop\n        /* \"AllContracts.sol\":18503:18516  payoutAddress */\n      0x16\n      0x00\n      swap1\n      sload\n      swap1\n      0x0100\n      exp\n      swap1\n      div\n      0xffffffffffffffffffffffffffffffffffffffff\n      and\n        /* \"AllContracts.sol\":18503:18525  payoutAddress.transfer */\n      0xffffffffffffffffffffffffffffffffffffffff\n      and\n        /* \"AllContracts.sol\":18503:18551  payoutAddress.transfer(availableContractBalance) */\n      0x08fc\n        /* \"AllContracts.sol\":18526:18550  availableContractBalance */\n      dup3\n        /* \"AllContracts.sol\":18503:18551  payoutAddress.transfer(availableContractBalance) */\n      swap1\n      dup2\n      iszero\n      mul\n      swap1\n      mload(0x40)\n      0x00\n      mload(0x40)\n      dup1\n      dup4\n      sub\n      dup2\n      dup6\n      dup9\n      dup9\n      call\n      swap4\n      pop\n      pop\n      pop\n      pop\n      iszero\n        /* \"--CODEGEN--\":8:17   */\n      dup1\n        /* \"--CODEGEN--\":5:7   */\n      iszero\n      tag_239\n      jumpi\n        /* \"--CODEGEN--\":45:61   */\n      returndatasize\n        /* \"--CODEGEN--\":42:43   */\n      0x00\n        /* \"--CODEGEN--\":39:40   */\n      dup1\n        /* \"--CODEGEN--\":24:62   */\n      returndatacopy\n        /* \"--CODEGEN--\":77:93   */\n      returndatasize\n        /* \"--CODEGEN--\":74:75   */\n      0x00\n        /* \"--CODEGEN--\":67:94   */\n      revert\n        /* \"--CODEGEN--\":5:7   */\n    tag_239:\n        /* \"AllContracts.sol\":18503:18551  payoutAddress.transfer(availableContractBalance) */\n      pop\n        /* \"AllContracts.sol\":18598:18599  0 */\n      0x00\n        /* \"AllContracts.sol\":18566:18570  LINK */\n      dup1\n      0x00\n      swap1\n      sload\n      swap1\n      0x0100\n      exp\n      swap1\n      div\n      0xffffffffffffffffffffffffffffffffffffffff\n      and\n        /* \"AllContracts.sol\":18566:18580  LINK.balanceOf */\n      0xffffffffffffffffffffffffffffffffffffffff\n      and\n      0x70a08231\n        /* \"AllContracts.sol\":18589:18593  this */\n      address\n        /* \"AllContracts.sol\":18566:18595  LINK.balanceOf(address(this)) */\n      mload(0x40)\n      dup3\n      0xffffffff\n      and\n      0xe0\n      shl\n      dup2\n      mstore\n      0x04\n      add\n      dup1\n      dup3\n      0xffffffffffffffffffffffffffffffffffffffff\n      and\n      0xffffffffffffffffffffffffffffffffffffffff\n      and\n      dup2\n      mstore\n      0x20\n      add\n      swap2\n      pop\n      pop\n      0x20\n      mload(0x40)\n      dup1\n      dup4\n      sub\n      dup2\n      dup7\n      dup1\n      extcodesize\n      iszero\n        /* \"--CODEGEN--\":8:17   */\n      dup1\n        /* \"--CODEGEN--\":5:7   */\n      iszero\n      tag_240\n      jumpi\n        /* \"--CODEGEN--\":30:31   */\n      0x00\n        /* \"--CODEGEN--\":27:28   */\n      dup1\n        /* \"--CODEGEN--\":20:32   */\n      revert\n        /* \"--CODEGEN--\":5:7   */\n    tag_240:\n        /* \"AllContracts.sol\":18566:18595  LINK.balanceOf(address(this)) */\n      pop\n      gas\n      staticcall\n      iszero\n        /* \"--CODEGEN--\":8:17   */\n      dup1\n        /* \"--CODEGEN--\":5:7   */\n      iszero\n      tag_242\n      jumpi\n        /* \"--CODEGEN--\":45:61   */\n      returndatasize\n        /* \"--CODEGEN--\":42:43   */\n      0x00\n        /* \"--CODEGEN--\":39:40   */\n      dup1\n        /* \"--CODEGEN--\":24:62   */\n      returndatacopy\n        /* \"--CODEGEN--\":77:93   */\n      returndatasize\n        /* \"--CODEGEN--\":74:75   */\n      0x00\n        /* \"--CODEGEN--\":67:94   */\n      revert\n        /* \"--CODEGEN--\":5:7   */\n    tag_242:\n        /* \"AllContracts.sol\":18566:18595  LINK.balanceOf(address(this)) */\n      pop\n      pop\n      pop\n      pop\n      mload(0x40)\n      returndatasize\n        /* \"--CODEGEN--\":13:15   */\n      0x20\n        /* \"--CODEGEN--\":8:11   */\n      dup2\n        /* \"--CODEGEN--\":5:16   */\n      lt\n        /* \"--CODEGEN--\":2:4   */\n      iszero\n      tag_243\n      jumpi\n        /* \"--CODEGEN--\":29:30   */\n      0x00\n        /* \"--CODEGEN--\":26:27   */\n      dup1\n        /* \"--CODEGEN--\":19:31   */\n      revert\n        /* \"--CODEGEN--\":2:4   */\n    tag_243:\n        /* \"AllContracts.sol\":18566:18595  LINK.balanceOf(address(this)) */\n      dup2\n      add\n      swap1\n      dup1\n      dup1\n      mload\n      swap1\n      0x20\n      add\n      swap1\n      swap3\n      swap2\n      swap1\n      pop\n      pop\n      pop\n        /* \"AllContracts.sol\":18566:18599  LINK.balanceOf(address(this)) > 0 */\n      gt\n        /* \"AllContracts.sol\":18562:18685  if (LINK.balanceOf(address(this)) > 0) {... */\n      iszero\n      tag_244\n      jumpi\n        /* \"AllContracts.sol\":18615:18619  LINK */\n      0x00\n      dup1\n      swap1\n      sload\n      swap1\n      0x0100\n      exp\n      swap1\n      div\n      0xffffffffffffffffffffffffffffffffffffffff\n      and\n        /* \"AllContracts.sol\":18615:18628  LINK.transfer */\n      0xffffffffffffffffffffffffffffffffffffffff\n      and\n      0xa9059cbb\n        /* \"AllContracts.sol\":18629:18642  payoutAddress */\n      0x16\n      0x00\n      swap1\n      sload\n      swap1\n      0x0100\n      exp\n      swap1\n      div\n      0xffffffffffffffffffffffffffffffffffffffff\n      and\n        /* \"AllContracts.sol\":18644:18648  LINK */\n      0x00\n      dup1\n      swap1\n      sload\n      swap1\n      0x0100\n      exp\n      swap1\n      div\n      0xffffffffffffffffffffffffffffffffffffffff\n      and\n        /* \"AllContracts.sol\":18644:18658  LINK.balanceOf */\n      0xffffffffffffffffffffffffffffffffffffffff\n      and\n      0x70a08231\n        /* \"AllContracts.sol\":18667:18671  this */\n      address\n        /* \"AllContracts.sol\":18644:18673  LINK.balanceOf(address(this)) */\n      mload(0x40)\n      dup3\n      0xffffffff\n      and\n      0xe0\n      shl\n      dup2\n      mstore\n      0x04\n      add\n      dup1\n      dup3\n      0xffffffffffffffffffffffffffffffffffffffff\n      and\n      0xffffffffffffffffffffffffffffffffffffffff\n      and\n      dup2\n      mstore\n      0x20\n      add\n      swap2\n      pop\n      pop\n      0x20\n      mload(0x40)\n      dup1\n      dup4\n      sub\n      dup2\n      dup7\n      dup1\n      extcodesize\n      iszero\n        /* \"--CODEGEN--\":8:17   */\n      dup1\n        /* \"--CODEGEN--\":5:7   */\n      iszero\n      tag_245\n      jumpi\n        /* \"--CODEGEN--\":30:31   */\n      0x00\n        /* \"--CODEGEN--\":27:28   */\n      dup1\n        /* \"--CODEGEN--\":20:32   */\n      revert\n        /* \"--CODEGEN--\":5:7   */\n    tag_245:\n        /* \"AllContracts.sol\":18644:18673  LINK.balanceOf(address(this)) */\n      pop\n      gas\n      staticcall\n      iszero\n        /* \"--CODEGEN--\":8:17   */\n      dup1\n        /* \"--CODEGEN--\":5:7   */\n      iszero\n      tag_247\n      jumpi\n        /* \"--CODEGEN--\":45:61   */\n      returndatasize\n        /* \"--CODEGEN--\":42:43   */\n      0x00\n        /* \"--CODEGEN--\":39:40   */\n      dup1\n        /* \"--CODEGEN--\":24:62   */\n      returndatacopy\n        /* \"--CODEGEN--\":77:93   */\n      returndatasize\n        /* \"--CODEGEN--\":74:75   */\n      0x00\n        /* \"--CODEGEN--\":67:94   */\n      revert\n        /* \"--CODEGEN--\":5:7   */\n    tag_247:\n        /* \"AllContracts.sol\":18644:18673  LINK.balanceOf(address(this)) */\n      pop\n      pop\n      pop\n      pop\n      mload(0x40)\n      returndatasize\n        /* \"--CODEGEN--\":13:15   */\n      0x20\n        /* \"--CODEGEN--\":8:11   */\n      dup2\n        /* \"--CODEGEN--\":5:16   */\n      lt\n        /* \"--CODEGEN--\":2:4   */\n      iszero\n      tag_248\n      jumpi\n        /* \"--CODEGEN--\":29:30   */\n      0x00\n        /* \"--CODEGEN--\":26:27   */\n      dup1\n        /* \"--CODEGEN--\":19:31   */\n      revert\n        /* \"--CODEGEN--\":2:4   */\n    tag_248:\n        /* \"AllContracts.sol\":18644:18673  LINK.balanceOf(address(this)) */\n      dup2\n      add\n      swap1\n      dup1\n      dup1\n      mload\n      swap1\n      0x20\n      add\n      swap1\n      swap3\n      swap2\n      swap1\n      pop\n      pop\n      pop\n        /* \"AllContracts.sol\":18615:18674  LINK.transfer(payoutAddress, LINK.balanceOf(address(this))) */\n      mload(0x40)\n      dup4\n      0xffffffff\n      and\n      0xe0\n      shl\n      dup2\n      mstore\n      0x04\n      add\n      dup1\n      dup4\n      0xffffffffffffffffffffffffffffffffffffffff\n      and\n      0xffffffffffffffffffffffffffffffffffffffff\n      and\n      dup2\n      mstore\n      0x20\n      add\n      dup3\n      dup2\n      mstore\n      0x20\n      add\n      swap3\n      pop\n      pop\n      pop\n      0x20\n      mload(0x40)\n      dup1\n      dup4\n      sub\n      dup2\n      0x00\n      dup8\n      dup1\n      extcodesize\n      iszero\n        /* \"--CODEGEN--\":8:17   */\n      dup1\n        /* \"--CODEGEN--\":5:7   */\n      iszero\n      tag_249\n      jumpi\n        /* \"--CODEGEN--\":30:31   */\n      0x00\n        /* \"--CODEGEN--\":27:28   */\n      dup1\n        /* \"--CODEGEN--\":20:32   */\n      revert\n        /* \"--CODEGEN--\":5:7   */\n    tag_249:\n        /* \"AllContracts.sol\":18615:18674  LINK.transfer(payoutAddress, LINK.balanceOf(address(this))) */\n      pop\n      gas\n      call\n      iszero\n        /* \"--CODEGEN--\":8:17   */\n      dup1\n        /* \"--CODEGEN--\":5:7   */\n      iszero\n      tag_251\n      jumpi\n        /* \"--CODEGEN--\":45:61   */\n      returndatasize\n        /* \"--CODEGEN--\":42:43   */\n      0x00\n        /* \"--CODEGEN--\":39:40   */\n      dup1\n        /* \"--CODEGEN--\":24:62   */\n      returndatacopy\n        /* \"--CODEGEN--\":77:93   */\n      returndatasize\n        /* \"--CODEGEN--\":74:75   */\n      0x00\n        /* \"--CODEGEN--\":67:94   */\n      revert\n        /* \"--CODEGEN--\":5:7   */\n    tag_251:\n        /* \"AllContracts.sol\":18615:18674  LINK.transfer(payoutAddress, LINK.balanceOf(address(this))) */\n      pop\n      pop\n      pop\n      pop\n      mload(0x40)\n      returndatasize\n        /* \"--CODEGEN--\":13:15   */\n      0x20\n        /* \"--CODEGEN--\":8:11   */\n      dup2\n        /* \"--CODEGEN--\":5:16   */\n      lt\n        /* \"--CODEGEN--\":2:4   */\n      iszero\n      tag_252\n      jumpi\n        /* \"--CODEGEN--\":29:30   */\n      0x00\n        /* \"--CODEGEN--\":26:27   */\n      dup1\n        /* \"--CODEGEN--\":19:31   */\n      revert\n        /* \"--CODEGEN--\":2:4   */\n    tag_252:\n        /* \"AllContracts.sol\":18615:18674  LINK.transfer(payoutAddress, LINK.balanceOf(address(this))) */\n      dup2\n      add\n      swap1\n      dup1\n      dup1\n      mload\n      swap1\n      0x20\n      add\n      swap1\n      swap3\n      swap2\n      swap1\n      pop\n      pop\n      pop\n      pop\n        /* \"AllContracts.sol\":18562:18685  if (LINK.balanceOf(address(this)) > 0) {... */\n    tag_244:\n        /* \"AllContracts.sol\":1200:1201  _ */\n      pop\n        /* \"AllContracts.sol\":18370:18692  function closeMachine() public onlyOwner {... */\n      jump\t// out\n        /* \"AllContracts.sol\":16141:16345  function withdrawEth(uint amount) public onlyAuthorized {... */\n    tag_137:\n        /* \"AllContracts.sol\":7940:7950  msg.sender */\n      caller\n        /* \"AllContracts.sol\":7929:7950  owner() == msg.sender */\n      0xffffffffffffffffffffffffffffffffffffffff\n      and\n        /* \"AllContracts.sol\":7929:7936  owner() */\n      tag_254\n        /* \"AllContracts.sol\":7929:7934  owner */\n      tag_89\n        /* \"AllContracts.sol\":7929:7936  owner() */\n      jump\t// in\n    tag_254:\n        /* \"AllContracts.sol\":7929:7950  owner() == msg.sender */\n      0xffffffffffffffffffffffffffffffffffffffff\n      and\n      eq\n        /* \"AllContracts.sol\":7929:7983  owner() == msg.sender || authorizedAddress[msg.sender] */\n      dup1\n      tag_255\n      jumpi\n      pop\n        /* \"AllContracts.sol\":7954:7971  authorizedAddress */\n      0x18\n        /* \"AllContracts.sol\":7954:7983  authorizedAddress[msg.sender] */\n      0x00\n        /* \"AllContracts.sol\":7972:7982  msg.sender */\n      caller\n        /* \"AllContracts.sol\":7954:7983  authorizedAddress[msg.sender] */\n      0xffffffffffffffffffffffffffffffffffffffff\n      and\n      0xffffffffffffffffffffffffffffffffffffffff\n      and\n      dup2\n      mstore\n      0x20\n      add\n      swap1\n      dup2\n      mstore\n      0x20\n      add\n      0x00\n      keccak256\n      0x00\n      swap1\n      sload\n      swap1\n      0x0100\n      exp\n      swap1\n      div\n      0xff\n      and\n        /* \"AllContracts.sol\":7929:7983  owner() == msg.sender || authorizedAddress[msg.sender] */\n    tag_255:\n        /* \"AllContracts.sol\":7921:8012  require(owner() == msg.sender || authorizedAddress[msg.sender], \"caller is not authorized\") */\n      tag_256\n      jumpi\n      mload(0x40)\n      0x08c379a000000000000000000000000000000000000000000000000000000000\n      dup2\n      mstore\n      0x04\n      add\n      dup1\n      dup1\n      0x20\n      add\n      dup3\n      dup2\n      sub\n      dup3\n      mstore\n      0x18\n      dup2\n      mstore\n      0x20\n      add\n      dup1\n      0x63616c6c6572206973206e6f7420617574686f72697a65640000000000000000\n      dup2\n      mstore\n      pop\n      0x20\n      add\n      swap2\n      pop\n      pop\n      mload(0x40)\n      dup1\n      swap2\n      sub\n      swap1\n      revert\n    tag_256:\n        /* \"AllContracts.sol\":16252:16265  _unplayedBets */\n      sload(0x14)\n        /* \"AllContracts.sol\":16241:16247  amount */\n      dup2\n        /* \"AllContracts.sol\":16217:16238  address(this).balance */\n      selfbalance\n        /* \"AllContracts.sol\":16217:16247  address(this).balance - amount */\n      sub\n        /* \"AllContracts.sol\":16216:16265  (address(this).balance - amount) >= _unplayedBets */\n      lt\n      iszero\n        /* \"AllContracts.sol\":16207:16298  require ((address(this).balance - amount) >= _unplayedBets, \"Can't withdraw unplayed bets\") */\n      tag_258\n      jumpi\n      mload(0x40)\n      0x08c379a000000000000000000000000000000000000000000000000000000000\n      dup2\n      mstore\n      0x04\n      add\n      dup1\n      dup1\n      0x20\n      add\n      dup3\n      dup2\n      sub\n      dup3\n      mstore\n      0x1c\n      dup2\n      mstore\n      0x20\n      add\n      dup1\n      0x43616e277420776974686472617720756e706c61796564206265747300000000\n      dup2\n      mstore\n      pop\n      0x20\n      add\n      swap2\n      pop\n      pop\n      mload(0x40)\n      dup1\n      swap2\n      sub\n      swap1\n      revert\n    tag_258:\n        /* \"AllContracts.sol\":16308:16321  payoutAddress */\n      0x16\n      0x00\n      swap1\n      sload\n      swap1\n      0x0100\n      exp\n      swap1\n      div\n      0xffffffffffffffffffffffffffffffffffffffff\n      and\n        /* \"AllContracts.sol\":16308:16330  payoutAddress.transfer */\n      0xffffffffffffffffffffffffffffffffffffffff\n      and\n        /* \"AllContracts.sol\":16308:16338  payoutAddress.transfer(amount) */\n      0x08fc\n        /* \"AllContracts.sol\":16331:16337  amount */\n      dup3\n        /* \"AllContracts.sol\":16308:16338  payoutAddress.transfer(amount) */\n      swap1\n      dup2\n      iszero\n      mul\n      swap1\n      mload(0x40)\n      0x00\n      mload(0x40)\n      dup1\n      dup4\n      sub\n      dup2\n      dup6\n      dup9\n      dup9\n      call\n      swap4\n      pop\n      pop\n      pop\n      pop\n      iszero\n        /* \"--CODEGEN--\":8:17   */\n      dup1\n        /* \"--CODEGEN--\":5:7   */\n      iszero\n      tag_260\n      jumpi\n        /* \"--CODEGEN--\":45:61   */\n      returndatasize\n        /* \"--CODEGEN--\":42:43   */\n      0x00\n        /* \"--CODEGEN--\":39:40   */\n      dup1\n        /* \"--CODEGEN--\":24:62   */\n      returndatacopy\n        /* \"--CODEGEN--\":77:93   */\n      returndatasize\n        /* \"--CODEGEN--\":74:75   */\n      0x00\n        /* \"--CODEGEN--\":67:94   */\n      revert\n        /* \"--CODEGEN--\":5:7   */\n    tag_260:\n        /* \"AllContracts.sol\":16308:16338  payoutAddress.transfer(amount) */\n      pop\n        /* \"AllContracts.sol\":16141:16345  function withdrawEth(uint amount) public onlyAuthorized {... */\n      pop\n      jump\t// out\n        /* \"AllContracts.sol\":9904:10710  function safeBetFor(address payable player, uint pick) public payable{... */\n    tag_140:\n        /* \"AllContracts.sol\":9991:10012  betPayable(msg.value) */\n      tag_262\n        /* \"AllContracts.sol\":10002:10011  msg.value */\n      callvalue\n        /* \"AllContracts.sol\":9991:10001  betPayable */\n      tag_45\n        /* \"AllContracts.sol\":9991:10012  betPayable(msg.value) */\n      jump\t// in\n    tag_262:\n        /* \"AllContracts.sol\":9983:10071  require(betPayable(msg.value), \"Contract has insufficint funds to payout possible win.\") */\n      tag_263\n      jumpi\n      mload(0x40)\n      0x08c379a000000000000000000000000000000000000000000000000000000000\n      dup2\n      mstore\n      0x04\n      add\n      dup1\n      dup1\n      0x20\n      add\n      dup3\n      dup2\n      sub\n      dup3\n      mstore\n      0x36\n      dup2\n      mstore\n      0x20\n      add\n      dup1\n      data_588b68a2a6ccdc15b2dae26a385280edec71bed95b5b14a24b760c56e4f665d6\n      0x36\n      swap2\n      codecopy\n      0x40\n      add\n      swap2\n      pop\n      pop\n      mload(0x40)\n      dup1\n      swap2\n      sub\n      swap1\n      revert\n    tag_263:\n        /* \"AllContracts.sol\":10097:10104  maxPick */\n      sload(0x11)\n        /* \"AllContracts.sol\":10089:10093  pick */\n      dup2\n        /* \"AllContracts.sol\":10089:10104  pick <= maxPick */\n      gt\n      iszero\n        /* \"AllContracts.sol\":10089:10116  pick <= maxPick && pick > 0 */\n      dup1\n      iszero\n      tag_264\n      jumpi\n      pop\n        /* \"AllContracts.sol\":10115:10116  0 */\n      0x00\n        /* \"AllContracts.sol\":10108:10112  pick */\n      dup2\n        /* \"AllContracts.sol\":10108:10116  pick > 0 */\n      gt\n        /* \"AllContracts.sol\":10089:10116  pick <= maxPick && pick > 0 */\n    tag_264:\n        /* \"AllContracts.sol\":10081:10147  require(pick <= maxPick && pick > 0, \"Outside of pickable bounds\") */\n      tag_265\n      jumpi\n      mload(0x40)\n      0x08c379a000000000000000000000000000000000000000000000000000000000\n      dup2\n      mstore\n      0x04\n      add\n      dup1\n      dup1\n      0x20\n      add\n      dup3\n      dup2\n      sub\n      dup3\n      mstore\n      0x1a\n      dup2\n      mstore\n      0x20\n      add\n      dup1\n      0x4f757473696465206f66207069636b61626c6520626f756e6473000000000000\n      dup2\n      mstore\n      pop\n      0x20\n      add\n      swap2\n      pop\n      pop\n      mload(0x40)\n      dup1\n      swap2\n      sub\n      swap1\n      revert\n    tag_265:\n        /* \"AllContracts.sol\":10165:10186  betInRange(msg.value) */\n      tag_266\n        /* \"AllContracts.sol\":10176:10185  msg.value */\n      callvalue\n        /* \"AllContracts.sol\":10165:10175  betInRange */\n      tag_267\n        /* \"AllContracts.sol\":10165:10186  betInRange(msg.value) */\n      jump\t// in\n    tag_266:\n        /* \"AllContracts.sol\":10157:10211  require(betInRange(msg.value),\"Outisde of bet range.\") */\n      tag_268\n      jumpi\n      mload(0x40)\n      0x08c379a000000000000000000000000000000000000000000000000000000000\n      dup2\n      mstore\n      0x04\n      add\n      dup1\n      dup1\n      0x20\n      add\n      dup3\n      dup2\n      sub\n      dup3\n      mstore\n      0x15\n      dup2\n      mstore\n      0x20\n      add\n      dup1\n      0x4f757469736465206f66206265742072616e67652e0000000000000000000000\n      dup2\n      mstore\n      pop\n      0x20\n      add\n      swap2\n      pop\n      pop\n      mload(0x40)\n      dup1\n      swap2\n      sub\n      swap1\n      revert\n    tag_268:\n        /* \"AllContracts.sol\":10233:10234  1 */\n      0x01\n        /* \"AllContracts.sol\":10225:10229  gas1 */\n      sload(0x06)\n        /* \"AllContracts.sol\":10225:10234  gas1 == 1 */\n      eq\n        /* \"AllContracts.sol\":10222:10524  if(gas1 == 1) {... */\n      iszero\n      tag_269\n      jumpi\n        /* \"AllContracts.sol\":10257:10261  gas1 */\n      0x06\n        /* \"AllContracts.sol\":10250:10261  delete gas1 */\n      0x00\n      swap1\n      sstore\n        /* \"AllContracts.sol\":10282:10286  gas2 */\n      0x07\n        /* \"AllContracts.sol\":10275:10286  delete gas2 */\n      0x00\n      swap1\n      sstore\n        /* \"AllContracts.sol\":10307:10311  gas3 */\n      0x08\n        /* \"AllContracts.sol\":10300:10311  delete gas3 */\n      0x00\n      swap1\n      sstore\n        /* \"AllContracts.sol\":10332:10336  gas4 */\n      0x09\n        /* \"AllContracts.sol\":10325:10336  delete gas4 */\n      0x00\n      swap1\n      sstore\n        /* \"AllContracts.sol\":10357:10361  gas5 */\n      0x0a\n        /* \"AllContracts.sol\":10350:10361  delete gas5 */\n      0x00\n      swap1\n      sstore\n        /* \"AllContracts.sol\":10382:10386  gas6 */\n      0x0b\n        /* \"AllContracts.sol\":10375:10386  delete gas6 */\n      0x00\n      swap1\n      sstore\n        /* \"AllContracts.sol\":10407:10411  gas7 */\n      0x0c\n        /* \"AllContracts.sol\":10400:10411  delete gas7 */\n      0x00\n      swap1\n      sstore\n        /* \"AllContracts.sol\":10432:10436  gas8 */\n      0x0d\n        /* \"AllContracts.sol\":10425:10436  delete gas8 */\n      0x00\n      swap1\n      sstore\n        /* \"AllContracts.sol\":10457:10461  gas9 */\n      0x0e\n        /* \"AllContracts.sol\":10450:10461  delete gas9 */\n      0x00\n      swap1\n      sstore\n        /* \"AllContracts.sol\":10482:10487  gas10 */\n      0x0f\n        /* \"AllContracts.sol\":10475:10487  delete gas10 */\n      0x00\n      swap1\n      sstore\n        /* \"AllContracts.sol\":10508:10513  gas11 */\n      0x10\n        /* \"AllContracts.sol\":10501:10513  delete gas11 */\n      0x00\n      swap1\n      sstore\n        /* \"AllContracts.sol\":10222:10524  if(gas1 == 1) {... */\n    tag_269:\n        /* \"AllContracts.sol\":10550:10578  _unplayedBets.add(msg.value) */\n      tag_270\n        /* \"AllContracts.sol\":10568:10577  msg.value */\n      callvalue\n        /* \"AllContracts.sol\":10550:10563  _unplayedBets */\n      sload(0x14)\n        /* \"AllContracts.sol\":10550:10567  _unplayedBets.add */\n      tag_157\n      swap1\n        /* \"AllContracts.sol\":10550:10578  _unplayedBets.add(msg.value) */\n      swap2\n      swap1\n      0xffffffff\n      and\n      jump\t// in\n    tag_270:\n        /* \"AllContracts.sol\":10534:10547  _unplayedBets */\n      0x14\n        /* \"AllContracts.sol\":10534:10578  _unplayedBets = _unplayedBets.add(msg.value) */\n      dup2\n      swap1\n      sstore\n      pop\n        /* \"AllContracts.sol\":10588:10623  createGame(player, msg.value, pick) */\n      tag_271\n        /* \"AllContracts.sol\":10599:10605  player */\n      dup3\n        /* \"AllContracts.sol\":10607:10616  msg.value */\n      callvalue\n        /* \"AllContracts.sol\":10618:10622  pick */\n      dup4\n        /* \"AllContracts.sol\":10588:10598  createGame */\n      tag_230\n        /* \"AllContracts.sol\":10588:10623  createGame(player, msg.value, pick) */\n      jump\t// in\n    tag_271:\n        /* \"AllContracts.sol\":10633:10655  playGame(_currentGame) */\n      tag_272\n        /* \"AllContracts.sol\":10642:10654  _currentGame */\n      sload(0x15)\n        /* \"AllContracts.sol\":10633:10641  playGame */\n      tag_232\n        /* \"AllContracts.sol\":10633:10655  playGame(_currentGame) */\n      jump\t// in\n    tag_272:\n        /* \"AllContracts.sol\":10691:10703  _currentGame */\n      sload(0x15)\n        /* \"AllContracts.sol\":10665:10680  lastGameCreated */\n      0x1c\n        /* \"AllContracts.sol\":10665:10688  lastGameCreated[player] */\n      0x00\n        /* \"AllContracts.sol\":10681:10687  player */\n      dup5\n        /* \"AllContracts.sol\":10665:10688  lastGameCreated[player] */\n      0xffffffffffffffffffffffffffffffffffffffff\n      and\n      0xffffffffffffffffffffffffffffffffffffffff\n      and\n      dup2\n      mstore\n      0x20\n      add\n      swap1\n      dup2\n      mstore\n      0x20\n      add\n      0x00\n      keccak256\n        /* \"AllContracts.sol\":10665:10703  lastGameCreated[player] = _currentGame */\n      dup2\n      swap1\n      sstore\n      pop\n        /* \"AllContracts.sol\":9904:10710  function safeBetFor(address payable player, uint pick) public payable{... */\n      pop\n      pop\n      jump\t// out\n        /* \"AllContracts.sol\":6603:6652  mapping(address => bool) public gasFreeBetAllowed */\n    tag_144:\n      mstore(0x20, 0x19)\n      dup1\n      0x00\n      mstore\n      keccak256(0x00, 0x40)\n      0x00\n      swap2\n      pop\n      sload\n      swap1\n      0x0100\n      exp\n      swap1\n      div\n      0xff\n      and\n      dup2\n      jump\t// out\n        /* \"AllContracts.sol\":1844:2084  function transferOwnership(address newOwner) public virtual onlyOwner {... */\n    tag_148:\n        /* \"AllContracts.sol\":1141:1153  _msgSender() */\n      tag_274\n        /* \"AllContracts.sol\":1141:1151  _msgSender */\n      tag_162\n        /* \"AllContracts.sol\":1141:1153  _msgSender() */\n      jump\t// in\n    tag_274:\n        /* \"AllContracts.sol\":1131:1153  _owner == _msgSender() */\n      0xffffffffffffffffffffffffffffffffffffffff\n      and\n        /* \"AllContracts.sol\":1131:1137  _owner */\n      0x03\n      0x00\n      swap1\n      sload\n      swap1\n      0x0100\n      exp\n      swap1\n      div\n      0xffffffffffffffffffffffffffffffffffffffff\n      and\n        /* \"AllContracts.sol\":1131:1153  _owner == _msgSender() */\n      0xffffffffffffffffffffffffffffffffffffffff\n      and\n      eq\n        /* \"AllContracts.sol\":1123:1190  require(_owner == _msgSender(), \"Ownable: caller is not the owner\") */\n      tag_275\n      jumpi\n      mload(0x40)\n      0x08c379a000000000000000000000000000000000000000000000000000000000\n      dup2\n      mstore\n      0x04\n      add\n      dup1\n      dup1\n      0x20\n      add\n      dup3\n      dup2\n      sub\n      dup3\n      mstore\n      0x20\n      dup2\n      mstore\n      0x20\n      add\n      dup1\n      0x4f776e61626c653a2063616c6c6572206973206e6f7420746865206f776e6572\n      dup2\n      mstore\n      pop\n      0x20\n      add\n      swap2\n      pop\n      pop\n      mload(0x40)\n      dup1\n      swap2\n      sub\n      swap1\n      revert\n    tag_275:\n        /* \"AllContracts.sol\":1952:1953  0 */\n      0x00\n        /* \"AllContracts.sol\":1932:1954  newOwner != address(0) */\n      0xffffffffffffffffffffffffffffffffffffffff\n      and\n        /* \"AllContracts.sol\":1932:1940  newOwner */\n      dup2\n        /* \"AllContracts.sol\":1932:1954  newOwner != address(0) */\n      0xffffffffffffffffffffffffffffffffffffffff\n      and\n      eq\n      iszero\n        /* \"AllContracts.sol\":1924:1997  require(newOwner != address(0), \"Ownable: new owner is the zero address\") */\n      tag_277\n      jumpi\n      mload(0x40)\n      0x08c379a000000000000000000000000000000000000000000000000000000000\n      dup2\n      mstore\n      0x04\n      add\n      dup1\n      dup1\n      0x20\n      add\n      dup3\n      dup2\n      sub\n      dup3\n      mstore\n      0x26\n      dup2\n      mstore\n      0x20\n      add\n      dup1\n      data_245f15ff17f551913a7a18385165551503906a406f905ac1c2437281a7cd0cfe\n      0x26\n      swap2\n      codecopy\n      0x40\n      add\n      swap2\n      pop\n      pop\n      mload(0x40)\n      dup1\n      swap2\n      sub\n      swap1\n      revert\n    tag_277:\n        /* \"AllContracts.sol\":2041:2049  newOwner */\n      dup1\n        /* \"AllContracts.sol\":2012:2050  OwnershipTransferred(_owner, newOwner) */\n      0xffffffffffffffffffffffffffffffffffffffff\n      and\n        /* \"AllContracts.sol\":2033:2039  _owner */\n      0x03\n      0x00\n      swap1\n      sload\n      swap1\n      0x0100\n      exp\n      swap1\n      div\n      0xffffffffffffffffffffffffffffffffffffffff\n      and\n        /* \"AllContracts.sol\":2012:2050  OwnershipTransferred(_owner, newOwner) */\n      0xffffffffffffffffffffffffffffffffffffffff\n      and\n      0x8be0079c531659141344cd1fd0a4f28419497f9722a3daafe3b4186f6b6457e0\n      mload(0x40)\n      mload(0x40)\n      dup1\n      swap2\n      sub\n      swap1\n      log3\n        /* \"AllContracts.sol\":2069:2077  newOwner */\n      dup1\n        /* \"AllContracts.sol\":2060:2066  _owner */\n      0x03\n      0x00\n        /* \"AllContracts.sol\":2060:2077  _owner = newOwner */\n      0x0100\n      exp\n      dup2\n      sload\n      dup2\n      0xffffffffffffffffffffffffffffffffffffffff\n      mul\n      not\n      and\n      swap1\n      dup4\n      0xffffffffffffffffffffffffffffffffffffffff\n      and\n      mul\n      or\n      swap1\n      sstore\n      pop\n        /* \"AllContracts.sol\":1844:2084  function transferOwnership(address newOwner) public virtual onlyOwner {... */\n      pop\n      jump\t// out\n        /* \"AllContracts.sol\":18957:19040  function replayGame(uint gameID) public onlyOwner {... */\n    tag_152:\n        /* \"AllContracts.sol\":1141:1153  _msgSender() */\n      tag_279\n        /* \"AllContracts.sol\":1141:1151  _msgSender */\n      tag_162\n        /* \"AllContracts.sol\":1141:1153  _msgSender() */\n      jump\t// in\n    tag_279:\n        /* \"AllContracts.sol\":1131:1153  _owner == _msgSender() */\n      0xffffffffffffffffffffffffffffffffffffffff\n      and\n        /* \"AllContracts.sol\":1131:1137  _owner */\n      0x03\n      0x00\n      swap1\n      sload\n      swap1\n      0x0100\n      exp\n      swap1\n      div\n      0xffffffffffffffffffffffffffffffffffffffff\n      and\n        /* \"AllContracts.sol\":1131:1153  _owner == _msgSender() */\n      0xffffffffffffffffffffffffffffffffffffffff\n      and\n      eq\n        /* \"AllContracts.sol\":1123:1190  require(_owner == _msgSender(), \"Ownable: caller is not the owner\") */\n      tag_280\n      jumpi\n      mload(0x40)\n      0x08c379a000000000000000000000000000000000000000000000000000000000\n      dup2\n      mstore\n      0x04\n      add\n      dup1\n      dup1\n      0x20\n      add\n      dup3\n      dup2\n      sub\n      dup3\n      mstore\n      0x20\n      dup2\n      mstore\n      0x20\n      add\n      dup1\n      0x4f776e61626c653a2063616c6c6572206973206e6f7420746865206f776e6572\n      dup2\n      mstore\n      pop\n      0x20\n      add\n      swap2\n      pop\n      pop\n      mload(0x40)\n      dup1\n      swap2\n      sub\n      swap1\n      revert\n    tag_280:\n        /* \"AllContracts.sol\":19017:19033  playGame(gameID) */\n      tag_282\n        /* \"AllContracts.sol\":19026:19032  gameID */\n      dup2\n        /* \"AllContracts.sol\":19017:19025  playGame */\n      tag_232\n        /* \"AllContracts.sol\":19017:19033  playGame(gameID) */\n      jump\t// in\n    tag_282:\n        /* \"AllContracts.sol\":18957:19040  function replayGame(uint gameID) public onlyOwner {... */\n      pop\n      jump\t// out\n        /* \"AllContracts.sol\":2454:2668  function mul(uint256 a, uint256 b) internal pure returns (uint256) {... */\n    tag_156:\n        /* \"AllContracts.sol\":2512:2519  uint256 */\n      0x00\n        /* \"AllContracts.sol\":2537:2538  0 */\n      dup1\n        /* \"AllContracts.sol\":2532:2533  a */\n      dup4\n        /* \"AllContracts.sol\":2532:2538  a == 0 */\n      eq\n        /* \"AllContracts.sol\":2528:2563  if (a == 0) {... */\n      iszero\n      tag_284\n      jumpi\n        /* \"AllContracts.sol\":2555:2556  0 */\n      0x00\n        /* \"AllContracts.sol\":2548:2556  return 0 */\n      swap1\n      pop\n      jump(tag_283)\n        /* \"AllContracts.sol\":2528:2563  if (a == 0) {... */\n    tag_284:\n        /* \"AllContracts.sol\":2569:2578  uint256 c */\n      0x00\n        /* \"AllContracts.sol\":2585:2586  b */\n      dup3\n        /* \"AllContracts.sol\":2581:2582  a */\n      dup5\n        /* \"AllContracts.sol\":2581:2586  a * b */\n      mul\n        /* \"AllContracts.sol\":2569:2586  uint256 c = a * b */\n      swap1\n      pop\n        /* \"AllContracts.sol\":2609:2610  b */\n      dup3\n        /* \"AllContracts.sol\":2604:2605  a */\n      dup5\n        /* \"AllContracts.sol\":2600:2601  c */\n      dup3\n        /* \"AllContracts.sol\":2600:2605  c / a */\n      dup2\n      tag_285\n      jumpi\n      invalid\n    tag_285:\n      div\n        /* \"AllContracts.sol\":2600:2610  c / a == b */\n      eq\n        /* \"AllContracts.sol\":2592:2648  require(c / a == b, \"SafeMath: multiplication overflow\") */\n      tag_286\n      jumpi\n      mload(0x40)\n      0x08c379a000000000000000000000000000000000000000000000000000000000\n      dup2\n      mstore\n      0x04\n      add\n      dup1\n      dup1\n      0x20\n      add\n      dup3\n      dup2\n      sub\n      dup3\n      mstore\n      0x21\n      dup2\n      mstore\n      0x20\n      add\n      dup1\n      data_9113bb53c2876a3805b2c9242029423fc540a728243ce887ab24c82cf119fba3\n      0x21\n      swap2\n      codecopy\n      0x40\n      add\n      swap2\n      pop\n      pop\n      mload(0x40)\n      dup1\n      swap2\n      sub\n      swap1\n      revert\n    tag_286:\n        /* \"AllContracts.sol\":2662:2663  c */\n      dup1\n        /* \"AllContracts.sol\":2655:2663  return c */\n      swap2\n      pop\n      pop\n        /* \"AllContracts.sol\":2454:2668  function mul(uint256 a, uint256 b) internal pure returns (uint256) {... */\n    tag_283:\n      swap3\n      swap2\n      pop\n      pop\n      jump\t// out\n        /* \"AllContracts.sol\":2119:2281  function add(uint256 a, uint256 b) internal pure returns (uint256) {... */\n    tag_157:\n        /* \"AllContracts.sol\":2177:2184  uint256 */\n      0x00\n        /* \"AllContracts.sol\":2192:2201  uint256 c */\n      dup1\n        /* \"AllContracts.sol\":2208:2209  b */\n      dup3\n        /* \"AllContracts.sol\":2204:2205  a */\n      dup5\n        /* \"AllContracts.sol\":2204:2209  a + b */\n      add\n        /* \"AllContracts.sol\":2192:2209  uint256 c = a + b */\n      swap1\n      pop\n        /* \"AllContracts.sol\":2228:2229  a */\n      dup4\n        /* \"AllContracts.sol\":2223:2224  c */\n      dup2\n        /* \"AllContracts.sol\":2223:2229  c >= a */\n      lt\n      iszero\n        /* \"AllContracts.sol\":2215:2261  require(c >= a, \"SafeMath: addition overflow\") */\n      tag_288\n      jumpi\n      mload(0x40)\n      0x08c379a000000000000000000000000000000000000000000000000000000000\n      dup2\n      mstore\n      0x04\n      add\n      dup1\n      dup1\n      0x20\n      add\n      dup3\n      dup2\n      sub\n      dup3\n      mstore\n      0x1b\n      dup2\n      mstore\n      0x20\n      add\n      dup1\n      0x536166654d6174683a206164646974696f6e206f766572666c6f770000000000\n      dup2\n      mstore\n      pop\n      0x20\n      add\n      swap2\n      pop\n      pop\n      mload(0x40)\n      dup1\n      swap2\n      sub\n      swap1\n      revert\n    tag_288:\n        /* \"AllContracts.sol\":2275:2276  c */\n      dup1\n        /* \"AllContracts.sol\":2268:2276  return c */\n      swap2\n      pop\n      pop\n        /* \"AllContracts.sol\":2119:2281  function add(uint256 a, uint256 b) internal pure returns (uint256) {... */\n      swap3\n      swap2\n      pop\n      pop\n      jump\t// out\n        /* \"AllContracts.sol\":2285:2450  function sub(uint256 a, uint256 b) internal pure returns (uint256) {... */\n    tag_159:\n        /* \"AllContracts.sol\":2343:2350  uint256 */\n      0x00\n        /* \"AllContracts.sol\":2371:2372  a */\n      dup3\n        /* \"AllContracts.sol\":2366:2367  b */\n      dup3\n        /* \"AllContracts.sol\":2366:2372  b <= a */\n      gt\n      iszero\n        /* \"AllContracts.sol\":2358:2407  require(b <= a, \"SafeMath: subtraction overflow\") */\n      tag_290\n      jumpi\n      mload(0x40)\n      0x08c379a000000000000000000000000000000000000000000000000000000000\n      dup2\n      mstore\n      0x04\n      add\n      dup1\n      dup1\n      0x20\n      add\n      dup3\n      dup2\n      sub\n      dup3\n      mstore\n      0x1e\n      dup2\n      mstore\n      0x20\n      add\n      dup1\n      0x536166654d6174683a207375627472616374696f6e206f766572666c6f770000\n      dup2\n      mstore\n      pop\n      0x20\n      add\n      swap2\n      pop\n      pop\n      mload(0x40)\n      dup1\n      swap2\n      sub\n      swap1\n      revert\n    tag_290:\n        /* \"AllContracts.sol\":2413:2422  uint256 c */\n      0x00\n        /* \"AllContracts.sol\":2429:2430  b */\n      dup3\n        /* \"AllContracts.sol\":2425:2426  a */\n      dup5\n        /* \"AllContracts.sol\":2425:2430  a - b */\n      sub\n        /* \"AllContracts.sol\":2413:2430  uint256 c = a - b */\n      swap1\n      pop\n        /* \"AllContracts.sol\":2444:2445  c */\n      dup1\n        /* \"AllContracts.sol\":2437:2445  return c */\n      swap2\n      pop\n      pop\n        /* \"AllContracts.sol\":2285:2450  function sub(uint256 a, uint256 b) internal pure returns (uint256) {... */\n      swap3\n      swap2\n      pop\n      pop\n      jump\t// out\n        /* \"AllContracts.sol\":90:194  function _msgSender() internal view virtual returns (address payable) {... */\n    tag_162:\n        /* \"AllContracts.sol\":143:158  address payable */\n      0x00\n        /* \"AllContracts.sol\":177:187  msg.sender */\n      caller\n        /* \"AllContracts.sol\":170:187  return msg.sender */\n      swap1\n      pop\n        /* \"AllContracts.sol\":90:194  function _msgSender() internal view virtual returns (address payable) {... */\n      swap1\n      jump\t// out\n        /* \"AllContracts.sol\":13125:14249  function fulfillRandomness(bytes32 requestId, uint256 randomness) internal override {... */\n    tag_192:\n        /* \"AllContracts.sol\":13256:13270  Game storage g */\n      0x00\n        /* \"AllContracts.sol\":13273:13278  games */\n      0x1a\n        /* \"AllContracts.sol\":13273:13304  games[_gameRequests[requestId]] */\n      0x00\n        /* \"AllContracts.sol\":13279:13292  _gameRequests */\n      0x1b\n        /* \"AllContracts.sol\":13279:13303  _gameRequests[requestId] */\n      0x00\n        /* \"AllContracts.sol\":13293:13302  requestId */\n      dup7\n        /* \"AllContracts.sol\":13279:13303  _gameRequests[requestId] */\n      dup2\n      mstore\n      0x20\n      add\n      swap1\n      dup2\n      mstore\n      0x20\n      add\n      0x00\n      keccak256\n      sload\n        /* \"AllContracts.sol\":13273:13304  games[_gameRequests[requestId]] */\n      dup2\n      mstore\n      0x20\n      add\n      swap1\n      dup2\n      mstore\n      0x20\n      add\n      0x00\n      keccak256\n        /* \"AllContracts.sol\":13256:13304  Game storage g = games[_gameRequests[requestId]] */\n      swap1\n      pop\n        /* \"AllContracts.sol\":13324:13325  0 */\n      0x00\n        /* \"AllContracts.sol\":13317:13318  g */\n      dup2\n        /* \"AllContracts.sol\":13317:13321  g.id */\n      0x00\n      add\n      sload\n        /* \"AllContracts.sol\":13317:13325  g.id > 0 */\n      gt\n        /* \"AllContracts.sol\":13314:14043  if(g.id > 0){... */\n      iszero\n      tag_293\n      jumpi\n        /* \"AllContracts.sol\":13351:13357  maxBet */\n      sload(0x12)\n        /* \"AllContracts.sol\":13343:13344  g */\n      dup2\n        /* \"AllContracts.sol\":13343:13348  g.bet */\n      0x02\n      add\n      sload\n        /* \"AllContracts.sol\":13343:13357  g.bet > maxBet */\n      gt\n        /* \"AllContracts.sol\":13340:13406  if(g.bet > maxBet) {... */\n      iszero\n      tag_294\n      jumpi\n        /* \"AllContracts.sol\":13385:13391  maxBet */\n      sload(0x12)\n        /* \"AllContracts.sol\":13377:13378  g */\n      dup2\n        /* \"AllContracts.sol\":13377:13382  g.bet */\n      0x02\n      add\n        /* \"AllContracts.sol\":13377:13391  g.bet = maxBet */\n      dup2\n      swap1\n      sstore\n      pop\n        /* \"AllContracts.sol\":13340:13406  if(g.bet > maxBet) {... */\n    tag_294:\n        /* \"AllContracts.sol\":13419:13435  uint totalPayout */\n      0x00\n        /* \"AllContracts.sol\":13438:13466  g.bet.mul(payout).add(g.bet) */\n      tag_295\n        /* \"AllContracts.sol\":13460:13461  g */\n      dup3\n        /* \"AllContracts.sol\":13460:13465  g.bet */\n      0x02\n      add\n      sload\n        /* \"AllContracts.sol\":13438:13455  g.bet.mul(payout) */\n      tag_296\n        /* \"AllContracts.sol\":13448:13454  payout */\n      sload(0x17)\n        /* \"AllContracts.sol\":13438:13439  g */\n      dup6\n        /* \"AllContracts.sol\":13438:13443  g.bet */\n      0x02\n      add\n      sload\n        /* \"AllContracts.sol\":13438:13447  g.bet.mul */\n      tag_156\n      swap1\n        /* \"AllContracts.sol\":13438:13455  g.bet.mul(payout) */\n      swap2\n      swap1\n      0xffffffff\n      and\n      jump\t// in\n    tag_296:\n        /* \"AllContracts.sol\":13438:13459  g.bet.mul(payout).add */\n      tag_157\n      swap1\n        /* \"AllContracts.sol\":13438:13466  g.bet.mul(payout).add(g.bet) */\n      swap2\n      swap1\n      0xffffffff\n      and\n      jump\t// in\n    tag_295:\n        /* \"AllContracts.sol\":13419:13466  uint totalPayout = g.bet.mul(payout).add(g.bet) */\n      swap1\n      pop\n        /* \"AllContracts.sol\":13513:13524  totalPayout */\n      dup1\n        /* \"AllContracts.sol\":13488:13509  address(this).balance */\n      selfbalance\n        /* \"AllContracts.sol\":13488:13524  address(this).balance >= totalPayout */\n      lt\n      iszero\n        /* \"AllContracts.sol\":13480:13561  require(address(this).balance >= totalPayout, \"Contract balance too low to play\") */\n      tag_297\n      jumpi\n      mload(0x40)\n      0x08c379a000000000000000000000000000000000000000000000000000000000\n      dup2\n      mstore\n      0x04\n      add\n      dup1\n      dup1\n      0x20\n      add\n      dup3\n      dup2\n      sub\n      dup3\n      mstore\n      0x20\n      dup2\n      mstore\n      0x20\n      add\n      dup1\n      0x436f6e74726163742062616c616e636520746f6f206c6f7720746f20706c6179\n      dup2\n      mstore\n      pop\n      0x20\n      add\n      swap2\n      pop\n      pop\n      mload(0x40)\n      dup1\n      swap2\n      sub\n      swap1\n      revert\n    tag_297:\n        /* \"AllContracts.sol\":13587:13617  randomness.mod(maxPick).add(1) */\n      tag_298\n        /* \"AllContracts.sol\":13615:13616  1 */\n      0x01\n        /* \"AllContracts.sol\":13587:13610  randomness.mod(maxPick) */\n      tag_299\n        /* \"AllContracts.sol\":13602:13609  maxPick */\n      sload(0x11)\n        /* \"AllContracts.sol\":13587:13597  randomness */\n      dup7\n        /* \"AllContracts.sol\":13587:13601  randomness.mod */\n      tag_300\n      swap1\n        /* \"AllContracts.sol\":13587:13610  randomness.mod(maxPick) */\n      swap2\n      swap1\n      0xffffffff\n      and\n      jump\t// in\n    tag_299:\n        /* \"AllContracts.sol\":13587:13614  randomness.mod(maxPick).add */\n      tag_157\n      swap1\n        /* \"AllContracts.sol\":13587:13617  randomness.mod(maxPick).add(1) */\n      swap2\n      swap1\n      0xffffffff\n      and\n      jump\t// in\n    tag_298:\n        /* \"AllContracts.sol\":13576:13577  g */\n      dup3\n        /* \"AllContracts.sol\":13576:13584  g.winner */\n      0x04\n      add\n        /* \"AllContracts.sol\":13576:13617  g.winner = randomness.mod(maxPick).add(1) */\n      dup2\n      swap1\n      sstore\n      pop\n        /* \"AllContracts.sol\":13643:13647  true */\n      0x01\n        /* \"AllContracts.sol\":13632:13633  g */\n      dup3\n        /* \"AllContracts.sol\":13632:13640  g.played */\n      0x05\n      add\n      0x00\n        /* \"AllContracts.sol\":13632:13647  g.played = true */\n      0x0100\n      exp\n      dup2\n      sload\n      dup2\n      0xff\n      mul\n      not\n      and\n      swap1\n      dup4\n      iszero\n      iszero\n      mul\n      or\n      swap1\n      sstore\n      pop\n        /* \"AllContracts.sol\":13682:13683  g */\n      dup2\n        /* \"AllContracts.sol\":13682:13687  g.bet */\n      0x02\n      add\n      sload\n        /* \"AllContracts.sol\":13665:13678  _unplayedBets */\n      sload(0x14)\n        /* \"AllContracts.sol\":13665:13687  _unplayedBets >= g.bet */\n      lt\n        /* \"AllContracts.sol\":13662:13800  if(_unplayedBets >= g.bet) {... */\n      tag_301\n      jumpi\n        /* \"AllContracts.sol\":13724:13725  g */\n      dup2\n        /* \"AllContracts.sol\":13724:13729  g.bet */\n      0x02\n      add\n      sload\n        /* \"AllContracts.sol\":13707:13720  _unplayedBets */\n      0x14\n      0x00\n        /* \"AllContracts.sol\":13707:13729  _unplayedBets -= g.bet */\n      dup3\n      dup3\n      sload\n      sub\n      swap3\n      pop\n      pop\n      dup2\n      swap1\n      sstore\n      pop\n        /* \"AllContracts.sol\":13662:13800  if(_unplayedBets >= g.bet) {... */\n      jump(tag_302)\n    tag_301:\n        /* \"AllContracts.sol\":13784:13785  0 */\n      0x00\n        /* \"AllContracts.sol\":13768:13781  _unplayedBets */\n      0x14\n        /* \"AllContracts.sol\":13768:13785  _unplayedBets = 0 */\n      dup2\n      swap1\n      sstore\n      pop\n        /* \"AllContracts.sol\":13662:13800  if(_unplayedBets >= g.bet) {... */\n    tag_302:\n        /* \"AllContracts.sol\":13828:13829  g */\n      dup2\n        /* \"AllContracts.sol\":13828:13836  g.winner */\n      0x04\n      add\n      sload\n        /* \"AllContracts.sol\":13818:13819  g */\n      dup3\n        /* \"AllContracts.sol\":13818:13824  g.pick */\n      0x03\n      add\n      sload\n        /* \"AllContracts.sol\":13818:13836  g.pick == g.winner */\n      eq\n        /* \"AllContracts.sol\":13814:13955  if (g.pick == g.winner) {... */\n      iszero\n      tag_303\n      jumpi\n        /* \"AllContracts.sol\":13856:13857  g */\n      dup2\n        /* \"AllContracts.sol\":13856:13864  g.player */\n      0x01\n      add\n      0x00\n      swap1\n      sload\n      swap1\n      0x0100\n      exp\n      swap1\n      div\n      0xffffffffffffffffffffffffffffffffffffffff\n      and\n        /* \"AllContracts.sol\":13856:13873  g.player.transfer */\n      0xffffffffffffffffffffffffffffffffffffffff\n      and\n        /* \"AllContracts.sol\":13856:13886  g.player.transfer(totalPayout) */\n      0x08fc\n        /* \"AllContracts.sol\":13874:13885  totalPayout */\n      dup3\n        /* \"AllContracts.sol\":13856:13886  g.player.transfer(totalPayout) */\n      swap1\n      dup2\n      iszero\n      mul\n      swap1\n      mload(0x40)\n      0x00\n      mload(0x40)\n      dup1\n      dup4\n      sub\n      dup2\n      dup6\n      dup9\n      dup9\n      call\n      swap4\n      pop\n      pop\n      pop\n      pop\n      iszero\n        /* \"--CODEGEN--\":8:17   */\n      dup1\n        /* \"--CODEGEN--\":5:7   */\n      iszero\n      tag_305\n      jumpi\n        /* \"--CODEGEN--\":45:61   */\n      returndatasize\n        /* \"--CODEGEN--\":42:43   */\n      0x00\n        /* \"--CODEGEN--\":39:40   */\n      dup1\n        /* \"--CODEGEN--\":24:62   */\n      returndatacopy\n        /* \"--CODEGEN--\":77:93   */\n      returndatasize\n        /* \"--CODEGEN--\":74:75   */\n      0x00\n        /* \"--CODEGEN--\":67:94   */\n      revert\n        /* \"--CODEGEN--\":5:7   */\n    tag_305:\n        /* \"AllContracts.sol\":13856:13886  g.player.transfer(totalPayout) */\n      pop\n        /* \"AllContracts.sol\":13814:13955  if (g.pick == g.winner) {... */\n      jump(tag_306)\n    tag_303:\n        /* \"AllContracts.sol\":13939:13940  0 */\n      0x00\n        /* \"AllContracts.sol\":13925:13940  totalPayout = 0 */\n      swap1\n      pop\n        /* \"AllContracts.sol\":13814:13955  if (g.pick == g.winner) {... */\n    tag_306:\n        /* \"AllContracts.sol\":13974:14032  GamePlayed(g.player, g.bet, g.pick, g.winner, totalPayout) */\n      0xc06600d6399308f270bc6ae70d5377121b685c974bb7f7355824fddd8a2b3497\n        /* \"AllContracts.sol\":13985:13986  g */\n      dup3\n        /* \"AllContracts.sol\":13985:13993  g.player */\n      0x01\n      add\n      0x00\n      swap1\n      sload\n      swap1\n      0x0100\n      exp\n      swap1\n      div\n      0xffffffffffffffffffffffffffffffffffffffff\n      and\n        /* \"AllContracts.sol\":13995:13996  g */\n      dup4\n        /* \"AllContracts.sol\":13995:14000  g.bet */\n      0x02\n      add\n      sload\n        /* \"AllContracts.sol\":14002:14003  g */\n      dup5\n        /* \"AllContracts.sol\":14002:14008  g.pick */\n      0x03\n      add\n      sload\n        /* \"AllContracts.sol\":14010:14011  g */\n      dup6\n        /* \"AllContracts.sol\":14010:14018  g.winner */\n      0x04\n      add\n      sload\n        /* \"AllContracts.sol\":14020:14031  totalPayout */\n      dup6\n        /* \"AllContracts.sol\":13974:14032  GamePlayed(g.player, g.bet, g.pick, g.winner, totalPayout) */\n      mload(0x40)\n      dup1\n      dup7\n      0xffffffffffffffffffffffffffffffffffffffff\n      and\n      0xffffffffffffffffffffffffffffffffffffffff\n      and\n      dup2\n      mstore\n      0x20\n      add\n      dup6\n      dup2\n      mstore\n      0x20\n      add\n      dup5\n      dup2\n      mstore\n      0x20\n      add\n      dup4\n      dup2\n      mstore\n      0x20\n      add\n      dup3\n      dup2\n      mstore\n      0x20\n      add\n      swap6\n      pop\n      pop\n      pop\n      pop\n      pop\n      pop\n      mload(0x40)\n      dup1\n      swap2\n      sub\n      swap1\n      log1\n        /* \"AllContracts.sol\":13314:14043  if(g.id > 0){... */\n      pop\n    tag_293:\n        /* \"AllContracts.sol\":14059:14060  1 */\n      0x01\n        /* \"AllContracts.sol\":14052:14056  gas1 */\n      0x06\n        /* \"AllContracts.sol\":14052:14060  gas1 = 1 */\n      dup2\n      swap1\n      sstore\n      pop\n        /* \"AllContracts.sol\":14077:14078  1 */\n      0x01\n        /* \"AllContracts.sol\":14070:14074  gas2 */\n      0x07\n        /* \"AllContracts.sol\":14070:14078  gas2 = 1 */\n      dup2\n      swap1\n      sstore\n      pop\n        /* \"AllContracts.sol\":14095:14096  1 */\n      0x01\n        /* \"AllContracts.sol\":14088:14092  gas3 */\n      0x08\n        /* \"AllContracts.sol\":14088:14096  gas3 = 1 */\n      dup2\n      swap1\n      sstore\n      pop\n        /* \"AllContracts.sol\":14113:14114  1 */\n      0x01\n        /* \"AllContracts.sol\":14106:14110  gas4 */\n      0x09\n        /* \"AllContracts.sol\":14106:14114  gas4 = 1 */\n      dup2\n      swap1\n      sstore\n      pop\n        /* \"AllContracts.sol\":14131:14132  1 */\n      0x01\n        /* \"AllContracts.sol\":14124:14128  gas5 */\n      0x0a\n        /* \"AllContracts.sol\":14124:14132  gas5 = 1 */\n      dup2\n      swap1\n      sstore\n      pop\n        /* \"AllContracts.sol\":14149:14150  1 */\n      0x01\n        /* \"AllContracts.sol\":14142:14146  gas6 */\n      0x0b\n        /* \"AllContracts.sol\":14142:14150  gas6 = 1 */\n      dup2\n      swap1\n      sstore\n      pop\n        /* \"AllContracts.sol\":14167:14168  1 */\n      0x01\n        /* \"AllContracts.sol\":14160:14164  gas7 */\n      0x0c\n        /* \"AllContracts.sol\":14160:14168  gas7 = 1 */\n      dup2\n      swap1\n      sstore\n      pop\n        /* \"AllContracts.sol\":14185:14186  1 */\n      0x01\n        /* \"AllContracts.sol\":14178:14182  gas8 */\n      0x0d\n        /* \"AllContracts.sol\":14178:14186  gas8 = 1 */\n      dup2\n      swap1\n      sstore\n      pop\n        /* \"AllContracts.sol\":14203:14204  1 */\n      0x01\n        /* \"AllContracts.sol\":14196:14200  gas9 */\n      0x0e\n        /* \"AllContracts.sol\":14196:14204  gas9 = 1 */\n      dup2\n      swap1\n      sstore\n      pop\n        /* \"AllContracts.sol\":14222:14223  1 */\n      0x01\n        /* \"AllContracts.sol\":14214:14219  gas10 */\n      0x0f\n        /* \"AllContracts.sol\":14214:14223  gas10 = 1 */\n      dup2\n      swap1\n      sstore\n      pop\n        /* \"AllContracts.sol\":14241:14242  1 */\n      0x01\n        /* \"AllContracts.sol\":14233:14238  gas11 */\n      0x10\n        /* \"AllContracts.sol\":14233:14242  gas11 = 1 */\n      dup2\n      swap1\n      sstore\n      pop\n        /* \"AllContracts.sol\":13125:14249  function fulfillRandomness(bytes32 requestId, uint256 randomness) internal override {... */\n      pop\n      pop\n      pop\n      jump\t// out\n        /* \"AllContracts.sol\":11367:11739  function createGame(address payable _player, uint _bet, uint _pick) internal {... */\n    tag_230:\n        /* \"AllContracts.sol\":11470:11489  _currentGame.add(1) */\n      tag_308\n        /* \"AllContracts.sol\":11487:11488  1 */\n      0x01\n        /* \"AllContracts.sol\":11470:11482  _currentGame */\n      sload(0x15)\n        /* \"AllContracts.sol\":11470:11486  _currentGame.add */\n      tag_157\n      swap1\n        /* \"AllContracts.sol\":11470:11489  _currentGame.add(1) */\n      swap2\n      swap1\n      0xffffffff\n      and\n      jump\t// in\n    tag_308:\n        /* \"AllContracts.sol\":11455:11467  _currentGame */\n      0x15\n        /* \"AllContracts.sol\":11455:11489  _currentGame = _currentGame.add(1) */\n      dup2\n      swap1\n      sstore\n      pop\n        /* \"AllContracts.sol\":11499:11518  Game memory newGame */\n      tag_309\n      tag_310\n      jump\t// in\n    tag_309:\n        /* \"AllContracts.sol\":11521:11695  Game ({... */\n      mload(0x40)\n      dup1\n      0xc0\n      add\n      0x40\n      mstore\n      dup1\n        /* \"AllContracts.sol\":11545:11557  _currentGame */\n      sload(0x15)\n        /* \"AllContracts.sol\":11521:11695  Game ({... */\n      dup2\n      mstore\n      0x20\n      add\n        /* \"AllContracts.sol\":11579:11586  _player */\n      dup6\n        /* \"AllContracts.sol\":11521:11695  Game ({... */\n      0xffffffffffffffffffffffffffffffffffffffff\n      and\n      dup2\n      mstore\n      0x20\n      add\n        /* \"AllContracts.sol\":11605:11609  _bet */\n      dup5\n        /* \"AllContracts.sol\":11521:11695  Game ({... */\n      dup2\n      mstore\n      0x20\n      add\n        /* \"AllContracts.sol\":11629:11634  _pick */\n      dup4\n        /* \"AllContracts.sol\":11521:11695  Game ({... */\n      dup2\n      mstore\n      0x20\n      add\n        /* \"AllContracts.sol\":11656:11657  0 */\n      0x00\n        /* \"AllContracts.sol\":11521:11695  Game ({... */\n      dup2\n      mstore\n      0x20\n      add\n        /* \"AllContracts.sol\":11679:11684  false */\n      0x00\n        /* \"AllContracts.sol\":11521:11695  Game ({... */\n      iszero\n      iszero\n      dup2\n      mstore\n      pop\n        /* \"AllContracts.sol\":11499:11695  Game memory newGame = Game ({... */\n      swap1\n      pop\n        /* \"AllContracts.sol\":11725:11732  newGame */\n      dup1\n        /* \"AllContracts.sol\":11705:11710  games */\n      0x1a\n        /* \"AllContracts.sol\":11705:11722  games[newGame.id] */\n      0x00\n        /* \"AllContracts.sol\":11711:11718  newGame */\n      dup4\n        /* \"AllContracts.sol\":11711:11721  newGame.id */\n      0x00\n      add\n      mload\n        /* \"AllContracts.sol\":11705:11722  games[newGame.id] */\n      dup2\n      mstore\n      0x20\n      add\n      swap1\n      dup2\n      mstore\n      0x20\n      add\n      0x00\n      keccak256\n        /* \"AllContracts.sol\":11705:11732  games[newGame.id] = newGame */\n      0x00\n      dup3\n      add\n      mload\n      dup2\n      0x00\n      add\n      sstore\n      0x20\n      dup3\n      add\n      mload\n      dup2\n      0x01\n      add\n      exp(0x0100, 0x00)\n      dup2\n      sload\n      dup2\n      0xffffffffffffffffffffffffffffffffffffffff\n      mul\n      not\n      and\n      swap1\n      dup4\n      0xffffffffffffffffffffffffffffffffffffffff\n      and\n      mul\n      or\n      swap1\n      sstore\n      pop\n      0x40\n      dup3\n      add\n      mload\n      dup2\n      0x02\n      add\n      sstore\n      0x60\n      dup3\n      add\n      mload\n      dup2\n      0x03\n      add\n      sstore\n      0x80\n      dup3\n      add\n      mload\n      dup2\n      0x04\n      add\n      sstore\n      0xa0\n      dup3\n      add\n      mload\n      dup2\n      0x05\n      add\n      exp(0x0100, 0x00)\n      dup2\n      sload\n      dup2\n      0xff\n      mul\n      not\n      and\n      swap1\n      dup4\n      iszero\n      iszero\n      mul\n      or\n      swap1\n      sstore\n      pop\n      swap1\n      pop\n      pop\n        /* \"AllContracts.sol\":11367:11739  function createGame(address payable _player, uint _bet, uint _pick) internal {... */\n      pop\n      pop\n      pop\n      pop\n      jump\t// out\n        /* \"AllContracts.sol\":12381:12590  function playGame(uint gameID) internal {... */\n    tag_232:\n        /* \"AllContracts.sol\":12463:12468  false */\n      0x00\n        /* \"AllContracts.sol\":12439:12468  games[gameID].played == false */\n      iszero\n      iszero\n        /* \"AllContracts.sol\":12439:12444  games */\n      0x1a\n        /* \"AllContracts.sol\":12439:12452  games[gameID] */\n      0x00\n        /* \"AllContracts.sol\":12445:12451  gameID */\n      dup4\n        /* \"AllContracts.sol\":12439:12452  games[gameID] */\n      dup2\n      mstore\n      0x20\n      add\n      swap1\n      dup2\n      mstore\n      0x20\n      add\n      0x00\n      keccak256\n        /* \"AllContracts.sol\":12439:12459  games[gameID].played */\n      0x05\n      add\n      0x00\n      swap1\n      sload\n      swap1\n      0x0100\n      exp\n      swap1\n      div\n      0xff\n      and\n        /* \"AllContracts.sol\":12439:12468  games[gameID].played == false */\n      iszero\n      iszero\n      eq\n        /* \"AllContracts.sol\":12431:12492  require(games[gameID].played == false, \"game already played\") */\n      tag_312\n      jumpi\n      mload(0x40)\n      0x08c379a000000000000000000000000000000000000000000000000000000000\n      dup2\n      mstore\n      0x04\n      add\n      dup1\n      dup1\n      0x20\n      add\n      dup3\n      dup2\n      sub\n      dup3\n      mstore\n      0x13\n      dup2\n      mstore\n      0x20\n      add\n      dup1\n      0x67616d6520616c726561647920706c6179656400000000000000000000000000\n      dup2\n      mstore\n      pop\n      0x20\n      add\n      swap2\n      pop\n      pop\n      mload(0x40)\n      dup1\n      swap2\n      sub\n      swap1\n      revert\n    tag_312:\n        /* \"AllContracts.sol\":12502:12515  bytes32 reqID */\n      0x00\n        /* \"AllContracts.sol\":12518:12544  getRandomNumber(getSeed()) */\n      tag_313\n        /* \"AllContracts.sol\":12534:12543  getSeed() */\n      tag_314\n        /* \"AllContracts.sol\":12534:12541  getSeed */\n      tag_315\n        /* \"AllContracts.sol\":12534:12543  getSeed() */\n      jump\t// in\n    tag_314:\n        /* \"AllContracts.sol\":12518:12533  getRandomNumber */\n      tag_316\n        /* \"AllContracts.sol\":12518:12544  getRandomNumber(getSeed()) */\n      jump\t// in\n    tag_313:\n        /* \"AllContracts.sol\":12502:12544  bytes32 reqID = getRandomNumber(getSeed()) */\n      swap1\n      pop\n        /* \"AllContracts.sol\":12577:12583  gameID */\n      dup2\n        /* \"AllContracts.sol\":12554:12567  _gameRequests */\n      0x1b\n        /* \"AllContracts.sol\":12554:12574  _gameRequests[reqID] */\n      0x00\n        /* \"AllContracts.sol\":12568:12573  reqID */\n      dup4\n        /* \"AllContracts.sol\":12554:12574  _gameRequests[reqID] */\n      dup2\n      mstore\n      0x20\n      add\n      swap1\n      dup2\n      mstore\n      0x20\n      add\n      0x00\n      keccak256\n        /* \"AllContracts.sol\":12554:12583  _gameRequests[reqID] = gameID */\n      dup2\n      swap1\n      sstore\n      pop\n        /* \"AllContracts.sol\":12381:12590  function playGame(uint gameID) internal {... */\n      pop\n      pop\n      jump\t// out\n        /* \"AllContracts.sol\":8255:8443  function betInRange(uint bet) internal view returns(bool){... */\n    tag_267:\n        /* \"AllContracts.sol\":8307:8311  bool */\n      0x00\n        /* \"AllContracts.sol\":8333:8339  minBet */\n      sload(0x13)\n        /* \"AllContracts.sol\":8326:8329  bet */\n      dup3\n        /* \"AllContracts.sol\":8326:8339  bet >= minBet */\n      lt\n      iszero\n        /* \"AllContracts.sol\":8326:8356  bet >= minBet && bet <= maxBet */\n      dup1\n      iszero\n      tag_318\n      jumpi\n      pop\n        /* \"AllContracts.sol\":8350:8356  maxBet */\n      sload(0x12)\n        /* \"AllContracts.sol\":8343:8346  bet */\n      dup3\n        /* \"AllContracts.sol\":8343:8356  bet <= maxBet */\n      gt\n      iszero\n        /* \"AllContracts.sol\":8326:8356  bet >= minBet && bet <= maxBet */\n    tag_318:\n        /* \"AllContracts.sol\":8322:8437  if (bet >= minBet && bet <= maxBet) {... */\n      iszero\n      tag_319\n      jumpi\n        /* \"AllContracts.sol\":8379:8383  true */\n      0x01\n        /* \"AllContracts.sol\":8372:8383  return true */\n      swap1\n      pop\n      jump(tag_317)\n        /* \"AllContracts.sol\":8322:8437  if (bet >= minBet && bet <= maxBet) {... */\n    tag_319:\n        /* \"AllContracts.sol\":8421:8426  false */\n      0x00\n        /* \"AllContracts.sol\":8414:8426  return false */\n      swap1\n      pop\n        /* \"AllContracts.sol\":8255:8443  function betInRange(uint bet) internal view returns(bool){... */\n    tag_317:\n      swap2\n      swap1\n      pop\n      jump\t// out\n        /* \"AllContracts.sol\":2980:3119  function mod(uint256 a, uint256 b) internal pure returns (uint256) {... */\n    tag_300:\n        /* \"AllContracts.sol\":3038:3045  uint256 */\n      0x00\n        /* \"AllContracts.sol\":3066:3067  0 */\n      dup1\n        /* \"AllContracts.sol\":3061:3062  b */\n      dup3\n        /* \"AllContracts.sol\":3061:3067  b != 0 */\n      eq\n      iszero\n        /* \"AllContracts.sol\":3053:3096  require(b != 0, \"SafeMath: modulo by zero\") */\n      tag_322\n      jumpi\n      mload(0x40)\n      0x08c379a000000000000000000000000000000000000000000000000000000000\n      dup2\n      mstore\n      0x04\n      add\n      dup1\n      dup1\n      0x20\n      add\n      dup3\n      dup2\n      sub\n      dup3\n      mstore\n      0x18\n      dup2\n      mstore\n      0x20\n      add\n      dup1\n      0x536166654d6174683a206d6f64756c6f206279207a65726f0000000000000000\n      dup2\n      mstore\n      pop\n      0x20\n      add\n      swap2\n      pop\n      pop\n      mload(0x40)\n      dup1\n      swap2\n      sub\n      swap1\n      revert\n    tag_322:\n        /* \"AllContracts.sol\":3113:3114  b */\n      dup2\n        /* \"AllContracts.sol\":3109:3110  a */\n      dup4\n        /* \"AllContracts.sol\":3109:3114  a % b */\n      dup2\n      tag_323\n      jumpi\n      invalid\n    tag_323:\n      mod\n        /* \"AllContracts.sol\":3102:3114  return a % b */\n      swap1\n      pop\n        /* \"AllContracts.sol\":2980:3119  function mod(uint256 a, uint256 b) internal pure returns (uint256) {... */\n      swap3\n      swap2\n      pop\n      pop\n      jump\t// out\n        /* \"AllContracts.sol\":11820:12012  function getSeed() internal view returns(uint256) {... */\n    tag_315:\n        /* \"AllContracts.sol\":11861:11868  uint256 */\n      0x00\n        /* \"AllContracts.sol\":11880:11893  Game memory g */\n      tag_325\n      tag_310\n      jump\t// in\n    tag_325:\n        /* \"AllContracts.sol\":11896:11901  games */\n      0x1a\n        /* \"AllContracts.sol\":11896:11915  games[_currentGame] */\n      0x00\n        /* \"AllContracts.sol\":11902:11914  _currentGame */\n      sload(0x15)\n        /* \"AllContracts.sol\":11896:11915  games[_currentGame] */\n      dup2\n      mstore\n      0x20\n      add\n      swap1\n      dup2\n      mstore\n      0x20\n      add\n      0x00\n      keccak256\n        /* \"AllContracts.sol\":11880:11915  Game memory g = games[_currentGame] */\n      mload(0x40)\n      dup1\n      0xc0\n      add\n      0x40\n      mstore\n      swap1\n      dup2\n      0x00\n      dup3\n      add\n      sload\n      dup2\n      mstore\n      0x20\n      add\n      0x01\n      dup3\n      add\n      0x00\n      swap1\n      sload\n      swap1\n      0x0100\n      exp\n      swap1\n      div\n      0xffffffffffffffffffffffffffffffffffffffff\n      and\n      0xffffffffffffffffffffffffffffffffffffffff\n      and\n      0xffffffffffffffffffffffffffffffffffffffff\n      and\n      dup2\n      mstore\n      0x20\n      add\n      0x02\n      dup3\n      add\n      sload\n      dup2\n      mstore\n      0x20\n      add\n      0x03\n      dup3\n      add\n      sload\n      dup2\n      mstore\n      0x20\n      add\n      0x04\n      dup3\n      add\n      sload\n      dup2\n      mstore\n      0x20\n      add\n      0x05\n      dup3\n      add\n      0x00\n      swap1\n      sload\n      swap1\n      0x0100\n      exp\n      swap1\n      div\n      0xff\n      and\n      iszero\n      iszero\n      iszero\n      iszero\n      dup2\n      mstore\n      pop\n      pop\n      swap1\n      pop\n        /* \"AllContracts.sol\":11964:11976  block.number */\n      number\n        /* \"AllContracts.sol\":11978:11981  now */\n      timestamp\n        /* \"AllContracts.sol\":11983:11984  g */\n      dup3\n        /* \"AllContracts.sol\":11983:11989  g.pick */\n      0x60\n      add\n      mload\n        /* \"AllContracts.sol\":11991:11992  g */\n      dup4\n        /* \"AllContracts.sol\":11991:11996  g.bet */\n      0x40\n      add\n      mload\n        /* \"AllContracts.sol\":11998:11999  g */\n      dup5\n        /* \"AllContracts.sol\":11998:12002  g.id */\n      0x00\n      add\n      mload\n        /* \"AllContracts.sol\":11947:12003  abi.encodePacked(block.number, now, g.pick, g.bet, g.id) */\n      add(0x20, mload(0x40))\n      dup1\n      dup7\n      dup2\n      mstore\n      0x20\n      add\n      dup6\n      dup2\n      mstore\n      0x20\n      add\n      dup5\n      dup2\n      mstore\n      0x20\n      add\n      dup4\n      dup2\n      mstore\n      0x20\n      add\n      dup3\n      dup2\n      mstore\n      0x20\n      add\n      swap6\n      pop\n      pop\n      pop\n      pop\n      pop\n      pop\n      mload(0x40)\n        /* \"--CODEGEN--\":49:53   */\n      0x20\n        /* \"--CODEGEN--\":39:46   */\n      dup2\n        /* \"--CODEGEN--\":30:37   */\n      dup4\n        /* \"--CODEGEN--\":26:47   */\n      sub\n        /* \"--CODEGEN--\":22:54   */\n      sub\n        /* \"--CODEGEN--\":13:20   */\n      dup2\n        /* \"--CODEGEN--\":6:55   */\n      mstore\n        /* \"AllContracts.sol\":11947:12003  abi.encodePacked(block.number, now, g.pick, g.bet, g.id) */\n      swap1\n      0x40\n      mstore\n        /* \"AllContracts.sol\":11937:12004  keccak256(abi.encodePacked(block.number, now, g.pick, g.bet, g.id)) */\n      dup1\n      mload\n      swap1\n      0x20\n      add\n      keccak256\n        /* \"AllContracts.sol\":11932:12005  uint(keccak256(abi.encodePacked(block.number, now, g.pick, g.bet, g.id))) */\n      0x00\n      shr\n        /* \"AllContracts.sol\":11925:12005  return uint(keccak256(abi.encodePacked(block.number, now, g.pick, g.bet, g.id))) */\n      swap2\n      pop\n      pop\n        /* \"AllContracts.sol\":11820:12012  function getSeed() internal view returns(uint256) {... */\n      swap1\n      jump\t// out\n        /* \"AllContracts.sol\":12722:12932  function getRandomNumber(uint256 seed) internal returns (bytes32 requestId) {... */\n    tag_316:\n        /* \"AllContracts.sol\":12779:12796  bytes32 requestId */\n      0x00\n        /* \"AllContracts.sol\":12848:12851  fee */\n      sload(0x05)\n        /* \"AllContracts.sol\":12816:12820  LINK */\n      0x00\n      dup1\n      swap1\n      sload\n      swap1\n      0x0100\n      exp\n      swap1\n      div\n      0xffffffffffffffffffffffffffffffffffffffff\n      and\n        /* \"AllContracts.sol\":12816:12830  LINK.balanceOf */\n      0xffffffffffffffffffffffffffffffffffffffff\n      and\n      0x70a08231\n        /* \"AllContracts.sol\":12839:12843  this */\n      address\n        /* \"AllContracts.sol\":12816:12845  LINK.balanceOf(address(this)) */\n      mload(0x40)\n      dup3\n      0xffffffff\n      and\n      0xe0\n      shl\n      dup2\n      mstore\n      0x04\n      add\n      dup1\n      dup3\n      0xffffffffffffffffffffffffffffffffffffffff\n      and\n      0xffffffffffffffffffffffffffffffffffffffff\n      and\n      dup2\n      mstore\n      0x20\n      add\n      swap2\n      pop\n      pop\n      0x20\n      mload(0x40)\n      dup1\n      dup4\n      sub\n      dup2\n      dup7\n      dup1\n      extcodesize\n      iszero\n        /* \"--CODEGEN--\":8:17   */\n      dup1\n        /* \"--CODEGEN--\":5:7   */\n      iszero\n      tag_327\n      jumpi\n        /* \"--CODEGEN--\":30:31   */\n      0x00\n        /* \"--CODEGEN--\":27:28   */\n      dup1\n        /* \"--CODEGEN--\":20:32   */\n      revert\n        /* \"--CODEGEN--\":5:7   */\n    tag_327:\n        /* \"AllContracts.sol\":12816:12845  LINK.balanceOf(address(this)) */\n      pop\n      gas\n      staticcall\n      iszero\n        /* \"--CODEGEN--\":8:17   */\n      dup1\n        /* \"--CODEGEN--\":5:7   */\n      iszero\n      tag_329\n      jumpi\n        /* \"--CODEGEN--\":45:61   */\n      returndatasize\n        /* \"--CODEGEN--\":42:43   */\n      0x00\n        /* \"--CODEGEN--\":39:40   */\n      dup1\n        /* \"--CODEGEN--\":24:62   */\n      returndatacopy\n        /* \"--CODEGEN--\":77:93   */\n      returndatasize\n        /* \"--CODEGEN--\":74:75   */\n      0x00\n        /* \"--CODEGEN--\":67:94   */\n      revert\n        /* \"--CODEGEN--\":5:7   */\n    tag_329:\n        /* \"AllContracts.sol\":12816:12845  LINK.balanceOf(address(this)) */\n      pop\n      pop\n      pop\n      pop\n      mload(0x40)\n      returndatasize\n        /* \"--CODEGEN--\":13:15   */\n      0x20\n        /* \"--CODEGEN--\":8:11   */\n      dup2\n        /* \"--CODEGEN--\":5:16   */\n      lt\n        /* \"--CODEGEN--\":2:4   */\n      iszero\n      tag_330\n      jumpi\n        /* \"--CODEGEN--\":29:30   */\n      0x00\n        /* \"--CODEGEN--\":26:27   */\n      dup1\n        /* \"--CODEGEN--\":19:31   */\n      revert\n        /* \"--CODEGEN--\":2:4   */\n    tag_330:\n        /* \"AllContracts.sol\":12816:12845  LINK.balanceOf(address(this)) */\n      dup2\n      add\n      swap1\n      dup1\n      dup1\n      mload\n      swap1\n      0x20\n      add\n      swap1\n      swap3\n      swap2\n      swap1\n      pop\n      pop\n      pop\n        /* \"AllContracts.sol\":12816:12851  LINK.balanceOf(address(this)) > fee */\n      gt\n        /* \"AllContracts.sol\":12808:12871  require(LINK.balanceOf(address(this)) > fee, \"Not enough LINK\") */\n      tag_331\n      jumpi\n      mload(0x40)\n      0x08c379a000000000000000000000000000000000000000000000000000000000\n      dup2\n      mstore\n      0x04\n      add\n      dup1\n      dup1\n      0x20\n      add\n      dup3\n      dup2\n      sub\n      dup3\n      mstore\n      0x0f\n      dup2\n      mstore\n      0x20\n      add\n      dup1\n      0x4e6f7420656e6f756768204c494e4b0000000000000000000000000000000000\n      dup2\n      mstore\n      pop\n      0x20\n      add\n      swap2\n      pop\n      pop\n      mload(0x40)\n      dup1\n      swap2\n      sub\n      swap1\n      revert\n    tag_331:\n        /* \"AllContracts.sol\":12888:12925  requestRandomness(keyHash, fee, seed) */\n      tag_332\n        /* \"AllContracts.sol\":12906:12913  keyHash */\n      sload(0x04)\n        /* \"AllContracts.sol\":12915:12918  fee */\n      sload(0x05)\n        /* \"AllContracts.sol\":12920:12924  seed */\n      dup5\n        /* \"AllContracts.sol\":12888:12905  requestRandomness */\n      tag_333\n        /* \"AllContracts.sol\":12888:12925  requestRandomness(keyHash, fee, seed) */\n      jump\t// in\n    tag_332:\n        /* \"AllContracts.sol\":12881:12925  return requestRandomness(keyHash, fee, seed) */\n      swap1\n      pop\n        /* \"AllContracts.sol\":12722:12932  function getRandomNumber(uint256 seed) internal returns (bytes32 requestId) {... */\n      swap2\n      swap1\n      pop\n      jump\t// out\n        /* \"AllContracts.sol\":4790:5175  function requestRandomness(bytes32 _keyHash, uint256 _fee, uint256 _seed)... */\n    tag_333:\n        /* \"AllContracts.sol\":4886:4903  bytes32 requestId */\n      0x00\n        /* \"AllContracts.sol\":4913:4917  LINK */\n      dup1\n      0x00\n      swap1\n      sload\n      swap1\n      0x0100\n      exp\n      swap1\n      div\n      0xffffffffffffffffffffffffffffffffffffffff\n      and\n        /* \"AllContracts.sol\":4913:4933  LINK.transferAndCall */\n      0xffffffffffffffffffffffffffffffffffffffff\n      and\n      0x4000aea0\n        /* \"AllContracts.sol\":4934:4948  vrfCoordinator */\n      0x01\n      0x00\n      swap1\n      sload\n      swap1\n      0x0100\n      exp\n      swap1\n      div\n      0xffffffffffffffffffffffffffffffffffffffff\n      and\n        /* \"AllContracts.sol\":4950:4954  _fee */\n      dup6\n        /* \"AllContracts.sol\":4967:4975  _keyHash */\n      dup8\n        /* \"AllContracts.sol\":4977:4982  _seed */\n      dup7\n        /* \"AllContracts.sol\":4956:4983  abi.encode(_keyHash, _seed) */\n      add(0x20, mload(0x40))\n      dup1\n      dup4\n      dup2\n      mstore\n      0x20\n      add\n      dup3\n      dup2\n      mstore\n      0x20\n      add\n      swap3\n      pop\n      pop\n      pop\n      mload(0x40)\n        /* \"--CODEGEN--\":49:53   */\n      0x20\n        /* \"--CODEGEN--\":39:46   */\n      dup2\n        /* \"--CODEGEN--\":30:37   */\n      dup4\n        /* \"--CODEGEN--\":26:47   */\n      sub\n        /* \"--CODEGEN--\":22:54   */\n      sub\n        /* \"--CODEGEN--\":13:20   */\n      dup2\n        /* \"--CODEGEN--\":6:55   */\n      mstore\n        /* \"AllContracts.sol\":4956:4983  abi.encode(_keyHash, _seed) */\n      swap1\n      0x40\n      mstore\n        /* \"AllContracts.sol\":4913:4984  LINK.transferAndCall(vrfCoordinator, _fee, abi.encode(_keyHash, _seed)) */\n      mload(0x40)\n      dup5\n      0xffffffff\n      and\n      0xe0\n      shl\n      dup2\n      mstore\n      0x04\n      add\n      dup1\n      dup5\n      0xffffffffffffffffffffffffffffffffffffffff\n      and\n      0xffffffffffffffffffffffffffffffffffffffff\n      and\n      dup2\n      mstore\n      0x20\n      add\n      dup4\n      dup2\n      mstore\n      0x20\n      add\n      dup1\n      0x20\n      add\n      dup3\n      dup2\n      sub\n      dup3\n      mstore\n      dup4\n      dup2\n      dup2\n      mload\n      dup2\n      mstore\n      0x20\n      add\n      swap2\n      pop\n      dup1\n      mload\n      swap1\n      0x20\n      add\n      swap1\n      dup1\n      dup4\n      dup4\n        /* \"--CODEGEN--\":23:24   */\n      0x00\n        /* \"--CODEGEN--\":8:108   */\n    tag_335:\n        /* \"--CODEGEN--\":33:36   */\n      dup4\n        /* \"--CODEGEN--\":30:31   */\n      dup2\n        /* \"--CODEGEN--\":27:37   */\n      lt\n        /* \"--CODEGEN--\":8:108   */\n      iszero\n      tag_337\n      jumpi\n        /* \"--CODEGEN--\":99:100   */\n      dup1\n        /* \"--CODEGEN--\":94:97   */\n      dup3\n        /* \"--CODEGEN--\":90:101   */\n      add\n        /* \"--CODEGEN--\":84:102   */\n      mload\n        /* \"--CODEGEN--\":80:81   */\n      dup2\n        /* \"--CODEGEN--\":75:78   */\n      dup5\n        /* \"--CODEGEN--\":71:82   */\n      add\n        /* \"--CODEGEN--\":64:103   */\n      mstore\n        /* \"--CODEGEN--\":52:54   */\n      0x20\n        /* \"--CODEGEN--\":49:50   */\n      dup2\n        /* \"--CODEGEN--\":45:55   */\n      add\n        /* \"--CODEGEN--\":40:55   */\n      swap1\n      pop\n        /* \"--CODEGEN--\":8:108   */\n      jump(tag_335)\n    tag_337:\n        /* \"--CODEGEN--\":12:26   */\n      pop\n        /* \"AllContracts.sol\":4913:4984  LINK.transferAndCall(vrfCoordinator, _fee, abi.encode(_keyHash, _seed)) */\n      pop\n      pop\n      pop\n      swap1\n      pop\n      swap1\n      dup2\n      add\n      swap1\n      0x1f\n      and\n      dup1\n      iszero\n      tag_338\n      jumpi\n      dup1\n      dup3\n      sub\n      dup1\n      mload\n      0x01\n      dup4\n      0x20\n      sub\n      0x0100\n      exp\n      sub\n      not\n      and\n      dup2\n      mstore\n      0x20\n      add\n      swap2\n      pop\n    tag_338:\n      pop\n      swap5\n      pop\n      pop\n      pop\n      pop\n      pop\n      0x20\n      mload(0x40)\n      dup1\n      dup4\n      sub\n      dup2\n      0x00\n      dup8\n      dup1\n      extcodesize\n      iszero\n        /* \"--CODEGEN--\":8:17   */\n      dup1\n        /* \"--CODEGEN--\":5:7   */\n      iszero\n      tag_339\n      jumpi\n        /* \"--CODEGEN--\":30:31   */\n      0x00\n        /* \"--CODEGEN--\":27:28   */\n      dup1\n        /* \"--CODEGEN--\":20:32   */\n      revert\n        /* \"--CODEGEN--\":5:7   */\n    tag_339:\n        /* \"AllContracts.sol\":4913:4984  LINK.transferAndCall(vrfCoordinator, _fee, abi.encode(_keyHash, _seed)) */\n      pop\n      gas\n      call\n      iszero\n        /* \"--CODEGEN--\":8:17   */\n      dup1\n        /* \"--CODEGEN--\":5:7   */\n      iszero\n      tag_341\n      jumpi\n        /* \"--CODEGEN--\":45:61   */\n      returndatasize\n        /* \"--CODEGEN--\":42:43   */\n      0x00\n        /* \"--CODEGEN--\":39:40   */\n      dup1\n        /* \"--CODEGEN--\":24:62   */\n      returndatacopy\n        /* \"--CODEGEN--\":77:93   */\n      returndatasize\n        /* \"--CODEGEN--\":74:75   */\n      0x00\n        /* \"--CODEGEN--\":67:94   */\n      revert\n        /* \"--CODEGEN--\":5:7   */\n    tag_341:\n        /* \"AllContracts.sol\":4913:4984  LINK.transferAndCall(vrfCoordinator, _fee, abi.encode(_keyHash, _seed)) */\n      pop\n      pop\n      pop\n      pop\n      mload(0x40)\n      returndatasize\n        /* \"--CODEGEN--\":13:15   */\n      0x20\n        /* \"--CODEGEN--\":8:11   */\n      dup2\n        /* \"--CODEGEN--\":5:16   */\n      lt\n        /* \"--CODEGEN--\":2:4   */\n      iszero\n      tag_342\n      jumpi\n        /* \"--CODEGEN--\":29:30   */\n      0x00\n        /* \"--CODEGEN--\":26:27   */\n      dup1\n        /* \"--CODEGEN--\":19:31   */\n      revert\n        /* \"--CODEGEN--\":2:4   */\n    tag_342:\n        /* \"AllContracts.sol\":4913:4984  LINK.transferAndCall(vrfCoordinator, _fee, abi.encode(_keyHash, _seed)) */\n      dup2\n      add\n      swap1\n      dup1\n      dup1\n      mload\n      swap1\n      0x20\n      add\n      swap1\n      swap3\n      swap2\n      swap1\n      pop\n      pop\n      pop\n      pop\n        /* \"AllContracts.sol\":4991:5006  uint256 vRFSeed */\n      0x00\n        /* \"AllContracts.sol\":5010:5076  makeVRFInputSeed(_keyHash, _seed, address(this), nonces[_keyHash]) */\n      tag_343\n        /* \"AllContracts.sol\":5027:5035  _keyHash */\n      dup6\n        /* \"AllContracts.sol\":5037:5042  _seed */\n      dup5\n        /* \"AllContracts.sol\":5052:5056  this */\n      address\n        /* \"AllContracts.sol\":5059:5065  nonces */\n      0x02\n        /* \"AllContracts.sol\":5059:5075  nonces[_keyHash] */\n      0x00\n        /* \"AllContracts.sol\":5066:5074  _keyHash */\n      dup11\n        /* \"AllContracts.sol\":5059:5075  nonces[_keyHash] */\n      dup2\n      mstore\n      0x20\n      add\n      swap1\n      dup2\n      mstore\n      0x20\n      add\n      0x00\n      keccak256\n      sload\n        /* \"AllContracts.sol\":5010:5026  makeVRFInputSeed */\n      tag_344\n        /* \"AllContracts.sol\":5010:5076  makeVRFInputSeed(_keyHash, _seed, address(this), nonces[_keyHash]) */\n      jump\t// in\n    tag_343:\n        /* \"AllContracts.sol\":4991:5076  uint256 vRFSeed  = makeVRFInputSeed(_keyHash, _seed, address(this), nonces[_keyHash]) */\n      swap1\n      pop\n        /* \"AllContracts.sol\":5102:5125  nonces[_keyHash].add(1) */\n      tag_345\n        /* \"AllContracts.sol\":5123:5124  1 */\n      0x01\n        /* \"AllContracts.sol\":5102:5108  nonces */\n      0x02\n        /* \"AllContracts.sol\":5102:5118  nonces[_keyHash] */\n      0x00\n        /* \"AllContracts.sol\":5109:5117  _keyHash */\n      dup9\n        /* \"AllContracts.sol\":5102:5118  nonces[_keyHash] */\n      dup2\n      mstore\n      0x20\n      add\n      swap1\n      dup2\n      mstore\n      0x20\n      add\n      0x00\n      keccak256\n      sload\n        /* \"AllContracts.sol\":5102:5122  nonces[_keyHash].add */\n      tag_157\n      swap1\n        /* \"AllContracts.sol\":5102:5125  nonces[_keyHash].add(1) */\n      swap2\n      swap1\n      0xffffffff\n      and\n      jump\t// in\n    tag_345:\n        /* \"AllContracts.sol\":5083:5089  nonces */\n      0x02\n        /* \"AllContracts.sol\":5083:5099  nonces[_keyHash] */\n      0x00\n        /* \"AllContracts.sol\":5090:5098  _keyHash */\n      dup8\n        /* \"AllContracts.sol\":5083:5099  nonces[_keyHash] */\n      dup2\n      mstore\n      0x20\n      add\n      swap1\n      dup2\n      mstore\n      0x20\n      add\n      0x00\n      keccak256\n        /* \"AllContracts.sol\":5083:5125  nonces[_keyHash] = nonces[_keyHash].add(1) */\n      dup2\n      swap1\n      sstore\n      pop\n        /* \"AllContracts.sol\":5138:5170  makeRequestId(_keyHash, vRFSeed) */\n      tag_346\n        /* \"AllContracts.sol\":5152:5160  _keyHash */\n      dup6\n        /* \"AllContracts.sol\":5162:5169  vRFSeed */\n      dup3\n        /* \"AllContracts.sol\":5138:5151  makeRequestId */\n      tag_347\n        /* \"AllContracts.sol\":5138:5170  makeRequestId(_keyHash, vRFSeed) */\n      jump\t// in\n    tag_346:\n        /* \"AllContracts.sol\":5131:5170  return makeRequestId(_keyHash, vRFSeed) */\n      swap2\n      pop\n      pop\n        /* \"AllContracts.sol\":4790:5175  function requestRandomness(bytes32 _keyHash, uint256 _fee, uint256 _seed)... */\n      swap4\n      swap3\n      pop\n      pop\n      pop\n      jump\t// out\n        /* \"AllContracts.sol\":3154:3385  function makeVRFInputSeed(bytes32 _keyHash, uint256 _userSeed,... */\n    tag_344:\n        /* \"AllContracts.sol\":3284:3291  uint256 */\n      0x00\n        /* \"AllContracts.sol\":3338:3346  _keyHash */\n      dup5\n        /* \"AllContracts.sol\":3348:3357  _userSeed */\n      dup5\n        /* \"AllContracts.sol\":3359:3369  _requester */\n      dup5\n        /* \"AllContracts.sol\":3371:3377  _nonce */\n      dup5\n        /* \"AllContracts.sol\":3327:3378  abi.encode(_keyHash, _userSeed, _requester, _nonce) */\n      add(0x20, mload(0x40))\n      dup1\n      dup6\n      dup2\n      mstore\n      0x20\n      add\n      dup5\n      dup2\n      mstore\n      0x20\n      add\n      dup4\n      0xffffffffffffffffffffffffffffffffffffffff\n      and\n      0xffffffffffffffffffffffffffffffffffffffff\n      and\n      dup2\n      mstore\n      0x20\n      add\n      dup3\n      dup2\n      mstore\n      0x20\n      add\n      swap5\n      pop\n      pop\n      pop\n      pop\n      pop\n      mload(0x40)\n        /* \"--CODEGEN--\":49:53   */\n      0x20\n        /* \"--CODEGEN--\":39:46   */\n      dup2\n        /* \"--CODEGEN--\":30:37   */\n      dup4\n        /* \"--CODEGEN--\":26:47   */\n      sub\n        /* \"--CODEGEN--\":22:54   */\n      sub\n        /* \"--CODEGEN--\":13:20   */\n      dup2\n        /* \"--CODEGEN--\":6:55   */\n      mstore\n        /* \"AllContracts.sol\":3327:3378  abi.encode(_keyHash, _userSeed, _requester, _nonce) */\n      swap1\n      0x40\n      mstore\n        /* \"AllContracts.sol\":3317:3379  keccak256(abi.encode(_keyHash, _userSeed, _requester, _nonce)) */\n      dup1\n      mload\n      swap1\n      0x20\n      add\n      keccak256\n        /* \"AllContracts.sol\":3309:3380  uint256(keccak256(abi.encode(_keyHash, _userSeed, _requester, _nonce))) */\n      0x00\n      shr\n        /* \"AllContracts.sol\":3301:3380  return  uint256(keccak256(abi.encode(_keyHash, _userSeed, _requester, _nonce))) */\n      swap1\n      pop\n        /* \"AllContracts.sol\":3154:3385  function makeVRFInputSeed(bytes32 _keyHash, uint256 _userSeed,... */\n      swap5\n      swap4\n      pop\n      pop\n      pop\n      pop\n      jump\t// out\n        /* \"AllContracts.sol\":3389:3560  function makeRequestId(... */\n    tag_347:\n        /* \"AllContracts.sol\":3481:3488  bytes32 */\n      0x00\n        /* \"AllContracts.sol\":3530:3538  _keyHash */\n      dup3\n        /* \"AllContracts.sol\":3540:3553  _vRFInputSeed */\n      dup3\n        /* \"AllContracts.sol\":3513:3554  abi.encodePacked(_keyHash, _vRFInputSeed) */\n      add(0x20, mload(0x40))\n      dup1\n      dup4\n      dup2\n      mstore\n      0x20\n      add\n      dup3\n      dup2\n      mstore\n      0x20\n      add\n      swap3\n      pop\n      pop\n      pop\n      mload(0x40)\n        /* \"--CODEGEN--\":49:53   */\n      0x20\n        /* \"--CODEGEN--\":39:46   */\n      dup2\n        /* \"--CODEGEN--\":30:37   */\n      dup4\n        /* \"--CODEGEN--\":26:47   */\n      sub\n        /* \"--CODEGEN--\":22:54   */\n      sub\n        /* \"--CODEGEN--\":13:20   */\n      dup2\n        /* \"--CODEGEN--\":6:55   */\n      mstore\n        /* \"AllContracts.sol\":3513:3554  abi.encodePacked(_keyHash, _vRFInputSeed) */\n      swap1\n      0x40\n      mstore\n        /* \"AllContracts.sol\":3503:3555  keccak256(abi.encodePacked(_keyHash, _vRFInputSeed)) */\n      dup1\n      mload\n      swap1\n      0x20\n      add\n      keccak256\n        /* \"AllContracts.sol\":3496:3555  return keccak256(abi.encodePacked(_keyHash, _vRFInputSeed)) */\n      swap1\n      pop\n        /* \"AllContracts.sol\":3389:3560  function makeRequestId(... */\n      swap3\n      swap2\n      pop\n      pop\n      jump\t// out\n        /* \"AllContracts.sol\":5733:19042  contract LuckyMachine is VRFConsumerBase, Ownable {... */\n    tag_310:\n      mload(0x40)\n      dup1\n      0xc0\n      add\n      0x40\n      mstore\n      dup1\n      0x00\n      dup2\n      mstore\n      0x20\n      add\n      and(0xffffffffffffffffffffffffffffffffffffffff, 0x00)\n      dup2\n      mstore\n      0x20\n      add\n      0x00\n      dup2\n      mstore\n      0x20\n      add\n      0x00\n      dup2\n      mstore\n      0x20\n      add\n      0x00\n      dup2\n      mstore\n      0x20\n      add\n      iszero(iszero(0x00))\n      dup2\n      mstore\n      pop\n      swap1\n      jump\t// out\n    stop\n    data_245f15ff17f551913a7a18385165551503906a406f905ac1c2437281a7cd0cfe 4f776e61626c653a206e6577206f776e657220697320746865207a65726f2061646472657373\n    data_588b68a2a6ccdc15b2dae26a385280edec71bed95b5b14a24b760c56e4f665d6 436f6e74726163742068617320696e737566666963696e742066756e647320746f207061796f757420706f737369626c652077696e2e\n    data_9113bb53c2876a3805b2c9242029423fc540a728243ce887ab24c82cf119fba3 536166654d6174683a206d756c7469706c69636174696f6e206f766572666c6f77\n    data_b719f220e413600c7e92ed4736b96c6908e0428122610fe965fcc60eefeedbad 436f6e74726163742062616c616e636520746f6f206c6f772e20506c656173652074727920616761696e206c617465722e\n    data_c34c85fa0e0680ac47dc2c21fdf93b1adcc71d9a1a3b3b1788b881c3f4f390ac 47616d6520616c726561647920636f6d706c6574652e204e6f20726566756e6420706f737369626c652e\n\n    auxdata: 0xa264697066735822122052fc6b30ba9cca632e19f68f9d295317b341d013077c5964258b8a398bb5cf0764736f6c63430006000033\n}\n","bytecode":{"linkReferences":{},"object":"60806040523480156200001157600080fd5b506040516200387338038062003873833981810160405260a08110156200003757600080fd5b81019080805190602001909291908051906020019092919080519060200190929190805190602001909291908051906020019092919050505073dd3782915140c8f3b190b5d67eac6dc5760c46e973a36085f69e2889c224210f603d836748e7dc008881600160006101000a81548173ffffffffffffffffffffffffffffffffffffffff021916908373ffffffffffffffffffffffffffffffffffffffff160217905550806000806101000a81548173ffffffffffffffffffffffffffffffffffffffff021916908373ffffffffffffffffffffffffffffffffffffffff160217905550505060006200012f620002d760201b60201c565b905080600360006101000a81548173ffffffffffffffffffffffffffffffffffffffff021916908373ffffffffffffffffffffffffffffffffffffffff1602179055508073ffffffffffffffffffffffffffffffffffffffff16600073ffffffffffffffffffffffffffffffffffffffff167f8be0079c531659141344cd1fd0a4f28419497f9722a3daafe3b4186f6b6457e060405160405180910390a3507f6c3699283bda56ad74f6b855546325b68d482e983852a7a82979cc4807b641f460001b60048190555067016345785d8a00006005819055506001601581905550600060148190555084601660006101000a81548173ffffffffffffffffffffffffffffffffffffffff021916908373ffffffffffffffffffffffffffffffffffffffff1602179055508260138190555083601281905550816011819055508060178190555060016006819055506001600781905550600160088190555060016009819055506001600a819055506001600b819055506001600c819055506001600d819055506001600e819055506001600f8190555060016010819055505050505050620002df565b600033905090565b61358480620002ef6000396000f3fe6080604052600436106101d15760003560e01c806395f9b576116100f7578063ac150fd811610095578063d9e721f811610064578063d9e721f814610982578063dfad4c11146109d0578063f2fde38b14610a39578063f31a4dcd14610a8a576101d8565b8063ac150fd81461087d578063b843f5ab146108cb578063b93030b314610930578063c311d04914610947576101d8565b80639e317f12116100d15780639e317f1214610745578063a02e061614610794578063a249225e146107e5578063a4b2409e14610842576101d8565b806395f9b5761461060e5780639619367d146106df578063985447101461070a576101d8565b806344ff81ce1161016f578063715018a61161013e578063715018a6146105205780637a8042bd146105375780638da5cb5b1461057257806394985ddd146105c9576101d8565b806344ff81ce1461042257806350c5f975146104735780635b8d02d71461049e57806363bd1d4a146104f5576101d8565b80632ee42d8a116101ab5780632ee42d8a146102fd57806333ea51a8146103285780633638104a146103795780634051ddac146103e2576101d8565b80630c610a12146101dd578063117a5b90146102305780632e5b2168146102d2576101d8565b366101d857005b600080fd5b3480156101e957600080fd5b506102166004803603602081101561020057600080fd5b8101908080359060200190929190505050610ac5565b604051808215151515815260200191505060405180910390f35b34801561023c57600080fd5b506102696004803603602081101561025357600080fd5b8101908080359060200190929190505050610b0c565b604051808781526020018673ffffffffffffffffffffffffffffffffffffffff1673ffffffffffffffffffffffffffffffffffffffff16815260200185815260200184815260200183815260200182151515158152602001965050505050505060405180910390f35b3480156102de57600080fd5b506102e7610b75565b6040518082815260200191505060405180910390f35b34801561030957600080fd5b50610312610b7b565b6040518082815260200191505060405180910390f35b34801561033457600080fd5b506103776004803603602081101561034b57600080fd5b81019080803573ffffffffffffffffffffffffffffffffffffffff169060200190929190505050610b81565b005b34801561038557600080fd5b506103c86004803603602081101561039c57600080fd5b81019080803573ffffffffffffffffffffffffffffffffffffffff169060200190929190505050610c8f565b604051808215151515815260200191505060405180910390f35b3480156103ee57600080fd5b506103f7610caf565b6040518085815260200184815260200183815260200182815260200194505050505060405180910390f35b34801561042e57600080fd5b506104716004803603602081101561044557600080fd5b81019080803573ffffffffffffffffffffffffffffffffffffffff169060200190929190505050610ccf565b005b34801561047f57600080fd5b50610488610ddd565b6040518082815260200191505060405180910390f35b3480156104aa57600080fd5b506104b3610ebd565b604051808273ffffffffffffffffffffffffffffffffffffffff1673ffffffffffffffffffffffffffffffffffffffff16815260200191505060405180910390f35b34801561050157600080fd5b5061050a610ee3565b6040518082815260200191505060405180910390f35b34801561052c57600080fd5b50610535610ee9565b005b34801561054357600080fd5b506105706004803603602081101561055a57600080fd5b8101908080359060200190929190505050611074565b005b34801561057e57600080fd5b50610587611279565b604051808273ffffffffffffffffffffffffffffffffffffffff1673ffffffffffffffffffffffffffffffffffffffff16815260200191505060405180910390f35b3480156105d557600080fd5b5061060c600480360360408110156105ec57600080fd5b8101908080359060200190929190803590602001909291905050506112a3565b005b34801561061a57600080fd5b506106dd6004803603604081101561063157600080fd5b810190808035906020019064010000000081111561064e57600080fd5b82018360208201111561066057600080fd5b8035906020019184602083028401116401000000008311171561068257600080fd5b919080806020026020016040519081016040528093929190818152602001838360200280828437600081840152601f19601f820116905080830192505050505050509192919290803515159060200190929190505050611374565b005b3480156106eb57600080fd5b506106f46114fb565b6040518082815260200191505060405180910390f35b34801561071657600080fd5b506107436004803603602081101561072d57600080fd5b8101908080359060200190929190505050611501565b005b34801561075157600080fd5b5061077e6004803603602081101561076857600080fd5b81019080803590602001909291905050506115d5565b6040518082815260200191505060405180910390f35b3480156107a057600080fd5b506107e3600480360360208110156107b757600080fd5b81019080803573ffffffffffffffffffffffffffffffffffffffff1690602001909291905050506115ed565b005b3480156107f157600080fd5b506108406004803603604081101561080857600080fd5b81019080803573ffffffffffffffffffffffffffffffffffffffff1690602001909291908035151590602001909291905050506116fa565b005b34801561084e57600080fd5b5061087b6004803603602081101561086557600080fd5b810190808035906020019092919050505061181f565b005b6108c96004803603604081101561089357600080fd5b81019080803573ffffffffffffffffffffffffffffffffffffffff16906020019092919080359060200190929190505050611b16565b005b3480156108d757600080fd5b5061091a600480360360208110156108ee57600080fd5b81019080803573ffffffffffffffffffffffffffffffffffffffff169060200190929190505050611c57565b6040518082815260200191505060405180910390f35b34801561093c57600080fd5b50610945611c6f565b005b34801561095357600080fd5b506109806004803603602081101561096a57600080fd5b810190808035906020019092919050505061207e565b005b6109ce6004803603604081101561099857600080fd5b81019080803573ffffffffffffffffffffffffffffffffffffffff16906020019092919080359060200190929190505050612260565b005b3480156109dc57600080fd5b50610a1f600480360360208110156109f357600080fd5b81019080803573ffffffffffffffffffffffffffffffffffffffff169060200190929190505050612486565b604051808215151515815260200191505060405180910390f35b348015610a4557600080fd5b50610a8860048036036020811015610a5c57600080fd5b81019080803573ffffffffffffffffffffffffffffffffffffffff1690602001909291905050506124a6565b005b348015610a9657600080fd5b50610ac360048036036020811015610aad57600080fd5b81019080803590602001909291905050506126b6565b005b6000610aee82610ae06017548561278c90919063ffffffff16565b61281290919063ffffffff16565b610b036014544761289a90919063ffffffff16565b10159050919050565b601a6020528060005260406000206000915090508060000154908060010160009054906101000a900473ffffffffffffffffffffffffffffffffffffffff16908060020154908060030154908060040154908060050160009054906101000a900460ff16905086565b60125481565b60115481565b610b89612923565b73ffffffffffffffffffffffffffffffffffffffff16600360009054906101000a900473ffffffffffffffffffffffffffffffffffffffff1673ffffffffffffffffffffffffffffffffffffffff1614610c4b576040517f08c379a00000000000000000000000000000000000000000000000000000000081526004018080602001828103825260208152602001807f4f776e61626c653a2063616c6c6572206973206e6f7420746865206f776e657281525060200191505060405180910390fd5b80601660006101000a81548173ffffffffffffffffffffffffffffffffffffffff021916908373ffffffffffffffffffffffffffffffffffffffff16021790555050565b60186020528060005260406000206000915054906101000a900460ff1681565b600080600080601354601254601754601154935093509350935090919293565b610cd7612923565b73ffffffffffffffffffffffffffffffffffffffff16600360009054906101000a900473ffffffffffffffffffffffffffffffffffffffff1673ffffffffffffffffffffffffffffffffffffffff1614610d99576040517f08c379a00000000000000000000000000000000000000000000000000000000081526004018080602001828103825260208152602001807f4f776e61626c653a2063616c6c6572206973206e6f7420746865206f776e657281525060200191505060405180910390fd5b80600160006101000a81548173ffffffffffffffffffffffffffffffffffffffff021916908373ffffffffffffffffffffffffffffffffffffffff16021790555050565b60008060009054906101000a900473ffffffffffffffffffffffffffffffffffffffff1673ffffffffffffffffffffffffffffffffffffffff166370a08231306040518263ffffffff1660e01b8152600401808273ffffffffffffffffffffffffffffffffffffffff1673ffffffffffffffffffffffffffffffffffffffff16815260200191505060206040518083038186803b158015610e7d57600080fd5b505afa158015610e91573d6000803e3d6000fd5b505050506040513d6020811015610ea757600080fd5b8101908080519060200190929190505050905090565b601660009054906101000a900473ffffffffffffffffffffffffffffffffffffffff1681565b60175481565b610ef1612923565b73ffffffffffffffffffffffffffffffffffffffff16600360009054906101000a900473ffffffffffffffffffffffffffffffffffffffff1673ffffffffffffffffffffffffffffffffffffffff1614610fb3576040517f08c379a00000000000000000000000000000000000000000000000000000000081526004018080602001828103825260208152602001807f4f776e61626c653a2063616c6c6572206973206e6f7420746865206f776e657281525060200191505060405180910390fd5b600073ffffffffffffffffffffffffffffffffffffffff16600360009054906101000a900473ffffffffffffffffffffffffffffffffffffffff1673ffffffffffffffffffffffffffffffffffffffff167f8be0079c531659141344cd1fd0a4f28419497f9722a3daafe3b4186f6b6457e060405160405180910390a36000600360006101000a81548173ffffffffffffffffffffffffffffffffffffffff021916908373ffffffffffffffffffffffffffffffffffffffff160217905550565b3373ffffffffffffffffffffffffffffffffffffffff16611093611279565b73ffffffffffffffffffffffffffffffffffffffff1614806110fe5750601860003373ffffffffffffffffffffffffffffffffffffffff1673ffffffffffffffffffffffffffffffffffffffff16815260200190815260200160002060009054906101000a900460ff165b611170576040517f08c379a00000000000000000000000000000000000000000000000000000000081526004018080602001828103825260188152602001807f63616c6c6572206973206e6f7420617574686f72697a6564000000000000000081525060200191505060405180910390fd5b6000809054906101000a900473ffffffffffffffffffffffffffffffffffffffff1673ffffffffffffffffffffffffffffffffffffffff1663a9059cbb601660009054906101000a900473ffffffffffffffffffffffffffffffffffffffff16836040518363ffffffff1660e01b8152600401808373ffffffffffffffffffffffffffffffffffffffff1673ffffffffffffffffffffffffffffffffffffffff16815260200182815260200192505050602060405180830381600087803b15801561123a57600080fd5b505af115801561124e573d6000803e3d6000fd5b505050506040513d602081101561126457600080fd5b81019080805190602001909291905050505050565b6000600360009054906101000a900473ffffffffffffffffffffffffffffffffffffffff16905090565b600160009054906101000a900473ffffffffffffffffffffffffffffffffffffffff1673ffffffffffffffffffffffffffffffffffffffff163373ffffffffffffffffffffffffffffffffffffffff1614611366576040517f08c379a000000000000000000000000000000000000000000000000000000000815260040180806020018281038252601f8152602001807f4f6e6c7920565246436f6f7264696e61746f722063616e2066756c66696c6c0081525060200191505060405180910390fd5b611370828261292b565b5050565b3373ffffffffffffffffffffffffffffffffffffffff16611393611279565b73ffffffffffffffffffffffffffffffffffffffff1614806113fe5750601860003373ffffffffffffffffffffffffffffffffffffffff1673ffffffffffffffffffffffffffffffffffffffff16815260200190815260200160002060009054906101000a900460ff165b611470576040517f08c379a00000000000000000000000000000000000000000000000000000000081526004018080602001828103825260188152602001807f63616c6c6572206973206e6f7420617574686f72697a6564000000000000000081525060200191505060405180910390fd5b60008090505b82518110156114f657816019600085848151811061149057fe5b602002602001015173ffffffffffffffffffffffffffffffffffffffff1673ffffffffffffffffffffffffffffffffffffffff16815260200190815260200160002060006101000a81548160ff0219169083151502179055508080600101915050611476565b505050565b60135481565b611509612923565b73ffffffffffffffffffffffffffffffffffffffff16600360009054906101000a900473ffffffffffffffffffffffffffffffffffffffff1673ffffffffffffffffffffffffffffffffffffffff16146115cb576040517f08c379a00000000000000000000000000000000000000000000000000000000081526004018080602001828103825260208152602001807f4f776e61626c653a2063616c6c6572206973206e6f7420746865206f776e657281525060200191505060405180910390fd5b8060048190555050565b60026020528060005260406000206000915090505481565b6115f5612923565b73ffffffffffffffffffffffffffffffffffffffff16600360009054906101000a900473ffffffffffffffffffffffffffffffffffffffff1673ffffffffffffffffffffffffffffffffffffffff16146116b7576040517f08c379a00000000000000000000000000000000000000000000000000000000081526004018080602001828103825260208152602001807f4f776e61626c653a2063616c6c6572206973206e6f7420746865206f776e657281525060200191505060405180910390fd5b806000806101000a81548173ffffffffffffffffffffffffffffffffffffffff021916908373ffffffffffffffffffffffffffffffffffffffff16021790555050565b611702612923565b73ffffffffffffffffffffffffffffffffffffffff16600360009054906101000a900473ffffffffffffffffffffffffffffffffffffffff1673ffffffffffffffffffffffffffffffffffffffff16146117c4576040517f08c379a00000000000000000000000000000000000000000000000000000000081526004018080602001828103825260208152602001807f4f776e61626c653a2063616c6c6572206973206e6f7420746865206f776e657281525060200191505060405180910390fd5b80601860008473ffffffffffffffffffffffffffffffffffffffff1673ffffffffffffffffffffffffffffffffffffffff16815260200190815260200160002060006101000a81548160ff0219169083151502179055505050565b6000601a60008381526020019081526020016000209050601860003373ffffffffffffffffffffffffffffffffffffffff1673ffffffffffffffffffffffffffffffffffffffff16815260200190815260200160002060009054906101000a900460ff16806118c057503373ffffffffffffffffffffffffffffffffffffffff166118a8611279565b73ffffffffffffffffffffffffffffffffffffffff16145b8061191a57503373ffffffffffffffffffffffffffffffffffffffff168160010160009054906101000a900473ffffffffffffffffffffffffffffffffffffffff1673ffffffffffffffffffffffffffffffffffffffff16145b61198c576040517f08c379a00000000000000000000000000000000000000000000000000000000081526004018080602001828103825260208152602001807f4e6f7420617574686f72697a656420746f207265717565737420726566756e6481525060200191505060405180910390fd5b600015158160050160009054906101000a900460ff161515146119fa576040517f08c379a000000000000000000000000000000000000000000000000000000000815260040180806020018281038252602a815260200180613525602a913960400191505060405180910390fd5b8060020154471015611a57576040517f08c379a00000000000000000000000000000000000000000000000000000000081526004018080602001828103825260318152602001806134f46031913960400191505060405180910390fd5b60018160050160006101000a81548160ff021916908315150217905550806002015460145410611a9a578060020154601460008282540392505081905550611aa3565b60006014819055505b8060010160009054906101000a900473ffffffffffffffffffffffffffffffffffffffff1673ffffffffffffffffffffffffffffffffffffffff166108fc82600201549081150290604051600060405180830381858888f19350505050158015611b11573d6000803e3d6000fd5b505050565b601354341015611b8e576040517f08c379a00000000000000000000000000000000000000000000000000000000081526004018080602001828103825260138152602001807f6d696e696d756d20626574206e6f74206d65740000000000000000000000000081525060200191505060405180910390fd5b60016006541415611bdc57600660009055600760009055600860009055600960009055600a60009055600b60009055600c60009055600d60009055600e60009055600f600090556010600090555b611bf13460145461281290919063ffffffff16565b601481905550611c02823483612c38565b611c0d601554612d57565b601554601c60008473ffffffffffffffffffffffffffffffffffffffff1673ffffffffffffffffffffffffffffffffffffffff168152602001908152602001600020819055505050565b601c6020528060005260406000206000915090505481565b611c77612923565b73ffffffffffffffffffffffffffffffffffffffff16600360009054906101000a900473ffffffffffffffffffffffffffffffffffffffff1673ffffffffffffffffffffffffffffffffffffffff1614611d39576040517f08c379a00000000000000000000000000000000000000000000000000000000081526004018080602001828103825260208152602001807f4f776e61626c653a2063616c6c6572206973206e6f7420746865206f776e657281525060200191505060405180910390fd5b6000611d506014544761289a90919063ffffffff16565b9050601660009054906101000a900473ffffffffffffffffffffffffffffffffffffffff1673ffffffffffffffffffffffffffffffffffffffff166108fc829081150290604051600060405180830381858888f19350505050158015611dba573d6000803e3d6000fd5b5060008060009054906101000a900473ffffffffffffffffffffffffffffffffffffffff1673ffffffffffffffffffffffffffffffffffffffff166370a08231306040518263ffffffff1660e01b8152600401808273ffffffffffffffffffffffffffffffffffffffff1673ffffffffffffffffffffffffffffffffffffffff16815260200191505060206040518083038186803b158015611e5b57600080fd5b505afa158015611e6f573d6000803e3d6000fd5b505050506040513d6020811015611e8557600080fd5b8101908080519060200190929190505050111561207b576000809054906101000a900473ffffffffffffffffffffffffffffffffffffffff1673ffffffffffffffffffffffffffffffffffffffff1663a9059cbb601660009054906101000a900473ffffffffffffffffffffffffffffffffffffffff166000809054906101000a900473ffffffffffffffffffffffffffffffffffffffff1673ffffffffffffffffffffffffffffffffffffffff166370a08231306040518263ffffffff1660e01b8152600401808273ffffffffffffffffffffffffffffffffffffffff1673ffffffffffffffffffffffffffffffffffffffff16815260200191505060206040518083038186803b158015611f9a57600080fd5b505afa158015611fae573d6000803e3d6000fd5b505050506040513d6020811015611fc457600080fd5b81019080805190602001909291905050506040518363ffffffff1660e01b8152600401808373ffffffffffffffffffffffffffffffffffffffff1673ffffffffffffffffffffffffffffffffffffffff16815260200182815260200192505050602060405180830381600087803b15801561203e57600080fd5b505af1158015612052573d6000803e3d6000fd5b505050506040513d602081101561206857600080fd5b8101908080519060200190929190505050505b50565b3373ffffffffffffffffffffffffffffffffffffffff1661209d611279565b73ffffffffffffffffffffffffffffffffffffffff1614806121085750601860003373ffffffffffffffffffffffffffffffffffffffff1673ffffffffffffffffffffffffffffffffffffffff16815260200190815260200160002060009054906101000a900460ff165b61217a576040517f08c379a00000000000000000000000000000000000000000000000000000000081526004018080602001828103825260188152602001807f63616c6c6572206973206e6f7420617574686f72697a6564000000000000000081525060200191505060405180910390fd5b60145481470310156121f4576040517f08c379a000000000000000000000000000000000000000000000000000000000815260040180806020018281038252601c8152602001807f43616e277420776974686472617720756e706c6179656420626574730000000081525060200191505060405180910390fd5b601660009054906101000a900473ffffffffffffffffffffffffffffffffffffffff1673ffffffffffffffffffffffffffffffffffffffff166108fc829081150290604051600060405180830381858888f1935050505015801561225c573d6000803e3d6000fd5b5050565b61226934610ac5565b6122be576040517f08c379a000000000000000000000000000000000000000000000000000000000815260040180806020018281038252603681526020018061349d6036913960400191505060405180910390fd5b60115481111580156122d05750600081115b612342576040517f08c379a000000000000000000000000000000000000000000000000000000000815260040180806020018281038252601a8152602001807f4f757473696465206f66207069636b61626c6520626f756e647300000000000081525060200191505060405180910390fd5b61234b34612e24565b6123bd576040517f08c379a00000000000000000000000000000000000000000000000000000000081526004018080602001828103825260158152602001807f4f757469736465206f66206265742072616e67652e000000000000000000000081525060200191505060405180910390fd5b6001600654141561240b57600660009055600760009055600860009055600960009055600a60009055600b60009055600c60009055600d60009055600e60009055600f600090556010600090555b6124203460145461281290919063ffffffff16565b601481905550612431823483612c38565b61243c601554612d57565b601554601c60008473ffffffffffffffffffffffffffffffffffffffff1673ffffffffffffffffffffffffffffffffffffffff168152602001908152602001600020819055505050565b60196020528060005260406000206000915054906101000a900460ff1681565b6124ae612923565b73ffffffffffffffffffffffffffffffffffffffff16600360009054906101000a900473ffffffffffffffffffffffffffffffffffffffff1673ffffffffffffffffffffffffffffffffffffffff1614612570576040517f08c379a00000000000000000000000000000000000000000000000000000000081526004018080602001828103825260208152602001807f4f776e61626c653a2063616c6c6572206973206e6f7420746865206f776e657281525060200191505060405180910390fd5b600073ffffffffffffffffffffffffffffffffffffffff168173ffffffffffffffffffffffffffffffffffffffff1614156125f6576040517f08c379a00000000000000000000000000000000000000000000000000000000081526004018080602001828103825260268152602001806134776026913960400191505060405180910390fd5b8073ffffffffffffffffffffffffffffffffffffffff16600360009054906101000a900473ffffffffffffffffffffffffffffffffffffffff1673ffffffffffffffffffffffffffffffffffffffff167f8be0079c531659141344cd1fd0a4f28419497f9722a3daafe3b4186f6b6457e060405160405180910390a380600360006101000a81548173ffffffffffffffffffffffffffffffffffffffff021916908373ffffffffffffffffffffffffffffffffffffffff16021790555050565b6126be612923565b73ffffffffffffffffffffffffffffffffffffffff16600360009054906101000a900473ffffffffffffffffffffffffffffffffffffffff1673ffffffffffffffffffffffffffffffffffffffff1614612780576040517f08c379a00000000000000000000000000000000000000000000000000000000081526004018080602001828103825260208152602001807f4f776e61626c653a2063616c6c6572206973206e6f7420746865206f776e657281525060200191505060405180910390fd5b61278981612d57565b50565b60008083141561279f576000905061280c565b60008284029050828482816127b057fe5b0414612807576040517f08c379a00000000000000000000000000000000000000000000000000000000081526004018080602001828103825260218152602001806134d36021913960400191505060405180910390fd5b809150505b92915050565b600080828401905083811015612890576040517f08c379a000000000000000000000000000000000000000000000000000000000815260040180806020018281038252601b8152602001807f536166654d6174683a206164646974696f6e206f766572666c6f77000000000081525060200191505060405180910390fd5b8091505092915050565b600082821115612912576040517f08c379a000000000000000000000000000000000000000000000000000000000815260040180806020018281038252601e8152602001807f536166654d6174683a207375627472616374696f6e206f766572666c6f77000081525060200191505060405180910390fd5b600082840390508091505092915050565b600033905090565b6000601a6000601b60008681526020019081526020016000205481526020019081526020016000209050600081600001541115612bdb576012548160020154111561297c5760125481600201819055505b60006129ad826002015461299f601754856002015461278c90919063ffffffff16565b61281290919063ffffffff16565b905080471015612a25576040517f08c379a00000000000000000000000000000000000000000000000000000000081526004018080602001828103825260208152602001807f436f6e74726163742062616c616e636520746f6f206c6f7720746f20706c617981525060200191505060405180910390fd5b612a4d6001612a3f60115486612e5290919063ffffffff16565b61281290919063ffffffff16565b826004018190555060018260050160006101000a81548160ff021916908315150217905550816002015460145410612a98578160020154601460008282540392505081905550612aa1565b60006014819055505b816004015482600301541415612b21578160010160009054906101000a900473ffffffffffffffffffffffffffffffffffffffff1673ffffffffffffffffffffffffffffffffffffffff166108fc829081150290604051600060405180830381858888f19350505050158015612b1b573d6000803e3d6000fd5b50612b26565b600090505b7fc06600d6399308f270bc6ae70d5377121b685c974bb7f7355824fddd8a2b34978260010160009054906101000a900473ffffffffffffffffffffffffffffffffffffffff1683600201548460030154856004015485604051808673ffffffffffffffffffffffffffffffffffffffff1673ffffffffffffffffffffffffffffffffffffffff1681526020018581526020018481526020018381526020018281526020019550505050505060405180910390a1505b60016006819055506001600781905550600160088190555060016009819055506001600a819055506001600b819055506001600c819055506001600d819055506001600e819055506001600f819055506001601081905550505050565b612c4e600160155461281290919063ffffffff16565b601581905550612c5c613428565b6040518060c0016040528060155481526020018573ffffffffffffffffffffffffffffffffffffffff1681526020018481526020018381526020016000815260200160001515815250905080601a6000836000015181526020019081526020016000206000820151816000015560208201518160010160006101000a81548173ffffffffffffffffffffffffffffffffffffffff021916908373ffffffffffffffffffffffffffffffffffffffff16021790555060408201518160020155606082015181600301556080820151816004015560a08201518160050160006101000a81548160ff02191690831515021790555090505050505050565b60001515601a600083815260200190815260200160002060050160009054906101000a900460ff16151514612df4576040517f08c379a00000000000000000000000000000000000000000000000000000000081526004018080602001828103825260138152602001807f67616d6520616c726561647920706c617965640000000000000000000000000081525060200191505060405180910390fd5b6000612e06612e01612edc565b612ffd565b905081601b6000838152602001908152602001600020819055505050565b60006013548210158015612e3a57506012548211155b15612e485760019050612e4d565b600090505b919050565b600080821415612eca576040517f08c379a00000000000000000000000000000000000000000000000000000000081526004018080602001828103825260188152602001807f536166654d6174683a206d6f64756c6f206279207a65726f000000000000000081525060200191505060405180910390fd5b818381612ed357fe5b06905092915050565b6000612ee6613428565b601a600060155481526020019081526020016000206040518060c0016040529081600082015481526020016001820160009054906101000a900473ffffffffffffffffffffffffffffffffffffffff1673ffffffffffffffffffffffffffffffffffffffff1673ffffffffffffffffffffffffffffffffffffffff1681526020016002820154815260200160038201548152602001600482015481526020016005820160009054906101000a900460ff1615151515815250509050434282606001518360400151846000015160405160200180868152602001858152602001848152602001838152602001828152602001955050505050506040516020818303038152906040528051906020012060001c91505090565b60006005546000809054906101000a900473ffffffffffffffffffffffffffffffffffffffff1673ffffffffffffffffffffffffffffffffffffffff166370a08231306040518263ffffffff1660e01b8152600401808273ffffffffffffffffffffffffffffffffffffffff1673ffffffffffffffffffffffffffffffffffffffff16815260200191505060206040518083038186803b1580156130a057600080fd5b505afa1580156130b4573d6000803e3d6000fd5b505050506040513d60208110156130ca57600080fd5b81019080805190602001909291905050501161314e576040517f08c379a000000000000000000000000000000000000000000000000000000000815260040180806020018281038252600f8152602001807f4e6f7420656e6f756768204c494e4b000000000000000000000000000000000081525060200191505060405180910390fd5b61315d60045460055484613164565b9050919050565b60008060009054906101000a900473ffffffffffffffffffffffffffffffffffffffff1673ffffffffffffffffffffffffffffffffffffffff16634000aea0600160009054906101000a900473ffffffffffffffffffffffffffffffffffffffff1685878660405160200180838152602001828152602001925050506040516020818303038152906040526040518463ffffffff1660e01b8152600401808473ffffffffffffffffffffffffffffffffffffffff1673ffffffffffffffffffffffffffffffffffffffff16815260200183815260200180602001828103825283818151815260200191508051906020019080838360005b8381101561327657808201518184015260208101905061325b565b50505050905090810190601f1680156132a35780820380516001836020036101000a031916815260200191505b50945050505050602060405180830381600087803b1580156132c457600080fd5b505af11580156132d8573d6000803e3d6000fd5b505050506040513d60208110156132ee57600080fd5b8101908080519060200190929190505050506000613321858430600260008a815260200190815260200160002054613375565b905061334a6001600260008881526020019081526020016000205461281290919063ffffffff16565b600260008781526020019081526020016000208190555061336b85826133ef565b9150509392505050565b600084848484604051602001808581526020018481526020018373ffffffffffffffffffffffffffffffffffffffff1673ffffffffffffffffffffffffffffffffffffffff1681526020018281526020019450505050506040516020818303038152906040528051906020012060001c9050949350505050565b60008282604051602001808381526020018281526020019250505060405160208183030381529060405280519060200120905092915050565b6040518060c0016040528060008152602001600073ffffffffffffffffffffffffffffffffffffffff168152602001600081526020016000815260200160008152602001600015158152509056fe4f776e61626c653a206e6577206f776e657220697320746865207a65726f2061646472657373436f6e74726163742068617320696e737566666963696e742066756e647320746f207061796f757420706f737369626c652077696e2e536166654d6174683a206d756c7469706c69636174696f6e206f766572666c6f77436f6e74726163742062616c616e636520746f6f206c6f772e20506c656173652074727920616761696e206c617465722e47616d6520616c726561647920636f6d706c6574652e204e6f20726566756e6420706f737369626c652ea264697066735822122052fc6b30ba9cca632e19f68f9d295317b341d013077c5964258b8a398bb5cf0764736f6c63430006000033","opcodes":"PUSH1 0x80 PUSH1 0x40 MSTORE CALLVALUE DUP1 ISZERO PUSH3 0x11 JUMPI PUSH1 0x0 DUP1 REVERT JUMPDEST POP PUSH1 0x40 MLOAD PUSH3 0x3873 CODESIZE SUB DUP1 PUSH3 0x3873 DUP4 CODECOPY DUP2 DUP2 ADD PUSH1 0x40 MSTORE PUSH1 0xA0 DUP2 LT ISZERO PUSH3 0x37 JUMPI PUSH1 0x0 DUP1 REVERT JUMPDEST DUP2 ADD SWAP1 DUP1 DUP1 MLOAD SWAP1 PUSH1 0x20 ADD SWAP1 SWAP3 SWAP2 SWAP1 DUP1 MLOAD SWAP1 PUSH1 0x20 ADD SWAP1 SWAP3 SWAP2 SWAP1 DUP1 MLOAD SWAP1 PUSH1 0x20 ADD SWAP1 SWAP3 SWAP2 SWAP1 DUP1 MLOAD SWAP1 PUSH1 0x20 ADD SWAP1 SWAP3 SWAP2 SWAP1 DUP1 MLOAD SWAP1 PUSH1 0x20 ADD SWAP1 SWAP3 SWAP2 SWAP1 POP POP POP PUSH20 0xDD3782915140C8F3B190B5D67EAC6DC5760C46E9 PUSH20 0xA36085F69E2889C224210F603D836748E7DC0088 DUP2 PUSH1 0x1 PUSH1 0x0 PUSH2 0x100 EXP DUP2 SLOAD DUP2 PUSH20 0xFFFFFFFFFFFFFFFFFFFFFFFFFFFFFFFFFFFFFFFF MUL NOT AND SWAP1 DUP4 PUSH20 0xFFFFFFFFFFFFFFFFFFFFFFFFFFFFFFFFFFFFFFFF AND MUL OR SWAP1 SSTORE POP DUP1 PUSH1 0x0 DUP1 PUSH2 0x100 EXP DUP2 SLOAD DUP2 PUSH20 0xFFFFFFFFFFFFFFFFFFFFFFFFFFFFFFFFFFFFFFFF MUL NOT AND SWAP1 DUP4 PUSH20 0xFFFFFFFFFFFFFFFFFFFFFFFFFFFFFFFFFFFFFFFF AND MUL OR SWAP1 SSTORE POP POP POP PUSH1 0x0 PUSH3 0x12F PUSH3 0x2D7 PUSH1 0x20 SHL PUSH1 0x20 SHR JUMP JUMPDEST SWAP1 POP DUP1 PUSH1 0x3 PUSH1 0x0 PUSH2 0x100 EXP DUP2 SLOAD DUP2 PUSH20 0xFFFFFFFFFFFFFFFFFFFFFFFFFFFFFFFFFFFFFFFF MUL NOT AND SWAP1 DUP4 PUSH20 0xFFFFFFFFFFFFFFFFFFFFFFFFFFFFFFFFFFFFFFFF AND MUL OR SWAP1 SSTORE POP DUP1 PUSH20 0xFFFFFFFFFFFFFFFFFFFFFFFFFFFFFFFFFFFFFFFF AND PUSH1 0x0 PUSH20 0xFFFFFFFFFFFFFFFFFFFFFFFFFFFFFFFFFFFFFFFF AND PUSH32 0x8BE0079C531659141344CD1FD0A4F28419497F9722A3DAAFE3B4186F6B6457E0 PUSH1 0x40 MLOAD PUSH1 0x40 MLOAD DUP1 SWAP2 SUB SWAP1 LOG3 POP PUSH32 0x6C3699283BDA56AD74F6B855546325B68D482E983852A7A82979CC4807B641F4 PUSH1 0x0 SHL PUSH1 0x4 DUP2 SWAP1 SSTORE POP PUSH8 0x16345785D8A0000 PUSH1 0x5 DUP2 SWAP1 SSTORE POP PUSH1 0x1 PUSH1 0x15 DUP2 SWAP1 SSTORE POP PUSH1 0x0 PUSH1 0x14 DUP2 SWAP1 SSTORE POP DUP5 PUSH1 0x16 PUSH1 0x0 PUSH2 0x100 EXP DUP2 SLOAD DUP2 PUSH20 0xFFFFFFFFFFFFFFFFFFFFFFFFFFFFFFFFFFFFFFFF MUL NOT AND SWAP1 DUP4 PUSH20 0xFFFFFFFFFFFFFFFFFFFFFFFFFFFFFFFFFFFFFFFF AND MUL OR SWAP1 SSTORE POP DUP3 PUSH1 0x13 DUP2 SWAP1 SSTORE POP DUP4 PUSH1 0x12 DUP2 SWAP1 SSTORE POP DUP2 PUSH1 0x11 DUP2 SWAP1 SSTORE POP DUP1 PUSH1 0x17 DUP2 SWAP1 SSTORE POP PUSH1 0x1 PUSH1 0x6 DUP2 SWAP1 SSTORE POP PUSH1 0x1 PUSH1 0x7 DUP2 SWAP1 SSTORE POP PUSH1 0x1 PUSH1 0x8 DUP2 SWAP1 SSTORE POP PUSH1 0x1 PUSH1 0x9 DUP2 SWAP1 SSTORE POP PUSH1 0x1 PUSH1 0xA DUP2 SWAP1 SSTORE POP PUSH1 0x1 PUSH1 0xB DUP2 SWAP1 SSTORE POP PUSH1 0x1 PUSH1 0xC DUP2 SWAP1 SSTORE POP PUSH1 0x1 PUSH1 0xD DUP2 SWAP1 SSTORE POP PUSH1 0x1 PUSH1 0xE DUP2 SWAP1 SSTORE POP PUSH1 0x1 PUSH1 0xF DUP2 SWAP1 SSTORE POP PUSH1 0x1 PUSH1 0x10 DUP2 SWAP1 SSTORE POP POP POP POP POP POP PUSH3 0x2DF JUMP JUMPDEST PUSH1 0x0 CALLER SWAP1 POP SWAP1 JUMP JUMPDEST PUSH2 0x3584 DUP1 PUSH3 0x2EF PUSH1 0x0 CODECOPY PUSH1 0x0 RETURN INVALID PUSH1 0x80 PUSH1 0x40 MSTORE PUSH1 0x4 CALLDATASIZE LT PUSH2 0x1D1 JUMPI PUSH1 0x0 CALLDATALOAD PUSH1 0xE0 SHR DUP1 PUSH4 0x95F9B576 GT PUSH2 0xF7 JUMPI DUP1 PUSH4 0xAC150FD8 GT PUSH2 0x95 JUMPI DUP1 PUSH4 0xD9E721F8 GT PUSH2 0x64 JUMPI DUP1 PUSH4 0xD9E721F8 EQ PUSH2 0x982 JUMPI DUP1 PUSH4 0xDFAD4C11 EQ PUSH2 0x9D0 JUMPI DUP1 PUSH4 0xF2FDE38B EQ PUSH2 0xA39 JUMPI DUP1 PUSH4 0xF31A4DCD EQ PUSH2 0xA8A JUMPI PUSH2 0x1D8 JUMP JUMPDEST DUP1 PUSH4 0xAC150FD8 EQ PUSH2 0x87D JUMPI DUP1 PUSH4 0xB843F5AB EQ PUSH2 0x8CB JUMPI DUP1 PUSH4 0xB93030B3 EQ PUSH2 0x930 JUMPI DUP1 PUSH4 0xC311D049 EQ PUSH2 0x947 JUMPI PUSH2 0x1D8 JUMP JUMPDEST DUP1 PUSH4 0x9E317F12 GT PUSH2 0xD1 JUMPI DUP1 PUSH4 0x9E317F12 EQ PUSH2 0x745 JUMPI DUP1 PUSH4 0xA02E0616 EQ PUSH2 0x794 JUMPI DUP1 PUSH4 0xA249225E EQ PUSH2 0x7E5 JUMPI DUP1 PUSH4 0xA4B2409E EQ PUSH2 0x842 JUMPI PUSH2 0x1D8 JUMP JUMPDEST DUP1 PUSH4 0x95F9B576 EQ PUSH2 0x60E JUMPI DUP1 PUSH4 0x9619367D EQ PUSH2 0x6DF JUMPI DUP1 PUSH4 0x98544710 EQ PUSH2 0x70A JUMPI PUSH2 0x1D8 JUMP JUMPDEST DUP1 PUSH4 0x44FF81CE GT PUSH2 0x16F JUMPI DUP1 PUSH4 0x715018A6 GT PUSH2 0x13E JUMPI DUP1 PUSH4 0x715018A6 EQ PUSH2 0x520 JUMPI DUP1 PUSH4 0x7A8042BD EQ PUSH2 0x537 JUMPI DUP1 PUSH4 0x8DA5CB5B EQ PUSH2 0x572 JUMPI DUP1 PUSH4 0x94985DDD EQ PUSH2 0x5C9 JUMPI PUSH2 0x1D8 JUMP JUMPDEST DUP1 PUSH4 0x44FF81CE EQ PUSH2 0x422 JUMPI DUP1 PUSH4 0x50C5F975 EQ PUSH2 0x473 JUMPI DUP1 PUSH4 0x5B8D02D7 EQ PUSH2 0x49E JUMPI DUP1 PUSH4 0x63BD1D4A EQ PUSH2 0x4F5 JUMPI PUSH2 0x1D8 JUMP JUMPDEST DUP1 PUSH4 0x2EE42D8A GT PUSH2 0x1AB JUMPI DUP1 PUSH4 0x2EE42D8A EQ PUSH2 0x2FD JUMPI DUP1 PUSH4 0x33EA51A8 EQ PUSH2 0x328 JUMPI DUP1 PUSH4 0x3638104A EQ PUSH2 0x379 JUMPI DUP1 PUSH4 0x4051DDAC EQ PUSH2 0x3E2 JUMPI PUSH2 0x1D8 JUMP JUMPDEST DUP1 PUSH4 0xC610A12 EQ PUSH2 0x1DD JUMPI DUP1 PUSH4 0x117A5B90 EQ PUSH2 0x230 JUMPI DUP1 PUSH4 0x2E5B2168 EQ PUSH2 0x2D2 JUMPI PUSH2 0x1D8 JUMP JUMPDEST CALLDATASIZE PUSH2 0x1D8 JUMPI STOP JUMPDEST PUSH1 0x0 DUP1 REVERT JUMPDEST CALLVALUE DUP1 ISZERO PUSH2 0x1E9 JUMPI PUSH1 0x0 DUP1 REVERT JUMPDEST POP PUSH2 0x216 PUSH1 0x4 DUP1 CALLDATASIZE SUB PUSH1 0x20 DUP2 LT ISZERO PUSH2 0x200 JUMPI PUSH1 0x0 DUP1 REVERT JUMPDEST DUP2 ADD SWAP1 DUP1 DUP1 CALLDATALOAD SWAP1 PUSH1 0x20 ADD SWAP1 SWAP3 SWAP2 SWAP1 POP POP POP PUSH2 0xAC5 JUMP JUMPDEST PUSH1 0x40 MLOAD DUP1 DUP3 ISZERO ISZERO ISZERO ISZERO DUP2 MSTORE PUSH1 0x20 ADD SWAP2 POP POP PUSH1 0x40 MLOAD DUP1 SWAP2 SUB SWAP1 RETURN JUMPDEST CALLVALUE DUP1 ISZERO PUSH2 0x23C JUMPI PUSH1 0x0 DUP1 REVERT JUMPDEST POP PUSH2 0x269 PUSH1 0x4 DUP1 CALLDATASIZE SUB PUSH1 0x20 DUP2 LT ISZERO PUSH2 0x253 JUMPI PUSH1 0x0 DUP1 REVERT JUMPDEST DUP2 ADD SWAP1 DUP1 DUP1 CALLDATALOAD SWAP1 PUSH1 0x20 ADD SWAP1 SWAP3 SWAP2 SWAP1 POP POP POP PUSH2 0xB0C JUMP JUMPDEST PUSH1 0x40 MLOAD DUP1 DUP8 DUP2 MSTORE PUSH1 0x20 ADD DUP7 PUSH20 0xFFFFFFFFFFFFFFFFFFFFFFFFFFFFFFFFFFFFFFFF AND PUSH20 0xFFFFFFFFFFFFFFFFFFFFFFFFFFFFFFFFFFFFFFFF AND DUP2 MSTORE PUSH1 0x20 ADD DUP6 DUP2 MSTORE PUSH1 0x20 ADD DUP5 DUP2 MSTORE PUSH1 0x20 ADD DUP4 DUP2 MSTORE PUSH1 0x20 ADD DUP3 ISZERO ISZERO ISZERO ISZERO DUP2 MSTORE PUSH1 0x20 ADD SWAP7 POP POP POP POP POP POP POP PUSH1 0x40 MLOAD DUP1 SWAP2 SUB SWAP1 RETURN JUMPDEST CALLVALUE DUP1 ISZERO PUSH2 0x2DE JUMPI PUSH1 0x0 DUP1 REVERT JUMPDEST POP PUSH2 0x2E7 PUSH2 0xB75 JUMP JUMPDEST PUSH1 0x40 MLOAD DUP1 DUP3 DUP2 MSTORE PUSH1 0x20 ADD SWAP2 POP POP PUSH1 0x40 MLOAD DUP1 SWAP2 SUB SWAP1 RETURN JUMPDEST CALLVALUE DUP1 ISZERO PUSH2 0x309 JUMPI PUSH1 0x0 DUP1 REVERT JUMPDEST POP PUSH2 0x312 PUSH2 0xB7B JUMP JUMPDEST PUSH1 0x40 MLOAD DUP1 DUP3 DUP2 MSTORE PUSH1 0x20 ADD SWAP2 POP POP PUSH1 0x40 MLOAD DUP1 SWAP2 SUB SWAP1 RETURN JUMPDEST CALLVALUE DUP1 ISZERO PUSH2 0x334 JUMPI PUSH1 0x0 DUP1 REVERT JUMPDEST POP PUSH2 0x377 PUSH1 0x4 DUP1 CALLDATASIZE SUB PUSH1 0x20 DUP2 LT ISZERO PUSH2 0x34B JUMPI PUSH1 0x0 DUP1 REVERT JUMPDEST DUP2 ADD SWAP1 DUP1 DUP1 CALLDATALOAD PUSH20 0xFFFFFFFFFFFFFFFFFFFFFFFFFFFFFFFFFFFFFFFF AND SWAP1 PUSH1 0x20 ADD SWAP1 SWAP3 SWAP2 SWAP1 POP POP POP PUSH2 0xB81 JUMP JUMPDEST STOP JUMPDEST CALLVALUE DUP1 ISZERO PUSH2 0x385 JUMPI PUSH1 0x0 DUP1 REVERT JUMPDEST POP PUSH2 0x3C8 PUSH1 0x4 DUP1 CALLDATASIZE SUB PUSH1 0x20 DUP2 LT ISZERO PUSH2 0x39C JUMPI PUSH1 0x0 DUP1 REVERT JUMPDEST DUP2 ADD SWAP1 DUP1 DUP1 CALLDATALOAD PUSH20 0xFFFFFFFFFFFFFFFFFFFFFFFFFFFFFFFFFFFFFFFF AND SWAP1 PUSH1 0x20 ADD SWAP1 SWAP3 SWAP2 SWAP1 POP POP POP PUSH2 0xC8F JUMP JUMPDEST PUSH1 0x40 MLOAD DUP1 DUP3 ISZERO ISZERO ISZERO ISZERO DUP2 MSTORE PUSH1 0x20 ADD SWAP2 POP POP PUSH1 0x40 MLOAD DUP1 SWAP2 SUB SWAP1 RETURN JUMPDEST CALLVALUE DUP1 ISZERO PUSH2 0x3EE JUMPI PUSH1 0x0 DUP1 REVERT JUMPDEST POP PUSH2 0x3F7 PUSH2 0xCAF JUMP JUMPDEST PUSH1 0x40 MLOAD DUP1 DUP6 DUP2 MSTORE PUSH1 0x20 ADD DUP5 DUP2 MSTORE PUSH1 0x20 ADD DUP4 DUP2 MSTORE PUSH1 0x20 ADD DUP3 DUP2 MSTORE PUSH1 0x20 ADD SWAP5 POP POP POP POP POP PUSH1 0x40 MLOAD DUP1 SWAP2 SUB SWAP1 RETURN JUMPDEST CALLVALUE DUP1 ISZERO PUSH2 0x42E JUMPI PUSH1 0x0 DUP1 REVERT JUMPDEST POP PUSH2 0x471 PUSH1 0x4 DUP1 CALLDATASIZE SUB PUSH1 0x20 DUP2 LT ISZERO PUSH2 0x445 JUMPI PUSH1 0x0 DUP1 REVERT JUMPDEST DUP2 ADD SWAP1 DUP1 DUP1 CALLDATALOAD PUSH20 0xFFFFFFFFFFFFFFFFFFFFFFFFFFFFFFFFFFFFFFFF AND SWAP1 PUSH1 0x20 ADD SWAP1 SWAP3 SWAP2 SWAP1 POP POP POP PUSH2 0xCCF JUMP JUMPDEST STOP JUMPDEST CALLVALUE DUP1 ISZERO PUSH2 0x47F JUMPI PUSH1 0x0 DUP1 REVERT JUMPDEST POP PUSH2 0x488 PUSH2 0xDDD JUMP JUMPDEST PUSH1 0x40 MLOAD DUP1 DUP3 DUP2 MSTORE PUSH1 0x20 ADD SWAP2 POP POP PUSH1 0x40 MLOAD DUP1 SWAP2 SUB SWAP1 RETURN JUMPDEST CALLVALUE DUP1 ISZERO PUSH2 0x4AA JUMPI PUSH1 0x0 DUP1 REVERT JUMPDEST POP PUSH2 0x4B3 PUSH2 0xEBD JUMP JUMPDEST PUSH1 0x40 MLOAD DUP1 DUP3 PUSH20 0xFFFFFFFFFFFFFFFFFFFFFFFFFFFFFFFFFFFFFFFF AND PUSH20 0xFFFFFFFFFFFFFFFFFFFFFFFFFFFFFFFFFFFFFFFF AND DUP2 MSTORE PUSH1 0x20 ADD SWAP2 POP POP PUSH1 0x40 MLOAD DUP1 SWAP2 SUB SWAP1 RETURN JUMPDEST CALLVALUE DUP1 ISZERO PUSH2 0x501 JUMPI PUSH1 0x0 DUP1 REVERT JUMPDEST POP PUSH2 0x50A PUSH2 0xEE3 JUMP JUMPDEST PUSH1 0x40 MLOAD DUP1 DUP3 DUP2 MSTORE PUSH1 0x20 ADD SWAP2 POP POP PUSH1 0x40 MLOAD DUP1 SWAP2 SUB SWAP1 RETURN JUMPDEST CALLVALUE DUP1 ISZERO PUSH2 0x52C JUMPI PUSH1 0x0 DUP1 REVERT JUMPDEST POP PUSH2 0x535 PUSH2 0xEE9 JUMP JUMPDEST STOP JUMPDEST CALLVALUE DUP1 ISZERO PUSH2 0x543 JUMPI PUSH1 0x0 DUP1 REVERT JUMPDEST POP PUSH2 0x570 PUSH1 0x4 DUP1 CALLDATASIZE SUB PUSH1 0x20 DUP2 LT ISZERO PUSH2 0x55A JUMPI PUSH1 0x0 DUP1 REVERT JUMPDEST DUP2 ADD SWAP1 DUP1 DUP1 CALLDATALOAD SWAP1 PUSH1 0x20 ADD SWAP1 SWAP3 SWAP2 SWAP1 POP POP POP PUSH2 0x1074 JUMP JUMPDEST STOP JUMPDEST CALLVALUE DUP1 ISZERO PUSH2 0x57E JUMPI PUSH1 0x0 DUP1 REVERT JUMPDEST POP PUSH2 0x587 PUSH2 0x1279 JUMP JUMPDEST PUSH1 0x40 MLOAD DUP1 DUP3 PUSH20 0xFFFFFFFFFFFFFFFFFFFFFFFFFFFFFFFFFFFFFFFF AND PUSH20 0xFFFFFFFFFFFFFFFFFFFFFFFFFFFFFFFFFFFFFFFF AND DUP2 MSTORE PUSH1 0x20 ADD SWAP2 POP POP PUSH1 0x40 MLOAD DUP1 SWAP2 SUB SWAP1 RETURN JUMPDEST CALLVALUE DUP1 ISZERO PUSH2 0x5D5 JUMPI PUSH1 0x0 DUP1 REVERT JUMPDEST POP PUSH2 0x60C PUSH1 0x4 DUP1 CALLDATASIZE SUB PUSH1 0x40 DUP2 LT ISZERO PUSH2 0x5EC JUMPI PUSH1 0x0 DUP1 REVERT JUMPDEST DUP2 ADD SWAP1 DUP1 DUP1 CALLDATALOAD SWAP1 PUSH1 0x20 ADD SWAP1 SWAP3 SWAP2 SWAP1 DUP1 CALLDATALOAD SWAP1 PUSH1 0x20 ADD SWAP1 SWAP3 SWAP2 SWAP1 POP POP POP PUSH2 0x12A3 JUMP JUMPDEST STOP JUMPDEST CALLVALUE DUP1 ISZERO PUSH2 0x61A JUMPI PUSH1 0x0 DUP1 REVERT JUMPDEST POP PUSH2 0x6DD PUSH1 0x4 DUP1 CALLDATASIZE SUB PUSH1 0x40 DUP2 LT ISZERO PUSH2 0x631 JUMPI PUSH1 0x0 DUP1 REVERT JUMPDEST DUP2 ADD SWAP1 DUP1 DUP1 CALLDATALOAD SWAP1 PUSH1 0x20 ADD SWAP1 PUSH5 0x100000000 DUP2 GT ISZERO PUSH2 0x64E JUMPI PUSH1 0x0 DUP1 REVERT JUMPDEST DUP3 ADD DUP4 PUSH1 0x20 DUP3 ADD GT ISZERO PUSH2 0x660 JUMPI PUSH1 0x0 DUP1 REVERT JUMPDEST DUP1 CALLDATALOAD SWAP1 PUSH1 0x20 ADD SWAP2 DUP5 PUSH1 0x20 DUP4 MUL DUP5 ADD GT PUSH5 0x100000000 DUP4 GT OR ISZERO PUSH2 0x682 JUMPI PUSH1 0x0 DUP1 REVERT JUMPDEST SWAP2 SWAP1 DUP1 DUP1 PUSH1 0x20 MUL PUSH1 0x20 ADD PUSH1 0x40 MLOAD SWAP1 DUP2 ADD PUSH1 0x40 MSTORE DUP1 SWAP4 SWAP3 SWAP2 SWAP1 DUP2 DUP2 MSTORE PUSH1 0x20 ADD DUP4 DUP4 PUSH1 0x20 MUL DUP1 DUP3 DUP5 CALLDATACOPY PUSH1 0x0 DUP2 DUP5 ADD MSTORE PUSH1 0x1F NOT PUSH1 0x1F DUP3 ADD AND SWAP1 POP DUP1 DUP4 ADD SWAP3 POP POP POP POP POP POP POP SWAP2 SWAP3 SWAP2 SWAP3 SWAP1 DUP1 CALLDATALOAD ISZERO ISZERO SWAP1 PUSH1 0x20 ADD SWAP1 SWAP3 SWAP2 SWAP1 POP POP POP PUSH2 0x1374 JUMP JUMPDEST STOP JUMPDEST CALLVALUE DUP1 ISZERO PUSH2 0x6EB JUMPI PUSH1 0x0 DUP1 REVERT JUMPDEST POP PUSH2 0x6F4 PUSH2 0x14FB JUMP JUMPDEST PUSH1 0x40 MLOAD DUP1 DUP3 DUP2 MSTORE PUSH1 0x20 ADD SWAP2 POP POP PUSH1 0x40 MLOAD DUP1 SWAP2 SUB SWAP1 RETURN JUMPDEST CALLVALUE DUP1 ISZERO PUSH2 0x716 JUMPI PUSH1 0x0 DUP1 REVERT JUMPDEST POP PUSH2 0x743 PUSH1 0x4 DUP1 CALLDATASIZE SUB PUSH1 0x20 DUP2 LT ISZERO PUSH2 0x72D JUMPI PUSH1 0x0 DUP1 REVERT JUMPDEST DUP2 ADD SWAP1 DUP1 DUP1 CALLDATALOAD SWAP1 PUSH1 0x20 ADD SWAP1 SWAP3 SWAP2 SWAP1 POP POP POP PUSH2 0x1501 JUMP JUMPDEST STOP JUMPDEST CALLVALUE DUP1 ISZERO PUSH2 0x751 JUMPI PUSH1 0x0 DUP1 REVERT JUMPDEST POP PUSH2 0x77E PUSH1 0x4 DUP1 CALLDATASIZE SUB PUSH1 0x20 DUP2 LT ISZERO PUSH2 0x768 JUMPI PUSH1 0x0 DUP1 REVERT JUMPDEST DUP2 ADD SWAP1 DUP1 DUP1 CALLDATALOAD SWAP1 PUSH1 0x20 ADD SWAP1 SWAP3 SWAP2 SWAP1 POP POP POP PUSH2 0x15D5 JUMP JUMPDEST PUSH1 0x40 MLOAD DUP1 DUP3 DUP2 MSTORE PUSH1 0x20 ADD SWAP2 POP POP PUSH1 0x40 MLOAD DUP1 SWAP2 SUB SWAP1 RETURN JUMPDEST CALLVALUE DUP1 ISZERO PUSH2 0x7A0 JUMPI PUSH1 0x0 DUP1 REVERT JUMPDEST POP PUSH2 0x7E3 PUSH1 0x4 DUP1 CALLDATASIZE SUB PUSH1 0x20 DUP2 LT ISZERO PUSH2 0x7B7 JUMPI PUSH1 0x0 DUP1 REVERT JUMPDEST DUP2 ADD SWAP1 DUP1 DUP1 CALLDATALOAD PUSH20 0xFFFFFFFFFFFFFFFFFFFFFFFFFFFFFFFFFFFFFFFF AND SWAP1 PUSH1 0x20 ADD SWAP1 SWAP3 SWAP2 SWAP1 POP POP POP PUSH2 0x15ED JUMP JUMPDEST STOP JUMPDEST CALLVALUE DUP1 ISZERO PUSH2 0x7F1 JUMPI PUSH1 0x0 DUP1 REVERT JUMPDEST POP PUSH2 0x840 PUSH1 0x4 DUP1 CALLDATASIZE SUB PUSH1 0x40 DUP2 LT ISZERO PUSH2 0x808 JUMPI PUSH1 0x0 DUP1 REVERT JUMPDEST DUP2 ADD SWAP1 DUP1 DUP1 CALLDATALOAD PUSH20 0xFFFFFFFFFFFFFFFFFFFFFFFFFFFFFFFFFFFFFFFF AND SWAP1 PUSH1 0x20 ADD SWAP1 SWAP3 SWAP2 SWAP1 DUP1 CALLDATALOAD ISZERO ISZERO SWAP1 PUSH1 0x20 ADD SWAP1 SWAP3 SWAP2 SWAP1 POP POP POP PUSH2 0x16FA JUMP JUMPDEST STOP JUMPDEST CALLVALUE DUP1 ISZERO PUSH2 0x84E JUMPI PUSH1 0x0 DUP1 REVERT JUMPDEST POP PUSH2 0x87B PUSH1 0x4 DUP1 CALLDATASIZE SUB PUSH1 0x20 DUP2 LT ISZERO PUSH2 0x865 JUMPI PUSH1 0x0 DUP1 REVERT JUMPDEST DUP2 ADD SWAP1 DUP1 DUP1 CALLDATALOAD SWAP1 PUSH1 0x20 ADD SWAP1 SWAP3 SWAP2 SWAP1 POP POP POP PUSH2 0x181F JUMP JUMPDEST STOP JUMPDEST PUSH2 0x8C9 PUSH1 0x4 DUP1 CALLDATASIZE SUB PUSH1 0x40 DUP2 LT ISZERO PUSH2 0x893 JUMPI PUSH1 0x0 DUP1 REVERT JUMPDEST DUP2 ADD SWAP1 DUP1 DUP1 CALLDATALOAD PUSH20 0xFFFFFFFFFFFFFFFFFFFFFFFFFFFFFFFFFFFFFFFF AND SWAP1 PUSH1 0x20 ADD SWAP1 SWAP3 SWAP2 SWAP1 DUP1 CALLDATALOAD SWAP1 PUSH1 0x20 ADD SWAP1 SWAP3 SWAP2 SWAP1 POP POP POP PUSH2 0x1B16 JUMP JUMPDEST STOP JUMPDEST CALLVALUE DUP1 ISZERO PUSH2 0x8D7 JUMPI PUSH1 0x0 DUP1 REVERT JUMPDEST POP PUSH2 0x91A PUSH1 0x4 DUP1 CALLDATASIZE SUB PUSH1 0x20 DUP2 LT ISZERO PUSH2 0x8EE JUMPI PUSH1 0x0 DUP1 REVERT JUMPDEST DUP2 ADD SWAP1 DUP1 DUP1 CALLDATALOAD PUSH20 0xFFFFFFFFFFFFFFFFFFFFFFFFFFFFFFFFFFFFFFFF AND SWAP1 PUSH1 0x20 ADD SWAP1 SWAP3 SWAP2 SWAP1 POP POP POP PUSH2 0x1C57 JUMP JUMPDEST PUSH1 0x40 MLOAD DUP1 DUP3 DUP2 MSTORE PUSH1 0x20 ADD SWAP2 POP POP PUSH1 0x40 MLOAD DUP1 SWAP2 SUB SWAP1 RETURN JUMPDEST CALLVALUE DUP1 ISZERO PUSH2 0x93C JUMPI PUSH1 0x0 DUP1 REVERT JUMPDEST POP PUSH2 0x945 PUSH2 0x1C6F JUMP JUMPDEST STOP JUMPDEST CALLVALUE DUP1 ISZERO PUSH2 0x953 JUMPI PUSH1 0x0 DUP1 REVERT JUMPDEST POP PUSH2 0x980 PUSH1 0x4 DUP1 CALLDATASIZE SUB PUSH1 0x20 DUP2 LT ISZERO PUSH2 0x96A JUMPI PUSH1 0x0 DUP1 REVERT JUMPDEST DUP2 ADD SWAP1 DUP1 DUP1 CALLDATALOAD SWAP1 PUSH1 0x20 ADD SWAP1 SWAP3 SWAP2 SWAP1 POP POP POP PUSH2 0x207E JUMP JUMPDEST STOP JUMPDEST PUSH2 0x9CE PUSH1 0x4 DUP1 CALLDATASIZE SUB PUSH1 0x40 DUP2 LT ISZERO PUSH2 0x998 JUMPI PUSH1 0x0 DUP1 REVERT JUMPDEST DUP2 ADD SWAP1 DUP1 DUP1 CALLDATALOAD PUSH20 0xFFFFFFFFFFFFFFFFFFFFFFFFFFFFFFFFFFFFFFFF AND SWAP1 PUSH1 0x20 ADD SWAP1 SWAP3 SWAP2 SWAP1 DUP1 CALLDATALOAD SWAP1 PUSH1 0x20 ADD SWAP1 SWAP3 SWAP2 SWAP1 POP POP POP PUSH2 0x2260 JUMP JUMPDEST STOP JUMPDEST CALLVALUE DUP1 ISZERO PUSH2 0x9DC JUMPI PUSH1 0x0 DUP1 REVERT JUMPDEST POP PUSH2 0xA1F PUSH1 0x4 DUP1 CALLDATASIZE SUB PUSH1 0x20 DUP2 LT ISZERO PUSH2 0x9F3 JUMPI PUSH1 0x0 DUP1 REVERT JUMPDEST DUP2 ADD SWAP1 DUP1 DUP1 CALLDATALOAD PUSH20 0xFFFFFFFFFFFFFFFFFFFFFFFFFFFFFFFFFFFFFFFF AND SWAP1 PUSH1 0x20 ADD SWAP1 SWAP3 SWAP2 SWAP1 POP POP POP PUSH2 0x2486 JUMP JUMPDEST PUSH1 0x40 MLOAD DUP1 DUP3 ISZERO ISZERO ISZERO ISZERO DUP2 MSTORE PUSH1 0x20 ADD SWAP2 POP POP PUSH1 0x40 MLOAD DUP1 SWAP2 SUB SWAP1 RETURN JUMPDEST CALLVALUE DUP1 ISZERO PUSH2 0xA45 JUMPI PUSH1 0x0 DUP1 REVERT JUMPDEST POP PUSH2 0xA88 PUSH1 0x4 DUP1 CALLDATASIZE SUB PUSH1 0x20 DUP2 LT ISZERO PUSH2 0xA5C JUMPI PUSH1 0x0 DUP1 REVERT JUMPDEST DUP2 ADD SWAP1 DUP1 DUP1 CALLDATALOAD PUSH20 0xFFFFFFFFFFFFFFFFFFFFFFFFFFFFFFFFFFFFFFFF AND SWAP1 PUSH1 0x20 ADD SWAP1 SWAP3 SWAP2 SWAP1 POP POP POP PUSH2 0x24A6 JUMP JUMPDEST STOP JUMPDEST CALLVALUE DUP1 ISZERO PUSH2 0xA96 JUMPI PUSH1 0x0 DUP1 REVERT JUMPDEST POP PUSH2 0xAC3 PUSH1 0x4 DUP1 CALLDATASIZE SUB PUSH1 0x20 DUP2 LT ISZERO PUSH2 0xAAD JUMPI PUSH1 0x0 DUP1 REVERT JUMPDEST DUP2 ADD SWAP1 DUP1 DUP1 CALLDATALOAD SWAP1 PUSH1 0x20 ADD SWAP1 SWAP3 SWAP2 SWAP1 POP POP POP PUSH2 0x26B6 JUMP JUMPDEST STOP JUMPDEST PUSH1 0x0 PUSH2 0xAEE DUP3 PUSH2 0xAE0 PUSH1 0x17 SLOAD DUP6 PUSH2 0x278C SWAP1 SWAP2 SWAP1 PUSH4 0xFFFFFFFF AND JUMP JUMPDEST PUSH2 0x2812 SWAP1 SWAP2 SWAP1 PUSH4 0xFFFFFFFF AND JUMP JUMPDEST PUSH2 0xB03 PUSH1 0x14 SLOAD SELFBALANCE PUSH2 0x289A SWAP1 SWAP2 SWAP1 PUSH4 0xFFFFFFFF AND JUMP JUMPDEST LT ISZERO SWAP1 POP SWAP2 SWAP1 POP JUMP JUMPDEST PUSH1 0x1A PUSH1 0x20 MSTORE DUP1 PUSH1 0x0 MSTORE PUSH1 0x40 PUSH1 0x0 KECCAK256 PUSH1 0x0 SWAP2 POP SWAP1 POP DUP1 PUSH1 0x0 ADD SLOAD SWAP1 DUP1 PUSH1 0x1 ADD PUSH1 0x0 SWAP1 SLOAD SWAP1 PUSH2 0x100 EXP SWAP1 DIV PUSH20 0xFFFFFFFFFFFFFFFFFFFFFFFFFFFFFFFFFFFFFFFF AND SWAP1 DUP1 PUSH1 0x2 ADD SLOAD SWAP1 DUP1 PUSH1 0x3 ADD SLOAD SWAP1 DUP1 PUSH1 0x4 ADD SLOAD SWAP1 DUP1 PUSH1 0x5 ADD PUSH1 0x0 SWAP1 SLOAD SWAP1 PUSH2 0x100 EXP SWAP1 DIV PUSH1 0xFF AND SWAP1 POP DUP7 JUMP JUMPDEST PUSH1 0x12 SLOAD DUP2 JUMP JUMPDEST PUSH1 0x11 SLOAD DUP2 JUMP JUMPDEST PUSH2 0xB89 PUSH2 0x2923 JUMP JUMPDEST PUSH20 0xFFFFFFFFFFFFFFFFFFFFFFFFFFFFFFFFFFFFFFFF AND PUSH1 0x3 PUSH1 0x0 SWAP1 SLOAD SWAP1 PUSH2 0x100 EXP SWAP1 DIV PUSH20 0xFFFFFFFFFFFFFFFFFFFFFFFFFFFFFFFFFFFFFFFF AND PUSH20 0xFFFFFFFFFFFFFFFFFFFFFFFFFFFFFFFFFFFFFFFF AND EQ PUSH2 0xC4B JUMPI PUSH1 0x40 MLOAD PUSH32 0x8C379A000000000000000000000000000000000000000000000000000000000 DUP2 MSTORE PUSH1 0x4 ADD DUP1 DUP1 PUSH1 0x20 ADD DUP3 DUP2 SUB DUP3 MSTORE PUSH1 0x20 DUP2 MSTORE PUSH1 0x20 ADD DUP1 PUSH32 0x4F776E61626C653A2063616C6C6572206973206E6F7420746865206F776E6572 DUP2 MSTORE POP PUSH1 0x20 ADD SWAP2 POP POP PUSH1 0x40 MLOAD DUP1 SWAP2 SUB SWAP1 REVERT JUMPDEST DUP1 PUSH1 0x16 PUSH1 0x0 PUSH2 0x100 EXP DUP2 SLOAD DUP2 PUSH20 0xFFFFFFFFFFFFFFFFFFFFFFFFFFFFFFFFFFFFFFFF MUL NOT AND SWAP1 DUP4 PUSH20 0xFFFFFFFFFFFFFFFFFFFFFFFFFFFFFFFFFFFFFFFF AND MUL OR SWAP1 SSTORE POP POP JUMP JUMPDEST PUSH1 0x18 PUSH1 0x20 MSTORE DUP1 PUSH1 0x0 MSTORE PUSH1 0x40 PUSH1 0x0 KECCAK256 PUSH1 0x0 SWAP2 POP SLOAD SWAP1 PUSH2 0x100 EXP SWAP1 DIV PUSH1 0xFF AND DUP2 JUMP JUMPDEST PUSH1 0x0 DUP1 PUSH1 0x0 DUP1 PUSH1 0x13 SLOAD PUSH1 0x12 SLOAD PUSH1 0x17 SLOAD PUSH1 0x11 SLOAD SWAP4 POP SWAP4 POP SWAP4 POP SWAP4 POP SWAP1 SWAP2 SWAP3 SWAP4 JUMP JUMPDEST PUSH2 0xCD7 PUSH2 0x2923 JUMP JUMPDEST PUSH20 0xFFFFFFFFFFFFFFFFFFFFFFFFFFFFFFFFFFFFFFFF AND PUSH1 0x3 PUSH1 0x0 SWAP1 SLOAD SWAP1 PUSH2 0x100 EXP SWAP1 DIV PUSH20 0xFFFFFFFFFFFFFFFFFFFFFFFFFFFFFFFFFFFFFFFF AND PUSH20 0xFFFFFFFFFFFFFFFFFFFFFFFFFFFFFFFFFFFFFFFF AND EQ PUSH2 0xD99 JUMPI PUSH1 0x40 MLOAD PUSH32 0x8C379A000000000000000000000000000000000000000000000000000000000 DUP2 MSTORE PUSH1 0x4 ADD DUP1 DUP1 PUSH1 0x20 ADD DUP3 DUP2 SUB DUP3 MSTORE PUSH1 0x20 DUP2 MSTORE PUSH1 0x20 ADD DUP1 PUSH32 0x4F776E61626C653A2063616C6C6572206973206E6F7420746865206F776E6572 DUP2 MSTORE POP PUSH1 0x20 ADD SWAP2 POP POP PUSH1 0x40 MLOAD DUP1 SWAP2 SUB SWAP1 REVERT JUMPDEST DUP1 PUSH1 0x1 PUSH1 0x0 PUSH2 0x100 EXP DUP2 SLOAD DUP2 PUSH20 0xFFFFFFFFFFFFFFFFFFFFFFFFFFFFFFFFFFFFFFFF MUL NOT AND SWAP1 DUP4 PUSH20 0xFFFFFFFFFFFFFFFFFFFFFFFFFFFFFFFFFFFFFFFF AND MUL OR SWAP1 SSTORE POP POP JUMP JUMPDEST PUSH1 0x0 DUP1 PUSH1 0x0 SWAP1 SLOAD SWAP1 PUSH2 0x100 EXP SWAP1 DIV PUSH20 0xFFFFFFFFFFFFFFFFFFFFFFFFFFFFFFFFFFFFFFFF AND PUSH20 0xFFFFFFFFFFFFFFFFFFFFFFFFFFFFFFFFFFFFFFFF AND PUSH4 0x70A08231 ADDRESS PUSH1 0x40 MLOAD DUP3 PUSH4 0xFFFFFFFF AND PUSH1 0xE0 SHL DUP2 MSTORE PUSH1 0x4 ADD DUP1 DUP3 PUSH20 0xFFFFFFFFFFFFFFFFFFFFFFFFFFFFFFFFFFFFFFFF AND PUSH20 0xFFFFFFFFFFFFFFFFFFFFFFFFFFFFFFFFFFFFFFFF AND DUP2 MSTORE PUSH1 0x20 ADD SWAP2 POP POP PUSH1 0x20 PUSH1 0x40 MLOAD DUP1 DUP4 SUB DUP2 DUP7 DUP1 EXTCODESIZE ISZERO DUP1 ISZERO PUSH2 0xE7D JUMPI PUSH1 0x0 DUP1 REVERT JUMPDEST POP GAS STATICCALL ISZERO DUP1 ISZERO PUSH2 0xE91 JUMPI RETURNDATASIZE PUSH1 0x0 DUP1 RETURNDATACOPY RETURNDATASIZE PUSH1 0x0 REVERT JUMPDEST POP POP POP POP PUSH1 0x40 MLOAD RETURNDATASIZE PUSH1 0x20 DUP2 LT ISZERO PUSH2 0xEA7 JUMPI PUSH1 0x0 DUP1 REVERT JUMPDEST DUP2 ADD SWAP1 DUP1 DUP1 MLOAD SWAP1 PUSH1 0x20 ADD SWAP1 SWAP3 SWAP2 SWAP1 POP POP POP SWAP1 POP SWAP1 JUMP JUMPDEST PUSH1 0x16 PUSH1 0x0 SWAP1 SLOAD SWAP1 PUSH2 0x100 EXP SWAP1 DIV PUSH20 0xFFFFFFFFFFFFFFFFFFFFFFFFFFFFFFFFFFFFFFFF AND DUP2 JUMP JUMPDEST PUSH1 0x17 SLOAD DUP2 JUMP JUMPDEST PUSH2 0xEF1 PUSH2 0x2923 JUMP JUMPDEST PUSH20 0xFFFFFFFFFFFFFFFFFFFFFFFFFFFFFFFFFFFFFFFF AND PUSH1 0x3 PUSH1 0x0 SWAP1 SLOAD SWAP1 PUSH2 0x100 EXP SWAP1 DIV PUSH20 0xFFFFFFFFFFFFFFFFFFFFFFFFFFFFFFFFFFFFFFFF AND PUSH20 0xFFFFFFFFFFFFFFFFFFFFFFFFFFFFFFFFFFFFFFFF AND EQ PUSH2 0xFB3 JUMPI PUSH1 0x40 MLOAD PUSH32 0x8C379A000000000000000000000000000000000000000000000000000000000 DUP2 MSTORE PUSH1 0x4 ADD DUP1 DUP1 PUSH1 0x20 ADD DUP3 DUP2 SUB DUP3 MSTORE PUSH1 0x20 DUP2 MSTORE PUSH1 0x20 ADD DUP1 PUSH32 0x4F776E61626C653A2063616C6C6572206973206E6F7420746865206F776E6572 DUP2 MSTORE POP PUSH1 0x20 ADD SWAP2 POP POP PUSH1 0x40 MLOAD DUP1 SWAP2 SUB SWAP1 REVERT JUMPDEST PUSH1 0x0 PUSH20 0xFFFFFFFFFFFFFFFFFFFFFFFFFFFFFFFFFFFFFFFF AND PUSH1 0x3 PUSH1 0x0 SWAP1 SLOAD SWAP1 PUSH2 0x100 EXP SWAP1 DIV PUSH20 0xFFFFFFFFFFFFFFFFFFFFFFFFFFFFFFFFFFFFFFFF AND PUSH20 0xFFFFFFFFFFFFFFFFFFFFFFFFFFFFFFFFFFFFFFFF AND PUSH32 0x8BE0079C531659141344CD1FD0A4F28419497F9722A3DAAFE3B4186F6B6457E0 PUSH1 0x40 MLOAD PUSH1 0x40 MLOAD DUP1 SWAP2 SUB SWAP1 LOG3 PUSH1 0x0 PUSH1 0x3 PUSH1 0x0 PUSH2 0x100 EXP DUP2 SLOAD DUP2 PUSH20 0xFFFFFFFFFFFFFFFFFFFFFFFFFFFFFFFFFFFFFFFF MUL NOT AND SWAP1 DUP4 PUSH20 0xFFFFFFFFFFFFFFFFFFFFFFFFFFFFFFFFFFFFFFFF AND MUL OR SWAP1 SSTORE POP JUMP JUMPDEST CALLER PUSH20 0xFFFFFFFFFFFFFFFFFFFFFFFFFFFFFFFFFFFFFFFF AND PUSH2 0x1093 PUSH2 0x1279 JUMP JUMPDEST PUSH20 0xFFFFFFFFFFFFFFFFFFFFFFFFFFFFFFFFFFFFFFFF AND EQ DUP1 PUSH2 0x10FE JUMPI POP PUSH1 0x18 PUSH1 0x0 CALLER PUSH20 0xFFFFFFFFFFFFFFFFFFFFFFFFFFFFFFFFFFFFFFFF AND PUSH20 0xFFFFFFFFFFFFFFFFFFFFFFFFFFFFFFFFFFFFFFFF AND DUP2 MSTORE PUSH1 0x20 ADD SWAP1 DUP2 MSTORE PUSH1 0x20 ADD PUSH1 0x0 KECCAK256 PUSH1 0x0 SWAP1 SLOAD SWAP1 PUSH2 0x100 EXP SWAP1 DIV PUSH1 0xFF AND JUMPDEST PUSH2 0x1170 JUMPI PUSH1 0x40 MLOAD PUSH32 0x8C379A000000000000000000000000000000000000000000000000000000000 DUP2 MSTORE PUSH1 0x4 ADD DUP1 DUP1 PUSH1 0x20 ADD DUP3 DUP2 SUB DUP3 MSTORE PUSH1 0x18 DUP2 MSTORE PUSH1 0x20 ADD DUP1 PUSH32 0x63616C6C6572206973206E6F7420617574686F72697A65640000000000000000 DUP2 MSTORE POP PUSH1 0x20 ADD SWAP2 POP POP PUSH1 0x40 MLOAD DUP1 SWAP2 SUB SWAP1 REVERT JUMPDEST PUSH1 0x0 DUP1 SWAP1 SLOAD SWAP1 PUSH2 0x100 EXP SWAP1 DIV PUSH20 0xFFFFFFFFFFFFFFFFFFFFFFFFFFFFFFFFFFFFFFFF AND PUSH20 0xFFFFFFFFFFFFFFFFFFFFFFFFFFFFFFFFFFFFFFFF AND PUSH4 0xA9059CBB PUSH1 0x16 PUSH1 0x0 SWAP1 SLOAD SWAP1 PUSH2 0x100 EXP SWAP1 DIV PUSH20 0xFFFFFFFFFFFFFFFFFFFFFFFFFFFFFFFFFFFFFFFF AND DUP4 PUSH1 0x40 MLOAD DUP4 PUSH4 0xFFFFFFFF AND PUSH1 0xE0 SHL DUP2 MSTORE PUSH1 0x4 ADD DUP1 DUP4 PUSH20 0xFFFFFFFFFFFFFFFFFFFFFFFFFFFFFFFFFFFFFFFF AND PUSH20 0xFFFFFFFFFFFFFFFFFFFFFFFFFFFFFFFFFFFFFFFF AND DUP2 MSTORE PUSH1 0x20 ADD DUP3 DUP2 MSTORE PUSH1 0x20 ADD SWAP3 POP POP POP PUSH1 0x20 PUSH1 0x40 MLOAD DUP1 DUP4 SUB DUP2 PUSH1 0x0 DUP8 DUP1 EXTCODESIZE ISZERO DUP1 ISZERO PUSH2 0x123A JUMPI PUSH1 0x0 DUP1 REVERT JUMPDEST POP GAS CALL ISZERO DUP1 ISZERO PUSH2 0x124E JUMPI RETURNDATASIZE PUSH1 0x0 DUP1 RETURNDATACOPY RETURNDATASIZE PUSH1 0x0 REVERT JUMPDEST POP POP POP POP PUSH1 0x40 MLOAD RETURNDATASIZE PUSH1 0x20 DUP2 LT ISZERO PUSH2 0x1264 JUMPI PUSH1 0x0 DUP1 REVERT JUMPDEST DUP2 ADD SWAP1 DUP1 DUP1 MLOAD SWAP1 PUSH1 0x20 ADD SWAP1 SWAP3 SWAP2 SWAP1 POP POP POP POP POP JUMP JUMPDEST PUSH1 0x0 PUSH1 0x3 PUSH1 0x0 SWAP1 SLOAD SWAP1 PUSH2 0x100 EXP SWAP1 DIV PUSH20 0xFFFFFFFFFFFFFFFFFFFFFFFFFFFFFFFFFFFFFFFF AND SWAP1 POP SWAP1 JUMP JUMPDEST PUSH1 0x1 PUSH1 0x0 SWAP1 SLOAD SWAP1 PUSH2 0x100 EXP SWAP1 DIV PUSH20 0xFFFFFFFFFFFFFFFFFFFFFFFFFFFFFFFFFFFFFFFF AND PUSH20 0xFFFFFFFFFFFFFFFFFFFFFFFFFFFFFFFFFFFFFFFF AND CALLER PUSH20 0xFFFFFFFFFFFFFFFFFFFFFFFFFFFFFFFFFFFFFFFF AND EQ PUSH2 0x1366 JUMPI PUSH1 0x40 MLOAD PUSH32 0x8C379A000000000000000000000000000000000000000000000000000000000 DUP2 MSTORE PUSH1 0x4 ADD DUP1 DUP1 PUSH1 0x20 ADD DUP3 DUP2 SUB DUP3 MSTORE PUSH1 0x1F DUP2 MSTORE PUSH1 0x20 ADD DUP1 PUSH32 0x4F6E6C7920565246436F6F7264696E61746F722063616E2066756C66696C6C00 DUP2 MSTORE POP PUSH1 0x20 ADD SWAP2 POP POP PUSH1 0x40 MLOAD DUP1 SWAP2 SUB SWAP1 REVERT JUMPDEST PUSH2 0x1370 DUP3 DUP3 PUSH2 0x292B JUMP JUMPDEST POP POP JUMP JUMPDEST CALLER PUSH20 0xFFFFFFFFFFFFFFFFFFFFFFFFFFFFFFFFFFFFFFFF AND PUSH2 0x1393 PUSH2 0x1279 JUMP JUMPDEST PUSH20 0xFFFFFFFFFFFFFFFFFFFFFFFFFFFFFFFFFFFFFFFF AND EQ DUP1 PUSH2 0x13FE JUMPI POP PUSH1 0x18 PUSH1 0x0 CALLER PUSH20 0xFFFFFFFFFFFFFFFFFFFFFFFFFFFFFFFFFFFFFFFF AND PUSH20 0xFFFFFFFFFFFFFFFFFFFFFFFFFFFFFFFFFFFFFFFF AND DUP2 MSTORE PUSH1 0x20 ADD SWAP1 DUP2 MSTORE PUSH1 0x20 ADD PUSH1 0x0 KECCAK256 PUSH1 0x0 SWAP1 SLOAD SWAP1 PUSH2 0x100 EXP SWAP1 DIV PUSH1 0xFF AND JUMPDEST PUSH2 0x1470 JUMPI PUSH1 0x40 MLOAD PUSH32 0x8C379A000000000000000000000000000000000000000000000000000000000 DUP2 MSTORE PUSH1 0x4 ADD DUP1 DUP1 PUSH1 0x20 ADD DUP3 DUP2 SUB DUP3 MSTORE PUSH1 0x18 DUP2 MSTORE PUSH1 0x20 ADD DUP1 PUSH32 0x63616C6C6572206973206E6F7420617574686F72697A65640000000000000000 DUP2 MSTORE POP PUSH1 0x20 ADD SWAP2 POP POP PUSH1 0x40 MLOAD DUP1 SWAP2 SUB SWAP1 REVERT JUMPDEST PUSH1 0x0 DUP1 SWAP1 POP JUMPDEST DUP3 MLOAD DUP2 LT ISZERO PUSH2 0x14F6 JUMPI DUP2 PUSH1 0x19 PUSH1 0x0 DUP6 DUP5 DUP2 MLOAD DUP2 LT PUSH2 0x1490 JUMPI INVALID JUMPDEST PUSH1 0x20 MUL PUSH1 0x20 ADD ADD MLOAD PUSH20 0xFFFFFFFFFFFFFFFFFFFFFFFFFFFFFFFFFFFFFFFF AND PUSH20 0xFFFFFFFFFFFFFFFFFFFFFFFFFFFFFFFFFFFFFFFF AND DUP2 MSTORE PUSH1 0x20 ADD SWAP1 DUP2 MSTORE PUSH1 0x20 ADD PUSH1 0x0 KECCAK256 PUSH1 0x0 PUSH2 0x100 EXP DUP2 SLOAD DUP2 PUSH1 0xFF MUL NOT AND SWAP1 DUP4 ISZERO ISZERO MUL OR SWAP1 SSTORE POP DUP1 DUP1 PUSH1 0x1 ADD SWAP2 POP POP PUSH2 0x1476 JUMP JUMPDEST POP POP POP JUMP JUMPDEST PUSH1 0x13 SLOAD DUP2 JUMP JUMPDEST PUSH2 0x1509 PUSH2 0x2923 JUMP JUMPDEST PUSH20 0xFFFFFFFFFFFFFFFFFFFFFFFFFFFFFFFFFFFFFFFF AND PUSH1 0x3 PUSH1 0x0 SWAP1 SLOAD SWAP1 PUSH2 0x100 EXP SWAP1 DIV PUSH20 0xFFFFFFFFFFFFFFFFFFFFFFFFFFFFFFFFFFFFFFFF AND PUSH20 0xFFFFFFFFFFFFFFFFFFFFFFFFFFFFFFFFFFFFFFFF AND EQ PUSH2 0x15CB JUMPI PUSH1 0x40 MLOAD PUSH32 0x8C379A000000000000000000000000000000000000000000000000000000000 DUP2 MSTORE PUSH1 0x4 ADD DUP1 DUP1 PUSH1 0x20 ADD DUP3 DUP2 SUB DUP3 MSTORE PUSH1 0x20 DUP2 MSTORE PUSH1 0x20 ADD DUP1 PUSH32 0x4F776E61626C653A2063616C6C6572206973206E6F7420746865206F776E6572 DUP2 MSTORE POP PUSH1 0x20 ADD SWAP2 POP POP PUSH1 0x40 MLOAD DUP1 SWAP2 SUB SWAP1 REVERT JUMPDEST DUP1 PUSH1 0x4 DUP2 SWAP1 SSTORE POP POP JUMP JUMPDEST PUSH1 0x2 PUSH1 0x20 MSTORE DUP1 PUSH1 0x0 MSTORE PUSH1 0x40 PUSH1 0x0 KECCAK256 PUSH1 0x0 SWAP2 POP SWAP1 POP SLOAD DUP2 JUMP JUMPDEST PUSH2 0x15F5 PUSH2 0x2923 JUMP JUMPDEST PUSH20 0xFFFFFFFFFFFFFFFFFFFFFFFFFFFFFFFFFFFFFFFF AND PUSH1 0x3 PUSH1 0x0 SWAP1 SLOAD SWAP1 PUSH2 0x100 EXP SWAP1 DIV PUSH20 0xFFFFFFFFFFFFFFFFFFFFFFFFFFFFFFFFFFFFFFFF AND PUSH20 0xFFFFFFFFFFFFFFFFFFFFFFFFFFFFFFFFFFFFFFFF AND EQ PUSH2 0x16B7 JUMPI PUSH1 0x40 MLOAD PUSH32 0x8C379A000000000000000000000000000000000000000000000000000000000 DUP2 MSTORE PUSH1 0x4 ADD DUP1 DUP1 PUSH1 0x20 ADD DUP3 DUP2 SUB DUP3 MSTORE PUSH1 0x20 DUP2 MSTORE PUSH1 0x20 ADD DUP1 PUSH32 0x4F776E61626C653A2063616C6C6572206973206E6F7420746865206F776E6572 DUP2 MSTORE POP PUSH1 0x20 ADD SWAP2 POP POP PUSH1 0x40 MLOAD DUP1 SWAP2 SUB SWAP1 REVERT JUMPDEST DUP1 PUSH1 0x0 DUP1 PUSH2 0x100 EXP DUP2 SLOAD DUP2 PUSH20 0xFFFFFFFFFFFFFFFFFFFFFFFFFFFFFFFFFFFFFFFF MUL NOT AND SWAP1 DUP4 PUSH20 0xFFFFFFFFFFFFFFFFFFFFFFFFFFFFFFFFFFFFFFFF AND MUL OR SWAP1 SSTORE POP POP JUMP JUMPDEST PUSH2 0x1702 PUSH2 0x2923 JUMP JUMPDEST PUSH20 0xFFFFFFFFFFFFFFFFFFFFFFFFFFFFFFFFFFFFFFFF AND PUSH1 0x3 PUSH1 0x0 SWAP1 SLOAD SWAP1 PUSH2 0x100 EXP SWAP1 DIV PUSH20 0xFFFFFFFFFFFFFFFFFFFFFFFFFFFFFFFFFFFFFFFF AND PUSH20 0xFFFFFFFFFFFFFFFFFFFFFFFFFFFFFFFFFFFFFFFF AND EQ PUSH2 0x17C4 JUMPI PUSH1 0x40 MLOAD PUSH32 0x8C379A000000000000000000000000000000000000000000000000000000000 DUP2 MSTORE PUSH1 0x4 ADD DUP1 DUP1 PUSH1 0x20 ADD DUP3 DUP2 SUB DUP3 MSTORE PUSH1 0x20 DUP2 MSTORE PUSH1 0x20 ADD DUP1 PUSH32 0x4F776E61626C653A2063616C6C6572206973206E6F7420746865206F776E6572 DUP2 MSTORE POP PUSH1 0x20 ADD SWAP2 POP POP PUSH1 0x40 MLOAD DUP1 SWAP2 SUB SWAP1 REVERT JUMPDEST DUP1 PUSH1 0x18 PUSH1 0x0 DUP5 PUSH20 0xFFFFFFFFFFFFFFFFFFFFFFFFFFFFFFFFFFFFFFFF AND PUSH20 0xFFFFFFFFFFFFFFFFFFFFFFFFFFFFFFFFFFFFFFFF AND DUP2 MSTORE PUSH1 0x20 ADD SWAP1 DUP2 MSTORE PUSH1 0x20 ADD PUSH1 0x0 KECCAK256 PUSH1 0x0 PUSH2 0x100 EXP DUP2 SLOAD DUP2 PUSH1 0xFF MUL NOT AND SWAP1 DUP4 ISZERO ISZERO MUL OR SWAP1 SSTORE POP POP POP JUMP JUMPDEST PUSH1 0x0 PUSH1 0x1A PUSH1 0x0 DUP4 DUP2 MSTORE PUSH1 0x20 ADD SWAP1 DUP2 MSTORE PUSH1 0x20 ADD PUSH1 0x0 KECCAK256 SWAP1 POP PUSH1 0x18 PUSH1 0x0 CALLER PUSH20 0xFFFFFFFFFFFFFFFFFFFFFFFFFFFFFFFFFFFFFFFF AND PUSH20 0xFFFFFFFFFFFFFFFFFFFFFFFFFFFFFFFFFFFFFFFF AND DUP2 MSTORE PUSH1 0x20 ADD SWAP1 DUP2 MSTORE PUSH1 0x20 ADD PUSH1 0x0 KECCAK256 PUSH1 0x0 SWAP1 SLOAD SWAP1 PUSH2 0x100 EXP SWAP1 DIV PUSH1 0xFF AND DUP1 PUSH2 0x18C0 JUMPI POP CALLER PUSH20 0xFFFFFFFFFFFFFFFFFFFFFFFFFFFFFFFFFFFFFFFF AND PUSH2 0x18A8 PUSH2 0x1279 JUMP JUMPDEST PUSH20 0xFFFFFFFFFFFFFFFFFFFFFFFFFFFFFFFFFFFFFFFF AND EQ JUMPDEST DUP1 PUSH2 0x191A JUMPI POP CALLER PUSH20 0xFFFFFFFFFFFFFFFFFFFFFFFFFFFFFFFFFFFFFFFF AND DUP2 PUSH1 0x1 ADD PUSH1 0x0 SWAP1 SLOAD SWAP1 PUSH2 0x100 EXP SWAP1 DIV PUSH20 0xFFFFFFFFFFFFFFFFFFFFFFFFFFFFFFFFFFFFFFFF AND PUSH20 0xFFFFFFFFFFFFFFFFFFFFFFFFFFFFFFFFFFFFFFFF AND EQ JUMPDEST PUSH2 0x198C JUMPI PUSH1 0x40 MLOAD PUSH32 0x8C379A000000000000000000000000000000000000000000000000000000000 DUP2 MSTORE PUSH1 0x4 ADD DUP1 DUP1 PUSH1 0x20 ADD DUP3 DUP2 SUB DUP3 MSTORE PUSH1 0x20 DUP2 MSTORE PUSH1 0x20 ADD DUP1 PUSH32 0x4E6F7420617574686F72697A656420746F207265717565737420726566756E64 DUP2 MSTORE POP PUSH1 0x20 ADD SWAP2 POP POP PUSH1 0x40 MLOAD DUP1 SWAP2 SUB SWAP1 REVERT JUMPDEST PUSH1 0x0 ISZERO ISZERO DUP2 PUSH1 0x5 ADD PUSH1 0x0 SWAP1 SLOAD SWAP1 PUSH2 0x100 EXP SWAP1 DIV PUSH1 0xFF AND ISZERO ISZERO EQ PUSH2 0x19FA JUMPI PUSH1 0x40 MLOAD PUSH32 0x8C379A000000000000000000000000000000000000000000000000000000000 DUP2 MSTORE PUSH1 0x4 ADD DUP1 DUP1 PUSH1 0x20 ADD DUP3 DUP2 SUB DUP3 MSTORE PUSH1 0x2A DUP2 MSTORE PUSH1 0x20 ADD DUP1 PUSH2 0x3525 PUSH1 0x2A SWAP2 CODECOPY PUSH1 0x40 ADD SWAP2 POP POP PUSH1 0x40 MLOAD DUP1 SWAP2 SUB SWAP1 REVERT JUMPDEST DUP1 PUSH1 0x2 ADD SLOAD SELFBALANCE LT ISZERO PUSH2 0x1A57 JUMPI PUSH1 0x40 MLOAD PUSH32 0x8C379A000000000000000000000000000000000000000000000000000000000 DUP2 MSTORE PUSH1 0x4 ADD DUP1 DUP1 PUSH1 0x20 ADD DUP3 DUP2 SUB DUP3 MSTORE PUSH1 0x31 DUP2 MSTORE PUSH1 0x20 ADD DUP1 PUSH2 0x34F4 PUSH1 0x31 SWAP2 CODECOPY PUSH1 0x40 ADD SWAP2 POP POP PUSH1 0x40 MLOAD DUP1 SWAP2 SUB SWAP1 REVERT JUMPDEST PUSH1 0x1 DUP2 PUSH1 0x5 ADD PUSH1 0x0 PUSH2 0x100 EXP DUP2 SLOAD DUP2 PUSH1 0xFF MUL NOT AND SWAP1 DUP4 ISZERO ISZERO MUL OR SWAP1 SSTORE POP DUP1 PUSH1 0x2 ADD SLOAD PUSH1 0x14 SLOAD LT PUSH2 0x1A9A JUMPI DUP1 PUSH1 0x2 ADD SLOAD PUSH1 0x14 PUSH1 0x0 DUP3 DUP3 SLOAD SUB SWAP3 POP POP DUP2 SWAP1 SSTORE POP PUSH2 0x1AA3 JUMP JUMPDEST PUSH1 0x0 PUSH1 0x14 DUP2 SWAP1 SSTORE POP JUMPDEST DUP1 PUSH1 0x1 ADD PUSH1 0x0 SWAP1 SLOAD SWAP1 PUSH2 0x100 EXP SWAP1 DIV PUSH20 0xFFFFFFFFFFFFFFFFFFFFFFFFFFFFFFFFFFFFFFFF AND PUSH20 0xFFFFFFFFFFFFFFFFFFFFFFFFFFFFFFFFFFFFFFFF AND PUSH2 0x8FC DUP3 PUSH1 0x2 ADD SLOAD SWAP1 DUP2 ISZERO MUL SWAP1 PUSH1 0x40 MLOAD PUSH1 0x0 PUSH1 0x40 MLOAD DUP1 DUP4 SUB DUP2 DUP6 DUP9 DUP9 CALL SWAP4 POP POP POP POP ISZERO DUP1 ISZERO PUSH2 0x1B11 JUMPI RETURNDATASIZE PUSH1 0x0 DUP1 RETURNDATACOPY RETURNDATASIZE PUSH1 0x0 REVERT JUMPDEST POP POP POP JUMP JUMPDEST PUSH1 0x13 SLOAD CALLVALUE LT ISZERO PUSH2 0x1B8E JUMPI PUSH1 0x40 MLOAD PUSH32 0x8C379A000000000000000000000000000000000000000000000000000000000 DUP2 MSTORE PUSH1 0x4 ADD DUP1 DUP1 PUSH1 0x20 ADD DUP3 DUP2 SUB DUP3 MSTORE PUSH1 0x13 DUP2 MSTORE PUSH1 0x20 ADD DUP1 PUSH32 0x6D696E696D756D20626574206E6F74206D657400000000000000000000000000 DUP2 MSTORE POP PUSH1 0x20 ADD SWAP2 POP POP PUSH1 0x40 MLOAD DUP1 SWAP2 SUB SWAP1 REVERT JUMPDEST PUSH1 0x1 PUSH1 0x6 SLOAD EQ ISZERO PUSH2 0x1BDC JUMPI PUSH1 0x6 PUSH1 0x0 SWAP1 SSTORE PUSH1 0x7 PUSH1 0x0 SWAP1 SSTORE PUSH1 0x8 PUSH1 0x0 SWAP1 SSTORE PUSH1 0x9 PUSH1 0x0 SWAP1 SSTORE PUSH1 0xA PUSH1 0x0 SWAP1 SSTORE PUSH1 0xB PUSH1 0x0 SWAP1 SSTORE PUSH1 0xC PUSH1 0x0 SWAP1 SSTORE PUSH1 0xD PUSH1 0x0 SWAP1 SSTORE PUSH1 0xE PUSH1 0x0 SWAP1 SSTORE PUSH1 0xF PUSH1 0x0 SWAP1 SSTORE PUSH1 0x10 PUSH1 0x0 SWAP1 SSTORE JUMPDEST PUSH2 0x1BF1 CALLVALUE PUSH1 0x14 SLOAD PUSH2 0x2812 SWAP1 SWAP2 SWAP1 PUSH4 0xFFFFFFFF AND JUMP JUMPDEST PUSH1 0x14 DUP2 SWAP1 SSTORE POP PUSH2 0x1C02 DUP3 CALLVALUE DUP4 PUSH2 0x2C38 JUMP JUMPDEST PUSH2 0x1C0D PUSH1 0x15 SLOAD PUSH2 0x2D57 JUMP JUMPDEST PUSH1 0x15 SLOAD PUSH1 0x1C PUSH1 0x0 DUP5 PUSH20 0xFFFFFFFFFFFFFFFFFFFFFFFFFFFFFFFFFFFFFFFF AND PUSH20 0xFFFFFFFFFFFFFFFFFFFFFFFFFFFFFFFFFFFFFFFF AND DUP2 MSTORE PUSH1 0x20 ADD SWAP1 DUP2 MSTORE PUSH1 0x20 ADD PUSH1 0x0 KECCAK256 DUP2 SWAP1 SSTORE POP POP POP JUMP JUMPDEST PUSH1 0x1C PUSH1 0x20 MSTORE DUP1 PUSH1 0x0 MSTORE PUSH1 0x40 PUSH1 0x0 KECCAK256 PUSH1 0x0 SWAP2 POP SWAP1 POP SLOAD DUP2 JUMP JUMPDEST PUSH2 0x1C77 PUSH2 0x2923 JUMP JUMPDEST PUSH20 0xFFFFFFFFFFFFFFFFFFFFFFFFFFFFFFFFFFFFFFFF AND PUSH1 0x3 PUSH1 0x0 SWAP1 SLOAD SWAP1 PUSH2 0x100 EXP SWAP1 DIV PUSH20 0xFFFFFFFFFFFFFFFFFFFFFFFFFFFFFFFFFFFFFFFF AND PUSH20 0xFFFFFFFFFFFFFFFFFFFFFFFFFFFFFFFFFFFFFFFF AND EQ PUSH2 0x1D39 JUMPI PUSH1 0x40 MLOAD PUSH32 0x8C379A000000000000000000000000000000000000000000000000000000000 DUP2 MSTORE PUSH1 0x4 ADD DUP1 DUP1 PUSH1 0x20 ADD DUP3 DUP2 SUB DUP3 MSTORE PUSH1 0x20 DUP2 MSTORE PUSH1 0x20 ADD DUP1 PUSH32 0x4F776E61626C653A2063616C6C6572206973206E6F7420746865206F776E6572 DUP2 MSTORE POP PUSH1 0x20 ADD SWAP2 POP POP PUSH1 0x40 MLOAD DUP1 SWAP2 SUB SWAP1 REVERT JUMPDEST PUSH1 0x0 PUSH2 0x1D50 PUSH1 0x14 SLOAD SELFBALANCE PUSH2 0x289A SWAP1 SWAP2 SWAP1 PUSH4 0xFFFFFFFF AND JUMP JUMPDEST SWAP1 POP PUSH1 0x16 PUSH1 0x0 SWAP1 SLOAD SWAP1 PUSH2 0x100 EXP SWAP1 DIV PUSH20 0xFFFFFFFFFFFFFFFFFFFFFFFFFFFFFFFFFFFFFFFF AND PUSH20 0xFFFFFFFFFFFFFFFFFFFFFFFFFFFFFFFFFFFFFFFF AND PUSH2 0x8FC DUP3 SWAP1 DUP2 ISZERO MUL SWAP1 PUSH1 0x40 MLOAD PUSH1 0x0 PUSH1 0x40 MLOAD DUP1 DUP4 SUB DUP2 DUP6 DUP9 DUP9 CALL SWAP4 POP POP POP POP ISZERO DUP1 ISZERO PUSH2 0x1DBA JUMPI RETURNDATASIZE PUSH1 0x0 DUP1 RETURNDATACOPY RETURNDATASIZE PUSH1 0x0 REVERT JUMPDEST POP PUSH1 0x0 DUP1 PUSH1 0x0 SWAP1 SLOAD SWAP1 PUSH2 0x100 EXP SWAP1 DIV PUSH20 0xFFFFFFFFFFFFFFFFFFFFFFFFFFFFFFFFFFFFFFFF AND PUSH20 0xFFFFFFFFFFFFFFFFFFFFFFFFFFFFFFFFFFFFFFFF AND PUSH4 0x70A08231 ADDRESS PUSH1 0x40 MLOAD DUP3 PUSH4 0xFFFFFFFF AND PUSH1 0xE0 SHL DUP2 MSTORE PUSH1 0x4 ADD DUP1 DUP3 PUSH20 0xFFFFFFFFFFFFFFFFFFFFFFFFFFFFFFFFFFFFFFFF AND PUSH20 0xFFFFFFFFFFFFFFFFFFFFFFFFFFFFFFFFFFFFFFFF AND DUP2 MSTORE PUSH1 0x20 ADD SWAP2 POP POP PUSH1 0x20 PUSH1 0x40 MLOAD DUP1 DUP4 SUB DUP2 DUP7 DUP1 EXTCODESIZE ISZERO DUP1 ISZERO PUSH2 0x1E5B JUMPI PUSH1 0x0 DUP1 REVERT JUMPDEST POP GAS STATICCALL ISZERO DUP1 ISZERO PUSH2 0x1E6F JUMPI RETURNDATASIZE PUSH1 0x0 DUP1 RETURNDATACOPY RETURNDATASIZE PUSH1 0x0 REVERT JUMPDEST POP POP POP POP PUSH1 0x40 MLOAD RETURNDATASIZE PUSH1 0x20 DUP2 LT ISZERO PUSH2 0x1E85 JUMPI PUSH1 0x0 DUP1 REVERT JUMPDEST DUP2 ADD SWAP1 DUP1 DUP1 MLOAD SWAP1 PUSH1 0x20 ADD SWAP1 SWAP3 SWAP2 SWAP1 POP POP POP GT ISZERO PUSH2 0x207B JUMPI PUSH1 0x0 DUP1 SWAP1 SLOAD SWAP1 PUSH2 0x100 EXP SWAP1 DIV PUSH20 0xFFFFFFFFFFFFFFFFFFFFFFFFFFFFFFFFFFFFFFFF AND PUSH20 0xFFFFFFFFFFFFFFFFFFFFFFFFFFFFFFFFFFFFFFFF AND PUSH4 0xA9059CBB PUSH1 0x16 PUSH1 0x0 SWAP1 SLOAD SWAP1 PUSH2 0x100 EXP SWAP1 DIV PUSH20 0xFFFFFFFFFFFFFFFFFFFFFFFFFFFFFFFFFFFFFFFF AND PUSH1 0x0 DUP1 SWAP1 SLOAD SWAP1 PUSH2 0x100 EXP SWAP1 DIV PUSH20 0xFFFFFFFFFFFFFFFFFFFFFFFFFFFFFFFFFFFFFFFF AND PUSH20 0xFFFFFFFFFFFFFFFFFFFFFFFFFFFFFFFFFFFFFFFF AND PUSH4 0x70A08231 ADDRESS PUSH1 0x40 MLOAD DUP3 PUSH4 0xFFFFFFFF AND PUSH1 0xE0 SHL DUP2 MSTORE PUSH1 0x4 ADD DUP1 DUP3 PUSH20 0xFFFFFFFFFFFFFFFFFFFFFFFFFFFFFFFFFFFFFFFF AND PUSH20 0xFFFFFFFFFFFFFFFFFFFFFFFFFFFFFFFFFFFFFFFF AND DUP2 MSTORE PUSH1 0x20 ADD SWAP2 POP POP PUSH1 0x20 PUSH1 0x40 MLOAD DUP1 DUP4 SUB DUP2 DUP7 DUP1 EXTCODESIZE ISZERO DUP1 ISZERO PUSH2 0x1F9A JUMPI PUSH1 0x0 DUP1 REVERT JUMPDEST POP GAS STATICCALL ISZERO DUP1 ISZERO PUSH2 0x1FAE JUMPI RETURNDATASIZE PUSH1 0x0 DUP1 RETURNDATACOPY RETURNDATASIZE PUSH1 0x0 REVERT JUMPDEST POP POP POP POP PUSH1 0x40 MLOAD RETURNDATASIZE PUSH1 0x20 DUP2 LT ISZERO PUSH2 0x1FC4 JUMPI PUSH1 0x0 DUP1 REVERT JUMPDEST DUP2 ADD SWAP1 DUP1 DUP1 MLOAD SWAP1 PUSH1 0x20 ADD SWAP1 SWAP3 SWAP2 SWAP1 POP POP POP PUSH1 0x40 MLOAD DUP4 PUSH4 0xFFFFFFFF AND PUSH1 0xE0 SHL DUP2 MSTORE PUSH1 0x4 ADD DUP1 DUP4 PUSH20 0xFFFFFFFFFFFFFFFFFFFFFFFFFFFFFFFFFFFFFFFF AND PUSH20 0xFFFFFFFFFFFFFFFFFFFFFFFFFFFFFFFFFFFFFFFF AND DUP2 MSTORE PUSH1 0x20 ADD DUP3 DUP2 MSTORE PUSH1 0x20 ADD SWAP3 POP POP POP PUSH1 0x20 PUSH1 0x40 MLOAD DUP1 DUP4 SUB DUP2 PUSH1 0x0 DUP8 DUP1 EXTCODESIZE ISZERO DUP1 ISZERO PUSH2 0x203E JUMPI PUSH1 0x0 DUP1 REVERT JUMPDEST POP GAS CALL ISZERO DUP1 ISZERO PUSH2 0x2052 JUMPI RETURNDATASIZE PUSH1 0x0 DUP1 RETURNDATACOPY RETURNDATASIZE PUSH1 0x0 REVERT JUMPDEST POP POP POP POP PUSH1 0x40 MLOAD RETURNDATASIZE PUSH1 0x20 DUP2 LT ISZERO PUSH2 0x2068 JUMPI PUSH1 0x0 DUP1 REVERT JUMPDEST DUP2 ADD SWAP1 DUP1 DUP1 MLOAD SWAP1 PUSH1 0x20 ADD SWAP1 SWAP3 SWAP2 SWAP1 POP POP POP POP JUMPDEST POP JUMP JUMPDEST CALLER PUSH20 0xFFFFFFFFFFFFFFFFFFFFFFFFFFFFFFFFFFFFFFFF AND PUSH2 0x209D PUSH2 0x1279 JUMP JUMPDEST PUSH20 0xFFFFFFFFFFFFFFFFFFFFFFFFFFFFFFFFFFFFFFFF AND EQ DUP1 PUSH2 0x2108 JUMPI POP PUSH1 0x18 PUSH1 0x0 CALLER PUSH20 0xFFFFFFFFFFFFFFFFFFFFFFFFFFFFFFFFFFFFFFFF AND PUSH20 0xFFFFFFFFFFFFFFFFFFFFFFFFFFFFFFFFFFFFFFFF AND DUP2 MSTORE PUSH1 0x20 ADD SWAP1 DUP2 MSTORE PUSH1 0x20 ADD PUSH1 0x0 KECCAK256 PUSH1 0x0 SWAP1 SLOAD SWAP1 PUSH2 0x100 EXP SWAP1 DIV PUSH1 0xFF AND JUMPDEST PUSH2 0x217A JUMPI PUSH1 0x40 MLOAD PUSH32 0x8C379A000000000000000000000000000000000000000000000000000000000 DUP2 MSTORE PUSH1 0x4 ADD DUP1 DUP1 PUSH1 0x20 ADD DUP3 DUP2 SUB DUP3 MSTORE PUSH1 0x18 DUP2 MSTORE PUSH1 0x20 ADD DUP1 PUSH32 0x63616C6C6572206973206E6F7420617574686F72697A65640000000000000000 DUP2 MSTORE POP PUSH1 0x20 ADD SWAP2 POP POP PUSH1 0x40 MLOAD DUP1 SWAP2 SUB SWAP1 REVERT JUMPDEST PUSH1 0x14 SLOAD DUP2 SELFBALANCE SUB LT ISZERO PUSH2 0x21F4 JUMPI PUSH1 0x40 MLOAD PUSH32 0x8C379A000000000000000000000000000000000000000000000000000000000 DUP2 MSTORE PUSH1 0x4 ADD DUP1 DUP1 PUSH1 0x20 ADD DUP3 DUP2 SUB DUP3 MSTORE PUSH1 0x1C DUP2 MSTORE PUSH1 0x20 ADD DUP1 PUSH32 0x43616E277420776974686472617720756E706C61796564206265747300000000 DUP2 MSTORE POP PUSH1 0x20 ADD SWAP2 POP POP PUSH1 0x40 MLOAD DUP1 SWAP2 SUB SWAP1 REVERT JUMPDEST PUSH1 0x16 PUSH1 0x0 SWAP1 SLOAD SWAP1 PUSH2 0x100 EXP SWAP1 DIV PUSH20 0xFFFFFFFFFFFFFFFFFFFFFFFFFFFFFFFFFFFFFFFF AND PUSH20 0xFFFFFFFFFFFFFFFFFFFFFFFFFFFFFFFFFFFFFFFF AND PUSH2 0x8FC DUP3 SWAP1 DUP2 ISZERO MUL SWAP1 PUSH1 0x40 MLOAD PUSH1 0x0 PUSH1 0x40 MLOAD DUP1 DUP4 SUB DUP2 DUP6 DUP9 DUP9 CALL SWAP4 POP POP POP POP ISZERO DUP1 ISZERO PUSH2 0x225C JUMPI RETURNDATASIZE PUSH1 0x0 DUP1 RETURNDATACOPY RETURNDATASIZE PUSH1 0x0 REVERT JUMPDEST POP POP JUMP JUMPDEST PUSH2 0x2269 CALLVALUE PUSH2 0xAC5 JUMP JUMPDEST PUSH2 0x22BE JUMPI PUSH1 0x40 MLOAD PUSH32 0x8C379A000000000000000000000000000000000000000000000000000000000 DUP2 MSTORE PUSH1 0x4 ADD DUP1 DUP1 PUSH1 0x20 ADD DUP3 DUP2 SUB DUP3 MSTORE PUSH1 0x36 DUP2 MSTORE PUSH1 0x20 ADD DUP1 PUSH2 0x349D PUSH1 0x36 SWAP2 CODECOPY PUSH1 0x40 ADD SWAP2 POP POP PUSH1 0x40 MLOAD DUP1 SWAP2 SUB SWAP1 REVERT JUMPDEST PUSH1 0x11 SLOAD DUP2 GT ISZERO DUP1 ISZERO PUSH2 0x22D0 JUMPI POP PUSH1 0x0 DUP2 GT JUMPDEST PUSH2 0x2342 JUMPI PUSH1 0x40 MLOAD PUSH32 0x8C379A000000000000000000000000000000000000000000000000000000000 DUP2 MSTORE PUSH1 0x4 ADD DUP1 DUP1 PUSH1 0x20 ADD DUP3 DUP2 SUB DUP3 MSTORE PUSH1 0x1A DUP2 MSTORE PUSH1 0x20 ADD DUP1 PUSH32 0x4F757473696465206F66207069636B61626C6520626F756E6473000000000000 DUP2 MSTORE POP PUSH1 0x20 ADD SWAP2 POP POP PUSH1 0x40 MLOAD DUP1 SWAP2 SUB SWAP1 REVERT JUMPDEST PUSH2 0x234B CALLVALUE PUSH2 0x2E24 JUMP JUMPDEST PUSH2 0x23BD JUMPI PUSH1 0x40 MLOAD PUSH32 0x8C379A000000000000000000000000000000000000000000000000000000000 DUP2 MSTORE PUSH1 0x4 ADD DUP1 DUP1 PUSH1 0x20 ADD DUP3 DUP2 SUB DUP3 MSTORE PUSH1 0x15 DUP2 MSTORE PUSH1 0x20 ADD DUP1 PUSH32 0x4F757469736465206F66206265742072616E67652E0000000000000000000000 DUP2 MSTORE POP PUSH1 0x20 ADD SWAP2 POP POP PUSH1 0x40 MLOAD DUP1 SWAP2 SUB SWAP1 REVERT JUMPDEST PUSH1 0x1 PUSH1 0x6 SLOAD EQ ISZERO PUSH2 0x240B JUMPI PUSH1 0x6 PUSH1 0x0 SWAP1 SSTORE PUSH1 0x7 PUSH1 0x0 SWAP1 SSTORE PUSH1 0x8 PUSH1 0x0 SWAP1 SSTORE PUSH1 0x9 PUSH1 0x0 SWAP1 SSTORE PUSH1 0xA PUSH1 0x0 SWAP1 SSTORE PUSH1 0xB PUSH1 0x0 SWAP1 SSTORE PUSH1 0xC PUSH1 0x0 SWAP1 SSTORE PUSH1 0xD PUSH1 0x0 SWAP1 SSTORE PUSH1 0xE PUSH1 0x0 SWAP1 SSTORE PUSH1 0xF PUSH1 0x0 SWAP1 SSTORE PUSH1 0x10 PUSH1 0x0 SWAP1 SSTORE JUMPDEST PUSH2 0x2420 CALLVALUE PUSH1 0x14 SLOAD PUSH2 0x2812 SWAP1 SWAP2 SWAP1 PUSH4 0xFFFFFFFF AND JUMP JUMPDEST PUSH1 0x14 DUP2 SWAP1 SSTORE POP PUSH2 0x2431 DUP3 CALLVALUE DUP4 PUSH2 0x2C38 JUMP JUMPDEST PUSH2 0x243C PUSH1 0x15 SLOAD PUSH2 0x2D57 JUMP JUMPDEST PUSH1 0x15 SLOAD PUSH1 0x1C PUSH1 0x0 DUP5 PUSH20 0xFFFFFFFFFFFFFFFFFFFFFFFFFFFFFFFFFFFFFFFF AND PUSH20 0xFFFFFFFFFFFFFFFFFFFFFFFFFFFFFFFFFFFFFFFF AND DUP2 MSTORE PUSH1 0x20 ADD SWAP1 DUP2 MSTORE PUSH1 0x20 ADD PUSH1 0x0 KECCAK256 DUP2 SWAP1 SSTORE POP POP POP JUMP JUMPDEST PUSH1 0x19 PUSH1 0x20 MSTORE DUP1 PUSH1 0x0 MSTORE PUSH1 0x40 PUSH1 0x0 KECCAK256 PUSH1 0x0 SWAP2 POP SLOAD SWAP1 PUSH2 0x100 EXP SWAP1 DIV PUSH1 0xFF AND DUP2 JUMP JUMPDEST PUSH2 0x24AE PUSH2 0x2923 JUMP JUMPDEST PUSH20 0xFFFFFFFFFFFFFFFFFFFFFFFFFFFFFFFFFFFFFFFF AND PUSH1 0x3 PUSH1 0x0 SWAP1 SLOAD SWAP1 PUSH2 0x100 EXP SWAP1 DIV PUSH20 0xFFFFFFFFFFFFFFFFFFFFFFFFFFFFFFFFFFFFFFFF AND PUSH20 0xFFFFFFFFFFFFFFFFFFFFFFFFFFFFFFFFFFFFFFFF AND EQ PUSH2 0x2570 JUMPI PUSH1 0x40 MLOAD PUSH32 0x8C379A000000000000000000000000000000000000000000000000000000000 DUP2 MSTORE PUSH1 0x4 ADD DUP1 DUP1 PUSH1 0x20 ADD DUP3 DUP2 SUB DUP3 MSTORE PUSH1 0x20 DUP2 MSTORE PUSH1 0x20 ADD DUP1 PUSH32 0x4F776E61626C653A2063616C6C6572206973206E6F7420746865206F776E6572 DUP2 MSTORE POP PUSH1 0x20 ADD SWAP2 POP POP PUSH1 0x40 MLOAD DUP1 SWAP2 SUB SWAP1 REVERT JUMPDEST PUSH1 0x0 PUSH20 0xFFFFFFFFFFFFFFFFFFFFFFFFFFFFFFFFFFFFFFFF AND DUP2 PUSH20 0xFFFFFFFFFFFFFFFFFFFFFFFFFFFFFFFFFFFFFFFF AND EQ ISZERO PUSH2 0x25F6 JUMPI PUSH1 0x40 MLOAD PUSH32 0x8C379A000000000000000000000000000000000000000000000000000000000 DUP2 MSTORE PUSH1 0x4 ADD DUP1 DUP1 PUSH1 0x20 ADD DUP3 DUP2 SUB DUP3 MSTORE PUSH1 0x26 DUP2 MSTORE PUSH1 0x20 ADD DUP1 PUSH2 0x3477 PUSH1 0x26 SWAP2 CODECOPY PUSH1 0x40 ADD SWAP2 POP POP PUSH1 0x40 MLOAD DUP1 SWAP2 SUB SWAP1 REVERT JUMPDEST DUP1 PUSH20 0xFFFFFFFFFFFFFFFFFFFFFFFFFFFFFFFFFFFFFFFF AND PUSH1 0x3 PUSH1 0x0 SWAP1 SLOAD SWAP1 PUSH2 0x100 EXP SWAP1 DIV PUSH20 0xFFFFFFFFFFFFFFFFFFFFFFFFFFFFFFFFFFFFFFFF AND PUSH20 0xFFFFFFFFFFFFFFFFFFFFFFFFFFFFFFFFFFFFFFFF AND PUSH32 0x8BE0079C531659141344CD1FD0A4F28419497F9722A3DAAFE3B4186F6B6457E0 PUSH1 0x40 MLOAD PUSH1 0x40 MLOAD DUP1 SWAP2 SUB SWAP1 LOG3 DUP1 PUSH1 0x3 PUSH1 0x0 PUSH2 0x100 EXP DUP2 SLOAD DUP2 PUSH20 0xFFFFFFFFFFFFFFFFFFFFFFFFFFFFFFFFFFFFFFFF MUL NOT AND SWAP1 DUP4 PUSH20 0xFFFFFFFFFFFFFFFFFFFFFFFFFFFFFFFFFFFFFFFF AND MUL OR SWAP1 SSTORE POP POP JUMP JUMPDEST PUSH2 0x26BE PUSH2 0x2923 JUMP JUMPDEST PUSH20 0xFFFFFFFFFFFFFFFFFFFFFFFFFFFFFFFFFFFFFFFF AND PUSH1 0x3 PUSH1 0x0 SWAP1 SLOAD SWAP1 PUSH2 0x100 EXP SWAP1 DIV PUSH20 0xFFFFFFFFFFFFFFFFFFFFFFFFFFFFFFFFFFFFFFFF AND PUSH20 0xFFFFFFFFFFFFFFFFFFFFFFFFFFFFFFFFFFFFFFFF AND EQ PUSH2 0x2780 JUMPI PUSH1 0x40 MLOAD PUSH32 0x8C379A000000000000000000000000000000000000000000000000000000000 DUP2 MSTORE PUSH1 0x4 ADD DUP1 DUP1 PUSH1 0x20 ADD DUP3 DUP2 SUB DUP3 MSTORE PUSH1 0x20 DUP2 MSTORE PUSH1 0x20 ADD DUP1 PUSH32 0x4F776E61626C653A2063616C6C6572206973206E6F7420746865206F776E6572 DUP2 MSTORE POP PUSH1 0x20 ADD SWAP2 POP POP PUSH1 0x40 MLOAD DUP1 SWAP2 SUB SWAP1 REVERT JUMPDEST PUSH2 0x2789 DUP2 PUSH2 0x2D57 JUMP JUMPDEST POP JUMP JUMPDEST PUSH1 0x0 DUP1 DUP4 EQ ISZERO PUSH2 0x279F JUMPI PUSH1 0x0 SWAP1 POP PUSH2 0x280C JUMP JUMPDEST PUSH1 0x0 DUP3 DUP5 MUL SWAP1 POP DUP3 DUP5 DUP3 DUP2 PUSH2 0x27B0 JUMPI INVALID JUMPDEST DIV EQ PUSH2 0x2807 JUMPI PUSH1 0x40 MLOAD PUSH32 0x8C379A000000000000000000000000000000000000000000000000000000000 DUP2 MSTORE PUSH1 0x4 ADD DUP1 DUP1 PUSH1 0x20 ADD DUP3 DUP2 SUB DUP3 MSTORE PUSH1 0x21 DUP2 MSTORE PUSH1 0x20 ADD DUP1 PUSH2 0x34D3 PUSH1 0x21 SWAP2 CODECOPY PUSH1 0x40 ADD SWAP2 POP POP PUSH1 0x40 MLOAD DUP1 SWAP2 SUB SWAP1 REVERT JUMPDEST DUP1 SWAP2 POP POP JUMPDEST SWAP3 SWAP2 POP POP JUMP JUMPDEST PUSH1 0x0 DUP1 DUP3 DUP5 ADD SWAP1 POP DUP4 DUP2 LT ISZERO PUSH2 0x2890 JUMPI PUSH1 0x40 MLOAD PUSH32 0x8C379A000000000000000000000000000000000000000000000000000000000 DUP2 MSTORE PUSH1 0x4 ADD DUP1 DUP1 PUSH1 0x20 ADD DUP3 DUP2 SUB DUP3 MSTORE PUSH1 0x1B DUP2 MSTORE PUSH1 0x20 ADD DUP1 PUSH32 0x536166654D6174683A206164646974696F6E206F766572666C6F770000000000 DUP2 MSTORE POP PUSH1 0x20 ADD SWAP2 POP POP PUSH1 0x40 MLOAD DUP1 SWAP2 SUB SWAP1 REVERT JUMPDEST DUP1 SWAP2 POP POP SWAP3 SWAP2 POP POP JUMP JUMPDEST PUSH1 0x0 DUP3 DUP3 GT ISZERO PUSH2 0x2912 JUMPI PUSH1 0x40 MLOAD PUSH32 0x8C379A000000000000000000000000000000000000000000000000000000000 DUP2 MSTORE PUSH1 0x4 ADD DUP1 DUP1 PUSH1 0x20 ADD DUP3 DUP2 SUB DUP3 MSTORE PUSH1 0x1E DUP2 MSTORE PUSH1 0x20 ADD DUP1 PUSH32 0x536166654D6174683A207375627472616374696F6E206F766572666C6F770000 DUP2 MSTORE POP PUSH1 0x20 ADD SWAP2 POP POP PUSH1 0x40 MLOAD DUP1 SWAP2 SUB SWAP1 REVERT JUMPDEST PUSH1 0x0 DUP3 DUP5 SUB SWAP1 POP DUP1 SWAP2 POP POP SWAP3 SWAP2 POP POP JUMP JUMPDEST PUSH1 0x0 CALLER SWAP1 POP SWAP1 JUMP JUMPDEST PUSH1 0x0 PUSH1 0x1A PUSH1 0x0 PUSH1 0x1B PUSH1 0x0 DUP7 DUP2 MSTORE PUSH1 0x20 ADD SWAP1 DUP2 MSTORE PUSH1 0x20 ADD PUSH1 0x0 KECCAK256 SLOAD DUP2 MSTORE PUSH1 0x20 ADD SWAP1 DUP2 MSTORE PUSH1 0x20 ADD PUSH1 0x0 KECCAK256 SWAP1 POP PUSH1 0x0 DUP2 PUSH1 0x0 ADD SLOAD GT ISZERO PUSH2 0x2BDB JUMPI PUSH1 0x12 SLOAD DUP2 PUSH1 0x2 ADD SLOAD GT ISZERO PUSH2 0x297C JUMPI PUSH1 0x12 SLOAD DUP2 PUSH1 0x2 ADD DUP2 SWAP1 SSTORE POP JUMPDEST PUSH1 0x0 PUSH2 0x29AD DUP3 PUSH1 0x2 ADD SLOAD PUSH2 0x299F PUSH1 0x17 SLOAD DUP6 PUSH1 0x2 ADD SLOAD PUSH2 0x278C SWAP1 SWAP2 SWAP1 PUSH4 0xFFFFFFFF AND JUMP JUMPDEST PUSH2 0x2812 SWAP1 SWAP2 SWAP1 PUSH4 0xFFFFFFFF AND JUMP JUMPDEST SWAP1 POP DUP1 SELFBALANCE LT ISZERO PUSH2 0x2A25 JUMPI PUSH1 0x40 MLOAD PUSH32 0x8C379A000000000000000000000000000000000000000000000000000000000 DUP2 MSTORE PUSH1 0x4 ADD DUP1 DUP1 PUSH1 0x20 ADD DUP3 DUP2 SUB DUP3 MSTORE PUSH1 0x20 DUP2 MSTORE PUSH1 0x20 ADD DUP1 PUSH32 0x436F6E74726163742062616C616E636520746F6F206C6F7720746F20706C6179 DUP2 MSTORE POP PUSH1 0x20 ADD SWAP2 POP POP PUSH1 0x40 MLOAD DUP1 SWAP2 SUB SWAP1 REVERT JUMPDEST PUSH2 0x2A4D PUSH1 0x1 PUSH2 0x2A3F PUSH1 0x11 SLOAD DUP7 PUSH2 0x2E52 SWAP1 SWAP2 SWAP1 PUSH4 0xFFFFFFFF AND JUMP JUMPDEST PUSH2 0x2812 SWAP1 SWAP2 SWAP1 PUSH4 0xFFFFFFFF AND JUMP JUMPDEST DUP3 PUSH1 0x4 ADD DUP2 SWAP1 SSTORE POP PUSH1 0x1 DUP3 PUSH1 0x5 ADD PUSH1 0x0 PUSH2 0x100 EXP DUP2 SLOAD DUP2 PUSH1 0xFF MUL NOT AND SWAP1 DUP4 ISZERO ISZERO MUL OR SWAP1 SSTORE POP DUP2 PUSH1 0x2 ADD SLOAD PUSH1 0x14 SLOAD LT PUSH2 0x2A98 JUMPI DUP2 PUSH1 0x2 ADD SLOAD PUSH1 0x14 PUSH1 0x0 DUP3 DUP3 SLOAD SUB SWAP3 POP POP DUP2 SWAP1 SSTORE POP PUSH2 0x2AA1 JUMP JUMPDEST PUSH1 0x0 PUSH1 0x14 DUP2 SWAP1 SSTORE POP JUMPDEST DUP2 PUSH1 0x4 ADD SLOAD DUP3 PUSH1 0x3 ADD SLOAD EQ ISZERO PUSH2 0x2B21 JUMPI DUP2 PUSH1 0x1 ADD PUSH1 0x0 SWAP1 SLOAD SWAP1 PUSH2 0x100 EXP SWAP1 DIV PUSH20 0xFFFFFFFFFFFFFFFFFFFFFFFFFFFFFFFFFFFFFFFF AND PUSH20 0xFFFFFFFFFFFFFFFFFFFFFFFFFFFFFFFFFFFFFFFF AND PUSH2 0x8FC DUP3 SWAP1 DUP2 ISZERO MUL SWAP1 PUSH1 0x40 MLOAD PUSH1 0x0 PUSH1 0x40 MLOAD DUP1 DUP4 SUB DUP2 DUP6 DUP9 DUP9 CALL SWAP4 POP POP POP POP ISZERO DUP1 ISZERO PUSH2 0x2B1B JUMPI RETURNDATASIZE PUSH1 0x0 DUP1 RETURNDATACOPY RETURNDATASIZE PUSH1 0x0 REVERT JUMPDEST POP PUSH2 0x2B26 JUMP JUMPDEST PUSH1 0x0 SWAP1 POP JUMPDEST PUSH32 0xC06600D6399308F270BC6AE70D5377121B685C974BB7F7355824FDDD8A2B3497 DUP3 PUSH1 0x1 ADD PUSH1 0x0 SWAP1 SLOAD SWAP1 PUSH2 0x100 EXP SWAP1 DIV PUSH20 0xFFFFFFFFFFFFFFFFFFFFFFFFFFFFFFFFFFFFFFFF AND DUP4 PUSH1 0x2 ADD SLOAD DUP5 PUSH1 0x3 ADD SLOAD DUP6 PUSH1 0x4 ADD SLOAD DUP6 PUSH1 0x40 MLOAD DUP1 DUP7 PUSH20 0xFFFFFFFFFFFFFFFFFFFFFFFFFFFFFFFFFFFFFFFF AND PUSH20 0xFFFFFFFFFFFFFFFFFFFFFFFFFFFFFFFFFFFFFFFF AND DUP2 MSTORE PUSH1 0x20 ADD DUP6 DUP2 MSTORE PUSH1 0x20 ADD DUP5 DUP2 MSTORE PUSH1 0x20 ADD DUP4 DUP2 MSTORE PUSH1 0x20 ADD DUP3 DUP2 MSTORE PUSH1 0x20 ADD SWAP6 POP POP POP POP POP POP PUSH1 0x40 MLOAD DUP1 SWAP2 SUB SWAP1 LOG1 POP JUMPDEST PUSH1 0x1 PUSH1 0x6 DUP2 SWAP1 SSTORE POP PUSH1 0x1 PUSH1 0x7 DUP2 SWAP1 SSTORE POP PUSH1 0x1 PUSH1 0x8 DUP2 SWAP1 SSTORE POP PUSH1 0x1 PUSH1 0x9 DUP2 SWAP1 SSTORE POP PUSH1 0x1 PUSH1 0xA DUP2 SWAP1 SSTORE POP PUSH1 0x1 PUSH1 0xB DUP2 SWAP1 SSTORE POP PUSH1 0x1 PUSH1 0xC DUP2 SWAP1 SSTORE POP PUSH1 0x1 PUSH1 0xD DUP2 SWAP1 SSTORE POP PUSH1 0x1 PUSH1 0xE DUP2 SWAP1 SSTORE POP PUSH1 0x1 PUSH1 0xF DUP2 SWAP1 SSTORE POP PUSH1 0x1 PUSH1 0x10 DUP2 SWAP1 SSTORE POP POP POP POP JUMP JUMPDEST PUSH2 0x2C4E PUSH1 0x1 PUSH1 0x15 SLOAD PUSH2 0x2812 SWAP1 SWAP2 SWAP1 PUSH4 0xFFFFFFFF AND JUMP JUMPDEST PUSH1 0x15 DUP2 SWAP1 SSTORE POP PUSH2 0x2C5C PUSH2 0x3428 JUMP JUMPDEST PUSH1 0x40 MLOAD DUP1 PUSH1 0xC0 ADD PUSH1 0x40 MSTORE DUP1 PUSH1 0x15 SLOAD DUP2 MSTORE PUSH1 0x20 ADD DUP6 PUSH20 0xFFFFFFFFFFFFFFFFFFFFFFFFFFFFFFFFFFFFFFFF AND DUP2 MSTORE PUSH1 0x20 ADD DUP5 DUP2 MSTORE PUSH1 0x20 ADD DUP4 DUP2 MSTORE PUSH1 0x20 ADD PUSH1 0x0 DUP2 MSTORE PUSH1 0x20 ADD PUSH1 0x0 ISZERO ISZERO DUP2 MSTORE POP SWAP1 POP DUP1 PUSH1 0x1A PUSH1 0x0 DUP4 PUSH1 0x0 ADD MLOAD DUP2 MSTORE PUSH1 0x20 ADD SWAP1 DUP2 MSTORE PUSH1 0x20 ADD PUSH1 0x0 KECCAK256 PUSH1 0x0 DUP3 ADD MLOAD DUP2 PUSH1 0x0 ADD SSTORE PUSH1 0x20 DUP3 ADD MLOAD DUP2 PUSH1 0x1 ADD PUSH1 0x0 PUSH2 0x100 EXP DUP2 SLOAD DUP2 PUSH20 0xFFFFFFFFFFFFFFFFFFFFFFFFFFFFFFFFFFFFFFFF MUL NOT AND SWAP1 DUP4 PUSH20 0xFFFFFFFFFFFFFFFFFFFFFFFFFFFFFFFFFFFFFFFF AND MUL OR SWAP1 SSTORE POP PUSH1 0x40 DUP3 ADD MLOAD DUP2 PUSH1 0x2 ADD SSTORE PUSH1 0x60 DUP3 ADD MLOAD DUP2 PUSH1 0x3 ADD SSTORE PUSH1 0x80 DUP3 ADD MLOAD DUP2 PUSH1 0x4 ADD SSTORE PUSH1 0xA0 DUP3 ADD MLOAD DUP2 PUSH1 0x5 ADD PUSH1 0x0 PUSH2 0x100 EXP DUP2 SLOAD DUP2 PUSH1 0xFF MUL NOT AND SWAP1 DUP4 ISZERO ISZERO MUL OR SWAP1 SSTORE POP SWAP1 POP POP POP POP POP POP JUMP JUMPDEST PUSH1 0x0 ISZERO ISZERO PUSH1 0x1A PUSH1 0x0 DUP4 DUP2 MSTORE PUSH1 0x20 ADD SWAP1 DUP2 MSTORE PUSH1 0x20 ADD PUSH1 0x0 KECCAK256 PUSH1 0x5 ADD PUSH1 0x0 SWAP1 SLOAD SWAP1 PUSH2 0x100 EXP SWAP1 DIV PUSH1 0xFF AND ISZERO ISZERO EQ PUSH2 0x2DF4 JUMPI PUSH1 0x40 MLOAD PUSH32 0x8C379A000000000000000000000000000000000000000000000000000000000 DUP2 MSTORE PUSH1 0x4 ADD DUP1 DUP1 PUSH1 0x20 ADD DUP3 DUP2 SUB DUP3 MSTORE PUSH1 0x13 DUP2 MSTORE PUSH1 0x20 ADD DUP1 PUSH32 0x67616D6520616C726561647920706C6179656400000000000000000000000000 DUP2 MSTORE POP PUSH1 0x20 ADD SWAP2 POP POP PUSH1 0x40 MLOAD DUP1 SWAP2 SUB SWAP1 REVERT JUMPDEST PUSH1 0x0 PUSH2 0x2E06 PUSH2 0x2E01 PUSH2 0x2EDC JUMP JUMPDEST PUSH2 0x2FFD JUMP JUMPDEST SWAP1 POP DUP2 PUSH1 0x1B PUSH1 0x0 DUP4 DUP2 MSTORE PUSH1 0x20 ADD SWAP1 DUP2 MSTORE PUSH1 0x20 ADD PUSH1 0x0 KECCAK256 DUP2 SWAP1 SSTORE POP POP POP JUMP JUMPDEST PUSH1 0x0 PUSH1 0x13 SLOAD DUP3 LT ISZERO DUP1 ISZERO PUSH2 0x2E3A JUMPI POP PUSH1 0x12 SLOAD DUP3 GT ISZERO JUMPDEST ISZERO PUSH2 0x2E48 JUMPI PUSH1 0x1 SWAP1 POP PUSH2 0x2E4D JUMP JUMPDEST PUSH1 0x0 SWAP1 POP JUMPDEST SWAP2 SWAP1 POP JUMP JUMPDEST PUSH1 0x0 DUP1 DUP3 EQ ISZERO PUSH2 0x2ECA JUMPI PUSH1 0x40 MLOAD PUSH32 0x8C379A000000000000000000000000000000000000000000000000000000000 DUP2 MSTORE PUSH1 0x4 ADD DUP1 DUP1 PUSH1 0x20 ADD DUP3 DUP2 SUB DUP3 MSTORE PUSH1 0x18 DUP2 MSTORE PUSH1 0x20 ADD DUP1 PUSH32 0x536166654D6174683A206D6F64756C6F206279207A65726F0000000000000000 DUP2 MSTORE POP PUSH1 0x20 ADD SWAP2 POP POP PUSH1 0x40 MLOAD DUP1 SWAP2 SUB SWAP1 REVERT JUMPDEST DUP2 DUP4 DUP2 PUSH2 0x2ED3 JUMPI INVALID JUMPDEST MOD SWAP1 POP SWAP3 SWAP2 POP POP JUMP JUMPDEST PUSH1 0x0 PUSH2 0x2EE6 PUSH2 0x3428 JUMP JUMPDEST PUSH1 0x1A PUSH1 0x0 PUSH1 0x15 SLOAD DUP2 MSTORE PUSH1 0x20 ADD SWAP1 DUP2 MSTORE PUSH1 0x20 ADD PUSH1 0x0 KECCAK256 PUSH1 0x40 MLOAD DUP1 PUSH1 0xC0 ADD PUSH1 0x40 MSTORE SWAP1 DUP2 PUSH1 0x0 DUP3 ADD SLOAD DUP2 MSTORE PUSH1 0x20 ADD PUSH1 0x1 DUP3 ADD PUSH1 0x0 SWAP1 SLOAD SWAP1 PUSH2 0x100 EXP SWAP1 DIV PUSH20 0xFFFFFFFFFFFFFFFFFFFFFFFFFFFFFFFFFFFFFFFF AND PUSH20 0xFFFFFFFFFFFFFFFFFFFFFFFFFFFFFFFFFFFFFFFF AND PUSH20 0xFFFFFFFFFFFFFFFFFFFFFFFFFFFFFFFFFFFFFFFF AND DUP2 MSTORE PUSH1 0x20 ADD PUSH1 0x2 DUP3 ADD SLOAD DUP2 MSTORE PUSH1 0x20 ADD PUSH1 0x3 DUP3 ADD SLOAD DUP2 MSTORE PUSH1 0x20 ADD PUSH1 0x4 DUP3 ADD SLOAD DUP2 MSTORE PUSH1 0x20 ADD PUSH1 0x5 DUP3 ADD PUSH1 0x0 SWAP1 SLOAD SWAP1 PUSH2 0x100 EXP SWAP1 DIV PUSH1 0xFF AND ISZERO ISZERO ISZERO ISZERO DUP2 MSTORE POP POP SWAP1 POP NUMBER TIMESTAMP DUP3 PUSH1 0x60 ADD MLOAD DUP4 PUSH1 0x40 ADD MLOAD DUP5 PUSH1 0x0 ADD MLOAD PUSH1 0x40 MLOAD PUSH1 0x20 ADD DUP1 DUP7 DUP2 MSTORE PUSH1 0x20 ADD DUP6 DUP2 MSTORE PUSH1 0x20 ADD DUP5 DUP2 MSTORE PUSH1 0x20 ADD DUP4 DUP2 MSTORE PUSH1 0x20 ADD DUP3 DUP2 MSTORE PUSH1 0x20 ADD SWAP6 POP POP POP POP POP POP PUSH1 0x40 MLOAD PUSH1 0x20 DUP2 DUP4 SUB SUB DUP2 MSTORE SWAP1 PUSH1 0x40 MSTORE DUP1 MLOAD SWAP1 PUSH1 0x20 ADD KECCAK256 PUSH1 0x0 SHR SWAP2 POP POP SWAP1 JUMP JUMPDEST PUSH1 0x0 PUSH1 0x5 SLOAD PUSH1 0x0 DUP1 SWAP1 SLOAD SWAP1 PUSH2 0x100 EXP SWAP1 DIV PUSH20 0xFFFFFFFFFFFFFFFFFFFFFFFFFFFFFFFFFFFFFFFF AND PUSH20 0xFFFFFFFFFFFFFFFFFFFFFFFFFFFFFFFFFFFFFFFF AND PUSH4 0x70A08231 ADDRESS PUSH1 0x40 MLOAD DUP3 PUSH4 0xFFFFFFFF AND PUSH1 0xE0 SHL DUP2 MSTORE PUSH1 0x4 ADD DUP1 DUP3 PUSH20 0xFFFFFFFFFFFFFFFFFFFFFFFFFFFFFFFFFFFFFFFF AND PUSH20 0xFFFFFFFFFFFFFFFFFFFFFFFFFFFFFFFFFFFFFFFF AND DUP2 MSTORE PUSH1 0x20 ADD SWAP2 POP POP PUSH1 0x20 PUSH1 0x40 MLOAD DUP1 DUP4 SUB DUP2 DUP7 DUP1 EXTCODESIZE ISZERO DUP1 ISZERO PUSH2 0x30A0 JUMPI PUSH1 0x0 DUP1 REVERT JUMPDEST POP GAS STATICCALL ISZERO DUP1 ISZERO PUSH2 0x30B4 JUMPI RETURNDATASIZE PUSH1 0x0 DUP1 RETURNDATACOPY RETURNDATASIZE PUSH1 0x0 REVERT JUMPDEST POP POP POP POP PUSH1 0x40 MLOAD RETURNDATASIZE PUSH1 0x20 DUP2 LT ISZERO PUSH2 0x30CA JUMPI PUSH1 0x0 DUP1 REVERT JUMPDEST DUP2 ADD SWAP1 DUP1 DUP1 MLOAD SWAP1 PUSH1 0x20 ADD SWAP1 SWAP3 SWAP2 SWAP1 POP POP POP GT PUSH2 0x314E JUMPI PUSH1 0x40 MLOAD PUSH32 0x8C379A000000000000000000000000000000000000000000000000000000000 DUP2 MSTORE PUSH1 0x4 ADD DUP1 DUP1 PUSH1 0x20 ADD DUP3 DUP2 SUB DUP3 MSTORE PUSH1 0xF DUP2 MSTORE PUSH1 0x20 ADD DUP1 PUSH32 0x4E6F7420656E6F756768204C494E4B0000000000000000000000000000000000 DUP2 MSTORE POP PUSH1 0x20 ADD SWAP2 POP POP PUSH1 0x40 MLOAD DUP1 SWAP2 SUB SWAP1 REVERT JUMPDEST PUSH2 0x315D PUSH1 0x4 SLOAD PUSH1 0x5 SLOAD DUP5 PUSH2 0x3164 JUMP JUMPDEST SWAP1 POP SWAP2 SWAP1 POP JUMP JUMPDEST PUSH1 0x0 DUP1 PUSH1 0x0 SWAP1 SLOAD SWAP1 PUSH2 0x100 EXP SWAP1 DIV PUSH20 0xFFFFFFFFFFFFFFFFFFFFFFFFFFFFFFFFFFFFFFFF AND PUSH20 0xFFFFFFFFFFFFFFFFFFFFFFFFFFFFFFFFFFFFFFFF AND PUSH4 0x4000AEA0 PUSH1 0x1 PUSH1 0x0 SWAP1 SLOAD SWAP1 PUSH2 0x100 EXP SWAP1 DIV PUSH20 0xFFFFFFFFFFFFFFFFFFFFFFFFFFFFFFFFFFFFFFFF AND DUP6 DUP8 DUP7 PUSH1 0x40 MLOAD PUSH1 0x20 ADD DUP1 DUP4 DUP2 MSTORE PUSH1 0x20 ADD DUP3 DUP2 MSTORE PUSH1 0x20 ADD SWAP3 POP POP POP PUSH1 0x40 MLOAD PUSH1 0x20 DUP2 DUP4 SUB SUB DUP2 MSTORE SWAP1 PUSH1 0x40 MSTORE PUSH1 0x40 MLOAD DUP5 PUSH4 0xFFFFFFFF AND PUSH1 0xE0 SHL DUP2 MSTORE PUSH1 0x4 ADD DUP1 DUP5 PUSH20 0xFFFFFFFFFFFFFFFFFFFFFFFFFFFFFFFFFFFFFFFF AND PUSH20 0xFFFFFFFFFFFFFFFFFFFFFFFFFFFFFFFFFFFFFFFF AND DUP2 MSTORE PUSH1 0x20 ADD DUP4 DUP2 MSTORE PUSH1 0x20 ADD DUP1 PUSH1 0x20 ADD DUP3 DUP2 SUB DUP3 MSTORE DUP4 DUP2 DUP2 MLOAD DUP2 MSTORE PUSH1 0x20 ADD SWAP2 POP DUP1 MLOAD SWAP1 PUSH1 0x20 ADD SWAP1 DUP1 DUP4 DUP4 PUSH1 0x0 JUMPDEST DUP4 DUP2 LT ISZERO PUSH2 0x3276 JUMPI DUP1 DUP3 ADD MLOAD DUP2 DUP5 ADD MSTORE PUSH1 0x20 DUP2 ADD SWAP1 POP PUSH2 0x325B JUMP JUMPDEST POP POP POP POP SWAP1 POP SWAP1 DUP2 ADD SWAP1 PUSH1 0x1F AND DUP1 ISZERO PUSH2 0x32A3 JUMPI DUP1 DUP3 SUB DUP1 MLOAD PUSH1 0x1 DUP4 PUSH1 0x20 SUB PUSH2 0x100 EXP SUB NOT AND DUP2 MSTORE PUSH1 0x20 ADD SWAP2 POP JUMPDEST POP SWAP5 POP POP POP POP POP PUSH1 0x20 PUSH1 0x40 MLOAD DUP1 DUP4 SUB DUP2 PUSH1 0x0 DUP8 DUP1 EXTCODESIZE ISZERO DUP1 ISZERO PUSH2 0x32C4 JUMPI PUSH1 0x0 DUP1 REVERT JUMPDEST POP GAS CALL ISZERO DUP1 ISZERO PUSH2 0x32D8 JUMPI RETURNDATASIZE PUSH1 0x0 DUP1 RETURNDATACOPY RETURNDATASIZE PUSH1 0x0 REVERT JUMPDEST POP POP POP POP PUSH1 0x40 MLOAD RETURNDATASIZE PUSH1 0x20 DUP2 LT ISZERO PUSH2 0x32EE JUMPI PUSH1 0x0 DUP1 REVERT JUMPDEST DUP2 ADD SWAP1 DUP1 DUP1 MLOAD SWAP1 PUSH1 0x20 ADD SWAP1 SWAP3 SWAP2 SWAP1 POP POP POP POP PUSH1 0x0 PUSH2 0x3321 DUP6 DUP5 ADDRESS PUSH1 0x2 PUSH1 0x0 DUP11 DUP2 MSTORE PUSH1 0x20 ADD SWAP1 DUP2 MSTORE PUSH1 0x20 ADD PUSH1 0x0 KECCAK256 SLOAD PUSH2 0x3375 JUMP JUMPDEST SWAP1 POP PUSH2 0x334A PUSH1 0x1 PUSH1 0x2 PUSH1 0x0 DUP9 DUP2 MSTORE PUSH1 0x20 ADD SWAP1 DUP2 MSTORE PUSH1 0x20 ADD PUSH1 0x0 KECCAK256 SLOAD PUSH2 0x2812 SWAP1 SWAP2 SWAP1 PUSH4 0xFFFFFFFF AND JUMP JUMPDEST PUSH1 0x2 PUSH1 0x0 DUP8 DUP2 MSTORE PUSH1 0x20 ADD SWAP1 DUP2 MSTORE PUSH1 0x20 ADD PUSH1 0x0 KECCAK256 DUP2 SWAP1 SSTORE POP PUSH2 0x336B DUP6 DUP3 PUSH2 0x33EF JUMP JUMPDEST SWAP2 POP POP SWAP4 SWAP3 POP POP POP JUMP JUMPDEST PUSH1 0x0 DUP5 DUP5 DUP5 DUP5 PUSH1 0x40 MLOAD PUSH1 0x20 ADD DUP1 DUP6 DUP2 MSTORE PUSH1 0x20 ADD DUP5 DUP2 MSTORE PUSH1 0x20 ADD DUP4 PUSH20 0xFFFFFFFFFFFFFFFFFFFFFFFFFFFFFFFFFFFFFFFF AND PUSH20 0xFFFFFFFFFFFFFFFFFFFFFFFFFFFFFFFFFFFFFFFF AND DUP2 MSTORE PUSH1 0x20 ADD DUP3 DUP2 MSTORE PUSH1 0x20 ADD SWAP5 POP POP POP POP POP PUSH1 0x40 MLOAD PUSH1 0x20 DUP2 DUP4 SUB SUB DUP2 MSTORE SWAP1 PUSH1 0x40 MSTORE DUP1 MLOAD SWAP1 PUSH1 0x20 ADD KECCAK256 PUSH1 0x0 SHR SWAP1 POP SWAP5 SWAP4 POP POP POP POP JUMP JUMPDEST PUSH1 0x0 DUP3 DUP3 PUSH1 0x40 MLOAD PUSH1 0x20 ADD DUP1 DUP4 DUP2 MSTORE PUSH1 0x20 ADD DUP3 DUP2 MSTORE PUSH1 0x20 ADD SWAP3 POP POP POP PUSH1 0x40 MLOAD PUSH1 0x20 DUP2 DUP4 SUB SUB DUP2 MSTORE SWAP1 PUSH1 0x40 MSTORE DUP1 MLOAD SWAP1 PUSH1 0x20 ADD KECCAK256 SWAP1 POP SWAP3 SWAP2 POP POP JUMP JUMPDEST PUSH1 0x40 MLOAD DUP1 PUSH1 0xC0 ADD PUSH1 0x40 MSTORE DUP1 PUSH1 0x0 DUP2 MSTORE PUSH1 0x20 ADD PUSH1 0x0 PUSH20 0xFFFFFFFFFFFFFFFFFFFFFFFFFFFFFFFFFFFFFFFF AND DUP2 MSTORE PUSH1 0x20 ADD PUSH1 0x0 DUP2 MSTORE PUSH1 0x20 ADD PUSH1 0x0 DUP2 MSTORE PUSH1 0x20 ADD PUSH1 0x0 DUP2 MSTORE PUSH1 0x20 ADD PUSH1 0x0 ISZERO ISZERO DUP2 MSTORE POP SWAP1 JUMP INVALID 0x4F PUSH24 0x6E61626C653A206E6577206F776E65722069732074686520 PUSH27 0x65726F2061646472657373436F6E74726163742068617320696E73 PUSH22 0x66666963696E742066756E647320746F207061796F75 PUSH21 0x20706F737369626C652077696E2E536166654D6174 PUSH9 0x3A206D756C7469706C PUSH10 0x636174696F6E206F7665 PUSH19 0x666C6F77436F6E74726163742062616C616E63 PUSH6 0x20746F6F206C PUSH16 0x772E20506C6561736520747279206167 PUSH2 0x696E KECCAK256 PUSH13 0x617465722E47616D6520616C72 PUSH6 0x61647920636F PUSH14 0x706C6574652E204E6F2072656675 PUSH15 0x6420706F737369626C652EA2646970 PUSH7 0x735822122052FC PUSH12 0x30BA9CCA632E19F68F9D2953 OR 0xB3 COINBASE 0xD0 SGT SMOD PUSH29 0x5964258B8A398BB5CF0764736F6C634300060000330000000000000000 "},"gasEstimates":{"creation":{"codeDepositCost":"2740000","executionCost":"infinite","totalCost":"infinite"},"external":{"allowGasFreeBet(address[],bool)":"infinite","authorizedAddress(address)":"1296","betPayable(uint256)":"infinite","closeMachine()":"infinite","games(uint256)":"5502","gasFreeBetAllowed(address)":"1272","getLinkBalance()":"infinite","getSummary()":"3627","lastGameCreated(address)":"1236","maxBet()":"1096","maxPick()":"1051","minBet()":"1073","nonces(bytes32)":"1208","owner()":"1150","payout()":"1117","payoutAddress()":"1143","placeBetFor(address,uint256)":"infinite","rawFulfillRandomness(bytes32,uint256)":"infinite","renounceOwnership()":"24342","replayGame(uint256)":"infinite","requestRefund(uint256)":"infinite","safeBetFor(address,uint256)":"infinite","setAuthorizedUser(address,bool)":"22220","setKeyHash(bytes32)":"21237","setLINK(address)":"22073","setPayoutAddress(address)":"22074","setVRFCoordinator(address)":"22052","transferOwnership(address)":"infinite","withdrawEth(uint256)":"infinite","withdrawLink(uint256)":"infinite"},"internal":{"betInRange(uint256)":"1702","createGame(address payable,uint256,uint256)":"infinite","fulfillRandomness(bytes32,uint256)":"infinite","getRandomNumber(uint256)":"infinite","getSeed()":"infinite","playGame(uint256)":"infinite"}},"methodIdentifiers":{"allowGasFreeBet(address[],bool)":"95f9b576","authorizedAddress(address)":"3638104a","betPayable(uint256)":"0c610a12","closeMachine()":"b93030b3","games(uint256)":"117a5b90","gasFreeBetAllowed(address)":"dfad4c11","getLinkBalance()":"50c5f975","getSummary()":"4051ddac","lastGameCreated(address)":"b843f5ab","maxBet()":"2e5b2168","maxPick()":"2ee42d8a","minBet()":"9619367d","nonces(bytes32)":"9e317f12","owner()":"8da5cb5b","payout()":"63bd1d4a","payoutAddress()":"5b8d02d7","placeBetFor(address,uint256)":"ac150fd8","rawFulfillRandomness(bytes32,uint256)":"94985ddd","renounceOwnership()":"715018a6","replayGame(uint256)":"f31a4dcd","requestRefund(uint256)":"a4b2409e","safeBetFor(address,uint256)":"d9e721f8","setAuthorizedUser(address,bool)":"a249225e","setKeyHash(bytes32)":"98544710","setLINK(address)":"a02e0616","setPayoutAddress(address)":"33ea51a8","setVRFCoordinator(address)":"44ff81ce","transferOwnership(address)":"f2fde38b","withdrawEth(uint256)":"c311d049","withdrawLink(uint256)":"7a8042bd"}},"storageLayout":{"storage":[{"astId":460,"contract":"AllContracts.sol:LuckyMachine","label":"LINK","offset":0,"slot":"0","type":"t_contract(LinkTokenInterface)392"},{"astId":462,"contract":"AllContracts.sol:LuckyMachine","label":"vrfCoordinator","offset":0,"slot":"1","type":"t_address"},{"astId":466,"contract":"AllContracts.sol:LuckyMachine","label":"nonces","offset":0,"slot":"2","type":"t_mapping(t_bytes32,t_uint256)"},{"astId":26,"contract":"AllContracts.sol:LuckyMachine","label":"_owner","offset":0,"slot":"3","type":"t_address"},{"astId":515,"contract":"AllContracts.sol:LuckyMachine","label":"keyHash","offset":0,"slot":"4","type":"t_bytes32"},{"astId":517,"contract":"AllContracts.sol:LuckyMachine","label":"fee","offset":0,"slot":"5","type":"t_uint256"},{"astId":532,"contract":"AllContracts.sol:LuckyMachine","label":"gas1","offset":0,"slot":"6","type":"t_uint256"},{"astId":534,"contract":"AllContracts.sol:LuckyMachine","label":"gas2","offset":0,"slot":"7","type":"t_uint256"},{"astId":536,"contract":"AllContracts.sol:LuckyMachine","label":"gas3","offset":0,"slot":"8","type":"t_uint256"},{"astId":538,"contract":"AllContracts.sol:LuckyMachine","label":"gas4","offset":0,"slot":"9","type":"t_uint256"},{"astId":540,"contract":"AllContracts.sol:LuckyMachine","label":"gas5","offset":0,"slot":"10","type":"t_uint256"},{"astId":542,"contract":"AllContracts.sol:LuckyMachine","label":"gas6","offset":0,"slot":"11","type":"t_uint256"},{"astId":544,"contract":"AllContracts.sol:LuckyMachine","label":"gas7","offset":0,"slot":"12","type":"t_uint256"},{"astId":546,"contract":"AllContracts.sol:LuckyMachine","label":"gas8","offset":0,"slot":"13","type":"t_uint256"},{"astId":548,"contract":"AllContracts.sol:LuckyMachine","label":"gas9","offset":0,"slot":"14","type":"t_uint256"},{"astId":550,"contract":"AllContracts.sol:LuckyMachine","label":"gas10","offset":0,"slot":"15","type":"t_uint256"},{"astId":552,"contract":"AllContracts.sol:LuckyMachine","label":"gas11","offset":0,"slot":"16","type":"t_uint256"},{"astId":554,"contract":"AllContracts.sol:LuckyMachine","label":"maxPick","offset":0,"slot":"17","type":"t_uint256"},{"astId":556,"contract":"AllContracts.sol:LuckyMachine","label":"maxBet","offset":0,"slot":"18","type":"t_uint256"},{"astId":558,"contract":"AllContracts.sol:LuckyMachine","label":"minBet","offset":0,"slot":"19","type":"t_uint256"},{"astId":560,"contract":"AllContracts.sol:LuckyMachine","label":"_unplayedBets","offset":0,"slot":"20","type":"t_uint256"},{"astId":562,"contract":"AllContracts.sol:LuckyMachine","label":"_currentGame","offset":0,"slot":"21","type":"t_uint256"},{"astId":564,"contract":"AllContracts.sol:LuckyMachine","label":"payoutAddress","offset":0,"slot":"22","type":"t_address_payable"},{"astId":566,"contract":"AllContracts.sol:LuckyMachine","label":"payout","offset":0,"slot":"23","type":"t_uint256"},{"astId":570,"contract":"AllContracts.sol:LuckyMachine","label":"authorizedAddress","offset":0,"slot":"24","type":"t_mapping(t_address,t_bool)"},{"astId":574,"contract":"AllContracts.sol:LuckyMachine","label":"gasFreeBetAllowed","offset":0,"slot":"25","type":"t_mapping(t_address,t_bool)"},{"astId":578,"contract":"AllContracts.sol:LuckyMachine","label":"games","offset":0,"slot":"26","type":"t_mapping(t_uint256,t_struct(Game)530_storage)"},{"astId":582,"contract":"AllContracts.sol:LuckyMachine","label":"_gameRequests","offset":0,"slot":"27","type":"t_mapping(t_bytes32,t_uint256)"},{"astId":586,"contract":"AllContracts.sol:LuckyMachine","label":"lastGameCreated","offset":0,"slot":"28","type":"t_mapping(t_address,t_uint256)"}],"types":{"t_address":{"encoding":"inplace","label":"address","numberOfBytes":"20"},"t_address_payable":{"encoding":"inplace","label":"address payable","numberOfBytes":"20"},"t_bool":{"encoding":"inplace","label":"bool","numberOfBytes":"1"},"t_bytes32":{"encoding":"inplace","label":"bytes32","numberOfBytes":"32"},"t_contract(LinkTokenInterface)392":{"encoding":"inplace","label":"contract LinkTokenInterface","numberOfBytes":"20"},"t_mapping(t_address,t_bool)":{"encoding":"mapping","key":"t_address","label":"mapping(address => bool)","numberOfBytes":"32","value":"t_bool"},"t_mapping(t_address,t_uint256)":{"encoding":"mapping","key":"t_address","label":"mapping(address => uint256)","numberOfBytes":"32","value":"t_uint256"},"t_mapping(t_bytes32,t_uint256)":{"encoding":"mapping","key":"t_bytes32","label":"mapping(bytes32 => uint256)","numberOfBytes":"32","value":"t_uint256"},"t_mapping(t_uint256,t_struct(Game)530_storage)":{"encoding":"mapping","key":"t_uint256","label":"mapping(uint256 => struct LuckyMachine.Game)","numberOfBytes":"32","value":"t_struct(Game)530_storage"},"t_struct(Game)530_storage":{"encoding":"inplace","label":"struct LuckyMachine.Game","members":[{"astId":519,"contract":"AllContracts.sol:LuckyMachine","label":"id","offset":0,"slot":"0","type":"t_uint256"},{"astId":521,"contract":"AllContracts.sol:LuckyMachine","label":"player","offset":0,"slot":"1","type":"t_address_payable"},{"astId":523,"contract":"AllContracts.sol:LuckyMachine","label":"bet","offset":0,"slot":"2","type":"t_uint256"},{"astId":525,"contract":"AllContracts.sol:LuckyMachine","label":"pick","offset":0,"slot":"3","type":"t_uint256"},{"astId":527,"contract":"AllContracts.sol:LuckyMachine","label":"winner","offset":0,"slot":"4","type":"t_uint256"},{"astId":529,"contract":"AllContracts.sol:LuckyMachine","label":"played","offset":0,"slot":"5","type":"t_bool"}],"numberOfBytes":"192"},"t_uint256":{"encoding":"inplace","label":"uint256","numberOfBytes":"32"}}},"userdoc":{"methods":{"safeBetFor(address,uint256)":{"notice":"s"}}}}