{"abi":[{"inputs":[{"internalType":"uint256","name":"maxBet","type":"uint256"},{"internalType":"uint256","name":"minBet","type":"uint256"},{"internalType":"uint256","name":"maxPick","type":"uint256"},{"internalType":"uint256","name":"payout","type":"uint256"}],"name":"createMachine","outputs":[{"internalType":"address","name":"","type":"address"}],"stateMutability":"nonpayable","type":"function"},{"inputs":[],"name":"getMachines","outputs":[{"internalType":"address[]","name":"","type":"address[]"}],"stateMutability":"view","type":"function"},{"inputs":[{"internalType":"uint256","name":"","type":"uint256"}],"name":"machines","outputs":[{"internalType":"address","name":"","type":"address"}],"stateMutability":"view","type":"function"}],"devdoc":{"methods":{"createMachine(uint256,uint256,uint256,uint256)":{"details":"Used to create a LuckyMachine that can be verified and included in the factory list."},"getMachines()":{"details":"Returns a list of all machines created from this factory. Useful to verify a machine was setup appropriately and is a \"legitimate\" LuckyMachine."}}},"evm":{"assembly":"    /* \"AllContracts.sol\":18724:19578  contract LuckyMachineFactory{... */\n  mstore(0x40, 0x80)\n  callvalue\n    /* \"--CODEGEN--\":8:17   */\n  dup1\n    /* \"--CODEGEN--\":5:7   */\n  iszero\n  tag_1\n  jumpi\n    /* \"--CODEGEN--\":30:31   */\n  0x00\n    /* \"--CODEGEN--\":27:28   */\n  dup1\n    /* \"--CODEGEN--\":20:32   */\n  revert\n    /* \"--CODEGEN--\":5:7   */\ntag_1:\n    /* \"AllContracts.sol\":18724:19578  contract LuckyMachineFactory{... */\n  pop\n  dataSize(sub_0)\n  dup1\n  dataOffset(sub_0)\n  0x00\n  codecopy\n  0x00\n  return\nstop\n\nsub_0: assembly {\n        /* \"AllContracts.sol\":18724:19578  contract LuckyMachineFactory{... */\n      mstore(0x40, 0x80)\n      callvalue\n        /* \"--CODEGEN--\":8:17   */\n      dup1\n        /* \"--CODEGEN--\":5:7   */\n      iszero\n      tag_1\n      jumpi\n        /* \"--CODEGEN--\":30:31   */\n      0x00\n        /* \"--CODEGEN--\":27:28   */\n      dup1\n        /* \"--CODEGEN--\":20:32   */\n      revert\n        /* \"--CODEGEN--\":5:7   */\n    tag_1:\n        /* \"AllContracts.sol\":18724:19578  contract LuckyMachineFactory{... */\n      pop\n      jumpi(tag_2, lt(calldatasize, 0x04))\n      shr(0xe0, calldataload(0x00))\n      dup1\n      0x06373b9a\n      eq\n      tag_3\n      jumpi\n      dup1\n      0x4d42845c\n      eq\n      tag_4\n      jumpi\n      dup1\n      0x52b07b34\n      eq\n      tag_5\n      jumpi\n    tag_2:\n      0x00\n      dup1\n      revert\n        /* \"AllContracts.sol\":18910:19296  function createMachine(uint maxBet, uint minBet, uint maxPick, uint payout) public returns(address){... */\n    tag_3:\n      tag_6\n      0x04\n      dup1\n      calldatasize\n      sub\n        /* \"--CODEGEN--\":13:16   */\n      0x80\n        /* \"--CODEGEN--\":8:11   */\n      dup2\n        /* \"--CODEGEN--\":5:17   */\n      lt\n        /* \"--CODEGEN--\":2:4   */\n      iszero\n      tag_7\n      jumpi\n        /* \"--CODEGEN--\":30:31   */\n      0x00\n        /* \"--CODEGEN--\":27:28   */\n      dup1\n        /* \"--CODEGEN--\":20:32   */\n      revert\n        /* \"--CODEGEN--\":2:4   */\n    tag_7:\n        /* \"AllContracts.sol\":18910:19296  function createMachine(uint maxBet, uint minBet, uint maxPick, uint payout) public returns(address){... */\n      dup2\n      add\n      swap1\n      dup1\n      dup1\n      calldataload\n      swap1\n      0x20\n      add\n      swap1\n      swap3\n      swap2\n      swap1\n      dup1\n      calldataload\n      swap1\n      0x20\n      add\n      swap1\n      swap3\n      swap2\n      swap1\n      dup1\n      calldataload\n      swap1\n      0x20\n      add\n      swap1\n      swap3\n      swap2\n      swap1\n      dup1\n      calldataload\n      swap1\n      0x20\n      add\n      swap1\n      swap3\n      swap2\n      swap1\n      pop\n      pop\n      pop\n      tag_8\n      jump\t// in\n    tag_6:\n      mload(0x40)\n      dup1\n      dup3\n      0xffffffffffffffffffffffffffffffffffffffff\n      and\n      0xffffffffffffffffffffffffffffffffffffffff\n      and\n      dup2\n      mstore\n      0x20\n      add\n      swap2\n      pop\n      pop\n      mload(0x40)\n      dup1\n      swap2\n      sub\n      swap1\n      return\n        /* \"AllContracts.sol\":18758:18783  address[] public machines */\n    tag_4:\n      tag_9\n      0x04\n      dup1\n      calldatasize\n      sub\n        /* \"--CODEGEN--\":13:15   */\n      0x20\n        /* \"--CODEGEN--\":8:11   */\n      dup2\n        /* \"--CODEGEN--\":5:16   */\n      lt\n        /* \"--CODEGEN--\":2:4   */\n      iszero\n      tag_10\n      jumpi\n        /* \"--CODEGEN--\":29:30   */\n      0x00\n        /* \"--CODEGEN--\":26:27   */\n      dup1\n        /* \"--CODEGEN--\":19:31   */\n      revert\n        /* \"--CODEGEN--\":2:4   */\n    tag_10:\n        /* \"AllContracts.sol\":18758:18783  address[] public machines */\n      dup2\n      add\n      swap1\n      dup1\n      dup1\n      calldataload\n      swap1\n      0x20\n      add\n      swap1\n      swap3\n      swap2\n      swap1\n      pop\n      pop\n      pop\n      tag_11\n      jump\t// in\n    tag_9:\n      mload(0x40)\n      dup1\n      dup3\n      0xffffffffffffffffffffffffffffffffffffffff\n      and\n      0xffffffffffffffffffffffffffffffffffffffff\n      and\n      dup2\n      mstore\n      0x20\n      add\n      swap2\n      pop\n      pop\n      mload(0x40)\n      dup1\n      swap2\n      sub\n      swap1\n      return\n        /* \"AllContracts.sol\":19482:19576  function getMachines() public view returns (address[] memory) {... */\n    tag_5:\n      tag_12\n      tag_13\n      jump\t// in\n    tag_12:\n      mload(0x40)\n      dup1\n      dup1\n      0x20\n      add\n      dup3\n      dup2\n      sub\n      dup3\n      mstore\n      dup4\n      dup2\n      dup2\n      mload\n      dup2\n      mstore\n      0x20\n      add\n      swap2\n      pop\n      dup1\n      mload\n      swap1\n      0x20\n      add\n      swap1\n      0x20\n      mul\n      dup1\n      dup4\n      dup4\n        /* \"--CODEGEN--\":23:24   */\n      0x00\n        /* \"--CODEGEN--\":8:108   */\n    tag_14:\n        /* \"--CODEGEN--\":33:36   */\n      dup4\n        /* \"--CODEGEN--\":30:31   */\n      dup2\n        /* \"--CODEGEN--\":27:37   */\n      lt\n        /* \"--CODEGEN--\":8:108   */\n      iszero\n      tag_16\n      jumpi\n        /* \"--CODEGEN--\":99:100   */\n      dup1\n        /* \"--CODEGEN--\":94:97   */\n      dup3\n        /* \"--CODEGEN--\":90:101   */\n      add\n        /* \"--CODEGEN--\":84:102   */\n      mload\n        /* \"--CODEGEN--\":80:81   */\n      dup2\n        /* \"--CODEGEN--\":75:78   */\n      dup5\n        /* \"--CODEGEN--\":71:82   */\n      add\n        /* \"--CODEGEN--\":64:103   */\n      mstore\n        /* \"--CODEGEN--\":52:54   */\n      0x20\n        /* \"--CODEGEN--\":49:50   */\n      dup2\n        /* \"--CODEGEN--\":45:55   */\n      add\n        /* \"--CODEGEN--\":40:55   */\n      swap1\n      pop\n        /* \"--CODEGEN--\":8:108   */\n      jump(tag_14)\n    tag_16:\n        /* \"--CODEGEN--\":12:26   */\n      pop\n        /* \"AllContracts.sol\":19482:19576  function getMachines() public view returns (address[] memory) {... */\n      pop\n      pop\n      pop\n      swap1\n      pop\n      add\n      swap3\n      pop\n      pop\n      pop\n      mload(0x40)\n      dup1\n      swap2\n      sub\n      swap1\n      return\n        /* \"AllContracts.sol\":18910:19296  function createMachine(uint maxBet, uint minBet, uint maxPick, uint payout) public returns(address){... */\n    tag_8:\n        /* \"AllContracts.sol\":19001:19008  address */\n      0x00\n        /* \"AllContracts.sol\":19019:19042  LuckyMachine newMachine */\n      dup1\n        /* \"AllContracts.sol\":19062:19072  msg.sender */\n      caller\n        /* \"AllContracts.sol\":19074:19080  maxBet */\n      dup7\n        /* \"AllContracts.sol\":19082:19088  minBet */\n      dup7\n        /* \"AllContracts.sol\":19090:19097  maxPick */\n      dup7\n        /* \"AllContracts.sol\":19099:19105  payout */\n      dup7\n        /* \"AllContracts.sol\":19045:19106  new LuckyMachine(msg.sender, maxBet, minBet, maxPick, payout) */\n      mload(0x40)\n      tag_18\n      swap1\n      tag_19\n      jump\t// in\n    tag_18:\n      dup1\n      dup7\n      0xffffffffffffffffffffffffffffffffffffffff\n      and\n      0xffffffffffffffffffffffffffffffffffffffff\n      and\n      dup2\n      mstore\n      0x20\n      add\n      dup6\n      dup2\n      mstore\n      0x20\n      add\n      dup5\n      dup2\n      mstore\n      0x20\n      add\n      dup4\n      dup2\n      mstore\n      0x20\n      add\n      dup3\n      dup2\n      mstore\n      0x20\n      add\n      swap6\n      pop\n      pop\n      pop\n      pop\n      pop\n      pop\n      mload(0x40)\n      dup1\n      swap2\n      sub\n      swap1\n      0x00\n      create\n      dup1\n      iszero\n        /* \"--CODEGEN--\":8:17   */\n      dup1\n        /* \"--CODEGEN--\":5:7   */\n      iszero\n      tag_20\n      jumpi\n        /* \"--CODEGEN--\":45:61   */\n      returndatasize\n        /* \"--CODEGEN--\":42:43   */\n      0x00\n        /* \"--CODEGEN--\":39:40   */\n      dup1\n        /* \"--CODEGEN--\":24:62   */\n      returndatacopy\n        /* \"--CODEGEN--\":77:93   */\n      returndatasize\n        /* \"--CODEGEN--\":74:75   */\n      0x00\n        /* \"--CODEGEN--\":67:94   */\n      revert\n        /* \"--CODEGEN--\":5:7   */\n    tag_20:\n        /* \"AllContracts.sol\":19045:19106  new LuckyMachine(msg.sender, maxBet, minBet, maxPick, payout) */\n      pop\n        /* \"AllContracts.sol\":19019:19106  LuckyMachine newMachine = new LuckyMachine(msg.sender, maxBet, minBet, maxPick, payout) */\n      swap1\n      pop\n        /* \"AllContracts.sol\":19116:19126  newMachine */\n      dup1\n        /* \"AllContracts.sol\":19116:19144  newMachine.transferOwnership */\n      0xffffffffffffffffffffffffffffffffffffffff\n      and\n      0xf2fde38b\n        /* \"AllContracts.sol\":19145:19155  msg.sender */\n      caller\n        /* \"AllContracts.sol\":19116:19156  newMachine.transferOwnership(msg.sender) */\n      mload(0x40)\n      dup3\n      0xffffffff\n      and\n      0xe0\n      shl\n      dup2\n      mstore\n      0x04\n      add\n      dup1\n      dup3\n      0xffffffffffffffffffffffffffffffffffffffff\n      and\n      0xffffffffffffffffffffffffffffffffffffffff\n      and\n      dup2\n      mstore\n      0x20\n      add\n      swap2\n      pop\n      pop\n      0x00\n      mload(0x40)\n      dup1\n      dup4\n      sub\n      dup2\n      0x00\n      dup8\n      dup1\n      extcodesize\n      iszero\n        /* \"--CODEGEN--\":8:17   */\n      dup1\n        /* \"--CODEGEN--\":5:7   */\n      iszero\n      tag_21\n      jumpi\n        /* \"--CODEGEN--\":30:31   */\n      0x00\n        /* \"--CODEGEN--\":27:28   */\n      dup1\n        /* \"--CODEGEN--\":20:32   */\n      revert\n        /* \"--CODEGEN--\":5:7   */\n    tag_21:\n        /* \"AllContracts.sol\":19116:19156  newMachine.transferOwnership(msg.sender) */\n      pop\n      gas\n      call\n      iszero\n        /* \"--CODEGEN--\":8:17   */\n      dup1\n        /* \"--CODEGEN--\":5:7   */\n      iszero\n      tag_23\n      jumpi\n        /* \"--CODEGEN--\":45:61   */\n      returndatasize\n        /* \"--CODEGEN--\":42:43   */\n      0x00\n        /* \"--CODEGEN--\":39:40   */\n      dup1\n        /* \"--CODEGEN--\":24:62   */\n      returndatacopy\n        /* \"--CODEGEN--\":77:93   */\n      returndatasize\n        /* \"--CODEGEN--\":74:75   */\n      0x00\n        /* \"--CODEGEN--\":67:94   */\n      revert\n        /* \"--CODEGEN--\":5:7   */\n    tag_23:\n        /* \"AllContracts.sol\":19116:19156  newMachine.transferOwnership(msg.sender) */\n      pop\n      pop\n      pop\n      pop\n        /* \"AllContracts.sol\":19166:19191  address newMachineAddress */\n      0x00\n        /* \"AllContracts.sol\":19202:19212  newMachine */\n      dup2\n        /* \"AllContracts.sol\":19166:19213  address newMachineAddress = address(newMachine) */\n      swap1\n      pop\n        /* \"AllContracts.sol\":19223:19231  machines */\n      0x00\n        /* \"AllContracts.sol\":19237:19254  newMachineAddress */\n      dup2\n        /* \"AllContracts.sol\":19223:19255  machines.push(newMachineAddress) */\n      swap1\n      dup1\n        /* \"--CODEGEN--\":39:40   */\n      0x01\n        /* \"--CODEGEN--\":33:36   */\n      dup2\n        /* \"--CODEGEN--\":27:37   */\n      sload\n        /* \"--CODEGEN--\":23:41   */\n      add\n        /* \"--CODEGEN--\":57:67   */\n      dup1\n        /* \"--CODEGEN--\":52:55   */\n      dup3\n        /* \"--CODEGEN--\":45:68   */\n      sstore\n        /* \"--CODEGEN--\":79:89   */\n      dup1\n        /* \"--CODEGEN--\":72:89   */\n      swap2\n      pop\n        /* \"--CODEGEN--\":0:93   */\n      pop\n        /* \"AllContracts.sol\":19223:19255  machines.push(newMachineAddress) */\n      0x01\n      swap1\n      sub\n      swap1\n      0x00\n      mstore\n      keccak256(0x00, 0x20)\n      add\n      0x00\n      swap1\n      swap2\n      swap1\n      swap2\n      swap1\n      swap2\n      0x0100\n      exp\n      dup2\n      sload\n      dup2\n      0xffffffffffffffffffffffffffffffffffffffff\n      mul\n      not\n      and\n      swap1\n      dup4\n      0xffffffffffffffffffffffffffffffffffffffff\n      and\n      mul\n      or\n      swap1\n      sstore\n      pop\n        /* \"AllContracts.sol\":19272:19289  newMachineAddress */\n      dup1\n        /* \"AllContracts.sol\":19265:19289  return newMachineAddress */\n      swap3\n      pop\n      pop\n      pop\n        /* \"AllContracts.sol\":18910:19296  function createMachine(uint maxBet, uint minBet, uint maxPick, uint payout) public returns(address){... */\n      swap5\n      swap4\n      pop\n      pop\n      pop\n      pop\n      jump\t// out\n        /* \"AllContracts.sol\":18758:18783  address[] public machines */\n    tag_11:\n      0x00\n      dup2\n      dup2\n      sload\n      dup2\n      lt\n      tag_25\n      jumpi\n      invalid\n    tag_25:\n      swap1\n      0x00\n      mstore\n      keccak256(0x00, 0x20)\n      add\n      0x00\n      swap2\n      pop\n      sload\n      swap1\n      0x0100\n      exp\n      swap1\n      div\n      0xffffffffffffffffffffffffffffffffffffffff\n      and\n      dup2\n      jump\t// out\n        /* \"AllContracts.sol\":19482:19576  function getMachines() public view returns (address[] memory) {... */\n    tag_13:\n        /* \"AllContracts.sol\":19526:19542  address[] memory */\n      0x60\n        /* \"AllContracts.sol\":19561:19569  machines */\n      0x00\n        /* \"AllContracts.sol\":19554:19569  return machines */\n      dup1\n      sload\n      dup1\n      0x20\n      mul\n      0x20\n      add\n      mload(0x40)\n      swap1\n      dup2\n      add\n      0x40\n      mstore\n      dup1\n      swap3\n      swap2\n      swap1\n      dup2\n      dup2\n      mstore\n      0x20\n      add\n      dup3\n      dup1\n      sload\n      dup1\n      iszero\n      tag_28\n      jumpi\n      0x20\n      mul\n      dup3\n      add\n      swap2\n      swap1\n      0x00\n      mstore\n      keccak256(0x00, 0x20)\n      swap1\n    tag_29:\n      dup2\n      0x00\n      swap1\n      sload\n      swap1\n      0x0100\n      exp\n      swap1\n      div\n      0xffffffffffffffffffffffffffffffffffffffff\n      and\n      0xffffffffffffffffffffffffffffffffffffffff\n      and\n      dup2\n      mstore\n      0x20\n      add\n      swap1\n      0x01\n      add\n      swap1\n      dup1\n      dup4\n      gt\n      tag_29\n      jumpi\n    tag_28:\n      pop\n      pop\n      pop\n      pop\n      pop\n      swap1\n      pop\n        /* \"AllContracts.sol\":19482:19576  function getMachines() public view returns (address[] memory) {... */\n      swap1\n      jump\t// out\n        /* \"AllContracts.sol\":18724:19578  contract LuckyMachineFactory{... */\n    tag_19:\n      dataSize(sub_0)\n      dup1\n      dataOffset(sub_0)\n      dup4\n      codecopy\n      add\n      swap1\n      jump\t// out\n    stop\n\n    sub_0: assembly {\n            /* \"AllContracts.sol\":5733:18722  contract LuckyMachine is VRFConsumerBase, Ownable {... */\n          mstore(0x40, 0x80)\n            /* \"AllContracts.sol\":6855:7785  constructor(address payable _payoutAddress, uint _maxBet, uint _minBet, uint _maxPick, uint _payout)... */\n          callvalue\n            /* \"--CODEGEN--\":8:17   */\n          dup1\n            /* \"--CODEGEN--\":5:7   */\n          iszero\n          tag_1\n          jumpi\n            /* \"--CODEGEN--\":30:31   */\n          0x00\n            /* \"--CODEGEN--\":27:28   */\n          dup1\n            /* \"--CODEGEN--\":20:32   */\n          revert\n            /* \"--CODEGEN--\":5:7   */\n        tag_1:\n            /* \"AllContracts.sol\":6855:7785  constructor(address payable _payoutAddress, uint _maxBet, uint _minBet, uint _maxPick, uint _payout)... */\n          pop\n          mload(0x40)\n          sub(codesize, bytecodeSize)\n          dup1\n          bytecodeSize\n          dup4\n          codecopy\n          dup2\n          dup2\n          add\n          0x40\n          mstore\n            /* \"--CODEGEN--\":13:16   */\n          0xa0\n            /* \"--CODEGEN--\":8:11   */\n          dup2\n            /* \"--CODEGEN--\":5:17   */\n          lt\n            /* \"--CODEGEN--\":2:4   */\n          iszero\n          tag_2\n          jumpi\n            /* \"--CODEGEN--\":30:31   */\n          0x00\n            /* \"--CODEGEN--\":27:28   */\n          dup1\n            /* \"--CODEGEN--\":20:32   */\n          revert\n            /* \"--CODEGEN--\":2:4   */\n        tag_2:\n            /* \"AllContracts.sol\":6855:7785  constructor(address payable _payoutAddress, uint _maxBet, uint _minBet, uint _maxPick, uint _payout)... */\n          dup2\n          add\n          swap1\n          dup1\n          dup1\n          mload\n          swap1\n          0x20\n          add\n          swap1\n          swap3\n          swap2\n          swap1\n          dup1\n          mload\n          swap1\n          0x20\n          add\n          swap1\n          swap3\n          swap2\n          swap1\n          dup1\n          mload\n          swap1\n          0x20\n          add\n          swap1\n          swap3\n          swap2\n          swap1\n          dup1\n          mload\n          swap1\n          0x20\n          add\n          swap1\n          swap3\n          swap2\n          swap1\n          dup1\n          mload\n          swap1\n          0x20\n          add\n          swap1\n          swap3\n          swap2\n          swap1\n          pop\n          pop\n          pop\n            /* \"AllContracts.sol\":7019:7061  0xdD3782915140c8f3b190B5D67eAc6dc5760C46E9 */\n          0xdd3782915140c8f3b190b5d67eac6dc5760c46e9\n            /* \"AllContracts.sol\":7094:7136  0xa36085F69e2889c224210F603D836748e7dC0088 */\n          0xa36085f69e2889c224210f603d836748e7dc0088\n            /* \"AllContracts.sol\":5460:5475  _vrfCoordinator */\n          dup2\n            /* \"AllContracts.sol\":5443:5457  vrfCoordinator */\n          0x01\n          0x00\n            /* \"AllContracts.sol\":5443:5475  vrfCoordinator = _vrfCoordinator */\n          0x0100\n          exp\n          dup2\n          sload\n          dup2\n          0xffffffffffffffffffffffffffffffffffffffff\n          mul\n          not\n          and\n          swap1\n          dup4\n          0xffffffffffffffffffffffffffffffffffffffff\n          and\n          mul\n          or\n          swap1\n          sstore\n          pop\n            /* \"AllContracts.sol\":5507:5512  _link */\n          dup1\n            /* \"AllContracts.sol\":5481:5485  LINK */\n          0x00\n          dup1\n            /* \"AllContracts.sol\":5481:5513  LINK = LinkTokenInterface(_link) */\n          0x0100\n          exp\n          dup2\n          sload\n          dup2\n          0xffffffffffffffffffffffffffffffffffffffff\n          mul\n          not\n          and\n          swap1\n          dup4\n          0xffffffffffffffffffffffffffffffffffffffff\n          and\n          mul\n          or\n          swap1\n          sstore\n          pop\n            /* \"AllContracts.sol\":5378:5518  constructor(address _vrfCoordinator, address _link) public {... */\n          pop\n          pop\n            /* \"AllContracts.sol\":726:743  address msgSender */\n          0x00\n            /* \"AllContracts.sol\":746:758  _msgSender() */\n          tag_8\n            /* \"AllContracts.sol\":746:756  _msgSender */\n          shl(0x20, tag_9)\n            /* \"AllContracts.sol\":746:758  _msgSender() */\n          0x20\n          shr\n          jump\t// in\n        tag_8:\n            /* \"AllContracts.sol\":726:758  address msgSender = _msgSender() */\n          swap1\n          pop\n            /* \"AllContracts.sol\":777:786  msgSender */\n          dup1\n            /* \"AllContracts.sol\":768:774  _owner */\n          0x03\n          0x00\n            /* \"AllContracts.sol\":768:786  _owner = msgSender */\n          0x0100\n          exp\n          dup2\n          sload\n          dup2\n          0xffffffffffffffffffffffffffffffffffffffff\n          mul\n          not\n          and\n          swap1\n          dup4\n          0xffffffffffffffffffffffffffffffffffffffff\n          and\n          mul\n          or\n          swap1\n          sstore\n          pop\n            /* \"AllContracts.sol\":834:843  msgSender */\n          dup1\n            /* \"AllContracts.sol\":801:844  OwnershipTransferred(address(0), msgSender) */\n          0xffffffffffffffffffffffffffffffffffffffff\n          and\n            /* \"AllContracts.sol\":830:831  0 */\n          0x00\n            /* \"AllContracts.sol\":801:844  OwnershipTransferred(address(0), msgSender) */\n          0xffffffffffffffffffffffffffffffffffffffff\n          and\n          0x8be0079c531659141344cd1fd0a4f28419497f9722a3daafe3b4186f6b6457e0\n          mload(0x40)\n          mload(0x40)\n          dup1\n          swap2\n          sub\n          swap1\n          log3\n            /* \"AllContracts.sol\":692:851  constructor () internal {... */\n          pop\n            /* \"AllContracts.sol\":7193:7259  0x6c3699283bda56ad74f6b855546325b68d482e983852a7a82979cc4807b641f4 */\n          0x6c3699283bda56ad74f6b855546325b68d482e983852a7a82979cc4807b641f4\n            /* \"AllContracts.sol\":7183:7259  keyHash = 0x6c3699283bda56ad74f6b855546325b68d482e983852a7a82979cc4807b641f4 */\n          0x00\n          shl\n            /* \"AllContracts.sol\":7183:7190  keyHash */\n          0x04\n            /* \"AllContracts.sol\":7183:7259  keyHash = 0x6c3699283bda56ad74f6b855546325b68d482e983852a7a82979cc4807b641f4 */\n          dup2\n          swap1\n          sstore\n          pop\n            /* \"AllContracts.sol\":7279:7293  0.1 * 10 ** 18 */\n          0x016345785d8a0000\n            /* \"AllContracts.sol\":7273:7276  fee */\n          0x05\n            /* \"AllContracts.sol\":7273:7293  fee = 0.1 * 10 ** 18 */\n          dup2\n          swap1\n          sstore\n          pop\n            /* \"AllContracts.sol\":7335:7336  1 */\n          0x01\n            /* \"AllContracts.sol\":7320:7332  _currentGame */\n          0x15\n            /* \"AllContracts.sol\":7320:7336  _currentGame = 1 */\n          dup2\n          swap1\n          sstore\n          pop\n            /* \"AllContracts.sol\":7366:7367  0 */\n          0x00\n            /* \"AllContracts.sol\":7350:7363  _unplayedBets */\n          0x14\n            /* \"AllContracts.sol\":7350:7367  _unplayedBets = 0 */\n          dup2\n          swap1\n          sstore\n          pop\n            /* \"AllContracts.sol\":7397:7411  _payoutAddress */\n          dup5\n            /* \"AllContracts.sol\":7381:7394  payoutAddress */\n          0x16\n          0x00\n            /* \"AllContracts.sol\":7381:7411  payoutAddress = _payoutAddress */\n          0x0100\n          exp\n          dup2\n          sload\n          dup2\n          0xffffffffffffffffffffffffffffffffffffffff\n          mul\n          not\n          and\n          swap1\n          dup4\n          0xffffffffffffffffffffffffffffffffffffffff\n          and\n          mul\n          or\n          swap1\n          sstore\n          pop\n            /* \"AllContracts.sol\":7434:7441  _minBet */\n          dup3\n            /* \"AllContracts.sol\":7425:7431  minBet */\n          0x13\n            /* \"AllContracts.sol\":7425:7441  minBet = _minBet */\n          dup2\n          swap1\n          sstore\n          pop\n            /* \"AllContracts.sol\":7464:7471  _maxBet */\n          dup4\n            /* \"AllContracts.sol\":7455:7461  maxBet */\n          0x12\n            /* \"AllContracts.sol\":7455:7471  maxBet = _maxBet */\n          dup2\n          swap1\n          sstore\n          pop\n            /* \"AllContracts.sol\":7495:7503  _maxPick */\n          dup2\n            /* \"AllContracts.sol\":7485:7492  maxPick */\n          0x11\n            /* \"AllContracts.sol\":7485:7503  maxPick = _maxPick */\n          dup2\n          swap1\n          sstore\n          pop\n            /* \"AllContracts.sol\":7526:7533  _payout */\n          dup1\n            /* \"AllContracts.sol\":7517:7523  payout */\n          0x17\n            /* \"AllContracts.sol\":7517:7533  payout = _payout */\n          dup2\n          swap1\n          sstore\n          pop\n            /* \"AllContracts.sol\":7555:7556  1 */\n          0x01\n            /* \"AllContracts.sol\":7548:7552  gas1 */\n          0x06\n            /* \"AllContracts.sol\":7548:7556  gas1 = 1 */\n          dup2\n          swap1\n          sstore\n          pop\n            /* \"AllContracts.sol\":7577:7578  1 */\n          0x01\n            /* \"AllContracts.sol\":7570:7574  gas2 */\n          0x07\n            /* \"AllContracts.sol\":7570:7578  gas2 = 1 */\n          dup2\n          swap1\n          sstore\n          pop\n            /* \"AllContracts.sol\":7599:7600  1 */\n          0x01\n            /* \"AllContracts.sol\":7592:7596  gas3 */\n          0x08\n            /* \"AllContracts.sol\":7592:7600  gas3 = 1 */\n          dup2\n          swap1\n          sstore\n          pop\n            /* \"AllContracts.sol\":7621:7622  1 */\n          0x01\n            /* \"AllContracts.sol\":7614:7618  gas4 */\n          0x09\n            /* \"AllContracts.sol\":7614:7622  gas4 = 1 */\n          dup2\n          swap1\n          sstore\n          pop\n            /* \"AllContracts.sol\":7643:7644  1 */\n          0x01\n            /* \"AllContracts.sol\":7636:7640  gas5 */\n          0x0a\n            /* \"AllContracts.sol\":7636:7644  gas5 = 1 */\n          dup2\n          swap1\n          sstore\n          pop\n            /* \"AllContracts.sol\":7665:7666  1 */\n          0x01\n            /* \"AllContracts.sol\":7658:7662  gas6 */\n          0x0b\n            /* \"AllContracts.sol\":7658:7666  gas6 = 1 */\n          dup2\n          swap1\n          sstore\n          pop\n            /* \"AllContracts.sol\":7687:7688  1 */\n          0x01\n            /* \"AllContracts.sol\":7680:7684  gas7 */\n          0x0c\n            /* \"AllContracts.sol\":7680:7688  gas7 = 1 */\n          dup2\n          swap1\n          sstore\n          pop\n            /* \"AllContracts.sol\":7709:7710  1 */\n          0x01\n            /* \"AllContracts.sol\":7702:7706  gas8 */\n          0x0d\n            /* \"AllContracts.sol\":7702:7710  gas8 = 1 */\n          dup2\n          swap1\n          sstore\n          pop\n            /* \"AllContracts.sol\":7731:7732  1 */\n          0x01\n            /* \"AllContracts.sol\":7724:7728  gas9 */\n          0x0e\n            /* \"AllContracts.sol\":7724:7732  gas9 = 1 */\n          dup2\n          swap1\n          sstore\n          pop\n            /* \"AllContracts.sol\":7754:7755  1 */\n          0x01\n            /* \"AllContracts.sol\":7746:7751  gas10 */\n          0x0f\n            /* \"AllContracts.sol\":7746:7755  gas10 = 1 */\n          dup2\n          swap1\n          sstore\n          pop\n            /* \"AllContracts.sol\":7777:7778  1 */\n          0x01\n            /* \"AllContracts.sol\":7769:7774  gas11 */\n          0x10\n            /* \"AllContracts.sol\":7769:7778  gas11 = 1 */\n          dup2\n          swap1\n          sstore\n          pop\n            /* \"AllContracts.sol\":6855:7785  constructor(address payable _payoutAddress, uint _maxBet, uint _minBet, uint _maxPick, uint _payout)... */\n          pop\n          pop\n          pop\n          pop\n          pop\n            /* \"AllContracts.sol\":5733:18722  contract LuckyMachine is VRFConsumerBase, Ownable {... */\n          jump(tag_11)\n            /* \"AllContracts.sol\":90:194  function _msgSender() internal view virtual returns (address payable) {... */\n        tag_9:\n            /* \"AllContracts.sol\":143:158  address payable */\n          0x00\n            /* \"AllContracts.sol\":177:187  msg.sender */\n          caller\n            /* \"AllContracts.sol\":170:187  return msg.sender */\n          swap1\n          pop\n            /* \"AllContracts.sol\":90:194  function _msgSender() internal view virtual returns (address payable) {... */\n          swap1\n          jump\t// out\n            /* \"AllContracts.sol\":5733:18722  contract LuckyMachine is VRFConsumerBase, Ownable {... */\n        tag_11:\n          dataSize(sub_0)\n          dup1\n          dataOffset(sub_0)\n          0x00\n          codecopy\n          0x00\n          return\n        stop\n\n        sub_0: assembly {\n                /* \"AllContracts.sol\":5733:18722  contract LuckyMachine is VRFConsumerBase, Ownable {... */\n              mstore(0x40, 0x80)\n              jumpi(tag_1, lt(calldatasize, 0x04))\n              shr(0xe0, calldataload(0x00))\n              dup1\n              0x95f9b576\n              gt\n              tag_31\n              jumpi\n              dup1\n              0xac150fd8\n              gt\n              tag_32\n              jumpi\n              dup1\n              0xd9e721f8\n              gt\n              tag_33\n              jumpi\n              dup1\n              0xd9e721f8\n              eq\n              tag_27\n              jumpi\n              dup1\n              0xdfad4c11\n              eq\n              tag_28\n              jumpi\n              dup1\n              0xf2fde38b\n              eq\n              tag_29\n              jumpi\n              dup1\n              0xf31a4dcd\n              eq\n              tag_30\n              jumpi\n              jump(tag_2)\n            tag_33:\n              dup1\n              0xac150fd8\n              eq\n              tag_24\n              jumpi\n              dup1\n              0xb93030b3\n              eq\n              tag_25\n              jumpi\n              dup1\n              0xc311d049\n              eq\n              tag_26\n              jumpi\n              jump(tag_2)\n            tag_32:\n              dup1\n              0x9e317f12\n              gt\n              tag_34\n              jumpi\n              dup1\n              0x9e317f12\n              eq\n              tag_20\n              jumpi\n              dup1\n              0xa02e0616\n              eq\n              tag_21\n              jumpi\n              dup1\n              0xa249225e\n              eq\n              tag_22\n              jumpi\n              dup1\n              0xa4b2409e\n              eq\n              tag_23\n              jumpi\n              jump(tag_2)\n            tag_34:\n              dup1\n              0x95f9b576\n              eq\n              tag_17\n              jumpi\n              dup1\n              0x9619367d\n              eq\n              tag_18\n              jumpi\n              dup1\n              0x98544710\n              eq\n              tag_19\n              jumpi\n              jump(tag_2)\n            tag_31:\n              dup1\n              0x50c5f975\n              gt\n              tag_35\n              jumpi\n              dup1\n              0x715018a6\n              gt\n              tag_36\n              jumpi\n              dup1\n              0x715018a6\n              eq\n              tag_13\n              jumpi\n              dup1\n              0x7a8042bd\n              eq\n              tag_14\n              jumpi\n              dup1\n              0x8da5cb5b\n              eq\n              tag_15\n              jumpi\n              dup1\n              0x94985ddd\n              eq\n              tag_16\n              jumpi\n              jump(tag_2)\n            tag_36:\n              dup1\n              0x50c5f975\n              eq\n              tag_10\n              jumpi\n              dup1\n              0x5b8d02d7\n              eq\n              tag_11\n              jumpi\n              dup1\n              0x63bd1d4a\n              eq\n              tag_12\n              jumpi\n              jump(tag_2)\n            tag_35:\n              dup1\n              0x33ea51a8\n              gt\n              tag_37\n              jumpi\n              dup1\n              0x33ea51a8\n              eq\n              tag_6\n              jumpi\n              dup1\n              0x3638104a\n              eq\n              tag_7\n              jumpi\n              dup1\n              0x4051ddac\n              eq\n              tag_8\n              jumpi\n              dup1\n              0x44ff81ce\n              eq\n              tag_9\n              jumpi\n              jump(tag_2)\n            tag_37:\n              dup1\n              0x117a5b90\n              eq\n              tag_3\n              jumpi\n              dup1\n              0x2e5b2168\n              eq\n              tag_4\n              jumpi\n              dup1\n              0x2ee42d8a\n              eq\n              tag_5\n              jumpi\n              jump(tag_2)\n            tag_1:\n              jumpi(tag_2, calldatasize)\n              stop\n            tag_2:\n              0x00\n              dup1\n              revert\n                /* \"AllContracts.sol\":6659:6693  mapping(uint => Game) public games */\n            tag_3:\n              callvalue\n                /* \"--CODEGEN--\":8:17   */\n              dup1\n                /* \"--CODEGEN--\":5:7   */\n              iszero\n              tag_40\n              jumpi\n                /* \"--CODEGEN--\":30:31   */\n              0x00\n                /* \"--CODEGEN--\":27:28   */\n              dup1\n                /* \"--CODEGEN--\":20:32   */\n              revert\n                /* \"--CODEGEN--\":5:7   */\n            tag_40:\n                /* \"AllContracts.sol\":6659:6693  mapping(uint => Game) public games */\n              pop\n              tag_41\n              0x04\n              dup1\n              calldatasize\n              sub\n                /* \"--CODEGEN--\":13:15   */\n              0x20\n                /* \"--CODEGEN--\":8:11   */\n              dup2\n                /* \"--CODEGEN--\":5:16   */\n              lt\n                /* \"--CODEGEN--\":2:4   */\n              iszero\n              tag_42\n              jumpi\n                /* \"--CODEGEN--\":29:30   */\n              0x00\n                /* \"--CODEGEN--\":26:27   */\n              dup1\n                /* \"--CODEGEN--\":19:31   */\n              revert\n                /* \"--CODEGEN--\":2:4   */\n            tag_42:\n                /* \"AllContracts.sol\":6659:6693  mapping(uint => Game) public games */\n              dup2\n              add\n              swap1\n              dup1\n              dup1\n              calldataload\n              swap1\n              0x20\n              add\n              swap1\n              swap3\n              swap2\n              swap1\n              pop\n              pop\n              pop\n              tag_43\n              jump\t// in\n            tag_41:\n              mload(0x40)\n              dup1\n              dup8\n              dup2\n              mstore\n              0x20\n              add\n              dup7\n              0xffffffffffffffffffffffffffffffffffffffff\n              and\n              0xffffffffffffffffffffffffffffffffffffffff\n              and\n              dup2\n              mstore\n              0x20\n              add\n              dup6\n              dup2\n              mstore\n              0x20\n              add\n              dup5\n              dup2\n              mstore\n              0x20\n              add\n              dup4\n              dup2\n              mstore\n              0x20\n              add\n              dup3\n              iszero\n              iszero\n              iszero\n              iszero\n              dup2\n              mstore\n              0x20\n              add\n              swap7\n              pop\n              pop\n              pop\n              pop\n              pop\n              pop\n              pop\n              mload(0x40)\n              dup1\n              swap2\n              sub\n              swap1\n              return\n                /* \"AllContracts.sol\":6323:6341  uint public maxBet */\n            tag_4:\n              callvalue\n                /* \"--CODEGEN--\":8:17   */\n              dup1\n                /* \"--CODEGEN--\":5:7   */\n              iszero\n              tag_44\n              jumpi\n                /* \"--CODEGEN--\":30:31   */\n              0x00\n                /* \"--CODEGEN--\":27:28   */\n              dup1\n                /* \"--CODEGEN--\":20:32   */\n              revert\n                /* \"--CODEGEN--\":5:7   */\n            tag_44:\n                /* \"AllContracts.sol\":6323:6341  uint public maxBet */\n              pop\n              tag_45\n              tag_46\n              jump\t// in\n            tag_45:\n              mload(0x40)\n              dup1\n              dup3\n              dup2\n              mstore\n              0x20\n              add\n              swap2\n              pop\n              pop\n              mload(0x40)\n              dup1\n              swap2\n              sub\n              swap1\n              return\n                /* \"AllContracts.sol\":6298:6317  uint public maxPick */\n            tag_5:\n              callvalue\n                /* \"--CODEGEN--\":8:17   */\n              dup1\n                /* \"--CODEGEN--\":5:7   */\n              iszero\n              tag_47\n              jumpi\n                /* \"--CODEGEN--\":30:31   */\n              0x00\n                /* \"--CODEGEN--\":27:28   */\n              dup1\n                /* \"--CODEGEN--\":20:32   */\n              revert\n                /* \"--CODEGEN--\":5:7   */\n            tag_47:\n                /* \"AllContracts.sol\":6298:6317  uint public maxPick */\n              pop\n              tag_48\n              tag_49\n              jump\t// in\n            tag_48:\n              mload(0x40)\n              dup1\n              dup3\n              dup2\n              mstore\n              0x20\n              add\n              swap2\n              pop\n              pop\n              mload(0x40)\n              dup1\n              swap2\n              sub\n              swap1\n              return\n                /* \"AllContracts.sol\":17593:17715  function setPayoutAddress(address payable _payoutAddress) public onlyOwner {... */\n            tag_6:\n              callvalue\n                /* \"--CODEGEN--\":8:17   */\n              dup1\n                /* \"--CODEGEN--\":5:7   */\n              iszero\n              tag_50\n              jumpi\n                /* \"--CODEGEN--\":30:31   */\n              0x00\n                /* \"--CODEGEN--\":27:28   */\n              dup1\n                /* \"--CODEGEN--\":20:32   */\n              revert\n                /* \"--CODEGEN--\":5:7   */\n            tag_50:\n                /* \"AllContracts.sol\":17593:17715  function setPayoutAddress(address payable _payoutAddress) public onlyOwner {... */\n              pop\n              tag_51\n              0x04\n              dup1\n              calldatasize\n              sub\n                /* \"--CODEGEN--\":13:15   */\n              0x20\n                /* \"--CODEGEN--\":8:11   */\n              dup2\n                /* \"--CODEGEN--\":5:16   */\n              lt\n                /* \"--CODEGEN--\":2:4   */\n              iszero\n              tag_52\n              jumpi\n                /* \"--CODEGEN--\":29:30   */\n              0x00\n                /* \"--CODEGEN--\":26:27   */\n              dup1\n                /* \"--CODEGEN--\":19:31   */\n              revert\n                /* \"--CODEGEN--\":2:4   */\n            tag_52:\n                /* \"AllContracts.sol\":17593:17715  function setPayoutAddress(address payable _payoutAddress) public onlyOwner {... */\n              dup2\n              add\n              swap1\n              dup1\n              dup1\n              calldataload\n              0xffffffffffffffffffffffffffffffffffffffff\n              and\n              swap1\n              0x20\n              add\n              swap1\n              swap3\n              swap2\n              swap1\n              pop\n              pop\n              pop\n              tag_53\n              jump\t// in\n            tag_51:\n              stop\n                /* \"AllContracts.sol\":6548:6597  mapping(address => bool) public authorizedAddress */\n            tag_7:\n              callvalue\n                /* \"--CODEGEN--\":8:17   */\n              dup1\n                /* \"--CODEGEN--\":5:7   */\n              iszero\n              tag_54\n              jumpi\n                /* \"--CODEGEN--\":30:31   */\n              0x00\n                /* \"--CODEGEN--\":27:28   */\n              dup1\n                /* \"--CODEGEN--\":20:32   */\n              revert\n                /* \"--CODEGEN--\":5:7   */\n            tag_54:\n                /* \"AllContracts.sol\":6548:6597  mapping(address => bool) public authorizedAddress */\n              pop\n              tag_55\n              0x04\n              dup1\n              calldatasize\n              sub\n                /* \"--CODEGEN--\":13:15   */\n              0x20\n                /* \"--CODEGEN--\":8:11   */\n              dup2\n                /* \"--CODEGEN--\":5:16   */\n              lt\n                /* \"--CODEGEN--\":2:4   */\n              iszero\n              tag_56\n              jumpi\n                /* \"--CODEGEN--\":29:30   */\n              0x00\n                /* \"--CODEGEN--\":26:27   */\n              dup1\n                /* \"--CODEGEN--\":19:31   */\n              revert\n                /* \"--CODEGEN--\":2:4   */\n            tag_56:\n                /* \"AllContracts.sol\":6548:6597  mapping(address => bool) public authorizedAddress */\n              dup2\n              add\n              swap1\n              dup1\n              dup1\n              calldataload\n              0xffffffffffffffffffffffffffffffffffffffff\n              and\n              swap1\n              0x20\n              add\n              swap1\n              swap3\n              swap2\n              swap1\n              pop\n              pop\n              pop\n              tag_57\n              jump\t// in\n            tag_55:\n              mload(0x40)\n              dup1\n              dup3\n              iszero\n              iszero\n              iszero\n              iszero\n              dup2\n              mstore\n              0x20\n              add\n              swap2\n              pop\n              pop\n              mload(0x40)\n              dup1\n              swap2\n              sub\n              swap1\n              return\n                /* \"AllContracts.sol\":14035:14199  function getSummary() public view returns(uint, uint, uint, uint) {... */\n            tag_8:\n              callvalue\n                /* \"--CODEGEN--\":8:17   */\n              dup1\n                /* \"--CODEGEN--\":5:7   */\n              iszero\n              tag_58\n              jumpi\n                /* \"--CODEGEN--\":30:31   */\n              0x00\n                /* \"--CODEGEN--\":27:28   */\n              dup1\n                /* \"--CODEGEN--\":20:32   */\n              revert\n                /* \"--CODEGEN--\":5:7   */\n            tag_58:\n                /* \"AllContracts.sol\":14035:14199  function getSummary() public view returns(uint, uint, uint, uint) {... */\n              pop\n              tag_59\n              tag_60\n              jump\t// in\n            tag_59:\n              mload(0x40)\n              dup1\n              dup6\n              dup2\n              mstore\n              0x20\n              add\n              dup5\n              dup2\n              mstore\n              0x20\n              add\n              dup4\n              dup2\n              mstore\n              0x20\n              add\n              dup3\n              dup2\n              mstore\n              0x20\n              add\n              swap5\n              pop\n              pop\n              pop\n              pop\n              pop\n              mload(0x40)\n              dup1\n              swap2\n              sub\n              swap1\n              return\n                /* \"AllContracts.sol\":16721:16839  function setVRFCoordinator(address _vrfCoordinator) public onlyOwner {... */\n            tag_9:\n              callvalue\n                /* \"--CODEGEN--\":8:17   */\n              dup1\n                /* \"--CODEGEN--\":5:7   */\n              iszero\n              tag_61\n              jumpi\n                /* \"--CODEGEN--\":30:31   */\n              0x00\n                /* \"--CODEGEN--\":27:28   */\n              dup1\n                /* \"--CODEGEN--\":20:32   */\n              revert\n                /* \"--CODEGEN--\":5:7   */\n            tag_61:\n                /* \"AllContracts.sol\":16721:16839  function setVRFCoordinator(address _vrfCoordinator) public onlyOwner {... */\n              pop\n              tag_62\n              0x04\n              dup1\n              calldatasize\n              sub\n                /* \"--CODEGEN--\":13:15   */\n              0x20\n                /* \"--CODEGEN--\":8:11   */\n              dup2\n                /* \"--CODEGEN--\":5:16   */\n              lt\n                /* \"--CODEGEN--\":2:4   */\n              iszero\n              tag_63\n              jumpi\n                /* \"--CODEGEN--\":29:30   */\n              0x00\n                /* \"--CODEGEN--\":26:27   */\n              dup1\n                /* \"--CODEGEN--\":19:31   */\n              revert\n                /* \"--CODEGEN--\":2:4   */\n            tag_63:\n                /* \"AllContracts.sol\":16721:16839  function setVRFCoordinator(address _vrfCoordinator) public onlyOwner {... */\n              dup2\n              add\n              swap1\n              dup1\n              dup1\n              calldataload\n              0xffffffffffffffffffffffffffffffffffffffff\n              and\n              swap1\n              0x20\n              add\n              swap1\n              swap3\n              swap2\n              swap1\n              pop\n              pop\n              pop\n              tag_64\n              jump\t// in\n            tag_62:\n              stop\n                /* \"AllContracts.sol\":7983:8087  function getLinkBalance() public view returns(uint){... */\n            tag_10:\n              callvalue\n                /* \"--CODEGEN--\":8:17   */\n              dup1\n                /* \"--CODEGEN--\":5:7   */\n              iszero\n              tag_65\n              jumpi\n                /* \"--CODEGEN--\":30:31   */\n              0x00\n                /* \"--CODEGEN--\":27:28   */\n              dup1\n                /* \"--CODEGEN--\":20:32   */\n              revert\n                /* \"--CODEGEN--\":5:7   */\n            tag_65:\n                /* \"AllContracts.sol\":7983:8087  function getLinkBalance() public view returns(uint){... */\n              pop\n              tag_66\n              tag_67\n              jump\t// in\n            tag_66:\n              mload(0x40)\n              dup1\n              dup3\n              dup2\n              mstore\n              0x20\n              add\n              swap2\n              pop\n              pop\n              mload(0x40)\n              dup1\n              swap2\n              sub\n              swap1\n              return\n                /* \"AllContracts.sol\":6434:6470  address payable public payoutAddress */\n            tag_11:\n              callvalue\n                /* \"--CODEGEN--\":8:17   */\n              dup1\n                /* \"--CODEGEN--\":5:7   */\n              iszero\n              tag_68\n              jumpi\n                /* \"--CODEGEN--\":30:31   */\n              0x00\n                /* \"--CODEGEN--\":27:28   */\n              dup1\n                /* \"--CODEGEN--\":20:32   */\n              revert\n                /* \"--CODEGEN--\":5:7   */\n            tag_68:\n                /* \"AllContracts.sol\":6434:6470  address payable public payoutAddress */\n              pop\n              tag_69\n              tag_70\n              jump\t// in\n            tag_69:\n              mload(0x40)\n              dup1\n              dup3\n              0xffffffffffffffffffffffffffffffffffffffff\n              and\n              0xffffffffffffffffffffffffffffffffffffffff\n              and\n              dup2\n              mstore\n              0x20\n              add\n              swap2\n              pop\n              pop\n              mload(0x40)\n              dup1\n              swap2\n              sub\n              swap1\n              return\n                /* \"AllContracts.sol\":6476:6494  uint public payout */\n            tag_12:\n              callvalue\n                /* \"--CODEGEN--\":8:17   */\n              dup1\n                /* \"--CODEGEN--\":5:7   */\n              iszero\n              tag_71\n              jumpi\n                /* \"--CODEGEN--\":30:31   */\n              0x00\n                /* \"--CODEGEN--\":27:28   */\n              dup1\n                /* \"--CODEGEN--\":20:32   */\n              revert\n                /* \"--CODEGEN--\":5:7   */\n            tag_71:\n                /* \"AllContracts.sol\":6476:6494  uint public payout */\n              pop\n              tag_72\n              tag_73\n              jump\t// in\n            tag_72:\n              mload(0x40)\n              dup1\n              dup3\n              dup2\n              mstore\n              0x20\n              add\n              swap2\n              pop\n              pop\n              mload(0x40)\n              dup1\n              swap2\n              sub\n              swap1\n              return\n                /* \"AllContracts.sol\":1550:1695  function renounceOwnership() public virtual onlyOwner {... */\n            tag_13:\n              callvalue\n                /* \"--CODEGEN--\":8:17   */\n              dup1\n                /* \"--CODEGEN--\":5:7   */\n              iszero\n              tag_74\n              jumpi\n                /* \"--CODEGEN--\":30:31   */\n              0x00\n                /* \"--CODEGEN--\":27:28   */\n              dup1\n                /* \"--CODEGEN--\":20:32   */\n              revert\n                /* \"--CODEGEN--\":5:7   */\n            tag_74:\n                /* \"AllContracts.sol\":1550:1695  function renounceOwnership() public virtual onlyOwner {... */\n              pop\n              tag_75\n              tag_76\n              jump\t// in\n            tag_75:\n              stop\n                /* \"AllContracts.sol\":16107:16217  function withdrawLink(uint amount) public onlyAuthorized {... */\n            tag_14:\n              callvalue\n                /* \"--CODEGEN--\":8:17   */\n              dup1\n                /* \"--CODEGEN--\":5:7   */\n              iszero\n              tag_77\n              jumpi\n                /* \"--CODEGEN--\":30:31   */\n              0x00\n                /* \"--CODEGEN--\":27:28   */\n              dup1\n                /* \"--CODEGEN--\":20:32   */\n              revert\n                /* \"--CODEGEN--\":5:7   */\n            tag_77:\n                /* \"AllContracts.sol\":16107:16217  function withdrawLink(uint amount) public onlyAuthorized {... */\n              pop\n              tag_78\n              0x04\n              dup1\n              calldatasize\n              sub\n                /* \"--CODEGEN--\":13:15   */\n              0x20\n                /* \"--CODEGEN--\":8:11   */\n              dup2\n                /* \"--CODEGEN--\":5:16   */\n              lt\n                /* \"--CODEGEN--\":2:4   */\n              iszero\n              tag_79\n              jumpi\n                /* \"--CODEGEN--\":29:30   */\n              0x00\n                /* \"--CODEGEN--\":26:27   */\n              dup1\n                /* \"--CODEGEN--\":19:31   */\n              revert\n                /* \"--CODEGEN--\":2:4   */\n            tag_79:\n                /* \"AllContracts.sol\":16107:16217  function withdrawLink(uint amount) public onlyAuthorized {... */\n              dup2\n              add\n              swap1\n              dup1\n              dup1\n              calldataload\n              swap1\n              0x20\n              add\n              swap1\n              swap3\n              swap2\n              swap1\n              pop\n              pop\n              pop\n              tag_80\n              jump\t// in\n            tag_78:\n              stop\n                /* \"AllContracts.sol\":927:1004  function owner() public view returns (address) {... */\n            tag_15:\n              callvalue\n                /* \"--CODEGEN--\":8:17   */\n              dup1\n                /* \"--CODEGEN--\":5:7   */\n              iszero\n              tag_81\n              jumpi\n                /* \"--CODEGEN--\":30:31   */\n              0x00\n                /* \"--CODEGEN--\":27:28   */\n              dup1\n                /* \"--CODEGEN--\":20:32   */\n              revert\n                /* \"--CODEGEN--\":5:7   */\n            tag_81:\n                /* \"AllContracts.sol\":927:1004  function owner() public view returns (address) {... */\n              pop\n              tag_82\n              tag_83\n              jump\t// in\n            tag_82:\n              mload(0x40)\n              dup1\n              dup3\n              0xffffffffffffffffffffffffffffffffffffffff\n              and\n              0xffffffffffffffffffffffffffffffffffffffff\n              and\n              dup2\n              mstore\n              0x20\n              add\n              swap2\n              pop\n              pop\n              mload(0x40)\n              dup1\n              swap2\n              sub\n              swap1\n              return\n                /* \"AllContracts.sol\":5522:5729  function rawFulfillRandomness(bytes32 requestId, uint256 randomness) external {... */\n            tag_16:\n              callvalue\n                /* \"--CODEGEN--\":8:17   */\n              dup1\n                /* \"--CODEGEN--\":5:7   */\n              iszero\n              tag_84\n              jumpi\n                /* \"--CODEGEN--\":30:31   */\n              0x00\n                /* \"--CODEGEN--\":27:28   */\n              dup1\n                /* \"--CODEGEN--\":20:32   */\n              revert\n                /* \"--CODEGEN--\":5:7   */\n            tag_84:\n                /* \"AllContracts.sol\":5522:5729  function rawFulfillRandomness(bytes32 requestId, uint256 randomness) external {... */\n              pop\n              tag_85\n              0x04\n              dup1\n              calldatasize\n              sub\n                /* \"--CODEGEN--\":13:15   */\n              0x40\n                /* \"--CODEGEN--\":8:11   */\n              dup2\n                /* \"--CODEGEN--\":5:16   */\n              lt\n                /* \"--CODEGEN--\":2:4   */\n              iszero\n              tag_86\n              jumpi\n                /* \"--CODEGEN--\":29:30   */\n              0x00\n                /* \"--CODEGEN--\":26:27   */\n              dup1\n                /* \"--CODEGEN--\":19:31   */\n              revert\n                /* \"--CODEGEN--\":2:4   */\n            tag_86:\n                /* \"AllContracts.sol\":5522:5729  function rawFulfillRandomness(bytes32 requestId, uint256 randomness) external {... */\n              dup2\n              add\n              swap1\n              dup1\n              dup1\n              calldataload\n              swap1\n              0x20\n              add\n              swap1\n              swap3\n              swap2\n              swap1\n              dup1\n              calldataload\n              swap1\n              0x20\n              add\n              swap1\n              swap3\n              swap2\n              swap1\n              pop\n              pop\n              pop\n              tag_87\n              jump\t// in\n            tag_85:\n              stop\n                /* \"AllContracts.sol\":15432:15657  function allowGasFreeBet(address[] memory userAddresses, bool allowed) public onlyAuthorized{... */\n            tag_17:\n              callvalue\n                /* \"--CODEGEN--\":8:17   */\n              dup1\n                /* \"--CODEGEN--\":5:7   */\n              iszero\n              tag_88\n              jumpi\n                /* \"--CODEGEN--\":30:31   */\n              0x00\n                /* \"--CODEGEN--\":27:28   */\n              dup1\n                /* \"--CODEGEN--\":20:32   */\n              revert\n                /* \"--CODEGEN--\":5:7   */\n            tag_88:\n                /* \"AllContracts.sol\":15432:15657  function allowGasFreeBet(address[] memory userAddresses, bool allowed) public onlyAuthorized{... */\n              pop\n              tag_89\n              0x04\n              dup1\n              calldatasize\n              sub\n                /* \"--CODEGEN--\":13:15   */\n              0x40\n                /* \"--CODEGEN--\":8:11   */\n              dup2\n                /* \"--CODEGEN--\":5:16   */\n              lt\n                /* \"--CODEGEN--\":2:4   */\n              iszero\n              tag_90\n              jumpi\n                /* \"--CODEGEN--\":29:30   */\n              0x00\n                /* \"--CODEGEN--\":26:27   */\n              dup1\n                /* \"--CODEGEN--\":19:31   */\n              revert\n                /* \"--CODEGEN--\":2:4   */\n            tag_90:\n                /* \"AllContracts.sol\":15432:15657  function allowGasFreeBet(address[] memory userAddresses, bool allowed) public onlyAuthorized{... */\n              dup2\n              add\n              swap1\n              dup1\n              dup1\n              calldataload\n              swap1\n              0x20\n              add\n              swap1\n                /* \"--CODEGEN--\":21:32   */\n              0x0100000000\n                /* \"--CODEGEN--\":8:19   */\n              dup2\n                /* \"--CODEGEN--\":5:33   */\n              gt\n                /* \"--CODEGEN--\":2:4   */\n              iszero\n              tag_91\n              jumpi\n                /* \"--CODEGEN--\":46:47   */\n              0x00\n                /* \"--CODEGEN--\":43:44   */\n              dup1\n                /* \"--CODEGEN--\":36:48   */\n              revert\n                /* \"--CODEGEN--\":2:4   */\n            tag_91:\n                /* \"AllContracts.sol\":15432:15657  function allowGasFreeBet(address[] memory userAddresses, bool allowed) public onlyAuthorized{... */\n              dup3\n              add\n                /* \"--CODEGEN--\":35:44   */\n              dup4\n                /* \"--CODEGEN--\":28:32   */\n              0x20\n                /* \"--CODEGEN--\":12:26   */\n              dup3\n                /* \"--CODEGEN--\":8:33   */\n              add\n                /* \"--CODEGEN--\":5:45   */\n              gt\n                /* \"--CODEGEN--\":2:4   */\n              iszero\n              tag_92\n              jumpi\n                /* \"--CODEGEN--\":58:59   */\n              0x00\n                /* \"--CODEGEN--\":55:56   */\n              dup1\n                /* \"--CODEGEN--\":48:60   */\n              revert\n                /* \"--CODEGEN--\":2:4   */\n            tag_92:\n                /* \"AllContracts.sol\":15432:15657  function allowGasFreeBet(address[] memory userAddresses, bool allowed) public onlyAuthorized{... */\n              dup1\n              calldataload\n              swap1\n              0x20\n              add\n              swap2\n                /* \"--CODEGEN--\":101:110   */\n              dup5\n                /* \"--CODEGEN--\":95:97   */\n              0x20\n                /* \"--CODEGEN--\":81:93   */\n              dup4\n                /* \"--CODEGEN--\":77:98   */\n              mul\n                /* \"--CODEGEN--\":67:75   */\n              dup5\n                /* \"--CODEGEN--\":63:99   */\n              add\n                /* \"--CODEGEN--\":60:111   */\n              gt\n                /* \"--CODEGEN--\":39:50   */\n              0x0100000000\n                /* \"--CODEGEN--\":25:37   */\n              dup4\n                /* \"--CODEGEN--\":22:51   */\n              gt\n                /* \"--CODEGEN--\":11:119   */\n              or\n                /* \"--CODEGEN--\":8:10   */\n              iszero\n              tag_93\n              jumpi\n                /* \"--CODEGEN--\":132:133   */\n              0x00\n                /* \"--CODEGEN--\":129:130   */\n              dup1\n                /* \"--CODEGEN--\":122:134   */\n              revert\n                /* \"--CODEGEN--\":8:10   */\n            tag_93:\n                /* \"AllContracts.sol\":15432:15657  function allowGasFreeBet(address[] memory userAddresses, bool allowed) public onlyAuthorized{... */\n              swap2\n              swap1\n              dup1\n              dup1\n              0x20\n              mul\n              0x20\n              add\n              mload(0x40)\n              swap1\n              dup2\n              add\n              0x40\n              mstore\n              dup1\n              swap4\n              swap3\n              swap2\n              swap1\n              dup2\n              dup2\n              mstore\n              0x20\n              add\n              dup4\n              dup4\n              0x20\n              mul\n                /* \"--CODEGEN--\":30:33   */\n              dup1\n                /* \"--CODEGEN--\":22:28   */\n              dup3\n                /* \"--CODEGEN--\":14:20   */\n              dup5\n                /* \"--CODEGEN--\":1:34   */\n              calldatacopy\n                /* \"--CODEGEN--\":99:100   */\n              0x00\n                /* \"--CODEGEN--\":93:96   */\n              dup2\n                /* \"--CODEGEN--\":85:91   */\n              dup5\n                /* \"--CODEGEN--\":81:97   */\n              add\n                /* \"--CODEGEN--\":74:101   */\n              mstore\n                /* \"--CODEGEN--\":137:141   */\n              0x1f\n                /* \"--CODEGEN--\":133:142   */\n              not\n                /* \"--CODEGEN--\":126:130   */\n              0x1f\n                /* \"--CODEGEN--\":121:124   */\n              dup3\n                /* \"--CODEGEN--\":117:131   */\n              add\n                /* \"--CODEGEN--\":113:143   */\n              and\n                /* \"--CODEGEN--\":106:143   */\n              swap1\n              pop\n                /* \"--CODEGEN--\":169:172   */\n              dup1\n                /* \"--CODEGEN--\":161:167   */\n              dup4\n                /* \"--CODEGEN--\":157:173   */\n              add\n                /* \"--CODEGEN--\":147:173   */\n              swap3\n              pop\n                /* \"AllContracts.sol\":15432:15657  function allowGasFreeBet(address[] memory userAddresses, bool allowed) public onlyAuthorized{... */\n              pop\n              pop\n              pop\n              pop\n              pop\n              pop\n              swap2\n              swap3\n              swap2\n              swap3\n              swap1\n              dup1\n              calldataload\n              iszero\n              iszero\n              swap1\n              0x20\n              add\n              swap1\n              swap3\n              swap2\n              swap1\n              pop\n              pop\n              pop\n              tag_94\n              jump\t// in\n            tag_89:\n              stop\n                /* \"AllContracts.sol\":6347:6365  uint public minBet */\n            tag_18:\n              callvalue\n                /* \"--CODEGEN--\":8:17   */\n              dup1\n                /* \"--CODEGEN--\":5:7   */\n              iszero\n              tag_95\n              jumpi\n                /* \"--CODEGEN--\":30:31   */\n              0x00\n                /* \"--CODEGEN--\":27:28   */\n              dup1\n                /* \"--CODEGEN--\":20:32   */\n              revert\n                /* \"--CODEGEN--\":5:7   */\n            tag_95:\n                /* \"AllContracts.sol\":6347:6365  uint public minBet */\n              pop\n              tag_96\n              tag_97\n              jump\t// in\n            tag_96:\n              mload(0x40)\n              dup1\n              dup3\n              dup2\n              mstore\n              0x20\n              add\n              swap2\n              pop\n              pop\n              mload(0x40)\n              dup1\n              swap2\n              sub\n              swap1\n              return\n                /* \"AllContracts.sol\":17000:17090  function setKeyHash(bytes32 _keyHash) public onlyOwner {... */\n            tag_19:\n              callvalue\n                /* \"--CODEGEN--\":8:17   */\n              dup1\n                /* \"--CODEGEN--\":5:7   */\n              iszero\n              tag_98\n              jumpi\n                /* \"--CODEGEN--\":30:31   */\n              0x00\n                /* \"--CODEGEN--\":27:28   */\n              dup1\n                /* \"--CODEGEN--\":20:32   */\n              revert\n                /* \"--CODEGEN--\":5:7   */\n            tag_98:\n                /* \"AllContracts.sol\":17000:17090  function setKeyHash(bytes32 _keyHash) public onlyOwner {... */\n              pop\n              tag_99\n              0x04\n              dup1\n              calldatasize\n              sub\n                /* \"--CODEGEN--\":13:15   */\n              0x20\n                /* \"--CODEGEN--\":8:11   */\n              dup2\n                /* \"--CODEGEN--\":5:16   */\n              lt\n                /* \"--CODEGEN--\":2:4   */\n              iszero\n              tag_100\n              jumpi\n                /* \"--CODEGEN--\":29:30   */\n              0x00\n                /* \"--CODEGEN--\":26:27   */\n              dup1\n                /* \"--CODEGEN--\":19:31   */\n              revert\n                /* \"--CODEGEN--\":2:4   */\n            tag_100:\n                /* \"AllContracts.sol\":17000:17090  function setKeyHash(bytes32 _keyHash) public onlyOwner {... */\n              dup2\n              add\n              swap1\n              dup1\n              dup1\n              calldataload\n              swap1\n              0x20\n              add\n              swap1\n              swap3\n              swap2\n              swap1\n              pop\n              pop\n              pop\n              tag_101\n              jump\t// in\n            tag_99:\n              stop\n                /* \"AllContracts.sol\":5307:5374  mapping(bytes32 /* keyHash */ => uint256 /* nonce */) public nonces */\n            tag_20:\n              callvalue\n                /* \"--CODEGEN--\":8:17   */\n              dup1\n                /* \"--CODEGEN--\":5:7   */\n              iszero\n              tag_102\n              jumpi\n                /* \"--CODEGEN--\":30:31   */\n              0x00\n                /* \"--CODEGEN--\":27:28   */\n              dup1\n                /* \"--CODEGEN--\":20:32   */\n              revert\n                /* \"--CODEGEN--\":5:7   */\n            tag_102:\n                /* \"AllContracts.sol\":5307:5374  mapping(bytes32 /* keyHash */ => uint256 /* nonce */) public nonces */\n              pop\n              tag_103\n              0x04\n              dup1\n              calldatasize\n              sub\n                /* \"--CODEGEN--\":13:15   */\n              0x20\n                /* \"--CODEGEN--\":8:11   */\n              dup2\n                /* \"--CODEGEN--\":5:16   */\n              lt\n                /* \"--CODEGEN--\":2:4   */\n              iszero\n              tag_104\n              jumpi\n                /* \"--CODEGEN--\":29:30   */\n              0x00\n                /* \"--CODEGEN--\":26:27   */\n              dup1\n                /* \"--CODEGEN--\":19:31   */\n              revert\n                /* \"--CODEGEN--\":2:4   */\n            tag_104:\n                /* \"AllContracts.sol\":5307:5374  mapping(bytes32 /* keyHash */ => uint256 /* nonce */) public nonces */\n              dup2\n              add\n              swap1\n              dup1\n              dup1\n              calldataload\n              swap1\n              0x20\n              add\n              swap1\n              swap3\n              swap2\n              swap1\n              pop\n              pop\n              pop\n              tag_105\n              jump\t// in\n            tag_103:\n              mload(0x40)\n              dup1\n              dup3\n              dup2\n              mstore\n              0x20\n              add\n              swap2\n              pop\n              pop\n              mload(0x40)\n              dup1\n              swap2\n              sub\n              swap1\n              return\n                /* \"AllContracts.sol\":17280:17392  function setLINK(address _linkAddress) public onlyOwner {... */\n            tag_21:\n              callvalue\n                /* \"--CODEGEN--\":8:17   */\n              dup1\n                /* \"--CODEGEN--\":5:7   */\n              iszero\n              tag_106\n              jumpi\n                /* \"--CODEGEN--\":30:31   */\n              0x00\n                /* \"--CODEGEN--\":27:28   */\n              dup1\n                /* \"--CODEGEN--\":20:32   */\n              revert\n                /* \"--CODEGEN--\":5:7   */\n            tag_106:\n                /* \"AllContracts.sol\":17280:17392  function setLINK(address _linkAddress) public onlyOwner {... */\n              pop\n              tag_107\n              0x04\n              dup1\n              calldatasize\n              sub\n                /* \"--CODEGEN--\":13:15   */\n              0x20\n                /* \"--CODEGEN--\":8:11   */\n              dup2\n                /* \"--CODEGEN--\":5:16   */\n              lt\n                /* \"--CODEGEN--\":2:4   */\n              iszero\n              tag_108\n              jumpi\n                /* \"--CODEGEN--\":29:30   */\n              0x00\n                /* \"--CODEGEN--\":26:27   */\n              dup1\n                /* \"--CODEGEN--\":19:31   */\n              revert\n                /* \"--CODEGEN--\":2:4   */\n            tag_108:\n                /* \"AllContracts.sol\":17280:17392  function setLINK(address _linkAddress) public onlyOwner {... */\n              dup2\n              add\n              swap1\n              dup1\n              dup1\n              calldataload\n              0xffffffffffffffffffffffffffffffffffffffff\n              and\n              swap1\n              0x20\n              add\n              swap1\n              swap3\n              swap2\n              swap1\n              pop\n              pop\n              pop\n              tag_109\n              jump\t// in\n            tag_107:\n              stop\n                /* \"AllContracts.sol\":16411:16553  function setAuthorizedUser(address userAddress, bool authorized) public onlyOwner {... */\n            tag_22:\n              callvalue\n                /* \"--CODEGEN--\":8:17   */\n              dup1\n                /* \"--CODEGEN--\":5:7   */\n              iszero\n              tag_110\n              jumpi\n                /* \"--CODEGEN--\":30:31   */\n              0x00\n                /* \"--CODEGEN--\":27:28   */\n              dup1\n                /* \"--CODEGEN--\":20:32   */\n              revert\n                /* \"--CODEGEN--\":5:7   */\n            tag_110:\n                /* \"AllContracts.sol\":16411:16553  function setAuthorizedUser(address userAddress, bool authorized) public onlyOwner {... */\n              pop\n              tag_111\n              0x04\n              dup1\n              calldatasize\n              sub\n                /* \"--CODEGEN--\":13:15   */\n              0x40\n                /* \"--CODEGEN--\":8:11   */\n              dup2\n                /* \"--CODEGEN--\":5:16   */\n              lt\n                /* \"--CODEGEN--\":2:4   */\n              iszero\n              tag_112\n              jumpi\n                /* \"--CODEGEN--\":29:30   */\n              0x00\n                /* \"--CODEGEN--\":26:27   */\n              dup1\n                /* \"--CODEGEN--\":19:31   */\n              revert\n                /* \"--CODEGEN--\":2:4   */\n            tag_112:\n                /* \"AllContracts.sol\":16411:16553  function setAuthorizedUser(address userAddress, bool authorized) public onlyOwner {... */\n              dup2\n              add\n              swap1\n              dup1\n              dup1\n              calldataload\n              0xffffffffffffffffffffffffffffffffffffffff\n              and\n              swap1\n              0x20\n              add\n              swap1\n              swap3\n              swap2\n              swap1\n              dup1\n              calldataload\n              iszero\n              iszero\n              swap1\n              0x20\n              add\n              swap1\n              swap3\n              swap2\n              swap1\n              pop\n              pop\n              pop\n              tag_113\n              jump\t// in\n            tag_111:\n              stop\n                /* \"AllContracts.sol\":14570:15168  function requestRefund(uint gameID) public{... */\n            tag_23:\n              callvalue\n                /* \"--CODEGEN--\":8:17   */\n              dup1\n                /* \"--CODEGEN--\":5:7   */\n              iszero\n              tag_114\n              jumpi\n                /* \"--CODEGEN--\":30:31   */\n              0x00\n                /* \"--CODEGEN--\":27:28   */\n              dup1\n                /* \"--CODEGEN--\":20:32   */\n              revert\n                /* \"--CODEGEN--\":5:7   */\n            tag_114:\n                /* \"AllContracts.sol\":14570:15168  function requestRefund(uint gameID) public{... */\n              pop\n              tag_115\n              0x04\n              dup1\n              calldatasize\n              sub\n                /* \"--CODEGEN--\":13:15   */\n              0x20\n                /* \"--CODEGEN--\":8:11   */\n              dup2\n                /* \"--CODEGEN--\":5:16   */\n              lt\n                /* \"--CODEGEN--\":2:4   */\n              iszero\n              tag_116\n              jumpi\n                /* \"--CODEGEN--\":29:30   */\n              0x00\n                /* \"--CODEGEN--\":26:27   */\n              dup1\n                /* \"--CODEGEN--\":19:31   */\n              revert\n                /* \"--CODEGEN--\":2:4   */\n            tag_116:\n                /* \"AllContracts.sol\":14570:15168  function requestRefund(uint gameID) public{... */\n              dup2\n              add\n              swap1\n              dup1\n              dup1\n              calldataload\n              swap1\n              0x20\n              add\n              swap1\n              swap3\n              swap2\n              swap1\n              pop\n              pop\n              pop\n              tag_117\n              jump\t// in\n            tag_115:\n              stop\n                /* \"AllContracts.sol\":8870:9452  function placeBetFor(address payable player, uint pick) public payable {... */\n            tag_24:\n              tag_118\n              0x04\n              dup1\n              calldatasize\n              sub\n                /* \"--CODEGEN--\":13:15   */\n              0x40\n                /* \"--CODEGEN--\":8:11   */\n              dup2\n                /* \"--CODEGEN--\":5:16   */\n              lt\n                /* \"--CODEGEN--\":2:4   */\n              iszero\n              tag_119\n              jumpi\n                /* \"--CODEGEN--\":29:30   */\n              0x00\n                /* \"--CODEGEN--\":26:27   */\n              dup1\n                /* \"--CODEGEN--\":19:31   */\n              revert\n                /* \"--CODEGEN--\":2:4   */\n            tag_119:\n                /* \"AllContracts.sol\":8870:9452  function placeBetFor(address payable player, uint pick) public payable {... */\n              dup2\n              add\n              swap1\n              dup1\n              dup1\n              calldataload\n              0xffffffffffffffffffffffffffffffffffffffff\n              and\n              swap1\n              0x20\n              add\n              swap1\n              swap3\n              swap2\n              swap1\n              dup1\n              calldataload\n              swap1\n              0x20\n              add\n              swap1\n              swap3\n              swap2\n              swap1\n              pop\n              pop\n              pop\n              tag_120\n              jump\t// in\n            tag_118:\n              stop\n                /* \"AllContracts.sol\":18050:18372  function closeMachine() public onlyOwner {... */\n            tag_25:\n              callvalue\n                /* \"--CODEGEN--\":8:17   */\n              dup1\n                /* \"--CODEGEN--\":5:7   */\n              iszero\n              tag_121\n              jumpi\n                /* \"--CODEGEN--\":30:31   */\n              0x00\n                /* \"--CODEGEN--\":27:28   */\n              dup1\n                /* \"--CODEGEN--\":20:32   */\n              revert\n                /* \"--CODEGEN--\":5:7   */\n            tag_121:\n                /* \"AllContracts.sol\":18050:18372  function closeMachine() public onlyOwner {... */\n              pop\n              tag_122\n              tag_123\n              jump\t// in\n            tag_122:\n              stop\n                /* \"AllContracts.sol\":15821:16025  function withdrawEth(uint amount) public onlyAuthorized {... */\n            tag_26:\n              callvalue\n                /* \"--CODEGEN--\":8:17   */\n              dup1\n                /* \"--CODEGEN--\":5:7   */\n              iszero\n              tag_124\n              jumpi\n                /* \"--CODEGEN--\":30:31   */\n              0x00\n                /* \"--CODEGEN--\":27:28   */\n              dup1\n                /* \"--CODEGEN--\":20:32   */\n              revert\n                /* \"--CODEGEN--\":5:7   */\n            tag_124:\n                /* \"AllContracts.sol\":15821:16025  function withdrawEth(uint amount) public onlyAuthorized {... */\n              pop\n              tag_125\n              0x04\n              dup1\n              calldatasize\n              sub\n                /* \"--CODEGEN--\":13:15   */\n              0x20\n                /* \"--CODEGEN--\":8:11   */\n              dup2\n                /* \"--CODEGEN--\":5:16   */\n              lt\n                /* \"--CODEGEN--\":2:4   */\n              iszero\n              tag_126\n              jumpi\n                /* \"--CODEGEN--\":29:30   */\n              0x00\n                /* \"--CODEGEN--\":26:27   */\n              dup1\n                /* \"--CODEGEN--\":19:31   */\n              revert\n                /* \"--CODEGEN--\":2:4   */\n            tag_126:\n                /* \"AllContracts.sol\":15821:16025  function withdrawEth(uint amount) public onlyAuthorized {... */\n              dup2\n              add\n              swap1\n              dup1\n              dup1\n              calldataload\n              swap1\n              0x20\n              add\n              swap1\n              swap3\n              swap2\n              swap1\n              pop\n              pop\n              pop\n              tag_127\n              jump\t// in\n            tag_125:\n              stop\n                /* \"AllContracts.sol\":9631:10390  function safeBetFor(address payable player, uint pick) public payable {... */\n            tag_27:\n              tag_128\n              0x04\n              dup1\n              calldatasize\n              sub\n                /* \"--CODEGEN--\":13:15   */\n              0x40\n                /* \"--CODEGEN--\":8:11   */\n              dup2\n                /* \"--CODEGEN--\":5:16   */\n              lt\n                /* \"--CODEGEN--\":2:4   */\n              iszero\n              tag_129\n              jumpi\n                /* \"--CODEGEN--\":29:30   */\n              0x00\n                /* \"--CODEGEN--\":26:27   */\n              dup1\n                /* \"--CODEGEN--\":19:31   */\n              revert\n                /* \"--CODEGEN--\":2:4   */\n            tag_129:\n                /* \"AllContracts.sol\":9631:10390  function safeBetFor(address payable player, uint pick) public payable {... */\n              dup2\n              add\n              swap1\n              dup1\n              dup1\n              calldataload\n              0xffffffffffffffffffffffffffffffffffffffff\n              and\n              swap1\n              0x20\n              add\n              swap1\n              swap3\n              swap2\n              swap1\n              dup1\n              calldataload\n              swap1\n              0x20\n              add\n              swap1\n              swap3\n              swap2\n              swap1\n              pop\n              pop\n              pop\n              tag_130\n              jump\t// in\n            tag_128:\n              stop\n                /* \"AllContracts.sol\":6603:6652  mapping(address => bool) public gasFreeBetAllowed */\n            tag_28:\n              callvalue\n                /* \"--CODEGEN--\":8:17   */\n              dup1\n                /* \"--CODEGEN--\":5:7   */\n              iszero\n              tag_131\n              jumpi\n                /* \"--CODEGEN--\":30:31   */\n              0x00\n                /* \"--CODEGEN--\":27:28   */\n              dup1\n                /* \"--CODEGEN--\":20:32   */\n              revert\n                /* \"--CODEGEN--\":5:7   */\n            tag_131:\n                /* \"AllContracts.sol\":6603:6652  mapping(address => bool) public gasFreeBetAllowed */\n              pop\n              tag_132\n              0x04\n              dup1\n              calldatasize\n              sub\n                /* \"--CODEGEN--\":13:15   */\n              0x20\n                /* \"--CODEGEN--\":8:11   */\n              dup2\n                /* \"--CODEGEN--\":5:16   */\n              lt\n                /* \"--CODEGEN--\":2:4   */\n              iszero\n              tag_133\n              jumpi\n                /* \"--CODEGEN--\":29:30   */\n              0x00\n                /* \"--CODEGEN--\":26:27   */\n              dup1\n                /* \"--CODEGEN--\":19:31   */\n              revert\n                /* \"--CODEGEN--\":2:4   */\n            tag_133:\n                /* \"AllContracts.sol\":6603:6652  mapping(address => bool) public gasFreeBetAllowed */\n              dup2\n              add\n              swap1\n              dup1\n              dup1\n              calldataload\n              0xffffffffffffffffffffffffffffffffffffffff\n              and\n              swap1\n              0x20\n              add\n              swap1\n              swap3\n              swap2\n              swap1\n              pop\n              pop\n              pop\n              tag_134\n              jump\t// in\n            tag_132:\n              mload(0x40)\n              dup1\n              dup3\n              iszero\n              iszero\n              iszero\n              iszero\n              dup2\n              mstore\n              0x20\n              add\n              swap2\n              pop\n              pop\n              mload(0x40)\n              dup1\n              swap2\n              sub\n              swap1\n              return\n                /* \"AllContracts.sol\":1844:2084  function transferOwnership(address newOwner) public virtual onlyOwner {... */\n            tag_29:\n              callvalue\n                /* \"--CODEGEN--\":8:17   */\n              dup1\n                /* \"--CODEGEN--\":5:7   */\n              iszero\n              tag_135\n              jumpi\n                /* \"--CODEGEN--\":30:31   */\n              0x00\n                /* \"--CODEGEN--\":27:28   */\n              dup1\n                /* \"--CODEGEN--\":20:32   */\n              revert\n                /* \"--CODEGEN--\":5:7   */\n            tag_135:\n                /* \"AllContracts.sol\":1844:2084  function transferOwnership(address newOwner) public virtual onlyOwner {... */\n              pop\n              tag_136\n              0x04\n              dup1\n              calldatasize\n              sub\n                /* \"--CODEGEN--\":13:15   */\n              0x20\n                /* \"--CODEGEN--\":8:11   */\n              dup2\n                /* \"--CODEGEN--\":5:16   */\n              lt\n                /* \"--CODEGEN--\":2:4   */\n              iszero\n              tag_137\n              jumpi\n                /* \"--CODEGEN--\":29:30   */\n              0x00\n                /* \"--CODEGEN--\":26:27   */\n              dup1\n                /* \"--CODEGEN--\":19:31   */\n              revert\n                /* \"--CODEGEN--\":2:4   */\n            tag_137:\n                /* \"AllContracts.sol\":1844:2084  function transferOwnership(address newOwner) public virtual onlyOwner {... */\n              dup2\n              add\n              swap1\n              dup1\n              dup1\n              calldataload\n              0xffffffffffffffffffffffffffffffffffffffff\n              and\n              swap1\n              0x20\n              add\n              swap1\n              swap3\n              swap2\n              swap1\n              pop\n              pop\n              pop\n              tag_138\n              jump\t// in\n            tag_136:\n              stop\n                /* \"AllContracts.sol\":18637:18720  function replayGame(uint gameID) public onlyOwner {... */\n            tag_30:\n              callvalue\n                /* \"--CODEGEN--\":8:17   */\n              dup1\n                /* \"--CODEGEN--\":5:7   */\n              iszero\n              tag_139\n              jumpi\n                /* \"--CODEGEN--\":30:31   */\n              0x00\n                /* \"--CODEGEN--\":27:28   */\n              dup1\n                /* \"--CODEGEN--\":20:32   */\n              revert\n                /* \"--CODEGEN--\":5:7   */\n            tag_139:\n                /* \"AllContracts.sol\":18637:18720  function replayGame(uint gameID) public onlyOwner {... */\n              pop\n              tag_140\n              0x04\n              dup1\n              calldatasize\n              sub\n                /* \"--CODEGEN--\":13:15   */\n              0x20\n                /* \"--CODEGEN--\":8:11   */\n              dup2\n                /* \"--CODEGEN--\":5:16   */\n              lt\n                /* \"--CODEGEN--\":2:4   */\n              iszero\n              tag_141\n              jumpi\n                /* \"--CODEGEN--\":29:30   */\n              0x00\n                /* \"--CODEGEN--\":26:27   */\n              dup1\n                /* \"--CODEGEN--\":19:31   */\n              revert\n                /* \"--CODEGEN--\":2:4   */\n            tag_141:\n                /* \"AllContracts.sol\":18637:18720  function replayGame(uint gameID) public onlyOwner {... */\n              dup2\n              add\n              swap1\n              dup1\n              dup1\n              calldataload\n              swap1\n              0x20\n              add\n              swap1\n              swap3\n              swap2\n              swap1\n              pop\n              pop\n              pop\n              tag_142\n              jump\t// in\n            tag_140:\n              stop\n                /* \"AllContracts.sol\":6659:6693  mapping(uint => Game) public games */\n            tag_43:\n              mstore(0x20, 0x1a)\n              dup1\n              0x00\n              mstore\n              keccak256(0x00, 0x40)\n              0x00\n              swap2\n              pop\n              swap1\n              pop\n              dup1\n              0x00\n              add\n              sload\n              swap1\n              dup1\n              0x01\n              add\n              0x00\n              swap1\n              sload\n              swap1\n              0x0100\n              exp\n              swap1\n              div\n              0xffffffffffffffffffffffffffffffffffffffff\n              and\n              swap1\n              dup1\n              0x02\n              add\n              sload\n              swap1\n              dup1\n              0x03\n              add\n              sload\n              swap1\n              dup1\n              0x04\n              add\n              sload\n              swap1\n              dup1\n              0x05\n              add\n              0x00\n              swap1\n              sload\n              swap1\n              0x0100\n              exp\n              swap1\n              div\n              0xff\n              and\n              swap1\n              pop\n              dup7\n              jump\t// out\n                /* \"AllContracts.sol\":6323:6341  uint public maxBet */\n            tag_46:\n              sload(0x12)\n              dup2\n              jump\t// out\n                /* \"AllContracts.sol\":6298:6317  uint public maxPick */\n            tag_49:\n              sload(0x11)\n              dup2\n              jump\t// out\n                /* \"AllContracts.sol\":17593:17715  function setPayoutAddress(address payable _payoutAddress) public onlyOwner {... */\n            tag_53:\n                /* \"AllContracts.sol\":1141:1153  _msgSender() */\n              tag_144\n                /* \"AllContracts.sol\":1141:1151  _msgSender */\n              tag_145\n                /* \"AllContracts.sol\":1141:1153  _msgSender() */\n              jump\t// in\n            tag_144:\n                /* \"AllContracts.sol\":1131:1153  _owner == _msgSender() */\n              0xffffffffffffffffffffffffffffffffffffffff\n              and\n                /* \"AllContracts.sol\":1131:1137  _owner */\n              0x03\n              0x00\n              swap1\n              sload\n              swap1\n              0x0100\n              exp\n              swap1\n              div\n              0xffffffffffffffffffffffffffffffffffffffff\n              and\n                /* \"AllContracts.sol\":1131:1153  _owner == _msgSender() */\n              0xffffffffffffffffffffffffffffffffffffffff\n              and\n              eq\n                /* \"AllContracts.sol\":1123:1190  require(_owner == _msgSender(), \"Ownable: caller is not the owner\") */\n              tag_146\n              jumpi\n              mload(0x40)\n              0x08c379a000000000000000000000000000000000000000000000000000000000\n              dup2\n              mstore\n              0x04\n              add\n              dup1\n              dup1\n              0x20\n              add\n              dup3\n              dup2\n              sub\n              dup3\n              mstore\n              0x20\n              dup2\n              mstore\n              0x20\n              add\n              dup1\n              0x4f776e61626c653a2063616c6c6572206973206e6f7420746865206f776e6572\n              dup2\n              mstore\n              pop\n              0x20\n              add\n              swap2\n              pop\n              pop\n              mload(0x40)\n              dup1\n              swap2\n              sub\n              swap1\n              revert\n            tag_146:\n                /* \"AllContracts.sol\":17694:17708  _payoutAddress */\n              dup1\n                /* \"AllContracts.sol\":17678:17691  payoutAddress */\n              0x16\n              0x00\n                /* \"AllContracts.sol\":17678:17708  payoutAddress = _payoutAddress */\n              0x0100\n              exp\n              dup2\n              sload\n              dup2\n              0xffffffffffffffffffffffffffffffffffffffff\n              mul\n              not\n              and\n              swap1\n              dup4\n              0xffffffffffffffffffffffffffffffffffffffff\n              and\n              mul\n              or\n              swap1\n              sstore\n              pop\n                /* \"AllContracts.sol\":17593:17715  function setPayoutAddress(address payable _payoutAddress) public onlyOwner {... */\n              pop\n              jump\t// out\n                /* \"AllContracts.sol\":6548:6597  mapping(address => bool) public authorizedAddress */\n            tag_57:\n              mstore(0x20, 0x18)\n              dup1\n              0x00\n              mstore\n              keccak256(0x00, 0x40)\n              0x00\n              swap2\n              pop\n              sload\n              swap1\n              0x0100\n              exp\n              swap1\n              div\n              0xff\n              and\n              dup2\n              jump\t// out\n                /* \"AllContracts.sol\":14035:14199  function getSummary() public view returns(uint, uint, uint, uint) {... */\n            tag_60:\n                /* \"AllContracts.sol\":14077:14081  uint */\n              0x00\n                /* \"AllContracts.sol\":14083:14087  uint */\n              dup1\n                /* \"AllContracts.sol\":14089:14093  uint */\n              0x00\n                /* \"AllContracts.sol\":14095:14099  uint */\n              dup1\n                /* \"AllContracts.sol\":14160:14166  minBet */\n              sload(0x13)\n                /* \"AllContracts.sol\":14168:14174  maxBet */\n              sload(0x12)\n                /* \"AllContracts.sol\":14176:14182  payout */\n              sload(0x17)\n                /* \"AllContracts.sol\":14184:14191  maxPick */\n              sload(0x11)\n                /* \"AllContracts.sol\":14153:14192  return(minBet, maxBet, payout, maxPick) */\n              swap4\n              pop\n              swap4\n              pop\n              swap4\n              pop\n              swap4\n              pop\n                /* \"AllContracts.sol\":14035:14199  function getSummary() public view returns(uint, uint, uint, uint) {... */\n              swap1\n              swap2\n              swap3\n              swap4\n              jump\t// out\n                /* \"AllContracts.sol\":16721:16839  function setVRFCoordinator(address _vrfCoordinator) public onlyOwner {... */\n            tag_64:\n                /* \"AllContracts.sol\":1141:1153  _msgSender() */\n              tag_150\n                /* \"AllContracts.sol\":1141:1151  _msgSender */\n              tag_145\n                /* \"AllContracts.sol\":1141:1153  _msgSender() */\n              jump\t// in\n            tag_150:\n                /* \"AllContracts.sol\":1131:1153  _owner == _msgSender() */\n              0xffffffffffffffffffffffffffffffffffffffff\n              and\n                /* \"AllContracts.sol\":1131:1137  _owner */\n              0x03\n              0x00\n              swap1\n              sload\n              swap1\n              0x0100\n              exp\n              swap1\n              div\n              0xffffffffffffffffffffffffffffffffffffffff\n              and\n                /* \"AllContracts.sol\":1131:1153  _owner == _msgSender() */\n              0xffffffffffffffffffffffffffffffffffffffff\n              and\n              eq\n                /* \"AllContracts.sol\":1123:1190  require(_owner == _msgSender(), \"Ownable: caller is not the owner\") */\n              tag_151\n              jumpi\n              mload(0x40)\n              0x08c379a000000000000000000000000000000000000000000000000000000000\n              dup2\n              mstore\n              0x04\n              add\n              dup1\n              dup1\n              0x20\n              add\n              dup3\n              dup2\n              sub\n              dup3\n              mstore\n              0x20\n              dup2\n              mstore\n              0x20\n              add\n              dup1\n              0x4f776e61626c653a2063616c6c6572206973206e6f7420746865206f776e6572\n              dup2\n              mstore\n              pop\n              0x20\n              add\n              swap2\n              pop\n              pop\n              mload(0x40)\n              dup1\n              swap2\n              sub\n              swap1\n              revert\n            tag_151:\n                /* \"AllContracts.sol\":16817:16832  _vrfCoordinator */\n              dup1\n                /* \"AllContracts.sol\":16800:16814  vrfCoordinator */\n              0x01\n              0x00\n                /* \"AllContracts.sol\":16800:16832  vrfCoordinator = _vrfCoordinator */\n              0x0100\n              exp\n              dup2\n              sload\n              dup2\n              0xffffffffffffffffffffffffffffffffffffffff\n              mul\n              not\n              and\n              swap1\n              dup4\n              0xffffffffffffffffffffffffffffffffffffffff\n              and\n              mul\n              or\n              swap1\n              sstore\n              pop\n                /* \"AllContracts.sol\":16721:16839  function setVRFCoordinator(address _vrfCoordinator) public onlyOwner {... */\n              pop\n              jump\t// out\n                /* \"AllContracts.sol\":7983:8087  function getLinkBalance() public view returns(uint){... */\n            tag_67:\n                /* \"AllContracts.sol\":8029:8033  uint */\n              0x00\n                /* \"AllContracts.sol\":8051:8055  LINK */\n              dup1\n              0x00\n              swap1\n              sload\n              swap1\n              0x0100\n              exp\n              swap1\n              div\n              0xffffffffffffffffffffffffffffffffffffffff\n              and\n                /* \"AllContracts.sol\":8051:8065  LINK.balanceOf */\n              0xffffffffffffffffffffffffffffffffffffffff\n              and\n              0x70a08231\n                /* \"AllContracts.sol\":8074:8078  this */\n              address\n                /* \"AllContracts.sol\":8051:8080  LINK.balanceOf(address(this)) */\n              mload(0x40)\n              dup3\n              0xffffffff\n              and\n              0xe0\n              shl\n              dup2\n              mstore\n              0x04\n              add\n              dup1\n              dup3\n              0xffffffffffffffffffffffffffffffffffffffff\n              and\n              0xffffffffffffffffffffffffffffffffffffffff\n              and\n              dup2\n              mstore\n              0x20\n              add\n              swap2\n              pop\n              pop\n              0x20\n              mload(0x40)\n              dup1\n              dup4\n              sub\n              dup2\n              dup7\n              dup1\n              extcodesize\n              iszero\n                /* \"--CODEGEN--\":8:17   */\n              dup1\n                /* \"--CODEGEN--\":5:7   */\n              iszero\n              tag_154\n              jumpi\n                /* \"--CODEGEN--\":30:31   */\n              0x00\n                /* \"--CODEGEN--\":27:28   */\n              dup1\n                /* \"--CODEGEN--\":20:32   */\n              revert\n                /* \"--CODEGEN--\":5:7   */\n            tag_154:\n                /* \"AllContracts.sol\":8051:8080  LINK.balanceOf(address(this)) */\n              pop\n              gas\n              staticcall\n              iszero\n                /* \"--CODEGEN--\":8:17   */\n              dup1\n                /* \"--CODEGEN--\":5:7   */\n              iszero\n              tag_156\n              jumpi\n                /* \"--CODEGEN--\":45:61   */\n              returndatasize\n                /* \"--CODEGEN--\":42:43   */\n              0x00\n                /* \"--CODEGEN--\":39:40   */\n              dup1\n                /* \"--CODEGEN--\":24:62   */\n              returndatacopy\n                /* \"--CODEGEN--\":77:93   */\n              returndatasize\n                /* \"--CODEGEN--\":74:75   */\n              0x00\n                /* \"--CODEGEN--\":67:94   */\n              revert\n                /* \"--CODEGEN--\":5:7   */\n            tag_156:\n                /* \"AllContracts.sol\":8051:8080  LINK.balanceOf(address(this)) */\n              pop\n              pop\n              pop\n              pop\n              mload(0x40)\n              returndatasize\n                /* \"--CODEGEN--\":13:15   */\n              0x20\n                /* \"--CODEGEN--\":8:11   */\n              dup2\n                /* \"--CODEGEN--\":5:16   */\n              lt\n                /* \"--CODEGEN--\":2:4   */\n              iszero\n              tag_157\n              jumpi\n                /* \"--CODEGEN--\":29:30   */\n              0x00\n                /* \"--CODEGEN--\":26:27   */\n              dup1\n                /* \"--CODEGEN--\":19:31   */\n              revert\n                /* \"--CODEGEN--\":2:4   */\n            tag_157:\n                /* \"AllContracts.sol\":8051:8080  LINK.balanceOf(address(this)) */\n              dup2\n              add\n              swap1\n              dup1\n              dup1\n              mload\n              swap1\n              0x20\n              add\n              swap1\n              swap3\n              swap2\n              swap1\n              pop\n              pop\n              pop\n                /* \"AllContracts.sol\":8044:8080  return LINK.balanceOf(address(this)) */\n              swap1\n              pop\n                /* \"AllContracts.sol\":7983:8087  function getLinkBalance() public view returns(uint){... */\n              swap1\n              jump\t// out\n                /* \"AllContracts.sol\":6434:6470  address payable public payoutAddress */\n            tag_70:\n              0x16\n              0x00\n              swap1\n              sload\n              swap1\n              0x0100\n              exp\n              swap1\n              div\n              0xffffffffffffffffffffffffffffffffffffffff\n              and\n              dup2\n              jump\t// out\n                /* \"AllContracts.sol\":6476:6494  uint public payout */\n            tag_73:\n              sload(0x17)\n              dup2\n              jump\t// out\n                /* \"AllContracts.sol\":1550:1695  function renounceOwnership() public virtual onlyOwner {... */\n            tag_76:\n                /* \"AllContracts.sol\":1141:1153  _msgSender() */\n              tag_159\n                /* \"AllContracts.sol\":1141:1151  _msgSender */\n              tag_145\n                /* \"AllContracts.sol\":1141:1153  _msgSender() */\n              jump\t// in\n            tag_159:\n                /* \"AllContracts.sol\":1131:1153  _owner == _msgSender() */\n              0xffffffffffffffffffffffffffffffffffffffff\n              and\n                /* \"AllContracts.sol\":1131:1137  _owner */\n              0x03\n              0x00\n              swap1\n              sload\n              swap1\n              0x0100\n              exp\n              swap1\n              div\n              0xffffffffffffffffffffffffffffffffffffffff\n              and\n                /* \"AllContracts.sol\":1131:1153  _owner == _msgSender() */\n              0xffffffffffffffffffffffffffffffffffffffff\n              and\n              eq\n                /* \"AllContracts.sol\":1123:1190  require(_owner == _msgSender(), \"Ownable: caller is not the owner\") */\n              tag_160\n              jumpi\n              mload(0x40)\n              0x08c379a000000000000000000000000000000000000000000000000000000000\n              dup2\n              mstore\n              0x04\n              add\n              dup1\n              dup1\n              0x20\n              add\n              dup3\n              dup2\n              sub\n              dup3\n              mstore\n              0x20\n              dup2\n              mstore\n              0x20\n              add\n              dup1\n              0x4f776e61626c653a2063616c6c6572206973206e6f7420746865206f776e6572\n              dup2\n              mstore\n              pop\n              0x20\n              add\n              swap2\n              pop\n              pop\n              mload(0x40)\n              dup1\n              swap2\n              sub\n              swap1\n              revert\n            tag_160:\n                /* \"AllContracts.sol\":1656:1657  0 */\n              0x00\n                /* \"AllContracts.sol\":1619:1659  OwnershipTransferred(_owner, address(0)) */\n              0xffffffffffffffffffffffffffffffffffffffff\n              and\n                /* \"AllContracts.sol\":1640:1646  _owner */\n              0x03\n              0x00\n              swap1\n              sload\n              swap1\n              0x0100\n              exp\n              swap1\n              div\n              0xffffffffffffffffffffffffffffffffffffffff\n              and\n                /* \"AllContracts.sol\":1619:1659  OwnershipTransferred(_owner, address(0)) */\n              0xffffffffffffffffffffffffffffffffffffffff\n              and\n              0x8be0079c531659141344cd1fd0a4f28419497f9722a3daafe3b4186f6b6457e0\n              mload(0x40)\n              mload(0x40)\n              dup1\n              swap2\n              sub\n              swap1\n              log3\n                /* \"AllContracts.sol\":1686:1687  0 */\n              0x00\n                /* \"AllContracts.sol\":1669:1675  _owner */\n              0x03\n              0x00\n                /* \"AllContracts.sol\":1669:1688  _owner = address(0) */\n              0x0100\n              exp\n              dup2\n              sload\n              dup2\n              0xffffffffffffffffffffffffffffffffffffffff\n              mul\n              not\n              and\n              swap1\n              dup4\n              0xffffffffffffffffffffffffffffffffffffffff\n              and\n              mul\n              or\n              swap1\n              sstore\n              pop\n                /* \"AllContracts.sol\":1550:1695  function renounceOwnership() public virtual onlyOwner {... */\n              jump\t// out\n                /* \"AllContracts.sol\":16107:16217  function withdrawLink(uint amount) public onlyAuthorized {... */\n            tag_80:\n                /* \"AllContracts.sol\":7887:7897  msg.sender */\n              caller\n                /* \"AllContracts.sol\":7876:7897  owner() == msg.sender */\n              0xffffffffffffffffffffffffffffffffffffffff\n              and\n                /* \"AllContracts.sol\":7876:7883  owner() */\n              tag_163\n                /* \"AllContracts.sol\":7876:7881  owner */\n              tag_83\n                /* \"AllContracts.sol\":7876:7883  owner() */\n              jump\t// in\n            tag_163:\n                /* \"AllContracts.sol\":7876:7897  owner() == msg.sender */\n              0xffffffffffffffffffffffffffffffffffffffff\n              and\n              eq\n                /* \"AllContracts.sol\":7876:7930  owner() == msg.sender || authorizedAddress[msg.sender] */\n              dup1\n              tag_164\n              jumpi\n              pop\n                /* \"AllContracts.sol\":7901:7918  authorizedAddress */\n              0x18\n                /* \"AllContracts.sol\":7901:7930  authorizedAddress[msg.sender] */\n              0x00\n                /* \"AllContracts.sol\":7919:7929  msg.sender */\n              caller\n                /* \"AllContracts.sol\":7901:7930  authorizedAddress[msg.sender] */\n              0xffffffffffffffffffffffffffffffffffffffff\n              and\n              0xffffffffffffffffffffffffffffffffffffffff\n              and\n              dup2\n              mstore\n              0x20\n              add\n              swap1\n              dup2\n              mstore\n              0x20\n              add\n              0x00\n              keccak256\n              0x00\n              swap1\n              sload\n              swap1\n              0x0100\n              exp\n              swap1\n              div\n              0xff\n              and\n                /* \"AllContracts.sol\":7876:7930  owner() == msg.sender || authorizedAddress[msg.sender] */\n            tag_164:\n                /* \"AllContracts.sol\":7868:7959  require(owner() == msg.sender || authorizedAddress[msg.sender], \"caller is not authorized\") */\n              tag_165\n              jumpi\n              mload(0x40)\n              0x08c379a000000000000000000000000000000000000000000000000000000000\n              dup2\n              mstore\n              0x04\n              add\n              dup1\n              dup1\n              0x20\n              add\n              dup3\n              dup2\n              sub\n              dup3\n              mstore\n              0x18\n              dup2\n              mstore\n              0x20\n              add\n              dup1\n              0x63616c6c6572206973206e6f7420617574686f72697a65640000000000000000\n              dup2\n              mstore\n              pop\n              0x20\n              add\n              swap2\n              pop\n              pop\n              mload(0x40)\n              dup1\n              swap2\n              sub\n              swap1\n              revert\n            tag_165:\n                /* \"AllContracts.sol\":16174:16178  LINK */\n              0x00\n              dup1\n              swap1\n              sload\n              swap1\n              0x0100\n              exp\n              swap1\n              div\n              0xffffffffffffffffffffffffffffffffffffffff\n              and\n                /* \"AllContracts.sol\":16174:16187  LINK.transfer */\n              0xffffffffffffffffffffffffffffffffffffffff\n              and\n              0xa9059cbb\n                /* \"AllContracts.sol\":16188:16201  payoutAddress */\n              0x16\n              0x00\n              swap1\n              sload\n              swap1\n              0x0100\n              exp\n              swap1\n              div\n              0xffffffffffffffffffffffffffffffffffffffff\n              and\n                /* \"AllContracts.sol\":16203:16209  amount */\n              dup4\n                /* \"AllContracts.sol\":16174:16210  LINK.transfer(payoutAddress, amount) */\n              mload(0x40)\n              dup4\n              0xffffffff\n              and\n              0xe0\n              shl\n              dup2\n              mstore\n              0x04\n              add\n              dup1\n              dup4\n              0xffffffffffffffffffffffffffffffffffffffff\n              and\n              0xffffffffffffffffffffffffffffffffffffffff\n              and\n              dup2\n              mstore\n              0x20\n              add\n              dup3\n              dup2\n              mstore\n              0x20\n              add\n              swap3\n              pop\n              pop\n              pop\n              0x20\n              mload(0x40)\n              dup1\n              dup4\n              sub\n              dup2\n              0x00\n              dup8\n              dup1\n              extcodesize\n              iszero\n                /* \"--CODEGEN--\":8:17   */\n              dup1\n                /* \"--CODEGEN--\":5:7   */\n              iszero\n              tag_167\n              jumpi\n                /* \"--CODEGEN--\":30:31   */\n              0x00\n                /* \"--CODEGEN--\":27:28   */\n              dup1\n                /* \"--CODEGEN--\":20:32   */\n              revert\n                /* \"--CODEGEN--\":5:7   */\n            tag_167:\n                /* \"AllContracts.sol\":16174:16210  LINK.transfer(payoutAddress, amount) */\n              pop\n              gas\n              call\n              iszero\n                /* \"--CODEGEN--\":8:17   */\n              dup1\n                /* \"--CODEGEN--\":5:7   */\n              iszero\n              tag_169\n              jumpi\n                /* \"--CODEGEN--\":45:61   */\n              returndatasize\n                /* \"--CODEGEN--\":42:43   */\n              0x00\n                /* \"--CODEGEN--\":39:40   */\n              dup1\n                /* \"--CODEGEN--\":24:62   */\n              returndatacopy\n                /* \"--CODEGEN--\":77:93   */\n              returndatasize\n                /* \"--CODEGEN--\":74:75   */\n              0x00\n                /* \"--CODEGEN--\":67:94   */\n              revert\n                /* \"--CODEGEN--\":5:7   */\n            tag_169:\n                /* \"AllContracts.sol\":16174:16210  LINK.transfer(payoutAddress, amount) */\n              pop\n              pop\n              pop\n              pop\n              mload(0x40)\n              returndatasize\n                /* \"--CODEGEN--\":13:15   */\n              0x20\n                /* \"--CODEGEN--\":8:11   */\n              dup2\n                /* \"--CODEGEN--\":5:16   */\n              lt\n                /* \"--CODEGEN--\":2:4   */\n              iszero\n              tag_170\n              jumpi\n                /* \"--CODEGEN--\":29:30   */\n              0x00\n                /* \"--CODEGEN--\":26:27   */\n              dup1\n                /* \"--CODEGEN--\":19:31   */\n              revert\n                /* \"--CODEGEN--\":2:4   */\n            tag_170:\n                /* \"AllContracts.sol\":16174:16210  LINK.transfer(payoutAddress, amount) */\n              dup2\n              add\n              swap1\n              dup1\n              dup1\n              mload\n              swap1\n              0x20\n              add\n              swap1\n              swap3\n              swap2\n              swap1\n              pop\n              pop\n              pop\n              pop\n                /* \"AllContracts.sol\":16107:16217  function withdrawLink(uint amount) public onlyAuthorized {... */\n              pop\n              jump\t// out\n                /* \"AllContracts.sol\":927:1004  function owner() public view returns (address) {... */\n            tag_83:\n                /* \"AllContracts.sol\":965:972  address */\n              0x00\n                /* \"AllContracts.sol\":991:997  _owner */\n              0x03\n              0x00\n              swap1\n              sload\n              swap1\n              0x0100\n              exp\n              swap1\n              div\n              0xffffffffffffffffffffffffffffffffffffffff\n              and\n                /* \"AllContracts.sol\":984:997  return _owner */\n              swap1\n              pop\n                /* \"AllContracts.sol\":927:1004  function owner() public view returns (address) {... */\n              swap1\n              jump\t// out\n                /* \"AllContracts.sol\":5522:5729  function rawFulfillRandomness(bytes32 requestId, uint256 randomness) external {... */\n            tag_87:\n                /* \"AllContracts.sol\":5628:5642  vrfCoordinator */\n              0x01\n              0x00\n              swap1\n              sload\n              swap1\n              0x0100\n              exp\n              swap1\n              div\n              0xffffffffffffffffffffffffffffffffffffffff\n              and\n                /* \"AllContracts.sol\":5614:5642  msg.sender == vrfCoordinator */\n              0xffffffffffffffffffffffffffffffffffffffff\n              and\n                /* \"AllContracts.sol\":5614:5624  msg.sender */\n              caller\n                /* \"AllContracts.sol\":5614:5642  msg.sender == vrfCoordinator */\n              0xffffffffffffffffffffffffffffffffffffffff\n              and\n              eq\n                /* \"AllContracts.sol\":5606:5678  require(msg.sender == vrfCoordinator, \"Only VRFCoordinator can fulfill\") */\n              tag_173\n              jumpi\n              mload(0x40)\n              0x08c379a000000000000000000000000000000000000000000000000000000000\n              dup2\n              mstore\n              0x04\n              add\n              dup1\n              dup1\n              0x20\n              add\n              dup3\n              dup2\n              sub\n              dup3\n              mstore\n              0x1f\n              dup2\n              mstore\n              0x20\n              add\n              dup1\n              0x4f6e6c7920565246436f6f7264696e61746f722063616e2066756c66696c6c00\n              dup2\n              mstore\n              pop\n              0x20\n              add\n              swap2\n              pop\n              pop\n              mload(0x40)\n              dup1\n              swap2\n              sub\n              swap1\n              revert\n            tag_173:\n                /* \"AllContracts.sol\":5684:5724  fulfillRandomness(requestId, randomness) */\n              tag_174\n                /* \"AllContracts.sol\":5702:5711  requestId */\n              dup3\n                /* \"AllContracts.sol\":5713:5723  randomness */\n              dup3\n                /* \"AllContracts.sol\":5684:5701  fulfillRandomness */\n              tag_175\n                /* \"AllContracts.sol\":5684:5724  fulfillRandomness(requestId, randomness) */\n              jump\t// in\n            tag_174:\n                /* \"AllContracts.sol\":5522:5729  function rawFulfillRandomness(bytes32 requestId, uint256 randomness) external {... */\n              pop\n              pop\n              jump\t// out\n                /* \"AllContracts.sol\":15432:15657  function allowGasFreeBet(address[] memory userAddresses, bool allowed) public onlyAuthorized{... */\n            tag_94:\n                /* \"AllContracts.sol\":7887:7897  msg.sender */\n              caller\n                /* \"AllContracts.sol\":7876:7897  owner() == msg.sender */\n              0xffffffffffffffffffffffffffffffffffffffff\n              and\n                /* \"AllContracts.sol\":7876:7883  owner() */\n              tag_177\n                /* \"AllContracts.sol\":7876:7881  owner */\n              tag_83\n                /* \"AllContracts.sol\":7876:7883  owner() */\n              jump\t// in\n            tag_177:\n                /* \"AllContracts.sol\":7876:7897  owner() == msg.sender */\n              0xffffffffffffffffffffffffffffffffffffffff\n              and\n              eq\n                /* \"AllContracts.sol\":7876:7930  owner() == msg.sender || authorizedAddress[msg.sender] */\n              dup1\n              tag_178\n              jumpi\n              pop\n                /* \"AllContracts.sol\":7901:7918  authorizedAddress */\n              0x18\n                /* \"AllContracts.sol\":7901:7930  authorizedAddress[msg.sender] */\n              0x00\n                /* \"AllContracts.sol\":7919:7929  msg.sender */\n              caller\n                /* \"AllContracts.sol\":7901:7930  authorizedAddress[msg.sender] */\n              0xffffffffffffffffffffffffffffffffffffffff\n              and\n              0xffffffffffffffffffffffffffffffffffffffff\n              and\n              dup2\n              mstore\n              0x20\n              add\n              swap1\n              dup2\n              mstore\n              0x20\n              add\n              0x00\n              keccak256\n              0x00\n              swap1\n              sload\n              swap1\n              0x0100\n              exp\n              swap1\n              div\n              0xff\n              and\n                /* \"AllContracts.sol\":7876:7930  owner() == msg.sender || authorizedAddress[msg.sender] */\n            tag_178:\n                /* \"AllContracts.sol\":7868:7959  require(owner() == msg.sender || authorizedAddress[msg.sender], \"caller is not authorized\") */\n              tag_179\n              jumpi\n              mload(0x40)\n              0x08c379a000000000000000000000000000000000000000000000000000000000\n              dup2\n              mstore\n              0x04\n              add\n              dup1\n              dup1\n              0x20\n              add\n              dup3\n              dup2\n              sub\n              dup3\n              mstore\n              0x18\n              dup2\n              mstore\n              0x20\n              add\n              dup1\n              0x63616c6c6572206973206e6f7420617574686f72697a65640000000000000000\n              dup2\n              mstore\n              pop\n              0x20\n              add\n              swap2\n              pop\n              pop\n              mload(0x40)\n              dup1\n              swap2\n              sub\n              swap1\n              revert\n            tag_179:\n                /* \"AllContracts.sol\":15539:15545  uint i */\n              0x00\n                /* \"AllContracts.sol\":15548:15549  0 */\n              dup1\n                /* \"AllContracts.sol\":15539:15549  uint i = 0 */\n              swap1\n              pop\n                /* \"AllContracts.sol\":15534:15651  for (uint i = 0; i < userAddresses.length; i++){... */\n            tag_181:\n                /* \"AllContracts.sol\":15555:15568  userAddresses */\n              dup3\n                /* \"AllContracts.sol\":15555:15575  userAddresses.length */\n              mload\n                /* \"AllContracts.sol\":15551:15552  i */\n              dup2\n                /* \"AllContracts.sol\":15551:15575  i < userAddresses.length */\n              lt\n                /* \"AllContracts.sol\":15534:15651  for (uint i = 0; i < userAddresses.length; i++){... */\n              iszero\n              tag_182\n              jumpi\n                /* \"AllContracts.sol\":15633:15640  allowed */\n              dup2\n                /* \"AllContracts.sol\":15595:15612  gasFreeBetAllowed */\n              0x19\n                /* \"AllContracts.sol\":15595:15630  gasFreeBetAllowed[userAddresses[i]] */\n              0x00\n                /* \"AllContracts.sol\":15613:15626  userAddresses */\n              dup6\n                /* \"AllContracts.sol\":15627:15628  i */\n              dup5\n                /* \"AllContracts.sol\":15613:15629  userAddresses[i] */\n              dup2\n              mload\n              dup2\n              lt\n              tag_184\n              jumpi\n              invalid\n            tag_184:\n              0x20\n              mul\n              0x20\n              add\n              add\n              mload\n                /* \"AllContracts.sol\":15595:15630  gasFreeBetAllowed[userAddresses[i]] */\n              0xffffffffffffffffffffffffffffffffffffffff\n              and\n              0xffffffffffffffffffffffffffffffffffffffff\n              and\n              dup2\n              mstore\n              0x20\n              add\n              swap1\n              dup2\n              mstore\n              0x20\n              add\n              0x00\n              keccak256\n              0x00\n                /* \"AllContracts.sol\":15595:15640  gasFreeBetAllowed[userAddresses[i]] = allowed */\n              0x0100\n              exp\n              dup2\n              sload\n              dup2\n              0xff\n              mul\n              not\n              and\n              swap1\n              dup4\n              iszero\n              iszero\n              mul\n              or\n              swap1\n              sstore\n              pop\n                /* \"AllContracts.sol\":15577:15580  i++ */\n              dup1\n              dup1\n              0x01\n              add\n              swap2\n              pop\n              pop\n                /* \"AllContracts.sol\":15534:15651  for (uint i = 0; i < userAddresses.length; i++){... */\n              jump(tag_181)\n            tag_182:\n              pop\n                /* \"AllContracts.sol\":15432:15657  function allowGasFreeBet(address[] memory userAddresses, bool allowed) public onlyAuthorized{... */\n              pop\n              pop\n              jump\t// out\n                /* \"AllContracts.sol\":6347:6365  uint public minBet */\n            tag_97:\n              sload(0x13)\n              dup2\n              jump\t// out\n                /* \"AllContracts.sol\":17000:17090  function setKeyHash(bytes32 _keyHash) public onlyOwner {... */\n            tag_101:\n                /* \"AllContracts.sol\":1141:1153  _msgSender() */\n              tag_186\n                /* \"AllContracts.sol\":1141:1151  _msgSender */\n              tag_145\n                /* \"AllContracts.sol\":1141:1153  _msgSender() */\n              jump\t// in\n            tag_186:\n                /* \"AllContracts.sol\":1131:1153  _owner == _msgSender() */\n              0xffffffffffffffffffffffffffffffffffffffff\n              and\n                /* \"AllContracts.sol\":1131:1137  _owner */\n              0x03\n              0x00\n              swap1\n              sload\n              swap1\n              0x0100\n              exp\n              swap1\n              div\n              0xffffffffffffffffffffffffffffffffffffffff\n              and\n                /* \"AllContracts.sol\":1131:1153  _owner == _msgSender() */\n              0xffffffffffffffffffffffffffffffffffffffff\n              and\n              eq\n                /* \"AllContracts.sol\":1123:1190  require(_owner == _msgSender(), \"Ownable: caller is not the owner\") */\n              tag_187\n              jumpi\n              mload(0x40)\n              0x08c379a000000000000000000000000000000000000000000000000000000000\n              dup2\n              mstore\n              0x04\n              add\n              dup1\n              dup1\n              0x20\n              add\n              dup3\n              dup2\n              sub\n              dup3\n              mstore\n              0x20\n              dup2\n              mstore\n              0x20\n              add\n              dup1\n              0x4f776e61626c653a2063616c6c6572206973206e6f7420746865206f776e6572\n              dup2\n              mstore\n              pop\n              0x20\n              add\n              swap2\n              pop\n              pop\n              mload(0x40)\n              dup1\n              swap2\n              sub\n              swap1\n              revert\n            tag_187:\n                /* \"AllContracts.sol\":17075:17083  _keyHash */\n              dup1\n                /* \"AllContracts.sol\":17065:17072  keyHash */\n              0x04\n                /* \"AllContracts.sol\":17065:17083  keyHash = _keyHash */\n              dup2\n              swap1\n              sstore\n              pop\n                /* \"AllContracts.sol\":17000:17090  function setKeyHash(bytes32 _keyHash) public onlyOwner {... */\n              pop\n              jump\t// out\n                /* \"AllContracts.sol\":5307:5374  mapping(bytes32 /* keyHash */ => uint256 /* nonce */) public nonces */\n            tag_105:\n              mstore(0x20, 0x02)\n              dup1\n              0x00\n              mstore\n              keccak256(0x00, 0x40)\n              0x00\n              swap2\n              pop\n              swap1\n              pop\n              sload\n              dup2\n              jump\t// out\n                /* \"AllContracts.sol\":17280:17392  function setLINK(address _linkAddress) public onlyOwner {... */\n            tag_109:\n                /* \"AllContracts.sol\":1141:1153  _msgSender() */\n              tag_190\n                /* \"AllContracts.sol\":1141:1151  _msgSender */\n              tag_145\n                /* \"AllContracts.sol\":1141:1153  _msgSender() */\n              jump\t// in\n            tag_190:\n                /* \"AllContracts.sol\":1131:1153  _owner == _msgSender() */\n              0xffffffffffffffffffffffffffffffffffffffff\n              and\n                /* \"AllContracts.sol\":1131:1137  _owner */\n              0x03\n              0x00\n              swap1\n              sload\n              swap1\n              0x0100\n              exp\n              swap1\n              div\n              0xffffffffffffffffffffffffffffffffffffffff\n              and\n                /* \"AllContracts.sol\":1131:1153  _owner == _msgSender() */\n              0xffffffffffffffffffffffffffffffffffffffff\n              and\n              eq\n                /* \"AllContracts.sol\":1123:1190  require(_owner == _msgSender(), \"Ownable: caller is not the owner\") */\n              tag_191\n              jumpi\n              mload(0x40)\n              0x08c379a000000000000000000000000000000000000000000000000000000000\n              dup2\n              mstore\n              0x04\n              add\n              dup1\n              dup1\n              0x20\n              add\n              dup3\n              dup2\n              sub\n              dup3\n              mstore\n              0x20\n              dup2\n              mstore\n              0x20\n              add\n              dup1\n              0x4f776e61626c653a2063616c6c6572206973206e6f7420746865206f776e6572\n              dup2\n              mstore\n              pop\n              0x20\n              add\n              swap2\n              pop\n              pop\n              mload(0x40)\n              dup1\n              swap2\n              sub\n              swap1\n              revert\n            tag_191:\n                /* \"AllContracts.sol\":17372:17384  _linkAddress */\n              dup1\n                /* \"AllContracts.sol\":17346:17350  LINK */\n              0x00\n              dup1\n                /* \"AllContracts.sol\":17346:17385  LINK = LinkTokenInterface(_linkAddress) */\n              0x0100\n              exp\n              dup2\n              sload\n              dup2\n              0xffffffffffffffffffffffffffffffffffffffff\n              mul\n              not\n              and\n              swap1\n              dup4\n              0xffffffffffffffffffffffffffffffffffffffff\n              and\n              mul\n              or\n              swap1\n              sstore\n              pop\n                /* \"AllContracts.sol\":17280:17392  function setLINK(address _linkAddress) public onlyOwner {... */\n              pop\n              jump\t// out\n                /* \"AllContracts.sol\":16411:16553  function setAuthorizedUser(address userAddress, bool authorized) public onlyOwner {... */\n            tag_113:\n                /* \"AllContracts.sol\":1141:1153  _msgSender() */\n              tag_194\n                /* \"AllContracts.sol\":1141:1151  _msgSender */\n              tag_145\n                /* \"AllContracts.sol\":1141:1153  _msgSender() */\n              jump\t// in\n            tag_194:\n                /* \"AllContracts.sol\":1131:1153  _owner == _msgSender() */\n              0xffffffffffffffffffffffffffffffffffffffff\n              and\n                /* \"AllContracts.sol\":1131:1137  _owner */\n              0x03\n              0x00\n              swap1\n              sload\n              swap1\n              0x0100\n              exp\n              swap1\n              div\n              0xffffffffffffffffffffffffffffffffffffffff\n              and\n                /* \"AllContracts.sol\":1131:1153  _owner == _msgSender() */\n              0xffffffffffffffffffffffffffffffffffffffff\n              and\n              eq\n                /* \"AllContracts.sol\":1123:1190  require(_owner == _msgSender(), \"Ownable: caller is not the owner\") */\n              tag_195\n              jumpi\n              mload(0x40)\n              0x08c379a000000000000000000000000000000000000000000000000000000000\n              dup2\n              mstore\n              0x04\n              add\n              dup1\n              dup1\n              0x20\n              add\n              dup3\n              dup2\n              sub\n              dup3\n              mstore\n              0x20\n              dup2\n              mstore\n              0x20\n              add\n              dup1\n              0x4f776e61626c653a2063616c6c6572206973206e6f7420746865206f776e6572\n              dup2\n              mstore\n              pop\n              0x20\n              add\n              swap2\n              pop\n              pop\n              mload(0x40)\n              dup1\n              swap2\n              sub\n              swap1\n              revert\n            tag_195:\n                /* \"AllContracts.sol\":16536:16546  authorized */\n              dup1\n                /* \"AllContracts.sol\":16503:16520  authorizedAddress */\n              0x18\n                /* \"AllContracts.sol\":16503:16533  authorizedAddress[userAddress] */\n              0x00\n                /* \"AllContracts.sol\":16521:16532  userAddress */\n              dup5\n                /* \"AllContracts.sol\":16503:16533  authorizedAddress[userAddress] */\n              0xffffffffffffffffffffffffffffffffffffffff\n              and\n              0xffffffffffffffffffffffffffffffffffffffff\n              and\n              dup2\n              mstore\n              0x20\n              add\n              swap1\n              dup2\n              mstore\n              0x20\n              add\n              0x00\n              keccak256\n              0x00\n                /* \"AllContracts.sol\":16503:16546  authorizedAddress[userAddress] = authorized */\n              0x0100\n              exp\n              dup2\n              sload\n              dup2\n              0xff\n              mul\n              not\n              and\n              swap1\n              dup4\n              iszero\n              iszero\n              mul\n              or\n              swap1\n              sstore\n              pop\n                /* \"AllContracts.sol\":16411:16553  function setAuthorizedUser(address userAddress, bool authorized) public onlyOwner {... */\n              pop\n              pop\n              jump\t// out\n                /* \"AllContracts.sol\":14570:15168  function requestRefund(uint gameID) public{... */\n            tag_117:\n                /* \"AllContracts.sol\":14622:14636  Game storage g */\n              0x00\n                /* \"AllContracts.sol\":14639:14644  games */\n              0x1a\n                /* \"AllContracts.sol\":14639:14652  games[gameID] */\n              0x00\n                /* \"AllContracts.sol\":14645:14651  gameID */\n              dup4\n                /* \"AllContracts.sol\":14639:14652  games[gameID] */\n              dup2\n              mstore\n              0x20\n              add\n              swap1\n              dup2\n              mstore\n              0x20\n              add\n              0x00\n              keccak256\n                /* \"AllContracts.sol\":14622:14652  Game storage g = games[gameID] */\n              swap1\n              pop\n                /* \"AllContracts.sol\":14670:14687  authorizedAddress */\n              0x18\n                /* \"AllContracts.sol\":14670:14699  authorizedAddress[msg.sender] */\n              0x00\n                /* \"AllContracts.sol\":14688:14698  msg.sender */\n              caller\n                /* \"AllContracts.sol\":14670:14699  authorizedAddress[msg.sender] */\n              0xffffffffffffffffffffffffffffffffffffffff\n              and\n              0xffffffffffffffffffffffffffffffffffffffff\n              and\n              dup2\n              mstore\n              0x20\n              add\n              swap1\n              dup2\n              mstore\n              0x20\n              add\n              0x00\n              keccak256\n              0x00\n              swap1\n              sload\n              swap1\n              0x0100\n              exp\n              swap1\n              div\n              0xff\n              and\n                /* \"AllContracts.sol\":14670:14724  authorizedAddress[msg.sender] || owner() == msg.sender */\n              dup1\n              tag_198\n              jumpi\n              pop\n                /* \"AllContracts.sol\":14714:14724  msg.sender */\n              caller\n                /* \"AllContracts.sol\":14703:14724  owner() == msg.sender */\n              0xffffffffffffffffffffffffffffffffffffffff\n              and\n                /* \"AllContracts.sol\":14703:14710  owner() */\n              tag_199\n                /* \"AllContracts.sol\":14703:14708  owner */\n              tag_83\n                /* \"AllContracts.sol\":14703:14710  owner() */\n              jump\t// in\n            tag_199:\n                /* \"AllContracts.sol\":14703:14724  owner() == msg.sender */\n              0xffffffffffffffffffffffffffffffffffffffff\n              and\n              eq\n                /* \"AllContracts.sol\":14670:14724  authorizedAddress[msg.sender] || owner() == msg.sender */\n            tag_198:\n                /* \"AllContracts.sol\":14670:14750  authorizedAddress[msg.sender] || owner() == msg.sender || g.player == msg.sender */\n              dup1\n              tag_200\n              jumpi\n              pop\n                /* \"AllContracts.sol\":14740:14750  msg.sender */\n              caller\n                /* \"AllContracts.sol\":14728:14750  g.player == msg.sender */\n              0xffffffffffffffffffffffffffffffffffffffff\n              and\n                /* \"AllContracts.sol\":14728:14729  g */\n              dup2\n                /* \"AllContracts.sol\":14728:14736  g.player */\n              0x01\n              add\n              0x00\n              swap1\n              sload\n              swap1\n              0x0100\n              exp\n              swap1\n              div\n              0xffffffffffffffffffffffffffffffffffffffff\n              and\n                /* \"AllContracts.sol\":14728:14750  g.player == msg.sender */\n              0xffffffffffffffffffffffffffffffffffffffff\n              and\n              eq\n                /* \"AllContracts.sol\":14670:14750  authorizedAddress[msg.sender] || owner() == msg.sender || g.player == msg.sender */\n            tag_200:\n                /* \"AllContracts.sol\":14662:14787  require(authorizedAddress[msg.sender] || owner() == msg.sender || g.player == msg.sender, \"Not authorized to request refund\") */\n              tag_201\n              jumpi\n              mload(0x40)\n              0x08c379a000000000000000000000000000000000000000000000000000000000\n              dup2\n              mstore\n              0x04\n              add\n              dup1\n              dup1\n              0x20\n              add\n              dup3\n              dup2\n              sub\n              dup3\n              mstore\n              0x20\n              dup2\n              mstore\n              0x20\n              add\n              dup1\n              0x4e6f7420617574686f72697a656420746f207265717565737420726566756e64\n              dup2\n              mstore\n              pop\n              0x20\n              add\n              swap2\n              pop\n              pop\n              mload(0x40)\n              dup1\n              swap2\n              sub\n              swap1\n              revert\n            tag_201:\n                /* \"AllContracts.sol\":14817:14822  false */\n              0x00\n                /* \"AllContracts.sol\":14805:14822  g.played == false */\n              iszero\n              iszero\n                /* \"AllContracts.sol\":14805:14806  g */\n              dup2\n                /* \"AllContracts.sol\":14805:14813  g.played */\n              0x05\n              add\n              0x00\n              swap1\n              sload\n              swap1\n              0x0100\n              exp\n              swap1\n              div\n              0xff\n              and\n                /* \"AllContracts.sol\":14805:14822  g.played == false */\n              iszero\n              iszero\n              eq\n                /* \"AllContracts.sol\":14797:14869  require(g.played == false, \"Game already complete. No refund possible.\") */\n              tag_202\n              jumpi\n              mload(0x40)\n              0x08c379a000000000000000000000000000000000000000000000000000000000\n              dup2\n              mstore\n              0x04\n              add\n              dup1\n              dup1\n              0x20\n              add\n              dup3\n              dup2\n              sub\n              dup3\n              mstore\n              0x2a\n              dup2\n              mstore\n              0x20\n              add\n              dup1\n              data_c34c85fa0e0680ac47dc2c21fdf93b1adcc71d9a1a3b3b1788b881c3f4f390ac\n              0x2a\n              swap2\n              codecopy\n              0x40\n              add\n              swap2\n              pop\n              pop\n              mload(0x40)\n              dup1\n              swap2\n              sub\n              swap1\n              revert\n            tag_202:\n                /* \"AllContracts.sol\":14912:14913  g */\n              dup1\n                /* \"AllContracts.sol\":14912:14917  g.bet */\n              0x02\n              add\n              sload\n                /* \"AllContracts.sol\":14887:14908  address(this).balance */\n              selfbalance\n                /* \"AllContracts.sol\":14887:14917  address(this).balance >= g.bet */\n              lt\n              iszero\n                /* \"AllContracts.sol\":14879:14971  require(address(this).balance >= g.bet, \"Contract balance too low. Please try again later.\") */\n              tag_203\n              jumpi\n              mload(0x40)\n              0x08c379a000000000000000000000000000000000000000000000000000000000\n              dup2\n              mstore\n              0x04\n              add\n              dup1\n              dup1\n              0x20\n              add\n              dup3\n              dup2\n              sub\n              dup3\n              mstore\n              0x31\n              dup2\n              mstore\n              0x20\n              add\n              dup1\n              data_b719f220e413600c7e92ed4736b96c6908e0428122610fe965fcc60eefeedbad\n              0x31\n              swap2\n              codecopy\n              0x40\n              add\n              swap2\n              pop\n              pop\n              mload(0x40)\n              dup1\n              swap2\n              sub\n              swap1\n              revert\n            tag_203:\n                /* \"AllContracts.sol\":14992:14996  true */\n              0x01\n                /* \"AllContracts.sol\":14981:14982  g */\n              dup2\n                /* \"AllContracts.sol\":14981:14989  g.played */\n              0x05\n              add\n              0x00\n                /* \"AllContracts.sol\":14981:14996  g.played = true */\n              0x0100\n              exp\n              dup2\n              sload\n              dup2\n              0xff\n              mul\n              not\n              and\n              swap1\n              dup4\n              iszero\n              iszero\n              mul\n              or\n              swap1\n              sstore\n              pop\n                /* \"AllContracts.sol\":15026:15027  g */\n              dup1\n                /* \"AllContracts.sol\":15026:15031  g.bet */\n              0x02\n              add\n              sload\n                /* \"AllContracts.sol\":15009:15022  _unplayedBets */\n              sload(0x14)\n                /* \"AllContracts.sol\":15009:15031  _unplayedBets >= g.bet */\n              lt\n                /* \"AllContracts.sol\":15006:15128  if(_unplayedBets >= g.bet) {... */\n              tag_204\n              jumpi\n                /* \"AllContracts.sol\":15064:15065  g */\n              dup1\n                /* \"AllContracts.sol\":15064:15069  g.bet */\n              0x02\n              add\n              sload\n                /* \"AllContracts.sol\":15047:15060  _unplayedBets */\n              0x14\n              0x00\n                /* \"AllContracts.sol\":15047:15069  _unplayedBets -= g.bet */\n              dup3\n              dup3\n              sload\n              sub\n              swap3\n              pop\n              pop\n              dup2\n              swap1\n              sstore\n              pop\n                /* \"AllContracts.sol\":15006:15128  if(_unplayedBets >= g.bet) {... */\n              jump(tag_205)\n            tag_204:\n                /* \"AllContracts.sol\":15116:15117  0 */\n              0x00\n                /* \"AllContracts.sol\":15100:15113  _unplayedBets */\n              0x14\n                /* \"AllContracts.sol\":15100:15117  _unplayedBets = 0 */\n              dup2\n              swap1\n              sstore\n              pop\n                /* \"AllContracts.sol\":15006:15128  if(_unplayedBets >= g.bet) {... */\n            tag_205:\n                /* \"AllContracts.sol\":15137:15138  g */\n              dup1\n                /* \"AllContracts.sol\":15137:15145  g.player */\n              0x01\n              add\n              0x00\n              swap1\n              sload\n              swap1\n              0x0100\n              exp\n              swap1\n              div\n              0xffffffffffffffffffffffffffffffffffffffff\n              and\n                /* \"AllContracts.sol\":15137:15154  g.player.transfer */\n              0xffffffffffffffffffffffffffffffffffffffff\n              and\n                /* \"AllContracts.sol\":15137:15161  g.player.transfer(g.bet) */\n              0x08fc\n                /* \"AllContracts.sol\":15155:15156  g */\n              dup3\n                /* \"AllContracts.sol\":15155:15160  g.bet */\n              0x02\n              add\n              sload\n                /* \"AllContracts.sol\":15137:15161  g.player.transfer(g.bet) */\n              swap1\n              dup2\n              iszero\n              mul\n              swap1\n              mload(0x40)\n              0x00\n              mload(0x40)\n              dup1\n              dup4\n              sub\n              dup2\n              dup6\n              dup9\n              dup9\n              call\n              swap4\n              pop\n              pop\n              pop\n              pop\n              iszero\n                /* \"--CODEGEN--\":8:17   */\n              dup1\n                /* \"--CODEGEN--\":5:7   */\n              iszero\n              tag_207\n              jumpi\n                /* \"--CODEGEN--\":45:61   */\n              returndatasize\n                /* \"--CODEGEN--\":42:43   */\n              0x00\n                /* \"--CODEGEN--\":39:40   */\n              dup1\n                /* \"--CODEGEN--\":24:62   */\n              returndatacopy\n                /* \"--CODEGEN--\":77:93   */\n              returndatasize\n                /* \"--CODEGEN--\":74:75   */\n              0x00\n                /* \"--CODEGEN--\":67:94   */\n              revert\n                /* \"--CODEGEN--\":5:7   */\n            tag_207:\n                /* \"AllContracts.sol\":15137:15161  g.player.transfer(g.bet) */\n              pop\n                /* \"AllContracts.sol\":14570:15168  function requestRefund(uint gameID) public{... */\n              pop\n              pop\n              jump\t// out\n                /* \"AllContracts.sol\":8870:9452  function placeBetFor(address payable player, uint pick) public payable {... */\n            tag_120:\n                /* \"AllContracts.sol\":8972:8978  minBet */\n              sload(0x13)\n                /* \"AllContracts.sol\":8959:8968  msg.value */\n              callvalue\n                /* \"AllContracts.sol\":8959:8978  msg.value >= minBet */\n              lt\n              iszero\n                /* \"AllContracts.sol\":8951:9002  require(msg.value >= minBet, \"minimum bet not met\") */\n              tag_209\n              jumpi\n              mload(0x40)\n              0x08c379a000000000000000000000000000000000000000000000000000000000\n              dup2\n              mstore\n              0x04\n              add\n              dup1\n              dup1\n              0x20\n              add\n              dup3\n              dup2\n              sub\n              dup3\n              mstore\n              0x13\n              dup2\n              mstore\n              0x20\n              add\n              dup1\n              0x6d696e696d756d20626574206e6f74206d657400000000000000000000000000\n              dup2\n              mstore\n              pop\n              0x20\n              add\n              swap2\n              pop\n              pop\n              mload(0x40)\n              dup1\n              swap2\n              sub\n              swap1\n              revert\n            tag_209:\n                /* \"AllContracts.sol\":9023:9024  1 */\n              0x01\n                /* \"AllContracts.sol\":9015:9019  gas1 */\n              sload(0x06)\n                /* \"AllContracts.sol\":9015:9024  gas1 == 1 */\n              eq\n                /* \"AllContracts.sol\":9012:9314  if(gas1 == 1) {... */\n              iszero\n              tag_210\n              jumpi\n                /* \"AllContracts.sol\":9047:9051  gas1 */\n              0x06\n                /* \"AllContracts.sol\":9040:9051  delete gas1 */\n              0x00\n              swap1\n              sstore\n                /* \"AllContracts.sol\":9072:9076  gas2 */\n              0x07\n                /* \"AllContracts.sol\":9065:9076  delete gas2 */\n              0x00\n              swap1\n              sstore\n                /* \"AllContracts.sol\":9097:9101  gas3 */\n              0x08\n                /* \"AllContracts.sol\":9090:9101  delete gas3 */\n              0x00\n              swap1\n              sstore\n                /* \"AllContracts.sol\":9122:9126  gas4 */\n              0x09\n                /* \"AllContracts.sol\":9115:9126  delete gas4 */\n              0x00\n              swap1\n              sstore\n                /* \"AllContracts.sol\":9147:9151  gas5 */\n              0x0a\n                /* \"AllContracts.sol\":9140:9151  delete gas5 */\n              0x00\n              swap1\n              sstore\n                /* \"AllContracts.sol\":9172:9176  gas6 */\n              0x0b\n                /* \"AllContracts.sol\":9165:9176  delete gas6 */\n              0x00\n              swap1\n              sstore\n                /* \"AllContracts.sol\":9197:9201  gas7 */\n              0x0c\n                /* \"AllContracts.sol\":9190:9201  delete gas7 */\n              0x00\n              swap1\n              sstore\n                /* \"AllContracts.sol\":9222:9226  gas8 */\n              0x0d\n                /* \"AllContracts.sol\":9215:9226  delete gas8 */\n              0x00\n              swap1\n              sstore\n                /* \"AllContracts.sol\":9247:9251  gas9 */\n              0x0e\n                /* \"AllContracts.sol\":9240:9251  delete gas9 */\n              0x00\n              swap1\n              sstore\n                /* \"AllContracts.sol\":9272:9277  gas10 */\n              0x0f\n                /* \"AllContracts.sol\":9265:9277  delete gas10 */\n              0x00\n              swap1\n              sstore\n                /* \"AllContracts.sol\":9298:9303  gas11 */\n              0x10\n                /* \"AllContracts.sol\":9291:9303  delete gas11 */\n              0x00\n              swap1\n              sstore\n                /* \"AllContracts.sol\":9012:9314  if(gas1 == 1) {... */\n            tag_210:\n                /* \"AllContracts.sol\":9340:9368  _unplayedBets.add(msg.value) */\n              tag_211\n                /* \"AllContracts.sol\":9358:9367  msg.value */\n              callvalue\n                /* \"AllContracts.sol\":9340:9353  _unplayedBets */\n              sload(0x14)\n                /* \"AllContracts.sol\":9340:9357  _unplayedBets.add */\n              tag_212\n              swap1\n                /* \"AllContracts.sol\":9340:9368  _unplayedBets.add(msg.value) */\n              swap2\n              swap1\n              0xffffffff\n              and\n              jump\t// in\n            tag_211:\n                /* \"AllContracts.sol\":9324:9337  _unplayedBets */\n              0x14\n                /* \"AllContracts.sol\":9324:9368  _unplayedBets = _unplayedBets.add(msg.value) */\n              dup2\n              swap1\n              sstore\n              pop\n                /* \"AllContracts.sol\":9378:9413  createGame(player, msg.value, pick) */\n              tag_213\n                /* \"AllContracts.sol\":9389:9395  player */\n              dup3\n                /* \"AllContracts.sol\":9397:9406  msg.value */\n              callvalue\n                /* \"AllContracts.sol\":9408:9412  pick */\n              dup4\n                /* \"AllContracts.sol\":9378:9388  createGame */\n              tag_214\n                /* \"AllContracts.sol\":9378:9413  createGame(player, msg.value, pick) */\n              jump\t// in\n            tag_213:\n                /* \"AllContracts.sol\":9423:9445  playGame(_currentGame) */\n              tag_215\n                /* \"AllContracts.sol\":9432:9444  _currentGame */\n              sload(0x15)\n                /* \"AllContracts.sol\":9423:9431  playGame */\n              tag_216\n                /* \"AllContracts.sol\":9423:9445  playGame(_currentGame) */\n              jump\t// in\n            tag_215:\n                /* \"AllContracts.sol\":8870:9452  function placeBetFor(address payable player, uint pick) public payable {... */\n              pop\n              pop\n              jump\t// out\n                /* \"AllContracts.sol\":18050:18372  function closeMachine() public onlyOwner {... */\n            tag_123:\n                /* \"AllContracts.sol\":1141:1153  _msgSender() */\n              tag_218\n                /* \"AllContracts.sol\":1141:1151  _msgSender */\n              tag_145\n                /* \"AllContracts.sol\":1141:1153  _msgSender() */\n              jump\t// in\n            tag_218:\n                /* \"AllContracts.sol\":1131:1153  _owner == _msgSender() */\n              0xffffffffffffffffffffffffffffffffffffffff\n              and\n                /* \"AllContracts.sol\":1131:1137  _owner */\n              0x03\n              0x00\n              swap1\n              sload\n              swap1\n              0x0100\n              exp\n              swap1\n              div\n              0xffffffffffffffffffffffffffffffffffffffff\n              and\n                /* \"AllContracts.sol\":1131:1153  _owner == _msgSender() */\n              0xffffffffffffffffffffffffffffffffffffffff\n              and\n              eq\n                /* \"AllContracts.sol\":1123:1190  require(_owner == _msgSender(), \"Ownable: caller is not the owner\") */\n              tag_219\n              jumpi\n              mload(0x40)\n              0x08c379a000000000000000000000000000000000000000000000000000000000\n              dup2\n              mstore\n              0x04\n              add\n              dup1\n              dup1\n              0x20\n              add\n              dup3\n              dup2\n              sub\n              dup3\n              mstore\n              0x20\n              dup2\n              mstore\n              0x20\n              add\n              dup1\n              0x4f776e61626c653a2063616c6c6572206973206e6f7420746865206f776e6572\n              dup2\n              mstore\n              pop\n              0x20\n              add\n              swap2\n              pop\n              pop\n              mload(0x40)\n              dup1\n              swap2\n              sub\n              swap1\n              revert\n            tag_219:\n                /* \"AllContracts.sol\":18101:18130  uint availableContractBalance */\n              0x00\n                /* \"AllContracts.sol\":18133:18173  address(this).balance.sub(_unplayedBets) */\n              tag_221\n                /* \"AllContracts.sol\":18159:18172  _unplayedBets */\n              sload(0x14)\n                /* \"AllContracts.sol\":18133:18154  address(this).balance */\n              selfbalance\n                /* \"AllContracts.sol\":18133:18158  address(this).balance.sub */\n              tag_222\n              swap1\n                /* \"AllContracts.sol\":18133:18173  address(this).balance.sub(_unplayedBets) */\n              swap2\n              swap1\n              0xffffffff\n              and\n              jump\t// in\n            tag_221:\n                /* \"AllContracts.sol\":18101:18173  uint availableContractBalance = address(this).balance.sub(_unplayedBets) */\n              swap1\n              pop\n                /* \"AllContracts.sol\":18183:18196  payoutAddress */\n              0x16\n              0x00\n              swap1\n              sload\n              swap1\n              0x0100\n              exp\n              swap1\n              div\n              0xffffffffffffffffffffffffffffffffffffffff\n              and\n                /* \"AllContracts.sol\":18183:18205  payoutAddress.transfer */\n              0xffffffffffffffffffffffffffffffffffffffff\n              and\n                /* \"AllContracts.sol\":18183:18231  payoutAddress.transfer(availableContractBalance) */\n              0x08fc\n                /* \"AllContracts.sol\":18206:18230  availableContractBalance */\n              dup3\n                /* \"AllContracts.sol\":18183:18231  payoutAddress.transfer(availableContractBalance) */\n              swap1\n              dup2\n              iszero\n              mul\n              swap1\n              mload(0x40)\n              0x00\n              mload(0x40)\n              dup1\n              dup4\n              sub\n              dup2\n              dup6\n              dup9\n              dup9\n              call\n              swap4\n              pop\n              pop\n              pop\n              pop\n              iszero\n                /* \"--CODEGEN--\":8:17   */\n              dup1\n                /* \"--CODEGEN--\":5:7   */\n              iszero\n              tag_224\n              jumpi\n                /* \"--CODEGEN--\":45:61   */\n              returndatasize\n                /* \"--CODEGEN--\":42:43   */\n              0x00\n                /* \"--CODEGEN--\":39:40   */\n              dup1\n                /* \"--CODEGEN--\":24:62   */\n              returndatacopy\n                /* \"--CODEGEN--\":77:93   */\n              returndatasize\n                /* \"--CODEGEN--\":74:75   */\n              0x00\n                /* \"--CODEGEN--\":67:94   */\n              revert\n                /* \"--CODEGEN--\":5:7   */\n            tag_224:\n                /* \"AllContracts.sol\":18183:18231  payoutAddress.transfer(availableContractBalance) */\n              pop\n                /* \"AllContracts.sol\":18278:18279  0 */\n              0x00\n                /* \"AllContracts.sol\":18246:18250  LINK */\n              dup1\n              0x00\n              swap1\n              sload\n              swap1\n              0x0100\n              exp\n              swap1\n              div\n              0xffffffffffffffffffffffffffffffffffffffff\n              and\n                /* \"AllContracts.sol\":18246:18260  LINK.balanceOf */\n              0xffffffffffffffffffffffffffffffffffffffff\n              and\n              0x70a08231\n                /* \"AllContracts.sol\":18269:18273  this */\n              address\n                /* \"AllContracts.sol\":18246:18275  LINK.balanceOf(address(this)) */\n              mload(0x40)\n              dup3\n              0xffffffff\n              and\n              0xe0\n              shl\n              dup2\n              mstore\n              0x04\n              add\n              dup1\n              dup3\n              0xffffffffffffffffffffffffffffffffffffffff\n              and\n              0xffffffffffffffffffffffffffffffffffffffff\n              and\n              dup2\n              mstore\n              0x20\n              add\n              swap2\n              pop\n              pop\n              0x20\n              mload(0x40)\n              dup1\n              dup4\n              sub\n              dup2\n              dup7\n              dup1\n              extcodesize\n              iszero\n                /* \"--CODEGEN--\":8:17   */\n              dup1\n                /* \"--CODEGEN--\":5:7   */\n              iszero\n              tag_225\n              jumpi\n                /* \"--CODEGEN--\":30:31   */\n              0x00\n                /* \"--CODEGEN--\":27:28   */\n              dup1\n                /* \"--CODEGEN--\":20:32   */\n              revert\n                /* \"--CODEGEN--\":5:7   */\n            tag_225:\n                /* \"AllContracts.sol\":18246:18275  LINK.balanceOf(address(this)) */\n              pop\n              gas\n              staticcall\n              iszero\n                /* \"--CODEGEN--\":8:17   */\n              dup1\n                /* \"--CODEGEN--\":5:7   */\n              iszero\n              tag_227\n              jumpi\n                /* \"--CODEGEN--\":45:61   */\n              returndatasize\n                /* \"--CODEGEN--\":42:43   */\n              0x00\n                /* \"--CODEGEN--\":39:40   */\n              dup1\n                /* \"--CODEGEN--\":24:62   */\n              returndatacopy\n                /* \"--CODEGEN--\":77:93   */\n              returndatasize\n                /* \"--CODEGEN--\":74:75   */\n              0x00\n                /* \"--CODEGEN--\":67:94   */\n              revert\n                /* \"--CODEGEN--\":5:7   */\n            tag_227:\n                /* \"AllContracts.sol\":18246:18275  LINK.balanceOf(address(this)) */\n              pop\n              pop\n              pop\n              pop\n              mload(0x40)\n              returndatasize\n                /* \"--CODEGEN--\":13:15   */\n              0x20\n                /* \"--CODEGEN--\":8:11   */\n              dup2\n                /* \"--CODEGEN--\":5:16   */\n              lt\n                /* \"--CODEGEN--\":2:4   */\n              iszero\n              tag_228\n              jumpi\n                /* \"--CODEGEN--\":29:30   */\n              0x00\n                /* \"--CODEGEN--\":26:27   */\n              dup1\n                /* \"--CODEGEN--\":19:31   */\n              revert\n                /* \"--CODEGEN--\":2:4   */\n            tag_228:\n                /* \"AllContracts.sol\":18246:18275  LINK.balanceOf(address(this)) */\n              dup2\n              add\n              swap1\n              dup1\n              dup1\n              mload\n              swap1\n              0x20\n              add\n              swap1\n              swap3\n              swap2\n              swap1\n              pop\n              pop\n              pop\n                /* \"AllContracts.sol\":18246:18279  LINK.balanceOf(address(this)) > 0 */\n              gt\n                /* \"AllContracts.sol\":18242:18365  if (LINK.balanceOf(address(this)) > 0) {... */\n              iszero\n              tag_229\n              jumpi\n                /* \"AllContracts.sol\":18295:18299  LINK */\n              0x00\n              dup1\n              swap1\n              sload\n              swap1\n              0x0100\n              exp\n              swap1\n              div\n              0xffffffffffffffffffffffffffffffffffffffff\n              and\n                /* \"AllContracts.sol\":18295:18308  LINK.transfer */\n              0xffffffffffffffffffffffffffffffffffffffff\n              and\n              0xa9059cbb\n                /* \"AllContracts.sol\":18309:18322  payoutAddress */\n              0x16\n              0x00\n              swap1\n              sload\n              swap1\n              0x0100\n              exp\n              swap1\n              div\n              0xffffffffffffffffffffffffffffffffffffffff\n              and\n                /* \"AllContracts.sol\":18324:18328  LINK */\n              0x00\n              dup1\n              swap1\n              sload\n              swap1\n              0x0100\n              exp\n              swap1\n              div\n              0xffffffffffffffffffffffffffffffffffffffff\n              and\n                /* \"AllContracts.sol\":18324:18338  LINK.balanceOf */\n              0xffffffffffffffffffffffffffffffffffffffff\n              and\n              0x70a08231\n                /* \"AllContracts.sol\":18347:18351  this */\n              address\n                /* \"AllContracts.sol\":18324:18353  LINK.balanceOf(address(this)) */\n              mload(0x40)\n              dup3\n              0xffffffff\n              and\n              0xe0\n              shl\n              dup2\n              mstore\n              0x04\n              add\n              dup1\n              dup3\n              0xffffffffffffffffffffffffffffffffffffffff\n              and\n              0xffffffffffffffffffffffffffffffffffffffff\n              and\n              dup2\n              mstore\n              0x20\n              add\n              swap2\n              pop\n              pop\n              0x20\n              mload(0x40)\n              dup1\n              dup4\n              sub\n              dup2\n              dup7\n              dup1\n              extcodesize\n              iszero\n                /* \"--CODEGEN--\":8:17   */\n              dup1\n                /* \"--CODEGEN--\":5:7   */\n              iszero\n              tag_230\n              jumpi\n                /* \"--CODEGEN--\":30:31   */\n              0x00\n                /* \"--CODEGEN--\":27:28   */\n              dup1\n                /* \"--CODEGEN--\":20:32   */\n              revert\n                /* \"--CODEGEN--\":5:7   */\n            tag_230:\n                /* \"AllContracts.sol\":18324:18353  LINK.balanceOf(address(this)) */\n              pop\n              gas\n              staticcall\n              iszero\n                /* \"--CODEGEN--\":8:17   */\n              dup1\n                /* \"--CODEGEN--\":5:7   */\n              iszero\n              tag_232\n              jumpi\n                /* \"--CODEGEN--\":45:61   */\n              returndatasize\n                /* \"--CODEGEN--\":42:43   */\n              0x00\n                /* \"--CODEGEN--\":39:40   */\n              dup1\n                /* \"--CODEGEN--\":24:62   */\n              returndatacopy\n                /* \"--CODEGEN--\":77:93   */\n              returndatasize\n                /* \"--CODEGEN--\":74:75   */\n              0x00\n                /* \"--CODEGEN--\":67:94   */\n              revert\n                /* \"--CODEGEN--\":5:7   */\n            tag_232:\n                /* \"AllContracts.sol\":18324:18353  LINK.balanceOf(address(this)) */\n              pop\n              pop\n              pop\n              pop\n              mload(0x40)\n              returndatasize\n                /* \"--CODEGEN--\":13:15   */\n              0x20\n                /* \"--CODEGEN--\":8:11   */\n              dup2\n                /* \"--CODEGEN--\":5:16   */\n              lt\n                /* \"--CODEGEN--\":2:4   */\n              iszero\n              tag_233\n              jumpi\n                /* \"--CODEGEN--\":29:30   */\n              0x00\n                /* \"--CODEGEN--\":26:27   */\n              dup1\n                /* \"--CODEGEN--\":19:31   */\n              revert\n                /* \"--CODEGEN--\":2:4   */\n            tag_233:\n                /* \"AllContracts.sol\":18324:18353  LINK.balanceOf(address(this)) */\n              dup2\n              add\n              swap1\n              dup1\n              dup1\n              mload\n              swap1\n              0x20\n              add\n              swap1\n              swap3\n              swap2\n              swap1\n              pop\n              pop\n              pop\n                /* \"AllContracts.sol\":18295:18354  LINK.transfer(payoutAddress, LINK.balanceOf(address(this))) */\n              mload(0x40)\n              dup4\n              0xffffffff\n              and\n              0xe0\n              shl\n              dup2\n              mstore\n              0x04\n              add\n              dup1\n              dup4\n              0xffffffffffffffffffffffffffffffffffffffff\n              and\n              0xffffffffffffffffffffffffffffffffffffffff\n              and\n              dup2\n              mstore\n              0x20\n              add\n              dup3\n              dup2\n              mstore\n              0x20\n              add\n              swap3\n              pop\n              pop\n              pop\n              0x20\n              mload(0x40)\n              dup1\n              dup4\n              sub\n              dup2\n              0x00\n              dup8\n              dup1\n              extcodesize\n              iszero\n                /* \"--CODEGEN--\":8:17   */\n              dup1\n                /* \"--CODEGEN--\":5:7   */\n              iszero\n              tag_234\n              jumpi\n                /* \"--CODEGEN--\":30:31   */\n              0x00\n                /* \"--CODEGEN--\":27:28   */\n              dup1\n                /* \"--CODEGEN--\":20:32   */\n              revert\n                /* \"--CODEGEN--\":5:7   */\n            tag_234:\n                /* \"AllContracts.sol\":18295:18354  LINK.transfer(payoutAddress, LINK.balanceOf(address(this))) */\n              pop\n              gas\n              call\n              iszero\n                /* \"--CODEGEN--\":8:17   */\n              dup1\n                /* \"--CODEGEN--\":5:7   */\n              iszero\n              tag_236\n              jumpi\n                /* \"--CODEGEN--\":45:61   */\n              returndatasize\n                /* \"--CODEGEN--\":42:43   */\n              0x00\n                /* \"--CODEGEN--\":39:40   */\n              dup1\n                /* \"--CODEGEN--\":24:62   */\n              returndatacopy\n                /* \"--CODEGEN--\":77:93   */\n              returndatasize\n                /* \"--CODEGEN--\":74:75   */\n              0x00\n                /* \"--CODEGEN--\":67:94   */\n              revert\n                /* \"--CODEGEN--\":5:7   */\n            tag_236:\n                /* \"AllContracts.sol\":18295:18354  LINK.transfer(payoutAddress, LINK.balanceOf(address(this))) */\n              pop\n              pop\n              pop\n              pop\n              mload(0x40)\n              returndatasize\n                /* \"--CODEGEN--\":13:15   */\n              0x20\n                /* \"--CODEGEN--\":8:11   */\n              dup2\n                /* \"--CODEGEN--\":5:16   */\n              lt\n                /* \"--CODEGEN--\":2:4   */\n              iszero\n              tag_237\n              jumpi\n                /* \"--CODEGEN--\":29:30   */\n              0x00\n                /* \"--CODEGEN--\":26:27   */\n              dup1\n                /* \"--CODEGEN--\":19:31   */\n              revert\n                /* \"--CODEGEN--\":2:4   */\n            tag_237:\n                /* \"AllContracts.sol\":18295:18354  LINK.transfer(payoutAddress, LINK.balanceOf(address(this))) */\n              dup2\n              add\n              swap1\n              dup1\n              dup1\n              mload\n              swap1\n              0x20\n              add\n              swap1\n              swap3\n              swap2\n              swap1\n              pop\n              pop\n              pop\n              pop\n                /* \"AllContracts.sol\":18242:18365  if (LINK.balanceOf(address(this)) > 0) {... */\n            tag_229:\n                /* \"AllContracts.sol\":1200:1201  _ */\n              pop\n                /* \"AllContracts.sol\":18050:18372  function closeMachine() public onlyOwner {... */\n              jump\t// out\n                /* \"AllContracts.sol\":15821:16025  function withdrawEth(uint amount) public onlyAuthorized {... */\n            tag_127:\n                /* \"AllContracts.sol\":7887:7897  msg.sender */\n              caller\n                /* \"AllContracts.sol\":7876:7897  owner() == msg.sender */\n              0xffffffffffffffffffffffffffffffffffffffff\n              and\n                /* \"AllContracts.sol\":7876:7883  owner() */\n              tag_239\n                /* \"AllContracts.sol\":7876:7881  owner */\n              tag_83\n                /* \"AllContracts.sol\":7876:7883  owner() */\n              jump\t// in\n            tag_239:\n                /* \"AllContracts.sol\":7876:7897  owner() == msg.sender */\n              0xffffffffffffffffffffffffffffffffffffffff\n              and\n              eq\n                /* \"AllContracts.sol\":7876:7930  owner() == msg.sender || authorizedAddress[msg.sender] */\n              dup1\n              tag_240\n              jumpi\n              pop\n                /* \"AllContracts.sol\":7901:7918  authorizedAddress */\n              0x18\n                /* \"AllContracts.sol\":7901:7930  authorizedAddress[msg.sender] */\n              0x00\n                /* \"AllContracts.sol\":7919:7929  msg.sender */\n              caller\n                /* \"AllContracts.sol\":7901:7930  authorizedAddress[msg.sender] */\n              0xffffffffffffffffffffffffffffffffffffffff\n              and\n              0xffffffffffffffffffffffffffffffffffffffff\n              and\n              dup2\n              mstore\n              0x20\n              add\n              swap1\n              dup2\n              mstore\n              0x20\n              add\n              0x00\n              keccak256\n              0x00\n              swap1\n              sload\n              swap1\n              0x0100\n              exp\n              swap1\n              div\n              0xff\n              and\n                /* \"AllContracts.sol\":7876:7930  owner() == msg.sender || authorizedAddress[msg.sender] */\n            tag_240:\n                /* \"AllContracts.sol\":7868:7959  require(owner() == msg.sender || authorizedAddress[msg.sender], \"caller is not authorized\") */\n              tag_241\n              jumpi\n              mload(0x40)\n              0x08c379a000000000000000000000000000000000000000000000000000000000\n              dup2\n              mstore\n              0x04\n              add\n              dup1\n              dup1\n              0x20\n              add\n              dup3\n              dup2\n              sub\n              dup3\n              mstore\n              0x18\n              dup2\n              mstore\n              0x20\n              add\n              dup1\n              0x63616c6c6572206973206e6f7420617574686f72697a65640000000000000000\n              dup2\n              mstore\n              pop\n              0x20\n              add\n              swap2\n              pop\n              pop\n              mload(0x40)\n              dup1\n              swap2\n              sub\n              swap1\n              revert\n            tag_241:\n                /* \"AllContracts.sol\":15932:15945  _unplayedBets */\n              sload(0x14)\n                /* \"AllContracts.sol\":15921:15927  amount */\n              dup2\n                /* \"AllContracts.sol\":15897:15918  address(this).balance */\n              selfbalance\n                /* \"AllContracts.sol\":15897:15927  address(this).balance - amount */\n              sub\n                /* \"AllContracts.sol\":15896:15945  (address(this).balance - amount) >= _unplayedBets */\n              lt\n              iszero\n                /* \"AllContracts.sol\":15887:15978  require ((address(this).balance - amount) >= _unplayedBets, \"Can't withdraw unplayed bets\") */\n              tag_243\n              jumpi\n              mload(0x40)\n              0x08c379a000000000000000000000000000000000000000000000000000000000\n              dup2\n              mstore\n              0x04\n              add\n              dup1\n              dup1\n              0x20\n              add\n              dup3\n              dup2\n              sub\n              dup3\n              mstore\n              0x1c\n              dup2\n              mstore\n              0x20\n              add\n              dup1\n              0x43616e277420776974686472617720756e706c61796564206265747300000000\n              dup2\n              mstore\n              pop\n              0x20\n              add\n              swap2\n              pop\n              pop\n              mload(0x40)\n              dup1\n              swap2\n              sub\n              swap1\n              revert\n            tag_243:\n                /* \"AllContracts.sol\":15988:16001  payoutAddress */\n              0x16\n              0x00\n              swap1\n              sload\n              swap1\n              0x0100\n              exp\n              swap1\n              div\n              0xffffffffffffffffffffffffffffffffffffffff\n              and\n                /* \"AllContracts.sol\":15988:16010  payoutAddress.transfer */\n              0xffffffffffffffffffffffffffffffffffffffff\n              and\n                /* \"AllContracts.sol\":15988:16018  payoutAddress.transfer(amount) */\n              0x08fc\n                /* \"AllContracts.sol\":16011:16017  amount */\n              dup3\n                /* \"AllContracts.sol\":15988:16018  payoutAddress.transfer(amount) */\n              swap1\n              dup2\n              iszero\n              mul\n              swap1\n              mload(0x40)\n              0x00\n              mload(0x40)\n              dup1\n              dup4\n              sub\n              dup2\n              dup6\n              dup9\n              dup9\n              call\n              swap4\n              pop\n              pop\n              pop\n              pop\n              iszero\n                /* \"--CODEGEN--\":8:17   */\n              dup1\n                /* \"--CODEGEN--\":5:7   */\n              iszero\n              tag_245\n              jumpi\n                /* \"--CODEGEN--\":45:61   */\n              returndatasize\n                /* \"--CODEGEN--\":42:43   */\n              0x00\n                /* \"--CODEGEN--\":39:40   */\n              dup1\n                /* \"--CODEGEN--\":24:62   */\n              returndatacopy\n                /* \"--CODEGEN--\":77:93   */\n              returndatasize\n                /* \"--CODEGEN--\":74:75   */\n              0x00\n                /* \"--CODEGEN--\":67:94   */\n              revert\n                /* \"--CODEGEN--\":5:7   */\n            tag_245:\n                /* \"AllContracts.sol\":15988:16018  payoutAddress.transfer(amount) */\n              pop\n                /* \"AllContracts.sol\":15821:16025  function withdrawEth(uint amount) public onlyAuthorized {... */\n              pop\n              jump\t// out\n                /* \"AllContracts.sol\":9631:10390  function safeBetFor(address payable player, uint pick) public payable {... */\n            tag_130:\n                /* \"AllContracts.sol\":9719:9740  betPayable(msg.value) */\n              tag_247\n                /* \"AllContracts.sol\":9730:9739  msg.value */\n              callvalue\n                /* \"AllContracts.sol\":9719:9729  betPayable */\n              tag_248\n                /* \"AllContracts.sol\":9719:9740  betPayable(msg.value) */\n              jump\t// in\n            tag_247:\n                /* \"AllContracts.sol\":9711:9799  require(betPayable(msg.value), \"Contract has insufficint funds to payout possible win.\") */\n              tag_249\n              jumpi\n              mload(0x40)\n              0x08c379a000000000000000000000000000000000000000000000000000000000\n              dup2\n              mstore\n              0x04\n              add\n              dup1\n              dup1\n              0x20\n              add\n              dup3\n              dup2\n              sub\n              dup3\n              mstore\n              0x36\n              dup2\n              mstore\n              0x20\n              add\n              dup1\n              data_588b68a2a6ccdc15b2dae26a385280edec71bed95b5b14a24b760c56e4f665d6\n              0x36\n              swap2\n              codecopy\n              0x40\n              add\n              swap2\n              pop\n              pop\n              mload(0x40)\n              dup1\n              swap2\n              sub\n              swap1\n              revert\n            tag_249:\n                /* \"AllContracts.sol\":9825:9832  maxPick */\n              sload(0x11)\n                /* \"AllContracts.sol\":9817:9821  pick */\n              dup2\n                /* \"AllContracts.sol\":9817:9832  pick <= maxPick */\n              gt\n              iszero\n                /* \"AllContracts.sol\":9817:9844  pick <= maxPick && pick > 0 */\n              dup1\n              iszero\n              tag_250\n              jumpi\n              pop\n                /* \"AllContracts.sol\":9843:9844  0 */\n              0x00\n                /* \"AllContracts.sol\":9836:9840  pick */\n              dup2\n                /* \"AllContracts.sol\":9836:9844  pick > 0 */\n              gt\n                /* \"AllContracts.sol\":9817:9844  pick <= maxPick && pick > 0 */\n            tag_250:\n                /* \"AllContracts.sol\":9809:9875  require(pick <= maxPick && pick > 0, \"Outside of pickable bounds\") */\n              tag_251\n              jumpi\n              mload(0x40)\n              0x08c379a000000000000000000000000000000000000000000000000000000000\n              dup2\n              mstore\n              0x04\n              add\n              dup1\n              dup1\n              0x20\n              add\n              dup3\n              dup2\n              sub\n              dup3\n              mstore\n              0x1a\n              dup2\n              mstore\n              0x20\n              add\n              dup1\n              0x4f757473696465206f66207069636b61626c6520626f756e6473000000000000\n              dup2\n              mstore\n              pop\n              0x20\n              add\n              swap2\n              pop\n              pop\n              mload(0x40)\n              dup1\n              swap2\n              sub\n              swap1\n              revert\n            tag_251:\n                /* \"AllContracts.sol\":9893:9914  betInRange(msg.value) */\n              tag_252\n                /* \"AllContracts.sol\":9904:9913  msg.value */\n              callvalue\n                /* \"AllContracts.sol\":9893:9903  betInRange */\n              tag_253\n                /* \"AllContracts.sol\":9893:9914  betInRange(msg.value) */\n              jump\t// in\n            tag_252:\n                /* \"AllContracts.sol\":9885:9939  require(betInRange(msg.value),\"Outisde of bet range.\") */\n              tag_254\n              jumpi\n              mload(0x40)\n              0x08c379a000000000000000000000000000000000000000000000000000000000\n              dup2\n              mstore\n              0x04\n              add\n              dup1\n              dup1\n              0x20\n              add\n              dup3\n              dup2\n              sub\n              dup3\n              mstore\n              0x15\n              dup2\n              mstore\n              0x20\n              add\n              dup1\n              0x4f757469736465206f66206265742072616e67652e0000000000000000000000\n              dup2\n              mstore\n              pop\n              0x20\n              add\n              swap2\n              pop\n              pop\n              mload(0x40)\n              dup1\n              swap2\n              sub\n              swap1\n              revert\n            tag_254:\n                /* \"AllContracts.sol\":9961:9962  1 */\n              0x01\n                /* \"AllContracts.sol\":9953:9957  gas1 */\n              sload(0x06)\n                /* \"AllContracts.sol\":9953:9962  gas1 == 1 */\n              eq\n                /* \"AllContracts.sol\":9950:10252  if(gas1 == 1) {... */\n              iszero\n              tag_255\n              jumpi\n                /* \"AllContracts.sol\":9985:9989  gas1 */\n              0x06\n                /* \"AllContracts.sol\":9978:9989  delete gas1 */\n              0x00\n              swap1\n              sstore\n                /* \"AllContracts.sol\":10010:10014  gas2 */\n              0x07\n                /* \"AllContracts.sol\":10003:10014  delete gas2 */\n              0x00\n              swap1\n              sstore\n                /* \"AllContracts.sol\":10035:10039  gas3 */\n              0x08\n                /* \"AllContracts.sol\":10028:10039  delete gas3 */\n              0x00\n              swap1\n              sstore\n                /* \"AllContracts.sol\":10060:10064  gas4 */\n              0x09\n                /* \"AllContracts.sol\":10053:10064  delete gas4 */\n              0x00\n              swap1\n              sstore\n                /* \"AllContracts.sol\":10085:10089  gas5 */\n              0x0a\n                /* \"AllContracts.sol\":10078:10089  delete gas5 */\n              0x00\n              swap1\n              sstore\n                /* \"AllContracts.sol\":10110:10114  gas6 */\n              0x0b\n                /* \"AllContracts.sol\":10103:10114  delete gas6 */\n              0x00\n              swap1\n              sstore\n                /* \"AllContracts.sol\":10135:10139  gas7 */\n              0x0c\n                /* \"AllContracts.sol\":10128:10139  delete gas7 */\n              0x00\n              swap1\n              sstore\n                /* \"AllContracts.sol\":10160:10164  gas8 */\n              0x0d\n                /* \"AllContracts.sol\":10153:10164  delete gas8 */\n              0x00\n              swap1\n              sstore\n                /* \"AllContracts.sol\":10185:10189  gas9 */\n              0x0e\n                /* \"AllContracts.sol\":10178:10189  delete gas9 */\n              0x00\n              swap1\n              sstore\n                /* \"AllContracts.sol\":10210:10215  gas10 */\n              0x0f\n                /* \"AllContracts.sol\":10203:10215  delete gas10 */\n              0x00\n              swap1\n              sstore\n                /* \"AllContracts.sol\":10236:10241  gas11 */\n              0x10\n                /* \"AllContracts.sol\":10229:10241  delete gas11 */\n              0x00\n              swap1\n              sstore\n                /* \"AllContracts.sol\":9950:10252  if(gas1 == 1) {... */\n            tag_255:\n                /* \"AllContracts.sol\":10278:10306  _unplayedBets.add(msg.value) */\n              tag_256\n                /* \"AllContracts.sol\":10296:10305  msg.value */\n              callvalue\n                /* \"AllContracts.sol\":10278:10291  _unplayedBets */\n              sload(0x14)\n                /* \"AllContracts.sol\":10278:10295  _unplayedBets.add */\n              tag_212\n              swap1\n                /* \"AllContracts.sol\":10278:10306  _unplayedBets.add(msg.value) */\n              swap2\n              swap1\n              0xffffffff\n              and\n              jump\t// in\n            tag_256:\n                /* \"AllContracts.sol\":10262:10275  _unplayedBets */\n              0x14\n                /* \"AllContracts.sol\":10262:10306  _unplayedBets = _unplayedBets.add(msg.value) */\n              dup2\n              swap1\n              sstore\n              pop\n                /* \"AllContracts.sol\":10316:10351  createGame(player, msg.value, pick) */\n              tag_257\n                /* \"AllContracts.sol\":10327:10333  player */\n              dup3\n                /* \"AllContracts.sol\":10335:10344  msg.value */\n              callvalue\n                /* \"AllContracts.sol\":10346:10350  pick */\n              dup4\n                /* \"AllContracts.sol\":10316:10326  createGame */\n              tag_214\n                /* \"AllContracts.sol\":10316:10351  createGame(player, msg.value, pick) */\n              jump\t// in\n            tag_257:\n                /* \"AllContracts.sol\":10361:10383  playGame(_currentGame) */\n              tag_258\n                /* \"AllContracts.sol\":10370:10382  _currentGame */\n              sload(0x15)\n                /* \"AllContracts.sol\":10361:10369  playGame */\n              tag_216\n                /* \"AllContracts.sol\":10361:10383  playGame(_currentGame) */\n              jump\t// in\n            tag_258:\n                /* \"AllContracts.sol\":9631:10390  function safeBetFor(address payable player, uint pick) public payable {... */\n              pop\n              pop\n              jump\t// out\n                /* \"AllContracts.sol\":6603:6652  mapping(address => bool) public gasFreeBetAllowed */\n            tag_134:\n              mstore(0x20, 0x19)\n              dup1\n              0x00\n              mstore\n              keccak256(0x00, 0x40)\n              0x00\n              swap2\n              pop\n              sload\n              swap1\n              0x0100\n              exp\n              swap1\n              div\n              0xff\n              and\n              dup2\n              jump\t// out\n                /* \"AllContracts.sol\":1844:2084  function transferOwnership(address newOwner) public virtual onlyOwner {... */\n            tag_138:\n                /* \"AllContracts.sol\":1141:1153  _msgSender() */\n              tag_260\n                /* \"AllContracts.sol\":1141:1151  _msgSender */\n              tag_145\n                /* \"AllContracts.sol\":1141:1153  _msgSender() */\n              jump\t// in\n            tag_260:\n                /* \"AllContracts.sol\":1131:1153  _owner == _msgSender() */\n              0xffffffffffffffffffffffffffffffffffffffff\n              and\n                /* \"AllContracts.sol\":1131:1137  _owner */\n              0x03\n              0x00\n              swap1\n              sload\n              swap1\n              0x0100\n              exp\n              swap1\n              div\n              0xffffffffffffffffffffffffffffffffffffffff\n              and\n                /* \"AllContracts.sol\":1131:1153  _owner == _msgSender() */\n              0xffffffffffffffffffffffffffffffffffffffff\n              and\n              eq\n                /* \"AllContracts.sol\":1123:1190  require(_owner == _msgSender(), \"Ownable: caller is not the owner\") */\n              tag_261\n              jumpi\n              mload(0x40)\n              0x08c379a000000000000000000000000000000000000000000000000000000000\n              dup2\n              mstore\n              0x04\n              add\n              dup1\n              dup1\n              0x20\n              add\n              dup3\n              dup2\n              sub\n              dup3\n              mstore\n              0x20\n              dup2\n              mstore\n              0x20\n              add\n              dup1\n              0x4f776e61626c653a2063616c6c6572206973206e6f7420746865206f776e6572\n              dup2\n              mstore\n              pop\n              0x20\n              add\n              swap2\n              pop\n              pop\n              mload(0x40)\n              dup1\n              swap2\n              sub\n              swap1\n              revert\n            tag_261:\n                /* \"AllContracts.sol\":1952:1953  0 */\n              0x00\n                /* \"AllContracts.sol\":1932:1954  newOwner != address(0) */\n              0xffffffffffffffffffffffffffffffffffffffff\n              and\n                /* \"AllContracts.sol\":1932:1940  newOwner */\n              dup2\n                /* \"AllContracts.sol\":1932:1954  newOwner != address(0) */\n              0xffffffffffffffffffffffffffffffffffffffff\n              and\n              eq\n              iszero\n                /* \"AllContracts.sol\":1924:1997  require(newOwner != address(0), \"Ownable: new owner is the zero address\") */\n              tag_263\n              jumpi\n              mload(0x40)\n              0x08c379a000000000000000000000000000000000000000000000000000000000\n              dup2\n              mstore\n              0x04\n              add\n              dup1\n              dup1\n              0x20\n              add\n              dup3\n              dup2\n              sub\n              dup3\n              mstore\n              0x26\n              dup2\n              mstore\n              0x20\n              add\n              dup1\n              data_245f15ff17f551913a7a18385165551503906a406f905ac1c2437281a7cd0cfe\n              0x26\n              swap2\n              codecopy\n              0x40\n              add\n              swap2\n              pop\n              pop\n              mload(0x40)\n              dup1\n              swap2\n              sub\n              swap1\n              revert\n            tag_263:\n                /* \"AllContracts.sol\":2041:2049  newOwner */\n              dup1\n                /* \"AllContracts.sol\":2012:2050  OwnershipTransferred(_owner, newOwner) */\n              0xffffffffffffffffffffffffffffffffffffffff\n              and\n                /* \"AllContracts.sol\":2033:2039  _owner */\n              0x03\n              0x00\n              swap1\n              sload\n              swap1\n              0x0100\n              exp\n              swap1\n              div\n              0xffffffffffffffffffffffffffffffffffffffff\n              and\n                /* \"AllContracts.sol\":2012:2050  OwnershipTransferred(_owner, newOwner) */\n              0xffffffffffffffffffffffffffffffffffffffff\n              and\n              0x8be0079c531659141344cd1fd0a4f28419497f9722a3daafe3b4186f6b6457e0\n              mload(0x40)\n              mload(0x40)\n              dup1\n              swap2\n              sub\n              swap1\n              log3\n                /* \"AllContracts.sol\":2069:2077  newOwner */\n              dup1\n                /* \"AllContracts.sol\":2060:2066  _owner */\n              0x03\n              0x00\n                /* \"AllContracts.sol\":2060:2077  _owner = newOwner */\n              0x0100\n              exp\n              dup2\n              sload\n              dup2\n              0xffffffffffffffffffffffffffffffffffffffff\n              mul\n              not\n              and\n              swap1\n              dup4\n              0xffffffffffffffffffffffffffffffffffffffff\n              and\n              mul\n              or\n              swap1\n              sstore\n              pop\n                /* \"AllContracts.sol\":1844:2084  function transferOwnership(address newOwner) public virtual onlyOwner {... */\n              pop\n              jump\t// out\n                /* \"AllContracts.sol\":18637:18720  function replayGame(uint gameID) public onlyOwner {... */\n            tag_142:\n                /* \"AllContracts.sol\":1141:1153  _msgSender() */\n              tag_265\n                /* \"AllContracts.sol\":1141:1151  _msgSender */\n              tag_145\n                /* \"AllContracts.sol\":1141:1153  _msgSender() */\n              jump\t// in\n            tag_265:\n                /* \"AllContracts.sol\":1131:1153  _owner == _msgSender() */\n              0xffffffffffffffffffffffffffffffffffffffff\n              and\n                /* \"AllContracts.sol\":1131:1137  _owner */\n              0x03\n              0x00\n              swap1\n              sload\n              swap1\n              0x0100\n              exp\n              swap1\n              div\n              0xffffffffffffffffffffffffffffffffffffffff\n              and\n                /* \"AllContracts.sol\":1131:1153  _owner == _msgSender() */\n              0xffffffffffffffffffffffffffffffffffffffff\n              and\n              eq\n                /* \"AllContracts.sol\":1123:1190  require(_owner == _msgSender(), \"Ownable: caller is not the owner\") */\n              tag_266\n              jumpi\n              mload(0x40)\n              0x08c379a000000000000000000000000000000000000000000000000000000000\n              dup2\n              mstore\n              0x04\n              add\n              dup1\n              dup1\n              0x20\n              add\n              dup3\n              dup2\n              sub\n              dup3\n              mstore\n              0x20\n              dup2\n              mstore\n              0x20\n              add\n              dup1\n              0x4f776e61626c653a2063616c6c6572206973206e6f7420746865206f776e6572\n              dup2\n              mstore\n              pop\n              0x20\n              add\n              swap2\n              pop\n              pop\n              mload(0x40)\n              dup1\n              swap2\n              sub\n              swap1\n              revert\n            tag_266:\n                /* \"AllContracts.sol\":18697:18713  playGame(gameID) */\n              tag_268\n                /* \"AllContracts.sol\":18706:18712  gameID */\n              dup2\n                /* \"AllContracts.sol\":18697:18705  playGame */\n              tag_216\n                /* \"AllContracts.sol\":18697:18713  playGame(gameID) */\n              jump\t// in\n            tag_268:\n                /* \"AllContracts.sol\":18637:18720  function replayGame(uint gameID) public onlyOwner {... */\n              pop\n              jump\t// out\n                /* \"AllContracts.sol\":90:194  function _msgSender() internal view virtual returns (address payable) {... */\n            tag_145:\n                /* \"AllContracts.sol\":143:158  address payable */\n              0x00\n                /* \"AllContracts.sol\":177:187  msg.sender */\n              caller\n                /* \"AllContracts.sol\":170:187  return msg.sender */\n              swap1\n              pop\n                /* \"AllContracts.sol\":90:194  function _msgSender() internal view virtual returns (address payable) {... */\n              swap1\n              jump\t// out\n                /* \"AllContracts.sol\":12805:13929  function fulfillRandomness(bytes32 requestId, uint256 randomness) internal override {... */\n            tag_175:\n                /* \"AllContracts.sol\":12936:12950  Game storage g */\n              0x00\n                /* \"AllContracts.sol\":12953:12958  games */\n              0x1a\n                /* \"AllContracts.sol\":12953:12984  games[_gameRequests[requestId]] */\n              0x00\n                /* \"AllContracts.sol\":12959:12972  _gameRequests */\n              0x1b\n                /* \"AllContracts.sol\":12959:12983  _gameRequests[requestId] */\n              0x00\n                /* \"AllContracts.sol\":12973:12982  requestId */\n              dup7\n                /* \"AllContracts.sol\":12959:12983  _gameRequests[requestId] */\n              dup2\n              mstore\n              0x20\n              add\n              swap1\n              dup2\n              mstore\n              0x20\n              add\n              0x00\n              keccak256\n              sload\n                /* \"AllContracts.sol\":12953:12984  games[_gameRequests[requestId]] */\n              dup2\n              mstore\n              0x20\n              add\n              swap1\n              dup2\n              mstore\n              0x20\n              add\n              0x00\n              keccak256\n                /* \"AllContracts.sol\":12936:12984  Game storage g = games[_gameRequests[requestId]] */\n              swap1\n              pop\n                /* \"AllContracts.sol\":13004:13005  0 */\n              0x00\n                /* \"AllContracts.sol\":12997:12998  g */\n              dup2\n                /* \"AllContracts.sol\":12997:13001  g.id */\n              0x00\n              add\n              sload\n                /* \"AllContracts.sol\":12997:13005  g.id > 0 */\n              gt\n                /* \"AllContracts.sol\":12994:13723  if(g.id > 0){... */\n              iszero\n              tag_271\n              jumpi\n                /* \"AllContracts.sol\":13031:13037  maxBet */\n              sload(0x12)\n                /* \"AllContracts.sol\":13023:13024  g */\n              dup2\n                /* \"AllContracts.sol\":13023:13028  g.bet */\n              0x02\n              add\n              sload\n                /* \"AllContracts.sol\":13023:13037  g.bet > maxBet */\n              gt\n                /* \"AllContracts.sol\":13020:13086  if(g.bet > maxBet) {... */\n              iszero\n              tag_272\n              jumpi\n                /* \"AllContracts.sol\":13065:13071  maxBet */\n              sload(0x12)\n                /* \"AllContracts.sol\":13057:13058  g */\n              dup2\n                /* \"AllContracts.sol\":13057:13062  g.bet */\n              0x02\n              add\n                /* \"AllContracts.sol\":13057:13071  g.bet = maxBet */\n              dup2\n              swap1\n              sstore\n              pop\n                /* \"AllContracts.sol\":13020:13086  if(g.bet > maxBet) {... */\n            tag_272:\n                /* \"AllContracts.sol\":13099:13115  uint totalPayout */\n              0x00\n                /* \"AllContracts.sol\":13118:13146  g.bet.mul(payout).add(g.bet) */\n              tag_273\n                /* \"AllContracts.sol\":13140:13141  g */\n              dup3\n                /* \"AllContracts.sol\":13140:13145  g.bet */\n              0x02\n              add\n              sload\n                /* \"AllContracts.sol\":13118:13135  g.bet.mul(payout) */\n              tag_274\n                /* \"AllContracts.sol\":13128:13134  payout */\n              sload(0x17)\n                /* \"AllContracts.sol\":13118:13119  g */\n              dup6\n                /* \"AllContracts.sol\":13118:13123  g.bet */\n              0x02\n              add\n              sload\n                /* \"AllContracts.sol\":13118:13127  g.bet.mul */\n              tag_275\n              swap1\n                /* \"AllContracts.sol\":13118:13135  g.bet.mul(payout) */\n              swap2\n              swap1\n              0xffffffff\n              and\n              jump\t// in\n            tag_274:\n                /* \"AllContracts.sol\":13118:13139  g.bet.mul(payout).add */\n              tag_212\n              swap1\n                /* \"AllContracts.sol\":13118:13146  g.bet.mul(payout).add(g.bet) */\n              swap2\n              swap1\n              0xffffffff\n              and\n              jump\t// in\n            tag_273:\n                /* \"AllContracts.sol\":13099:13146  uint totalPayout = g.bet.mul(payout).add(g.bet) */\n              swap1\n              pop\n                /* \"AllContracts.sol\":13193:13204  totalPayout */\n              dup1\n                /* \"AllContracts.sol\":13168:13189  address(this).balance */\n              selfbalance\n                /* \"AllContracts.sol\":13168:13204  address(this).balance >= totalPayout */\n              lt\n              iszero\n                /* \"AllContracts.sol\":13160:13241  require(address(this).balance >= totalPayout, \"Contract balance too low to play\") */\n              tag_276\n              jumpi\n              mload(0x40)\n              0x08c379a000000000000000000000000000000000000000000000000000000000\n              dup2\n              mstore\n              0x04\n              add\n              dup1\n              dup1\n              0x20\n              add\n              dup3\n              dup2\n              sub\n              dup3\n              mstore\n              0x20\n              dup2\n              mstore\n              0x20\n              add\n              dup1\n              0x436f6e74726163742062616c616e636520746f6f206c6f7720746f20706c6179\n              dup2\n              mstore\n              pop\n              0x20\n              add\n              swap2\n              pop\n              pop\n              mload(0x40)\n              dup1\n              swap2\n              sub\n              swap1\n              revert\n            tag_276:\n                /* \"AllContracts.sol\":13267:13297  randomness.mod(maxPick).add(1) */\n              tag_277\n                /* \"AllContracts.sol\":13295:13296  1 */\n              0x01\n                /* \"AllContracts.sol\":13267:13290  randomness.mod(maxPick) */\n              tag_278\n                /* \"AllContracts.sol\":13282:13289  maxPick */\n              sload(0x11)\n                /* \"AllContracts.sol\":13267:13277  randomness */\n              dup7\n                /* \"AllContracts.sol\":13267:13281  randomness.mod */\n              tag_279\n              swap1\n                /* \"AllContracts.sol\":13267:13290  randomness.mod(maxPick) */\n              swap2\n              swap1\n              0xffffffff\n              and\n              jump\t// in\n            tag_278:\n                /* \"AllContracts.sol\":13267:13294  randomness.mod(maxPick).add */\n              tag_212\n              swap1\n                /* \"AllContracts.sol\":13267:13297  randomness.mod(maxPick).add(1) */\n              swap2\n              swap1\n              0xffffffff\n              and\n              jump\t// in\n            tag_277:\n                /* \"AllContracts.sol\":13256:13257  g */\n              dup3\n                /* \"AllContracts.sol\":13256:13264  g.winner */\n              0x04\n              add\n                /* \"AllContracts.sol\":13256:13297  g.winner = randomness.mod(maxPick).add(1) */\n              dup2\n              swap1\n              sstore\n              pop\n                /* \"AllContracts.sol\":13323:13327  true */\n              0x01\n                /* \"AllContracts.sol\":13312:13313  g */\n              dup3\n                /* \"AllContracts.sol\":13312:13320  g.played */\n              0x05\n              add\n              0x00\n                /* \"AllContracts.sol\":13312:13327  g.played = true */\n              0x0100\n              exp\n              dup2\n              sload\n              dup2\n              0xff\n              mul\n              not\n              and\n              swap1\n              dup4\n              iszero\n              iszero\n              mul\n              or\n              swap1\n              sstore\n              pop\n                /* \"AllContracts.sol\":13362:13363  g */\n              dup2\n                /* \"AllContracts.sol\":13362:13367  g.bet */\n              0x02\n              add\n              sload\n                /* \"AllContracts.sol\":13345:13358  _unplayedBets */\n              sload(0x14)\n                /* \"AllContracts.sol\":13345:13367  _unplayedBets >= g.bet */\n              lt\n                /* \"AllContracts.sol\":13342:13480  if(_unplayedBets >= g.bet) {... */\n              tag_280\n              jumpi\n                /* \"AllContracts.sol\":13404:13405  g */\n              dup2\n                /* \"AllContracts.sol\":13404:13409  g.bet */\n              0x02\n              add\n              sload\n                /* \"AllContracts.sol\":13387:13400  _unplayedBets */\n              0x14\n              0x00\n                /* \"AllContracts.sol\":13387:13409  _unplayedBets -= g.bet */\n              dup3\n              dup3\n              sload\n              sub\n              swap3\n              pop\n              pop\n              dup2\n              swap1\n              sstore\n              pop\n                /* \"AllContracts.sol\":13342:13480  if(_unplayedBets >= g.bet) {... */\n              jump(tag_281)\n            tag_280:\n                /* \"AllContracts.sol\":13464:13465  0 */\n              0x00\n                /* \"AllContracts.sol\":13448:13461  _unplayedBets */\n              0x14\n                /* \"AllContracts.sol\":13448:13465  _unplayedBets = 0 */\n              dup2\n              swap1\n              sstore\n              pop\n                /* \"AllContracts.sol\":13342:13480  if(_unplayedBets >= g.bet) {... */\n            tag_281:\n                /* \"AllContracts.sol\":13508:13509  g */\n              dup2\n                /* \"AllContracts.sol\":13508:13516  g.winner */\n              0x04\n              add\n              sload\n                /* \"AllContracts.sol\":13498:13499  g */\n              dup3\n                /* \"AllContracts.sol\":13498:13504  g.pick */\n              0x03\n              add\n              sload\n                /* \"AllContracts.sol\":13498:13516  g.pick == g.winner */\n              eq\n                /* \"AllContracts.sol\":13494:13635  if (g.pick == g.winner) {... */\n              iszero\n              tag_282\n              jumpi\n                /* \"AllContracts.sol\":13536:13537  g */\n              dup2\n                /* \"AllContracts.sol\":13536:13544  g.player */\n              0x01\n              add\n              0x00\n              swap1\n              sload\n              swap1\n              0x0100\n              exp\n              swap1\n              div\n              0xffffffffffffffffffffffffffffffffffffffff\n              and\n                /* \"AllContracts.sol\":13536:13553  g.player.transfer */\n              0xffffffffffffffffffffffffffffffffffffffff\n              and\n                /* \"AllContracts.sol\":13536:13566  g.player.transfer(totalPayout) */\n              0x08fc\n                /* \"AllContracts.sol\":13554:13565  totalPayout */\n              dup3\n                /* \"AllContracts.sol\":13536:13566  g.player.transfer(totalPayout) */\n              swap1\n              dup2\n              iszero\n              mul\n              swap1\n              mload(0x40)\n              0x00\n              mload(0x40)\n              dup1\n              dup4\n              sub\n              dup2\n              dup6\n              dup9\n              dup9\n              call\n              swap4\n              pop\n              pop\n              pop\n              pop\n              iszero\n                /* \"--CODEGEN--\":8:17   */\n              dup1\n                /* \"--CODEGEN--\":5:7   */\n              iszero\n              tag_284\n              jumpi\n                /* \"--CODEGEN--\":45:61   */\n              returndatasize\n                /* \"--CODEGEN--\":42:43   */\n              0x00\n                /* \"--CODEGEN--\":39:40   */\n              dup1\n                /* \"--CODEGEN--\":24:62   */\n              returndatacopy\n                /* \"--CODEGEN--\":77:93   */\n              returndatasize\n                /* \"--CODEGEN--\":74:75   */\n              0x00\n                /* \"--CODEGEN--\":67:94   */\n              revert\n                /* \"--CODEGEN--\":5:7   */\n            tag_284:\n                /* \"AllContracts.sol\":13536:13566  g.player.transfer(totalPayout) */\n              pop\n                /* \"AllContracts.sol\":13494:13635  if (g.pick == g.winner) {... */\n              jump(tag_285)\n            tag_282:\n                /* \"AllContracts.sol\":13619:13620  0 */\n              0x00\n                /* \"AllContracts.sol\":13605:13620  totalPayout = 0 */\n              swap1\n              pop\n                /* \"AllContracts.sol\":13494:13635  if (g.pick == g.winner) {... */\n            tag_285:\n                /* \"AllContracts.sol\":13654:13712  GamePlayed(g.player, g.bet, g.pick, g.winner, totalPayout) */\n              0xc06600d6399308f270bc6ae70d5377121b685c974bb7f7355824fddd8a2b3497\n                /* \"AllContracts.sol\":13665:13666  g */\n              dup3\n                /* \"AllContracts.sol\":13665:13673  g.player */\n              0x01\n              add\n              0x00\n              swap1\n              sload\n              swap1\n              0x0100\n              exp\n              swap1\n              div\n              0xffffffffffffffffffffffffffffffffffffffff\n              and\n                /* \"AllContracts.sol\":13675:13676  g */\n              dup4\n                /* \"AllContracts.sol\":13675:13680  g.bet */\n              0x02\n              add\n              sload\n                /* \"AllContracts.sol\":13682:13683  g */\n              dup5\n                /* \"AllContracts.sol\":13682:13688  g.pick */\n              0x03\n              add\n              sload\n                /* \"AllContracts.sol\":13690:13691  g */\n              dup6\n                /* \"AllContracts.sol\":13690:13698  g.winner */\n              0x04\n              add\n              sload\n                /* \"AllContracts.sol\":13700:13711  totalPayout */\n              dup6\n                /* \"AllContracts.sol\":13654:13712  GamePlayed(g.player, g.bet, g.pick, g.winner, totalPayout) */\n              mload(0x40)\n              dup1\n              dup7\n              0xffffffffffffffffffffffffffffffffffffffff\n              and\n              0xffffffffffffffffffffffffffffffffffffffff\n              and\n              dup2\n              mstore\n              0x20\n              add\n              dup6\n              dup2\n              mstore\n              0x20\n              add\n              dup5\n              dup2\n              mstore\n              0x20\n              add\n              dup4\n              dup2\n              mstore\n              0x20\n              add\n              dup3\n              dup2\n              mstore\n              0x20\n              add\n              swap6\n              pop\n              pop\n              pop\n              pop\n              pop\n              pop\n              mload(0x40)\n              dup1\n              swap2\n              sub\n              swap1\n              log1\n                /* \"AllContracts.sol\":12994:13723  if(g.id > 0){... */\n              pop\n            tag_271:\n                /* \"AllContracts.sol\":13739:13740  1 */\n              0x01\n                /* \"AllContracts.sol\":13732:13736  gas1 */\n              0x06\n                /* \"AllContracts.sol\":13732:13740  gas1 = 1 */\n              dup2\n              swap1\n              sstore\n              pop\n                /* \"AllContracts.sol\":13757:13758  1 */\n              0x01\n                /* \"AllContracts.sol\":13750:13754  gas2 */\n              0x07\n                /* \"AllContracts.sol\":13750:13758  gas2 = 1 */\n              dup2\n              swap1\n              sstore\n              pop\n                /* \"AllContracts.sol\":13775:13776  1 */\n              0x01\n                /* \"AllContracts.sol\":13768:13772  gas3 */\n              0x08\n                /* \"AllContracts.sol\":13768:13776  gas3 = 1 */\n              dup2\n              swap1\n              sstore\n              pop\n                /* \"AllContracts.sol\":13793:13794  1 */\n              0x01\n                /* \"AllContracts.sol\":13786:13790  gas4 */\n              0x09\n                /* \"AllContracts.sol\":13786:13794  gas4 = 1 */\n              dup2\n              swap1\n              sstore\n              pop\n                /* \"AllContracts.sol\":13811:13812  1 */\n              0x01\n                /* \"AllContracts.sol\":13804:13808  gas5 */\n              0x0a\n                /* \"AllContracts.sol\":13804:13812  gas5 = 1 */\n              dup2\n              swap1\n              sstore\n              pop\n                /* \"AllContracts.sol\":13829:13830  1 */\n              0x01\n                /* \"AllContracts.sol\":13822:13826  gas6 */\n              0x0b\n                /* \"AllContracts.sol\":13822:13830  gas6 = 1 */\n              dup2\n              swap1\n              sstore\n              pop\n                /* \"AllContracts.sol\":13847:13848  1 */\n              0x01\n                /* \"AllContracts.sol\":13840:13844  gas7 */\n              0x0c\n                /* \"AllContracts.sol\":13840:13848  gas7 = 1 */\n              dup2\n              swap1\n              sstore\n              pop\n                /* \"AllContracts.sol\":13865:13866  1 */\n              0x01\n                /* \"AllContracts.sol\":13858:13862  gas8 */\n              0x0d\n                /* \"AllContracts.sol\":13858:13866  gas8 = 1 */\n              dup2\n              swap1\n              sstore\n              pop\n                /* \"AllContracts.sol\":13883:13884  1 */\n              0x01\n                /* \"AllContracts.sol\":13876:13880  gas9 */\n              0x0e\n                /* \"AllContracts.sol\":13876:13884  gas9 = 1 */\n              dup2\n              swap1\n              sstore\n              pop\n                /* \"AllContracts.sol\":13902:13903  1 */\n              0x01\n                /* \"AllContracts.sol\":13894:13899  gas10 */\n              0x0f\n                /* \"AllContracts.sol\":13894:13903  gas10 = 1 */\n              dup2\n              swap1\n              sstore\n              pop\n                /* \"AllContracts.sol\":13921:13922  1 */\n              0x01\n                /* \"AllContracts.sol\":13913:13918  gas11 */\n              0x10\n                /* \"AllContracts.sol\":13913:13922  gas11 = 1 */\n              dup2\n              swap1\n              sstore\n              pop\n                /* \"AllContracts.sol\":12805:13929  function fulfillRandomness(bytes32 requestId, uint256 randomness) internal override {... */\n              pop\n              pop\n              pop\n              jump\t// out\n                /* \"AllContracts.sol\":2119:2281  function add(uint256 a, uint256 b) internal pure returns (uint256) {... */\n            tag_212:\n                /* \"AllContracts.sol\":2177:2184  uint256 */\n              0x00\n                /* \"AllContracts.sol\":2192:2201  uint256 c */\n              dup1\n                /* \"AllContracts.sol\":2208:2209  b */\n              dup3\n                /* \"AllContracts.sol\":2204:2205  a */\n              dup5\n                /* \"AllContracts.sol\":2204:2209  a + b */\n              add\n                /* \"AllContracts.sol\":2192:2209  uint256 c = a + b */\n              swap1\n              pop\n                /* \"AllContracts.sol\":2228:2229  a */\n              dup4\n                /* \"AllContracts.sol\":2223:2224  c */\n              dup2\n                /* \"AllContracts.sol\":2223:2229  c >= a */\n              lt\n              iszero\n                /* \"AllContracts.sol\":2215:2261  require(c >= a, \"SafeMath: addition overflow\") */\n              tag_287\n              jumpi\n              mload(0x40)\n              0x08c379a000000000000000000000000000000000000000000000000000000000\n              dup2\n              mstore\n              0x04\n              add\n              dup1\n              dup1\n              0x20\n              add\n              dup3\n              dup2\n              sub\n              dup3\n              mstore\n              0x1b\n              dup2\n              mstore\n              0x20\n              add\n              dup1\n              0x536166654d6174683a206164646974696f6e206f766572666c6f770000000000\n              dup2\n              mstore\n              pop\n              0x20\n              add\n              swap2\n              pop\n              pop\n              mload(0x40)\n              dup1\n              swap2\n              sub\n              swap1\n              revert\n            tag_287:\n                /* \"AllContracts.sol\":2275:2276  c */\n              dup1\n                /* \"AllContracts.sol\":2268:2276  return c */\n              swap2\n              pop\n              pop\n                /* \"AllContracts.sol\":2119:2281  function add(uint256 a, uint256 b) internal pure returns (uint256) {... */\n              swap3\n              swap2\n              pop\n              pop\n              jump\t// out\n                /* \"AllContracts.sol\":11047:11419  function createGame(address payable _player, uint _bet, uint _pick) internal {... */\n            tag_214:\n                /* \"AllContracts.sol\":11150:11169  _currentGame.add(1) */\n              tag_289\n                /* \"AllContracts.sol\":11167:11168  1 */\n              0x01\n                /* \"AllContracts.sol\":11150:11162  _currentGame */\n              sload(0x15)\n                /* \"AllContracts.sol\":11150:11166  _currentGame.add */\n              tag_212\n              swap1\n                /* \"AllContracts.sol\":11150:11169  _currentGame.add(1) */\n              swap2\n              swap1\n              0xffffffff\n              and\n              jump\t// in\n            tag_289:\n                /* \"AllContracts.sol\":11135:11147  _currentGame */\n              0x15\n                /* \"AllContracts.sol\":11135:11169  _currentGame = _currentGame.add(1) */\n              dup2\n              swap1\n              sstore\n              pop\n                /* \"AllContracts.sol\":11179:11198  Game memory newGame */\n              tag_290\n              tag_291\n              jump\t// in\n            tag_290:\n                /* \"AllContracts.sol\":11201:11375  Game ({... */\n              mload(0x40)\n              dup1\n              0xc0\n              add\n              0x40\n              mstore\n              dup1\n                /* \"AllContracts.sol\":11225:11237  _currentGame */\n              sload(0x15)\n                /* \"AllContracts.sol\":11201:11375  Game ({... */\n              dup2\n              mstore\n              0x20\n              add\n                /* \"AllContracts.sol\":11259:11266  _player */\n              dup6\n                /* \"AllContracts.sol\":11201:11375  Game ({... */\n              0xffffffffffffffffffffffffffffffffffffffff\n              and\n              dup2\n              mstore\n              0x20\n              add\n                /* \"AllContracts.sol\":11285:11289  _bet */\n              dup5\n                /* \"AllContracts.sol\":11201:11375  Game ({... */\n              dup2\n              mstore\n              0x20\n              add\n                /* \"AllContracts.sol\":11309:11314  _pick */\n              dup4\n                /* \"AllContracts.sol\":11201:11375  Game ({... */\n              dup2\n              mstore\n              0x20\n              add\n                /* \"AllContracts.sol\":11336:11337  0 */\n              0x00\n                /* \"AllContracts.sol\":11201:11375  Game ({... */\n              dup2\n              mstore\n              0x20\n              add\n                /* \"AllContracts.sol\":11359:11364  false */\n              0x00\n                /* \"AllContracts.sol\":11201:11375  Game ({... */\n              iszero\n              iszero\n              dup2\n              mstore\n              pop\n                /* \"AllContracts.sol\":11179:11375  Game memory newGame = Game ({... */\n              swap1\n              pop\n                /* \"AllContracts.sol\":11405:11412  newGame */\n              dup1\n                /* \"AllContracts.sol\":11385:11390  games */\n              0x1a\n                /* \"AllContracts.sol\":11385:11402  games[newGame.id] */\n              0x00\n                /* \"AllContracts.sol\":11391:11398  newGame */\n              dup4\n                /* \"AllContracts.sol\":11391:11401  newGame.id */\n              0x00\n              add\n              mload\n                /* \"AllContracts.sol\":11385:11402  games[newGame.id] */\n              dup2\n              mstore\n              0x20\n              add\n              swap1\n              dup2\n              mstore\n              0x20\n              add\n              0x00\n              keccak256\n                /* \"AllContracts.sol\":11385:11412  games[newGame.id] = newGame */\n              0x00\n              dup3\n              add\n              mload\n              dup2\n              0x00\n              add\n              sstore\n              0x20\n              dup3\n              add\n              mload\n              dup2\n              0x01\n              add\n              exp(0x0100, 0x00)\n              dup2\n              sload\n              dup2\n              0xffffffffffffffffffffffffffffffffffffffff\n              mul\n              not\n              and\n              swap1\n              dup4\n              0xffffffffffffffffffffffffffffffffffffffff\n              and\n              mul\n              or\n              swap1\n              sstore\n              pop\n              0x40\n              dup3\n              add\n              mload\n              dup2\n              0x02\n              add\n              sstore\n              0x60\n              dup3\n              add\n              mload\n              dup2\n              0x03\n              add\n              sstore\n              0x80\n              dup3\n              add\n              mload\n              dup2\n              0x04\n              add\n              sstore\n              0xa0\n              dup3\n              add\n              mload\n              dup2\n              0x05\n              add\n              exp(0x0100, 0x00)\n              dup2\n              sload\n              dup2\n              0xff\n              mul\n              not\n              and\n              swap1\n              dup4\n              iszero\n              iszero\n              mul\n              or\n              swap1\n              sstore\n              pop\n              swap1\n              pop\n              pop\n                /* \"AllContracts.sol\":11047:11419  function createGame(address payable _player, uint _bet, uint _pick) internal {... */\n              pop\n              pop\n              pop\n              pop\n              jump\t// out\n                /* \"AllContracts.sol\":12061:12270  function playGame(uint gameID) internal {... */\n            tag_216:\n                /* \"AllContracts.sol\":12143:12148  false */\n              0x00\n                /* \"AllContracts.sol\":12119:12148  games[gameID].played == false */\n              iszero\n              iszero\n                /* \"AllContracts.sol\":12119:12124  games */\n              0x1a\n                /* \"AllContracts.sol\":12119:12132  games[gameID] */\n              0x00\n                /* \"AllContracts.sol\":12125:12131  gameID */\n              dup4\n                /* \"AllContracts.sol\":12119:12132  games[gameID] */\n              dup2\n              mstore\n              0x20\n              add\n              swap1\n              dup2\n              mstore\n              0x20\n              add\n              0x00\n              keccak256\n                /* \"AllContracts.sol\":12119:12139  games[gameID].played */\n              0x05\n              add\n              0x00\n              swap1\n              sload\n              swap1\n              0x0100\n              exp\n              swap1\n              div\n              0xff\n              and\n                /* \"AllContracts.sol\":12119:12148  games[gameID].played == false */\n              iszero\n              iszero\n              eq\n                /* \"AllContracts.sol\":12111:12172  require(games[gameID].played == false, \"game already played\") */\n              tag_293\n              jumpi\n              mload(0x40)\n              0x08c379a000000000000000000000000000000000000000000000000000000000\n              dup2\n              mstore\n              0x04\n              add\n              dup1\n              dup1\n              0x20\n              add\n              dup3\n              dup2\n              sub\n              dup3\n              mstore\n              0x13\n              dup2\n              mstore\n              0x20\n              add\n              dup1\n              0x67616d6520616c726561647920706c6179656400000000000000000000000000\n              dup2\n              mstore\n              pop\n              0x20\n              add\n              swap2\n              pop\n              pop\n              mload(0x40)\n              dup1\n              swap2\n              sub\n              swap1\n              revert\n            tag_293:\n                /* \"AllContracts.sol\":12182:12195  bytes32 reqID */\n              0x00\n                /* \"AllContracts.sol\":12198:12224  getRandomNumber(getSeed()) */\n              tag_294\n                /* \"AllContracts.sol\":12214:12223  getSeed() */\n              tag_295\n                /* \"AllContracts.sol\":12214:12221  getSeed */\n              tag_296\n                /* \"AllContracts.sol\":12214:12223  getSeed() */\n              jump\t// in\n            tag_295:\n                /* \"AllContracts.sol\":12198:12213  getRandomNumber */\n              tag_297\n                /* \"AllContracts.sol\":12198:12224  getRandomNumber(getSeed()) */\n              jump\t// in\n            tag_294:\n                /* \"AllContracts.sol\":12182:12224  bytes32 reqID = getRandomNumber(getSeed()) */\n              swap1\n              pop\n                /* \"AllContracts.sol\":12257:12263  gameID */\n              dup2\n                /* \"AllContracts.sol\":12234:12247  _gameRequests */\n              0x1b\n                /* \"AllContracts.sol\":12234:12254  _gameRequests[reqID] */\n              0x00\n                /* \"AllContracts.sol\":12248:12253  reqID */\n              dup4\n                /* \"AllContracts.sol\":12234:12254  _gameRequests[reqID] */\n              dup2\n              mstore\n              0x20\n              add\n              swap1\n              dup2\n              mstore\n              0x20\n              add\n              0x00\n              keccak256\n                /* \"AllContracts.sol\":12234:12263  _gameRequests[reqID] = gameID */\n              dup2\n              swap1\n              sstore\n              pop\n                /* \"AllContracts.sol\":12061:12270  function playGame(uint gameID) internal {... */\n              pop\n              pop\n              jump\t// out\n                /* \"AllContracts.sol\":2285:2450  function sub(uint256 a, uint256 b) internal pure returns (uint256) {... */\n            tag_222:\n                /* \"AllContracts.sol\":2343:2350  uint256 */\n              0x00\n                /* \"AllContracts.sol\":2371:2372  a */\n              dup3\n                /* \"AllContracts.sol\":2366:2367  b */\n              dup3\n                /* \"AllContracts.sol\":2366:2372  b <= a */\n              gt\n              iszero\n                /* \"AllContracts.sol\":2358:2407  require(b <= a, \"SafeMath: subtraction overflow\") */\n              tag_299\n              jumpi\n              mload(0x40)\n              0x08c379a000000000000000000000000000000000000000000000000000000000\n              dup2\n              mstore\n              0x04\n              add\n              dup1\n              dup1\n              0x20\n              add\n              dup3\n              dup2\n              sub\n              dup3\n              mstore\n              0x1e\n              dup2\n              mstore\n              0x20\n              add\n              dup1\n              0x536166654d6174683a207375627472616374696f6e206f766572666c6f770000\n              dup2\n              mstore\n              pop\n              0x20\n              add\n              swap2\n              pop\n              pop\n              mload(0x40)\n              dup1\n              swap2\n              sub\n              swap1\n              revert\n            tag_299:\n                /* \"AllContracts.sol\":2413:2422  uint256 c */\n              0x00\n                /* \"AllContracts.sol\":2429:2430  b */\n              dup3\n                /* \"AllContracts.sol\":2425:2426  a */\n              dup5\n                /* \"AllContracts.sol\":2425:2430  a - b */\n              sub\n                /* \"AllContracts.sol\":2413:2430  uint256 c = a - b */\n              swap1\n              pop\n                /* \"AllContracts.sol\":2444:2445  c */\n              dup1\n                /* \"AllContracts.sol\":2437:2445  return c */\n              swap2\n              pop\n              pop\n                /* \"AllContracts.sol\":2285:2450  function sub(uint256 a, uint256 b) internal pure returns (uint256) {... */\n              swap3\n              swap2\n              pop\n              pop\n              jump\t// out\n                /* \"AllContracts.sol\":8565:8716  function betPayable(uint bet) internal view returns(bool){... */\n            tag_248:\n                /* \"AllContracts.sol\":8617:8621  bool */\n              0x00\n                /* \"AllContracts.sol\":8684:8708  bet.mul(payout).add(bet) */\n              tag_301\n                /* \"AllContracts.sol\":8704:8707  bet */\n              dup3\n                /* \"AllContracts.sol\":8684:8699  bet.mul(payout) */\n              tag_302\n                /* \"AllContracts.sol\":8692:8698  payout */\n              sload(0x17)\n                /* \"AllContracts.sol\":8684:8687  bet */\n              dup6\n                /* \"AllContracts.sol\":8684:8691  bet.mul */\n              tag_275\n              swap1\n                /* \"AllContracts.sol\":8684:8699  bet.mul(payout) */\n              swap2\n              swap1\n              0xffffffff\n              and\n              jump\t// in\n            tag_302:\n                /* \"AllContracts.sol\":8684:8703  bet.mul(payout).add */\n              tag_212\n              swap1\n                /* \"AllContracts.sol\":8684:8708  bet.mul(payout).add(bet) */\n              swap2\n              swap1\n              0xffffffff\n              and\n              jump\t// in\n            tag_301:\n                /* \"AllContracts.sol\":8640:8680  address(this).balance.sub(_unplayedBets) */\n              tag_303\n                /* \"AllContracts.sol\":8666:8679  _unplayedBets */\n              sload(0x14)\n                /* \"AllContracts.sol\":8640:8661  address(this).balance */\n              selfbalance\n                /* \"AllContracts.sol\":8640:8665  address(this).balance.sub */\n              tag_222\n              swap1\n                /* \"AllContracts.sol\":8640:8680  address(this).balance.sub(_unplayedBets) */\n              swap2\n              swap1\n              0xffffffff\n              and\n              jump\t// in\n            tag_303:\n                /* \"AllContracts.sol\":8640:8708  address(this).balance.sub(_unplayedBets) >= bet.mul(payout).add(bet) */\n              lt\n              iszero\n                /* \"AllContracts.sol\":8632:8709  return (address(this).balance.sub(_unplayedBets) >= bet.mul(payout).add(bet)) */\n              swap1\n              pop\n                /* \"AllContracts.sol\":8565:8716  function betPayable(uint bet) internal view returns(bool){... */\n              swap2\n              swap1\n              pop\n              jump\t// out\n                /* \"AllContracts.sol\":8202:8390  function betInRange(uint bet) internal view returns(bool){... */\n            tag_253:\n                /* \"AllContracts.sol\":8254:8258  bool */\n              0x00\n                /* \"AllContracts.sol\":8280:8286  minBet */\n              sload(0x13)\n                /* \"AllContracts.sol\":8273:8276  bet */\n              dup3\n                /* \"AllContracts.sol\":8273:8286  bet >= minBet */\n              lt\n              iszero\n                /* \"AllContracts.sol\":8273:8303  bet >= minBet && bet <= maxBet */\n              dup1\n              iszero\n              tag_305\n              jumpi\n              pop\n                /* \"AllContracts.sol\":8297:8303  maxBet */\n              sload(0x12)\n                /* \"AllContracts.sol\":8290:8293  bet */\n              dup3\n                /* \"AllContracts.sol\":8290:8303  bet <= maxBet */\n              gt\n              iszero\n                /* \"AllContracts.sol\":8273:8303  bet >= minBet && bet <= maxBet */\n            tag_305:\n                /* \"AllContracts.sol\":8269:8384  if (bet >= minBet && bet <= maxBet) {... */\n              iszero\n              tag_306\n              jumpi\n                /* \"AllContracts.sol\":8326:8330  true */\n              0x01\n                /* \"AllContracts.sol\":8319:8330  return true */\n              swap1\n              pop\n              jump(tag_304)\n                /* \"AllContracts.sol\":8269:8384  if (bet >= minBet && bet <= maxBet) {... */\n            tag_306:\n                /* \"AllContracts.sol\":8368:8373  false */\n              0x00\n                /* \"AllContracts.sol\":8361:8373  return false */\n              swap1\n              pop\n                /* \"AllContracts.sol\":8202:8390  function betInRange(uint bet) internal view returns(bool){... */\n            tag_304:\n              swap2\n              swap1\n              pop\n              jump\t// out\n                /* \"AllContracts.sol\":2454:2668  function mul(uint256 a, uint256 b) internal pure returns (uint256) {... */\n            tag_275:\n                /* \"AllContracts.sol\":2512:2519  uint256 */\n              0x00\n                /* \"AllContracts.sol\":2537:2538  0 */\n              dup1\n                /* \"AllContracts.sol\":2532:2533  a */\n              dup4\n                /* \"AllContracts.sol\":2532:2538  a == 0 */\n              eq\n                /* \"AllContracts.sol\":2528:2563  if (a == 0) {... */\n              iszero\n              tag_309\n              jumpi\n                /* \"AllContracts.sol\":2555:2556  0 */\n              0x00\n                /* \"AllContracts.sol\":2548:2556  return 0 */\n              swap1\n              pop\n              jump(tag_308)\n                /* \"AllContracts.sol\":2528:2563  if (a == 0) {... */\n            tag_309:\n                /* \"AllContracts.sol\":2569:2578  uint256 c */\n              0x00\n                /* \"AllContracts.sol\":2585:2586  b */\n              dup3\n                /* \"AllContracts.sol\":2581:2582  a */\n              dup5\n                /* \"AllContracts.sol\":2581:2586  a * b */\n              mul\n                /* \"AllContracts.sol\":2569:2586  uint256 c = a * b */\n              swap1\n              pop\n                /* \"AllContracts.sol\":2609:2610  b */\n              dup3\n                /* \"AllContracts.sol\":2604:2605  a */\n              dup5\n                /* \"AllContracts.sol\":2600:2601  c */\n              dup3\n                /* \"AllContracts.sol\":2600:2605  c / a */\n              dup2\n              tag_310\n              jumpi\n              invalid\n            tag_310:\n              div\n                /* \"AllContracts.sol\":2600:2610  c / a == b */\n              eq\n                /* \"AllContracts.sol\":2592:2648  require(c / a == b, \"SafeMath: multiplication overflow\") */\n              tag_311\n              jumpi\n              mload(0x40)\n              0x08c379a000000000000000000000000000000000000000000000000000000000\n              dup2\n              mstore\n              0x04\n              add\n              dup1\n              dup1\n              0x20\n              add\n              dup3\n              dup2\n              sub\n              dup3\n              mstore\n              0x21\n              dup2\n              mstore\n              0x20\n              add\n              dup1\n              data_9113bb53c2876a3805b2c9242029423fc540a728243ce887ab24c82cf119fba3\n              0x21\n              swap2\n              codecopy\n              0x40\n              add\n              swap2\n              pop\n              pop\n              mload(0x40)\n              dup1\n              swap2\n              sub\n              swap1\n              revert\n            tag_311:\n                /* \"AllContracts.sol\":2662:2663  c */\n              dup1\n                /* \"AllContracts.sol\":2655:2663  return c */\n              swap2\n              pop\n              pop\n                /* \"AllContracts.sol\":2454:2668  function mul(uint256 a, uint256 b) internal pure returns (uint256) {... */\n            tag_308:\n              swap3\n              swap2\n              pop\n              pop\n              jump\t// out\n                /* \"AllContracts.sol\":2980:3119  function mod(uint256 a, uint256 b) internal pure returns (uint256) {... */\n            tag_279:\n                /* \"AllContracts.sol\":3038:3045  uint256 */\n              0x00\n                /* \"AllContracts.sol\":3066:3067  0 */\n              dup1\n                /* \"AllContracts.sol\":3061:3062  b */\n              dup3\n                /* \"AllContracts.sol\":3061:3067  b != 0 */\n              eq\n              iszero\n                /* \"AllContracts.sol\":3053:3096  require(b != 0, \"SafeMath: modulo by zero\") */\n              tag_313\n              jumpi\n              mload(0x40)\n              0x08c379a000000000000000000000000000000000000000000000000000000000\n              dup2\n              mstore\n              0x04\n              add\n              dup1\n              dup1\n              0x20\n              add\n              dup3\n              dup2\n              sub\n              dup3\n              mstore\n              0x18\n              dup2\n              mstore\n              0x20\n              add\n              dup1\n              0x536166654d6174683a206d6f64756c6f206279207a65726f0000000000000000\n              dup2\n              mstore\n              pop\n              0x20\n              add\n              swap2\n              pop\n              pop\n              mload(0x40)\n              dup1\n              swap2\n              sub\n              swap1\n              revert\n            tag_313:\n                /* \"AllContracts.sol\":3113:3114  b */\n              dup2\n                /* \"AllContracts.sol\":3109:3110  a */\n              dup4\n                /* \"AllContracts.sol\":3109:3114  a % b */\n              dup2\n              tag_314\n              jumpi\n              invalid\n            tag_314:\n              mod\n                /* \"AllContracts.sol\":3102:3114  return a % b */\n              swap1\n              pop\n                /* \"AllContracts.sol\":2980:3119  function mod(uint256 a, uint256 b) internal pure returns (uint256) {... */\n              swap3\n              swap2\n              pop\n              pop\n              jump\t// out\n                /* \"AllContracts.sol\":11500:11692  function getSeed() internal view returns(uint256) {... */\n            tag_296:\n                /* \"AllContracts.sol\":11541:11548  uint256 */\n              0x00\n                /* \"AllContracts.sol\":11560:11573  Game memory g */\n              tag_316\n              tag_291\n              jump\t// in\n            tag_316:\n                /* \"AllContracts.sol\":11576:11581  games */\n              0x1a\n                /* \"AllContracts.sol\":11576:11595  games[_currentGame] */\n              0x00\n                /* \"AllContracts.sol\":11582:11594  _currentGame */\n              sload(0x15)\n                /* \"AllContracts.sol\":11576:11595  games[_currentGame] */\n              dup2\n              mstore\n              0x20\n              add\n              swap1\n              dup2\n              mstore\n              0x20\n              add\n              0x00\n              keccak256\n                /* \"AllContracts.sol\":11560:11595  Game memory g = games[_currentGame] */\n              mload(0x40)\n              dup1\n              0xc0\n              add\n              0x40\n              mstore\n              swap1\n              dup2\n              0x00\n              dup3\n              add\n              sload\n              dup2\n              mstore\n              0x20\n              add\n              0x01\n              dup3\n              add\n              0x00\n              swap1\n              sload\n              swap1\n              0x0100\n              exp\n              swap1\n              div\n              0xffffffffffffffffffffffffffffffffffffffff\n              and\n              0xffffffffffffffffffffffffffffffffffffffff\n              and\n              0xffffffffffffffffffffffffffffffffffffffff\n              and\n              dup2\n              mstore\n              0x20\n              add\n              0x02\n              dup3\n              add\n              sload\n              dup2\n              mstore\n              0x20\n              add\n              0x03\n              dup3\n              add\n              sload\n              dup2\n              mstore\n              0x20\n              add\n              0x04\n              dup3\n              add\n              sload\n              dup2\n              mstore\n              0x20\n              add\n              0x05\n              dup3\n              add\n              0x00\n              swap1\n              sload\n              swap1\n              0x0100\n              exp\n              swap1\n              div\n              0xff\n              and\n              iszero\n              iszero\n              iszero\n              iszero\n              dup2\n              mstore\n              pop\n              pop\n              swap1\n              pop\n                /* \"AllContracts.sol\":11644:11656  block.number */\n              number\n                /* \"AllContracts.sol\":11658:11661  now */\n              timestamp\n                /* \"AllContracts.sol\":11663:11664  g */\n              dup3\n                /* \"AllContracts.sol\":11663:11669  g.pick */\n              0x60\n              add\n              mload\n                /* \"AllContracts.sol\":11671:11672  g */\n              dup4\n                /* \"AllContracts.sol\":11671:11676  g.bet */\n              0x40\n              add\n              mload\n                /* \"AllContracts.sol\":11678:11679  g */\n              dup5\n                /* \"AllContracts.sol\":11678:11682  g.id */\n              0x00\n              add\n              mload\n                /* \"AllContracts.sol\":11627:11683  abi.encodePacked(block.number, now, g.pick, g.bet, g.id) */\n              add(0x20, mload(0x40))\n              dup1\n              dup7\n              dup2\n              mstore\n              0x20\n              add\n              dup6\n              dup2\n              mstore\n              0x20\n              add\n              dup5\n              dup2\n              mstore\n              0x20\n              add\n              dup4\n              dup2\n              mstore\n              0x20\n              add\n              dup3\n              dup2\n              mstore\n              0x20\n              add\n              swap6\n              pop\n              pop\n              pop\n              pop\n              pop\n              pop\n              mload(0x40)\n                /* \"--CODEGEN--\":49:53   */\n              0x20\n                /* \"--CODEGEN--\":39:46   */\n              dup2\n                /* \"--CODEGEN--\":30:37   */\n              dup4\n                /* \"--CODEGEN--\":26:47   */\n              sub\n                /* \"--CODEGEN--\":22:54   */\n              sub\n                /* \"--CODEGEN--\":13:20   */\n              dup2\n                /* \"--CODEGEN--\":6:55   */\n              mstore\n                /* \"AllContracts.sol\":11627:11683  abi.encodePacked(block.number, now, g.pick, g.bet, g.id) */\n              swap1\n              0x40\n              mstore\n                /* \"AllContracts.sol\":11617:11684  keccak256(abi.encodePacked(block.number, now, g.pick, g.bet, g.id)) */\n              dup1\n              mload\n              swap1\n              0x20\n              add\n              keccak256\n                /* \"AllContracts.sol\":11612:11685  uint(keccak256(abi.encodePacked(block.number, now, g.pick, g.bet, g.id))) */\n              0x00\n              shr\n                /* \"AllContracts.sol\":11605:11685  return uint(keccak256(abi.encodePacked(block.number, now, g.pick, g.bet, g.id))) */\n              swap2\n              pop\n              pop\n                /* \"AllContracts.sol\":11500:11692  function getSeed() internal view returns(uint256) {... */\n              swap1\n              jump\t// out\n                /* \"AllContracts.sol\":12402:12612  function getRandomNumber(uint256 seed) internal returns (bytes32 requestId) {... */\n            tag_297:\n                /* \"AllContracts.sol\":12459:12476  bytes32 requestId */\n              0x00\n                /* \"AllContracts.sol\":12528:12531  fee */\n              sload(0x05)\n                /* \"AllContracts.sol\":12496:12500  LINK */\n              0x00\n              dup1\n              swap1\n              sload\n              swap1\n              0x0100\n              exp\n              swap1\n              div\n              0xffffffffffffffffffffffffffffffffffffffff\n              and\n                /* \"AllContracts.sol\":12496:12510  LINK.balanceOf */\n              0xffffffffffffffffffffffffffffffffffffffff\n              and\n              0x70a08231\n                /* \"AllContracts.sol\":12519:12523  this */\n              address\n                /* \"AllContracts.sol\":12496:12525  LINK.balanceOf(address(this)) */\n              mload(0x40)\n              dup3\n              0xffffffff\n              and\n              0xe0\n              shl\n              dup2\n              mstore\n              0x04\n              add\n              dup1\n              dup3\n              0xffffffffffffffffffffffffffffffffffffffff\n              and\n              0xffffffffffffffffffffffffffffffffffffffff\n              and\n              dup2\n              mstore\n              0x20\n              add\n              swap2\n              pop\n              pop\n              0x20\n              mload(0x40)\n              dup1\n              dup4\n              sub\n              dup2\n              dup7\n              dup1\n              extcodesize\n              iszero\n                /* \"--CODEGEN--\":8:17   */\n              dup1\n                /* \"--CODEGEN--\":5:7   */\n              iszero\n              tag_318\n              jumpi\n                /* \"--CODEGEN--\":30:31   */\n              0x00\n                /* \"--CODEGEN--\":27:28   */\n              dup1\n                /* \"--CODEGEN--\":20:32   */\n              revert\n                /* \"--CODEGEN--\":5:7   */\n            tag_318:\n                /* \"AllContracts.sol\":12496:12525  LINK.balanceOf(address(this)) */\n              pop\n              gas\n              staticcall\n              iszero\n                /* \"--CODEGEN--\":8:17   */\n              dup1\n                /* \"--CODEGEN--\":5:7   */\n              iszero\n              tag_320\n              jumpi\n                /* \"--CODEGEN--\":45:61   */\n              returndatasize\n                /* \"--CODEGEN--\":42:43   */\n              0x00\n                /* \"--CODEGEN--\":39:40   */\n              dup1\n                /* \"--CODEGEN--\":24:62   */\n              returndatacopy\n                /* \"--CODEGEN--\":77:93   */\n              returndatasize\n                /* \"--CODEGEN--\":74:75   */\n              0x00\n                /* \"--CODEGEN--\":67:94   */\n              revert\n                /* \"--CODEGEN--\":5:7   */\n            tag_320:\n                /* \"AllContracts.sol\":12496:12525  LINK.balanceOf(address(this)) */\n              pop\n              pop\n              pop\n              pop\n              mload(0x40)\n              returndatasize\n                /* \"--CODEGEN--\":13:15   */\n              0x20\n                /* \"--CODEGEN--\":8:11   */\n              dup2\n                /* \"--CODEGEN--\":5:16   */\n              lt\n                /* \"--CODEGEN--\":2:4   */\n              iszero\n              tag_321\n              jumpi\n                /* \"--CODEGEN--\":29:30   */\n              0x00\n                /* \"--CODEGEN--\":26:27   */\n              dup1\n                /* \"--CODEGEN--\":19:31   */\n              revert\n                /* \"--CODEGEN--\":2:4   */\n            tag_321:\n                /* \"AllContracts.sol\":12496:12525  LINK.balanceOf(address(this)) */\n              dup2\n              add\n              swap1\n              dup1\n              dup1\n              mload\n              swap1\n              0x20\n              add\n              swap1\n              swap3\n              swap2\n              swap1\n              pop\n              pop\n              pop\n                /* \"AllContracts.sol\":12496:12531  LINK.balanceOf(address(this)) > fee */\n              gt\n                /* \"AllContracts.sol\":12488:12551  require(LINK.balanceOf(address(this)) > fee, \"Not enough LINK\") */\n              tag_322\n              jumpi\n              mload(0x40)\n              0x08c379a000000000000000000000000000000000000000000000000000000000\n              dup2\n              mstore\n              0x04\n              add\n              dup1\n              dup1\n              0x20\n              add\n              dup3\n              dup2\n              sub\n              dup3\n              mstore\n              0x0f\n              dup2\n              mstore\n              0x20\n              add\n              dup1\n              0x4e6f7420656e6f756768204c494e4b0000000000000000000000000000000000\n              dup2\n              mstore\n              pop\n              0x20\n              add\n              swap2\n              pop\n              pop\n              mload(0x40)\n              dup1\n              swap2\n              sub\n              swap1\n              revert\n            tag_322:\n                /* \"AllContracts.sol\":12568:12605  requestRandomness(keyHash, fee, seed) */\n              tag_323\n                /* \"AllContracts.sol\":12586:12593  keyHash */\n              sload(0x04)\n                /* \"AllContracts.sol\":12595:12598  fee */\n              sload(0x05)\n                /* \"AllContracts.sol\":12600:12604  seed */\n              dup5\n                /* \"AllContracts.sol\":12568:12585  requestRandomness */\n              tag_324\n                /* \"AllContracts.sol\":12568:12605  requestRandomness(keyHash, fee, seed) */\n              jump\t// in\n            tag_323:\n                /* \"AllContracts.sol\":12561:12605  return requestRandomness(keyHash, fee, seed) */\n              swap1\n              pop\n                /* \"AllContracts.sol\":12402:12612  function getRandomNumber(uint256 seed) internal returns (bytes32 requestId) {... */\n              swap2\n              swap1\n              pop\n              jump\t// out\n                /* \"AllContracts.sol\":4790:5175  function requestRandomness(bytes32 _keyHash, uint256 _fee, uint256 _seed)... */\n            tag_324:\n                /* \"AllContracts.sol\":4886:4903  bytes32 requestId */\n              0x00\n                /* \"AllContracts.sol\":4913:4917  LINK */\n              dup1\n              0x00\n              swap1\n              sload\n              swap1\n              0x0100\n              exp\n              swap1\n              div\n              0xffffffffffffffffffffffffffffffffffffffff\n              and\n                /* \"AllContracts.sol\":4913:4933  LINK.transferAndCall */\n              0xffffffffffffffffffffffffffffffffffffffff\n              and\n              0x4000aea0\n                /* \"AllContracts.sol\":4934:4948  vrfCoordinator */\n              0x01\n              0x00\n              swap1\n              sload\n              swap1\n              0x0100\n              exp\n              swap1\n              div\n              0xffffffffffffffffffffffffffffffffffffffff\n              and\n                /* \"AllContracts.sol\":4950:4954  _fee */\n              dup6\n                /* \"AllContracts.sol\":4967:4975  _keyHash */\n              dup8\n                /* \"AllContracts.sol\":4977:4982  _seed */\n              dup7\n                /* \"AllContracts.sol\":4956:4983  abi.encode(_keyHash, _seed) */\n              add(0x20, mload(0x40))\n              dup1\n              dup4\n              dup2\n              mstore\n              0x20\n              add\n              dup3\n              dup2\n              mstore\n              0x20\n              add\n              swap3\n              pop\n              pop\n              pop\n              mload(0x40)\n                /* \"--CODEGEN--\":49:53   */\n              0x20\n                /* \"--CODEGEN--\":39:46   */\n              dup2\n                /* \"--CODEGEN--\":30:37   */\n              dup4\n                /* \"--CODEGEN--\":26:47   */\n              sub\n                /* \"--CODEGEN--\":22:54   */\n              sub\n                /* \"--CODEGEN--\":13:20   */\n              dup2\n                /* \"--CODEGEN--\":6:55   */\n              mstore\n                /* \"AllContracts.sol\":4956:4983  abi.encode(_keyHash, _seed) */\n              swap1\n              0x40\n              mstore\n                /* \"AllContracts.sol\":4913:4984  LINK.transferAndCall(vrfCoordinator, _fee, abi.encode(_keyHash, _seed)) */\n              mload(0x40)\n              dup5\n              0xffffffff\n              and\n              0xe0\n              shl\n              dup2\n              mstore\n              0x04\n              add\n              dup1\n              dup5\n              0xffffffffffffffffffffffffffffffffffffffff\n              and\n              0xffffffffffffffffffffffffffffffffffffffff\n              and\n              dup2\n              mstore\n              0x20\n              add\n              dup4\n              dup2\n              mstore\n              0x20\n              add\n              dup1\n              0x20\n              add\n              dup3\n              dup2\n              sub\n              dup3\n              mstore\n              dup4\n              dup2\n              dup2\n              mload\n              dup2\n              mstore\n              0x20\n              add\n              swap2\n              pop\n              dup1\n              mload\n              swap1\n              0x20\n              add\n              swap1\n              dup1\n              dup4\n              dup4\n                /* \"--CODEGEN--\":23:24   */\n              0x00\n                /* \"--CODEGEN--\":8:108   */\n            tag_326:\n                /* \"--CODEGEN--\":33:36   */\n              dup4\n                /* \"--CODEGEN--\":30:31   */\n              dup2\n                /* \"--CODEGEN--\":27:37   */\n              lt\n                /* \"--CODEGEN--\":8:108   */\n              iszero\n              tag_328\n              jumpi\n                /* \"--CODEGEN--\":99:100   */\n              dup1\n                /* \"--CODEGEN--\":94:97   */\n              dup3\n                /* \"--CODEGEN--\":90:101   */\n              add\n                /* \"--CODEGEN--\":84:102   */\n              mload\n                /* \"--CODEGEN--\":80:81   */\n              dup2\n                /* \"--CODEGEN--\":75:78   */\n              dup5\n                /* \"--CODEGEN--\":71:82   */\n              add\n                /* \"--CODEGEN--\":64:103   */\n              mstore\n                /* \"--CODEGEN--\":52:54   */\n              0x20\n                /* \"--CODEGEN--\":49:50   */\n              dup2\n                /* \"--CODEGEN--\":45:55   */\n              add\n                /* \"--CODEGEN--\":40:55   */\n              swap1\n              pop\n                /* \"--CODEGEN--\":8:108   */\n              jump(tag_326)\n            tag_328:\n                /* \"--CODEGEN--\":12:26   */\n              pop\n                /* \"AllContracts.sol\":4913:4984  LINK.transferAndCall(vrfCoordinator, _fee, abi.encode(_keyHash, _seed)) */\n              pop\n              pop\n              pop\n              swap1\n              pop\n              swap1\n              dup2\n              add\n              swap1\n              0x1f\n              and\n              dup1\n              iszero\n              tag_329\n              jumpi\n              dup1\n              dup3\n              sub\n              dup1\n              mload\n              0x01\n              dup4\n              0x20\n              sub\n              0x0100\n              exp\n              sub\n              not\n              and\n              dup2\n              mstore\n              0x20\n              add\n              swap2\n              pop\n            tag_329:\n              pop\n              swap5\n              pop\n              pop\n              pop\n              pop\n              pop\n              0x20\n              mload(0x40)\n              dup1\n              dup4\n              sub\n              dup2\n              0x00\n              dup8\n              dup1\n              extcodesize\n              iszero\n                /* \"--CODEGEN--\":8:17   */\n              dup1\n                /* \"--CODEGEN--\":5:7   */\n              iszero\n              tag_330\n              jumpi\n                /* \"--CODEGEN--\":30:31   */\n              0x00\n                /* \"--CODEGEN--\":27:28   */\n              dup1\n                /* \"--CODEGEN--\":20:32   */\n              revert\n                /* \"--CODEGEN--\":5:7   */\n            tag_330:\n                /* \"AllContracts.sol\":4913:4984  LINK.transferAndCall(vrfCoordinator, _fee, abi.encode(_keyHash, _seed)) */\n              pop\n              gas\n              call\n              iszero\n                /* \"--CODEGEN--\":8:17   */\n              dup1\n                /* \"--CODEGEN--\":5:7   */\n              iszero\n              tag_332\n              jumpi\n                /* \"--CODEGEN--\":45:61   */\n              returndatasize\n                /* \"--CODEGEN--\":42:43   */\n              0x00\n                /* \"--CODEGEN--\":39:40   */\n              dup1\n                /* \"--CODEGEN--\":24:62   */\n              returndatacopy\n                /* \"--CODEGEN--\":77:93   */\n              returndatasize\n                /* \"--CODEGEN--\":74:75   */\n              0x00\n                /* \"--CODEGEN--\":67:94   */\n              revert\n                /* \"--CODEGEN--\":5:7   */\n            tag_332:\n                /* \"AllContracts.sol\":4913:4984  LINK.transferAndCall(vrfCoordinator, _fee, abi.encode(_keyHash, _seed)) */\n              pop\n              pop\n              pop\n              pop\n              mload(0x40)\n              returndatasize\n                /* \"--CODEGEN--\":13:15   */\n              0x20\n                /* \"--CODEGEN--\":8:11   */\n              dup2\n                /* \"--CODEGEN--\":5:16   */\n              lt\n                /* \"--CODEGEN--\":2:4   */\n              iszero\n              tag_333\n              jumpi\n                /* \"--CODEGEN--\":29:30   */\n              0x00\n                /* \"--CODEGEN--\":26:27   */\n              dup1\n                /* \"--CODEGEN--\":19:31   */\n              revert\n                /* \"--CODEGEN--\":2:4   */\n            tag_333:\n                /* \"AllContracts.sol\":4913:4984  LINK.transferAndCall(vrfCoordinator, _fee, abi.encode(_keyHash, _seed)) */\n              dup2\n              add\n              swap1\n              dup1\n              dup1\n              mload\n              swap1\n              0x20\n              add\n              swap1\n              swap3\n              swap2\n              swap1\n              pop\n              pop\n              pop\n              pop\n                /* \"AllContracts.sol\":4991:5006  uint256 vRFSeed */\n              0x00\n                /* \"AllContracts.sol\":5010:5076  makeVRFInputSeed(_keyHash, _seed, address(this), nonces[_keyHash]) */\n              tag_334\n                /* \"AllContracts.sol\":5027:5035  _keyHash */\n              dup6\n                /* \"AllContracts.sol\":5037:5042  _seed */\n              dup5\n                /* \"AllContracts.sol\":5052:5056  this */\n              address\n                /* \"AllContracts.sol\":5059:5065  nonces */\n              0x02\n                /* \"AllContracts.sol\":5059:5075  nonces[_keyHash] */\n              0x00\n                /* \"AllContracts.sol\":5066:5074  _keyHash */\n              dup11\n                /* \"AllContracts.sol\":5059:5075  nonces[_keyHash] */\n              dup2\n              mstore\n              0x20\n              add\n              swap1\n              dup2\n              mstore\n              0x20\n              add\n              0x00\n              keccak256\n              sload\n                /* \"AllContracts.sol\":5010:5026  makeVRFInputSeed */\n              tag_335\n                /* \"AllContracts.sol\":5010:5076  makeVRFInputSeed(_keyHash, _seed, address(this), nonces[_keyHash]) */\n              jump\t// in\n            tag_334:\n                /* \"AllContracts.sol\":4991:5076  uint256 vRFSeed  = makeVRFInputSeed(_keyHash, _seed, address(this), nonces[_keyHash]) */\n              swap1\n              pop\n                /* \"AllContracts.sol\":5102:5125  nonces[_keyHash].add(1) */\n              tag_336\n                /* \"AllContracts.sol\":5123:5124  1 */\n              0x01\n                /* \"AllContracts.sol\":5102:5108  nonces */\n              0x02\n                /* \"AllContracts.sol\":5102:5118  nonces[_keyHash] */\n              0x00\n                /* \"AllContracts.sol\":5109:5117  _keyHash */\n              dup9\n                /* \"AllContracts.sol\":5102:5118  nonces[_keyHash] */\n              dup2\n              mstore\n              0x20\n              add\n              swap1\n              dup2\n              mstore\n              0x20\n              add\n              0x00\n              keccak256\n              sload\n                /* \"AllContracts.sol\":5102:5122  nonces[_keyHash].add */\n              tag_212\n              swap1\n                /* \"AllContracts.sol\":5102:5125  nonces[_keyHash].add(1) */\n              swap2\n              swap1\n              0xffffffff\n              and\n              jump\t// in\n            tag_336:\n                /* \"AllContracts.sol\":5083:5089  nonces */\n              0x02\n                /* \"AllContracts.sol\":5083:5099  nonces[_keyHash] */\n              0x00\n                /* \"AllContracts.sol\":5090:5098  _keyHash */\n              dup8\n                /* \"AllContracts.sol\":5083:5099  nonces[_keyHash] */\n              dup2\n              mstore\n              0x20\n              add\n              swap1\n              dup2\n              mstore\n              0x20\n              add\n              0x00\n              keccak256\n                /* \"AllContracts.sol\":5083:5125  nonces[_keyHash] = nonces[_keyHash].add(1) */\n              dup2\n              swap1\n              sstore\n              pop\n                /* \"AllContracts.sol\":5138:5170  makeRequestId(_keyHash, vRFSeed) */\n              tag_337\n                /* \"AllContracts.sol\":5152:5160  _keyHash */\n              dup6\n                /* \"AllContracts.sol\":5162:5169  vRFSeed */\n              dup3\n                /* \"AllContracts.sol\":5138:5151  makeRequestId */\n              tag_338\n                /* \"AllContracts.sol\":5138:5170  makeRequestId(_keyHash, vRFSeed) */\n              jump\t// in\n            tag_337:\n                /* \"AllContracts.sol\":5131:5170  return makeRequestId(_keyHash, vRFSeed) */\n              swap2\n              pop\n              pop\n                /* \"AllContracts.sol\":4790:5175  function requestRandomness(bytes32 _keyHash, uint256 _fee, uint256 _seed)... */\n              swap4\n              swap3\n              pop\n              pop\n              pop\n              jump\t// out\n                /* \"AllContracts.sol\":3154:3385  function makeVRFInputSeed(bytes32 _keyHash, uint256 _userSeed,... */\n            tag_335:\n                /* \"AllContracts.sol\":3284:3291  uint256 */\n              0x00\n                /* \"AllContracts.sol\":3338:3346  _keyHash */\n              dup5\n                /* \"AllContracts.sol\":3348:3357  _userSeed */\n              dup5\n                /* \"AllContracts.sol\":3359:3369  _requester */\n              dup5\n                /* \"AllContracts.sol\":3371:3377  _nonce */\n              dup5\n                /* \"AllContracts.sol\":3327:3378  abi.encode(_keyHash, _userSeed, _requester, _nonce) */\n              add(0x20, mload(0x40))\n              dup1\n              dup6\n              dup2\n              mstore\n              0x20\n              add\n              dup5\n              dup2\n              mstore\n              0x20\n              add\n              dup4\n              0xffffffffffffffffffffffffffffffffffffffff\n              and\n              0xffffffffffffffffffffffffffffffffffffffff\n              and\n              dup2\n              mstore\n              0x20\n              add\n              dup3\n              dup2\n              mstore\n              0x20\n              add\n              swap5\n              pop\n              pop\n              pop\n              pop\n              pop\n              mload(0x40)\n                /* \"--CODEGEN--\":49:53   */\n              0x20\n                /* \"--CODEGEN--\":39:46   */\n              dup2\n                /* \"--CODEGEN--\":30:37   */\n              dup4\n                /* \"--CODEGEN--\":26:47   */\n              sub\n                /* \"--CODEGEN--\":22:54   */\n              sub\n                /* \"--CODEGEN--\":13:20   */\n              dup2\n                /* \"--CODEGEN--\":6:55   */\n              mstore\n                /* \"AllContracts.sol\":3327:3378  abi.encode(_keyHash, _userSeed, _requester, _nonce) */\n              swap1\n              0x40\n              mstore\n                /* \"AllContracts.sol\":3317:3379  keccak256(abi.encode(_keyHash, _userSeed, _requester, _nonce)) */\n              dup1\n              mload\n              swap1\n              0x20\n              add\n              keccak256\n                /* \"AllContracts.sol\":3309:3380  uint256(keccak256(abi.encode(_keyHash, _userSeed, _requester, _nonce))) */\n              0x00\n              shr\n                /* \"AllContracts.sol\":3301:3380  return  uint256(keccak256(abi.encode(_keyHash, _userSeed, _requester, _nonce))) */\n              swap1\n              pop\n                /* \"AllContracts.sol\":3154:3385  function makeVRFInputSeed(bytes32 _keyHash, uint256 _userSeed,... */\n              swap5\n              swap4\n              pop\n              pop\n              pop\n              pop\n              jump\t// out\n                /* \"AllContracts.sol\":3389:3560  function makeRequestId(... */\n            tag_338:\n                /* \"AllContracts.sol\":3481:3488  bytes32 */\n              0x00\n                /* \"AllContracts.sol\":3530:3538  _keyHash */\n              dup3\n                /* \"AllContracts.sol\":3540:3553  _vRFInputSeed */\n              dup3\n                /* \"AllContracts.sol\":3513:3554  abi.encodePacked(_keyHash, _vRFInputSeed) */\n              add(0x20, mload(0x40))\n              dup1\n              dup4\n              dup2\n              mstore\n              0x20\n              add\n              dup3\n              dup2\n              mstore\n              0x20\n              add\n              swap3\n              pop\n              pop\n              pop\n              mload(0x40)\n                /* \"--CODEGEN--\":49:53   */\n              0x20\n                /* \"--CODEGEN--\":39:46   */\n              dup2\n                /* \"--CODEGEN--\":30:37   */\n              dup4\n                /* \"--CODEGEN--\":26:47   */\n              sub\n                /* \"--CODEGEN--\":22:54   */\n              sub\n                /* \"--CODEGEN--\":13:20   */\n              dup2\n                /* \"--CODEGEN--\":6:55   */\n              mstore\n                /* \"AllContracts.sol\":3513:3554  abi.encodePacked(_keyHash, _vRFInputSeed) */\n              swap1\n              0x40\n              mstore\n                /* \"AllContracts.sol\":3503:3555  keccak256(abi.encodePacked(_keyHash, _vRFInputSeed)) */\n              dup1\n              mload\n              swap1\n              0x20\n              add\n              keccak256\n                /* \"AllContracts.sol\":3496:3555  return keccak256(abi.encodePacked(_keyHash, _vRFInputSeed)) */\n              swap1\n              pop\n                /* \"AllContracts.sol\":3389:3560  function makeRequestId(... */\n              swap3\n              swap2\n              pop\n              pop\n              jump\t// out\n                /* \"AllContracts.sol\":5733:18722  contract LuckyMachine is VRFConsumerBase, Ownable {... */\n            tag_291:\n              mload(0x40)\n              dup1\n              0xc0\n              add\n              0x40\n              mstore\n              dup1\n              0x00\n              dup2\n              mstore\n              0x20\n              add\n              and(0xffffffffffffffffffffffffffffffffffffffff, 0x00)\n              dup2\n              mstore\n              0x20\n              add\n              0x00\n              dup2\n              mstore\n              0x20\n              add\n              0x00\n              dup2\n              mstore\n              0x20\n              add\n              0x00\n              dup2\n              mstore\n              0x20\n              add\n              iszero(iszero(0x00))\n              dup2\n              mstore\n              pop\n              swap1\n              jump\t// out\n            stop\n            data_245f15ff17f551913a7a18385165551503906a406f905ac1c2437281a7cd0cfe 4f776e61626c653a206e6577206f776e657220697320746865207a65726f2061646472657373\n            data_588b68a2a6ccdc15b2dae26a385280edec71bed95b5b14a24b760c56e4f665d6 436f6e74726163742068617320696e737566666963696e742066756e647320746f207061796f757420706f737369626c652077696e2e\n            data_9113bb53c2876a3805b2c9242029423fc540a728243ce887ab24c82cf119fba3 536166654d6174683a206d756c7469706c69636174696f6e206f766572666c6f77\n            data_b719f220e413600c7e92ed4736b96c6908e0428122610fe965fcc60eefeedbad 436f6e74726163742062616c616e636520746f6f206c6f772e20506c656173652074727920616761696e206c617465722e\n            data_c34c85fa0e0680ac47dc2c21fdf93b1adcc71d9a1a3b3b1788b881c3f4f390ac 47616d6520616c726561647920636f6d706c6574652e204e6f20726566756e6420706f737369626c652e\n\n            auxdata: 0xa2646970667358221220481de6b9a86a74bf42137236c71dfc8f31ecea041f344a889227d4fd8922a60364736f6c63430006000033\n        }\n    }\n\n    auxdata: 0xa2646970667358221220c003d6505c2060ebc2c785d6bb2e7847f770064feac10923b60dd056443e263264736f6c63430006000033\n}\n","bytecode":{"linkReferences":{},"object":"608060405234801561001057600080fd5b50613b3e806100206000396000f3fe608060405234801561001057600080fd5b50600436106100415760003560e01c806306373b9a146100465780634d42845c146100d257806352b07b3414610140575b600080fd5b6100906004803603608081101561005c57600080fd5b810190808035906020019092919080359060200190929190803590602001909291908035906020019092919050505061019f565b604051808273ffffffffffffffffffffffffffffffffffffffff1673ffffffffffffffffffffffffffffffffffffffff16815260200191505060405180910390f35b6100fe600480360360208110156100e857600080fd5b8101908080359060200190929190505050610330565b604051808273ffffffffffffffffffffffffffffffffffffffff1673ffffffffffffffffffffffffffffffffffffffff16815260200191505060405180910390f35b61014861036c565b6040518080602001828103825283818151815260200191508051906020019060200280838360005b8381101561018b578082015181840152602081019050610170565b505050509050019250505060405180910390f35b60008033868686866040516101b3906103fa565b808673ffffffffffffffffffffffffffffffffffffffff1673ffffffffffffffffffffffffffffffffffffffff16815260200185815260200184815260200183815260200182815260200195505050505050604051809103906000f080158015610221573d6000803e3d6000fd5b5090508073ffffffffffffffffffffffffffffffffffffffff1663f2fde38b336040518263ffffffff1660e01b8152600401808273ffffffffffffffffffffffffffffffffffffffff1673ffffffffffffffffffffffffffffffffffffffff168152602001915050600060405180830381600087803b1580156102a357600080fd5b505af11580156102b7573d6000803e3d6000fd5b5050505060008190506000819080600181540180825580915050600190039060005260206000200160009091909190916101000a81548173ffffffffffffffffffffffffffffffffffffffff021916908373ffffffffffffffffffffffffffffffffffffffff1602179055508092505050949350505050565b6000818154811061033d57fe5b906000526020600020016000915054906101000a900473ffffffffffffffffffffffffffffffffffffffff1681565b606060008054806020026020016040519081016040528092919081815260200182805480156103f057602002820191906000526020600020905b8160009054906101000a900473ffffffffffffffffffffffffffffffffffffffff1673ffffffffffffffffffffffffffffffffffffffff16815260200190600101908083116103a6575b5050505050905090565b613701806104088339019056fe60806040523480156200001157600080fd5b506040516200370138038062003701833981810160405260a08110156200003757600080fd5b81019080805190602001909291908051906020019092919080519060200190929190805190602001909291908051906020019092919050505073dd3782915140c8f3b190b5d67eac6dc5760c46e973a36085f69e2889c224210f603d836748e7dc008881600160006101000a81548173ffffffffffffffffffffffffffffffffffffffff021916908373ffffffffffffffffffffffffffffffffffffffff160217905550806000806101000a81548173ffffffffffffffffffffffffffffffffffffffff021916908373ffffffffffffffffffffffffffffffffffffffff160217905550505060006200012f620002d760201b60201c565b905080600360006101000a81548173ffffffffffffffffffffffffffffffffffffffff021916908373ffffffffffffffffffffffffffffffffffffffff1602179055508073ffffffffffffffffffffffffffffffffffffffff16600073ffffffffffffffffffffffffffffffffffffffff167f8be0079c531659141344cd1fd0a4f28419497f9722a3daafe3b4186f6b6457e060405160405180910390a3507f6c3699283bda56ad74f6b855546325b68d482e983852a7a82979cc4807b641f460001b60048190555067016345785d8a00006005819055506001601581905550600060148190555084601660006101000a81548173ffffffffffffffffffffffffffffffffffffffff021916908373ffffffffffffffffffffffffffffffffffffffff1602179055508260138190555083601281905550816011819055508060178190555060016006819055506001600781905550600160088190555060016009819055506001600a819055506001600b819055506001600c819055506001600d819055506001600e819055506001600f8190555060016010819055505050505050620002df565b600033905090565b61341280620002ef6000396000f3fe6080604052600436106101bb5760003560e01c806395f9b576116100ec578063ac150fd81161008a578063d9e721f811610064578063d9e721f8146108b4578063dfad4c1114610902578063f2fde38b1461096b578063f31a4dcd146109bc576101c2565b8063ac150fd814610814578063b93030b314610862578063c311d04914610879576101c2565b80639e317f12116100c65780639e317f12146106dc578063a02e06161461072b578063a249225e1461077c578063a4b2409e146107d9576101c2565b806395f9b576146105a55780639619367d1461067657806398544710146106a1576101c2565b806350c5f97511610159578063715018a611610133578063715018a6146104b75780637a8042bd146104ce5780638da5cb5b1461050957806394985ddd14610560576101c2565b806350c5f9751461040a5780635b8d02d71461043557806363bd1d4a1461048c576101c2565b806333ea51a81161019557806333ea51a8146102bf5780633638104a146103105780634051ddac1461037957806344ff81ce146103b9576101c2565b8063117a5b90146101c75780632e5b2168146102695780632ee42d8a14610294576101c2565b366101c257005b600080fd5b3480156101d357600080fd5b50610200600480360360208110156101ea57600080fd5b81019080803590602001909291905050506109f7565b604051808781526020018673ffffffffffffffffffffffffffffffffffffffff1673ffffffffffffffffffffffffffffffffffffffff16815260200185815260200184815260200183815260200182151515158152602001965050505050505060405180910390f35b34801561027557600080fd5b5061027e610a60565b6040518082815260200191505060405180910390f35b3480156102a057600080fd5b506102a9610a66565b6040518082815260200191505060405180910390f35b3480156102cb57600080fd5b5061030e600480360360208110156102e257600080fd5b81019080803573ffffffffffffffffffffffffffffffffffffffff169060200190929190505050610a6c565b005b34801561031c57600080fd5b5061035f6004803603602081101561033357600080fd5b81019080803573ffffffffffffffffffffffffffffffffffffffff169060200190929190505050610b7a565b604051808215151515815260200191505060405180910390f35b34801561038557600080fd5b5061038e610b9a565b6040518085815260200184815260200183815260200182815260200194505050505060405180910390f35b3480156103c557600080fd5b50610408600480360360208110156103dc57600080fd5b81019080803573ffffffffffffffffffffffffffffffffffffffff169060200190929190505050610bba565b005b34801561041657600080fd5b5061041f610cc8565b6040518082815260200191505060405180910390f35b34801561044157600080fd5b5061044a610da8565b604051808273ffffffffffffffffffffffffffffffffffffffff1673ffffffffffffffffffffffffffffffffffffffff16815260200191505060405180910390f35b34801561049857600080fd5b506104a1610dce565b6040518082815260200191505060405180910390f35b3480156104c357600080fd5b506104cc610dd4565b005b3480156104da57600080fd5b50610507600480360360208110156104f157600080fd5b8101908080359060200190929190505050610f5f565b005b34801561051557600080fd5b5061051e611164565b604051808273ffffffffffffffffffffffffffffffffffffffff1673ffffffffffffffffffffffffffffffffffffffff16815260200191505060405180910390f35b34801561056c57600080fd5b506105a36004803603604081101561058357600080fd5b81019080803590602001909291908035906020019092919050505061118e565b005b3480156105b157600080fd5b50610674600480360360408110156105c857600080fd5b81019080803590602001906401000000008111156105e557600080fd5b8201836020820111156105f757600080fd5b8035906020019184602083028401116401000000008311171561061957600080fd5b919080806020026020016040519081016040528093929190818152602001838360200280828437600081840152601f19601f82011690508083019250505050505050919291929080351515906020019092919050505061125f565b005b34801561068257600080fd5b5061068b6113e6565b6040518082815260200191505060405180910390f35b3480156106ad57600080fd5b506106da600480360360208110156106c457600080fd5b81019080803590602001909291905050506113ec565b005b3480156106e857600080fd5b50610715600480360360208110156106ff57600080fd5b81019080803590602001909291905050506114c0565b6040518082815260200191505060405180910390f35b34801561073757600080fd5b5061077a6004803603602081101561074e57600080fd5b81019080803573ffffffffffffffffffffffffffffffffffffffff1690602001909291905050506114d8565b005b34801561078857600080fd5b506107d76004803603604081101561079f57600080fd5b81019080803573ffffffffffffffffffffffffffffffffffffffff1690602001909291908035151590602001909291905050506115e5565b005b3480156107e557600080fd5b50610812600480360360208110156107fc57600080fd5b810190808035906020019092919050505061170a565b005b6108606004803603604081101561082a57600080fd5b81019080803573ffffffffffffffffffffffffffffffffffffffff16906020019092919080359060200190929190505050611a01565b005b34801561086e57600080fd5b50610877611afc565b005b34801561088557600080fd5b506108b26004803603602081101561089c57600080fd5b8101908080359060200190929190505050611f0b565b005b610900600480360360408110156108ca57600080fd5b81019080803573ffffffffffffffffffffffffffffffffffffffff169060200190929190803590602001909291905050506120ed565b005b34801561090e57600080fd5b506109516004803603602081101561092557600080fd5b81019080803573ffffffffffffffffffffffffffffffffffffffff1690602001909291905050506122cd565b604051808215151515815260200191505060405180910390f35b34801561097757600080fd5b506109ba6004803603602081101561098e57600080fd5b81019080803573ffffffffffffffffffffffffffffffffffffffff1690602001909291905050506122ed565b005b3480156109c857600080fd5b506109f5600480360360208110156109df57600080fd5b81019080803590602001909291905050506124fd565b005b601a6020528060005260406000206000915090508060000154908060010160009054906101000a900473ffffffffffffffffffffffffffffffffffffffff16908060020154908060030154908060040154908060050160009054906101000a900460ff16905086565b60125481565b60115481565b610a746125d3565b73ffffffffffffffffffffffffffffffffffffffff16600360009054906101000a900473ffffffffffffffffffffffffffffffffffffffff1673ffffffffffffffffffffffffffffffffffffffff1614610b36576040517f08c379a00000000000000000000000000000000000000000000000000000000081526004018080602001828103825260208152602001807f4f776e61626c653a2063616c6c6572206973206e6f7420746865206f776e657281525060200191505060405180910390fd5b80601660006101000a81548173ffffffffffffffffffffffffffffffffffffffff021916908373ffffffffffffffffffffffffffffffffffffffff16021790555050565b60186020528060005260406000206000915054906101000a900460ff1681565b600080600080601354601254601754601154935093509350935090919293565b610bc26125d3565b73ffffffffffffffffffffffffffffffffffffffff16600360009054906101000a900473ffffffffffffffffffffffffffffffffffffffff1673ffffffffffffffffffffffffffffffffffffffff1614610c84576040517f08c379a00000000000000000000000000000000000000000000000000000000081526004018080602001828103825260208152602001807f4f776e61626c653a2063616c6c6572206973206e6f7420746865206f776e657281525060200191505060405180910390fd5b80600160006101000a81548173ffffffffffffffffffffffffffffffffffffffff021916908373ffffffffffffffffffffffffffffffffffffffff16021790555050565b60008060009054906101000a900473ffffffffffffffffffffffffffffffffffffffff1673ffffffffffffffffffffffffffffffffffffffff166370a08231306040518263ffffffff1660e01b8152600401808273ffffffffffffffffffffffffffffffffffffffff1673ffffffffffffffffffffffffffffffffffffffff16815260200191505060206040518083038186803b158015610d6857600080fd5b505afa158015610d7c573d6000803e3d6000fd5b505050506040513d6020811015610d9257600080fd5b8101908080519060200190929190505050905090565b601660009054906101000a900473ffffffffffffffffffffffffffffffffffffffff1681565b60175481565b610ddc6125d3565b73ffffffffffffffffffffffffffffffffffffffff16600360009054906101000a900473ffffffffffffffffffffffffffffffffffffffff1673ffffffffffffffffffffffffffffffffffffffff1614610e9e576040517f08c379a00000000000000000000000000000000000000000000000000000000081526004018080602001828103825260208152602001807f4f776e61626c653a2063616c6c6572206973206e6f7420746865206f776e657281525060200191505060405180910390fd5b600073ffffffffffffffffffffffffffffffffffffffff16600360009054906101000a900473ffffffffffffffffffffffffffffffffffffffff1673ffffffffffffffffffffffffffffffffffffffff167f8be0079c531659141344cd1fd0a4f28419497f9722a3daafe3b4186f6b6457e060405160405180910390a36000600360006101000a81548173ffffffffffffffffffffffffffffffffffffffff021916908373ffffffffffffffffffffffffffffffffffffffff160217905550565b3373ffffffffffffffffffffffffffffffffffffffff16610f7e611164565b73ffffffffffffffffffffffffffffffffffffffff161480610fe95750601860003373ffffffffffffffffffffffffffffffffffffffff1673ffffffffffffffffffffffffffffffffffffffff16815260200190815260200160002060009054906101000a900460ff165b61105b576040517f08c379a00000000000000000000000000000000000000000000000000000000081526004018080602001828103825260188152602001807f63616c6c6572206973206e6f7420617574686f72697a6564000000000000000081525060200191505060405180910390fd5b6000809054906101000a900473ffffffffffffffffffffffffffffffffffffffff1673ffffffffffffffffffffffffffffffffffffffff1663a9059cbb601660009054906101000a900473ffffffffffffffffffffffffffffffffffffffff16836040518363ffffffff1660e01b8152600401808373ffffffffffffffffffffffffffffffffffffffff1673ffffffffffffffffffffffffffffffffffffffff16815260200182815260200192505050602060405180830381600087803b15801561112557600080fd5b505af1158015611139573d6000803e3d6000fd5b505050506040513d602081101561114f57600080fd5b81019080805190602001909291905050505050565b6000600360009054906101000a900473ffffffffffffffffffffffffffffffffffffffff16905090565b600160009054906101000a900473ffffffffffffffffffffffffffffffffffffffff1673ffffffffffffffffffffffffffffffffffffffff163373ffffffffffffffffffffffffffffffffffffffff1614611251576040517f08c379a000000000000000000000000000000000000000000000000000000000815260040180806020018281038252601f8152602001807f4f6e6c7920565246436f6f7264696e61746f722063616e2066756c66696c6c0081525060200191505060405180910390fd5b61125b82826125db565b5050565b3373ffffffffffffffffffffffffffffffffffffffff1661127e611164565b73ffffffffffffffffffffffffffffffffffffffff1614806112e95750601860003373ffffffffffffffffffffffffffffffffffffffff1673ffffffffffffffffffffffffffffffffffffffff16815260200190815260200160002060009054906101000a900460ff165b61135b576040517f08c379a00000000000000000000000000000000000000000000000000000000081526004018080602001828103825260188152602001807f63616c6c6572206973206e6f7420617574686f72697a6564000000000000000081525060200191505060405180910390fd5b60008090505b82518110156113e157816019600085848151811061137b57fe5b602002602001015173ffffffffffffffffffffffffffffffffffffffff1673ffffffffffffffffffffffffffffffffffffffff16815260200190815260200160002060006101000a81548160ff0219169083151502179055508080600101915050611361565b505050565b60135481565b6113f46125d3565b73ffffffffffffffffffffffffffffffffffffffff16600360009054906101000a900473ffffffffffffffffffffffffffffffffffffffff1673ffffffffffffffffffffffffffffffffffffffff16146114b6576040517f08c379a00000000000000000000000000000000000000000000000000000000081526004018080602001828103825260208152602001807f4f776e61626c653a2063616c6c6572206973206e6f7420746865206f776e657281525060200191505060405180910390fd5b8060048190555050565b60026020528060005260406000206000915090505481565b6114e06125d3565b73ffffffffffffffffffffffffffffffffffffffff16600360009054906101000a900473ffffffffffffffffffffffffffffffffffffffff1673ffffffffffffffffffffffffffffffffffffffff16146115a2576040517f08c379a00000000000000000000000000000000000000000000000000000000081526004018080602001828103825260208152602001807f4f776e61626c653a2063616c6c6572206973206e6f7420746865206f776e657281525060200191505060405180910390fd5b806000806101000a81548173ffffffffffffffffffffffffffffffffffffffff021916908373ffffffffffffffffffffffffffffffffffffffff16021790555050565b6115ed6125d3565b73ffffffffffffffffffffffffffffffffffffffff16600360009054906101000a900473ffffffffffffffffffffffffffffffffffffffff1673ffffffffffffffffffffffffffffffffffffffff16146116af576040517f08c379a00000000000000000000000000000000000000000000000000000000081526004018080602001828103825260208152602001807f4f776e61626c653a2063616c6c6572206973206e6f7420746865206f776e657281525060200191505060405180910390fd5b80601860008473ffffffffffffffffffffffffffffffffffffffff1673ffffffffffffffffffffffffffffffffffffffff16815260200190815260200160002060006101000a81548160ff0219169083151502179055505050565b6000601a60008381526020019081526020016000209050601860003373ffffffffffffffffffffffffffffffffffffffff1673ffffffffffffffffffffffffffffffffffffffff16815260200190815260200160002060009054906101000a900460ff16806117ab57503373ffffffffffffffffffffffffffffffffffffffff16611793611164565b73ffffffffffffffffffffffffffffffffffffffff16145b8061180557503373ffffffffffffffffffffffffffffffffffffffff168160010160009054906101000a900473ffffffffffffffffffffffffffffffffffffffff1673ffffffffffffffffffffffffffffffffffffffff16145b611877576040517f08c379a00000000000000000000000000000000000000000000000000000000081526004018080602001828103825260208152602001807f4e6f7420617574686f72697a656420746f207265717565737420726566756e6481525060200191505060405180910390fd5b600015158160050160009054906101000a900460ff161515146118e5576040517f08c379a000000000000000000000000000000000000000000000000000000000815260040180806020018281038252602a8152602001806133b3602a913960400191505060405180910390fd5b8060020154471015611942576040517f08c379a00000000000000000000000000000000000000000000000000000000081526004018080602001828103825260318152602001806133826031913960400191505060405180910390fd5b60018160050160006101000a81548160ff02191690831515021790555080600201546014541061198557806002015460146000828254039250508190555061198e565b60006014819055505b8060010160009054906101000a900473ffffffffffffffffffffffffffffffffffffffff1673ffffffffffffffffffffffffffffffffffffffff166108fc82600201549081150290604051600060405180830381858888f193505050501580156119fc573d6000803e3d6000fd5b505050565b601354341015611a79576040517f08c379a00000000000000000000000000000000000000000000000000000000081526004018080602001828103825260138152602001807f6d696e696d756d20626574206e6f74206d65740000000000000000000000000081525060200191505060405180910390fd5b60016006541415611ac757600660009055600760009055600860009055600960009055600a60009055600b60009055600c60009055600d60009055600e60009055600f600090556010600090555b611adc346014546128e890919063ffffffff16565b601481905550611aed823483612970565b611af8601554612a8f565b5050565b611b046125d3565b73ffffffffffffffffffffffffffffffffffffffff16600360009054906101000a900473ffffffffffffffffffffffffffffffffffffffff1673ffffffffffffffffffffffffffffffffffffffff1614611bc6576040517f08c379a00000000000000000000000000000000000000000000000000000000081526004018080602001828103825260208152602001807f4f776e61626c653a2063616c6c6572206973206e6f7420746865206f776e657281525060200191505060405180910390fd5b6000611bdd60145447612b5c90919063ffffffff16565b9050601660009054906101000a900473ffffffffffffffffffffffffffffffffffffffff1673ffffffffffffffffffffffffffffffffffffffff166108fc829081150290604051600060405180830381858888f19350505050158015611c47573d6000803e3d6000fd5b5060008060009054906101000a900473ffffffffffffffffffffffffffffffffffffffff1673ffffffffffffffffffffffffffffffffffffffff166370a08231306040518263ffffffff1660e01b8152600401808273ffffffffffffffffffffffffffffffffffffffff1673ffffffffffffffffffffffffffffffffffffffff16815260200191505060206040518083038186803b158015611ce857600080fd5b505afa158015611cfc573d6000803e3d6000fd5b505050506040513d6020811015611d1257600080fd5b81019080805190602001909291905050501115611f08576000809054906101000a900473ffffffffffffffffffffffffffffffffffffffff1673ffffffffffffffffffffffffffffffffffffffff1663a9059cbb601660009054906101000a900473ffffffffffffffffffffffffffffffffffffffff166000809054906101000a900473ffffffffffffffffffffffffffffffffffffffff1673ffffffffffffffffffffffffffffffffffffffff166370a08231306040518263ffffffff1660e01b8152600401808273ffffffffffffffffffffffffffffffffffffffff1673ffffffffffffffffffffffffffffffffffffffff16815260200191505060206040518083038186803b158015611e2757600080fd5b505afa158015611e3b573d6000803e3d6000fd5b505050506040513d6020811015611e5157600080fd5b81019080805190602001909291905050506040518363ffffffff1660e01b8152600401808373ffffffffffffffffffffffffffffffffffffffff1673ffffffffffffffffffffffffffffffffffffffff16815260200182815260200192505050602060405180830381600087803b158015611ecb57600080fd5b505af1158015611edf573d6000803e3d6000fd5b505050506040513d6020811015611ef557600080fd5b8101908080519060200190929190505050505b50565b3373ffffffffffffffffffffffffffffffffffffffff16611f2a611164565b73ffffffffffffffffffffffffffffffffffffffff161480611f955750601860003373ffffffffffffffffffffffffffffffffffffffff1673ffffffffffffffffffffffffffffffffffffffff16815260200190815260200160002060009054906101000a900460ff165b612007576040517f08c379a00000000000000000000000000000000000000000000000000000000081526004018080602001828103825260188152602001807f63616c6c6572206973206e6f7420617574686f72697a6564000000000000000081525060200191505060405180910390fd5b6014548147031015612081576040517f08c379a000000000000000000000000000000000000000000000000000000000815260040180806020018281038252601c8152602001807f43616e277420776974686472617720756e706c6179656420626574730000000081525060200191505060405180910390fd5b601660009054906101000a900473ffffffffffffffffffffffffffffffffffffffff1673ffffffffffffffffffffffffffffffffffffffff166108fc829081150290604051600060405180830381858888f193505050501580156120e9573d6000803e3d6000fd5b5050565b6120f634612be5565b61214b576040517f08c379a000000000000000000000000000000000000000000000000000000000815260040180806020018281038252603681526020018061332b6036913960400191505060405180910390fd5b601154811115801561215d5750600081115b6121cf576040517f08c379a000000000000000000000000000000000000000000000000000000000815260040180806020018281038252601a8152602001807f4f757473696465206f66207069636b61626c6520626f756e647300000000000081525060200191505060405180910390fd5b6121d834612c2c565b61224a576040517f08c379a00000000000000000000000000000000000000000000000000000000081526004018080602001828103825260158152602001807f4f757469736465206f66206265742072616e67652e000000000000000000000081525060200191505060405180910390fd5b6001600654141561229857600660009055600760009055600860009055600960009055600a60009055600b60009055600c60009055600d60009055600e60009055600f600090556010600090555b6122ad346014546128e890919063ffffffff16565b6014819055506122be823483612970565b6122c9601554612a8f565b5050565b60196020528060005260406000206000915054906101000a900460ff1681565b6122f56125d3565b73ffffffffffffffffffffffffffffffffffffffff16600360009054906101000a900473ffffffffffffffffffffffffffffffffffffffff1673ffffffffffffffffffffffffffffffffffffffff16146123b7576040517f08c379a00000000000000000000000000000000000000000000000000000000081526004018080602001828103825260208152602001807f4f776e61626c653a2063616c6c6572206973206e6f7420746865206f776e657281525060200191505060405180910390fd5b600073ffffffffffffffffffffffffffffffffffffffff168173ffffffffffffffffffffffffffffffffffffffff16141561243d576040517f08c379a00000000000000000000000000000000000000000000000000000000081526004018080602001828103825260268152602001806133056026913960400191505060405180910390fd5b8073ffffffffffffffffffffffffffffffffffffffff16600360009054906101000a900473ffffffffffffffffffffffffffffffffffffffff1673ffffffffffffffffffffffffffffffffffffffff167f8be0079c531659141344cd1fd0a4f28419497f9722a3daafe3b4186f6b6457e060405160405180910390a380600360006101000a81548173ffffffffffffffffffffffffffffffffffffffff021916908373ffffffffffffffffffffffffffffffffffffffff16021790555050565b6125056125d3565b73ffffffffffffffffffffffffffffffffffffffff16600360009054906101000a900473ffffffffffffffffffffffffffffffffffffffff1673ffffffffffffffffffffffffffffffffffffffff16146125c7576040517f08c379a00000000000000000000000000000000000000000000000000000000081526004018080602001828103825260208152602001807f4f776e61626c653a2063616c6c6572206973206e6f7420746865206f776e657281525060200191505060405180910390fd5b6125d081612a8f565b50565b600033905090565b6000601a6000601b6000868152602001908152602001600020548152602001908152602001600020905060008160000154111561288b576012548160020154111561262c5760125481600201819055505b600061265d826002015461264f6017548560020154612c5a90919063ffffffff16565b6128e890919063ffffffff16565b9050804710156126d5576040517f08c379a00000000000000000000000000000000000000000000000000000000081526004018080602001828103825260208152602001807f436f6e74726163742062616c616e636520746f6f206c6f7720746f20706c617981525060200191505060405180910390fd5b6126fd60016126ef60115486612ce090919063ffffffff16565b6128e890919063ffffffff16565b826004018190555060018260050160006101000a81548160ff021916908315150217905550816002015460145410612748578160020154601460008282540392505081905550612751565b60006014819055505b8160040154826003015414156127d1578160010160009054906101000a900473ffffffffffffffffffffffffffffffffffffffff1673ffffffffffffffffffffffffffffffffffffffff166108fc829081150290604051600060405180830381858888f193505050501580156127cb573d6000803e3d6000fd5b506127d6565b600090505b7fc06600d6399308f270bc6ae70d5377121b685c974bb7f7355824fddd8a2b34978260010160009054906101000a900473ffffffffffffffffffffffffffffffffffffffff1683600201548460030154856004015485604051808673ffffffffffffffffffffffffffffffffffffffff1673ffffffffffffffffffffffffffffffffffffffff1681526020018581526020018481526020018381526020018281526020019550505050505060405180910390a1505b60016006819055506001600781905550600160088190555060016009819055506001600a819055506001600b819055506001600c819055506001600d819055506001600e819055506001600f819055506001601081905550505050565b600080828401905083811015612966576040517f08c379a000000000000000000000000000000000000000000000000000000000815260040180806020018281038252601b8152602001807f536166654d6174683a206164646974696f6e206f766572666c6f77000000000081525060200191505060405180910390fd5b8091505092915050565b61298660016015546128e890919063ffffffff16565b6015819055506129946132b6565b6040518060c0016040528060155481526020018573ffffffffffffffffffffffffffffffffffffffff1681526020018481526020018381526020016000815260200160001515815250905080601a6000836000015181526020019081526020016000206000820151816000015560208201518160010160006101000a81548173ffffffffffffffffffffffffffffffffffffffff021916908373ffffffffffffffffffffffffffffffffffffffff16021790555060408201518160020155606082015181600301556080820151816004015560a08201518160050160006101000a81548160ff02191690831515021790555090505050505050565b60001515601a600083815260200190815260200160002060050160009054906101000a900460ff16151514612b2c576040517f08c379a00000000000000000000000000000000000000000000000000000000081526004018080602001828103825260138152602001807f67616d6520616c726561647920706c617965640000000000000000000000000081525060200191505060405180910390fd5b6000612b3e612b39612d6a565b612e8b565b905081601b6000838152602001908152602001600020819055505050565b600082821115612bd4576040517f08c379a000000000000000000000000000000000000000000000000000000000815260040180806020018281038252601e8152602001807f536166654d6174683a207375627472616374696f6e206f766572666c6f77000081525060200191505060405180910390fd5b600082840390508091505092915050565b6000612c0e82612c0060175485612c5a90919063ffffffff16565b6128e890919063ffffffff16565b612c2360145447612b5c90919063ffffffff16565b10159050919050565b60006013548210158015612c4257506012548211155b15612c505760019050612c55565b600090505b919050565b600080831415612c6d5760009050612cda565b6000828402905082848281612c7e57fe5b0414612cd5576040517f08c379a00000000000000000000000000000000000000000000000000000000081526004018080602001828103825260218152602001806133616021913960400191505060405180910390fd5b809150505b92915050565b600080821415612d58576040517f08c379a00000000000000000000000000000000000000000000000000000000081526004018080602001828103825260188152602001807f536166654d6174683a206d6f64756c6f206279207a65726f000000000000000081525060200191505060405180910390fd5b818381612d6157fe5b06905092915050565b6000612d746132b6565b601a600060155481526020019081526020016000206040518060c0016040529081600082015481526020016001820160009054906101000a900473ffffffffffffffffffffffffffffffffffffffff1673ffffffffffffffffffffffffffffffffffffffff1673ffffffffffffffffffffffffffffffffffffffff1681526020016002820154815260200160038201548152602001600482015481526020016005820160009054906101000a900460ff1615151515815250509050434282606001518360400151846000015160405160200180868152602001858152602001848152602001838152602001828152602001955050505050506040516020818303038152906040528051906020012060001c91505090565b60006005546000809054906101000a900473ffffffffffffffffffffffffffffffffffffffff1673ffffffffffffffffffffffffffffffffffffffff166370a08231306040518263ffffffff1660e01b8152600401808273ffffffffffffffffffffffffffffffffffffffff1673ffffffffffffffffffffffffffffffffffffffff16815260200191505060206040518083038186803b158015612f2e57600080fd5b505afa158015612f42573d6000803e3d6000fd5b505050506040513d6020811015612f5857600080fd5b810190808051906020019092919050505011612fdc576040517f08c379a000000000000000000000000000000000000000000000000000000000815260040180806020018281038252600f8152602001807f4e6f7420656e6f756768204c494e4b000000000000000000000000000000000081525060200191505060405180910390fd5b612feb60045460055484612ff2565b9050919050565b60008060009054906101000a900473ffffffffffffffffffffffffffffffffffffffff1673ffffffffffffffffffffffffffffffffffffffff16634000aea0600160009054906101000a900473ffffffffffffffffffffffffffffffffffffffff1685878660405160200180838152602001828152602001925050506040516020818303038152906040526040518463ffffffff1660e01b8152600401808473ffffffffffffffffffffffffffffffffffffffff1673ffffffffffffffffffffffffffffffffffffffff16815260200183815260200180602001828103825283818151815260200191508051906020019080838360005b838110156131045780820151818401526020810190506130e9565b50505050905090810190601f1680156131315780820380516001836020036101000a031916815260200191505b50945050505050602060405180830381600087803b15801561315257600080fd5b505af1158015613166573d6000803e3d6000fd5b505050506040513d602081101561317c57600080fd5b81019080805190602001909291905050505060006131af858430600260008a815260200190815260200160002054613203565b90506131d8600160026000888152602001908152602001600020546128e890919063ffffffff16565b60026000878152602001908152602001600020819055506131f9858261327d565b9150509392505050565b600084848484604051602001808581526020018481526020018373ffffffffffffffffffffffffffffffffffffffff1673ffffffffffffffffffffffffffffffffffffffff1681526020018281526020019450505050506040516020818303038152906040528051906020012060001c9050949350505050565b60008282604051602001808381526020018281526020019250505060405160208183030381529060405280519060200120905092915050565b6040518060c0016040528060008152602001600073ffffffffffffffffffffffffffffffffffffffff168152602001600081526020016000815260200160008152602001600015158152509056fe4f776e61626c653a206e6577206f776e657220697320746865207a65726f2061646472657373436f6e74726163742068617320696e737566666963696e742066756e647320746f207061796f757420706f737369626c652077696e2e536166654d6174683a206d756c7469706c69636174696f6e206f766572666c6f77436f6e74726163742062616c616e636520746f6f206c6f772e20506c656173652074727920616761696e206c617465722e47616d6520616c726561647920636f6d706c6574652e204e6f20726566756e6420706f737369626c652ea2646970667358221220481de6b9a86a74bf42137236c71dfc8f31ecea041f344a889227d4fd8922a60364736f6c63430006000033a2646970667358221220c003d6505c2060ebc2c785d6bb2e7847f770064feac10923b60dd056443e263264736f6c63430006000033","opcodes":"PUSH1 0x80 PUSH1 0x40 MSTORE CALLVALUE DUP1 ISZERO PUSH2 0x10 JUMPI PUSH1 0x0 DUP1 REVERT JUMPDEST POP PUSH2 0x3B3E DUP1 PUSH2 0x20 PUSH1 0x0 CODECOPY PUSH1 0x0 RETURN INVALID PUSH1 0x80 PUSH1 0x40 MSTORE CALLVALUE DUP1 ISZERO PUSH2 0x10 JUMPI PUSH1 0x0 DUP1 REVERT JUMPDEST POP PUSH1 0x4 CALLDATASIZE LT PUSH2 0x41 JUMPI PUSH1 0x0 CALLDATALOAD PUSH1 0xE0 SHR DUP1 PUSH4 0x6373B9A EQ PUSH2 0x46 JUMPI DUP1 PUSH4 0x4D42845C EQ PUSH2 0xD2 JUMPI DUP1 PUSH4 0x52B07B34 EQ PUSH2 0x140 JUMPI JUMPDEST PUSH1 0x0 DUP1 REVERT JUMPDEST PUSH2 0x90 PUSH1 0x4 DUP1 CALLDATASIZE SUB PUSH1 0x80 DUP2 LT ISZERO PUSH2 0x5C JUMPI PUSH1 0x0 DUP1 REVERT JUMPDEST DUP2 ADD SWAP1 DUP1 DUP1 CALLDATALOAD SWAP1 PUSH1 0x20 ADD SWAP1 SWAP3 SWAP2 SWAP1 DUP1 CALLDATALOAD SWAP1 PUSH1 0x20 ADD SWAP1 SWAP3 SWAP2 SWAP1 DUP1 CALLDATALOAD SWAP1 PUSH1 0x20 ADD SWAP1 SWAP3 SWAP2 SWAP1 DUP1 CALLDATALOAD SWAP1 PUSH1 0x20 ADD SWAP1 SWAP3 SWAP2 SWAP1 POP POP POP PUSH2 0x19F JUMP JUMPDEST PUSH1 0x40 MLOAD DUP1 DUP3 PUSH20 0xFFFFFFFFFFFFFFFFFFFFFFFFFFFFFFFFFFFFFFFF AND PUSH20 0xFFFFFFFFFFFFFFFFFFFFFFFFFFFFFFFFFFFFFFFF AND DUP2 MSTORE PUSH1 0x20 ADD SWAP2 POP POP PUSH1 0x40 MLOAD DUP1 SWAP2 SUB SWAP1 RETURN JUMPDEST PUSH2 0xFE PUSH1 0x4 DUP1 CALLDATASIZE SUB PUSH1 0x20 DUP2 LT ISZERO PUSH2 0xE8 JUMPI PUSH1 0x0 DUP1 REVERT JUMPDEST DUP2 ADD SWAP1 DUP1 DUP1 CALLDATALOAD SWAP1 PUSH1 0x20 ADD SWAP1 SWAP3 SWAP2 SWAP1 POP POP POP PUSH2 0x330 JUMP JUMPDEST PUSH1 0x40 MLOAD DUP1 DUP3 PUSH20 0xFFFFFFFFFFFFFFFFFFFFFFFFFFFFFFFFFFFFFFFF AND PUSH20 0xFFFFFFFFFFFFFFFFFFFFFFFFFFFFFFFFFFFFFFFF AND DUP2 MSTORE PUSH1 0x20 ADD SWAP2 POP POP PUSH1 0x40 MLOAD DUP1 SWAP2 SUB SWAP1 RETURN JUMPDEST PUSH2 0x148 PUSH2 0x36C JUMP JUMPDEST PUSH1 0x40 MLOAD DUP1 DUP1 PUSH1 0x20 ADD DUP3 DUP2 SUB DUP3 MSTORE DUP4 DUP2 DUP2 MLOAD DUP2 MSTORE PUSH1 0x20 ADD SWAP2 POP DUP1 MLOAD SWAP1 PUSH1 0x20 ADD SWAP1 PUSH1 0x20 MUL DUP1 DUP4 DUP4 PUSH1 0x0 JUMPDEST DUP4 DUP2 LT ISZERO PUSH2 0x18B JUMPI DUP1 DUP3 ADD MLOAD DUP2 DUP5 ADD MSTORE PUSH1 0x20 DUP2 ADD SWAP1 POP PUSH2 0x170 JUMP JUMPDEST POP POP POP POP SWAP1 POP ADD SWAP3 POP POP POP PUSH1 0x40 MLOAD DUP1 SWAP2 SUB SWAP1 RETURN JUMPDEST PUSH1 0x0 DUP1 CALLER DUP7 DUP7 DUP7 DUP7 PUSH1 0x40 MLOAD PUSH2 0x1B3 SWAP1 PUSH2 0x3FA JUMP JUMPDEST DUP1 DUP7 PUSH20 0xFFFFFFFFFFFFFFFFFFFFFFFFFFFFFFFFFFFFFFFF AND PUSH20 0xFFFFFFFFFFFFFFFFFFFFFFFFFFFFFFFFFFFFFFFF AND DUP2 MSTORE PUSH1 0x20 ADD DUP6 DUP2 MSTORE PUSH1 0x20 ADD DUP5 DUP2 MSTORE PUSH1 0x20 ADD DUP4 DUP2 MSTORE PUSH1 0x20 ADD DUP3 DUP2 MSTORE PUSH1 0x20 ADD SWAP6 POP POP POP POP POP POP PUSH1 0x40 MLOAD DUP1 SWAP2 SUB SWAP1 PUSH1 0x0 CREATE DUP1 ISZERO DUP1 ISZERO PUSH2 0x221 JUMPI RETURNDATASIZE PUSH1 0x0 DUP1 RETURNDATACOPY RETURNDATASIZE PUSH1 0x0 REVERT JUMPDEST POP SWAP1 POP DUP1 PUSH20 0xFFFFFFFFFFFFFFFFFFFFFFFFFFFFFFFFFFFFFFFF AND PUSH4 0xF2FDE38B CALLER PUSH1 0x40 MLOAD DUP3 PUSH4 0xFFFFFFFF AND PUSH1 0xE0 SHL DUP2 MSTORE PUSH1 0x4 ADD DUP1 DUP3 PUSH20 0xFFFFFFFFFFFFFFFFFFFFFFFFFFFFFFFFFFFFFFFF AND PUSH20 0xFFFFFFFFFFFFFFFFFFFFFFFFFFFFFFFFFFFFFFFF AND DUP2 MSTORE PUSH1 0x20 ADD SWAP2 POP POP PUSH1 0x0 PUSH1 0x40 MLOAD DUP1 DUP4 SUB DUP2 PUSH1 0x0 DUP8 DUP1 EXTCODESIZE ISZERO DUP1 ISZERO PUSH2 0x2A3 JUMPI PUSH1 0x0 DUP1 REVERT JUMPDEST POP GAS CALL ISZERO DUP1 ISZERO PUSH2 0x2B7 JUMPI RETURNDATASIZE PUSH1 0x0 DUP1 RETURNDATACOPY RETURNDATASIZE PUSH1 0x0 REVERT JUMPDEST POP POP POP POP PUSH1 0x0 DUP2 SWAP1 POP PUSH1 0x0 DUP2 SWAP1 DUP1 PUSH1 0x1 DUP2 SLOAD ADD DUP1 DUP3 SSTORE DUP1 SWAP2 POP POP PUSH1 0x1 SWAP1 SUB SWAP1 PUSH1 0x0 MSTORE PUSH1 0x20 PUSH1 0x0 KECCAK256 ADD PUSH1 0x0 SWAP1 SWAP2 SWAP1 SWAP2 SWAP1 SWAP2 PUSH2 0x100 EXP DUP2 SLOAD DUP2 PUSH20 0xFFFFFFFFFFFFFFFFFFFFFFFFFFFFFFFFFFFFFFFF MUL NOT AND SWAP1 DUP4 PUSH20 0xFFFFFFFFFFFFFFFFFFFFFFFFFFFFFFFFFFFFFFFF AND MUL OR SWAP1 SSTORE POP DUP1 SWAP3 POP POP POP SWAP5 SWAP4 POP POP POP POP JUMP JUMPDEST PUSH1 0x0 DUP2 DUP2 SLOAD DUP2 LT PUSH2 0x33D JUMPI INVALID JUMPDEST SWAP1 PUSH1 0x0 MSTORE PUSH1 0x20 PUSH1 0x0 KECCAK256 ADD PUSH1 0x0 SWAP2 POP SLOAD SWAP1 PUSH2 0x100 EXP SWAP1 DIV PUSH20 0xFFFFFFFFFFFFFFFFFFFFFFFFFFFFFFFFFFFFFFFF AND DUP2 JUMP JUMPDEST PUSH1 0x60 PUSH1 0x0 DUP1 SLOAD DUP1 PUSH1 0x20 MUL PUSH1 0x20 ADD PUSH1 0x40 MLOAD SWAP1 DUP2 ADD PUSH1 0x40 MSTORE DUP1 SWAP3 SWAP2 SWAP1 DUP2 DUP2 MSTORE PUSH1 0x20 ADD DUP3 DUP1 SLOAD DUP1 ISZERO PUSH2 0x3F0 JUMPI PUSH1 0x20 MUL DUP3 ADD SWAP2 SWAP1 PUSH1 0x0 MSTORE PUSH1 0x20 PUSH1 0x0 KECCAK256 SWAP1 JUMPDEST DUP2 PUSH1 0x0 SWAP1 SLOAD SWAP1 PUSH2 0x100 EXP SWAP1 DIV PUSH20 0xFFFFFFFFFFFFFFFFFFFFFFFFFFFFFFFFFFFFFFFF AND PUSH20 0xFFFFFFFFFFFFFFFFFFFFFFFFFFFFFFFFFFFFFFFF AND DUP2 MSTORE PUSH1 0x20 ADD SWAP1 PUSH1 0x1 ADD SWAP1 DUP1 DUP4 GT PUSH2 0x3A6 JUMPI JUMPDEST POP POP POP POP POP SWAP1 POP SWAP1 JUMP JUMPDEST PUSH2 0x3701 DUP1 PUSH2 0x408 DUP4 CODECOPY ADD SWAP1 JUMP INVALID PUSH1 0x80 PUSH1 0x40 MSTORE CALLVALUE DUP1 ISZERO PUSH3 0x11 JUMPI PUSH1 0x0 DUP1 REVERT JUMPDEST POP PUSH1 0x40 MLOAD PUSH3 0x3701 CODESIZE SUB DUP1 PUSH3 0x3701 DUP4 CODECOPY DUP2 DUP2 ADD PUSH1 0x40 MSTORE PUSH1 0xA0 DUP2 LT ISZERO PUSH3 0x37 JUMPI PUSH1 0x0 DUP1 REVERT JUMPDEST DUP2 ADD SWAP1 DUP1 DUP1 MLOAD SWAP1 PUSH1 0x20 ADD SWAP1 SWAP3 SWAP2 SWAP1 DUP1 MLOAD SWAP1 PUSH1 0x20 ADD SWAP1 SWAP3 SWAP2 SWAP1 DUP1 MLOAD SWAP1 PUSH1 0x20 ADD SWAP1 SWAP3 SWAP2 SWAP1 DUP1 MLOAD SWAP1 PUSH1 0x20 ADD SWAP1 SWAP3 SWAP2 SWAP1 DUP1 MLOAD SWAP1 PUSH1 0x20 ADD SWAP1 SWAP3 SWAP2 SWAP1 POP POP POP PUSH20 0xDD3782915140C8F3B190B5D67EAC6DC5760C46E9 PUSH20 0xA36085F69E2889C224210F603D836748E7DC0088 DUP2 PUSH1 0x1 PUSH1 0x0 PUSH2 0x100 EXP DUP2 SLOAD DUP2 PUSH20 0xFFFFFFFFFFFFFFFFFFFFFFFFFFFFFFFFFFFFFFFF MUL NOT AND SWAP1 DUP4 PUSH20 0xFFFFFFFFFFFFFFFFFFFFFFFFFFFFFFFFFFFFFFFF AND MUL OR SWAP1 SSTORE POP DUP1 PUSH1 0x0 DUP1 PUSH2 0x100 EXP DUP2 SLOAD DUP2 PUSH20 0xFFFFFFFFFFFFFFFFFFFFFFFFFFFFFFFFFFFFFFFF MUL NOT AND SWAP1 DUP4 PUSH20 0xFFFFFFFFFFFFFFFFFFFFFFFFFFFFFFFFFFFFFFFF AND MUL OR SWAP1 SSTORE POP POP POP PUSH1 0x0 PUSH3 0x12F PUSH3 0x2D7 PUSH1 0x20 SHL PUSH1 0x20 SHR JUMP JUMPDEST SWAP1 POP DUP1 PUSH1 0x3 PUSH1 0x0 PUSH2 0x100 EXP DUP2 SLOAD DUP2 PUSH20 0xFFFFFFFFFFFFFFFFFFFFFFFFFFFFFFFFFFFFFFFF MUL NOT AND SWAP1 DUP4 PUSH20 0xFFFFFFFFFFFFFFFFFFFFFFFFFFFFFFFFFFFFFFFF AND MUL OR SWAP1 SSTORE POP DUP1 PUSH20 0xFFFFFFFFFFFFFFFFFFFFFFFFFFFFFFFFFFFFFFFF AND PUSH1 0x0 PUSH20 0xFFFFFFFFFFFFFFFFFFFFFFFFFFFFFFFFFFFFFFFF AND PUSH32 0x8BE0079C531659141344CD1FD0A4F28419497F9722A3DAAFE3B4186F6B6457E0 PUSH1 0x40 MLOAD PUSH1 0x40 MLOAD DUP1 SWAP2 SUB SWAP1 LOG3 POP PUSH32 0x6C3699283BDA56AD74F6B855546325B68D482E983852A7A82979CC4807B641F4 PUSH1 0x0 SHL PUSH1 0x4 DUP2 SWAP1 SSTORE POP PUSH8 0x16345785D8A0000 PUSH1 0x5 DUP2 SWAP1 SSTORE POP PUSH1 0x1 PUSH1 0x15 DUP2 SWAP1 SSTORE POP PUSH1 0x0 PUSH1 0x14 DUP2 SWAP1 SSTORE POP DUP5 PUSH1 0x16 PUSH1 0x0 PUSH2 0x100 EXP DUP2 SLOAD DUP2 PUSH20 0xFFFFFFFFFFFFFFFFFFFFFFFFFFFFFFFFFFFFFFFF MUL NOT AND SWAP1 DUP4 PUSH20 0xFFFFFFFFFFFFFFFFFFFFFFFFFFFFFFFFFFFFFFFF AND MUL OR SWAP1 SSTORE POP DUP3 PUSH1 0x13 DUP2 SWAP1 SSTORE POP DUP4 PUSH1 0x12 DUP2 SWAP1 SSTORE POP DUP2 PUSH1 0x11 DUP2 SWAP1 SSTORE POP DUP1 PUSH1 0x17 DUP2 SWAP1 SSTORE POP PUSH1 0x1 PUSH1 0x6 DUP2 SWAP1 SSTORE POP PUSH1 0x1 PUSH1 0x7 DUP2 SWAP1 SSTORE POP PUSH1 0x1 PUSH1 0x8 DUP2 SWAP1 SSTORE POP PUSH1 0x1 PUSH1 0x9 DUP2 SWAP1 SSTORE POP PUSH1 0x1 PUSH1 0xA DUP2 SWAP1 SSTORE POP PUSH1 0x1 PUSH1 0xB DUP2 SWAP1 SSTORE POP PUSH1 0x1 PUSH1 0xC DUP2 SWAP1 SSTORE POP PUSH1 0x1 PUSH1 0xD DUP2 SWAP1 SSTORE POP PUSH1 0x1 PUSH1 0xE DUP2 SWAP1 SSTORE POP PUSH1 0x1 PUSH1 0xF DUP2 SWAP1 SSTORE POP PUSH1 0x1 PUSH1 0x10 DUP2 SWAP1 SSTORE POP POP POP POP POP POP PUSH3 0x2DF JUMP JUMPDEST PUSH1 0x0 CALLER SWAP1 POP SWAP1 JUMP JUMPDEST PUSH2 0x3412 DUP1 PUSH3 0x2EF PUSH1 0x0 CODECOPY PUSH1 0x0 RETURN INVALID PUSH1 0x80 PUSH1 0x40 MSTORE PUSH1 0x4 CALLDATASIZE LT PUSH2 0x1BB JUMPI PUSH1 0x0 CALLDATALOAD PUSH1 0xE0 SHR DUP1 PUSH4 0x95F9B576 GT PUSH2 0xEC JUMPI DUP1 PUSH4 0xAC150FD8 GT PUSH2 0x8A JUMPI DUP1 PUSH4 0xD9E721F8 GT PUSH2 0x64 JUMPI DUP1 PUSH4 0xD9E721F8 EQ PUSH2 0x8B4 JUMPI DUP1 PUSH4 0xDFAD4C11 EQ PUSH2 0x902 JUMPI DUP1 PUSH4 0xF2FDE38B EQ PUSH2 0x96B JUMPI DUP1 PUSH4 0xF31A4DCD EQ PUSH2 0x9BC JUMPI PUSH2 0x1C2 JUMP JUMPDEST DUP1 PUSH4 0xAC150FD8 EQ PUSH2 0x814 JUMPI DUP1 PUSH4 0xB93030B3 EQ PUSH2 0x862 JUMPI DUP1 PUSH4 0xC311D049 EQ PUSH2 0x879 JUMPI PUSH2 0x1C2 JUMP JUMPDEST DUP1 PUSH4 0x9E317F12 GT PUSH2 0xC6 JUMPI DUP1 PUSH4 0x9E317F12 EQ PUSH2 0x6DC JUMPI DUP1 PUSH4 0xA02E0616 EQ PUSH2 0x72B JUMPI DUP1 PUSH4 0xA249225E EQ PUSH2 0x77C JUMPI DUP1 PUSH4 0xA4B2409E EQ PUSH2 0x7D9 JUMPI PUSH2 0x1C2 JUMP JUMPDEST DUP1 PUSH4 0x95F9B576 EQ PUSH2 0x5A5 JUMPI DUP1 PUSH4 0x9619367D EQ PUSH2 0x676 JUMPI DUP1 PUSH4 0x98544710 EQ PUSH2 0x6A1 JUMPI PUSH2 0x1C2 JUMP JUMPDEST DUP1 PUSH4 0x50C5F975 GT PUSH2 0x159 JUMPI DUP1 PUSH4 0x715018A6 GT PUSH2 0x133 JUMPI DUP1 PUSH4 0x715018A6 EQ PUSH2 0x4B7 JUMPI DUP1 PUSH4 0x7A8042BD EQ PUSH2 0x4CE JUMPI DUP1 PUSH4 0x8DA5CB5B EQ PUSH2 0x509 JUMPI DUP1 PUSH4 0x94985DDD EQ PUSH2 0x560 JUMPI PUSH2 0x1C2 JUMP JUMPDEST DUP1 PUSH4 0x50C5F975 EQ PUSH2 0x40A JUMPI DUP1 PUSH4 0x5B8D02D7 EQ PUSH2 0x435 JUMPI DUP1 PUSH4 0x63BD1D4A EQ PUSH2 0x48C JUMPI PUSH2 0x1C2 JUMP JUMPDEST DUP1 PUSH4 0x33EA51A8 GT PUSH2 0x195 JUMPI DUP1 PUSH4 0x33EA51A8 EQ PUSH2 0x2BF JUMPI DUP1 PUSH4 0x3638104A EQ PUSH2 0x310 JUMPI DUP1 PUSH4 0x4051DDAC EQ PUSH2 0x379 JUMPI DUP1 PUSH4 0x44FF81CE EQ PUSH2 0x3B9 JUMPI PUSH2 0x1C2 JUMP JUMPDEST DUP1 PUSH4 0x117A5B90 EQ PUSH2 0x1C7 JUMPI DUP1 PUSH4 0x2E5B2168 EQ PUSH2 0x269 JUMPI DUP1 PUSH4 0x2EE42D8A EQ PUSH2 0x294 JUMPI PUSH2 0x1C2 JUMP JUMPDEST CALLDATASIZE PUSH2 0x1C2 JUMPI STOP JUMPDEST PUSH1 0x0 DUP1 REVERT JUMPDEST CALLVALUE DUP1 ISZERO PUSH2 0x1D3 JUMPI PUSH1 0x0 DUP1 REVERT JUMPDEST POP PUSH2 0x200 PUSH1 0x4 DUP1 CALLDATASIZE SUB PUSH1 0x20 DUP2 LT ISZERO PUSH2 0x1EA JUMPI PUSH1 0x0 DUP1 REVERT JUMPDEST DUP2 ADD SWAP1 DUP1 DUP1 CALLDATALOAD SWAP1 PUSH1 0x20 ADD SWAP1 SWAP3 SWAP2 SWAP1 POP POP POP PUSH2 0x9F7 JUMP JUMPDEST PUSH1 0x40 MLOAD DUP1 DUP8 DUP2 MSTORE PUSH1 0x20 ADD DUP7 PUSH20 0xFFFFFFFFFFFFFFFFFFFFFFFFFFFFFFFFFFFFFFFF AND PUSH20 0xFFFFFFFFFFFFFFFFFFFFFFFFFFFFFFFFFFFFFFFF AND DUP2 MSTORE PUSH1 0x20 ADD DUP6 DUP2 MSTORE PUSH1 0x20 ADD DUP5 DUP2 MSTORE PUSH1 0x20 ADD DUP4 DUP2 MSTORE PUSH1 0x20 ADD DUP3 ISZERO ISZERO ISZERO ISZERO DUP2 MSTORE PUSH1 0x20 ADD SWAP7 POP POP POP POP POP POP POP PUSH1 0x40 MLOAD DUP1 SWAP2 SUB SWAP1 RETURN JUMPDEST CALLVALUE DUP1 ISZERO PUSH2 0x275 JUMPI PUSH1 0x0 DUP1 REVERT JUMPDEST POP PUSH2 0x27E PUSH2 0xA60 JUMP JUMPDEST PUSH1 0x40 MLOAD DUP1 DUP3 DUP2 MSTORE PUSH1 0x20 ADD SWAP2 POP POP PUSH1 0x40 MLOAD DUP1 SWAP2 SUB SWAP1 RETURN JUMPDEST CALLVALUE DUP1 ISZERO PUSH2 0x2A0 JUMPI PUSH1 0x0 DUP1 REVERT JUMPDEST POP PUSH2 0x2A9 PUSH2 0xA66 JUMP JUMPDEST PUSH1 0x40 MLOAD DUP1 DUP3 DUP2 MSTORE PUSH1 0x20 ADD SWAP2 POP POP PUSH1 0x40 MLOAD DUP1 SWAP2 SUB SWAP1 RETURN JUMPDEST CALLVALUE DUP1 ISZERO PUSH2 0x2CB JUMPI PUSH1 0x0 DUP1 REVERT JUMPDEST POP PUSH2 0x30E PUSH1 0x4 DUP1 CALLDATASIZE SUB PUSH1 0x20 DUP2 LT ISZERO PUSH2 0x2E2 JUMPI PUSH1 0x0 DUP1 REVERT JUMPDEST DUP2 ADD SWAP1 DUP1 DUP1 CALLDATALOAD PUSH20 0xFFFFFFFFFFFFFFFFFFFFFFFFFFFFFFFFFFFFFFFF AND SWAP1 PUSH1 0x20 ADD SWAP1 SWAP3 SWAP2 SWAP1 POP POP POP PUSH2 0xA6C JUMP JUMPDEST STOP JUMPDEST CALLVALUE DUP1 ISZERO PUSH2 0x31C JUMPI PUSH1 0x0 DUP1 REVERT JUMPDEST POP PUSH2 0x35F PUSH1 0x4 DUP1 CALLDATASIZE SUB PUSH1 0x20 DUP2 LT ISZERO PUSH2 0x333 JUMPI PUSH1 0x0 DUP1 REVERT JUMPDEST DUP2 ADD SWAP1 DUP1 DUP1 CALLDATALOAD PUSH20 0xFFFFFFFFFFFFFFFFFFFFFFFFFFFFFFFFFFFFFFFF AND SWAP1 PUSH1 0x20 ADD SWAP1 SWAP3 SWAP2 SWAP1 POP POP POP PUSH2 0xB7A JUMP JUMPDEST PUSH1 0x40 MLOAD DUP1 DUP3 ISZERO ISZERO ISZERO ISZERO DUP2 MSTORE PUSH1 0x20 ADD SWAP2 POP POP PUSH1 0x40 MLOAD DUP1 SWAP2 SUB SWAP1 RETURN JUMPDEST CALLVALUE DUP1 ISZERO PUSH2 0x385 JUMPI PUSH1 0x0 DUP1 REVERT JUMPDEST POP PUSH2 0x38E PUSH2 0xB9A JUMP JUMPDEST PUSH1 0x40 MLOAD DUP1 DUP6 DUP2 MSTORE PUSH1 0x20 ADD DUP5 DUP2 MSTORE PUSH1 0x20 ADD DUP4 DUP2 MSTORE PUSH1 0x20 ADD DUP3 DUP2 MSTORE PUSH1 0x20 ADD SWAP5 POP POP POP POP POP PUSH1 0x40 MLOAD DUP1 SWAP2 SUB SWAP1 RETURN JUMPDEST CALLVALUE DUP1 ISZERO PUSH2 0x3C5 JUMPI PUSH1 0x0 DUP1 REVERT JUMPDEST POP PUSH2 0x408 PUSH1 0x4 DUP1 CALLDATASIZE SUB PUSH1 0x20 DUP2 LT ISZERO PUSH2 0x3DC JUMPI PUSH1 0x0 DUP1 REVERT JUMPDEST DUP2 ADD SWAP1 DUP1 DUP1 CALLDATALOAD PUSH20 0xFFFFFFFFFFFFFFFFFFFFFFFFFFFFFFFFFFFFFFFF AND SWAP1 PUSH1 0x20 ADD SWAP1 SWAP3 SWAP2 SWAP1 POP POP POP PUSH2 0xBBA JUMP JUMPDEST STOP JUMPDEST CALLVALUE DUP1 ISZERO PUSH2 0x416 JUMPI PUSH1 0x0 DUP1 REVERT JUMPDEST POP PUSH2 0x41F PUSH2 0xCC8 JUMP JUMPDEST PUSH1 0x40 MLOAD DUP1 DUP3 DUP2 MSTORE PUSH1 0x20 ADD SWAP2 POP POP PUSH1 0x40 MLOAD DUP1 SWAP2 SUB SWAP1 RETURN JUMPDEST CALLVALUE DUP1 ISZERO PUSH2 0x441 JUMPI PUSH1 0x0 DUP1 REVERT JUMPDEST POP PUSH2 0x44A PUSH2 0xDA8 JUMP JUMPDEST PUSH1 0x40 MLOAD DUP1 DUP3 PUSH20 0xFFFFFFFFFFFFFFFFFFFFFFFFFFFFFFFFFFFFFFFF AND PUSH20 0xFFFFFFFFFFFFFFFFFFFFFFFFFFFFFFFFFFFFFFFF AND DUP2 MSTORE PUSH1 0x20 ADD SWAP2 POP POP PUSH1 0x40 MLOAD DUP1 SWAP2 SUB SWAP1 RETURN JUMPDEST CALLVALUE DUP1 ISZERO PUSH2 0x498 JUMPI PUSH1 0x0 DUP1 REVERT JUMPDEST POP PUSH2 0x4A1 PUSH2 0xDCE JUMP JUMPDEST PUSH1 0x40 MLOAD DUP1 DUP3 DUP2 MSTORE PUSH1 0x20 ADD SWAP2 POP POP PUSH1 0x40 MLOAD DUP1 SWAP2 SUB SWAP1 RETURN JUMPDEST CALLVALUE DUP1 ISZERO PUSH2 0x4C3 JUMPI PUSH1 0x0 DUP1 REVERT JUMPDEST POP PUSH2 0x4CC PUSH2 0xDD4 JUMP JUMPDEST STOP JUMPDEST CALLVALUE DUP1 ISZERO PUSH2 0x4DA JUMPI PUSH1 0x0 DUP1 REVERT JUMPDEST POP PUSH2 0x507 PUSH1 0x4 DUP1 CALLDATASIZE SUB PUSH1 0x20 DUP2 LT ISZERO PUSH2 0x4F1 JUMPI PUSH1 0x0 DUP1 REVERT JUMPDEST DUP2 ADD SWAP1 DUP1 DUP1 CALLDATALOAD SWAP1 PUSH1 0x20 ADD SWAP1 SWAP3 SWAP2 SWAP1 POP POP POP PUSH2 0xF5F JUMP JUMPDEST STOP JUMPDEST CALLVALUE DUP1 ISZERO PUSH2 0x515 JUMPI PUSH1 0x0 DUP1 REVERT JUMPDEST POP PUSH2 0x51E PUSH2 0x1164 JUMP JUMPDEST PUSH1 0x40 MLOAD DUP1 DUP3 PUSH20 0xFFFFFFFFFFFFFFFFFFFFFFFFFFFFFFFFFFFFFFFF AND PUSH20 0xFFFFFFFFFFFFFFFFFFFFFFFFFFFFFFFFFFFFFFFF AND DUP2 MSTORE PUSH1 0x20 ADD SWAP2 POP POP PUSH1 0x40 MLOAD DUP1 SWAP2 SUB SWAP1 RETURN JUMPDEST CALLVALUE DUP1 ISZERO PUSH2 0x56C JUMPI PUSH1 0x0 DUP1 REVERT JUMPDEST POP PUSH2 0x5A3 PUSH1 0x4 DUP1 CALLDATASIZE SUB PUSH1 0x40 DUP2 LT ISZERO PUSH2 0x583 JUMPI PUSH1 0x0 DUP1 REVERT JUMPDEST DUP2 ADD SWAP1 DUP1 DUP1 CALLDATALOAD SWAP1 PUSH1 0x20 ADD SWAP1 SWAP3 SWAP2 SWAP1 DUP1 CALLDATALOAD SWAP1 PUSH1 0x20 ADD SWAP1 SWAP3 SWAP2 SWAP1 POP POP POP PUSH2 0x118E JUMP JUMPDEST STOP JUMPDEST CALLVALUE DUP1 ISZERO PUSH2 0x5B1 JUMPI PUSH1 0x0 DUP1 REVERT JUMPDEST POP PUSH2 0x674 PUSH1 0x4 DUP1 CALLDATASIZE SUB PUSH1 0x40 DUP2 LT ISZERO PUSH2 0x5C8 JUMPI PUSH1 0x0 DUP1 REVERT JUMPDEST DUP2 ADD SWAP1 DUP1 DUP1 CALLDATALOAD SWAP1 PUSH1 0x20 ADD SWAP1 PUSH5 0x100000000 DUP2 GT ISZERO PUSH2 0x5E5 JUMPI PUSH1 0x0 DUP1 REVERT JUMPDEST DUP3 ADD DUP4 PUSH1 0x20 DUP3 ADD GT ISZERO PUSH2 0x5F7 JUMPI PUSH1 0x0 DUP1 REVERT JUMPDEST DUP1 CALLDATALOAD SWAP1 PUSH1 0x20 ADD SWAP2 DUP5 PUSH1 0x20 DUP4 MUL DUP5 ADD GT PUSH5 0x100000000 DUP4 GT OR ISZERO PUSH2 0x619 JUMPI PUSH1 0x0 DUP1 REVERT JUMPDEST SWAP2 SWAP1 DUP1 DUP1 PUSH1 0x20 MUL PUSH1 0x20 ADD PUSH1 0x40 MLOAD SWAP1 DUP2 ADD PUSH1 0x40 MSTORE DUP1 SWAP4 SWAP3 SWAP2 SWAP1 DUP2 DUP2 MSTORE PUSH1 0x20 ADD DUP4 DUP4 PUSH1 0x20 MUL DUP1 DUP3 DUP5 CALLDATACOPY PUSH1 0x0 DUP2 DUP5 ADD MSTORE PUSH1 0x1F NOT PUSH1 0x1F DUP3 ADD AND SWAP1 POP DUP1 DUP4 ADD SWAP3 POP POP POP POP POP POP POP SWAP2 SWAP3 SWAP2 SWAP3 SWAP1 DUP1 CALLDATALOAD ISZERO ISZERO SWAP1 PUSH1 0x20 ADD SWAP1 SWAP3 SWAP2 SWAP1 POP POP POP PUSH2 0x125F JUMP JUMPDEST STOP JUMPDEST CALLVALUE DUP1 ISZERO PUSH2 0x682 JUMPI PUSH1 0x0 DUP1 REVERT JUMPDEST POP PUSH2 0x68B PUSH2 0x13E6 JUMP JUMPDEST PUSH1 0x40 MLOAD DUP1 DUP3 DUP2 MSTORE PUSH1 0x20 ADD SWAP2 POP POP PUSH1 0x40 MLOAD DUP1 SWAP2 SUB SWAP1 RETURN JUMPDEST CALLVALUE DUP1 ISZERO PUSH2 0x6AD JUMPI PUSH1 0x0 DUP1 REVERT JUMPDEST POP PUSH2 0x6DA PUSH1 0x4 DUP1 CALLDATASIZE SUB PUSH1 0x20 DUP2 LT ISZERO PUSH2 0x6C4 JUMPI PUSH1 0x0 DUP1 REVERT JUMPDEST DUP2 ADD SWAP1 DUP1 DUP1 CALLDATALOAD SWAP1 PUSH1 0x20 ADD SWAP1 SWAP3 SWAP2 SWAP1 POP POP POP PUSH2 0x13EC JUMP JUMPDEST STOP JUMPDEST CALLVALUE DUP1 ISZERO PUSH2 0x6E8 JUMPI PUSH1 0x0 DUP1 REVERT JUMPDEST POP PUSH2 0x715 PUSH1 0x4 DUP1 CALLDATASIZE SUB PUSH1 0x20 DUP2 LT ISZERO PUSH2 0x6FF JUMPI PUSH1 0x0 DUP1 REVERT JUMPDEST DUP2 ADD SWAP1 DUP1 DUP1 CALLDATALOAD SWAP1 PUSH1 0x20 ADD SWAP1 SWAP3 SWAP2 SWAP1 POP POP POP PUSH2 0x14C0 JUMP JUMPDEST PUSH1 0x40 MLOAD DUP1 DUP3 DUP2 MSTORE PUSH1 0x20 ADD SWAP2 POP POP PUSH1 0x40 MLOAD DUP1 SWAP2 SUB SWAP1 RETURN JUMPDEST CALLVALUE DUP1 ISZERO PUSH2 0x737 JUMPI PUSH1 0x0 DUP1 REVERT JUMPDEST POP PUSH2 0x77A PUSH1 0x4 DUP1 CALLDATASIZE SUB PUSH1 0x20 DUP2 LT ISZERO PUSH2 0x74E JUMPI PUSH1 0x0 DUP1 REVERT JUMPDEST DUP2 ADD SWAP1 DUP1 DUP1 CALLDATALOAD PUSH20 0xFFFFFFFFFFFFFFFFFFFFFFFFFFFFFFFFFFFFFFFF AND SWAP1 PUSH1 0x20 ADD SWAP1 SWAP3 SWAP2 SWAP1 POP POP POP PUSH2 0x14D8 JUMP JUMPDEST STOP JUMPDEST CALLVALUE DUP1 ISZERO PUSH2 0x788 JUMPI PUSH1 0x0 DUP1 REVERT JUMPDEST POP PUSH2 0x7D7 PUSH1 0x4 DUP1 CALLDATASIZE SUB PUSH1 0x40 DUP2 LT ISZERO PUSH2 0x79F JUMPI PUSH1 0x0 DUP1 REVERT JUMPDEST DUP2 ADD SWAP1 DUP1 DUP1 CALLDATALOAD PUSH20 0xFFFFFFFFFFFFFFFFFFFFFFFFFFFFFFFFFFFFFFFF AND SWAP1 PUSH1 0x20 ADD SWAP1 SWAP3 SWAP2 SWAP1 DUP1 CALLDATALOAD ISZERO ISZERO SWAP1 PUSH1 0x20 ADD SWAP1 SWAP3 SWAP2 SWAP1 POP POP POP PUSH2 0x15E5 JUMP JUMPDEST STOP JUMPDEST CALLVALUE DUP1 ISZERO PUSH2 0x7E5 JUMPI PUSH1 0x0 DUP1 REVERT JUMPDEST POP PUSH2 0x812 PUSH1 0x4 DUP1 CALLDATASIZE SUB PUSH1 0x20 DUP2 LT ISZERO PUSH2 0x7FC JUMPI PUSH1 0x0 DUP1 REVERT JUMPDEST DUP2 ADD SWAP1 DUP1 DUP1 CALLDATALOAD SWAP1 PUSH1 0x20 ADD SWAP1 SWAP3 SWAP2 SWAP1 POP POP POP PUSH2 0x170A JUMP JUMPDEST STOP JUMPDEST PUSH2 0x860 PUSH1 0x4 DUP1 CALLDATASIZE SUB PUSH1 0x40 DUP2 LT ISZERO PUSH2 0x82A JUMPI PUSH1 0x0 DUP1 REVERT JUMPDEST DUP2 ADD SWAP1 DUP1 DUP1 CALLDATALOAD PUSH20 0xFFFFFFFFFFFFFFFFFFFFFFFFFFFFFFFFFFFFFFFF AND SWAP1 PUSH1 0x20 ADD SWAP1 SWAP3 SWAP2 SWAP1 DUP1 CALLDATALOAD SWAP1 PUSH1 0x20 ADD SWAP1 SWAP3 SWAP2 SWAP1 POP POP POP PUSH2 0x1A01 JUMP JUMPDEST STOP JUMPDEST CALLVALUE DUP1 ISZERO PUSH2 0x86E JUMPI PUSH1 0x0 DUP1 REVERT JUMPDEST POP PUSH2 0x877 PUSH2 0x1AFC JUMP JUMPDEST STOP JUMPDEST CALLVALUE DUP1 ISZERO PUSH2 0x885 JUMPI PUSH1 0x0 DUP1 REVERT JUMPDEST POP PUSH2 0x8B2 PUSH1 0x4 DUP1 CALLDATASIZE SUB PUSH1 0x20 DUP2 LT ISZERO PUSH2 0x89C JUMPI PUSH1 0x0 DUP1 REVERT JUMPDEST DUP2 ADD SWAP1 DUP1 DUP1 CALLDATALOAD SWAP1 PUSH1 0x20 ADD SWAP1 SWAP3 SWAP2 SWAP1 POP POP POP PUSH2 0x1F0B JUMP JUMPDEST STOP JUMPDEST PUSH2 0x900 PUSH1 0x4 DUP1 CALLDATASIZE SUB PUSH1 0x40 DUP2 LT ISZERO PUSH2 0x8CA JUMPI PUSH1 0x0 DUP1 REVERT JUMPDEST DUP2 ADD SWAP1 DUP1 DUP1 CALLDATALOAD PUSH20 0xFFFFFFFFFFFFFFFFFFFFFFFFFFFFFFFFFFFFFFFF AND SWAP1 PUSH1 0x20 ADD SWAP1 SWAP3 SWAP2 SWAP1 DUP1 CALLDATALOAD SWAP1 PUSH1 0x20 ADD SWAP1 SWAP3 SWAP2 SWAP1 POP POP POP PUSH2 0x20ED JUMP JUMPDEST STOP JUMPDEST CALLVALUE DUP1 ISZERO PUSH2 0x90E JUMPI PUSH1 0x0 DUP1 REVERT JUMPDEST POP PUSH2 0x951 PUSH1 0x4 DUP1 CALLDATASIZE SUB PUSH1 0x20 DUP2 LT ISZERO PUSH2 0x925 JUMPI PUSH1 0x0 DUP1 REVERT JUMPDEST DUP2 ADD SWAP1 DUP1 DUP1 CALLDATALOAD PUSH20 0xFFFFFFFFFFFFFFFFFFFFFFFFFFFFFFFFFFFFFFFF AND SWAP1 PUSH1 0x20 ADD SWAP1 SWAP3 SWAP2 SWAP1 POP POP POP PUSH2 0x22CD JUMP JUMPDEST PUSH1 0x40 MLOAD DUP1 DUP3 ISZERO ISZERO ISZERO ISZERO DUP2 MSTORE PUSH1 0x20 ADD SWAP2 POP POP PUSH1 0x40 MLOAD DUP1 SWAP2 SUB SWAP1 RETURN JUMPDEST CALLVALUE DUP1 ISZERO PUSH2 0x977 JUMPI PUSH1 0x0 DUP1 REVERT JUMPDEST POP PUSH2 0x9BA PUSH1 0x4 DUP1 CALLDATASIZE SUB PUSH1 0x20 DUP2 LT ISZERO PUSH2 0x98E JUMPI PUSH1 0x0 DUP1 REVERT JUMPDEST DUP2 ADD SWAP1 DUP1 DUP1 CALLDATALOAD PUSH20 0xFFFFFFFFFFFFFFFFFFFFFFFFFFFFFFFFFFFFFFFF AND SWAP1 PUSH1 0x20 ADD SWAP1 SWAP3 SWAP2 SWAP1 POP POP POP PUSH2 0x22ED JUMP JUMPDEST STOP JUMPDEST CALLVALUE DUP1 ISZERO PUSH2 0x9C8 JUMPI PUSH1 0x0 DUP1 REVERT JUMPDEST POP PUSH2 0x9F5 PUSH1 0x4 DUP1 CALLDATASIZE SUB PUSH1 0x20 DUP2 LT ISZERO PUSH2 0x9DF JUMPI PUSH1 0x0 DUP1 REVERT JUMPDEST DUP2 ADD SWAP1 DUP1 DUP1 CALLDATALOAD SWAP1 PUSH1 0x20 ADD SWAP1 SWAP3 SWAP2 SWAP1 POP POP POP PUSH2 0x24FD JUMP JUMPDEST STOP JUMPDEST PUSH1 0x1A PUSH1 0x20 MSTORE DUP1 PUSH1 0x0 MSTORE PUSH1 0x40 PUSH1 0x0 KECCAK256 PUSH1 0x0 SWAP2 POP SWAP1 POP DUP1 PUSH1 0x0 ADD SLOAD SWAP1 DUP1 PUSH1 0x1 ADD PUSH1 0x0 SWAP1 SLOAD SWAP1 PUSH2 0x100 EXP SWAP1 DIV PUSH20 0xFFFFFFFFFFFFFFFFFFFFFFFFFFFFFFFFFFFFFFFF AND SWAP1 DUP1 PUSH1 0x2 ADD SLOAD SWAP1 DUP1 PUSH1 0x3 ADD SLOAD SWAP1 DUP1 PUSH1 0x4 ADD SLOAD SWAP1 DUP1 PUSH1 0x5 ADD PUSH1 0x0 SWAP1 SLOAD SWAP1 PUSH2 0x100 EXP SWAP1 DIV PUSH1 0xFF AND SWAP1 POP DUP7 JUMP JUMPDEST PUSH1 0x12 SLOAD DUP2 JUMP JUMPDEST PUSH1 0x11 SLOAD DUP2 JUMP JUMPDEST PUSH2 0xA74 PUSH2 0x25D3 JUMP JUMPDEST PUSH20 0xFFFFFFFFFFFFFFFFFFFFFFFFFFFFFFFFFFFFFFFF AND PUSH1 0x3 PUSH1 0x0 SWAP1 SLOAD SWAP1 PUSH2 0x100 EXP SWAP1 DIV PUSH20 0xFFFFFFFFFFFFFFFFFFFFFFFFFFFFFFFFFFFFFFFF AND PUSH20 0xFFFFFFFFFFFFFFFFFFFFFFFFFFFFFFFFFFFFFFFF AND EQ PUSH2 0xB36 JUMPI PUSH1 0x40 MLOAD PUSH32 0x8C379A000000000000000000000000000000000000000000000000000000000 DUP2 MSTORE PUSH1 0x4 ADD DUP1 DUP1 PUSH1 0x20 ADD DUP3 DUP2 SUB DUP3 MSTORE PUSH1 0x20 DUP2 MSTORE PUSH1 0x20 ADD DUP1 PUSH32 0x4F776E61626C653A2063616C6C6572206973206E6F7420746865206F776E6572 DUP2 MSTORE POP PUSH1 0x20 ADD SWAP2 POP POP PUSH1 0x40 MLOAD DUP1 SWAP2 SUB SWAP1 REVERT JUMPDEST DUP1 PUSH1 0x16 PUSH1 0x0 PUSH2 0x100 EXP DUP2 SLOAD DUP2 PUSH20 0xFFFFFFFFFFFFFFFFFFFFFFFFFFFFFFFFFFFFFFFF MUL NOT AND SWAP1 DUP4 PUSH20 0xFFFFFFFFFFFFFFFFFFFFFFFFFFFFFFFFFFFFFFFF AND MUL OR SWAP1 SSTORE POP POP JUMP JUMPDEST PUSH1 0x18 PUSH1 0x20 MSTORE DUP1 PUSH1 0x0 MSTORE PUSH1 0x40 PUSH1 0x0 KECCAK256 PUSH1 0x0 SWAP2 POP SLOAD SWAP1 PUSH2 0x100 EXP SWAP1 DIV PUSH1 0xFF AND DUP2 JUMP JUMPDEST PUSH1 0x0 DUP1 PUSH1 0x0 DUP1 PUSH1 0x13 SLOAD PUSH1 0x12 SLOAD PUSH1 0x17 SLOAD PUSH1 0x11 SLOAD SWAP4 POP SWAP4 POP SWAP4 POP SWAP4 POP SWAP1 SWAP2 SWAP3 SWAP4 JUMP JUMPDEST PUSH2 0xBC2 PUSH2 0x25D3 JUMP JUMPDEST PUSH20 0xFFFFFFFFFFFFFFFFFFFFFFFFFFFFFFFFFFFFFFFF AND PUSH1 0x3 PUSH1 0x0 SWAP1 SLOAD SWAP1 PUSH2 0x100 EXP SWAP1 DIV PUSH20 0xFFFFFFFFFFFFFFFFFFFFFFFFFFFFFFFFFFFFFFFF AND PUSH20 0xFFFFFFFFFFFFFFFFFFFFFFFFFFFFFFFFFFFFFFFF AND EQ PUSH2 0xC84 JUMPI PUSH1 0x40 MLOAD PUSH32 0x8C379A000000000000000000000000000000000000000000000000000000000 DUP2 MSTORE PUSH1 0x4 ADD DUP1 DUP1 PUSH1 0x20 ADD DUP3 DUP2 SUB DUP3 MSTORE PUSH1 0x20 DUP2 MSTORE PUSH1 0x20 ADD DUP1 PUSH32 0x4F776E61626C653A2063616C6C6572206973206E6F7420746865206F776E6572 DUP2 MSTORE POP PUSH1 0x20 ADD SWAP2 POP POP PUSH1 0x40 MLOAD DUP1 SWAP2 SUB SWAP1 REVERT JUMPDEST DUP1 PUSH1 0x1 PUSH1 0x0 PUSH2 0x100 EXP DUP2 SLOAD DUP2 PUSH20 0xFFFFFFFFFFFFFFFFFFFFFFFFFFFFFFFFFFFFFFFF MUL NOT AND SWAP1 DUP4 PUSH20 0xFFFFFFFFFFFFFFFFFFFFFFFFFFFFFFFFFFFFFFFF AND MUL OR SWAP1 SSTORE POP POP JUMP JUMPDEST PUSH1 0x0 DUP1 PUSH1 0x0 SWAP1 SLOAD SWAP1 PUSH2 0x100 EXP SWAP1 DIV PUSH20 0xFFFFFFFFFFFFFFFFFFFFFFFFFFFFFFFFFFFFFFFF AND PUSH20 0xFFFFFFFFFFFFFFFFFFFFFFFFFFFFFFFFFFFFFFFF AND PUSH4 0x70A08231 ADDRESS PUSH1 0x40 MLOAD DUP3 PUSH4 0xFFFFFFFF AND PUSH1 0xE0 SHL DUP2 MSTORE PUSH1 0x4 ADD DUP1 DUP3 PUSH20 0xFFFFFFFFFFFFFFFFFFFFFFFFFFFFFFFFFFFFFFFF AND PUSH20 0xFFFFFFFFFFFFFFFFFFFFFFFFFFFFFFFFFFFFFFFF AND DUP2 MSTORE PUSH1 0x20 ADD SWAP2 POP POP PUSH1 0x20 PUSH1 0x40 MLOAD DUP1 DUP4 SUB DUP2 DUP7 DUP1 EXTCODESIZE ISZERO DUP1 ISZERO PUSH2 0xD68 JUMPI PUSH1 0x0 DUP1 REVERT JUMPDEST POP GAS STATICCALL ISZERO DUP1 ISZERO PUSH2 0xD7C JUMPI RETURNDATASIZE PUSH1 0x0 DUP1 RETURNDATACOPY RETURNDATASIZE PUSH1 0x0 REVERT JUMPDEST POP POP POP POP PUSH1 0x40 MLOAD RETURNDATASIZE PUSH1 0x20 DUP2 LT ISZERO PUSH2 0xD92 JUMPI PUSH1 0x0 DUP1 REVERT JUMPDEST DUP2 ADD SWAP1 DUP1 DUP1 MLOAD SWAP1 PUSH1 0x20 ADD SWAP1 SWAP3 SWAP2 SWAP1 POP POP POP SWAP1 POP SWAP1 JUMP JUMPDEST PUSH1 0x16 PUSH1 0x0 SWAP1 SLOAD SWAP1 PUSH2 0x100 EXP SWAP1 DIV PUSH20 0xFFFFFFFFFFFFFFFFFFFFFFFFFFFFFFFFFFFFFFFF AND DUP2 JUMP JUMPDEST PUSH1 0x17 SLOAD DUP2 JUMP JUMPDEST PUSH2 0xDDC PUSH2 0x25D3 JUMP JUMPDEST PUSH20 0xFFFFFFFFFFFFFFFFFFFFFFFFFFFFFFFFFFFFFFFF AND PUSH1 0x3 PUSH1 0x0 SWAP1 SLOAD SWAP1 PUSH2 0x100 EXP SWAP1 DIV PUSH20 0xFFFFFFFFFFFFFFFFFFFFFFFFFFFFFFFFFFFFFFFF AND PUSH20 0xFFFFFFFFFFFFFFFFFFFFFFFFFFFFFFFFFFFFFFFF AND EQ PUSH2 0xE9E JUMPI PUSH1 0x40 MLOAD PUSH32 0x8C379A000000000000000000000000000000000000000000000000000000000 DUP2 MSTORE PUSH1 0x4 ADD DUP1 DUP1 PUSH1 0x20 ADD DUP3 DUP2 SUB DUP3 MSTORE PUSH1 0x20 DUP2 MSTORE PUSH1 0x20 ADD DUP1 PUSH32 0x4F776E61626C653A2063616C6C6572206973206E6F7420746865206F776E6572 DUP2 MSTORE POP PUSH1 0x20 ADD SWAP2 POP POP PUSH1 0x40 MLOAD DUP1 SWAP2 SUB SWAP1 REVERT JUMPDEST PUSH1 0x0 PUSH20 0xFFFFFFFFFFFFFFFFFFFFFFFFFFFFFFFFFFFFFFFF AND PUSH1 0x3 PUSH1 0x0 SWAP1 SLOAD SWAP1 PUSH2 0x100 EXP SWAP1 DIV PUSH20 0xFFFFFFFFFFFFFFFFFFFFFFFFFFFFFFFFFFFFFFFF AND PUSH20 0xFFFFFFFFFFFFFFFFFFFFFFFFFFFFFFFFFFFFFFFF AND PUSH32 0x8BE0079C531659141344CD1FD0A4F28419497F9722A3DAAFE3B4186F6B6457E0 PUSH1 0x40 MLOAD PUSH1 0x40 MLOAD DUP1 SWAP2 SUB SWAP1 LOG3 PUSH1 0x0 PUSH1 0x3 PUSH1 0x0 PUSH2 0x100 EXP DUP2 SLOAD DUP2 PUSH20 0xFFFFFFFFFFFFFFFFFFFFFFFFFFFFFFFFFFFFFFFF MUL NOT AND SWAP1 DUP4 PUSH20 0xFFFFFFFFFFFFFFFFFFFFFFFFFFFFFFFFFFFFFFFF AND MUL OR SWAP1 SSTORE POP JUMP JUMPDEST CALLER PUSH20 0xFFFFFFFFFFFFFFFFFFFFFFFFFFFFFFFFFFFFFFFF AND PUSH2 0xF7E PUSH2 0x1164 JUMP JUMPDEST PUSH20 0xFFFFFFFFFFFFFFFFFFFFFFFFFFFFFFFFFFFFFFFF AND EQ DUP1 PUSH2 0xFE9 JUMPI POP PUSH1 0x18 PUSH1 0x0 CALLER PUSH20 0xFFFFFFFFFFFFFFFFFFFFFFFFFFFFFFFFFFFFFFFF AND PUSH20 0xFFFFFFFFFFFFFFFFFFFFFFFFFFFFFFFFFFFFFFFF AND DUP2 MSTORE PUSH1 0x20 ADD SWAP1 DUP2 MSTORE PUSH1 0x20 ADD PUSH1 0x0 KECCAK256 PUSH1 0x0 SWAP1 SLOAD SWAP1 PUSH2 0x100 EXP SWAP1 DIV PUSH1 0xFF AND JUMPDEST PUSH2 0x105B JUMPI PUSH1 0x40 MLOAD PUSH32 0x8C379A000000000000000000000000000000000000000000000000000000000 DUP2 MSTORE PUSH1 0x4 ADD DUP1 DUP1 PUSH1 0x20 ADD DUP3 DUP2 SUB DUP3 MSTORE PUSH1 0x18 DUP2 MSTORE PUSH1 0x20 ADD DUP1 PUSH32 0x63616C6C6572206973206E6F7420617574686F72697A65640000000000000000 DUP2 MSTORE POP PUSH1 0x20 ADD SWAP2 POP POP PUSH1 0x40 MLOAD DUP1 SWAP2 SUB SWAP1 REVERT JUMPDEST PUSH1 0x0 DUP1 SWAP1 SLOAD SWAP1 PUSH2 0x100 EXP SWAP1 DIV PUSH20 0xFFFFFFFFFFFFFFFFFFFFFFFFFFFFFFFFFFFFFFFF AND PUSH20 0xFFFFFFFFFFFFFFFFFFFFFFFFFFFFFFFFFFFFFFFF AND PUSH4 0xA9059CBB PUSH1 0x16 PUSH1 0x0 SWAP1 SLOAD SWAP1 PUSH2 0x100 EXP SWAP1 DIV PUSH20 0xFFFFFFFFFFFFFFFFFFFFFFFFFFFFFFFFFFFFFFFF AND DUP4 PUSH1 0x40 MLOAD DUP4 PUSH4 0xFFFFFFFF AND PUSH1 0xE0 SHL DUP2 MSTORE PUSH1 0x4 ADD DUP1 DUP4 PUSH20 0xFFFFFFFFFFFFFFFFFFFFFFFFFFFFFFFFFFFFFFFF AND PUSH20 0xFFFFFFFFFFFFFFFFFFFFFFFFFFFFFFFFFFFFFFFF AND DUP2 MSTORE PUSH1 0x20 ADD DUP3 DUP2 MSTORE PUSH1 0x20 ADD SWAP3 POP POP POP PUSH1 0x20 PUSH1 0x40 MLOAD DUP1 DUP4 SUB DUP2 PUSH1 0x0 DUP8 DUP1 EXTCODESIZE ISZERO DUP1 ISZERO PUSH2 0x1125 JUMPI PUSH1 0x0 DUP1 REVERT JUMPDEST POP GAS CALL ISZERO DUP1 ISZERO PUSH2 0x1139 JUMPI RETURNDATASIZE PUSH1 0x0 DUP1 RETURNDATACOPY RETURNDATASIZE PUSH1 0x0 REVERT JUMPDEST POP POP POP POP PUSH1 0x40 MLOAD RETURNDATASIZE PUSH1 0x20 DUP2 LT ISZERO PUSH2 0x114F JUMPI PUSH1 0x0 DUP1 REVERT JUMPDEST DUP2 ADD SWAP1 DUP1 DUP1 MLOAD SWAP1 PUSH1 0x20 ADD SWAP1 SWAP3 SWAP2 SWAP1 POP POP POP POP POP JUMP JUMPDEST PUSH1 0x0 PUSH1 0x3 PUSH1 0x0 SWAP1 SLOAD SWAP1 PUSH2 0x100 EXP SWAP1 DIV PUSH20 0xFFFFFFFFFFFFFFFFFFFFFFFFFFFFFFFFFFFFFFFF AND SWAP1 POP SWAP1 JUMP JUMPDEST PUSH1 0x1 PUSH1 0x0 SWAP1 SLOAD SWAP1 PUSH2 0x100 EXP SWAP1 DIV PUSH20 0xFFFFFFFFFFFFFFFFFFFFFFFFFFFFFFFFFFFFFFFF AND PUSH20 0xFFFFFFFFFFFFFFFFFFFFFFFFFFFFFFFFFFFFFFFF AND CALLER PUSH20 0xFFFFFFFFFFFFFFFFFFFFFFFFFFFFFFFFFFFFFFFF AND EQ PUSH2 0x1251 JUMPI PUSH1 0x40 MLOAD PUSH32 0x8C379A000000000000000000000000000000000000000000000000000000000 DUP2 MSTORE PUSH1 0x4 ADD DUP1 DUP1 PUSH1 0x20 ADD DUP3 DUP2 SUB DUP3 MSTORE PUSH1 0x1F DUP2 MSTORE PUSH1 0x20 ADD DUP1 PUSH32 0x4F6E6C7920565246436F6F7264696E61746F722063616E2066756C66696C6C00 DUP2 MSTORE POP PUSH1 0x20 ADD SWAP2 POP POP PUSH1 0x40 MLOAD DUP1 SWAP2 SUB SWAP1 REVERT JUMPDEST PUSH2 0x125B DUP3 DUP3 PUSH2 0x25DB JUMP JUMPDEST POP POP JUMP JUMPDEST CALLER PUSH20 0xFFFFFFFFFFFFFFFFFFFFFFFFFFFFFFFFFFFFFFFF AND PUSH2 0x127E PUSH2 0x1164 JUMP JUMPDEST PUSH20 0xFFFFFFFFFFFFFFFFFFFFFFFFFFFFFFFFFFFFFFFF AND EQ DUP1 PUSH2 0x12E9 JUMPI POP PUSH1 0x18 PUSH1 0x0 CALLER PUSH20 0xFFFFFFFFFFFFFFFFFFFFFFFFFFFFFFFFFFFFFFFF AND PUSH20 0xFFFFFFFFFFFFFFFFFFFFFFFFFFFFFFFFFFFFFFFF AND DUP2 MSTORE PUSH1 0x20 ADD SWAP1 DUP2 MSTORE PUSH1 0x20 ADD PUSH1 0x0 KECCAK256 PUSH1 0x0 SWAP1 SLOAD SWAP1 PUSH2 0x100 EXP SWAP1 DIV PUSH1 0xFF AND JUMPDEST PUSH2 0x135B JUMPI PUSH1 0x40 MLOAD PUSH32 0x8C379A000000000000000000000000000000000000000000000000000000000 DUP2 MSTORE PUSH1 0x4 ADD DUP1 DUP1 PUSH1 0x20 ADD DUP3 DUP2 SUB DUP3 MSTORE PUSH1 0x18 DUP2 MSTORE PUSH1 0x20 ADD DUP1 PUSH32 0x63616C6C6572206973206E6F7420617574686F72697A65640000000000000000 DUP2 MSTORE POP PUSH1 0x20 ADD SWAP2 POP POP PUSH1 0x40 MLOAD DUP1 SWAP2 SUB SWAP1 REVERT JUMPDEST PUSH1 0x0 DUP1 SWAP1 POP JUMPDEST DUP3 MLOAD DUP2 LT ISZERO PUSH2 0x13E1 JUMPI DUP2 PUSH1 0x19 PUSH1 0x0 DUP6 DUP5 DUP2 MLOAD DUP2 LT PUSH2 0x137B JUMPI INVALID JUMPDEST PUSH1 0x20 MUL PUSH1 0x20 ADD ADD MLOAD PUSH20 0xFFFFFFFFFFFFFFFFFFFFFFFFFFFFFFFFFFFFFFFF AND PUSH20 0xFFFFFFFFFFFFFFFFFFFFFFFFFFFFFFFFFFFFFFFF AND DUP2 MSTORE PUSH1 0x20 ADD SWAP1 DUP2 MSTORE PUSH1 0x20 ADD PUSH1 0x0 KECCAK256 PUSH1 0x0 PUSH2 0x100 EXP DUP2 SLOAD DUP2 PUSH1 0xFF MUL NOT AND SWAP1 DUP4 ISZERO ISZERO MUL OR SWAP1 SSTORE POP DUP1 DUP1 PUSH1 0x1 ADD SWAP2 POP POP PUSH2 0x1361 JUMP JUMPDEST POP POP POP JUMP JUMPDEST PUSH1 0x13 SLOAD DUP2 JUMP JUMPDEST PUSH2 0x13F4 PUSH2 0x25D3 JUMP JUMPDEST PUSH20 0xFFFFFFFFFFFFFFFFFFFFFFFFFFFFFFFFFFFFFFFF AND PUSH1 0x3 PUSH1 0x0 SWAP1 SLOAD SWAP1 PUSH2 0x100 EXP SWAP1 DIV PUSH20 0xFFFFFFFFFFFFFFFFFFFFFFFFFFFFFFFFFFFFFFFF AND PUSH20 0xFFFFFFFFFFFFFFFFFFFFFFFFFFFFFFFFFFFFFFFF AND EQ PUSH2 0x14B6 JUMPI PUSH1 0x40 MLOAD PUSH32 0x8C379A000000000000000000000000000000000000000000000000000000000 DUP2 MSTORE PUSH1 0x4 ADD DUP1 DUP1 PUSH1 0x20 ADD DUP3 DUP2 SUB DUP3 MSTORE PUSH1 0x20 DUP2 MSTORE PUSH1 0x20 ADD DUP1 PUSH32 0x4F776E61626C653A2063616C6C6572206973206E6F7420746865206F776E6572 DUP2 MSTORE POP PUSH1 0x20 ADD SWAP2 POP POP PUSH1 0x40 MLOAD DUP1 SWAP2 SUB SWAP1 REVERT JUMPDEST DUP1 PUSH1 0x4 DUP2 SWAP1 SSTORE POP POP JUMP JUMPDEST PUSH1 0x2 PUSH1 0x20 MSTORE DUP1 PUSH1 0x0 MSTORE PUSH1 0x40 PUSH1 0x0 KECCAK256 PUSH1 0x0 SWAP2 POP SWAP1 POP SLOAD DUP2 JUMP JUMPDEST PUSH2 0x14E0 PUSH2 0x25D3 JUMP JUMPDEST PUSH20 0xFFFFFFFFFFFFFFFFFFFFFFFFFFFFFFFFFFFFFFFF AND PUSH1 0x3 PUSH1 0x0 SWAP1 SLOAD SWAP1 PUSH2 0x100 EXP SWAP1 DIV PUSH20 0xFFFFFFFFFFFFFFFFFFFFFFFFFFFFFFFFFFFFFFFF AND PUSH20 0xFFFFFFFFFFFFFFFFFFFFFFFFFFFFFFFFFFFFFFFF AND EQ PUSH2 0x15A2 JUMPI PUSH1 0x40 MLOAD PUSH32 0x8C379A000000000000000000000000000000000000000000000000000000000 DUP2 MSTORE PUSH1 0x4 ADD DUP1 DUP1 PUSH1 0x20 ADD DUP3 DUP2 SUB DUP3 MSTORE PUSH1 0x20 DUP2 MSTORE PUSH1 0x20 ADD DUP1 PUSH32 0x4F776E61626C653A2063616C6C6572206973206E6F7420746865206F776E6572 DUP2 MSTORE POP PUSH1 0x20 ADD SWAP2 POP POP PUSH1 0x40 MLOAD DUP1 SWAP2 SUB SWAP1 REVERT JUMPDEST DUP1 PUSH1 0x0 DUP1 PUSH2 0x100 EXP DUP2 SLOAD DUP2 PUSH20 0xFFFFFFFFFFFFFFFFFFFFFFFFFFFFFFFFFFFFFFFF MUL NOT AND SWAP1 DUP4 PUSH20 0xFFFFFFFFFFFFFFFFFFFFFFFFFFFFFFFFFFFFFFFF AND MUL OR SWAP1 SSTORE POP POP JUMP JUMPDEST PUSH2 0x15ED PUSH2 0x25D3 JUMP JUMPDEST PUSH20 0xFFFFFFFFFFFFFFFFFFFFFFFFFFFFFFFFFFFFFFFF AND PUSH1 0x3 PUSH1 0x0 SWAP1 SLOAD SWAP1 PUSH2 0x100 EXP SWAP1 DIV PUSH20 0xFFFFFFFFFFFFFFFFFFFFFFFFFFFFFFFFFFFFFFFF AND PUSH20 0xFFFFFFFFFFFFFFFFFFFFFFFFFFFFFFFFFFFFFFFF AND EQ PUSH2 0x16AF JUMPI PUSH1 0x40 MLOAD PUSH32 0x8C379A000000000000000000000000000000000000000000000000000000000 DUP2 MSTORE PUSH1 0x4 ADD DUP1 DUP1 PUSH1 0x20 ADD DUP3 DUP2 SUB DUP3 MSTORE PUSH1 0x20 DUP2 MSTORE PUSH1 0x20 ADD DUP1 PUSH32 0x4F776E61626C653A2063616C6C6572206973206E6F7420746865206F776E6572 DUP2 MSTORE POP PUSH1 0x20 ADD SWAP2 POP POP PUSH1 0x40 MLOAD DUP1 SWAP2 SUB SWAP1 REVERT JUMPDEST DUP1 PUSH1 0x18 PUSH1 0x0 DUP5 PUSH20 0xFFFFFFFFFFFFFFFFFFFFFFFFFFFFFFFFFFFFFFFF AND PUSH20 0xFFFFFFFFFFFFFFFFFFFFFFFFFFFFFFFFFFFFFFFF AND DUP2 MSTORE PUSH1 0x20 ADD SWAP1 DUP2 MSTORE PUSH1 0x20 ADD PUSH1 0x0 KECCAK256 PUSH1 0x0 PUSH2 0x100 EXP DUP2 SLOAD DUP2 PUSH1 0xFF MUL NOT AND SWAP1 DUP4 ISZERO ISZERO MUL OR SWAP1 SSTORE POP POP POP JUMP JUMPDEST PUSH1 0x0 PUSH1 0x1A PUSH1 0x0 DUP4 DUP2 MSTORE PUSH1 0x20 ADD SWAP1 DUP2 MSTORE PUSH1 0x20 ADD PUSH1 0x0 KECCAK256 SWAP1 POP PUSH1 0x18 PUSH1 0x0 CALLER PUSH20 0xFFFFFFFFFFFFFFFFFFFFFFFFFFFFFFFFFFFFFFFF AND PUSH20 0xFFFFFFFFFFFFFFFFFFFFFFFFFFFFFFFFFFFFFFFF AND DUP2 MSTORE PUSH1 0x20 ADD SWAP1 DUP2 MSTORE PUSH1 0x20 ADD PUSH1 0x0 KECCAK256 PUSH1 0x0 SWAP1 SLOAD SWAP1 PUSH2 0x100 EXP SWAP1 DIV PUSH1 0xFF AND DUP1 PUSH2 0x17AB JUMPI POP CALLER PUSH20 0xFFFFFFFFFFFFFFFFFFFFFFFFFFFFFFFFFFFFFFFF AND PUSH2 0x1793 PUSH2 0x1164 JUMP JUMPDEST PUSH20 0xFFFFFFFFFFFFFFFFFFFFFFFFFFFFFFFFFFFFFFFF AND EQ JUMPDEST DUP1 PUSH2 0x1805 JUMPI POP CALLER PUSH20 0xFFFFFFFFFFFFFFFFFFFFFFFFFFFFFFFFFFFFFFFF AND DUP2 PUSH1 0x1 ADD PUSH1 0x0 SWAP1 SLOAD SWAP1 PUSH2 0x100 EXP SWAP1 DIV PUSH20 0xFFFFFFFFFFFFFFFFFFFFFFFFFFFFFFFFFFFFFFFF AND PUSH20 0xFFFFFFFFFFFFFFFFFFFFFFFFFFFFFFFFFFFFFFFF AND EQ JUMPDEST PUSH2 0x1877 JUMPI PUSH1 0x40 MLOAD PUSH32 0x8C379A000000000000000000000000000000000000000000000000000000000 DUP2 MSTORE PUSH1 0x4 ADD DUP1 DUP1 PUSH1 0x20 ADD DUP3 DUP2 SUB DUP3 MSTORE PUSH1 0x20 DUP2 MSTORE PUSH1 0x20 ADD DUP1 PUSH32 0x4E6F7420617574686F72697A656420746F207265717565737420726566756E64 DUP2 MSTORE POP PUSH1 0x20 ADD SWAP2 POP POP PUSH1 0x40 MLOAD DUP1 SWAP2 SUB SWAP1 REVERT JUMPDEST PUSH1 0x0 ISZERO ISZERO DUP2 PUSH1 0x5 ADD PUSH1 0x0 SWAP1 SLOAD SWAP1 PUSH2 0x100 EXP SWAP1 DIV PUSH1 0xFF AND ISZERO ISZERO EQ PUSH2 0x18E5 JUMPI PUSH1 0x40 MLOAD PUSH32 0x8C379A000000000000000000000000000000000000000000000000000000000 DUP2 MSTORE PUSH1 0x4 ADD DUP1 DUP1 PUSH1 0x20 ADD DUP3 DUP2 SUB DUP3 MSTORE PUSH1 0x2A DUP2 MSTORE PUSH1 0x20 ADD DUP1 PUSH2 0x33B3 PUSH1 0x2A SWAP2 CODECOPY PUSH1 0x40 ADD SWAP2 POP POP PUSH1 0x40 MLOAD DUP1 SWAP2 SUB SWAP1 REVERT JUMPDEST DUP1 PUSH1 0x2 ADD SLOAD SELFBALANCE LT ISZERO PUSH2 0x1942 JUMPI PUSH1 0x40 MLOAD PUSH32 0x8C379A000000000000000000000000000000000000000000000000000000000 DUP2 MSTORE PUSH1 0x4 ADD DUP1 DUP1 PUSH1 0x20 ADD DUP3 DUP2 SUB DUP3 MSTORE PUSH1 0x31 DUP2 MSTORE PUSH1 0x20 ADD DUP1 PUSH2 0x3382 PUSH1 0x31 SWAP2 CODECOPY PUSH1 0x40 ADD SWAP2 POP POP PUSH1 0x40 MLOAD DUP1 SWAP2 SUB SWAP1 REVERT JUMPDEST PUSH1 0x1 DUP2 PUSH1 0x5 ADD PUSH1 0x0 PUSH2 0x100 EXP DUP2 SLOAD DUP2 PUSH1 0xFF MUL NOT AND SWAP1 DUP4 ISZERO ISZERO MUL OR SWAP1 SSTORE POP DUP1 PUSH1 0x2 ADD SLOAD PUSH1 0x14 SLOAD LT PUSH2 0x1985 JUMPI DUP1 PUSH1 0x2 ADD SLOAD PUSH1 0x14 PUSH1 0x0 DUP3 DUP3 SLOAD SUB SWAP3 POP POP DUP2 SWAP1 SSTORE POP PUSH2 0x198E JUMP JUMPDEST PUSH1 0x0 PUSH1 0x14 DUP2 SWAP1 SSTORE POP JUMPDEST DUP1 PUSH1 0x1 ADD PUSH1 0x0 SWAP1 SLOAD SWAP1 PUSH2 0x100 EXP SWAP1 DIV PUSH20 0xFFFFFFFFFFFFFFFFFFFFFFFFFFFFFFFFFFFFFFFF AND PUSH20 0xFFFFFFFFFFFFFFFFFFFFFFFFFFFFFFFFFFFFFFFF AND PUSH2 0x8FC DUP3 PUSH1 0x2 ADD SLOAD SWAP1 DUP2 ISZERO MUL SWAP1 PUSH1 0x40 MLOAD PUSH1 0x0 PUSH1 0x40 MLOAD DUP1 DUP4 SUB DUP2 DUP6 DUP9 DUP9 CALL SWAP4 POP POP POP POP ISZERO DUP1 ISZERO PUSH2 0x19FC JUMPI RETURNDATASIZE PUSH1 0x0 DUP1 RETURNDATACOPY RETURNDATASIZE PUSH1 0x0 REVERT JUMPDEST POP POP POP JUMP JUMPDEST PUSH1 0x13 SLOAD CALLVALUE LT ISZERO PUSH2 0x1A79 JUMPI PUSH1 0x40 MLOAD PUSH32 0x8C379A000000000000000000000000000000000000000000000000000000000 DUP2 MSTORE PUSH1 0x4 ADD DUP1 DUP1 PUSH1 0x20 ADD DUP3 DUP2 SUB DUP3 MSTORE PUSH1 0x13 DUP2 MSTORE PUSH1 0x20 ADD DUP1 PUSH32 0x6D696E696D756D20626574206E6F74206D657400000000000000000000000000 DUP2 MSTORE POP PUSH1 0x20 ADD SWAP2 POP POP PUSH1 0x40 MLOAD DUP1 SWAP2 SUB SWAP1 REVERT JUMPDEST PUSH1 0x1 PUSH1 0x6 SLOAD EQ ISZERO PUSH2 0x1AC7 JUMPI PUSH1 0x6 PUSH1 0x0 SWAP1 SSTORE PUSH1 0x7 PUSH1 0x0 SWAP1 SSTORE PUSH1 0x8 PUSH1 0x0 SWAP1 SSTORE PUSH1 0x9 PUSH1 0x0 SWAP1 SSTORE PUSH1 0xA PUSH1 0x0 SWAP1 SSTORE PUSH1 0xB PUSH1 0x0 SWAP1 SSTORE PUSH1 0xC PUSH1 0x0 SWAP1 SSTORE PUSH1 0xD PUSH1 0x0 SWAP1 SSTORE PUSH1 0xE PUSH1 0x0 SWAP1 SSTORE PUSH1 0xF PUSH1 0x0 SWAP1 SSTORE PUSH1 0x10 PUSH1 0x0 SWAP1 SSTORE JUMPDEST PUSH2 0x1ADC CALLVALUE PUSH1 0x14 SLOAD PUSH2 0x28E8 SWAP1 SWAP2 SWAP1 PUSH4 0xFFFFFFFF AND JUMP JUMPDEST PUSH1 0x14 DUP2 SWAP1 SSTORE POP PUSH2 0x1AED DUP3 CALLVALUE DUP4 PUSH2 0x2970 JUMP JUMPDEST PUSH2 0x1AF8 PUSH1 0x15 SLOAD PUSH2 0x2A8F JUMP JUMPDEST POP POP JUMP JUMPDEST PUSH2 0x1B04 PUSH2 0x25D3 JUMP JUMPDEST PUSH20 0xFFFFFFFFFFFFFFFFFFFFFFFFFFFFFFFFFFFFFFFF AND PUSH1 0x3 PUSH1 0x0 SWAP1 SLOAD SWAP1 PUSH2 0x100 EXP SWAP1 DIV PUSH20 0xFFFFFFFFFFFFFFFFFFFFFFFFFFFFFFFFFFFFFFFF AND PUSH20 0xFFFFFFFFFFFFFFFFFFFFFFFFFFFFFFFFFFFFFFFF AND EQ PUSH2 0x1BC6 JUMPI PUSH1 0x40 MLOAD PUSH32 0x8C379A000000000000000000000000000000000000000000000000000000000 DUP2 MSTORE PUSH1 0x4 ADD DUP1 DUP1 PUSH1 0x20 ADD DUP3 DUP2 SUB DUP3 MSTORE PUSH1 0x20 DUP2 MSTORE PUSH1 0x20 ADD DUP1 PUSH32 0x4F776E61626C653A2063616C6C6572206973206E6F7420746865206F776E6572 DUP2 MSTORE POP PUSH1 0x20 ADD SWAP2 POP POP PUSH1 0x40 MLOAD DUP1 SWAP2 SUB SWAP1 REVERT JUMPDEST PUSH1 0x0 PUSH2 0x1BDD PUSH1 0x14 SLOAD SELFBALANCE PUSH2 0x2B5C SWAP1 SWAP2 SWAP1 PUSH4 0xFFFFFFFF AND JUMP JUMPDEST SWAP1 POP PUSH1 0x16 PUSH1 0x0 SWAP1 SLOAD SWAP1 PUSH2 0x100 EXP SWAP1 DIV PUSH20 0xFFFFFFFFFFFFFFFFFFFFFFFFFFFFFFFFFFFFFFFF AND PUSH20 0xFFFFFFFFFFFFFFFFFFFFFFFFFFFFFFFFFFFFFFFF AND PUSH2 0x8FC DUP3 SWAP1 DUP2 ISZERO MUL SWAP1 PUSH1 0x40 MLOAD PUSH1 0x0 PUSH1 0x40 MLOAD DUP1 DUP4 SUB DUP2 DUP6 DUP9 DUP9 CALL SWAP4 POP POP POP POP ISZERO DUP1 ISZERO PUSH2 0x1C47 JUMPI RETURNDATASIZE PUSH1 0x0 DUP1 RETURNDATACOPY RETURNDATASIZE PUSH1 0x0 REVERT JUMPDEST POP PUSH1 0x0 DUP1 PUSH1 0x0 SWAP1 SLOAD SWAP1 PUSH2 0x100 EXP SWAP1 DIV PUSH20 0xFFFFFFFFFFFFFFFFFFFFFFFFFFFFFFFFFFFFFFFF AND PUSH20 0xFFFFFFFFFFFFFFFFFFFFFFFFFFFFFFFFFFFFFFFF AND PUSH4 0x70A08231 ADDRESS PUSH1 0x40 MLOAD DUP3 PUSH4 0xFFFFFFFF AND PUSH1 0xE0 SHL DUP2 MSTORE PUSH1 0x4 ADD DUP1 DUP3 PUSH20 0xFFFFFFFFFFFFFFFFFFFFFFFFFFFFFFFFFFFFFFFF AND PUSH20 0xFFFFFFFFFFFFFFFFFFFFFFFFFFFFFFFFFFFFFFFF AND DUP2 MSTORE PUSH1 0x20 ADD SWAP2 POP POP PUSH1 0x20 PUSH1 0x40 MLOAD DUP1 DUP4 SUB DUP2 DUP7 DUP1 EXTCODESIZE ISZERO DUP1 ISZERO PUSH2 0x1CE8 JUMPI PUSH1 0x0 DUP1 REVERT JUMPDEST POP GAS STATICCALL ISZERO DUP1 ISZERO PUSH2 0x1CFC JUMPI RETURNDATASIZE PUSH1 0x0 DUP1 RETURNDATACOPY RETURNDATASIZE PUSH1 0x0 REVERT JUMPDEST POP POP POP POP PUSH1 0x40 MLOAD RETURNDATASIZE PUSH1 0x20 DUP2 LT ISZERO PUSH2 0x1D12 JUMPI PUSH1 0x0 DUP1 REVERT JUMPDEST DUP2 ADD SWAP1 DUP1 DUP1 MLOAD SWAP1 PUSH1 0x20 ADD SWAP1 SWAP3 SWAP2 SWAP1 POP POP POP GT ISZERO PUSH2 0x1F08 JUMPI PUSH1 0x0 DUP1 SWAP1 SLOAD SWAP1 PUSH2 0x100 EXP SWAP1 DIV PUSH20 0xFFFFFFFFFFFFFFFFFFFFFFFFFFFFFFFFFFFFFFFF AND PUSH20 0xFFFFFFFFFFFFFFFFFFFFFFFFFFFFFFFFFFFFFFFF AND PUSH4 0xA9059CBB PUSH1 0x16 PUSH1 0x0 SWAP1 SLOAD SWAP1 PUSH2 0x100 EXP SWAP1 DIV PUSH20 0xFFFFFFFFFFFFFFFFFFFFFFFFFFFFFFFFFFFFFFFF AND PUSH1 0x0 DUP1 SWAP1 SLOAD SWAP1 PUSH2 0x100 EXP SWAP1 DIV PUSH20 0xFFFFFFFFFFFFFFFFFFFFFFFFFFFFFFFFFFFFFFFF AND PUSH20 0xFFFFFFFFFFFFFFFFFFFFFFFFFFFFFFFFFFFFFFFF AND PUSH4 0x70A08231 ADDRESS PUSH1 0x40 MLOAD DUP3 PUSH4 0xFFFFFFFF AND PUSH1 0xE0 SHL DUP2 MSTORE PUSH1 0x4 ADD DUP1 DUP3 PUSH20 0xFFFFFFFFFFFFFFFFFFFFFFFFFFFFFFFFFFFFFFFF AND PUSH20 0xFFFFFFFFFFFFFFFFFFFFFFFFFFFFFFFFFFFFFFFF AND DUP2 MSTORE PUSH1 0x20 ADD SWAP2 POP POP PUSH1 0x20 PUSH1 0x40 MLOAD DUP1 DUP4 SUB DUP2 DUP7 DUP1 EXTCODESIZE ISZERO DUP1 ISZERO PUSH2 0x1E27 JUMPI PUSH1 0x0 DUP1 REVERT JUMPDEST POP GAS STATICCALL ISZERO DUP1 ISZERO PUSH2 0x1E3B JUMPI RETURNDATASIZE PUSH1 0x0 DUP1 RETURNDATACOPY RETURNDATASIZE PUSH1 0x0 REVERT JUMPDEST POP POP POP POP PUSH1 0x40 MLOAD RETURNDATASIZE PUSH1 0x20 DUP2 LT ISZERO PUSH2 0x1E51 JUMPI PUSH1 0x0 DUP1 REVERT JUMPDEST DUP2 ADD SWAP1 DUP1 DUP1 MLOAD SWAP1 PUSH1 0x20 ADD SWAP1 SWAP3 SWAP2 SWAP1 POP POP POP PUSH1 0x40 MLOAD DUP4 PUSH4 0xFFFFFFFF AND PUSH1 0xE0 SHL DUP2 MSTORE PUSH1 0x4 ADD DUP1 DUP4 PUSH20 0xFFFFFFFFFFFFFFFFFFFFFFFFFFFFFFFFFFFFFFFF AND PUSH20 0xFFFFFFFFFFFFFFFFFFFFFFFFFFFFFFFFFFFFFFFF AND DUP2 MSTORE PUSH1 0x20 ADD DUP3 DUP2 MSTORE PUSH1 0x20 ADD SWAP3 POP POP POP PUSH1 0x20 PUSH1 0x40 MLOAD DUP1 DUP4 SUB DUP2 PUSH1 0x0 DUP8 DUP1 EXTCODESIZE ISZERO DUP1 ISZERO PUSH2 0x1ECB JUMPI PUSH1 0x0 DUP1 REVERT JUMPDEST POP GAS CALL ISZERO DUP1 ISZERO PUSH2 0x1EDF JUMPI RETURNDATASIZE PUSH1 0x0 DUP1 RETURNDATACOPY RETURNDATASIZE PUSH1 0x0 REVERT JUMPDEST POP POP POP POP PUSH1 0x40 MLOAD RETURNDATASIZE PUSH1 0x20 DUP2 LT ISZERO PUSH2 0x1EF5 JUMPI PUSH1 0x0 DUP1 REVERT JUMPDEST DUP2 ADD SWAP1 DUP1 DUP1 MLOAD SWAP1 PUSH1 0x20 ADD SWAP1 SWAP3 SWAP2 SWAP1 POP POP POP POP JUMPDEST POP JUMP JUMPDEST CALLER PUSH20 0xFFFFFFFFFFFFFFFFFFFFFFFFFFFFFFFFFFFFFFFF AND PUSH2 0x1F2A PUSH2 0x1164 JUMP JUMPDEST PUSH20 0xFFFFFFFFFFFFFFFFFFFFFFFFFFFFFFFFFFFFFFFF AND EQ DUP1 PUSH2 0x1F95 JUMPI POP PUSH1 0x18 PUSH1 0x0 CALLER PUSH20 0xFFFFFFFFFFFFFFFFFFFFFFFFFFFFFFFFFFFFFFFF AND PUSH20 0xFFFFFFFFFFFFFFFFFFFFFFFFFFFFFFFFFFFFFFFF AND DUP2 MSTORE PUSH1 0x20 ADD SWAP1 DUP2 MSTORE PUSH1 0x20 ADD PUSH1 0x0 KECCAK256 PUSH1 0x0 SWAP1 SLOAD SWAP1 PUSH2 0x100 EXP SWAP1 DIV PUSH1 0xFF AND JUMPDEST PUSH2 0x2007 JUMPI PUSH1 0x40 MLOAD PUSH32 0x8C379A000000000000000000000000000000000000000000000000000000000 DUP2 MSTORE PUSH1 0x4 ADD DUP1 DUP1 PUSH1 0x20 ADD DUP3 DUP2 SUB DUP3 MSTORE PUSH1 0x18 DUP2 MSTORE PUSH1 0x20 ADD DUP1 PUSH32 0x63616C6C6572206973206E6F7420617574686F72697A65640000000000000000 DUP2 MSTORE POP PUSH1 0x20 ADD SWAP2 POP POP PUSH1 0x40 MLOAD DUP1 SWAP2 SUB SWAP1 REVERT JUMPDEST PUSH1 0x14 SLOAD DUP2 SELFBALANCE SUB LT ISZERO PUSH2 0x2081 JUMPI PUSH1 0x40 MLOAD PUSH32 0x8C379A000000000000000000000000000000000000000000000000000000000 DUP2 MSTORE PUSH1 0x4 ADD DUP1 DUP1 PUSH1 0x20 ADD DUP3 DUP2 SUB DUP3 MSTORE PUSH1 0x1C DUP2 MSTORE PUSH1 0x20 ADD DUP1 PUSH32 0x43616E277420776974686472617720756E706C61796564206265747300000000 DUP2 MSTORE POP PUSH1 0x20 ADD SWAP2 POP POP PUSH1 0x40 MLOAD DUP1 SWAP2 SUB SWAP1 REVERT JUMPDEST PUSH1 0x16 PUSH1 0x0 SWAP1 SLOAD SWAP1 PUSH2 0x100 EXP SWAP1 DIV PUSH20 0xFFFFFFFFFFFFFFFFFFFFFFFFFFFFFFFFFFFFFFFF AND PUSH20 0xFFFFFFFFFFFFFFFFFFFFFFFFFFFFFFFFFFFFFFFF AND PUSH2 0x8FC DUP3 SWAP1 DUP2 ISZERO MUL SWAP1 PUSH1 0x40 MLOAD PUSH1 0x0 PUSH1 0x40 MLOAD DUP1 DUP4 SUB DUP2 DUP6 DUP9 DUP9 CALL SWAP4 POP POP POP POP ISZERO DUP1 ISZERO PUSH2 0x20E9 JUMPI RETURNDATASIZE PUSH1 0x0 DUP1 RETURNDATACOPY RETURNDATASIZE PUSH1 0x0 REVERT JUMPDEST POP POP JUMP JUMPDEST PUSH2 0x20F6 CALLVALUE PUSH2 0x2BE5 JUMP JUMPDEST PUSH2 0x214B JUMPI PUSH1 0x40 MLOAD PUSH32 0x8C379A000000000000000000000000000000000000000000000000000000000 DUP2 MSTORE PUSH1 0x4 ADD DUP1 DUP1 PUSH1 0x20 ADD DUP3 DUP2 SUB DUP3 MSTORE PUSH1 0x36 DUP2 MSTORE PUSH1 0x20 ADD DUP1 PUSH2 0x332B PUSH1 0x36 SWAP2 CODECOPY PUSH1 0x40 ADD SWAP2 POP POP PUSH1 0x40 MLOAD DUP1 SWAP2 SUB SWAP1 REVERT JUMPDEST PUSH1 0x11 SLOAD DUP2 GT ISZERO DUP1 ISZERO PUSH2 0x215D JUMPI POP PUSH1 0x0 DUP2 GT JUMPDEST PUSH2 0x21CF JUMPI PUSH1 0x40 MLOAD PUSH32 0x8C379A000000000000000000000000000000000000000000000000000000000 DUP2 MSTORE PUSH1 0x4 ADD DUP1 DUP1 PUSH1 0x20 ADD DUP3 DUP2 SUB DUP3 MSTORE PUSH1 0x1A DUP2 MSTORE PUSH1 0x20 ADD DUP1 PUSH32 0x4F757473696465206F66207069636B61626C6520626F756E6473000000000000 DUP2 MSTORE POP PUSH1 0x20 ADD SWAP2 POP POP PUSH1 0x40 MLOAD DUP1 SWAP2 SUB SWAP1 REVERT JUMPDEST PUSH2 0x21D8 CALLVALUE PUSH2 0x2C2C JUMP JUMPDEST PUSH2 0x224A JUMPI PUSH1 0x40 MLOAD PUSH32 0x8C379A000000000000000000000000000000000000000000000000000000000 DUP2 MSTORE PUSH1 0x4 ADD DUP1 DUP1 PUSH1 0x20 ADD DUP3 DUP2 SUB DUP3 MSTORE PUSH1 0x15 DUP2 MSTORE PUSH1 0x20 ADD DUP1 PUSH32 0x4F757469736465206F66206265742072616E67652E0000000000000000000000 DUP2 MSTORE POP PUSH1 0x20 ADD SWAP2 POP POP PUSH1 0x40 MLOAD DUP1 SWAP2 SUB SWAP1 REVERT JUMPDEST PUSH1 0x1 PUSH1 0x6 SLOAD EQ ISZERO PUSH2 0x2298 JUMPI PUSH1 0x6 PUSH1 0x0 SWAP1 SSTORE PUSH1 0x7 PUSH1 0x0 SWAP1 SSTORE PUSH1 0x8 PUSH1 0x0 SWAP1 SSTORE PUSH1 0x9 PUSH1 0x0 SWAP1 SSTORE PUSH1 0xA PUSH1 0x0 SWAP1 SSTORE PUSH1 0xB PUSH1 0x0 SWAP1 SSTORE PUSH1 0xC PUSH1 0x0 SWAP1 SSTORE PUSH1 0xD PUSH1 0x0 SWAP1 SSTORE PUSH1 0xE PUSH1 0x0 SWAP1 SSTORE PUSH1 0xF PUSH1 0x0 SWAP1 SSTORE PUSH1 0x10 PUSH1 0x0 SWAP1 SSTORE JUMPDEST PUSH2 0x22AD CALLVALUE PUSH1 0x14 SLOAD PUSH2 0x28E8 SWAP1 SWAP2 SWAP1 PUSH4 0xFFFFFFFF AND JUMP JUMPDEST PUSH1 0x14 DUP2 SWAP1 SSTORE POP PUSH2 0x22BE DUP3 CALLVALUE DUP4 PUSH2 0x2970 JUMP JUMPDEST PUSH2 0x22C9 PUSH1 0x15 SLOAD PUSH2 0x2A8F JUMP JUMPDEST POP POP JUMP JUMPDEST PUSH1 0x19 PUSH1 0x20 MSTORE DUP1 PUSH1 0x0 MSTORE PUSH1 0x40 PUSH1 0x0 KECCAK256 PUSH1 0x0 SWAP2 POP SLOAD SWAP1 PUSH2 0x100 EXP SWAP1 DIV PUSH1 0xFF AND DUP2 JUMP JUMPDEST PUSH2 0x22F5 PUSH2 0x25D3 JUMP JUMPDEST PUSH20 0xFFFFFFFFFFFFFFFFFFFFFFFFFFFFFFFFFFFFFFFF AND PUSH1 0x3 PUSH1 0x0 SWAP1 SLOAD SWAP1 PUSH2 0x100 EXP SWAP1 DIV PUSH20 0xFFFFFFFFFFFFFFFFFFFFFFFFFFFFFFFFFFFFFFFF AND PUSH20 0xFFFFFFFFFFFFFFFFFFFFFFFFFFFFFFFFFFFFFFFF AND EQ PUSH2 0x23B7 JUMPI PUSH1 0x40 MLOAD PUSH32 0x8C379A000000000000000000000000000000000000000000000000000000000 DUP2 MSTORE PUSH1 0x4 ADD DUP1 DUP1 PUSH1 0x20 ADD DUP3 DUP2 SUB DUP3 MSTORE PUSH1 0x20 DUP2 MSTORE PUSH1 0x20 ADD DUP1 PUSH32 0x4F776E61626C653A2063616C6C6572206973206E6F7420746865206F776E6572 DUP2 MSTORE POP PUSH1 0x20 ADD SWAP2 POP POP PUSH1 0x40 MLOAD DUP1 SWAP2 SUB SWAP1 REVERT JUMPDEST PUSH1 0x0 PUSH20 0xFFFFFFFFFFFFFFFFFFFFFFFFFFFFFFFFFFFFFFFF AND DUP2 PUSH20 0xFFFFFFFFFFFFFFFFFFFFFFFFFFFFFFFFFFFFFFFF AND EQ ISZERO PUSH2 0x243D JUMPI PUSH1 0x40 MLOAD PUSH32 0x8C379A000000000000000000000000000000000000000000000000000000000 DUP2 MSTORE PUSH1 0x4 ADD DUP1 DUP1 PUSH1 0x20 ADD DUP3 DUP2 SUB DUP3 MSTORE PUSH1 0x26 DUP2 MSTORE PUSH1 0x20 ADD DUP1 PUSH2 0x3305 PUSH1 0x26 SWAP2 CODECOPY PUSH1 0x40 ADD SWAP2 POP POP PUSH1 0x40 MLOAD DUP1 SWAP2 SUB SWAP1 REVERT JUMPDEST DUP1 PUSH20 0xFFFFFFFFFFFFFFFFFFFFFFFFFFFFFFFFFFFFFFFF AND PUSH1 0x3 PUSH1 0x0 SWAP1 SLOAD SWAP1 PUSH2 0x100 EXP SWAP1 DIV PUSH20 0xFFFFFFFFFFFFFFFFFFFFFFFFFFFFFFFFFFFFFFFF AND PUSH20 0xFFFFFFFFFFFFFFFFFFFFFFFFFFFFFFFFFFFFFFFF AND PUSH32 0x8BE0079C531659141344CD1FD0A4F28419497F9722A3DAAFE3B4186F6B6457E0 PUSH1 0x40 MLOAD PUSH1 0x40 MLOAD DUP1 SWAP2 SUB SWAP1 LOG3 DUP1 PUSH1 0x3 PUSH1 0x0 PUSH2 0x100 EXP DUP2 SLOAD DUP2 PUSH20 0xFFFFFFFFFFFFFFFFFFFFFFFFFFFFFFFFFFFFFFFF MUL NOT AND SWAP1 DUP4 PUSH20 0xFFFFFFFFFFFFFFFFFFFFFFFFFFFFFFFFFFFFFFFF AND MUL OR SWAP1 SSTORE POP POP JUMP JUMPDEST PUSH2 0x2505 PUSH2 0x25D3 JUMP JUMPDEST PUSH20 0xFFFFFFFFFFFFFFFFFFFFFFFFFFFFFFFFFFFFFFFF AND PUSH1 0x3 PUSH1 0x0 SWAP1 SLOAD SWAP1 PUSH2 0x100 EXP SWAP1 DIV PUSH20 0xFFFFFFFFFFFFFFFFFFFFFFFFFFFFFFFFFFFFFFFF AND PUSH20 0xFFFFFFFFFFFFFFFFFFFFFFFFFFFFFFFFFFFFFFFF AND EQ PUSH2 0x25C7 JUMPI PUSH1 0x40 MLOAD PUSH32 0x8C379A000000000000000000000000000000000000000000000000000000000 DUP2 MSTORE PUSH1 0x4 ADD DUP1 DUP1 PUSH1 0x20 ADD DUP3 DUP2 SUB DUP3 MSTORE PUSH1 0x20 DUP2 MSTORE PUSH1 0x20 ADD DUP1 PUSH32 0x4F776E61626C653A2063616C6C6572206973206E6F7420746865206F776E6572 DUP2 MSTORE POP PUSH1 0x20 ADD SWAP2 POP POP PUSH1 0x40 MLOAD DUP1 SWAP2 SUB SWAP1 REVERT JUMPDEST PUSH2 0x25D0 DUP2 PUSH2 0x2A8F JUMP JUMPDEST POP JUMP JUMPDEST PUSH1 0x0 CALLER SWAP1 POP SWAP1 JUMP JUMPDEST PUSH1 0x0 PUSH1 0x1A PUSH1 0x0 PUSH1 0x1B PUSH1 0x0 DUP7 DUP2 MSTORE PUSH1 0x20 ADD SWAP1 DUP2 MSTORE PUSH1 0x20 ADD PUSH1 0x0 KECCAK256 SLOAD DUP2 MSTORE PUSH1 0x20 ADD SWAP1 DUP2 MSTORE PUSH1 0x20 ADD PUSH1 0x0 KECCAK256 SWAP1 POP PUSH1 0x0 DUP2 PUSH1 0x0 ADD SLOAD GT ISZERO PUSH2 0x288B JUMPI PUSH1 0x12 SLOAD DUP2 PUSH1 0x2 ADD SLOAD GT ISZERO PUSH2 0x262C JUMPI PUSH1 0x12 SLOAD DUP2 PUSH1 0x2 ADD DUP2 SWAP1 SSTORE POP JUMPDEST PUSH1 0x0 PUSH2 0x265D DUP3 PUSH1 0x2 ADD SLOAD PUSH2 0x264F PUSH1 0x17 SLOAD DUP6 PUSH1 0x2 ADD SLOAD PUSH2 0x2C5A SWAP1 SWAP2 SWAP1 PUSH4 0xFFFFFFFF AND JUMP JUMPDEST PUSH2 0x28E8 SWAP1 SWAP2 SWAP1 PUSH4 0xFFFFFFFF AND JUMP JUMPDEST SWAP1 POP DUP1 SELFBALANCE LT ISZERO PUSH2 0x26D5 JUMPI PUSH1 0x40 MLOAD PUSH32 0x8C379A000000000000000000000000000000000000000000000000000000000 DUP2 MSTORE PUSH1 0x4 ADD DUP1 DUP1 PUSH1 0x20 ADD DUP3 DUP2 SUB DUP3 MSTORE PUSH1 0x20 DUP2 MSTORE PUSH1 0x20 ADD DUP1 PUSH32 0x436F6E74726163742062616C616E636520746F6F206C6F7720746F20706C6179 DUP2 MSTORE POP PUSH1 0x20 ADD SWAP2 POP POP PUSH1 0x40 MLOAD DUP1 SWAP2 SUB SWAP1 REVERT JUMPDEST PUSH2 0x26FD PUSH1 0x1 PUSH2 0x26EF PUSH1 0x11 SLOAD DUP7 PUSH2 0x2CE0 SWAP1 SWAP2 SWAP1 PUSH4 0xFFFFFFFF AND JUMP JUMPDEST PUSH2 0x28E8 SWAP1 SWAP2 SWAP1 PUSH4 0xFFFFFFFF AND JUMP JUMPDEST DUP3 PUSH1 0x4 ADD DUP2 SWAP1 SSTORE POP PUSH1 0x1 DUP3 PUSH1 0x5 ADD PUSH1 0x0 PUSH2 0x100 EXP DUP2 SLOAD DUP2 PUSH1 0xFF MUL NOT AND SWAP1 DUP4 ISZERO ISZERO MUL OR SWAP1 SSTORE POP DUP2 PUSH1 0x2 ADD SLOAD PUSH1 0x14 SLOAD LT PUSH2 0x2748 JUMPI DUP2 PUSH1 0x2 ADD SLOAD PUSH1 0x14 PUSH1 0x0 DUP3 DUP3 SLOAD SUB SWAP3 POP POP DUP2 SWAP1 SSTORE POP PUSH2 0x2751 JUMP JUMPDEST PUSH1 0x0 PUSH1 0x14 DUP2 SWAP1 SSTORE POP JUMPDEST DUP2 PUSH1 0x4 ADD SLOAD DUP3 PUSH1 0x3 ADD SLOAD EQ ISZERO PUSH2 0x27D1 JUMPI DUP2 PUSH1 0x1 ADD PUSH1 0x0 SWAP1 SLOAD SWAP1 PUSH2 0x100 EXP SWAP1 DIV PUSH20 0xFFFFFFFFFFFFFFFFFFFFFFFFFFFFFFFFFFFFFFFF AND PUSH20 0xFFFFFFFFFFFFFFFFFFFFFFFFFFFFFFFFFFFFFFFF AND PUSH2 0x8FC DUP3 SWAP1 DUP2 ISZERO MUL SWAP1 PUSH1 0x40 MLOAD PUSH1 0x0 PUSH1 0x40 MLOAD DUP1 DUP4 SUB DUP2 DUP6 DUP9 DUP9 CALL SWAP4 POP POP POP POP ISZERO DUP1 ISZERO PUSH2 0x27CB JUMPI RETURNDATASIZE PUSH1 0x0 DUP1 RETURNDATACOPY RETURNDATASIZE PUSH1 0x0 REVERT JUMPDEST POP PUSH2 0x27D6 JUMP JUMPDEST PUSH1 0x0 SWAP1 POP JUMPDEST PUSH32 0xC06600D6399308F270BC6AE70D5377121B685C974BB7F7355824FDDD8A2B3497 DUP3 PUSH1 0x1 ADD PUSH1 0x0 SWAP1 SLOAD SWAP1 PUSH2 0x100 EXP SWAP1 DIV PUSH20 0xFFFFFFFFFFFFFFFFFFFFFFFFFFFFFFFFFFFFFFFF AND DUP4 PUSH1 0x2 ADD SLOAD DUP5 PUSH1 0x3 ADD SLOAD DUP6 PUSH1 0x4 ADD SLOAD DUP6 PUSH1 0x40 MLOAD DUP1 DUP7 PUSH20 0xFFFFFFFFFFFFFFFFFFFFFFFFFFFFFFFFFFFFFFFF AND PUSH20 0xFFFFFFFFFFFFFFFFFFFFFFFFFFFFFFFFFFFFFFFF AND DUP2 MSTORE PUSH1 0x20 ADD DUP6 DUP2 MSTORE PUSH1 0x20 ADD DUP5 DUP2 MSTORE PUSH1 0x20 ADD DUP4 DUP2 MSTORE PUSH1 0x20 ADD DUP3 DUP2 MSTORE PUSH1 0x20 ADD SWAP6 POP POP POP POP POP POP PUSH1 0x40 MLOAD DUP1 SWAP2 SUB SWAP1 LOG1 POP JUMPDEST PUSH1 0x1 PUSH1 0x6 DUP2 SWAP1 SSTORE POP PUSH1 0x1 PUSH1 0x7 DUP2 SWAP1 SSTORE POP PUSH1 0x1 PUSH1 0x8 DUP2 SWAP1 SSTORE POP PUSH1 0x1 PUSH1 0x9 DUP2 SWAP1 SSTORE POP PUSH1 0x1 PUSH1 0xA DUP2 SWAP1 SSTORE POP PUSH1 0x1 PUSH1 0xB DUP2 SWAP1 SSTORE POP PUSH1 0x1 PUSH1 0xC DUP2 SWAP1 SSTORE POP PUSH1 0x1 PUSH1 0xD DUP2 SWAP1 SSTORE POP PUSH1 0x1 PUSH1 0xE DUP2 SWAP1 SSTORE POP PUSH1 0x1 PUSH1 0xF DUP2 SWAP1 SSTORE POP PUSH1 0x1 PUSH1 0x10 DUP2 SWAP1 SSTORE POP POP POP POP JUMP JUMPDEST PUSH1 0x0 DUP1 DUP3 DUP5 ADD SWAP1 POP DUP4 DUP2 LT ISZERO PUSH2 0x2966 JUMPI PUSH1 0x40 MLOAD PUSH32 0x8C379A000000000000000000000000000000000000000000000000000000000 DUP2 MSTORE PUSH1 0x4 ADD DUP1 DUP1 PUSH1 0x20 ADD DUP3 DUP2 SUB DUP3 MSTORE PUSH1 0x1B DUP2 MSTORE PUSH1 0x20 ADD DUP1 PUSH32 0x536166654D6174683A206164646974696F6E206F766572666C6F770000000000 DUP2 MSTORE POP PUSH1 0x20 ADD SWAP2 POP POP PUSH1 0x40 MLOAD DUP1 SWAP2 SUB SWAP1 REVERT JUMPDEST DUP1 SWAP2 POP POP SWAP3 SWAP2 POP POP JUMP JUMPDEST PUSH2 0x2986 PUSH1 0x1 PUSH1 0x15 SLOAD PUSH2 0x28E8 SWAP1 SWAP2 SWAP1 PUSH4 0xFFFFFFFF AND JUMP JUMPDEST PUSH1 0x15 DUP2 SWAP1 SSTORE POP PUSH2 0x2994 PUSH2 0x32B6 JUMP JUMPDEST PUSH1 0x40 MLOAD DUP1 PUSH1 0xC0 ADD PUSH1 0x40 MSTORE DUP1 PUSH1 0x15 SLOAD DUP2 MSTORE PUSH1 0x20 ADD DUP6 PUSH20 0xFFFFFFFFFFFFFFFFFFFFFFFFFFFFFFFFFFFFFFFF AND DUP2 MSTORE PUSH1 0x20 ADD DUP5 DUP2 MSTORE PUSH1 0x20 ADD DUP4 DUP2 MSTORE PUSH1 0x20 ADD PUSH1 0x0 DUP2 MSTORE PUSH1 0x20 ADD PUSH1 0x0 ISZERO ISZERO DUP2 MSTORE POP SWAP1 POP DUP1 PUSH1 0x1A PUSH1 0x0 DUP4 PUSH1 0x0 ADD MLOAD DUP2 MSTORE PUSH1 0x20 ADD SWAP1 DUP2 MSTORE PUSH1 0x20 ADD PUSH1 0x0 KECCAK256 PUSH1 0x0 DUP3 ADD MLOAD DUP2 PUSH1 0x0 ADD SSTORE PUSH1 0x20 DUP3 ADD MLOAD DUP2 PUSH1 0x1 ADD PUSH1 0x0 PUSH2 0x100 EXP DUP2 SLOAD DUP2 PUSH20 0xFFFFFFFFFFFFFFFFFFFFFFFFFFFFFFFFFFFFFFFF MUL NOT AND SWAP1 DUP4 PUSH20 0xFFFFFFFFFFFFFFFFFFFFFFFFFFFFFFFFFFFFFFFF AND MUL OR SWAP1 SSTORE POP PUSH1 0x40 DUP3 ADD MLOAD DUP2 PUSH1 0x2 ADD SSTORE PUSH1 0x60 DUP3 ADD MLOAD DUP2 PUSH1 0x3 ADD SSTORE PUSH1 0x80 DUP3 ADD MLOAD DUP2 PUSH1 0x4 ADD SSTORE PUSH1 0xA0 DUP3 ADD MLOAD DUP2 PUSH1 0x5 ADD PUSH1 0x0 PUSH2 0x100 EXP DUP2 SLOAD DUP2 PUSH1 0xFF MUL NOT AND SWAP1 DUP4 ISZERO ISZERO MUL OR SWAP1 SSTORE POP SWAP1 POP POP POP POP POP POP JUMP JUMPDEST PUSH1 0x0 ISZERO ISZERO PUSH1 0x1A PUSH1 0x0 DUP4 DUP2 MSTORE PUSH1 0x20 ADD SWAP1 DUP2 MSTORE PUSH1 0x20 ADD PUSH1 0x0 KECCAK256 PUSH1 0x5 ADD PUSH1 0x0 SWAP1 SLOAD SWAP1 PUSH2 0x100 EXP SWAP1 DIV PUSH1 0xFF AND ISZERO ISZERO EQ PUSH2 0x2B2C JUMPI PUSH1 0x40 MLOAD PUSH32 0x8C379A000000000000000000000000000000000000000000000000000000000 DUP2 MSTORE PUSH1 0x4 ADD DUP1 DUP1 PUSH1 0x20 ADD DUP3 DUP2 SUB DUP3 MSTORE PUSH1 0x13 DUP2 MSTORE PUSH1 0x20 ADD DUP1 PUSH32 0x67616D6520616C726561647920706C6179656400000000000000000000000000 DUP2 MSTORE POP PUSH1 0x20 ADD SWAP2 POP POP PUSH1 0x40 MLOAD DUP1 SWAP2 SUB SWAP1 REVERT JUMPDEST PUSH1 0x0 PUSH2 0x2B3E PUSH2 0x2B39 PUSH2 0x2D6A JUMP JUMPDEST PUSH2 0x2E8B JUMP JUMPDEST SWAP1 POP DUP2 PUSH1 0x1B PUSH1 0x0 DUP4 DUP2 MSTORE PUSH1 0x20 ADD SWAP1 DUP2 MSTORE PUSH1 0x20 ADD PUSH1 0x0 KECCAK256 DUP2 SWAP1 SSTORE POP POP POP JUMP JUMPDEST PUSH1 0x0 DUP3 DUP3 GT ISZERO PUSH2 0x2BD4 JUMPI PUSH1 0x40 MLOAD PUSH32 0x8C379A000000000000000000000000000000000000000000000000000000000 DUP2 MSTORE PUSH1 0x4 ADD DUP1 DUP1 PUSH1 0x20 ADD DUP3 DUP2 SUB DUP3 MSTORE PUSH1 0x1E DUP2 MSTORE PUSH1 0x20 ADD DUP1 PUSH32 0x536166654D6174683A207375627472616374696F6E206F766572666C6F770000 DUP2 MSTORE POP PUSH1 0x20 ADD SWAP2 POP POP PUSH1 0x40 MLOAD DUP1 SWAP2 SUB SWAP1 REVERT JUMPDEST PUSH1 0x0 DUP3 DUP5 SUB SWAP1 POP DUP1 SWAP2 POP POP SWAP3 SWAP2 POP POP JUMP JUMPDEST PUSH1 0x0 PUSH2 0x2C0E DUP3 PUSH2 0x2C00 PUSH1 0x17 SLOAD DUP6 PUSH2 0x2C5A SWAP1 SWAP2 SWAP1 PUSH4 0xFFFFFFFF AND JUMP JUMPDEST PUSH2 0x28E8 SWAP1 SWAP2 SWAP1 PUSH4 0xFFFFFFFF AND JUMP JUMPDEST PUSH2 0x2C23 PUSH1 0x14 SLOAD SELFBALANCE PUSH2 0x2B5C SWAP1 SWAP2 SWAP1 PUSH4 0xFFFFFFFF AND JUMP JUMPDEST LT ISZERO SWAP1 POP SWAP2 SWAP1 POP JUMP JUMPDEST PUSH1 0x0 PUSH1 0x13 SLOAD DUP3 LT ISZERO DUP1 ISZERO PUSH2 0x2C42 JUMPI POP PUSH1 0x12 SLOAD DUP3 GT ISZERO JUMPDEST ISZERO PUSH2 0x2C50 JUMPI PUSH1 0x1 SWAP1 POP PUSH2 0x2C55 JUMP JUMPDEST PUSH1 0x0 SWAP1 POP JUMPDEST SWAP2 SWAP1 POP JUMP JUMPDEST PUSH1 0x0 DUP1 DUP4 EQ ISZERO PUSH2 0x2C6D JUMPI PUSH1 0x0 SWAP1 POP PUSH2 0x2CDA JUMP JUMPDEST PUSH1 0x0 DUP3 DUP5 MUL SWAP1 POP DUP3 DUP5 DUP3 DUP2 PUSH2 0x2C7E JUMPI INVALID JUMPDEST DIV EQ PUSH2 0x2CD5 JUMPI PUSH1 0x40 MLOAD PUSH32 0x8C379A000000000000000000000000000000000000000000000000000000000 DUP2 MSTORE PUSH1 0x4 ADD DUP1 DUP1 PUSH1 0x20 ADD DUP3 DUP2 SUB DUP3 MSTORE PUSH1 0x21 DUP2 MSTORE PUSH1 0x20 ADD DUP1 PUSH2 0x3361 PUSH1 0x21 SWAP2 CODECOPY PUSH1 0x40 ADD SWAP2 POP POP PUSH1 0x40 MLOAD DUP1 SWAP2 SUB SWAP1 REVERT JUMPDEST DUP1 SWAP2 POP POP JUMPDEST SWAP3 SWAP2 POP POP JUMP JUMPDEST PUSH1 0x0 DUP1 DUP3 EQ ISZERO PUSH2 0x2D58 JUMPI PUSH1 0x40 MLOAD PUSH32 0x8C379A000000000000000000000000000000000000000000000000000000000 DUP2 MSTORE PUSH1 0x4 ADD DUP1 DUP1 PUSH1 0x20 ADD DUP3 DUP2 SUB DUP3 MSTORE PUSH1 0x18 DUP2 MSTORE PUSH1 0x20 ADD DUP1 PUSH32 0x536166654D6174683A206D6F64756C6F206279207A65726F0000000000000000 DUP2 MSTORE POP PUSH1 0x20 ADD SWAP2 POP POP PUSH1 0x40 MLOAD DUP1 SWAP2 SUB SWAP1 REVERT JUMPDEST DUP2 DUP4 DUP2 PUSH2 0x2D61 JUMPI INVALID JUMPDEST MOD SWAP1 POP SWAP3 SWAP2 POP POP JUMP JUMPDEST PUSH1 0x0 PUSH2 0x2D74 PUSH2 0x32B6 JUMP JUMPDEST PUSH1 0x1A PUSH1 0x0 PUSH1 0x15 SLOAD DUP2 MSTORE PUSH1 0x20 ADD SWAP1 DUP2 MSTORE PUSH1 0x20 ADD PUSH1 0x0 KECCAK256 PUSH1 0x40 MLOAD DUP1 PUSH1 0xC0 ADD PUSH1 0x40 MSTORE SWAP1 DUP2 PUSH1 0x0 DUP3 ADD SLOAD DUP2 MSTORE PUSH1 0x20 ADD PUSH1 0x1 DUP3 ADD PUSH1 0x0 SWAP1 SLOAD SWAP1 PUSH2 0x100 EXP SWAP1 DIV PUSH20 0xFFFFFFFFFFFFFFFFFFFFFFFFFFFFFFFFFFFFFFFF AND PUSH20 0xFFFFFFFFFFFFFFFFFFFFFFFFFFFFFFFFFFFFFFFF AND PUSH20 0xFFFFFFFFFFFFFFFFFFFFFFFFFFFFFFFFFFFFFFFF AND DUP2 MSTORE PUSH1 0x20 ADD PUSH1 0x2 DUP3 ADD SLOAD DUP2 MSTORE PUSH1 0x20 ADD PUSH1 0x3 DUP3 ADD SLOAD DUP2 MSTORE PUSH1 0x20 ADD PUSH1 0x4 DUP3 ADD SLOAD DUP2 MSTORE PUSH1 0x20 ADD PUSH1 0x5 DUP3 ADD PUSH1 0x0 SWAP1 SLOAD SWAP1 PUSH2 0x100 EXP SWAP1 DIV PUSH1 0xFF AND ISZERO ISZERO ISZERO ISZERO DUP2 MSTORE POP POP SWAP1 POP NUMBER TIMESTAMP DUP3 PUSH1 0x60 ADD MLOAD DUP4 PUSH1 0x40 ADD MLOAD DUP5 PUSH1 0x0 ADD MLOAD PUSH1 0x40 MLOAD PUSH1 0x20 ADD DUP1 DUP7 DUP2 MSTORE PUSH1 0x20 ADD DUP6 DUP2 MSTORE PUSH1 0x20 ADD DUP5 DUP2 MSTORE PUSH1 0x20 ADD DUP4 DUP2 MSTORE PUSH1 0x20 ADD DUP3 DUP2 MSTORE PUSH1 0x20 ADD SWAP6 POP POP POP POP POP POP PUSH1 0x40 MLOAD PUSH1 0x20 DUP2 DUP4 SUB SUB DUP2 MSTORE SWAP1 PUSH1 0x40 MSTORE DUP1 MLOAD SWAP1 PUSH1 0x20 ADD KECCAK256 PUSH1 0x0 SHR SWAP2 POP POP SWAP1 JUMP JUMPDEST PUSH1 0x0 PUSH1 0x5 SLOAD PUSH1 0x0 DUP1 SWAP1 SLOAD SWAP1 PUSH2 0x100 EXP SWAP1 DIV PUSH20 0xFFFFFFFFFFFFFFFFFFFFFFFFFFFFFFFFFFFFFFFF AND PUSH20 0xFFFFFFFFFFFFFFFFFFFFFFFFFFFFFFFFFFFFFFFF AND PUSH4 0x70A08231 ADDRESS PUSH1 0x40 MLOAD DUP3 PUSH4 0xFFFFFFFF AND PUSH1 0xE0 SHL DUP2 MSTORE PUSH1 0x4 ADD DUP1 DUP3 PUSH20 0xFFFFFFFFFFFFFFFFFFFFFFFFFFFFFFFFFFFFFFFF AND PUSH20 0xFFFFFFFFFFFFFFFFFFFFFFFFFFFFFFFFFFFFFFFF AND DUP2 MSTORE PUSH1 0x20 ADD SWAP2 POP POP PUSH1 0x20 PUSH1 0x40 MLOAD DUP1 DUP4 SUB DUP2 DUP7 DUP1 EXTCODESIZE ISZERO DUP1 ISZERO PUSH2 0x2F2E JUMPI PUSH1 0x0 DUP1 REVERT JUMPDEST POP GAS STATICCALL ISZERO DUP1 ISZERO PUSH2 0x2F42 JUMPI RETURNDATASIZE PUSH1 0x0 DUP1 RETURNDATACOPY RETURNDATASIZE PUSH1 0x0 REVERT JUMPDEST POP POP POP POP PUSH1 0x40 MLOAD RETURNDATASIZE PUSH1 0x20 DUP2 LT ISZERO PUSH2 0x2F58 JUMPI PUSH1 0x0 DUP1 REVERT JUMPDEST DUP2 ADD SWAP1 DUP1 DUP1 MLOAD SWAP1 PUSH1 0x20 ADD SWAP1 SWAP3 SWAP2 SWAP1 POP POP POP GT PUSH2 0x2FDC JUMPI PUSH1 0x40 MLOAD PUSH32 0x8C379A000000000000000000000000000000000000000000000000000000000 DUP2 MSTORE PUSH1 0x4 ADD DUP1 DUP1 PUSH1 0x20 ADD DUP3 DUP2 SUB DUP3 MSTORE PUSH1 0xF DUP2 MSTORE PUSH1 0x20 ADD DUP1 PUSH32 0x4E6F7420656E6F756768204C494E4B0000000000000000000000000000000000 DUP2 MSTORE POP PUSH1 0x20 ADD SWAP2 POP POP PUSH1 0x40 MLOAD DUP1 SWAP2 SUB SWAP1 REVERT JUMPDEST PUSH2 0x2FEB PUSH1 0x4 SLOAD PUSH1 0x5 SLOAD DUP5 PUSH2 0x2FF2 JUMP JUMPDEST SWAP1 POP SWAP2 SWAP1 POP JUMP JUMPDEST PUSH1 0x0 DUP1 PUSH1 0x0 SWAP1 SLOAD SWAP1 PUSH2 0x100 EXP SWAP1 DIV PUSH20 0xFFFFFFFFFFFFFFFFFFFFFFFFFFFFFFFFFFFFFFFF AND PUSH20 0xFFFFFFFFFFFFFFFFFFFFFFFFFFFFFFFFFFFFFFFF AND PUSH4 0x4000AEA0 PUSH1 0x1 PUSH1 0x0 SWAP1 SLOAD SWAP1 PUSH2 0x100 EXP SWAP1 DIV PUSH20 0xFFFFFFFFFFFFFFFFFFFFFFFFFFFFFFFFFFFFFFFF AND DUP6 DUP8 DUP7 PUSH1 0x40 MLOAD PUSH1 0x20 ADD DUP1 DUP4 DUP2 MSTORE PUSH1 0x20 ADD DUP3 DUP2 MSTORE PUSH1 0x20 ADD SWAP3 POP POP POP PUSH1 0x40 MLOAD PUSH1 0x20 DUP2 DUP4 SUB SUB DUP2 MSTORE SWAP1 PUSH1 0x40 MSTORE PUSH1 0x40 MLOAD DUP5 PUSH4 0xFFFFFFFF AND PUSH1 0xE0 SHL DUP2 MSTORE PUSH1 0x4 ADD DUP1 DUP5 PUSH20 0xFFFFFFFFFFFFFFFFFFFFFFFFFFFFFFFFFFFFFFFF AND PUSH20 0xFFFFFFFFFFFFFFFFFFFFFFFFFFFFFFFFFFFFFFFF AND DUP2 MSTORE PUSH1 0x20 ADD DUP4 DUP2 MSTORE PUSH1 0x20 ADD DUP1 PUSH1 0x20 ADD DUP3 DUP2 SUB DUP3 MSTORE DUP4 DUP2 DUP2 MLOAD DUP2 MSTORE PUSH1 0x20 ADD SWAP2 POP DUP1 MLOAD SWAP1 PUSH1 0x20 ADD SWAP1 DUP1 DUP4 DUP4 PUSH1 0x0 JUMPDEST DUP4 DUP2 LT ISZERO PUSH2 0x3104 JUMPI DUP1 DUP3 ADD MLOAD DUP2 DUP5 ADD MSTORE PUSH1 0x20 DUP2 ADD SWAP1 POP PUSH2 0x30E9 JUMP JUMPDEST POP POP POP POP SWAP1 POP SWAP1 DUP2 ADD SWAP1 PUSH1 0x1F AND DUP1 ISZERO PUSH2 0x3131 JUMPI DUP1 DUP3 SUB DUP1 MLOAD PUSH1 0x1 DUP4 PUSH1 0x20 SUB PUSH2 0x100 EXP SUB NOT AND DUP2 MSTORE PUSH1 0x20 ADD SWAP2 POP JUMPDEST POP SWAP5 POP POP POP POP POP PUSH1 0x20 PUSH1 0x40 MLOAD DUP1 DUP4 SUB DUP2 PUSH1 0x0 DUP8 DUP1 EXTCODESIZE ISZERO DUP1 ISZERO PUSH2 0x3152 JUMPI PUSH1 0x0 DUP1 REVERT JUMPDEST POP GAS CALL ISZERO DUP1 ISZERO PUSH2 0x3166 JUMPI RETURNDATASIZE PUSH1 0x0 DUP1 RETURNDATACOPY RETURNDATASIZE PUSH1 0x0 REVERT JUMPDEST POP POP POP POP PUSH1 0x40 MLOAD RETURNDATASIZE PUSH1 0x20 DUP2 LT ISZERO PUSH2 0x317C JUMPI PUSH1 0x0 DUP1 REVERT JUMPDEST DUP2 ADD SWAP1 DUP1 DUP1 MLOAD SWAP1 PUSH1 0x20 ADD SWAP1 SWAP3 SWAP2 SWAP1 POP POP POP POP PUSH1 0x0 PUSH2 0x31AF DUP6 DUP5 ADDRESS PUSH1 0x2 PUSH1 0x0 DUP11 DUP2 MSTORE PUSH1 0x20 ADD SWAP1 DUP2 MSTORE PUSH1 0x20 ADD PUSH1 0x0 KECCAK256 SLOAD PUSH2 0x3203 JUMP JUMPDEST SWAP1 POP PUSH2 0x31D8 PUSH1 0x1 PUSH1 0x2 PUSH1 0x0 DUP9 DUP2 MSTORE PUSH1 0x20 ADD SWAP1 DUP2 MSTORE PUSH1 0x20 ADD PUSH1 0x0 KECCAK256 SLOAD PUSH2 0x28E8 SWAP1 SWAP2 SWAP1 PUSH4 0xFFFFFFFF AND JUMP JUMPDEST PUSH1 0x2 PUSH1 0x0 DUP8 DUP2 MSTORE PUSH1 0x20 ADD SWAP1 DUP2 MSTORE PUSH1 0x20 ADD PUSH1 0x0 KECCAK256 DUP2 SWAP1 SSTORE POP PUSH2 0x31F9 DUP6 DUP3 PUSH2 0x327D JUMP JUMPDEST SWAP2 POP POP SWAP4 SWAP3 POP POP POP JUMP JUMPDEST PUSH1 0x0 DUP5 DUP5 DUP5 DUP5 PUSH1 0x40 MLOAD PUSH1 0x20 ADD DUP1 DUP6 DUP2 MSTORE PUSH1 0x20 ADD DUP5 DUP2 MSTORE PUSH1 0x20 ADD DUP4 PUSH20 0xFFFFFFFFFFFFFFFFFFFFFFFFFFFFFFFFFFFFFFFF AND PUSH20 0xFFFFFFFFFFFFFFFFFFFFFFFFFFFFFFFFFFFFFFFF AND DUP2 MSTORE PUSH1 0x20 ADD DUP3 DUP2 MSTORE PUSH1 0x20 ADD SWAP5 POP POP POP POP POP PUSH1 0x40 MLOAD PUSH1 0x20 DUP2 DUP4 SUB SUB DUP2 MSTORE SWAP1 PUSH1 0x40 MSTORE DUP1 MLOAD SWAP1 PUSH1 0x20 ADD KECCAK256 PUSH1 0x0 SHR SWAP1 POP SWAP5 SWAP4 POP POP POP POP JUMP JUMPDEST PUSH1 0x0 DUP3 DUP3 PUSH1 0x40 MLOAD PUSH1 0x20 ADD DUP1 DUP4 DUP2 MSTORE PUSH1 0x20 ADD DUP3 DUP2 MSTORE PUSH1 0x20 ADD SWAP3 POP POP POP PUSH1 0x40 MLOAD PUSH1 0x20 DUP2 DUP4 SUB SUB DUP2 MSTORE SWAP1 PUSH1 0x40 MSTORE DUP1 MLOAD SWAP1 PUSH1 0x20 ADD KECCAK256 SWAP1 POP SWAP3 SWAP2 POP POP JUMP JUMPDEST PUSH1 0x40 MLOAD DUP1 PUSH1 0xC0 ADD PUSH1 0x40 MSTORE DUP1 PUSH1 0x0 DUP2 MSTORE PUSH1 0x20 ADD PUSH1 0x0 PUSH20 0xFFFFFFFFFFFFFFFFFFFFFFFFFFFFFFFFFFFFFFFF AND DUP2 MSTORE PUSH1 0x20 ADD PUSH1 0x0 DUP2 MSTORE PUSH1 0x20 ADD PUSH1 0x0 DUP2 MSTORE PUSH1 0x20 ADD PUSH1 0x0 DUP2 MSTORE PUSH1 0x20 ADD PUSH1 0x0 ISZERO ISZERO DUP2 MSTORE POP SWAP1 JUMP INVALID 0x4F PUSH24 0x6E61626C653A206E6577206F776E65722069732074686520 PUSH27 0x65726F2061646472657373436F6E74726163742068617320696E73 PUSH22 0x66666963696E742066756E647320746F207061796F75 PUSH21 0x20706F737369626C652077696E2E536166654D6174 PUSH9 0x3A206D756C7469706C PUSH10 0x636174696F6E206F7665 PUSH19 0x666C6F77436F6E74726163742062616C616E63 PUSH6 0x20746F6F206C PUSH16 0x772E20506C6561736520747279206167 PUSH2 0x696E KECCAK256 PUSH13 0x617465722E47616D6520616C72 PUSH6 0x61647920636F PUSH14 0x706C6574652E204E6F2072656675 PUSH15 0x6420706F737369626C652EA2646970 PUSH7 0x7358221220481D 0xE6 0xB9 0xA8 PUSH11 0x74BF42137236C71DFC8F31 0xEC 0xEA DIV 0x1F CALLVALUE 0x4A DUP9 SWAP3 0x27 0xD4 REVERT DUP10 0x22 0xA6 SUB PUSH5 0x736F6C6343 STOP MOD STOP STOP CALLER LOG2 PUSH5 0x6970667358 0x22 SLT KECCAK256 0xC0 SUB 0xD6 POP 0x5C KECCAK256 PUSH1 0xEB 0xC2 0xC7 DUP6 0xD6 0xBB 0x2E PUSH25 0x47F770064FEAC10923B60DD056443E263264736F6C63430006 STOP STOP CALLER "},"gasEstimates":{"creation":{"codeDepositCost":"3033200","executionCost":"3333","totalCost":"3036533"},"external":{"createMachine(uint256,uint256,uint256,uint256)":"infinite","getMachines()":"infinite","machines(uint256)":"2017"}},"methodIdentifiers":{"createMachine(uint256,uint256,uint256,uint256)":"06373b9a","getMachines()":"52b07b34","machines(uint256)":"4d42845c"}},"storageLayout":{"storage":[{"astId":1539,"contract":"AllContracts.sol:LuckyMachineFactory","label":"machines","offset":0,"slot":"0","type":"t_array(t_address)dyn_storage"}],"types":{"t_address":{"encoding":"inplace","label":"address","numberOfBytes":"20"},"t_array(t_address)dyn_storage":{"base":"t_address","encoding":"dynamic_array","label":"address[]","numberOfBytes":"32"}}},"userdoc":{"methods":{}}}