{"abi":[{"inputs":[{"internalType":"address payable","name":"_payoutAddress","type":"address"},{"internalType":"uint256","name":"_maxBet","type":"uint256"},{"internalType":"uint256","name":"_minBet","type":"uint256"},{"internalType":"uint256","name":"_maxPick","type":"uint256"},{"internalType":"uint256","name":"_payout","type":"uint256"}],"stateMutability":"nonpayable","type":"constructor"},{"anonymous":false,"inputs":[{"indexed":false,"internalType":"address","name":"_player","type":"address"},{"indexed":false,"internalType":"uint256","name":"_bet","type":"uint256"},{"indexed":false,"internalType":"uint256","name":"_pick","type":"uint256"},{"indexed":false,"internalType":"uint256","name":"_winner","type":"uint256"},{"indexed":false,"internalType":"uint256","name":"_payout","type":"uint256"}],"name":"GamePlayed","type":"event"},{"anonymous":false,"inputs":[{"indexed":true,"internalType":"address","name":"previousOwner","type":"address"},{"indexed":true,"internalType":"address","name":"newOwner","type":"address"}],"name":"OwnershipTransferred","type":"event"},{"inputs":[{"internalType":"address[]","name":"userAddresses","type":"address[]"},{"internalType":"bool","name":"allowed","type":"bool"}],"name":"allowGasFreeBet","outputs":[],"stateMutability":"nonpayable","type":"function"},{"inputs":[{"internalType":"address","name":"","type":"address"}],"name":"authorizedAddress","outputs":[{"internalType":"bool","name":"","type":"bool"}],"stateMutability":"view","type":"function"},{"inputs":[],"name":"closeMachine","outputs":[],"stateMutability":"nonpayable","type":"function"},{"inputs":[{"internalType":"uint256","name":"","type":"uint256"}],"name":"games","outputs":[{"internalType":"uint256","name":"id","type":"uint256"},{"internalType":"address payable","name":"player","type":"address"},{"internalType":"uint256","name":"bet","type":"uint256"},{"internalType":"uint256","name":"pick","type":"uint256"},{"internalType":"uint256","name":"winner","type":"uint256"},{"internalType":"bool","name":"played","type":"bool"}],"stateMutability":"view","type":"function"},{"inputs":[{"internalType":"address","name":"","type":"address"}],"name":"gasFreeBetAllowed","outputs":[{"internalType":"bool","name":"","type":"bool"}],"stateMutability":"view","type":"function"},{"inputs":[{"internalType":"address payable","name":"player","type":"address"},{"internalType":"uint256","name":"pick","type":"uint256"}],"name":"gasFreeBetFor","outputs":[],"stateMutability":"payable","type":"function"},{"inputs":[],"name":"getLinkBalance","outputs":[{"internalType":"uint256","name":"","type":"uint256"}],"stateMutability":"view","type":"function"},{"inputs":[],"name":"getSeed","outputs":[{"internalType":"uint256","name":"","type":"uint256"}],"stateMutability":"view","type":"function"},{"inputs":[],"name":"getSummary","outputs":[{"internalType":"uint256","name":"","type":"uint256"},{"internalType":"uint256","name":"","type":"uint256"},{"internalType":"uint256","name":"","type":"uint256"},{"internalType":"uint256","name":"","type":"uint256"}],"stateMutability":"view","type":"function"},{"inputs":[],"name":"maxBet","outputs":[{"internalType":"uint256","name":"","type":"uint256"}],"stateMutability":"view","type":"function"},{"inputs":[],"name":"maxPick","outputs":[{"internalType":"uint256","name":"","type":"uint256"}],"stateMutability":"view","type":"function"},{"inputs":[],"name":"minBet","outputs":[{"internalType":"uint256","name":"","type":"uint256"}],"stateMutability":"view","type":"function"},{"inputs":[{"internalType":"bytes32","name":"","type":"bytes32"}],"name":"nonces","outputs":[{"internalType":"uint256","name":"","type":"uint256"}],"stateMutability":"view","type":"function"},{"inputs":[],"name":"owner","outputs":[{"internalType":"address","name":"","type":"address"}],"stateMutability":"view","type":"function"},{"inputs":[],"name":"payout","outputs":[{"internalType":"uint256","name":"","type":"uint256"}],"stateMutability":"view","type":"function"},{"inputs":[],"name":"payoutAddress","outputs":[{"internalType":"address payable","name":"","type":"address"}],"stateMutability":"view","type":"function"},{"inputs":[{"internalType":"address payable","name":"player","type":"address"},{"internalType":"uint256","name":"pick","type":"uint256"}],"name":"placeBetFor","outputs":[],"stateMutability":"payable","type":"function"},{"inputs":[{"internalType":"bytes32","name":"requestId","type":"bytes32"},{"internalType":"uint256","name":"randomness","type":"uint256"}],"name":"rawFulfillRandomness","outputs":[],"stateMutability":"nonpayable","type":"function"},{"inputs":[],"name":"renounceOwnership","outputs":[],"stateMutability":"nonpayable","type":"function"},{"inputs":[{"internalType":"uint256","name":"gameID","type":"uint256"}],"name":"replayGame","outputs":[],"stateMutability":"nonpayable","type":"function"},{"inputs":[{"internalType":"uint256","name":"gameID","type":"uint256"}],"name":"requestRefund","outputs":[],"stateMutability":"nonpayable","type":"function"},{"inputs":[{"internalType":"address payable","name":"player","type":"address"},{"internalType":"uint256","name":"pick","type":"uint256"}],"name":"safeBetFor","outputs":[],"stateMutability":"payable","type":"function"},{"inputs":[{"internalType":"address","name":"userAddress","type":"address"},{"internalType":"bool","name":"authorized","type":"bool"}],"name":"setAuthorizedUser","outputs":[],"stateMutability":"nonpayable","type":"function"},{"inputs":[{"internalType":"bytes32","name":"_keyHash","type":"bytes32"}],"name":"setKeyHash","outputs":[],"stateMutability":"nonpayable","type":"function"},{"inputs":[{"internalType":"address","name":"_linkAddress","type":"address"}],"name":"setLINK","outputs":[],"stateMutability":"nonpayable","type":"function"},{"inputs":[{"internalType":"address payable","name":"_payoutAddress","type":"address"}],"name":"setPayoutAddress","outputs":[],"stateMutability":"nonpayable","type":"function"},{"inputs":[{"internalType":"address","name":"_vrfCoordinator","type":"address"}],"name":"setVRFCoordinator","outputs":[],"stateMutability":"nonpayable","type":"function"},{"inputs":[{"internalType":"address","name":"newOwner","type":"address"}],"name":"transferOwnership","outputs":[],"stateMutability":"nonpayable","type":"function"},{"inputs":[{"internalType":"uint256","name":"amount","type":"uint256"}],"name":"withdrawEth","outputs":[],"stateMutability":"nonpayable","type":"function"},{"inputs":[{"internalType":"uint256","name":"amount","type":"uint256"}],"name":"withdrawLink","outputs":[],"stateMutability":"nonpayable","type":"function"},{"stateMutability":"payable","type":"receive"}],"devdoc":{"methods":{"owner()":{"details":"Returns the address of the current owner."},"renounceOwnership()":{"details":"Leaves the contract without owner. It will not be possible to call `onlyOwner` functions anymore. Can only be called by the current owner.     * NOTE: Renouncing ownership will leave the contract without an owner, thereby removing any functionality that is only available to the owner."},"transferOwnership(address)":{"details":"Transfers ownership of the contract to a new account (`newOwner`). Can only be called by the current owner."}}},"evm":{"assembly":"    /* \"AllContracts.sol\":5733:15201  contract LuckyMachine is VRFConsumerBase, Ownable {... */\n  mstore(0x40, 0x80)\n    /* \"AllContracts.sol\":6831:7785  constructor(address payable _payoutAddress, uint _maxBet, uint _minBet, uint _maxPick, uint _payout)... */\n  callvalue\n    /* \"--CODEGEN--\":8:17   */\n  dup1\n    /* \"--CODEGEN--\":5:7   */\n  iszero\n  tag_1\n  jumpi\n    /* \"--CODEGEN--\":30:31   */\n  0x00\n    /* \"--CODEGEN--\":27:28   */\n  dup1\n    /* \"--CODEGEN--\":20:32   */\n  revert\n    /* \"--CODEGEN--\":5:7   */\ntag_1:\n    /* \"AllContracts.sol\":6831:7785  constructor(address payable _payoutAddress, uint _maxBet, uint _minBet, uint _maxPick, uint _payout)... */\n  pop\n  mload(0x40)\n  sub(codesize, bytecodeSize)\n  dup1\n  bytecodeSize\n  dup4\n  codecopy\n  dup2\n  dup2\n  add\n  0x40\n  mstore\n    /* \"--CODEGEN--\":13:16   */\n  0xa0\n    /* \"--CODEGEN--\":8:11   */\n  dup2\n    /* \"--CODEGEN--\":5:17   */\n  lt\n    /* \"--CODEGEN--\":2:4   */\n  iszero\n  tag_2\n  jumpi\n    /* \"--CODEGEN--\":30:31   */\n  0x00\n    /* \"--CODEGEN--\":27:28   */\n  dup1\n    /* \"--CODEGEN--\":20:32   */\n  revert\n    /* \"--CODEGEN--\":2:4   */\ntag_2:\n    /* \"AllContracts.sol\":6831:7785  constructor(address payable _payoutAddress, uint _maxBet, uint _minBet, uint _maxPick, uint _payout)... */\n  dup2\n  add\n  swap1\n  dup1\n  dup1\n  mload\n  swap1\n  0x20\n  add\n  swap1\n  swap3\n  swap2\n  swap1\n  dup1\n  mload\n  swap1\n  0x20\n  add\n  swap1\n  swap3\n  swap2\n  swap1\n  dup1\n  mload\n  swap1\n  0x20\n  add\n  swap1\n  swap3\n  swap2\n  swap1\n  dup1\n  mload\n  swap1\n  0x20\n  add\n  swap1\n  swap3\n  swap2\n  swap1\n  dup1\n  mload\n  swap1\n  0x20\n  add\n  swap1\n  swap3\n  swap2\n  swap1\n  pop\n  pop\n  pop\n    /* \"AllContracts.sol\":7042:7084  0xdD3782915140c8f3b190B5D67eAc6dc5760C46E9 */\n  0xdd3782915140c8f3b190b5d67eac6dc5760c46e9\n    /* \"AllContracts.sol\":7117:7159  0xa36085F69e2889c224210F603D836748e7dC0088 */\n  0xa36085f69e2889c224210f603d836748e7dc0088\n    /* \"AllContracts.sol\":5460:5475  _vrfCoordinator */\n  dup2\n    /* \"AllContracts.sol\":5443:5457  vrfCoordinator */\n  0x01\n  0x00\n    /* \"AllContracts.sol\":5443:5475  vrfCoordinator = _vrfCoordinator */\n  0x0100\n  exp\n  dup2\n  sload\n  dup2\n  0xffffffffffffffffffffffffffffffffffffffff\n  mul\n  not\n  and\n  swap1\n  dup4\n  0xffffffffffffffffffffffffffffffffffffffff\n  and\n  mul\n  or\n  swap1\n  sstore\n  pop\n    /* \"AllContracts.sol\":5507:5512  _link */\n  dup1\n    /* \"AllContracts.sol\":5481:5485  LINK */\n  0x00\n  dup1\n    /* \"AllContracts.sol\":5481:5513  LINK = LinkTokenInterface(_link) */\n  0x0100\n  exp\n  dup2\n  sload\n  dup2\n  0xffffffffffffffffffffffffffffffffffffffff\n  mul\n  not\n  and\n  swap1\n  dup4\n  0xffffffffffffffffffffffffffffffffffffffff\n  and\n  mul\n  or\n  swap1\n  sstore\n  pop\n    /* \"AllContracts.sol\":5378:5518  constructor(address _vrfCoordinator, address _link) public {... */\n  pop\n  pop\n    /* \"AllContracts.sol\":726:743  address msgSender */\n  0x00\n    /* \"AllContracts.sol\":746:758  _msgSender() */\n  tag_8\n    /* \"AllContracts.sol\":746:756  _msgSender */\n  shl(0x20, tag_9)\n    /* \"AllContracts.sol\":746:758  _msgSender() */\n  0x20\n  shr\n  jump\t// in\ntag_8:\n    /* \"AllContracts.sol\":726:758  address msgSender = _msgSender() */\n  swap1\n  pop\n    /* \"AllContracts.sol\":777:786  msgSender */\n  dup1\n    /* \"AllContracts.sol\":768:774  _owner */\n  0x03\n  0x00\n    /* \"AllContracts.sol\":768:786  _owner = msgSender */\n  0x0100\n  exp\n  dup2\n  sload\n  dup2\n  0xffffffffffffffffffffffffffffffffffffffff\n  mul\n  not\n  and\n  swap1\n  dup4\n  0xffffffffffffffffffffffffffffffffffffffff\n  and\n  mul\n  or\n  swap1\n  sstore\n  pop\n    /* \"AllContracts.sol\":834:843  msgSender */\n  dup1\n    /* \"AllContracts.sol\":801:844  OwnershipTransferred(address(0), msgSender) */\n  0xffffffffffffffffffffffffffffffffffffffff\n  and\n    /* \"AllContracts.sol\":830:831  0 */\n  0x00\n    /* \"AllContracts.sol\":801:844  OwnershipTransferred(address(0), msgSender) */\n  0xffffffffffffffffffffffffffffffffffffffff\n  and\n  0x8be0079c531659141344cd1fd0a4f28419497f9722a3daafe3b4186f6b6457e0\n  mload(0x40)\n  mload(0x40)\n  dup1\n  swap2\n  sub\n  swap1\n  log3\n    /* \"AllContracts.sol\":692:851  constructor () internal {... */\n  pop\n    /* \"AllContracts.sol\":7216:7282  0x6c3699283bda56ad74f6b855546325b68d482e983852a7a82979cc4807b641f4 */\n  0x6c3699283bda56ad74f6b855546325b68d482e983852a7a82979cc4807b641f4\n    /* \"AllContracts.sol\":7206:7282  keyHash = 0x6c3699283bda56ad74f6b855546325b68d482e983852a7a82979cc4807b641f4 */\n  0x00\n  shl\n    /* \"AllContracts.sol\":7206:7213  keyHash */\n  0x04\n    /* \"AllContracts.sol\":7206:7282  keyHash = 0x6c3699283bda56ad74f6b855546325b68d482e983852a7a82979cc4807b641f4 */\n  dup2\n  swap1\n  sstore\n  pop\n    /* \"AllContracts.sol\":7302:7316  0.1 * 10 ** 18 */\n  0x016345785d8a0000\n    /* \"AllContracts.sol\":7296:7299  fee */\n  0x05\n    /* \"AllContracts.sol\":7296:7316  fee = 0.1 * 10 ** 18 */\n  dup2\n  swap1\n  sstore\n  pop\n    /* \"AllContracts.sol\":7358:7359  1 */\n  0x01\n    /* \"AllContracts.sol\":7343:7355  _currentGame */\n  0x14\n    /* \"AllContracts.sol\":7343:7359  _currentGame = 1 */\n  dup2\n  swap1\n  sstore\n  pop\n    /* \"AllContracts.sol\":7389:7390  0 */\n  0x00\n    /* \"AllContracts.sol\":7373:7386  _unplayedBets */\n  0x13\n    /* \"AllContracts.sol\":7373:7390  _unplayedBets = 0 */\n  dup2\n  swap1\n  sstore\n  pop\n    /* \"AllContracts.sol\":7420:7434  _payoutAddress */\n  dup5\n    /* \"AllContracts.sol\":7404:7417  payoutAddress */\n  0x15\n  0x00\n    /* \"AllContracts.sol\":7404:7434  payoutAddress = _payoutAddress */\n  0x0100\n  exp\n  dup2\n  sload\n  dup2\n  0xffffffffffffffffffffffffffffffffffffffff\n  mul\n  not\n  and\n  swap1\n  dup4\n  0xffffffffffffffffffffffffffffffffffffffff\n  and\n  mul\n  or\n  swap1\n  sstore\n  pop\n    /* \"AllContracts.sol\":7457:7464  _minBet */\n  dup3\n    /* \"AllContracts.sol\":7448:7454  minBet */\n  0x12\n    /* \"AllContracts.sol\":7448:7464  minBet = _minBet */\n  dup2\n  swap1\n  sstore\n  pop\n    /* \"AllContracts.sol\":7487:7494  _maxBet */\n  dup4\n    /* \"AllContracts.sol\":7478:7484  maxBet */\n  0x11\n    /* \"AllContracts.sol\":7478:7494  maxBet = _maxBet */\n  dup2\n  swap1\n  sstore\n  pop\n    /* \"AllContracts.sol\":7518:7526  _maxPick */\n  dup2\n    /* \"AllContracts.sol\":7508:7515  maxPick */\n  0x10\n    /* \"AllContracts.sol\":7508:7526  maxPick = _maxPick */\n  dup2\n  swap1\n  sstore\n  pop\n    /* \"AllContracts.sol\":7549:7556  _payout */\n  dup1\n    /* \"AllContracts.sol\":7540:7546  payout */\n  0x16\n    /* \"AllContracts.sol\":7540:7556  payout = _payout */\n  dup2\n  swap1\n  sstore\n  pop\n    /* \"AllContracts.sol\":7578:7579  1 */\n  0x01\n    /* \"AllContracts.sol\":7571:7575  gas1 */\n  0x06\n    /* \"AllContracts.sol\":7571:7579  gas1 = 1 */\n  dup2\n  swap1\n  sstore\n  pop\n    /* \"AllContracts.sol\":7600:7601  1 */\n  0x01\n    /* \"AllContracts.sol\":7593:7597  gas2 */\n  0x07\n    /* \"AllContracts.sol\":7593:7601  gas2 = 1 */\n  dup2\n  swap1\n  sstore\n  pop\n    /* \"AllContracts.sol\":7622:7623  1 */\n  0x01\n    /* \"AllContracts.sol\":7615:7619  gas3 */\n  0x08\n    /* \"AllContracts.sol\":7615:7623  gas3 = 1 */\n  dup2\n  swap1\n  sstore\n  pop\n    /* \"AllContracts.sol\":7644:7645  1 */\n  0x01\n    /* \"AllContracts.sol\":7637:7641  gas4 */\n  0x09\n    /* \"AllContracts.sol\":7637:7645  gas4 = 1 */\n  dup2\n  swap1\n  sstore\n  pop\n    /* \"AllContracts.sol\":7666:7667  1 */\n  0x01\n    /* \"AllContracts.sol\":7659:7663  gas5 */\n  0x0a\n    /* \"AllContracts.sol\":7659:7667  gas5 = 1 */\n  dup2\n  swap1\n  sstore\n  pop\n    /* \"AllContracts.sol\":7688:7689  1 */\n  0x01\n    /* \"AllContracts.sol\":7681:7685  gas6 */\n  0x0b\n    /* \"AllContracts.sol\":7681:7689  gas6 = 1 */\n  dup2\n  swap1\n  sstore\n  pop\n    /* \"AllContracts.sol\":7710:7711  1 */\n  0x01\n    /* \"AllContracts.sol\":7703:7707  gas7 */\n  0x0c\n    /* \"AllContracts.sol\":7703:7711  gas7 = 1 */\n  dup2\n  swap1\n  sstore\n  pop\n    /* \"AllContracts.sol\":7732:7733  1 */\n  0x01\n    /* \"AllContracts.sol\":7725:7729  gas8 */\n  0x0d\n    /* \"AllContracts.sol\":7725:7733  gas8 = 1 */\n  dup2\n  swap1\n  sstore\n  pop\n    /* \"AllContracts.sol\":7754:7755  1 */\n  0x01\n    /* \"AllContracts.sol\":7747:7751  gas9 */\n  0x0e\n    /* \"AllContracts.sol\":7747:7755  gas9 = 1 */\n  dup2\n  swap1\n  sstore\n  pop\n    /* \"AllContracts.sol\":7777:7778  1 */\n  0x01\n    /* \"AllContracts.sol\":7769:7774  gas10 */\n  0x0f\n    /* \"AllContracts.sol\":7769:7778  gas10 = 1 */\n  dup2\n  swap1\n  sstore\n  pop\n    /* \"AllContracts.sol\":6831:7785  constructor(address payable _payoutAddress, uint _maxBet, uint _minBet, uint _maxPick, uint _payout)... */\n  pop\n  pop\n  pop\n  pop\n  pop\n    /* \"AllContracts.sol\":5733:15201  contract LuckyMachine is VRFConsumerBase, Ownable {... */\n  jump(tag_11)\n    /* \"AllContracts.sol\":90:194  function _msgSender() internal view virtual returns (address payable) {... */\ntag_9:\n    /* \"AllContracts.sol\":143:158  address payable */\n  0x00\n    /* \"AllContracts.sol\":177:187  msg.sender */\n  caller\n    /* \"AllContracts.sol\":170:187  return msg.sender */\n  swap1\n  pop\n    /* \"AllContracts.sol\":90:194  function _msgSender() internal view virtual returns (address payable) {... */\n  swap1\n  jump\t// out\n    /* \"AllContracts.sol\":5733:15201  contract LuckyMachine is VRFConsumerBase, Ownable {... */\ntag_11:\n  dataSize(sub_0)\n  dup1\n  dataOffset(sub_0)\n  0x00\n  codecopy\n  0x00\n  return\nstop\n\nsub_0: assembly {\n        /* \"AllContracts.sol\":5733:15201  contract LuckyMachine is VRFConsumerBase, Ownable {... */\n      mstore(0x40, 0x80)\n      jumpi(tag_1, lt(calldatasize, 0x04))\n      shr(0xe0, calldataload(0x00))\n      dup1\n      0x94985ddd\n      gt\n      tag_33\n      jumpi\n      dup1\n      0xa4b2409e\n      gt\n      tag_34\n      jumpi\n      dup1\n      0xd9e721f8\n      gt\n      tag_35\n      jumpi\n      dup1\n      0xd9e721f8\n      eq\n      tag_29\n      jumpi\n      dup1\n      0xdfad4c11\n      eq\n      tag_30\n      jumpi\n      dup1\n      0xf2fde38b\n      eq\n      tag_31\n      jumpi\n      dup1\n      0xf31a4dcd\n      eq\n      tag_32\n      jumpi\n      jump(tag_2)\n    tag_35:\n      dup1\n      0xa4b2409e\n      eq\n      tag_25\n      jumpi\n      dup1\n      0xac150fd8\n      eq\n      tag_26\n      jumpi\n      dup1\n      0xb93030b3\n      eq\n      tag_27\n      jumpi\n      dup1\n      0xc311d049\n      eq\n      tag_28\n      jumpi\n      jump(tag_2)\n    tag_34:\n      dup1\n      0x98544710\n      gt\n      tag_36\n      jumpi\n      dup1\n      0x98544710\n      eq\n      tag_21\n      jumpi\n      dup1\n      0x9e317f12\n      eq\n      tag_22\n      jumpi\n      dup1\n      0xa02e0616\n      eq\n      tag_23\n      jumpi\n      dup1\n      0xa249225e\n      eq\n      tag_24\n      jumpi\n      jump(tag_2)\n    tag_36:\n      dup1\n      0x94985ddd\n      eq\n      tag_18\n      jumpi\n      dup1\n      0x95f9b576\n      eq\n      tag_19\n      jumpi\n      dup1\n      0x9619367d\n      eq\n      tag_20\n      jumpi\n      jump(tag_2)\n    tag_33:\n      dup1\n      0x44ff81ce\n      gt\n      tag_37\n      jumpi\n      dup1\n      0x63bd1d4a\n      gt\n      tag_38\n      jumpi\n      dup1\n      0x63bd1d4a\n      eq\n      tag_14\n      jumpi\n      dup1\n      0x715018a6\n      eq\n      tag_15\n      jumpi\n      dup1\n      0x7a8042bd\n      eq\n      tag_16\n      jumpi\n      dup1\n      0x8da5cb5b\n      eq\n      tag_17\n      jumpi\n      jump(tag_2)\n    tag_38:\n      dup1\n      0x44ff81ce\n      eq\n      tag_10\n      jumpi\n      dup1\n      0x50c5f975\n      eq\n      tag_11\n      jumpi\n      dup1\n      0x59268a4a\n      eq\n      tag_12\n      jumpi\n      dup1\n      0x5b8d02d7\n      eq\n      tag_13\n      jumpi\n      jump(tag_2)\n    tag_37:\n      dup1\n      0x33ea51a8\n      gt\n      tag_39\n      jumpi\n      dup1\n      0x33ea51a8\n      eq\n      tag_6\n      jumpi\n      dup1\n      0x3638104a\n      eq\n      tag_7\n      jumpi\n      dup1\n      0x39e7357c\n      eq\n      tag_8\n      jumpi\n      dup1\n      0x4051ddac\n      eq\n      tag_9\n      jumpi\n      jump(tag_2)\n    tag_39:\n      dup1\n      0x117a5b90\n      eq\n      tag_3\n      jumpi\n      dup1\n      0x2e5b2168\n      eq\n      tag_4\n      jumpi\n      dup1\n      0x2ee42d8a\n      eq\n      tag_5\n      jumpi\n      jump(tag_2)\n    tag_1:\n      jumpi(tag_2, calldatasize)\n      stop\n    tag_2:\n      0x00\n      dup1\n      revert\n        /* \"AllContracts.sol\":6635:6669  mapping(uint => Game) public games */\n    tag_3:\n      callvalue\n        /* \"--CODEGEN--\":8:17   */\n      dup1\n        /* \"--CODEGEN--\":5:7   */\n      iszero\n      tag_42\n      jumpi\n        /* \"--CODEGEN--\":30:31   */\n      0x00\n        /* \"--CODEGEN--\":27:28   */\n      dup1\n        /* \"--CODEGEN--\":20:32   */\n      revert\n        /* \"--CODEGEN--\":5:7   */\n    tag_42:\n        /* \"AllContracts.sol\":6635:6669  mapping(uint => Game) public games */\n      pop\n      tag_43\n      0x04\n      dup1\n      calldatasize\n      sub\n        /* \"--CODEGEN--\":13:15   */\n      0x20\n        /* \"--CODEGEN--\":8:11   */\n      dup2\n        /* \"--CODEGEN--\":5:16   */\n      lt\n        /* \"--CODEGEN--\":2:4   */\n      iszero\n      tag_44\n      jumpi\n        /* \"--CODEGEN--\":29:30   */\n      0x00\n        /* \"--CODEGEN--\":26:27   */\n      dup1\n        /* \"--CODEGEN--\":19:31   */\n      revert\n        /* \"--CODEGEN--\":2:4   */\n    tag_44:\n        /* \"AllContracts.sol\":6635:6669  mapping(uint => Game) public games */\n      dup2\n      add\n      swap1\n      dup1\n      dup1\n      calldataload\n      swap1\n      0x20\n      add\n      swap1\n      swap3\n      swap2\n      swap1\n      pop\n      pop\n      pop\n      tag_45\n      jump\t// in\n    tag_43:\n      mload(0x40)\n      dup1\n      dup8\n      dup2\n      mstore\n      0x20\n      add\n      dup7\n      0xffffffffffffffffffffffffffffffffffffffff\n      and\n      0xffffffffffffffffffffffffffffffffffffffff\n      and\n      dup2\n      mstore\n      0x20\n      add\n      dup6\n      dup2\n      mstore\n      0x20\n      add\n      dup5\n      dup2\n      mstore\n      0x20\n      add\n      dup4\n      dup2\n      mstore\n      0x20\n      add\n      dup3\n      iszero\n      iszero\n      iszero\n      iszero\n      dup2\n      mstore\n      0x20\n      add\n      swap7\n      pop\n      pop\n      pop\n      pop\n      pop\n      pop\n      pop\n      mload(0x40)\n      dup1\n      swap2\n      sub\n      swap1\n      return\n        /* \"AllContracts.sol\":6299:6317  uint public maxBet */\n    tag_4:\n      callvalue\n        /* \"--CODEGEN--\":8:17   */\n      dup1\n        /* \"--CODEGEN--\":5:7   */\n      iszero\n      tag_46\n      jumpi\n        /* \"--CODEGEN--\":30:31   */\n      0x00\n        /* \"--CODEGEN--\":27:28   */\n      dup1\n        /* \"--CODEGEN--\":20:32   */\n      revert\n        /* \"--CODEGEN--\":5:7   */\n    tag_46:\n        /* \"AllContracts.sol\":6299:6317  uint public maxBet */\n      pop\n      tag_47\n      tag_48\n      jump\t// in\n    tag_47:\n      mload(0x40)\n      dup1\n      dup3\n      dup2\n      mstore\n      0x20\n      add\n      swap2\n      pop\n      pop\n      mload(0x40)\n      dup1\n      swap2\n      sub\n      swap1\n      return\n        /* \"AllContracts.sol\":6274:6293  uint public maxPick */\n    tag_5:\n      callvalue\n        /* \"--CODEGEN--\":8:17   */\n      dup1\n        /* \"--CODEGEN--\":5:7   */\n      iszero\n      tag_49\n      jumpi\n        /* \"--CODEGEN--\":30:31   */\n      0x00\n        /* \"--CODEGEN--\":27:28   */\n      dup1\n        /* \"--CODEGEN--\":20:32   */\n      revert\n        /* \"--CODEGEN--\":5:7   */\n    tag_49:\n        /* \"AllContracts.sol\":6274:6293  uint public maxPick */\n      pop\n      tag_50\n      tag_51\n      jump\t// in\n    tag_50:\n      mload(0x40)\n      dup1\n      dup3\n      dup2\n      mstore\n      0x20\n      add\n      swap2\n      pop\n      pop\n      mload(0x40)\n      dup1\n      swap2\n      sub\n      swap1\n      return\n        /* \"AllContracts.sol\":14344:14466  function setPayoutAddress(address payable _payoutAddress) public onlyOwner {... */\n    tag_6:\n      callvalue\n        /* \"--CODEGEN--\":8:17   */\n      dup1\n        /* \"--CODEGEN--\":5:7   */\n      iszero\n      tag_52\n      jumpi\n        /* \"--CODEGEN--\":30:31   */\n      0x00\n        /* \"--CODEGEN--\":27:28   */\n      dup1\n        /* \"--CODEGEN--\":20:32   */\n      revert\n        /* \"--CODEGEN--\":5:7   */\n    tag_52:\n        /* \"AllContracts.sol\":14344:14466  function setPayoutAddress(address payable _payoutAddress) public onlyOwner {... */\n      pop\n      tag_53\n      0x04\n      dup1\n      calldatasize\n      sub\n        /* \"--CODEGEN--\":13:15   */\n      0x20\n        /* \"--CODEGEN--\":8:11   */\n      dup2\n        /* \"--CODEGEN--\":5:16   */\n      lt\n        /* \"--CODEGEN--\":2:4   */\n      iszero\n      tag_54\n      jumpi\n        /* \"--CODEGEN--\":29:30   */\n      0x00\n        /* \"--CODEGEN--\":26:27   */\n      dup1\n        /* \"--CODEGEN--\":19:31   */\n      revert\n        /* \"--CODEGEN--\":2:4   */\n    tag_54:\n        /* \"AllContracts.sol\":14344:14466  function setPayoutAddress(address payable _payoutAddress) public onlyOwner {... */\n      dup2\n      add\n      swap1\n      dup1\n      dup1\n      calldataload\n      0xffffffffffffffffffffffffffffffffffffffff\n      and\n      swap1\n      0x20\n      add\n      swap1\n      swap3\n      swap2\n      swap1\n      pop\n      pop\n      pop\n      tag_55\n      jump\t// in\n    tag_53:\n      stop\n        /* \"AllContracts.sol\":6524:6573  mapping(address => bool) public authorizedAddress */\n    tag_7:\n      callvalue\n        /* \"--CODEGEN--\":8:17   */\n      dup1\n        /* \"--CODEGEN--\":5:7   */\n      iszero\n      tag_56\n      jumpi\n        /* \"--CODEGEN--\":30:31   */\n      0x00\n        /* \"--CODEGEN--\":27:28   */\n      dup1\n        /* \"--CODEGEN--\":20:32   */\n      revert\n        /* \"--CODEGEN--\":5:7   */\n    tag_56:\n        /* \"AllContracts.sol\":6524:6573  mapping(address => bool) public authorizedAddress */\n      pop\n      tag_57\n      0x04\n      dup1\n      calldatasize\n      sub\n        /* \"--CODEGEN--\":13:15   */\n      0x20\n        /* \"--CODEGEN--\":8:11   */\n      dup2\n        /* \"--CODEGEN--\":5:16   */\n      lt\n        /* \"--CODEGEN--\":2:4   */\n      iszero\n      tag_58\n      jumpi\n        /* \"--CODEGEN--\":29:30   */\n      0x00\n        /* \"--CODEGEN--\":26:27   */\n      dup1\n        /* \"--CODEGEN--\":19:31   */\n      revert\n        /* \"--CODEGEN--\":2:4   */\n    tag_58:\n        /* \"AllContracts.sol\":6524:6573  mapping(address => bool) public authorizedAddress */\n      dup2\n      add\n      swap1\n      dup1\n      dup1\n      calldataload\n      0xffffffffffffffffffffffffffffffffffffffff\n      and\n      swap1\n      0x20\n      add\n      swap1\n      swap3\n      swap2\n      swap1\n      pop\n      pop\n      pop\n      tag_59\n      jump\t// in\n    tag_57:\n      mload(0x40)\n      dup1\n      dup3\n      iszero\n      iszero\n      iszero\n      iszero\n      dup2\n      mstore\n      0x20\n      add\n      swap2\n      pop\n      pop\n      mload(0x40)\n      dup1\n      swap2\n      sub\n      swap1\n      return\n        /* \"AllContracts.sol\":10819:10896  function getSeed() public view returns(uint256) {... */\n    tag_8:\n      callvalue\n        /* \"--CODEGEN--\":8:17   */\n      dup1\n        /* \"--CODEGEN--\":5:7   */\n      iszero\n      tag_60\n      jumpi\n        /* \"--CODEGEN--\":30:31   */\n      0x00\n        /* \"--CODEGEN--\":27:28   */\n      dup1\n        /* \"--CODEGEN--\":20:32   */\n      revert\n        /* \"--CODEGEN--\":5:7   */\n    tag_60:\n        /* \"AllContracts.sol\":10819:10896  function getSeed() public view returns(uint256) {... */\n      pop\n      tag_61\n      tag_62\n      jump\t// in\n    tag_61:\n      mload(0x40)\n      dup1\n      dup3\n      dup2\n      mstore\n      0x20\n      add\n      swap2\n      pop\n      pop\n      mload(0x40)\n      dup1\n      swap2\n      sub\n      swap1\n      return\n        /* \"AllContracts.sol\":13308:13472  function getSummary() public view returns(uint, uint, uint, uint) {... */\n    tag_9:\n      callvalue\n        /* \"--CODEGEN--\":8:17   */\n      dup1\n        /* \"--CODEGEN--\":5:7   */\n      iszero\n      tag_63\n      jumpi\n        /* \"--CODEGEN--\":30:31   */\n      0x00\n        /* \"--CODEGEN--\":27:28   */\n      dup1\n        /* \"--CODEGEN--\":20:32   */\n      revert\n        /* \"--CODEGEN--\":5:7   */\n    tag_63:\n        /* \"AllContracts.sol\":13308:13472  function getSummary() public view returns(uint, uint, uint, uint) {... */\n      pop\n      tag_64\n      tag_65\n      jump\t// in\n    tag_64:\n      mload(0x40)\n      dup1\n      dup6\n      dup2\n      mstore\n      0x20\n      add\n      dup5\n      dup2\n      mstore\n      0x20\n      add\n      dup4\n      dup2\n      mstore\n      0x20\n      add\n      dup3\n      dup2\n      mstore\n      0x20\n      add\n      swap5\n      pop\n      pop\n      pop\n      pop\n      pop\n      mload(0x40)\n      dup1\n      swap2\n      sub\n      swap1\n      return\n        /* \"AllContracts.sol\":14006:14124  function setVRFCoordinator(address _vrfCoordinator) public onlyOwner {... */\n    tag_10:\n      callvalue\n        /* \"--CODEGEN--\":8:17   */\n      dup1\n        /* \"--CODEGEN--\":5:7   */\n      iszero\n      tag_66\n      jumpi\n        /* \"--CODEGEN--\":30:31   */\n      0x00\n        /* \"--CODEGEN--\":27:28   */\n      dup1\n        /* \"--CODEGEN--\":20:32   */\n      revert\n        /* \"--CODEGEN--\":5:7   */\n    tag_66:\n        /* \"AllContracts.sol\":14006:14124  function setVRFCoordinator(address _vrfCoordinator) public onlyOwner {... */\n      pop\n      tag_67\n      0x04\n      dup1\n      calldatasize\n      sub\n        /* \"--CODEGEN--\":13:15   */\n      0x20\n        /* \"--CODEGEN--\":8:11   */\n      dup2\n        /* \"--CODEGEN--\":5:16   */\n      lt\n        /* \"--CODEGEN--\":2:4   */\n      iszero\n      tag_68\n      jumpi\n        /* \"--CODEGEN--\":29:30   */\n      0x00\n        /* \"--CODEGEN--\":26:27   */\n      dup1\n        /* \"--CODEGEN--\":19:31   */\n      revert\n        /* \"--CODEGEN--\":2:4   */\n    tag_68:\n        /* \"AllContracts.sol\":14006:14124  function setVRFCoordinator(address _vrfCoordinator) public onlyOwner {... */\n      dup2\n      add\n      swap1\n      dup1\n      dup1\n      calldataload\n      0xffffffffffffffffffffffffffffffffffffffff\n      and\n      swap1\n      0x20\n      add\n      swap1\n      swap3\n      swap2\n      swap1\n      pop\n      pop\n      pop\n      tag_69\n      jump\t// in\n    tag_67:\n      stop\n        /* \"AllContracts.sol\":7832:7936  function getLinkBalance() public view returns(uint){... */\n    tag_11:\n      callvalue\n        /* \"--CODEGEN--\":8:17   */\n      dup1\n        /* \"--CODEGEN--\":5:7   */\n      iszero\n      tag_70\n      jumpi\n        /* \"--CODEGEN--\":30:31   */\n      0x00\n        /* \"--CODEGEN--\":27:28   */\n      dup1\n        /* \"--CODEGEN--\":20:32   */\n      revert\n        /* \"--CODEGEN--\":5:7   */\n    tag_70:\n        /* \"AllContracts.sol\":7832:7936  function getLinkBalance() public view returns(uint){... */\n      pop\n      tag_71\n      tag_72\n      jump\t// in\n    tag_71:\n      mload(0x40)\n      dup1\n      dup3\n      dup2\n      mstore\n      0x20\n      add\n      swap2\n      pop\n      pop\n      mload(0x40)\n      dup1\n      swap2\n      sub\n      swap1\n      return\n        /* \"AllContracts.sol\":9860:10374  function gasFreeBetFor(address payable player, uint pick) public payable {... */\n    tag_12:\n      tag_73\n      0x04\n      dup1\n      calldatasize\n      sub\n        /* \"--CODEGEN--\":13:15   */\n      0x40\n        /* \"--CODEGEN--\":8:11   */\n      dup2\n        /* \"--CODEGEN--\":5:16   */\n      lt\n        /* \"--CODEGEN--\":2:4   */\n      iszero\n      tag_74\n      jumpi\n        /* \"--CODEGEN--\":29:30   */\n      0x00\n        /* \"--CODEGEN--\":26:27   */\n      dup1\n        /* \"--CODEGEN--\":19:31   */\n      revert\n        /* \"--CODEGEN--\":2:4   */\n    tag_74:\n        /* \"AllContracts.sol\":9860:10374  function gasFreeBetFor(address payable player, uint pick) public payable {... */\n      dup2\n      add\n      swap1\n      dup1\n      dup1\n      calldataload\n      0xffffffffffffffffffffffffffffffffffffffff\n      and\n      swap1\n      0x20\n      add\n      swap1\n      swap3\n      swap2\n      swap1\n      dup1\n      calldataload\n      swap1\n      0x20\n      add\n      swap1\n      swap3\n      swap2\n      swap1\n      pop\n      pop\n      pop\n      tag_75\n      jump\t// in\n    tag_73:\n      stop\n        /* \"AllContracts.sol\":6410:6446  address payable public payoutAddress */\n    tag_13:\n      callvalue\n        /* \"--CODEGEN--\":8:17   */\n      dup1\n        /* \"--CODEGEN--\":5:7   */\n      iszero\n      tag_76\n      jumpi\n        /* \"--CODEGEN--\":30:31   */\n      0x00\n        /* \"--CODEGEN--\":27:28   */\n      dup1\n        /* \"--CODEGEN--\":20:32   */\n      revert\n        /* \"--CODEGEN--\":5:7   */\n    tag_76:\n        /* \"AllContracts.sol\":6410:6446  address payable public payoutAddress */\n      pop\n      tag_77\n      tag_78\n      jump\t// in\n    tag_77:\n      mload(0x40)\n      dup1\n      dup3\n      0xffffffffffffffffffffffffffffffffffffffff\n      and\n      0xffffffffffffffffffffffffffffffffffffffff\n      and\n      dup2\n      mstore\n      0x20\n      add\n      swap2\n      pop\n      pop\n      mload(0x40)\n      dup1\n      swap2\n      sub\n      swap1\n      return\n        /* \"AllContracts.sol\":6452:6470  uint public payout */\n    tag_14:\n      callvalue\n        /* \"--CODEGEN--\":8:17   */\n      dup1\n        /* \"--CODEGEN--\":5:7   */\n      iszero\n      tag_79\n      jumpi\n        /* \"--CODEGEN--\":30:31   */\n      0x00\n        /* \"--CODEGEN--\":27:28   */\n      dup1\n        /* \"--CODEGEN--\":20:32   */\n      revert\n        /* \"--CODEGEN--\":5:7   */\n    tag_79:\n        /* \"AllContracts.sol\":6452:6470  uint public payout */\n      pop\n      tag_80\n      tag_81\n      jump\t// in\n    tag_80:\n      mload(0x40)\n      dup1\n      dup3\n      dup2\n      mstore\n      0x20\n      add\n      swap2\n      pop\n      pop\n      mload(0x40)\n      dup1\n      swap2\n      sub\n      swap1\n      return\n        /* \"AllContracts.sol\":1550:1695  function renounceOwnership() public virtual onlyOwner {... */\n    tag_15:\n      callvalue\n        /* \"--CODEGEN--\":8:17   */\n      dup1\n        /* \"--CODEGEN--\":5:7   */\n      iszero\n      tag_82\n      jumpi\n        /* \"--CODEGEN--\":30:31   */\n      0x00\n        /* \"--CODEGEN--\":27:28   */\n      dup1\n        /* \"--CODEGEN--\":20:32   */\n      revert\n        /* \"--CODEGEN--\":5:7   */\n    tag_82:\n        /* \"AllContracts.sol\":1550:1695  function renounceOwnership() public virtual onlyOwner {... */\n      pop\n      tag_83\n      tag_84\n      jump\t// in\n    tag_83:\n      stop\n        /* \"AllContracts.sol\":14677:14782  function withdrawLink(uint amount) public onlyOwner {... */\n    tag_16:\n      callvalue\n        /* \"--CODEGEN--\":8:17   */\n      dup1\n        /* \"--CODEGEN--\":5:7   */\n      iszero\n      tag_85\n      jumpi\n        /* \"--CODEGEN--\":30:31   */\n      0x00\n        /* \"--CODEGEN--\":27:28   */\n      dup1\n        /* \"--CODEGEN--\":20:32   */\n      revert\n        /* \"--CODEGEN--\":5:7   */\n    tag_85:\n        /* \"AllContracts.sol\":14677:14782  function withdrawLink(uint amount) public onlyOwner {... */\n      pop\n      tag_86\n      0x04\n      dup1\n      calldatasize\n      sub\n        /* \"--CODEGEN--\":13:15   */\n      0x20\n        /* \"--CODEGEN--\":8:11   */\n      dup2\n        /* \"--CODEGEN--\":5:16   */\n      lt\n        /* \"--CODEGEN--\":2:4   */\n      iszero\n      tag_87\n      jumpi\n        /* \"--CODEGEN--\":29:30   */\n      0x00\n        /* \"--CODEGEN--\":26:27   */\n      dup1\n        /* \"--CODEGEN--\":19:31   */\n      revert\n        /* \"--CODEGEN--\":2:4   */\n    tag_87:\n        /* \"AllContracts.sol\":14677:14782  function withdrawLink(uint amount) public onlyOwner {... */\n      dup2\n      add\n      swap1\n      dup1\n      dup1\n      calldataload\n      swap1\n      0x20\n      add\n      swap1\n      swap3\n      swap2\n      swap1\n      pop\n      pop\n      pop\n      tag_88\n      jump\t// in\n    tag_86:\n      stop\n        /* \"AllContracts.sol\":927:1004  function owner() public view returns (address) {... */\n    tag_17:\n      callvalue\n        /* \"--CODEGEN--\":8:17   */\n      dup1\n        /* \"--CODEGEN--\":5:7   */\n      iszero\n      tag_89\n      jumpi\n        /* \"--CODEGEN--\":30:31   */\n      0x00\n        /* \"--CODEGEN--\":27:28   */\n      dup1\n        /* \"--CODEGEN--\":20:32   */\n      revert\n        /* \"--CODEGEN--\":5:7   */\n    tag_89:\n        /* \"AllContracts.sol\":927:1004  function owner() public view returns (address) {... */\n      pop\n      tag_90\n      tag_91\n      jump\t// in\n    tag_90:\n      mload(0x40)\n      dup1\n      dup3\n      0xffffffffffffffffffffffffffffffffffffffff\n      and\n      0xffffffffffffffffffffffffffffffffffffffff\n      and\n      dup2\n      mstore\n      0x20\n      add\n      swap2\n      pop\n      pop\n      mload(0x40)\n      dup1\n      swap2\n      sub\n      swap1\n      return\n        /* \"AllContracts.sol\":5522:5729  function rawFulfillRandomness(bytes32 requestId, uint256 randomness) external {... */\n    tag_18:\n      callvalue\n        /* \"--CODEGEN--\":8:17   */\n      dup1\n        /* \"--CODEGEN--\":5:7   */\n      iszero\n      tag_92\n      jumpi\n        /* \"--CODEGEN--\":30:31   */\n      0x00\n        /* \"--CODEGEN--\":27:28   */\n      dup1\n        /* \"--CODEGEN--\":20:32   */\n      revert\n        /* \"--CODEGEN--\":5:7   */\n    tag_92:\n        /* \"AllContracts.sol\":5522:5729  function rawFulfillRandomness(bytes32 requestId, uint256 randomness) external {... */\n      pop\n      tag_93\n      0x04\n      dup1\n      calldatasize\n      sub\n        /* \"--CODEGEN--\":13:15   */\n      0x40\n        /* \"--CODEGEN--\":8:11   */\n      dup2\n        /* \"--CODEGEN--\":5:16   */\n      lt\n        /* \"--CODEGEN--\":2:4   */\n      iszero\n      tag_94\n      jumpi\n        /* \"--CODEGEN--\":29:30   */\n      0x00\n        /* \"--CODEGEN--\":26:27   */\n      dup1\n        /* \"--CODEGEN--\":19:31   */\n      revert\n        /* \"--CODEGEN--\":2:4   */\n    tag_94:\n        /* \"AllContracts.sol\":5522:5729  function rawFulfillRandomness(bytes32 requestId, uint256 randomness) external {... */\n      dup2\n      add\n      swap1\n      dup1\n      dup1\n      calldataload\n      swap1\n      0x20\n      add\n      swap1\n      swap3\n      swap2\n      swap1\n      dup1\n      calldataload\n      swap1\n      0x20\n      add\n      swap1\n      swap3\n      swap2\n      swap1\n      pop\n      pop\n      pop\n      tag_95\n      jump\t// in\n    tag_93:\n      stop\n        /* \"AllContracts.sol\":13506:13828  function allowGasFreeBet(address[] memory userAddresses, bool allowed) public {... */\n    tag_19:\n      callvalue\n        /* \"--CODEGEN--\":8:17   */\n      dup1\n        /* \"--CODEGEN--\":5:7   */\n      iszero\n      tag_96\n      jumpi\n        /* \"--CODEGEN--\":30:31   */\n      0x00\n        /* \"--CODEGEN--\":27:28   */\n      dup1\n        /* \"--CODEGEN--\":20:32   */\n      revert\n        /* \"--CODEGEN--\":5:7   */\n    tag_96:\n        /* \"AllContracts.sol\":13506:13828  function allowGasFreeBet(address[] memory userAddresses, bool allowed) public {... */\n      pop\n      tag_97\n      0x04\n      dup1\n      calldatasize\n      sub\n        /* \"--CODEGEN--\":13:15   */\n      0x40\n        /* \"--CODEGEN--\":8:11   */\n      dup2\n        /* \"--CODEGEN--\":5:16   */\n      lt\n        /* \"--CODEGEN--\":2:4   */\n      iszero\n      tag_98\n      jumpi\n        /* \"--CODEGEN--\":29:30   */\n      0x00\n        /* \"--CODEGEN--\":26:27   */\n      dup1\n        /* \"--CODEGEN--\":19:31   */\n      revert\n        /* \"--CODEGEN--\":2:4   */\n    tag_98:\n        /* \"AllContracts.sol\":13506:13828  function allowGasFreeBet(address[] memory userAddresses, bool allowed) public {... */\n      dup2\n      add\n      swap1\n      dup1\n      dup1\n      calldataload\n      swap1\n      0x20\n      add\n      swap1\n        /* \"--CODEGEN--\":21:32   */\n      0x0100000000\n        /* \"--CODEGEN--\":8:19   */\n      dup2\n        /* \"--CODEGEN--\":5:33   */\n      gt\n        /* \"--CODEGEN--\":2:4   */\n      iszero\n      tag_99\n      jumpi\n        /* \"--CODEGEN--\":46:47   */\n      0x00\n        /* \"--CODEGEN--\":43:44   */\n      dup1\n        /* \"--CODEGEN--\":36:48   */\n      revert\n        /* \"--CODEGEN--\":2:4   */\n    tag_99:\n        /* \"AllContracts.sol\":13506:13828  function allowGasFreeBet(address[] memory userAddresses, bool allowed) public {... */\n      dup3\n      add\n        /* \"--CODEGEN--\":35:44   */\n      dup4\n        /* \"--CODEGEN--\":28:32   */\n      0x20\n        /* \"--CODEGEN--\":12:26   */\n      dup3\n        /* \"--CODEGEN--\":8:33   */\n      add\n        /* \"--CODEGEN--\":5:45   */\n      gt\n        /* \"--CODEGEN--\":2:4   */\n      iszero\n      tag_100\n      jumpi\n        /* \"--CODEGEN--\":58:59   */\n      0x00\n        /* \"--CODEGEN--\":55:56   */\n      dup1\n        /* \"--CODEGEN--\":48:60   */\n      revert\n        /* \"--CODEGEN--\":2:4   */\n    tag_100:\n        /* \"AllContracts.sol\":13506:13828  function allowGasFreeBet(address[] memory userAddresses, bool allowed) public {... */\n      dup1\n      calldataload\n      swap1\n      0x20\n      add\n      swap2\n        /* \"--CODEGEN--\":101:110   */\n      dup5\n        /* \"--CODEGEN--\":95:97   */\n      0x20\n        /* \"--CODEGEN--\":81:93   */\n      dup4\n        /* \"--CODEGEN--\":77:98   */\n      mul\n        /* \"--CODEGEN--\":67:75   */\n      dup5\n        /* \"--CODEGEN--\":63:99   */\n      add\n        /* \"--CODEGEN--\":60:111   */\n      gt\n        /* \"--CODEGEN--\":39:50   */\n      0x0100000000\n        /* \"--CODEGEN--\":25:37   */\n      dup4\n        /* \"--CODEGEN--\":22:51   */\n      gt\n        /* \"--CODEGEN--\":11:119   */\n      or\n        /* \"--CODEGEN--\":8:10   */\n      iszero\n      tag_101\n      jumpi\n        /* \"--CODEGEN--\":132:133   */\n      0x00\n        /* \"--CODEGEN--\":129:130   */\n      dup1\n        /* \"--CODEGEN--\":122:134   */\n      revert\n        /* \"--CODEGEN--\":8:10   */\n    tag_101:\n        /* \"AllContracts.sol\":13506:13828  function allowGasFreeBet(address[] memory userAddresses, bool allowed) public {... */\n      swap2\n      swap1\n      dup1\n      dup1\n      0x20\n      mul\n      0x20\n      add\n      mload(0x40)\n      swap1\n      dup2\n      add\n      0x40\n      mstore\n      dup1\n      swap4\n      swap3\n      swap2\n      swap1\n      dup2\n      dup2\n      mstore\n      0x20\n      add\n      dup4\n      dup4\n      0x20\n      mul\n        /* \"--CODEGEN--\":30:33   */\n      dup1\n        /* \"--CODEGEN--\":22:28   */\n      dup3\n        /* \"--CODEGEN--\":14:20   */\n      dup5\n        /* \"--CODEGEN--\":1:34   */\n      calldatacopy\n        /* \"--CODEGEN--\":99:100   */\n      0x00\n        /* \"--CODEGEN--\":93:96   */\n      dup2\n        /* \"--CODEGEN--\":85:91   */\n      dup5\n        /* \"--CODEGEN--\":81:97   */\n      add\n        /* \"--CODEGEN--\":74:101   */\n      mstore\n        /* \"--CODEGEN--\":137:141   */\n      0x1f\n        /* \"--CODEGEN--\":133:142   */\n      not\n        /* \"--CODEGEN--\":126:130   */\n      0x1f\n        /* \"--CODEGEN--\":121:124   */\n      dup3\n        /* \"--CODEGEN--\":117:131   */\n      add\n        /* \"--CODEGEN--\":113:143   */\n      and\n        /* \"--CODEGEN--\":106:143   */\n      swap1\n      pop\n        /* \"--CODEGEN--\":169:172   */\n      dup1\n        /* \"--CODEGEN--\":161:167   */\n      dup4\n        /* \"--CODEGEN--\":157:173   */\n      add\n        /* \"--CODEGEN--\":147:173   */\n      swap3\n      pop\n        /* \"AllContracts.sol\":13506:13828  function allowGasFreeBet(address[] memory userAddresses, bool allowed) public {... */\n      pop\n      pop\n      pop\n      pop\n      pop\n      pop\n      swap2\n      swap3\n      swap2\n      swap3\n      swap1\n      dup1\n      calldataload\n      iszero\n      iszero\n      swap1\n      0x20\n      add\n      swap1\n      swap3\n      swap2\n      swap1\n      pop\n      pop\n      pop\n      tag_102\n      jump\t// in\n    tag_97:\n      stop\n        /* \"AllContracts.sol\":6323:6341  uint public minBet */\n    tag_20:\n      callvalue\n        /* \"--CODEGEN--\":8:17   */\n      dup1\n        /* \"--CODEGEN--\":5:7   */\n      iszero\n      tag_103\n      jumpi\n        /* \"--CODEGEN--\":30:31   */\n      0x00\n        /* \"--CODEGEN--\":27:28   */\n      dup1\n        /* \"--CODEGEN--\":20:32   */\n      revert\n        /* \"--CODEGEN--\":5:7   */\n    tag_103:\n        /* \"AllContracts.sol\":6323:6341  uint public minBet */\n      pop\n      tag_104\n      tag_105\n      jump\t// in\n    tag_104:\n      mload(0x40)\n      dup1\n      dup3\n      dup2\n      mstore\n      0x20\n      add\n      swap2\n      pop\n      pop\n      mload(0x40)\n      dup1\n      swap2\n      sub\n      swap1\n      return\n        /* \"AllContracts.sol\":14130:14220  function setKeyHash(bytes32 _keyHash) public onlyOwner {... */\n    tag_21:\n      callvalue\n        /* \"--CODEGEN--\":8:17   */\n      dup1\n        /* \"--CODEGEN--\":5:7   */\n      iszero\n      tag_106\n      jumpi\n        /* \"--CODEGEN--\":30:31   */\n      0x00\n        /* \"--CODEGEN--\":27:28   */\n      dup1\n        /* \"--CODEGEN--\":20:32   */\n      revert\n        /* \"--CODEGEN--\":5:7   */\n    tag_106:\n        /* \"AllContracts.sol\":14130:14220  function setKeyHash(bytes32 _keyHash) public onlyOwner {... */\n      pop\n      tag_107\n      0x04\n      dup1\n      calldatasize\n      sub\n        /* \"--CODEGEN--\":13:15   */\n      0x20\n        /* \"--CODEGEN--\":8:11   */\n      dup2\n        /* \"--CODEGEN--\":5:16   */\n      lt\n        /* \"--CODEGEN--\":2:4   */\n      iszero\n      tag_108\n      jumpi\n        /* \"--CODEGEN--\":29:30   */\n      0x00\n        /* \"--CODEGEN--\":26:27   */\n      dup1\n        /* \"--CODEGEN--\":19:31   */\n      revert\n        /* \"--CODEGEN--\":2:4   */\n    tag_108:\n        /* \"AllContracts.sol\":14130:14220  function setKeyHash(bytes32 _keyHash) public onlyOwner {... */\n      dup2\n      add\n      swap1\n      dup1\n      dup1\n      calldataload\n      swap1\n      0x20\n      add\n      swap1\n      swap3\n      swap2\n      swap1\n      pop\n      pop\n      pop\n      tag_109\n      jump\t// in\n    tag_107:\n      stop\n        /* \"AllContracts.sol\":5307:5374  mapping(bytes32 /* keyHash */ => uint256 /* nonce */) public nonces */\n    tag_22:\n      callvalue\n        /* \"--CODEGEN--\":8:17   */\n      dup1\n        /* \"--CODEGEN--\":5:7   */\n      iszero\n      tag_110\n      jumpi\n        /* \"--CODEGEN--\":30:31   */\n      0x00\n        /* \"--CODEGEN--\":27:28   */\n      dup1\n        /* \"--CODEGEN--\":20:32   */\n      revert\n        /* \"--CODEGEN--\":5:7   */\n    tag_110:\n        /* \"AllContracts.sol\":5307:5374  mapping(bytes32 /* keyHash */ => uint256 /* nonce */) public nonces */\n      pop\n      tag_111\n      0x04\n      dup1\n      calldatasize\n      sub\n        /* \"--CODEGEN--\":13:15   */\n      0x20\n        /* \"--CODEGEN--\":8:11   */\n      dup2\n        /* \"--CODEGEN--\":5:16   */\n      lt\n        /* \"--CODEGEN--\":2:4   */\n      iszero\n      tag_112\n      jumpi\n        /* \"--CODEGEN--\":29:30   */\n      0x00\n        /* \"--CODEGEN--\":26:27   */\n      dup1\n        /* \"--CODEGEN--\":19:31   */\n      revert\n        /* \"--CODEGEN--\":2:4   */\n    tag_112:\n        /* \"AllContracts.sol\":5307:5374  mapping(bytes32 /* keyHash */ => uint256 /* nonce */) public nonces */\n      dup2\n      add\n      swap1\n      dup1\n      dup1\n      calldataload\n      swap1\n      0x20\n      add\n      swap1\n      swap3\n      swap2\n      swap1\n      pop\n      pop\n      pop\n      tag_113\n      jump\t// in\n    tag_111:\n      mload(0x40)\n      dup1\n      dup3\n      dup2\n      mstore\n      0x20\n      add\n      swap2\n      pop\n      pop\n      mload(0x40)\n      dup1\n      swap2\n      sub\n      swap1\n      return\n        /* \"AllContracts.sol\":14226:14338  function setLINK(address _linkAddress) public onlyOwner {... */\n    tag_23:\n      callvalue\n        /* \"--CODEGEN--\":8:17   */\n      dup1\n        /* \"--CODEGEN--\":5:7   */\n      iszero\n      tag_114\n      jumpi\n        /* \"--CODEGEN--\":30:31   */\n      0x00\n        /* \"--CODEGEN--\":27:28   */\n      dup1\n        /* \"--CODEGEN--\":20:32   */\n      revert\n        /* \"--CODEGEN--\":5:7   */\n    tag_114:\n        /* \"AllContracts.sol\":14226:14338  function setLINK(address _linkAddress) public onlyOwner {... */\n      pop\n      tag_115\n      0x04\n      dup1\n      calldatasize\n      sub\n        /* \"--CODEGEN--\":13:15   */\n      0x20\n        /* \"--CODEGEN--\":8:11   */\n      dup2\n        /* \"--CODEGEN--\":5:16   */\n      lt\n        /* \"--CODEGEN--\":2:4   */\n      iszero\n      tag_116\n      jumpi\n        /* \"--CODEGEN--\":29:30   */\n      0x00\n        /* \"--CODEGEN--\":26:27   */\n      dup1\n        /* \"--CODEGEN--\":19:31   */\n      revert\n        /* \"--CODEGEN--\":2:4   */\n    tag_116:\n        /* \"AllContracts.sol\":14226:14338  function setLINK(address _linkAddress) public onlyOwner {... */\n      dup2\n      add\n      swap1\n      dup1\n      dup1\n      calldataload\n      0xffffffffffffffffffffffffffffffffffffffff\n      and\n      swap1\n      0x20\n      add\n      swap1\n      swap3\n      swap2\n      swap1\n      pop\n      pop\n      pop\n      tag_117\n      jump\t// in\n    tag_115:\n      stop\n        /* \"AllContracts.sol\":13858:14000  function setAuthorizedUser(address userAddress, bool authorized) public onlyOwner {... */\n    tag_24:\n      callvalue\n        /* \"--CODEGEN--\":8:17   */\n      dup1\n        /* \"--CODEGEN--\":5:7   */\n      iszero\n      tag_118\n      jumpi\n        /* \"--CODEGEN--\":30:31   */\n      0x00\n        /* \"--CODEGEN--\":27:28   */\n      dup1\n        /* \"--CODEGEN--\":20:32   */\n      revert\n        /* \"--CODEGEN--\":5:7   */\n    tag_118:\n        /* \"AllContracts.sol\":13858:14000  function setAuthorizedUser(address userAddress, bool authorized) public onlyOwner {... */\n      pop\n      tag_119\n      0x04\n      dup1\n      calldatasize\n      sub\n        /* \"--CODEGEN--\":13:15   */\n      0x40\n        /* \"--CODEGEN--\":8:11   */\n      dup2\n        /* \"--CODEGEN--\":5:16   */\n      lt\n        /* \"--CODEGEN--\":2:4   */\n      iszero\n      tag_120\n      jumpi\n        /* \"--CODEGEN--\":29:30   */\n      0x00\n        /* \"--CODEGEN--\":26:27   */\n      dup1\n        /* \"--CODEGEN--\":19:31   */\n      revert\n        /* \"--CODEGEN--\":2:4   */\n    tag_120:\n        /* \"AllContracts.sol\":13858:14000  function setAuthorizedUser(address userAddress, bool authorized) public onlyOwner {... */\n      dup2\n      add\n      swap1\n      dup1\n      dup1\n      calldataload\n      0xffffffffffffffffffffffffffffffffffffffff\n      and\n      swap1\n      0x20\n      add\n      swap1\n      swap3\n      swap2\n      swap1\n      dup1\n      calldataload\n      iszero\n      iszero\n      swap1\n      0x20\n      add\n      swap1\n      swap3\n      swap2\n      swap1\n      pop\n      pop\n      pop\n      tag_121\n      jump\t// in\n    tag_119:\n      stop\n        /* \"AllContracts.sol\":12839:13302  function requestRefund(uint gameID) public{... */\n    tag_25:\n      callvalue\n        /* \"--CODEGEN--\":8:17   */\n      dup1\n        /* \"--CODEGEN--\":5:7   */\n      iszero\n      tag_122\n      jumpi\n        /* \"--CODEGEN--\":30:31   */\n      0x00\n        /* \"--CODEGEN--\":27:28   */\n      dup1\n        /* \"--CODEGEN--\":20:32   */\n      revert\n        /* \"--CODEGEN--\":5:7   */\n    tag_122:\n        /* \"AllContracts.sol\":12839:13302  function requestRefund(uint gameID) public{... */\n      pop\n      tag_123\n      0x04\n      dup1\n      calldatasize\n      sub\n        /* \"--CODEGEN--\":13:15   */\n      0x20\n        /* \"--CODEGEN--\":8:11   */\n      dup2\n        /* \"--CODEGEN--\":5:16   */\n      lt\n        /* \"--CODEGEN--\":2:4   */\n      iszero\n      tag_124\n      jumpi\n        /* \"--CODEGEN--\":29:30   */\n      0x00\n        /* \"--CODEGEN--\":26:27   */\n      dup1\n        /* \"--CODEGEN--\":19:31   */\n      revert\n        /* \"--CODEGEN--\":2:4   */\n    tag_124:\n        /* \"AllContracts.sol\":12839:13302  function requestRefund(uint gameID) public{... */\n      dup2\n      add\n      swap1\n      dup1\n      dup1\n      calldataload\n      swap1\n      0x20\n      add\n      swap1\n      swap3\n      swap2\n      swap1\n      pop\n      pop\n      pop\n      tag_125\n      jump\t// in\n    tag_123:\n      stop\n        /* \"AllContracts.sol\":8578:9187  function placeBetFor(address payable player, uint pick) public payable {... */\n    tag_26:\n      tag_126\n      0x04\n      dup1\n      calldatasize\n      sub\n        /* \"--CODEGEN--\":13:15   */\n      0x40\n        /* \"--CODEGEN--\":8:11   */\n      dup2\n        /* \"--CODEGEN--\":5:16   */\n      lt\n        /* \"--CODEGEN--\":2:4   */\n      iszero\n      tag_127\n      jumpi\n        /* \"--CODEGEN--\":29:30   */\n      0x00\n        /* \"--CODEGEN--\":26:27   */\n      dup1\n        /* \"--CODEGEN--\":19:31   */\n      revert\n        /* \"--CODEGEN--\":2:4   */\n    tag_127:\n        /* \"AllContracts.sol\":8578:9187  function placeBetFor(address payable player, uint pick) public payable {... */\n      dup2\n      add\n      swap1\n      dup1\n      dup1\n      calldataload\n      0xffffffffffffffffffffffffffffffffffffffff\n      and\n      swap1\n      0x20\n      add\n      swap1\n      swap3\n      swap2\n      swap1\n      dup1\n      calldataload\n      swap1\n      0x20\n      add\n      swap1\n      swap3\n      swap2\n      swap1\n      pop\n      pop\n      pop\n      tag_128\n      jump\t// in\n    tag_126:\n      stop\n        /* \"AllContracts.sol\":14788:15110  function closeMachine() public onlyOwner {... */\n    tag_27:\n      callvalue\n        /* \"--CODEGEN--\":8:17   */\n      dup1\n        /* \"--CODEGEN--\":5:7   */\n      iszero\n      tag_129\n      jumpi\n        /* \"--CODEGEN--\":30:31   */\n      0x00\n        /* \"--CODEGEN--\":27:28   */\n      dup1\n        /* \"--CODEGEN--\":20:32   */\n      revert\n        /* \"--CODEGEN--\":5:7   */\n    tag_129:\n        /* \"AllContracts.sol\":14788:15110  function closeMachine() public onlyOwner {... */\n      pop\n      tag_130\n      tag_131\n      jump\t// in\n    tag_130:\n      stop\n        /* \"AllContracts.sol\":14472:14671  function withdrawEth(uint amount) public onlyOwner {... */\n    tag_28:\n      callvalue\n        /* \"--CODEGEN--\":8:17   */\n      dup1\n        /* \"--CODEGEN--\":5:7   */\n      iszero\n      tag_132\n      jumpi\n        /* \"--CODEGEN--\":30:31   */\n      0x00\n        /* \"--CODEGEN--\":27:28   */\n      dup1\n        /* \"--CODEGEN--\":20:32   */\n      revert\n        /* \"--CODEGEN--\":5:7   */\n    tag_132:\n        /* \"AllContracts.sol\":14472:14671  function withdrawEth(uint amount) public onlyOwner {... */\n      pop\n      tag_133\n      0x04\n      dup1\n      calldatasize\n      sub\n        /* \"--CODEGEN--\":13:15   */\n      0x20\n        /* \"--CODEGEN--\":8:11   */\n      dup2\n        /* \"--CODEGEN--\":5:16   */\n      lt\n        /* \"--CODEGEN--\":2:4   */\n      iszero\n      tag_134\n      jumpi\n        /* \"--CODEGEN--\":29:30   */\n      0x00\n        /* \"--CODEGEN--\":26:27   */\n      dup1\n        /* \"--CODEGEN--\":19:31   */\n      revert\n        /* \"--CODEGEN--\":2:4   */\n    tag_134:\n        /* \"AllContracts.sol\":14472:14671  function withdrawEth(uint amount) public onlyOwner {... */\n      dup2\n      add\n      swap1\n      dup1\n      dup1\n      calldataload\n      swap1\n      0x20\n      add\n      swap1\n      swap3\n      swap2\n      swap1\n      pop\n      pop\n      pop\n      tag_135\n      jump\t// in\n    tag_133:\n      stop\n        /* \"AllContracts.sol\":9193:9854  function safeBetFor(address payable player, uint pick) public payable {... */\n    tag_29:\n      tag_136\n      0x04\n      dup1\n      calldatasize\n      sub\n        /* \"--CODEGEN--\":13:15   */\n      0x40\n        /* \"--CODEGEN--\":8:11   */\n      dup2\n        /* \"--CODEGEN--\":5:16   */\n      lt\n        /* \"--CODEGEN--\":2:4   */\n      iszero\n      tag_137\n      jumpi\n        /* \"--CODEGEN--\":29:30   */\n      0x00\n        /* \"--CODEGEN--\":26:27   */\n      dup1\n        /* \"--CODEGEN--\":19:31   */\n      revert\n        /* \"--CODEGEN--\":2:4   */\n    tag_137:\n        /* \"AllContracts.sol\":9193:9854  function safeBetFor(address payable player, uint pick) public payable {... */\n      dup2\n      add\n      swap1\n      dup1\n      dup1\n      calldataload\n      0xffffffffffffffffffffffffffffffffffffffff\n      and\n      swap1\n      0x20\n      add\n      swap1\n      swap3\n      swap2\n      swap1\n      dup1\n      calldataload\n      swap1\n      0x20\n      add\n      swap1\n      swap3\n      swap2\n      swap1\n      pop\n      pop\n      pop\n      tag_138\n      jump\t// in\n    tag_136:\n      stop\n        /* \"AllContracts.sol\":6579:6628  mapping(address => bool) public gasFreeBetAllowed */\n    tag_30:\n      callvalue\n        /* \"--CODEGEN--\":8:17   */\n      dup1\n        /* \"--CODEGEN--\":5:7   */\n      iszero\n      tag_139\n      jumpi\n        /* \"--CODEGEN--\":30:31   */\n      0x00\n        /* \"--CODEGEN--\":27:28   */\n      dup1\n        /* \"--CODEGEN--\":20:32   */\n      revert\n        /* \"--CODEGEN--\":5:7   */\n    tag_139:\n        /* \"AllContracts.sol\":6579:6628  mapping(address => bool) public gasFreeBetAllowed */\n      pop\n      tag_140\n      0x04\n      dup1\n      calldatasize\n      sub\n        /* \"--CODEGEN--\":13:15   */\n      0x20\n        /* \"--CODEGEN--\":8:11   */\n      dup2\n        /* \"--CODEGEN--\":5:16   */\n      lt\n        /* \"--CODEGEN--\":2:4   */\n      iszero\n      tag_141\n      jumpi\n        /* \"--CODEGEN--\":29:30   */\n      0x00\n        /* \"--CODEGEN--\":26:27   */\n      dup1\n        /* \"--CODEGEN--\":19:31   */\n      revert\n        /* \"--CODEGEN--\":2:4   */\n    tag_141:\n        /* \"AllContracts.sol\":6579:6628  mapping(address => bool) public gasFreeBetAllowed */\n      dup2\n      add\n      swap1\n      dup1\n      dup1\n      calldataload\n      0xffffffffffffffffffffffffffffffffffffffff\n      and\n      swap1\n      0x20\n      add\n      swap1\n      swap3\n      swap2\n      swap1\n      pop\n      pop\n      pop\n      tag_142\n      jump\t// in\n    tag_140:\n      mload(0x40)\n      dup1\n      dup3\n      iszero\n      iszero\n      iszero\n      iszero\n      dup2\n      mstore\n      0x20\n      add\n      swap2\n      pop\n      pop\n      mload(0x40)\n      dup1\n      swap2\n      sub\n      swap1\n      return\n        /* \"AllContracts.sol\":1844:2084  function transferOwnership(address newOwner) public virtual onlyOwner {... */\n    tag_31:\n      callvalue\n        /* \"--CODEGEN--\":8:17   */\n      dup1\n        /* \"--CODEGEN--\":5:7   */\n      iszero\n      tag_143\n      jumpi\n        /* \"--CODEGEN--\":30:31   */\n      0x00\n        /* \"--CODEGEN--\":27:28   */\n      dup1\n        /* \"--CODEGEN--\":20:32   */\n      revert\n        /* \"--CODEGEN--\":5:7   */\n    tag_143:\n        /* \"AllContracts.sol\":1844:2084  function transferOwnership(address newOwner) public virtual onlyOwner {... */\n      pop\n      tag_144\n      0x04\n      dup1\n      calldatasize\n      sub\n        /* \"--CODEGEN--\":13:15   */\n      0x20\n        /* \"--CODEGEN--\":8:11   */\n      dup2\n        /* \"--CODEGEN--\":5:16   */\n      lt\n        /* \"--CODEGEN--\":2:4   */\n      iszero\n      tag_145\n      jumpi\n        /* \"--CODEGEN--\":29:30   */\n      0x00\n        /* \"--CODEGEN--\":26:27   */\n      dup1\n        /* \"--CODEGEN--\":19:31   */\n      revert\n        /* \"--CODEGEN--\":2:4   */\n    tag_145:\n        /* \"AllContracts.sol\":1844:2084  function transferOwnership(address newOwner) public virtual onlyOwner {... */\n      dup2\n      add\n      swap1\n      dup1\n      dup1\n      calldataload\n      0xffffffffffffffffffffffffffffffffffffffff\n      and\n      swap1\n      0x20\n      add\n      swap1\n      swap3\n      swap2\n      swap1\n      pop\n      pop\n      pop\n      tag_146\n      jump\t// in\n    tag_144:\n      stop\n        /* \"AllContracts.sol\":15116:15199  function replayGame(uint gameID) public onlyOwner {... */\n    tag_32:\n      callvalue\n        /* \"--CODEGEN--\":8:17   */\n      dup1\n        /* \"--CODEGEN--\":5:7   */\n      iszero\n      tag_147\n      jumpi\n        /* \"--CODEGEN--\":30:31   */\n      0x00\n        /* \"--CODEGEN--\":27:28   */\n      dup1\n        /* \"--CODEGEN--\":20:32   */\n      revert\n        /* \"--CODEGEN--\":5:7   */\n    tag_147:\n        /* \"AllContracts.sol\":15116:15199  function replayGame(uint gameID) public onlyOwner {... */\n      pop\n      tag_148\n      0x04\n      dup1\n      calldatasize\n      sub\n        /* \"--CODEGEN--\":13:15   */\n      0x20\n        /* \"--CODEGEN--\":8:11   */\n      dup2\n        /* \"--CODEGEN--\":5:16   */\n      lt\n        /* \"--CODEGEN--\":2:4   */\n      iszero\n      tag_149\n      jumpi\n        /* \"--CODEGEN--\":29:30   */\n      0x00\n        /* \"--CODEGEN--\":26:27   */\n      dup1\n        /* \"--CODEGEN--\":19:31   */\n      revert\n        /* \"--CODEGEN--\":2:4   */\n    tag_149:\n        /* \"AllContracts.sol\":15116:15199  function replayGame(uint gameID) public onlyOwner {... */\n      dup2\n      add\n      swap1\n      dup1\n      dup1\n      calldataload\n      swap1\n      0x20\n      add\n      swap1\n      swap3\n      swap2\n      swap1\n      pop\n      pop\n      pop\n      tag_150\n      jump\t// in\n    tag_148:\n      stop\n        /* \"AllContracts.sol\":6635:6669  mapping(uint => Game) public games */\n    tag_45:\n      mstore(0x20, 0x19)\n      dup1\n      0x00\n      mstore\n      keccak256(0x00, 0x40)\n      0x00\n      swap2\n      pop\n      swap1\n      pop\n      dup1\n      0x00\n      add\n      sload\n      swap1\n      dup1\n      0x01\n      add\n      0x00\n      swap1\n      sload\n      swap1\n      0x0100\n      exp\n      swap1\n      div\n      0xffffffffffffffffffffffffffffffffffffffff\n      and\n      swap1\n      dup1\n      0x02\n      add\n      sload\n      swap1\n      dup1\n      0x03\n      add\n      sload\n      swap1\n      dup1\n      0x04\n      add\n      sload\n      swap1\n      dup1\n      0x05\n      add\n      0x00\n      swap1\n      sload\n      swap1\n      0x0100\n      exp\n      swap1\n      div\n      0xff\n      and\n      swap1\n      pop\n      dup7\n      jump\t// out\n        /* \"AllContracts.sol\":6299:6317  uint public maxBet */\n    tag_48:\n      sload(0x11)\n      dup2\n      jump\t// out\n        /* \"AllContracts.sol\":6274:6293  uint public maxPick */\n    tag_51:\n      sload(0x10)\n      dup2\n      jump\t// out\n        /* \"AllContracts.sol\":14344:14466  function setPayoutAddress(address payable _payoutAddress) public onlyOwner {... */\n    tag_55:\n        /* \"AllContracts.sol\":1141:1153  _msgSender() */\n      tag_152\n        /* \"AllContracts.sol\":1141:1151  _msgSender */\n      tag_153\n        /* \"AllContracts.sol\":1141:1153  _msgSender() */\n      jump\t// in\n    tag_152:\n        /* \"AllContracts.sol\":1131:1153  _owner == _msgSender() */\n      0xffffffffffffffffffffffffffffffffffffffff\n      and\n        /* \"AllContracts.sol\":1131:1137  _owner */\n      0x03\n      0x00\n      swap1\n      sload\n      swap1\n      0x0100\n      exp\n      swap1\n      div\n      0xffffffffffffffffffffffffffffffffffffffff\n      and\n        /* \"AllContracts.sol\":1131:1153  _owner == _msgSender() */\n      0xffffffffffffffffffffffffffffffffffffffff\n      and\n      eq\n        /* \"AllContracts.sol\":1123:1190  require(_owner == _msgSender(), \"Ownable: caller is not the owner\") */\n      tag_154\n      jumpi\n      mload(0x40)\n      0x08c379a000000000000000000000000000000000000000000000000000000000\n      dup2\n      mstore\n      0x04\n      add\n      dup1\n      dup1\n      0x20\n      add\n      dup3\n      dup2\n      sub\n      dup3\n      mstore\n      0x20\n      dup2\n      mstore\n      0x20\n      add\n      dup1\n      0x4f776e61626c653a2063616c6c6572206973206e6f7420746865206f776e6572\n      dup2\n      mstore\n      pop\n      0x20\n      add\n      swap2\n      pop\n      pop\n      mload(0x40)\n      dup1\n      swap2\n      sub\n      swap1\n      revert\n    tag_154:\n        /* \"AllContracts.sol\":14445:14459  _payoutAddress */\n      dup1\n        /* \"AllContracts.sol\":14429:14442  payoutAddress */\n      0x15\n      0x00\n        /* \"AllContracts.sol\":14429:14459  payoutAddress = _payoutAddress */\n      0x0100\n      exp\n      dup2\n      sload\n      dup2\n      0xffffffffffffffffffffffffffffffffffffffff\n      mul\n      not\n      and\n      swap1\n      dup4\n      0xffffffffffffffffffffffffffffffffffffffff\n      and\n      mul\n      or\n      swap1\n      sstore\n      pop\n        /* \"AllContracts.sol\":14344:14466  function setPayoutAddress(address payable _payoutAddress) public onlyOwner {... */\n      pop\n      jump\t// out\n        /* \"AllContracts.sol\":6524:6573  mapping(address => bool) public authorizedAddress */\n    tag_59:\n      mstore(0x20, 0x17)\n      dup1\n      0x00\n      mstore\n      keccak256(0x00, 0x40)\n      0x00\n      swap2\n      pop\n      sload\n      swap1\n      0x0100\n      exp\n      swap1\n      div\n      0xff\n      and\n      dup2\n      jump\t// out\n        /* \"AllContracts.sol\":10819:10896  function getSeed() public view returns(uint256) {... */\n    tag_62:\n        /* \"AllContracts.sol\":10858:10865  uint256 */\n      0x00\n        /* \"AllContracts.sol\":10884:10889  12345 */\n      0x3039\n        /* \"AllContracts.sol\":10877:10889  return 12345 */\n      swap1\n      pop\n        /* \"AllContracts.sol\":10819:10896  function getSeed() public view returns(uint256) {... */\n      swap1\n      jump\t// out\n        /* \"AllContracts.sol\":13308:13472  function getSummary() public view returns(uint, uint, uint, uint) {... */\n    tag_65:\n        /* \"AllContracts.sol\":13350:13354  uint */\n      0x00\n        /* \"AllContracts.sol\":13356:13360  uint */\n      dup1\n        /* \"AllContracts.sol\":13362:13366  uint */\n      0x00\n        /* \"AllContracts.sol\":13368:13372  uint */\n      dup1\n        /* \"AllContracts.sol\":13433:13439  minBet */\n      sload(0x12)\n        /* \"AllContracts.sol\":13441:13447  maxBet */\n      sload(0x11)\n        /* \"AllContracts.sol\":13449:13455  payout */\n      sload(0x16)\n        /* \"AllContracts.sol\":13457:13464  maxPick */\n      sload(0x10)\n        /* \"AllContracts.sol\":13426:13465  return(minBet, maxBet, payout, maxPick) */\n      swap4\n      pop\n      swap4\n      pop\n      swap4\n      pop\n      swap4\n      pop\n        /* \"AllContracts.sol\":13308:13472  function getSummary() public view returns(uint, uint, uint, uint) {... */\n      swap1\n      swap2\n      swap3\n      swap4\n      jump\t// out\n        /* \"AllContracts.sol\":14006:14124  function setVRFCoordinator(address _vrfCoordinator) public onlyOwner {... */\n    tag_69:\n        /* \"AllContracts.sol\":1141:1153  _msgSender() */\n      tag_159\n        /* \"AllContracts.sol\":1141:1151  _msgSender */\n      tag_153\n        /* \"AllContracts.sol\":1141:1153  _msgSender() */\n      jump\t// in\n    tag_159:\n        /* \"AllContracts.sol\":1131:1153  _owner == _msgSender() */\n      0xffffffffffffffffffffffffffffffffffffffff\n      and\n        /* \"AllContracts.sol\":1131:1137  _owner */\n      0x03\n      0x00\n      swap1\n      sload\n      swap1\n      0x0100\n      exp\n      swap1\n      div\n      0xffffffffffffffffffffffffffffffffffffffff\n      and\n        /* \"AllContracts.sol\":1131:1153  _owner == _msgSender() */\n      0xffffffffffffffffffffffffffffffffffffffff\n      and\n      eq\n        /* \"AllContracts.sol\":1123:1190  require(_owner == _msgSender(), \"Ownable: caller is not the owner\") */\n      tag_160\n      jumpi\n      mload(0x40)\n      0x08c379a000000000000000000000000000000000000000000000000000000000\n      dup2\n      mstore\n      0x04\n      add\n      dup1\n      dup1\n      0x20\n      add\n      dup3\n      dup2\n      sub\n      dup3\n      mstore\n      0x20\n      dup2\n      mstore\n      0x20\n      add\n      dup1\n      0x4f776e61626c653a2063616c6c6572206973206e6f7420746865206f776e6572\n      dup2\n      mstore\n      pop\n      0x20\n      add\n      swap2\n      pop\n      pop\n      mload(0x40)\n      dup1\n      swap2\n      sub\n      swap1\n      revert\n    tag_160:\n        /* \"AllContracts.sol\":14102:14117  _vrfCoordinator */\n      dup1\n        /* \"AllContracts.sol\":14085:14099  vrfCoordinator */\n      0x01\n      0x00\n        /* \"AllContracts.sol\":14085:14117  vrfCoordinator = _vrfCoordinator */\n      0x0100\n      exp\n      dup2\n      sload\n      dup2\n      0xffffffffffffffffffffffffffffffffffffffff\n      mul\n      not\n      and\n      swap1\n      dup4\n      0xffffffffffffffffffffffffffffffffffffffff\n      and\n      mul\n      or\n      swap1\n      sstore\n      pop\n        /* \"AllContracts.sol\":14006:14124  function setVRFCoordinator(address _vrfCoordinator) public onlyOwner {... */\n      pop\n      jump\t// out\n        /* \"AllContracts.sol\":7832:7936  function getLinkBalance() public view returns(uint){... */\n    tag_72:\n        /* \"AllContracts.sol\":7878:7882  uint */\n      0x00\n        /* \"AllContracts.sol\":7900:7904  LINK */\n      dup1\n      0x00\n      swap1\n      sload\n      swap1\n      0x0100\n      exp\n      swap1\n      div\n      0xffffffffffffffffffffffffffffffffffffffff\n      and\n        /* \"AllContracts.sol\":7900:7914  LINK.balanceOf */\n      0xffffffffffffffffffffffffffffffffffffffff\n      and\n      0x70a08231\n        /* \"AllContracts.sol\":7923:7927  this */\n      address\n        /* \"AllContracts.sol\":7900:7929  LINK.balanceOf(address(this)) */\n      mload(0x40)\n      dup3\n      0xffffffff\n      and\n      0xe0\n      shl\n      dup2\n      mstore\n      0x04\n      add\n      dup1\n      dup3\n      0xffffffffffffffffffffffffffffffffffffffff\n      and\n      0xffffffffffffffffffffffffffffffffffffffff\n      and\n      dup2\n      mstore\n      0x20\n      add\n      swap2\n      pop\n      pop\n      0x20\n      mload(0x40)\n      dup1\n      dup4\n      sub\n      dup2\n      dup7\n      dup1\n      extcodesize\n      iszero\n        /* \"--CODEGEN--\":8:17   */\n      dup1\n        /* \"--CODEGEN--\":5:7   */\n      iszero\n      tag_163\n      jumpi\n        /* \"--CODEGEN--\":30:31   */\n      0x00\n        /* \"--CODEGEN--\":27:28   */\n      dup1\n        /* \"--CODEGEN--\":20:32   */\n      revert\n        /* \"--CODEGEN--\":5:7   */\n    tag_163:\n        /* \"AllContracts.sol\":7900:7929  LINK.balanceOf(address(this)) */\n      pop\n      gas\n      staticcall\n      iszero\n        /* \"--CODEGEN--\":8:17   */\n      dup1\n        /* \"--CODEGEN--\":5:7   */\n      iszero\n      tag_165\n      jumpi\n        /* \"--CODEGEN--\":45:61   */\n      returndatasize\n        /* \"--CODEGEN--\":42:43   */\n      0x00\n        /* \"--CODEGEN--\":39:40   */\n      dup1\n        /* \"--CODEGEN--\":24:62   */\n      returndatacopy\n        /* \"--CODEGEN--\":77:93   */\n      returndatasize\n        /* \"--CODEGEN--\":74:75   */\n      0x00\n        /* \"--CODEGEN--\":67:94   */\n      revert\n        /* \"--CODEGEN--\":5:7   */\n    tag_165:\n        /* \"AllContracts.sol\":7900:7929  LINK.balanceOf(address(this)) */\n      pop\n      pop\n      pop\n      pop\n      mload(0x40)\n      returndatasize\n        /* \"--CODEGEN--\":13:15   */\n      0x20\n        /* \"--CODEGEN--\":8:11   */\n      dup2\n        /* \"--CODEGEN--\":5:16   */\n      lt\n        /* \"--CODEGEN--\":2:4   */\n      iszero\n      tag_166\n      jumpi\n        /* \"--CODEGEN--\":29:30   */\n      0x00\n        /* \"--CODEGEN--\":26:27   */\n      dup1\n        /* \"--CODEGEN--\":19:31   */\n      revert\n        /* \"--CODEGEN--\":2:4   */\n    tag_166:\n        /* \"AllContracts.sol\":7900:7929  LINK.balanceOf(address(this)) */\n      dup2\n      add\n      swap1\n      dup1\n      dup1\n      mload\n      swap1\n      0x20\n      add\n      swap1\n      swap3\n      swap2\n      swap1\n      pop\n      pop\n      pop\n        /* \"AllContracts.sol\":7893:7929  return LINK.balanceOf(address(this)) */\n      swap1\n      pop\n        /* \"AllContracts.sol\":7832:7936  function getLinkBalance() public view returns(uint){... */\n      swap1\n      jump\t// out\n        /* \"AllContracts.sol\":9860:10374  function gasFreeBetFor(address payable player, uint pick) public payable {... */\n    tag_75:\n        /* \"AllContracts.sol\":10096:10112  uint256 startGas */\n      0x00\n        /* \"AllContracts.sol\":10115:10124  gasleft() */\n      gas\n        /* \"AllContracts.sol\":10096:10124  uint256 startGas = gasleft() */\n      swap1\n      pop\n        /* \"AllContracts.sol\":10142:10159  gasFreeBetAllowed */\n      0x18\n        /* \"AllContracts.sol\":10142:10167  gasFreeBetAllowed[player] */\n      0x00\n        /* \"AllContracts.sol\":10160:10166  player */\n      dup5\n        /* \"AllContracts.sol\":10142:10167  gasFreeBetAllowed[player] */\n      0xffffffffffffffffffffffffffffffffffffffff\n      and\n      0xffffffffffffffffffffffffffffffffffffffff\n      and\n      dup2\n      mstore\n      0x20\n      add\n      swap1\n      dup2\n      mstore\n      0x20\n      add\n      0x00\n      keccak256\n      0x00\n      swap1\n      sload\n      swap1\n      0x0100\n      exp\n      swap1\n      div\n      0xff\n      and\n        /* \"AllContracts.sol\":10134:10196  require(gasFreeBetAllowed[player], \"gas free bet not allowed\") */\n      tag_168\n      jumpi\n      mload(0x40)\n      0x08c379a000000000000000000000000000000000000000000000000000000000\n      dup2\n      mstore\n      0x04\n      add\n      dup1\n      dup1\n      0x20\n      add\n      dup3\n      dup2\n      sub\n      dup3\n      mstore\n      0x18\n      dup2\n      mstore\n      0x20\n      add\n      dup1\n      0x676173206672656520626574206e6f7420616c6c6f7765640000000000000000\n      dup2\n      mstore\n      pop\n      0x20\n      add\n      swap2\n      pop\n      pop\n      mload(0x40)\n      dup1\n      swap2\n      sub\n      swap1\n      revert\n    tag_168:\n        /* \"AllContracts.sol\":10206:10230  safeBetFor(player, pick) */\n      tag_169\n        /* \"AllContracts.sol\":10217:10223  player */\n      dup4\n        /* \"AllContracts.sol\":10225:10229  pick */\n      dup4\n        /* \"AllContracts.sol\":10206:10216  safeBetFor */\n      tag_138\n        /* \"AllContracts.sol\":10206:10230  safeBetFor(player, pick) */\n      jump\t// in\n    tag_169:\n        /* \"AllContracts.sol\":10240:10255  uint256 gasUsed */\n      0x00\n        /* \"AllContracts.sol\":10269:10278  gasleft() */\n      gas\n        /* \"AllContracts.sol\":10258:10266  startGas */\n      dup3\n        /* \"AllContracts.sol\":10258:10278  startGas - gasleft() */\n      sub\n        /* \"AllContracts.sol\":10240:10278  uint256 gasUsed = startGas - gasleft() */\n      swap1\n      pop\n        /* \"AllContracts.sol\":10288:10301  uint gasPrice */\n      0x00\n        /* \"AllContracts.sol\":10304:10315  tx.gasprice */\n      gasprice\n        /* \"AllContracts.sol\":10288:10315  uint gasPrice = tx.gasprice */\n      swap1\n      pop\n        /* \"AllContracts.sol\":10325:10335  msg.sender */\n      caller\n        /* \"AllContracts.sol\":10325:10344  msg.sender.transfer */\n      0xffffffffffffffffffffffffffffffffffffffff\n      and\n        /* \"AllContracts.sol\":10325:10367  msg.sender.transfer(gasUsed.mul(gasPrice)) */\n      0x08fc\n        /* \"AllContracts.sol\":10345:10366  gasUsed.mul(gasPrice) */\n      tag_170\n        /* \"AllContracts.sol\":10357:10365  gasPrice */\n      dup4\n        /* \"AllContracts.sol\":10345:10352  gasUsed */\n      dup6\n        /* \"AllContracts.sol\":10345:10356  gasUsed.mul */\n      tag_171\n      swap1\n        /* \"AllContracts.sol\":10345:10366  gasUsed.mul(gasPrice) */\n      swap2\n      swap1\n      0xffffffff\n      and\n      jump\t// in\n    tag_170:\n        /* \"AllContracts.sol\":10325:10367  msg.sender.transfer(gasUsed.mul(gasPrice)) */\n      swap1\n      dup2\n      iszero\n      mul\n      swap1\n      mload(0x40)\n      0x00\n      mload(0x40)\n      dup1\n      dup4\n      sub\n      dup2\n      dup6\n      dup9\n      dup9\n      call\n      swap4\n      pop\n      pop\n      pop\n      pop\n      iszero\n        /* \"--CODEGEN--\":8:17   */\n      dup1\n        /* \"--CODEGEN--\":5:7   */\n      iszero\n      tag_173\n      jumpi\n        /* \"--CODEGEN--\":45:61   */\n      returndatasize\n        /* \"--CODEGEN--\":42:43   */\n      0x00\n        /* \"--CODEGEN--\":39:40   */\n      dup1\n        /* \"--CODEGEN--\":24:62   */\n      returndatacopy\n        /* \"--CODEGEN--\":77:93   */\n      returndatasize\n        /* \"--CODEGEN--\":74:75   */\n      0x00\n        /* \"--CODEGEN--\":67:94   */\n      revert\n        /* \"--CODEGEN--\":5:7   */\n    tag_173:\n        /* \"AllContracts.sol\":10325:10367  msg.sender.transfer(gasUsed.mul(gasPrice)) */\n      pop\n        /* \"AllContracts.sol\":9860:10374  function gasFreeBetFor(address payable player, uint pick) public payable {... */\n      pop\n      pop\n      pop\n      pop\n      pop\n      jump\t// out\n        /* \"AllContracts.sol\":6410:6446  address payable public payoutAddress */\n    tag_78:\n      0x15\n      0x00\n      swap1\n      sload\n      swap1\n      0x0100\n      exp\n      swap1\n      div\n      0xffffffffffffffffffffffffffffffffffffffff\n      and\n      dup2\n      jump\t// out\n        /* \"AllContracts.sol\":6452:6470  uint public payout */\n    tag_81:\n      sload(0x16)\n      dup2\n      jump\t// out\n        /* \"AllContracts.sol\":1550:1695  function renounceOwnership() public virtual onlyOwner {... */\n    tag_84:\n        /* \"AllContracts.sol\":1141:1153  _msgSender() */\n      tag_175\n        /* \"AllContracts.sol\":1141:1151  _msgSender */\n      tag_153\n        /* \"AllContracts.sol\":1141:1153  _msgSender() */\n      jump\t// in\n    tag_175:\n        /* \"AllContracts.sol\":1131:1153  _owner == _msgSender() */\n      0xffffffffffffffffffffffffffffffffffffffff\n      and\n        /* \"AllContracts.sol\":1131:1137  _owner */\n      0x03\n      0x00\n      swap1\n      sload\n      swap1\n      0x0100\n      exp\n      swap1\n      div\n      0xffffffffffffffffffffffffffffffffffffffff\n      and\n        /* \"AllContracts.sol\":1131:1153  _owner == _msgSender() */\n      0xffffffffffffffffffffffffffffffffffffffff\n      and\n      eq\n        /* \"AllContracts.sol\":1123:1190  require(_owner == _msgSender(), \"Ownable: caller is not the owner\") */\n      tag_176\n      jumpi\n      mload(0x40)\n      0x08c379a000000000000000000000000000000000000000000000000000000000\n      dup2\n      mstore\n      0x04\n      add\n      dup1\n      dup1\n      0x20\n      add\n      dup3\n      dup2\n      sub\n      dup3\n      mstore\n      0x20\n      dup2\n      mstore\n      0x20\n      add\n      dup1\n      0x4f776e61626c653a2063616c6c6572206973206e6f7420746865206f776e6572\n      dup2\n      mstore\n      pop\n      0x20\n      add\n      swap2\n      pop\n      pop\n      mload(0x40)\n      dup1\n      swap2\n      sub\n      swap1\n      revert\n    tag_176:\n        /* \"AllContracts.sol\":1656:1657  0 */\n      0x00\n        /* \"AllContracts.sol\":1619:1659  OwnershipTransferred(_owner, address(0)) */\n      0xffffffffffffffffffffffffffffffffffffffff\n      and\n        /* \"AllContracts.sol\":1640:1646  _owner */\n      0x03\n      0x00\n      swap1\n      sload\n      swap1\n      0x0100\n      exp\n      swap1\n      div\n      0xffffffffffffffffffffffffffffffffffffffff\n      and\n        /* \"AllContracts.sol\":1619:1659  OwnershipTransferred(_owner, address(0)) */\n      0xffffffffffffffffffffffffffffffffffffffff\n      and\n      0x8be0079c531659141344cd1fd0a4f28419497f9722a3daafe3b4186f6b6457e0\n      mload(0x40)\n      mload(0x40)\n      dup1\n      swap2\n      sub\n      swap1\n      log3\n        /* \"AllContracts.sol\":1686:1687  0 */\n      0x00\n        /* \"AllContracts.sol\":1669:1675  _owner */\n      0x03\n      0x00\n        /* \"AllContracts.sol\":1669:1688  _owner = address(0) */\n      0x0100\n      exp\n      dup2\n      sload\n      dup2\n      0xffffffffffffffffffffffffffffffffffffffff\n      mul\n      not\n      and\n      swap1\n      dup4\n      0xffffffffffffffffffffffffffffffffffffffff\n      and\n      mul\n      or\n      swap1\n      sstore\n      pop\n        /* \"AllContracts.sol\":1550:1695  function renounceOwnership() public virtual onlyOwner {... */\n      jump\t// out\n        /* \"AllContracts.sol\":14677:14782  function withdrawLink(uint amount) public onlyOwner {... */\n    tag_88:\n        /* \"AllContracts.sol\":1141:1153  _msgSender() */\n      tag_179\n        /* \"AllContracts.sol\":1141:1151  _msgSender */\n      tag_153\n        /* \"AllContracts.sol\":1141:1153  _msgSender() */\n      jump\t// in\n    tag_179:\n        /* \"AllContracts.sol\":1131:1153  _owner == _msgSender() */\n      0xffffffffffffffffffffffffffffffffffffffff\n      and\n        /* \"AllContracts.sol\":1131:1137  _owner */\n      0x03\n      0x00\n      swap1\n      sload\n      swap1\n      0x0100\n      exp\n      swap1\n      div\n      0xffffffffffffffffffffffffffffffffffffffff\n      and\n        /* \"AllContracts.sol\":1131:1153  _owner == _msgSender() */\n      0xffffffffffffffffffffffffffffffffffffffff\n      and\n      eq\n        /* \"AllContracts.sol\":1123:1190  require(_owner == _msgSender(), \"Ownable: caller is not the owner\") */\n      tag_180\n      jumpi\n      mload(0x40)\n      0x08c379a000000000000000000000000000000000000000000000000000000000\n      dup2\n      mstore\n      0x04\n      add\n      dup1\n      dup1\n      0x20\n      add\n      dup3\n      dup2\n      sub\n      dup3\n      mstore\n      0x20\n      dup2\n      mstore\n      0x20\n      add\n      dup1\n      0x4f776e61626c653a2063616c6c6572206973206e6f7420746865206f776e6572\n      dup2\n      mstore\n      pop\n      0x20\n      add\n      swap2\n      pop\n      pop\n      mload(0x40)\n      dup1\n      swap2\n      sub\n      swap1\n      revert\n    tag_180:\n        /* \"AllContracts.sol\":14739:14743  LINK */\n      0x00\n      dup1\n      swap1\n      sload\n      swap1\n      0x0100\n      exp\n      swap1\n      div\n      0xffffffffffffffffffffffffffffffffffffffff\n      and\n        /* \"AllContracts.sol\":14739:14752  LINK.transfer */\n      0xffffffffffffffffffffffffffffffffffffffff\n      and\n      0xa9059cbb\n        /* \"AllContracts.sol\":14753:14766  payoutAddress */\n      0x15\n      0x00\n      swap1\n      sload\n      swap1\n      0x0100\n      exp\n      swap1\n      div\n      0xffffffffffffffffffffffffffffffffffffffff\n      and\n        /* \"AllContracts.sol\":14768:14774  amount */\n      dup4\n        /* \"AllContracts.sol\":14739:14775  LINK.transfer(payoutAddress, amount) */\n      mload(0x40)\n      dup4\n      0xffffffff\n      and\n      0xe0\n      shl\n      dup2\n      mstore\n      0x04\n      add\n      dup1\n      dup4\n      0xffffffffffffffffffffffffffffffffffffffff\n      and\n      0xffffffffffffffffffffffffffffffffffffffff\n      and\n      dup2\n      mstore\n      0x20\n      add\n      dup3\n      dup2\n      mstore\n      0x20\n      add\n      swap3\n      pop\n      pop\n      pop\n      0x20\n      mload(0x40)\n      dup1\n      dup4\n      sub\n      dup2\n      0x00\n      dup8\n      dup1\n      extcodesize\n      iszero\n        /* \"--CODEGEN--\":8:17   */\n      dup1\n        /* \"--CODEGEN--\":5:7   */\n      iszero\n      tag_182\n      jumpi\n        /* \"--CODEGEN--\":30:31   */\n      0x00\n        /* \"--CODEGEN--\":27:28   */\n      dup1\n        /* \"--CODEGEN--\":20:32   */\n      revert\n        /* \"--CODEGEN--\":5:7   */\n    tag_182:\n        /* \"AllContracts.sol\":14739:14775  LINK.transfer(payoutAddress, amount) */\n      pop\n      gas\n      call\n      iszero\n        /* \"--CODEGEN--\":8:17   */\n      dup1\n        /* \"--CODEGEN--\":5:7   */\n      iszero\n      tag_184\n      jumpi\n        /* \"--CODEGEN--\":45:61   */\n      returndatasize\n        /* \"--CODEGEN--\":42:43   */\n      0x00\n        /* \"--CODEGEN--\":39:40   */\n      dup1\n        /* \"--CODEGEN--\":24:62   */\n      returndatacopy\n        /* \"--CODEGEN--\":77:93   */\n      returndatasize\n        /* \"--CODEGEN--\":74:75   */\n      0x00\n        /* \"--CODEGEN--\":67:94   */\n      revert\n        /* \"--CODEGEN--\":5:7   */\n    tag_184:\n        /* \"AllContracts.sol\":14739:14775  LINK.transfer(payoutAddress, amount) */\n      pop\n      pop\n      pop\n      pop\n      mload(0x40)\n      returndatasize\n        /* \"--CODEGEN--\":13:15   */\n      0x20\n        /* \"--CODEGEN--\":8:11   */\n      dup2\n        /* \"--CODEGEN--\":5:16   */\n      lt\n        /* \"--CODEGEN--\":2:4   */\n      iszero\n      tag_185\n      jumpi\n        /* \"--CODEGEN--\":29:30   */\n      0x00\n        /* \"--CODEGEN--\":26:27   */\n      dup1\n        /* \"--CODEGEN--\":19:31   */\n      revert\n        /* \"--CODEGEN--\":2:4   */\n    tag_185:\n        /* \"AllContracts.sol\":14739:14775  LINK.transfer(payoutAddress, amount) */\n      dup2\n      add\n      swap1\n      dup1\n      dup1\n      mload\n      swap1\n      0x20\n      add\n      swap1\n      swap3\n      swap2\n      swap1\n      pop\n      pop\n      pop\n      pop\n        /* \"AllContracts.sol\":14677:14782  function withdrawLink(uint amount) public onlyOwner {... */\n      pop\n      jump\t// out\n        /* \"AllContracts.sol\":927:1004  function owner() public view returns (address) {... */\n    tag_91:\n        /* \"AllContracts.sol\":965:972  address */\n      0x00\n        /* \"AllContracts.sol\":991:997  _owner */\n      0x03\n      0x00\n      swap1\n      sload\n      swap1\n      0x0100\n      exp\n      swap1\n      div\n      0xffffffffffffffffffffffffffffffffffffffff\n      and\n        /* \"AllContracts.sol\":984:997  return _owner */\n      swap1\n      pop\n        /* \"AllContracts.sol\":927:1004  function owner() public view returns (address) {... */\n      swap1\n      jump\t// out\n        /* \"AllContracts.sol\":5522:5729  function rawFulfillRandomness(bytes32 requestId, uint256 randomness) external {... */\n    tag_95:\n        /* \"AllContracts.sol\":5628:5642  vrfCoordinator */\n      0x01\n      0x00\n      swap1\n      sload\n      swap1\n      0x0100\n      exp\n      swap1\n      div\n      0xffffffffffffffffffffffffffffffffffffffff\n      and\n        /* \"AllContracts.sol\":5614:5642  msg.sender == vrfCoordinator */\n      0xffffffffffffffffffffffffffffffffffffffff\n      and\n        /* \"AllContracts.sol\":5614:5624  msg.sender */\n      caller\n        /* \"AllContracts.sol\":5614:5642  msg.sender == vrfCoordinator */\n      0xffffffffffffffffffffffffffffffffffffffff\n      and\n      eq\n        /* \"AllContracts.sol\":5606:5678  require(msg.sender == vrfCoordinator, \"Only VRFCoordinator can fulfill\") */\n      tag_188\n      jumpi\n      mload(0x40)\n      0x08c379a000000000000000000000000000000000000000000000000000000000\n      dup2\n      mstore\n      0x04\n      add\n      dup1\n      dup1\n      0x20\n      add\n      dup3\n      dup2\n      sub\n      dup3\n      mstore\n      0x1f\n      dup2\n      mstore\n      0x20\n      add\n      dup1\n      0x4f6e6c7920565246436f6f7264696e61746f722063616e2066756c66696c6c00\n      dup2\n      mstore\n      pop\n      0x20\n      add\n      swap2\n      pop\n      pop\n      mload(0x40)\n      dup1\n      swap2\n      sub\n      swap1\n      revert\n    tag_188:\n        /* \"AllContracts.sol\":5684:5724  fulfillRandomness(requestId, randomness) */\n      tag_189\n        /* \"AllContracts.sol\":5702:5711  requestId */\n      dup3\n        /* \"AllContracts.sol\":5713:5723  randomness */\n      dup3\n        /* \"AllContracts.sol\":5684:5701  fulfillRandomness */\n      tag_190\n        /* \"AllContracts.sol\":5684:5724  fulfillRandomness(requestId, randomness) */\n      jump\t// in\n    tag_189:\n        /* \"AllContracts.sol\":5522:5729  function rawFulfillRandomness(bytes32 requestId, uint256 randomness) external {... */\n      pop\n      pop\n      jump\t// out\n        /* \"AllContracts.sol\":13506:13828  function allowGasFreeBet(address[] memory userAddresses, bool allowed) public {... */\n    tag_102:\n        /* \"AllContracts.sol\":13602:13619  authorizedAddress */\n      0x17\n        /* \"AllContracts.sol\":13602:13631  authorizedAddress[msg.sender] */\n      0x00\n        /* \"AllContracts.sol\":13620:13630  msg.sender */\n      caller\n        /* \"AllContracts.sol\":13602:13631  authorizedAddress[msg.sender] */\n      0xffffffffffffffffffffffffffffffffffffffff\n      and\n      0xffffffffffffffffffffffffffffffffffffffff\n      and\n      dup2\n      mstore\n      0x20\n      add\n      swap1\n      dup2\n      mstore\n      0x20\n      add\n      0x00\n      keccak256\n      0x00\n      swap1\n      sload\n      swap1\n      0x0100\n      exp\n      swap1\n      div\n      0xff\n      and\n        /* \"AllContracts.sol\":13602:13656  authorizedAddress[msg.sender] || owner() == msg.sender */\n      dup1\n      tag_192\n      jumpi\n      pop\n        /* \"AllContracts.sol\":13646:13656  msg.sender */\n      caller\n        /* \"AllContracts.sol\":13635:13656  owner() == msg.sender */\n      0xffffffffffffffffffffffffffffffffffffffff\n      and\n        /* \"AllContracts.sol\":13635:13642  owner() */\n      tag_193\n        /* \"AllContracts.sol\":13635:13640  owner */\n      tag_91\n        /* \"AllContracts.sol\":13635:13642  owner() */\n      jump\t// in\n    tag_193:\n        /* \"AllContracts.sol\":13635:13656  owner() == msg.sender */\n      0xffffffffffffffffffffffffffffffffffffffff\n      and\n      eq\n        /* \"AllContracts.sol\":13602:13656  authorizedAddress[msg.sender] || owner() == msg.sender */\n    tag_192:\n        /* \"AllContracts.sol\":13594:13695  require(authorizedAddress[msg.sender] || owner() == msg.sender, \"Not authorized to set gas free bet\") */\n      tag_194\n      jumpi\n      mload(0x40)\n      0x08c379a000000000000000000000000000000000000000000000000000000000\n      dup2\n      mstore\n      0x04\n      add\n      dup1\n      dup1\n      0x20\n      add\n      dup3\n      dup2\n      sub\n      dup3\n      mstore\n      0x22\n      dup2\n      mstore\n      0x20\n      add\n      dup1\n      data_6b4e45b8df386b2665be182a0a03416c876dfad9e211d02154ed125021f83b2a\n      0x22\n      swap2\n      codecopy\n      0x40\n      add\n      swap2\n      pop\n      pop\n      mload(0x40)\n      dup1\n      swap2\n      sub\n      swap1\n      revert\n    tag_194:\n        /* \"AllContracts.sol\":13710:13716  uint i */\n      0x00\n        /* \"AllContracts.sol\":13719:13720  0 */\n      dup1\n        /* \"AllContracts.sol\":13710:13720  uint i = 0 */\n      swap1\n      pop\n        /* \"AllContracts.sol\":13705:13822  for (uint i = 0; i < userAddresses.length; i++){... */\n    tag_195:\n        /* \"AllContracts.sol\":13726:13739  userAddresses */\n      dup3\n        /* \"AllContracts.sol\":13726:13746  userAddresses.length */\n      mload\n        /* \"AllContracts.sol\":13722:13723  i */\n      dup2\n        /* \"AllContracts.sol\":13722:13746  i < userAddresses.length */\n      lt\n        /* \"AllContracts.sol\":13705:13822  for (uint i = 0; i < userAddresses.length; i++){... */\n      iszero\n      tag_196\n      jumpi\n        /* \"AllContracts.sol\":13804:13811  allowed */\n      dup2\n        /* \"AllContracts.sol\":13766:13783  gasFreeBetAllowed */\n      0x18\n        /* \"AllContracts.sol\":13766:13801  gasFreeBetAllowed[userAddresses[i]] */\n      0x00\n        /* \"AllContracts.sol\":13784:13797  userAddresses */\n      dup6\n        /* \"AllContracts.sol\":13798:13799  i */\n      dup5\n        /* \"AllContracts.sol\":13784:13800  userAddresses[i] */\n      dup2\n      mload\n      dup2\n      lt\n      tag_198\n      jumpi\n      invalid\n    tag_198:\n      0x20\n      mul\n      0x20\n      add\n      add\n      mload\n        /* \"AllContracts.sol\":13766:13801  gasFreeBetAllowed[userAddresses[i]] */\n      0xffffffffffffffffffffffffffffffffffffffff\n      and\n      0xffffffffffffffffffffffffffffffffffffffff\n      and\n      dup2\n      mstore\n      0x20\n      add\n      swap1\n      dup2\n      mstore\n      0x20\n      add\n      0x00\n      keccak256\n      0x00\n        /* \"AllContracts.sol\":13766:13811  gasFreeBetAllowed[userAddresses[i]] = allowed */\n      0x0100\n      exp\n      dup2\n      sload\n      dup2\n      0xff\n      mul\n      not\n      and\n      swap1\n      dup4\n      iszero\n      iszero\n      mul\n      or\n      swap1\n      sstore\n      pop\n        /* \"AllContracts.sol\":13748:13751  i++ */\n      dup1\n      dup1\n      0x01\n      add\n      swap2\n      pop\n      pop\n        /* \"AllContracts.sol\":13705:13822  for (uint i = 0; i < userAddresses.length; i++){... */\n      jump(tag_195)\n    tag_196:\n      pop\n        /* \"AllContracts.sol\":13506:13828  function allowGasFreeBet(address[] memory userAddresses, bool allowed) public {... */\n      pop\n      pop\n      jump\t// out\n        /* \"AllContracts.sol\":6323:6341  uint public minBet */\n    tag_105:\n      sload(0x12)\n      dup2\n      jump\t// out\n        /* \"AllContracts.sol\":14130:14220  function setKeyHash(bytes32 _keyHash) public onlyOwner {... */\n    tag_109:\n        /* \"AllContracts.sol\":1141:1153  _msgSender() */\n      tag_200\n        /* \"AllContracts.sol\":1141:1151  _msgSender */\n      tag_153\n        /* \"AllContracts.sol\":1141:1153  _msgSender() */\n      jump\t// in\n    tag_200:\n        /* \"AllContracts.sol\":1131:1153  _owner == _msgSender() */\n      0xffffffffffffffffffffffffffffffffffffffff\n      and\n        /* \"AllContracts.sol\":1131:1137  _owner */\n      0x03\n      0x00\n      swap1\n      sload\n      swap1\n      0x0100\n      exp\n      swap1\n      div\n      0xffffffffffffffffffffffffffffffffffffffff\n      and\n        /* \"AllContracts.sol\":1131:1153  _owner == _msgSender() */\n      0xffffffffffffffffffffffffffffffffffffffff\n      and\n      eq\n        /* \"AllContracts.sol\":1123:1190  require(_owner == _msgSender(), \"Ownable: caller is not the owner\") */\n      tag_201\n      jumpi\n      mload(0x40)\n      0x08c379a000000000000000000000000000000000000000000000000000000000\n      dup2\n      mstore\n      0x04\n      add\n      dup1\n      dup1\n      0x20\n      add\n      dup3\n      dup2\n      sub\n      dup3\n      mstore\n      0x20\n      dup2\n      mstore\n      0x20\n      add\n      dup1\n      0x4f776e61626c653a2063616c6c6572206973206e6f7420746865206f776e6572\n      dup2\n      mstore\n      pop\n      0x20\n      add\n      swap2\n      pop\n      pop\n      mload(0x40)\n      dup1\n      swap2\n      sub\n      swap1\n      revert\n    tag_201:\n        /* \"AllContracts.sol\":14205:14213  _keyHash */\n      dup1\n        /* \"AllContracts.sol\":14195:14202  keyHash */\n      0x04\n        /* \"AllContracts.sol\":14195:14213  keyHash = _keyHash */\n      dup2\n      swap1\n      sstore\n      pop\n        /* \"AllContracts.sol\":14130:14220  function setKeyHash(bytes32 _keyHash) public onlyOwner {... */\n      pop\n      jump\t// out\n        /* \"AllContracts.sol\":5307:5374  mapping(bytes32 /* keyHash */ => uint256 /* nonce */) public nonces */\n    tag_113:\n      mstore(0x20, 0x02)\n      dup1\n      0x00\n      mstore\n      keccak256(0x00, 0x40)\n      0x00\n      swap2\n      pop\n      swap1\n      pop\n      sload\n      dup2\n      jump\t// out\n        /* \"AllContracts.sol\":14226:14338  function setLINK(address _linkAddress) public onlyOwner {... */\n    tag_117:\n        /* \"AllContracts.sol\":1141:1153  _msgSender() */\n      tag_204\n        /* \"AllContracts.sol\":1141:1151  _msgSender */\n      tag_153\n        /* \"AllContracts.sol\":1141:1153  _msgSender() */\n      jump\t// in\n    tag_204:\n        /* \"AllContracts.sol\":1131:1153  _owner == _msgSender() */\n      0xffffffffffffffffffffffffffffffffffffffff\n      and\n        /* \"AllContracts.sol\":1131:1137  _owner */\n      0x03\n      0x00\n      swap1\n      sload\n      swap1\n      0x0100\n      exp\n      swap1\n      div\n      0xffffffffffffffffffffffffffffffffffffffff\n      and\n        /* \"AllContracts.sol\":1131:1153  _owner == _msgSender() */\n      0xffffffffffffffffffffffffffffffffffffffff\n      and\n      eq\n        /* \"AllContracts.sol\":1123:1190  require(_owner == _msgSender(), \"Ownable: caller is not the owner\") */\n      tag_205\n      jumpi\n      mload(0x40)\n      0x08c379a000000000000000000000000000000000000000000000000000000000\n      dup2\n      mstore\n      0x04\n      add\n      dup1\n      dup1\n      0x20\n      add\n      dup3\n      dup2\n      sub\n      dup3\n      mstore\n      0x20\n      dup2\n      mstore\n      0x20\n      add\n      dup1\n      0x4f776e61626c653a2063616c6c6572206973206e6f7420746865206f776e6572\n      dup2\n      mstore\n      pop\n      0x20\n      add\n      swap2\n      pop\n      pop\n      mload(0x40)\n      dup1\n      swap2\n      sub\n      swap1\n      revert\n    tag_205:\n        /* \"AllContracts.sol\":14318:14330  _linkAddress */\n      dup1\n        /* \"AllContracts.sol\":14292:14296  LINK */\n      0x00\n      dup1\n        /* \"AllContracts.sol\":14292:14331  LINK = LinkTokenInterface(_linkAddress) */\n      0x0100\n      exp\n      dup2\n      sload\n      dup2\n      0xffffffffffffffffffffffffffffffffffffffff\n      mul\n      not\n      and\n      swap1\n      dup4\n      0xffffffffffffffffffffffffffffffffffffffff\n      and\n      mul\n      or\n      swap1\n      sstore\n      pop\n        /* \"AllContracts.sol\":14226:14338  function setLINK(address _linkAddress) public onlyOwner {... */\n      pop\n      jump\t// out\n        /* \"AllContracts.sol\":13858:14000  function setAuthorizedUser(address userAddress, bool authorized) public onlyOwner {... */\n    tag_121:\n        /* \"AllContracts.sol\":1141:1153  _msgSender() */\n      tag_208\n        /* \"AllContracts.sol\":1141:1151  _msgSender */\n      tag_153\n        /* \"AllContracts.sol\":1141:1153  _msgSender() */\n      jump\t// in\n    tag_208:\n        /* \"AllContracts.sol\":1131:1153  _owner == _msgSender() */\n      0xffffffffffffffffffffffffffffffffffffffff\n      and\n        /* \"AllContracts.sol\":1131:1137  _owner */\n      0x03\n      0x00\n      swap1\n      sload\n      swap1\n      0x0100\n      exp\n      swap1\n      div\n      0xffffffffffffffffffffffffffffffffffffffff\n      and\n        /* \"AllContracts.sol\":1131:1153  _owner == _msgSender() */\n      0xffffffffffffffffffffffffffffffffffffffff\n      and\n      eq\n        /* \"AllContracts.sol\":1123:1190  require(_owner == _msgSender(), \"Ownable: caller is not the owner\") */\n      tag_209\n      jumpi\n      mload(0x40)\n      0x08c379a000000000000000000000000000000000000000000000000000000000\n      dup2\n      mstore\n      0x04\n      add\n      dup1\n      dup1\n      0x20\n      add\n      dup3\n      dup2\n      sub\n      dup3\n      mstore\n      0x20\n      dup2\n      mstore\n      0x20\n      add\n      dup1\n      0x4f776e61626c653a2063616c6c6572206973206e6f7420746865206f776e6572\n      dup2\n      mstore\n      pop\n      0x20\n      add\n      swap2\n      pop\n      pop\n      mload(0x40)\n      dup1\n      swap2\n      sub\n      swap1\n      revert\n    tag_209:\n        /* \"AllContracts.sol\":13983:13993  authorized */\n      dup1\n        /* \"AllContracts.sol\":13950:13967  authorizedAddress */\n      0x17\n        /* \"AllContracts.sol\":13950:13980  authorizedAddress[userAddress] */\n      0x00\n        /* \"AllContracts.sol\":13968:13979  userAddress */\n      dup5\n        /* \"AllContracts.sol\":13950:13980  authorizedAddress[userAddress] */\n      0xffffffffffffffffffffffffffffffffffffffff\n      and\n      0xffffffffffffffffffffffffffffffffffffffff\n      and\n      dup2\n      mstore\n      0x20\n      add\n      swap1\n      dup2\n      mstore\n      0x20\n      add\n      0x00\n      keccak256\n      0x00\n        /* \"AllContracts.sol\":13950:13993  authorizedAddress[userAddress] = authorized */\n      0x0100\n      exp\n      dup2\n      sload\n      dup2\n      0xff\n      mul\n      not\n      and\n      swap1\n      dup4\n      iszero\n      iszero\n      mul\n      or\n      swap1\n      sstore\n      pop\n        /* \"AllContracts.sol\":13858:14000  function setAuthorizedUser(address userAddress, bool authorized) public onlyOwner {... */\n      pop\n      pop\n      jump\t// out\n        /* \"AllContracts.sol\":12839:13302  function requestRefund(uint gameID) public{... */\n    tag_125:\n        /* \"AllContracts.sol\":12891:12905  Game storage g */\n      0x00\n        /* \"AllContracts.sol\":12908:12913  games */\n      0x19\n        /* \"AllContracts.sol\":12908:12921  games[gameID] */\n      0x00\n        /* \"AllContracts.sol\":12914:12920  gameID */\n      dup4\n        /* \"AllContracts.sol\":12908:12921  games[gameID] */\n      dup2\n      mstore\n      0x20\n      add\n      swap1\n      dup2\n      mstore\n      0x20\n      add\n      0x00\n      keccak256\n        /* \"AllContracts.sol\":12891:12921  Game storage g = games[gameID] */\n      swap1\n      pop\n        /* \"AllContracts.sol\":12951:12956  false */\n      0x00\n        /* \"AllContracts.sol\":12939:12956  g.played == false */\n      iszero\n      iszero\n        /* \"AllContracts.sol\":12939:12940  g */\n      dup2\n        /* \"AllContracts.sol\":12939:12947  g.played */\n      0x05\n      add\n      0x00\n      swap1\n      sload\n      swap1\n      0x0100\n      exp\n      swap1\n      div\n      0xff\n      and\n        /* \"AllContracts.sol\":12939:12956  g.played == false */\n      iszero\n      iszero\n      eq\n        /* \"AllContracts.sol\":12931:13003  require(g.played == false, \"Game already complete. No refund possible.\") */\n      tag_212\n      jumpi\n      mload(0x40)\n      0x08c379a000000000000000000000000000000000000000000000000000000000\n      dup2\n      mstore\n      0x04\n      add\n      dup1\n      dup1\n      0x20\n      add\n      dup3\n      dup2\n      sub\n      dup3\n      mstore\n      0x2a\n      dup2\n      mstore\n      0x20\n      add\n      dup1\n      data_c34c85fa0e0680ac47dc2c21fdf93b1adcc71d9a1a3b3b1788b881c3f4f390ac\n      0x2a\n      swap2\n      codecopy\n      0x40\n      add\n      swap2\n      pop\n      pop\n      mload(0x40)\n      dup1\n      swap2\n      sub\n      swap1\n      revert\n    tag_212:\n        /* \"AllContracts.sol\":13046:13047  g */\n      dup1\n        /* \"AllContracts.sol\":13046:13051  g.bet */\n      0x02\n      add\n      sload\n        /* \"AllContracts.sol\":13021:13042  address(this).balance */\n      selfbalance\n        /* \"AllContracts.sol\":13021:13051  address(this).balance >= g.bet */\n      lt\n      iszero\n        /* \"AllContracts.sol\":13013:13105  require(address(this).balance >= g.bet, \"Contract balance too low. Please try again later.\") */\n      tag_213\n      jumpi\n      mload(0x40)\n      0x08c379a000000000000000000000000000000000000000000000000000000000\n      dup2\n      mstore\n      0x04\n      add\n      dup1\n      dup1\n      0x20\n      add\n      dup3\n      dup2\n      sub\n      dup3\n      mstore\n      0x31\n      dup2\n      mstore\n      0x20\n      add\n      dup1\n      data_b719f220e413600c7e92ed4736b96c6908e0428122610fe965fcc60eefeedbad\n      0x31\n      swap2\n      codecopy\n      0x40\n      add\n      swap2\n      pop\n      pop\n      mload(0x40)\n      dup1\n      swap2\n      sub\n      swap1\n      revert\n    tag_213:\n        /* \"AllContracts.sol\":13126:13130  true */\n      0x01\n        /* \"AllContracts.sol\":13115:13116  g */\n      dup2\n        /* \"AllContracts.sol\":13115:13123  g.played */\n      0x05\n      add\n      0x00\n        /* \"AllContracts.sol\":13115:13130  g.played = true */\n      0x0100\n      exp\n      dup2\n      sload\n      dup2\n      0xff\n      mul\n      not\n      and\n      swap1\n      dup4\n      iszero\n      iszero\n      mul\n      or\n      swap1\n      sstore\n      pop\n        /* \"AllContracts.sol\":13160:13161  g */\n      dup1\n        /* \"AllContracts.sol\":13160:13165  g.bet */\n      0x02\n      add\n      sload\n        /* \"AllContracts.sol\":13143:13156  _unplayedBets */\n      sload(0x13)\n        /* \"AllContracts.sol\":13143:13165  _unplayedBets >= g.bet */\n      lt\n        /* \"AllContracts.sol\":13140:13262  if(_unplayedBets >= g.bet) {... */\n      tag_214\n      jumpi\n        /* \"AllContracts.sol\":13198:13199  g */\n      dup1\n        /* \"AllContracts.sol\":13198:13203  g.bet */\n      0x02\n      add\n      sload\n        /* \"AllContracts.sol\":13181:13194  _unplayedBets */\n      0x13\n      0x00\n        /* \"AllContracts.sol\":13181:13203  _unplayedBets -= g.bet */\n      dup3\n      dup3\n      sload\n      sub\n      swap3\n      pop\n      pop\n      dup2\n      swap1\n      sstore\n      pop\n        /* \"AllContracts.sol\":13140:13262  if(_unplayedBets >= g.bet) {... */\n      jump(tag_215)\n    tag_214:\n        /* \"AllContracts.sol\":13250:13251  0 */\n      0x00\n        /* \"AllContracts.sol\":13234:13247  _unplayedBets */\n      0x13\n        /* \"AllContracts.sol\":13234:13251  _unplayedBets = 0 */\n      dup2\n      swap1\n      sstore\n      pop\n        /* \"AllContracts.sol\":13140:13262  if(_unplayedBets >= g.bet) {... */\n    tag_215:\n        /* \"AllContracts.sol\":13271:13272  g */\n      dup1\n        /* \"AllContracts.sol\":13271:13279  g.player */\n      0x01\n      add\n      0x00\n      swap1\n      sload\n      swap1\n      0x0100\n      exp\n      swap1\n      div\n      0xffffffffffffffffffffffffffffffffffffffff\n      and\n        /* \"AllContracts.sol\":13271:13288  g.player.transfer */\n      0xffffffffffffffffffffffffffffffffffffffff\n      and\n        /* \"AllContracts.sol\":13271:13295  g.player.transfer(g.bet) */\n      0x08fc\n        /* \"AllContracts.sol\":13289:13290  g */\n      dup3\n        /* \"AllContracts.sol\":13289:13294  g.bet */\n      0x02\n      add\n      sload\n        /* \"AllContracts.sol\":13271:13295  g.player.transfer(g.bet) */\n      swap1\n      dup2\n      iszero\n      mul\n      swap1\n      mload(0x40)\n      0x00\n      mload(0x40)\n      dup1\n      dup4\n      sub\n      dup2\n      dup6\n      dup9\n      dup9\n      call\n      swap4\n      pop\n      pop\n      pop\n      pop\n      iszero\n        /* \"--CODEGEN--\":8:17   */\n      dup1\n        /* \"--CODEGEN--\":5:7   */\n      iszero\n      tag_217\n      jumpi\n        /* \"--CODEGEN--\":45:61   */\n      returndatasize\n        /* \"--CODEGEN--\":42:43   */\n      0x00\n        /* \"--CODEGEN--\":39:40   */\n      dup1\n        /* \"--CODEGEN--\":24:62   */\n      returndatacopy\n        /* \"--CODEGEN--\":77:93   */\n      returndatasize\n        /* \"--CODEGEN--\":74:75   */\n      0x00\n        /* \"--CODEGEN--\":67:94   */\n      revert\n        /* \"--CODEGEN--\":5:7   */\n    tag_217:\n        /* \"AllContracts.sol\":13271:13295  g.player.transfer(g.bet) */\n      pop\n        /* \"AllContracts.sol\":12839:13302  function requestRefund(uint gameID) public{... */\n      pop\n      pop\n      jump\t// out\n        /* \"AllContracts.sol\":8578:9187  function placeBetFor(address payable player, uint pick) public payable {... */\n    tag_128:\n        /* \"AllContracts.sol\":8807:8813  minBet */\n      sload(0x12)\n        /* \"AllContracts.sol\":8794:8803  msg.value */\n      callvalue\n        /* \"AllContracts.sol\":8794:8813  msg.value >= minBet */\n      lt\n      iszero\n        /* \"AllContracts.sol\":8786:8837  require(msg.value >= minBet, \"minimum bet not met\") */\n      tag_219\n      jumpi\n      mload(0x40)\n      0x08c379a000000000000000000000000000000000000000000000000000000000\n      dup2\n      mstore\n      0x04\n      add\n      dup1\n      dup1\n      0x20\n      add\n      dup3\n      dup2\n      sub\n      dup3\n      mstore\n      0x13\n      dup2\n      mstore\n      0x20\n      add\n      dup1\n      0x6d696e696d756d20626574206e6f74206d657400000000000000000000000000\n      dup2\n      mstore\n      pop\n      0x20\n      add\n      swap2\n      pop\n      pop\n      mload(0x40)\n      dup1\n      swap2\n      sub\n      swap1\n      revert\n    tag_219:\n        /* \"AllContracts.sol\":8854:8858  gas1 */\n      0x06\n        /* \"AllContracts.sol\":8847:8858  delete gas1 */\n      0x00\n      swap1\n      sstore\n        /* \"AllContracts.sol\":8875:8879  gas2 */\n      0x07\n        /* \"AllContracts.sol\":8868:8879  delete gas2 */\n      0x00\n      swap1\n      sstore\n        /* \"AllContracts.sol\":8896:8900  gas3 */\n      0x08\n        /* \"AllContracts.sol\":8889:8900  delete gas3 */\n      0x00\n      swap1\n      sstore\n        /* \"AllContracts.sol\":8917:8921  gas4 */\n      0x09\n        /* \"AllContracts.sol\":8910:8921  delete gas4 */\n      0x00\n      swap1\n      sstore\n        /* \"AllContracts.sol\":8938:8942  gas5 */\n      0x0a\n        /* \"AllContracts.sol\":8931:8942  delete gas5 */\n      0x00\n      swap1\n      sstore\n        /* \"AllContracts.sol\":8959:8963  gas6 */\n      0x0b\n        /* \"AllContracts.sol\":8952:8963  delete gas6 */\n      0x00\n      swap1\n      sstore\n        /* \"AllContracts.sol\":8980:8984  gas7 */\n      0x0c\n        /* \"AllContracts.sol\":8973:8984  delete gas7 */\n      0x00\n      swap1\n      sstore\n        /* \"AllContracts.sol\":9001:9005  gas8 */\n      0x0d\n        /* \"AllContracts.sol\":8994:9005  delete gas8 */\n      0x00\n      swap1\n      sstore\n        /* \"AllContracts.sol\":9022:9026  gas9 */\n      0x0e\n        /* \"AllContracts.sol\":9015:9026  delete gas9 */\n      0x00\n      swap1\n      sstore\n        /* \"AllContracts.sol\":9043:9048  gas10 */\n      0x0f\n        /* \"AllContracts.sol\":9036:9048  delete gas10 */\n      0x00\n      swap1\n      sstore\n        /* \"AllContracts.sol\":9075:9103  _unplayedBets.add(msg.value) */\n      tag_220\n        /* \"AllContracts.sol\":9093:9102  msg.value */\n      callvalue\n        /* \"AllContracts.sol\":9075:9088  _unplayedBets */\n      sload(0x13)\n        /* \"AllContracts.sol\":9075:9092  _unplayedBets.add */\n      tag_221\n      swap1\n        /* \"AllContracts.sol\":9075:9103  _unplayedBets.add(msg.value) */\n      swap2\n      swap1\n      0xffffffff\n      and\n      jump\t// in\n    tag_220:\n        /* \"AllContracts.sol\":9059:9072  _unplayedBets */\n      0x13\n        /* \"AllContracts.sol\":9059:9103  _unplayedBets = _unplayedBets.add(msg.value) */\n      dup2\n      swap1\n      sstore\n      pop\n        /* \"AllContracts.sol\":9113:9148  createGame(player, msg.value, pick) */\n      tag_222\n        /* \"AllContracts.sol\":9124:9130  player */\n      dup3\n        /* \"AllContracts.sol\":9132:9141  msg.value */\n      callvalue\n        /* \"AllContracts.sol\":9143:9147  pick */\n      dup4\n        /* \"AllContracts.sol\":9113:9123  createGame */\n      tag_223\n        /* \"AllContracts.sol\":9113:9148  createGame(player, msg.value, pick) */\n      jump\t// in\n    tag_222:\n        /* \"AllContracts.sol\":9158:9180  playGame(_currentGame) */\n      tag_224\n        /* \"AllContracts.sol\":9167:9179  _currentGame */\n      sload(0x14)\n        /* \"AllContracts.sol\":9158:9166  playGame */\n      tag_225\n        /* \"AllContracts.sol\":9158:9180  playGame(_currentGame) */\n      jump\t// in\n    tag_224:\n        /* \"AllContracts.sol\":8578:9187  function placeBetFor(address payable player, uint pick) public payable {... */\n      pop\n      pop\n      jump\t// out\n        /* \"AllContracts.sol\":14788:15110  function closeMachine() public onlyOwner {... */\n    tag_131:\n        /* \"AllContracts.sol\":1141:1153  _msgSender() */\n      tag_227\n        /* \"AllContracts.sol\":1141:1151  _msgSender */\n      tag_153\n        /* \"AllContracts.sol\":1141:1153  _msgSender() */\n      jump\t// in\n    tag_227:\n        /* \"AllContracts.sol\":1131:1153  _owner == _msgSender() */\n      0xffffffffffffffffffffffffffffffffffffffff\n      and\n        /* \"AllContracts.sol\":1131:1137  _owner */\n      0x03\n      0x00\n      swap1\n      sload\n      swap1\n      0x0100\n      exp\n      swap1\n      div\n      0xffffffffffffffffffffffffffffffffffffffff\n      and\n        /* \"AllContracts.sol\":1131:1153  _owner == _msgSender() */\n      0xffffffffffffffffffffffffffffffffffffffff\n      and\n      eq\n        /* \"AllContracts.sol\":1123:1190  require(_owner == _msgSender(), \"Ownable: caller is not the owner\") */\n      tag_228\n      jumpi\n      mload(0x40)\n      0x08c379a000000000000000000000000000000000000000000000000000000000\n      dup2\n      mstore\n      0x04\n      add\n      dup1\n      dup1\n      0x20\n      add\n      dup3\n      dup2\n      sub\n      dup3\n      mstore\n      0x20\n      dup2\n      mstore\n      0x20\n      add\n      dup1\n      0x4f776e61626c653a2063616c6c6572206973206e6f7420746865206f776e6572\n      dup2\n      mstore\n      pop\n      0x20\n      add\n      swap2\n      pop\n      pop\n      mload(0x40)\n      dup1\n      swap2\n      sub\n      swap1\n      revert\n    tag_228:\n        /* \"AllContracts.sol\":14839:14868  uint availableContractBalance */\n      0x00\n        /* \"AllContracts.sol\":14871:14911  address(this).balance.sub(_unplayedBets) */\n      tag_230\n        /* \"AllContracts.sol\":14897:14910  _unplayedBets */\n      sload(0x13)\n        /* \"AllContracts.sol\":14871:14892  address(this).balance */\n      selfbalance\n        /* \"AllContracts.sol\":14871:14896  address(this).balance.sub */\n      tag_231\n      swap1\n        /* \"AllContracts.sol\":14871:14911  address(this).balance.sub(_unplayedBets) */\n      swap2\n      swap1\n      0xffffffff\n      and\n      jump\t// in\n    tag_230:\n        /* \"AllContracts.sol\":14839:14911  uint availableContractBalance = address(this).balance.sub(_unplayedBets) */\n      swap1\n      pop\n        /* \"AllContracts.sol\":14921:14934  payoutAddress */\n      0x15\n      0x00\n      swap1\n      sload\n      swap1\n      0x0100\n      exp\n      swap1\n      div\n      0xffffffffffffffffffffffffffffffffffffffff\n      and\n        /* \"AllContracts.sol\":14921:14943  payoutAddress.transfer */\n      0xffffffffffffffffffffffffffffffffffffffff\n      and\n        /* \"AllContracts.sol\":14921:14969  payoutAddress.transfer(availableContractBalance) */\n      0x08fc\n        /* \"AllContracts.sol\":14944:14968  availableContractBalance */\n      dup3\n        /* \"AllContracts.sol\":14921:14969  payoutAddress.transfer(availableContractBalance) */\n      swap1\n      dup2\n      iszero\n      mul\n      swap1\n      mload(0x40)\n      0x00\n      mload(0x40)\n      dup1\n      dup4\n      sub\n      dup2\n      dup6\n      dup9\n      dup9\n      call\n      swap4\n      pop\n      pop\n      pop\n      pop\n      iszero\n        /* \"--CODEGEN--\":8:17   */\n      dup1\n        /* \"--CODEGEN--\":5:7   */\n      iszero\n      tag_233\n      jumpi\n        /* \"--CODEGEN--\":45:61   */\n      returndatasize\n        /* \"--CODEGEN--\":42:43   */\n      0x00\n        /* \"--CODEGEN--\":39:40   */\n      dup1\n        /* \"--CODEGEN--\":24:62   */\n      returndatacopy\n        /* \"--CODEGEN--\":77:93   */\n      returndatasize\n        /* \"--CODEGEN--\":74:75   */\n      0x00\n        /* \"--CODEGEN--\":67:94   */\n      revert\n        /* \"--CODEGEN--\":5:7   */\n    tag_233:\n        /* \"AllContracts.sol\":14921:14969  payoutAddress.transfer(availableContractBalance) */\n      pop\n        /* \"AllContracts.sol\":15016:15017  0 */\n      0x00\n        /* \"AllContracts.sol\":14984:14988  LINK */\n      dup1\n      0x00\n      swap1\n      sload\n      swap1\n      0x0100\n      exp\n      swap1\n      div\n      0xffffffffffffffffffffffffffffffffffffffff\n      and\n        /* \"AllContracts.sol\":14984:14998  LINK.balanceOf */\n      0xffffffffffffffffffffffffffffffffffffffff\n      and\n      0x70a08231\n        /* \"AllContracts.sol\":15007:15011  this */\n      address\n        /* \"AllContracts.sol\":14984:15013  LINK.balanceOf(address(this)) */\n      mload(0x40)\n      dup3\n      0xffffffff\n      and\n      0xe0\n      shl\n      dup2\n      mstore\n      0x04\n      add\n      dup1\n      dup3\n      0xffffffffffffffffffffffffffffffffffffffff\n      and\n      0xffffffffffffffffffffffffffffffffffffffff\n      and\n      dup2\n      mstore\n      0x20\n      add\n      swap2\n      pop\n      pop\n      0x20\n      mload(0x40)\n      dup1\n      dup4\n      sub\n      dup2\n      dup7\n      dup1\n      extcodesize\n      iszero\n        /* \"--CODEGEN--\":8:17   */\n      dup1\n        /* \"--CODEGEN--\":5:7   */\n      iszero\n      tag_234\n      jumpi\n        /* \"--CODEGEN--\":30:31   */\n      0x00\n        /* \"--CODEGEN--\":27:28   */\n      dup1\n        /* \"--CODEGEN--\":20:32   */\n      revert\n        /* \"--CODEGEN--\":5:7   */\n    tag_234:\n        /* \"AllContracts.sol\":14984:15013  LINK.balanceOf(address(this)) */\n      pop\n      gas\n      staticcall\n      iszero\n        /* \"--CODEGEN--\":8:17   */\n      dup1\n        /* \"--CODEGEN--\":5:7   */\n      iszero\n      tag_236\n      jumpi\n        /* \"--CODEGEN--\":45:61   */\n      returndatasize\n        /* \"--CODEGEN--\":42:43   */\n      0x00\n        /* \"--CODEGEN--\":39:40   */\n      dup1\n        /* \"--CODEGEN--\":24:62   */\n      returndatacopy\n        /* \"--CODEGEN--\":77:93   */\n      returndatasize\n        /* \"--CODEGEN--\":74:75   */\n      0x00\n        /* \"--CODEGEN--\":67:94   */\n      revert\n        /* \"--CODEGEN--\":5:7   */\n    tag_236:\n        /* \"AllContracts.sol\":14984:15013  LINK.balanceOf(address(this)) */\n      pop\n      pop\n      pop\n      pop\n      mload(0x40)\n      returndatasize\n        /* \"--CODEGEN--\":13:15   */\n      0x20\n        /* \"--CODEGEN--\":8:11   */\n      dup2\n        /* \"--CODEGEN--\":5:16   */\n      lt\n        /* \"--CODEGEN--\":2:4   */\n      iszero\n      tag_237\n      jumpi\n        /* \"--CODEGEN--\":29:30   */\n      0x00\n        /* \"--CODEGEN--\":26:27   */\n      dup1\n        /* \"--CODEGEN--\":19:31   */\n      revert\n        /* \"--CODEGEN--\":2:4   */\n    tag_237:\n        /* \"AllContracts.sol\":14984:15013  LINK.balanceOf(address(this)) */\n      dup2\n      add\n      swap1\n      dup1\n      dup1\n      mload\n      swap1\n      0x20\n      add\n      swap1\n      swap3\n      swap2\n      swap1\n      pop\n      pop\n      pop\n        /* \"AllContracts.sol\":14984:15017  LINK.balanceOf(address(this)) > 0 */\n      gt\n        /* \"AllContracts.sol\":14980:15103  if (LINK.balanceOf(address(this)) > 0) {... */\n      iszero\n      tag_238\n      jumpi\n        /* \"AllContracts.sol\":15033:15037  LINK */\n      0x00\n      dup1\n      swap1\n      sload\n      swap1\n      0x0100\n      exp\n      swap1\n      div\n      0xffffffffffffffffffffffffffffffffffffffff\n      and\n        /* \"AllContracts.sol\":15033:15046  LINK.transfer */\n      0xffffffffffffffffffffffffffffffffffffffff\n      and\n      0xa9059cbb\n        /* \"AllContracts.sol\":15047:15060  payoutAddress */\n      0x15\n      0x00\n      swap1\n      sload\n      swap1\n      0x0100\n      exp\n      swap1\n      div\n      0xffffffffffffffffffffffffffffffffffffffff\n      and\n        /* \"AllContracts.sol\":15062:15066  LINK */\n      0x00\n      dup1\n      swap1\n      sload\n      swap1\n      0x0100\n      exp\n      swap1\n      div\n      0xffffffffffffffffffffffffffffffffffffffff\n      and\n        /* \"AllContracts.sol\":15062:15076  LINK.balanceOf */\n      0xffffffffffffffffffffffffffffffffffffffff\n      and\n      0x70a08231\n        /* \"AllContracts.sol\":15085:15089  this */\n      address\n        /* \"AllContracts.sol\":15062:15091  LINK.balanceOf(address(this)) */\n      mload(0x40)\n      dup3\n      0xffffffff\n      and\n      0xe0\n      shl\n      dup2\n      mstore\n      0x04\n      add\n      dup1\n      dup3\n      0xffffffffffffffffffffffffffffffffffffffff\n      and\n      0xffffffffffffffffffffffffffffffffffffffff\n      and\n      dup2\n      mstore\n      0x20\n      add\n      swap2\n      pop\n      pop\n      0x20\n      mload(0x40)\n      dup1\n      dup4\n      sub\n      dup2\n      dup7\n      dup1\n      extcodesize\n      iszero\n        /* \"--CODEGEN--\":8:17   */\n      dup1\n        /* \"--CODEGEN--\":5:7   */\n      iszero\n      tag_239\n      jumpi\n        /* \"--CODEGEN--\":30:31   */\n      0x00\n        /* \"--CODEGEN--\":27:28   */\n      dup1\n        /* \"--CODEGEN--\":20:32   */\n      revert\n        /* \"--CODEGEN--\":5:7   */\n    tag_239:\n        /* \"AllContracts.sol\":15062:15091  LINK.balanceOf(address(this)) */\n      pop\n      gas\n      staticcall\n      iszero\n        /* \"--CODEGEN--\":8:17   */\n      dup1\n        /* \"--CODEGEN--\":5:7   */\n      iszero\n      tag_241\n      jumpi\n        /* \"--CODEGEN--\":45:61   */\n      returndatasize\n        /* \"--CODEGEN--\":42:43   */\n      0x00\n        /* \"--CODEGEN--\":39:40   */\n      dup1\n        /* \"--CODEGEN--\":24:62   */\n      returndatacopy\n        /* \"--CODEGEN--\":77:93   */\n      returndatasize\n        /* \"--CODEGEN--\":74:75   */\n      0x00\n        /* \"--CODEGEN--\":67:94   */\n      revert\n        /* \"--CODEGEN--\":5:7   */\n    tag_241:\n        /* \"AllContracts.sol\":15062:15091  LINK.balanceOf(address(this)) */\n      pop\n      pop\n      pop\n      pop\n      mload(0x40)\n      returndatasize\n        /* \"--CODEGEN--\":13:15   */\n      0x20\n        /* \"--CODEGEN--\":8:11   */\n      dup2\n        /* \"--CODEGEN--\":5:16   */\n      lt\n        /* \"--CODEGEN--\":2:4   */\n      iszero\n      tag_242\n      jumpi\n        /* \"--CODEGEN--\":29:30   */\n      0x00\n        /* \"--CODEGEN--\":26:27   */\n      dup1\n        /* \"--CODEGEN--\":19:31   */\n      revert\n        /* \"--CODEGEN--\":2:4   */\n    tag_242:\n        /* \"AllContracts.sol\":15062:15091  LINK.balanceOf(address(this)) */\n      dup2\n      add\n      swap1\n      dup1\n      dup1\n      mload\n      swap1\n      0x20\n      add\n      swap1\n      swap3\n      swap2\n      swap1\n      pop\n      pop\n      pop\n        /* \"AllContracts.sol\":15033:15092  LINK.transfer(payoutAddress, LINK.balanceOf(address(this))) */\n      mload(0x40)\n      dup4\n      0xffffffff\n      and\n      0xe0\n      shl\n      dup2\n      mstore\n      0x04\n      add\n      dup1\n      dup4\n      0xffffffffffffffffffffffffffffffffffffffff\n      and\n      0xffffffffffffffffffffffffffffffffffffffff\n      and\n      dup2\n      mstore\n      0x20\n      add\n      dup3\n      dup2\n      mstore\n      0x20\n      add\n      swap3\n      pop\n      pop\n      pop\n      0x20\n      mload(0x40)\n      dup1\n      dup4\n      sub\n      dup2\n      0x00\n      dup8\n      dup1\n      extcodesize\n      iszero\n        /* \"--CODEGEN--\":8:17   */\n      dup1\n        /* \"--CODEGEN--\":5:7   */\n      iszero\n      tag_243\n      jumpi\n        /* \"--CODEGEN--\":30:31   */\n      0x00\n        /* \"--CODEGEN--\":27:28   */\n      dup1\n        /* \"--CODEGEN--\":20:32   */\n      revert\n        /* \"--CODEGEN--\":5:7   */\n    tag_243:\n        /* \"AllContracts.sol\":15033:15092  LINK.transfer(payoutAddress, LINK.balanceOf(address(this))) */\n      pop\n      gas\n      call\n      iszero\n        /* \"--CODEGEN--\":8:17   */\n      dup1\n        /* \"--CODEGEN--\":5:7   */\n      iszero\n      tag_245\n      jumpi\n        /* \"--CODEGEN--\":45:61   */\n      returndatasize\n        /* \"--CODEGEN--\":42:43   */\n      0x00\n        /* \"--CODEGEN--\":39:40   */\n      dup1\n        /* \"--CODEGEN--\":24:62   */\n      returndatacopy\n        /* \"--CODEGEN--\":77:93   */\n      returndatasize\n        /* \"--CODEGEN--\":74:75   */\n      0x00\n        /* \"--CODEGEN--\":67:94   */\n      revert\n        /* \"--CODEGEN--\":5:7   */\n    tag_245:\n        /* \"AllContracts.sol\":15033:15092  LINK.transfer(payoutAddress, LINK.balanceOf(address(this))) */\n      pop\n      pop\n      pop\n      pop\n      mload(0x40)\n      returndatasize\n        /* \"--CODEGEN--\":13:15   */\n      0x20\n        /* \"--CODEGEN--\":8:11   */\n      dup2\n        /* \"--CODEGEN--\":5:16   */\n      lt\n        /* \"--CODEGEN--\":2:4   */\n      iszero\n      tag_246\n      jumpi\n        /* \"--CODEGEN--\":29:30   */\n      0x00\n        /* \"--CODEGEN--\":26:27   */\n      dup1\n        /* \"--CODEGEN--\":19:31   */\n      revert\n        /* \"--CODEGEN--\":2:4   */\n    tag_246:\n        /* \"AllContracts.sol\":15033:15092  LINK.transfer(payoutAddress, LINK.balanceOf(address(this))) */\n      dup2\n      add\n      swap1\n      dup1\n      dup1\n      mload\n      swap1\n      0x20\n      add\n      swap1\n      swap3\n      swap2\n      swap1\n      pop\n      pop\n      pop\n      pop\n        /* \"AllContracts.sol\":14980:15103  if (LINK.balanceOf(address(this)) > 0) {... */\n    tag_238:\n        /* \"AllContracts.sol\":1200:1201  _ */\n      pop\n        /* \"AllContracts.sol\":14788:15110  function closeMachine() public onlyOwner {... */\n      jump\t// out\n        /* \"AllContracts.sol\":14472:14671  function withdrawEth(uint amount) public onlyOwner {... */\n    tag_135:\n        /* \"AllContracts.sol\":1141:1153  _msgSender() */\n      tag_248\n        /* \"AllContracts.sol\":1141:1151  _msgSender */\n      tag_153\n        /* \"AllContracts.sol\":1141:1153  _msgSender() */\n      jump\t// in\n    tag_248:\n        /* \"AllContracts.sol\":1131:1153  _owner == _msgSender() */\n      0xffffffffffffffffffffffffffffffffffffffff\n      and\n        /* \"AllContracts.sol\":1131:1137  _owner */\n      0x03\n      0x00\n      swap1\n      sload\n      swap1\n      0x0100\n      exp\n      swap1\n      div\n      0xffffffffffffffffffffffffffffffffffffffff\n      and\n        /* \"AllContracts.sol\":1131:1153  _owner == _msgSender() */\n      0xffffffffffffffffffffffffffffffffffffffff\n      and\n      eq\n        /* \"AllContracts.sol\":1123:1190  require(_owner == _msgSender(), \"Ownable: caller is not the owner\") */\n      tag_249\n      jumpi\n      mload(0x40)\n      0x08c379a000000000000000000000000000000000000000000000000000000000\n      dup2\n      mstore\n      0x04\n      add\n      dup1\n      dup1\n      0x20\n      add\n      dup3\n      dup2\n      sub\n      dup3\n      mstore\n      0x20\n      dup2\n      mstore\n      0x20\n      add\n      dup1\n      0x4f776e61626c653a2063616c6c6572206973206e6f7420746865206f776e6572\n      dup2\n      mstore\n      pop\n      0x20\n      add\n      swap2\n      pop\n      pop\n      mload(0x40)\n      dup1\n      swap2\n      sub\n      swap1\n      revert\n    tag_249:\n        /* \"AllContracts.sol\":14578:14591  _unplayedBets */\n      sload(0x13)\n        /* \"AllContracts.sol\":14567:14573  amount */\n      dup2\n        /* \"AllContracts.sol\":14543:14564  address(this).balance */\n      selfbalance\n        /* \"AllContracts.sol\":14543:14573  address(this).balance - amount */\n      sub\n        /* \"AllContracts.sol\":14542:14591  (address(this).balance - amount) >= _unplayedBets */\n      lt\n      iszero\n        /* \"AllContracts.sol\":14533:14624  require ((address(this).balance - amount) >= _unplayedBets, \"Can't withdraw unplayed bets\") */\n      tag_251\n      jumpi\n      mload(0x40)\n      0x08c379a000000000000000000000000000000000000000000000000000000000\n      dup2\n      mstore\n      0x04\n      add\n      dup1\n      dup1\n      0x20\n      add\n      dup3\n      dup2\n      sub\n      dup3\n      mstore\n      0x1c\n      dup2\n      mstore\n      0x20\n      add\n      dup1\n      0x43616e277420776974686472617720756e706c61796564206265747300000000\n      dup2\n      mstore\n      pop\n      0x20\n      add\n      swap2\n      pop\n      pop\n      mload(0x40)\n      dup1\n      swap2\n      sub\n      swap1\n      revert\n    tag_251:\n        /* \"AllContracts.sol\":14634:14647  payoutAddress */\n      0x15\n      0x00\n      swap1\n      sload\n      swap1\n      0x0100\n      exp\n      swap1\n      div\n      0xffffffffffffffffffffffffffffffffffffffff\n      and\n        /* \"AllContracts.sol\":14634:14656  payoutAddress.transfer */\n      0xffffffffffffffffffffffffffffffffffffffff\n      and\n        /* \"AllContracts.sol\":14634:14664  payoutAddress.transfer(amount) */\n      0x08fc\n        /* \"AllContracts.sol\":14657:14663  amount */\n      dup3\n        /* \"AllContracts.sol\":14634:14664  payoutAddress.transfer(amount) */\n      swap1\n      dup2\n      iszero\n      mul\n      swap1\n      mload(0x40)\n      0x00\n      mload(0x40)\n      dup1\n      dup4\n      sub\n      dup2\n      dup6\n      dup9\n      dup9\n      call\n      swap4\n      pop\n      pop\n      pop\n      pop\n      iszero\n        /* \"--CODEGEN--\":8:17   */\n      dup1\n        /* \"--CODEGEN--\":5:7   */\n      iszero\n      tag_253\n      jumpi\n        /* \"--CODEGEN--\":45:61   */\n      returndatasize\n        /* \"--CODEGEN--\":42:43   */\n      0x00\n        /* \"--CODEGEN--\":39:40   */\n      dup1\n        /* \"--CODEGEN--\":24:62   */\n      returndatacopy\n        /* \"--CODEGEN--\":77:93   */\n      returndatasize\n        /* \"--CODEGEN--\":74:75   */\n      0x00\n        /* \"--CODEGEN--\":67:94   */\n      revert\n        /* \"--CODEGEN--\":5:7   */\n    tag_253:\n        /* \"AllContracts.sol\":14634:14664  payoutAddress.transfer(amount) */\n      pop\n        /* \"AllContracts.sol\":14472:14671  function withdrawEth(uint amount) public onlyOwner {... */\n      pop\n      jump\t// out\n        /* \"AllContracts.sol\":9193:9854  function safeBetFor(address payable player, uint pick) public payable {... */\n    tag_138:\n        /* \"AllContracts.sol\":9281:9302  betPayable(msg.value) */\n      tag_255\n        /* \"AllContracts.sol\":9292:9301  msg.value */\n      callvalue\n        /* \"AllContracts.sol\":9281:9291  betPayable */\n      tag_256\n        /* \"AllContracts.sol\":9281:9302  betPayable(msg.value) */\n      jump\t// in\n    tag_255:\n        /* \"AllContracts.sol\":9273:9361  require(betPayable(msg.value), \"Contract has insufficint funds to payout possible win.\") */\n      tag_257\n      jumpi\n      mload(0x40)\n      0x08c379a000000000000000000000000000000000000000000000000000000000\n      dup2\n      mstore\n      0x04\n      add\n      dup1\n      dup1\n      0x20\n      add\n      dup3\n      dup2\n      sub\n      dup3\n      mstore\n      0x36\n      dup2\n      mstore\n      0x20\n      add\n      dup1\n      data_588b68a2a6ccdc15b2dae26a385280edec71bed95b5b14a24b760c56e4f665d6\n      0x36\n      swap2\n      codecopy\n      0x40\n      add\n      swap2\n      pop\n      pop\n      mload(0x40)\n      dup1\n      swap2\n      sub\n      swap1\n      revert\n    tag_257:\n        /* \"AllContracts.sol\":9387:9394  maxPick */\n      sload(0x10)\n        /* \"AllContracts.sol\":9379:9383  pick */\n      dup2\n        /* \"AllContracts.sol\":9379:9394  pick <= maxPick */\n      gt\n      iszero\n        /* \"AllContracts.sol\":9371:9439  require(pick <= maxPick, \"Pick is too high. Choose a lower number.\") */\n      tag_258\n      jumpi\n      mload(0x40)\n      0x08c379a000000000000000000000000000000000000000000000000000000000\n      dup2\n      mstore\n      0x04\n      add\n      dup1\n      dup1\n      0x20\n      add\n      dup3\n      dup2\n      sub\n      dup3\n      mstore\n      0x28\n      dup2\n      mstore\n      0x20\n      add\n      dup1\n      data_104d4309dbdd0d693502d943a07623e5e639a80ec32910748a6b4f701d61cac8\n      0x28\n      swap2\n      codecopy\n      0x40\n      add\n      swap2\n      pop\n      pop\n      mload(0x40)\n      dup1\n      swap2\n      sub\n      swap1\n      revert\n    tag_258:\n        /* \"AllContracts.sol\":9457:9478  betInRange(msg.value) */\n      tag_259\n        /* \"AllContracts.sol\":9468:9477  msg.value */\n      callvalue\n        /* \"AllContracts.sol\":9457:9467  betInRange */\n      tag_260\n        /* \"AllContracts.sol\":9457:9478  betInRange(msg.value) */\n      jump\t// in\n    tag_259:\n        /* \"AllContracts.sol\":9449:9503  require(betInRange(msg.value),\"Outisde of bet range.\") */\n      tag_261\n      jumpi\n      mload(0x40)\n      0x08c379a000000000000000000000000000000000000000000000000000000000\n      dup2\n      mstore\n      0x04\n      add\n      dup1\n      dup1\n      0x20\n      add\n      dup3\n      dup2\n      sub\n      dup3\n      mstore\n      0x15\n      dup2\n      mstore\n      0x20\n      add\n      dup1\n      0x4f757469736465206f66206265742072616e67652e0000000000000000000000\n      dup2\n      mstore\n      pop\n      0x20\n      add\n      swap2\n      pop\n      pop\n      mload(0x40)\n      dup1\n      swap2\n      sub\n      swap1\n      revert\n    tag_261:\n        /* \"AllContracts.sol\":9521:9525  gas1 */\n      0x06\n        /* \"AllContracts.sol\":9514:9525  delete gas1 */\n      0x00\n      swap1\n      sstore\n        /* \"AllContracts.sol\":9542:9546  gas2 */\n      0x07\n        /* \"AllContracts.sol\":9535:9546  delete gas2 */\n      0x00\n      swap1\n      sstore\n        /* \"AllContracts.sol\":9563:9567  gas3 */\n      0x08\n        /* \"AllContracts.sol\":9556:9567  delete gas3 */\n      0x00\n      swap1\n      sstore\n        /* \"AllContracts.sol\":9584:9588  gas4 */\n      0x09\n        /* \"AllContracts.sol\":9577:9588  delete gas4 */\n      0x00\n      swap1\n      sstore\n        /* \"AllContracts.sol\":9605:9609  gas5 */\n      0x0a\n        /* \"AllContracts.sol\":9598:9609  delete gas5 */\n      0x00\n      swap1\n      sstore\n        /* \"AllContracts.sol\":9626:9630  gas6 */\n      0x0b\n        /* \"AllContracts.sol\":9619:9630  delete gas6 */\n      0x00\n      swap1\n      sstore\n        /* \"AllContracts.sol\":9647:9651  gas7 */\n      0x0c\n        /* \"AllContracts.sol\":9640:9651  delete gas7 */\n      0x00\n      swap1\n      sstore\n        /* \"AllContracts.sol\":9668:9672  gas8 */\n      0x0d\n        /* \"AllContracts.sol\":9661:9672  delete gas8 */\n      0x00\n      swap1\n      sstore\n        /* \"AllContracts.sol\":9689:9693  gas9 */\n      0x0e\n        /* \"AllContracts.sol\":9682:9693  delete gas9 */\n      0x00\n      swap1\n      sstore\n        /* \"AllContracts.sol\":9710:9715  gas10 */\n      0x0f\n        /* \"AllContracts.sol\":9703:9715  delete gas10 */\n      0x00\n      swap1\n      sstore\n        /* \"AllContracts.sol\":9742:9770  _unplayedBets.add(msg.value) */\n      tag_262\n        /* \"AllContracts.sol\":9760:9769  msg.value */\n      callvalue\n        /* \"AllContracts.sol\":9742:9755  _unplayedBets */\n      sload(0x13)\n        /* \"AllContracts.sol\":9742:9759  _unplayedBets.add */\n      tag_221\n      swap1\n        /* \"AllContracts.sol\":9742:9770  _unplayedBets.add(msg.value) */\n      swap2\n      swap1\n      0xffffffff\n      and\n      jump\t// in\n    tag_262:\n        /* \"AllContracts.sol\":9726:9739  _unplayedBets */\n      0x13\n        /* \"AllContracts.sol\":9726:9770  _unplayedBets = _unplayedBets.add(msg.value) */\n      dup2\n      swap1\n      sstore\n      pop\n        /* \"AllContracts.sol\":9780:9815  createGame(player, msg.value, pick) */\n      tag_263\n        /* \"AllContracts.sol\":9791:9797  player */\n      dup3\n        /* \"AllContracts.sol\":9799:9808  msg.value */\n      callvalue\n        /* \"AllContracts.sol\":9810:9814  pick */\n      dup4\n        /* \"AllContracts.sol\":9780:9790  createGame */\n      tag_223\n        /* \"AllContracts.sol\":9780:9815  createGame(player, msg.value, pick) */\n      jump\t// in\n    tag_263:\n        /* \"AllContracts.sol\":9825:9847  playGame(_currentGame) */\n      tag_264\n        /* \"AllContracts.sol\":9834:9846  _currentGame */\n      sload(0x14)\n        /* \"AllContracts.sol\":9825:9833  playGame */\n      tag_225\n        /* \"AllContracts.sol\":9825:9847  playGame(_currentGame) */\n      jump\t// in\n    tag_264:\n        /* \"AllContracts.sol\":9193:9854  function safeBetFor(address payable player, uint pick) public payable {... */\n      pop\n      pop\n      jump\t// out\n        /* \"AllContracts.sol\":6579:6628  mapping(address => bool) public gasFreeBetAllowed */\n    tag_142:\n      mstore(0x20, 0x18)\n      dup1\n      0x00\n      mstore\n      keccak256(0x00, 0x40)\n      0x00\n      swap2\n      pop\n      sload\n      swap1\n      0x0100\n      exp\n      swap1\n      div\n      0xff\n      and\n      dup2\n      jump\t// out\n        /* \"AllContracts.sol\":1844:2084  function transferOwnership(address newOwner) public virtual onlyOwner {... */\n    tag_146:\n        /* \"AllContracts.sol\":1141:1153  _msgSender() */\n      tag_266\n        /* \"AllContracts.sol\":1141:1151  _msgSender */\n      tag_153\n        /* \"AllContracts.sol\":1141:1153  _msgSender() */\n      jump\t// in\n    tag_266:\n        /* \"AllContracts.sol\":1131:1153  _owner == _msgSender() */\n      0xffffffffffffffffffffffffffffffffffffffff\n      and\n        /* \"AllContracts.sol\":1131:1137  _owner */\n      0x03\n      0x00\n      swap1\n      sload\n      swap1\n      0x0100\n      exp\n      swap1\n      div\n      0xffffffffffffffffffffffffffffffffffffffff\n      and\n        /* \"AllContracts.sol\":1131:1153  _owner == _msgSender() */\n      0xffffffffffffffffffffffffffffffffffffffff\n      and\n      eq\n        /* \"AllContracts.sol\":1123:1190  require(_owner == _msgSender(), \"Ownable: caller is not the owner\") */\n      tag_267\n      jumpi\n      mload(0x40)\n      0x08c379a000000000000000000000000000000000000000000000000000000000\n      dup2\n      mstore\n      0x04\n      add\n      dup1\n      dup1\n      0x20\n      add\n      dup3\n      dup2\n      sub\n      dup3\n      mstore\n      0x20\n      dup2\n      mstore\n      0x20\n      add\n      dup1\n      0x4f776e61626c653a2063616c6c6572206973206e6f7420746865206f776e6572\n      dup2\n      mstore\n      pop\n      0x20\n      add\n      swap2\n      pop\n      pop\n      mload(0x40)\n      dup1\n      swap2\n      sub\n      swap1\n      revert\n    tag_267:\n        /* \"AllContracts.sol\":1952:1953  0 */\n      0x00\n        /* \"AllContracts.sol\":1932:1954  newOwner != address(0) */\n      0xffffffffffffffffffffffffffffffffffffffff\n      and\n        /* \"AllContracts.sol\":1932:1940  newOwner */\n      dup2\n        /* \"AllContracts.sol\":1932:1954  newOwner != address(0) */\n      0xffffffffffffffffffffffffffffffffffffffff\n      and\n      eq\n      iszero\n        /* \"AllContracts.sol\":1924:1997  require(newOwner != address(0), \"Ownable: new owner is the zero address\") */\n      tag_269\n      jumpi\n      mload(0x40)\n      0x08c379a000000000000000000000000000000000000000000000000000000000\n      dup2\n      mstore\n      0x04\n      add\n      dup1\n      dup1\n      0x20\n      add\n      dup3\n      dup2\n      sub\n      dup3\n      mstore\n      0x26\n      dup2\n      mstore\n      0x20\n      add\n      dup1\n      data_245f15ff17f551913a7a18385165551503906a406f905ac1c2437281a7cd0cfe\n      0x26\n      swap2\n      codecopy\n      0x40\n      add\n      swap2\n      pop\n      pop\n      mload(0x40)\n      dup1\n      swap2\n      sub\n      swap1\n      revert\n    tag_269:\n        /* \"AllContracts.sol\":2041:2049  newOwner */\n      dup1\n        /* \"AllContracts.sol\":2012:2050  OwnershipTransferred(_owner, newOwner) */\n      0xffffffffffffffffffffffffffffffffffffffff\n      and\n        /* \"AllContracts.sol\":2033:2039  _owner */\n      0x03\n      0x00\n      swap1\n      sload\n      swap1\n      0x0100\n      exp\n      swap1\n      div\n      0xffffffffffffffffffffffffffffffffffffffff\n      and\n        /* \"AllContracts.sol\":2012:2050  OwnershipTransferred(_owner, newOwner) */\n      0xffffffffffffffffffffffffffffffffffffffff\n      and\n      0x8be0079c531659141344cd1fd0a4f28419497f9722a3daafe3b4186f6b6457e0\n      mload(0x40)\n      mload(0x40)\n      dup1\n      swap2\n      sub\n      swap1\n      log3\n        /* \"AllContracts.sol\":2069:2077  newOwner */\n      dup1\n        /* \"AllContracts.sol\":2060:2066  _owner */\n      0x03\n      0x00\n        /* \"AllContracts.sol\":2060:2077  _owner = newOwner */\n      0x0100\n      exp\n      dup2\n      sload\n      dup2\n      0xffffffffffffffffffffffffffffffffffffffff\n      mul\n      not\n      and\n      swap1\n      dup4\n      0xffffffffffffffffffffffffffffffffffffffff\n      and\n      mul\n      or\n      swap1\n      sstore\n      pop\n        /* \"AllContracts.sol\":1844:2084  function transferOwnership(address newOwner) public virtual onlyOwner {... */\n      pop\n      jump\t// out\n        /* \"AllContracts.sol\":15116:15199  function replayGame(uint gameID) public onlyOwner {... */\n    tag_150:\n        /* \"AllContracts.sol\":1141:1153  _msgSender() */\n      tag_271\n        /* \"AllContracts.sol\":1141:1151  _msgSender */\n      tag_153\n        /* \"AllContracts.sol\":1141:1153  _msgSender() */\n      jump\t// in\n    tag_271:\n        /* \"AllContracts.sol\":1131:1153  _owner == _msgSender() */\n      0xffffffffffffffffffffffffffffffffffffffff\n      and\n        /* \"AllContracts.sol\":1131:1137  _owner */\n      0x03\n      0x00\n      swap1\n      sload\n      swap1\n      0x0100\n      exp\n      swap1\n      div\n      0xffffffffffffffffffffffffffffffffffffffff\n      and\n        /* \"AllContracts.sol\":1131:1153  _owner == _msgSender() */\n      0xffffffffffffffffffffffffffffffffffffffff\n      and\n      eq\n        /* \"AllContracts.sol\":1123:1190  require(_owner == _msgSender(), \"Ownable: caller is not the owner\") */\n      tag_272\n      jumpi\n      mload(0x40)\n      0x08c379a000000000000000000000000000000000000000000000000000000000\n      dup2\n      mstore\n      0x04\n      add\n      dup1\n      dup1\n      0x20\n      add\n      dup3\n      dup2\n      sub\n      dup3\n      mstore\n      0x20\n      dup2\n      mstore\n      0x20\n      add\n      dup1\n      0x4f776e61626c653a2063616c6c6572206973206e6f7420746865206f776e6572\n      dup2\n      mstore\n      pop\n      0x20\n      add\n      swap2\n      pop\n      pop\n      mload(0x40)\n      dup1\n      swap2\n      sub\n      swap1\n      revert\n    tag_272:\n        /* \"AllContracts.sol\":15176:15192  playGame(gameID) */\n      tag_274\n        /* \"AllContracts.sol\":15185:15191  gameID */\n      dup2\n        /* \"AllContracts.sol\":15176:15184  playGame */\n      tag_225\n        /* \"AllContracts.sol\":15176:15192  playGame(gameID) */\n      jump\t// in\n    tag_274:\n        /* \"AllContracts.sol\":15116:15199  function replayGame(uint gameID) public onlyOwner {... */\n      pop\n      jump\t// out\n        /* \"AllContracts.sol\":90:194  function _msgSender() internal view virtual returns (address payable) {... */\n    tag_153:\n        /* \"AllContracts.sol\":143:158  address payable */\n      0x00\n        /* \"AllContracts.sol\":177:187  msg.sender */\n      caller\n        /* \"AllContracts.sol\":170:187  return msg.sender */\n      swap1\n      pop\n        /* \"AllContracts.sol\":90:194  function _msgSender() internal view virtual returns (address payable) {... */\n      swap1\n      jump\t// out\n        /* \"AllContracts.sol\":2454:2668  function mul(uint256 a, uint256 b) internal pure returns (uint256) {... */\n    tag_171:\n        /* \"AllContracts.sol\":2512:2519  uint256 */\n      0x00\n        /* \"AllContracts.sol\":2537:2538  0 */\n      dup1\n        /* \"AllContracts.sol\":2532:2533  a */\n      dup4\n        /* \"AllContracts.sol\":2532:2538  a == 0 */\n      eq\n        /* \"AllContracts.sol\":2528:2563  if (a == 0) {... */\n      iszero\n      tag_277\n      jumpi\n        /* \"AllContracts.sol\":2555:2556  0 */\n      0x00\n        /* \"AllContracts.sol\":2548:2556  return 0 */\n      swap1\n      pop\n      jump(tag_276)\n        /* \"AllContracts.sol\":2528:2563  if (a == 0) {... */\n    tag_277:\n        /* \"AllContracts.sol\":2569:2578  uint256 c */\n      0x00\n        /* \"AllContracts.sol\":2585:2586  b */\n      dup3\n        /* \"AllContracts.sol\":2581:2582  a */\n      dup5\n        /* \"AllContracts.sol\":2581:2586  a * b */\n      mul\n        /* \"AllContracts.sol\":2569:2586  uint256 c = a * b */\n      swap1\n      pop\n        /* \"AllContracts.sol\":2609:2610  b */\n      dup3\n        /* \"AllContracts.sol\":2604:2605  a */\n      dup5\n        /* \"AllContracts.sol\":2600:2601  c */\n      dup3\n        /* \"AllContracts.sol\":2600:2605  c / a */\n      dup2\n      tag_278\n      jumpi\n      invalid\n    tag_278:\n      div\n        /* \"AllContracts.sol\":2600:2610  c / a == b */\n      eq\n        /* \"AllContracts.sol\":2592:2648  require(c / a == b, \"SafeMath: multiplication overflow\") */\n      tag_279\n      jumpi\n      mload(0x40)\n      0x08c379a000000000000000000000000000000000000000000000000000000000\n      dup2\n      mstore\n      0x04\n      add\n      dup1\n      dup1\n      0x20\n      add\n      dup3\n      dup2\n      sub\n      dup3\n      mstore\n      0x21\n      dup2\n      mstore\n      0x20\n      add\n      dup1\n      data_9113bb53c2876a3805b2c9242029423fc540a728243ce887ab24c82cf119fba3\n      0x21\n      swap2\n      codecopy\n      0x40\n      add\n      swap2\n      pop\n      pop\n      mload(0x40)\n      dup1\n      swap2\n      sub\n      swap1\n      revert\n    tag_279:\n        /* \"AllContracts.sol\":2662:2663  c */\n      dup1\n        /* \"AllContracts.sol\":2655:2663  return c */\n      swap2\n      pop\n      pop\n        /* \"AllContracts.sol\":2454:2668  function mul(uint256 a, uint256 b) internal pure returns (uint256) {... */\n    tag_276:\n      swap3\n      swap2\n      pop\n      pop\n      jump\t// out\n        /* \"AllContracts.sol\":11384:12833  function fulfillRandomness(bytes32 requestId, uint256 randomness) internal override {... */\n    tag_190:\n        /* \"AllContracts.sol\":11515:11529  Game storage g */\n      0x00\n        /* \"AllContracts.sol\":11532:11537  games */\n      0x19\n        /* \"AllContracts.sol\":11532:11563  games[_gameRequests[requestId]] */\n      0x00\n        /* \"AllContracts.sol\":11538:11551  _gameRequests */\n      0x1a\n        /* \"AllContracts.sol\":11538:11562  _gameRequests[requestId] */\n      0x00\n        /* \"AllContracts.sol\":11552:11561  requestId */\n      dup7\n        /* \"AllContracts.sol\":11538:11562  _gameRequests[requestId] */\n      dup2\n      mstore\n      0x20\n      add\n      swap1\n      dup2\n      mstore\n      0x20\n      add\n      0x00\n      keccak256\n      sload\n        /* \"AllContracts.sol\":11532:11563  games[_gameRequests[requestId]] */\n      dup2\n      mstore\n      0x20\n      add\n      swap1\n      dup2\n      mstore\n      0x20\n      add\n      0x00\n      keccak256\n        /* \"AllContracts.sol\":11515:11563  Game storage g = games[_gameRequests[requestId]] */\n      swap1\n      pop\n        /* \"AllContracts.sol\":11583:11584  0 */\n      0x00\n        /* \"AllContracts.sol\":11576:11577  g */\n      dup2\n        /* \"AllContracts.sol\":11576:11580  g.id */\n      0x00\n      add\n      sload\n        /* \"AllContracts.sol\":11576:11584  g.id > 0 */\n      gt\n        /* \"AllContracts.sol\":11573:12646  if(g.id > 0){... */\n      iszero\n      tag_281\n      jumpi\n        /* \"AllContracts.sol\":11610:11616  maxBet */\n      sload(0x11)\n        /* \"AllContracts.sol\":11602:11603  g */\n      dup2\n        /* \"AllContracts.sol\":11602:11607  g.bet */\n      0x02\n      add\n      sload\n        /* \"AllContracts.sol\":11602:11616  g.bet > maxBet */\n      gt\n        /* \"AllContracts.sol\":11599:11812  if(g.bet > maxBet) {... */\n      iszero\n      tag_282\n      jumpi\n        /* \"AllContracts.sol\":11644:11650  maxBet */\n      sload(0x11)\n        /* \"AllContracts.sol\":11636:11637  g */\n      dup2\n        /* \"AllContracts.sol\":11636:11641  g.bet */\n      0x02\n      add\n        /* \"AllContracts.sol\":11636:11650  g.bet = maxBet */\n      dup2\n      swap1\n      sstore\n      pop\n        /* \"AllContracts.sol\":11599:11812  if(g.bet > maxBet) {... */\n    tag_282:\n        /* \"AllContracts.sol\":11825:11841  uint totalPayout */\n      0x00\n        /* \"AllContracts.sol\":11864:11865  g */\n      dup2\n        /* \"AllContracts.sol\":11864:11869  g.bet */\n      0x02\n      add\n      sload\n        /* \"AllContracts.sol\":11844:11861  g.bet.mul(payout) */\n      tag_283\n        /* \"AllContracts.sol\":11854:11860  payout */\n      sload(0x16)\n        /* \"AllContracts.sol\":11844:11845  g */\n      dup5\n        /* \"AllContracts.sol\":11844:11849  g.bet */\n      0x02\n      add\n      sload\n        /* \"AllContracts.sol\":11844:11853  g.bet.mul */\n      tag_171\n      swap1\n        /* \"AllContracts.sol\":11844:11861  g.bet.mul(payout) */\n      swap2\n      swap1\n      0xffffffff\n      and\n      jump\t// in\n    tag_283:\n        /* \"AllContracts.sol\":11844:11869  g.bet.mul(payout) + g.bet */\n      add\n        /* \"AllContracts.sol\":11825:11869  uint totalPayout = g.bet.mul(payout) + g.bet */\n      swap1\n      pop\n        /* \"AllContracts.sol\":11916:11927  totalPayout */\n      dup1\n        /* \"AllContracts.sol\":11891:11912  address(this).balance */\n      selfbalance\n        /* \"AllContracts.sol\":11891:11927  address(this).balance >= totalPayout */\n      lt\n      iszero\n        /* \"AllContracts.sol\":11883:11983  require(address(this).balance >= totalPayout, \"Unable to pay. Please play again or request refund.\") */\n      tag_284\n      jumpi\n      mload(0x40)\n      0x08c379a000000000000000000000000000000000000000000000000000000000\n      dup2\n      mstore\n      0x04\n      add\n      dup1\n      dup1\n      0x20\n      add\n      dup3\n      dup2\n      sub\n      dup3\n      mstore\n      0x33\n      dup2\n      mstore\n      0x20\n      add\n      dup1\n      data_ef92889bcd3368ac0e5c94a5c325c5cf21da03eb1576ee7d446327960d5fae81\n      0x33\n      swap2\n      codecopy\n      0x40\n      add\n      swap2\n      pop\n      pop\n      mload(0x40)\n      dup1\n      swap2\n      sub\n      swap1\n      revert\n    tag_284:\n        /* \"AllContracts.sol\":12055:12085  randomness.mod(maxPick.add(1)) */\n      tag_285\n        /* \"AllContracts.sol\":12070:12084  maxPick.add(1) */\n      tag_286\n        /* \"AllContracts.sol\":12082:12083  1 */\n      0x01\n        /* \"AllContracts.sol\":12070:12077  maxPick */\n      sload(0x10)\n        /* \"AllContracts.sol\":12070:12081  maxPick.add */\n      tag_221\n      swap1\n        /* \"AllContracts.sol\":12070:12084  maxPick.add(1) */\n      swap2\n      swap1\n      0xffffffff\n      and\n      jump\t// in\n    tag_286:\n        /* \"AllContracts.sol\":12055:12065  randomness */\n      dup5\n        /* \"AllContracts.sol\":12055:12069  randomness.mod */\n      tag_287\n      swap1\n        /* \"AllContracts.sol\":12055:12085  randomness.mod(maxPick.add(1)) */\n      swap2\n      swap1\n      0xffffffff\n      and\n      jump\t// in\n    tag_285:\n        /* \"AllContracts.sol\":12044:12045  g */\n      dup3\n        /* \"AllContracts.sol\":12044:12052  g.winner */\n      0x04\n      add\n        /* \"AllContracts.sol\":12044:12085  g.winner = randomness.mod(maxPick.add(1)) */\n      dup2\n      swap1\n      sstore\n      pop\n        /* \"AllContracts.sol\":12145:12149  true */\n      0x01\n        /* \"AllContracts.sol\":12134:12135  g */\n      dup3\n        /* \"AllContracts.sol\":12134:12142  g.played */\n      0x05\n      add\n      0x00\n        /* \"AllContracts.sol\":12134:12149  g.played = true */\n      0x0100\n      exp\n      dup2\n      sload\n      dup2\n      0xff\n      mul\n      not\n      and\n      swap1\n      dup4\n      iszero\n      iszero\n      mul\n      or\n      swap1\n      sstore\n      pop\n        /* \"AllContracts.sol\":12225:12226  g */\n      dup2\n        /* \"AllContracts.sol\":12225:12230  g.bet */\n      0x02\n      add\n      sload\n        /* \"AllContracts.sol\":12208:12221  _unplayedBets */\n      sload(0x13)\n        /* \"AllContracts.sol\":12208:12230  _unplayedBets >= g.bet */\n      lt\n        /* \"AllContracts.sol\":12205:12343  if(_unplayedBets >= g.bet) {... */\n      tag_288\n      jumpi\n        /* \"AllContracts.sol\":12267:12268  g */\n      dup2\n        /* \"AllContracts.sol\":12267:12272  g.bet */\n      0x02\n      add\n      sload\n        /* \"AllContracts.sol\":12250:12263  _unplayedBets */\n      0x13\n      0x00\n        /* \"AllContracts.sol\":12250:12272  _unplayedBets -= g.bet */\n      dup3\n      dup3\n      sload\n      sub\n      swap3\n      pop\n      pop\n      dup2\n      swap1\n      sstore\n      pop\n        /* \"AllContracts.sol\":12205:12343  if(_unplayedBets >= g.bet) {... */\n      jump(tag_289)\n    tag_288:\n        /* \"AllContracts.sol\":12327:12328  0 */\n      0x00\n        /* \"AllContracts.sol\":12311:12324  _unplayedBets */\n      0x13\n        /* \"AllContracts.sol\":12311:12328  _unplayedBets = 0 */\n      dup2\n      swap1\n      sstore\n      pop\n        /* \"AllContracts.sol\":12205:12343  if(_unplayedBets >= g.bet) {... */\n    tag_289:\n        /* \"AllContracts.sol\":12431:12432  g */\n      dup2\n        /* \"AllContracts.sol\":12431:12439  g.winner */\n      0x04\n      add\n      sload\n        /* \"AllContracts.sol\":12421:12422  g */\n      dup3\n        /* \"AllContracts.sol\":12421:12427  g.pick */\n      0x03\n      add\n      sload\n        /* \"AllContracts.sol\":12421:12439  g.pick == g.winner */\n      eq\n        /* \"AllContracts.sol\":12417:12558  if (g.pick == g.winner) {... */\n      iszero\n      tag_290\n      jumpi\n        /* \"AllContracts.sol\":12459:12460  g */\n      dup2\n        /* \"AllContracts.sol\":12459:12467  g.player */\n      0x01\n      add\n      0x00\n      swap1\n      sload\n      swap1\n      0x0100\n      exp\n      swap1\n      div\n      0xffffffffffffffffffffffffffffffffffffffff\n      and\n        /* \"AllContracts.sol\":12459:12476  g.player.transfer */\n      0xffffffffffffffffffffffffffffffffffffffff\n      and\n        /* \"AllContracts.sol\":12459:12489  g.player.transfer(totalPayout) */\n      0x08fc\n        /* \"AllContracts.sol\":12477:12488  totalPayout */\n      dup3\n        /* \"AllContracts.sol\":12459:12489  g.player.transfer(totalPayout) */\n      swap1\n      dup2\n      iszero\n      mul\n      swap1\n      mload(0x40)\n      0x00\n      mload(0x40)\n      dup1\n      dup4\n      sub\n      dup2\n      dup6\n      dup9\n      dup9\n      call\n      swap4\n      pop\n      pop\n      pop\n      pop\n      iszero\n        /* \"--CODEGEN--\":8:17   */\n      dup1\n        /* \"--CODEGEN--\":5:7   */\n      iszero\n      tag_292\n      jumpi\n        /* \"--CODEGEN--\":45:61   */\n      returndatasize\n        /* \"--CODEGEN--\":42:43   */\n      0x00\n        /* \"--CODEGEN--\":39:40   */\n      dup1\n        /* \"--CODEGEN--\":24:62   */\n      returndatacopy\n        /* \"--CODEGEN--\":77:93   */\n      returndatasize\n        /* \"--CODEGEN--\":74:75   */\n      0x00\n        /* \"--CODEGEN--\":67:94   */\n      revert\n        /* \"--CODEGEN--\":5:7   */\n    tag_292:\n        /* \"AllContracts.sol\":12459:12489  g.player.transfer(totalPayout) */\n      pop\n        /* \"AllContracts.sol\":12417:12558  if (g.pick == g.winner) {... */\n      jump(tag_293)\n    tag_290:\n        /* \"AllContracts.sol\":12542:12543  0 */\n      0x00\n        /* \"AllContracts.sol\":12528:12543  totalPayout = 0 */\n      swap1\n      pop\n        /* \"AllContracts.sol\":12417:12558  if (g.pick == g.winner) {... */\n    tag_293:\n        /* \"AllContracts.sol\":12577:12635  GamePlayed(g.player, g.bet, g.pick, g.winner, totalPayout) */\n      0xc06600d6399308f270bc6ae70d5377121b685c974bb7f7355824fddd8a2b3497\n        /* \"AllContracts.sol\":12588:12589  g */\n      dup3\n        /* \"AllContracts.sol\":12588:12596  g.player */\n      0x01\n      add\n      0x00\n      swap1\n      sload\n      swap1\n      0x0100\n      exp\n      swap1\n      div\n      0xffffffffffffffffffffffffffffffffffffffff\n      and\n        /* \"AllContracts.sol\":12598:12599  g */\n      dup4\n        /* \"AllContracts.sol\":12598:12603  g.bet */\n      0x02\n      add\n      sload\n        /* \"AllContracts.sol\":12605:12606  g */\n      dup5\n        /* \"AllContracts.sol\":12605:12611  g.pick */\n      0x03\n      add\n      sload\n        /* \"AllContracts.sol\":12613:12614  g */\n      dup6\n        /* \"AllContracts.sol\":12613:12621  g.winner */\n      0x04\n      add\n      sload\n        /* \"AllContracts.sol\":12623:12634  totalPayout */\n      dup6\n        /* \"AllContracts.sol\":12577:12635  GamePlayed(g.player, g.bet, g.pick, g.winner, totalPayout) */\n      mload(0x40)\n      dup1\n      dup7\n      0xffffffffffffffffffffffffffffffffffffffff\n      and\n      0xffffffffffffffffffffffffffffffffffffffff\n      and\n      dup2\n      mstore\n      0x20\n      add\n      dup6\n      dup2\n      mstore\n      0x20\n      add\n      dup5\n      dup2\n      mstore\n      0x20\n      add\n      dup4\n      dup2\n      mstore\n      0x20\n      add\n      dup3\n      dup2\n      mstore\n      0x20\n      add\n      swap6\n      pop\n      pop\n      pop\n      pop\n      pop\n      pop\n      mload(0x40)\n      dup1\n      swap2\n      sub\n      swap1\n      log1\n        /* \"AllContracts.sol\":11573:12646  if(g.id > 0){... */\n      pop\n    tag_281:\n        /* \"AllContracts.sol\":12662:12663  1 */\n      0x01\n        /* \"AllContracts.sol\":12655:12659  gas1 */\n      0x06\n        /* \"AllContracts.sol\":12655:12663  gas1 = 1 */\n      dup2\n      swap1\n      sstore\n      pop\n        /* \"AllContracts.sol\":12680:12681  1 */\n      0x01\n        /* \"AllContracts.sol\":12673:12677  gas2 */\n      0x07\n        /* \"AllContracts.sol\":12673:12681  gas2 = 1 */\n      dup2\n      swap1\n      sstore\n      pop\n        /* \"AllContracts.sol\":12698:12699  1 */\n      0x01\n        /* \"AllContracts.sol\":12691:12695  gas3 */\n      0x08\n        /* \"AllContracts.sol\":12691:12699  gas3 = 1 */\n      dup2\n      swap1\n      sstore\n      pop\n        /* \"AllContracts.sol\":12716:12717  1 */\n      0x01\n        /* \"AllContracts.sol\":12709:12713  gas4 */\n      0x09\n        /* \"AllContracts.sol\":12709:12717  gas4 = 1 */\n      dup2\n      swap1\n      sstore\n      pop\n        /* \"AllContracts.sol\":12734:12735  1 */\n      0x01\n        /* \"AllContracts.sol\":12727:12731  gas5 */\n      0x0a\n        /* \"AllContracts.sol\":12727:12735  gas5 = 1 */\n      dup2\n      swap1\n      sstore\n      pop\n        /* \"AllContracts.sol\":12752:12753  1 */\n      0x01\n        /* \"AllContracts.sol\":12745:12749  gas6 */\n      0x0b\n        /* \"AllContracts.sol\":12745:12753  gas6 = 1 */\n      dup2\n      swap1\n      sstore\n      pop\n        /* \"AllContracts.sol\":12770:12771  1 */\n      0x01\n        /* \"AllContracts.sol\":12763:12767  gas7 */\n      0x0c\n        /* \"AllContracts.sol\":12763:12771  gas7 = 1 */\n      dup2\n      swap1\n      sstore\n      pop\n        /* \"AllContracts.sol\":12788:12789  1 */\n      0x01\n        /* \"AllContracts.sol\":12781:12785  gas8 */\n      0x0d\n        /* \"AllContracts.sol\":12781:12789  gas8 = 1 */\n      dup2\n      swap1\n      sstore\n      pop\n        /* \"AllContracts.sol\":12806:12807  1 */\n      0x01\n        /* \"AllContracts.sol\":12799:12803  gas9 */\n      0x0e\n        /* \"AllContracts.sol\":12799:12807  gas9 = 1 */\n      dup2\n      swap1\n      sstore\n      pop\n        /* \"AllContracts.sol\":12825:12826  1 */\n      0x01\n        /* \"AllContracts.sol\":12817:12822  gas10 */\n      0x0f\n        /* \"AllContracts.sol\":12817:12826  gas10 = 1 */\n      dup2\n      swap1\n      sstore\n      pop\n        /* \"AllContracts.sol\":11384:12833  function fulfillRandomness(bytes32 requestId, uint256 randomness) internal override {... */\n      pop\n      pop\n      pop\n      jump\t// out\n        /* \"AllContracts.sol\":2119:2281  function add(uint256 a, uint256 b) internal pure returns (uint256) {... */\n    tag_221:\n        /* \"AllContracts.sol\":2177:2184  uint256 */\n      0x00\n        /* \"AllContracts.sol\":2192:2201  uint256 c */\n      dup1\n        /* \"AllContracts.sol\":2208:2209  b */\n      dup3\n        /* \"AllContracts.sol\":2204:2205  a */\n      dup5\n        /* \"AllContracts.sol\":2204:2209  a + b */\n      add\n        /* \"AllContracts.sol\":2192:2209  uint256 c = a + b */\n      swap1\n      pop\n        /* \"AllContracts.sol\":2228:2229  a */\n      dup4\n        /* \"AllContracts.sol\":2223:2224  c */\n      dup2\n        /* \"AllContracts.sol\":2223:2229  c >= a */\n      lt\n      iszero\n        /* \"AllContracts.sol\":2215:2261  require(c >= a, \"SafeMath: addition overflow\") */\n      tag_295\n      jumpi\n      mload(0x40)\n      0x08c379a000000000000000000000000000000000000000000000000000000000\n      dup2\n      mstore\n      0x04\n      add\n      dup1\n      dup1\n      0x20\n      add\n      dup3\n      dup2\n      sub\n      dup3\n      mstore\n      0x1b\n      dup2\n      mstore\n      0x20\n      add\n      dup1\n      0x536166654d6174683a206164646974696f6e206f766572666c6f770000000000\n      dup2\n      mstore\n      pop\n      0x20\n      add\n      swap2\n      pop\n      pop\n      mload(0x40)\n      dup1\n      swap2\n      sub\n      swap1\n      revert\n    tag_295:\n        /* \"AllContracts.sol\":2275:2276  c */\n      dup1\n        /* \"AllContracts.sol\":2268:2276  return c */\n      swap2\n      pop\n      pop\n        /* \"AllContracts.sol\":2119:2281  function add(uint256 a, uint256 b) internal pure returns (uint256) {... */\n      swap3\n      swap2\n      pop\n      pop\n      jump\t// out\n        /* \"AllContracts.sol\":10380:10813  function createGame(address payable _player, uint _bet, uint _pick) internal {... */\n    tag_223:\n        /* \"AllContracts.sol\":10483:10502  _currentGame.add(1) */\n      tag_297\n        /* \"AllContracts.sol\":10500:10501  1 */\n      0x01\n        /* \"AllContracts.sol\":10483:10495  _currentGame */\n      sload(0x14)\n        /* \"AllContracts.sol\":10483:10499  _currentGame.add */\n      tag_221\n      swap1\n        /* \"AllContracts.sol\":10483:10502  _currentGame.add(1) */\n      swap2\n      swap1\n      0xffffffff\n      and\n      jump\t// in\n    tag_297:\n        /* \"AllContracts.sol\":10468:10480  _currentGame */\n      0x14\n        /* \"AllContracts.sol\":10468:10502  _currentGame = _currentGame.add(1) */\n      dup2\n      swap1\n      sstore\n      pop\n        /* \"AllContracts.sol\":10512:10531  Game memory newGame */\n      tag_298\n      tag_299\n      jump\t// in\n    tag_298:\n        /* \"AllContracts.sol\":10534:10769  Game ({... */\n      mload(0x40)\n      dup1\n      0xc0\n      add\n      0x40\n      mstore\n      dup1\n        /* \"AllContracts.sol\":10558:10570  _currentGame */\n      sload(0x14)\n        /* \"AllContracts.sol\":10534:10769  Game ({... */\n      dup2\n      mstore\n      0x20\n      add\n        /* \"AllContracts.sol\":10592:10599  _player */\n      dup6\n        /* \"AllContracts.sol\":10534:10769  Game ({... */\n      0xffffffffffffffffffffffffffffffffffffffff\n      and\n      dup2\n      mstore\n      0x20\n      add\n        /* \"AllContracts.sol\":10618:10622  _bet */\n      dup5\n        /* \"AllContracts.sol\":10534:10769  Game ({... */\n      dup2\n      mstore\n      0x20\n      add\n        /* \"AllContracts.sol\":10642:10647  _pick */\n      dup4\n        /* \"AllContracts.sol\":10534:10769  Game ({... */\n      dup2\n      mstore\n      0x20\n      add\n        /* \"AllContracts.sol\":10669:10684  maxPick.add(10) */\n      tag_300\n        /* \"AllContracts.sol\":10681:10683  10 */\n      0x0a\n        /* \"AllContracts.sol\":10669:10676  maxPick */\n      sload(0x10)\n        /* \"AllContracts.sol\":10669:10680  maxPick.add */\n      tag_221\n      swap1\n        /* \"AllContracts.sol\":10669:10684  maxPick.add(10) */\n      swap2\n      swap1\n      0xffffffff\n      and\n      jump\t// in\n    tag_300:\n        /* \"AllContracts.sol\":10534:10769  Game ({... */\n      dup2\n      mstore\n      0x20\n      add\n        /* \"AllContracts.sol\":10753:10758  false */\n      0x00\n        /* \"AllContracts.sol\":10534:10769  Game ({... */\n      iszero\n      iszero\n      dup2\n      mstore\n      pop\n        /* \"AllContracts.sol\":10512:10769  Game memory newGame = Game ({... */\n      swap1\n      pop\n        /* \"AllContracts.sol\":10799:10806  newGame */\n      dup1\n        /* \"AllContracts.sol\":10779:10784  games */\n      0x19\n        /* \"AllContracts.sol\":10779:10796  games[newGame.id] */\n      0x00\n        /* \"AllContracts.sol\":10785:10792  newGame */\n      dup4\n        /* \"AllContracts.sol\":10785:10795  newGame.id */\n      0x00\n      add\n      mload\n        /* \"AllContracts.sol\":10779:10796  games[newGame.id] */\n      dup2\n      mstore\n      0x20\n      add\n      swap1\n      dup2\n      mstore\n      0x20\n      add\n      0x00\n      keccak256\n        /* \"AllContracts.sol\":10779:10806  games[newGame.id] = newGame */\n      0x00\n      dup3\n      add\n      mload\n      dup2\n      0x00\n      add\n      sstore\n      0x20\n      dup3\n      add\n      mload\n      dup2\n      0x01\n      add\n      exp(0x0100, 0x00)\n      dup2\n      sload\n      dup2\n      0xffffffffffffffffffffffffffffffffffffffff\n      mul\n      not\n      and\n      swap1\n      dup4\n      0xffffffffffffffffffffffffffffffffffffffff\n      and\n      mul\n      or\n      swap1\n      sstore\n      pop\n      0x40\n      dup3\n      add\n      mload\n      dup2\n      0x02\n      add\n      sstore\n      0x60\n      dup3\n      add\n      mload\n      dup2\n      0x03\n      add\n      sstore\n      0x80\n      dup3\n      add\n      mload\n      dup2\n      0x04\n      add\n      sstore\n      0xa0\n      dup3\n      add\n      mload\n      dup2\n      0x05\n      add\n      exp(0x0100, 0x00)\n      dup2\n      sload\n      dup2\n      0xff\n      mul\n      not\n      and\n      swap1\n      dup4\n      iszero\n      iszero\n      mul\n      or\n      swap1\n      sstore\n      pop\n      swap1\n      pop\n      pop\n        /* \"AllContracts.sol\":10380:10813  function createGame(address payable _player, uint _bet, uint _pick) internal {... */\n      pop\n      pop\n      pop\n      pop\n      jump\t// out\n        /* \"AllContracts.sol\":10902:11162  function playGame(uint gameID) internal {... */\n    tag_225:\n        /* \"AllContracts.sol\":10984:10989  false */\n      0x00\n        /* \"AllContracts.sol\":10960:10989  games[gameID].played == false */\n      iszero\n      iszero\n        /* \"AllContracts.sol\":10960:10965  games */\n      0x19\n        /* \"AllContracts.sol\":10960:10973  games[gameID] */\n      0x00\n        /* \"AllContracts.sol\":10966:10972  gameID */\n      dup4\n        /* \"AllContracts.sol\":10960:10973  games[gameID] */\n      dup2\n      mstore\n      0x20\n      add\n      swap1\n      dup2\n      mstore\n      0x20\n      add\n      0x00\n      keccak256\n        /* \"AllContracts.sol\":10960:10980  games[gameID].played */\n      0x05\n      add\n      0x00\n      swap1\n      sload\n      swap1\n      0x0100\n      exp\n      swap1\n      div\n      0xff\n      and\n        /* \"AllContracts.sol\":10960:10989  games[gameID].played == false */\n      iszero\n      iszero\n      eq\n        /* \"AllContracts.sol\":10952:11013  require(games[gameID].played == false, \"game already played\") */\n      tag_302\n      jumpi\n      mload(0x40)\n      0x08c379a000000000000000000000000000000000000000000000000000000000\n      dup2\n      mstore\n      0x04\n      add\n      dup1\n      dup1\n      0x20\n      add\n      dup3\n      dup2\n      sub\n      dup3\n      mstore\n      0x13\n      dup2\n      mstore\n      0x20\n      add\n      dup1\n      0x67616d6520616c726561647920706c6179656400000000000000000000000000\n      dup2\n      mstore\n      pop\n      0x20\n      add\n      swap2\n      pop\n      pop\n      mload(0x40)\n      dup1\n      swap2\n      sub\n      swap1\n      revert\n    tag_302:\n        /* \"AllContracts.sol\":11052:11061  uint seed */\n      0x00\n        /* \"AllContracts.sol\":11064:11069  12345 */\n      0x3039\n        /* \"AllContracts.sol\":11052:11069  uint seed = 12345 */\n      swap1\n      pop\n        /* \"AllContracts.sol\":11079:11092  bytes32 reqID */\n      0x00\n        /* \"AllContracts.sol\":11095:11116  getRandomNumber(seed) */\n      tag_303\n        /* \"AllContracts.sol\":11111:11115  seed */\n      dup3\n        /* \"AllContracts.sol\":11095:11110  getRandomNumber */\n      tag_304\n        /* \"AllContracts.sol\":11095:11116  getRandomNumber(seed) */\n      jump\t// in\n    tag_303:\n        /* \"AllContracts.sol\":11079:11116  bytes32 reqID = getRandomNumber(seed) */\n      swap1\n      pop\n        /* \"AllContracts.sol\":11149:11155  gameID */\n      dup3\n        /* \"AllContracts.sol\":11126:11139  _gameRequests */\n      0x1a\n        /* \"AllContracts.sol\":11126:11146  _gameRequests[reqID] */\n      0x00\n        /* \"AllContracts.sol\":11140:11145  reqID */\n      dup4\n        /* \"AllContracts.sol\":11126:11146  _gameRequests[reqID] */\n      dup2\n      mstore\n      0x20\n      add\n      swap1\n      dup2\n      mstore\n      0x20\n      add\n      0x00\n      keccak256\n        /* \"AllContracts.sol\":11126:11155  _gameRequests[reqID] = gameID */\n      dup2\n      swap1\n      sstore\n      pop\n        /* \"AllContracts.sol\":10902:11162  function playGame(uint gameID) internal {... */\n      pop\n      pop\n      pop\n      jump\t// out\n        /* \"AllContracts.sol\":2285:2450  function sub(uint256 a, uint256 b) internal pure returns (uint256) {... */\n    tag_231:\n        /* \"AllContracts.sol\":2343:2350  uint256 */\n      0x00\n        /* \"AllContracts.sol\":2371:2372  a */\n      dup3\n        /* \"AllContracts.sol\":2366:2367  b */\n      dup3\n        /* \"AllContracts.sol\":2366:2372  b <= a */\n      gt\n      iszero\n        /* \"AllContracts.sol\":2358:2407  require(b <= a, \"SafeMath: subtraction overflow\") */\n      tag_306\n      jumpi\n      mload(0x40)\n      0x08c379a000000000000000000000000000000000000000000000000000000000\n      dup2\n      mstore\n      0x04\n      add\n      dup1\n      dup1\n      0x20\n      add\n      dup3\n      dup2\n      sub\n      dup3\n      mstore\n      0x1e\n      dup2\n      mstore\n      0x20\n      add\n      dup1\n      0x536166654d6174683a207375627472616374696f6e206f766572666c6f770000\n      dup2\n      mstore\n      pop\n      0x20\n      add\n      swap2\n      pop\n      pop\n      mload(0x40)\n      dup1\n      swap2\n      sub\n      swap1\n      revert\n    tag_306:\n        /* \"AllContracts.sol\":2413:2422  uint256 c */\n      0x00\n        /* \"AllContracts.sol\":2429:2430  b */\n      dup3\n        /* \"AllContracts.sol\":2425:2426  a */\n      dup5\n        /* \"AllContracts.sol\":2425:2430  a - b */\n      sub\n        /* \"AllContracts.sol\":2413:2430  uint256 c = a - b */\n      swap1\n      pop\n        /* \"AllContracts.sol\":2444:2445  c */\n      dup1\n        /* \"AllContracts.sol\":2437:2445  return c */\n      swap2\n      pop\n      pop\n        /* \"AllContracts.sol\":2285:2450  function sub(uint256 a, uint256 b) internal pure returns (uint256) {... */\n      swap3\n      swap2\n      pop\n      pop\n      jump\t// out\n        /* \"AllContracts.sol\":8421:8572  function betPayable(uint bet) internal view returns(bool){... */\n    tag_256:\n        /* \"AllContracts.sol\":8473:8477  bool */\n      0x00\n        /* \"AllContracts.sol\":8540:8564  bet.mul(payout).add(bet) */\n      tag_308\n        /* \"AllContracts.sol\":8560:8563  bet */\n      dup3\n        /* \"AllContracts.sol\":8540:8555  bet.mul(payout) */\n      tag_309\n        /* \"AllContracts.sol\":8548:8554  payout */\n      sload(0x16)\n        /* \"AllContracts.sol\":8540:8543  bet */\n      dup6\n        /* \"AllContracts.sol\":8540:8547  bet.mul */\n      tag_171\n      swap1\n        /* \"AllContracts.sol\":8540:8555  bet.mul(payout) */\n      swap2\n      swap1\n      0xffffffff\n      and\n      jump\t// in\n    tag_309:\n        /* \"AllContracts.sol\":8540:8559  bet.mul(payout).add */\n      tag_221\n      swap1\n        /* \"AllContracts.sol\":8540:8564  bet.mul(payout).add(bet) */\n      swap2\n      swap1\n      0xffffffff\n      and\n      jump\t// in\n    tag_308:\n        /* \"AllContracts.sol\":8496:8536  address(this).balance.sub(_unplayedBets) */\n      tag_310\n        /* \"AllContracts.sol\":8522:8535  _unplayedBets */\n      sload(0x13)\n        /* \"AllContracts.sol\":8496:8517  address(this).balance */\n      selfbalance\n        /* \"AllContracts.sol\":8496:8521  address(this).balance.sub */\n      tag_231\n      swap1\n        /* \"AllContracts.sol\":8496:8536  address(this).balance.sub(_unplayedBets) */\n      swap2\n      swap1\n      0xffffffff\n      and\n      jump\t// in\n    tag_310:\n        /* \"AllContracts.sol\":8496:8564  address(this).balance.sub(_unplayedBets) >= bet.mul(payout).add(bet) */\n      lt\n      iszero\n        /* \"AllContracts.sol\":8488:8565  return (address(this).balance.sub(_unplayedBets) >= bet.mul(payout).add(bet)) */\n      swap1\n      pop\n        /* \"AllContracts.sol\":8421:8572  function betPayable(uint bet) internal view returns(bool){... */\n      swap2\n      swap1\n      pop\n      jump\t// out\n        /* \"AllContracts.sol\":7942:8415  function betInRange(uint bet) internal view returns(bool){... */\n    tag_260:\n        /* \"AllContracts.sol\":7994:7998  bool */\n      0x00\n        /* \"AllContracts.sol\":8020:8026  minBet */\n      sload(0x12)\n        /* \"AllContracts.sol\":8013:8016  bet */\n      dup3\n        /* \"AllContracts.sol\":8013:8026  bet >= minBet */\n      lt\n      iszero\n        /* \"AllContracts.sol\":8013:8043  bet >= minBet && bet <= maxBet */\n      dup1\n      iszero\n      tag_312\n      jumpi\n      pop\n        /* \"AllContracts.sol\":8037:8043  maxBet */\n      sload(0x11)\n        /* \"AllContracts.sol\":8030:8033  bet */\n      dup3\n        /* \"AllContracts.sol\":8030:8043  bet <= maxBet */\n      gt\n      iszero\n        /* \"AllContracts.sol\":8013:8043  bet >= minBet && bet <= maxBet */\n    tag_312:\n        /* \"AllContracts.sol\":8009:8409  if (bet >= minBet && bet <= maxBet) {... */\n      iszero\n      tag_313\n      jumpi\n        /* \"AllContracts.sol\":8351:8355  true */\n      0x01\n        /* \"AllContracts.sol\":8344:8355  return true */\n      swap1\n      pop\n      jump(tag_311)\n        /* \"AllContracts.sol\":8009:8409  if (bet >= minBet && bet <= maxBet) {... */\n    tag_313:\n        /* \"AllContracts.sol\":8393:8398  false */\n      0x00\n        /* \"AllContracts.sol\":8386:8398  return false */\n      swap1\n      pop\n        /* \"AllContracts.sol\":7942:8415  function betInRange(uint bet) internal view returns(bool){... */\n    tag_311:\n      swap2\n      swap1\n      pop\n      jump\t// out\n        /* \"AllContracts.sol\":2980:3119  function mod(uint256 a, uint256 b) internal pure returns (uint256) {... */\n    tag_287:\n        /* \"AllContracts.sol\":3038:3045  uint256 */\n      0x00\n        /* \"AllContracts.sol\":3066:3067  0 */\n      dup1\n        /* \"AllContracts.sol\":3061:3062  b */\n      dup3\n        /* \"AllContracts.sol\":3061:3067  b != 0 */\n      eq\n      iszero\n        /* \"AllContracts.sol\":3053:3096  require(b != 0, \"SafeMath: modulo by zero\") */\n      tag_316\n      jumpi\n      mload(0x40)\n      0x08c379a000000000000000000000000000000000000000000000000000000000\n      dup2\n      mstore\n      0x04\n      add\n      dup1\n      dup1\n      0x20\n      add\n      dup3\n      dup2\n      sub\n      dup3\n      mstore\n      0x18\n      dup2\n      mstore\n      0x20\n      add\n      dup1\n      0x536166654d6174683a206d6f64756c6f206279207a65726f0000000000000000\n      dup2\n      mstore\n      pop\n      0x20\n      add\n      swap2\n      pop\n      pop\n      mload(0x40)\n      dup1\n      swap2\n      sub\n      swap1\n      revert\n    tag_316:\n        /* \"AllContracts.sol\":3113:3114  b */\n      dup2\n        /* \"AllContracts.sol\":3109:3110  a */\n      dup4\n        /* \"AllContracts.sol\":3109:3114  a % b */\n      dup2\n      tag_317\n      jumpi\n      invalid\n    tag_317:\n      mod\n        /* \"AllContracts.sol\":3102:3114  return a % b */\n      swap1\n      pop\n        /* \"AllContracts.sol\":2980:3119  function mod(uint256 a, uint256 b) internal pure returns (uint256) {... */\n      swap3\n      swap2\n      pop\n      pop\n      jump\t// out\n        /* \"AllContracts.sol\":11168:11378  function getRandomNumber(uint256 seed) internal returns (bytes32 requestId) {... */\n    tag_304:\n        /* \"AllContracts.sol\":11225:11242  bytes32 requestId */\n      0x00\n        /* \"AllContracts.sol\":11294:11297  fee */\n      sload(0x05)\n        /* \"AllContracts.sol\":11262:11266  LINK */\n      0x00\n      dup1\n      swap1\n      sload\n      swap1\n      0x0100\n      exp\n      swap1\n      div\n      0xffffffffffffffffffffffffffffffffffffffff\n      and\n        /* \"AllContracts.sol\":11262:11276  LINK.balanceOf */\n      0xffffffffffffffffffffffffffffffffffffffff\n      and\n      0x70a08231\n        /* \"AllContracts.sol\":11285:11289  this */\n      address\n        /* \"AllContracts.sol\":11262:11291  LINK.balanceOf(address(this)) */\n      mload(0x40)\n      dup3\n      0xffffffff\n      and\n      0xe0\n      shl\n      dup2\n      mstore\n      0x04\n      add\n      dup1\n      dup3\n      0xffffffffffffffffffffffffffffffffffffffff\n      and\n      0xffffffffffffffffffffffffffffffffffffffff\n      and\n      dup2\n      mstore\n      0x20\n      add\n      swap2\n      pop\n      pop\n      0x20\n      mload(0x40)\n      dup1\n      dup4\n      sub\n      dup2\n      dup7\n      dup1\n      extcodesize\n      iszero\n        /* \"--CODEGEN--\":8:17   */\n      dup1\n        /* \"--CODEGEN--\":5:7   */\n      iszero\n      tag_319\n      jumpi\n        /* \"--CODEGEN--\":30:31   */\n      0x00\n        /* \"--CODEGEN--\":27:28   */\n      dup1\n        /* \"--CODEGEN--\":20:32   */\n      revert\n        /* \"--CODEGEN--\":5:7   */\n    tag_319:\n        /* \"AllContracts.sol\":11262:11291  LINK.balanceOf(address(this)) */\n      pop\n      gas\n      staticcall\n      iszero\n        /* \"--CODEGEN--\":8:17   */\n      dup1\n        /* \"--CODEGEN--\":5:7   */\n      iszero\n      tag_321\n      jumpi\n        /* \"--CODEGEN--\":45:61   */\n      returndatasize\n        /* \"--CODEGEN--\":42:43   */\n      0x00\n        /* \"--CODEGEN--\":39:40   */\n      dup1\n        /* \"--CODEGEN--\":24:62   */\n      returndatacopy\n        /* \"--CODEGEN--\":77:93   */\n      returndatasize\n        /* \"--CODEGEN--\":74:75   */\n      0x00\n        /* \"--CODEGEN--\":67:94   */\n      revert\n        /* \"--CODEGEN--\":5:7   */\n    tag_321:\n        /* \"AllContracts.sol\":11262:11291  LINK.balanceOf(address(this)) */\n      pop\n      pop\n      pop\n      pop\n      mload(0x40)\n      returndatasize\n        /* \"--CODEGEN--\":13:15   */\n      0x20\n        /* \"--CODEGEN--\":8:11   */\n      dup2\n        /* \"--CODEGEN--\":5:16   */\n      lt\n        /* \"--CODEGEN--\":2:4   */\n      iszero\n      tag_322\n      jumpi\n        /* \"--CODEGEN--\":29:30   */\n      0x00\n        /* \"--CODEGEN--\":26:27   */\n      dup1\n        /* \"--CODEGEN--\":19:31   */\n      revert\n        /* \"--CODEGEN--\":2:4   */\n    tag_322:\n        /* \"AllContracts.sol\":11262:11291  LINK.balanceOf(address(this)) */\n      dup2\n      add\n      swap1\n      dup1\n      dup1\n      mload\n      swap1\n      0x20\n      add\n      swap1\n      swap3\n      swap2\n      swap1\n      pop\n      pop\n      pop\n        /* \"AllContracts.sol\":11262:11297  LINK.balanceOf(address(this)) > fee */\n      gt\n        /* \"AllContracts.sol\":11254:11317  require(LINK.balanceOf(address(this)) > fee, \"Not enough LINK\") */\n      tag_323\n      jumpi\n      mload(0x40)\n      0x08c379a000000000000000000000000000000000000000000000000000000000\n      dup2\n      mstore\n      0x04\n      add\n      dup1\n      dup1\n      0x20\n      add\n      dup3\n      dup2\n      sub\n      dup3\n      mstore\n      0x0f\n      dup2\n      mstore\n      0x20\n      add\n      dup1\n      0x4e6f7420656e6f756768204c494e4b0000000000000000000000000000000000\n      dup2\n      mstore\n      pop\n      0x20\n      add\n      swap2\n      pop\n      pop\n      mload(0x40)\n      dup1\n      swap2\n      sub\n      swap1\n      revert\n    tag_323:\n        /* \"AllContracts.sol\":11334:11371  requestRandomness(keyHash, fee, seed) */\n      tag_324\n        /* \"AllContracts.sol\":11352:11359  keyHash */\n      sload(0x04)\n        /* \"AllContracts.sol\":11361:11364  fee */\n      sload(0x05)\n        /* \"AllContracts.sol\":11366:11370  seed */\n      dup5\n        /* \"AllContracts.sol\":11334:11351  requestRandomness */\n      tag_325\n        /* \"AllContracts.sol\":11334:11371  requestRandomness(keyHash, fee, seed) */\n      jump\t// in\n    tag_324:\n        /* \"AllContracts.sol\":11327:11371  return requestRandomness(keyHash, fee, seed) */\n      swap1\n      pop\n        /* \"AllContracts.sol\":11168:11378  function getRandomNumber(uint256 seed) internal returns (bytes32 requestId) {... */\n      swap2\n      swap1\n      pop\n      jump\t// out\n        /* \"AllContracts.sol\":4790:5175  function requestRandomness(bytes32 _keyHash, uint256 _fee, uint256 _seed)... */\n    tag_325:\n        /* \"AllContracts.sol\":4886:4903  bytes32 requestId */\n      0x00\n        /* \"AllContracts.sol\":4913:4917  LINK */\n      dup1\n      0x00\n      swap1\n      sload\n      swap1\n      0x0100\n      exp\n      swap1\n      div\n      0xffffffffffffffffffffffffffffffffffffffff\n      and\n        /* \"AllContracts.sol\":4913:4933  LINK.transferAndCall */\n      0xffffffffffffffffffffffffffffffffffffffff\n      and\n      0x4000aea0\n        /* \"AllContracts.sol\":4934:4948  vrfCoordinator */\n      0x01\n      0x00\n      swap1\n      sload\n      swap1\n      0x0100\n      exp\n      swap1\n      div\n      0xffffffffffffffffffffffffffffffffffffffff\n      and\n        /* \"AllContracts.sol\":4950:4954  _fee */\n      dup6\n        /* \"AllContracts.sol\":4967:4975  _keyHash */\n      dup8\n        /* \"AllContracts.sol\":4977:4982  _seed */\n      dup7\n        /* \"AllContracts.sol\":4956:4983  abi.encode(_keyHash, _seed) */\n      add(0x20, mload(0x40))\n      dup1\n      dup4\n      dup2\n      mstore\n      0x20\n      add\n      dup3\n      dup2\n      mstore\n      0x20\n      add\n      swap3\n      pop\n      pop\n      pop\n      mload(0x40)\n        /* \"--CODEGEN--\":49:53   */\n      0x20\n        /* \"--CODEGEN--\":39:46   */\n      dup2\n        /* \"--CODEGEN--\":30:37   */\n      dup4\n        /* \"--CODEGEN--\":26:47   */\n      sub\n        /* \"--CODEGEN--\":22:54   */\n      sub\n        /* \"--CODEGEN--\":13:20   */\n      dup2\n        /* \"--CODEGEN--\":6:55   */\n      mstore\n        /* \"AllContracts.sol\":4956:4983  abi.encode(_keyHash, _seed) */\n      swap1\n      0x40\n      mstore\n        /* \"AllContracts.sol\":4913:4984  LINK.transferAndCall(vrfCoordinator, _fee, abi.encode(_keyHash, _seed)) */\n      mload(0x40)\n      dup5\n      0xffffffff\n      and\n      0xe0\n      shl\n      dup2\n      mstore\n      0x04\n      add\n      dup1\n      dup5\n      0xffffffffffffffffffffffffffffffffffffffff\n      and\n      0xffffffffffffffffffffffffffffffffffffffff\n      and\n      dup2\n      mstore\n      0x20\n      add\n      dup4\n      dup2\n      mstore\n      0x20\n      add\n      dup1\n      0x20\n      add\n      dup3\n      dup2\n      sub\n      dup3\n      mstore\n      dup4\n      dup2\n      dup2\n      mload\n      dup2\n      mstore\n      0x20\n      add\n      swap2\n      pop\n      dup1\n      mload\n      swap1\n      0x20\n      add\n      swap1\n      dup1\n      dup4\n      dup4\n        /* \"--CODEGEN--\":23:24   */\n      0x00\n        /* \"--CODEGEN--\":8:108   */\n    tag_327:\n        /* \"--CODEGEN--\":33:36   */\n      dup4\n        /* \"--CODEGEN--\":30:31   */\n      dup2\n        /* \"--CODEGEN--\":27:37   */\n      lt\n        /* \"--CODEGEN--\":8:108   */\n      iszero\n      tag_329\n      jumpi\n        /* \"--CODEGEN--\":99:100   */\n      dup1\n        /* \"--CODEGEN--\":94:97   */\n      dup3\n        /* \"--CODEGEN--\":90:101   */\n      add\n        /* \"--CODEGEN--\":84:102   */\n      mload\n        /* \"--CODEGEN--\":80:81   */\n      dup2\n        /* \"--CODEGEN--\":75:78   */\n      dup5\n        /* \"--CODEGEN--\":71:82   */\n      add\n        /* \"--CODEGEN--\":64:103   */\n      mstore\n        /* \"--CODEGEN--\":52:54   */\n      0x20\n        /* \"--CODEGEN--\":49:50   */\n      dup2\n        /* \"--CODEGEN--\":45:55   */\n      add\n        /* \"--CODEGEN--\":40:55   */\n      swap1\n      pop\n        /* \"--CODEGEN--\":8:108   */\n      jump(tag_327)\n    tag_329:\n        /* \"--CODEGEN--\":12:26   */\n      pop\n        /* \"AllContracts.sol\":4913:4984  LINK.transferAndCall(vrfCoordinator, _fee, abi.encode(_keyHash, _seed)) */\n      pop\n      pop\n      pop\n      swap1\n      pop\n      swap1\n      dup2\n      add\n      swap1\n      0x1f\n      and\n      dup1\n      iszero\n      tag_330\n      jumpi\n      dup1\n      dup3\n      sub\n      dup1\n      mload\n      0x01\n      dup4\n      0x20\n      sub\n      0x0100\n      exp\n      sub\n      not\n      and\n      dup2\n      mstore\n      0x20\n      add\n      swap2\n      pop\n    tag_330:\n      pop\n      swap5\n      pop\n      pop\n      pop\n      pop\n      pop\n      0x20\n      mload(0x40)\n      dup1\n      dup4\n      sub\n      dup2\n      0x00\n      dup8\n      dup1\n      extcodesize\n      iszero\n        /* \"--CODEGEN--\":8:17   */\n      dup1\n        /* \"--CODEGEN--\":5:7   */\n      iszero\n      tag_331\n      jumpi\n        /* \"--CODEGEN--\":30:31   */\n      0x00\n        /* \"--CODEGEN--\":27:28   */\n      dup1\n        /* \"--CODEGEN--\":20:32   */\n      revert\n        /* \"--CODEGEN--\":5:7   */\n    tag_331:\n        /* \"AllContracts.sol\":4913:4984  LINK.transferAndCall(vrfCoordinator, _fee, abi.encode(_keyHash, _seed)) */\n      pop\n      gas\n      call\n      iszero\n        /* \"--CODEGEN--\":8:17   */\n      dup1\n        /* \"--CODEGEN--\":5:7   */\n      iszero\n      tag_333\n      jumpi\n        /* \"--CODEGEN--\":45:61   */\n      returndatasize\n        /* \"--CODEGEN--\":42:43   */\n      0x00\n        /* \"--CODEGEN--\":39:40   */\n      dup1\n        /* \"--CODEGEN--\":24:62   */\n      returndatacopy\n        /* \"--CODEGEN--\":77:93   */\n      returndatasize\n        /* \"--CODEGEN--\":74:75   */\n      0x00\n        /* \"--CODEGEN--\":67:94   */\n      revert\n        /* \"--CODEGEN--\":5:7   */\n    tag_333:\n        /* \"AllContracts.sol\":4913:4984  LINK.transferAndCall(vrfCoordinator, _fee, abi.encode(_keyHash, _seed)) */\n      pop\n      pop\n      pop\n      pop\n      mload(0x40)\n      returndatasize\n        /* \"--CODEGEN--\":13:15   */\n      0x20\n        /* \"--CODEGEN--\":8:11   */\n      dup2\n        /* \"--CODEGEN--\":5:16   */\n      lt\n        /* \"--CODEGEN--\":2:4   */\n      iszero\n      tag_334\n      jumpi\n        /* \"--CODEGEN--\":29:30   */\n      0x00\n        /* \"--CODEGEN--\":26:27   */\n      dup1\n        /* \"--CODEGEN--\":19:31   */\n      revert\n        /* \"--CODEGEN--\":2:4   */\n    tag_334:\n        /* \"AllContracts.sol\":4913:4984  LINK.transferAndCall(vrfCoordinator, _fee, abi.encode(_keyHash, _seed)) */\n      dup2\n      add\n      swap1\n      dup1\n      dup1\n      mload\n      swap1\n      0x20\n      add\n      swap1\n      swap3\n      swap2\n      swap1\n      pop\n      pop\n      pop\n      pop\n        /* \"AllContracts.sol\":4991:5006  uint256 vRFSeed */\n      0x00\n        /* \"AllContracts.sol\":5010:5076  makeVRFInputSeed(_keyHash, _seed, address(this), nonces[_keyHash]) */\n      tag_335\n        /* \"AllContracts.sol\":5027:5035  _keyHash */\n      dup6\n        /* \"AllContracts.sol\":5037:5042  _seed */\n      dup5\n        /* \"AllContracts.sol\":5052:5056  this */\n      address\n        /* \"AllContracts.sol\":5059:5065  nonces */\n      0x02\n        /* \"AllContracts.sol\":5059:5075  nonces[_keyHash] */\n      0x00\n        /* \"AllContracts.sol\":5066:5074  _keyHash */\n      dup11\n        /* \"AllContracts.sol\":5059:5075  nonces[_keyHash] */\n      dup2\n      mstore\n      0x20\n      add\n      swap1\n      dup2\n      mstore\n      0x20\n      add\n      0x00\n      keccak256\n      sload\n        /* \"AllContracts.sol\":5010:5026  makeVRFInputSeed */\n      tag_336\n        /* \"AllContracts.sol\":5010:5076  makeVRFInputSeed(_keyHash, _seed, address(this), nonces[_keyHash]) */\n      jump\t// in\n    tag_335:\n        /* \"AllContracts.sol\":4991:5076  uint256 vRFSeed  = makeVRFInputSeed(_keyHash, _seed, address(this), nonces[_keyHash]) */\n      swap1\n      pop\n        /* \"AllContracts.sol\":5102:5125  nonces[_keyHash].add(1) */\n      tag_337\n        /* \"AllContracts.sol\":5123:5124  1 */\n      0x01\n        /* \"AllContracts.sol\":5102:5108  nonces */\n      0x02\n        /* \"AllContracts.sol\":5102:5118  nonces[_keyHash] */\n      0x00\n        /* \"AllContracts.sol\":5109:5117  _keyHash */\n      dup9\n        /* \"AllContracts.sol\":5102:5118  nonces[_keyHash] */\n      dup2\n      mstore\n      0x20\n      add\n      swap1\n      dup2\n      mstore\n      0x20\n      add\n      0x00\n      keccak256\n      sload\n        /* \"AllContracts.sol\":5102:5122  nonces[_keyHash].add */\n      tag_221\n      swap1\n        /* \"AllContracts.sol\":5102:5125  nonces[_keyHash].add(1) */\n      swap2\n      swap1\n      0xffffffff\n      and\n      jump\t// in\n    tag_337:\n        /* \"AllContracts.sol\":5083:5089  nonces */\n      0x02\n        /* \"AllContracts.sol\":5083:5099  nonces[_keyHash] */\n      0x00\n        /* \"AllContracts.sol\":5090:5098  _keyHash */\n      dup8\n        /* \"AllContracts.sol\":5083:5099  nonces[_keyHash] */\n      dup2\n      mstore\n      0x20\n      add\n      swap1\n      dup2\n      mstore\n      0x20\n      add\n      0x00\n      keccak256\n        /* \"AllContracts.sol\":5083:5125  nonces[_keyHash] = nonces[_keyHash].add(1) */\n      dup2\n      swap1\n      sstore\n      pop\n        /* \"AllContracts.sol\":5138:5170  makeRequestId(_keyHash, vRFSeed) */\n      tag_338\n        /* \"AllContracts.sol\":5152:5160  _keyHash */\n      dup6\n        /* \"AllContracts.sol\":5162:5169  vRFSeed */\n      dup3\n        /* \"AllContracts.sol\":5138:5151  makeRequestId */\n      tag_339\n        /* \"AllContracts.sol\":5138:5170  makeRequestId(_keyHash, vRFSeed) */\n      jump\t// in\n    tag_338:\n        /* \"AllContracts.sol\":5131:5170  return makeRequestId(_keyHash, vRFSeed) */\n      swap2\n      pop\n      pop\n        /* \"AllContracts.sol\":4790:5175  function requestRandomness(bytes32 _keyHash, uint256 _fee, uint256 _seed)... */\n      swap4\n      swap3\n      pop\n      pop\n      pop\n      jump\t// out\n        /* \"AllContracts.sol\":3154:3385  function makeVRFInputSeed(bytes32 _keyHash, uint256 _userSeed,... */\n    tag_336:\n        /* \"AllContracts.sol\":3284:3291  uint256 */\n      0x00\n        /* \"AllContracts.sol\":3338:3346  _keyHash */\n      dup5\n        /* \"AllContracts.sol\":3348:3357  _userSeed */\n      dup5\n        /* \"AllContracts.sol\":3359:3369  _requester */\n      dup5\n        /* \"AllContracts.sol\":3371:3377  _nonce */\n      dup5\n        /* \"AllContracts.sol\":3327:3378  abi.encode(_keyHash, _userSeed, _requester, _nonce) */\n      add(0x20, mload(0x40))\n      dup1\n      dup6\n      dup2\n      mstore\n      0x20\n      add\n      dup5\n      dup2\n      mstore\n      0x20\n      add\n      dup4\n      0xffffffffffffffffffffffffffffffffffffffff\n      and\n      0xffffffffffffffffffffffffffffffffffffffff\n      and\n      dup2\n      mstore\n      0x20\n      add\n      dup3\n      dup2\n      mstore\n      0x20\n      add\n      swap5\n      pop\n      pop\n      pop\n      pop\n      pop\n      mload(0x40)\n        /* \"--CODEGEN--\":49:53   */\n      0x20\n        /* \"--CODEGEN--\":39:46   */\n      dup2\n        /* \"--CODEGEN--\":30:37   */\n      dup4\n        /* \"--CODEGEN--\":26:47   */\n      sub\n        /* \"--CODEGEN--\":22:54   */\n      sub\n        /* \"--CODEGEN--\":13:20   */\n      dup2\n        /* \"--CODEGEN--\":6:55   */\n      mstore\n        /* \"AllContracts.sol\":3327:3378  abi.encode(_keyHash, _userSeed, _requester, _nonce) */\n      swap1\n      0x40\n      mstore\n        /* \"AllContracts.sol\":3317:3379  keccak256(abi.encode(_keyHash, _userSeed, _requester, _nonce)) */\n      dup1\n      mload\n      swap1\n      0x20\n      add\n      keccak256\n        /* \"AllContracts.sol\":3309:3380  uint256(keccak256(abi.encode(_keyHash, _userSeed, _requester, _nonce))) */\n      0x00\n      shr\n        /* \"AllContracts.sol\":3301:3380  return  uint256(keccak256(abi.encode(_keyHash, _userSeed, _requester, _nonce))) */\n      swap1\n      pop\n        /* \"AllContracts.sol\":3154:3385  function makeVRFInputSeed(bytes32 _keyHash, uint256 _userSeed,... */\n      swap5\n      swap4\n      pop\n      pop\n      pop\n      pop\n      jump\t// out\n        /* \"AllContracts.sol\":3389:3560  function makeRequestId(... */\n    tag_339:\n        /* \"AllContracts.sol\":3481:3488  bytes32 */\n      0x00\n        /* \"AllContracts.sol\":3530:3538  _keyHash */\n      dup3\n        /* \"AllContracts.sol\":3540:3553  _vRFInputSeed */\n      dup3\n        /* \"AllContracts.sol\":3513:3554  abi.encodePacked(_keyHash, _vRFInputSeed) */\n      add(0x20, mload(0x40))\n      dup1\n      dup4\n      dup2\n      mstore\n      0x20\n      add\n      dup3\n      dup2\n      mstore\n      0x20\n      add\n      swap3\n      pop\n      pop\n      pop\n      mload(0x40)\n        /* \"--CODEGEN--\":49:53   */\n      0x20\n        /* \"--CODEGEN--\":39:46   */\n      dup2\n        /* \"--CODEGEN--\":30:37   */\n      dup4\n        /* \"--CODEGEN--\":26:47   */\n      sub\n        /* \"--CODEGEN--\":22:54   */\n      sub\n        /* \"--CODEGEN--\":13:20   */\n      dup2\n        /* \"--CODEGEN--\":6:55   */\n      mstore\n        /* \"AllContracts.sol\":3513:3554  abi.encodePacked(_keyHash, _vRFInputSeed) */\n      swap1\n      0x40\n      mstore\n        /* \"AllContracts.sol\":3503:3555  keccak256(abi.encodePacked(_keyHash, _vRFInputSeed)) */\n      dup1\n      mload\n      swap1\n      0x20\n      add\n      keccak256\n        /* \"AllContracts.sol\":3496:3555  return keccak256(abi.encodePacked(_keyHash, _vRFInputSeed)) */\n      swap1\n      pop\n        /* \"AllContracts.sol\":3389:3560  function makeRequestId(... */\n      swap3\n      swap2\n      pop\n      pop\n      jump\t// out\n        /* \"AllContracts.sol\":5733:15201  contract LuckyMachine is VRFConsumerBase, Ownable {... */\n    tag_299:\n      mload(0x40)\n      dup1\n      0xc0\n      add\n      0x40\n      mstore\n      dup1\n      0x00\n      dup2\n      mstore\n      0x20\n      add\n      and(0xffffffffffffffffffffffffffffffffffffffff, 0x00)\n      dup2\n      mstore\n      0x20\n      add\n      0x00\n      dup2\n      mstore\n      0x20\n      add\n      0x00\n      dup2\n      mstore\n      0x20\n      add\n      0x00\n      dup2\n      mstore\n      0x20\n      add\n      iszero(iszero(0x00))\n      dup2\n      mstore\n      pop\n      swap1\n      jump\t// out\n    stop\n    data_104d4309dbdd0d693502d943a07623e5e639a80ec32910748a6b4f701d61cac8 5069636b20697320746f6f20686967682e2043686f6f73652061206c6f776572206e756d6265722e\n    data_245f15ff17f551913a7a18385165551503906a406f905ac1c2437281a7cd0cfe 4f776e61626c653a206e6577206f776e657220697320746865207a65726f2061646472657373\n    data_588b68a2a6ccdc15b2dae26a385280edec71bed95b5b14a24b760c56e4f665d6 436f6e74726163742068617320696e737566666963696e742066756e647320746f207061796f757420706f737369626c652077696e2e\n    data_6b4e45b8df386b2665be182a0a03416c876dfad9e211d02154ed125021f83b2a 4e6f7420617574686f72697a656420746f2073657420676173206672656520626574\n    data_9113bb53c2876a3805b2c9242029423fc540a728243ce887ab24c82cf119fba3 536166654d6174683a206d756c7469706c69636174696f6e206f766572666c6f77\n    data_b719f220e413600c7e92ed4736b96c6908e0428122610fe965fcc60eefeedbad 436f6e74726163742062616c616e636520746f6f206c6f772e20506c656173652074727920616761696e206c617465722e\n    data_c34c85fa0e0680ac47dc2c21fdf93b1adcc71d9a1a3b3b1788b881c3f4f390ac 47616d6520616c726561647920636f6d706c6574652e204e6f20726566756e6420706f737369626c652e\n    data_ef92889bcd3368ac0e5c94a5c325c5cf21da03eb1576ee7d446327960d5fae81 556e61626c6520746f207061792e20506c6561736520706c617920616761696e206f72207265717565737420726566756e642e\n\n    auxdata: 0xa2646970667358221220e9bed2708438ff8015dab411237ebba2bbad5655ea7f0c170d2ae97b48f2303664736f6c63430006000033\n}\n","bytecode":{"linkReferences":{},"object":"60806040523480156200001157600080fd5b50604051620035e4380380620035e4833981810160405260a08110156200003757600080fd5b81019080805190602001909291908051906020019092919080519060200190929190805190602001909291908051906020019092919050505073dd3782915140c8f3b190b5d67eac6dc5760c46e973a36085f69e2889c224210f603d836748e7dc008881600160006101000a81548173ffffffffffffffffffffffffffffffffffffffff021916908373ffffffffffffffffffffffffffffffffffffffff160217905550806000806101000a81548173ffffffffffffffffffffffffffffffffffffffff021916908373ffffffffffffffffffffffffffffffffffffffff160217905550505060006200012f620002cf60201b60201c565b905080600360006101000a81548173ffffffffffffffffffffffffffffffffffffffff021916908373ffffffffffffffffffffffffffffffffffffffff1602179055508073ffffffffffffffffffffffffffffffffffffffff16600073ffffffffffffffffffffffffffffffffffffffff167f8be0079c531659141344cd1fd0a4f28419497f9722a3daafe3b4186f6b6457e060405160405180910390a3507f6c3699283bda56ad74f6b855546325b68d482e983852a7a82979cc4807b641f460001b60048190555067016345785d8a00006005819055506001601481905550600060138190555084601560006101000a81548173ffffffffffffffffffffffffffffffffffffffff021916908373ffffffffffffffffffffffffffffffffffffffff1602179055508260128190555083601181905550816010819055508060168190555060016006819055506001600781905550600160088190555060016009819055506001600a819055506001600b819055506001600c819055506001600d819055506001600e819055506001600f819055505050505050620002d7565b600033905090565b6132fd80620002e76000396000f3fe6080604052600436106101d15760003560e01c806394985ddd116100f7578063a4b2409e11610095578063d9e721f811610064578063d9e721f814610943578063dfad4c1114610991578063f2fde38b146109fa578063f31a4dcd14610a4b576101d8565b8063a4b2409e14610868578063ac150fd8146108a3578063b93030b3146108f1578063c311d04914610908576101d8565b806398544710116100d157806398544710146107305780639e317f121461076b578063a02e0616146107ba578063a249225e1461080b576101d8565b806394985ddd146105ef57806395f9b576146106345780639619367d14610705576101d8565b806344ff81ce1161016f57806363bd1d4a1161013e57806363bd1d4a1461051b578063715018a6146105465780637a8042bd1461055d5780638da5cb5b14610598576101d8565b806344ff81ce146103fa57806350c5f9751461044b57806359268a4a146104765780635b8d02d7146104c4576101d8565b806333ea51a8116101ab57806333ea51a8146102d55780633638104a1461032657806339e7357c1461038f5780634051ddac146103ba576101d8565b8063117a5b90146101dd5780632e5b21681461027f5780632ee42d8a146102aa576101d8565b366101d857005b600080fd5b3480156101e957600080fd5b506102166004803603602081101561020057600080fd5b8101908080359060200190929190505050610a86565b604051808781526020018673ffffffffffffffffffffffffffffffffffffffff1673ffffffffffffffffffffffffffffffffffffffff16815260200185815260200184815260200183815260200182151515158152602001965050505050505060405180910390f35b34801561028b57600080fd5b50610294610aef565b6040518082815260200191505060405180910390f35b3480156102b657600080fd5b506102bf610af5565b6040518082815260200191505060405180910390f35b3480156102e157600080fd5b50610324600480360360208110156102f857600080fd5b81019080803573ffffffffffffffffffffffffffffffffffffffff169060200190929190505050610afb565b005b34801561033257600080fd5b506103756004803603602081101561034957600080fd5b81019080803573ffffffffffffffffffffffffffffffffffffffff169060200190929190505050610c09565b604051808215151515815260200191505060405180910390f35b34801561039b57600080fd5b506103a4610c29565b6040518082815260200191505060405180910390f35b3480156103c657600080fd5b506103cf610c33565b6040518085815260200184815260200183815260200182815260200194505050505060405180910390f35b34801561040657600080fd5b506104496004803603602081101561041d57600080fd5b81019080803573ffffffffffffffffffffffffffffffffffffffff169060200190929190505050610c53565b005b34801561045757600080fd5b50610460610d61565b6040518082815260200191505060405180910390f35b6104c26004803603604081101561048c57600080fd5b81019080803573ffffffffffffffffffffffffffffffffffffffff16906020019092919080359060200190929190505050610e41565b005b3480156104d057600080fd5b506104d9610f7b565b604051808273ffffffffffffffffffffffffffffffffffffffff1673ffffffffffffffffffffffffffffffffffffffff16815260200191505060405180910390f35b34801561052757600080fd5b50610530610fa1565b6040518082815260200191505060405180910390f35b34801561055257600080fd5b5061055b610fa7565b005b34801561056957600080fd5b506105966004803603602081101561058057600080fd5b8101908080359060200190929190505050611132565b005b3480156105a457600080fd5b506105ad611305565b604051808273ffffffffffffffffffffffffffffffffffffffff1673ffffffffffffffffffffffffffffffffffffffff16815260200191505060405180910390f35b3480156105fb57600080fd5b506106326004803603604081101561061257600080fd5b81019080803590602001909291908035906020019092919050505061132f565b005b34801561064057600080fd5b506107036004803603604081101561065757600080fd5b810190808035906020019064010000000081111561067457600080fd5b82018360208201111561068657600080fd5b803590602001918460208302840111640100000000831117156106a857600080fd5b919080806020026020016040519081016040528093929190818152602001838360200280828437600081840152601f19601f820116905080830192505050505050509192919290803515159060200190929190505050611400565b005b34801561071157600080fd5b5061071a61156a565b6040518082815260200191505060405180910390f35b34801561073c57600080fd5b506107696004803603602081101561075357600080fd5b8101908080359060200190929190505050611570565b005b34801561077757600080fd5b506107a46004803603602081101561078e57600080fd5b8101908080359060200190929190505050611644565b6040518082815260200191505060405180910390f35b3480156107c657600080fd5b50610809600480360360208110156107dd57600080fd5b81019080803573ffffffffffffffffffffffffffffffffffffffff16906020019092919050505061165c565b005b34801561081757600080fd5b506108666004803603604081101561082e57600080fd5b81019080803573ffffffffffffffffffffffffffffffffffffffff169060200190929190803515159060200190929190505050611769565b005b34801561087457600080fd5b506108a16004803603602081101561088b57600080fd5b810190808035906020019092919050505061188e565b005b6108ef600480360360408110156108b957600080fd5b81019080803573ffffffffffffffffffffffffffffffffffffffff16906020019092919080359060200190929190505050611a2f565b005b3480156108fd57600080fd5b50610906611b18565b005b34801561091457600080fd5b506109416004803603602081101561092b57600080fd5b8101908080359060200190929190505050611f27565b005b61098f6004803603604081101561095957600080fd5b81019080803573ffffffffffffffffffffffffffffffffffffffff169060200190929190803590602001909291905050506120d7565b005b34801561099d57600080fd5b506109e0600480360360208110156109b457600080fd5b81019080803573ffffffffffffffffffffffffffffffffffffffff16906020019092919050505061227c565b604051808215151515815260200191505060405180910390f35b348015610a0657600080fd5b50610a4960048036036020811015610a1d57600080fd5b81019080803573ffffffffffffffffffffffffffffffffffffffff16906020019092919050505061229c565b005b348015610a5757600080fd5b50610a8460048036036020811015610a6e57600080fd5b81019080803590602001909291905050506124ac565b005b60196020528060005260406000206000915090508060000154908060010160009054906101000a900473ffffffffffffffffffffffffffffffffffffffff16908060020154908060030154908060040154908060050160009054906101000a900460ff16905086565b60115481565b60105481565b610b03612582565b73ffffffffffffffffffffffffffffffffffffffff16600360009054906101000a900473ffffffffffffffffffffffffffffffffffffffff1673ffffffffffffffffffffffffffffffffffffffff1614610bc5576040517f08c379a00000000000000000000000000000000000000000000000000000000081526004018080602001828103825260208152602001807f4f776e61626c653a2063616c6c6572206973206e6f7420746865206f776e657281525060200191505060405180910390fd5b80601560006101000a81548173ffffffffffffffffffffffffffffffffffffffff021916908373ffffffffffffffffffffffffffffffffffffffff16021790555050565b60176020528060005260406000206000915054906101000a900460ff1681565b6000613039905090565b600080600080601254601154601654601054935093509350935090919293565b610c5b612582565b73ffffffffffffffffffffffffffffffffffffffff16600360009054906101000a900473ffffffffffffffffffffffffffffffffffffffff1673ffffffffffffffffffffffffffffffffffffffff1614610d1d576040517f08c379a00000000000000000000000000000000000000000000000000000000081526004018080602001828103825260208152602001807f4f776e61626c653a2063616c6c6572206973206e6f7420746865206f776e657281525060200191505060405180910390fd5b80600160006101000a81548173ffffffffffffffffffffffffffffffffffffffff021916908373ffffffffffffffffffffffffffffffffffffffff16021790555050565b60008060009054906101000a900473ffffffffffffffffffffffffffffffffffffffff1673ffffffffffffffffffffffffffffffffffffffff166370a08231306040518263ffffffff1660e01b8152600401808273ffffffffffffffffffffffffffffffffffffffff1673ffffffffffffffffffffffffffffffffffffffff16815260200191505060206040518083038186803b158015610e0157600080fd5b505afa158015610e15573d6000803e3d6000fd5b505050506040513d6020811015610e2b57600080fd5b8101908080519060200190929190505050905090565b60005a9050601860008473ffffffffffffffffffffffffffffffffffffffff1673ffffffffffffffffffffffffffffffffffffffff16815260200190815260200160002060009054906101000a900460ff16610f05576040517f08c379a00000000000000000000000000000000000000000000000000000000081526004018080602001828103825260188152602001807f676173206672656520626574206e6f7420616c6c6f776564000000000000000081525060200191505060405180910390fd5b610f0f83836120d7565b60005a8203905060003a90503373ffffffffffffffffffffffffffffffffffffffff166108fc610f48838561258a90919063ffffffff16565b9081150290604051600060405180830381858888f19350505050158015610f73573d6000803e3d6000fd5b505050505050565b601560009054906101000a900473ffffffffffffffffffffffffffffffffffffffff1681565b60165481565b610faf612582565b73ffffffffffffffffffffffffffffffffffffffff16600360009054906101000a900473ffffffffffffffffffffffffffffffffffffffff1673ffffffffffffffffffffffffffffffffffffffff1614611071576040517f08c379a00000000000000000000000000000000000000000000000000000000081526004018080602001828103825260208152602001807f4f776e61626c653a2063616c6c6572206973206e6f7420746865206f776e657281525060200191505060405180910390fd5b600073ffffffffffffffffffffffffffffffffffffffff16600360009054906101000a900473ffffffffffffffffffffffffffffffffffffffff1673ffffffffffffffffffffffffffffffffffffffff167f8be0079c531659141344cd1fd0a4f28419497f9722a3daafe3b4186f6b6457e060405160405180910390a36000600360006101000a81548173ffffffffffffffffffffffffffffffffffffffff021916908373ffffffffffffffffffffffffffffffffffffffff160217905550565b61113a612582565b73ffffffffffffffffffffffffffffffffffffffff16600360009054906101000a900473ffffffffffffffffffffffffffffffffffffffff1673ffffffffffffffffffffffffffffffffffffffff16146111fc576040517f08c379a00000000000000000000000000000000000000000000000000000000081526004018080602001828103825260208152602001807f4f776e61626c653a2063616c6c6572206973206e6f7420746865206f776e657281525060200191505060405180910390fd5b6000809054906101000a900473ffffffffffffffffffffffffffffffffffffffff1673ffffffffffffffffffffffffffffffffffffffff1663a9059cbb601560009054906101000a900473ffffffffffffffffffffffffffffffffffffffff16836040518363ffffffff1660e01b8152600401808373ffffffffffffffffffffffffffffffffffffffff1673ffffffffffffffffffffffffffffffffffffffff16815260200182815260200192505050602060405180830381600087803b1580156112c657600080fd5b505af11580156112da573d6000803e3d6000fd5b505050506040513d60208110156112f057600080fd5b81019080805190602001909291905050505050565b6000600360009054906101000a900473ffffffffffffffffffffffffffffffffffffffff16905090565b600160009054906101000a900473ffffffffffffffffffffffffffffffffffffffff1673ffffffffffffffffffffffffffffffffffffffff163373ffffffffffffffffffffffffffffffffffffffff16146113f2576040517f08c379a000000000000000000000000000000000000000000000000000000000815260040180806020018281038252601f8152602001807f4f6e6c7920565246436f6f7264696e61746f722063616e2066756c66696c6c0081525060200191505060405180910390fd5b6113fc8282612610565b5050565b601760003373ffffffffffffffffffffffffffffffffffffffff1673ffffffffffffffffffffffffffffffffffffffff16815260200190815260200160002060009054906101000a900460ff168061148a57503373ffffffffffffffffffffffffffffffffffffffff16611472611305565b73ffffffffffffffffffffffffffffffffffffffff16145b6114df576040517f08c379a00000000000000000000000000000000000000000000000000000000081526004018080602001828103825260228152602001806131f76022913960400191505060405180910390fd5b60008090505b82518110156115655781601860008584815181106114ff57fe5b602002602001015173ffffffffffffffffffffffffffffffffffffffff1673ffffffffffffffffffffffffffffffffffffffff16815260200190815260200160002060006101000a81548160ff02191690831515021790555080806001019150506114e5565b505050565b60125481565b611578612582565b73ffffffffffffffffffffffffffffffffffffffff16600360009054906101000a900473ffffffffffffffffffffffffffffffffffffffff1673ffffffffffffffffffffffffffffffffffffffff161461163a576040517f08c379a00000000000000000000000000000000000000000000000000000000081526004018080602001828103825260208152602001807f4f776e61626c653a2063616c6c6572206973206e6f7420746865206f776e657281525060200191505060405180910390fd5b8060048190555050565b60026020528060005260406000206000915090505481565b611664612582565b73ffffffffffffffffffffffffffffffffffffffff16600360009054906101000a900473ffffffffffffffffffffffffffffffffffffffff1673ffffffffffffffffffffffffffffffffffffffff1614611726576040517f08c379a00000000000000000000000000000000000000000000000000000000081526004018080602001828103825260208152602001807f4f776e61626c653a2063616c6c6572206973206e6f7420746865206f776e657281525060200191505060405180910390fd5b806000806101000a81548173ffffffffffffffffffffffffffffffffffffffff021916908373ffffffffffffffffffffffffffffffffffffffff16021790555050565b611771612582565b73ffffffffffffffffffffffffffffffffffffffff16600360009054906101000a900473ffffffffffffffffffffffffffffffffffffffff1673ffffffffffffffffffffffffffffffffffffffff1614611833576040517f08c379a00000000000000000000000000000000000000000000000000000000081526004018080602001828103825260208152602001807f4f776e61626c653a2063616c6c6572206973206e6f7420746865206f776e657281525060200191505060405180910390fd5b80601760008473ffffffffffffffffffffffffffffffffffffffff1673ffffffffffffffffffffffffffffffffffffffff16815260200190815260200160002060006101000a81548160ff0219169083151502179055505050565b6000601960008381526020019081526020016000209050600015158160050160009054906101000a900460ff16151514611913576040517f08c379a000000000000000000000000000000000000000000000000000000000815260040180806020018281038252602a81526020018061326b602a913960400191505060405180910390fd5b8060020154471015611970576040517f08c379a000000000000000000000000000000000000000000000000000000000815260040180806020018281038252603181526020018061323a6031913960400191505060405180910390fd5b60018160050160006101000a81548160ff0219169083151502179055508060020154601354106119b35780600201546013600082825403925050819055506119bc565b60006013819055505b8060010160009054906101000a900473ffffffffffffffffffffffffffffffffffffffff1673ffffffffffffffffffffffffffffffffffffffff166108fc82600201549081150290604051600060405180830381858888f19350505050158015611a2a573d6000803e3d6000fd5b505050565b601254341015611aa7576040517f08c379a00000000000000000000000000000000000000000000000000000000081526004018080602001828103825260138152602001807f6d696e696d756d20626574206e6f74206d65740000000000000000000000000081525060200191505060405180910390fd5b600660009055600760009055600860009055600960009055600a60009055600b60009055600c60009055600d60009055600e60009055600f60009055611af8346013546128e890919063ffffffff16565b601381905550611b09823483612970565b611b14601454612aa3565b5050565b611b20612582565b73ffffffffffffffffffffffffffffffffffffffff16600360009054906101000a900473ffffffffffffffffffffffffffffffffffffffff1673ffffffffffffffffffffffffffffffffffffffff1614611be2576040517f08c379a00000000000000000000000000000000000000000000000000000000081526004018080602001828103825260208152602001807f4f776e61626c653a2063616c6c6572206973206e6f7420746865206f776e657281525060200191505060405180910390fd5b6000611bf960135447612b7190919063ffffffff16565b9050601560009054906101000a900473ffffffffffffffffffffffffffffffffffffffff1673ffffffffffffffffffffffffffffffffffffffff166108fc829081150290604051600060405180830381858888f19350505050158015611c63573d6000803e3d6000fd5b5060008060009054906101000a900473ffffffffffffffffffffffffffffffffffffffff1673ffffffffffffffffffffffffffffffffffffffff166370a08231306040518263ffffffff1660e01b8152600401808273ffffffffffffffffffffffffffffffffffffffff1673ffffffffffffffffffffffffffffffffffffffff16815260200191505060206040518083038186803b158015611d0457600080fd5b505afa158015611d18573d6000803e3d6000fd5b505050506040513d6020811015611d2e57600080fd5b81019080805190602001909291905050501115611f24576000809054906101000a900473ffffffffffffffffffffffffffffffffffffffff1673ffffffffffffffffffffffffffffffffffffffff1663a9059cbb601560009054906101000a900473ffffffffffffffffffffffffffffffffffffffff166000809054906101000a900473ffffffffffffffffffffffffffffffffffffffff1673ffffffffffffffffffffffffffffffffffffffff166370a08231306040518263ffffffff1660e01b8152600401808273ffffffffffffffffffffffffffffffffffffffff1673ffffffffffffffffffffffffffffffffffffffff16815260200191505060206040518083038186803b158015611e4357600080fd5b505afa158015611e57573d6000803e3d6000fd5b505050506040513d6020811015611e6d57600080fd5b81019080805190602001909291905050506040518363ffffffff1660e01b8152600401808373ffffffffffffffffffffffffffffffffffffffff1673ffffffffffffffffffffffffffffffffffffffff16815260200182815260200192505050602060405180830381600087803b158015611ee757600080fd5b505af1158015611efb573d6000803e3d6000fd5b505050506040513d6020811015611f1157600080fd5b8101908080519060200190929190505050505b50565b611f2f612582565b73ffffffffffffffffffffffffffffffffffffffff16600360009054906101000a900473ffffffffffffffffffffffffffffffffffffffff1673ffffffffffffffffffffffffffffffffffffffff1614611ff1576040517f08c379a00000000000000000000000000000000000000000000000000000000081526004018080602001828103825260208152602001807f4f776e61626c653a2063616c6c6572206973206e6f7420746865206f776e657281525060200191505060405180910390fd5b601354814703101561206b576040517f08c379a000000000000000000000000000000000000000000000000000000000815260040180806020018281038252601c8152602001807f43616e277420776974686472617720756e706c6179656420626574730000000081525060200191505060405180910390fd5b601560009054906101000a900473ffffffffffffffffffffffffffffffffffffffff1673ffffffffffffffffffffffffffffffffffffffff166108fc829081150290604051600060405180830381858888f193505050501580156120d3573d6000803e3d6000fd5b5050565b6120e034612bfa565b612135576040517f08c379a00000000000000000000000000000000000000000000000000000000081526004018080602001828103825260368152602001806131c16036913960400191505060405180910390fd5b601054811115612190576040517f08c379a00000000000000000000000000000000000000000000000000000000081526004018080602001828103825260288152602001806131736028913960400191505060405180910390fd5b61219934612c41565b61220b576040517f08c379a00000000000000000000000000000000000000000000000000000000081526004018080602001828103825260158152602001807f4f757469736465206f66206265742072616e67652e000000000000000000000081525060200191505060405180910390fd5b600660009055600760009055600860009055600960009055600a60009055600b60009055600c60009055600d60009055600e60009055600f6000905561225c346013546128e890919063ffffffff16565b60138190555061226d823483612970565b612278601454612aa3565b5050565b60186020528060005260406000206000915054906101000a900460ff1681565b6122a4612582565b73ffffffffffffffffffffffffffffffffffffffff16600360009054906101000a900473ffffffffffffffffffffffffffffffffffffffff1673ffffffffffffffffffffffffffffffffffffffff1614612366576040517f08c379a00000000000000000000000000000000000000000000000000000000081526004018080602001828103825260208152602001807f4f776e61626c653a2063616c6c6572206973206e6f7420746865206f776e657281525060200191505060405180910390fd5b600073ffffffffffffffffffffffffffffffffffffffff168173ffffffffffffffffffffffffffffffffffffffff1614156123ec576040517f08c379a000000000000000000000000000000000000000000000000000000000815260040180806020018281038252602681526020018061319b6026913960400191505060405180910390fd5b8073ffffffffffffffffffffffffffffffffffffffff16600360009054906101000a900473ffffffffffffffffffffffffffffffffffffffff1673ffffffffffffffffffffffffffffffffffffffff167f8be0079c531659141344cd1fd0a4f28419497f9722a3daafe3b4186f6b6457e060405160405180910390a380600360006101000a81548173ffffffffffffffffffffffffffffffffffffffff021916908373ffffffffffffffffffffffffffffffffffffffff16021790555050565b6124b4612582565b73ffffffffffffffffffffffffffffffffffffffff16600360009054906101000a900473ffffffffffffffffffffffffffffffffffffffff1673ffffffffffffffffffffffffffffffffffffffff1614612576576040517f08c379a00000000000000000000000000000000000000000000000000000000081526004018080602001828103825260208152602001807f4f776e61626c653a2063616c6c6572206973206e6f7420746865206f776e657281525060200191505060405180910390fd5b61257f81612aa3565b50565b600033905090565b60008083141561259d576000905061260a565b60008284029050828482816125ae57fe5b0414612605576040517f08c379a00000000000000000000000000000000000000000000000000000000081526004018080602001828103825260218152602001806132196021913960400191505060405180910390fd5b809150505b92915050565b600060196000601a6000868152602001908152602001600020548152602001908152602001600020905060008160000154111561289357601154816002015411156126615760115481600201819055505b60008160020154612681601654846002015461258a90919063ffffffff16565b019050804710156126dd576040517f08c379a00000000000000000000000000000000000000000000000000000000081526004018080602001828103825260338152602001806132956033913960400191505060405180910390fd5b6127056126f660016010546128e890919063ffffffff16565b84612c6f90919063ffffffff16565b826004018190555060018260050160006101000a81548160ff021916908315150217905550816002015460135410612750578160020154601360008282540392505081905550612759565b60006013819055505b8160040154826003015414156127d9578160010160009054906101000a900473ffffffffffffffffffffffffffffffffffffffff1673ffffffffffffffffffffffffffffffffffffffff166108fc829081150290604051600060405180830381858888f193505050501580156127d3573d6000803e3d6000fd5b506127de565b600090505b7fc06600d6399308f270bc6ae70d5377121b685c974bb7f7355824fddd8a2b34978260010160009054906101000a900473ffffffffffffffffffffffffffffffffffffffff1683600201548460030154856004015485604051808673ffffffffffffffffffffffffffffffffffffffff1673ffffffffffffffffffffffffffffffffffffffff1681526020018581526020018481526020018381526020018281526020019550505050505060405180910390a1505b60016006819055506001600781905550600160088190555060016009819055506001600a819055506001600b819055506001600c819055506001600d819055506001600e819055506001600f81905550505050565b600080828401905083811015612966576040517f08c379a000000000000000000000000000000000000000000000000000000000815260040180806020018281038252601b8152602001807f536166654d6174683a206164646974696f6e206f766572666c6f77000000000081525060200191505060405180910390fd5b8091505092915050565b61298660016014546128e890919063ffffffff16565b601481905550612994613124565b6040518060c0016040528060145481526020018573ffffffffffffffffffffffffffffffffffffffff1681526020018481526020018381526020016129e5600a6010546128e890919063ffffffff16565b81526020016000151581525090508060196000836000015181526020019081526020016000206000820151816000015560208201518160010160006101000a81548173ffffffffffffffffffffffffffffffffffffffff021916908373ffffffffffffffffffffffffffffffffffffffff16021790555060408201518160020155606082015181600301556080820151816004015560a08201518160050160006101000a81548160ff02191690831515021790555090505050505050565b600015156019600083815260200190815260200160002060050160009054906101000a900460ff16151514612b40576040517f08c379a00000000000000000000000000000000000000000000000000000000081526004018080602001828103825260138152602001807f67616d6520616c726561647920706c617965640000000000000000000000000081525060200191505060405180910390fd5b600061303990506000612b5282612cf9565b905082601a600083815260200190815260200160002081905550505050565b600082821115612be9576040517f08c379a000000000000000000000000000000000000000000000000000000000815260040180806020018281038252601e8152602001807f536166654d6174683a207375627472616374696f6e206f766572666c6f77000081525060200191505060405180910390fd5b600082840390508091505092915050565b6000612c2382612c156016548561258a90919063ffffffff16565b6128e890919063ffffffff16565b612c3860135447612b7190919063ffffffff16565b10159050919050565b60006012548210158015612c5757506011548211155b15612c655760019050612c6a565b600090505b919050565b600080821415612ce7576040517f08c379a00000000000000000000000000000000000000000000000000000000081526004018080602001828103825260188152602001807f536166654d6174683a206d6f64756c6f206279207a65726f000000000000000081525060200191505060405180910390fd5b818381612cf057fe5b06905092915050565b60006005546000809054906101000a900473ffffffffffffffffffffffffffffffffffffffff1673ffffffffffffffffffffffffffffffffffffffff166370a08231306040518263ffffffff1660e01b8152600401808273ffffffffffffffffffffffffffffffffffffffff1673ffffffffffffffffffffffffffffffffffffffff16815260200191505060206040518083038186803b158015612d9c57600080fd5b505afa158015612db0573d6000803e3d6000fd5b505050506040513d6020811015612dc657600080fd5b810190808051906020019092919050505011612e4a576040517f08c379a000000000000000000000000000000000000000000000000000000000815260040180806020018281038252600f8152602001807f4e6f7420656e6f756768204c494e4b000000000000000000000000000000000081525060200191505060405180910390fd5b612e5960045460055484612e60565b9050919050565b60008060009054906101000a900473ffffffffffffffffffffffffffffffffffffffff1673ffffffffffffffffffffffffffffffffffffffff16634000aea0600160009054906101000a900473ffffffffffffffffffffffffffffffffffffffff1685878660405160200180838152602001828152602001925050506040516020818303038152906040526040518463ffffffff1660e01b8152600401808473ffffffffffffffffffffffffffffffffffffffff1673ffffffffffffffffffffffffffffffffffffffff16815260200183815260200180602001828103825283818151815260200191508051906020019080838360005b83811015612f72578082015181840152602081019050612f57565b50505050905090810190601f168015612f9f5780820380516001836020036101000a031916815260200191505b50945050505050602060405180830381600087803b158015612fc057600080fd5b505af1158015612fd4573d6000803e3d6000fd5b505050506040513d6020811015612fea57600080fd5b810190808051906020019092919050505050600061301d858430600260008a815260200190815260200160002054613071565b9050613046600160026000888152602001908152602001600020546128e890919063ffffffff16565b600260008781526020019081526020016000208190555061306785826130eb565b9150509392505050565b600084848484604051602001808581526020018481526020018373ffffffffffffffffffffffffffffffffffffffff1673ffffffffffffffffffffffffffffffffffffffff1681526020018281526020019450505050506040516020818303038152906040528051906020012060001c9050949350505050565b60008282604051602001808381526020018281526020019250505060405160208183030381529060405280519060200120905092915050565b6040518060c0016040528060008152602001600073ffffffffffffffffffffffffffffffffffffffff168152602001600081526020016000815260200160008152602001600015158152509056fe5069636b20697320746f6f20686967682e2043686f6f73652061206c6f776572206e756d6265722e4f776e61626c653a206e6577206f776e657220697320746865207a65726f2061646472657373436f6e74726163742068617320696e737566666963696e742066756e647320746f207061796f757420706f737369626c652077696e2e4e6f7420617574686f72697a656420746f2073657420676173206672656520626574536166654d6174683a206d756c7469706c69636174696f6e206f766572666c6f77436f6e74726163742062616c616e636520746f6f206c6f772e20506c656173652074727920616761696e206c617465722e47616d6520616c726561647920636f6d706c6574652e204e6f20726566756e6420706f737369626c652e556e61626c6520746f207061792e20506c6561736520706c617920616761696e206f72207265717565737420726566756e642ea2646970667358221220e9bed2708438ff8015dab411237ebba2bbad5655ea7f0c170d2ae97b48f2303664736f6c63430006000033","opcodes":"PUSH1 0x80 PUSH1 0x40 MSTORE CALLVALUE DUP1 ISZERO PUSH3 0x11 JUMPI PUSH1 0x0 DUP1 REVERT JUMPDEST POP PUSH1 0x40 MLOAD PUSH3 0x35E4 CODESIZE SUB DUP1 PUSH3 0x35E4 DUP4 CODECOPY DUP2 DUP2 ADD PUSH1 0x40 MSTORE PUSH1 0xA0 DUP2 LT ISZERO PUSH3 0x37 JUMPI PUSH1 0x0 DUP1 REVERT JUMPDEST DUP2 ADD SWAP1 DUP1 DUP1 MLOAD SWAP1 PUSH1 0x20 ADD SWAP1 SWAP3 SWAP2 SWAP1 DUP1 MLOAD SWAP1 PUSH1 0x20 ADD SWAP1 SWAP3 SWAP2 SWAP1 DUP1 MLOAD SWAP1 PUSH1 0x20 ADD SWAP1 SWAP3 SWAP2 SWAP1 DUP1 MLOAD SWAP1 PUSH1 0x20 ADD SWAP1 SWAP3 SWAP2 SWAP1 DUP1 MLOAD SWAP1 PUSH1 0x20 ADD SWAP1 SWAP3 SWAP2 SWAP1 POP POP POP PUSH20 0xDD3782915140C8F3B190B5D67EAC6DC5760C46E9 PUSH20 0xA36085F69E2889C224210F603D836748E7DC0088 DUP2 PUSH1 0x1 PUSH1 0x0 PUSH2 0x100 EXP DUP2 SLOAD DUP2 PUSH20 0xFFFFFFFFFFFFFFFFFFFFFFFFFFFFFFFFFFFFFFFF MUL NOT AND SWAP1 DUP4 PUSH20 0xFFFFFFFFFFFFFFFFFFFFFFFFFFFFFFFFFFFFFFFF AND MUL OR SWAP1 SSTORE POP DUP1 PUSH1 0x0 DUP1 PUSH2 0x100 EXP DUP2 SLOAD DUP2 PUSH20 0xFFFFFFFFFFFFFFFFFFFFFFFFFFFFFFFFFFFFFFFF MUL NOT AND SWAP1 DUP4 PUSH20 0xFFFFFFFFFFFFFFFFFFFFFFFFFFFFFFFFFFFFFFFF AND MUL OR SWAP1 SSTORE POP POP POP PUSH1 0x0 PUSH3 0x12F PUSH3 0x2CF PUSH1 0x20 SHL PUSH1 0x20 SHR JUMP JUMPDEST SWAP1 POP DUP1 PUSH1 0x3 PUSH1 0x0 PUSH2 0x100 EXP DUP2 SLOAD DUP2 PUSH20 0xFFFFFFFFFFFFFFFFFFFFFFFFFFFFFFFFFFFFFFFF MUL NOT AND SWAP1 DUP4 PUSH20 0xFFFFFFFFFFFFFFFFFFFFFFFFFFFFFFFFFFFFFFFF AND MUL OR SWAP1 SSTORE POP DUP1 PUSH20 0xFFFFFFFFFFFFFFFFFFFFFFFFFFFFFFFFFFFFFFFF AND PUSH1 0x0 PUSH20 0xFFFFFFFFFFFFFFFFFFFFFFFFFFFFFFFFFFFFFFFF AND PUSH32 0x8BE0079C531659141344CD1FD0A4F28419497F9722A3DAAFE3B4186F6B6457E0 PUSH1 0x40 MLOAD PUSH1 0x40 MLOAD DUP1 SWAP2 SUB SWAP1 LOG3 POP PUSH32 0x6C3699283BDA56AD74F6B855546325B68D482E983852A7A82979CC4807B641F4 PUSH1 0x0 SHL PUSH1 0x4 DUP2 SWAP1 SSTORE POP PUSH8 0x16345785D8A0000 PUSH1 0x5 DUP2 SWAP1 SSTORE POP PUSH1 0x1 PUSH1 0x14 DUP2 SWAP1 SSTORE POP PUSH1 0x0 PUSH1 0x13 DUP2 SWAP1 SSTORE POP DUP5 PUSH1 0x15 PUSH1 0x0 PUSH2 0x100 EXP DUP2 SLOAD DUP2 PUSH20 0xFFFFFFFFFFFFFFFFFFFFFFFFFFFFFFFFFFFFFFFF MUL NOT AND SWAP1 DUP4 PUSH20 0xFFFFFFFFFFFFFFFFFFFFFFFFFFFFFFFFFFFFFFFF AND MUL OR SWAP1 SSTORE POP DUP3 PUSH1 0x12 DUP2 SWAP1 SSTORE POP DUP4 PUSH1 0x11 DUP2 SWAP1 SSTORE POP DUP2 PUSH1 0x10 DUP2 SWAP1 SSTORE POP DUP1 PUSH1 0x16 DUP2 SWAP1 SSTORE POP PUSH1 0x1 PUSH1 0x6 DUP2 SWAP1 SSTORE POP PUSH1 0x1 PUSH1 0x7 DUP2 SWAP1 SSTORE POP PUSH1 0x1 PUSH1 0x8 DUP2 SWAP1 SSTORE POP PUSH1 0x1 PUSH1 0x9 DUP2 SWAP1 SSTORE POP PUSH1 0x1 PUSH1 0xA DUP2 SWAP1 SSTORE POP PUSH1 0x1 PUSH1 0xB DUP2 SWAP1 SSTORE POP PUSH1 0x1 PUSH1 0xC DUP2 SWAP1 SSTORE POP PUSH1 0x1 PUSH1 0xD DUP2 SWAP1 SSTORE POP PUSH1 0x1 PUSH1 0xE DUP2 SWAP1 SSTORE POP PUSH1 0x1 PUSH1 0xF DUP2 SWAP1 SSTORE POP POP POP POP POP POP PUSH3 0x2D7 JUMP JUMPDEST PUSH1 0x0 CALLER SWAP1 POP SWAP1 JUMP JUMPDEST PUSH2 0x32FD DUP1 PUSH3 0x2E7 PUSH1 0x0 CODECOPY PUSH1 0x0 RETURN INVALID PUSH1 0x80 PUSH1 0x40 MSTORE PUSH1 0x4 CALLDATASIZE LT PUSH2 0x1D1 JUMPI PUSH1 0x0 CALLDATALOAD PUSH1 0xE0 SHR DUP1 PUSH4 0x94985DDD GT PUSH2 0xF7 JUMPI DUP1 PUSH4 0xA4B2409E GT PUSH2 0x95 JUMPI DUP1 PUSH4 0xD9E721F8 GT PUSH2 0x64 JUMPI DUP1 PUSH4 0xD9E721F8 EQ PUSH2 0x943 JUMPI DUP1 PUSH4 0xDFAD4C11 EQ PUSH2 0x991 JUMPI DUP1 PUSH4 0xF2FDE38B EQ PUSH2 0x9FA JUMPI DUP1 PUSH4 0xF31A4DCD EQ PUSH2 0xA4B JUMPI PUSH2 0x1D8 JUMP JUMPDEST DUP1 PUSH4 0xA4B2409E EQ PUSH2 0x868 JUMPI DUP1 PUSH4 0xAC150FD8 EQ PUSH2 0x8A3 JUMPI DUP1 PUSH4 0xB93030B3 EQ PUSH2 0x8F1 JUMPI DUP1 PUSH4 0xC311D049 EQ PUSH2 0x908 JUMPI PUSH2 0x1D8 JUMP JUMPDEST DUP1 PUSH4 0x98544710 GT PUSH2 0xD1 JUMPI DUP1 PUSH4 0x98544710 EQ PUSH2 0x730 JUMPI DUP1 PUSH4 0x9E317F12 EQ PUSH2 0x76B JUMPI DUP1 PUSH4 0xA02E0616 EQ PUSH2 0x7BA JUMPI DUP1 PUSH4 0xA249225E EQ PUSH2 0x80B JUMPI PUSH2 0x1D8 JUMP JUMPDEST DUP1 PUSH4 0x94985DDD EQ PUSH2 0x5EF JUMPI DUP1 PUSH4 0x95F9B576 EQ PUSH2 0x634 JUMPI DUP1 PUSH4 0x9619367D EQ PUSH2 0x705 JUMPI PUSH2 0x1D8 JUMP JUMPDEST DUP1 PUSH4 0x44FF81CE GT PUSH2 0x16F JUMPI DUP1 PUSH4 0x63BD1D4A GT PUSH2 0x13E JUMPI DUP1 PUSH4 0x63BD1D4A EQ PUSH2 0x51B JUMPI DUP1 PUSH4 0x715018A6 EQ PUSH2 0x546 JUMPI DUP1 PUSH4 0x7A8042BD EQ PUSH2 0x55D JUMPI DUP1 PUSH4 0x8DA5CB5B EQ PUSH2 0x598 JUMPI PUSH2 0x1D8 JUMP JUMPDEST DUP1 PUSH4 0x44FF81CE EQ PUSH2 0x3FA JUMPI DUP1 PUSH4 0x50C5F975 EQ PUSH2 0x44B JUMPI DUP1 PUSH4 0x59268A4A EQ PUSH2 0x476 JUMPI DUP1 PUSH4 0x5B8D02D7 EQ PUSH2 0x4C4 JUMPI PUSH2 0x1D8 JUMP JUMPDEST DUP1 PUSH4 0x33EA51A8 GT PUSH2 0x1AB JUMPI DUP1 PUSH4 0x33EA51A8 EQ PUSH2 0x2D5 JUMPI DUP1 PUSH4 0x3638104A EQ PUSH2 0x326 JUMPI DUP1 PUSH4 0x39E7357C EQ PUSH2 0x38F JUMPI DUP1 PUSH4 0x4051DDAC EQ PUSH2 0x3BA JUMPI PUSH2 0x1D8 JUMP JUMPDEST DUP1 PUSH4 0x117A5B90 EQ PUSH2 0x1DD JUMPI DUP1 PUSH4 0x2E5B2168 EQ PUSH2 0x27F JUMPI DUP1 PUSH4 0x2EE42D8A EQ PUSH2 0x2AA JUMPI PUSH2 0x1D8 JUMP JUMPDEST CALLDATASIZE PUSH2 0x1D8 JUMPI STOP JUMPDEST PUSH1 0x0 DUP1 REVERT JUMPDEST CALLVALUE DUP1 ISZERO PUSH2 0x1E9 JUMPI PUSH1 0x0 DUP1 REVERT JUMPDEST POP PUSH2 0x216 PUSH1 0x4 DUP1 CALLDATASIZE SUB PUSH1 0x20 DUP2 LT ISZERO PUSH2 0x200 JUMPI PUSH1 0x0 DUP1 REVERT JUMPDEST DUP2 ADD SWAP1 DUP1 DUP1 CALLDATALOAD SWAP1 PUSH1 0x20 ADD SWAP1 SWAP3 SWAP2 SWAP1 POP POP POP PUSH2 0xA86 JUMP JUMPDEST PUSH1 0x40 MLOAD DUP1 DUP8 DUP2 MSTORE PUSH1 0x20 ADD DUP7 PUSH20 0xFFFFFFFFFFFFFFFFFFFFFFFFFFFFFFFFFFFFFFFF AND PUSH20 0xFFFFFFFFFFFFFFFFFFFFFFFFFFFFFFFFFFFFFFFF AND DUP2 MSTORE PUSH1 0x20 ADD DUP6 DUP2 MSTORE PUSH1 0x20 ADD DUP5 DUP2 MSTORE PUSH1 0x20 ADD DUP4 DUP2 MSTORE PUSH1 0x20 ADD DUP3 ISZERO ISZERO ISZERO ISZERO DUP2 MSTORE PUSH1 0x20 ADD SWAP7 POP POP POP POP POP POP POP PUSH1 0x40 MLOAD DUP1 SWAP2 SUB SWAP1 RETURN JUMPDEST CALLVALUE DUP1 ISZERO PUSH2 0x28B JUMPI PUSH1 0x0 DUP1 REVERT JUMPDEST POP PUSH2 0x294 PUSH2 0xAEF JUMP JUMPDEST PUSH1 0x40 MLOAD DUP1 DUP3 DUP2 MSTORE PUSH1 0x20 ADD SWAP2 POP POP PUSH1 0x40 MLOAD DUP1 SWAP2 SUB SWAP1 RETURN JUMPDEST CALLVALUE DUP1 ISZERO PUSH2 0x2B6 JUMPI PUSH1 0x0 DUP1 REVERT JUMPDEST POP PUSH2 0x2BF PUSH2 0xAF5 JUMP JUMPDEST PUSH1 0x40 MLOAD DUP1 DUP3 DUP2 MSTORE PUSH1 0x20 ADD SWAP2 POP POP PUSH1 0x40 MLOAD DUP1 SWAP2 SUB SWAP1 RETURN JUMPDEST CALLVALUE DUP1 ISZERO PUSH2 0x2E1 JUMPI PUSH1 0x0 DUP1 REVERT JUMPDEST POP PUSH2 0x324 PUSH1 0x4 DUP1 CALLDATASIZE SUB PUSH1 0x20 DUP2 LT ISZERO PUSH2 0x2F8 JUMPI PUSH1 0x0 DUP1 REVERT JUMPDEST DUP2 ADD SWAP1 DUP1 DUP1 CALLDATALOAD PUSH20 0xFFFFFFFFFFFFFFFFFFFFFFFFFFFFFFFFFFFFFFFF AND SWAP1 PUSH1 0x20 ADD SWAP1 SWAP3 SWAP2 SWAP1 POP POP POP PUSH2 0xAFB JUMP JUMPDEST STOP JUMPDEST CALLVALUE DUP1 ISZERO PUSH2 0x332 JUMPI PUSH1 0x0 DUP1 REVERT JUMPDEST POP PUSH2 0x375 PUSH1 0x4 DUP1 CALLDATASIZE SUB PUSH1 0x20 DUP2 LT ISZERO PUSH2 0x349 JUMPI PUSH1 0x0 DUP1 REVERT JUMPDEST DUP2 ADD SWAP1 DUP1 DUP1 CALLDATALOAD PUSH20 0xFFFFFFFFFFFFFFFFFFFFFFFFFFFFFFFFFFFFFFFF AND SWAP1 PUSH1 0x20 ADD SWAP1 SWAP3 SWAP2 SWAP1 POP POP POP PUSH2 0xC09 JUMP JUMPDEST PUSH1 0x40 MLOAD DUP1 DUP3 ISZERO ISZERO ISZERO ISZERO DUP2 MSTORE PUSH1 0x20 ADD SWAP2 POP POP PUSH1 0x40 MLOAD DUP1 SWAP2 SUB SWAP1 RETURN JUMPDEST CALLVALUE DUP1 ISZERO PUSH2 0x39B JUMPI PUSH1 0x0 DUP1 REVERT JUMPDEST POP PUSH2 0x3A4 PUSH2 0xC29 JUMP JUMPDEST PUSH1 0x40 MLOAD DUP1 DUP3 DUP2 MSTORE PUSH1 0x20 ADD SWAP2 POP POP PUSH1 0x40 MLOAD DUP1 SWAP2 SUB SWAP1 RETURN JUMPDEST CALLVALUE DUP1 ISZERO PUSH2 0x3C6 JUMPI PUSH1 0x0 DUP1 REVERT JUMPDEST POP PUSH2 0x3CF PUSH2 0xC33 JUMP JUMPDEST PUSH1 0x40 MLOAD DUP1 DUP6 DUP2 MSTORE PUSH1 0x20 ADD DUP5 DUP2 MSTORE PUSH1 0x20 ADD DUP4 DUP2 MSTORE PUSH1 0x20 ADD DUP3 DUP2 MSTORE PUSH1 0x20 ADD SWAP5 POP POP POP POP POP PUSH1 0x40 MLOAD DUP1 SWAP2 SUB SWAP1 RETURN JUMPDEST CALLVALUE DUP1 ISZERO PUSH2 0x406 JUMPI PUSH1 0x0 DUP1 REVERT JUMPDEST POP PUSH2 0x449 PUSH1 0x4 DUP1 CALLDATASIZE SUB PUSH1 0x20 DUP2 LT ISZERO PUSH2 0x41D JUMPI PUSH1 0x0 DUP1 REVERT JUMPDEST DUP2 ADD SWAP1 DUP1 DUP1 CALLDATALOAD PUSH20 0xFFFFFFFFFFFFFFFFFFFFFFFFFFFFFFFFFFFFFFFF AND SWAP1 PUSH1 0x20 ADD SWAP1 SWAP3 SWAP2 SWAP1 POP POP POP PUSH2 0xC53 JUMP JUMPDEST STOP JUMPDEST CALLVALUE DUP1 ISZERO PUSH2 0x457 JUMPI PUSH1 0x0 DUP1 REVERT JUMPDEST POP PUSH2 0x460 PUSH2 0xD61 JUMP JUMPDEST PUSH1 0x40 MLOAD DUP1 DUP3 DUP2 MSTORE PUSH1 0x20 ADD SWAP2 POP POP PUSH1 0x40 MLOAD DUP1 SWAP2 SUB SWAP1 RETURN JUMPDEST PUSH2 0x4C2 PUSH1 0x4 DUP1 CALLDATASIZE SUB PUSH1 0x40 DUP2 LT ISZERO PUSH2 0x48C JUMPI PUSH1 0x0 DUP1 REVERT JUMPDEST DUP2 ADD SWAP1 DUP1 DUP1 CALLDATALOAD PUSH20 0xFFFFFFFFFFFFFFFFFFFFFFFFFFFFFFFFFFFFFFFF AND SWAP1 PUSH1 0x20 ADD SWAP1 SWAP3 SWAP2 SWAP1 DUP1 CALLDATALOAD SWAP1 PUSH1 0x20 ADD SWAP1 SWAP3 SWAP2 SWAP1 POP POP POP PUSH2 0xE41 JUMP JUMPDEST STOP JUMPDEST CALLVALUE DUP1 ISZERO PUSH2 0x4D0 JUMPI PUSH1 0x0 DUP1 REVERT JUMPDEST POP PUSH2 0x4D9 PUSH2 0xF7B JUMP JUMPDEST PUSH1 0x40 MLOAD DUP1 DUP3 PUSH20 0xFFFFFFFFFFFFFFFFFFFFFFFFFFFFFFFFFFFFFFFF AND PUSH20 0xFFFFFFFFFFFFFFFFFFFFFFFFFFFFFFFFFFFFFFFF AND DUP2 MSTORE PUSH1 0x20 ADD SWAP2 POP POP PUSH1 0x40 MLOAD DUP1 SWAP2 SUB SWAP1 RETURN JUMPDEST CALLVALUE DUP1 ISZERO PUSH2 0x527 JUMPI PUSH1 0x0 DUP1 REVERT JUMPDEST POP PUSH2 0x530 PUSH2 0xFA1 JUMP JUMPDEST PUSH1 0x40 MLOAD DUP1 DUP3 DUP2 MSTORE PUSH1 0x20 ADD SWAP2 POP POP PUSH1 0x40 MLOAD DUP1 SWAP2 SUB SWAP1 RETURN JUMPDEST CALLVALUE DUP1 ISZERO PUSH2 0x552 JUMPI PUSH1 0x0 DUP1 REVERT JUMPDEST POP PUSH2 0x55B PUSH2 0xFA7 JUMP JUMPDEST STOP JUMPDEST CALLVALUE DUP1 ISZERO PUSH2 0x569 JUMPI PUSH1 0x0 DUP1 REVERT JUMPDEST POP PUSH2 0x596 PUSH1 0x4 DUP1 CALLDATASIZE SUB PUSH1 0x20 DUP2 LT ISZERO PUSH2 0x580 JUMPI PUSH1 0x0 DUP1 REVERT JUMPDEST DUP2 ADD SWAP1 DUP1 DUP1 CALLDATALOAD SWAP1 PUSH1 0x20 ADD SWAP1 SWAP3 SWAP2 SWAP1 POP POP POP PUSH2 0x1132 JUMP JUMPDEST STOP JUMPDEST CALLVALUE DUP1 ISZERO PUSH2 0x5A4 JUMPI PUSH1 0x0 DUP1 REVERT JUMPDEST POP PUSH2 0x5AD PUSH2 0x1305 JUMP JUMPDEST PUSH1 0x40 MLOAD DUP1 DUP3 PUSH20 0xFFFFFFFFFFFFFFFFFFFFFFFFFFFFFFFFFFFFFFFF AND PUSH20 0xFFFFFFFFFFFFFFFFFFFFFFFFFFFFFFFFFFFFFFFF AND DUP2 MSTORE PUSH1 0x20 ADD SWAP2 POP POP PUSH1 0x40 MLOAD DUP1 SWAP2 SUB SWAP1 RETURN JUMPDEST CALLVALUE DUP1 ISZERO PUSH2 0x5FB JUMPI PUSH1 0x0 DUP1 REVERT JUMPDEST POP PUSH2 0x632 PUSH1 0x4 DUP1 CALLDATASIZE SUB PUSH1 0x40 DUP2 LT ISZERO PUSH2 0x612 JUMPI PUSH1 0x0 DUP1 REVERT JUMPDEST DUP2 ADD SWAP1 DUP1 DUP1 CALLDATALOAD SWAP1 PUSH1 0x20 ADD SWAP1 SWAP3 SWAP2 SWAP1 DUP1 CALLDATALOAD SWAP1 PUSH1 0x20 ADD SWAP1 SWAP3 SWAP2 SWAP1 POP POP POP PUSH2 0x132F JUMP JUMPDEST STOP JUMPDEST CALLVALUE DUP1 ISZERO PUSH2 0x640 JUMPI PUSH1 0x0 DUP1 REVERT JUMPDEST POP PUSH2 0x703 PUSH1 0x4 DUP1 CALLDATASIZE SUB PUSH1 0x40 DUP2 LT ISZERO PUSH2 0x657 JUMPI PUSH1 0x0 DUP1 REVERT JUMPDEST DUP2 ADD SWAP1 DUP1 DUP1 CALLDATALOAD SWAP1 PUSH1 0x20 ADD SWAP1 PUSH5 0x100000000 DUP2 GT ISZERO PUSH2 0x674 JUMPI PUSH1 0x0 DUP1 REVERT JUMPDEST DUP3 ADD DUP4 PUSH1 0x20 DUP3 ADD GT ISZERO PUSH2 0x686 JUMPI PUSH1 0x0 DUP1 REVERT JUMPDEST DUP1 CALLDATALOAD SWAP1 PUSH1 0x20 ADD SWAP2 DUP5 PUSH1 0x20 DUP4 MUL DUP5 ADD GT PUSH5 0x100000000 DUP4 GT OR ISZERO PUSH2 0x6A8 JUMPI PUSH1 0x0 DUP1 REVERT JUMPDEST SWAP2 SWAP1 DUP1 DUP1 PUSH1 0x20 MUL PUSH1 0x20 ADD PUSH1 0x40 MLOAD SWAP1 DUP2 ADD PUSH1 0x40 MSTORE DUP1 SWAP4 SWAP3 SWAP2 SWAP1 DUP2 DUP2 MSTORE PUSH1 0x20 ADD DUP4 DUP4 PUSH1 0x20 MUL DUP1 DUP3 DUP5 CALLDATACOPY PUSH1 0x0 DUP2 DUP5 ADD MSTORE PUSH1 0x1F NOT PUSH1 0x1F DUP3 ADD AND SWAP1 POP DUP1 DUP4 ADD SWAP3 POP POP POP POP POP POP POP SWAP2 SWAP3 SWAP2 SWAP3 SWAP1 DUP1 CALLDATALOAD ISZERO ISZERO SWAP1 PUSH1 0x20 ADD SWAP1 SWAP3 SWAP2 SWAP1 POP POP POP PUSH2 0x1400 JUMP JUMPDEST STOP JUMPDEST CALLVALUE DUP1 ISZERO PUSH2 0x711 JUMPI PUSH1 0x0 DUP1 REVERT JUMPDEST POP PUSH2 0x71A PUSH2 0x156A JUMP JUMPDEST PUSH1 0x40 MLOAD DUP1 DUP3 DUP2 MSTORE PUSH1 0x20 ADD SWAP2 POP POP PUSH1 0x40 MLOAD DUP1 SWAP2 SUB SWAP1 RETURN JUMPDEST CALLVALUE DUP1 ISZERO PUSH2 0x73C JUMPI PUSH1 0x0 DUP1 REVERT JUMPDEST POP PUSH2 0x769 PUSH1 0x4 DUP1 CALLDATASIZE SUB PUSH1 0x20 DUP2 LT ISZERO PUSH2 0x753 JUMPI PUSH1 0x0 DUP1 REVERT JUMPDEST DUP2 ADD SWAP1 DUP1 DUP1 CALLDATALOAD SWAP1 PUSH1 0x20 ADD SWAP1 SWAP3 SWAP2 SWAP1 POP POP POP PUSH2 0x1570 JUMP JUMPDEST STOP JUMPDEST CALLVALUE DUP1 ISZERO PUSH2 0x777 JUMPI PUSH1 0x0 DUP1 REVERT JUMPDEST POP PUSH2 0x7A4 PUSH1 0x4 DUP1 CALLDATASIZE SUB PUSH1 0x20 DUP2 LT ISZERO PUSH2 0x78E JUMPI PUSH1 0x0 DUP1 REVERT JUMPDEST DUP2 ADD SWAP1 DUP1 DUP1 CALLDATALOAD SWAP1 PUSH1 0x20 ADD SWAP1 SWAP3 SWAP2 SWAP1 POP POP POP PUSH2 0x1644 JUMP JUMPDEST PUSH1 0x40 MLOAD DUP1 DUP3 DUP2 MSTORE PUSH1 0x20 ADD SWAP2 POP POP PUSH1 0x40 MLOAD DUP1 SWAP2 SUB SWAP1 RETURN JUMPDEST CALLVALUE DUP1 ISZERO PUSH2 0x7C6 JUMPI PUSH1 0x0 DUP1 REVERT JUMPDEST POP PUSH2 0x809 PUSH1 0x4 DUP1 CALLDATASIZE SUB PUSH1 0x20 DUP2 LT ISZERO PUSH2 0x7DD JUMPI PUSH1 0x0 DUP1 REVERT JUMPDEST DUP2 ADD SWAP1 DUP1 DUP1 CALLDATALOAD PUSH20 0xFFFFFFFFFFFFFFFFFFFFFFFFFFFFFFFFFFFFFFFF AND SWAP1 PUSH1 0x20 ADD SWAP1 SWAP3 SWAP2 SWAP1 POP POP POP PUSH2 0x165C JUMP JUMPDEST STOP JUMPDEST CALLVALUE DUP1 ISZERO PUSH2 0x817 JUMPI PUSH1 0x0 DUP1 REVERT JUMPDEST POP PUSH2 0x866 PUSH1 0x4 DUP1 CALLDATASIZE SUB PUSH1 0x40 DUP2 LT ISZERO PUSH2 0x82E JUMPI PUSH1 0x0 DUP1 REVERT JUMPDEST DUP2 ADD SWAP1 DUP1 DUP1 CALLDATALOAD PUSH20 0xFFFFFFFFFFFFFFFFFFFFFFFFFFFFFFFFFFFFFFFF AND SWAP1 PUSH1 0x20 ADD SWAP1 SWAP3 SWAP2 SWAP1 DUP1 CALLDATALOAD ISZERO ISZERO SWAP1 PUSH1 0x20 ADD SWAP1 SWAP3 SWAP2 SWAP1 POP POP POP PUSH2 0x1769 JUMP JUMPDEST STOP JUMPDEST CALLVALUE DUP1 ISZERO PUSH2 0x874 JUMPI PUSH1 0x0 DUP1 REVERT JUMPDEST POP PUSH2 0x8A1 PUSH1 0x4 DUP1 CALLDATASIZE SUB PUSH1 0x20 DUP2 LT ISZERO PUSH2 0x88B JUMPI PUSH1 0x0 DUP1 REVERT JUMPDEST DUP2 ADD SWAP1 DUP1 DUP1 CALLDATALOAD SWAP1 PUSH1 0x20 ADD SWAP1 SWAP3 SWAP2 SWAP1 POP POP POP PUSH2 0x188E JUMP JUMPDEST STOP JUMPDEST PUSH2 0x8EF PUSH1 0x4 DUP1 CALLDATASIZE SUB PUSH1 0x40 DUP2 LT ISZERO PUSH2 0x8B9 JUMPI PUSH1 0x0 DUP1 REVERT JUMPDEST DUP2 ADD SWAP1 DUP1 DUP1 CALLDATALOAD PUSH20 0xFFFFFFFFFFFFFFFFFFFFFFFFFFFFFFFFFFFFFFFF AND SWAP1 PUSH1 0x20 ADD SWAP1 SWAP3 SWAP2 SWAP1 DUP1 CALLDATALOAD SWAP1 PUSH1 0x20 ADD SWAP1 SWAP3 SWAP2 SWAP1 POP POP POP PUSH2 0x1A2F JUMP JUMPDEST STOP JUMPDEST CALLVALUE DUP1 ISZERO PUSH2 0x8FD JUMPI PUSH1 0x0 DUP1 REVERT JUMPDEST POP PUSH2 0x906 PUSH2 0x1B18 JUMP JUMPDEST STOP JUMPDEST CALLVALUE DUP1 ISZERO PUSH2 0x914 JUMPI PUSH1 0x0 DUP1 REVERT JUMPDEST POP PUSH2 0x941 PUSH1 0x4 DUP1 CALLDATASIZE SUB PUSH1 0x20 DUP2 LT ISZERO PUSH2 0x92B JUMPI PUSH1 0x0 DUP1 REVERT JUMPDEST DUP2 ADD SWAP1 DUP1 DUP1 CALLDATALOAD SWAP1 PUSH1 0x20 ADD SWAP1 SWAP3 SWAP2 SWAP1 POP POP POP PUSH2 0x1F27 JUMP JUMPDEST STOP JUMPDEST PUSH2 0x98F PUSH1 0x4 DUP1 CALLDATASIZE SUB PUSH1 0x40 DUP2 LT ISZERO PUSH2 0x959 JUMPI PUSH1 0x0 DUP1 REVERT JUMPDEST DUP2 ADD SWAP1 DUP1 DUP1 CALLDATALOAD PUSH20 0xFFFFFFFFFFFFFFFFFFFFFFFFFFFFFFFFFFFFFFFF AND SWAP1 PUSH1 0x20 ADD SWAP1 SWAP3 SWAP2 SWAP1 DUP1 CALLDATALOAD SWAP1 PUSH1 0x20 ADD SWAP1 SWAP3 SWAP2 SWAP1 POP POP POP PUSH2 0x20D7 JUMP JUMPDEST STOP JUMPDEST CALLVALUE DUP1 ISZERO PUSH2 0x99D JUMPI PUSH1 0x0 DUP1 REVERT JUMPDEST POP PUSH2 0x9E0 PUSH1 0x4 DUP1 CALLDATASIZE SUB PUSH1 0x20 DUP2 LT ISZERO PUSH2 0x9B4 JUMPI PUSH1 0x0 DUP1 REVERT JUMPDEST DUP2 ADD SWAP1 DUP1 DUP1 CALLDATALOAD PUSH20 0xFFFFFFFFFFFFFFFFFFFFFFFFFFFFFFFFFFFFFFFF AND SWAP1 PUSH1 0x20 ADD SWAP1 SWAP3 SWAP2 SWAP1 POP POP POP PUSH2 0x227C JUMP JUMPDEST PUSH1 0x40 MLOAD DUP1 DUP3 ISZERO ISZERO ISZERO ISZERO DUP2 MSTORE PUSH1 0x20 ADD SWAP2 POP POP PUSH1 0x40 MLOAD DUP1 SWAP2 SUB SWAP1 RETURN JUMPDEST CALLVALUE DUP1 ISZERO PUSH2 0xA06 JUMPI PUSH1 0x0 DUP1 REVERT JUMPDEST POP PUSH2 0xA49 PUSH1 0x4 DUP1 CALLDATASIZE SUB PUSH1 0x20 DUP2 LT ISZERO PUSH2 0xA1D JUMPI PUSH1 0x0 DUP1 REVERT JUMPDEST DUP2 ADD SWAP1 DUP1 DUP1 CALLDATALOAD PUSH20 0xFFFFFFFFFFFFFFFFFFFFFFFFFFFFFFFFFFFFFFFF AND SWAP1 PUSH1 0x20 ADD SWAP1 SWAP3 SWAP2 SWAP1 POP POP POP PUSH2 0x229C JUMP JUMPDEST STOP JUMPDEST CALLVALUE DUP1 ISZERO PUSH2 0xA57 JUMPI PUSH1 0x0 DUP1 REVERT JUMPDEST POP PUSH2 0xA84 PUSH1 0x4 DUP1 CALLDATASIZE SUB PUSH1 0x20 DUP2 LT ISZERO PUSH2 0xA6E JUMPI PUSH1 0x0 DUP1 REVERT JUMPDEST DUP2 ADD SWAP1 DUP1 DUP1 CALLDATALOAD SWAP1 PUSH1 0x20 ADD SWAP1 SWAP3 SWAP2 SWAP1 POP POP POP PUSH2 0x24AC JUMP JUMPDEST STOP JUMPDEST PUSH1 0x19 PUSH1 0x20 MSTORE DUP1 PUSH1 0x0 MSTORE PUSH1 0x40 PUSH1 0x0 KECCAK256 PUSH1 0x0 SWAP2 POP SWAP1 POP DUP1 PUSH1 0x0 ADD SLOAD SWAP1 DUP1 PUSH1 0x1 ADD PUSH1 0x0 SWAP1 SLOAD SWAP1 PUSH2 0x100 EXP SWAP1 DIV PUSH20 0xFFFFFFFFFFFFFFFFFFFFFFFFFFFFFFFFFFFFFFFF AND SWAP1 DUP1 PUSH1 0x2 ADD SLOAD SWAP1 DUP1 PUSH1 0x3 ADD SLOAD SWAP1 DUP1 PUSH1 0x4 ADD SLOAD SWAP1 DUP1 PUSH1 0x5 ADD PUSH1 0x0 SWAP1 SLOAD SWAP1 PUSH2 0x100 EXP SWAP1 DIV PUSH1 0xFF AND SWAP1 POP DUP7 JUMP JUMPDEST PUSH1 0x11 SLOAD DUP2 JUMP JUMPDEST PUSH1 0x10 SLOAD DUP2 JUMP JUMPDEST PUSH2 0xB03 PUSH2 0x2582 JUMP JUMPDEST PUSH20 0xFFFFFFFFFFFFFFFFFFFFFFFFFFFFFFFFFFFFFFFF AND PUSH1 0x3 PUSH1 0x0 SWAP1 SLOAD SWAP1 PUSH2 0x100 EXP SWAP1 DIV PUSH20 0xFFFFFFFFFFFFFFFFFFFFFFFFFFFFFFFFFFFFFFFF AND PUSH20 0xFFFFFFFFFFFFFFFFFFFFFFFFFFFFFFFFFFFFFFFF AND EQ PUSH2 0xBC5 JUMPI PUSH1 0x40 MLOAD PUSH32 0x8C379A000000000000000000000000000000000000000000000000000000000 DUP2 MSTORE PUSH1 0x4 ADD DUP1 DUP1 PUSH1 0x20 ADD DUP3 DUP2 SUB DUP3 MSTORE PUSH1 0x20 DUP2 MSTORE PUSH1 0x20 ADD DUP1 PUSH32 0x4F776E61626C653A2063616C6C6572206973206E6F7420746865206F776E6572 DUP2 MSTORE POP PUSH1 0x20 ADD SWAP2 POP POP PUSH1 0x40 MLOAD DUP1 SWAP2 SUB SWAP1 REVERT JUMPDEST DUP1 PUSH1 0x15 PUSH1 0x0 PUSH2 0x100 EXP DUP2 SLOAD DUP2 PUSH20 0xFFFFFFFFFFFFFFFFFFFFFFFFFFFFFFFFFFFFFFFF MUL NOT AND SWAP1 DUP4 PUSH20 0xFFFFFFFFFFFFFFFFFFFFFFFFFFFFFFFFFFFFFFFF AND MUL OR SWAP1 SSTORE POP POP JUMP JUMPDEST PUSH1 0x17 PUSH1 0x20 MSTORE DUP1 PUSH1 0x0 MSTORE PUSH1 0x40 PUSH1 0x0 KECCAK256 PUSH1 0x0 SWAP2 POP SLOAD SWAP1 PUSH2 0x100 EXP SWAP1 DIV PUSH1 0xFF AND DUP2 JUMP JUMPDEST PUSH1 0x0 PUSH2 0x3039 SWAP1 POP SWAP1 JUMP JUMPDEST PUSH1 0x0 DUP1 PUSH1 0x0 DUP1 PUSH1 0x12 SLOAD PUSH1 0x11 SLOAD PUSH1 0x16 SLOAD PUSH1 0x10 SLOAD SWAP4 POP SWAP4 POP SWAP4 POP SWAP4 POP SWAP1 SWAP2 SWAP3 SWAP4 JUMP JUMPDEST PUSH2 0xC5B PUSH2 0x2582 JUMP JUMPDEST PUSH20 0xFFFFFFFFFFFFFFFFFFFFFFFFFFFFFFFFFFFFFFFF AND PUSH1 0x3 PUSH1 0x0 SWAP1 SLOAD SWAP1 PUSH2 0x100 EXP SWAP1 DIV PUSH20 0xFFFFFFFFFFFFFFFFFFFFFFFFFFFFFFFFFFFFFFFF AND PUSH20 0xFFFFFFFFFFFFFFFFFFFFFFFFFFFFFFFFFFFFFFFF AND EQ PUSH2 0xD1D JUMPI PUSH1 0x40 MLOAD PUSH32 0x8C379A000000000000000000000000000000000000000000000000000000000 DUP2 MSTORE PUSH1 0x4 ADD DUP1 DUP1 PUSH1 0x20 ADD DUP3 DUP2 SUB DUP3 MSTORE PUSH1 0x20 DUP2 MSTORE PUSH1 0x20 ADD DUP1 PUSH32 0x4F776E61626C653A2063616C6C6572206973206E6F7420746865206F776E6572 DUP2 MSTORE POP PUSH1 0x20 ADD SWAP2 POP POP PUSH1 0x40 MLOAD DUP1 SWAP2 SUB SWAP1 REVERT JUMPDEST DUP1 PUSH1 0x1 PUSH1 0x0 PUSH2 0x100 EXP DUP2 SLOAD DUP2 PUSH20 0xFFFFFFFFFFFFFFFFFFFFFFFFFFFFFFFFFFFFFFFF MUL NOT AND SWAP1 DUP4 PUSH20 0xFFFFFFFFFFFFFFFFFFFFFFFFFFFFFFFFFFFFFFFF AND MUL OR SWAP1 SSTORE POP POP JUMP JUMPDEST PUSH1 0x0 DUP1 PUSH1 0x0 SWAP1 SLOAD SWAP1 PUSH2 0x100 EXP SWAP1 DIV PUSH20 0xFFFFFFFFFFFFFFFFFFFFFFFFFFFFFFFFFFFFFFFF AND PUSH20 0xFFFFFFFFFFFFFFFFFFFFFFFFFFFFFFFFFFFFFFFF AND PUSH4 0x70A08231 ADDRESS PUSH1 0x40 MLOAD DUP3 PUSH4 0xFFFFFFFF AND PUSH1 0xE0 SHL DUP2 MSTORE PUSH1 0x4 ADD DUP1 DUP3 PUSH20 0xFFFFFFFFFFFFFFFFFFFFFFFFFFFFFFFFFFFFFFFF AND PUSH20 0xFFFFFFFFFFFFFFFFFFFFFFFFFFFFFFFFFFFFFFFF AND DUP2 MSTORE PUSH1 0x20 ADD SWAP2 POP POP PUSH1 0x20 PUSH1 0x40 MLOAD DUP1 DUP4 SUB DUP2 DUP7 DUP1 EXTCODESIZE ISZERO DUP1 ISZERO PUSH2 0xE01 JUMPI PUSH1 0x0 DUP1 REVERT JUMPDEST POP GAS STATICCALL ISZERO DUP1 ISZERO PUSH2 0xE15 JUMPI RETURNDATASIZE PUSH1 0x0 DUP1 RETURNDATACOPY RETURNDATASIZE PUSH1 0x0 REVERT JUMPDEST POP POP POP POP PUSH1 0x40 MLOAD RETURNDATASIZE PUSH1 0x20 DUP2 LT ISZERO PUSH2 0xE2B JUMPI PUSH1 0x0 DUP1 REVERT JUMPDEST DUP2 ADD SWAP1 DUP1 DUP1 MLOAD SWAP1 PUSH1 0x20 ADD SWAP1 SWAP3 SWAP2 SWAP1 POP POP POP SWAP1 POP SWAP1 JUMP JUMPDEST PUSH1 0x0 GAS SWAP1 POP PUSH1 0x18 PUSH1 0x0 DUP5 PUSH20 0xFFFFFFFFFFFFFFFFFFFFFFFFFFFFFFFFFFFFFFFF AND PUSH20 0xFFFFFFFFFFFFFFFFFFFFFFFFFFFFFFFFFFFFFFFF AND DUP2 MSTORE PUSH1 0x20 ADD SWAP1 DUP2 MSTORE PUSH1 0x20 ADD PUSH1 0x0 KECCAK256 PUSH1 0x0 SWAP1 SLOAD SWAP1 PUSH2 0x100 EXP SWAP1 DIV PUSH1 0xFF AND PUSH2 0xF05 JUMPI PUSH1 0x40 MLOAD PUSH32 0x8C379A000000000000000000000000000000000000000000000000000000000 DUP2 MSTORE PUSH1 0x4 ADD DUP1 DUP1 PUSH1 0x20 ADD DUP3 DUP2 SUB DUP3 MSTORE PUSH1 0x18 DUP2 MSTORE PUSH1 0x20 ADD DUP1 PUSH32 0x676173206672656520626574206E6F7420616C6C6F7765640000000000000000 DUP2 MSTORE POP PUSH1 0x20 ADD SWAP2 POP POP PUSH1 0x40 MLOAD DUP1 SWAP2 SUB SWAP1 REVERT JUMPDEST PUSH2 0xF0F DUP4 DUP4 PUSH2 0x20D7 JUMP JUMPDEST PUSH1 0x0 GAS DUP3 SUB SWAP1 POP PUSH1 0x0 GASPRICE SWAP1 POP CALLER PUSH20 0xFFFFFFFFFFFFFFFFFFFFFFFFFFFFFFFFFFFFFFFF AND PUSH2 0x8FC PUSH2 0xF48 DUP4 DUP6 PUSH2 0x258A SWAP1 SWAP2 SWAP1 PUSH4 0xFFFFFFFF AND JUMP JUMPDEST SWAP1 DUP2 ISZERO MUL SWAP1 PUSH1 0x40 MLOAD PUSH1 0x0 PUSH1 0x40 MLOAD DUP1 DUP4 SUB DUP2 DUP6 DUP9 DUP9 CALL SWAP4 POP POP POP POP ISZERO DUP1 ISZERO PUSH2 0xF73 JUMPI RETURNDATASIZE PUSH1 0x0 DUP1 RETURNDATACOPY RETURNDATASIZE PUSH1 0x0 REVERT JUMPDEST POP POP POP POP POP POP JUMP JUMPDEST PUSH1 0x15 PUSH1 0x0 SWAP1 SLOAD SWAP1 PUSH2 0x100 EXP SWAP1 DIV PUSH20 0xFFFFFFFFFFFFFFFFFFFFFFFFFFFFFFFFFFFFFFFF AND DUP2 JUMP JUMPDEST PUSH1 0x16 SLOAD DUP2 JUMP JUMPDEST PUSH2 0xFAF PUSH2 0x2582 JUMP JUMPDEST PUSH20 0xFFFFFFFFFFFFFFFFFFFFFFFFFFFFFFFFFFFFFFFF AND PUSH1 0x3 PUSH1 0x0 SWAP1 SLOAD SWAP1 PUSH2 0x100 EXP SWAP1 DIV PUSH20 0xFFFFFFFFFFFFFFFFFFFFFFFFFFFFFFFFFFFFFFFF AND PUSH20 0xFFFFFFFFFFFFFFFFFFFFFFFFFFFFFFFFFFFFFFFF AND EQ PUSH2 0x1071 JUMPI PUSH1 0x40 MLOAD PUSH32 0x8C379A000000000000000000000000000000000000000000000000000000000 DUP2 MSTORE PUSH1 0x4 ADD DUP1 DUP1 PUSH1 0x20 ADD DUP3 DUP2 SUB DUP3 MSTORE PUSH1 0x20 DUP2 MSTORE PUSH1 0x20 ADD DUP1 PUSH32 0x4F776E61626C653A2063616C6C6572206973206E6F7420746865206F776E6572 DUP2 MSTORE POP PUSH1 0x20 ADD SWAP2 POP POP PUSH1 0x40 MLOAD DUP1 SWAP2 SUB SWAP1 REVERT JUMPDEST PUSH1 0x0 PUSH20 0xFFFFFFFFFFFFFFFFFFFFFFFFFFFFFFFFFFFFFFFF AND PUSH1 0x3 PUSH1 0x0 SWAP1 SLOAD SWAP1 PUSH2 0x100 EXP SWAP1 DIV PUSH20 0xFFFFFFFFFFFFFFFFFFFFFFFFFFFFFFFFFFFFFFFF AND PUSH20 0xFFFFFFFFFFFFFFFFFFFFFFFFFFFFFFFFFFFFFFFF AND PUSH32 0x8BE0079C531659141344CD1FD0A4F28419497F9722A3DAAFE3B4186F6B6457E0 PUSH1 0x40 MLOAD PUSH1 0x40 MLOAD DUP1 SWAP2 SUB SWAP1 LOG3 PUSH1 0x0 PUSH1 0x3 PUSH1 0x0 PUSH2 0x100 EXP DUP2 SLOAD DUP2 PUSH20 0xFFFFFFFFFFFFFFFFFFFFFFFFFFFFFFFFFFFFFFFF MUL NOT AND SWAP1 DUP4 PUSH20 0xFFFFFFFFFFFFFFFFFFFFFFFFFFFFFFFFFFFFFFFF AND MUL OR SWAP1 SSTORE POP JUMP JUMPDEST PUSH2 0x113A PUSH2 0x2582 JUMP JUMPDEST PUSH20 0xFFFFFFFFFFFFFFFFFFFFFFFFFFFFFFFFFFFFFFFF AND PUSH1 0x3 PUSH1 0x0 SWAP1 SLOAD SWAP1 PUSH2 0x100 EXP SWAP1 DIV PUSH20 0xFFFFFFFFFFFFFFFFFFFFFFFFFFFFFFFFFFFFFFFF AND PUSH20 0xFFFFFFFFFFFFFFFFFFFFFFFFFFFFFFFFFFFFFFFF AND EQ PUSH2 0x11FC JUMPI PUSH1 0x40 MLOAD PUSH32 0x8C379A000000000000000000000000000000000000000000000000000000000 DUP2 MSTORE PUSH1 0x4 ADD DUP1 DUP1 PUSH1 0x20 ADD DUP3 DUP2 SUB DUP3 MSTORE PUSH1 0x20 DUP2 MSTORE PUSH1 0x20 ADD DUP1 PUSH32 0x4F776E61626C653A2063616C6C6572206973206E6F7420746865206F776E6572 DUP2 MSTORE POP PUSH1 0x20 ADD SWAP2 POP POP PUSH1 0x40 MLOAD DUP1 SWAP2 SUB SWAP1 REVERT JUMPDEST PUSH1 0x0 DUP1 SWAP1 SLOAD SWAP1 PUSH2 0x100 EXP SWAP1 DIV PUSH20 0xFFFFFFFFFFFFFFFFFFFFFFFFFFFFFFFFFFFFFFFF AND PUSH20 0xFFFFFFFFFFFFFFFFFFFFFFFFFFFFFFFFFFFFFFFF AND PUSH4 0xA9059CBB PUSH1 0x15 PUSH1 0x0 SWAP1 SLOAD SWAP1 PUSH2 0x100 EXP SWAP1 DIV PUSH20 0xFFFFFFFFFFFFFFFFFFFFFFFFFFFFFFFFFFFFFFFF AND DUP4 PUSH1 0x40 MLOAD DUP4 PUSH4 0xFFFFFFFF AND PUSH1 0xE0 SHL DUP2 MSTORE PUSH1 0x4 ADD DUP1 DUP4 PUSH20 0xFFFFFFFFFFFFFFFFFFFFFFFFFFFFFFFFFFFFFFFF AND PUSH20 0xFFFFFFFFFFFFFFFFFFFFFFFFFFFFFFFFFFFFFFFF AND DUP2 MSTORE PUSH1 0x20 ADD DUP3 DUP2 MSTORE PUSH1 0x20 ADD SWAP3 POP POP POP PUSH1 0x20 PUSH1 0x40 MLOAD DUP1 DUP4 SUB DUP2 PUSH1 0x0 DUP8 DUP1 EXTCODESIZE ISZERO DUP1 ISZERO PUSH2 0x12C6 JUMPI PUSH1 0x0 DUP1 REVERT JUMPDEST POP GAS CALL ISZERO DUP1 ISZERO PUSH2 0x12DA JUMPI RETURNDATASIZE PUSH1 0x0 DUP1 RETURNDATACOPY RETURNDATASIZE PUSH1 0x0 REVERT JUMPDEST POP POP POP POP PUSH1 0x40 MLOAD RETURNDATASIZE PUSH1 0x20 DUP2 LT ISZERO PUSH2 0x12F0 JUMPI PUSH1 0x0 DUP1 REVERT JUMPDEST DUP2 ADD SWAP1 DUP1 DUP1 MLOAD SWAP1 PUSH1 0x20 ADD SWAP1 SWAP3 SWAP2 SWAP1 POP POP POP POP POP JUMP JUMPDEST PUSH1 0x0 PUSH1 0x3 PUSH1 0x0 SWAP1 SLOAD SWAP1 PUSH2 0x100 EXP SWAP1 DIV PUSH20 0xFFFFFFFFFFFFFFFFFFFFFFFFFFFFFFFFFFFFFFFF AND SWAP1 POP SWAP1 JUMP JUMPDEST PUSH1 0x1 PUSH1 0x0 SWAP1 SLOAD SWAP1 PUSH2 0x100 EXP SWAP1 DIV PUSH20 0xFFFFFFFFFFFFFFFFFFFFFFFFFFFFFFFFFFFFFFFF AND PUSH20 0xFFFFFFFFFFFFFFFFFFFFFFFFFFFFFFFFFFFFFFFF AND CALLER PUSH20 0xFFFFFFFFFFFFFFFFFFFFFFFFFFFFFFFFFFFFFFFF AND EQ PUSH2 0x13F2 JUMPI PUSH1 0x40 MLOAD PUSH32 0x8C379A000000000000000000000000000000000000000000000000000000000 DUP2 MSTORE PUSH1 0x4 ADD DUP1 DUP1 PUSH1 0x20 ADD DUP3 DUP2 SUB DUP3 MSTORE PUSH1 0x1F DUP2 MSTORE PUSH1 0x20 ADD DUP1 PUSH32 0x4F6E6C7920565246436F6F7264696E61746F722063616E2066756C66696C6C00 DUP2 MSTORE POP PUSH1 0x20 ADD SWAP2 POP POP PUSH1 0x40 MLOAD DUP1 SWAP2 SUB SWAP1 REVERT JUMPDEST PUSH2 0x13FC DUP3 DUP3 PUSH2 0x2610 JUMP JUMPDEST POP POP JUMP JUMPDEST PUSH1 0x17 PUSH1 0x0 CALLER PUSH20 0xFFFFFFFFFFFFFFFFFFFFFFFFFFFFFFFFFFFFFFFF AND PUSH20 0xFFFFFFFFFFFFFFFFFFFFFFFFFFFFFFFFFFFFFFFF AND DUP2 MSTORE PUSH1 0x20 ADD SWAP1 DUP2 MSTORE PUSH1 0x20 ADD PUSH1 0x0 KECCAK256 PUSH1 0x0 SWAP1 SLOAD SWAP1 PUSH2 0x100 EXP SWAP1 DIV PUSH1 0xFF AND DUP1 PUSH2 0x148A JUMPI POP CALLER PUSH20 0xFFFFFFFFFFFFFFFFFFFFFFFFFFFFFFFFFFFFFFFF AND PUSH2 0x1472 PUSH2 0x1305 JUMP JUMPDEST PUSH20 0xFFFFFFFFFFFFFFFFFFFFFFFFFFFFFFFFFFFFFFFF AND EQ JUMPDEST PUSH2 0x14DF JUMPI PUSH1 0x40 MLOAD PUSH32 0x8C379A000000000000000000000000000000000000000000000000000000000 DUP2 MSTORE PUSH1 0x4 ADD DUP1 DUP1 PUSH1 0x20 ADD DUP3 DUP2 SUB DUP3 MSTORE PUSH1 0x22 DUP2 MSTORE PUSH1 0x20 ADD DUP1 PUSH2 0x31F7 PUSH1 0x22 SWAP2 CODECOPY PUSH1 0x40 ADD SWAP2 POP POP PUSH1 0x40 MLOAD DUP1 SWAP2 SUB SWAP1 REVERT JUMPDEST PUSH1 0x0 DUP1 SWAP1 POP JUMPDEST DUP3 MLOAD DUP2 LT ISZERO PUSH2 0x1565 JUMPI DUP2 PUSH1 0x18 PUSH1 0x0 DUP6 DUP5 DUP2 MLOAD DUP2 LT PUSH2 0x14FF JUMPI INVALID JUMPDEST PUSH1 0x20 MUL PUSH1 0x20 ADD ADD MLOAD PUSH20 0xFFFFFFFFFFFFFFFFFFFFFFFFFFFFFFFFFFFFFFFF AND PUSH20 0xFFFFFFFFFFFFFFFFFFFFFFFFFFFFFFFFFFFFFFFF AND DUP2 MSTORE PUSH1 0x20 ADD SWAP1 DUP2 MSTORE PUSH1 0x20 ADD PUSH1 0x0 KECCAK256 PUSH1 0x0 PUSH2 0x100 EXP DUP2 SLOAD DUP2 PUSH1 0xFF MUL NOT AND SWAP1 DUP4 ISZERO ISZERO MUL OR SWAP1 SSTORE POP DUP1 DUP1 PUSH1 0x1 ADD SWAP2 POP POP PUSH2 0x14E5 JUMP JUMPDEST POP POP POP JUMP JUMPDEST PUSH1 0x12 SLOAD DUP2 JUMP JUMPDEST PUSH2 0x1578 PUSH2 0x2582 JUMP JUMPDEST PUSH20 0xFFFFFFFFFFFFFFFFFFFFFFFFFFFFFFFFFFFFFFFF AND PUSH1 0x3 PUSH1 0x0 SWAP1 SLOAD SWAP1 PUSH2 0x100 EXP SWAP1 DIV PUSH20 0xFFFFFFFFFFFFFFFFFFFFFFFFFFFFFFFFFFFFFFFF AND PUSH20 0xFFFFFFFFFFFFFFFFFFFFFFFFFFFFFFFFFFFFFFFF AND EQ PUSH2 0x163A JUMPI PUSH1 0x40 MLOAD PUSH32 0x8C379A000000000000000000000000000000000000000000000000000000000 DUP2 MSTORE PUSH1 0x4 ADD DUP1 DUP1 PUSH1 0x20 ADD DUP3 DUP2 SUB DUP3 MSTORE PUSH1 0x20 DUP2 MSTORE PUSH1 0x20 ADD DUP1 PUSH32 0x4F776E61626C653A2063616C6C6572206973206E6F7420746865206F776E6572 DUP2 MSTORE POP PUSH1 0x20 ADD SWAP2 POP POP PUSH1 0x40 MLOAD DUP1 SWAP2 SUB SWAP1 REVERT JUMPDEST DUP1 PUSH1 0x4 DUP2 SWAP1 SSTORE POP POP JUMP JUMPDEST PUSH1 0x2 PUSH1 0x20 MSTORE DUP1 PUSH1 0x0 MSTORE PUSH1 0x40 PUSH1 0x0 KECCAK256 PUSH1 0x0 SWAP2 POP SWAP1 POP SLOAD DUP2 JUMP JUMPDEST PUSH2 0x1664 PUSH2 0x2582 JUMP JUMPDEST PUSH20 0xFFFFFFFFFFFFFFFFFFFFFFFFFFFFFFFFFFFFFFFF AND PUSH1 0x3 PUSH1 0x0 SWAP1 SLOAD SWAP1 PUSH2 0x100 EXP SWAP1 DIV PUSH20 0xFFFFFFFFFFFFFFFFFFFFFFFFFFFFFFFFFFFFFFFF AND PUSH20 0xFFFFFFFFFFFFFFFFFFFFFFFFFFFFFFFFFFFFFFFF AND EQ PUSH2 0x1726 JUMPI PUSH1 0x40 MLOAD PUSH32 0x8C379A000000000000000000000000000000000000000000000000000000000 DUP2 MSTORE PUSH1 0x4 ADD DUP1 DUP1 PUSH1 0x20 ADD DUP3 DUP2 SUB DUP3 MSTORE PUSH1 0x20 DUP2 MSTORE PUSH1 0x20 ADD DUP1 PUSH32 0x4F776E61626C653A2063616C6C6572206973206E6F7420746865206F776E6572 DUP2 MSTORE POP PUSH1 0x20 ADD SWAP2 POP POP PUSH1 0x40 MLOAD DUP1 SWAP2 SUB SWAP1 REVERT JUMPDEST DUP1 PUSH1 0x0 DUP1 PUSH2 0x100 EXP DUP2 SLOAD DUP2 PUSH20 0xFFFFFFFFFFFFFFFFFFFFFFFFFFFFFFFFFFFFFFFF MUL NOT AND SWAP1 DUP4 PUSH20 0xFFFFFFFFFFFFFFFFFFFFFFFFFFFFFFFFFFFFFFFF AND MUL OR SWAP1 SSTORE POP POP JUMP JUMPDEST PUSH2 0x1771 PUSH2 0x2582 JUMP JUMPDEST PUSH20 0xFFFFFFFFFFFFFFFFFFFFFFFFFFFFFFFFFFFFFFFF AND PUSH1 0x3 PUSH1 0x0 SWAP1 SLOAD SWAP1 PUSH2 0x100 EXP SWAP1 DIV PUSH20 0xFFFFFFFFFFFFFFFFFFFFFFFFFFFFFFFFFFFFFFFF AND PUSH20 0xFFFFFFFFFFFFFFFFFFFFFFFFFFFFFFFFFFFFFFFF AND EQ PUSH2 0x1833 JUMPI PUSH1 0x40 MLOAD PUSH32 0x8C379A000000000000000000000000000000000000000000000000000000000 DUP2 MSTORE PUSH1 0x4 ADD DUP1 DUP1 PUSH1 0x20 ADD DUP3 DUP2 SUB DUP3 MSTORE PUSH1 0x20 DUP2 MSTORE PUSH1 0x20 ADD DUP1 PUSH32 0x4F776E61626C653A2063616C6C6572206973206E6F7420746865206F776E6572 DUP2 MSTORE POP PUSH1 0x20 ADD SWAP2 POP POP PUSH1 0x40 MLOAD DUP1 SWAP2 SUB SWAP1 REVERT JUMPDEST DUP1 PUSH1 0x17 PUSH1 0x0 DUP5 PUSH20 0xFFFFFFFFFFFFFFFFFFFFFFFFFFFFFFFFFFFFFFFF AND PUSH20 0xFFFFFFFFFFFFFFFFFFFFFFFFFFFFFFFFFFFFFFFF AND DUP2 MSTORE PUSH1 0x20 ADD SWAP1 DUP2 MSTORE PUSH1 0x20 ADD PUSH1 0x0 KECCAK256 PUSH1 0x0 PUSH2 0x100 EXP DUP2 SLOAD DUP2 PUSH1 0xFF MUL NOT AND SWAP1 DUP4 ISZERO ISZERO MUL OR SWAP1 SSTORE POP POP POP JUMP JUMPDEST PUSH1 0x0 PUSH1 0x19 PUSH1 0x0 DUP4 DUP2 MSTORE PUSH1 0x20 ADD SWAP1 DUP2 MSTORE PUSH1 0x20 ADD PUSH1 0x0 KECCAK256 SWAP1 POP PUSH1 0x0 ISZERO ISZERO DUP2 PUSH1 0x5 ADD PUSH1 0x0 SWAP1 SLOAD SWAP1 PUSH2 0x100 EXP SWAP1 DIV PUSH1 0xFF AND ISZERO ISZERO EQ PUSH2 0x1913 JUMPI PUSH1 0x40 MLOAD PUSH32 0x8C379A000000000000000000000000000000000000000000000000000000000 DUP2 MSTORE PUSH1 0x4 ADD DUP1 DUP1 PUSH1 0x20 ADD DUP3 DUP2 SUB DUP3 MSTORE PUSH1 0x2A DUP2 MSTORE PUSH1 0x20 ADD DUP1 PUSH2 0x326B PUSH1 0x2A SWAP2 CODECOPY PUSH1 0x40 ADD SWAP2 POP POP PUSH1 0x40 MLOAD DUP1 SWAP2 SUB SWAP1 REVERT JUMPDEST DUP1 PUSH1 0x2 ADD SLOAD SELFBALANCE LT ISZERO PUSH2 0x1970 JUMPI PUSH1 0x40 MLOAD PUSH32 0x8C379A000000000000000000000000000000000000000000000000000000000 DUP2 MSTORE PUSH1 0x4 ADD DUP1 DUP1 PUSH1 0x20 ADD DUP3 DUP2 SUB DUP3 MSTORE PUSH1 0x31 DUP2 MSTORE PUSH1 0x20 ADD DUP1 PUSH2 0x323A PUSH1 0x31 SWAP2 CODECOPY PUSH1 0x40 ADD SWAP2 POP POP PUSH1 0x40 MLOAD DUP1 SWAP2 SUB SWAP1 REVERT JUMPDEST PUSH1 0x1 DUP2 PUSH1 0x5 ADD PUSH1 0x0 PUSH2 0x100 EXP DUP2 SLOAD DUP2 PUSH1 0xFF MUL NOT AND SWAP1 DUP4 ISZERO ISZERO MUL OR SWAP1 SSTORE POP DUP1 PUSH1 0x2 ADD SLOAD PUSH1 0x13 SLOAD LT PUSH2 0x19B3 JUMPI DUP1 PUSH1 0x2 ADD SLOAD PUSH1 0x13 PUSH1 0x0 DUP3 DUP3 SLOAD SUB SWAP3 POP POP DUP2 SWAP1 SSTORE POP PUSH2 0x19BC JUMP JUMPDEST PUSH1 0x0 PUSH1 0x13 DUP2 SWAP1 SSTORE POP JUMPDEST DUP1 PUSH1 0x1 ADD PUSH1 0x0 SWAP1 SLOAD SWAP1 PUSH2 0x100 EXP SWAP1 DIV PUSH20 0xFFFFFFFFFFFFFFFFFFFFFFFFFFFFFFFFFFFFFFFF AND PUSH20 0xFFFFFFFFFFFFFFFFFFFFFFFFFFFFFFFFFFFFFFFF AND PUSH2 0x8FC DUP3 PUSH1 0x2 ADD SLOAD SWAP1 DUP2 ISZERO MUL SWAP1 PUSH1 0x40 MLOAD PUSH1 0x0 PUSH1 0x40 MLOAD DUP1 DUP4 SUB DUP2 DUP6 DUP9 DUP9 CALL SWAP4 POP POP POP POP ISZERO DUP1 ISZERO PUSH2 0x1A2A JUMPI RETURNDATASIZE PUSH1 0x0 DUP1 RETURNDATACOPY RETURNDATASIZE PUSH1 0x0 REVERT JUMPDEST POP POP POP JUMP JUMPDEST PUSH1 0x12 SLOAD CALLVALUE LT ISZERO PUSH2 0x1AA7 JUMPI PUSH1 0x40 MLOAD PUSH32 0x8C379A000000000000000000000000000000000000000000000000000000000 DUP2 MSTORE PUSH1 0x4 ADD DUP1 DUP1 PUSH1 0x20 ADD DUP3 DUP2 SUB DUP3 MSTORE PUSH1 0x13 DUP2 MSTORE PUSH1 0x20 ADD DUP1 PUSH32 0x6D696E696D756D20626574206E6F74206D657400000000000000000000000000 DUP2 MSTORE POP PUSH1 0x20 ADD SWAP2 POP POP PUSH1 0x40 MLOAD DUP1 SWAP2 SUB SWAP1 REVERT JUMPDEST PUSH1 0x6 PUSH1 0x0 SWAP1 SSTORE PUSH1 0x7 PUSH1 0x0 SWAP1 SSTORE PUSH1 0x8 PUSH1 0x0 SWAP1 SSTORE PUSH1 0x9 PUSH1 0x0 SWAP1 SSTORE PUSH1 0xA PUSH1 0x0 SWAP1 SSTORE PUSH1 0xB PUSH1 0x0 SWAP1 SSTORE PUSH1 0xC PUSH1 0x0 SWAP1 SSTORE PUSH1 0xD PUSH1 0x0 SWAP1 SSTORE PUSH1 0xE PUSH1 0x0 SWAP1 SSTORE PUSH1 0xF PUSH1 0x0 SWAP1 SSTORE PUSH2 0x1AF8 CALLVALUE PUSH1 0x13 SLOAD PUSH2 0x28E8 SWAP1 SWAP2 SWAP1 PUSH4 0xFFFFFFFF AND JUMP JUMPDEST PUSH1 0x13 DUP2 SWAP1 SSTORE POP PUSH2 0x1B09 DUP3 CALLVALUE DUP4 PUSH2 0x2970 JUMP JUMPDEST PUSH2 0x1B14 PUSH1 0x14 SLOAD PUSH2 0x2AA3 JUMP JUMPDEST POP POP JUMP JUMPDEST PUSH2 0x1B20 PUSH2 0x2582 JUMP JUMPDEST PUSH20 0xFFFFFFFFFFFFFFFFFFFFFFFFFFFFFFFFFFFFFFFF AND PUSH1 0x3 PUSH1 0x0 SWAP1 SLOAD SWAP1 PUSH2 0x100 EXP SWAP1 DIV PUSH20 0xFFFFFFFFFFFFFFFFFFFFFFFFFFFFFFFFFFFFFFFF AND PUSH20 0xFFFFFFFFFFFFFFFFFFFFFFFFFFFFFFFFFFFFFFFF AND EQ PUSH2 0x1BE2 JUMPI PUSH1 0x40 MLOAD PUSH32 0x8C379A000000000000000000000000000000000000000000000000000000000 DUP2 MSTORE PUSH1 0x4 ADD DUP1 DUP1 PUSH1 0x20 ADD DUP3 DUP2 SUB DUP3 MSTORE PUSH1 0x20 DUP2 MSTORE PUSH1 0x20 ADD DUP1 PUSH32 0x4F776E61626C653A2063616C6C6572206973206E6F7420746865206F776E6572 DUP2 MSTORE POP PUSH1 0x20 ADD SWAP2 POP POP PUSH1 0x40 MLOAD DUP1 SWAP2 SUB SWAP1 REVERT JUMPDEST PUSH1 0x0 PUSH2 0x1BF9 PUSH1 0x13 SLOAD SELFBALANCE PUSH2 0x2B71 SWAP1 SWAP2 SWAP1 PUSH4 0xFFFFFFFF AND JUMP JUMPDEST SWAP1 POP PUSH1 0x15 PUSH1 0x0 SWAP1 SLOAD SWAP1 PUSH2 0x100 EXP SWAP1 DIV PUSH20 0xFFFFFFFFFFFFFFFFFFFFFFFFFFFFFFFFFFFFFFFF AND PUSH20 0xFFFFFFFFFFFFFFFFFFFFFFFFFFFFFFFFFFFFFFFF AND PUSH2 0x8FC DUP3 SWAP1 DUP2 ISZERO MUL SWAP1 PUSH1 0x40 MLOAD PUSH1 0x0 PUSH1 0x40 MLOAD DUP1 DUP4 SUB DUP2 DUP6 DUP9 DUP9 CALL SWAP4 POP POP POP POP ISZERO DUP1 ISZERO PUSH2 0x1C63 JUMPI RETURNDATASIZE PUSH1 0x0 DUP1 RETURNDATACOPY RETURNDATASIZE PUSH1 0x0 REVERT JUMPDEST POP PUSH1 0x0 DUP1 PUSH1 0x0 SWAP1 SLOAD SWAP1 PUSH2 0x100 EXP SWAP1 DIV PUSH20 0xFFFFFFFFFFFFFFFFFFFFFFFFFFFFFFFFFFFFFFFF AND PUSH20 0xFFFFFFFFFFFFFFFFFFFFFFFFFFFFFFFFFFFFFFFF AND PUSH4 0x70A08231 ADDRESS PUSH1 0x40 MLOAD DUP3 PUSH4 0xFFFFFFFF AND PUSH1 0xE0 SHL DUP2 MSTORE PUSH1 0x4 ADD DUP1 DUP3 PUSH20 0xFFFFFFFFFFFFFFFFFFFFFFFFFFFFFFFFFFFFFFFF AND PUSH20 0xFFFFFFFFFFFFFFFFFFFFFFFFFFFFFFFFFFFFFFFF AND DUP2 MSTORE PUSH1 0x20 ADD SWAP2 POP POP PUSH1 0x20 PUSH1 0x40 MLOAD DUP1 DUP4 SUB DUP2 DUP7 DUP1 EXTCODESIZE ISZERO DUP1 ISZERO PUSH2 0x1D04 JUMPI PUSH1 0x0 DUP1 REVERT JUMPDEST POP GAS STATICCALL ISZERO DUP1 ISZERO PUSH2 0x1D18 JUMPI RETURNDATASIZE PUSH1 0x0 DUP1 RETURNDATACOPY RETURNDATASIZE PUSH1 0x0 REVERT JUMPDEST POP POP POP POP PUSH1 0x40 MLOAD RETURNDATASIZE PUSH1 0x20 DUP2 LT ISZERO PUSH2 0x1D2E JUMPI PUSH1 0x0 DUP1 REVERT JUMPDEST DUP2 ADD SWAP1 DUP1 DUP1 MLOAD SWAP1 PUSH1 0x20 ADD SWAP1 SWAP3 SWAP2 SWAP1 POP POP POP GT ISZERO PUSH2 0x1F24 JUMPI PUSH1 0x0 DUP1 SWAP1 SLOAD SWAP1 PUSH2 0x100 EXP SWAP1 DIV PUSH20 0xFFFFFFFFFFFFFFFFFFFFFFFFFFFFFFFFFFFFFFFF AND PUSH20 0xFFFFFFFFFFFFFFFFFFFFFFFFFFFFFFFFFFFFFFFF AND PUSH4 0xA9059CBB PUSH1 0x15 PUSH1 0x0 SWAP1 SLOAD SWAP1 PUSH2 0x100 EXP SWAP1 DIV PUSH20 0xFFFFFFFFFFFFFFFFFFFFFFFFFFFFFFFFFFFFFFFF AND PUSH1 0x0 DUP1 SWAP1 SLOAD SWAP1 PUSH2 0x100 EXP SWAP1 DIV PUSH20 0xFFFFFFFFFFFFFFFFFFFFFFFFFFFFFFFFFFFFFFFF AND PUSH20 0xFFFFFFFFFFFFFFFFFFFFFFFFFFFFFFFFFFFFFFFF AND PUSH4 0x70A08231 ADDRESS PUSH1 0x40 MLOAD DUP3 PUSH4 0xFFFFFFFF AND PUSH1 0xE0 SHL DUP2 MSTORE PUSH1 0x4 ADD DUP1 DUP3 PUSH20 0xFFFFFFFFFFFFFFFFFFFFFFFFFFFFFFFFFFFFFFFF AND PUSH20 0xFFFFFFFFFFFFFFFFFFFFFFFFFFFFFFFFFFFFFFFF AND DUP2 MSTORE PUSH1 0x20 ADD SWAP2 POP POP PUSH1 0x20 PUSH1 0x40 MLOAD DUP1 DUP4 SUB DUP2 DUP7 DUP1 EXTCODESIZE ISZERO DUP1 ISZERO PUSH2 0x1E43 JUMPI PUSH1 0x0 DUP1 REVERT JUMPDEST POP GAS STATICCALL ISZERO DUP1 ISZERO PUSH2 0x1E57 JUMPI RETURNDATASIZE PUSH1 0x0 DUP1 RETURNDATACOPY RETURNDATASIZE PUSH1 0x0 REVERT JUMPDEST POP POP POP POP PUSH1 0x40 MLOAD RETURNDATASIZE PUSH1 0x20 DUP2 LT ISZERO PUSH2 0x1E6D JUMPI PUSH1 0x0 DUP1 REVERT JUMPDEST DUP2 ADD SWAP1 DUP1 DUP1 MLOAD SWAP1 PUSH1 0x20 ADD SWAP1 SWAP3 SWAP2 SWAP1 POP POP POP PUSH1 0x40 MLOAD DUP4 PUSH4 0xFFFFFFFF AND PUSH1 0xE0 SHL DUP2 MSTORE PUSH1 0x4 ADD DUP1 DUP4 PUSH20 0xFFFFFFFFFFFFFFFFFFFFFFFFFFFFFFFFFFFFFFFF AND PUSH20 0xFFFFFFFFFFFFFFFFFFFFFFFFFFFFFFFFFFFFFFFF AND DUP2 MSTORE PUSH1 0x20 ADD DUP3 DUP2 MSTORE PUSH1 0x20 ADD SWAP3 POP POP POP PUSH1 0x20 PUSH1 0x40 MLOAD DUP1 DUP4 SUB DUP2 PUSH1 0x0 DUP8 DUP1 EXTCODESIZE ISZERO DUP1 ISZERO PUSH2 0x1EE7 JUMPI PUSH1 0x0 DUP1 REVERT JUMPDEST POP GAS CALL ISZERO DUP1 ISZERO PUSH2 0x1EFB JUMPI RETURNDATASIZE PUSH1 0x0 DUP1 RETURNDATACOPY RETURNDATASIZE PUSH1 0x0 REVERT JUMPDEST POP POP POP POP PUSH1 0x40 MLOAD RETURNDATASIZE PUSH1 0x20 DUP2 LT ISZERO PUSH2 0x1F11 JUMPI PUSH1 0x0 DUP1 REVERT JUMPDEST DUP2 ADD SWAP1 DUP1 DUP1 MLOAD SWAP1 PUSH1 0x20 ADD SWAP1 SWAP3 SWAP2 SWAP1 POP POP POP POP JUMPDEST POP JUMP JUMPDEST PUSH2 0x1F2F PUSH2 0x2582 JUMP JUMPDEST PUSH20 0xFFFFFFFFFFFFFFFFFFFFFFFFFFFFFFFFFFFFFFFF AND PUSH1 0x3 PUSH1 0x0 SWAP1 SLOAD SWAP1 PUSH2 0x100 EXP SWAP1 DIV PUSH20 0xFFFFFFFFFFFFFFFFFFFFFFFFFFFFFFFFFFFFFFFF AND PUSH20 0xFFFFFFFFFFFFFFFFFFFFFFFFFFFFFFFFFFFFFFFF AND EQ PUSH2 0x1FF1 JUMPI PUSH1 0x40 MLOAD PUSH32 0x8C379A000000000000000000000000000000000000000000000000000000000 DUP2 MSTORE PUSH1 0x4 ADD DUP1 DUP1 PUSH1 0x20 ADD DUP3 DUP2 SUB DUP3 MSTORE PUSH1 0x20 DUP2 MSTORE PUSH1 0x20 ADD DUP1 PUSH32 0x4F776E61626C653A2063616C6C6572206973206E6F7420746865206F776E6572 DUP2 MSTORE POP PUSH1 0x20 ADD SWAP2 POP POP PUSH1 0x40 MLOAD DUP1 SWAP2 SUB SWAP1 REVERT JUMPDEST PUSH1 0x13 SLOAD DUP2 SELFBALANCE SUB LT ISZERO PUSH2 0x206B JUMPI PUSH1 0x40 MLOAD PUSH32 0x8C379A000000000000000000000000000000000000000000000000000000000 DUP2 MSTORE PUSH1 0x4 ADD DUP1 DUP1 PUSH1 0x20 ADD DUP3 DUP2 SUB DUP3 MSTORE PUSH1 0x1C DUP2 MSTORE PUSH1 0x20 ADD DUP1 PUSH32 0x43616E277420776974686472617720756E706C61796564206265747300000000 DUP2 MSTORE POP PUSH1 0x20 ADD SWAP2 POP POP PUSH1 0x40 MLOAD DUP1 SWAP2 SUB SWAP1 REVERT JUMPDEST PUSH1 0x15 PUSH1 0x0 SWAP1 SLOAD SWAP1 PUSH2 0x100 EXP SWAP1 DIV PUSH20 0xFFFFFFFFFFFFFFFFFFFFFFFFFFFFFFFFFFFFFFFF AND PUSH20 0xFFFFFFFFFFFFFFFFFFFFFFFFFFFFFFFFFFFFFFFF AND PUSH2 0x8FC DUP3 SWAP1 DUP2 ISZERO MUL SWAP1 PUSH1 0x40 MLOAD PUSH1 0x0 PUSH1 0x40 MLOAD DUP1 DUP4 SUB DUP2 DUP6 DUP9 DUP9 CALL SWAP4 POP POP POP POP ISZERO DUP1 ISZERO PUSH2 0x20D3 JUMPI RETURNDATASIZE PUSH1 0x0 DUP1 RETURNDATACOPY RETURNDATASIZE PUSH1 0x0 REVERT JUMPDEST POP POP JUMP JUMPDEST PUSH2 0x20E0 CALLVALUE PUSH2 0x2BFA JUMP JUMPDEST PUSH2 0x2135 JUMPI PUSH1 0x40 MLOAD PUSH32 0x8C379A000000000000000000000000000000000000000000000000000000000 DUP2 MSTORE PUSH1 0x4 ADD DUP1 DUP1 PUSH1 0x20 ADD DUP3 DUP2 SUB DUP3 MSTORE PUSH1 0x36 DUP2 MSTORE PUSH1 0x20 ADD DUP1 PUSH2 0x31C1 PUSH1 0x36 SWAP2 CODECOPY PUSH1 0x40 ADD SWAP2 POP POP PUSH1 0x40 MLOAD DUP1 SWAP2 SUB SWAP1 REVERT JUMPDEST PUSH1 0x10 SLOAD DUP2 GT ISZERO PUSH2 0x2190 JUMPI PUSH1 0x40 MLOAD PUSH32 0x8C379A000000000000000000000000000000000000000000000000000000000 DUP2 MSTORE PUSH1 0x4 ADD DUP1 DUP1 PUSH1 0x20 ADD DUP3 DUP2 SUB DUP3 MSTORE PUSH1 0x28 DUP2 MSTORE PUSH1 0x20 ADD DUP1 PUSH2 0x3173 PUSH1 0x28 SWAP2 CODECOPY PUSH1 0x40 ADD SWAP2 POP POP PUSH1 0x40 MLOAD DUP1 SWAP2 SUB SWAP1 REVERT JUMPDEST PUSH2 0x2199 CALLVALUE PUSH2 0x2C41 JUMP JUMPDEST PUSH2 0x220B JUMPI PUSH1 0x40 MLOAD PUSH32 0x8C379A000000000000000000000000000000000000000000000000000000000 DUP2 MSTORE PUSH1 0x4 ADD DUP1 DUP1 PUSH1 0x20 ADD DUP3 DUP2 SUB DUP3 MSTORE PUSH1 0x15 DUP2 MSTORE PUSH1 0x20 ADD DUP1 PUSH32 0x4F757469736465206F66206265742072616E67652E0000000000000000000000 DUP2 MSTORE POP PUSH1 0x20 ADD SWAP2 POP POP PUSH1 0x40 MLOAD DUP1 SWAP2 SUB SWAP1 REVERT JUMPDEST PUSH1 0x6 PUSH1 0x0 SWAP1 SSTORE PUSH1 0x7 PUSH1 0x0 SWAP1 SSTORE PUSH1 0x8 PUSH1 0x0 SWAP1 SSTORE PUSH1 0x9 PUSH1 0x0 SWAP1 SSTORE PUSH1 0xA PUSH1 0x0 SWAP1 SSTORE PUSH1 0xB PUSH1 0x0 SWAP1 SSTORE PUSH1 0xC PUSH1 0x0 SWAP1 SSTORE PUSH1 0xD PUSH1 0x0 SWAP1 SSTORE PUSH1 0xE PUSH1 0x0 SWAP1 SSTORE PUSH1 0xF PUSH1 0x0 SWAP1 SSTORE PUSH2 0x225C CALLVALUE PUSH1 0x13 SLOAD PUSH2 0x28E8 SWAP1 SWAP2 SWAP1 PUSH4 0xFFFFFFFF AND JUMP JUMPDEST PUSH1 0x13 DUP2 SWAP1 SSTORE POP PUSH2 0x226D DUP3 CALLVALUE DUP4 PUSH2 0x2970 JUMP JUMPDEST PUSH2 0x2278 PUSH1 0x14 SLOAD PUSH2 0x2AA3 JUMP JUMPDEST POP POP JUMP JUMPDEST PUSH1 0x18 PUSH1 0x20 MSTORE DUP1 PUSH1 0x0 MSTORE PUSH1 0x40 PUSH1 0x0 KECCAK256 PUSH1 0x0 SWAP2 POP SLOAD SWAP1 PUSH2 0x100 EXP SWAP1 DIV PUSH1 0xFF AND DUP2 JUMP JUMPDEST PUSH2 0x22A4 PUSH2 0x2582 JUMP JUMPDEST PUSH20 0xFFFFFFFFFFFFFFFFFFFFFFFFFFFFFFFFFFFFFFFF AND PUSH1 0x3 PUSH1 0x0 SWAP1 SLOAD SWAP1 PUSH2 0x100 EXP SWAP1 DIV PUSH20 0xFFFFFFFFFFFFFFFFFFFFFFFFFFFFFFFFFFFFFFFF AND PUSH20 0xFFFFFFFFFFFFFFFFFFFFFFFFFFFFFFFFFFFFFFFF AND EQ PUSH2 0x2366 JUMPI PUSH1 0x40 MLOAD PUSH32 0x8C379A000000000000000000000000000000000000000000000000000000000 DUP2 MSTORE PUSH1 0x4 ADD DUP1 DUP1 PUSH1 0x20 ADD DUP3 DUP2 SUB DUP3 MSTORE PUSH1 0x20 DUP2 MSTORE PUSH1 0x20 ADD DUP1 PUSH32 0x4F776E61626C653A2063616C6C6572206973206E6F7420746865206F776E6572 DUP2 MSTORE POP PUSH1 0x20 ADD SWAP2 POP POP PUSH1 0x40 MLOAD DUP1 SWAP2 SUB SWAP1 REVERT JUMPDEST PUSH1 0x0 PUSH20 0xFFFFFFFFFFFFFFFFFFFFFFFFFFFFFFFFFFFFFFFF AND DUP2 PUSH20 0xFFFFFFFFFFFFFFFFFFFFFFFFFFFFFFFFFFFFFFFF AND EQ ISZERO PUSH2 0x23EC JUMPI PUSH1 0x40 MLOAD PUSH32 0x8C379A000000000000000000000000000000000000000000000000000000000 DUP2 MSTORE PUSH1 0x4 ADD DUP1 DUP1 PUSH1 0x20 ADD DUP3 DUP2 SUB DUP3 MSTORE PUSH1 0x26 DUP2 MSTORE PUSH1 0x20 ADD DUP1 PUSH2 0x319B PUSH1 0x26 SWAP2 CODECOPY PUSH1 0x40 ADD SWAP2 POP POP PUSH1 0x40 MLOAD DUP1 SWAP2 SUB SWAP1 REVERT JUMPDEST DUP1 PUSH20 0xFFFFFFFFFFFFFFFFFFFFFFFFFFFFFFFFFFFFFFFF AND PUSH1 0x3 PUSH1 0x0 SWAP1 SLOAD SWAP1 PUSH2 0x100 EXP SWAP1 DIV PUSH20 0xFFFFFFFFFFFFFFFFFFFFFFFFFFFFFFFFFFFFFFFF AND PUSH20 0xFFFFFFFFFFFFFFFFFFFFFFFFFFFFFFFFFFFFFFFF AND PUSH32 0x8BE0079C531659141344CD1FD0A4F28419497F9722A3DAAFE3B4186F6B6457E0 PUSH1 0x40 MLOAD PUSH1 0x40 MLOAD DUP1 SWAP2 SUB SWAP1 LOG3 DUP1 PUSH1 0x3 PUSH1 0x0 PUSH2 0x100 EXP DUP2 SLOAD DUP2 PUSH20 0xFFFFFFFFFFFFFFFFFFFFFFFFFFFFFFFFFFFFFFFF MUL NOT AND SWAP1 DUP4 PUSH20 0xFFFFFFFFFFFFFFFFFFFFFFFFFFFFFFFFFFFFFFFF AND MUL OR SWAP1 SSTORE POP POP JUMP JUMPDEST PUSH2 0x24B4 PUSH2 0x2582 JUMP JUMPDEST PUSH20 0xFFFFFFFFFFFFFFFFFFFFFFFFFFFFFFFFFFFFFFFF AND PUSH1 0x3 PUSH1 0x0 SWAP1 SLOAD SWAP1 PUSH2 0x100 EXP SWAP1 DIV PUSH20 0xFFFFFFFFFFFFFFFFFFFFFFFFFFFFFFFFFFFFFFFF AND PUSH20 0xFFFFFFFFFFFFFFFFFFFFFFFFFFFFFFFFFFFFFFFF AND EQ PUSH2 0x2576 JUMPI PUSH1 0x40 MLOAD PUSH32 0x8C379A000000000000000000000000000000000000000000000000000000000 DUP2 MSTORE PUSH1 0x4 ADD DUP1 DUP1 PUSH1 0x20 ADD DUP3 DUP2 SUB DUP3 MSTORE PUSH1 0x20 DUP2 MSTORE PUSH1 0x20 ADD DUP1 PUSH32 0x4F776E61626C653A2063616C6C6572206973206E6F7420746865206F776E6572 DUP2 MSTORE POP PUSH1 0x20 ADD SWAP2 POP POP PUSH1 0x40 MLOAD DUP1 SWAP2 SUB SWAP1 REVERT JUMPDEST PUSH2 0x257F DUP2 PUSH2 0x2AA3 JUMP JUMPDEST POP JUMP JUMPDEST PUSH1 0x0 CALLER SWAP1 POP SWAP1 JUMP JUMPDEST PUSH1 0x0 DUP1 DUP4 EQ ISZERO PUSH2 0x259D JUMPI PUSH1 0x0 SWAP1 POP PUSH2 0x260A JUMP JUMPDEST PUSH1 0x0 DUP3 DUP5 MUL SWAP1 POP DUP3 DUP5 DUP3 DUP2 PUSH2 0x25AE JUMPI INVALID JUMPDEST DIV EQ PUSH2 0x2605 JUMPI PUSH1 0x40 MLOAD PUSH32 0x8C379A000000000000000000000000000000000000000000000000000000000 DUP2 MSTORE PUSH1 0x4 ADD DUP1 DUP1 PUSH1 0x20 ADD DUP3 DUP2 SUB DUP3 MSTORE PUSH1 0x21 DUP2 MSTORE PUSH1 0x20 ADD DUP1 PUSH2 0x3219 PUSH1 0x21 SWAP2 CODECOPY PUSH1 0x40 ADD SWAP2 POP POP PUSH1 0x40 MLOAD DUP1 SWAP2 SUB SWAP1 REVERT JUMPDEST DUP1 SWAP2 POP POP JUMPDEST SWAP3 SWAP2 POP POP JUMP JUMPDEST PUSH1 0x0 PUSH1 0x19 PUSH1 0x0 PUSH1 0x1A PUSH1 0x0 DUP7 DUP2 MSTORE PUSH1 0x20 ADD SWAP1 DUP2 MSTORE PUSH1 0x20 ADD PUSH1 0x0 KECCAK256 SLOAD DUP2 MSTORE PUSH1 0x20 ADD SWAP1 DUP2 MSTORE PUSH1 0x20 ADD PUSH1 0x0 KECCAK256 SWAP1 POP PUSH1 0x0 DUP2 PUSH1 0x0 ADD SLOAD GT ISZERO PUSH2 0x2893 JUMPI PUSH1 0x11 SLOAD DUP2 PUSH1 0x2 ADD SLOAD GT ISZERO PUSH2 0x2661 JUMPI PUSH1 0x11 SLOAD DUP2 PUSH1 0x2 ADD DUP2 SWAP1 SSTORE POP JUMPDEST PUSH1 0x0 DUP2 PUSH1 0x2 ADD SLOAD PUSH2 0x2681 PUSH1 0x16 SLOAD DUP5 PUSH1 0x2 ADD SLOAD PUSH2 0x258A SWAP1 SWAP2 SWAP1 PUSH4 0xFFFFFFFF AND JUMP JUMPDEST ADD SWAP1 POP DUP1 SELFBALANCE LT ISZERO PUSH2 0x26DD JUMPI PUSH1 0x40 MLOAD PUSH32 0x8C379A000000000000000000000000000000000000000000000000000000000 DUP2 MSTORE PUSH1 0x4 ADD DUP1 DUP1 PUSH1 0x20 ADD DUP3 DUP2 SUB DUP3 MSTORE PUSH1 0x33 DUP2 MSTORE PUSH1 0x20 ADD DUP1 PUSH2 0x3295 PUSH1 0x33 SWAP2 CODECOPY PUSH1 0x40 ADD SWAP2 POP POP PUSH1 0x40 MLOAD DUP1 SWAP2 SUB SWAP1 REVERT JUMPDEST PUSH2 0x2705 PUSH2 0x26F6 PUSH1 0x1 PUSH1 0x10 SLOAD PUSH2 0x28E8 SWAP1 SWAP2 SWAP1 PUSH4 0xFFFFFFFF AND JUMP JUMPDEST DUP5 PUSH2 0x2C6F SWAP1 SWAP2 SWAP1 PUSH4 0xFFFFFFFF AND JUMP JUMPDEST DUP3 PUSH1 0x4 ADD DUP2 SWAP1 SSTORE POP PUSH1 0x1 DUP3 PUSH1 0x5 ADD PUSH1 0x0 PUSH2 0x100 EXP DUP2 SLOAD DUP2 PUSH1 0xFF MUL NOT AND SWAP1 DUP4 ISZERO ISZERO MUL OR SWAP1 SSTORE POP DUP2 PUSH1 0x2 ADD SLOAD PUSH1 0x13 SLOAD LT PUSH2 0x2750 JUMPI DUP2 PUSH1 0x2 ADD SLOAD PUSH1 0x13 PUSH1 0x0 DUP3 DUP3 SLOAD SUB SWAP3 POP POP DUP2 SWAP1 SSTORE POP PUSH2 0x2759 JUMP JUMPDEST PUSH1 0x0 PUSH1 0x13 DUP2 SWAP1 SSTORE POP JUMPDEST DUP2 PUSH1 0x4 ADD SLOAD DUP3 PUSH1 0x3 ADD SLOAD EQ ISZERO PUSH2 0x27D9 JUMPI DUP2 PUSH1 0x1 ADD PUSH1 0x0 SWAP1 SLOAD SWAP1 PUSH2 0x100 EXP SWAP1 DIV PUSH20 0xFFFFFFFFFFFFFFFFFFFFFFFFFFFFFFFFFFFFFFFF AND PUSH20 0xFFFFFFFFFFFFFFFFFFFFFFFFFFFFFFFFFFFFFFFF AND PUSH2 0x8FC DUP3 SWAP1 DUP2 ISZERO MUL SWAP1 PUSH1 0x40 MLOAD PUSH1 0x0 PUSH1 0x40 MLOAD DUP1 DUP4 SUB DUP2 DUP6 DUP9 DUP9 CALL SWAP4 POP POP POP POP ISZERO DUP1 ISZERO PUSH2 0x27D3 JUMPI RETURNDATASIZE PUSH1 0x0 DUP1 RETURNDATACOPY RETURNDATASIZE PUSH1 0x0 REVERT JUMPDEST POP PUSH2 0x27DE JUMP JUMPDEST PUSH1 0x0 SWAP1 POP JUMPDEST PUSH32 0xC06600D6399308F270BC6AE70D5377121B685C974BB7F7355824FDDD8A2B3497 DUP3 PUSH1 0x1 ADD PUSH1 0x0 SWAP1 SLOAD SWAP1 PUSH2 0x100 EXP SWAP1 DIV PUSH20 0xFFFFFFFFFFFFFFFFFFFFFFFFFFFFFFFFFFFFFFFF AND DUP4 PUSH1 0x2 ADD SLOAD DUP5 PUSH1 0x3 ADD SLOAD DUP6 PUSH1 0x4 ADD SLOAD DUP6 PUSH1 0x40 MLOAD DUP1 DUP7 PUSH20 0xFFFFFFFFFFFFFFFFFFFFFFFFFFFFFFFFFFFFFFFF AND PUSH20 0xFFFFFFFFFFFFFFFFFFFFFFFFFFFFFFFFFFFFFFFF AND DUP2 MSTORE PUSH1 0x20 ADD DUP6 DUP2 MSTORE PUSH1 0x20 ADD DUP5 DUP2 MSTORE PUSH1 0x20 ADD DUP4 DUP2 MSTORE PUSH1 0x20 ADD DUP3 DUP2 MSTORE PUSH1 0x20 ADD SWAP6 POP POP POP POP POP POP PUSH1 0x40 MLOAD DUP1 SWAP2 SUB SWAP1 LOG1 POP JUMPDEST PUSH1 0x1 PUSH1 0x6 DUP2 SWAP1 SSTORE POP PUSH1 0x1 PUSH1 0x7 DUP2 SWAP1 SSTORE POP PUSH1 0x1 PUSH1 0x8 DUP2 SWAP1 SSTORE POP PUSH1 0x1 PUSH1 0x9 DUP2 SWAP1 SSTORE POP PUSH1 0x1 PUSH1 0xA DUP2 SWAP1 SSTORE POP PUSH1 0x1 PUSH1 0xB DUP2 SWAP1 SSTORE POP PUSH1 0x1 PUSH1 0xC DUP2 SWAP1 SSTORE POP PUSH1 0x1 PUSH1 0xD DUP2 SWAP1 SSTORE POP PUSH1 0x1 PUSH1 0xE DUP2 SWAP1 SSTORE POP PUSH1 0x1 PUSH1 0xF DUP2 SWAP1 SSTORE POP POP POP POP JUMP JUMPDEST PUSH1 0x0 DUP1 DUP3 DUP5 ADD SWAP1 POP DUP4 DUP2 LT ISZERO PUSH2 0x2966 JUMPI PUSH1 0x40 MLOAD PUSH32 0x8C379A000000000000000000000000000000000000000000000000000000000 DUP2 MSTORE PUSH1 0x4 ADD DUP1 DUP1 PUSH1 0x20 ADD DUP3 DUP2 SUB DUP3 MSTORE PUSH1 0x1B DUP2 MSTORE PUSH1 0x20 ADD DUP1 PUSH32 0x536166654D6174683A206164646974696F6E206F766572666C6F770000000000 DUP2 MSTORE POP PUSH1 0x20 ADD SWAP2 POP POP PUSH1 0x40 MLOAD DUP1 SWAP2 SUB SWAP1 REVERT JUMPDEST DUP1 SWAP2 POP POP SWAP3 SWAP2 POP POP JUMP JUMPDEST PUSH2 0x2986 PUSH1 0x1 PUSH1 0x14 SLOAD PUSH2 0x28E8 SWAP1 SWAP2 SWAP1 PUSH4 0xFFFFFFFF AND JUMP JUMPDEST PUSH1 0x14 DUP2 SWAP1 SSTORE POP PUSH2 0x2994 PUSH2 0x3124 JUMP JUMPDEST PUSH1 0x40 MLOAD DUP1 PUSH1 0xC0 ADD PUSH1 0x40 MSTORE DUP1 PUSH1 0x14 SLOAD DUP2 MSTORE PUSH1 0x20 ADD DUP6 PUSH20 0xFFFFFFFFFFFFFFFFFFFFFFFFFFFFFFFFFFFFFFFF AND DUP2 MSTORE PUSH1 0x20 ADD DUP5 DUP2 MSTORE PUSH1 0x20 ADD DUP4 DUP2 MSTORE PUSH1 0x20 ADD PUSH2 0x29E5 PUSH1 0xA PUSH1 0x10 SLOAD PUSH2 0x28E8 SWAP1 SWAP2 SWAP1 PUSH4 0xFFFFFFFF AND JUMP JUMPDEST DUP2 MSTORE PUSH1 0x20 ADD PUSH1 0x0 ISZERO ISZERO DUP2 MSTORE POP SWAP1 POP DUP1 PUSH1 0x19 PUSH1 0x0 DUP4 PUSH1 0x0 ADD MLOAD DUP2 MSTORE PUSH1 0x20 ADD SWAP1 DUP2 MSTORE PUSH1 0x20 ADD PUSH1 0x0 KECCAK256 PUSH1 0x0 DUP3 ADD MLOAD DUP2 PUSH1 0x0 ADD SSTORE PUSH1 0x20 DUP3 ADD MLOAD DUP2 PUSH1 0x1 ADD PUSH1 0x0 PUSH2 0x100 EXP DUP2 SLOAD DUP2 PUSH20 0xFFFFFFFFFFFFFFFFFFFFFFFFFFFFFFFFFFFFFFFF MUL NOT AND SWAP1 DUP4 PUSH20 0xFFFFFFFFFFFFFFFFFFFFFFFFFFFFFFFFFFFFFFFF AND MUL OR SWAP1 SSTORE POP PUSH1 0x40 DUP3 ADD MLOAD DUP2 PUSH1 0x2 ADD SSTORE PUSH1 0x60 DUP3 ADD MLOAD DUP2 PUSH1 0x3 ADD SSTORE PUSH1 0x80 DUP3 ADD MLOAD DUP2 PUSH1 0x4 ADD SSTORE PUSH1 0xA0 DUP3 ADD MLOAD DUP2 PUSH1 0x5 ADD PUSH1 0x0 PUSH2 0x100 EXP DUP2 SLOAD DUP2 PUSH1 0xFF MUL NOT AND SWAP1 DUP4 ISZERO ISZERO MUL OR SWAP1 SSTORE POP SWAP1 POP POP POP POP POP POP JUMP JUMPDEST PUSH1 0x0 ISZERO ISZERO PUSH1 0x19 PUSH1 0x0 DUP4 DUP2 MSTORE PUSH1 0x20 ADD SWAP1 DUP2 MSTORE PUSH1 0x20 ADD PUSH1 0x0 KECCAK256 PUSH1 0x5 ADD PUSH1 0x0 SWAP1 SLOAD SWAP1 PUSH2 0x100 EXP SWAP1 DIV PUSH1 0xFF AND ISZERO ISZERO EQ PUSH2 0x2B40 JUMPI PUSH1 0x40 MLOAD PUSH32 0x8C379A000000000000000000000000000000000000000000000000000000000 DUP2 MSTORE PUSH1 0x4 ADD DUP1 DUP1 PUSH1 0x20 ADD DUP3 DUP2 SUB DUP3 MSTORE PUSH1 0x13 DUP2 MSTORE PUSH1 0x20 ADD DUP1 PUSH32 0x67616D6520616C726561647920706C6179656400000000000000000000000000 DUP2 MSTORE POP PUSH1 0x20 ADD SWAP2 POP POP PUSH1 0x40 MLOAD DUP1 SWAP2 SUB SWAP1 REVERT JUMPDEST PUSH1 0x0 PUSH2 0x3039 SWAP1 POP PUSH1 0x0 PUSH2 0x2B52 DUP3 PUSH2 0x2CF9 JUMP JUMPDEST SWAP1 POP DUP3 PUSH1 0x1A PUSH1 0x0 DUP4 DUP2 MSTORE PUSH1 0x20 ADD SWAP1 DUP2 MSTORE PUSH1 0x20 ADD PUSH1 0x0 KECCAK256 DUP2 SWAP1 SSTORE POP POP POP POP JUMP JUMPDEST PUSH1 0x0 DUP3 DUP3 GT ISZERO PUSH2 0x2BE9 JUMPI PUSH1 0x40 MLOAD PUSH32 0x8C379A000000000000000000000000000000000000000000000000000000000 DUP2 MSTORE PUSH1 0x4 ADD DUP1 DUP1 PUSH1 0x20 ADD DUP3 DUP2 SUB DUP3 MSTORE PUSH1 0x1E DUP2 MSTORE PUSH1 0x20 ADD DUP1 PUSH32 0x536166654D6174683A207375627472616374696F6E206F766572666C6F770000 DUP2 MSTORE POP PUSH1 0x20 ADD SWAP2 POP POP PUSH1 0x40 MLOAD DUP1 SWAP2 SUB SWAP1 REVERT JUMPDEST PUSH1 0x0 DUP3 DUP5 SUB SWAP1 POP DUP1 SWAP2 POP POP SWAP3 SWAP2 POP POP JUMP JUMPDEST PUSH1 0x0 PUSH2 0x2C23 DUP3 PUSH2 0x2C15 PUSH1 0x16 SLOAD DUP6 PUSH2 0x258A SWAP1 SWAP2 SWAP1 PUSH4 0xFFFFFFFF AND JUMP JUMPDEST PUSH2 0x28E8 SWAP1 SWAP2 SWAP1 PUSH4 0xFFFFFFFF AND JUMP JUMPDEST PUSH2 0x2C38 PUSH1 0x13 SLOAD SELFBALANCE PUSH2 0x2B71 SWAP1 SWAP2 SWAP1 PUSH4 0xFFFFFFFF AND JUMP JUMPDEST LT ISZERO SWAP1 POP SWAP2 SWAP1 POP JUMP JUMPDEST PUSH1 0x0 PUSH1 0x12 SLOAD DUP3 LT ISZERO DUP1 ISZERO PUSH2 0x2C57 JUMPI POP PUSH1 0x11 SLOAD DUP3 GT ISZERO JUMPDEST ISZERO PUSH2 0x2C65 JUMPI PUSH1 0x1 SWAP1 POP PUSH2 0x2C6A JUMP JUMPDEST PUSH1 0x0 SWAP1 POP JUMPDEST SWAP2 SWAP1 POP JUMP JUMPDEST PUSH1 0x0 DUP1 DUP3 EQ ISZERO PUSH2 0x2CE7 JUMPI PUSH1 0x40 MLOAD PUSH32 0x8C379A000000000000000000000000000000000000000000000000000000000 DUP2 MSTORE PUSH1 0x4 ADD DUP1 DUP1 PUSH1 0x20 ADD DUP3 DUP2 SUB DUP3 MSTORE PUSH1 0x18 DUP2 MSTORE PUSH1 0x20 ADD DUP1 PUSH32 0x536166654D6174683A206D6F64756C6F206279207A65726F0000000000000000 DUP2 MSTORE POP PUSH1 0x20 ADD SWAP2 POP POP PUSH1 0x40 MLOAD DUP1 SWAP2 SUB SWAP1 REVERT JUMPDEST DUP2 DUP4 DUP2 PUSH2 0x2CF0 JUMPI INVALID JUMPDEST MOD SWAP1 POP SWAP3 SWAP2 POP POP JUMP JUMPDEST PUSH1 0x0 PUSH1 0x5 SLOAD PUSH1 0x0 DUP1 SWAP1 SLOAD SWAP1 PUSH2 0x100 EXP SWAP1 DIV PUSH20 0xFFFFFFFFFFFFFFFFFFFFFFFFFFFFFFFFFFFFFFFF AND PUSH20 0xFFFFFFFFFFFFFFFFFFFFFFFFFFFFFFFFFFFFFFFF AND PUSH4 0x70A08231 ADDRESS PUSH1 0x40 MLOAD DUP3 PUSH4 0xFFFFFFFF AND PUSH1 0xE0 SHL DUP2 MSTORE PUSH1 0x4 ADD DUP1 DUP3 PUSH20 0xFFFFFFFFFFFFFFFFFFFFFFFFFFFFFFFFFFFFFFFF AND PUSH20 0xFFFFFFFFFFFFFFFFFFFFFFFFFFFFFFFFFFFFFFFF AND DUP2 MSTORE PUSH1 0x20 ADD SWAP2 POP POP PUSH1 0x20 PUSH1 0x40 MLOAD DUP1 DUP4 SUB DUP2 DUP7 DUP1 EXTCODESIZE ISZERO DUP1 ISZERO PUSH2 0x2D9C JUMPI PUSH1 0x0 DUP1 REVERT JUMPDEST POP GAS STATICCALL ISZERO DUP1 ISZERO PUSH2 0x2DB0 JUMPI RETURNDATASIZE PUSH1 0x0 DUP1 RETURNDATACOPY RETURNDATASIZE PUSH1 0x0 REVERT JUMPDEST POP POP POP POP PUSH1 0x40 MLOAD RETURNDATASIZE PUSH1 0x20 DUP2 LT ISZERO PUSH2 0x2DC6 JUMPI PUSH1 0x0 DUP1 REVERT JUMPDEST DUP2 ADD SWAP1 DUP1 DUP1 MLOAD SWAP1 PUSH1 0x20 ADD SWAP1 SWAP3 SWAP2 SWAP1 POP POP POP GT PUSH2 0x2E4A JUMPI PUSH1 0x40 MLOAD PUSH32 0x8C379A000000000000000000000000000000000000000000000000000000000 DUP2 MSTORE PUSH1 0x4 ADD DUP1 DUP1 PUSH1 0x20 ADD DUP3 DUP2 SUB DUP3 MSTORE PUSH1 0xF DUP2 MSTORE PUSH1 0x20 ADD DUP1 PUSH32 0x4E6F7420656E6F756768204C494E4B0000000000000000000000000000000000 DUP2 MSTORE POP PUSH1 0x20 ADD SWAP2 POP POP PUSH1 0x40 MLOAD DUP1 SWAP2 SUB SWAP1 REVERT JUMPDEST PUSH2 0x2E59 PUSH1 0x4 SLOAD PUSH1 0x5 SLOAD DUP5 PUSH2 0x2E60 JUMP JUMPDEST SWAP1 POP SWAP2 SWAP1 POP JUMP JUMPDEST PUSH1 0x0 DUP1 PUSH1 0x0 SWAP1 SLOAD SWAP1 PUSH2 0x100 EXP SWAP1 DIV PUSH20 0xFFFFFFFFFFFFFFFFFFFFFFFFFFFFFFFFFFFFFFFF AND PUSH20 0xFFFFFFFFFFFFFFFFFFFFFFFFFFFFFFFFFFFFFFFF AND PUSH4 0x4000AEA0 PUSH1 0x1 PUSH1 0x0 SWAP1 SLOAD SWAP1 PUSH2 0x100 EXP SWAP1 DIV PUSH20 0xFFFFFFFFFFFFFFFFFFFFFFFFFFFFFFFFFFFFFFFF AND DUP6 DUP8 DUP7 PUSH1 0x40 MLOAD PUSH1 0x20 ADD DUP1 DUP4 DUP2 MSTORE PUSH1 0x20 ADD DUP3 DUP2 MSTORE PUSH1 0x20 ADD SWAP3 POP POP POP PUSH1 0x40 MLOAD PUSH1 0x20 DUP2 DUP4 SUB SUB DUP2 MSTORE SWAP1 PUSH1 0x40 MSTORE PUSH1 0x40 MLOAD DUP5 PUSH4 0xFFFFFFFF AND PUSH1 0xE0 SHL DUP2 MSTORE PUSH1 0x4 ADD DUP1 DUP5 PUSH20 0xFFFFFFFFFFFFFFFFFFFFFFFFFFFFFFFFFFFFFFFF AND PUSH20 0xFFFFFFFFFFFFFFFFFFFFFFFFFFFFFFFFFFFFFFFF AND DUP2 MSTORE PUSH1 0x20 ADD DUP4 DUP2 MSTORE PUSH1 0x20 ADD DUP1 PUSH1 0x20 ADD DUP3 DUP2 SUB DUP3 MSTORE DUP4 DUP2 DUP2 MLOAD DUP2 MSTORE PUSH1 0x20 ADD SWAP2 POP DUP1 MLOAD SWAP1 PUSH1 0x20 ADD SWAP1 DUP1 DUP4 DUP4 PUSH1 0x0 JUMPDEST DUP4 DUP2 LT ISZERO PUSH2 0x2F72 JUMPI DUP1 DUP3 ADD MLOAD DUP2 DUP5 ADD MSTORE PUSH1 0x20 DUP2 ADD SWAP1 POP PUSH2 0x2F57 JUMP JUMPDEST POP POP POP POP SWAP1 POP SWAP1 DUP2 ADD SWAP1 PUSH1 0x1F AND DUP1 ISZERO PUSH2 0x2F9F JUMPI DUP1 DUP3 SUB DUP1 MLOAD PUSH1 0x1 DUP4 PUSH1 0x20 SUB PUSH2 0x100 EXP SUB NOT AND DUP2 MSTORE PUSH1 0x20 ADD SWAP2 POP JUMPDEST POP SWAP5 POP POP POP POP POP PUSH1 0x20 PUSH1 0x40 MLOAD DUP1 DUP4 SUB DUP2 PUSH1 0x0 DUP8 DUP1 EXTCODESIZE ISZERO DUP1 ISZERO PUSH2 0x2FC0 JUMPI PUSH1 0x0 DUP1 REVERT JUMPDEST POP GAS CALL ISZERO DUP1 ISZERO PUSH2 0x2FD4 JUMPI RETURNDATASIZE PUSH1 0x0 DUP1 RETURNDATACOPY RETURNDATASIZE PUSH1 0x0 REVERT JUMPDEST POP POP POP POP PUSH1 0x40 MLOAD RETURNDATASIZE PUSH1 0x20 DUP2 LT ISZERO PUSH2 0x2FEA JUMPI PUSH1 0x0 DUP1 REVERT JUMPDEST DUP2 ADD SWAP1 DUP1 DUP1 MLOAD SWAP1 PUSH1 0x20 ADD SWAP1 SWAP3 SWAP2 SWAP1 POP POP POP POP PUSH1 0x0 PUSH2 0x301D DUP6 DUP5 ADDRESS PUSH1 0x2 PUSH1 0x0 DUP11 DUP2 MSTORE PUSH1 0x20 ADD SWAP1 DUP2 MSTORE PUSH1 0x20 ADD PUSH1 0x0 KECCAK256 SLOAD PUSH2 0x3071 JUMP JUMPDEST SWAP1 POP PUSH2 0x3046 PUSH1 0x1 PUSH1 0x2 PUSH1 0x0 DUP9 DUP2 MSTORE PUSH1 0x20 ADD SWAP1 DUP2 MSTORE PUSH1 0x20 ADD PUSH1 0x0 KECCAK256 SLOAD PUSH2 0x28E8 SWAP1 SWAP2 SWAP1 PUSH4 0xFFFFFFFF AND JUMP JUMPDEST PUSH1 0x2 PUSH1 0x0 DUP8 DUP2 MSTORE PUSH1 0x20 ADD SWAP1 DUP2 MSTORE PUSH1 0x20 ADD PUSH1 0x0 KECCAK256 DUP2 SWAP1 SSTORE POP PUSH2 0x3067 DUP6 DUP3 PUSH2 0x30EB JUMP JUMPDEST SWAP2 POP POP SWAP4 SWAP3 POP POP POP JUMP JUMPDEST PUSH1 0x0 DUP5 DUP5 DUP5 DUP5 PUSH1 0x40 MLOAD PUSH1 0x20 ADD DUP1 DUP6 DUP2 MSTORE PUSH1 0x20 ADD DUP5 DUP2 MSTORE PUSH1 0x20 ADD DUP4 PUSH20 0xFFFFFFFFFFFFFFFFFFFFFFFFFFFFFFFFFFFFFFFF AND PUSH20 0xFFFFFFFFFFFFFFFFFFFFFFFFFFFFFFFFFFFFFFFF AND DUP2 MSTORE PUSH1 0x20 ADD DUP3 DUP2 MSTORE PUSH1 0x20 ADD SWAP5 POP POP POP POP POP PUSH1 0x40 MLOAD PUSH1 0x20 DUP2 DUP4 SUB SUB DUP2 MSTORE SWAP1 PUSH1 0x40 MSTORE DUP1 MLOAD SWAP1 PUSH1 0x20 ADD KECCAK256 PUSH1 0x0 SHR SWAP1 POP SWAP5 SWAP4 POP POP POP POP JUMP JUMPDEST PUSH1 0x0 DUP3 DUP3 PUSH1 0x40 MLOAD PUSH1 0x20 ADD DUP1 DUP4 DUP2 MSTORE PUSH1 0x20 ADD DUP3 DUP2 MSTORE PUSH1 0x20 ADD SWAP3 POP POP POP PUSH1 0x40 MLOAD PUSH1 0x20 DUP2 DUP4 SUB SUB DUP2 MSTORE SWAP1 PUSH1 0x40 MSTORE DUP1 MLOAD SWAP1 PUSH1 0x20 ADD KECCAK256 SWAP1 POP SWAP3 SWAP2 POP POP JUMP JUMPDEST PUSH1 0x40 MLOAD DUP1 PUSH1 0xC0 ADD PUSH1 0x40 MSTORE DUP1 PUSH1 0x0 DUP2 MSTORE PUSH1 0x20 ADD PUSH1 0x0 PUSH20 0xFFFFFFFFFFFFFFFFFFFFFFFFFFFFFFFFFFFFFFFF AND DUP2 MSTORE PUSH1 0x20 ADD PUSH1 0x0 DUP2 MSTORE PUSH1 0x20 ADD PUSH1 0x0 DUP2 MSTORE PUSH1 0x20 ADD PUSH1 0x0 DUP2 MSTORE PUSH1 0x20 ADD PUSH1 0x0 ISZERO ISZERO DUP2 MSTORE POP SWAP1 JUMP INVALID POP PUSH10 0x636B20697320746F6F20 PUSH9 0x6967682E2043686F6F PUSH20 0x652061206C6F776572206E756D6265722E4F776E PUSH2 0x626C PUSH6 0x3A206E657720 PUSH16 0x776E657220697320746865207A65726F KECCAK256 PUSH2 0x6464 PUSH19 0x657373436F6E74726163742068617320696E73 PUSH22 0x66666963696E742066756E647320746F207061796F75 PUSH21 0x20706F737369626C652077696E2E4E6F7420617574 PUSH9 0x6F72697A656420746F KECCAK256 PUSH20 0x657420676173206672656520626574536166654D PUSH2 0x7468 GASPRICE KECCAK256 PUSH14 0x756C7469706C69636174696F6E20 PUSH16 0x766572666C6F77436F6E747261637420 PUSH3 0x616C61 PUSH15 0x636520746F6F206C6F772E20506C65 PUSH2 0x7365 KECCAK256 PUSH21 0x727920616761696E206C617465722E47616D652061 PUSH13 0x726561647920636F6D706C6574 PUSH6 0x2E204E6F2072 PUSH6 0x66756E642070 PUSH16 0x737369626C652E556E61626C6520746F KECCAK256 PUSH17 0x61792E20506C6561736520706C61792061 PUSH8 0x61696E206F722072 PUSH6 0x717565737420 PUSH19 0x6566756E642EA2646970667358221220E9BED2 PUSH17 0x8438FF8015DAB411237EBBA2BBAD5655EA PUSH32 0xC170D2AE97B48F2303664736F6C634300060000330000000000000000000000 "},"gasEstimates":{"creation":{"codeDepositCost":"2610600","executionCost":"infinite","totalCost":"infinite"},"external":{"allowGasFreeBet(address[],bool)":"infinite","authorizedAddress(address)":"1274","closeMachine()":"infinite","games(uint256)":"5480","gasFreeBetAllowed(address)":"1272","gasFreeBetFor(address,uint256)":"infinite","getLinkBalance()":"infinite","getSeed()":"303","getSummary()":"3627","maxBet()":"1074","maxPick()":"1096","minBet()":"1095","nonces(bytes32)":"1230","owner()":"1172","payout()":"1050","payoutAddress()":"1165","placeBetFor(address,uint256)":"infinite","rawFulfillRandomness(bytes32,uint256)":"infinite","renounceOwnership()":"24364","replayGame(uint256)":"infinite","requestRefund(uint256)":"infinite","safeBetFor(address,uint256)":"infinite","setAuthorizedUser(address,bool)":"22242","setKeyHash(bytes32)":"21192","setLINK(address)":"22095","setPayoutAddress(address)":"22052","setVRFCoordinator(address)":"22052","transferOwnership(address)":"infinite","withdrawEth(uint256)":"infinite","withdrawLink(uint256)":"infinite"},"internal":{"betInRange(uint256)":"1702","betPayable(uint256)":"infinite","createGame(address payable,uint256,uint256)":"infinite","fulfillRandomness(bytes32,uint256)":"infinite","getRandomNumber(uint256)":"infinite","playGame(uint256)":"infinite"}},"methodIdentifiers":{"allowGasFreeBet(address[],bool)":"95f9b576","authorizedAddress(address)":"3638104a","closeMachine()":"b93030b3","games(uint256)":"117a5b90","gasFreeBetAllowed(address)":"dfad4c11","gasFreeBetFor(address,uint256)":"59268a4a","getLinkBalance()":"50c5f975","getSeed()":"39e7357c","getSummary()":"4051ddac","maxBet()":"2e5b2168","maxPick()":"2ee42d8a","minBet()":"9619367d","nonces(bytes32)":"9e317f12","owner()":"8da5cb5b","payout()":"63bd1d4a","payoutAddress()":"5b8d02d7","placeBetFor(address,uint256)":"ac150fd8","rawFulfillRandomness(bytes32,uint256)":"94985ddd","renounceOwnership()":"715018a6","replayGame(uint256)":"f31a4dcd","requestRefund(uint256)":"a4b2409e","safeBetFor(address,uint256)":"d9e721f8","setAuthorizedUser(address,bool)":"a249225e","setKeyHash(bytes32)":"98544710","setLINK(address)":"a02e0616","setPayoutAddress(address)":"33ea51a8","setVRFCoordinator(address)":"44ff81ce","transferOwnership(address)":"f2fde38b","withdrawEth(uint256)":"c311d049","withdrawLink(uint256)":"7a8042bd"}},"storageLayout":{"storage":[{"astId":460,"contract":"AllContracts.sol:LuckyMachine","label":"LINK","offset":0,"slot":"0","type":"t_contract(LinkTokenInterface)392"},{"astId":462,"contract":"AllContracts.sol:LuckyMachine","label":"vrfCoordinator","offset":0,"slot":"1","type":"t_address"},{"astId":466,"contract":"AllContracts.sol:LuckyMachine","label":"nonces","offset":0,"slot":"2","type":"t_mapping(t_bytes32,t_uint256)"},{"astId":26,"contract":"AllContracts.sol:LuckyMachine","label":"_owner","offset":0,"slot":"3","type":"t_address"},{"astId":515,"contract":"AllContracts.sol:LuckyMachine","label":"keyHash","offset":0,"slot":"4","type":"t_bytes32"},{"astId":517,"contract":"AllContracts.sol:LuckyMachine","label":"fee","offset":0,"slot":"5","type":"t_uint256"},{"astId":532,"contract":"AllContracts.sol:LuckyMachine","label":"gas1","offset":0,"slot":"6","type":"t_uint256"},{"astId":534,"contract":"AllContracts.sol:LuckyMachine","label":"gas2","offset":0,"slot":"7","type":"t_uint256"},{"astId":536,"contract":"AllContracts.sol:LuckyMachine","label":"gas3","offset":0,"slot":"8","type":"t_uint256"},{"astId":538,"contract":"AllContracts.sol:LuckyMachine","label":"gas4","offset":0,"slot":"9","type":"t_uint256"},{"astId":540,"contract":"AllContracts.sol:LuckyMachine","label":"gas5","offset":0,"slot":"10","type":"t_uint256"},{"astId":542,"contract":"AllContracts.sol:LuckyMachine","label":"gas6","offset":0,"slot":"11","type":"t_uint256"},{"astId":544,"contract":"AllContracts.sol:LuckyMachine","label":"gas7","offset":0,"slot":"12","type":"t_uint256"},{"astId":546,"contract":"AllContracts.sol:LuckyMachine","label":"gas8","offset":0,"slot":"13","type":"t_uint256"},{"astId":548,"contract":"AllContracts.sol:LuckyMachine","label":"gas9","offset":0,"slot":"14","type":"t_uint256"},{"astId":550,"contract":"AllContracts.sol:LuckyMachine","label":"gas10","offset":0,"slot":"15","type":"t_uint256"},{"astId":552,"contract":"AllContracts.sol:LuckyMachine","label":"maxPick","offset":0,"slot":"16","type":"t_uint256"},{"astId":554,"contract":"AllContracts.sol:LuckyMachine","label":"maxBet","offset":0,"slot":"17","type":"t_uint256"},{"astId":556,"contract":"AllContracts.sol:LuckyMachine","label":"minBet","offset":0,"slot":"18","type":"t_uint256"},{"astId":558,"contract":"AllContracts.sol:LuckyMachine","label":"_unplayedBets","offset":0,"slot":"19","type":"t_uint256"},{"astId":560,"contract":"AllContracts.sol:LuckyMachine","label":"_currentGame","offset":0,"slot":"20","type":"t_uint256"},{"astId":562,"contract":"AllContracts.sol:LuckyMachine","label":"payoutAddress","offset":0,"slot":"21","type":"t_address_payable"},{"astId":564,"contract":"AllContracts.sol:LuckyMachine","label":"payout","offset":0,"slot":"22","type":"t_uint256"},{"astId":568,"contract":"AllContracts.sol:LuckyMachine","label":"authorizedAddress","offset":0,"slot":"23","type":"t_mapping(t_address,t_bool)"},{"astId":572,"contract":"AllContracts.sol:LuckyMachine","label":"gasFreeBetAllowed","offset":0,"slot":"24","type":"t_mapping(t_address,t_bool)"},{"astId":576,"contract":"AllContracts.sol:LuckyMachine","label":"games","offset":0,"slot":"25","type":"t_mapping(t_uint256,t_struct(Game)530_storage)"},{"astId":580,"contract":"AllContracts.sol:LuckyMachine","label":"_gameRequests","offset":0,"slot":"26","type":"t_mapping(t_bytes32,t_uint256)"}],"types":{"t_address":{"encoding":"inplace","label":"address","numberOfBytes":"20"},"t_address_payable":{"encoding":"inplace","label":"address payable","numberOfBytes":"20"},"t_bool":{"encoding":"inplace","label":"bool","numberOfBytes":"1"},"t_bytes32":{"encoding":"inplace","label":"bytes32","numberOfBytes":"32"},"t_contract(LinkTokenInterface)392":{"encoding":"inplace","label":"contract LinkTokenInterface","numberOfBytes":"20"},"t_mapping(t_address,t_bool)":{"encoding":"mapping","key":"t_address","label":"mapping(address => bool)","numberOfBytes":"32","value":"t_bool"},"t_mapping(t_bytes32,t_uint256)":{"encoding":"mapping","key":"t_bytes32","label":"mapping(bytes32 => uint256)","numberOfBytes":"32","value":"t_uint256"},"t_mapping(t_uint256,t_struct(Game)530_storage)":{"encoding":"mapping","key":"t_uint256","label":"mapping(uint256 => struct LuckyMachine.Game)","numberOfBytes":"32","value":"t_struct(Game)530_storage"},"t_struct(Game)530_storage":{"encoding":"inplace","label":"struct LuckyMachine.Game","members":[{"astId":519,"contract":"AllContracts.sol:LuckyMachine","label":"id","offset":0,"slot":"0","type":"t_uint256"},{"astId":521,"contract":"AllContracts.sol:LuckyMachine","label":"player","offset":0,"slot":"1","type":"t_address_payable"},{"astId":523,"contract":"AllContracts.sol:LuckyMachine","label":"bet","offset":0,"slot":"2","type":"t_uint256"},{"astId":525,"contract":"AllContracts.sol:LuckyMachine","label":"pick","offset":0,"slot":"3","type":"t_uint256"},{"astId":527,"contract":"AllContracts.sol:LuckyMachine","label":"winner","offset":0,"slot":"4","type":"t_uint256"},{"astId":529,"contract":"AllContracts.sol:LuckyMachine","label":"played","offset":0,"slot":"5","type":"t_bool"}],"numberOfBytes":"192"},"t_uint256":{"encoding":"inplace","label":"uint256","numberOfBytes":"32"}}},"userdoc":{"methods":{}}}