{"abi":[{"inputs":[{"internalType":"address payable","name":"_owner","type":"address"},{"internalType":"uint256","name":"_maxBet","type":"uint256"},{"internalType":"uint256","name":"_minBet","type":"uint256"},{"internalType":"uint256","name":"_maxPick","type":"uint256"},{"internalType":"uint256","name":"_payout","type":"uint256"}],"stateMutability":"nonpayable","type":"constructor"},{"inputs":[],"name":"_currentGame","outputs":[{"internalType":"uint256","name":"","type":"uint256"}],"stateMutability":"view","type":"function"},{"inputs":[{"internalType":"bytes32","name":"","type":"bytes32"}],"name":"_gameRequsts","outputs":[{"internalType":"uint256","name":"","type":"uint256"}],"stateMutability":"view","type":"function"},{"inputs":[],"name":"_unplayedBets","outputs":[{"internalType":"uint256","name":"","type":"uint256"}],"stateMutability":"view","type":"function"},{"inputs":[{"internalType":"uint256","name":"bet","type":"uint256"}],"name":"canPlayGame","outputs":[{"internalType":"bool","name":"","type":"bool"}],"stateMutability":"view","type":"function"},{"inputs":[],"name":"closeMachine","outputs":[],"stateMutability":"nonpayable","type":"function"},{"inputs":[],"name":"fundMachine","outputs":[],"stateMutability":"payable","type":"function"},{"inputs":[{"internalType":"uint256","name":"","type":"uint256"}],"name":"games","outputs":[{"internalType":"uint256","name":"id","type":"uint256"},{"internalType":"address payable","name":"player","type":"address"},{"internalType":"uint256","name":"bet","type":"uint256"},{"internalType":"uint256","name":"pick","type":"uint256"},{"internalType":"uint256","name":"winner","type":"uint256"},{"internalType":"bool","name":"played","type":"bool"}],"stateMutability":"view","type":"function"},{"inputs":[{"internalType":"uint256","name":"seed","type":"uint256"}],"name":"getRandomNumber","outputs":[{"internalType":"bytes32","name":"requestId","type":"bytes32"}],"stateMutability":"nonpayable","type":"function"},{"inputs":[],"name":"getSeed","outputs":[{"internalType":"uint256","name":"","type":"uint256"}],"stateMutability":"view","type":"function"},{"inputs":[],"name":"maxBet","outputs":[{"internalType":"uint256","name":"","type":"uint256"}],"stateMutability":"view","type":"function"},{"inputs":[],"name":"minBet","outputs":[{"internalType":"uint256","name":"","type":"uint256"}],"stateMutability":"view","type":"function"},{"inputs":[{"internalType":"bytes32","name":"","type":"bytes32"}],"name":"nonces","outputs":[{"internalType":"uint256","name":"","type":"uint256"}],"stateMutability":"view","type":"function"},{"inputs":[],"name":"owner","outputs":[{"internalType":"address payable","name":"","type":"address"}],"stateMutability":"view","type":"function"},{"inputs":[],"name":"payout","outputs":[{"internalType":"uint256","name":"","type":"uint256"}],"stateMutability":"view","type":"function"},{"inputs":[{"internalType":"uint256","name":"pick","type":"uint256"}],"name":"placeBet","outputs":[],"stateMutability":"payable","type":"function"},{"inputs":[{"internalType":"uint256","name":"gameID","type":"uint256"}],"name":"playGame","outputs":[],"stateMutability":"nonpayable","type":"function"},{"inputs":[{"internalType":"bytes32","name":"requestId","type":"bytes32"},{"internalType":"uint256","name":"randomness","type":"uint256"}],"name":"rawFulfillRandomness","outputs":[],"stateMutability":"nonpayable","type":"function"},{"inputs":[{"internalType":"uint256","name":"gameID","type":"uint256"}],"name":"requestRefund","outputs":[],"stateMutability":"nonpayable","type":"function"},{"inputs":[{"internalType":"uint256","name":"_maxBet","type":"uint256"}],"name":"setMaxBet","outputs":[],"stateMutability":"nonpayable","type":"function"},{"inputs":[{"internalType":"uint256","name":"_minBet","type":"uint256"}],"name":"setMinBet","outputs":[],"stateMutability":"nonpayable","type":"function"}],"devdoc":{"methods":{}},"evm":{"assembly":"    /* \"LuckyMachine.sol\":3873:9459  contract LuckyMachine is VRFConsumerBase {... */\n  mstore(0x40, 0x80)\n    /* \"LuckyMachine.sol\":4751:5386  constructor(address payable _owner, uint _maxBet, uint _minBet, uint _maxPick, uint _payout)... */\n  callvalue\n    /* \"--CODEGEN--\":8:17   */\n  dup1\n    /* \"--CODEGEN--\":5:7   */\n  iszero\n  tag_1\n  jumpi\n    /* \"--CODEGEN--\":30:31   */\n  0x00\n    /* \"--CODEGEN--\":27:28   */\n  dup1\n    /* \"--CODEGEN--\":20:32   */\n  revert\n    /* \"--CODEGEN--\":5:7   */\ntag_1:\n    /* \"LuckyMachine.sol\":4751:5386  constructor(address payable _owner, uint _maxBet, uint _minBet, uint _maxPick, uint _payout)... */\n  pop\n  mload(0x40)\n  sub(codesize, bytecodeSize)\n  dup1\n  bytecodeSize\n  dup4\n  codecopy\n  dup2\n  dup2\n  add\n  0x40\n  mstore\n    /* \"--CODEGEN--\":13:16   */\n  0xa0\n    /* \"--CODEGEN--\":8:11   */\n  dup2\n    /* \"--CODEGEN--\":5:17   */\n  lt\n    /* \"--CODEGEN--\":2:4   */\n  iszero\n  tag_2\n  jumpi\n    /* \"--CODEGEN--\":30:31   */\n  0x00\n    /* \"--CODEGEN--\":27:28   */\n  dup1\n    /* \"--CODEGEN--\":20:32   */\n  revert\n    /* \"--CODEGEN--\":2:4   */\ntag_2:\n    /* \"LuckyMachine.sol\":4751:5386  constructor(address payable _owner, uint _maxBet, uint _minBet, uint _maxPick, uint _payout)... */\n  dup2\n  add\n  swap1\n  dup1\n  dup1\n  mload\n  swap1\n  0x20\n  add\n  swap1\n  swap3\n  swap2\n  swap1\n  dup1\n  mload\n  swap1\n  0x20\n  add\n  swap1\n  swap3\n  swap2\n  swap1\n  dup1\n  mload\n  swap1\n  0x20\n  add\n  swap1\n  swap3\n  swap2\n  swap1\n  dup1\n  mload\n  swap1\n  0x20\n  add\n  swap1\n  swap3\n  swap2\n  swap1\n  dup1\n  mload\n  swap1\n  0x20\n  add\n  swap1\n  swap3\n  swap2\n  swap1\n  pop\n  pop\n  pop\n    /* \"LuckyMachine.sol\":4881:4923  0xdD3782915140c8f3b190B5D67eAc6dc5760C46E9 */\n  0xdd3782915140c8f3b190b5d67eac6dc5760c46e9\n    /* \"LuckyMachine.sol\":4956:4998  0xa36085F69e2889c224210F603D836748e7dC0088 */\n  0xa36085f69e2889c224210f603d836748e7dc0088\n    /* \"LuckyMachine.sol\":3600:3615  _vrfCoordinator */\n  dup2\n    /* \"LuckyMachine.sol\":3583:3597  vrfCoordinator */\n  0x01\n  0x00\n    /* \"LuckyMachine.sol\":3583:3615  vrfCoordinator = _vrfCoordinator */\n  0x0100\n  exp\n  dup2\n  sload\n  dup2\n  0xffffffffffffffffffffffffffffffffffffffff\n  mul\n  not\n  and\n  swap1\n  dup4\n  0xffffffffffffffffffffffffffffffffffffffff\n  and\n  mul\n  or\n  swap1\n  sstore\n  pop\n    /* \"LuckyMachine.sol\":3647:3652  _link */\n  dup1\n    /* \"LuckyMachine.sol\":3621:3625  LINK */\n  0x00\n  dup1\n    /* \"LuckyMachine.sol\":3621:3653  LINK = LinkTokenInterface(_link) */\n  0x0100\n  exp\n  dup2\n  sload\n  dup2\n  0xffffffffffffffffffffffffffffffffffffffff\n  mul\n  not\n  and\n  swap1\n  dup4\n  0xffffffffffffffffffffffffffffffffffffffff\n  and\n  mul\n  or\n  swap1\n  sstore\n  pop\n    /* \"LuckyMachine.sol\":3518:3658  constructor(address _vrfCoordinator, address _link) public {... */\n  pop\n  pop\n    /* \"LuckyMachine.sol\":5055:5121  0x6c3699283bda56ad74f6b855546325b68d482e983852a7a82979cc4807b641f4 */\n  0x6c3699283bda56ad74f6b855546325b68d482e983852a7a82979cc4807b641f4\n    /* \"LuckyMachine.sol\":5045:5121  keyHash = 0x6c3699283bda56ad74f6b855546325b68d482e983852a7a82979cc4807b641f4 */\n  0x00\n  shl\n    /* \"LuckyMachine.sol\":5045:5052  keyHash */\n  0x04\n    /* \"LuckyMachine.sol\":5045:5121  keyHash = 0x6c3699283bda56ad74f6b855546325b68d482e983852a7a82979cc4807b641f4 */\n  dup2\n  swap1\n  sstore\n  pop\n    /* \"LuckyMachine.sol\":5141:5155  0.1 * 10 ** 18 */\n  0x016345785d8a0000\n    /* \"LuckyMachine.sol\":5135:5138  fee */\n  0x05\n    /* \"LuckyMachine.sol\":5135:5155  fee = 0.1 * 10 ** 18 */\n  dup2\n  swap1\n  sstore\n  pop\n    /* \"LuckyMachine.sol\":5197:5198  0 */\n  0x00\n    /* \"LuckyMachine.sol\":5182:5194  _currentGame */\n  0x0a\n    /* \"LuckyMachine.sol\":5182:5198  _currentGame = 0 */\n  dup2\n  swap1\n  sstore\n  pop\n    /* \"LuckyMachine.sol\":5228:5229  0 */\n  0x00\n    /* \"LuckyMachine.sol\":5212:5225  _unplayedBets */\n  0x09\n    /* \"LuckyMachine.sol\":5212:5229  _unplayedBets = 0 */\n  dup2\n  swap1\n  sstore\n  pop\n    /* \"LuckyMachine.sol\":5251:5257  _owner */\n  dup5\n    /* \"LuckyMachine.sol\":5243:5248  owner */\n  0x03\n  0x00\n    /* \"LuckyMachine.sol\":5243:5257  owner = _owner */\n  0x0100\n  exp\n  dup2\n  sload\n  dup2\n  0xffffffffffffffffffffffffffffffffffffffff\n  mul\n  not\n  and\n  swap1\n  dup4\n  0xffffffffffffffffffffffffffffffffffffffff\n  and\n  mul\n  or\n  swap1\n  sstore\n  pop\n    /* \"LuckyMachine.sol\":5280:5287  _minBet */\n  dup3\n    /* \"LuckyMachine.sol\":5271:5277  minBet */\n  0x08\n    /* \"LuckyMachine.sol\":5271:5287  minBet = _minBet */\n  dup2\n  swap1\n  sstore\n  pop\n    /* \"LuckyMachine.sol\":5310:5317  _maxBet */\n  dup4\n    /* \"LuckyMachine.sol\":5301:5307  maxBet */\n  0x07\n    /* \"LuckyMachine.sol\":5301:5317  maxBet = _maxBet */\n  dup2\n  swap1\n  sstore\n  pop\n    /* \"LuckyMachine.sol\":5341:5349  _maxPick */\n  dup2\n    /* \"LuckyMachine.sol\":5331:5338  maxPick */\n  0x06\n    /* \"LuckyMachine.sol\":5331:5349  maxPick = _maxPick */\n  dup2\n  swap1\n  sstore\n  pop\n    /* \"LuckyMachine.sol\":5372:5379  _payout */\n  dup1\n    /* \"LuckyMachine.sol\":5363:5369  payout */\n  0x0b\n    /* \"LuckyMachine.sol\":5363:5379  payout = _payout */\n  dup2\n  swap1\n  sstore\n  pop\n    /* \"LuckyMachine.sol\":4751:5386  constructor(address payable _owner, uint _maxBet, uint _minBet, uint _maxPick, uint _payout)... */\n  pop\n  pop\n  pop\n  pop\n  pop\n    /* \"LuckyMachine.sol\":3873:9459  contract LuckyMachine is VRFConsumerBase {... */\n  dataSize(sub_0)\n  dup1\n  dataOffset(sub_0)\n  0x00\n  codecopy\n  0x00\n  return\nstop\n\nsub_0: assembly {\n        /* \"LuckyMachine.sol\":3873:9459  contract LuckyMachine is VRFConsumerBase {... */\n      mstore(0x40, 0x80)\n      jumpi(tag_1, lt(calldatasize, 0x04))\n      shr(0xe0, calldataload(0x00))\n      dup1\n      0x88ea41b9\n      gt\n      tag_22\n      jumpi\n      dup1\n      0x9e317f12\n      gt\n      tag_23\n      jumpi\n      dup1\n      0x9e317f12\n      eq\n      tag_17\n      jumpi\n      dup1\n      0xa4b2409e\n      eq\n      tag_18\n      jumpi\n      dup1\n      0xb37217a4\n      eq\n      tag_19\n      jumpi\n      dup1\n      0xb93030b3\n      eq\n      tag_20\n      jumpi\n      dup1\n      0xec3d0fc7\n      eq\n      tag_21\n      jumpi\n      jump(tag_1)\n    tag_23:\n      dup1\n      0x88ea41b9\n      eq\n      tag_12\n      jumpi\n      dup1\n      0x8da5cb5b\n      eq\n      tag_13\n      jumpi\n      dup1\n      0x94985ddd\n      eq\n      tag_14\n      jumpi\n      dup1\n      0x9619367d\n      eq\n      tag_15\n      jumpi\n      dup1\n      0x9920cf81\n      eq\n      tag_16\n      jumpi\n      jump(tag_1)\n    tag_22:\n      dup1\n      0x5873533d\n      gt\n      tag_24\n      jumpi\n      dup1\n      0x5873533d\n      eq\n      tag_7\n      jumpi\n      dup1\n      0x63bd1d4a\n      eq\n      tag_8\n      jumpi\n      dup1\n      0x6b25d296\n      eq\n      tag_9\n      jumpi\n      dup1\n      0x6cc96ad9\n      eq\n      tag_10\n      jumpi\n      dup1\n      0x881eff1e\n      eq\n      tag_11\n      jumpi\n      jump(tag_1)\n    tag_24:\n      dup1\n      0x10fe7c48\n      eq\n      tag_2\n      jumpi\n      dup1\n      0x117a5b90\n      eq\n      tag_3\n      jumpi\n      dup1\n      0x2de0f182\n      eq\n      tag_4\n      jumpi\n      dup1\n      0x2e5b2168\n      eq\n      tag_5\n      jumpi\n      dup1\n      0x39e7357c\n      eq\n      tag_6\n      jumpi\n    tag_1:\n      0x00\n      dup1\n      revert\n        /* \"LuckyMachine.sol\":5937:6316  function placeBet(uint pick) public payable{... */\n    tag_2:\n      tag_25\n      0x04\n      dup1\n      calldatasize\n      sub\n        /* \"--CODEGEN--\":13:15   */\n      0x20\n        /* \"--CODEGEN--\":8:11   */\n      dup2\n        /* \"--CODEGEN--\":5:16   */\n      lt\n        /* \"--CODEGEN--\":2:4   */\n      iszero\n      tag_26\n      jumpi\n        /* \"--CODEGEN--\":29:30   */\n      0x00\n        /* \"--CODEGEN--\":26:27   */\n      dup1\n        /* \"--CODEGEN--\":19:31   */\n      revert\n        /* \"--CODEGEN--\":2:4   */\n    tag_26:\n        /* \"LuckyMachine.sol\":5937:6316  function placeBet(uint pick) public payable{... */\n      dup2\n      add\n      swap1\n      dup1\n      dup1\n      calldataload\n      swap1\n      0x20\n      add\n      swap1\n      swap3\n      swap2\n      swap1\n      pop\n      pop\n      pop\n      tag_27\n      jump\t// in\n    tag_25:\n      stop\n        /* \"LuckyMachine.sol\":4660:4694  mapping(uint => Game) public games */\n    tag_3:\n      callvalue\n        /* \"--CODEGEN--\":8:17   */\n      dup1\n        /* \"--CODEGEN--\":5:7   */\n      iszero\n      tag_28\n      jumpi\n        /* \"--CODEGEN--\":30:31   */\n      0x00\n        /* \"--CODEGEN--\":27:28   */\n      dup1\n        /* \"--CODEGEN--\":20:32   */\n      revert\n        /* \"--CODEGEN--\":5:7   */\n    tag_28:\n        /* \"LuckyMachine.sol\":4660:4694  mapping(uint => Game) public games */\n      pop\n      tag_29\n      0x04\n      dup1\n      calldatasize\n      sub\n        /* \"--CODEGEN--\":13:15   */\n      0x20\n        /* \"--CODEGEN--\":8:11   */\n      dup2\n        /* \"--CODEGEN--\":5:16   */\n      lt\n        /* \"--CODEGEN--\":2:4   */\n      iszero\n      tag_30\n      jumpi\n        /* \"--CODEGEN--\":29:30   */\n      0x00\n        /* \"--CODEGEN--\":26:27   */\n      dup1\n        /* \"--CODEGEN--\":19:31   */\n      revert\n        /* \"--CODEGEN--\":2:4   */\n    tag_30:\n        /* \"LuckyMachine.sol\":4660:4694  mapping(uint => Game) public games */\n      dup2\n      add\n      swap1\n      dup1\n      dup1\n      calldataload\n      swap1\n      0x20\n      add\n      swap1\n      swap3\n      swap2\n      swap1\n      pop\n      pop\n      pop\n      tag_31\n      jump\t// in\n    tag_29:\n      mload(0x40)\n      dup1\n      dup8\n      dup2\n      mstore\n      0x20\n      add\n      dup7\n      0xffffffffffffffffffffffffffffffffffffffff\n      and\n      0xffffffffffffffffffffffffffffffffffffffff\n      and\n      dup2\n      mstore\n      0x20\n      add\n      dup6\n      dup2\n      mstore\n      0x20\n      add\n      dup5\n      dup2\n      mstore\n      0x20\n      add\n      dup4\n      dup2\n      mstore\n      0x20\n      add\n      dup3\n      iszero\n      iszero\n      iszero\n      iszero\n      dup2\n      mstore\n      0x20\n      add\n      swap7\n      pop\n      pop\n      pop\n      pop\n      pop\n      pop\n      pop\n      mload(0x40)\n      dup1\n      swap2\n      sub\n      swap1\n      return\n        /* \"LuckyMachine.sol\":8563:8609  function fundMachine() public payable {... */\n    tag_4:\n      tag_32\n      tag_33\n      jump\t// in\n    tag_32:\n      stop\n        /* \"LuckyMachine.sol\":4479:4497  uint public maxBet */\n    tag_5:\n      callvalue\n        /* \"--CODEGEN--\":8:17   */\n      dup1\n        /* \"--CODEGEN--\":5:7   */\n      iszero\n      tag_34\n      jumpi\n        /* \"--CODEGEN--\":30:31   */\n      0x00\n        /* \"--CODEGEN--\":27:28   */\n      dup1\n        /* \"--CODEGEN--\":20:32   */\n      revert\n        /* \"--CODEGEN--\":5:7   */\n    tag_34:\n        /* \"LuckyMachine.sol\":4479:4497  uint public maxBet */\n      pop\n      tag_35\n      tag_36\n      jump\t// in\n    tag_35:\n      mload(0x40)\n      dup1\n      dup3\n      dup2\n      mstore\n      0x20\n      add\n      swap2\n      pop\n      pop\n      mload(0x40)\n      dup1\n      swap2\n      sub\n      swap1\n      return\n        /* \"LuckyMachine.sol\":6712:6789  function getSeed() public view returns(uint256) {... */\n    tag_6:\n      callvalue\n        /* \"--CODEGEN--\":8:17   */\n      dup1\n        /* \"--CODEGEN--\":5:7   */\n      iszero\n      tag_37\n      jumpi\n        /* \"--CODEGEN--\":30:31   */\n      0x00\n        /* \"--CODEGEN--\":27:28   */\n      dup1\n        /* \"--CODEGEN--\":20:32   */\n      revert\n        /* \"--CODEGEN--\":5:7   */\n    tag_37:\n        /* \"LuckyMachine.sol\":6712:6789  function getSeed() public view returns(uint256) {... */\n      pop\n      tag_38\n      tag_39\n      jump\t// in\n    tag_38:\n      mload(0x40)\n      dup1\n      dup3\n      dup2\n      mstore\n      0x20\n      add\n      swap2\n      pop\n      pop\n      mload(0x40)\n      dup1\n      swap2\n      sub\n      swap1\n      return\n        /* \"LuckyMachine.sol\":6795:7034  function playGame(uint gameID) public {... */\n    tag_7:\n      callvalue\n        /* \"--CODEGEN--\":8:17   */\n      dup1\n        /* \"--CODEGEN--\":5:7   */\n      iszero\n      tag_40\n      jumpi\n        /* \"--CODEGEN--\":30:31   */\n      0x00\n        /* \"--CODEGEN--\":27:28   */\n      dup1\n        /* \"--CODEGEN--\":20:32   */\n      revert\n        /* \"--CODEGEN--\":5:7   */\n    tag_40:\n        /* \"LuckyMachine.sol\":6795:7034  function playGame(uint gameID) public {... */\n      pop\n      tag_41\n      0x04\n      dup1\n      calldatasize\n      sub\n        /* \"--CODEGEN--\":13:15   */\n      0x20\n        /* \"--CODEGEN--\":8:11   */\n      dup2\n        /* \"--CODEGEN--\":5:16   */\n      lt\n        /* \"--CODEGEN--\":2:4   */\n      iszero\n      tag_42\n      jumpi\n        /* \"--CODEGEN--\":29:30   */\n      0x00\n        /* \"--CODEGEN--\":26:27   */\n      dup1\n        /* \"--CODEGEN--\":19:31   */\n      revert\n        /* \"--CODEGEN--\":2:4   */\n    tag_42:\n        /* \"LuckyMachine.sol\":6795:7034  function playGame(uint gameID) public {... */\n      dup2\n      add\n      swap1\n      dup1\n      dup1\n      calldataload\n      swap1\n      0x20\n      add\n      swap1\n      swap3\n      swap2\n      swap1\n      pop\n      pop\n      pop\n      tag_43\n      jump\t// in\n    tag_41:\n      stop\n        /* \"LuckyMachine.sol\":4588:4606  uint public payout */\n    tag_8:\n      callvalue\n        /* \"--CODEGEN--\":8:17   */\n      dup1\n        /* \"--CODEGEN--\":5:7   */\n      iszero\n      tag_44\n      jumpi\n        /* \"--CODEGEN--\":30:31   */\n      0x00\n        /* \"--CODEGEN--\":27:28   */\n      dup1\n        /* \"--CODEGEN--\":20:32   */\n      revert\n        /* \"--CODEGEN--\":5:7   */\n    tag_44:\n        /* \"LuckyMachine.sol\":4588:4606  uint public payout */\n      pop\n      tag_45\n      tag_46\n      jump\t// in\n    tag_45:\n      mload(0x40)\n      dup1\n      dup3\n      dup2\n      mstore\n      0x20\n      add\n      swap2\n      pop\n      pop\n      mload(0x40)\n      dup1\n      swap2\n      sub\n      swap1\n      return\n        /* \"LuckyMachine.sol\":4527:4552  uint public _unplayedBets */\n    tag_9:\n      callvalue\n        /* \"--CODEGEN--\":8:17   */\n      dup1\n        /* \"--CODEGEN--\":5:7   */\n      iszero\n      tag_47\n      jumpi\n        /* \"--CODEGEN--\":30:31   */\n      0x00\n        /* \"--CODEGEN--\":27:28   */\n      dup1\n        /* \"--CODEGEN--\":20:32   */\n      revert\n        /* \"--CODEGEN--\":5:7   */\n    tag_47:\n        /* \"LuckyMachine.sol\":4527:4552  uint public _unplayedBets */\n      pop\n      tag_48\n      tag_49\n      jump\t// in\n    tag_48:\n      mload(0x40)\n      dup1\n      dup3\n      dup2\n      mstore\n      0x20\n      add\n      swap2\n      pop\n      pop\n      mload(0x40)\n      dup1\n      swap2\n      sub\n      swap1\n      return\n        /* \"LuckyMachine.sol\":4700:4744  mapping(bytes32 => uint) public _gameRequsts */\n    tag_10:\n      callvalue\n        /* \"--CODEGEN--\":8:17   */\n      dup1\n        /* \"--CODEGEN--\":5:7   */\n      iszero\n      tag_50\n      jumpi\n        /* \"--CODEGEN--\":30:31   */\n      0x00\n        /* \"--CODEGEN--\":27:28   */\n      dup1\n        /* \"--CODEGEN--\":20:32   */\n      revert\n        /* \"--CODEGEN--\":5:7   */\n    tag_50:\n        /* \"LuckyMachine.sol\":4700:4744  mapping(bytes32 => uint) public _gameRequsts */\n      pop\n      tag_51\n      0x04\n      dup1\n      calldatasize\n      sub\n        /* \"--CODEGEN--\":13:15   */\n      0x20\n        /* \"--CODEGEN--\":8:11   */\n      dup2\n        /* \"--CODEGEN--\":5:16   */\n      lt\n        /* \"--CODEGEN--\":2:4   */\n      iszero\n      tag_52\n      jumpi\n        /* \"--CODEGEN--\":29:30   */\n      0x00\n        /* \"--CODEGEN--\":26:27   */\n      dup1\n        /* \"--CODEGEN--\":19:31   */\n      revert\n        /* \"--CODEGEN--\":2:4   */\n    tag_52:\n        /* \"LuckyMachine.sol\":4700:4744  mapping(bytes32 => uint) public _gameRequsts */\n      dup2\n      add\n      swap1\n      dup1\n      dup1\n      calldataload\n      swap1\n      0x20\n      add\n      swap1\n      swap3\n      swap2\n      swap1\n      pop\n      pop\n      pop\n      tag_53\n      jump\t// in\n    tag_51:\n      mload(0x40)\n      dup1\n      dup3\n      dup2\n      mstore\n      0x20\n      add\n      swap2\n      pop\n      pop\n      mload(0x40)\n      dup1\n      swap2\n      sub\n      swap1\n      return\n        /* \"LuckyMachine.sol\":8615:8731  function setMaxBet(uint _maxBet) public {... */\n    tag_11:\n      callvalue\n        /* \"--CODEGEN--\":8:17   */\n      dup1\n        /* \"--CODEGEN--\":5:7   */\n      iszero\n      tag_54\n      jumpi\n        /* \"--CODEGEN--\":30:31   */\n      0x00\n        /* \"--CODEGEN--\":27:28   */\n      dup1\n        /* \"--CODEGEN--\":20:32   */\n      revert\n        /* \"--CODEGEN--\":5:7   */\n    tag_54:\n        /* \"LuckyMachine.sol\":8615:8731  function setMaxBet(uint _maxBet) public {... */\n      pop\n      tag_55\n      0x04\n      dup1\n      calldatasize\n      sub\n        /* \"--CODEGEN--\":13:15   */\n      0x20\n        /* \"--CODEGEN--\":8:11   */\n      dup2\n        /* \"--CODEGEN--\":5:16   */\n      lt\n        /* \"--CODEGEN--\":2:4   */\n      iszero\n      tag_56\n      jumpi\n        /* \"--CODEGEN--\":29:30   */\n      0x00\n        /* \"--CODEGEN--\":26:27   */\n      dup1\n        /* \"--CODEGEN--\":19:31   */\n      revert\n        /* \"--CODEGEN--\":2:4   */\n    tag_56:\n        /* \"LuckyMachine.sol\":8615:8731  function setMaxBet(uint _maxBet) public {... */\n      dup2\n      add\n      swap1\n      dup1\n      dup1\n      calldataload\n      swap1\n      0x20\n      add\n      swap1\n      swap3\n      swap2\n      swap1\n      pop\n      pop\n      pop\n      tag_57\n      jump\t// in\n    tag_55:\n      stop\n        /* \"LuckyMachine.sol\":8737:8853  function setMinBet(uint _minBet) public {... */\n    tag_12:\n      callvalue\n        /* \"--CODEGEN--\":8:17   */\n      dup1\n        /* \"--CODEGEN--\":5:7   */\n      iszero\n      tag_58\n      jumpi\n        /* \"--CODEGEN--\":30:31   */\n      0x00\n        /* \"--CODEGEN--\":27:28   */\n      dup1\n        /* \"--CODEGEN--\":20:32   */\n      revert\n        /* \"--CODEGEN--\":5:7   */\n    tag_58:\n        /* \"LuckyMachine.sol\":8737:8853  function setMinBet(uint _minBet) public {... */\n      pop\n      tag_59\n      0x04\n      dup1\n      calldatasize\n      sub\n        /* \"--CODEGEN--\":13:15   */\n      0x20\n        /* \"--CODEGEN--\":8:11   */\n      dup2\n        /* \"--CODEGEN--\":5:16   */\n      lt\n        /* \"--CODEGEN--\":2:4   */\n      iszero\n      tag_60\n      jumpi\n        /* \"--CODEGEN--\":29:30   */\n      0x00\n        /* \"--CODEGEN--\":26:27   */\n      dup1\n        /* \"--CODEGEN--\":19:31   */\n      revert\n        /* \"--CODEGEN--\":2:4   */\n    tag_60:\n        /* \"LuckyMachine.sol\":8737:8853  function setMinBet(uint _minBet) public {... */\n      dup2\n      add\n      swap1\n      dup1\n      dup1\n      calldataload\n      swap1\n      0x20\n      add\n      swap1\n      swap3\n      swap2\n      swap1\n      pop\n      pop\n      pop\n      tag_61\n      jump\t// in\n    tag_59:\n      stop\n        /* \"LuckyMachine.sol\":4154:4182  address payable public owner */\n    tag_13:\n      callvalue\n        /* \"--CODEGEN--\":8:17   */\n      dup1\n        /* \"--CODEGEN--\":5:7   */\n      iszero\n      tag_62\n      jumpi\n        /* \"--CODEGEN--\":30:31   */\n      0x00\n        /* \"--CODEGEN--\":27:28   */\n      dup1\n        /* \"--CODEGEN--\":20:32   */\n      revert\n        /* \"--CODEGEN--\":5:7   */\n    tag_62:\n        /* \"LuckyMachine.sol\":4154:4182  address payable public owner */\n      pop\n      tag_63\n      tag_64\n      jump\t// in\n    tag_63:\n      mload(0x40)\n      dup1\n      dup3\n      0xffffffffffffffffffffffffffffffffffffffff\n      and\n      0xffffffffffffffffffffffffffffffffffffffff\n      and\n      dup2\n      mstore\n      0x20\n      add\n      swap2\n      pop\n      pop\n      mload(0x40)\n      dup1\n      swap2\n      sub\n      swap1\n      return\n        /* \"LuckyMachine.sol\":3662:3869  function rawFulfillRandomness(bytes32 requestId, uint256 randomness) external {... */\n    tag_14:\n      callvalue\n        /* \"--CODEGEN--\":8:17   */\n      dup1\n        /* \"--CODEGEN--\":5:7   */\n      iszero\n      tag_65\n      jumpi\n        /* \"--CODEGEN--\":30:31   */\n      0x00\n        /* \"--CODEGEN--\":27:28   */\n      dup1\n        /* \"--CODEGEN--\":20:32   */\n      revert\n        /* \"--CODEGEN--\":5:7   */\n    tag_65:\n        /* \"LuckyMachine.sol\":3662:3869  function rawFulfillRandomness(bytes32 requestId, uint256 randomness) external {... */\n      pop\n      tag_66\n      0x04\n      dup1\n      calldatasize\n      sub\n        /* \"--CODEGEN--\":13:15   */\n      0x40\n        /* \"--CODEGEN--\":8:11   */\n      dup2\n        /* \"--CODEGEN--\":5:16   */\n      lt\n        /* \"--CODEGEN--\":2:4   */\n      iszero\n      tag_67\n      jumpi\n        /* \"--CODEGEN--\":29:30   */\n      0x00\n        /* \"--CODEGEN--\":26:27   */\n      dup1\n        /* \"--CODEGEN--\":19:31   */\n      revert\n        /* \"--CODEGEN--\":2:4   */\n    tag_67:\n        /* \"LuckyMachine.sol\":3662:3869  function rawFulfillRandomness(bytes32 requestId, uint256 randomness) external {... */\n      dup2\n      add\n      swap1\n      dup1\n      dup1\n      calldataload\n      swap1\n      0x20\n      add\n      swap1\n      swap3\n      swap2\n      swap1\n      dup1\n      calldataload\n      swap1\n      0x20\n      add\n      swap1\n      swap3\n      swap2\n      swap1\n      pop\n      pop\n      pop\n      tag_68\n      jump\t// in\n    tag_66:\n      stop\n        /* \"LuckyMachine.sol\":4503:4521  uint public minBet */\n    tag_15:\n      callvalue\n        /* \"--CODEGEN--\":8:17   */\n      dup1\n        /* \"--CODEGEN--\":5:7   */\n      iszero\n      tag_69\n      jumpi\n        /* \"--CODEGEN--\":30:31   */\n      0x00\n        /* \"--CODEGEN--\":27:28   */\n      dup1\n        /* \"--CODEGEN--\":20:32   */\n      revert\n        /* \"--CODEGEN--\":5:7   */\n    tag_69:\n        /* \"LuckyMachine.sol\":4503:4521  uint public minBet */\n      pop\n      tag_70\n      tag_71\n      jump\t// in\n    tag_70:\n      mload(0x40)\n      dup1\n      dup3\n      dup2\n      mstore\n      0x20\n      add\n      swap2\n      pop\n      pop\n      mload(0x40)\n      dup1\n      swap2\n      sub\n      swap1\n      return\n        /* \"LuckyMachine.sol\":4558:4582  uint public _currentGame */\n    tag_16:\n      callvalue\n        /* \"--CODEGEN--\":8:17   */\n      dup1\n        /* \"--CODEGEN--\":5:7   */\n      iszero\n      tag_72\n      jumpi\n        /* \"--CODEGEN--\":30:31   */\n      0x00\n        /* \"--CODEGEN--\":27:28   */\n      dup1\n        /* \"--CODEGEN--\":20:32   */\n      revert\n        /* \"--CODEGEN--\":5:7   */\n    tag_72:\n        /* \"LuckyMachine.sol\":4558:4582  uint public _currentGame */\n      pop\n      tag_73\n      tag_74\n      jump\t// in\n    tag_73:\n      mload(0x40)\n      dup1\n      dup3\n      dup2\n      mstore\n      0x20\n      add\n      swap2\n      pop\n      pop\n      mload(0x40)\n      dup1\n      swap2\n      sub\n      swap1\n      return\n        /* \"LuckyMachine.sol\":3447:3514  mapping(bytes32 /* keyHash */ => uint256 /* nonce */) public nonces */\n    tag_17:\n      callvalue\n        /* \"--CODEGEN--\":8:17   */\n      dup1\n        /* \"--CODEGEN--\":5:7   */\n      iszero\n      tag_75\n      jumpi\n        /* \"--CODEGEN--\":30:31   */\n      0x00\n        /* \"--CODEGEN--\":27:28   */\n      dup1\n        /* \"--CODEGEN--\":20:32   */\n      revert\n        /* \"--CODEGEN--\":5:7   */\n    tag_75:\n        /* \"LuckyMachine.sol\":3447:3514  mapping(bytes32 /* keyHash */ => uint256 /* nonce */) public nonces */\n      pop\n      tag_76\n      0x04\n      dup1\n      calldatasize\n      sub\n        /* \"--CODEGEN--\":13:15   */\n      0x20\n        /* \"--CODEGEN--\":8:11   */\n      dup2\n        /* \"--CODEGEN--\":5:16   */\n      lt\n        /* \"--CODEGEN--\":2:4   */\n      iszero\n      tag_77\n      jumpi\n        /* \"--CODEGEN--\":29:30   */\n      0x00\n        /* \"--CODEGEN--\":26:27   */\n      dup1\n        /* \"--CODEGEN--\":19:31   */\n      revert\n        /* \"--CODEGEN--\":2:4   */\n    tag_77:\n        /* \"LuckyMachine.sol\":3447:3514  mapping(bytes32 /* keyHash */ => uint256 /* nonce */) public nonces */\n      dup2\n      add\n      swap1\n      dup1\n      dup1\n      calldataload\n      swap1\n      0x20\n      add\n      swap1\n      swap3\n      swap2\n      swap1\n      pop\n      pop\n      pop\n      tag_78\n      jump\t// in\n    tag_76:\n      mload(0x40)\n      dup1\n      dup3\n      dup2\n      mstore\n      0x20\n      add\n      swap2\n      pop\n      pop\n      mload(0x40)\n      dup1\n      swap2\n      sub\n      swap1\n      return\n        /* \"LuckyMachine.sol\":8070:8533  function requestRefund(uint gameID) public{... */\n    tag_18:\n      callvalue\n        /* \"--CODEGEN--\":8:17   */\n      dup1\n        /* \"--CODEGEN--\":5:7   */\n      iszero\n      tag_79\n      jumpi\n        /* \"--CODEGEN--\":30:31   */\n      0x00\n        /* \"--CODEGEN--\":27:28   */\n      dup1\n        /* \"--CODEGEN--\":20:32   */\n      revert\n        /* \"--CODEGEN--\":5:7   */\n    tag_79:\n        /* \"LuckyMachine.sol\":8070:8533  function requestRefund(uint gameID) public{... */\n      pop\n      tag_80\n      0x04\n      dup1\n      calldatasize\n      sub\n        /* \"--CODEGEN--\":13:15   */\n      0x20\n        /* \"--CODEGEN--\":8:11   */\n      dup2\n        /* \"--CODEGEN--\":5:16   */\n      lt\n        /* \"--CODEGEN--\":2:4   */\n      iszero\n      tag_81\n      jumpi\n        /* \"--CODEGEN--\":29:30   */\n      0x00\n        /* \"--CODEGEN--\":26:27   */\n      dup1\n        /* \"--CODEGEN--\":19:31   */\n      revert\n        /* \"--CODEGEN--\":2:4   */\n    tag_81:\n        /* \"LuckyMachine.sol\":8070:8533  function requestRefund(uint gameID) public{... */\n      dup2\n      add\n      swap1\n      dup1\n      dup1\n      calldataload\n      swap1\n      0x20\n      add\n      swap1\n      swap3\n      swap2\n      swap1\n      pop\n      pop\n      pop\n      tag_82\n      jump\t// in\n    tag_80:\n      stop\n        /* \"LuckyMachine.sol\":7040:7248  function getRandomNumber(uint256 seed) public returns (bytes32 requestId) {... */\n    tag_19:\n      callvalue\n        /* \"--CODEGEN--\":8:17   */\n      dup1\n        /* \"--CODEGEN--\":5:7   */\n      iszero\n      tag_83\n      jumpi\n        /* \"--CODEGEN--\":30:31   */\n      0x00\n        /* \"--CODEGEN--\":27:28   */\n      dup1\n        /* \"--CODEGEN--\":20:32   */\n      revert\n        /* \"--CODEGEN--\":5:7   */\n    tag_83:\n        /* \"LuckyMachine.sol\":7040:7248  function getRandomNumber(uint256 seed) public returns (bytes32 requestId) {... */\n      pop\n      tag_84\n      0x04\n      dup1\n      calldatasize\n      sub\n        /* \"--CODEGEN--\":13:15   */\n      0x20\n        /* \"--CODEGEN--\":8:11   */\n      dup2\n        /* \"--CODEGEN--\":5:16   */\n      lt\n        /* \"--CODEGEN--\":2:4   */\n      iszero\n      tag_85\n      jumpi\n        /* \"--CODEGEN--\":29:30   */\n      0x00\n        /* \"--CODEGEN--\":26:27   */\n      dup1\n        /* \"--CODEGEN--\":19:31   */\n      revert\n        /* \"--CODEGEN--\":2:4   */\n    tag_85:\n        /* \"LuckyMachine.sol\":7040:7248  function getRandomNumber(uint256 seed) public returns (bytes32 requestId) {... */\n      dup2\n      add\n      swap1\n      dup1\n      dup1\n      calldataload\n      swap1\n      0x20\n      add\n      swap1\n      swap3\n      swap2\n      swap1\n      pop\n      pop\n      pop\n      tag_86\n      jump\t// in\n    tag_84:\n      mload(0x40)\n      dup1\n      dup3\n      dup2\n      mstore\n      0x20\n      add\n      swap2\n      pop\n      pop\n      mload(0x40)\n      dup1\n      swap2\n      sub\n      swap1\n      return\n        /* \"LuckyMachine.sol\":8859:9457  function closeMachine() public {... */\n    tag_20:\n      callvalue\n        /* \"--CODEGEN--\":8:17   */\n      dup1\n        /* \"--CODEGEN--\":5:7   */\n      iszero\n      tag_87\n      jumpi\n        /* \"--CODEGEN--\":30:31   */\n      0x00\n        /* \"--CODEGEN--\":27:28   */\n      dup1\n        /* \"--CODEGEN--\":20:32   */\n      revert\n        /* \"--CODEGEN--\":5:7   */\n    tag_87:\n        /* \"LuckyMachine.sol\":8859:9457  function closeMachine() public {... */\n      pop\n      tag_88\n      tag_89\n      jump\t// in\n    tag_88:\n      stop\n        /* \"LuckyMachine.sol\":5392:5931  function canPlayGame(uint bet) public view returns(bool){... */\n    tag_21:\n      callvalue\n        /* \"--CODEGEN--\":8:17   */\n      dup1\n        /* \"--CODEGEN--\":5:7   */\n      iszero\n      tag_90\n      jumpi\n        /* \"--CODEGEN--\":30:31   */\n      0x00\n        /* \"--CODEGEN--\":27:28   */\n      dup1\n        /* \"--CODEGEN--\":20:32   */\n      revert\n        /* \"--CODEGEN--\":5:7   */\n    tag_90:\n        /* \"LuckyMachine.sol\":5392:5931  function canPlayGame(uint bet) public view returns(bool){... */\n      pop\n      tag_91\n      0x04\n      dup1\n      calldatasize\n      sub\n        /* \"--CODEGEN--\":13:15   */\n      0x20\n        /* \"--CODEGEN--\":8:11   */\n      dup2\n        /* \"--CODEGEN--\":5:16   */\n      lt\n        /* \"--CODEGEN--\":2:4   */\n      iszero\n      tag_92\n      jumpi\n        /* \"--CODEGEN--\":29:30   */\n      0x00\n        /* \"--CODEGEN--\":26:27   */\n      dup1\n        /* \"--CODEGEN--\":19:31   */\n      revert\n        /* \"--CODEGEN--\":2:4   */\n    tag_92:\n        /* \"LuckyMachine.sol\":5392:5931  function canPlayGame(uint bet) public view returns(bool){... */\n      dup2\n      add\n      swap1\n      dup1\n      dup1\n      calldataload\n      swap1\n      0x20\n      add\n      swap1\n      swap3\n      swap2\n      swap1\n      pop\n      pop\n      pop\n      tag_93\n      jump\t// in\n    tag_91:\n      mload(0x40)\n      dup1\n      dup3\n      iszero\n      iszero\n      iszero\n      iszero\n      dup2\n      mstore\n      0x20\n      add\n      swap2\n      pop\n      pop\n      mload(0x40)\n      dup1\n      swap2\n      sub\n      swap1\n      return\n        /* \"LuckyMachine.sol\":5937:6316  function placeBet(uint pick) public payable{... */\n    tag_27:\n        /* \"LuckyMachine.sol\":6047:6054  maxPick */\n      sload(0x06)\n        /* \"LuckyMachine.sol\":6039:6043  pick */\n      dup2\n        /* \"LuckyMachine.sol\":6039:6054  pick <= maxPick */\n      gt\n      iszero\n        /* \"LuckyMachine.sol\":6031:6099  require(pick <= maxPick, \"Pick is too high. Choose a lower number.\") */\n      tag_95\n      jumpi\n      mload(0x40)\n      0x08c379a000000000000000000000000000000000000000000000000000000000\n      dup2\n      mstore\n      0x04\n      add\n      dup1\n      dup1\n      0x20\n      add\n      dup3\n      dup2\n      sub\n      dup3\n      mstore\n      0x28\n      dup2\n      mstore\n      0x20\n      add\n      dup1\n      data_104d4309dbdd0d693502d943a07623e5e639a80ec32910748a6b4f701d61cac8\n      0x28\n      swap2\n      codecopy\n      0x40\n      add\n      swap2\n      pop\n      pop\n      mload(0x40)\n      dup1\n      swap2\n      sub\n      swap1\n      revert\n    tag_95:\n        /* \"LuckyMachine.sol\":6117:6139  canPlayGame(msg.value) */\n      tag_96\n        /* \"LuckyMachine.sol\":6129:6138  msg.value */\n      callvalue\n        /* \"LuckyMachine.sol\":6117:6128  canPlayGame */\n      tag_93\n        /* \"LuckyMachine.sol\":6117:6139  canPlayGame(msg.value) */\n      jump\t// in\n    tag_96:\n        /* \"LuckyMachine.sol\":6109:6191  require(canPlayGame(msg.value),\"Not enough funds for payout or max bet exceeded.\") */\n      tag_97\n      jumpi\n      mload(0x40)\n      0x08c379a000000000000000000000000000000000000000000000000000000000\n      dup2\n      mstore\n      0x04\n      add\n      dup1\n      dup1\n      0x20\n      add\n      dup3\n      dup2\n      sub\n      dup3\n      mstore\n      0x30\n      dup2\n      mstore\n      0x20\n      add\n      dup1\n      data_527e2d2f0571e45516fd6cab239d7693177079563917108277dfb81e888c4ca6\n      0x30\n      swap2\n      codecopy\n      0x40\n      add\n      swap2\n      pop\n      pop\n      mload(0x40)\n      dup1\n      swap2\n      sub\n      swap1\n      revert\n    tag_97:\n        /* \"LuckyMachine.sol\":6219:6228  msg.value */\n      callvalue\n        /* \"LuckyMachine.sol\":6202:6215  _unplayedBets */\n      0x09\n      0x00\n        /* \"LuckyMachine.sol\":6202:6228  _unplayedBets += msg.value */\n      dup3\n      dup3\n      sload\n      add\n      swap3\n      pop\n      pop\n      dup2\n      swap1\n      sstore\n      pop\n        /* \"LuckyMachine.sol\":6238:6277  createGame(msg.sender, msg.value, pick) */\n      tag_98\n        /* \"LuckyMachine.sol\":6249:6259  msg.sender */\n      caller\n        /* \"LuckyMachine.sol\":6261:6270  msg.value */\n      callvalue\n        /* \"LuckyMachine.sol\":6272:6276  pick */\n      dup4\n        /* \"LuckyMachine.sol\":6238:6248  createGame */\n      tag_99\n        /* \"LuckyMachine.sol\":6238:6277  createGame(msg.sender, msg.value, pick) */\n      jump\t// in\n    tag_98:\n        /* \"LuckyMachine.sol\":6287:6309  playGame(_currentGame) */\n      tag_100\n        /* \"LuckyMachine.sol\":6296:6308  _currentGame */\n      sload(0x0a)\n        /* \"LuckyMachine.sol\":6287:6295  playGame */\n      tag_43\n        /* \"LuckyMachine.sol\":6287:6309  playGame(_currentGame) */\n      jump\t// in\n    tag_100:\n        /* \"LuckyMachine.sol\":5937:6316  function placeBet(uint pick) public payable{... */\n      pop\n      jump\t// out\n        /* \"LuckyMachine.sol\":4660:4694  mapping(uint => Game) public games */\n    tag_31:\n      mstore(0x20, 0x0c)\n      dup1\n      0x00\n      mstore\n      keccak256(0x00, 0x40)\n      0x00\n      swap2\n      pop\n      swap1\n      pop\n      dup1\n      0x00\n      add\n      sload\n      swap1\n      dup1\n      0x01\n      add\n      0x00\n      swap1\n      sload\n      swap1\n      0x0100\n      exp\n      swap1\n      div\n      0xffffffffffffffffffffffffffffffffffffffff\n      and\n      swap1\n      dup1\n      0x02\n      add\n      sload\n      swap1\n      dup1\n      0x03\n      add\n      sload\n      swap1\n      dup1\n      0x04\n      add\n      sload\n      swap1\n      dup1\n      0x05\n      add\n      0x00\n      swap1\n      sload\n      swap1\n      0x0100\n      exp\n      swap1\n      div\n      0xff\n      and\n      swap1\n      pop\n      dup7\n      jump\t// out\n        /* \"LuckyMachine.sol\":8563:8609  function fundMachine() public payable {... */\n    tag_33:\n      jump\t// out\n        /* \"LuckyMachine.sol\":4479:4497  uint public maxBet */\n    tag_36:\n      sload(0x07)\n      dup2\n      jump\t// out\n        /* \"LuckyMachine.sol\":6712:6789  function getSeed() public view returns(uint256) {... */\n    tag_39:\n        /* \"LuckyMachine.sol\":6751:6758  uint256 */\n      0x00\n        /* \"LuckyMachine.sol\":6777:6782  12345 */\n      0x3039\n        /* \"LuckyMachine.sol\":6770:6782  return 12345 */\n      swap1\n      pop\n        /* \"LuckyMachine.sol\":6712:6789  function getSeed() public view returns(uint256) {... */\n      swap1\n      jump\t// out\n        /* \"LuckyMachine.sol\":6795:7034  function playGame(uint gameID) public {... */\n    tag_43:\n        /* \"LuckyMachine.sol\":6925:6934  uint seed */\n      0x00\n        /* \"LuckyMachine.sol\":6937:6942  12345 */\n      0x3039\n        /* \"LuckyMachine.sol\":6925:6942  uint seed = 12345 */\n      swap1\n      pop\n        /* \"LuckyMachine.sol\":6952:6965  bytes32 reqID */\n      0x00\n        /* \"LuckyMachine.sol\":6968:6989  getRandomNumber(seed) */\n      tag_104\n        /* \"LuckyMachine.sol\":6984:6988  seed */\n      dup3\n        /* \"LuckyMachine.sol\":6968:6983  getRandomNumber */\n      tag_86\n        /* \"LuckyMachine.sol\":6968:6989  getRandomNumber(seed) */\n      jump\t// in\n    tag_104:\n        /* \"LuckyMachine.sol\":6952:6989  bytes32 reqID = getRandomNumber(seed) */\n      swap1\n      pop\n        /* \"LuckyMachine.sol\":7021:7027  gameID */\n      dup3\n        /* \"LuckyMachine.sol\":6999:7011  _gameRequsts */\n      0x0d\n        /* \"LuckyMachine.sol\":6999:7018  _gameRequsts[reqID] */\n      0x00\n        /* \"LuckyMachine.sol\":7012:7017  reqID */\n      dup4\n        /* \"LuckyMachine.sol\":6999:7018  _gameRequsts[reqID] */\n      dup2\n      mstore\n      0x20\n      add\n      swap1\n      dup2\n      mstore\n      0x20\n      add\n      0x00\n      keccak256\n        /* \"LuckyMachine.sol\":6999:7027  _gameRequsts[reqID] = gameID */\n      dup2\n      swap1\n      sstore\n      pop\n        /* \"LuckyMachine.sol\":6795:7034  function playGame(uint gameID) public {... */\n      pop\n      pop\n      pop\n      jump\t// out\n        /* \"LuckyMachine.sol\":4588:4606  uint public payout */\n    tag_46:\n      sload(0x0b)\n      dup2\n      jump\t// out\n        /* \"LuckyMachine.sol\":4527:4552  uint public _unplayedBets */\n    tag_49:\n      sload(0x09)\n      dup2\n      jump\t// out\n        /* \"LuckyMachine.sol\":4700:4744  mapping(bytes32 => uint) public _gameRequsts */\n    tag_53:\n      mstore(0x20, 0x0d)\n      dup1\n      0x00\n      mstore\n      keccak256(0x00, 0x40)\n      0x00\n      swap2\n      pop\n      swap1\n      pop\n      sload\n      dup2\n      jump\t// out\n        /* \"LuckyMachine.sol\":8615:8731  function setMaxBet(uint _maxBet) public {... */\n    tag_57:\n        /* \"LuckyMachine.sol\":8717:8724  _maxBet */\n      dup1\n        /* \"LuckyMachine.sol\":8708:8714  maxBet */\n      0x07\n        /* \"LuckyMachine.sol\":8708:8724  maxBet = _maxBet */\n      dup2\n      swap1\n      sstore\n      pop\n        /* \"LuckyMachine.sol\":8615:8731  function setMaxBet(uint _maxBet) public {... */\n      pop\n      jump\t// out\n        /* \"LuckyMachine.sol\":8737:8853  function setMinBet(uint _minBet) public {... */\n    tag_61:\n        /* \"LuckyMachine.sol\":8839:8846  _minBet */\n      dup1\n        /* \"LuckyMachine.sol\":8830:8836  minBet */\n      0x08\n        /* \"LuckyMachine.sol\":8830:8846  minBet = _minBet */\n      dup2\n      swap1\n      sstore\n      pop\n        /* \"LuckyMachine.sol\":8737:8853  function setMinBet(uint _minBet) public {... */\n      pop\n      jump\t// out\n        /* \"LuckyMachine.sol\":4154:4182  address payable public owner */\n    tag_64:\n      0x03\n      0x00\n      swap1\n      sload\n      swap1\n      0x0100\n      exp\n      swap1\n      div\n      0xffffffffffffffffffffffffffffffffffffffff\n      and\n      dup2\n      jump\t// out\n        /* \"LuckyMachine.sol\":3662:3869  function rawFulfillRandomness(bytes32 requestId, uint256 randomness) external {... */\n    tag_68:\n        /* \"LuckyMachine.sol\":3768:3782  vrfCoordinator */\n      0x01\n      0x00\n      swap1\n      sload\n      swap1\n      0x0100\n      exp\n      swap1\n      div\n      0xffffffffffffffffffffffffffffffffffffffff\n      and\n        /* \"LuckyMachine.sol\":3754:3782  msg.sender == vrfCoordinator */\n      0xffffffffffffffffffffffffffffffffffffffff\n      and\n        /* \"LuckyMachine.sol\":3754:3764  msg.sender */\n      caller\n        /* \"LuckyMachine.sol\":3754:3782  msg.sender == vrfCoordinator */\n      0xffffffffffffffffffffffffffffffffffffffff\n      and\n      eq\n        /* \"LuckyMachine.sol\":3746:3818  require(msg.sender == vrfCoordinator, \"Only VRFCoordinator can fulfill\") */\n      tag_108\n      jumpi\n      mload(0x40)\n      0x08c379a000000000000000000000000000000000000000000000000000000000\n      dup2\n      mstore\n      0x04\n      add\n      dup1\n      dup1\n      0x20\n      add\n      dup3\n      dup2\n      sub\n      dup3\n      mstore\n      0x1f\n      dup2\n      mstore\n      0x20\n      add\n      dup1\n      0x4f6e6c7920565246436f6f7264696e61746f722063616e2066756c66696c6c00\n      dup2\n      mstore\n      pop\n      0x20\n      add\n      swap2\n      pop\n      pop\n      mload(0x40)\n      dup1\n      swap2\n      sub\n      swap1\n      revert\n    tag_108:\n        /* \"LuckyMachine.sol\":3824:3864  fulfillRandomness(requestId, randomness) */\n      tag_109\n        /* \"LuckyMachine.sol\":3842:3851  requestId */\n      dup3\n        /* \"LuckyMachine.sol\":3853:3863  randomness */\n      dup3\n        /* \"LuckyMachine.sol\":3824:3841  fulfillRandomness */\n      tag_110\n        /* \"LuckyMachine.sol\":3824:3864  fulfillRandomness(requestId, randomness) */\n      jump\t// in\n    tag_109:\n        /* \"LuckyMachine.sol\":3662:3869  function rawFulfillRandomness(bytes32 requestId, uint256 randomness) external {... */\n      pop\n      pop\n      jump\t// out\n        /* \"LuckyMachine.sol\":4503:4521  uint public minBet */\n    tag_71:\n      sload(0x08)\n      dup2\n      jump\t// out\n        /* \"LuckyMachine.sol\":4558:4582  uint public _currentGame */\n    tag_74:\n      sload(0x0a)\n      dup2\n      jump\t// out\n        /* \"LuckyMachine.sol\":3447:3514  mapping(bytes32 /* keyHash */ => uint256 /* nonce */) public nonces */\n    tag_78:\n      mstore(0x20, 0x02)\n      dup1\n      0x00\n      mstore\n      keccak256(0x00, 0x40)\n      0x00\n      swap2\n      pop\n      swap1\n      pop\n      sload\n      dup2\n      jump\t// out\n        /* \"LuckyMachine.sol\":8070:8533  function requestRefund(uint gameID) public{... */\n    tag_82:\n        /* \"LuckyMachine.sol\":8122:8136  Game storage g */\n      0x00\n        /* \"LuckyMachine.sol\":8139:8144  games */\n      0x0c\n        /* \"LuckyMachine.sol\":8139:8152  games[gameID] */\n      0x00\n        /* \"LuckyMachine.sol\":8145:8151  gameID */\n      dup4\n        /* \"LuckyMachine.sol\":8139:8152  games[gameID] */\n      dup2\n      mstore\n      0x20\n      add\n      swap1\n      dup2\n      mstore\n      0x20\n      add\n      0x00\n      keccak256\n        /* \"LuckyMachine.sol\":8122:8152  Game storage g = games[gameID] */\n      swap1\n      pop\n        /* \"LuckyMachine.sol\":8182:8187  false */\n      0x00\n        /* \"LuckyMachine.sol\":8170:8187  g.played == false */\n      iszero\n      iszero\n        /* \"LuckyMachine.sol\":8170:8171  g */\n      dup2\n        /* \"LuckyMachine.sol\":8170:8178  g.played */\n      0x05\n      add\n      0x00\n      swap1\n      sload\n      swap1\n      0x0100\n      exp\n      swap1\n      div\n      0xff\n      and\n        /* \"LuckyMachine.sol\":8170:8187  g.played == false */\n      iszero\n      iszero\n      eq\n        /* \"LuckyMachine.sol\":8162:8234  require(g.played == false, \"Game already complete. No refund possible.\") */\n      tag_112\n      jumpi\n      mload(0x40)\n      0x08c379a000000000000000000000000000000000000000000000000000000000\n      dup2\n      mstore\n      0x04\n      add\n      dup1\n      dup1\n      0x20\n      add\n      dup3\n      dup2\n      sub\n      dup3\n      mstore\n      0x2a\n      dup2\n      mstore\n      0x20\n      add\n      dup1\n      data_c34c85fa0e0680ac47dc2c21fdf93b1adcc71d9a1a3b3b1788b881c3f4f390ac\n      0x2a\n      swap2\n      codecopy\n      0x40\n      add\n      swap2\n      pop\n      pop\n      mload(0x40)\n      dup1\n      swap2\n      sub\n      swap1\n      revert\n    tag_112:\n        /* \"LuckyMachine.sol\":8277:8278  g */\n      dup1\n        /* \"LuckyMachine.sol\":8277:8282  g.bet */\n      0x02\n      add\n      sload\n        /* \"LuckyMachine.sol\":8252:8273  address(this).balance */\n      selfbalance\n        /* \"LuckyMachine.sol\":8252:8282  address(this).balance >= g.bet */\n      lt\n      iszero\n        /* \"LuckyMachine.sol\":8244:8336  require(address(this).balance >= g.bet, \"Contract balance too low. Please try again later.\") */\n      tag_113\n      jumpi\n      mload(0x40)\n      0x08c379a000000000000000000000000000000000000000000000000000000000\n      dup2\n      mstore\n      0x04\n      add\n      dup1\n      dup1\n      0x20\n      add\n      dup3\n      dup2\n      sub\n      dup3\n      mstore\n      0x31\n      dup2\n      mstore\n      0x20\n      add\n      dup1\n      data_b719f220e413600c7e92ed4736b96c6908e0428122610fe965fcc60eefeedbad\n      0x31\n      swap2\n      codecopy\n      0x40\n      add\n      swap2\n      pop\n      pop\n      mload(0x40)\n      dup1\n      swap2\n      sub\n      swap1\n      revert\n    tag_113:\n        /* \"LuckyMachine.sol\":8357:8361  true */\n      0x01\n        /* \"LuckyMachine.sol\":8346:8347  g */\n      dup2\n        /* \"LuckyMachine.sol\":8346:8354  g.played */\n      0x05\n      add\n      0x00\n        /* \"LuckyMachine.sol\":8346:8361  g.played = true */\n      0x0100\n      exp\n      dup2\n      sload\n      dup2\n      0xff\n      mul\n      not\n      and\n      swap1\n      dup4\n      iszero\n      iszero\n      mul\n      or\n      swap1\n      sstore\n      pop\n        /* \"LuckyMachine.sol\":8391:8392  g */\n      dup1\n        /* \"LuckyMachine.sol\":8391:8396  g.bet */\n      0x02\n      add\n      sload\n        /* \"LuckyMachine.sol\":8374:8387  _unplayedBets */\n      sload(0x09)\n        /* \"LuckyMachine.sol\":8374:8396  _unplayedBets >= g.bet */\n      lt\n        /* \"LuckyMachine.sol\":8371:8493  if(_unplayedBets >= g.bet) {... */\n      tag_114\n      jumpi\n        /* \"LuckyMachine.sol\":8429:8430  g */\n      dup1\n        /* \"LuckyMachine.sol\":8429:8434  g.bet */\n      0x02\n      add\n      sload\n        /* \"LuckyMachine.sol\":8412:8425  _unplayedBets */\n      0x09\n      0x00\n        /* \"LuckyMachine.sol\":8412:8434  _unplayedBets -= g.bet */\n      dup3\n      dup3\n      sload\n      sub\n      swap3\n      pop\n      pop\n      dup2\n      swap1\n      sstore\n      pop\n        /* \"LuckyMachine.sol\":8371:8493  if(_unplayedBets >= g.bet) {... */\n      jump(tag_115)\n    tag_114:\n        /* \"LuckyMachine.sol\":8481:8482  0 */\n      0x00\n        /* \"LuckyMachine.sol\":8465:8478  _unplayedBets */\n      0x09\n        /* \"LuckyMachine.sol\":8465:8482  _unplayedBets = 0 */\n      dup2\n      swap1\n      sstore\n      pop\n        /* \"LuckyMachine.sol\":8371:8493  if(_unplayedBets >= g.bet) {... */\n    tag_115:\n        /* \"LuckyMachine.sol\":8502:8503  g */\n      dup1\n        /* \"LuckyMachine.sol\":8502:8510  g.player */\n      0x01\n      add\n      0x00\n      swap1\n      sload\n      swap1\n      0x0100\n      exp\n      swap1\n      div\n      0xffffffffffffffffffffffffffffffffffffffff\n      and\n        /* \"LuckyMachine.sol\":8502:8519  g.player.transfer */\n      0xffffffffffffffffffffffffffffffffffffffff\n      and\n        /* \"LuckyMachine.sol\":8502:8526  g.player.transfer(g.bet) */\n      0x08fc\n        /* \"LuckyMachine.sol\":8520:8521  g */\n      dup3\n        /* \"LuckyMachine.sol\":8520:8525  g.bet */\n      0x02\n      add\n      sload\n        /* \"LuckyMachine.sol\":8502:8526  g.player.transfer(g.bet) */\n      swap1\n      dup2\n      iszero\n      mul\n      swap1\n      mload(0x40)\n      0x00\n      mload(0x40)\n      dup1\n      dup4\n      sub\n      dup2\n      dup6\n      dup9\n      dup9\n      call\n      swap4\n      pop\n      pop\n      pop\n      pop\n      iszero\n        /* \"--CODEGEN--\":8:17   */\n      dup1\n        /* \"--CODEGEN--\":5:7   */\n      iszero\n      tag_117\n      jumpi\n        /* \"--CODEGEN--\":45:61   */\n      returndatasize\n        /* \"--CODEGEN--\":42:43   */\n      0x00\n        /* \"--CODEGEN--\":39:40   */\n      dup1\n        /* \"--CODEGEN--\":24:62   */\n      returndatacopy\n        /* \"--CODEGEN--\":77:93   */\n      returndatasize\n        /* \"--CODEGEN--\":74:75   */\n      0x00\n        /* \"--CODEGEN--\":67:94   */\n      revert\n        /* \"--CODEGEN--\":5:7   */\n    tag_117:\n        /* \"LuckyMachine.sol\":8502:8526  g.player.transfer(g.bet) */\n      pop\n        /* \"LuckyMachine.sol\":8070:8533  function requestRefund(uint gameID) public{... */\n      pop\n      pop\n      jump\t// out\n        /* \"LuckyMachine.sol\":7040:7248  function getRandomNumber(uint256 seed) public returns (bytes32 requestId) {... */\n    tag_86:\n        /* \"LuckyMachine.sol\":7095:7112  bytes32 requestId */\n      0x00\n        /* \"LuckyMachine.sol\":7164:7167  fee */\n      sload(0x05)\n        /* \"LuckyMachine.sol\":7132:7136  LINK */\n      0x00\n      dup1\n      swap1\n      sload\n      swap1\n      0x0100\n      exp\n      swap1\n      div\n      0xffffffffffffffffffffffffffffffffffffffff\n      and\n        /* \"LuckyMachine.sol\":7132:7146  LINK.balanceOf */\n      0xffffffffffffffffffffffffffffffffffffffff\n      and\n      0x70a08231\n        /* \"LuckyMachine.sol\":7155:7159  this */\n      address\n        /* \"LuckyMachine.sol\":7132:7161  LINK.balanceOf(address(this)) */\n      mload(0x40)\n      dup3\n      0xffffffff\n      and\n      0xe0\n      shl\n      dup2\n      mstore\n      0x04\n      add\n      dup1\n      dup3\n      0xffffffffffffffffffffffffffffffffffffffff\n      and\n      0xffffffffffffffffffffffffffffffffffffffff\n      and\n      dup2\n      mstore\n      0x20\n      add\n      swap2\n      pop\n      pop\n      0x20\n      mload(0x40)\n      dup1\n      dup4\n      sub\n      dup2\n      dup7\n      dup1\n      extcodesize\n      iszero\n        /* \"--CODEGEN--\":8:17   */\n      dup1\n        /* \"--CODEGEN--\":5:7   */\n      iszero\n      tag_119\n      jumpi\n        /* \"--CODEGEN--\":30:31   */\n      0x00\n        /* \"--CODEGEN--\":27:28   */\n      dup1\n        /* \"--CODEGEN--\":20:32   */\n      revert\n        /* \"--CODEGEN--\":5:7   */\n    tag_119:\n        /* \"LuckyMachine.sol\":7132:7161  LINK.balanceOf(address(this)) */\n      pop\n      gas\n      staticcall\n      iszero\n        /* \"--CODEGEN--\":8:17   */\n      dup1\n        /* \"--CODEGEN--\":5:7   */\n      iszero\n      tag_121\n      jumpi\n        /* \"--CODEGEN--\":45:61   */\n      returndatasize\n        /* \"--CODEGEN--\":42:43   */\n      0x00\n        /* \"--CODEGEN--\":39:40   */\n      dup1\n        /* \"--CODEGEN--\":24:62   */\n      returndatacopy\n        /* \"--CODEGEN--\":77:93   */\n      returndatasize\n        /* \"--CODEGEN--\":74:75   */\n      0x00\n        /* \"--CODEGEN--\":67:94   */\n      revert\n        /* \"--CODEGEN--\":5:7   */\n    tag_121:\n        /* \"LuckyMachine.sol\":7132:7161  LINK.balanceOf(address(this)) */\n      pop\n      pop\n      pop\n      pop\n      mload(0x40)\n      returndatasize\n        /* \"--CODEGEN--\":13:15   */\n      0x20\n        /* \"--CODEGEN--\":8:11   */\n      dup2\n        /* \"--CODEGEN--\":5:16   */\n      lt\n        /* \"--CODEGEN--\":2:4   */\n      iszero\n      tag_122\n      jumpi\n        /* \"--CODEGEN--\":29:30   */\n      0x00\n        /* \"--CODEGEN--\":26:27   */\n      dup1\n        /* \"--CODEGEN--\":19:31   */\n      revert\n        /* \"--CODEGEN--\":2:4   */\n    tag_122:\n        /* \"LuckyMachine.sol\":7132:7161  LINK.balanceOf(address(this)) */\n      dup2\n      add\n      swap1\n      dup1\n      dup1\n      mload\n      swap1\n      0x20\n      add\n      swap1\n      swap3\n      swap2\n      swap1\n      pop\n      pop\n      pop\n        /* \"LuckyMachine.sol\":7132:7167  LINK.balanceOf(address(this)) > fee */\n      gt\n        /* \"LuckyMachine.sol\":7124:7187  require(LINK.balanceOf(address(this)) > fee, \"Not enough LINK\") */\n      tag_123\n      jumpi\n      mload(0x40)\n      0x08c379a000000000000000000000000000000000000000000000000000000000\n      dup2\n      mstore\n      0x04\n      add\n      dup1\n      dup1\n      0x20\n      add\n      dup3\n      dup2\n      sub\n      dup3\n      mstore\n      0x0f\n      dup2\n      mstore\n      0x20\n      add\n      dup1\n      0x4e6f7420656e6f756768204c494e4b0000000000000000000000000000000000\n      dup2\n      mstore\n      pop\n      0x20\n      add\n      swap2\n      pop\n      pop\n      mload(0x40)\n      dup1\n      swap2\n      sub\n      swap1\n      revert\n    tag_123:\n        /* \"LuckyMachine.sol\":7204:7241  requestRandomness(keyHash, fee, seed) */\n      tag_124\n        /* \"LuckyMachine.sol\":7222:7229  keyHash */\n      sload(0x04)\n        /* \"LuckyMachine.sol\":7231:7234  fee */\n      sload(0x05)\n        /* \"LuckyMachine.sol\":7236:7240  seed */\n      dup5\n        /* \"LuckyMachine.sol\":7204:7221  requestRandomness */\n      tag_125\n        /* \"LuckyMachine.sol\":7204:7241  requestRandomness(keyHash, fee, seed) */\n      jump\t// in\n    tag_124:\n        /* \"LuckyMachine.sol\":7197:7241  return requestRandomness(keyHash, fee, seed) */\n      swap1\n      pop\n        /* \"LuckyMachine.sol\":7040:7248  function getRandomNumber(uint256 seed) public returns (bytes32 requestId) {... */\n      swap2\n      swap1\n      pop\n      jump\t// out\n        /* \"LuckyMachine.sol\":8859:9457  function closeMachine() public {... */\n    tag_89:\n        /* \"LuckyMachine.sol\":8980:8993  _unplayedBets */\n      sload(0x09)\n        /* \"LuckyMachine.sol\":8956:8977  address(this).balance */\n      selfbalance\n        /* \"LuckyMachine.sol\":8956:8993  address(this).balance > _unplayedBets */\n      gt\n        /* \"LuckyMachine.sol\":8947:8994  require (address(this).balance > _unplayedBets) */\n      tag_127\n      jumpi\n      0x00\n      dup1\n      revert\n    tag_127:\n        /* \"LuckyMachine.sol\":9204:9233  uint availableContractBalance */\n      0x00\n        /* \"LuckyMachine.sol\":9260:9273  _unplayedBets */\n      sload(0x09)\n        /* \"LuckyMachine.sol\":9236:9257  address(this).balance */\n      selfbalance\n        /* \"LuckyMachine.sol\":9236:9273  address(this).balance - _unplayedBets */\n      sub\n        /* \"LuckyMachine.sol\":9204:9273  uint availableContractBalance = address(this).balance - _unplayedBets */\n      swap1\n      pop\n        /* \"LuckyMachine.sol\":9283:9288  owner */\n      0x03\n      0x00\n      swap1\n      sload\n      swap1\n      0x0100\n      exp\n      swap1\n      div\n      0xffffffffffffffffffffffffffffffffffffffff\n      and\n        /* \"LuckyMachine.sol\":9283:9297  owner.transfer */\n      0xffffffffffffffffffffffffffffffffffffffff\n      and\n        /* \"LuckyMachine.sol\":9283:9323  owner.transfer(availableContractBalance) */\n      0x08fc\n        /* \"LuckyMachine.sol\":9298:9322  availableContractBalance */\n      dup3\n        /* \"LuckyMachine.sol\":9283:9323  owner.transfer(availableContractBalance) */\n      swap1\n      dup2\n      iszero\n      mul\n      swap1\n      mload(0x40)\n      0x00\n      mload(0x40)\n      dup1\n      dup4\n      sub\n      dup2\n      dup6\n      dup9\n      dup9\n      call\n      swap4\n      pop\n      pop\n      pop\n      pop\n      iszero\n        /* \"--CODEGEN--\":8:17   */\n      dup1\n        /* \"--CODEGEN--\":5:7   */\n      iszero\n      tag_129\n      jumpi\n        /* \"--CODEGEN--\":45:61   */\n      returndatasize\n        /* \"--CODEGEN--\":42:43   */\n      0x00\n        /* \"--CODEGEN--\":39:40   */\n      dup1\n        /* \"--CODEGEN--\":24:62   */\n      returndatacopy\n        /* \"--CODEGEN--\":77:93   */\n      returndatasize\n        /* \"--CODEGEN--\":74:75   */\n      0x00\n        /* \"--CODEGEN--\":67:94   */\n      revert\n        /* \"--CODEGEN--\":5:7   */\n    tag_129:\n        /* \"LuckyMachine.sol\":9283:9323  owner.transfer(availableContractBalance) */\n      pop\n        /* \"LuckyMachine.sol\":9370:9371  0 */\n      0x00\n        /* \"LuckyMachine.sol\":9338:9342  LINK */\n      dup1\n      0x00\n      swap1\n      sload\n      swap1\n      0x0100\n      exp\n      swap1\n      div\n      0xffffffffffffffffffffffffffffffffffffffff\n      and\n        /* \"LuckyMachine.sol\":9338:9352  LINK.balanceOf */\n      0xffffffffffffffffffffffffffffffffffffffff\n      and\n      0x70a08231\n        /* \"LuckyMachine.sol\":9361:9365  this */\n      address\n        /* \"LuckyMachine.sol\":9338:9367  LINK.balanceOf(address(this)) */\n      mload(0x40)\n      dup3\n      0xffffffff\n      and\n      0xe0\n      shl\n      dup2\n      mstore\n      0x04\n      add\n      dup1\n      dup3\n      0xffffffffffffffffffffffffffffffffffffffff\n      and\n      0xffffffffffffffffffffffffffffffffffffffff\n      and\n      dup2\n      mstore\n      0x20\n      add\n      swap2\n      pop\n      pop\n      0x20\n      mload(0x40)\n      dup1\n      dup4\n      sub\n      dup2\n      dup7\n      dup1\n      extcodesize\n      iszero\n        /* \"--CODEGEN--\":8:17   */\n      dup1\n        /* \"--CODEGEN--\":5:7   */\n      iszero\n      tag_130\n      jumpi\n        /* \"--CODEGEN--\":30:31   */\n      0x00\n        /* \"--CODEGEN--\":27:28   */\n      dup1\n        /* \"--CODEGEN--\":20:32   */\n      revert\n        /* \"--CODEGEN--\":5:7   */\n    tag_130:\n        /* \"LuckyMachine.sol\":9338:9367  LINK.balanceOf(address(this)) */\n      pop\n      gas\n      staticcall\n      iszero\n        /* \"--CODEGEN--\":8:17   */\n      dup1\n        /* \"--CODEGEN--\":5:7   */\n      iszero\n      tag_132\n      jumpi\n        /* \"--CODEGEN--\":45:61   */\n      returndatasize\n        /* \"--CODEGEN--\":42:43   */\n      0x00\n        /* \"--CODEGEN--\":39:40   */\n      dup1\n        /* \"--CODEGEN--\":24:62   */\n      returndatacopy\n        /* \"--CODEGEN--\":77:93   */\n      returndatasize\n        /* \"--CODEGEN--\":74:75   */\n      0x00\n        /* \"--CODEGEN--\":67:94   */\n      revert\n        /* \"--CODEGEN--\":5:7   */\n    tag_132:\n        /* \"LuckyMachine.sol\":9338:9367  LINK.balanceOf(address(this)) */\n      pop\n      pop\n      pop\n      pop\n      mload(0x40)\n      returndatasize\n        /* \"--CODEGEN--\":13:15   */\n      0x20\n        /* \"--CODEGEN--\":8:11   */\n      dup2\n        /* \"--CODEGEN--\":5:16   */\n      lt\n        /* \"--CODEGEN--\":2:4   */\n      iszero\n      tag_133\n      jumpi\n        /* \"--CODEGEN--\":29:30   */\n      0x00\n        /* \"--CODEGEN--\":26:27   */\n      dup1\n        /* \"--CODEGEN--\":19:31   */\n      revert\n        /* \"--CODEGEN--\":2:4   */\n    tag_133:\n        /* \"LuckyMachine.sol\":9338:9367  LINK.balanceOf(address(this)) */\n      dup2\n      add\n      swap1\n      dup1\n      dup1\n      mload\n      swap1\n      0x20\n      add\n      swap1\n      swap3\n      swap2\n      swap1\n      pop\n      pop\n      pop\n        /* \"LuckyMachine.sol\":9338:9371  LINK.balanceOf(address(this)) > 0 */\n      gt\n        /* \"LuckyMachine.sol\":9334:9449  if (LINK.balanceOf(address(this)) > 0) {... */\n      iszero\n      tag_134\n      jumpi\n        /* \"LuckyMachine.sol\":9387:9391  LINK */\n      0x00\n      dup1\n      swap1\n      sload\n      swap1\n      0x0100\n      exp\n      swap1\n      div\n      0xffffffffffffffffffffffffffffffffffffffff\n      and\n        /* \"LuckyMachine.sol\":9387:9400  LINK.transfer */\n      0xffffffffffffffffffffffffffffffffffffffff\n      and\n      0xa9059cbb\n        /* \"LuckyMachine.sol\":9401:9406  owner */\n      0x03\n      0x00\n      swap1\n      sload\n      swap1\n      0x0100\n      exp\n      swap1\n      div\n      0xffffffffffffffffffffffffffffffffffffffff\n      and\n        /* \"LuckyMachine.sol\":9408:9412  LINK */\n      0x00\n      dup1\n      swap1\n      sload\n      swap1\n      0x0100\n      exp\n      swap1\n      div\n      0xffffffffffffffffffffffffffffffffffffffff\n      and\n        /* \"LuckyMachine.sol\":9408:9422  LINK.balanceOf */\n      0xffffffffffffffffffffffffffffffffffffffff\n      and\n      0x70a08231\n        /* \"LuckyMachine.sol\":9431:9435  this */\n      address\n        /* \"LuckyMachine.sol\":9408:9437  LINK.balanceOf(address(this)) */\n      mload(0x40)\n      dup3\n      0xffffffff\n      and\n      0xe0\n      shl\n      dup2\n      mstore\n      0x04\n      add\n      dup1\n      dup3\n      0xffffffffffffffffffffffffffffffffffffffff\n      and\n      0xffffffffffffffffffffffffffffffffffffffff\n      and\n      dup2\n      mstore\n      0x20\n      add\n      swap2\n      pop\n      pop\n      0x20\n      mload(0x40)\n      dup1\n      dup4\n      sub\n      dup2\n      dup7\n      dup1\n      extcodesize\n      iszero\n        /* \"--CODEGEN--\":8:17   */\n      dup1\n        /* \"--CODEGEN--\":5:7   */\n      iszero\n      tag_135\n      jumpi\n        /* \"--CODEGEN--\":30:31   */\n      0x00\n        /* \"--CODEGEN--\":27:28   */\n      dup1\n        /* \"--CODEGEN--\":20:32   */\n      revert\n        /* \"--CODEGEN--\":5:7   */\n    tag_135:\n        /* \"LuckyMachine.sol\":9408:9437  LINK.balanceOf(address(this)) */\n      pop\n      gas\n      staticcall\n      iszero\n        /* \"--CODEGEN--\":8:17   */\n      dup1\n        /* \"--CODEGEN--\":5:7   */\n      iszero\n      tag_137\n      jumpi\n        /* \"--CODEGEN--\":45:61   */\n      returndatasize\n        /* \"--CODEGEN--\":42:43   */\n      0x00\n        /* \"--CODEGEN--\":39:40   */\n      dup1\n        /* \"--CODEGEN--\":24:62   */\n      returndatacopy\n        /* \"--CODEGEN--\":77:93   */\n      returndatasize\n        /* \"--CODEGEN--\":74:75   */\n      0x00\n        /* \"--CODEGEN--\":67:94   */\n      revert\n        /* \"--CODEGEN--\":5:7   */\n    tag_137:\n        /* \"LuckyMachine.sol\":9408:9437  LINK.balanceOf(address(this)) */\n      pop\n      pop\n      pop\n      pop\n      mload(0x40)\n      returndatasize\n        /* \"--CODEGEN--\":13:15   */\n      0x20\n        /* \"--CODEGEN--\":8:11   */\n      dup2\n        /* \"--CODEGEN--\":5:16   */\n      lt\n        /* \"--CODEGEN--\":2:4   */\n      iszero\n      tag_138\n      jumpi\n        /* \"--CODEGEN--\":29:30   */\n      0x00\n        /* \"--CODEGEN--\":26:27   */\n      dup1\n        /* \"--CODEGEN--\":19:31   */\n      revert\n        /* \"--CODEGEN--\":2:4   */\n    tag_138:\n        /* \"LuckyMachine.sol\":9408:9437  LINK.balanceOf(address(this)) */\n      dup2\n      add\n      swap1\n      dup1\n      dup1\n      mload\n      swap1\n      0x20\n      add\n      swap1\n      swap3\n      swap2\n      swap1\n      pop\n      pop\n      pop\n        /* \"LuckyMachine.sol\":9387:9438  LINK.transfer(owner, LINK.balanceOf(address(this))) */\n      mload(0x40)\n      dup4\n      0xffffffff\n      and\n      0xe0\n      shl\n      dup2\n      mstore\n      0x04\n      add\n      dup1\n      dup4\n      0xffffffffffffffffffffffffffffffffffffffff\n      and\n      0xffffffffffffffffffffffffffffffffffffffff\n      and\n      dup2\n      mstore\n      0x20\n      add\n      dup3\n      dup2\n      mstore\n      0x20\n      add\n      swap3\n      pop\n      pop\n      pop\n      0x20\n      mload(0x40)\n      dup1\n      dup4\n      sub\n      dup2\n      0x00\n      dup8\n      dup1\n      extcodesize\n      iszero\n        /* \"--CODEGEN--\":8:17   */\n      dup1\n        /* \"--CODEGEN--\":5:7   */\n      iszero\n      tag_139\n      jumpi\n        /* \"--CODEGEN--\":30:31   */\n      0x00\n        /* \"--CODEGEN--\":27:28   */\n      dup1\n        /* \"--CODEGEN--\":20:32   */\n      revert\n        /* \"--CODEGEN--\":5:7   */\n    tag_139:\n        /* \"LuckyMachine.sol\":9387:9438  LINK.transfer(owner, LINK.balanceOf(address(this))) */\n      pop\n      gas\n      call\n      iszero\n        /* \"--CODEGEN--\":8:17   */\n      dup1\n        /* \"--CODEGEN--\":5:7   */\n      iszero\n      tag_141\n      jumpi\n        /* \"--CODEGEN--\":45:61   */\n      returndatasize\n        /* \"--CODEGEN--\":42:43   */\n      0x00\n        /* \"--CODEGEN--\":39:40   */\n      dup1\n        /* \"--CODEGEN--\":24:62   */\n      returndatacopy\n        /* \"--CODEGEN--\":77:93   */\n      returndatasize\n        /* \"--CODEGEN--\":74:75   */\n      0x00\n        /* \"--CODEGEN--\":67:94   */\n      revert\n        /* \"--CODEGEN--\":5:7   */\n    tag_141:\n        /* \"LuckyMachine.sol\":9387:9438  LINK.transfer(owner, LINK.balanceOf(address(this))) */\n      pop\n      pop\n      pop\n      pop\n      mload(0x40)\n      returndatasize\n        /* \"--CODEGEN--\":13:15   */\n      0x20\n        /* \"--CODEGEN--\":8:11   */\n      dup2\n        /* \"--CODEGEN--\":5:16   */\n      lt\n        /* \"--CODEGEN--\":2:4   */\n      iszero\n      tag_142\n      jumpi\n        /* \"--CODEGEN--\":29:30   */\n      0x00\n        /* \"--CODEGEN--\":26:27   */\n      dup1\n        /* \"--CODEGEN--\":19:31   */\n      revert\n        /* \"--CODEGEN--\":2:4   */\n    tag_142:\n        /* \"LuckyMachine.sol\":9387:9438  LINK.transfer(owner, LINK.balanceOf(address(this))) */\n      dup2\n      add\n      swap1\n      dup1\n      dup1\n      mload\n      swap1\n      0x20\n      add\n      swap1\n      swap3\n      swap2\n      swap1\n      pop\n      pop\n      pop\n      pop\n        /* \"LuckyMachine.sol\":9334:9449  if (LINK.balanceOf(address(this)) > 0) {... */\n    tag_134:\n        /* \"LuckyMachine.sol\":8859:9457  function closeMachine() public {... */\n      pop\n      jump\t// out\n        /* \"LuckyMachine.sol\":5392:5931  function canPlayGame(uint bet) public view returns(bool){... */\n    tag_93:\n        /* \"LuckyMachine.sol\":5443:5447  bool */\n      0x00\n        /* \"LuckyMachine.sol\":5469:5475  minBet */\n      sload(0x08)\n        /* \"LuckyMachine.sol\":5462:5465  bet */\n      dup3\n        /* \"LuckyMachine.sol\":5462:5475  bet >= minBet */\n      lt\n      iszero\n        /* \"LuckyMachine.sol\":5462:5492  bet >= minBet && bet <= maxBet */\n      dup1\n      iszero\n      tag_144\n      jumpi\n      pop\n        /* \"LuckyMachine.sol\":5486:5492  maxBet */\n      sload(0x07)\n        /* \"LuckyMachine.sol\":5479:5482  bet */\n      dup3\n        /* \"LuckyMachine.sol\":5479:5492  bet <= maxBet */\n      gt\n      iszero\n        /* \"LuckyMachine.sol\":5462:5492  bet >= minBet && bet <= maxBet */\n    tag_144:\n        /* \"LuckyMachine.sol\":5462:5559  bet >= minBet && bet <= maxBet && (address(this).balance - _unplayedBets) >= ((bet * payout)+bet) */\n      dup1\n      iszero\n      tag_145\n      jumpi\n      pop\n        /* \"LuckyMachine.sol\":5555:5558  bet */\n      dup2\n        /* \"LuckyMachine.sol\":5547:5553  payout */\n      sload(0x0b)\n        /* \"LuckyMachine.sol\":5541:5544  bet */\n      dup4\n        /* \"LuckyMachine.sol\":5541:5553  bet * payout */\n      mul\n        /* \"LuckyMachine.sol\":5540:5558  (bet * payout)+bet */\n      add\n        /* \"LuckyMachine.sol\":5521:5534  _unplayedBets */\n      sload(0x09)\n        /* \"LuckyMachine.sol\":5497:5518  address(this).balance */\n      selfbalance\n        /* \"LuckyMachine.sol\":5497:5534  address(this).balance - _unplayedBets */\n      sub\n        /* \"LuckyMachine.sol\":5496:5559  (address(this).balance - _unplayedBets) >= ((bet * payout)+bet) */\n      lt\n      iszero\n        /* \"LuckyMachine.sol\":5462:5559  bet >= minBet && bet <= maxBet && (address(this).balance - _unplayedBets) >= ((bet * payout)+bet) */\n    tag_145:\n        /* \"LuckyMachine.sol\":5458:5925  if (bet >= minBet && bet <= maxBet && (address(this).balance - _unplayedBets) >= ((bet * payout)+bet)) {... */\n      iszero\n      tag_146\n      jumpi\n        /* \"LuckyMachine.sol\":5867:5871  true */\n      0x01\n        /* \"LuckyMachine.sol\":5860:5871  return true */\n      swap1\n      pop\n      jump(tag_143)\n        /* \"LuckyMachine.sol\":5458:5925  if (bet >= minBet && bet <= maxBet && (address(this).balance - _unplayedBets) >= ((bet * payout)+bet)) {... */\n    tag_146:\n        /* \"LuckyMachine.sol\":5909:5914  false */\n      0x00\n        /* \"LuckyMachine.sol\":5902:5914  return false */\n      swap1\n      pop\n        /* \"LuckyMachine.sol\":5392:5931  function canPlayGame(uint bet) public view returns(bool){... */\n    tag_143:\n      swap2\n      swap1\n      pop\n      jump\t// out\n        /* \"LuckyMachine.sol\":6322:6706  function createGame(address payable _player, uint _bet, uint _pick) internal {... */\n    tag_99:\n        /* \"LuckyMachine.sol\":6409:6421  _currentGame */\n      0x0a\n      0x00\n        /* \"LuckyMachine.sol\":6409:6423  _currentGame++ */\n      dup2\n      sload\n      dup1\n      swap3\n      swap2\n      swap1\n      0x01\n      add\n      swap2\n      swap1\n      pop\n      sstore\n      pop\n        /* \"LuckyMachine.sol\":6433:6452  Game memory newGame */\n      tag_149\n      tag_150\n      jump\t// in\n    tag_149:\n        /* \"LuckyMachine.sol\":6455:6662  Game ({... */\n      mload(0x40)\n      dup1\n      0xc0\n      add\n      0x40\n      mstore\n      dup1\n        /* \"LuckyMachine.sol\":6479:6491  _currentGame */\n      sload(0x0a)\n        /* \"LuckyMachine.sol\":6455:6662  Game ({... */\n      dup2\n      mstore\n      0x20\n      add\n        /* \"LuckyMachine.sol\":6513:6520  _player */\n      dup6\n        /* \"LuckyMachine.sol\":6455:6662  Game ({... */\n      0xffffffffffffffffffffffffffffffffffffffff\n      and\n      dup2\n      mstore\n      0x20\n      add\n        /* \"LuckyMachine.sol\":6539:6543  _bet */\n      dup5\n        /* \"LuckyMachine.sol\":6455:6662  Game ({... */\n      dup2\n      mstore\n      0x20\n      add\n        /* \"LuckyMachine.sol\":6563:6568  _pick */\n      dup4\n        /* \"LuckyMachine.sol\":6455:6662  Game ({... */\n      dup2\n      mstore\n      0x20\n      add\n        /* \"LuckyMachine.sol\":6600:6602  10 */\n      0x0a\n        /* \"LuckyMachine.sol\":6590:6597  maxPick */\n      sload(0x06)\n        /* \"LuckyMachine.sol\":6590:6602  maxPick + 10 */\n      add\n        /* \"LuckyMachine.sol\":6455:6662  Game ({... */\n      dup2\n      mstore\n      0x20\n      add\n        /* \"LuckyMachine.sol\":6646:6651  false */\n      0x00\n        /* \"LuckyMachine.sol\":6455:6662  Game ({... */\n      iszero\n      iszero\n      dup2\n      mstore\n      pop\n        /* \"LuckyMachine.sol\":6433:6662  Game memory newGame = Game ({... */\n      swap1\n      pop\n        /* \"LuckyMachine.sol\":6692:6699  newGame */\n      dup1\n        /* \"LuckyMachine.sol\":6672:6677  games */\n      0x0c\n        /* \"LuckyMachine.sol\":6672:6689  games[newGame.id] */\n      0x00\n        /* \"LuckyMachine.sol\":6678:6685  newGame */\n      dup4\n        /* \"LuckyMachine.sol\":6678:6688  newGame.id */\n      0x00\n      add\n      mload\n        /* \"LuckyMachine.sol\":6672:6689  games[newGame.id] */\n      dup2\n      mstore\n      0x20\n      add\n      swap1\n      dup2\n      mstore\n      0x20\n      add\n      0x00\n      keccak256\n        /* \"LuckyMachine.sol\":6672:6699  games[newGame.id] = newGame */\n      0x00\n      dup3\n      add\n      mload\n      dup2\n      0x00\n      add\n      sstore\n      0x20\n      dup3\n      add\n      mload\n      dup2\n      0x01\n      add\n      exp(0x0100, 0x00)\n      dup2\n      sload\n      dup2\n      0xffffffffffffffffffffffffffffffffffffffff\n      mul\n      not\n      and\n      swap1\n      dup4\n      0xffffffffffffffffffffffffffffffffffffffff\n      and\n      mul\n      or\n      swap1\n      sstore\n      pop\n      0x40\n      dup3\n      add\n      mload\n      dup2\n      0x02\n      add\n      sstore\n      0x60\n      dup3\n      add\n      mload\n      dup2\n      0x03\n      add\n      sstore\n      0x80\n      dup3\n      add\n      mload\n      dup2\n      0x04\n      add\n      sstore\n      0xa0\n      dup3\n      add\n      mload\n      dup2\n      0x05\n      add\n      exp(0x0100, 0x00)\n      dup2\n      sload\n      dup2\n      0xff\n      mul\n      not\n      and\n      swap1\n      dup4\n      iszero\n      iszero\n      mul\n      or\n      swap1\n      sstore\n      pop\n      swap1\n      pop\n      pop\n        /* \"LuckyMachine.sol\":6322:6706  function createGame(address payable _player, uint _bet, uint _pick) internal {... */\n      pop\n      pop\n      pop\n      pop\n      jump\t// out\n        /* \"LuckyMachine.sol\":7254:8064  function fulfillRandomness(bytes32 requestId, uint256 randomness) internal override {... */\n    tag_110:\n        /* \"LuckyMachine.sol\":7385:7399  Game storage g */\n      0x00\n        /* \"LuckyMachine.sol\":7402:7407  games */\n      0x0c\n        /* \"LuckyMachine.sol\":7402:7432  games[_gameRequsts[requestId]] */\n      0x00\n        /* \"LuckyMachine.sol\":7408:7420  _gameRequsts */\n      0x0d\n        /* \"LuckyMachine.sol\":7408:7431  _gameRequsts[requestId] */\n      0x00\n        /* \"LuckyMachine.sol\":7421:7430  requestId */\n      dup7\n        /* \"LuckyMachine.sol\":7408:7431  _gameRequsts[requestId] */\n      dup2\n      mstore\n      0x20\n      add\n      swap1\n      dup2\n      mstore\n      0x20\n      add\n      0x00\n      keccak256\n      sload\n        /* \"LuckyMachine.sol\":7402:7432  games[_gameRequsts[requestId]] */\n      dup2\n      mstore\n      0x20\n      add\n      swap1\n      dup2\n      mstore\n      0x20\n      add\n      0x00\n      keccak256\n        /* \"LuckyMachine.sol\":7385:7432  Game storage g = games[_gameRequsts[requestId]] */\n      swap1\n      pop\n        /* \"LuckyMachine.sol\":7442:7458  uint totalPayout */\n      0x00\n        /* \"LuckyMachine.sol\":7481:7482  g */\n      dup2\n        /* \"LuckyMachine.sol\":7481:7486  g.bet */\n      0x02\n      add\n      sload\n        /* \"LuckyMachine.sol\":7471:7477  payout */\n      sload(0x0b)\n        /* \"LuckyMachine.sol\":7463:7464  g */\n      dup4\n        /* \"LuckyMachine.sol\":7463:7468  g.bet */\n      0x02\n      add\n      sload\n        /* \"LuckyMachine.sol\":7463:7477  g.bet * payout */\n      mul\n        /* \"LuckyMachine.sol\":7462:7486  (g.bet * payout) + g.bet */\n      add\n        /* \"LuckyMachine.sol\":7442:7487  uint totalPayout = ((g.bet * payout) + g.bet) */\n      swap1\n      pop\n        /* \"LuckyMachine.sol\":7530:7541  totalPayout */\n      dup1\n        /* \"LuckyMachine.sol\":7505:7526  address(this).balance */\n      selfbalance\n        /* \"LuckyMachine.sol\":7505:7541  address(this).balance >= totalPayout */\n      lt\n      iszero\n        /* \"LuckyMachine.sol\":7497:7597  require(address(this).balance >= totalPayout, \"Unable to pay. Please play again or request refund.\") */\n      tag_152\n      jumpi\n      mload(0x40)\n      0x08c379a000000000000000000000000000000000000000000000000000000000\n      dup2\n      mstore\n      0x04\n      add\n      dup1\n      dup1\n      0x20\n      add\n      dup3\n      dup2\n      sub\n      dup3\n      mstore\n      0x33\n      dup2\n      mstore\n      0x20\n      add\n      dup1\n      data_ef92889bcd3368ac0e5c94a5c325c5cf21da03eb1576ee7d446327960d5fae81\n      0x33\n      swap2\n      codecopy\n      0x40\n      add\n      swap2\n      pop\n      pop\n      mload(0x40)\n      dup1\n      swap2\n      sub\n      swap1\n      revert\n    tag_152:\n        /* \"LuckyMachine.sol\":7685:7686  1 */\n      0x01\n        /* \"LuckyMachine.sol\":7675:7682  maxPick */\n      sload(0x06)\n        /* \"LuckyMachine.sol\":7675:7686  maxPick + 1 */\n      add\n        /* \"LuckyMachine.sol\":7661:7671  randomness */\n      dup4\n        /* \"LuckyMachine.sol\":7661:7687  randomness % (maxPick + 1) */\n      dup2\n      tag_153\n      jumpi\n      invalid\n    tag_153:\n      mod\n        /* \"LuckyMachine.sol\":7650:7651  g */\n      dup3\n        /* \"LuckyMachine.sol\":7650:7658  g.winner */\n      0x04\n      add\n        /* \"LuckyMachine.sol\":7650:7687  g.winner = randomness % (maxPick + 1) */\n      dup2\n      swap1\n      sstore\n      pop\n        /* \"LuckyMachine.sol\":7739:7743  true */\n      0x01\n        /* \"LuckyMachine.sol\":7728:7729  g */\n      dup3\n        /* \"LuckyMachine.sol\":7728:7736  g.played */\n      0x05\n      add\n      0x00\n        /* \"LuckyMachine.sol\":7728:7743  g.played = true */\n      0x0100\n      exp\n      dup2\n      sload\n      dup2\n      0xff\n      mul\n      not\n      and\n      swap1\n      dup4\n      iszero\n      iszero\n      mul\n      or\n      swap1\n      sstore\n      pop\n        /* \"LuckyMachine.sol\":7811:7812  g */\n      dup2\n        /* \"LuckyMachine.sol\":7811:7816  g.bet */\n      0x02\n      add\n      sload\n        /* \"LuckyMachine.sol\":7794:7807  _unplayedBets */\n      sload(0x09)\n        /* \"LuckyMachine.sol\":7794:7816  _unplayedBets >= g.bet */\n      lt\n        /* \"LuckyMachine.sol\":7791:7913  if(_unplayedBets >= g.bet) {... */\n      tag_154\n      jumpi\n        /* \"LuckyMachine.sol\":7849:7850  g */\n      dup2\n        /* \"LuckyMachine.sol\":7849:7854  g.bet */\n      0x02\n      add\n      sload\n        /* \"LuckyMachine.sol\":7832:7845  _unplayedBets */\n      0x09\n      0x00\n        /* \"LuckyMachine.sol\":7832:7854  _unplayedBets -= g.bet */\n      dup3\n      dup3\n      sload\n      sub\n      swap3\n      pop\n      pop\n      dup2\n      swap1\n      sstore\n      pop\n        /* \"LuckyMachine.sol\":7791:7913  if(_unplayedBets >= g.bet) {... */\n      jump(tag_155)\n    tag_154:\n        /* \"LuckyMachine.sol\":7901:7902  0 */\n      0x00\n        /* \"LuckyMachine.sol\":7885:7898  _unplayedBets */\n      0x09\n        /* \"LuckyMachine.sol\":7885:7902  _unplayedBets = 0 */\n      dup2\n      swap1\n      sstore\n      pop\n        /* \"LuckyMachine.sol\":7791:7913  if(_unplayedBets >= g.bet) {... */\n    tag_155:\n        /* \"LuckyMachine.sol\":7993:7994  g */\n      dup2\n        /* \"LuckyMachine.sol\":7993:8001  g.winner */\n      0x04\n      add\n      sload\n        /* \"LuckyMachine.sol\":7983:7984  g */\n      dup3\n        /* \"LuckyMachine.sol\":7983:7989  g.pick */\n      0x03\n      add\n      sload\n        /* \"LuckyMachine.sol\":7983:8001  g.pick == g.winner */\n      eq\n        /* \"LuckyMachine.sol\":7979:8058  if (g.pick == g.winner) {... */\n      iszero\n      tag_156\n      jumpi\n        /* \"LuckyMachine.sol\":8017:8018  g */\n      dup2\n        /* \"LuckyMachine.sol\":8017:8025  g.player */\n      0x01\n      add\n      0x00\n      swap1\n      sload\n      swap1\n      0x0100\n      exp\n      swap1\n      div\n      0xffffffffffffffffffffffffffffffffffffffff\n      and\n        /* \"LuckyMachine.sol\":8017:8034  g.player.transfer */\n      0xffffffffffffffffffffffffffffffffffffffff\n      and\n        /* \"LuckyMachine.sol\":8017:8047  g.player.transfer(totalPayout) */\n      0x08fc\n        /* \"LuckyMachine.sol\":8035:8046  totalPayout */\n      dup3\n        /* \"LuckyMachine.sol\":8017:8047  g.player.transfer(totalPayout) */\n      swap1\n      dup2\n      iszero\n      mul\n      swap1\n      mload(0x40)\n      0x00\n      mload(0x40)\n      dup1\n      dup4\n      sub\n      dup2\n      dup6\n      dup9\n      dup9\n      call\n      swap4\n      pop\n      pop\n      pop\n      pop\n      iszero\n        /* \"--CODEGEN--\":8:17   */\n      dup1\n        /* \"--CODEGEN--\":5:7   */\n      iszero\n      tag_158\n      jumpi\n        /* \"--CODEGEN--\":45:61   */\n      returndatasize\n        /* \"--CODEGEN--\":42:43   */\n      0x00\n        /* \"--CODEGEN--\":39:40   */\n      dup1\n        /* \"--CODEGEN--\":24:62   */\n      returndatacopy\n        /* \"--CODEGEN--\":77:93   */\n      returndatasize\n        /* \"--CODEGEN--\":74:75   */\n      0x00\n        /* \"--CODEGEN--\":67:94   */\n      revert\n        /* \"--CODEGEN--\":5:7   */\n    tag_158:\n        /* \"LuckyMachine.sol\":8017:8047  g.player.transfer(totalPayout) */\n      pop\n        /* \"LuckyMachine.sol\":7979:8058  if (g.pick == g.winner) {... */\n    tag_156:\n        /* \"LuckyMachine.sol\":7254:8064  function fulfillRandomness(bytes32 requestId, uint256 randomness) internal override {... */\n      pop\n      pop\n      pop\n      pop\n      jump\t// out\n        /* \"LuckyMachine.sol\":2987:3372  function requestRandomness(bytes32 _keyHash, uint256 _fee, uint256 _seed)... */\n    tag_125:\n        /* \"LuckyMachine.sol\":3083:3100  bytes32 requestId */\n      0x00\n        /* \"LuckyMachine.sol\":3110:3114  LINK */\n      dup1\n      0x00\n      swap1\n      sload\n      swap1\n      0x0100\n      exp\n      swap1\n      div\n      0xffffffffffffffffffffffffffffffffffffffff\n      and\n        /* \"LuckyMachine.sol\":3110:3130  LINK.transferAndCall */\n      0xffffffffffffffffffffffffffffffffffffffff\n      and\n      0x4000aea0\n        /* \"LuckyMachine.sol\":3131:3145  vrfCoordinator */\n      0x01\n      0x00\n      swap1\n      sload\n      swap1\n      0x0100\n      exp\n      swap1\n      div\n      0xffffffffffffffffffffffffffffffffffffffff\n      and\n        /* \"LuckyMachine.sol\":3147:3151  _fee */\n      dup6\n        /* \"LuckyMachine.sol\":3164:3172  _keyHash */\n      dup8\n        /* \"LuckyMachine.sol\":3174:3179  _seed */\n      dup7\n        /* \"LuckyMachine.sol\":3153:3180  abi.encode(_keyHash, _seed) */\n      add(0x20, mload(0x40))\n      dup1\n      dup4\n      dup2\n      mstore\n      0x20\n      add\n      dup3\n      dup2\n      mstore\n      0x20\n      add\n      swap3\n      pop\n      pop\n      pop\n      mload(0x40)\n        /* \"--CODEGEN--\":49:53   */\n      0x20\n        /* \"--CODEGEN--\":39:46   */\n      dup2\n        /* \"--CODEGEN--\":30:37   */\n      dup4\n        /* \"--CODEGEN--\":26:47   */\n      sub\n        /* \"--CODEGEN--\":22:54   */\n      sub\n        /* \"--CODEGEN--\":13:20   */\n      dup2\n        /* \"--CODEGEN--\":6:55   */\n      mstore\n        /* \"LuckyMachine.sol\":3153:3180  abi.encode(_keyHash, _seed) */\n      swap1\n      0x40\n      mstore\n        /* \"LuckyMachine.sol\":3110:3181  LINK.transferAndCall(vrfCoordinator, _fee, abi.encode(_keyHash, _seed)) */\n      mload(0x40)\n      dup5\n      0xffffffff\n      and\n      0xe0\n      shl\n      dup2\n      mstore\n      0x04\n      add\n      dup1\n      dup5\n      0xffffffffffffffffffffffffffffffffffffffff\n      and\n      0xffffffffffffffffffffffffffffffffffffffff\n      and\n      dup2\n      mstore\n      0x20\n      add\n      dup4\n      dup2\n      mstore\n      0x20\n      add\n      dup1\n      0x20\n      add\n      dup3\n      dup2\n      sub\n      dup3\n      mstore\n      dup4\n      dup2\n      dup2\n      mload\n      dup2\n      mstore\n      0x20\n      add\n      swap2\n      pop\n      dup1\n      mload\n      swap1\n      0x20\n      add\n      swap1\n      dup1\n      dup4\n      dup4\n        /* \"--CODEGEN--\":23:24   */\n      0x00\n        /* \"--CODEGEN--\":8:108   */\n    tag_160:\n        /* \"--CODEGEN--\":33:36   */\n      dup4\n        /* \"--CODEGEN--\":30:31   */\n      dup2\n        /* \"--CODEGEN--\":27:37   */\n      lt\n        /* \"--CODEGEN--\":8:108   */\n      iszero\n      tag_162\n      jumpi\n        /* \"--CODEGEN--\":99:100   */\n      dup1\n        /* \"--CODEGEN--\":94:97   */\n      dup3\n        /* \"--CODEGEN--\":90:101   */\n      add\n        /* \"--CODEGEN--\":84:102   */\n      mload\n        /* \"--CODEGEN--\":80:81   */\n      dup2\n        /* \"--CODEGEN--\":75:78   */\n      dup5\n        /* \"--CODEGEN--\":71:82   */\n      add\n        /* \"--CODEGEN--\":64:103   */\n      mstore\n        /* \"--CODEGEN--\":52:54   */\n      0x20\n        /* \"--CODEGEN--\":49:50   */\n      dup2\n        /* \"--CODEGEN--\":45:55   */\n      add\n        /* \"--CODEGEN--\":40:55   */\n      swap1\n      pop\n        /* \"--CODEGEN--\":8:108   */\n      jump(tag_160)\n    tag_162:\n        /* \"--CODEGEN--\":12:26   */\n      pop\n        /* \"LuckyMachine.sol\":3110:3181  LINK.transferAndCall(vrfCoordinator, _fee, abi.encode(_keyHash, _seed)) */\n      pop\n      pop\n      pop\n      swap1\n      pop\n      swap1\n      dup2\n      add\n      swap1\n      0x1f\n      and\n      dup1\n      iszero\n      tag_163\n      jumpi\n      dup1\n      dup3\n      sub\n      dup1\n      mload\n      0x01\n      dup4\n      0x20\n      sub\n      0x0100\n      exp\n      sub\n      not\n      and\n      dup2\n      mstore\n      0x20\n      add\n      swap2\n      pop\n    tag_163:\n      pop\n      swap5\n      pop\n      pop\n      pop\n      pop\n      pop\n      0x20\n      mload(0x40)\n      dup1\n      dup4\n      sub\n      dup2\n      0x00\n      dup8\n      dup1\n      extcodesize\n      iszero\n        /* \"--CODEGEN--\":8:17   */\n      dup1\n        /* \"--CODEGEN--\":5:7   */\n      iszero\n      tag_164\n      jumpi\n        /* \"--CODEGEN--\":30:31   */\n      0x00\n        /* \"--CODEGEN--\":27:28   */\n      dup1\n        /* \"--CODEGEN--\":20:32   */\n      revert\n        /* \"--CODEGEN--\":5:7   */\n    tag_164:\n        /* \"LuckyMachine.sol\":3110:3181  LINK.transferAndCall(vrfCoordinator, _fee, abi.encode(_keyHash, _seed)) */\n      pop\n      gas\n      call\n      iszero\n        /* \"--CODEGEN--\":8:17   */\n      dup1\n        /* \"--CODEGEN--\":5:7   */\n      iszero\n      tag_166\n      jumpi\n        /* \"--CODEGEN--\":45:61   */\n      returndatasize\n        /* \"--CODEGEN--\":42:43   */\n      0x00\n        /* \"--CODEGEN--\":39:40   */\n      dup1\n        /* \"--CODEGEN--\":24:62   */\n      returndatacopy\n        /* \"--CODEGEN--\":77:93   */\n      returndatasize\n        /* \"--CODEGEN--\":74:75   */\n      0x00\n        /* \"--CODEGEN--\":67:94   */\n      revert\n        /* \"--CODEGEN--\":5:7   */\n    tag_166:\n        /* \"LuckyMachine.sol\":3110:3181  LINK.transferAndCall(vrfCoordinator, _fee, abi.encode(_keyHash, _seed)) */\n      pop\n      pop\n      pop\n      pop\n      mload(0x40)\n      returndatasize\n        /* \"--CODEGEN--\":13:15   */\n      0x20\n        /* \"--CODEGEN--\":8:11   */\n      dup2\n        /* \"--CODEGEN--\":5:16   */\n      lt\n        /* \"--CODEGEN--\":2:4   */\n      iszero\n      tag_167\n      jumpi\n        /* \"--CODEGEN--\":29:30   */\n      0x00\n        /* \"--CODEGEN--\":26:27   */\n      dup1\n        /* \"--CODEGEN--\":19:31   */\n      revert\n        /* \"--CODEGEN--\":2:4   */\n    tag_167:\n        /* \"LuckyMachine.sol\":3110:3181  LINK.transferAndCall(vrfCoordinator, _fee, abi.encode(_keyHash, _seed)) */\n      dup2\n      add\n      swap1\n      dup1\n      dup1\n      mload\n      swap1\n      0x20\n      add\n      swap1\n      swap3\n      swap2\n      swap1\n      pop\n      pop\n      pop\n      pop\n        /* \"LuckyMachine.sol\":3188:3203  uint256 vRFSeed */\n      0x00\n        /* \"LuckyMachine.sol\":3207:3273  makeVRFInputSeed(_keyHash, _seed, address(this), nonces[_keyHash]) */\n      tag_168\n        /* \"LuckyMachine.sol\":3224:3232  _keyHash */\n      dup6\n        /* \"LuckyMachine.sol\":3234:3239  _seed */\n      dup5\n        /* \"LuckyMachine.sol\":3249:3253  this */\n      address\n        /* \"LuckyMachine.sol\":3256:3262  nonces */\n      0x02\n        /* \"LuckyMachine.sol\":3256:3272  nonces[_keyHash] */\n      0x00\n        /* \"LuckyMachine.sol\":3263:3271  _keyHash */\n      dup11\n        /* \"LuckyMachine.sol\":3256:3272  nonces[_keyHash] */\n      dup2\n      mstore\n      0x20\n      add\n      swap1\n      dup2\n      mstore\n      0x20\n      add\n      0x00\n      keccak256\n      sload\n        /* \"LuckyMachine.sol\":3207:3223  makeVRFInputSeed */\n      tag_169\n        /* \"LuckyMachine.sol\":3207:3273  makeVRFInputSeed(_keyHash, _seed, address(this), nonces[_keyHash]) */\n      jump\t// in\n    tag_168:\n        /* \"LuckyMachine.sol\":3188:3273  uint256 vRFSeed  = makeVRFInputSeed(_keyHash, _seed, address(this), nonces[_keyHash]) */\n      swap1\n      pop\n        /* \"LuckyMachine.sol\":3299:3322  nonces[_keyHash].add(1) */\n      tag_170\n        /* \"LuckyMachine.sol\":3320:3321  1 */\n      0x01\n        /* \"LuckyMachine.sol\":3299:3305  nonces */\n      0x02\n        /* \"LuckyMachine.sol\":3299:3315  nonces[_keyHash] */\n      0x00\n        /* \"LuckyMachine.sol\":3306:3314  _keyHash */\n      dup9\n        /* \"LuckyMachine.sol\":3299:3315  nonces[_keyHash] */\n      dup2\n      mstore\n      0x20\n      add\n      swap1\n      dup2\n      mstore\n      0x20\n      add\n      0x00\n      keccak256\n      sload\n        /* \"LuckyMachine.sol\":3299:3319  nonces[_keyHash].add */\n      tag_171\n      swap1\n        /* \"LuckyMachine.sol\":3299:3322  nonces[_keyHash].add(1) */\n      swap2\n      swap1\n      0xffffffff\n      and\n      jump\t// in\n    tag_170:\n        /* \"LuckyMachine.sol\":3280:3286  nonces */\n      0x02\n        /* \"LuckyMachine.sol\":3280:3296  nonces[_keyHash] */\n      0x00\n        /* \"LuckyMachine.sol\":3287:3295  _keyHash */\n      dup8\n        /* \"LuckyMachine.sol\":3280:3296  nonces[_keyHash] */\n      dup2\n      mstore\n      0x20\n      add\n      swap1\n      dup2\n      mstore\n      0x20\n      add\n      0x00\n      keccak256\n        /* \"LuckyMachine.sol\":3280:3322  nonces[_keyHash] = nonces[_keyHash].add(1) */\n      dup2\n      swap1\n      sstore\n      pop\n        /* \"LuckyMachine.sol\":3335:3367  makeRequestId(_keyHash, vRFSeed) */\n      tag_172\n        /* \"LuckyMachine.sol\":3349:3357  _keyHash */\n      dup6\n        /* \"LuckyMachine.sol\":3359:3366  vRFSeed */\n      dup3\n        /* \"LuckyMachine.sol\":3335:3348  makeRequestId */\n      tag_173\n        /* \"LuckyMachine.sol\":3335:3367  makeRequestId(_keyHash, vRFSeed) */\n      jump\t// in\n    tag_172:\n        /* \"LuckyMachine.sol\":3328:3367  return makeRequestId(_keyHash, vRFSeed) */\n      swap2\n      pop\n      pop\n        /* \"LuckyMachine.sol\":2987:3372  function requestRandomness(bytes32 _keyHash, uint256 _fee, uint256 _seed)... */\n      swap4\n      swap3\n      pop\n      pop\n      pop\n      jump\t// out\n        /* \"LuckyMachine.sol\":1351:1582  function makeVRFInputSeed(bytes32 _keyHash, uint256 _userSeed,... */\n    tag_169:\n        /* \"LuckyMachine.sol\":1481:1488  uint256 */\n      0x00\n        /* \"LuckyMachine.sol\":1535:1543  _keyHash */\n      dup5\n        /* \"LuckyMachine.sol\":1545:1554  _userSeed */\n      dup5\n        /* \"LuckyMachine.sol\":1556:1566  _requester */\n      dup5\n        /* \"LuckyMachine.sol\":1568:1574  _nonce */\n      dup5\n        /* \"LuckyMachine.sol\":1524:1575  abi.encode(_keyHash, _userSeed, _requester, _nonce) */\n      add(0x20, mload(0x40))\n      dup1\n      dup6\n      dup2\n      mstore\n      0x20\n      add\n      dup5\n      dup2\n      mstore\n      0x20\n      add\n      dup4\n      0xffffffffffffffffffffffffffffffffffffffff\n      and\n      0xffffffffffffffffffffffffffffffffffffffff\n      and\n      dup2\n      mstore\n      0x20\n      add\n      dup3\n      dup2\n      mstore\n      0x20\n      add\n      swap5\n      pop\n      pop\n      pop\n      pop\n      pop\n      mload(0x40)\n        /* \"--CODEGEN--\":49:53   */\n      0x20\n        /* \"--CODEGEN--\":39:46   */\n      dup2\n        /* \"--CODEGEN--\":30:37   */\n      dup4\n        /* \"--CODEGEN--\":26:47   */\n      sub\n        /* \"--CODEGEN--\":22:54   */\n      sub\n        /* \"--CODEGEN--\":13:20   */\n      dup2\n        /* \"--CODEGEN--\":6:55   */\n      mstore\n        /* \"LuckyMachine.sol\":1524:1575  abi.encode(_keyHash, _userSeed, _requester, _nonce) */\n      swap1\n      0x40\n      mstore\n        /* \"LuckyMachine.sol\":1514:1576  keccak256(abi.encode(_keyHash, _userSeed, _requester, _nonce)) */\n      dup1\n      mload\n      swap1\n      0x20\n      add\n      keccak256\n        /* \"LuckyMachine.sol\":1506:1577  uint256(keccak256(abi.encode(_keyHash, _userSeed, _requester, _nonce))) */\n      0x00\n      shr\n        /* \"LuckyMachine.sol\":1498:1577  return  uint256(keccak256(abi.encode(_keyHash, _userSeed, _requester, _nonce))) */\n      swap1\n      pop\n        /* \"LuckyMachine.sol\":1351:1582  function makeVRFInputSeed(bytes32 _keyHash, uint256 _userSeed,... */\n      swap5\n      swap4\n      pop\n      pop\n      pop\n      pop\n      jump\t// out\n        /* \"LuckyMachine.sol\":316:478  function add(uint256 a, uint256 b) internal pure returns (uint256) {... */\n    tag_171:\n        /* \"LuckyMachine.sol\":374:381  uint256 */\n      0x00\n        /* \"LuckyMachine.sol\":389:398  uint256 c */\n      dup1\n        /* \"LuckyMachine.sol\":405:406  b */\n      dup3\n        /* \"LuckyMachine.sol\":401:402  a */\n      dup5\n        /* \"LuckyMachine.sol\":401:406  a + b */\n      add\n        /* \"LuckyMachine.sol\":389:406  uint256 c = a + b */\n      swap1\n      pop\n        /* \"LuckyMachine.sol\":425:426  a */\n      dup4\n        /* \"LuckyMachine.sol\":420:421  c */\n      dup2\n        /* \"LuckyMachine.sol\":420:426  c >= a */\n      lt\n      iszero\n        /* \"LuckyMachine.sol\":412:458  require(c >= a, \"SafeMath: addition overflow\") */\n      tag_176\n      jumpi\n      mload(0x40)\n      0x08c379a000000000000000000000000000000000000000000000000000000000\n      dup2\n      mstore\n      0x04\n      add\n      dup1\n      dup1\n      0x20\n      add\n      dup3\n      dup2\n      sub\n      dup3\n      mstore\n      0x1b\n      dup2\n      mstore\n      0x20\n      add\n      dup1\n      0x536166654d6174683a206164646974696f6e206f766572666c6f770000000000\n      dup2\n      mstore\n      pop\n      0x20\n      add\n      swap2\n      pop\n      pop\n      mload(0x40)\n      dup1\n      swap2\n      sub\n      swap1\n      revert\n    tag_176:\n        /* \"LuckyMachine.sol\":472:473  c */\n      dup1\n        /* \"LuckyMachine.sol\":465:473  return c */\n      swap2\n      pop\n      pop\n        /* \"LuckyMachine.sol\":316:478  function add(uint256 a, uint256 b) internal pure returns (uint256) {... */\n      swap3\n      swap2\n      pop\n      pop\n      jump\t// out\n        /* \"LuckyMachine.sol\":1586:1757  function makeRequestId(... */\n    tag_173:\n        /* \"LuckyMachine.sol\":1678:1685  bytes32 */\n      0x00\n        /* \"LuckyMachine.sol\":1727:1735  _keyHash */\n      dup3\n        /* \"LuckyMachine.sol\":1737:1750  _vRFInputSeed */\n      dup3\n        /* \"LuckyMachine.sol\":1710:1751  abi.encodePacked(_keyHash, _vRFInputSeed) */\n      add(0x20, mload(0x40))\n      dup1\n      dup4\n      dup2\n      mstore\n      0x20\n      add\n      dup3\n      dup2\n      mstore\n      0x20\n      add\n      swap3\n      pop\n      pop\n      pop\n      mload(0x40)\n        /* \"--CODEGEN--\":49:53   */\n      0x20\n        /* \"--CODEGEN--\":39:46   */\n      dup2\n        /* \"--CODEGEN--\":30:37   */\n      dup4\n        /* \"--CODEGEN--\":26:47   */\n      sub\n        /* \"--CODEGEN--\":22:54   */\n      sub\n        /* \"--CODEGEN--\":13:20   */\n      dup2\n        /* \"--CODEGEN--\":6:55   */\n      mstore\n        /* \"LuckyMachine.sol\":1710:1751  abi.encodePacked(_keyHash, _vRFInputSeed) */\n      swap1\n      0x40\n      mstore\n        /* \"LuckyMachine.sol\":1700:1752  keccak256(abi.encodePacked(_keyHash, _vRFInputSeed)) */\n      dup1\n      mload\n      swap1\n      0x20\n      add\n      keccak256\n        /* \"LuckyMachine.sol\":1693:1752  return keccak256(abi.encodePacked(_keyHash, _vRFInputSeed)) */\n      swap1\n      pop\n        /* \"LuckyMachine.sol\":1586:1757  function makeRequestId(... */\n      swap3\n      swap2\n      pop\n      pop\n      jump\t// out\n        /* \"LuckyMachine.sol\":3873:9459  contract LuckyMachine is VRFConsumerBase {... */\n    tag_150:\n      mload(0x40)\n      dup1\n      0xc0\n      add\n      0x40\n      mstore\n      dup1\n      0x00\n      dup2\n      mstore\n      0x20\n      add\n      and(0xffffffffffffffffffffffffffffffffffffffff, 0x00)\n      dup2\n      mstore\n      0x20\n      add\n      0x00\n      dup2\n      mstore\n      0x20\n      add\n      0x00\n      dup2\n      mstore\n      0x20\n      add\n      0x00\n      dup2\n      mstore\n      0x20\n      add\n      iszero(iszero(0x00))\n      dup2\n      mstore\n      pop\n      swap1\n      jump\t// out\n    stop\n    data_104d4309dbdd0d693502d943a07623e5e639a80ec32910748a6b4f701d61cac8 5069636b20697320746f6f20686967682e2043686f6f73652061206c6f776572206e756d6265722e\n    data_527e2d2f0571e45516fd6cab239d7693177079563917108277dfb81e888c4ca6 4e6f7420656e6f7567682066756e647320666f72207061796f7574206f72206d6178206265742065786365656465642e\n    data_b719f220e413600c7e92ed4736b96c6908e0428122610fe965fcc60eefeedbad 436f6e74726163742062616c616e636520746f6f206c6f772e20506c656173652074727920616761696e206c617465722e\n    data_c34c85fa0e0680ac47dc2c21fdf93b1adcc71d9a1a3b3b1788b881c3f4f390ac 47616d6520616c726561647920636f6d706c6574652e204e6f20726566756e6420706f737369626c652e\n    data_ef92889bcd3368ac0e5c94a5c325c5cf21da03eb1576ee7d446327960d5fae81 556e61626c6520746f207061792e20506c6561736520706c617920616761696e206f72207265717565737420726566756e642e\n\n    auxdata: 0xa264697066735822122028067e9b393c6b7e24787e0e18a53fe16b00b04ba330348dfe745f604783ed6164736f6c63430006000033\n}\n","bytecode":{"linkReferences":{},"object":"608060405234801561001057600080fd5b5060405161186c38038061186c833981810160405260a081101561003357600080fd5b81019080805190602001909291908051906020019092919080519060200190929190805190602001909291908051906020019092919050505073dd3782915140c8f3b190b5d67eac6dc5760c46e973a36085f69e2889c224210f603d836748e7dc008881600160006101000a81548173ffffffffffffffffffffffffffffffffffffffff021916908373ffffffffffffffffffffffffffffffffffffffff160217905550806000806101000a81548173ffffffffffffffffffffffffffffffffffffffff021916908373ffffffffffffffffffffffffffffffffffffffff16021790555050507f6c3699283bda56ad74f6b855546325b68d482e983852a7a82979cc4807b641f460001b60048190555067016345785d8a00006005819055506000600a81905550600060098190555084600360006101000a81548173ffffffffffffffffffffffffffffffffffffffff021916908373ffffffffffffffffffffffffffffffffffffffff16021790555082600881905550836007819055508160068190555080600b819055505050505050611699806101d36000396000f3fe60806040526004361061011f5760003560e01c806388ea41b9116100a05780639e317f12116100645780639e317f121461049c578063a4b2409e146104eb578063b37217a414610526578063b93030b314610575578063ec3d0fc71461058c5761011f565b806388ea41b91461036f5780638da5cb5b146103aa57806394985ddd146104015780639619367d146104465780639920cf81146104715761011f565b80635873533d116100e75780635873533d1461025457806363bd1d4a1461028f5780636b25d296146102ba5780636cc96ad9146102e5578063881eff1e146103345761011f565b806310fe7c4814610124578063117a5b90146101525780632de0f182146101f45780632e5b2168146101fe57806339e7357c14610229575b600080fd5b6101506004803603602081101561013a57600080fd5b81019080803590602001909291905050506105df565b005b34801561015e57600080fd5b5061018b6004803603602081101561017557600080fd5b81019080803590602001909291905050506106c1565b604051808781526020018673ffffffffffffffffffffffffffffffffffffffff1673ffffffffffffffffffffffffffffffffffffffff16815260200185815260200184815260200183815260200182151515158152602001965050505050505060405180910390f35b6101fc61072a565b005b34801561020a57600080fd5b5061021361072c565b6040518082815260200191505060405180910390f35b34801561023557600080fd5b5061023e610732565b6040518082815260200191505060405180910390f35b34801561026057600080fd5b5061028d6004803603602081101561027757600080fd5b810190808035906020019092919050505061073c565b005b34801561029b57600080fd5b506102a461076d565b6040518082815260200191505060405180910390f35b3480156102c657600080fd5b506102cf610773565b6040518082815260200191505060405180910390f35b3480156102f157600080fd5b5061031e6004803603602081101561030857600080fd5b8101908080359060200190929190505050610779565b6040518082815260200191505060405180910390f35b34801561034057600080fd5b5061036d6004803603602081101561035757600080fd5b8101908080359060200190929190505050610791565b005b34801561037b57600080fd5b506103a86004803603602081101561039257600080fd5b810190808035906020019092919050505061079b565b005b3480156103b657600080fd5b506103bf6107a5565b604051808273ffffffffffffffffffffffffffffffffffffffff1673ffffffffffffffffffffffffffffffffffffffff16815260200191505060405180910390f35b34801561040d57600080fd5b506104446004803603604081101561042457600080fd5b8101908080359060200190929190803590602001909291905050506107cb565b005b34801561045257600080fd5b5061045b61089c565b6040518082815260200191505060405180910390f35b34801561047d57600080fd5b506104866108a2565b6040518082815260200191505060405180910390f35b3480156104a857600080fd5b506104d5600480360360208110156104bf57600080fd5b81019080803590602001909291905050506108a8565b6040518082815260200191505060405180910390f35b3480156104f757600080fd5b506105246004803603602081101561050e57600080fd5b81019080803590602001909291905050506108c0565b005b34801561053257600080fd5b5061055f6004803603602081101561054957600080fd5b8101908080359060200190929190505050610a61565b6040518082815260200191505060405180910390f35b34801561058157600080fd5b5061058a610bc8565b005b34801561059857600080fd5b506105c5600480360360208110156105af57600080fd5b8101908080359060200190929190505050610f0b565b604051808215151515815260200191505060405180910390f35b60065481111561063a576040517f08c379a000000000000000000000000000000000000000000000000000000000815260040180806020018281038252602881526020018061157e6028913960400191505060405180910390fd5b61064334610f0b565b610698576040517f08c379a00000000000000000000000000000000000000000000000000000000081526004018080602001828103825260308152602001806115a66030913960400191505060405180910390fd5b346009600082825401925050819055506106b3333483610f4f565b6106be600a5461073c565b50565b600c6020528060005260406000206000915090508060000154908060010160009054906101000a900473ffffffffffffffffffffffffffffffffffffffff16908060020154908060030154908060040154908060050160009054906101000a900460ff16905086565b565b60075481565b6000613039905090565b60006130399050600061074e82610a61565b905082600d600083815260200190815260200160002081905550505050565b600b5481565b60095481565b600d6020528060005260406000206000915090505481565b8060078190555050565b8060088190555050565b600360009054906101000a900473ffffffffffffffffffffffffffffffffffffffff1681565b600160009054906101000a900473ffffffffffffffffffffffffffffffffffffffff1673ffffffffffffffffffffffffffffffffffffffff163373ffffffffffffffffffffffffffffffffffffffff161461088e576040517f08c379a000000000000000000000000000000000000000000000000000000000815260040180806020018281038252601f8152602001807f4f6e6c7920565246436f6f7264696e61746f722063616e2066756c66696c6c0081525060200191505060405180910390fd5b6108988282611068565b5050565b60085481565b600a5481565b60026020528060005260406000206000915090505481565b6000600c60008381526020019081526020016000209050600015158160050160009054906101000a900460ff16151514610945576040517f08c379a000000000000000000000000000000000000000000000000000000000815260040180806020018281038252602a815260200180611607602a913960400191505060405180910390fd5b80600201544710156109a2576040517f08c379a00000000000000000000000000000000000000000000000000000000081526004018080602001828103825260318152602001806115d66031913960400191505060405180910390fd5b60018160050160006101000a81548160ff0219169083151502179055508060020154600954106109e55780600201546009600082825403925050819055506109ee565b60006009819055505b8060010160009054906101000a900473ffffffffffffffffffffffffffffffffffffffff1673ffffffffffffffffffffffffffffffffffffffff166108fc82600201549081150290604051600060405180830381858888f19350505050158015610a5c573d6000803e3d6000fd5b505050565b60006005546000809054906101000a900473ffffffffffffffffffffffffffffffffffffffff1673ffffffffffffffffffffffffffffffffffffffff166370a08231306040518263ffffffff1660e01b8152600401808273ffffffffffffffffffffffffffffffffffffffff1673ffffffffffffffffffffffffffffffffffffffff16815260200191505060206040518083038186803b158015610b0457600080fd5b505afa158015610b18573d6000803e3d6000fd5b505050506040513d6020811015610b2e57600080fd5b810190808051906020019092919050505011610bb2576040517f08c379a000000000000000000000000000000000000000000000000000000000815260040180806020018281038252600f8152602001807f4e6f7420656e6f756768204c494e4b000000000000000000000000000000000081525060200191505060405180910390fd5b610bc1600454600554846111e3565b9050919050565b6009544711610bd657600080fd5b600060095447039050600360009054906101000a900473ffffffffffffffffffffffffffffffffffffffff1673ffffffffffffffffffffffffffffffffffffffff166108fc829081150290604051600060405180830381858888f19350505050158015610c47573d6000803e3d6000fd5b5060008060009054906101000a900473ffffffffffffffffffffffffffffffffffffffff1673ffffffffffffffffffffffffffffffffffffffff166370a08231306040518263ffffffff1660e01b8152600401808273ffffffffffffffffffffffffffffffffffffffff1673ffffffffffffffffffffffffffffffffffffffff16815260200191505060206040518083038186803b158015610ce857600080fd5b505afa158015610cfc573d6000803e3d6000fd5b505050506040513d6020811015610d1257600080fd5b81019080805190602001909291905050501115610f08576000809054906101000a900473ffffffffffffffffffffffffffffffffffffffff1673ffffffffffffffffffffffffffffffffffffffff1663a9059cbb600360009054906101000a900473ffffffffffffffffffffffffffffffffffffffff166000809054906101000a900473ffffffffffffffffffffffffffffffffffffffff1673ffffffffffffffffffffffffffffffffffffffff166370a08231306040518263ffffffff1660e01b8152600401808273ffffffffffffffffffffffffffffffffffffffff1673ffffffffffffffffffffffffffffffffffffffff16815260200191505060206040518083038186803b158015610e2757600080fd5b505afa158015610e3b573d6000803e3d6000fd5b505050506040513d6020811015610e5157600080fd5b81019080805190602001909291905050506040518363ffffffff1660e01b8152600401808373ffffffffffffffffffffffffffffffffffffffff1673ffffffffffffffffffffffffffffffffffffffff16815260200182815260200192505050602060405180830381600087803b158015610ecb57600080fd5b505af1158015610edf573d6000803e3d6000fd5b505050506040513d6020811015610ef557600080fd5b8101908080519060200190929190505050505b50565b60006008548210158015610f2157506007548211155b8015610f37575081600b54830201600954470310155b15610f455760019050610f4a565b600090505b919050565b600a60008154809291906001019190505550610f6961152f565b6040518060c00160405280600a5481526020018573ffffffffffffffffffffffffffffffffffffffff168152602001848152602001838152602001600a60065401815260200160001515815250905080600c6000836000015181526020019081526020016000206000820151816000015560208201518160010160006101000a81548173ffffffffffffffffffffffffffffffffffffffff021916908373ffffffffffffffffffffffffffffffffffffffff16021790555060408201518160020155606082015181600301556080820151816004015560a08201518160050160006101000a81548160ff02191690831515021790555090505050505050565b6000600c6000600d6000868152602001908152602001600020548152602001908152602001600020905060008160020154600b54836002015402019050804710156110fe576040517f08c379a00000000000000000000000000000000000000000000000000000000081526004018080602001828103825260338152602001806116316033913960400191505060405180910390fd5b600160065401838161110c57fe5b06826004018190555060018260050160006101000a81548160ff021916908315150217905550816002015460095410611158578160020154600960008282540392505081905550611161565b60006009819055505b8160040154826003015414156111dd578160010160009054906101000a900473ffffffffffffffffffffffffffffffffffffffff1673ffffffffffffffffffffffffffffffffffffffff166108fc829081150290604051600060405180830381858888f193505050501580156111db573d6000803e3d6000fd5b505b50505050565b60008060009054906101000a900473ffffffffffffffffffffffffffffffffffffffff1673ffffffffffffffffffffffffffffffffffffffff16634000aea0600160009054906101000a900473ffffffffffffffffffffffffffffffffffffffff1685878660405160200180838152602001828152602001925050506040516020818303038152906040526040518463ffffffff1660e01b8152600401808473ffffffffffffffffffffffffffffffffffffffff1673ffffffffffffffffffffffffffffffffffffffff16815260200183815260200180602001828103825283818151815260200191508051906020019080838360005b838110156112f55780820151818401526020810190506112da565b50505050905090810190601f1680156113225780820380516001836020036101000a031916815260200191505b50945050505050602060405180830381600087803b15801561134357600080fd5b505af1158015611357573d6000803e3d6000fd5b505050506040513d602081101561136d57600080fd5b81019080805190602001909291905050505060006113a0858430600260008a8152602001908152602001600020546113f4565b90506113c96001600260008881526020019081526020016000205461146e90919063ffffffff16565b60026000878152602001908152602001600020819055506113ea85826114f6565b9150509392505050565b600084848484604051602001808581526020018481526020018373ffffffffffffffffffffffffffffffffffffffff1673ffffffffffffffffffffffffffffffffffffffff1681526020018281526020019450505050506040516020818303038152906040528051906020012060001c9050949350505050565b6000808284019050838110156114ec576040517f08c379a000000000000000000000000000000000000000000000000000000000815260040180806020018281038252601b8152602001807f536166654d6174683a206164646974696f6e206f766572666c6f77000000000081525060200191505060405180910390fd5b8091505092915050565b60008282604051602001808381526020018281526020019250505060405160208183030381529060405280519060200120905092915050565b6040518060c0016040528060008152602001600073ffffffffffffffffffffffffffffffffffffffff168152602001600081526020016000815260200160008152602001600015158152509056fe5069636b20697320746f6f20686967682e2043686f6f73652061206c6f776572206e756d6265722e4e6f7420656e6f7567682066756e647320666f72207061796f7574206f72206d6178206265742065786365656465642e436f6e74726163742062616c616e636520746f6f206c6f772e20506c656173652074727920616761696e206c617465722e47616d6520616c726561647920636f6d706c6574652e204e6f20726566756e6420706f737369626c652e556e61626c6520746f207061792e20506c6561736520706c617920616761696e206f72207265717565737420726566756e642ea264697066735822122028067e9b393c6b7e24787e0e18a53fe16b00b04ba330348dfe745f604783ed6164736f6c63430006000033","opcodes":"PUSH1 0x80 PUSH1 0x40 MSTORE CALLVALUE DUP1 ISZERO PUSH2 0x10 JUMPI PUSH1 0x0 DUP1 REVERT JUMPDEST POP PUSH1 0x40 MLOAD PUSH2 0x186C CODESIZE SUB DUP1 PUSH2 0x186C DUP4 CODECOPY DUP2 DUP2 ADD PUSH1 0x40 MSTORE PUSH1 0xA0 DUP2 LT ISZERO PUSH2 0x33 JUMPI PUSH1 0x0 DUP1 REVERT JUMPDEST DUP2 ADD SWAP1 DUP1 DUP1 MLOAD SWAP1 PUSH1 0x20 ADD SWAP1 SWAP3 SWAP2 SWAP1 DUP1 MLOAD SWAP1 PUSH1 0x20 ADD SWAP1 SWAP3 SWAP2 SWAP1 DUP1 MLOAD SWAP1 PUSH1 0x20 ADD SWAP1 SWAP3 SWAP2 SWAP1 DUP1 MLOAD SWAP1 PUSH1 0x20 ADD SWAP1 SWAP3 SWAP2 SWAP1 DUP1 MLOAD SWAP1 PUSH1 0x20 ADD SWAP1 SWAP3 SWAP2 SWAP1 POP POP POP PUSH20 0xDD3782915140C8F3B190B5D67EAC6DC5760C46E9 PUSH20 0xA36085F69E2889C224210F603D836748E7DC0088 DUP2 PUSH1 0x1 PUSH1 0x0 PUSH2 0x100 EXP DUP2 SLOAD DUP2 PUSH20 0xFFFFFFFFFFFFFFFFFFFFFFFFFFFFFFFFFFFFFFFF MUL NOT AND SWAP1 DUP4 PUSH20 0xFFFFFFFFFFFFFFFFFFFFFFFFFFFFFFFFFFFFFFFF AND MUL OR SWAP1 SSTORE POP DUP1 PUSH1 0x0 DUP1 PUSH2 0x100 EXP DUP2 SLOAD DUP2 PUSH20 0xFFFFFFFFFFFFFFFFFFFFFFFFFFFFFFFFFFFFFFFF MUL NOT AND SWAP1 DUP4 PUSH20 0xFFFFFFFFFFFFFFFFFFFFFFFFFFFFFFFFFFFFFFFF AND MUL OR SWAP1 SSTORE POP POP POP PUSH32 0x6C3699283BDA56AD74F6B855546325B68D482E983852A7A82979CC4807B641F4 PUSH1 0x0 SHL PUSH1 0x4 DUP2 SWAP1 SSTORE POP PUSH8 0x16345785D8A0000 PUSH1 0x5 DUP2 SWAP1 SSTORE POP PUSH1 0x0 PUSH1 0xA DUP2 SWAP1 SSTORE POP PUSH1 0x0 PUSH1 0x9 DUP2 SWAP1 SSTORE POP DUP5 PUSH1 0x3 PUSH1 0x0 PUSH2 0x100 EXP DUP2 SLOAD DUP2 PUSH20 0xFFFFFFFFFFFFFFFFFFFFFFFFFFFFFFFFFFFFFFFF MUL NOT AND SWAP1 DUP4 PUSH20 0xFFFFFFFFFFFFFFFFFFFFFFFFFFFFFFFFFFFFFFFF AND MUL OR SWAP1 SSTORE POP DUP3 PUSH1 0x8 DUP2 SWAP1 SSTORE POP DUP4 PUSH1 0x7 DUP2 SWAP1 SSTORE POP DUP2 PUSH1 0x6 DUP2 SWAP1 SSTORE POP DUP1 PUSH1 0xB DUP2 SWAP1 SSTORE POP POP POP POP POP POP PUSH2 0x1699 DUP1 PUSH2 0x1D3 PUSH1 0x0 CODECOPY PUSH1 0x0 RETURN INVALID PUSH1 0x80 PUSH1 0x40 MSTORE PUSH1 0x4 CALLDATASIZE LT PUSH2 0x11F JUMPI PUSH1 0x0 CALLDATALOAD PUSH1 0xE0 SHR DUP1 PUSH4 0x88EA41B9 GT PUSH2 0xA0 JUMPI DUP1 PUSH4 0x9E317F12 GT PUSH2 0x64 JUMPI DUP1 PUSH4 0x9E317F12 EQ PUSH2 0x49C JUMPI DUP1 PUSH4 0xA4B2409E EQ PUSH2 0x4EB JUMPI DUP1 PUSH4 0xB37217A4 EQ PUSH2 0x526 JUMPI DUP1 PUSH4 0xB93030B3 EQ PUSH2 0x575 JUMPI DUP1 PUSH4 0xEC3D0FC7 EQ PUSH2 0x58C JUMPI PUSH2 0x11F JUMP JUMPDEST DUP1 PUSH4 0x88EA41B9 EQ PUSH2 0x36F JUMPI DUP1 PUSH4 0x8DA5CB5B EQ PUSH2 0x3AA JUMPI DUP1 PUSH4 0x94985DDD EQ PUSH2 0x401 JUMPI DUP1 PUSH4 0x9619367D EQ PUSH2 0x446 JUMPI DUP1 PUSH4 0x9920CF81 EQ PUSH2 0x471 JUMPI PUSH2 0x11F JUMP JUMPDEST DUP1 PUSH4 0x5873533D GT PUSH2 0xE7 JUMPI DUP1 PUSH4 0x5873533D EQ PUSH2 0x254 JUMPI DUP1 PUSH4 0x63BD1D4A EQ PUSH2 0x28F JUMPI DUP1 PUSH4 0x6B25D296 EQ PUSH2 0x2BA JUMPI DUP1 PUSH4 0x6CC96AD9 EQ PUSH2 0x2E5 JUMPI DUP1 PUSH4 0x881EFF1E EQ PUSH2 0x334 JUMPI PUSH2 0x11F JUMP JUMPDEST DUP1 PUSH4 0x10FE7C48 EQ PUSH2 0x124 JUMPI DUP1 PUSH4 0x117A5B90 EQ PUSH2 0x152 JUMPI DUP1 PUSH4 0x2DE0F182 EQ PUSH2 0x1F4 JUMPI DUP1 PUSH4 0x2E5B2168 EQ PUSH2 0x1FE JUMPI DUP1 PUSH4 0x39E7357C EQ PUSH2 0x229 JUMPI JUMPDEST PUSH1 0x0 DUP1 REVERT JUMPDEST PUSH2 0x150 PUSH1 0x4 DUP1 CALLDATASIZE SUB PUSH1 0x20 DUP2 LT ISZERO PUSH2 0x13A JUMPI PUSH1 0x0 DUP1 REVERT JUMPDEST DUP2 ADD SWAP1 DUP1 DUP1 CALLDATALOAD SWAP1 PUSH1 0x20 ADD SWAP1 SWAP3 SWAP2 SWAP1 POP POP POP PUSH2 0x5DF JUMP JUMPDEST STOP JUMPDEST CALLVALUE DUP1 ISZERO PUSH2 0x15E JUMPI PUSH1 0x0 DUP1 REVERT JUMPDEST POP PUSH2 0x18B PUSH1 0x4 DUP1 CALLDATASIZE SUB PUSH1 0x20 DUP2 LT ISZERO PUSH2 0x175 JUMPI PUSH1 0x0 DUP1 REVERT JUMPDEST DUP2 ADD SWAP1 DUP1 DUP1 CALLDATALOAD SWAP1 PUSH1 0x20 ADD SWAP1 SWAP3 SWAP2 SWAP1 POP POP POP PUSH2 0x6C1 JUMP JUMPDEST PUSH1 0x40 MLOAD DUP1 DUP8 DUP2 MSTORE PUSH1 0x20 ADD DUP7 PUSH20 0xFFFFFFFFFFFFFFFFFFFFFFFFFFFFFFFFFFFFFFFF AND PUSH20 0xFFFFFFFFFFFFFFFFFFFFFFFFFFFFFFFFFFFFFFFF AND DUP2 MSTORE PUSH1 0x20 ADD DUP6 DUP2 MSTORE PUSH1 0x20 ADD DUP5 DUP2 MSTORE PUSH1 0x20 ADD DUP4 DUP2 MSTORE PUSH1 0x20 ADD DUP3 ISZERO ISZERO ISZERO ISZERO DUP2 MSTORE PUSH1 0x20 ADD SWAP7 POP POP POP POP POP POP POP PUSH1 0x40 MLOAD DUP1 SWAP2 SUB SWAP1 RETURN JUMPDEST PUSH2 0x1FC PUSH2 0x72A JUMP JUMPDEST STOP JUMPDEST CALLVALUE DUP1 ISZERO PUSH2 0x20A JUMPI PUSH1 0x0 DUP1 REVERT JUMPDEST POP PUSH2 0x213 PUSH2 0x72C JUMP JUMPDEST PUSH1 0x40 MLOAD DUP1 DUP3 DUP2 MSTORE PUSH1 0x20 ADD SWAP2 POP POP PUSH1 0x40 MLOAD DUP1 SWAP2 SUB SWAP1 RETURN JUMPDEST CALLVALUE DUP1 ISZERO PUSH2 0x235 JUMPI PUSH1 0x0 DUP1 REVERT JUMPDEST POP PUSH2 0x23E PUSH2 0x732 JUMP JUMPDEST PUSH1 0x40 MLOAD DUP1 DUP3 DUP2 MSTORE PUSH1 0x20 ADD SWAP2 POP POP PUSH1 0x40 MLOAD DUP1 SWAP2 SUB SWAP1 RETURN JUMPDEST CALLVALUE DUP1 ISZERO PUSH2 0x260 JUMPI PUSH1 0x0 DUP1 REVERT JUMPDEST POP PUSH2 0x28D PUSH1 0x4 DUP1 CALLDATASIZE SUB PUSH1 0x20 DUP2 LT ISZERO PUSH2 0x277 JUMPI PUSH1 0x0 DUP1 REVERT JUMPDEST DUP2 ADD SWAP1 DUP1 DUP1 CALLDATALOAD SWAP1 PUSH1 0x20 ADD SWAP1 SWAP3 SWAP2 SWAP1 POP POP POP PUSH2 0x73C JUMP JUMPDEST STOP JUMPDEST CALLVALUE DUP1 ISZERO PUSH2 0x29B JUMPI PUSH1 0x0 DUP1 REVERT JUMPDEST POP PUSH2 0x2A4 PUSH2 0x76D JUMP JUMPDEST PUSH1 0x40 MLOAD DUP1 DUP3 DUP2 MSTORE PUSH1 0x20 ADD SWAP2 POP POP PUSH1 0x40 MLOAD DUP1 SWAP2 SUB SWAP1 RETURN JUMPDEST CALLVALUE DUP1 ISZERO PUSH2 0x2C6 JUMPI PUSH1 0x0 DUP1 REVERT JUMPDEST POP PUSH2 0x2CF PUSH2 0x773 JUMP JUMPDEST PUSH1 0x40 MLOAD DUP1 DUP3 DUP2 MSTORE PUSH1 0x20 ADD SWAP2 POP POP PUSH1 0x40 MLOAD DUP1 SWAP2 SUB SWAP1 RETURN JUMPDEST CALLVALUE DUP1 ISZERO PUSH2 0x2F1 JUMPI PUSH1 0x0 DUP1 REVERT JUMPDEST POP PUSH2 0x31E PUSH1 0x4 DUP1 CALLDATASIZE SUB PUSH1 0x20 DUP2 LT ISZERO PUSH2 0x308 JUMPI PUSH1 0x0 DUP1 REVERT JUMPDEST DUP2 ADD SWAP1 DUP1 DUP1 CALLDATALOAD SWAP1 PUSH1 0x20 ADD SWAP1 SWAP3 SWAP2 SWAP1 POP POP POP PUSH2 0x779 JUMP JUMPDEST PUSH1 0x40 MLOAD DUP1 DUP3 DUP2 MSTORE PUSH1 0x20 ADD SWAP2 POP POP PUSH1 0x40 MLOAD DUP1 SWAP2 SUB SWAP1 RETURN JUMPDEST CALLVALUE DUP1 ISZERO PUSH2 0x340 JUMPI PUSH1 0x0 DUP1 REVERT JUMPDEST POP PUSH2 0x36D PUSH1 0x4 DUP1 CALLDATASIZE SUB PUSH1 0x20 DUP2 LT ISZERO PUSH2 0x357 JUMPI PUSH1 0x0 DUP1 REVERT JUMPDEST DUP2 ADD SWAP1 DUP1 DUP1 CALLDATALOAD SWAP1 PUSH1 0x20 ADD SWAP1 SWAP3 SWAP2 SWAP1 POP POP POP PUSH2 0x791 JUMP JUMPDEST STOP JUMPDEST CALLVALUE DUP1 ISZERO PUSH2 0x37B JUMPI PUSH1 0x0 DUP1 REVERT JUMPDEST POP PUSH2 0x3A8 PUSH1 0x4 DUP1 CALLDATASIZE SUB PUSH1 0x20 DUP2 LT ISZERO PUSH2 0x392 JUMPI PUSH1 0x0 DUP1 REVERT JUMPDEST DUP2 ADD SWAP1 DUP1 DUP1 CALLDATALOAD SWAP1 PUSH1 0x20 ADD SWAP1 SWAP3 SWAP2 SWAP1 POP POP POP PUSH2 0x79B JUMP JUMPDEST STOP JUMPDEST CALLVALUE DUP1 ISZERO PUSH2 0x3B6 JUMPI PUSH1 0x0 DUP1 REVERT JUMPDEST POP PUSH2 0x3BF PUSH2 0x7A5 JUMP JUMPDEST PUSH1 0x40 MLOAD DUP1 DUP3 PUSH20 0xFFFFFFFFFFFFFFFFFFFFFFFFFFFFFFFFFFFFFFFF AND PUSH20 0xFFFFFFFFFFFFFFFFFFFFFFFFFFFFFFFFFFFFFFFF AND DUP2 MSTORE PUSH1 0x20 ADD SWAP2 POP POP PUSH1 0x40 MLOAD DUP1 SWAP2 SUB SWAP1 RETURN JUMPDEST CALLVALUE DUP1 ISZERO PUSH2 0x40D JUMPI PUSH1 0x0 DUP1 REVERT JUMPDEST POP PUSH2 0x444 PUSH1 0x4 DUP1 CALLDATASIZE SUB PUSH1 0x40 DUP2 LT ISZERO PUSH2 0x424 JUMPI PUSH1 0x0 DUP1 REVERT JUMPDEST DUP2 ADD SWAP1 DUP1 DUP1 CALLDATALOAD SWAP1 PUSH1 0x20 ADD SWAP1 SWAP3 SWAP2 SWAP1 DUP1 CALLDATALOAD SWAP1 PUSH1 0x20 ADD SWAP1 SWAP3 SWAP2 SWAP1 POP POP POP PUSH2 0x7CB JUMP JUMPDEST STOP JUMPDEST CALLVALUE DUP1 ISZERO PUSH2 0x452 JUMPI PUSH1 0x0 DUP1 REVERT JUMPDEST POP PUSH2 0x45B PUSH2 0x89C JUMP JUMPDEST PUSH1 0x40 MLOAD DUP1 DUP3 DUP2 MSTORE PUSH1 0x20 ADD SWAP2 POP POP PUSH1 0x40 MLOAD DUP1 SWAP2 SUB SWAP1 RETURN JUMPDEST CALLVALUE DUP1 ISZERO PUSH2 0x47D JUMPI PUSH1 0x0 DUP1 REVERT JUMPDEST POP PUSH2 0x486 PUSH2 0x8A2 JUMP JUMPDEST PUSH1 0x40 MLOAD DUP1 DUP3 DUP2 MSTORE PUSH1 0x20 ADD SWAP2 POP POP PUSH1 0x40 MLOAD DUP1 SWAP2 SUB SWAP1 RETURN JUMPDEST CALLVALUE DUP1 ISZERO PUSH2 0x4A8 JUMPI PUSH1 0x0 DUP1 REVERT JUMPDEST POP PUSH2 0x4D5 PUSH1 0x4 DUP1 CALLDATASIZE SUB PUSH1 0x20 DUP2 LT ISZERO PUSH2 0x4BF JUMPI PUSH1 0x0 DUP1 REVERT JUMPDEST DUP2 ADD SWAP1 DUP1 DUP1 CALLDATALOAD SWAP1 PUSH1 0x20 ADD SWAP1 SWAP3 SWAP2 SWAP1 POP POP POP PUSH2 0x8A8 JUMP JUMPDEST PUSH1 0x40 MLOAD DUP1 DUP3 DUP2 MSTORE PUSH1 0x20 ADD SWAP2 POP POP PUSH1 0x40 MLOAD DUP1 SWAP2 SUB SWAP1 RETURN JUMPDEST CALLVALUE DUP1 ISZERO PUSH2 0x4F7 JUMPI PUSH1 0x0 DUP1 REVERT JUMPDEST POP PUSH2 0x524 PUSH1 0x4 DUP1 CALLDATASIZE SUB PUSH1 0x20 DUP2 LT ISZERO PUSH2 0x50E JUMPI PUSH1 0x0 DUP1 REVERT JUMPDEST DUP2 ADD SWAP1 DUP1 DUP1 CALLDATALOAD SWAP1 PUSH1 0x20 ADD SWAP1 SWAP3 SWAP2 SWAP1 POP POP POP PUSH2 0x8C0 JUMP JUMPDEST STOP JUMPDEST CALLVALUE DUP1 ISZERO PUSH2 0x532 JUMPI PUSH1 0x0 DUP1 REVERT JUMPDEST POP PUSH2 0x55F PUSH1 0x4 DUP1 CALLDATASIZE SUB PUSH1 0x20 DUP2 LT ISZERO PUSH2 0x549 JUMPI PUSH1 0x0 DUP1 REVERT JUMPDEST DUP2 ADD SWAP1 DUP1 DUP1 CALLDATALOAD SWAP1 PUSH1 0x20 ADD SWAP1 SWAP3 SWAP2 SWAP1 POP POP POP PUSH2 0xA61 JUMP JUMPDEST PUSH1 0x40 MLOAD DUP1 DUP3 DUP2 MSTORE PUSH1 0x20 ADD SWAP2 POP POP PUSH1 0x40 MLOAD DUP1 SWAP2 SUB SWAP1 RETURN JUMPDEST CALLVALUE DUP1 ISZERO PUSH2 0x581 JUMPI PUSH1 0x0 DUP1 REVERT JUMPDEST POP PUSH2 0x58A PUSH2 0xBC8 JUMP JUMPDEST STOP JUMPDEST CALLVALUE DUP1 ISZERO PUSH2 0x598 JUMPI PUSH1 0x0 DUP1 REVERT JUMPDEST POP PUSH2 0x5C5 PUSH1 0x4 DUP1 CALLDATASIZE SUB PUSH1 0x20 DUP2 LT ISZERO PUSH2 0x5AF JUMPI PUSH1 0x0 DUP1 REVERT JUMPDEST DUP2 ADD SWAP1 DUP1 DUP1 CALLDATALOAD SWAP1 PUSH1 0x20 ADD SWAP1 SWAP3 SWAP2 SWAP1 POP POP POP PUSH2 0xF0B JUMP JUMPDEST PUSH1 0x40 MLOAD DUP1 DUP3 ISZERO ISZERO ISZERO ISZERO DUP2 MSTORE PUSH1 0x20 ADD SWAP2 POP POP PUSH1 0x40 MLOAD DUP1 SWAP2 SUB SWAP1 RETURN JUMPDEST PUSH1 0x6 SLOAD DUP2 GT ISZERO PUSH2 0x63A JUMPI PUSH1 0x40 MLOAD PUSH32 0x8C379A000000000000000000000000000000000000000000000000000000000 DUP2 MSTORE PUSH1 0x4 ADD DUP1 DUP1 PUSH1 0x20 ADD DUP3 DUP2 SUB DUP3 MSTORE PUSH1 0x28 DUP2 MSTORE PUSH1 0x20 ADD DUP1 PUSH2 0x157E PUSH1 0x28 SWAP2 CODECOPY PUSH1 0x40 ADD SWAP2 POP POP PUSH1 0x40 MLOAD DUP1 SWAP2 SUB SWAP1 REVERT JUMPDEST PUSH2 0x643 CALLVALUE PUSH2 0xF0B JUMP JUMPDEST PUSH2 0x698 JUMPI PUSH1 0x40 MLOAD PUSH32 0x8C379A000000000000000000000000000000000000000000000000000000000 DUP2 MSTORE PUSH1 0x4 ADD DUP1 DUP1 PUSH1 0x20 ADD DUP3 DUP2 SUB DUP3 MSTORE PUSH1 0x30 DUP2 MSTORE PUSH1 0x20 ADD DUP1 PUSH2 0x15A6 PUSH1 0x30 SWAP2 CODECOPY PUSH1 0x40 ADD SWAP2 POP POP PUSH1 0x40 MLOAD DUP1 SWAP2 SUB SWAP1 REVERT JUMPDEST CALLVALUE PUSH1 0x9 PUSH1 0x0 DUP3 DUP3 SLOAD ADD SWAP3 POP POP DUP2 SWAP1 SSTORE POP PUSH2 0x6B3 CALLER CALLVALUE DUP4 PUSH2 0xF4F JUMP JUMPDEST PUSH2 0x6BE PUSH1 0xA SLOAD PUSH2 0x73C JUMP JUMPDEST POP JUMP JUMPDEST PUSH1 0xC PUSH1 0x20 MSTORE DUP1 PUSH1 0x0 MSTORE PUSH1 0x40 PUSH1 0x0 KECCAK256 PUSH1 0x0 SWAP2 POP SWAP1 POP DUP1 PUSH1 0x0 ADD SLOAD SWAP1 DUP1 PUSH1 0x1 ADD PUSH1 0x0 SWAP1 SLOAD SWAP1 PUSH2 0x100 EXP SWAP1 DIV PUSH20 0xFFFFFFFFFFFFFFFFFFFFFFFFFFFFFFFFFFFFFFFF AND SWAP1 DUP1 PUSH1 0x2 ADD SLOAD SWAP1 DUP1 PUSH1 0x3 ADD SLOAD SWAP1 DUP1 PUSH1 0x4 ADD SLOAD SWAP1 DUP1 PUSH1 0x5 ADD PUSH1 0x0 SWAP1 SLOAD SWAP1 PUSH2 0x100 EXP SWAP1 DIV PUSH1 0xFF AND SWAP1 POP DUP7 JUMP JUMPDEST JUMP JUMPDEST PUSH1 0x7 SLOAD DUP2 JUMP JUMPDEST PUSH1 0x0 PUSH2 0x3039 SWAP1 POP SWAP1 JUMP JUMPDEST PUSH1 0x0 PUSH2 0x3039 SWAP1 POP PUSH1 0x0 PUSH2 0x74E DUP3 PUSH2 0xA61 JUMP JUMPDEST SWAP1 POP DUP3 PUSH1 0xD PUSH1 0x0 DUP4 DUP2 MSTORE PUSH1 0x20 ADD SWAP1 DUP2 MSTORE PUSH1 0x20 ADD PUSH1 0x0 KECCAK256 DUP2 SWAP1 SSTORE POP POP POP POP JUMP JUMPDEST PUSH1 0xB SLOAD DUP2 JUMP JUMPDEST PUSH1 0x9 SLOAD DUP2 JUMP JUMPDEST PUSH1 0xD PUSH1 0x20 MSTORE DUP1 PUSH1 0x0 MSTORE PUSH1 0x40 PUSH1 0x0 KECCAK256 PUSH1 0x0 SWAP2 POP SWAP1 POP SLOAD DUP2 JUMP JUMPDEST DUP1 PUSH1 0x7 DUP2 SWAP1 SSTORE POP POP JUMP JUMPDEST DUP1 PUSH1 0x8 DUP2 SWAP1 SSTORE POP POP JUMP JUMPDEST PUSH1 0x3 PUSH1 0x0 SWAP1 SLOAD SWAP1 PUSH2 0x100 EXP SWAP1 DIV PUSH20 0xFFFFFFFFFFFFFFFFFFFFFFFFFFFFFFFFFFFFFFFF AND DUP2 JUMP JUMPDEST PUSH1 0x1 PUSH1 0x0 SWAP1 SLOAD SWAP1 PUSH2 0x100 EXP SWAP1 DIV PUSH20 0xFFFFFFFFFFFFFFFFFFFFFFFFFFFFFFFFFFFFFFFF AND PUSH20 0xFFFFFFFFFFFFFFFFFFFFFFFFFFFFFFFFFFFFFFFF AND CALLER PUSH20 0xFFFFFFFFFFFFFFFFFFFFFFFFFFFFFFFFFFFFFFFF AND EQ PUSH2 0x88E JUMPI PUSH1 0x40 MLOAD PUSH32 0x8C379A000000000000000000000000000000000000000000000000000000000 DUP2 MSTORE PUSH1 0x4 ADD DUP1 DUP1 PUSH1 0x20 ADD DUP3 DUP2 SUB DUP3 MSTORE PUSH1 0x1F DUP2 MSTORE PUSH1 0x20 ADD DUP1 PUSH32 0x4F6E6C7920565246436F6F7264696E61746F722063616E2066756C66696C6C00 DUP2 MSTORE POP PUSH1 0x20 ADD SWAP2 POP POP PUSH1 0x40 MLOAD DUP1 SWAP2 SUB SWAP1 REVERT JUMPDEST PUSH2 0x898 DUP3 DUP3 PUSH2 0x1068 JUMP JUMPDEST POP POP JUMP JUMPDEST PUSH1 0x8 SLOAD DUP2 JUMP JUMPDEST PUSH1 0xA SLOAD DUP2 JUMP JUMPDEST PUSH1 0x2 PUSH1 0x20 MSTORE DUP1 PUSH1 0x0 MSTORE PUSH1 0x40 PUSH1 0x0 KECCAK256 PUSH1 0x0 SWAP2 POP SWAP1 POP SLOAD DUP2 JUMP JUMPDEST PUSH1 0x0 PUSH1 0xC PUSH1 0x0 DUP4 DUP2 MSTORE PUSH1 0x20 ADD SWAP1 DUP2 MSTORE PUSH1 0x20 ADD PUSH1 0x0 KECCAK256 SWAP1 POP PUSH1 0x0 ISZERO ISZERO DUP2 PUSH1 0x5 ADD PUSH1 0x0 SWAP1 SLOAD SWAP1 PUSH2 0x100 EXP SWAP1 DIV PUSH1 0xFF AND ISZERO ISZERO EQ PUSH2 0x945 JUMPI PUSH1 0x40 MLOAD PUSH32 0x8C379A000000000000000000000000000000000000000000000000000000000 DUP2 MSTORE PUSH1 0x4 ADD DUP1 DUP1 PUSH1 0x20 ADD DUP3 DUP2 SUB DUP3 MSTORE PUSH1 0x2A DUP2 MSTORE PUSH1 0x20 ADD DUP1 PUSH2 0x1607 PUSH1 0x2A SWAP2 CODECOPY PUSH1 0x40 ADD SWAP2 POP POP PUSH1 0x40 MLOAD DUP1 SWAP2 SUB SWAP1 REVERT JUMPDEST DUP1 PUSH1 0x2 ADD SLOAD SELFBALANCE LT ISZERO PUSH2 0x9A2 JUMPI PUSH1 0x40 MLOAD PUSH32 0x8C379A000000000000000000000000000000000000000000000000000000000 DUP2 MSTORE PUSH1 0x4 ADD DUP1 DUP1 PUSH1 0x20 ADD DUP3 DUP2 SUB DUP3 MSTORE PUSH1 0x31 DUP2 MSTORE PUSH1 0x20 ADD DUP1 PUSH2 0x15D6 PUSH1 0x31 SWAP2 CODECOPY PUSH1 0x40 ADD SWAP2 POP POP PUSH1 0x40 MLOAD DUP1 SWAP2 SUB SWAP1 REVERT JUMPDEST PUSH1 0x1 DUP2 PUSH1 0x5 ADD PUSH1 0x0 PUSH2 0x100 EXP DUP2 SLOAD DUP2 PUSH1 0xFF MUL NOT AND SWAP1 DUP4 ISZERO ISZERO MUL OR SWAP1 SSTORE POP DUP1 PUSH1 0x2 ADD SLOAD PUSH1 0x9 SLOAD LT PUSH2 0x9E5 JUMPI DUP1 PUSH1 0x2 ADD SLOAD PUSH1 0x9 PUSH1 0x0 DUP3 DUP3 SLOAD SUB SWAP3 POP POP DUP2 SWAP1 SSTORE POP PUSH2 0x9EE JUMP JUMPDEST PUSH1 0x0 PUSH1 0x9 DUP2 SWAP1 SSTORE POP JUMPDEST DUP1 PUSH1 0x1 ADD PUSH1 0x0 SWAP1 SLOAD SWAP1 PUSH2 0x100 EXP SWAP1 DIV PUSH20 0xFFFFFFFFFFFFFFFFFFFFFFFFFFFFFFFFFFFFFFFF AND PUSH20 0xFFFFFFFFFFFFFFFFFFFFFFFFFFFFFFFFFFFFFFFF AND PUSH2 0x8FC DUP3 PUSH1 0x2 ADD SLOAD SWAP1 DUP2 ISZERO MUL SWAP1 PUSH1 0x40 MLOAD PUSH1 0x0 PUSH1 0x40 MLOAD DUP1 DUP4 SUB DUP2 DUP6 DUP9 DUP9 CALL SWAP4 POP POP POP POP ISZERO DUP1 ISZERO PUSH2 0xA5C JUMPI RETURNDATASIZE PUSH1 0x0 DUP1 RETURNDATACOPY RETURNDATASIZE PUSH1 0x0 REVERT JUMPDEST POP POP POP JUMP JUMPDEST PUSH1 0x0 PUSH1 0x5 SLOAD PUSH1 0x0 DUP1 SWAP1 SLOAD SWAP1 PUSH2 0x100 EXP SWAP1 DIV PUSH20 0xFFFFFFFFFFFFFFFFFFFFFFFFFFFFFFFFFFFFFFFF AND PUSH20 0xFFFFFFFFFFFFFFFFFFFFFFFFFFFFFFFFFFFFFFFF AND PUSH4 0x70A08231 ADDRESS PUSH1 0x40 MLOAD DUP3 PUSH4 0xFFFFFFFF AND PUSH1 0xE0 SHL DUP2 MSTORE PUSH1 0x4 ADD DUP1 DUP3 PUSH20 0xFFFFFFFFFFFFFFFFFFFFFFFFFFFFFFFFFFFFFFFF AND PUSH20 0xFFFFFFFFFFFFFFFFFFFFFFFFFFFFFFFFFFFFFFFF AND DUP2 MSTORE PUSH1 0x20 ADD SWAP2 POP POP PUSH1 0x20 PUSH1 0x40 MLOAD DUP1 DUP4 SUB DUP2 DUP7 DUP1 EXTCODESIZE ISZERO DUP1 ISZERO PUSH2 0xB04 JUMPI PUSH1 0x0 DUP1 REVERT JUMPDEST POP GAS STATICCALL ISZERO DUP1 ISZERO PUSH2 0xB18 JUMPI RETURNDATASIZE PUSH1 0x0 DUP1 RETURNDATACOPY RETURNDATASIZE PUSH1 0x0 REVERT JUMPDEST POP POP POP POP PUSH1 0x40 MLOAD RETURNDATASIZE PUSH1 0x20 DUP2 LT ISZERO PUSH2 0xB2E JUMPI PUSH1 0x0 DUP1 REVERT JUMPDEST DUP2 ADD SWAP1 DUP1 DUP1 MLOAD SWAP1 PUSH1 0x20 ADD SWAP1 SWAP3 SWAP2 SWAP1 POP POP POP GT PUSH2 0xBB2 JUMPI PUSH1 0x40 MLOAD PUSH32 0x8C379A000000000000000000000000000000000000000000000000000000000 DUP2 MSTORE PUSH1 0x4 ADD DUP1 DUP1 PUSH1 0x20 ADD DUP3 DUP2 SUB DUP3 MSTORE PUSH1 0xF DUP2 MSTORE PUSH1 0x20 ADD DUP1 PUSH32 0x4E6F7420656E6F756768204C494E4B0000000000000000000000000000000000 DUP2 MSTORE POP PUSH1 0x20 ADD SWAP2 POP POP PUSH1 0x40 MLOAD DUP1 SWAP2 SUB SWAP1 REVERT JUMPDEST PUSH2 0xBC1 PUSH1 0x4 SLOAD PUSH1 0x5 SLOAD DUP5 PUSH2 0x11E3 JUMP JUMPDEST SWAP1 POP SWAP2 SWAP1 POP JUMP JUMPDEST PUSH1 0x9 SLOAD SELFBALANCE GT PUSH2 0xBD6 JUMPI PUSH1 0x0 DUP1 REVERT JUMPDEST PUSH1 0x0 PUSH1 0x9 SLOAD SELFBALANCE SUB SWAP1 POP PUSH1 0x3 PUSH1 0x0 SWAP1 SLOAD SWAP1 PUSH2 0x100 EXP SWAP1 DIV PUSH20 0xFFFFFFFFFFFFFFFFFFFFFFFFFFFFFFFFFFFFFFFF AND PUSH20 0xFFFFFFFFFFFFFFFFFFFFFFFFFFFFFFFFFFFFFFFF AND PUSH2 0x8FC DUP3 SWAP1 DUP2 ISZERO MUL SWAP1 PUSH1 0x40 MLOAD PUSH1 0x0 PUSH1 0x40 MLOAD DUP1 DUP4 SUB DUP2 DUP6 DUP9 DUP9 CALL SWAP4 POP POP POP POP ISZERO DUP1 ISZERO PUSH2 0xC47 JUMPI RETURNDATASIZE PUSH1 0x0 DUP1 RETURNDATACOPY RETURNDATASIZE PUSH1 0x0 REVERT JUMPDEST POP PUSH1 0x0 DUP1 PUSH1 0x0 SWAP1 SLOAD SWAP1 PUSH2 0x100 EXP SWAP1 DIV PUSH20 0xFFFFFFFFFFFFFFFFFFFFFFFFFFFFFFFFFFFFFFFF AND PUSH20 0xFFFFFFFFFFFFFFFFFFFFFFFFFFFFFFFFFFFFFFFF AND PUSH4 0x70A08231 ADDRESS PUSH1 0x40 MLOAD DUP3 PUSH4 0xFFFFFFFF AND PUSH1 0xE0 SHL DUP2 MSTORE PUSH1 0x4 ADD DUP1 DUP3 PUSH20 0xFFFFFFFFFFFFFFFFFFFFFFFFFFFFFFFFFFFFFFFF AND PUSH20 0xFFFFFFFFFFFFFFFFFFFFFFFFFFFFFFFFFFFFFFFF AND DUP2 MSTORE PUSH1 0x20 ADD SWAP2 POP POP PUSH1 0x20 PUSH1 0x40 MLOAD DUP1 DUP4 SUB DUP2 DUP7 DUP1 EXTCODESIZE ISZERO DUP1 ISZERO PUSH2 0xCE8 JUMPI PUSH1 0x0 DUP1 REVERT JUMPDEST POP GAS STATICCALL ISZERO DUP1 ISZERO PUSH2 0xCFC JUMPI RETURNDATASIZE PUSH1 0x0 DUP1 RETURNDATACOPY RETURNDATASIZE PUSH1 0x0 REVERT JUMPDEST POP POP POP POP PUSH1 0x40 MLOAD RETURNDATASIZE PUSH1 0x20 DUP2 LT ISZERO PUSH2 0xD12 JUMPI PUSH1 0x0 DUP1 REVERT JUMPDEST DUP2 ADD SWAP1 DUP1 DUP1 MLOAD SWAP1 PUSH1 0x20 ADD SWAP1 SWAP3 SWAP2 SWAP1 POP POP POP GT ISZERO PUSH2 0xF08 JUMPI PUSH1 0x0 DUP1 SWAP1 SLOAD SWAP1 PUSH2 0x100 EXP SWAP1 DIV PUSH20 0xFFFFFFFFFFFFFFFFFFFFFFFFFFFFFFFFFFFFFFFF AND PUSH20 0xFFFFFFFFFFFFFFFFFFFFFFFFFFFFFFFFFFFFFFFF AND PUSH4 0xA9059CBB PUSH1 0x3 PUSH1 0x0 SWAP1 SLOAD SWAP1 PUSH2 0x100 EXP SWAP1 DIV PUSH20 0xFFFFFFFFFFFFFFFFFFFFFFFFFFFFFFFFFFFFFFFF AND PUSH1 0x0 DUP1 SWAP1 SLOAD SWAP1 PUSH2 0x100 EXP SWAP1 DIV PUSH20 0xFFFFFFFFFFFFFFFFFFFFFFFFFFFFFFFFFFFFFFFF AND PUSH20 0xFFFFFFFFFFFFFFFFFFFFFFFFFFFFFFFFFFFFFFFF AND PUSH4 0x70A08231 ADDRESS PUSH1 0x40 MLOAD DUP3 PUSH4 0xFFFFFFFF AND PUSH1 0xE0 SHL DUP2 MSTORE PUSH1 0x4 ADD DUP1 DUP3 PUSH20 0xFFFFFFFFFFFFFFFFFFFFFFFFFFFFFFFFFFFFFFFF AND PUSH20 0xFFFFFFFFFFFFFFFFFFFFFFFFFFFFFFFFFFFFFFFF AND DUP2 MSTORE PUSH1 0x20 ADD SWAP2 POP POP PUSH1 0x20 PUSH1 0x40 MLOAD DUP1 DUP4 SUB DUP2 DUP7 DUP1 EXTCODESIZE ISZERO DUP1 ISZERO PUSH2 0xE27 JUMPI PUSH1 0x0 DUP1 REVERT JUMPDEST POP GAS STATICCALL ISZERO DUP1 ISZERO PUSH2 0xE3B JUMPI RETURNDATASIZE PUSH1 0x0 DUP1 RETURNDATACOPY RETURNDATASIZE PUSH1 0x0 REVERT JUMPDEST POP POP POP POP PUSH1 0x40 MLOAD RETURNDATASIZE PUSH1 0x20 DUP2 LT ISZERO PUSH2 0xE51 JUMPI PUSH1 0x0 DUP1 REVERT JUMPDEST DUP2 ADD SWAP1 DUP1 DUP1 MLOAD SWAP1 PUSH1 0x20 ADD SWAP1 SWAP3 SWAP2 SWAP1 POP POP POP PUSH1 0x40 MLOAD DUP4 PUSH4 0xFFFFFFFF AND PUSH1 0xE0 SHL DUP2 MSTORE PUSH1 0x4 ADD DUP1 DUP4 PUSH20 0xFFFFFFFFFFFFFFFFFFFFFFFFFFFFFFFFFFFFFFFF AND PUSH20 0xFFFFFFFFFFFFFFFFFFFFFFFFFFFFFFFFFFFFFFFF AND DUP2 MSTORE PUSH1 0x20 ADD DUP3 DUP2 MSTORE PUSH1 0x20 ADD SWAP3 POP POP POP PUSH1 0x20 PUSH1 0x40 MLOAD DUP1 DUP4 SUB DUP2 PUSH1 0x0 DUP8 DUP1 EXTCODESIZE ISZERO DUP1 ISZERO PUSH2 0xECB JUMPI PUSH1 0x0 DUP1 REVERT JUMPDEST POP GAS CALL ISZERO DUP1 ISZERO PUSH2 0xEDF JUMPI RETURNDATASIZE PUSH1 0x0 DUP1 RETURNDATACOPY RETURNDATASIZE PUSH1 0x0 REVERT JUMPDEST POP POP POP POP PUSH1 0x40 MLOAD RETURNDATASIZE PUSH1 0x20 DUP2 LT ISZERO PUSH2 0xEF5 JUMPI PUSH1 0x0 DUP1 REVERT JUMPDEST DUP2 ADD SWAP1 DUP1 DUP1 MLOAD SWAP1 PUSH1 0x20 ADD SWAP1 SWAP3 SWAP2 SWAP1 POP POP POP POP JUMPDEST POP JUMP JUMPDEST PUSH1 0x0 PUSH1 0x8 SLOAD DUP3 LT ISZERO DUP1 ISZERO PUSH2 0xF21 JUMPI POP PUSH1 0x7 SLOAD DUP3 GT ISZERO JUMPDEST DUP1 ISZERO PUSH2 0xF37 JUMPI POP DUP2 PUSH1 0xB SLOAD DUP4 MUL ADD PUSH1 0x9 SLOAD SELFBALANCE SUB LT ISZERO JUMPDEST ISZERO PUSH2 0xF45 JUMPI PUSH1 0x1 SWAP1 POP PUSH2 0xF4A JUMP JUMPDEST PUSH1 0x0 SWAP1 POP JUMPDEST SWAP2 SWAP1 POP JUMP JUMPDEST PUSH1 0xA PUSH1 0x0 DUP2 SLOAD DUP1 SWAP3 SWAP2 SWAP1 PUSH1 0x1 ADD SWAP2 SWAP1 POP SSTORE POP PUSH2 0xF69 PUSH2 0x152F JUMP JUMPDEST PUSH1 0x40 MLOAD DUP1 PUSH1 0xC0 ADD PUSH1 0x40 MSTORE DUP1 PUSH1 0xA SLOAD DUP2 MSTORE PUSH1 0x20 ADD DUP6 PUSH20 0xFFFFFFFFFFFFFFFFFFFFFFFFFFFFFFFFFFFFFFFF AND DUP2 MSTORE PUSH1 0x20 ADD DUP5 DUP2 MSTORE PUSH1 0x20 ADD DUP4 DUP2 MSTORE PUSH1 0x20 ADD PUSH1 0xA PUSH1 0x6 SLOAD ADD DUP2 MSTORE PUSH1 0x20 ADD PUSH1 0x0 ISZERO ISZERO DUP2 MSTORE POP SWAP1 POP DUP1 PUSH1 0xC PUSH1 0x0 DUP4 PUSH1 0x0 ADD MLOAD DUP2 MSTORE PUSH1 0x20 ADD SWAP1 DUP2 MSTORE PUSH1 0x20 ADD PUSH1 0x0 KECCAK256 PUSH1 0x0 DUP3 ADD MLOAD DUP2 PUSH1 0x0 ADD SSTORE PUSH1 0x20 DUP3 ADD MLOAD DUP2 PUSH1 0x1 ADD PUSH1 0x0 PUSH2 0x100 EXP DUP2 SLOAD DUP2 PUSH20 0xFFFFFFFFFFFFFFFFFFFFFFFFFFFFFFFFFFFFFFFF MUL NOT AND SWAP1 DUP4 PUSH20 0xFFFFFFFFFFFFFFFFFFFFFFFFFFFFFFFFFFFFFFFF AND MUL OR SWAP1 SSTORE POP PUSH1 0x40 DUP3 ADD MLOAD DUP2 PUSH1 0x2 ADD SSTORE PUSH1 0x60 DUP3 ADD MLOAD DUP2 PUSH1 0x3 ADD SSTORE PUSH1 0x80 DUP3 ADD MLOAD DUP2 PUSH1 0x4 ADD SSTORE PUSH1 0xA0 DUP3 ADD MLOAD DUP2 PUSH1 0x5 ADD PUSH1 0x0 PUSH2 0x100 EXP DUP2 SLOAD DUP2 PUSH1 0xFF MUL NOT AND SWAP1 DUP4 ISZERO ISZERO MUL OR SWAP1 SSTORE POP SWAP1 POP POP POP POP POP POP JUMP JUMPDEST PUSH1 0x0 PUSH1 0xC PUSH1 0x0 PUSH1 0xD PUSH1 0x0 DUP7 DUP2 MSTORE PUSH1 0x20 ADD SWAP1 DUP2 MSTORE PUSH1 0x20 ADD PUSH1 0x0 KECCAK256 SLOAD DUP2 MSTORE PUSH1 0x20 ADD SWAP1 DUP2 MSTORE PUSH1 0x20 ADD PUSH1 0x0 KECCAK256 SWAP1 POP PUSH1 0x0 DUP2 PUSH1 0x2 ADD SLOAD PUSH1 0xB SLOAD DUP4 PUSH1 0x2 ADD SLOAD MUL ADD SWAP1 POP DUP1 SELFBALANCE LT ISZERO PUSH2 0x10FE JUMPI PUSH1 0x40 MLOAD PUSH32 0x8C379A000000000000000000000000000000000000000000000000000000000 DUP2 MSTORE PUSH1 0x4 ADD DUP1 DUP1 PUSH1 0x20 ADD DUP3 DUP2 SUB DUP3 MSTORE PUSH1 0x33 DUP2 MSTORE PUSH1 0x20 ADD DUP1 PUSH2 0x1631 PUSH1 0x33 SWAP2 CODECOPY PUSH1 0x40 ADD SWAP2 POP POP PUSH1 0x40 MLOAD DUP1 SWAP2 SUB SWAP1 REVERT JUMPDEST PUSH1 0x1 PUSH1 0x6 SLOAD ADD DUP4 DUP2 PUSH2 0x110C JUMPI INVALID JUMPDEST MOD DUP3 PUSH1 0x4 ADD DUP2 SWAP1 SSTORE POP PUSH1 0x1 DUP3 PUSH1 0x5 ADD PUSH1 0x0 PUSH2 0x100 EXP DUP2 SLOAD DUP2 PUSH1 0xFF MUL NOT AND SWAP1 DUP4 ISZERO ISZERO MUL OR SWAP1 SSTORE POP DUP2 PUSH1 0x2 ADD SLOAD PUSH1 0x9 SLOAD LT PUSH2 0x1158 JUMPI DUP2 PUSH1 0x2 ADD SLOAD PUSH1 0x9 PUSH1 0x0 DUP3 DUP3 SLOAD SUB SWAP3 POP POP DUP2 SWAP1 SSTORE POP PUSH2 0x1161 JUMP JUMPDEST PUSH1 0x0 PUSH1 0x9 DUP2 SWAP1 SSTORE POP JUMPDEST DUP2 PUSH1 0x4 ADD SLOAD DUP3 PUSH1 0x3 ADD SLOAD EQ ISZERO PUSH2 0x11DD JUMPI DUP2 PUSH1 0x1 ADD PUSH1 0x0 SWAP1 SLOAD SWAP1 PUSH2 0x100 EXP SWAP1 DIV PUSH20 0xFFFFFFFFFFFFFFFFFFFFFFFFFFFFFFFFFFFFFFFF AND PUSH20 0xFFFFFFFFFFFFFFFFFFFFFFFFFFFFFFFFFFFFFFFF AND PUSH2 0x8FC DUP3 SWAP1 DUP2 ISZERO MUL SWAP1 PUSH1 0x40 MLOAD PUSH1 0x0 PUSH1 0x40 MLOAD DUP1 DUP4 SUB DUP2 DUP6 DUP9 DUP9 CALL SWAP4 POP POP POP POP ISZERO DUP1 ISZERO PUSH2 0x11DB JUMPI RETURNDATASIZE PUSH1 0x0 DUP1 RETURNDATACOPY RETURNDATASIZE PUSH1 0x0 REVERT JUMPDEST POP JUMPDEST POP POP POP POP JUMP JUMPDEST PUSH1 0x0 DUP1 PUSH1 0x0 SWAP1 SLOAD SWAP1 PUSH2 0x100 EXP SWAP1 DIV PUSH20 0xFFFFFFFFFFFFFFFFFFFFFFFFFFFFFFFFFFFFFFFF AND PUSH20 0xFFFFFFFFFFFFFFFFFFFFFFFFFFFFFFFFFFFFFFFF AND PUSH4 0x4000AEA0 PUSH1 0x1 PUSH1 0x0 SWAP1 SLOAD SWAP1 PUSH2 0x100 EXP SWAP1 DIV PUSH20 0xFFFFFFFFFFFFFFFFFFFFFFFFFFFFFFFFFFFFFFFF AND DUP6 DUP8 DUP7 PUSH1 0x40 MLOAD PUSH1 0x20 ADD DUP1 DUP4 DUP2 MSTORE PUSH1 0x20 ADD DUP3 DUP2 MSTORE PUSH1 0x20 ADD SWAP3 POP POP POP PUSH1 0x40 MLOAD PUSH1 0x20 DUP2 DUP4 SUB SUB DUP2 MSTORE SWAP1 PUSH1 0x40 MSTORE PUSH1 0x40 MLOAD DUP5 PUSH4 0xFFFFFFFF AND PUSH1 0xE0 SHL DUP2 MSTORE PUSH1 0x4 ADD DUP1 DUP5 PUSH20 0xFFFFFFFFFFFFFFFFFFFFFFFFFFFFFFFFFFFFFFFF AND PUSH20 0xFFFFFFFFFFFFFFFFFFFFFFFFFFFFFFFFFFFFFFFF AND DUP2 MSTORE PUSH1 0x20 ADD DUP4 DUP2 MSTORE PUSH1 0x20 ADD DUP1 PUSH1 0x20 ADD DUP3 DUP2 SUB DUP3 MSTORE DUP4 DUP2 DUP2 MLOAD DUP2 MSTORE PUSH1 0x20 ADD SWAP2 POP DUP1 MLOAD SWAP1 PUSH1 0x20 ADD SWAP1 DUP1 DUP4 DUP4 PUSH1 0x0 JUMPDEST DUP4 DUP2 LT ISZERO PUSH2 0x12F5 JUMPI DUP1 DUP3 ADD MLOAD DUP2 DUP5 ADD MSTORE PUSH1 0x20 DUP2 ADD SWAP1 POP PUSH2 0x12DA JUMP JUMPDEST POP POP POP POP SWAP1 POP SWAP1 DUP2 ADD SWAP1 PUSH1 0x1F AND DUP1 ISZERO PUSH2 0x1322 JUMPI DUP1 DUP3 SUB DUP1 MLOAD PUSH1 0x1 DUP4 PUSH1 0x20 SUB PUSH2 0x100 EXP SUB NOT AND DUP2 MSTORE PUSH1 0x20 ADD SWAP2 POP JUMPDEST POP SWAP5 POP POP POP POP POP PUSH1 0x20 PUSH1 0x40 MLOAD DUP1 DUP4 SUB DUP2 PUSH1 0x0 DUP8 DUP1 EXTCODESIZE ISZERO DUP1 ISZERO PUSH2 0x1343 JUMPI PUSH1 0x0 DUP1 REVERT JUMPDEST POP GAS CALL ISZERO DUP1 ISZERO PUSH2 0x1357 JUMPI RETURNDATASIZE PUSH1 0x0 DUP1 RETURNDATACOPY RETURNDATASIZE PUSH1 0x0 REVERT JUMPDEST POP POP POP POP PUSH1 0x40 MLOAD RETURNDATASIZE PUSH1 0x20 DUP2 LT ISZERO PUSH2 0x136D JUMPI PUSH1 0x0 DUP1 REVERT JUMPDEST DUP2 ADD SWAP1 DUP1 DUP1 MLOAD SWAP1 PUSH1 0x20 ADD SWAP1 SWAP3 SWAP2 SWAP1 POP POP POP POP PUSH1 0x0 PUSH2 0x13A0 DUP6 DUP5 ADDRESS PUSH1 0x2 PUSH1 0x0 DUP11 DUP2 MSTORE PUSH1 0x20 ADD SWAP1 DUP2 MSTORE PUSH1 0x20 ADD PUSH1 0x0 KECCAK256 SLOAD PUSH2 0x13F4 JUMP JUMPDEST SWAP1 POP PUSH2 0x13C9 PUSH1 0x1 PUSH1 0x2 PUSH1 0x0 DUP9 DUP2 MSTORE PUSH1 0x20 ADD SWAP1 DUP2 MSTORE PUSH1 0x20 ADD PUSH1 0x0 KECCAK256 SLOAD PUSH2 0x146E SWAP1 SWAP2 SWAP1 PUSH4 0xFFFFFFFF AND JUMP JUMPDEST PUSH1 0x2 PUSH1 0x0 DUP8 DUP2 MSTORE PUSH1 0x20 ADD SWAP1 DUP2 MSTORE PUSH1 0x20 ADD PUSH1 0x0 KECCAK256 DUP2 SWAP1 SSTORE POP PUSH2 0x13EA DUP6 DUP3 PUSH2 0x14F6 JUMP JUMPDEST SWAP2 POP POP SWAP4 SWAP3 POP POP POP JUMP JUMPDEST PUSH1 0x0 DUP5 DUP5 DUP5 DUP5 PUSH1 0x40 MLOAD PUSH1 0x20 ADD DUP1 DUP6 DUP2 MSTORE PUSH1 0x20 ADD DUP5 DUP2 MSTORE PUSH1 0x20 ADD DUP4 PUSH20 0xFFFFFFFFFFFFFFFFFFFFFFFFFFFFFFFFFFFFFFFF AND PUSH20 0xFFFFFFFFFFFFFFFFFFFFFFFFFFFFFFFFFFFFFFFF AND DUP2 MSTORE PUSH1 0x20 ADD DUP3 DUP2 MSTORE PUSH1 0x20 ADD SWAP5 POP POP POP POP POP PUSH1 0x40 MLOAD PUSH1 0x20 DUP2 DUP4 SUB SUB DUP2 MSTORE SWAP1 PUSH1 0x40 MSTORE DUP1 MLOAD SWAP1 PUSH1 0x20 ADD KECCAK256 PUSH1 0x0 SHR SWAP1 POP SWAP5 SWAP4 POP POP POP POP JUMP JUMPDEST PUSH1 0x0 DUP1 DUP3 DUP5 ADD SWAP1 POP DUP4 DUP2 LT ISZERO PUSH2 0x14EC JUMPI PUSH1 0x40 MLOAD PUSH32 0x8C379A000000000000000000000000000000000000000000000000000000000 DUP2 MSTORE PUSH1 0x4 ADD DUP1 DUP1 PUSH1 0x20 ADD DUP3 DUP2 SUB DUP3 MSTORE PUSH1 0x1B DUP2 MSTORE PUSH1 0x20 ADD DUP1 PUSH32 0x536166654D6174683A206164646974696F6E206F766572666C6F770000000000 DUP2 MSTORE POP PUSH1 0x20 ADD SWAP2 POP POP PUSH1 0x40 MLOAD DUP1 SWAP2 SUB SWAP1 REVERT JUMPDEST DUP1 SWAP2 POP POP SWAP3 SWAP2 POP POP JUMP JUMPDEST PUSH1 0x0 DUP3 DUP3 PUSH1 0x40 MLOAD PUSH1 0x20 ADD DUP1 DUP4 DUP2 MSTORE PUSH1 0x20 ADD DUP3 DUP2 MSTORE PUSH1 0x20 ADD SWAP3 POP POP POP PUSH1 0x40 MLOAD PUSH1 0x20 DUP2 DUP4 SUB SUB DUP2 MSTORE SWAP1 PUSH1 0x40 MSTORE DUP1 MLOAD SWAP1 PUSH1 0x20 ADD KECCAK256 SWAP1 POP SWAP3 SWAP2 POP POP JUMP JUMPDEST PUSH1 0x40 MLOAD DUP1 PUSH1 0xC0 ADD PUSH1 0x40 MSTORE DUP1 PUSH1 0x0 DUP2 MSTORE PUSH1 0x20 ADD PUSH1 0x0 PUSH20 0xFFFFFFFFFFFFFFFFFFFFFFFFFFFFFFFFFFFFFFFF AND DUP2 MSTORE PUSH1 0x20 ADD PUSH1 0x0 DUP2 MSTORE PUSH1 0x20 ADD PUSH1 0x0 DUP2 MSTORE PUSH1 0x20 ADD PUSH1 0x0 DUP2 MSTORE PUSH1 0x20 ADD PUSH1 0x0 ISZERO ISZERO DUP2 MSTORE POP SWAP1 JUMP INVALID POP PUSH10 0x636B20697320746F6F20 PUSH9 0x6967682E2043686F6F PUSH20 0x652061206C6F776572206E756D6265722E4E6F74 KECCAK256 PUSH6 0x6E6F75676820 PUSH7 0x756E647320666F PUSH19 0x207061796F7574206F72206D61782062657420 PUSH6 0x786365656465 PUSH5 0x2E436F6E74 PUSH19 0x6163742062616C616E636520746F6F206C6F77 0x2E KECCAK256 POP PUSH13 0x65617365207472792061676169 PUSH15 0x206C617465722E47616D6520616C72 PUSH6 0x61647920636F PUSH14 0x706C6574652E204E6F2072656675 PUSH15 0x6420706F737369626C652E556E6162 PUSH13 0x6520746F207061792E20506C65 PUSH2 0x7365 KECCAK256 PUSH17 0x6C617920616761696E206F722072657175 PUSH6 0x737420726566 PUSH22 0x6E642EA264697066735822122028067E9B393C6B7E24 PUSH25 0x7E0E18A53FE16B00B04BA330348DFE745F604783ED6164736F PUSH13 0x63430006000033000000000000 "},"gasEstimates":{"creation":{"codeDepositCost":"1157000","executionCost":"infinite","totalCost":"infinite"},"external":{"_currentGame()":"1116","_gameRequsts(bytes32)":"1252","_unplayedBets()":"1072","canPlayGame(uint256)":"3752","closeMachine()":"infinite","fundMachine()":"188","games(uint256)":"5479","getRandomNumber(uint256)":"infinite","getSeed()":"325","maxBet()":"1095","minBet()":"1094","nonces(bytes32)":"1185","owner()":"1098","payout()":"1050","placeBet(uint256)":"infinite","playGame(uint256)":"infinite","rawFulfillRandomness(bytes32,uint256)":"infinite","requestRefund(uint256)":"infinite","setMaxBet(uint256)":"20353","setMinBet(uint256)":"20265"},"internal":{"createGame(address payable,uint256,uint256)":"infinite","fulfillRandomness(bytes32,uint256)":"infinite"}},"methodIdentifiers":{"_currentGame()":"9920cf81","_gameRequsts(bytes32)":"6cc96ad9","_unplayedBets()":"6b25d296","canPlayGame(uint256)":"ec3d0fc7","closeMachine()":"b93030b3","fundMachine()":"2de0f182","games(uint256)":"117a5b90","getRandomNumber(uint256)":"b37217a4","getSeed()":"39e7357c","maxBet()":"2e5b2168","minBet()":"9619367d","nonces(bytes32)":"9e317f12","owner()":"8da5cb5b","payout()":"63bd1d4a","placeBet(uint256)":"10fe7c48","playGame(uint256)":"5873533d","rawFulfillRandomness(bytes32,uint256)":"94985ddd","requestRefund(uint256)":"a4b2409e","setMaxBet(uint256)":"881eff1e","setMinBet(uint256)":"88ea41b9"}},"storageLayout":{"storage":[{"astId":339,"contract":"LuckyMachine.sol:LuckyMachine","label":"LINK","offset":0,"slot":"0","type":"t_contract(LinkTokenInterface)271"},{"astId":341,"contract":"LuckyMachine.sol:LuckyMachine","label":"vrfCoordinator","offset":0,"slot":"1","type":"t_address"},{"astId":345,"contract":"LuckyMachine.sol:LuckyMachine","label":"nonces","offset":0,"slot":"2","type":"t_mapping(t_bytes32,t_uint256)"},{"astId":389,"contract":"LuckyMachine.sol:LuckyMachine","label":"owner","offset":0,"slot":"3","type":"t_address_payable"},{"astId":391,"contract":"LuckyMachine.sol:LuckyMachine","label":"keyHash","offset":0,"slot":"4","type":"t_bytes32"},{"astId":393,"contract":"LuckyMachine.sol:LuckyMachine","label":"fee","offset":0,"slot":"5","type":"t_uint256"},{"astId":408,"contract":"LuckyMachine.sol:LuckyMachine","label":"maxPick","offset":0,"slot":"6","type":"t_uint256"},{"astId":410,"contract":"LuckyMachine.sol:LuckyMachine","label":"maxBet","offset":0,"slot":"7","type":"t_uint256"},{"astId":412,"contract":"LuckyMachine.sol:LuckyMachine","label":"minBet","offset":0,"slot":"8","type":"t_uint256"},{"astId":414,"contract":"LuckyMachine.sol:LuckyMachine","label":"_unplayedBets","offset":0,"slot":"9","type":"t_uint256"},{"astId":416,"contract":"LuckyMachine.sol:LuckyMachine","label":"_currentGame","offset":0,"slot":"10","type":"t_uint256"},{"astId":418,"contract":"LuckyMachine.sol:LuckyMachine","label":"payout","offset":0,"slot":"11","type":"t_uint256"},{"astId":422,"contract":"LuckyMachine.sol:LuckyMachine","label":"games","offset":0,"slot":"12","type":"t_mapping(t_uint256,t_struct(Game)406_storage)"},{"astId":426,"contract":"LuckyMachine.sol:LuckyMachine","label":"_gameRequsts","offset":0,"slot":"13","type":"t_mapping(t_bytes32,t_uint256)"}],"types":{"t_address":{"encoding":"inplace","label":"address","numberOfBytes":"20"},"t_address_payable":{"encoding":"inplace","label":"address payable","numberOfBytes":"20"},"t_bool":{"encoding":"inplace","label":"bool","numberOfBytes":"1"},"t_bytes32":{"encoding":"inplace","label":"bytes32","numberOfBytes":"32"},"t_contract(LinkTokenInterface)271":{"encoding":"inplace","label":"contract LinkTokenInterface","numberOfBytes":"20"},"t_mapping(t_bytes32,t_uint256)":{"encoding":"mapping","key":"t_bytes32","label":"mapping(bytes32 => uint256)","numberOfBytes":"32","value":"t_uint256"},"t_mapping(t_uint256,t_struct(Game)406_storage)":{"encoding":"mapping","key":"t_uint256","label":"mapping(uint256 => struct LuckyMachine.Game)","numberOfBytes":"32","value":"t_struct(Game)406_storage"},"t_struct(Game)406_storage":{"encoding":"inplace","label":"struct LuckyMachine.Game","members":[{"astId":395,"contract":"LuckyMachine.sol:LuckyMachine","label":"id","offset":0,"slot":"0","type":"t_uint256"},{"astId":397,"contract":"LuckyMachine.sol:LuckyMachine","label":"player","offset":0,"slot":"1","type":"t_address_payable"},{"astId":399,"contract":"LuckyMachine.sol:LuckyMachine","label":"bet","offset":0,"slot":"2","type":"t_uint256"},{"astId":401,"contract":"LuckyMachine.sol:LuckyMachine","label":"pick","offset":0,"slot":"3","type":"t_uint256"},{"astId":403,"contract":"LuckyMachine.sol:LuckyMachine","label":"winner","offset":0,"slot":"4","type":"t_uint256"},{"astId":405,"contract":"LuckyMachine.sol:LuckyMachine","label":"played","offset":0,"slot":"5","type":"t_bool"}],"numberOfBytes":"192"},"t_uint256":{"encoding":"inplace","label":"uint256","numberOfBytes":"32"}}},"userdoc":{"methods":{}}}