{"abi":[{"inputs":[{"internalType":"address payable","name":"_payoutAddress","type":"address"},{"internalType":"uint256","name":"_maxBet","type":"uint256"},{"internalType":"uint256","name":"_minBet","type":"uint256"},{"internalType":"uint256","name":"_maxPick","type":"uint256"},{"internalType":"uint256","name":"_payout","type":"uint256"}],"stateMutability":"nonpayable","type":"constructor"},{"anonymous":false,"inputs":[{"indexed":true,"internalType":"address","name":"previousOwner","type":"address"},{"indexed":true,"internalType":"address","name":"newOwner","type":"address"}],"name":"OwnershipTransferred","type":"event"},{"inputs":[],"name":"_currentGame","outputs":[{"internalType":"uint256","name":"","type":"uint256"}],"stateMutability":"view","type":"function"},{"inputs":[{"internalType":"bytes32","name":"","type":"bytes32"}],"name":"_gameRequests","outputs":[{"internalType":"uint256","name":"","type":"uint256"}],"stateMutability":"view","type":"function"},{"inputs":[],"name":"_unplayedBets","outputs":[{"internalType":"uint256","name":"","type":"uint256"}],"stateMutability":"view","type":"function"},{"inputs":[{"internalType":"uint256","name":"bet","type":"uint256"}],"name":"betInRange","outputs":[{"internalType":"bool","name":"","type":"bool"}],"stateMutability":"view","type":"function"},{"inputs":[{"internalType":"uint256","name":"bet","type":"uint256"}],"name":"betPayable","outputs":[{"internalType":"bool","name":"","type":"bool"}],"stateMutability":"view","type":"function"},{"inputs":[],"name":"closeMachine","outputs":[],"stateMutability":"nonpayable","type":"function"},{"inputs":[],"name":"fundMachine","outputs":[],"stateMutability":"payable","type":"function"},{"inputs":[{"internalType":"uint256","name":"","type":"uint256"}],"name":"games","outputs":[{"internalType":"uint256","name":"id","type":"uint256"},{"internalType":"address payable","name":"player","type":"address"},{"internalType":"uint256","name":"bet","type":"uint256"},{"internalType":"uint256","name":"pick","type":"uint256"},{"internalType":"uint256","name":"winner","type":"uint256"},{"internalType":"bool","name":"played","type":"bool"}],"stateMutability":"view","type":"function"},{"inputs":[{"internalType":"uint256","name":"seed","type":"uint256"}],"name":"getRandomNumber","outputs":[{"internalType":"bytes32","name":"requestId","type":"bytes32"}],"stateMutability":"nonpayable","type":"function"},{"inputs":[],"name":"getSeed","outputs":[{"internalType":"uint256","name":"","type":"uint256"}],"stateMutability":"view","type":"function"},{"inputs":[],"name":"getSummary","outputs":[{"internalType":"uint256","name":"","type":"uint256"},{"internalType":"uint256","name":"","type":"uint256"},{"internalType":"uint256","name":"","type":"uint256"},{"internalType":"uint256","name":"","type":"uint256"}],"stateMutability":"view","type":"function"},{"inputs":[],"name":"maxBet","outputs":[{"internalType":"uint256","name":"","type":"uint256"}],"stateMutability":"view","type":"function"},{"inputs":[],"name":"maxPick","outputs":[{"internalType":"uint256","name":"","type":"uint256"}],"stateMutability":"view","type":"function"},{"inputs":[],"name":"minBet","outputs":[{"internalType":"uint256","name":"","type":"uint256"}],"stateMutability":"view","type":"function"},{"inputs":[{"internalType":"bytes32","name":"","type":"bytes32"}],"name":"nonces","outputs":[{"internalType":"uint256","name":"","type":"uint256"}],"stateMutability":"view","type":"function"},{"inputs":[],"name":"owner","outputs":[{"internalType":"address","name":"","type":"address"}],"stateMutability":"view","type":"function"},{"inputs":[],"name":"payout","outputs":[{"internalType":"uint256","name":"","type":"uint256"}],"stateMutability":"view","type":"function"},{"inputs":[],"name":"payoutAddress","outputs":[{"internalType":"address payable","name":"","type":"address"}],"stateMutability":"view","type":"function"},{"inputs":[{"internalType":"uint256","name":"pick","type":"uint256"}],"name":"placeBet","outputs":[],"stateMutability":"payable","type":"function"},{"inputs":[{"internalType":"address payable","name":"player","type":"address"},{"internalType":"uint256","name":"pick","type":"uint256"}],"name":"placeBetFor","outputs":[],"stateMutability":"payable","type":"function"},{"inputs":[{"internalType":"uint256","name":"gameID","type":"uint256"}],"name":"playGame","outputs":[],"stateMutability":"nonpayable","type":"function"},{"inputs":[{"internalType":"bytes32","name":"requestId","type":"bytes32"},{"internalType":"uint256","name":"randomness","type":"uint256"}],"name":"rawFulfillRandomness","outputs":[],"stateMutability":"nonpayable","type":"function"},{"inputs":[],"name":"renounceOwnership","outputs":[],"stateMutability":"nonpayable","type":"function"},{"inputs":[{"internalType":"uint256","name":"gameID","type":"uint256"}],"name":"requestRefund","outputs":[],"stateMutability":"nonpayable","type":"function"},{"inputs":[{"internalType":"bytes32","name":"_keyHash","type":"bytes32"}],"name":"setKeyHash","outputs":[],"stateMutability":"nonpayable","type":"function"},{"inputs":[{"internalType":"address","name":"_linkAddress","type":"address"}],"name":"setLINK","outputs":[],"stateMutability":"nonpayable","type":"function"},{"inputs":[{"internalType":"uint256","name":"_maxBet","type":"uint256"}],"name":"setMaxBet","outputs":[],"stateMutability":"nonpayable","type":"function"},{"inputs":[{"internalType":"uint256","name":"_minBet","type":"uint256"}],"name":"setMinBet","outputs":[],"stateMutability":"nonpayable","type":"function"},{"inputs":[{"internalType":"uint256","name":"_payout","type":"uint256"}],"name":"setPayout","outputs":[],"stateMutability":"nonpayable","type":"function"},{"inputs":[{"internalType":"address payable","name":"_payoutAddress","type":"address"}],"name":"setPayoutAddress","outputs":[],"stateMutability":"nonpayable","type":"function"},{"inputs":[{"internalType":"address","name":"_vrfCoordinator","type":"address"}],"name":"setVRFCoordinator","outputs":[],"stateMutability":"nonpayable","type":"function"},{"inputs":[],"name":"testCloseMachine","outputs":[],"stateMutability":"nonpayable","type":"function"},{"inputs":[{"internalType":"address payable","name":"_player","type":"address"},{"internalType":"uint256","name":"_bet","type":"uint256"},{"internalType":"uint256","name":"_pick","type":"uint256"},{"internalType":"bool","name":"_played","type":"bool"},{"internalType":"uint256","name":"_gameID","type":"uint256"}],"name":"testCreateGame","outputs":[],"stateMutability":"nonpayable","type":"function"},{"inputs":[{"internalType":"address payable","name":"player","type":"address"},{"internalType":"uint256","name":"pick","type":"uint256"},{"internalType":"uint256","name":"testRandomNumber","type":"uint256"}],"name":"testPlaceBetFor","outputs":[],"stateMutability":"payable","type":"function"},{"inputs":[{"internalType":"uint256","name":"gameID","type":"uint256"},{"internalType":"uint256","name":"testRandomNumber","type":"uint256"}],"name":"testPlayGame","outputs":[],"stateMutability":"nonpayable","type":"function"},{"inputs":[{"internalType":"address","name":"newOwner","type":"address"}],"name":"transferOwnership","outputs":[],"stateMutability":"nonpayable","type":"function"},{"stateMutability":"payable","type":"receive"}],"devdoc":{"methods":{"owner()":{"details":"Returns the address of the current owner."},"renounceOwnership()":{"details":"Leaves the contract without owner. It will not be possible to call `onlyOwner` functions anymore. Can only be called by the current owner.     * NOTE: Renouncing ownership will leave the contract without an owner, thereby removing any functionality that is only available to the owner."},"transferOwnership(address)":{"details":"Transfers ownership of the contract to a new account (`newOwner`). Can only be called by the current owner."}}},"evm":{"assembly":"    /* \"AllContracts.sol\":5733:14995  contract LuckyMachine is VRFConsumerBase, Ownable {... */\n  mstore(0x40, 0x80)\n    /* \"AllContracts.sol\":6714:7446  constructor(address payable _payoutAddress, uint _maxBet, uint _minBet, uint _maxPick, uint _payout)... */\n  callvalue\n    /* \"--CODEGEN--\":8:17   */\n  dup1\n    /* \"--CODEGEN--\":5:7   */\n  iszero\n  tag_1\n  jumpi\n    /* \"--CODEGEN--\":30:31   */\n  0x00\n    /* \"--CODEGEN--\":27:28   */\n  dup1\n    /* \"--CODEGEN--\":20:32   */\n  revert\n    /* \"--CODEGEN--\":5:7   */\ntag_1:\n    /* \"AllContracts.sol\":6714:7446  constructor(address payable _payoutAddress, uint _maxBet, uint _minBet, uint _maxPick, uint _payout)... */\n  pop\n  mload(0x40)\n  sub(codesize, bytecodeSize)\n  dup1\n  bytecodeSize\n  dup4\n  codecopy\n  dup2\n  dup2\n  add\n  0x40\n  mstore\n    /* \"--CODEGEN--\":13:16   */\n  0xa0\n    /* \"--CODEGEN--\":8:11   */\n  dup2\n    /* \"--CODEGEN--\":5:17   */\n  lt\n    /* \"--CODEGEN--\":2:4   */\n  iszero\n  tag_2\n  jumpi\n    /* \"--CODEGEN--\":30:31   */\n  0x00\n    /* \"--CODEGEN--\":27:28   */\n  dup1\n    /* \"--CODEGEN--\":20:32   */\n  revert\n    /* \"--CODEGEN--\":2:4   */\ntag_2:\n    /* \"AllContracts.sol\":6714:7446  constructor(address payable _payoutAddress, uint _maxBet, uint _minBet, uint _maxPick, uint _payout)... */\n  dup2\n  add\n  swap1\n  dup1\n  dup1\n  mload\n  swap1\n  0x20\n  add\n  swap1\n  swap3\n  swap2\n  swap1\n  dup1\n  mload\n  swap1\n  0x20\n  add\n  swap1\n  swap3\n  swap2\n  swap1\n  dup1\n  mload\n  swap1\n  0x20\n  add\n  swap1\n  swap3\n  swap2\n  swap1\n  dup1\n  mload\n  swap1\n  0x20\n  add\n  swap1\n  swap3\n  swap2\n  swap1\n  dup1\n  mload\n  swap1\n  0x20\n  add\n  swap1\n  swap3\n  swap2\n  swap1\n  pop\n  pop\n  pop\n    /* \"AllContracts.sol\":6925:6967  0xdD3782915140c8f3b190B5D67eAc6dc5760C46E9 */\n  0xdd3782915140c8f3b190b5d67eac6dc5760c46e9\n    /* \"AllContracts.sol\":7000:7042  0xa36085F69e2889c224210F603D836748e7dC0088 */\n  0xa36085f69e2889c224210f603d836748e7dc0088\n    /* \"AllContracts.sol\":5460:5475  _vrfCoordinator */\n  dup2\n    /* \"AllContracts.sol\":5443:5457  vrfCoordinator */\n  0x01\n  0x00\n    /* \"AllContracts.sol\":5443:5475  vrfCoordinator = _vrfCoordinator */\n  0x0100\n  exp\n  dup2\n  sload\n  dup2\n  0xffffffffffffffffffffffffffffffffffffffff\n  mul\n  not\n  and\n  swap1\n  dup4\n  0xffffffffffffffffffffffffffffffffffffffff\n  and\n  mul\n  or\n  swap1\n  sstore\n  pop\n    /* \"AllContracts.sol\":5507:5512  _link */\n  dup1\n    /* \"AllContracts.sol\":5481:5485  LINK */\n  0x00\n  dup1\n    /* \"AllContracts.sol\":5481:5513  LINK = LinkTokenInterface(_link) */\n  0x0100\n  exp\n  dup2\n  sload\n  dup2\n  0xffffffffffffffffffffffffffffffffffffffff\n  mul\n  not\n  and\n  swap1\n  dup4\n  0xffffffffffffffffffffffffffffffffffffffff\n  and\n  mul\n  or\n  swap1\n  sstore\n  pop\n    /* \"AllContracts.sol\":5378:5518  constructor(address _vrfCoordinator, address _link) public {... */\n  pop\n  pop\n    /* \"AllContracts.sol\":726:743  address msgSender */\n  0x00\n    /* \"AllContracts.sol\":746:758  _msgSender() */\n  tag_8\n    /* \"AllContracts.sol\":746:756  _msgSender */\n  shl(0x20, tag_9)\n    /* \"AllContracts.sol\":746:758  _msgSender() */\n  0x20\n  shr\n  jump\t// in\ntag_8:\n    /* \"AllContracts.sol\":726:758  address msgSender = _msgSender() */\n  swap1\n  pop\n    /* \"AllContracts.sol\":777:786  msgSender */\n  dup1\n    /* \"AllContracts.sol\":768:774  _owner */\n  0x03\n  0x00\n    /* \"AllContracts.sol\":768:786  _owner = msgSender */\n  0x0100\n  exp\n  dup2\n  sload\n  dup2\n  0xffffffffffffffffffffffffffffffffffffffff\n  mul\n  not\n  and\n  swap1\n  dup4\n  0xffffffffffffffffffffffffffffffffffffffff\n  and\n  mul\n  or\n  swap1\n  sstore\n  pop\n    /* \"AllContracts.sol\":834:843  msgSender */\n  dup1\n    /* \"AllContracts.sol\":801:844  OwnershipTransferred(address(0), msgSender) */\n  0xffffffffffffffffffffffffffffffffffffffff\n  and\n    /* \"AllContracts.sol\":830:831  0 */\n  0x00\n    /* \"AllContracts.sol\":801:844  OwnershipTransferred(address(0), msgSender) */\n  0xffffffffffffffffffffffffffffffffffffffff\n  and\n  0x8be0079c531659141344cd1fd0a4f28419497f9722a3daafe3b4186f6b6457e0\n  mload(0x40)\n  mload(0x40)\n  dup1\n  swap2\n  sub\n  swap1\n  log3\n    /* \"AllContracts.sol\":692:851  constructor () internal {... */\n  pop\n    /* \"AllContracts.sol\":7099:7165  0x6c3699283bda56ad74f6b855546325b68d482e983852a7a82979cc4807b641f4 */\n  0x6c3699283bda56ad74f6b855546325b68d482e983852a7a82979cc4807b641f4\n    /* \"AllContracts.sol\":7089:7165  keyHash = 0x6c3699283bda56ad74f6b855546325b68d482e983852a7a82979cc4807b641f4 */\n  0x00\n  shl\n    /* \"AllContracts.sol\":7089:7096  keyHash */\n  0x04\n    /* \"AllContracts.sol\":7089:7165  keyHash = 0x6c3699283bda56ad74f6b855546325b68d482e983852a7a82979cc4807b641f4 */\n  dup2\n  swap1\n  sstore\n  pop\n    /* \"AllContracts.sol\":7185:7199  0.1 * 10 ** 18 */\n  0x016345785d8a0000\n    /* \"AllContracts.sol\":7179:7182  fee */\n  0x05\n    /* \"AllContracts.sol\":7179:7199  fee = 0.1 * 10 ** 18 */\n  dup2\n  swap1\n  sstore\n  pop\n    /* \"AllContracts.sol\":7241:7242  0 */\n  0x00\n    /* \"AllContracts.sol\":7226:7238  _currentGame */\n  0x0a\n    /* \"AllContracts.sol\":7226:7242  _currentGame = 0 */\n  dup2\n  swap1\n  sstore\n  pop\n    /* \"AllContracts.sol\":7272:7273  0 */\n  0x00\n    /* \"AllContracts.sol\":7256:7269  _unplayedBets */\n  0x09\n    /* \"AllContracts.sol\":7256:7273  _unplayedBets = 0 */\n  dup2\n  swap1\n  sstore\n  pop\n    /* \"AllContracts.sol\":7303:7317  _payoutAddress */\n  dup5\n    /* \"AllContracts.sol\":7287:7300  payoutAddress */\n  0x0b\n  0x00\n    /* \"AllContracts.sol\":7287:7317  payoutAddress = _payoutAddress */\n  0x0100\n  exp\n  dup2\n  sload\n  dup2\n  0xffffffffffffffffffffffffffffffffffffffff\n  mul\n  not\n  and\n  swap1\n  dup4\n  0xffffffffffffffffffffffffffffffffffffffff\n  and\n  mul\n  or\n  swap1\n  sstore\n  pop\n    /* \"AllContracts.sol\":7340:7347  _minBet */\n  dup3\n    /* \"AllContracts.sol\":7331:7337  minBet */\n  0x08\n    /* \"AllContracts.sol\":7331:7347  minBet = _minBet */\n  dup2\n  swap1\n  sstore\n  pop\n    /* \"AllContracts.sol\":7370:7377  _maxBet */\n  dup4\n    /* \"AllContracts.sol\":7361:7367  maxBet */\n  0x07\n    /* \"AllContracts.sol\":7361:7377  maxBet = _maxBet */\n  dup2\n  swap1\n  sstore\n  pop\n    /* \"AllContracts.sol\":7401:7409  _maxPick */\n  dup2\n    /* \"AllContracts.sol\":7391:7398  maxPick */\n  0x06\n    /* \"AllContracts.sol\":7391:7409  maxPick = _maxPick */\n  dup2\n  swap1\n  sstore\n  pop\n    /* \"AllContracts.sol\":7432:7439  _payout */\n  dup1\n    /* \"AllContracts.sol\":7423:7429  payout */\n  0x0c\n    /* \"AllContracts.sol\":7423:7439  payout = _payout */\n  dup2\n  swap1\n  sstore\n  pop\n    /* \"AllContracts.sol\":6714:7446  constructor(address payable _payoutAddress, uint _maxBet, uint _minBet, uint _maxPick, uint _payout)... */\n  pop\n  pop\n  pop\n  pop\n  pop\n    /* \"AllContracts.sol\":5733:14995  contract LuckyMachine is VRFConsumerBase, Ownable {... */\n  jump(tag_11)\n    /* \"AllContracts.sol\":90:194  function _msgSender() internal view virtual returns (address payable) {... */\ntag_9:\n    /* \"AllContracts.sol\":143:158  address payable */\n  0x00\n    /* \"AllContracts.sol\":177:187  msg.sender */\n  caller\n    /* \"AllContracts.sol\":170:187  return msg.sender */\n  swap1\n  pop\n    /* \"AllContracts.sol\":90:194  function _msgSender() internal view virtual returns (address payable) {... */\n  swap1\n  jump\t// out\n    /* \"AllContracts.sol\":5733:14995  contract LuckyMachine is VRFConsumerBase, Ownable {... */\ntag_11:\n  dataSize(sub_0)\n  dup1\n  dataOffset(sub_0)\n  0x00\n  codecopy\n  0x00\n  return\nstop\n\nsub_0: assembly {\n        /* \"AllContracts.sol\":5733:14995  contract LuckyMachine is VRFConsumerBase, Ownable {... */\n      mstore(0x40, 0x80)\n      jumpi(tag_1, lt(calldatasize, 0x04))\n      shr(0xe0, calldataload(0x00))\n      dup1\n      0x881eff1e\n      gt\n      tag_39\n      jumpi\n      dup1\n      0xa4b2409e\n      gt\n      tag_40\n      jumpi\n      dup1\n      0xc955e79c\n      gt\n      tag_41\n      jumpi\n      dup1\n      0xc955e79c\n      eq\n      tag_34\n      jumpi\n      dup1\n      0xde4fa6af\n      eq\n      tag_35\n      jumpi\n      dup1\n      0xf2fde38b\n      eq\n      tag_36\n      jumpi\n      dup1\n      0xfa63b7ad\n      eq\n      tag_37\n      jumpi\n      dup1\n      0xfafacab2\n      eq\n      tag_38\n      jumpi\n      jump(tag_2)\n    tag_41:\n      dup1\n      0xa4b2409e\n      eq\n      tag_30\n      jumpi\n      dup1\n      0xac150fd8\n      eq\n      tag_31\n      jumpi\n      dup1\n      0xb37217a4\n      eq\n      tag_32\n      jumpi\n      dup1\n      0xb93030b3\n      eq\n      tag_33\n      jumpi\n      jump(tag_2)\n    tag_40:\n      dup1\n      0x9619367d\n      gt\n      tag_42\n      jumpi\n      dup1\n      0x9619367d\n      eq\n      tag_25\n      jumpi\n      dup1\n      0x98544710\n      eq\n      tag_26\n      jumpi\n      dup1\n      0x9920cf81\n      eq\n      tag_27\n      jumpi\n      dup1\n      0x9e317f12\n      eq\n      tag_28\n      jumpi\n      dup1\n      0xa02e0616\n      eq\n      tag_29\n      jumpi\n      jump(tag_2)\n    tag_42:\n      dup1\n      0x881eff1e\n      eq\n      tag_21\n      jumpi\n      dup1\n      0x88ea41b9\n      eq\n      tag_22\n      jumpi\n      dup1\n      0x8da5cb5b\n      eq\n      tag_23\n      jumpi\n      dup1\n      0x94985ddd\n      eq\n      tag_24\n      jumpi\n      jump(tag_2)\n    tag_39:\n      dup1\n      0x44c18aa7\n      gt\n      tag_43\n      jumpi\n      dup1\n      0x6168eac9\n      gt\n      tag_44\n      jumpi\n      dup1\n      0x6168eac9\n      eq\n      tag_16\n      jumpi\n      dup1\n      0x63bd1d4a\n      eq\n      tag_17\n      jumpi\n      dup1\n      0x6b25d296\n      eq\n      tag_18\n      jumpi\n      dup1\n      0x715018a6\n      eq\n      tag_19\n      jumpi\n      dup1\n      0x82e39ac5\n      eq\n      tag_20\n      jumpi\n      jump(tag_2)\n    tag_44:\n      dup1\n      0x44c18aa7\n      eq\n      tag_12\n      jumpi\n      dup1\n      0x44ff81ce\n      eq\n      tag_13\n      jumpi\n      dup1\n      0x5873533d\n      eq\n      tag_14\n      jumpi\n      dup1\n      0x5b8d02d7\n      eq\n      tag_15\n      jumpi\n      jump(tag_2)\n    tag_43:\n      dup1\n      0x2e5b2168\n      gt\n      tag_45\n      jumpi\n      dup1\n      0x2e5b2168\n      eq\n      tag_7\n      jumpi\n      dup1\n      0x2ee42d8a\n      eq\n      tag_8\n      jumpi\n      dup1\n      0x33ea51a8\n      eq\n      tag_9\n      jumpi\n      dup1\n      0x39e7357c\n      eq\n      tag_10\n      jumpi\n      dup1\n      0x4051ddac\n      eq\n      tag_11\n      jumpi\n      jump(tag_2)\n    tag_45:\n      dup1\n      0x0c610a12\n      eq\n      tag_3\n      jumpi\n      dup1\n      0x10fe7c48\n      eq\n      tag_4\n      jumpi\n      dup1\n      0x117a5b90\n      eq\n      tag_5\n      jumpi\n      dup1\n      0x2de0f182\n      eq\n      tag_6\n      jumpi\n      jump(tag_2)\n    tag_1:\n      jumpi(tag_2, calldatasize)\n      stop\n    tag_2:\n      0x00\n      dup1\n      revert\n        /* \"AllContracts.sol\":7970:8119  function betPayable(uint bet) public view returns(bool){... */\n    tag_3:\n      callvalue\n        /* \"--CODEGEN--\":8:17   */\n      dup1\n        /* \"--CODEGEN--\":5:7   */\n      iszero\n      tag_48\n      jumpi\n        /* \"--CODEGEN--\":30:31   */\n      0x00\n        /* \"--CODEGEN--\":27:28   */\n      dup1\n        /* \"--CODEGEN--\":20:32   */\n      revert\n        /* \"--CODEGEN--\":5:7   */\n    tag_48:\n        /* \"AllContracts.sol\":7970:8119  function betPayable(uint bet) public view returns(bool){... */\n      pop\n      tag_49\n      0x04\n      dup1\n      calldatasize\n      sub\n        /* \"--CODEGEN--\":13:15   */\n      0x20\n        /* \"--CODEGEN--\":8:11   */\n      dup2\n        /* \"--CODEGEN--\":5:16   */\n      lt\n        /* \"--CODEGEN--\":2:4   */\n      iszero\n      tag_50\n      jumpi\n        /* \"--CODEGEN--\":29:30   */\n      0x00\n        /* \"--CODEGEN--\":26:27   */\n      dup1\n        /* \"--CODEGEN--\":19:31   */\n      revert\n        /* \"--CODEGEN--\":2:4   */\n    tag_50:\n        /* \"AllContracts.sol\":7970:8119  function betPayable(uint bet) public view returns(bool){... */\n      dup2\n      add\n      swap1\n      dup1\n      dup1\n      calldataload\n      swap1\n      0x20\n      add\n      swap1\n      swap3\n      swap2\n      swap1\n      pop\n      pop\n      pop\n      tag_51\n      jump\t// in\n    tag_49:\n      mload(0x40)\n      dup1\n      dup3\n      iszero\n      iszero\n      iszero\n      iszero\n      dup2\n      mstore\n      0x20\n      add\n      swap2\n      pop\n      pop\n      mload(0x40)\n      dup1\n      swap2\n      sub\n      swap1\n      return\n        /* \"AllContracts.sol\":8125:8255  function placeBet(uint pick) public payable{... */\n    tag_4:\n      tag_52\n      0x04\n      dup1\n      calldatasize\n      sub\n        /* \"--CODEGEN--\":13:15   */\n      0x20\n        /* \"--CODEGEN--\":8:11   */\n      dup2\n        /* \"--CODEGEN--\":5:16   */\n      lt\n        /* \"--CODEGEN--\":2:4   */\n      iszero\n      tag_53\n      jumpi\n        /* \"--CODEGEN--\":29:30   */\n      0x00\n        /* \"--CODEGEN--\":26:27   */\n      dup1\n        /* \"--CODEGEN--\":19:31   */\n      revert\n        /* \"--CODEGEN--\":2:4   */\n    tag_53:\n        /* \"AllContracts.sol\":8125:8255  function placeBet(uint pick) public payable{... */\n      dup2\n      add\n      swap1\n      dup1\n      dup1\n      calldataload\n      swap1\n      0x20\n      add\n      swap1\n      swap3\n      swap2\n      swap1\n      pop\n      pop\n      pop\n      tag_54\n      jump\t// in\n    tag_52:\n      stop\n        /* \"AllContracts.sol\":6622:6656  mapping(uint => Game) public games */\n    tag_5:\n      callvalue\n        /* \"--CODEGEN--\":8:17   */\n      dup1\n        /* \"--CODEGEN--\":5:7   */\n      iszero\n      tag_55\n      jumpi\n        /* \"--CODEGEN--\":30:31   */\n      0x00\n        /* \"--CODEGEN--\":27:28   */\n      dup1\n        /* \"--CODEGEN--\":20:32   */\n      revert\n        /* \"--CODEGEN--\":5:7   */\n    tag_55:\n        /* \"AllContracts.sol\":6622:6656  mapping(uint => Game) public games */\n      pop\n      tag_56\n      0x04\n      dup1\n      calldatasize\n      sub\n        /* \"--CODEGEN--\":13:15   */\n      0x20\n        /* \"--CODEGEN--\":8:11   */\n      dup2\n        /* \"--CODEGEN--\":5:16   */\n      lt\n        /* \"--CODEGEN--\":2:4   */\n      iszero\n      tag_57\n      jumpi\n        /* \"--CODEGEN--\":29:30   */\n      0x00\n        /* \"--CODEGEN--\":26:27   */\n      dup1\n        /* \"--CODEGEN--\":19:31   */\n      revert\n        /* \"--CODEGEN--\":2:4   */\n    tag_57:\n        /* \"AllContracts.sol\":6622:6656  mapping(uint => Game) public games */\n      dup2\n      add\n      swap1\n      dup1\n      dup1\n      calldataload\n      swap1\n      0x20\n      add\n      swap1\n      swap3\n      swap2\n      swap1\n      pop\n      pop\n      pop\n      tag_58\n      jump\t// in\n    tag_56:\n      mload(0x40)\n      dup1\n      dup8\n      dup2\n      mstore\n      0x20\n      add\n      dup7\n      0xffffffffffffffffffffffffffffffffffffffff\n      and\n      0xffffffffffffffffffffffffffffffffffffffff\n      and\n      dup2\n      mstore\n      0x20\n      add\n      dup6\n      dup2\n      mstore\n      0x20\n      add\n      dup5\n      dup2\n      mstore\n      0x20\n      add\n      dup4\n      dup2\n      mstore\n      0x20\n      add\n      dup3\n      iszero\n      iszero\n      iszero\n      iszero\n      dup2\n      mstore\n      0x20\n      add\n      swap7\n      pop\n      pop\n      pop\n      pop\n      pop\n      pop\n      pop\n      mload(0x40)\n      dup1\n      swap2\n      sub\n      swap1\n      return\n        /* \"AllContracts.sol\":11321:11367  function fundMachine() public payable {... */\n    tag_6:\n      tag_59\n      tag_60\n      jump\t// in\n    tag_59:\n      stop\n        /* \"AllContracts.sol\":6399:6417  uint public maxBet */\n    tag_7:\n      callvalue\n        /* \"--CODEGEN--\":8:17   */\n      dup1\n        /* \"--CODEGEN--\":5:7   */\n      iszero\n      tag_61\n      jumpi\n        /* \"--CODEGEN--\":30:31   */\n      0x00\n        /* \"--CODEGEN--\":27:28   */\n      dup1\n        /* \"--CODEGEN--\":20:32   */\n      revert\n        /* \"--CODEGEN--\":5:7   */\n    tag_61:\n        /* \"AllContracts.sol\":6399:6417  uint public maxBet */\n      pop\n      tag_62\n      tag_63\n      jump\t// in\n    tag_62:\n      mload(0x40)\n      dup1\n      dup3\n      dup2\n      mstore\n      0x20\n      add\n      swap2\n      pop\n      pop\n      mload(0x40)\n      dup1\n      swap2\n      sub\n      swap1\n      return\n        /* \"AllContracts.sol\":6374:6393  uint public maxPick */\n    tag_8:\n      callvalue\n        /* \"--CODEGEN--\":8:17   */\n      dup1\n        /* \"--CODEGEN--\":5:7   */\n      iszero\n      tag_64\n      jumpi\n        /* \"--CODEGEN--\":30:31   */\n      0x00\n        /* \"--CODEGEN--\":27:28   */\n      dup1\n        /* \"--CODEGEN--\":20:32   */\n      revert\n        /* \"--CODEGEN--\":5:7   */\n    tag_64:\n        /* \"AllContracts.sol\":6374:6393  uint public maxPick */\n      pop\n      tag_65\n      tag_66\n      jump\t// in\n    tag_65:\n      mload(0x40)\n      dup1\n      dup3\n      dup2\n      mstore\n      0x20\n      add\n      swap2\n      pop\n      pop\n      mload(0x40)\n      dup1\n      swap2\n      sub\n      swap1\n      return\n        /* \"AllContracts.sol\":11978:12100  function setPayoutAddress(address payable _payoutAddress) public onlyOwner {... */\n    tag_9:\n      callvalue\n        /* \"--CODEGEN--\":8:17   */\n      dup1\n        /* \"--CODEGEN--\":5:7   */\n      iszero\n      tag_67\n      jumpi\n        /* \"--CODEGEN--\":30:31   */\n      0x00\n        /* \"--CODEGEN--\":27:28   */\n      dup1\n        /* \"--CODEGEN--\":20:32   */\n      revert\n        /* \"--CODEGEN--\":5:7   */\n    tag_67:\n        /* \"AllContracts.sol\":11978:12100  function setPayoutAddress(address payable _payoutAddress) public onlyOwner {... */\n      pop\n      tag_68\n      0x04\n      dup1\n      calldatasize\n      sub\n        /* \"--CODEGEN--\":13:15   */\n      0x20\n        /* \"--CODEGEN--\":8:11   */\n      dup2\n        /* \"--CODEGEN--\":5:16   */\n      lt\n        /* \"--CODEGEN--\":2:4   */\n      iszero\n      tag_69\n      jumpi\n        /* \"--CODEGEN--\":29:30   */\n      0x00\n        /* \"--CODEGEN--\":26:27   */\n      dup1\n        /* \"--CODEGEN--\":19:31   */\n      revert\n        /* \"--CODEGEN--\":2:4   */\n    tag_69:\n        /* \"AllContracts.sol\":11978:12100  function setPayoutAddress(address payable _payoutAddress) public onlyOwner {... */\n      dup2\n      add\n      swap1\n      dup1\n      dup1\n      calldataload\n      0xffffffffffffffffffffffffffffffffffffffff\n      and\n      swap1\n      0x20\n      add\n      swap1\n      swap3\n      swap2\n      swap1\n      pop\n      pop\n      pop\n      tag_70\n      jump\t// in\n    tag_68:\n      stop\n        /* \"AllContracts.sol\":9143:9220  function getSeed() public view returns(uint256) {... */\n    tag_10:\n      callvalue\n        /* \"--CODEGEN--\":8:17   */\n      dup1\n        /* \"--CODEGEN--\":5:7   */\n      iszero\n      tag_71\n      jumpi\n        /* \"--CODEGEN--\":30:31   */\n      0x00\n        /* \"--CODEGEN--\":27:28   */\n      dup1\n        /* \"--CODEGEN--\":20:32   */\n      revert\n        /* \"--CODEGEN--\":5:7   */\n    tag_71:\n        /* \"AllContracts.sol\":9143:9220  function getSeed() public view returns(uint256) {... */\n      pop\n      tag_72\n      tag_73\n      jump\t// in\n    tag_72:\n      mload(0x40)\n      dup1\n      dup3\n      dup2\n      mstore\n      0x20\n      add\n      swap2\n      pop\n      pop\n      mload(0x40)\n      dup1\n      swap2\n      sub\n      swap1\n      return\n        /* \"AllContracts.sol\":11127:11291  function getSummary() public view returns(uint, uint, uint, uint) {... */\n    tag_11:\n      callvalue\n        /* \"--CODEGEN--\":8:17   */\n      dup1\n        /* \"--CODEGEN--\":5:7   */\n      iszero\n      tag_74\n      jumpi\n        /* \"--CODEGEN--\":30:31   */\n      0x00\n        /* \"--CODEGEN--\":27:28   */\n      dup1\n        /* \"--CODEGEN--\":20:32   */\n      revert\n        /* \"--CODEGEN--\":5:7   */\n    tag_74:\n        /* \"AllContracts.sol\":11127:11291  function getSummary() public view returns(uint, uint, uint, uint) {... */\n      pop\n      tag_75\n      tag_76\n      jump\t// in\n    tag_75:\n      mload(0x40)\n      dup1\n      dup6\n      dup2\n      mstore\n      0x20\n      add\n      dup5\n      dup2\n      mstore\n      0x20\n      add\n      dup4\n      dup2\n      mstore\n      0x20\n      add\n      dup3\n      dup2\n      mstore\n      0x20\n      add\n      swap5\n      pop\n      pop\n      pop\n      pop\n      pop\n      mload(0x40)\n      dup1\n      swap2\n      sub\n      swap1\n      return\n        /* \"AllContracts.sol\":11889:11972  function setPayout(uint _payout) public onlyOwner {... */\n    tag_12:\n      callvalue\n        /* \"--CODEGEN--\":8:17   */\n      dup1\n        /* \"--CODEGEN--\":5:7   */\n      iszero\n      tag_77\n      jumpi\n        /* \"--CODEGEN--\":30:31   */\n      0x00\n        /* \"--CODEGEN--\":27:28   */\n      dup1\n        /* \"--CODEGEN--\":20:32   */\n      revert\n        /* \"--CODEGEN--\":5:7   */\n    tag_77:\n        /* \"AllContracts.sol\":11889:11972  function setPayout(uint _payout) public onlyOwner {... */\n      pop\n      tag_78\n      0x04\n      dup1\n      calldatasize\n      sub\n        /* \"--CODEGEN--\":13:15   */\n      0x20\n        /* \"--CODEGEN--\":8:11   */\n      dup2\n        /* \"--CODEGEN--\":5:16   */\n      lt\n        /* \"--CODEGEN--\":2:4   */\n      iszero\n      tag_79\n      jumpi\n        /* \"--CODEGEN--\":29:30   */\n      0x00\n        /* \"--CODEGEN--\":26:27   */\n      dup1\n        /* \"--CODEGEN--\":19:31   */\n      revert\n        /* \"--CODEGEN--\":2:4   */\n    tag_79:\n        /* \"AllContracts.sol\":11889:11972  function setPayout(uint _payout) public onlyOwner {... */\n      dup2\n      add\n      swap1\n      dup1\n      dup1\n      calldataload\n      swap1\n      0x20\n      add\n      swap1\n      swap3\n      swap2\n      swap1\n      pop\n      pop\n      pop\n      tag_80\n      jump\t// in\n    tag_78:\n      stop\n        /* \"AllContracts.sol\":11373:11491  function setVRFCoordinator(address _vrfCoordinator) public onlyOwner {... */\n    tag_13:\n      callvalue\n        /* \"--CODEGEN--\":8:17   */\n      dup1\n        /* \"--CODEGEN--\":5:7   */\n      iszero\n      tag_81\n      jumpi\n        /* \"--CODEGEN--\":30:31   */\n      0x00\n        /* \"--CODEGEN--\":27:28   */\n      dup1\n        /* \"--CODEGEN--\":20:32   */\n      revert\n        /* \"--CODEGEN--\":5:7   */\n    tag_81:\n        /* \"AllContracts.sol\":11373:11491  function setVRFCoordinator(address _vrfCoordinator) public onlyOwner {... */\n      pop\n      tag_82\n      0x04\n      dup1\n      calldatasize\n      sub\n        /* \"--CODEGEN--\":13:15   */\n      0x20\n        /* \"--CODEGEN--\":8:11   */\n      dup2\n        /* \"--CODEGEN--\":5:16   */\n      lt\n        /* \"--CODEGEN--\":2:4   */\n      iszero\n      tag_83\n      jumpi\n        /* \"--CODEGEN--\":29:30   */\n      0x00\n        /* \"--CODEGEN--\":26:27   */\n      dup1\n        /* \"--CODEGEN--\":19:31   */\n      revert\n        /* \"--CODEGEN--\":2:4   */\n    tag_83:\n        /* \"AllContracts.sol\":11373:11491  function setVRFCoordinator(address _vrfCoordinator) public onlyOwner {... */\n      dup2\n      add\n      swap1\n      dup1\n      dup1\n      calldataload\n      0xffffffffffffffffffffffffffffffffffffffff\n      and\n      swap1\n      0x20\n      add\n      swap1\n      swap3\n      swap2\n      swap1\n      pop\n      pop\n      pop\n      tag_84\n      jump\t// in\n    tag_82:\n      stop\n        /* \"AllContracts.sol\":9226:9484  function playGame(uint gameID) public {... */\n    tag_14:\n      callvalue\n        /* \"--CODEGEN--\":8:17   */\n      dup1\n        /* \"--CODEGEN--\":5:7   */\n      iszero\n      tag_85\n      jumpi\n        /* \"--CODEGEN--\":30:31   */\n      0x00\n        /* \"--CODEGEN--\":27:28   */\n      dup1\n        /* \"--CODEGEN--\":20:32   */\n      revert\n        /* \"--CODEGEN--\":5:7   */\n    tag_85:\n        /* \"AllContracts.sol\":9226:9484  function playGame(uint gameID) public {... */\n      pop\n      tag_86\n      0x04\n      dup1\n      calldatasize\n      sub\n        /* \"--CODEGEN--\":13:15   */\n      0x20\n        /* \"--CODEGEN--\":8:11   */\n      dup2\n        /* \"--CODEGEN--\":5:16   */\n      lt\n        /* \"--CODEGEN--\":2:4   */\n      iszero\n      tag_87\n      jumpi\n        /* \"--CODEGEN--\":29:30   */\n      0x00\n        /* \"--CODEGEN--\":26:27   */\n      dup1\n        /* \"--CODEGEN--\":19:31   */\n      revert\n        /* \"--CODEGEN--\":2:4   */\n    tag_87:\n        /* \"AllContracts.sol\":9226:9484  function playGame(uint gameID) public {... */\n      dup2\n      add\n      swap1\n      dup1\n      dup1\n      calldataload\n      swap1\n      0x20\n      add\n      swap1\n      swap3\n      swap2\n      swap1\n      pop\n      pop\n      pop\n      tag_88\n      jump\t// in\n    tag_86:\n      stop\n        /* \"AllContracts.sol\":6508:6544  address payable public payoutAddress */\n    tag_15:\n      callvalue\n        /* \"--CODEGEN--\":8:17   */\n      dup1\n        /* \"--CODEGEN--\":5:7   */\n      iszero\n      tag_89\n      jumpi\n        /* \"--CODEGEN--\":30:31   */\n      0x00\n        /* \"--CODEGEN--\":27:28   */\n      dup1\n        /* \"--CODEGEN--\":20:32   */\n      revert\n        /* \"--CODEGEN--\":5:7   */\n    tag_89:\n        /* \"AllContracts.sol\":6508:6544  address payable public payoutAddress */\n      pop\n      tag_90\n      tag_91\n      jump\t// in\n    tag_90:\n      mload(0x40)\n      dup1\n      dup3\n      0xffffffffffffffffffffffffffffffffffffffff\n      and\n      0xffffffffffffffffffffffffffffffffffffffff\n      and\n      dup2\n      mstore\n      0x20\n      add\n      swap2\n      pop\n      pop\n      mload(0x40)\n      dup1\n      swap2\n      sub\n      swap1\n      return\n        /* \"AllContracts.sol\":13700:14029  function testPlayGame(uint gameID, uint256 testRandomNumber) public {... */\n    tag_16:\n      callvalue\n        /* \"--CODEGEN--\":8:17   */\n      dup1\n        /* \"--CODEGEN--\":5:7   */\n      iszero\n      tag_92\n      jumpi\n        /* \"--CODEGEN--\":30:31   */\n      0x00\n        /* \"--CODEGEN--\":27:28   */\n      dup1\n        /* \"--CODEGEN--\":20:32   */\n      revert\n        /* \"--CODEGEN--\":5:7   */\n    tag_92:\n        /* \"AllContracts.sol\":13700:14029  function testPlayGame(uint gameID, uint256 testRandomNumber) public {... */\n      pop\n      tag_93\n      0x04\n      dup1\n      calldatasize\n      sub\n        /* \"--CODEGEN--\":13:15   */\n      0x40\n        /* \"--CODEGEN--\":8:11   */\n      dup2\n        /* \"--CODEGEN--\":5:16   */\n      lt\n        /* \"--CODEGEN--\":2:4   */\n      iszero\n      tag_94\n      jumpi\n        /* \"--CODEGEN--\":29:30   */\n      0x00\n        /* \"--CODEGEN--\":26:27   */\n      dup1\n        /* \"--CODEGEN--\":19:31   */\n      revert\n        /* \"--CODEGEN--\":2:4   */\n    tag_94:\n        /* \"AllContracts.sol\":13700:14029  function testPlayGame(uint gameID, uint256 testRandomNumber) public {... */\n      dup2\n      add\n      swap1\n      dup1\n      dup1\n      calldataload\n      swap1\n      0x20\n      add\n      swap1\n      swap3\n      swap2\n      swap1\n      dup1\n      calldataload\n      swap1\n      0x20\n      add\n      swap1\n      swap3\n      swap2\n      swap1\n      pop\n      pop\n      pop\n      tag_95\n      jump\t// in\n    tag_93:\n      stop\n        /* \"AllContracts.sol\":6550:6568  uint public payout */\n    tag_17:\n      callvalue\n        /* \"--CODEGEN--\":8:17   */\n      dup1\n        /* \"--CODEGEN--\":5:7   */\n      iszero\n      tag_96\n      jumpi\n        /* \"--CODEGEN--\":30:31   */\n      0x00\n        /* \"--CODEGEN--\":27:28   */\n      dup1\n        /* \"--CODEGEN--\":20:32   */\n      revert\n        /* \"--CODEGEN--\":5:7   */\n    tag_96:\n        /* \"AllContracts.sol\":6550:6568  uint public payout */\n      pop\n      tag_97\n      tag_98\n      jump\t// in\n    tag_97:\n      mload(0x40)\n      dup1\n      dup3\n      dup2\n      mstore\n      0x20\n      add\n      swap2\n      pop\n      pop\n      mload(0x40)\n      dup1\n      swap2\n      sub\n      swap1\n      return\n        /* \"AllContracts.sol\":6447:6472  uint public _unplayedBets */\n    tag_18:\n      callvalue\n        /* \"--CODEGEN--\":8:17   */\n      dup1\n        /* \"--CODEGEN--\":5:7   */\n      iszero\n      tag_99\n      jumpi\n        /* \"--CODEGEN--\":30:31   */\n      0x00\n        /* \"--CODEGEN--\":27:28   */\n      dup1\n        /* \"--CODEGEN--\":20:32   */\n      revert\n        /* \"--CODEGEN--\":5:7   */\n    tag_99:\n        /* \"AllContracts.sol\":6447:6472  uint public _unplayedBets */\n      pop\n      tag_100\n      tag_101\n      jump\t// in\n    tag_100:\n      mload(0x40)\n      dup1\n      dup3\n      dup2\n      mstore\n      0x20\n      add\n      swap2\n      pop\n      pop\n      mload(0x40)\n      dup1\n      swap2\n      sub\n      swap1\n      return\n        /* \"AllContracts.sol\":1550:1695  function renounceOwnership() public virtual onlyOwner {... */\n    tag_19:\n      callvalue\n        /* \"--CODEGEN--\":8:17   */\n      dup1\n        /* \"--CODEGEN--\":5:7   */\n      iszero\n      tag_102\n      jumpi\n        /* \"--CODEGEN--\":30:31   */\n      0x00\n        /* \"--CODEGEN--\":27:28   */\n      dup1\n        /* \"--CODEGEN--\":20:32   */\n      revert\n        /* \"--CODEGEN--\":5:7   */\n    tag_102:\n        /* \"AllContracts.sol\":1550:1695  function renounceOwnership() public virtual onlyOwner {... */\n      pop\n      tag_103\n      tag_104\n      jump\t// in\n    tag_103:\n      stop\n        /* \"AllContracts.sol\":6662:6707  mapping(bytes32 => uint) public _gameRequests */\n    tag_20:\n      callvalue\n        /* \"--CODEGEN--\":8:17   */\n      dup1\n        /* \"--CODEGEN--\":5:7   */\n      iszero\n      tag_105\n      jumpi\n        /* \"--CODEGEN--\":30:31   */\n      0x00\n        /* \"--CODEGEN--\":27:28   */\n      dup1\n        /* \"--CODEGEN--\":20:32   */\n      revert\n        /* \"--CODEGEN--\":5:7   */\n    tag_105:\n        /* \"AllContracts.sol\":6662:6707  mapping(bytes32 => uint) public _gameRequests */\n      pop\n      tag_106\n      0x04\n      dup1\n      calldatasize\n      sub\n        /* \"--CODEGEN--\":13:15   */\n      0x20\n        /* \"--CODEGEN--\":8:11   */\n      dup2\n        /* \"--CODEGEN--\":5:16   */\n      lt\n        /* \"--CODEGEN--\":2:4   */\n      iszero\n      tag_107\n      jumpi\n        /* \"--CODEGEN--\":29:30   */\n      0x00\n        /* \"--CODEGEN--\":26:27   */\n      dup1\n        /* \"--CODEGEN--\":19:31   */\n      revert\n        /* \"--CODEGEN--\":2:4   */\n    tag_107:\n        /* \"AllContracts.sol\":6662:6707  mapping(bytes32 => uint) public _gameRequests */\n      dup2\n      add\n      swap1\n      dup1\n      dup1\n      calldataload\n      swap1\n      0x20\n      add\n      swap1\n      swap3\n      swap2\n      swap1\n      pop\n      pop\n      pop\n      tag_108\n      jump\t// in\n    tag_106:\n      mload(0x40)\n      dup1\n      dup3\n      dup2\n      mstore\n      0x20\n      add\n      swap2\n      pop\n      pop\n      mload(0x40)\n      dup1\n      swap2\n      sub\n      swap1\n      return\n        /* \"AllContracts.sol\":11711:11794  function setMaxBet(uint _maxBet) public onlyOwner {... */\n    tag_21:\n      callvalue\n        /* \"--CODEGEN--\":8:17   */\n      dup1\n        /* \"--CODEGEN--\":5:7   */\n      iszero\n      tag_109\n      jumpi\n        /* \"--CODEGEN--\":30:31   */\n      0x00\n        /* \"--CODEGEN--\":27:28   */\n      dup1\n        /* \"--CODEGEN--\":20:32   */\n      revert\n        /* \"--CODEGEN--\":5:7   */\n    tag_109:\n        /* \"AllContracts.sol\":11711:11794  function setMaxBet(uint _maxBet) public onlyOwner {... */\n      pop\n      tag_110\n      0x04\n      dup1\n      calldatasize\n      sub\n        /* \"--CODEGEN--\":13:15   */\n      0x20\n        /* \"--CODEGEN--\":8:11   */\n      dup2\n        /* \"--CODEGEN--\":5:16   */\n      lt\n        /* \"--CODEGEN--\":2:4   */\n      iszero\n      tag_111\n      jumpi\n        /* \"--CODEGEN--\":29:30   */\n      0x00\n        /* \"--CODEGEN--\":26:27   */\n      dup1\n        /* \"--CODEGEN--\":19:31   */\n      revert\n        /* \"--CODEGEN--\":2:4   */\n    tag_111:\n        /* \"AllContracts.sol\":11711:11794  function setMaxBet(uint _maxBet) public onlyOwner {... */\n      dup2\n      add\n      swap1\n      dup1\n      dup1\n      calldataload\n      swap1\n      0x20\n      add\n      swap1\n      swap3\n      swap2\n      swap1\n      pop\n      pop\n      pop\n      tag_112\n      jump\t// in\n    tag_110:\n      stop\n        /* \"AllContracts.sol\":11800:11883  function setMinBet(uint _minBet) public onlyOwner {... */\n    tag_22:\n      callvalue\n        /* \"--CODEGEN--\":8:17   */\n      dup1\n        /* \"--CODEGEN--\":5:7   */\n      iszero\n      tag_113\n      jumpi\n        /* \"--CODEGEN--\":30:31   */\n      0x00\n        /* \"--CODEGEN--\":27:28   */\n      dup1\n        /* \"--CODEGEN--\":20:32   */\n      revert\n        /* \"--CODEGEN--\":5:7   */\n    tag_113:\n        /* \"AllContracts.sol\":11800:11883  function setMinBet(uint _minBet) public onlyOwner {... */\n      pop\n      tag_114\n      0x04\n      dup1\n      calldatasize\n      sub\n        /* \"--CODEGEN--\":13:15   */\n      0x20\n        /* \"--CODEGEN--\":8:11   */\n      dup2\n        /* \"--CODEGEN--\":5:16   */\n      lt\n        /* \"--CODEGEN--\":2:4   */\n      iszero\n      tag_115\n      jumpi\n        /* \"--CODEGEN--\":29:30   */\n      0x00\n        /* \"--CODEGEN--\":26:27   */\n      dup1\n        /* \"--CODEGEN--\":19:31   */\n      revert\n        /* \"--CODEGEN--\":2:4   */\n    tag_115:\n        /* \"AllContracts.sol\":11800:11883  function setMinBet(uint _minBet) public onlyOwner {... */\n      dup2\n      add\n      swap1\n      dup1\n      dup1\n      calldataload\n      swap1\n      0x20\n      add\n      swap1\n      swap3\n      swap2\n      swap1\n      pop\n      pop\n      pop\n      tag_116\n      jump\t// in\n    tag_114:\n      stop\n        /* \"AllContracts.sol\":927:1004  function owner() public view returns (address) {... */\n    tag_23:\n      callvalue\n        /* \"--CODEGEN--\":8:17   */\n      dup1\n        /* \"--CODEGEN--\":5:7   */\n      iszero\n      tag_117\n      jumpi\n        /* \"--CODEGEN--\":30:31   */\n      0x00\n        /* \"--CODEGEN--\":27:28   */\n      dup1\n        /* \"--CODEGEN--\":20:32   */\n      revert\n        /* \"--CODEGEN--\":5:7   */\n    tag_117:\n        /* \"AllContracts.sol\":927:1004  function owner() public view returns (address) {... */\n      pop\n      tag_118\n      tag_119\n      jump\t// in\n    tag_118:\n      mload(0x40)\n      dup1\n      dup3\n      0xffffffffffffffffffffffffffffffffffffffff\n      and\n      0xffffffffffffffffffffffffffffffffffffffff\n      and\n      dup2\n      mstore\n      0x20\n      add\n      swap2\n      pop\n      pop\n      mload(0x40)\n      dup1\n      swap2\n      sub\n      swap1\n      return\n        /* \"AllContracts.sol\":5522:5729  function rawFulfillRandomness(bytes32 requestId, uint256 randomness) external {... */\n    tag_24:\n      callvalue\n        /* \"--CODEGEN--\":8:17   */\n      dup1\n        /* \"--CODEGEN--\":5:7   */\n      iszero\n      tag_120\n      jumpi\n        /* \"--CODEGEN--\":30:31   */\n      0x00\n        /* \"--CODEGEN--\":27:28   */\n      dup1\n        /* \"--CODEGEN--\":20:32   */\n      revert\n        /* \"--CODEGEN--\":5:7   */\n    tag_120:\n        /* \"AllContracts.sol\":5522:5729  function rawFulfillRandomness(bytes32 requestId, uint256 randomness) external {... */\n      pop\n      tag_121\n      0x04\n      dup1\n      calldatasize\n      sub\n        /* \"--CODEGEN--\":13:15   */\n      0x40\n        /* \"--CODEGEN--\":8:11   */\n      dup2\n        /* \"--CODEGEN--\":5:16   */\n      lt\n        /* \"--CODEGEN--\":2:4   */\n      iszero\n      tag_122\n      jumpi\n        /* \"--CODEGEN--\":29:30   */\n      0x00\n        /* \"--CODEGEN--\":26:27   */\n      dup1\n        /* \"--CODEGEN--\":19:31   */\n      revert\n        /* \"--CODEGEN--\":2:4   */\n    tag_122:\n        /* \"AllContracts.sol\":5522:5729  function rawFulfillRandomness(bytes32 requestId, uint256 randomness) external {... */\n      dup2\n      add\n      swap1\n      dup1\n      dup1\n      calldataload\n      swap1\n      0x20\n      add\n      swap1\n      swap3\n      swap2\n      swap1\n      dup1\n      calldataload\n      swap1\n      0x20\n      add\n      swap1\n      swap3\n      swap2\n      swap1\n      pop\n      pop\n      pop\n      tag_123\n      jump\t// in\n    tag_121:\n      stop\n        /* \"AllContracts.sol\":6423:6441  uint public minBet */\n    tag_25:\n      callvalue\n        /* \"--CODEGEN--\":8:17   */\n      dup1\n        /* \"--CODEGEN--\":5:7   */\n      iszero\n      tag_124\n      jumpi\n        /* \"--CODEGEN--\":30:31   */\n      0x00\n        /* \"--CODEGEN--\":27:28   */\n      dup1\n        /* \"--CODEGEN--\":20:32   */\n      revert\n        /* \"--CODEGEN--\":5:7   */\n    tag_124:\n        /* \"AllContracts.sol\":6423:6441  uint public minBet */\n      pop\n      tag_125\n      tag_126\n      jump\t// in\n    tag_125:\n      mload(0x40)\n      dup1\n      dup3\n      dup2\n      mstore\n      0x20\n      add\n      swap2\n      pop\n      pop\n      mload(0x40)\n      dup1\n      swap2\n      sub\n      swap1\n      return\n        /* \"AllContracts.sol\":11497:11587  function setKeyHash(bytes32 _keyHash) public onlyOwner {... */\n    tag_26:\n      callvalue\n        /* \"--CODEGEN--\":8:17   */\n      dup1\n        /* \"--CODEGEN--\":5:7   */\n      iszero\n      tag_127\n      jumpi\n        /* \"--CODEGEN--\":30:31   */\n      0x00\n        /* \"--CODEGEN--\":27:28   */\n      dup1\n        /* \"--CODEGEN--\":20:32   */\n      revert\n        /* \"--CODEGEN--\":5:7   */\n    tag_127:\n        /* \"AllContracts.sol\":11497:11587  function setKeyHash(bytes32 _keyHash) public onlyOwner {... */\n      pop\n      tag_128\n      0x04\n      dup1\n      calldatasize\n      sub\n        /* \"--CODEGEN--\":13:15   */\n      0x20\n        /* \"--CODEGEN--\":8:11   */\n      dup2\n        /* \"--CODEGEN--\":5:16   */\n      lt\n        /* \"--CODEGEN--\":2:4   */\n      iszero\n      tag_129\n      jumpi\n        /* \"--CODEGEN--\":29:30   */\n      0x00\n        /* \"--CODEGEN--\":26:27   */\n      dup1\n        /* \"--CODEGEN--\":19:31   */\n      revert\n        /* \"--CODEGEN--\":2:4   */\n    tag_129:\n        /* \"AllContracts.sol\":11497:11587  function setKeyHash(bytes32 _keyHash) public onlyOwner {... */\n      dup2\n      add\n      swap1\n      dup1\n      dup1\n      calldataload\n      swap1\n      0x20\n      add\n      swap1\n      swap3\n      swap2\n      swap1\n      pop\n      pop\n      pop\n      tag_130\n      jump\t// in\n    tag_128:\n      stop\n        /* \"AllContracts.sol\":6478:6502  uint public _currentGame */\n    tag_27:\n      callvalue\n        /* \"--CODEGEN--\":8:17   */\n      dup1\n        /* \"--CODEGEN--\":5:7   */\n      iszero\n      tag_131\n      jumpi\n        /* \"--CODEGEN--\":30:31   */\n      0x00\n        /* \"--CODEGEN--\":27:28   */\n      dup1\n        /* \"--CODEGEN--\":20:32   */\n      revert\n        /* \"--CODEGEN--\":5:7   */\n    tag_131:\n        /* \"AllContracts.sol\":6478:6502  uint public _currentGame */\n      pop\n      tag_132\n      tag_133\n      jump\t// in\n    tag_132:\n      mload(0x40)\n      dup1\n      dup3\n      dup2\n      mstore\n      0x20\n      add\n      swap2\n      pop\n      pop\n      mload(0x40)\n      dup1\n      swap2\n      sub\n      swap1\n      return\n        /* \"AllContracts.sol\":5307:5374  mapping(bytes32 /* keyHash */ => uint256 /* nonce */) public nonces */\n    tag_28:\n      callvalue\n        /* \"--CODEGEN--\":8:17   */\n      dup1\n        /* \"--CODEGEN--\":5:7   */\n      iszero\n      tag_134\n      jumpi\n        /* \"--CODEGEN--\":30:31   */\n      0x00\n        /* \"--CODEGEN--\":27:28   */\n      dup1\n        /* \"--CODEGEN--\":20:32   */\n      revert\n        /* \"--CODEGEN--\":5:7   */\n    tag_134:\n        /* \"AllContracts.sol\":5307:5374  mapping(bytes32 /* keyHash */ => uint256 /* nonce */) public nonces */\n      pop\n      tag_135\n      0x04\n      dup1\n      calldatasize\n      sub\n        /* \"--CODEGEN--\":13:15   */\n      0x20\n        /* \"--CODEGEN--\":8:11   */\n      dup2\n        /* \"--CODEGEN--\":5:16   */\n      lt\n        /* \"--CODEGEN--\":2:4   */\n      iszero\n      tag_136\n      jumpi\n        /* \"--CODEGEN--\":29:30   */\n      0x00\n        /* \"--CODEGEN--\":26:27   */\n      dup1\n        /* \"--CODEGEN--\":19:31   */\n      revert\n        /* \"--CODEGEN--\":2:4   */\n    tag_136:\n        /* \"AllContracts.sol\":5307:5374  mapping(bytes32 /* keyHash */ => uint256 /* nonce */) public nonces */\n      dup2\n      add\n      swap1\n      dup1\n      dup1\n      calldataload\n      swap1\n      0x20\n      add\n      swap1\n      swap3\n      swap2\n      swap1\n      pop\n      pop\n      pop\n      tag_137\n      jump\t// in\n    tag_135:\n      mload(0x40)\n      dup1\n      dup3\n      dup2\n      mstore\n      0x20\n      add\n      swap2\n      pop\n      pop\n      mload(0x40)\n      dup1\n      swap2\n      sub\n      swap1\n      return\n        /* \"AllContracts.sol\":11593:11705  function setLINK(address _linkAddress) public onlyOwner {... */\n    tag_29:\n      callvalue\n        /* \"--CODEGEN--\":8:17   */\n      dup1\n        /* \"--CODEGEN--\":5:7   */\n      iszero\n      tag_138\n      jumpi\n        /* \"--CODEGEN--\":30:31   */\n      0x00\n        /* \"--CODEGEN--\":27:28   */\n      dup1\n        /* \"--CODEGEN--\":20:32   */\n      revert\n        /* \"--CODEGEN--\":5:7   */\n    tag_138:\n        /* \"AllContracts.sol\":11593:11705  function setLINK(address _linkAddress) public onlyOwner {... */\n      pop\n      tag_139\n      0x04\n      dup1\n      calldatasize\n      sub\n        /* \"--CODEGEN--\":13:15   */\n      0x20\n        /* \"--CODEGEN--\":8:11   */\n      dup2\n        /* \"--CODEGEN--\":5:16   */\n      lt\n        /* \"--CODEGEN--\":2:4   */\n      iszero\n      tag_140\n      jumpi\n        /* \"--CODEGEN--\":29:30   */\n      0x00\n        /* \"--CODEGEN--\":26:27   */\n      dup1\n        /* \"--CODEGEN--\":19:31   */\n      revert\n        /* \"--CODEGEN--\":2:4   */\n    tag_140:\n        /* \"AllContracts.sol\":11593:11705  function setLINK(address _linkAddress) public onlyOwner {... */\n      dup2\n      add\n      swap1\n      dup1\n      dup1\n      calldataload\n      0xffffffffffffffffffffffffffffffffffffffff\n      and\n      swap1\n      0x20\n      add\n      swap1\n      swap3\n      swap2\n      swap1\n      pop\n      pop\n      pop\n      tag_141\n      jump\t// in\n    tag_139:\n      stop\n        /* \"AllContracts.sol\":10658:11121  function requestRefund(uint gameID) public{... */\n    tag_30:\n      callvalue\n        /* \"--CODEGEN--\":8:17   */\n      dup1\n        /* \"--CODEGEN--\":5:7   */\n      iszero\n      tag_142\n      jumpi\n        /* \"--CODEGEN--\":30:31   */\n      0x00\n        /* \"--CODEGEN--\":27:28   */\n      dup1\n        /* \"--CODEGEN--\":20:32   */\n      revert\n        /* \"--CODEGEN--\":5:7   */\n    tag_142:\n        /* \"AllContracts.sol\":10658:11121  function requestRefund(uint gameID) public{... */\n      pop\n      tag_143\n      0x04\n      dup1\n      calldatasize\n      sub\n        /* \"--CODEGEN--\":13:15   */\n      0x20\n        /* \"--CODEGEN--\":8:11   */\n      dup2\n        /* \"--CODEGEN--\":5:16   */\n      lt\n        /* \"--CODEGEN--\":2:4   */\n      iszero\n      tag_144\n      jumpi\n        /* \"--CODEGEN--\":29:30   */\n      0x00\n        /* \"--CODEGEN--\":26:27   */\n      dup1\n        /* \"--CODEGEN--\":19:31   */\n      revert\n        /* \"--CODEGEN--\":2:4   */\n    tag_144:\n        /* \"AllContracts.sol\":10658:11121  function requestRefund(uint gameID) public{... */\n      dup2\n      add\n      swap1\n      dup1\n      dup1\n      calldataload\n      swap1\n      0x20\n      add\n      swap1\n      swap3\n      swap2\n      swap1\n      pop\n      pop\n      pop\n      tag_145\n      jump\t// in\n    tag_143:\n      stop\n        /* \"AllContracts.sol\":8261:8699  function placeBetFor(address payable player, uint pick) public payable {... */\n    tag_31:\n      tag_146\n      0x04\n      dup1\n      calldatasize\n      sub\n        /* \"--CODEGEN--\":13:15   */\n      0x40\n        /* \"--CODEGEN--\":8:11   */\n      dup2\n        /* \"--CODEGEN--\":5:16   */\n      lt\n        /* \"--CODEGEN--\":2:4   */\n      iszero\n      tag_147\n      jumpi\n        /* \"--CODEGEN--\":29:30   */\n      0x00\n        /* \"--CODEGEN--\":26:27   */\n      dup1\n        /* \"--CODEGEN--\":19:31   */\n      revert\n        /* \"--CODEGEN--\":2:4   */\n    tag_147:\n        /* \"AllContracts.sol\":8261:8699  function placeBetFor(address payable player, uint pick) public payable {... */\n      dup2\n      add\n      swap1\n      dup1\n      dup1\n      calldataload\n      0xffffffffffffffffffffffffffffffffffffffff\n      and\n      swap1\n      0x20\n      add\n      swap1\n      swap3\n      swap2\n      swap1\n      dup1\n      calldataload\n      swap1\n      0x20\n      add\n      swap1\n      swap3\n      swap2\n      swap1\n      pop\n      pop\n      pop\n      tag_148\n      jump\t// in\n    tag_146:\n      stop\n        /* \"AllContracts.sol\":9490:9698  function getRandomNumber(uint256 seed) public returns (bytes32 requestId) {... */\n    tag_32:\n      callvalue\n        /* \"--CODEGEN--\":8:17   */\n      dup1\n        /* \"--CODEGEN--\":5:7   */\n      iszero\n      tag_149\n      jumpi\n        /* \"--CODEGEN--\":30:31   */\n      0x00\n        /* \"--CODEGEN--\":27:28   */\n      dup1\n        /* \"--CODEGEN--\":20:32   */\n      revert\n        /* \"--CODEGEN--\":5:7   */\n    tag_149:\n        /* \"AllContracts.sol\":9490:9698  function getRandomNumber(uint256 seed) public returns (bytes32 requestId) {... */\n      pop\n      tag_150\n      0x04\n      dup1\n      calldatasize\n      sub\n        /* \"--CODEGEN--\":13:15   */\n      0x20\n        /* \"--CODEGEN--\":8:11   */\n      dup2\n        /* \"--CODEGEN--\":5:16   */\n      lt\n        /* \"--CODEGEN--\":2:4   */\n      iszero\n      tag_151\n      jumpi\n        /* \"--CODEGEN--\":29:30   */\n      0x00\n        /* \"--CODEGEN--\":26:27   */\n      dup1\n        /* \"--CODEGEN--\":19:31   */\n      revert\n        /* \"--CODEGEN--\":2:4   */\n    tag_151:\n        /* \"AllContracts.sol\":9490:9698  function getRandomNumber(uint256 seed) public returns (bytes32 requestId) {... */\n      dup2\n      add\n      swap1\n      dup1\n      dup1\n      calldataload\n      swap1\n      0x20\n      add\n      swap1\n      swap3\n      swap2\n      swap1\n      pop\n      pop\n      pop\n      tag_152\n      jump\t// in\n    tag_150:\n      mload(0x40)\n      dup1\n      dup3\n      dup2\n      mstore\n      0x20\n      add\n      swap2\n      pop\n      pop\n      mload(0x40)\n      dup1\n      swap2\n      sub\n      swap1\n      return\n        /* \"AllContracts.sol\":12106:12686  function closeMachine() public onlyOwner {... */\n    tag_33:\n      callvalue\n        /* \"--CODEGEN--\":8:17   */\n      dup1\n        /* \"--CODEGEN--\":5:7   */\n      iszero\n      tag_153\n      jumpi\n        /* \"--CODEGEN--\":30:31   */\n      0x00\n        /* \"--CODEGEN--\":27:28   */\n      dup1\n        /* \"--CODEGEN--\":20:32   */\n      revert\n        /* \"--CODEGEN--\":5:7   */\n    tag_153:\n        /* \"AllContracts.sol\":12106:12686  function closeMachine() public onlyOwner {... */\n      pop\n      tag_154\n      tag_155\n      jump\t// in\n    tag_154:\n      stop\n        /* \"AllContracts.sol\":14744:14993  function testCloseMachine() public onlyOwner {... */\n    tag_34:\n      callvalue\n        /* \"--CODEGEN--\":8:17   */\n      dup1\n        /* \"--CODEGEN--\":5:7   */\n      iszero\n      tag_156\n      jumpi\n        /* \"--CODEGEN--\":30:31   */\n      0x00\n        /* \"--CODEGEN--\":27:28   */\n      dup1\n        /* \"--CODEGEN--\":20:32   */\n      revert\n        /* \"--CODEGEN--\":5:7   */\n    tag_156:\n        /* \"AllContracts.sol\":14744:14993  function testCloseMachine() public onlyOwner {... */\n      pop\n      tag_157\n      tag_158\n      jump\t// in\n    tag_157:\n      stop\n        /* \"AllContracts.sol\":12783:13198  function testCreateGame(address payable _player, uint _bet, uint _pick, bool _played, uint _gameID) public {... */\n    tag_35:\n      callvalue\n        /* \"--CODEGEN--\":8:17   */\n      dup1\n        /* \"--CODEGEN--\":5:7   */\n      iszero\n      tag_159\n      jumpi\n        /* \"--CODEGEN--\":30:31   */\n      0x00\n        /* \"--CODEGEN--\":27:28   */\n      dup1\n        /* \"--CODEGEN--\":20:32   */\n      revert\n        /* \"--CODEGEN--\":5:7   */\n    tag_159:\n        /* \"AllContracts.sol\":12783:13198  function testCreateGame(address payable _player, uint _bet, uint _pick, bool _played, uint _gameID) public {... */\n      pop\n      tag_160\n      0x04\n      dup1\n      calldatasize\n      sub\n        /* \"--CODEGEN--\":13:16   */\n      0xa0\n        /* \"--CODEGEN--\":8:11   */\n      dup2\n        /* \"--CODEGEN--\":5:17   */\n      lt\n        /* \"--CODEGEN--\":2:4   */\n      iszero\n      tag_161\n      jumpi\n        /* \"--CODEGEN--\":30:31   */\n      0x00\n        /* \"--CODEGEN--\":27:28   */\n      dup1\n        /* \"--CODEGEN--\":20:32   */\n      revert\n        /* \"--CODEGEN--\":2:4   */\n    tag_161:\n        /* \"AllContracts.sol\":12783:13198  function testCreateGame(address payable _player, uint _bet, uint _pick, bool _played, uint _gameID) public {... */\n      dup2\n      add\n      swap1\n      dup1\n      dup1\n      calldataload\n      0xffffffffffffffffffffffffffffffffffffffff\n      and\n      swap1\n      0x20\n      add\n      swap1\n      swap3\n      swap2\n      swap1\n      dup1\n      calldataload\n      swap1\n      0x20\n      add\n      swap1\n      swap3\n      swap2\n      swap1\n      dup1\n      calldataload\n      swap1\n      0x20\n      add\n      swap1\n      swap3\n      swap2\n      swap1\n      dup1\n      calldataload\n      iszero\n      iszero\n      swap1\n      0x20\n      add\n      swap1\n      swap3\n      swap2\n      swap1\n      dup1\n      calldataload\n      swap1\n      0x20\n      add\n      swap1\n      swap3\n      swap2\n      swap1\n      pop\n      pop\n      pop\n      tag_162\n      jump\t// in\n    tag_160:\n      stop\n        /* \"AllContracts.sol\":1844:2084  function transferOwnership(address newOwner) public virtual onlyOwner {... */\n    tag_36:\n      callvalue\n        /* \"--CODEGEN--\":8:17   */\n      dup1\n        /* \"--CODEGEN--\":5:7   */\n      iszero\n      tag_163\n      jumpi\n        /* \"--CODEGEN--\":30:31   */\n      0x00\n        /* \"--CODEGEN--\":27:28   */\n      dup1\n        /* \"--CODEGEN--\":20:32   */\n      revert\n        /* \"--CODEGEN--\":5:7   */\n    tag_163:\n        /* \"AllContracts.sol\":1844:2084  function transferOwnership(address newOwner) public virtual onlyOwner {... */\n      pop\n      tag_164\n      0x04\n      dup1\n      calldatasize\n      sub\n        /* \"--CODEGEN--\":13:15   */\n      0x20\n        /* \"--CODEGEN--\":8:11   */\n      dup2\n        /* \"--CODEGEN--\":5:16   */\n      lt\n        /* \"--CODEGEN--\":2:4   */\n      iszero\n      tag_165\n      jumpi\n        /* \"--CODEGEN--\":29:30   */\n      0x00\n        /* \"--CODEGEN--\":26:27   */\n      dup1\n        /* \"--CODEGEN--\":19:31   */\n      revert\n        /* \"--CODEGEN--\":2:4   */\n    tag_165:\n        /* \"AllContracts.sol\":1844:2084  function transferOwnership(address newOwner) public virtual onlyOwner {... */\n      dup2\n      add\n      swap1\n      dup1\n      dup1\n      calldataload\n      0xffffffffffffffffffffffffffffffffffffffff\n      and\n      swap1\n      0x20\n      add\n      swap1\n      swap3\n      swap2\n      swap1\n      pop\n      pop\n      pop\n      tag_166\n      jump\t// in\n    tag_164:\n      stop\n        /* \"AllContracts.sol\":7493:7964  function betInRange(uint bet) public view returns(bool){... */\n    tag_37:\n      callvalue\n        /* \"--CODEGEN--\":8:17   */\n      dup1\n        /* \"--CODEGEN--\":5:7   */\n      iszero\n      tag_167\n      jumpi\n        /* \"--CODEGEN--\":30:31   */\n      0x00\n        /* \"--CODEGEN--\":27:28   */\n      dup1\n        /* \"--CODEGEN--\":20:32   */\n      revert\n        /* \"--CODEGEN--\":5:7   */\n    tag_167:\n        /* \"AllContracts.sol\":7493:7964  function betInRange(uint bet) public view returns(bool){... */\n      pop\n      tag_168\n      0x04\n      dup1\n      calldatasize\n      sub\n        /* \"--CODEGEN--\":13:15   */\n      0x20\n        /* \"--CODEGEN--\":8:11   */\n      dup2\n        /* \"--CODEGEN--\":5:16   */\n      lt\n        /* \"--CODEGEN--\":2:4   */\n      iszero\n      tag_169\n      jumpi\n        /* \"--CODEGEN--\":29:30   */\n      0x00\n        /* \"--CODEGEN--\":26:27   */\n      dup1\n        /* \"--CODEGEN--\":19:31   */\n      revert\n        /* \"--CODEGEN--\":2:4   */\n    tag_169:\n        /* \"AllContracts.sol\":7493:7964  function betInRange(uint bet) public view returns(bool){... */\n      dup2\n      add\n      swap1\n      dup1\n      dup1\n      calldataload\n      swap1\n      0x20\n      add\n      swap1\n      swap3\n      swap2\n      swap1\n      pop\n      pop\n      pop\n      tag_170\n      jump\t// in\n    tag_168:\n      mload(0x40)\n      dup1\n      dup3\n      iszero\n      iszero\n      iszero\n      iszero\n      dup2\n      mstore\n      0x20\n      add\n      swap2\n      pop\n      pop\n      mload(0x40)\n      dup1\n      swap2\n      sub\n      swap1\n      return\n        /* \"AllContracts.sol\":13204:13694  function testPlaceBetFor(address payable player, uint pick, uint256 testRandomNumber) public payable {... */\n    tag_38:\n      tag_171\n      0x04\n      dup1\n      calldatasize\n      sub\n        /* \"--CODEGEN--\":13:15   */\n      0x60\n        /* \"--CODEGEN--\":8:11   */\n      dup2\n        /* \"--CODEGEN--\":5:16   */\n      lt\n        /* \"--CODEGEN--\":2:4   */\n      iszero\n      tag_172\n      jumpi\n        /* \"--CODEGEN--\":29:30   */\n      0x00\n        /* \"--CODEGEN--\":26:27   */\n      dup1\n        /* \"--CODEGEN--\":19:31   */\n      revert\n        /* \"--CODEGEN--\":2:4   */\n    tag_172:\n        /* \"AllContracts.sol\":13204:13694  function testPlaceBetFor(address payable player, uint pick, uint256 testRandomNumber) public payable {... */\n      dup2\n      add\n      swap1\n      dup1\n      dup1\n      calldataload\n      0xffffffffffffffffffffffffffffffffffffffff\n      and\n      swap1\n      0x20\n      add\n      swap1\n      swap3\n      swap2\n      swap1\n      dup1\n      calldataload\n      swap1\n      0x20\n      add\n      swap1\n      swap3\n      swap2\n      swap1\n      dup1\n      calldataload\n      swap1\n      0x20\n      add\n      swap1\n      swap3\n      swap2\n      swap1\n      pop\n      pop\n      pop\n      tag_173\n      jump\t// in\n    tag_171:\n      stop\n        /* \"AllContracts.sol\":7970:8119  function betPayable(uint bet) public view returns(bool){... */\n    tag_51:\n        /* \"AllContracts.sol\":8020:8024  bool */\n      0x00\n        /* \"AllContracts.sol\":8087:8111  bet.mul(payout).add(bet) */\n      tag_175\n        /* \"AllContracts.sol\":8107:8110  bet */\n      dup3\n        /* \"AllContracts.sol\":8087:8102  bet.mul(payout) */\n      tag_176\n        /* \"AllContracts.sol\":8095:8101  payout */\n      sload(0x0c)\n        /* \"AllContracts.sol\":8087:8090  bet */\n      dup6\n        /* \"AllContracts.sol\":8087:8094  bet.mul */\n      tag_177\n      swap1\n        /* \"AllContracts.sol\":8087:8102  bet.mul(payout) */\n      swap2\n      swap1\n      0xffffffff\n      and\n      jump\t// in\n    tag_176:\n        /* \"AllContracts.sol\":8087:8106  bet.mul(payout).add */\n      tag_178\n      swap1\n        /* \"AllContracts.sol\":8087:8111  bet.mul(payout).add(bet) */\n      swap2\n      swap1\n      0xffffffff\n      and\n      jump\t// in\n    tag_175:\n        /* \"AllContracts.sol\":8043:8083  address(this).balance.sub(_unplayedBets) */\n      tag_179\n        /* \"AllContracts.sol\":8069:8082  _unplayedBets */\n      sload(0x09)\n        /* \"AllContracts.sol\":8043:8064  address(this).balance */\n      selfbalance\n        /* \"AllContracts.sol\":8043:8068  address(this).balance.sub */\n      tag_180\n      swap1\n        /* \"AllContracts.sol\":8043:8083  address(this).balance.sub(_unplayedBets) */\n      swap2\n      swap1\n      0xffffffff\n      and\n      jump\t// in\n    tag_179:\n        /* \"AllContracts.sol\":8043:8111  address(this).balance.sub(_unplayedBets) >= bet.mul(payout).add(bet) */\n      lt\n      iszero\n        /* \"AllContracts.sol\":8035:8112  return (address(this).balance.sub(_unplayedBets) >= bet.mul(payout).add(bet)) */\n      swap1\n      pop\n        /* \"AllContracts.sol\":7970:8119  function betPayable(uint bet) public view returns(bool){... */\n      swap2\n      swap1\n      pop\n      jump\t// out\n        /* \"AllContracts.sol\":8125:8255  function placeBet(uint pick) public payable{... */\n    tag_54:\n        /* \"AllContracts.sol\":8219:8248  placeBetFor(msg.sender, pick) */\n      tag_182\n        /* \"AllContracts.sol\":8231:8241  msg.sender */\n      caller\n        /* \"AllContracts.sol\":8243:8247  pick */\n      dup3\n        /* \"AllContracts.sol\":8219:8230  placeBetFor */\n      tag_148\n        /* \"AllContracts.sol\":8219:8248  placeBetFor(msg.sender, pick) */\n      jump\t// in\n    tag_182:\n        /* \"AllContracts.sol\":8125:8255  function placeBet(uint pick) public payable{... */\n      pop\n      jump\t// out\n        /* \"AllContracts.sol\":6622:6656  mapping(uint => Game) public games */\n    tag_58:\n      mstore(0x20, 0x0d)\n      dup1\n      0x00\n      mstore\n      keccak256(0x00, 0x40)\n      0x00\n      swap2\n      pop\n      swap1\n      pop\n      dup1\n      0x00\n      add\n      sload\n      swap1\n      dup1\n      0x01\n      add\n      0x00\n      swap1\n      sload\n      swap1\n      0x0100\n      exp\n      swap1\n      div\n      0xffffffffffffffffffffffffffffffffffffffff\n      and\n      swap1\n      dup1\n      0x02\n      add\n      sload\n      swap1\n      dup1\n      0x03\n      add\n      sload\n      swap1\n      dup1\n      0x04\n      add\n      sload\n      swap1\n      dup1\n      0x05\n      add\n      0x00\n      swap1\n      sload\n      swap1\n      0x0100\n      exp\n      swap1\n      div\n      0xff\n      and\n      swap1\n      pop\n      dup7\n      jump\t// out\n        /* \"AllContracts.sol\":11321:11367  function fundMachine() public payable {... */\n    tag_60:\n      jump\t// out\n        /* \"AllContracts.sol\":6399:6417  uint public maxBet */\n    tag_63:\n      sload(0x07)\n      dup2\n      jump\t// out\n        /* \"AllContracts.sol\":6374:6393  uint public maxPick */\n    tag_66:\n      sload(0x06)\n      dup2\n      jump\t// out\n        /* \"AllContracts.sol\":11978:12100  function setPayoutAddress(address payable _payoutAddress) public onlyOwner {... */\n    tag_70:\n        /* \"AllContracts.sol\":1141:1153  _msgSender() */\n      tag_185\n        /* \"AllContracts.sol\":1141:1151  _msgSender */\n      tag_186\n        /* \"AllContracts.sol\":1141:1153  _msgSender() */\n      jump\t// in\n    tag_185:\n        /* \"AllContracts.sol\":1131:1153  _owner == _msgSender() */\n      0xffffffffffffffffffffffffffffffffffffffff\n      and\n        /* \"AllContracts.sol\":1131:1137  _owner */\n      0x03\n      0x00\n      swap1\n      sload\n      swap1\n      0x0100\n      exp\n      swap1\n      div\n      0xffffffffffffffffffffffffffffffffffffffff\n      and\n        /* \"AllContracts.sol\":1131:1153  _owner == _msgSender() */\n      0xffffffffffffffffffffffffffffffffffffffff\n      and\n      eq\n        /* \"AllContracts.sol\":1123:1190  require(_owner == _msgSender(), \"Ownable: caller is not the owner\") */\n      tag_187\n      jumpi\n      mload(0x40)\n      0x08c379a000000000000000000000000000000000000000000000000000000000\n      dup2\n      mstore\n      0x04\n      add\n      dup1\n      dup1\n      0x20\n      add\n      dup3\n      dup2\n      sub\n      dup3\n      mstore\n      0x20\n      dup2\n      mstore\n      0x20\n      add\n      dup1\n      0x4f776e61626c653a2063616c6c6572206973206e6f7420746865206f776e6572\n      dup2\n      mstore\n      pop\n      0x20\n      add\n      swap2\n      pop\n      pop\n      mload(0x40)\n      dup1\n      swap2\n      sub\n      swap1\n      revert\n    tag_187:\n        /* \"AllContracts.sol\":12079:12093  _payoutAddress */\n      dup1\n        /* \"AllContracts.sol\":12063:12076  payoutAddress */\n      0x0b\n      0x00\n        /* \"AllContracts.sol\":12063:12093  payoutAddress = _payoutAddress */\n      0x0100\n      exp\n      dup2\n      sload\n      dup2\n      0xffffffffffffffffffffffffffffffffffffffff\n      mul\n      not\n      and\n      swap1\n      dup4\n      0xffffffffffffffffffffffffffffffffffffffff\n      and\n      mul\n      or\n      swap1\n      sstore\n      pop\n        /* \"AllContracts.sol\":11978:12100  function setPayoutAddress(address payable _payoutAddress) public onlyOwner {... */\n      pop\n      jump\t// out\n        /* \"AllContracts.sol\":9143:9220  function getSeed() public view returns(uint256) {... */\n    tag_73:\n        /* \"AllContracts.sol\":9182:9189  uint256 */\n      0x00\n        /* \"AllContracts.sol\":9208:9213  12345 */\n      0x3039\n        /* \"AllContracts.sol\":9201:9213  return 12345 */\n      swap1\n      pop\n        /* \"AllContracts.sol\":9143:9220  function getSeed() public view returns(uint256) {... */\n      swap1\n      jump\t// out\n        /* \"AllContracts.sol\":11127:11291  function getSummary() public view returns(uint, uint, uint, uint) {... */\n    tag_76:\n        /* \"AllContracts.sol\":11169:11173  uint */\n      0x00\n        /* \"AllContracts.sol\":11175:11179  uint */\n      dup1\n        /* \"AllContracts.sol\":11181:11185  uint */\n      0x00\n        /* \"AllContracts.sol\":11187:11191  uint */\n      dup1\n        /* \"AllContracts.sol\":11252:11258  minBet */\n      sload(0x08)\n        /* \"AllContracts.sol\":11260:11266  maxBet */\n      sload(0x07)\n        /* \"AllContracts.sol\":11268:11274  payout */\n      sload(0x0c)\n        /* \"AllContracts.sol\":11276:11283  maxPick */\n      sload(0x06)\n        /* \"AllContracts.sol\":11245:11284  return(minBet, maxBet, payout, maxPick) */\n      swap4\n      pop\n      swap4\n      pop\n      swap4\n      pop\n      swap4\n      pop\n        /* \"AllContracts.sol\":11127:11291  function getSummary() public view returns(uint, uint, uint, uint) {... */\n      swap1\n      swap2\n      swap3\n      swap4\n      jump\t// out\n        /* \"AllContracts.sol\":11889:11972  function setPayout(uint _payout) public onlyOwner {... */\n    tag_80:\n        /* \"AllContracts.sol\":1141:1153  _msgSender() */\n      tag_192\n        /* \"AllContracts.sol\":1141:1151  _msgSender */\n      tag_186\n        /* \"AllContracts.sol\":1141:1153  _msgSender() */\n      jump\t// in\n    tag_192:\n        /* \"AllContracts.sol\":1131:1153  _owner == _msgSender() */\n      0xffffffffffffffffffffffffffffffffffffffff\n      and\n        /* \"AllContracts.sol\":1131:1137  _owner */\n      0x03\n      0x00\n      swap1\n      sload\n      swap1\n      0x0100\n      exp\n      swap1\n      div\n      0xffffffffffffffffffffffffffffffffffffffff\n      and\n        /* \"AllContracts.sol\":1131:1153  _owner == _msgSender() */\n      0xffffffffffffffffffffffffffffffffffffffff\n      and\n      eq\n        /* \"AllContracts.sol\":1123:1190  require(_owner == _msgSender(), \"Ownable: caller is not the owner\") */\n      tag_193\n      jumpi\n      mload(0x40)\n      0x08c379a000000000000000000000000000000000000000000000000000000000\n      dup2\n      mstore\n      0x04\n      add\n      dup1\n      dup1\n      0x20\n      add\n      dup3\n      dup2\n      sub\n      dup3\n      mstore\n      0x20\n      dup2\n      mstore\n      0x20\n      add\n      dup1\n      0x4f776e61626c653a2063616c6c6572206973206e6f7420746865206f776e6572\n      dup2\n      mstore\n      pop\n      0x20\n      add\n      swap2\n      pop\n      pop\n      mload(0x40)\n      dup1\n      swap2\n      sub\n      swap1\n      revert\n    tag_193:\n        /* \"AllContracts.sol\":11958:11965  _payout */\n      dup1\n        /* \"AllContracts.sol\":11949:11955  payout */\n      0x0c\n        /* \"AllContracts.sol\":11949:11965  payout = _payout */\n      dup2\n      swap1\n      sstore\n      pop\n        /* \"AllContracts.sol\":11889:11972  function setPayout(uint _payout) public onlyOwner {... */\n      pop\n      jump\t// out\n        /* \"AllContracts.sol\":11373:11491  function setVRFCoordinator(address _vrfCoordinator) public onlyOwner {... */\n    tag_84:\n        /* \"AllContracts.sol\":1141:1153  _msgSender() */\n      tag_196\n        /* \"AllContracts.sol\":1141:1151  _msgSender */\n      tag_186\n        /* \"AllContracts.sol\":1141:1153  _msgSender() */\n      jump\t// in\n    tag_196:\n        /* \"AllContracts.sol\":1131:1153  _owner == _msgSender() */\n      0xffffffffffffffffffffffffffffffffffffffff\n      and\n        /* \"AllContracts.sol\":1131:1137  _owner */\n      0x03\n      0x00\n      swap1\n      sload\n      swap1\n      0x0100\n      exp\n      swap1\n      div\n      0xffffffffffffffffffffffffffffffffffffffff\n      and\n        /* \"AllContracts.sol\":1131:1153  _owner == _msgSender() */\n      0xffffffffffffffffffffffffffffffffffffffff\n      and\n      eq\n        /* \"AllContracts.sol\":1123:1190  require(_owner == _msgSender(), \"Ownable: caller is not the owner\") */\n      tag_197\n      jumpi\n      mload(0x40)\n      0x08c379a000000000000000000000000000000000000000000000000000000000\n      dup2\n      mstore\n      0x04\n      add\n      dup1\n      dup1\n      0x20\n      add\n      dup3\n      dup2\n      sub\n      dup3\n      mstore\n      0x20\n      dup2\n      mstore\n      0x20\n      add\n      dup1\n      0x4f776e61626c653a2063616c6c6572206973206e6f7420746865206f776e6572\n      dup2\n      mstore\n      pop\n      0x20\n      add\n      swap2\n      pop\n      pop\n      mload(0x40)\n      dup1\n      swap2\n      sub\n      swap1\n      revert\n    tag_197:\n        /* \"AllContracts.sol\":11469:11484  _vrfCoordinator */\n      dup1\n        /* \"AllContracts.sol\":11452:11466  vrfCoordinator */\n      0x01\n      0x00\n        /* \"AllContracts.sol\":11452:11484  vrfCoordinator = _vrfCoordinator */\n      0x0100\n      exp\n      dup2\n      sload\n      dup2\n      0xffffffffffffffffffffffffffffffffffffffff\n      mul\n      not\n      and\n      swap1\n      dup4\n      0xffffffffffffffffffffffffffffffffffffffff\n      and\n      mul\n      or\n      swap1\n      sstore\n      pop\n        /* \"AllContracts.sol\":11373:11491  function setVRFCoordinator(address _vrfCoordinator) public onlyOwner {... */\n      pop\n      jump\t// out\n        /* \"AllContracts.sol\":9226:9484  function playGame(uint gameID) public {... */\n    tag_88:\n        /* \"AllContracts.sol\":9306:9311  false */\n      0x00\n        /* \"AllContracts.sol\":9282:9311  games[gameID].played == false */\n      iszero\n      iszero\n        /* \"AllContracts.sol\":9282:9287  games */\n      0x0d\n        /* \"AllContracts.sol\":9282:9295  games[gameID] */\n      0x00\n        /* \"AllContracts.sol\":9288:9294  gameID */\n      dup4\n        /* \"AllContracts.sol\":9282:9295  games[gameID] */\n      dup2\n      mstore\n      0x20\n      add\n      swap1\n      dup2\n      mstore\n      0x20\n      add\n      0x00\n      keccak256\n        /* \"AllContracts.sol\":9282:9302  games[gameID].played */\n      0x05\n      add\n      0x00\n      swap1\n      sload\n      swap1\n      0x0100\n      exp\n      swap1\n      div\n      0xff\n      and\n        /* \"AllContracts.sol\":9282:9311  games[gameID].played == false */\n      iszero\n      iszero\n      eq\n        /* \"AllContracts.sol\":9274:9335  require(games[gameID].played == false, \"game already played\") */\n      tag_200\n      jumpi\n      mload(0x40)\n      0x08c379a000000000000000000000000000000000000000000000000000000000\n      dup2\n      mstore\n      0x04\n      add\n      dup1\n      dup1\n      0x20\n      add\n      dup3\n      dup2\n      sub\n      dup3\n      mstore\n      0x13\n      dup2\n      mstore\n      0x20\n      add\n      dup1\n      0x67616d6520616c726561647920706c6179656400000000000000000000000000\n      dup2\n      mstore\n      pop\n      0x20\n      add\n      swap2\n      pop\n      pop\n      mload(0x40)\n      dup1\n      swap2\n      sub\n      swap1\n      revert\n    tag_200:\n        /* \"AllContracts.sol\":9374:9383  uint seed */\n      0x00\n        /* \"AllContracts.sol\":9386:9391  12345 */\n      0x3039\n        /* \"AllContracts.sol\":9374:9391  uint seed = 12345 */\n      swap1\n      pop\n        /* \"AllContracts.sol\":9401:9414  bytes32 reqID */\n      0x00\n        /* \"AllContracts.sol\":9417:9438  getRandomNumber(seed) */\n      tag_201\n        /* \"AllContracts.sol\":9433:9437  seed */\n      dup3\n        /* \"AllContracts.sol\":9417:9432  getRandomNumber */\n      tag_152\n        /* \"AllContracts.sol\":9417:9438  getRandomNumber(seed) */\n      jump\t// in\n    tag_201:\n        /* \"AllContracts.sol\":9401:9438  bytes32 reqID = getRandomNumber(seed) */\n      swap1\n      pop\n        /* \"AllContracts.sol\":9471:9477  gameID */\n      dup3\n        /* \"AllContracts.sol\":9448:9461  _gameRequests */\n      0x0e\n        /* \"AllContracts.sol\":9448:9468  _gameRequests[reqID] */\n      0x00\n        /* \"AllContracts.sol\":9462:9467  reqID */\n      dup4\n        /* \"AllContracts.sol\":9448:9468  _gameRequests[reqID] */\n      dup2\n      mstore\n      0x20\n      add\n      swap1\n      dup2\n      mstore\n      0x20\n      add\n      0x00\n      keccak256\n        /* \"AllContracts.sol\":9448:9477  _gameRequests[reqID] = gameID */\n      dup2\n      swap1\n      sstore\n      pop\n        /* \"AllContracts.sol\":9226:9484  function playGame(uint gameID) public {... */\n      pop\n      pop\n      pop\n      jump\t// out\n        /* \"AllContracts.sol\":6508:6544  address payable public payoutAddress */\n    tag_91:\n      0x0b\n      0x00\n      swap1\n      sload\n      swap1\n      0x0100\n      exp\n      swap1\n      div\n      0xffffffffffffffffffffffffffffffffffffffff\n      and\n      dup2\n      jump\t// out\n        /* \"AllContracts.sol\":13700:14029  function testPlayGame(uint gameID, uint256 testRandomNumber) public {... */\n    tag_95:\n        /* \"AllContracts.sol\":13810:13815  false */\n      0x00\n        /* \"AllContracts.sol\":13786:13815  games[gameID].played == false */\n      iszero\n      iszero\n        /* \"AllContracts.sol\":13786:13791  games */\n      0x0d\n        /* \"AllContracts.sol\":13786:13799  games[gameID] */\n      0x00\n        /* \"AllContracts.sol\":13792:13798  gameID */\n      dup5\n        /* \"AllContracts.sol\":13786:13799  games[gameID] */\n      dup2\n      mstore\n      0x20\n      add\n      swap1\n      dup2\n      mstore\n      0x20\n      add\n      0x00\n      keccak256\n        /* \"AllContracts.sol\":13786:13806  games[gameID].played */\n      0x05\n      add\n      0x00\n      swap1\n      sload\n      swap1\n      0x0100\n      exp\n      swap1\n      div\n      0xff\n      and\n        /* \"AllContracts.sol\":13786:13815  games[gameID].played == false */\n      iszero\n      iszero\n      eq\n        /* \"AllContracts.sol\":13778:13839  require(games[gameID].played == false, \"game already played\") */\n      tag_203\n      jumpi\n      mload(0x40)\n      0x08c379a000000000000000000000000000000000000000000000000000000000\n      dup2\n      mstore\n      0x04\n      add\n      dup1\n      dup1\n      0x20\n      add\n      dup3\n      dup2\n      sub\n      dup3\n      mstore\n      0x13\n      dup2\n      mstore\n      0x20\n      add\n      dup1\n      0x67616d6520616c726561647920706c6179656400000000000000000000000000\n      dup2\n      mstore\n      pop\n      0x20\n      add\n      swap2\n      pop\n      pop\n      mload(0x40)\n      dup1\n      swap2\n      sub\n      swap1\n      revert\n    tag_203:\n        /* \"AllContracts.sol\":13849:13862  bytes32 reqID */\n      0x00\n        /* \"AllContracts.sol\":13892:13895  now */\n      timestamp\n        /* \"AllContracts.sol\":13897:13913  block.difficulty */\n      difficulty\n        /* \"AllContracts.sol\":13915:13925  msg.sender */\n      caller\n        /* \"AllContracts.sol\":13875:13926  abi.encodePacked(now, block.difficulty, msg.sender) */\n      add(0x20, mload(0x40))\n      dup1\n      dup5\n      dup2\n      mstore\n      0x20\n      add\n      dup4\n      dup2\n      mstore\n      0x20\n      add\n      dup3\n      0xffffffffffffffffffffffffffffffffffffffff\n      and\n      0xffffffffffffffffffffffffffffffffffffffff\n      and\n      0x60\n      shl\n      dup2\n      mstore\n      0x14\n      add\n      swap4\n      pop\n      pop\n      pop\n      pop\n      mload(0x40)\n        /* \"--CODEGEN--\":49:53   */\n      0x20\n        /* \"--CODEGEN--\":39:46   */\n      dup2\n        /* \"--CODEGEN--\":30:37   */\n      dup4\n        /* \"--CODEGEN--\":26:47   */\n      sub\n        /* \"--CODEGEN--\":22:54   */\n      sub\n        /* \"--CODEGEN--\":13:20   */\n      dup2\n        /* \"--CODEGEN--\":6:55   */\n      mstore\n        /* \"AllContracts.sol\":13875:13926  abi.encodePacked(now, block.difficulty, msg.sender) */\n      swap1\n      0x40\n      mstore\n        /* \"AllContracts.sol\":13865:13927  keccak256(abi.encodePacked(now, block.difficulty, msg.sender)) */\n      dup1\n      mload\n      swap1\n      0x20\n      add\n      keccak256\n        /* \"AllContracts.sol\":13849:13927  bytes32 reqID = keccak256(abi.encodePacked(now, block.difficulty, msg.sender)) */\n      swap1\n      pop\n        /* \"AllContracts.sol\":13960:13966  gameID */\n      dup3\n        /* \"AllContracts.sol\":13937:13950  _gameRequests */\n      0x0e\n        /* \"AllContracts.sol\":13937:13957  _gameRequests[reqID] */\n      0x00\n        /* \"AllContracts.sol\":13951:13956  reqID */\n      dup4\n        /* \"AllContracts.sol\":13937:13957  _gameRequests[reqID] */\n      dup2\n      mstore\n      0x20\n      add\n      swap1\n      dup2\n      mstore\n      0x20\n      add\n      0x00\n      keccak256\n        /* \"AllContracts.sol\":13937:13966  _gameRequests[reqID] = gameID */\n      dup2\n      swap1\n      sstore\n      pop\n        /* \"AllContracts.sol\":13976:14022  testFulfillRandomness(reqID, testRandomNumber) */\n      tag_204\n        /* \"AllContracts.sol\":13998:14003  reqID */\n      dup2\n        /* \"AllContracts.sol\":14005:14021  testRandomNumber */\n      dup4\n        /* \"AllContracts.sol\":13976:13997  testFulfillRandomness */\n      tag_205\n        /* \"AllContracts.sol\":13976:14022  testFulfillRandomness(reqID, testRandomNumber) */\n      jump\t// in\n    tag_204:\n        /* \"AllContracts.sol\":13700:14029  function testPlayGame(uint gameID, uint256 testRandomNumber) public {... */\n      pop\n      pop\n      pop\n      jump\t// out\n        /* \"AllContracts.sol\":6550:6568  uint public payout */\n    tag_98:\n      sload(0x0c)\n      dup2\n      jump\t// out\n        /* \"AllContracts.sol\":6447:6472  uint public _unplayedBets */\n    tag_101:\n      sload(0x09)\n      dup2\n      jump\t// out\n        /* \"AllContracts.sol\":1550:1695  function renounceOwnership() public virtual onlyOwner {... */\n    tag_104:\n        /* \"AllContracts.sol\":1141:1153  _msgSender() */\n      tag_207\n        /* \"AllContracts.sol\":1141:1151  _msgSender */\n      tag_186\n        /* \"AllContracts.sol\":1141:1153  _msgSender() */\n      jump\t// in\n    tag_207:\n        /* \"AllContracts.sol\":1131:1153  _owner == _msgSender() */\n      0xffffffffffffffffffffffffffffffffffffffff\n      and\n        /* \"AllContracts.sol\":1131:1137  _owner */\n      0x03\n      0x00\n      swap1\n      sload\n      swap1\n      0x0100\n      exp\n      swap1\n      div\n      0xffffffffffffffffffffffffffffffffffffffff\n      and\n        /* \"AllContracts.sol\":1131:1153  _owner == _msgSender() */\n      0xffffffffffffffffffffffffffffffffffffffff\n      and\n      eq\n        /* \"AllContracts.sol\":1123:1190  require(_owner == _msgSender(), \"Ownable: caller is not the owner\") */\n      tag_208\n      jumpi\n      mload(0x40)\n      0x08c379a000000000000000000000000000000000000000000000000000000000\n      dup2\n      mstore\n      0x04\n      add\n      dup1\n      dup1\n      0x20\n      add\n      dup3\n      dup2\n      sub\n      dup3\n      mstore\n      0x20\n      dup2\n      mstore\n      0x20\n      add\n      dup1\n      0x4f776e61626c653a2063616c6c6572206973206e6f7420746865206f776e6572\n      dup2\n      mstore\n      pop\n      0x20\n      add\n      swap2\n      pop\n      pop\n      mload(0x40)\n      dup1\n      swap2\n      sub\n      swap1\n      revert\n    tag_208:\n        /* \"AllContracts.sol\":1656:1657  0 */\n      0x00\n        /* \"AllContracts.sol\":1619:1659  OwnershipTransferred(_owner, address(0)) */\n      0xffffffffffffffffffffffffffffffffffffffff\n      and\n        /* \"AllContracts.sol\":1640:1646  _owner */\n      0x03\n      0x00\n      swap1\n      sload\n      swap1\n      0x0100\n      exp\n      swap1\n      div\n      0xffffffffffffffffffffffffffffffffffffffff\n      and\n        /* \"AllContracts.sol\":1619:1659  OwnershipTransferred(_owner, address(0)) */\n      0xffffffffffffffffffffffffffffffffffffffff\n      and\n      0x8be0079c531659141344cd1fd0a4f28419497f9722a3daafe3b4186f6b6457e0\n      mload(0x40)\n      mload(0x40)\n      dup1\n      swap2\n      sub\n      swap1\n      log3\n        /* \"AllContracts.sol\":1686:1687  0 */\n      0x00\n        /* \"AllContracts.sol\":1669:1675  _owner */\n      0x03\n      0x00\n        /* \"AllContracts.sol\":1669:1688  _owner = address(0) */\n      0x0100\n      exp\n      dup2\n      sload\n      dup2\n      0xffffffffffffffffffffffffffffffffffffffff\n      mul\n      not\n      and\n      swap1\n      dup4\n      0xffffffffffffffffffffffffffffffffffffffff\n      and\n      mul\n      or\n      swap1\n      sstore\n      pop\n        /* \"AllContracts.sol\":1550:1695  function renounceOwnership() public virtual onlyOwner {... */\n      jump\t// out\n        /* \"AllContracts.sol\":6662:6707  mapping(bytes32 => uint) public _gameRequests */\n    tag_108:\n      mstore(0x20, 0x0e)\n      dup1\n      0x00\n      mstore\n      keccak256(0x00, 0x40)\n      0x00\n      swap2\n      pop\n      swap1\n      pop\n      sload\n      dup2\n      jump\t// out\n        /* \"AllContracts.sol\":11711:11794  function setMaxBet(uint _maxBet) public onlyOwner {... */\n    tag_112:\n        /* \"AllContracts.sol\":1141:1153  _msgSender() */\n      tag_211\n        /* \"AllContracts.sol\":1141:1151  _msgSender */\n      tag_186\n        /* \"AllContracts.sol\":1141:1153  _msgSender() */\n      jump\t// in\n    tag_211:\n        /* \"AllContracts.sol\":1131:1153  _owner == _msgSender() */\n      0xffffffffffffffffffffffffffffffffffffffff\n      and\n        /* \"AllContracts.sol\":1131:1137  _owner */\n      0x03\n      0x00\n      swap1\n      sload\n      swap1\n      0x0100\n      exp\n      swap1\n      div\n      0xffffffffffffffffffffffffffffffffffffffff\n      and\n        /* \"AllContracts.sol\":1131:1153  _owner == _msgSender() */\n      0xffffffffffffffffffffffffffffffffffffffff\n      and\n      eq\n        /* \"AllContracts.sol\":1123:1190  require(_owner == _msgSender(), \"Ownable: caller is not the owner\") */\n      tag_212\n      jumpi\n      mload(0x40)\n      0x08c379a000000000000000000000000000000000000000000000000000000000\n      dup2\n      mstore\n      0x04\n      add\n      dup1\n      dup1\n      0x20\n      add\n      dup3\n      dup2\n      sub\n      dup3\n      mstore\n      0x20\n      dup2\n      mstore\n      0x20\n      add\n      dup1\n      0x4f776e61626c653a2063616c6c6572206973206e6f7420746865206f776e6572\n      dup2\n      mstore\n      pop\n      0x20\n      add\n      swap2\n      pop\n      pop\n      mload(0x40)\n      dup1\n      swap2\n      sub\n      swap1\n      revert\n    tag_212:\n        /* \"AllContracts.sol\":11780:11787  _maxBet */\n      dup1\n        /* \"AllContracts.sol\":11771:11777  maxBet */\n      0x07\n        /* \"AllContracts.sol\":11771:11787  maxBet = _maxBet */\n      dup2\n      swap1\n      sstore\n      pop\n        /* \"AllContracts.sol\":11711:11794  function setMaxBet(uint _maxBet) public onlyOwner {... */\n      pop\n      jump\t// out\n        /* \"AllContracts.sol\":11800:11883  function setMinBet(uint _minBet) public onlyOwner {... */\n    tag_116:\n        /* \"AllContracts.sol\":1141:1153  _msgSender() */\n      tag_215\n        /* \"AllContracts.sol\":1141:1151  _msgSender */\n      tag_186\n        /* \"AllContracts.sol\":1141:1153  _msgSender() */\n      jump\t// in\n    tag_215:\n        /* \"AllContracts.sol\":1131:1153  _owner == _msgSender() */\n      0xffffffffffffffffffffffffffffffffffffffff\n      and\n        /* \"AllContracts.sol\":1131:1137  _owner */\n      0x03\n      0x00\n      swap1\n      sload\n      swap1\n      0x0100\n      exp\n      swap1\n      div\n      0xffffffffffffffffffffffffffffffffffffffff\n      and\n        /* \"AllContracts.sol\":1131:1153  _owner == _msgSender() */\n      0xffffffffffffffffffffffffffffffffffffffff\n      and\n      eq\n        /* \"AllContracts.sol\":1123:1190  require(_owner == _msgSender(), \"Ownable: caller is not the owner\") */\n      tag_216\n      jumpi\n      mload(0x40)\n      0x08c379a000000000000000000000000000000000000000000000000000000000\n      dup2\n      mstore\n      0x04\n      add\n      dup1\n      dup1\n      0x20\n      add\n      dup3\n      dup2\n      sub\n      dup3\n      mstore\n      0x20\n      dup2\n      mstore\n      0x20\n      add\n      dup1\n      0x4f776e61626c653a2063616c6c6572206973206e6f7420746865206f776e6572\n      dup2\n      mstore\n      pop\n      0x20\n      add\n      swap2\n      pop\n      pop\n      mload(0x40)\n      dup1\n      swap2\n      sub\n      swap1\n      revert\n    tag_216:\n        /* \"AllContracts.sol\":11869:11876  _minBet */\n      dup1\n        /* \"AllContracts.sol\":11860:11866  minBet */\n      0x08\n        /* \"AllContracts.sol\":11860:11876  minBet = _minBet */\n      dup2\n      swap1\n      sstore\n      pop\n        /* \"AllContracts.sol\":11800:11883  function setMinBet(uint _minBet) public onlyOwner {... */\n      pop\n      jump\t// out\n        /* \"AllContracts.sol\":927:1004  function owner() public view returns (address) {... */\n    tag_119:\n        /* \"AllContracts.sol\":965:972  address */\n      0x00\n        /* \"AllContracts.sol\":991:997  _owner */\n      0x03\n      0x00\n      swap1\n      sload\n      swap1\n      0x0100\n      exp\n      swap1\n      div\n      0xffffffffffffffffffffffffffffffffffffffff\n      and\n        /* \"AllContracts.sol\":984:997  return _owner */\n      swap1\n      pop\n        /* \"AllContracts.sol\":927:1004  function owner() public view returns (address) {... */\n      swap1\n      jump\t// out\n        /* \"AllContracts.sol\":5522:5729  function rawFulfillRandomness(bytes32 requestId, uint256 randomness) external {... */\n    tag_123:\n        /* \"AllContracts.sol\":5628:5642  vrfCoordinator */\n      0x01\n      0x00\n      swap1\n      sload\n      swap1\n      0x0100\n      exp\n      swap1\n      div\n      0xffffffffffffffffffffffffffffffffffffffff\n      and\n        /* \"AllContracts.sol\":5614:5642  msg.sender == vrfCoordinator */\n      0xffffffffffffffffffffffffffffffffffffffff\n      and\n        /* \"AllContracts.sol\":5614:5624  msg.sender */\n      caller\n        /* \"AllContracts.sol\":5614:5642  msg.sender == vrfCoordinator */\n      0xffffffffffffffffffffffffffffffffffffffff\n      and\n      eq\n        /* \"AllContracts.sol\":5606:5678  require(msg.sender == vrfCoordinator, \"Only VRFCoordinator can fulfill\") */\n      tag_220\n      jumpi\n      mload(0x40)\n      0x08c379a000000000000000000000000000000000000000000000000000000000\n      dup2\n      mstore\n      0x04\n      add\n      dup1\n      dup1\n      0x20\n      add\n      dup3\n      dup2\n      sub\n      dup3\n      mstore\n      0x1f\n      dup2\n      mstore\n      0x20\n      add\n      dup1\n      0x4f6e6c7920565246436f6f7264696e61746f722063616e2066756c66696c6c00\n      dup2\n      mstore\n      pop\n      0x20\n      add\n      swap2\n      pop\n      pop\n      mload(0x40)\n      dup1\n      swap2\n      sub\n      swap1\n      revert\n    tag_220:\n        /* \"AllContracts.sol\":5684:5724  fulfillRandomness(requestId, randomness) */\n      tag_221\n        /* \"AllContracts.sol\":5702:5711  requestId */\n      dup3\n        /* \"AllContracts.sol\":5713:5723  randomness */\n      dup3\n        /* \"AllContracts.sol\":5684:5701  fulfillRandomness */\n      tag_222\n        /* \"AllContracts.sol\":5684:5724  fulfillRandomness(requestId, randomness) */\n      jump\t// in\n    tag_221:\n        /* \"AllContracts.sol\":5522:5729  function rawFulfillRandomness(bytes32 requestId, uint256 randomness) external {... */\n      pop\n      pop\n      jump\t// out\n        /* \"AllContracts.sol\":6423:6441  uint public minBet */\n    tag_126:\n      sload(0x08)\n      dup2\n      jump\t// out\n        /* \"AllContracts.sol\":11497:11587  function setKeyHash(bytes32 _keyHash) public onlyOwner {... */\n    tag_130:\n        /* \"AllContracts.sol\":1141:1153  _msgSender() */\n      tag_224\n        /* \"AllContracts.sol\":1141:1151  _msgSender */\n      tag_186\n        /* \"AllContracts.sol\":1141:1153  _msgSender() */\n      jump\t// in\n    tag_224:\n        /* \"AllContracts.sol\":1131:1153  _owner == _msgSender() */\n      0xffffffffffffffffffffffffffffffffffffffff\n      and\n        /* \"AllContracts.sol\":1131:1137  _owner */\n      0x03\n      0x00\n      swap1\n      sload\n      swap1\n      0x0100\n      exp\n      swap1\n      div\n      0xffffffffffffffffffffffffffffffffffffffff\n      and\n        /* \"AllContracts.sol\":1131:1153  _owner == _msgSender() */\n      0xffffffffffffffffffffffffffffffffffffffff\n      and\n      eq\n        /* \"AllContracts.sol\":1123:1190  require(_owner == _msgSender(), \"Ownable: caller is not the owner\") */\n      tag_225\n      jumpi\n      mload(0x40)\n      0x08c379a000000000000000000000000000000000000000000000000000000000\n      dup2\n      mstore\n      0x04\n      add\n      dup1\n      dup1\n      0x20\n      add\n      dup3\n      dup2\n      sub\n      dup3\n      mstore\n      0x20\n      dup2\n      mstore\n      0x20\n      add\n      dup1\n      0x4f776e61626c653a2063616c6c6572206973206e6f7420746865206f776e6572\n      dup2\n      mstore\n      pop\n      0x20\n      add\n      swap2\n      pop\n      pop\n      mload(0x40)\n      dup1\n      swap2\n      sub\n      swap1\n      revert\n    tag_225:\n        /* \"AllContracts.sol\":11572:11580  _keyHash */\n      dup1\n        /* \"AllContracts.sol\":11562:11569  keyHash */\n      0x04\n        /* \"AllContracts.sol\":11562:11580  keyHash = _keyHash */\n      dup2\n      swap1\n      sstore\n      pop\n        /* \"AllContracts.sol\":11497:11587  function setKeyHash(bytes32 _keyHash) public onlyOwner {... */\n      pop\n      jump\t// out\n        /* \"AllContracts.sol\":6478:6502  uint public _currentGame */\n    tag_133:\n      sload(0x0a)\n      dup2\n      jump\t// out\n        /* \"AllContracts.sol\":5307:5374  mapping(bytes32 /* keyHash */ => uint256 /* nonce */) public nonces */\n    tag_137:\n      mstore(0x20, 0x02)\n      dup1\n      0x00\n      mstore\n      keccak256(0x00, 0x40)\n      0x00\n      swap2\n      pop\n      swap1\n      pop\n      sload\n      dup2\n      jump\t// out\n        /* \"AllContracts.sol\":11593:11705  function setLINK(address _linkAddress) public onlyOwner {... */\n    tag_141:\n        /* \"AllContracts.sol\":1141:1153  _msgSender() */\n      tag_228\n        /* \"AllContracts.sol\":1141:1151  _msgSender */\n      tag_186\n        /* \"AllContracts.sol\":1141:1153  _msgSender() */\n      jump\t// in\n    tag_228:\n        /* \"AllContracts.sol\":1131:1153  _owner == _msgSender() */\n      0xffffffffffffffffffffffffffffffffffffffff\n      and\n        /* \"AllContracts.sol\":1131:1137  _owner */\n      0x03\n      0x00\n      swap1\n      sload\n      swap1\n      0x0100\n      exp\n      swap1\n      div\n      0xffffffffffffffffffffffffffffffffffffffff\n      and\n        /* \"AllContracts.sol\":1131:1153  _owner == _msgSender() */\n      0xffffffffffffffffffffffffffffffffffffffff\n      and\n      eq\n        /* \"AllContracts.sol\":1123:1190  require(_owner == _msgSender(), \"Ownable: caller is not the owner\") */\n      tag_229\n      jumpi\n      mload(0x40)\n      0x08c379a000000000000000000000000000000000000000000000000000000000\n      dup2\n      mstore\n      0x04\n      add\n      dup1\n      dup1\n      0x20\n      add\n      dup3\n      dup2\n      sub\n      dup3\n      mstore\n      0x20\n      dup2\n      mstore\n      0x20\n      add\n      dup1\n      0x4f776e61626c653a2063616c6c6572206973206e6f7420746865206f776e6572\n      dup2\n      mstore\n      pop\n      0x20\n      add\n      swap2\n      pop\n      pop\n      mload(0x40)\n      dup1\n      swap2\n      sub\n      swap1\n      revert\n    tag_229:\n        /* \"AllContracts.sol\":11685:11697  _linkAddress */\n      dup1\n        /* \"AllContracts.sol\":11659:11663  LINK */\n      0x00\n      dup1\n        /* \"AllContracts.sol\":11659:11698  LINK = LinkTokenInterface(_linkAddress) */\n      0x0100\n      exp\n      dup2\n      sload\n      dup2\n      0xffffffffffffffffffffffffffffffffffffffff\n      mul\n      not\n      and\n      swap1\n      dup4\n      0xffffffffffffffffffffffffffffffffffffffff\n      and\n      mul\n      or\n      swap1\n      sstore\n      pop\n        /* \"AllContracts.sol\":11593:11705  function setLINK(address _linkAddress) public onlyOwner {... */\n      pop\n      jump\t// out\n        /* \"AllContracts.sol\":10658:11121  function requestRefund(uint gameID) public{... */\n    tag_145:\n        /* \"AllContracts.sol\":10710:10724  Game storage g */\n      0x00\n        /* \"AllContracts.sol\":10727:10732  games */\n      0x0d\n        /* \"AllContracts.sol\":10727:10740  games[gameID] */\n      0x00\n        /* \"AllContracts.sol\":10733:10739  gameID */\n      dup4\n        /* \"AllContracts.sol\":10727:10740  games[gameID] */\n      dup2\n      mstore\n      0x20\n      add\n      swap1\n      dup2\n      mstore\n      0x20\n      add\n      0x00\n      keccak256\n        /* \"AllContracts.sol\":10710:10740  Game storage g = games[gameID] */\n      swap1\n      pop\n        /* \"AllContracts.sol\":10770:10775  false */\n      0x00\n        /* \"AllContracts.sol\":10758:10775  g.played == false */\n      iszero\n      iszero\n        /* \"AllContracts.sol\":10758:10759  g */\n      dup2\n        /* \"AllContracts.sol\":10758:10766  g.played */\n      0x05\n      add\n      0x00\n      swap1\n      sload\n      swap1\n      0x0100\n      exp\n      swap1\n      div\n      0xff\n      and\n        /* \"AllContracts.sol\":10758:10775  g.played == false */\n      iszero\n      iszero\n      eq\n        /* \"AllContracts.sol\":10750:10822  require(g.played == false, \"Game already complete. No refund possible.\") */\n      tag_232\n      jumpi\n      mload(0x40)\n      0x08c379a000000000000000000000000000000000000000000000000000000000\n      dup2\n      mstore\n      0x04\n      add\n      dup1\n      dup1\n      0x20\n      add\n      dup3\n      dup2\n      sub\n      dup3\n      mstore\n      0x2a\n      dup2\n      mstore\n      0x20\n      add\n      dup1\n      data_c34c85fa0e0680ac47dc2c21fdf93b1adcc71d9a1a3b3b1788b881c3f4f390ac\n      0x2a\n      swap2\n      codecopy\n      0x40\n      add\n      swap2\n      pop\n      pop\n      mload(0x40)\n      dup1\n      swap2\n      sub\n      swap1\n      revert\n    tag_232:\n        /* \"AllContracts.sol\":10865:10866  g */\n      dup1\n        /* \"AllContracts.sol\":10865:10870  g.bet */\n      0x02\n      add\n      sload\n        /* \"AllContracts.sol\":10840:10861  address(this).balance */\n      selfbalance\n        /* \"AllContracts.sol\":10840:10870  address(this).balance >= g.bet */\n      lt\n      iszero\n        /* \"AllContracts.sol\":10832:10924  require(address(this).balance >= g.bet, \"Contract balance too low. Please try again later.\") */\n      tag_233\n      jumpi\n      mload(0x40)\n      0x08c379a000000000000000000000000000000000000000000000000000000000\n      dup2\n      mstore\n      0x04\n      add\n      dup1\n      dup1\n      0x20\n      add\n      dup3\n      dup2\n      sub\n      dup3\n      mstore\n      0x31\n      dup2\n      mstore\n      0x20\n      add\n      dup1\n      data_b719f220e413600c7e92ed4736b96c6908e0428122610fe965fcc60eefeedbad\n      0x31\n      swap2\n      codecopy\n      0x40\n      add\n      swap2\n      pop\n      pop\n      mload(0x40)\n      dup1\n      swap2\n      sub\n      swap1\n      revert\n    tag_233:\n        /* \"AllContracts.sol\":10945:10949  true */\n      0x01\n        /* \"AllContracts.sol\":10934:10935  g */\n      dup2\n        /* \"AllContracts.sol\":10934:10942  g.played */\n      0x05\n      add\n      0x00\n        /* \"AllContracts.sol\":10934:10949  g.played = true */\n      0x0100\n      exp\n      dup2\n      sload\n      dup2\n      0xff\n      mul\n      not\n      and\n      swap1\n      dup4\n      iszero\n      iszero\n      mul\n      or\n      swap1\n      sstore\n      pop\n        /* \"AllContracts.sol\":10979:10980  g */\n      dup1\n        /* \"AllContracts.sol\":10979:10984  g.bet */\n      0x02\n      add\n      sload\n        /* \"AllContracts.sol\":10962:10975  _unplayedBets */\n      sload(0x09)\n        /* \"AllContracts.sol\":10962:10984  _unplayedBets >= g.bet */\n      lt\n        /* \"AllContracts.sol\":10959:11081  if(_unplayedBets >= g.bet) {... */\n      tag_234\n      jumpi\n        /* \"AllContracts.sol\":11017:11018  g */\n      dup1\n        /* \"AllContracts.sol\":11017:11022  g.bet */\n      0x02\n      add\n      sload\n        /* \"AllContracts.sol\":11000:11013  _unplayedBets */\n      0x09\n      0x00\n        /* \"AllContracts.sol\":11000:11022  _unplayedBets -= g.bet */\n      dup3\n      dup3\n      sload\n      sub\n      swap3\n      pop\n      pop\n      dup2\n      swap1\n      sstore\n      pop\n        /* \"AllContracts.sol\":10959:11081  if(_unplayedBets >= g.bet) {... */\n      jump(tag_235)\n    tag_234:\n        /* \"AllContracts.sol\":11069:11070  0 */\n      0x00\n        /* \"AllContracts.sol\":11053:11066  _unplayedBets */\n      0x09\n        /* \"AllContracts.sol\":11053:11070  _unplayedBets = 0 */\n      dup2\n      swap1\n      sstore\n      pop\n        /* \"AllContracts.sol\":10959:11081  if(_unplayedBets >= g.bet) {... */\n    tag_235:\n        /* \"AllContracts.sol\":11090:11091  g */\n      dup1\n        /* \"AllContracts.sol\":11090:11098  g.player */\n      0x01\n      add\n      0x00\n      swap1\n      sload\n      swap1\n      0x0100\n      exp\n      swap1\n      div\n      0xffffffffffffffffffffffffffffffffffffffff\n      and\n        /* \"AllContracts.sol\":11090:11107  g.player.transfer */\n      0xffffffffffffffffffffffffffffffffffffffff\n      and\n        /* \"AllContracts.sol\":11090:11114  g.player.transfer(g.bet) */\n      0x08fc\n        /* \"AllContracts.sol\":11108:11109  g */\n      dup3\n        /* \"AllContracts.sol\":11108:11113  g.bet */\n      0x02\n      add\n      sload\n        /* \"AllContracts.sol\":11090:11114  g.player.transfer(g.bet) */\n      swap1\n      dup2\n      iszero\n      mul\n      swap1\n      mload(0x40)\n      0x00\n      mload(0x40)\n      dup1\n      dup4\n      sub\n      dup2\n      dup6\n      dup9\n      dup9\n      call\n      swap4\n      pop\n      pop\n      pop\n      pop\n      iszero\n        /* \"--CODEGEN--\":8:17   */\n      dup1\n        /* \"--CODEGEN--\":5:7   */\n      iszero\n      tag_237\n      jumpi\n        /* \"--CODEGEN--\":45:61   */\n      returndatasize\n        /* \"--CODEGEN--\":42:43   */\n      0x00\n        /* \"--CODEGEN--\":39:40   */\n      dup1\n        /* \"--CODEGEN--\":24:62   */\n      returndatacopy\n        /* \"--CODEGEN--\":77:93   */\n      returndatasize\n        /* \"--CODEGEN--\":74:75   */\n      0x00\n        /* \"--CODEGEN--\":67:94   */\n      revert\n        /* \"--CODEGEN--\":5:7   */\n    tag_237:\n        /* \"AllContracts.sol\":11090:11114  g.player.transfer(g.bet) */\n      pop\n        /* \"AllContracts.sol\":10658:11121  function requestRefund(uint gameID) public{... */\n      pop\n      pop\n      jump\t// out\n        /* \"AllContracts.sol\":8261:8699  function placeBetFor(address payable player, uint pick) public payable {... */\n    tag_148:\n        /* \"AllContracts.sol\":8348:8369  betPayable(msg.value) */\n      tag_239\n        /* \"AllContracts.sol\":8359:8368  msg.value */\n      callvalue\n        /* \"AllContracts.sol\":8348:8358  betPayable */\n      tag_51\n        /* \"AllContracts.sol\":8348:8369  betPayable(msg.value) */\n      jump\t// in\n    tag_239:\n        /* \"AllContracts.sol\":8340:8428  require(betPayable(msg.value), \"Contract has insufficint funds to payout possible win.\") */\n      tag_240\n      jumpi\n      mload(0x40)\n      0x08c379a000000000000000000000000000000000000000000000000000000000\n      dup2\n      mstore\n      0x04\n      add\n      dup1\n      dup1\n      0x20\n      add\n      dup3\n      dup2\n      sub\n      dup3\n      mstore\n      0x36\n      dup2\n      mstore\n      0x20\n      add\n      dup1\n      data_588b68a2a6ccdc15b2dae26a385280edec71bed95b5b14a24b760c56e4f665d6\n      0x36\n      swap2\n      codecopy\n      0x40\n      add\n      swap2\n      pop\n      pop\n      mload(0x40)\n      dup1\n      swap2\n      sub\n      swap1\n      revert\n    tag_240:\n        /* \"AllContracts.sol\":8452:8459  maxPick */\n      sload(0x06)\n        /* \"AllContracts.sol\":8444:8448  pick */\n      dup2\n        /* \"AllContracts.sol\":8444:8459  pick <= maxPick */\n      gt\n      iszero\n        /* \"AllContracts.sol\":8436:8504  require(pick <= maxPick, \"Pick is too high. Choose a lower number.\") */\n      tag_241\n      jumpi\n      mload(0x40)\n      0x08c379a000000000000000000000000000000000000000000000000000000000\n      dup2\n      mstore\n      0x04\n      add\n      dup1\n      dup1\n      0x20\n      add\n      dup3\n      dup2\n      sub\n      dup3\n      mstore\n      0x28\n      dup2\n      mstore\n      0x20\n      add\n      dup1\n      data_104d4309dbdd0d693502d943a07623e5e639a80ec32910748a6b4f701d61cac8\n      0x28\n      swap2\n      codecopy\n      0x40\n      add\n      swap2\n      pop\n      pop\n      mload(0x40)\n      dup1\n      swap2\n      sub\n      swap1\n      revert\n    tag_241:\n        /* \"AllContracts.sol\":8520:8541  betInRange(msg.value) */\n      tag_242\n        /* \"AllContracts.sol\":8531:8540  msg.value */\n      callvalue\n        /* \"AllContracts.sol\":8520:8530  betInRange */\n      tag_170\n        /* \"AllContracts.sol\":8520:8541  betInRange(msg.value) */\n      jump\t// in\n    tag_242:\n        /* \"AllContracts.sol\":8512:8566  require(betInRange(msg.value),\"Outisde of bet range.\") */\n      tag_243\n      jumpi\n      mload(0x40)\n      0x08c379a000000000000000000000000000000000000000000000000000000000\n      dup2\n      mstore\n      0x04\n      add\n      dup1\n      dup1\n      0x20\n      add\n      dup3\n      dup2\n      sub\n      dup3\n      mstore\n      0x15\n      dup2\n      mstore\n      0x20\n      add\n      dup1\n      0x4f757469736465206f66206265742072616e67652e0000000000000000000000\n      dup2\n      mstore\n      pop\n      0x20\n      add\n      swap2\n      pop\n      pop\n      mload(0x40)\n      dup1\n      swap2\n      sub\n      swap1\n      revert\n    tag_243:\n        /* \"AllContracts.sol\":8591:8619  _unplayedBets.add(msg.value) */\n      tag_244\n        /* \"AllContracts.sol\":8609:8618  msg.value */\n      callvalue\n        /* \"AllContracts.sol\":8591:8604  _unplayedBets */\n      sload(0x09)\n        /* \"AllContracts.sol\":8591:8608  _unplayedBets.add */\n      tag_178\n      swap1\n        /* \"AllContracts.sol\":8591:8619  _unplayedBets.add(msg.value) */\n      swap2\n      swap1\n      0xffffffff\n      and\n      jump\t// in\n    tag_244:\n        /* \"AllContracts.sol\":8575:8588  _unplayedBets */\n      0x09\n        /* \"AllContracts.sol\":8575:8619  _unplayedBets = _unplayedBets.add(msg.value) */\n      dup2\n      swap1\n      sstore\n      pop\n        /* \"AllContracts.sol\":8627:8662  createGame(player, msg.value, pick) */\n      tag_245\n        /* \"AllContracts.sol\":8638:8644  player */\n      dup3\n        /* \"AllContracts.sol\":8646:8655  msg.value */\n      callvalue\n        /* \"AllContracts.sol\":8657:8661  pick */\n      dup4\n        /* \"AllContracts.sol\":8627:8637  createGame */\n      tag_246\n        /* \"AllContracts.sol\":8627:8662  createGame(player, msg.value, pick) */\n      jump\t// in\n    tag_245:\n        /* \"AllContracts.sol\":8670:8692  playGame(_currentGame) */\n      tag_247\n        /* \"AllContracts.sol\":8679:8691  _currentGame */\n      sload(0x0a)\n        /* \"AllContracts.sol\":8670:8678  playGame */\n      tag_88\n        /* \"AllContracts.sol\":8670:8692  playGame(_currentGame) */\n      jump\t// in\n    tag_247:\n        /* \"AllContracts.sol\":8261:8699  function placeBetFor(address payable player, uint pick) public payable {... */\n      pop\n      pop\n      jump\t// out\n        /* \"AllContracts.sol\":9490:9698  function getRandomNumber(uint256 seed) public returns (bytes32 requestId) {... */\n    tag_152:\n        /* \"AllContracts.sol\":9545:9562  bytes32 requestId */\n      0x00\n        /* \"AllContracts.sol\":9614:9617  fee */\n      sload(0x05)\n        /* \"AllContracts.sol\":9582:9586  LINK */\n      0x00\n      dup1\n      swap1\n      sload\n      swap1\n      0x0100\n      exp\n      swap1\n      div\n      0xffffffffffffffffffffffffffffffffffffffff\n      and\n        /* \"AllContracts.sol\":9582:9596  LINK.balanceOf */\n      0xffffffffffffffffffffffffffffffffffffffff\n      and\n      0x70a08231\n        /* \"AllContracts.sol\":9605:9609  this */\n      address\n        /* \"AllContracts.sol\":9582:9611  LINK.balanceOf(address(this)) */\n      mload(0x40)\n      dup3\n      0xffffffff\n      and\n      0xe0\n      shl\n      dup2\n      mstore\n      0x04\n      add\n      dup1\n      dup3\n      0xffffffffffffffffffffffffffffffffffffffff\n      and\n      0xffffffffffffffffffffffffffffffffffffffff\n      and\n      dup2\n      mstore\n      0x20\n      add\n      swap2\n      pop\n      pop\n      0x20\n      mload(0x40)\n      dup1\n      dup4\n      sub\n      dup2\n      dup7\n      dup1\n      extcodesize\n      iszero\n        /* \"--CODEGEN--\":8:17   */\n      dup1\n        /* \"--CODEGEN--\":5:7   */\n      iszero\n      tag_249\n      jumpi\n        /* \"--CODEGEN--\":30:31   */\n      0x00\n        /* \"--CODEGEN--\":27:28   */\n      dup1\n        /* \"--CODEGEN--\":20:32   */\n      revert\n        /* \"--CODEGEN--\":5:7   */\n    tag_249:\n        /* \"AllContracts.sol\":9582:9611  LINK.balanceOf(address(this)) */\n      pop\n      gas\n      staticcall\n      iszero\n        /* \"--CODEGEN--\":8:17   */\n      dup1\n        /* \"--CODEGEN--\":5:7   */\n      iszero\n      tag_251\n      jumpi\n        /* \"--CODEGEN--\":45:61   */\n      returndatasize\n        /* \"--CODEGEN--\":42:43   */\n      0x00\n        /* \"--CODEGEN--\":39:40   */\n      dup1\n        /* \"--CODEGEN--\":24:62   */\n      returndatacopy\n        /* \"--CODEGEN--\":77:93   */\n      returndatasize\n        /* \"--CODEGEN--\":74:75   */\n      0x00\n        /* \"--CODEGEN--\":67:94   */\n      revert\n        /* \"--CODEGEN--\":5:7   */\n    tag_251:\n        /* \"AllContracts.sol\":9582:9611  LINK.balanceOf(address(this)) */\n      pop\n      pop\n      pop\n      pop\n      mload(0x40)\n      returndatasize\n        /* \"--CODEGEN--\":13:15   */\n      0x20\n        /* \"--CODEGEN--\":8:11   */\n      dup2\n        /* \"--CODEGEN--\":5:16   */\n      lt\n        /* \"--CODEGEN--\":2:4   */\n      iszero\n      tag_252\n      jumpi\n        /* \"--CODEGEN--\":29:30   */\n      0x00\n        /* \"--CODEGEN--\":26:27   */\n      dup1\n        /* \"--CODEGEN--\":19:31   */\n      revert\n        /* \"--CODEGEN--\":2:4   */\n    tag_252:\n        /* \"AllContracts.sol\":9582:9611  LINK.balanceOf(address(this)) */\n      dup2\n      add\n      swap1\n      dup1\n      dup1\n      mload\n      swap1\n      0x20\n      add\n      swap1\n      swap3\n      swap2\n      swap1\n      pop\n      pop\n      pop\n        /* \"AllContracts.sol\":9582:9617  LINK.balanceOf(address(this)) > fee */\n      gt\n        /* \"AllContracts.sol\":9574:9637  require(LINK.balanceOf(address(this)) > fee, \"Not enough LINK\") */\n      tag_253\n      jumpi\n      mload(0x40)\n      0x08c379a000000000000000000000000000000000000000000000000000000000\n      dup2\n      mstore\n      0x04\n      add\n      dup1\n      dup1\n      0x20\n      add\n      dup3\n      dup2\n      sub\n      dup3\n      mstore\n      0x0f\n      dup2\n      mstore\n      0x20\n      add\n      dup1\n      0x4e6f7420656e6f756768204c494e4b0000000000000000000000000000000000\n      dup2\n      mstore\n      pop\n      0x20\n      add\n      swap2\n      pop\n      pop\n      mload(0x40)\n      dup1\n      swap2\n      sub\n      swap1\n      revert\n    tag_253:\n        /* \"AllContracts.sol\":9654:9691  requestRandomness(keyHash, fee, seed) */\n      tag_254\n        /* \"AllContracts.sol\":9672:9679  keyHash */\n      sload(0x04)\n        /* \"AllContracts.sol\":9681:9684  fee */\n      sload(0x05)\n        /* \"AllContracts.sol\":9686:9690  seed */\n      dup5\n        /* \"AllContracts.sol\":9654:9671  requestRandomness */\n      tag_255\n        /* \"AllContracts.sol\":9654:9691  requestRandomness(keyHash, fee, seed) */\n      jump\t// in\n    tag_254:\n        /* \"AllContracts.sol\":9647:9691  return requestRandomness(keyHash, fee, seed) */\n      swap1\n      pop\n        /* \"AllContracts.sol\":9490:9698  function getRandomNumber(uint256 seed) public returns (bytes32 requestId) {... */\n      swap2\n      swap1\n      pop\n      jump\t// out\n        /* \"AllContracts.sol\":12106:12686  function closeMachine() public onlyOwner {... */\n    tag_155:\n        /* \"AllContracts.sol\":1141:1153  _msgSender() */\n      tag_257\n        /* \"AllContracts.sol\":1141:1151  _msgSender */\n      tag_186\n        /* \"AllContracts.sol\":1141:1153  _msgSender() */\n      jump\t// in\n    tag_257:\n        /* \"AllContracts.sol\":1131:1153  _owner == _msgSender() */\n      0xffffffffffffffffffffffffffffffffffffffff\n      and\n        /* \"AllContracts.sol\":1131:1137  _owner */\n      0x03\n      0x00\n      swap1\n      sload\n      swap1\n      0x0100\n      exp\n      swap1\n      div\n      0xffffffffffffffffffffffffffffffffffffffff\n      and\n        /* \"AllContracts.sol\":1131:1153  _owner == _msgSender() */\n      0xffffffffffffffffffffffffffffffffffffffff\n      and\n      eq\n        /* \"AllContracts.sol\":1123:1190  require(_owner == _msgSender(), \"Ownable: caller is not the owner\") */\n      tag_258\n      jumpi\n      mload(0x40)\n      0x08c379a000000000000000000000000000000000000000000000000000000000\n      dup2\n      mstore\n      0x04\n      add\n      dup1\n      dup1\n      0x20\n      add\n      dup3\n      dup2\n      sub\n      dup3\n      mstore\n      0x20\n      dup2\n      mstore\n      0x20\n      add\n      dup1\n      0x4f776e61626c653a2063616c6c6572206973206e6f7420746865206f776e6572\n      dup2\n      mstore\n      pop\n      0x20\n      add\n      swap2\n      pop\n      pop\n      mload(0x40)\n      dup1\n      swap2\n      sub\n      swap1\n      revert\n    tag_258:\n        /* \"AllContracts.sol\":12191:12204  _unplayedBets */\n      sload(0x09)\n        /* \"AllContracts.sol\":12167:12188  address(this).balance */\n      selfbalance\n        /* \"AllContracts.sol\":12167:12204  address(this).balance > _unplayedBets */\n      gt\n        /* \"AllContracts.sol\":12158:12205  require (address(this).balance > _unplayedBets) */\n      tag_260\n      jumpi\n      0x00\n      dup1\n      revert\n    tag_260:\n        /* \"AllContracts.sol\":12415:12444  uint availableContractBalance */\n      0x00\n        /* \"AllContracts.sol\":12447:12487  address(this).balance.sub(_unplayedBets) */\n      tag_261\n        /* \"AllContracts.sol\":12473:12486  _unplayedBets */\n      sload(0x09)\n        /* \"AllContracts.sol\":12447:12468  address(this).balance */\n      selfbalance\n        /* \"AllContracts.sol\":12447:12472  address(this).balance.sub */\n      tag_180\n      swap1\n        /* \"AllContracts.sol\":12447:12487  address(this).balance.sub(_unplayedBets) */\n      swap2\n      swap1\n      0xffffffff\n      and\n      jump\t// in\n    tag_261:\n        /* \"AllContracts.sol\":12415:12487  uint availableContractBalance = address(this).balance.sub(_unplayedBets) */\n      swap1\n      pop\n        /* \"AllContracts.sol\":12497:12510  payoutAddress */\n      0x0b\n      0x00\n      swap1\n      sload\n      swap1\n      0x0100\n      exp\n      swap1\n      div\n      0xffffffffffffffffffffffffffffffffffffffff\n      and\n        /* \"AllContracts.sol\":12497:12519  payoutAddress.transfer */\n      0xffffffffffffffffffffffffffffffffffffffff\n      and\n        /* \"AllContracts.sol\":12497:12545  payoutAddress.transfer(availableContractBalance) */\n      0x08fc\n        /* \"AllContracts.sol\":12520:12544  availableContractBalance */\n      dup3\n        /* \"AllContracts.sol\":12497:12545  payoutAddress.transfer(availableContractBalance) */\n      swap1\n      dup2\n      iszero\n      mul\n      swap1\n      mload(0x40)\n      0x00\n      mload(0x40)\n      dup1\n      dup4\n      sub\n      dup2\n      dup6\n      dup9\n      dup9\n      call\n      swap4\n      pop\n      pop\n      pop\n      pop\n      iszero\n        /* \"--CODEGEN--\":8:17   */\n      dup1\n        /* \"--CODEGEN--\":5:7   */\n      iszero\n      tag_263\n      jumpi\n        /* \"--CODEGEN--\":45:61   */\n      returndatasize\n        /* \"--CODEGEN--\":42:43   */\n      0x00\n        /* \"--CODEGEN--\":39:40   */\n      dup1\n        /* \"--CODEGEN--\":24:62   */\n      returndatacopy\n        /* \"--CODEGEN--\":77:93   */\n      returndatasize\n        /* \"--CODEGEN--\":74:75   */\n      0x00\n        /* \"--CODEGEN--\":67:94   */\n      revert\n        /* \"--CODEGEN--\":5:7   */\n    tag_263:\n        /* \"AllContracts.sol\":12497:12545  payoutAddress.transfer(availableContractBalance) */\n      pop\n        /* \"AllContracts.sol\":12592:12593  0 */\n      0x00\n        /* \"AllContracts.sol\":12560:12564  LINK */\n      dup1\n      0x00\n      swap1\n      sload\n      swap1\n      0x0100\n      exp\n      swap1\n      div\n      0xffffffffffffffffffffffffffffffffffffffff\n      and\n        /* \"AllContracts.sol\":12560:12574  LINK.balanceOf */\n      0xffffffffffffffffffffffffffffffffffffffff\n      and\n      0x70a08231\n        /* \"AllContracts.sol\":12583:12587  this */\n      address\n        /* \"AllContracts.sol\":12560:12589  LINK.balanceOf(address(this)) */\n      mload(0x40)\n      dup3\n      0xffffffff\n      and\n      0xe0\n      shl\n      dup2\n      mstore\n      0x04\n      add\n      dup1\n      dup3\n      0xffffffffffffffffffffffffffffffffffffffff\n      and\n      0xffffffffffffffffffffffffffffffffffffffff\n      and\n      dup2\n      mstore\n      0x20\n      add\n      swap2\n      pop\n      pop\n      0x20\n      mload(0x40)\n      dup1\n      dup4\n      sub\n      dup2\n      dup7\n      dup1\n      extcodesize\n      iszero\n        /* \"--CODEGEN--\":8:17   */\n      dup1\n        /* \"--CODEGEN--\":5:7   */\n      iszero\n      tag_264\n      jumpi\n        /* \"--CODEGEN--\":30:31   */\n      0x00\n        /* \"--CODEGEN--\":27:28   */\n      dup1\n        /* \"--CODEGEN--\":20:32   */\n      revert\n        /* \"--CODEGEN--\":5:7   */\n    tag_264:\n        /* \"AllContracts.sol\":12560:12589  LINK.balanceOf(address(this)) */\n      pop\n      gas\n      staticcall\n      iszero\n        /* \"--CODEGEN--\":8:17   */\n      dup1\n        /* \"--CODEGEN--\":5:7   */\n      iszero\n      tag_266\n      jumpi\n        /* \"--CODEGEN--\":45:61   */\n      returndatasize\n        /* \"--CODEGEN--\":42:43   */\n      0x00\n        /* \"--CODEGEN--\":39:40   */\n      dup1\n        /* \"--CODEGEN--\":24:62   */\n      returndatacopy\n        /* \"--CODEGEN--\":77:93   */\n      returndatasize\n        /* \"--CODEGEN--\":74:75   */\n      0x00\n        /* \"--CODEGEN--\":67:94   */\n      revert\n        /* \"--CODEGEN--\":5:7   */\n    tag_266:\n        /* \"AllContracts.sol\":12560:12589  LINK.balanceOf(address(this)) */\n      pop\n      pop\n      pop\n      pop\n      mload(0x40)\n      returndatasize\n        /* \"--CODEGEN--\":13:15   */\n      0x20\n        /* \"--CODEGEN--\":8:11   */\n      dup2\n        /* \"--CODEGEN--\":5:16   */\n      lt\n        /* \"--CODEGEN--\":2:4   */\n      iszero\n      tag_267\n      jumpi\n        /* \"--CODEGEN--\":29:30   */\n      0x00\n        /* \"--CODEGEN--\":26:27   */\n      dup1\n        /* \"--CODEGEN--\":19:31   */\n      revert\n        /* \"--CODEGEN--\":2:4   */\n    tag_267:\n        /* \"AllContracts.sol\":12560:12589  LINK.balanceOf(address(this)) */\n      dup2\n      add\n      swap1\n      dup1\n      dup1\n      mload\n      swap1\n      0x20\n      add\n      swap1\n      swap3\n      swap2\n      swap1\n      pop\n      pop\n      pop\n        /* \"AllContracts.sol\":12560:12593  LINK.balanceOf(address(this)) > 0 */\n      gt\n        /* \"AllContracts.sol\":12556:12679  if (LINK.balanceOf(address(this)) > 0) {... */\n      iszero\n      tag_268\n      jumpi\n        /* \"AllContracts.sol\":12609:12613  LINK */\n      0x00\n      dup1\n      swap1\n      sload\n      swap1\n      0x0100\n      exp\n      swap1\n      div\n      0xffffffffffffffffffffffffffffffffffffffff\n      and\n        /* \"AllContracts.sol\":12609:12622  LINK.transfer */\n      0xffffffffffffffffffffffffffffffffffffffff\n      and\n      0xa9059cbb\n        /* \"AllContracts.sol\":12623:12636  payoutAddress */\n      0x0b\n      0x00\n      swap1\n      sload\n      swap1\n      0x0100\n      exp\n      swap1\n      div\n      0xffffffffffffffffffffffffffffffffffffffff\n      and\n        /* \"AllContracts.sol\":12638:12642  LINK */\n      0x00\n      dup1\n      swap1\n      sload\n      swap1\n      0x0100\n      exp\n      swap1\n      div\n      0xffffffffffffffffffffffffffffffffffffffff\n      and\n        /* \"AllContracts.sol\":12638:12652  LINK.balanceOf */\n      0xffffffffffffffffffffffffffffffffffffffff\n      and\n      0x70a08231\n        /* \"AllContracts.sol\":12661:12665  this */\n      address\n        /* \"AllContracts.sol\":12638:12667  LINK.balanceOf(address(this)) */\n      mload(0x40)\n      dup3\n      0xffffffff\n      and\n      0xe0\n      shl\n      dup2\n      mstore\n      0x04\n      add\n      dup1\n      dup3\n      0xffffffffffffffffffffffffffffffffffffffff\n      and\n      0xffffffffffffffffffffffffffffffffffffffff\n      and\n      dup2\n      mstore\n      0x20\n      add\n      swap2\n      pop\n      pop\n      0x20\n      mload(0x40)\n      dup1\n      dup4\n      sub\n      dup2\n      dup7\n      dup1\n      extcodesize\n      iszero\n        /* \"--CODEGEN--\":8:17   */\n      dup1\n        /* \"--CODEGEN--\":5:7   */\n      iszero\n      tag_269\n      jumpi\n        /* \"--CODEGEN--\":30:31   */\n      0x00\n        /* \"--CODEGEN--\":27:28   */\n      dup1\n        /* \"--CODEGEN--\":20:32   */\n      revert\n        /* \"--CODEGEN--\":5:7   */\n    tag_269:\n        /* \"AllContracts.sol\":12638:12667  LINK.balanceOf(address(this)) */\n      pop\n      gas\n      staticcall\n      iszero\n        /* \"--CODEGEN--\":8:17   */\n      dup1\n        /* \"--CODEGEN--\":5:7   */\n      iszero\n      tag_271\n      jumpi\n        /* \"--CODEGEN--\":45:61   */\n      returndatasize\n        /* \"--CODEGEN--\":42:43   */\n      0x00\n        /* \"--CODEGEN--\":39:40   */\n      dup1\n        /* \"--CODEGEN--\":24:62   */\n      returndatacopy\n        /* \"--CODEGEN--\":77:93   */\n      returndatasize\n        /* \"--CODEGEN--\":74:75   */\n      0x00\n        /* \"--CODEGEN--\":67:94   */\n      revert\n        /* \"--CODEGEN--\":5:7   */\n    tag_271:\n        /* \"AllContracts.sol\":12638:12667  LINK.balanceOf(address(this)) */\n      pop\n      pop\n      pop\n      pop\n      mload(0x40)\n      returndatasize\n        /* \"--CODEGEN--\":13:15   */\n      0x20\n        /* \"--CODEGEN--\":8:11   */\n      dup2\n        /* \"--CODEGEN--\":5:16   */\n      lt\n        /* \"--CODEGEN--\":2:4   */\n      iszero\n      tag_272\n      jumpi\n        /* \"--CODEGEN--\":29:30   */\n      0x00\n        /* \"--CODEGEN--\":26:27   */\n      dup1\n        /* \"--CODEGEN--\":19:31   */\n      revert\n        /* \"--CODEGEN--\":2:4   */\n    tag_272:\n        /* \"AllContracts.sol\":12638:12667  LINK.balanceOf(address(this)) */\n      dup2\n      add\n      swap1\n      dup1\n      dup1\n      mload\n      swap1\n      0x20\n      add\n      swap1\n      swap3\n      swap2\n      swap1\n      pop\n      pop\n      pop\n        /* \"AllContracts.sol\":12609:12668  LINK.transfer(payoutAddress, LINK.balanceOf(address(this))) */\n      mload(0x40)\n      dup4\n      0xffffffff\n      and\n      0xe0\n      shl\n      dup2\n      mstore\n      0x04\n      add\n      dup1\n      dup4\n      0xffffffffffffffffffffffffffffffffffffffff\n      and\n      0xffffffffffffffffffffffffffffffffffffffff\n      and\n      dup2\n      mstore\n      0x20\n      add\n      dup3\n      dup2\n      mstore\n      0x20\n      add\n      swap3\n      pop\n      pop\n      pop\n      0x20\n      mload(0x40)\n      dup1\n      dup4\n      sub\n      dup2\n      0x00\n      dup8\n      dup1\n      extcodesize\n      iszero\n        /* \"--CODEGEN--\":8:17   */\n      dup1\n        /* \"--CODEGEN--\":5:7   */\n      iszero\n      tag_273\n      jumpi\n        /* \"--CODEGEN--\":30:31   */\n      0x00\n        /* \"--CODEGEN--\":27:28   */\n      dup1\n        /* \"--CODEGEN--\":20:32   */\n      revert\n        /* \"--CODEGEN--\":5:7   */\n    tag_273:\n        /* \"AllContracts.sol\":12609:12668  LINK.transfer(payoutAddress, LINK.balanceOf(address(this))) */\n      pop\n      gas\n      call\n      iszero\n        /* \"--CODEGEN--\":8:17   */\n      dup1\n        /* \"--CODEGEN--\":5:7   */\n      iszero\n      tag_275\n      jumpi\n        /* \"--CODEGEN--\":45:61   */\n      returndatasize\n        /* \"--CODEGEN--\":42:43   */\n      0x00\n        /* \"--CODEGEN--\":39:40   */\n      dup1\n        /* \"--CODEGEN--\":24:62   */\n      returndatacopy\n        /* \"--CODEGEN--\":77:93   */\n      returndatasize\n        /* \"--CODEGEN--\":74:75   */\n      0x00\n        /* \"--CODEGEN--\":67:94   */\n      revert\n        /* \"--CODEGEN--\":5:7   */\n    tag_275:\n        /* \"AllContracts.sol\":12609:12668  LINK.transfer(payoutAddress, LINK.balanceOf(address(this))) */\n      pop\n      pop\n      pop\n      pop\n      mload(0x40)\n      returndatasize\n        /* \"--CODEGEN--\":13:15   */\n      0x20\n        /* \"--CODEGEN--\":8:11   */\n      dup2\n        /* \"--CODEGEN--\":5:16   */\n      lt\n        /* \"--CODEGEN--\":2:4   */\n      iszero\n      tag_276\n      jumpi\n        /* \"--CODEGEN--\":29:30   */\n      0x00\n        /* \"--CODEGEN--\":26:27   */\n      dup1\n        /* \"--CODEGEN--\":19:31   */\n      revert\n        /* \"--CODEGEN--\":2:4   */\n    tag_276:\n        /* \"AllContracts.sol\":12609:12668  LINK.transfer(payoutAddress, LINK.balanceOf(address(this))) */\n      dup2\n      add\n      swap1\n      dup1\n      dup1\n      mload\n      swap1\n      0x20\n      add\n      swap1\n      swap3\n      swap2\n      swap1\n      pop\n      pop\n      pop\n      pop\n        /* \"AllContracts.sol\":12556:12679  if (LINK.balanceOf(address(this)) > 0) {... */\n    tag_268:\n        /* \"AllContracts.sol\":1200:1201  _ */\n      pop\n        /* \"AllContracts.sol\":12106:12686  function closeMachine() public onlyOwner {... */\n      jump\t// out\n        /* \"AllContracts.sol\":14744:14993  function testCloseMachine() public onlyOwner {... */\n    tag_158:\n        /* \"AllContracts.sol\":1141:1153  _msgSender() */\n      tag_278\n        /* \"AllContracts.sol\":1141:1151  _msgSender */\n      tag_186\n        /* \"AllContracts.sol\":1141:1153  _msgSender() */\n      jump\t// in\n    tag_278:\n        /* \"AllContracts.sol\":1131:1153  _owner == _msgSender() */\n      0xffffffffffffffffffffffffffffffffffffffff\n      and\n        /* \"AllContracts.sol\":1131:1137  _owner */\n      0x03\n      0x00\n      swap1\n      sload\n      swap1\n      0x0100\n      exp\n      swap1\n      div\n      0xffffffffffffffffffffffffffffffffffffffff\n      and\n        /* \"AllContracts.sol\":1131:1153  _owner == _msgSender() */\n      0xffffffffffffffffffffffffffffffffffffffff\n      and\n      eq\n        /* \"AllContracts.sol\":1123:1190  require(_owner == _msgSender(), \"Ownable: caller is not the owner\") */\n      tag_279\n      jumpi\n      mload(0x40)\n      0x08c379a000000000000000000000000000000000000000000000000000000000\n      dup2\n      mstore\n      0x04\n      add\n      dup1\n      dup1\n      0x20\n      add\n      dup3\n      dup2\n      sub\n      dup3\n      mstore\n      0x20\n      dup2\n      mstore\n      0x20\n      add\n      dup1\n      0x4f776e61626c653a2063616c6c6572206973206e6f7420746865206f776e6572\n      dup2\n      mstore\n      pop\n      0x20\n      add\n      swap2\n      pop\n      pop\n      mload(0x40)\n      dup1\n      swap2\n      sub\n      swap1\n      revert\n    tag_279:\n        /* \"AllContracts.sol\":14832:14845  _unplayedBets */\n      sload(0x09)\n        /* \"AllContracts.sol\":14808:14829  address(this).balance */\n      selfbalance\n        /* \"AllContracts.sol\":14808:14845  address(this).balance > _unplayedBets */\n      gt\n        /* \"AllContracts.sol\":14799:14846  require (address(this).balance > _unplayedBets) */\n      tag_281\n      jumpi\n      0x00\n      dup1\n      revert\n    tag_281:\n        /* \"AllContracts.sol\":14856:14885  uint availableContractBalance */\n      0x00\n        /* \"AllContracts.sol\":14888:14928  address(this).balance.sub(_unplayedBets) */\n      tag_282\n        /* \"AllContracts.sol\":14914:14927  _unplayedBets */\n      sload(0x09)\n        /* \"AllContracts.sol\":14888:14909  address(this).balance */\n      selfbalance\n        /* \"AllContracts.sol\":14888:14913  address(this).balance.sub */\n      tag_180\n      swap1\n        /* \"AllContracts.sol\":14888:14928  address(this).balance.sub(_unplayedBets) */\n      swap2\n      swap1\n      0xffffffff\n      and\n      jump\t// in\n    tag_282:\n        /* \"AllContracts.sol\":14856:14928  uint availableContractBalance = address(this).balance.sub(_unplayedBets) */\n      swap1\n      pop\n        /* \"AllContracts.sol\":14938:14951  payoutAddress */\n      0x0b\n      0x00\n      swap1\n      sload\n      swap1\n      0x0100\n      exp\n      swap1\n      div\n      0xffffffffffffffffffffffffffffffffffffffff\n      and\n        /* \"AllContracts.sol\":14938:14960  payoutAddress.transfer */\n      0xffffffffffffffffffffffffffffffffffffffff\n      and\n        /* \"AllContracts.sol\":14938:14986  payoutAddress.transfer(availableContractBalance) */\n      0x08fc\n        /* \"AllContracts.sol\":14961:14985  availableContractBalance */\n      dup3\n        /* \"AllContracts.sol\":14938:14986  payoutAddress.transfer(availableContractBalance) */\n      swap1\n      dup2\n      iszero\n      mul\n      swap1\n      mload(0x40)\n      0x00\n      mload(0x40)\n      dup1\n      dup4\n      sub\n      dup2\n      dup6\n      dup9\n      dup9\n      call\n      swap4\n      pop\n      pop\n      pop\n      pop\n      iszero\n        /* \"--CODEGEN--\":8:17   */\n      dup1\n        /* \"--CODEGEN--\":5:7   */\n      iszero\n      tag_284\n      jumpi\n        /* \"--CODEGEN--\":45:61   */\n      returndatasize\n        /* \"--CODEGEN--\":42:43   */\n      0x00\n        /* \"--CODEGEN--\":39:40   */\n      dup1\n        /* \"--CODEGEN--\":24:62   */\n      returndatacopy\n        /* \"--CODEGEN--\":77:93   */\n      returndatasize\n        /* \"--CODEGEN--\":74:75   */\n      0x00\n        /* \"--CODEGEN--\":67:94   */\n      revert\n        /* \"--CODEGEN--\":5:7   */\n    tag_284:\n        /* \"AllContracts.sol\":14938:14986  payoutAddress.transfer(availableContractBalance) */\n      pop\n        /* \"AllContracts.sol\":1200:1201  _ */\n      pop\n        /* \"AllContracts.sol\":14744:14993  function testCloseMachine() public onlyOwner {... */\n      jump\t// out\n        /* \"AllContracts.sol\":12783:13198  function testCreateGame(address payable _player, uint _bet, uint _pick, bool _played, uint _gameID) public {... */\n    tag_162:\n        /* \"AllContracts.sol\":12900:12919  Game memory newGame */\n      tag_286\n      tag_287\n      jump\t// in\n    tag_286:\n        /* \"AllContracts.sol\":12922:13154  Game ({... */\n      mload(0x40)\n      dup1\n      0xc0\n      add\n      0x40\n      mstore\n      dup1\n        /* \"AllContracts.sol\":12946:12953  _gameID */\n      dup4\n        /* \"AllContracts.sol\":12922:13154  Game ({... */\n      dup2\n      mstore\n      0x20\n      add\n        /* \"AllContracts.sol\":12975:12982  _player */\n      dup8\n        /* \"AllContracts.sol\":12922:13154  Game ({... */\n      0xffffffffffffffffffffffffffffffffffffffff\n      and\n      dup2\n      mstore\n      0x20\n      add\n        /* \"AllContracts.sol\":13001:13005  _bet */\n      dup7\n        /* \"AllContracts.sol\":12922:13154  Game ({... */\n      dup2\n      mstore\n      0x20\n      add\n        /* \"AllContracts.sol\":13025:13030  _pick */\n      dup6\n        /* \"AllContracts.sol\":12922:13154  Game ({... */\n      dup2\n      mstore\n      0x20\n      add\n        /* \"AllContracts.sol\":13052:13067  maxPick.add(10) */\n      tag_288\n        /* \"AllContracts.sol\":13064:13066  10 */\n      0x0a\n        /* \"AllContracts.sol\":13052:13059  maxPick */\n      sload(0x06)\n        /* \"AllContracts.sol\":13052:13063  maxPick.add */\n      tag_178\n      swap1\n        /* \"AllContracts.sol\":13052:13067  maxPick.add(10) */\n      swap2\n      swap1\n      0xffffffff\n      and\n      jump\t// in\n    tag_288:\n        /* \"AllContracts.sol\":12922:13154  Game ({... */\n      dup2\n      mstore\n      0x20\n      add\n        /* \"AllContracts.sol\":13136:13143  _played */\n      dup5\n        /* \"AllContracts.sol\":12922:13154  Game ({... */\n      iszero\n      iszero\n      dup2\n      mstore\n      pop\n        /* \"AllContracts.sol\":12900:13154  Game memory newGame = Game ({... */\n      swap1\n      pop\n        /* \"AllContracts.sol\":13184:13191  newGame */\n      dup1\n        /* \"AllContracts.sol\":13164:13169  games */\n      0x0d\n        /* \"AllContracts.sol\":13164:13181  games[newGame.id] */\n      0x00\n        /* \"AllContracts.sol\":13170:13177  newGame */\n      dup4\n        /* \"AllContracts.sol\":13170:13180  newGame.id */\n      0x00\n      add\n      mload\n        /* \"AllContracts.sol\":13164:13181  games[newGame.id] */\n      dup2\n      mstore\n      0x20\n      add\n      swap1\n      dup2\n      mstore\n      0x20\n      add\n      0x00\n      keccak256\n        /* \"AllContracts.sol\":13164:13191  games[newGame.id] = newGame */\n      0x00\n      dup3\n      add\n      mload\n      dup2\n      0x00\n      add\n      sstore\n      0x20\n      dup3\n      add\n      mload\n      dup2\n      0x01\n      add\n      exp(0x0100, 0x00)\n      dup2\n      sload\n      dup2\n      0xffffffffffffffffffffffffffffffffffffffff\n      mul\n      not\n      and\n      swap1\n      dup4\n      0xffffffffffffffffffffffffffffffffffffffff\n      and\n      mul\n      or\n      swap1\n      sstore\n      pop\n      0x40\n      dup3\n      add\n      mload\n      dup2\n      0x02\n      add\n      sstore\n      0x60\n      dup3\n      add\n      mload\n      dup2\n      0x03\n      add\n      sstore\n      0x80\n      dup3\n      add\n      mload\n      dup2\n      0x04\n      add\n      sstore\n      0xa0\n      dup3\n      add\n      mload\n      dup2\n      0x05\n      add\n      exp(0x0100, 0x00)\n      dup2\n      sload\n      dup2\n      0xff\n      mul\n      not\n      and\n      swap1\n      dup4\n      iszero\n      iszero\n      mul\n      or\n      swap1\n      sstore\n      pop\n      swap1\n      pop\n      pop\n        /* \"AllContracts.sol\":12783:13198  function testCreateGame(address payable _player, uint _bet, uint _pick, bool _played, uint _gameID) public {... */\n      pop\n      pop\n      pop\n      pop\n      pop\n      pop\n      jump\t// out\n        /* \"AllContracts.sol\":1844:2084  function transferOwnership(address newOwner) public virtual onlyOwner {... */\n    tag_166:\n        /* \"AllContracts.sol\":1141:1153  _msgSender() */\n      tag_290\n        /* \"AllContracts.sol\":1141:1151  _msgSender */\n      tag_186\n        /* \"AllContracts.sol\":1141:1153  _msgSender() */\n      jump\t// in\n    tag_290:\n        /* \"AllContracts.sol\":1131:1153  _owner == _msgSender() */\n      0xffffffffffffffffffffffffffffffffffffffff\n      and\n        /* \"AllContracts.sol\":1131:1137  _owner */\n      0x03\n      0x00\n      swap1\n      sload\n      swap1\n      0x0100\n      exp\n      swap1\n      div\n      0xffffffffffffffffffffffffffffffffffffffff\n      and\n        /* \"AllContracts.sol\":1131:1153  _owner == _msgSender() */\n      0xffffffffffffffffffffffffffffffffffffffff\n      and\n      eq\n        /* \"AllContracts.sol\":1123:1190  require(_owner == _msgSender(), \"Ownable: caller is not the owner\") */\n      tag_291\n      jumpi\n      mload(0x40)\n      0x08c379a000000000000000000000000000000000000000000000000000000000\n      dup2\n      mstore\n      0x04\n      add\n      dup1\n      dup1\n      0x20\n      add\n      dup3\n      dup2\n      sub\n      dup3\n      mstore\n      0x20\n      dup2\n      mstore\n      0x20\n      add\n      dup1\n      0x4f776e61626c653a2063616c6c6572206973206e6f7420746865206f776e6572\n      dup2\n      mstore\n      pop\n      0x20\n      add\n      swap2\n      pop\n      pop\n      mload(0x40)\n      dup1\n      swap2\n      sub\n      swap1\n      revert\n    tag_291:\n        /* \"AllContracts.sol\":1952:1953  0 */\n      0x00\n        /* \"AllContracts.sol\":1932:1954  newOwner != address(0) */\n      0xffffffffffffffffffffffffffffffffffffffff\n      and\n        /* \"AllContracts.sol\":1932:1940  newOwner */\n      dup2\n        /* \"AllContracts.sol\":1932:1954  newOwner != address(0) */\n      0xffffffffffffffffffffffffffffffffffffffff\n      and\n      eq\n      iszero\n        /* \"AllContracts.sol\":1924:1997  require(newOwner != address(0), \"Ownable: new owner is the zero address\") */\n      tag_293\n      jumpi\n      mload(0x40)\n      0x08c379a000000000000000000000000000000000000000000000000000000000\n      dup2\n      mstore\n      0x04\n      add\n      dup1\n      dup1\n      0x20\n      add\n      dup3\n      dup2\n      sub\n      dup3\n      mstore\n      0x26\n      dup2\n      mstore\n      0x20\n      add\n      dup1\n      data_245f15ff17f551913a7a18385165551503906a406f905ac1c2437281a7cd0cfe\n      0x26\n      swap2\n      codecopy\n      0x40\n      add\n      swap2\n      pop\n      pop\n      mload(0x40)\n      dup1\n      swap2\n      sub\n      swap1\n      revert\n    tag_293:\n        /* \"AllContracts.sol\":2041:2049  newOwner */\n      dup1\n        /* \"AllContracts.sol\":2012:2050  OwnershipTransferred(_owner, newOwner) */\n      0xffffffffffffffffffffffffffffffffffffffff\n      and\n        /* \"AllContracts.sol\":2033:2039  _owner */\n      0x03\n      0x00\n      swap1\n      sload\n      swap1\n      0x0100\n      exp\n      swap1\n      div\n      0xffffffffffffffffffffffffffffffffffffffff\n      and\n        /* \"AllContracts.sol\":2012:2050  OwnershipTransferred(_owner, newOwner) */\n      0xffffffffffffffffffffffffffffffffffffffff\n      and\n      0x8be0079c531659141344cd1fd0a4f28419497f9722a3daafe3b4186f6b6457e0\n      mload(0x40)\n      mload(0x40)\n      dup1\n      swap2\n      sub\n      swap1\n      log3\n        /* \"AllContracts.sol\":2069:2077  newOwner */\n      dup1\n        /* \"AllContracts.sol\":2060:2066  _owner */\n      0x03\n      0x00\n        /* \"AllContracts.sol\":2060:2077  _owner = newOwner */\n      0x0100\n      exp\n      dup2\n      sload\n      dup2\n      0xffffffffffffffffffffffffffffffffffffffff\n      mul\n      not\n      and\n      swap1\n      dup4\n      0xffffffffffffffffffffffffffffffffffffffff\n      and\n      mul\n      or\n      swap1\n      sstore\n      pop\n        /* \"AllContracts.sol\":1844:2084  function transferOwnership(address newOwner) public virtual onlyOwner {... */\n      pop\n      jump\t// out\n        /* \"AllContracts.sol\":7493:7964  function betInRange(uint bet) public view returns(bool){... */\n    tag_170:\n        /* \"AllContracts.sol\":7543:7547  bool */\n      0x00\n        /* \"AllContracts.sol\":7569:7575  minBet */\n      sload(0x08)\n        /* \"AllContracts.sol\":7562:7565  bet */\n      dup3\n        /* \"AllContracts.sol\":7562:7575  bet >= minBet */\n      lt\n      iszero\n        /* \"AllContracts.sol\":7562:7592  bet >= minBet && bet <= maxBet */\n      dup1\n      iszero\n      tag_295\n      jumpi\n      pop\n        /* \"AllContracts.sol\":7586:7592  maxBet */\n      sload(0x07)\n        /* \"AllContracts.sol\":7579:7582  bet */\n      dup3\n        /* \"AllContracts.sol\":7579:7592  bet <= maxBet */\n      gt\n      iszero\n        /* \"AllContracts.sol\":7562:7592  bet >= minBet && bet <= maxBet */\n    tag_295:\n        /* \"AllContracts.sol\":7558:7958  if (bet >= minBet && bet <= maxBet) {... */\n      iszero\n      tag_296\n      jumpi\n        /* \"AllContracts.sol\":7900:7904  true */\n      0x01\n        /* \"AllContracts.sol\":7893:7904  return true */\n      swap1\n      pop\n      jump(tag_294)\n        /* \"AllContracts.sol\":7558:7958  if (bet >= minBet && bet <= maxBet) {... */\n    tag_296:\n        /* \"AllContracts.sol\":7942:7947  false */\n      0x00\n        /* \"AllContracts.sol\":7935:7947  return false */\n      swap1\n      pop\n        /* \"AllContracts.sol\":7493:7964  function betInRange(uint bet) public view returns(bool){... */\n    tag_294:\n      swap2\n      swap1\n      pop\n      jump\t// out\n        /* \"AllContracts.sol\":13204:13694  function testPlaceBetFor(address payable player, uint pick, uint256 testRandomNumber) public payable {... */\n    tag_173:\n        /* \"AllContracts.sol\":13321:13342  betPayable(msg.value) */\n      tag_299\n        /* \"AllContracts.sol\":13332:13341  msg.value */\n      callvalue\n        /* \"AllContracts.sol\":13321:13331  betPayable */\n      tag_51\n        /* \"AllContracts.sol\":13321:13342  betPayable(msg.value) */\n      jump\t// in\n    tag_299:\n        /* \"AllContracts.sol\":13313:13401  require(betPayable(msg.value), \"Contract has insufficint funds to payout possible win.\") */\n      tag_300\n      jumpi\n      mload(0x40)\n      0x08c379a000000000000000000000000000000000000000000000000000000000\n      dup2\n      mstore\n      0x04\n      add\n      dup1\n      dup1\n      0x20\n      add\n      dup3\n      dup2\n      sub\n      dup3\n      mstore\n      0x36\n      dup2\n      mstore\n      0x20\n      add\n      dup1\n      data_588b68a2a6ccdc15b2dae26a385280edec71bed95b5b14a24b760c56e4f665d6\n      0x36\n      swap2\n      codecopy\n      0x40\n      add\n      swap2\n      pop\n      pop\n      mload(0x40)\n      dup1\n      swap2\n      sub\n      swap1\n      revert\n    tag_300:\n        /* \"AllContracts.sol\":13425:13432  maxPick */\n      sload(0x06)\n        /* \"AllContracts.sol\":13417:13421  pick */\n      dup3\n        /* \"AllContracts.sol\":13417:13432  pick <= maxPick */\n      gt\n      iszero\n        /* \"AllContracts.sol\":13409:13477  require(pick <= maxPick, \"Pick is too high. Choose a lower number.\") */\n      tag_301\n      jumpi\n      mload(0x40)\n      0x08c379a000000000000000000000000000000000000000000000000000000000\n      dup2\n      mstore\n      0x04\n      add\n      dup1\n      dup1\n      0x20\n      add\n      dup3\n      dup2\n      sub\n      dup3\n      mstore\n      0x28\n      dup2\n      mstore\n      0x20\n      add\n      dup1\n      data_104d4309dbdd0d693502d943a07623e5e639a80ec32910748a6b4f701d61cac8\n      0x28\n      swap2\n      codecopy\n      0x40\n      add\n      swap2\n      pop\n      pop\n      mload(0x40)\n      dup1\n      swap2\n      sub\n      swap1\n      revert\n    tag_301:\n        /* \"AllContracts.sol\":13493:13514  betInRange(msg.value) */\n      tag_302\n        /* \"AllContracts.sol\":13504:13513  msg.value */\n      callvalue\n        /* \"AllContracts.sol\":13493:13503  betInRange */\n      tag_170\n        /* \"AllContracts.sol\":13493:13514  betInRange(msg.value) */\n      jump\t// in\n    tag_302:\n        /* \"AllContracts.sol\":13485:13539  require(betInRange(msg.value),\"Outisde of bet range.\") */\n      tag_303\n      jumpi\n      mload(0x40)\n      0x08c379a000000000000000000000000000000000000000000000000000000000\n      dup2\n      mstore\n      0x04\n      add\n      dup1\n      dup1\n      0x20\n      add\n      dup3\n      dup2\n      sub\n      dup3\n      mstore\n      0x15\n      dup2\n      mstore\n      0x20\n      add\n      dup1\n      0x4f757469736465206f66206265742072616e67652e0000000000000000000000\n      dup2\n      mstore\n      pop\n      0x20\n      add\n      swap2\n      pop\n      pop\n      mload(0x40)\n      dup1\n      swap2\n      sub\n      swap1\n      revert\n    tag_303:\n        /* \"AllContracts.sol\":13564:13592  _unplayedBets.add(msg.value) */\n      tag_304\n        /* \"AllContracts.sol\":13582:13591  msg.value */\n      callvalue\n        /* \"AllContracts.sol\":13564:13577  _unplayedBets */\n      sload(0x09)\n        /* \"AllContracts.sol\":13564:13581  _unplayedBets.add */\n      tag_178\n      swap1\n        /* \"AllContracts.sol\":13564:13592  _unplayedBets.add(msg.value) */\n      swap2\n      swap1\n      0xffffffff\n      and\n      jump\t// in\n    tag_304:\n        /* \"AllContracts.sol\":13548:13561  _unplayedBets */\n      0x09\n        /* \"AllContracts.sol\":13548:13592  _unplayedBets = _unplayedBets.add(msg.value) */\n      dup2\n      swap1\n      sstore\n      pop\n        /* \"AllContracts.sol\":13600:13635  createGame(player, msg.value, pick) */\n      tag_305\n        /* \"AllContracts.sol\":13611:13617  player */\n      dup4\n        /* \"AllContracts.sol\":13619:13628  msg.value */\n      callvalue\n        /* \"AllContracts.sol\":13630:13634  pick */\n      dup5\n        /* \"AllContracts.sol\":13600:13610  createGame */\n      tag_246\n        /* \"AllContracts.sol\":13600:13635  createGame(player, msg.value, pick) */\n      jump\t// in\n    tag_305:\n        /* \"AllContracts.sol\":13643:13687  testPlayGame(_currentGame, testRandomNumber) */\n      tag_306\n        /* \"AllContracts.sol\":13656:13668  _currentGame */\n      sload(0x0a)\n        /* \"AllContracts.sol\":13670:13686  testRandomNumber */\n      dup3\n        /* \"AllContracts.sol\":13643:13655  testPlayGame */\n      tag_95\n        /* \"AllContracts.sol\":13643:13687  testPlayGame(_currentGame, testRandomNumber) */\n      jump\t// in\n    tag_306:\n        /* \"AllContracts.sol\":13204:13694  function testPlaceBetFor(address payable player, uint pick, uint256 testRandomNumber) public payable {... */\n      pop\n      pop\n      pop\n      jump\t// out\n        /* \"AllContracts.sol\":2454:2668  function mul(uint256 a, uint256 b) internal pure returns (uint256) {... */\n    tag_177:\n        /* \"AllContracts.sol\":2512:2519  uint256 */\n      0x00\n        /* \"AllContracts.sol\":2537:2538  0 */\n      dup1\n        /* \"AllContracts.sol\":2532:2533  a */\n      dup4\n        /* \"AllContracts.sol\":2532:2538  a == 0 */\n      eq\n        /* \"AllContracts.sol\":2528:2563  if (a == 0) {... */\n      iszero\n      tag_308\n      jumpi\n        /* \"AllContracts.sol\":2555:2556  0 */\n      0x00\n        /* \"AllContracts.sol\":2548:2556  return 0 */\n      swap1\n      pop\n      jump(tag_307)\n        /* \"AllContracts.sol\":2528:2563  if (a == 0) {... */\n    tag_308:\n        /* \"AllContracts.sol\":2569:2578  uint256 c */\n      0x00\n        /* \"AllContracts.sol\":2585:2586  b */\n      dup3\n        /* \"AllContracts.sol\":2581:2582  a */\n      dup5\n        /* \"AllContracts.sol\":2581:2586  a * b */\n      mul\n        /* \"AllContracts.sol\":2569:2586  uint256 c = a * b */\n      swap1\n      pop\n        /* \"AllContracts.sol\":2609:2610  b */\n      dup3\n        /* \"AllContracts.sol\":2604:2605  a */\n      dup5\n        /* \"AllContracts.sol\":2600:2601  c */\n      dup3\n        /* \"AllContracts.sol\":2600:2605  c / a */\n      dup2\n      tag_309\n      jumpi\n      invalid\n    tag_309:\n      div\n        /* \"AllContracts.sol\":2600:2610  c / a == b */\n      eq\n        /* \"AllContracts.sol\":2592:2648  require(c / a == b, \"SafeMath: multiplication overflow\") */\n      tag_310\n      jumpi\n      mload(0x40)\n      0x08c379a000000000000000000000000000000000000000000000000000000000\n      dup2\n      mstore\n      0x04\n      add\n      dup1\n      dup1\n      0x20\n      add\n      dup3\n      dup2\n      sub\n      dup3\n      mstore\n      0x21\n      dup2\n      mstore\n      0x20\n      add\n      dup1\n      data_9113bb53c2876a3805b2c9242029423fc540a728243ce887ab24c82cf119fba3\n      0x21\n      swap2\n      codecopy\n      0x40\n      add\n      swap2\n      pop\n      pop\n      mload(0x40)\n      dup1\n      swap2\n      sub\n      swap1\n      revert\n    tag_310:\n        /* \"AllContracts.sol\":2662:2663  c */\n      dup1\n        /* \"AllContracts.sol\":2655:2663  return c */\n      swap2\n      pop\n      pop\n        /* \"AllContracts.sol\":2454:2668  function mul(uint256 a, uint256 b) internal pure returns (uint256) {... */\n    tag_307:\n      swap3\n      swap2\n      pop\n      pop\n      jump\t// out\n        /* \"AllContracts.sol\":2119:2281  function add(uint256 a, uint256 b) internal pure returns (uint256) {... */\n    tag_178:\n        /* \"AllContracts.sol\":2177:2184  uint256 */\n      0x00\n        /* \"AllContracts.sol\":2192:2201  uint256 c */\n      dup1\n        /* \"AllContracts.sol\":2208:2209  b */\n      dup3\n        /* \"AllContracts.sol\":2204:2205  a */\n      dup5\n        /* \"AllContracts.sol\":2204:2209  a + b */\n      add\n        /* \"AllContracts.sol\":2192:2209  uint256 c = a + b */\n      swap1\n      pop\n        /* \"AllContracts.sol\":2228:2229  a */\n      dup4\n        /* \"AllContracts.sol\":2223:2224  c */\n      dup2\n        /* \"AllContracts.sol\":2223:2229  c >= a */\n      lt\n      iszero\n        /* \"AllContracts.sol\":2215:2261  require(c >= a, \"SafeMath: addition overflow\") */\n      tag_312\n      jumpi\n      mload(0x40)\n      0x08c379a000000000000000000000000000000000000000000000000000000000\n      dup2\n      mstore\n      0x04\n      add\n      dup1\n      dup1\n      0x20\n      add\n      dup3\n      dup2\n      sub\n      dup3\n      mstore\n      0x1b\n      dup2\n      mstore\n      0x20\n      add\n      dup1\n      0x536166654d6174683a206164646974696f6e206f766572666c6f770000000000\n      dup2\n      mstore\n      pop\n      0x20\n      add\n      swap2\n      pop\n      pop\n      mload(0x40)\n      dup1\n      swap2\n      sub\n      swap1\n      revert\n    tag_312:\n        /* \"AllContracts.sol\":2275:2276  c */\n      dup1\n        /* \"AllContracts.sol\":2268:2276  return c */\n      swap2\n      pop\n      pop\n        /* \"AllContracts.sol\":2119:2281  function add(uint256 a, uint256 b) internal pure returns (uint256) {... */\n      swap3\n      swap2\n      pop\n      pop\n      jump\t// out\n        /* \"AllContracts.sol\":2285:2450  function sub(uint256 a, uint256 b) internal pure returns (uint256) {... */\n    tag_180:\n        /* \"AllContracts.sol\":2343:2350  uint256 */\n      0x00\n        /* \"AllContracts.sol\":2371:2372  a */\n      dup3\n        /* \"AllContracts.sol\":2366:2367  b */\n      dup3\n        /* \"AllContracts.sol\":2366:2372  b <= a */\n      gt\n      iszero\n        /* \"AllContracts.sol\":2358:2407  require(b <= a, \"SafeMath: subtraction overflow\") */\n      tag_314\n      jumpi\n      mload(0x40)\n      0x08c379a000000000000000000000000000000000000000000000000000000000\n      dup2\n      mstore\n      0x04\n      add\n      dup1\n      dup1\n      0x20\n      add\n      dup3\n      dup2\n      sub\n      dup3\n      mstore\n      0x1e\n      dup2\n      mstore\n      0x20\n      add\n      dup1\n      0x536166654d6174683a207375627472616374696f6e206f766572666c6f770000\n      dup2\n      mstore\n      pop\n      0x20\n      add\n      swap2\n      pop\n      pop\n      mload(0x40)\n      dup1\n      swap2\n      sub\n      swap1\n      revert\n    tag_314:\n        /* \"AllContracts.sol\":2413:2422  uint256 c */\n      0x00\n        /* \"AllContracts.sol\":2429:2430  b */\n      dup3\n        /* \"AllContracts.sol\":2425:2426  a */\n      dup5\n        /* \"AllContracts.sol\":2425:2430  a - b */\n      sub\n        /* \"AllContracts.sol\":2413:2430  uint256 c = a - b */\n      swap1\n      pop\n        /* \"AllContracts.sol\":2444:2445  c */\n      dup1\n        /* \"AllContracts.sol\":2437:2445  return c */\n      swap2\n      pop\n      pop\n        /* \"AllContracts.sol\":2285:2450  function sub(uint256 a, uint256 b) internal pure returns (uint256) {... */\n      swap3\n      swap2\n      pop\n      pop\n      jump\t// out\n        /* \"AllContracts.sol\":90:194  function _msgSender() internal view virtual returns (address payable) {... */\n    tag_186:\n        /* \"AllContracts.sol\":143:158  address payable */\n      0x00\n        /* \"AllContracts.sol\":177:187  msg.sender */\n      caller\n        /* \"AllContracts.sol\":170:187  return msg.sender */\n      swap1\n      pop\n        /* \"AllContracts.sol\":90:194  function _msgSender() internal view virtual returns (address payable) {... */\n      swap1\n      jump\t// out\n        /* \"AllContracts.sol\":14035:14738  function testFulfillRandomness(bytes32 requestId, uint256 randomness) internal {... */\n    tag_205:\n        /* \"AllContracts.sol\":14124:14138  Game storage g */\n      0x00\n        /* \"AllContracts.sol\":14141:14146  games */\n      0x0d\n        /* \"AllContracts.sol\":14141:14172  games[_gameRequests[requestId]] */\n      0x00\n        /* \"AllContracts.sol\":14147:14160  _gameRequests */\n      0x0e\n        /* \"AllContracts.sol\":14147:14171  _gameRequests[requestId] */\n      0x00\n        /* \"AllContracts.sol\":14161:14170  requestId */\n      dup7\n        /* \"AllContracts.sol\":14147:14171  _gameRequests[requestId] */\n      dup2\n      mstore\n      0x20\n      add\n      swap1\n      dup2\n      mstore\n      0x20\n      add\n      0x00\n      keccak256\n      sload\n        /* \"AllContracts.sol\":14141:14172  games[_gameRequests[requestId]] */\n      dup2\n      mstore\n      0x20\n      add\n      swap1\n      dup2\n      mstore\n      0x20\n      add\n      0x00\n      keccak256\n        /* \"AllContracts.sol\":14124:14172  Game storage g = games[_gameRequests[requestId]] */\n      swap1\n      pop\n        /* \"AllContracts.sol\":14192:14193  0 */\n      0x00\n        /* \"AllContracts.sol\":14185:14186  g */\n      dup2\n        /* \"AllContracts.sol\":14185:14189  g.id */\n      0x00\n      add\n      sload\n        /* \"AllContracts.sol\":14185:14193  g.id > 0 */\n      gt\n        /* \"AllContracts.sol\":14182:14732  if(g.id > 0){... */\n      iszero\n      tag_317\n      jumpi\n        /* \"AllContracts.sol\":14208:14224  uint totalPayout */\n      0x00\n        /* \"AllContracts.sol\":14247:14248  g */\n      dup2\n        /* \"AllContracts.sol\":14247:14252  g.bet */\n      0x02\n      add\n      sload\n        /* \"AllContracts.sol\":14227:14244  g.bet.mul(payout) */\n      tag_318\n        /* \"AllContracts.sol\":14237:14243  payout */\n      sload(0x0c)\n        /* \"AllContracts.sol\":14227:14228  g */\n      dup5\n        /* \"AllContracts.sol\":14227:14232  g.bet */\n      0x02\n      add\n      sload\n        /* \"AllContracts.sol\":14227:14236  g.bet.mul */\n      tag_177\n      swap1\n        /* \"AllContracts.sol\":14227:14244  g.bet.mul(payout) */\n      swap2\n      swap1\n      0xffffffff\n      and\n      jump\t// in\n    tag_318:\n        /* \"AllContracts.sol\":14227:14252  g.bet.mul(payout) + g.bet */\n      add\n        /* \"AllContracts.sol\":14208:14252  uint totalPayout = g.bet.mul(payout) + g.bet */\n      swap1\n      pop\n        /* \"AllContracts.sol\":14299:14310  totalPayout */\n      dup1\n        /* \"AllContracts.sol\":14274:14295  address(this).balance */\n      selfbalance\n        /* \"AllContracts.sol\":14274:14310  address(this).balance >= totalPayout */\n      lt\n      iszero\n        /* \"AllContracts.sol\":14266:14366  require(address(this).balance >= totalPayout, \"Unable to pay. Please play again or request refund.\") */\n      tag_319\n      jumpi\n      mload(0x40)\n      0x08c379a000000000000000000000000000000000000000000000000000000000\n      dup2\n      mstore\n      0x04\n      add\n      dup1\n      dup1\n      0x20\n      add\n      dup3\n      dup2\n      sub\n      dup3\n      mstore\n      0x33\n      dup2\n      mstore\n      0x20\n      add\n      dup1\n      data_ef92889bcd3368ac0e5c94a5c325c5cf21da03eb1576ee7d446327960d5fae81\n      0x33\n      swap2\n      codecopy\n      0x40\n      add\n      swap2\n      pop\n      pop\n      mload(0x40)\n      dup1\n      swap2\n      sub\n      swap1\n      revert\n    tag_319:\n        /* \"AllContracts.sol\":14392:14402  randomness */\n      dup3\n        /* \"AllContracts.sol\":14381:14382  g */\n      dup3\n        /* \"AllContracts.sol\":14381:14389  g.winner */\n      0x04\n      add\n        /* \"AllContracts.sol\":14381:14402  g.winner = randomness */\n      dup2\n      swap1\n      sstore\n      pop\n        /* \"AllContracts.sol\":14427:14431  true */\n      0x01\n        /* \"AllContracts.sol\":14416:14417  g */\n      dup3\n        /* \"AllContracts.sol\":14416:14424  g.played */\n      0x05\n      add\n      0x00\n        /* \"AllContracts.sol\":14416:14431  g.played = true */\n      0x0100\n      exp\n      dup2\n      sload\n      dup2\n      0xff\n      mul\n      not\n      and\n      swap1\n      dup4\n      iszero\n      iszero\n      mul\n      or\n      swap1\n      sstore\n      pop\n        /* \"AllContracts.sol\":14466:14467  g */\n      dup2\n        /* \"AllContracts.sol\":14466:14471  g.bet */\n      0x02\n      add\n      sload\n        /* \"AllContracts.sol\":14449:14462  _unplayedBets */\n      sload(0x09)\n        /* \"AllContracts.sol\":14449:14471  _unplayedBets >= g.bet */\n      lt\n        /* \"AllContracts.sol\":14446:14584  if(_unplayedBets >= g.bet) {... */\n      tag_320\n      jumpi\n        /* \"AllContracts.sol\":14508:14509  g */\n      dup2\n        /* \"AllContracts.sol\":14508:14513  g.bet */\n      0x02\n      add\n      sload\n        /* \"AllContracts.sol\":14491:14504  _unplayedBets */\n      0x09\n      0x00\n        /* \"AllContracts.sol\":14491:14513  _unplayedBets -= g.bet */\n      dup3\n      dup3\n      sload\n      sub\n      swap3\n      pop\n      pop\n      dup2\n      swap1\n      sstore\n      pop\n        /* \"AllContracts.sol\":14446:14584  if(_unplayedBets >= g.bet) {... */\n      jump(tag_321)\n    tag_320:\n        /* \"AllContracts.sol\":14568:14569  0 */\n      0x00\n        /* \"AllContracts.sol\":14552:14565  _unplayedBets */\n      0x09\n        /* \"AllContracts.sol\":14552:14569  _unplayedBets = 0 */\n      dup2\n      swap1\n      sstore\n      pop\n        /* \"AllContracts.sol\":14446:14584  if(_unplayedBets >= g.bet) {... */\n    tag_321:\n        /* \"AllContracts.sol\":14612:14613  g */\n      dup2\n        /* \"AllContracts.sol\":14612:14620  g.winner */\n      0x04\n      add\n      sload\n        /* \"AllContracts.sol\":14602:14603  g */\n      dup3\n        /* \"AllContracts.sol\":14602:14608  g.pick */\n      0x03\n      add\n      sload\n        /* \"AllContracts.sol\":14602:14620  g.pick == g.winner */\n      eq\n        /* \"AllContracts.sol\":14598:14685  if (g.pick == g.winner) {... */\n      iszero\n      tag_322\n      jumpi\n        /* \"AllContracts.sol\":14640:14641  g */\n      dup2\n        /* \"AllContracts.sol\":14640:14648  g.player */\n      0x01\n      add\n      0x00\n      swap1\n      sload\n      swap1\n      0x0100\n      exp\n      swap1\n      div\n      0xffffffffffffffffffffffffffffffffffffffff\n      and\n        /* \"AllContracts.sol\":14640:14657  g.player.transfer */\n      0xffffffffffffffffffffffffffffffffffffffff\n      and\n        /* \"AllContracts.sol\":14640:14670  g.player.transfer(totalPayout) */\n      0x08fc\n        /* \"AllContracts.sol\":14658:14669  totalPayout */\n      dup3\n        /* \"AllContracts.sol\":14640:14670  g.player.transfer(totalPayout) */\n      swap1\n      dup2\n      iszero\n      mul\n      swap1\n      mload(0x40)\n      0x00\n      mload(0x40)\n      dup1\n      dup4\n      sub\n      dup2\n      dup6\n      dup9\n      dup9\n      call\n      swap4\n      pop\n      pop\n      pop\n      pop\n      iszero\n        /* \"--CODEGEN--\":8:17   */\n      dup1\n        /* \"--CODEGEN--\":5:7   */\n      iszero\n      tag_324\n      jumpi\n        /* \"--CODEGEN--\":45:61   */\n      returndatasize\n        /* \"--CODEGEN--\":42:43   */\n      0x00\n        /* \"--CODEGEN--\":39:40   */\n      dup1\n        /* \"--CODEGEN--\":24:62   */\n      returndatacopy\n        /* \"--CODEGEN--\":77:93   */\n      returndatasize\n        /* \"--CODEGEN--\":74:75   */\n      0x00\n        /* \"--CODEGEN--\":67:94   */\n      revert\n        /* \"--CODEGEN--\":5:7   */\n    tag_324:\n        /* \"AllContracts.sol\":14640:14670  g.player.transfer(totalPayout) */\n      pop\n        /* \"AllContracts.sol\":14598:14685  if (g.pick == g.winner) {... */\n    tag_322:\n        /* \"AllContracts.sol\":14182:14732  if(g.id > 0){... */\n      pop\n    tag_317:\n        /* \"AllContracts.sol\":14035:14738  function testFulfillRandomness(bytes32 requestId, uint256 randomness) internal {... */\n      pop\n      pop\n      pop\n      jump\t// out\n        /* \"AllContracts.sol\":9704:10652  function fulfillRandomness(bytes32 requestId, uint256 randomness) internal override {... */\n    tag_222:\n        /* \"AllContracts.sol\":9835:9849  Game storage g */\n      0x00\n        /* \"AllContracts.sol\":9852:9857  games */\n      0x0d\n        /* \"AllContracts.sol\":9852:9883  games[_gameRequests[requestId]] */\n      0x00\n        /* \"AllContracts.sol\":9858:9871  _gameRequests */\n      0x0e\n        /* \"AllContracts.sol\":9858:9882  _gameRequests[requestId] */\n      0x00\n        /* \"AllContracts.sol\":9872:9881  requestId */\n      dup7\n        /* \"AllContracts.sol\":9858:9882  _gameRequests[requestId] */\n      dup2\n      mstore\n      0x20\n      add\n      swap1\n      dup2\n      mstore\n      0x20\n      add\n      0x00\n      keccak256\n      sload\n        /* \"AllContracts.sol\":9852:9883  games[_gameRequests[requestId]] */\n      dup2\n      mstore\n      0x20\n      add\n      swap1\n      dup2\n      mstore\n      0x20\n      add\n      0x00\n      keccak256\n        /* \"AllContracts.sol\":9835:9883  Game storage g = games[_gameRequests[requestId]] */\n      swap1\n      pop\n        /* \"AllContracts.sol\":9903:9904  0 */\n      0x00\n        /* \"AllContracts.sol\":9896:9897  g */\n      dup2\n        /* \"AllContracts.sol\":9896:9900  g.id */\n      0x00\n      add\n      sload\n        /* \"AllContracts.sol\":9896:9904  g.id > 0 */\n      gt\n        /* \"AllContracts.sol\":9893:10646  if(g.id > 0){... */\n      iszero\n      tag_326\n      jumpi\n        /* \"AllContracts.sol\":9919:9935  uint totalPayout */\n      0x00\n        /* \"AllContracts.sol\":9958:9959  g */\n      dup2\n        /* \"AllContracts.sol\":9958:9963  g.bet */\n      0x02\n      add\n      sload\n        /* \"AllContracts.sol\":9938:9955  g.bet.mul(payout) */\n      tag_327\n        /* \"AllContracts.sol\":9948:9954  payout */\n      sload(0x0c)\n        /* \"AllContracts.sol\":9938:9939  g */\n      dup5\n        /* \"AllContracts.sol\":9938:9943  g.bet */\n      0x02\n      add\n      sload\n        /* \"AllContracts.sol\":9938:9947  g.bet.mul */\n      tag_177\n      swap1\n        /* \"AllContracts.sol\":9938:9955  g.bet.mul(payout) */\n      swap2\n      swap1\n      0xffffffff\n      and\n      jump\t// in\n    tag_327:\n        /* \"AllContracts.sol\":9938:9963  g.bet.mul(payout) + g.bet */\n      add\n        /* \"AllContracts.sol\":9919:9963  uint totalPayout = g.bet.mul(payout) + g.bet */\n      swap1\n      pop\n        /* \"AllContracts.sol\":10010:10021  totalPayout */\n      dup1\n        /* \"AllContracts.sol\":9985:10006  address(this).balance */\n      selfbalance\n        /* \"AllContracts.sol\":9985:10021  address(this).balance >= totalPayout */\n      lt\n      iszero\n        /* \"AllContracts.sol\":9977:10077  require(address(this).balance >= totalPayout, \"Unable to pay. Please play again or request refund.\") */\n      tag_328\n      jumpi\n      mload(0x40)\n      0x08c379a000000000000000000000000000000000000000000000000000000000\n      dup2\n      mstore\n      0x04\n      add\n      dup1\n      dup1\n      0x20\n      add\n      dup3\n      dup2\n      sub\n      dup3\n      mstore\n      0x33\n      dup2\n      mstore\n      0x20\n      add\n      dup1\n      data_ef92889bcd3368ac0e5c94a5c325c5cf21da03eb1576ee7d446327960d5fae81\n      0x33\n      swap2\n      codecopy\n      0x40\n      add\n      swap2\n      pop\n      pop\n      mload(0x40)\n      dup1\n      swap2\n      sub\n      swap1\n      revert\n    tag_328:\n        /* \"AllContracts.sol\":10149:10179  randomness.mod(maxPick.add(1)) */\n      tag_329\n        /* \"AllContracts.sol\":10164:10178  maxPick.add(1) */\n      tag_330\n        /* \"AllContracts.sol\":10176:10177  1 */\n      0x01\n        /* \"AllContracts.sol\":10164:10171  maxPick */\n      sload(0x06)\n        /* \"AllContracts.sol\":10164:10175  maxPick.add */\n      tag_178\n      swap1\n        /* \"AllContracts.sol\":10164:10178  maxPick.add(1) */\n      swap2\n      swap1\n      0xffffffff\n      and\n      jump\t// in\n    tag_330:\n        /* \"AllContracts.sol\":10149:10159  randomness */\n      dup5\n        /* \"AllContracts.sol\":10149:10163  randomness.mod */\n      tag_331\n      swap1\n        /* \"AllContracts.sol\":10149:10179  randomness.mod(maxPick.add(1)) */\n      swap2\n      swap1\n      0xffffffff\n      and\n      jump\t// in\n    tag_329:\n        /* \"AllContracts.sol\":10138:10139  g */\n      dup3\n        /* \"AllContracts.sol\":10138:10146  g.winner */\n      0x04\n      add\n        /* \"AllContracts.sol\":10138:10179  g.winner = randomness.mod(maxPick.add(1)) */\n      dup2\n      swap1\n      sstore\n      pop\n        /* \"AllContracts.sol\":10239:10243  true */\n      0x01\n        /* \"AllContracts.sol\":10228:10229  g */\n      dup3\n        /* \"AllContracts.sol\":10228:10236  g.played */\n      0x05\n      add\n      0x00\n        /* \"AllContracts.sol\":10228:10243  g.played = true */\n      0x0100\n      exp\n      dup2\n      sload\n      dup2\n      0xff\n      mul\n      not\n      and\n      swap1\n      dup4\n      iszero\n      iszero\n      mul\n      or\n      swap1\n      sstore\n      pop\n        /* \"AllContracts.sol\":10319:10320  g */\n      dup2\n        /* \"AllContracts.sol\":10319:10324  g.bet */\n      0x02\n      add\n      sload\n        /* \"AllContracts.sol\":10302:10315  _unplayedBets */\n      sload(0x09)\n        /* \"AllContracts.sol\":10302:10324  _unplayedBets >= g.bet */\n      lt\n        /* \"AllContracts.sol\":10299:10437  if(_unplayedBets >= g.bet) {... */\n      tag_332\n      jumpi\n        /* \"AllContracts.sol\":10361:10362  g */\n      dup2\n        /* \"AllContracts.sol\":10361:10366  g.bet */\n      0x02\n      add\n      sload\n        /* \"AllContracts.sol\":10344:10357  _unplayedBets */\n      0x09\n      0x00\n        /* \"AllContracts.sol\":10344:10366  _unplayedBets -= g.bet */\n      dup3\n      dup3\n      sload\n      sub\n      swap3\n      pop\n      pop\n      dup2\n      swap1\n      sstore\n      pop\n        /* \"AllContracts.sol\":10299:10437  if(_unplayedBets >= g.bet) {... */\n      jump(tag_333)\n    tag_332:\n        /* \"AllContracts.sol\":10421:10422  0 */\n      0x00\n        /* \"AllContracts.sol\":10405:10418  _unplayedBets */\n      0x09\n        /* \"AllContracts.sol\":10405:10422  _unplayedBets = 0 */\n      dup2\n      swap1\n      sstore\n      pop\n        /* \"AllContracts.sol\":10299:10437  if(_unplayedBets >= g.bet) {... */\n    tag_333:\n        /* \"AllContracts.sol\":10525:10526  g */\n      dup2\n        /* \"AllContracts.sol\":10525:10533  g.winner */\n      0x04\n      add\n      sload\n        /* \"AllContracts.sol\":10515:10516  g */\n      dup3\n        /* \"AllContracts.sol\":10515:10521  g.pick */\n      0x03\n      add\n      sload\n        /* \"AllContracts.sol\":10515:10533  g.pick == g.winner */\n      eq\n        /* \"AllContracts.sol\":10511:10598  if (g.pick == g.winner) {... */\n      iszero\n      tag_334\n      jumpi\n        /* \"AllContracts.sol\":10553:10554  g */\n      dup2\n        /* \"AllContracts.sol\":10553:10561  g.player */\n      0x01\n      add\n      0x00\n      swap1\n      sload\n      swap1\n      0x0100\n      exp\n      swap1\n      div\n      0xffffffffffffffffffffffffffffffffffffffff\n      and\n        /* \"AllContracts.sol\":10553:10570  g.player.transfer */\n      0xffffffffffffffffffffffffffffffffffffffff\n      and\n        /* \"AllContracts.sol\":10553:10583  g.player.transfer(totalPayout) */\n      0x08fc\n        /* \"AllContracts.sol\":10571:10582  totalPayout */\n      dup3\n        /* \"AllContracts.sol\":10553:10583  g.player.transfer(totalPayout) */\n      swap1\n      dup2\n      iszero\n      mul\n      swap1\n      mload(0x40)\n      0x00\n      mload(0x40)\n      dup1\n      dup4\n      sub\n      dup2\n      dup6\n      dup9\n      dup9\n      call\n      swap4\n      pop\n      pop\n      pop\n      pop\n      iszero\n        /* \"--CODEGEN--\":8:17   */\n      dup1\n        /* \"--CODEGEN--\":5:7   */\n      iszero\n      tag_336\n      jumpi\n        /* \"--CODEGEN--\":45:61   */\n      returndatasize\n        /* \"--CODEGEN--\":42:43   */\n      0x00\n        /* \"--CODEGEN--\":39:40   */\n      dup1\n        /* \"--CODEGEN--\":24:62   */\n      returndatacopy\n        /* \"--CODEGEN--\":77:93   */\n      returndatasize\n        /* \"--CODEGEN--\":74:75   */\n      0x00\n        /* \"--CODEGEN--\":67:94   */\n      revert\n        /* \"--CODEGEN--\":5:7   */\n    tag_336:\n        /* \"AllContracts.sol\":10553:10583  g.player.transfer(totalPayout) */\n      pop\n        /* \"AllContracts.sol\":10511:10598  if (g.pick == g.winner) {... */\n    tag_334:\n        /* \"AllContracts.sol\":9893:10646  if(g.id > 0){... */\n      pop\n    tag_326:\n        /* \"AllContracts.sol\":9704:10652  function fulfillRandomness(bytes32 requestId, uint256 randomness) internal override {... */\n      pop\n      pop\n      pop\n      jump\t// out\n        /* \"AllContracts.sol\":8705:9137  function createGame(address payable _player, uint _bet, uint _pick) internal {... */\n    tag_246:\n        /* \"AllContracts.sol\":8807:8826  _currentGame.add(1) */\n      tag_338\n        /* \"AllContracts.sol\":8824:8825  1 */\n      0x01\n        /* \"AllContracts.sol\":8807:8819  _currentGame */\n      sload(0x0a)\n        /* \"AllContracts.sol\":8807:8823  _currentGame.add */\n      tag_178\n      swap1\n        /* \"AllContracts.sol\":8807:8826  _currentGame.add(1) */\n      swap2\n      swap1\n      0xffffffff\n      and\n      jump\t// in\n    tag_338:\n        /* \"AllContracts.sol\":8792:8804  _currentGame */\n      0x0a\n        /* \"AllContracts.sol\":8792:8826  _currentGame = _currentGame.add(1) */\n      dup2\n      swap1\n      sstore\n      pop\n        /* \"AllContracts.sol\":8836:8855  Game memory newGame */\n      tag_339\n      tag_287\n      jump\t// in\n    tag_339:\n        /* \"AllContracts.sol\":8858:9093  Game ({... */\n      mload(0x40)\n      dup1\n      0xc0\n      add\n      0x40\n      mstore\n      dup1\n        /* \"AllContracts.sol\":8882:8894  _currentGame */\n      sload(0x0a)\n        /* \"AllContracts.sol\":8858:9093  Game ({... */\n      dup2\n      mstore\n      0x20\n      add\n        /* \"AllContracts.sol\":8916:8923  _player */\n      dup6\n        /* \"AllContracts.sol\":8858:9093  Game ({... */\n      0xffffffffffffffffffffffffffffffffffffffff\n      and\n      dup2\n      mstore\n      0x20\n      add\n        /* \"AllContracts.sol\":8942:8946  _bet */\n      dup5\n        /* \"AllContracts.sol\":8858:9093  Game ({... */\n      dup2\n      mstore\n      0x20\n      add\n        /* \"AllContracts.sol\":8966:8971  _pick */\n      dup4\n        /* \"AllContracts.sol\":8858:9093  Game ({... */\n      dup2\n      mstore\n      0x20\n      add\n        /* \"AllContracts.sol\":8993:9008  maxPick.add(10) */\n      tag_340\n        /* \"AllContracts.sol\":9005:9007  10 */\n      0x0a\n        /* \"AllContracts.sol\":8993:9000  maxPick */\n      sload(0x06)\n        /* \"AllContracts.sol\":8993:9004  maxPick.add */\n      tag_178\n      swap1\n        /* \"AllContracts.sol\":8993:9008  maxPick.add(10) */\n      swap2\n      swap1\n      0xffffffff\n      and\n      jump\t// in\n    tag_340:\n        /* \"AllContracts.sol\":8858:9093  Game ({... */\n      dup2\n      mstore\n      0x20\n      add\n        /* \"AllContracts.sol\":9077:9082  false */\n      0x00\n        /* \"AllContracts.sol\":8858:9093  Game ({... */\n      iszero\n      iszero\n      dup2\n      mstore\n      pop\n        /* \"AllContracts.sol\":8836:9093  Game memory newGame = Game ({... */\n      swap1\n      pop\n        /* \"AllContracts.sol\":9123:9130  newGame */\n      dup1\n        /* \"AllContracts.sol\":9103:9108  games */\n      0x0d\n        /* \"AllContracts.sol\":9103:9120  games[newGame.id] */\n      0x00\n        /* \"AllContracts.sol\":9109:9116  newGame */\n      dup4\n        /* \"AllContracts.sol\":9109:9119  newGame.id */\n      0x00\n      add\n      mload\n        /* \"AllContracts.sol\":9103:9120  games[newGame.id] */\n      dup2\n      mstore\n      0x20\n      add\n      swap1\n      dup2\n      mstore\n      0x20\n      add\n      0x00\n      keccak256\n        /* \"AllContracts.sol\":9103:9130  games[newGame.id] = newGame */\n      0x00\n      dup3\n      add\n      mload\n      dup2\n      0x00\n      add\n      sstore\n      0x20\n      dup3\n      add\n      mload\n      dup2\n      0x01\n      add\n      exp(0x0100, 0x00)\n      dup2\n      sload\n      dup2\n      0xffffffffffffffffffffffffffffffffffffffff\n      mul\n      not\n      and\n      swap1\n      dup4\n      0xffffffffffffffffffffffffffffffffffffffff\n      and\n      mul\n      or\n      swap1\n      sstore\n      pop\n      0x40\n      dup3\n      add\n      mload\n      dup2\n      0x02\n      add\n      sstore\n      0x60\n      dup3\n      add\n      mload\n      dup2\n      0x03\n      add\n      sstore\n      0x80\n      dup3\n      add\n      mload\n      dup2\n      0x04\n      add\n      sstore\n      0xa0\n      dup3\n      add\n      mload\n      dup2\n      0x05\n      add\n      exp(0x0100, 0x00)\n      dup2\n      sload\n      dup2\n      0xff\n      mul\n      not\n      and\n      swap1\n      dup4\n      iszero\n      iszero\n      mul\n      or\n      swap1\n      sstore\n      pop\n      swap1\n      pop\n      pop\n        /* \"AllContracts.sol\":8705:9137  function createGame(address payable _player, uint _bet, uint _pick) internal {... */\n      pop\n      pop\n      pop\n      pop\n      jump\t// out\n        /* \"AllContracts.sol\":4790:5175  function requestRandomness(bytes32 _keyHash, uint256 _fee, uint256 _seed)... */\n    tag_255:\n        /* \"AllContracts.sol\":4886:4903  bytes32 requestId */\n      0x00\n        /* \"AllContracts.sol\":4913:4917  LINK */\n      dup1\n      0x00\n      swap1\n      sload\n      swap1\n      0x0100\n      exp\n      swap1\n      div\n      0xffffffffffffffffffffffffffffffffffffffff\n      and\n        /* \"AllContracts.sol\":4913:4933  LINK.transferAndCall */\n      0xffffffffffffffffffffffffffffffffffffffff\n      and\n      0x4000aea0\n        /* \"AllContracts.sol\":4934:4948  vrfCoordinator */\n      0x01\n      0x00\n      swap1\n      sload\n      swap1\n      0x0100\n      exp\n      swap1\n      div\n      0xffffffffffffffffffffffffffffffffffffffff\n      and\n        /* \"AllContracts.sol\":4950:4954  _fee */\n      dup6\n        /* \"AllContracts.sol\":4967:4975  _keyHash */\n      dup8\n        /* \"AllContracts.sol\":4977:4982  _seed */\n      dup7\n        /* \"AllContracts.sol\":4956:4983  abi.encode(_keyHash, _seed) */\n      add(0x20, mload(0x40))\n      dup1\n      dup4\n      dup2\n      mstore\n      0x20\n      add\n      dup3\n      dup2\n      mstore\n      0x20\n      add\n      swap3\n      pop\n      pop\n      pop\n      mload(0x40)\n        /* \"--CODEGEN--\":49:53   */\n      0x20\n        /* \"--CODEGEN--\":39:46   */\n      dup2\n        /* \"--CODEGEN--\":30:37   */\n      dup4\n        /* \"--CODEGEN--\":26:47   */\n      sub\n        /* \"--CODEGEN--\":22:54   */\n      sub\n        /* \"--CODEGEN--\":13:20   */\n      dup2\n        /* \"--CODEGEN--\":6:55   */\n      mstore\n        /* \"AllContracts.sol\":4956:4983  abi.encode(_keyHash, _seed) */\n      swap1\n      0x40\n      mstore\n        /* \"AllContracts.sol\":4913:4984  LINK.transferAndCall(vrfCoordinator, _fee, abi.encode(_keyHash, _seed)) */\n      mload(0x40)\n      dup5\n      0xffffffff\n      and\n      0xe0\n      shl\n      dup2\n      mstore\n      0x04\n      add\n      dup1\n      dup5\n      0xffffffffffffffffffffffffffffffffffffffff\n      and\n      0xffffffffffffffffffffffffffffffffffffffff\n      and\n      dup2\n      mstore\n      0x20\n      add\n      dup4\n      dup2\n      mstore\n      0x20\n      add\n      dup1\n      0x20\n      add\n      dup3\n      dup2\n      sub\n      dup3\n      mstore\n      dup4\n      dup2\n      dup2\n      mload\n      dup2\n      mstore\n      0x20\n      add\n      swap2\n      pop\n      dup1\n      mload\n      swap1\n      0x20\n      add\n      swap1\n      dup1\n      dup4\n      dup4\n        /* \"--CODEGEN--\":23:24   */\n      0x00\n        /* \"--CODEGEN--\":8:108   */\n    tag_342:\n        /* \"--CODEGEN--\":33:36   */\n      dup4\n        /* \"--CODEGEN--\":30:31   */\n      dup2\n        /* \"--CODEGEN--\":27:37   */\n      lt\n        /* \"--CODEGEN--\":8:108   */\n      iszero\n      tag_344\n      jumpi\n        /* \"--CODEGEN--\":99:100   */\n      dup1\n        /* \"--CODEGEN--\":94:97   */\n      dup3\n        /* \"--CODEGEN--\":90:101   */\n      add\n        /* \"--CODEGEN--\":84:102   */\n      mload\n        /* \"--CODEGEN--\":80:81   */\n      dup2\n        /* \"--CODEGEN--\":75:78   */\n      dup5\n        /* \"--CODEGEN--\":71:82   */\n      add\n        /* \"--CODEGEN--\":64:103   */\n      mstore\n        /* \"--CODEGEN--\":52:54   */\n      0x20\n        /* \"--CODEGEN--\":49:50   */\n      dup2\n        /* \"--CODEGEN--\":45:55   */\n      add\n        /* \"--CODEGEN--\":40:55   */\n      swap1\n      pop\n        /* \"--CODEGEN--\":8:108   */\n      jump(tag_342)\n    tag_344:\n        /* \"--CODEGEN--\":12:26   */\n      pop\n        /* \"AllContracts.sol\":4913:4984  LINK.transferAndCall(vrfCoordinator, _fee, abi.encode(_keyHash, _seed)) */\n      pop\n      pop\n      pop\n      swap1\n      pop\n      swap1\n      dup2\n      add\n      swap1\n      0x1f\n      and\n      dup1\n      iszero\n      tag_345\n      jumpi\n      dup1\n      dup3\n      sub\n      dup1\n      mload\n      0x01\n      dup4\n      0x20\n      sub\n      0x0100\n      exp\n      sub\n      not\n      and\n      dup2\n      mstore\n      0x20\n      add\n      swap2\n      pop\n    tag_345:\n      pop\n      swap5\n      pop\n      pop\n      pop\n      pop\n      pop\n      0x20\n      mload(0x40)\n      dup1\n      dup4\n      sub\n      dup2\n      0x00\n      dup8\n      dup1\n      extcodesize\n      iszero\n        /* \"--CODEGEN--\":8:17   */\n      dup1\n        /* \"--CODEGEN--\":5:7   */\n      iszero\n      tag_346\n      jumpi\n        /* \"--CODEGEN--\":30:31   */\n      0x00\n        /* \"--CODEGEN--\":27:28   */\n      dup1\n        /* \"--CODEGEN--\":20:32   */\n      revert\n        /* \"--CODEGEN--\":5:7   */\n    tag_346:\n        /* \"AllContracts.sol\":4913:4984  LINK.transferAndCall(vrfCoordinator, _fee, abi.encode(_keyHash, _seed)) */\n      pop\n      gas\n      call\n      iszero\n        /* \"--CODEGEN--\":8:17   */\n      dup1\n        /* \"--CODEGEN--\":5:7   */\n      iszero\n      tag_348\n      jumpi\n        /* \"--CODEGEN--\":45:61   */\n      returndatasize\n        /* \"--CODEGEN--\":42:43   */\n      0x00\n        /* \"--CODEGEN--\":39:40   */\n      dup1\n        /* \"--CODEGEN--\":24:62   */\n      returndatacopy\n        /* \"--CODEGEN--\":77:93   */\n      returndatasize\n        /* \"--CODEGEN--\":74:75   */\n      0x00\n        /* \"--CODEGEN--\":67:94   */\n      revert\n        /* \"--CODEGEN--\":5:7   */\n    tag_348:\n        /* \"AllContracts.sol\":4913:4984  LINK.transferAndCall(vrfCoordinator, _fee, abi.encode(_keyHash, _seed)) */\n      pop\n      pop\n      pop\n      pop\n      mload(0x40)\n      returndatasize\n        /* \"--CODEGEN--\":13:15   */\n      0x20\n        /* \"--CODEGEN--\":8:11   */\n      dup2\n        /* \"--CODEGEN--\":5:16   */\n      lt\n        /* \"--CODEGEN--\":2:4   */\n      iszero\n      tag_349\n      jumpi\n        /* \"--CODEGEN--\":29:30   */\n      0x00\n        /* \"--CODEGEN--\":26:27   */\n      dup1\n        /* \"--CODEGEN--\":19:31   */\n      revert\n        /* \"--CODEGEN--\":2:4   */\n    tag_349:\n        /* \"AllContracts.sol\":4913:4984  LINK.transferAndCall(vrfCoordinator, _fee, abi.encode(_keyHash, _seed)) */\n      dup2\n      add\n      swap1\n      dup1\n      dup1\n      mload\n      swap1\n      0x20\n      add\n      swap1\n      swap3\n      swap2\n      swap1\n      pop\n      pop\n      pop\n      pop\n        /* \"AllContracts.sol\":4991:5006  uint256 vRFSeed */\n      0x00\n        /* \"AllContracts.sol\":5010:5076  makeVRFInputSeed(_keyHash, _seed, address(this), nonces[_keyHash]) */\n      tag_350\n        /* \"AllContracts.sol\":5027:5035  _keyHash */\n      dup6\n        /* \"AllContracts.sol\":5037:5042  _seed */\n      dup5\n        /* \"AllContracts.sol\":5052:5056  this */\n      address\n        /* \"AllContracts.sol\":5059:5065  nonces */\n      0x02\n        /* \"AllContracts.sol\":5059:5075  nonces[_keyHash] */\n      0x00\n        /* \"AllContracts.sol\":5066:5074  _keyHash */\n      dup11\n        /* \"AllContracts.sol\":5059:5075  nonces[_keyHash] */\n      dup2\n      mstore\n      0x20\n      add\n      swap1\n      dup2\n      mstore\n      0x20\n      add\n      0x00\n      keccak256\n      sload\n        /* \"AllContracts.sol\":5010:5026  makeVRFInputSeed */\n      tag_351\n        /* \"AllContracts.sol\":5010:5076  makeVRFInputSeed(_keyHash, _seed, address(this), nonces[_keyHash]) */\n      jump\t// in\n    tag_350:\n        /* \"AllContracts.sol\":4991:5076  uint256 vRFSeed  = makeVRFInputSeed(_keyHash, _seed, address(this), nonces[_keyHash]) */\n      swap1\n      pop\n        /* \"AllContracts.sol\":5102:5125  nonces[_keyHash].add(1) */\n      tag_352\n        /* \"AllContracts.sol\":5123:5124  1 */\n      0x01\n        /* \"AllContracts.sol\":5102:5108  nonces */\n      0x02\n        /* \"AllContracts.sol\":5102:5118  nonces[_keyHash] */\n      0x00\n        /* \"AllContracts.sol\":5109:5117  _keyHash */\n      dup9\n        /* \"AllContracts.sol\":5102:5118  nonces[_keyHash] */\n      dup2\n      mstore\n      0x20\n      add\n      swap1\n      dup2\n      mstore\n      0x20\n      add\n      0x00\n      keccak256\n      sload\n        /* \"AllContracts.sol\":5102:5122  nonces[_keyHash].add */\n      tag_178\n      swap1\n        /* \"AllContracts.sol\":5102:5125  nonces[_keyHash].add(1) */\n      swap2\n      swap1\n      0xffffffff\n      and\n      jump\t// in\n    tag_352:\n        /* \"AllContracts.sol\":5083:5089  nonces */\n      0x02\n        /* \"AllContracts.sol\":5083:5099  nonces[_keyHash] */\n      0x00\n        /* \"AllContracts.sol\":5090:5098  _keyHash */\n      dup8\n        /* \"AllContracts.sol\":5083:5099  nonces[_keyHash] */\n      dup2\n      mstore\n      0x20\n      add\n      swap1\n      dup2\n      mstore\n      0x20\n      add\n      0x00\n      keccak256\n        /* \"AllContracts.sol\":5083:5125  nonces[_keyHash] = nonces[_keyHash].add(1) */\n      dup2\n      swap1\n      sstore\n      pop\n        /* \"AllContracts.sol\":5138:5170  makeRequestId(_keyHash, vRFSeed) */\n      tag_353\n        /* \"AllContracts.sol\":5152:5160  _keyHash */\n      dup6\n        /* \"AllContracts.sol\":5162:5169  vRFSeed */\n      dup3\n        /* \"AllContracts.sol\":5138:5151  makeRequestId */\n      tag_354\n        /* \"AllContracts.sol\":5138:5170  makeRequestId(_keyHash, vRFSeed) */\n      jump\t// in\n    tag_353:\n        /* \"AllContracts.sol\":5131:5170  return makeRequestId(_keyHash, vRFSeed) */\n      swap2\n      pop\n      pop\n        /* \"AllContracts.sol\":4790:5175  function requestRandomness(bytes32 _keyHash, uint256 _fee, uint256 _seed)... */\n      swap4\n      swap3\n      pop\n      pop\n      pop\n      jump\t// out\n        /* \"AllContracts.sol\":2980:3119  function mod(uint256 a, uint256 b) internal pure returns (uint256) {... */\n    tag_331:\n        /* \"AllContracts.sol\":3038:3045  uint256 */\n      0x00\n        /* \"AllContracts.sol\":3066:3067  0 */\n      dup1\n        /* \"AllContracts.sol\":3061:3062  b */\n      dup3\n        /* \"AllContracts.sol\":3061:3067  b != 0 */\n      eq\n      iszero\n        /* \"AllContracts.sol\":3053:3096  require(b != 0, \"SafeMath: modulo by zero\") */\n      tag_356\n      jumpi\n      mload(0x40)\n      0x08c379a000000000000000000000000000000000000000000000000000000000\n      dup2\n      mstore\n      0x04\n      add\n      dup1\n      dup1\n      0x20\n      add\n      dup3\n      dup2\n      sub\n      dup3\n      mstore\n      0x18\n      dup2\n      mstore\n      0x20\n      add\n      dup1\n      0x536166654d6174683a206d6f64756c6f206279207a65726f0000000000000000\n      dup2\n      mstore\n      pop\n      0x20\n      add\n      swap2\n      pop\n      pop\n      mload(0x40)\n      dup1\n      swap2\n      sub\n      swap1\n      revert\n    tag_356:\n        /* \"AllContracts.sol\":3113:3114  b */\n      dup2\n        /* \"AllContracts.sol\":3109:3110  a */\n      dup4\n        /* \"AllContracts.sol\":3109:3114  a % b */\n      dup2\n      tag_357\n      jumpi\n      invalid\n    tag_357:\n      mod\n        /* \"AllContracts.sol\":3102:3114  return a % b */\n      swap1\n      pop\n        /* \"AllContracts.sol\":2980:3119  function mod(uint256 a, uint256 b) internal pure returns (uint256) {... */\n      swap3\n      swap2\n      pop\n      pop\n      jump\t// out\n        /* \"AllContracts.sol\":3154:3385  function makeVRFInputSeed(bytes32 _keyHash, uint256 _userSeed,... */\n    tag_351:\n        /* \"AllContracts.sol\":3284:3291  uint256 */\n      0x00\n        /* \"AllContracts.sol\":3338:3346  _keyHash */\n      dup5\n        /* \"AllContracts.sol\":3348:3357  _userSeed */\n      dup5\n        /* \"AllContracts.sol\":3359:3369  _requester */\n      dup5\n        /* \"AllContracts.sol\":3371:3377  _nonce */\n      dup5\n        /* \"AllContracts.sol\":3327:3378  abi.encode(_keyHash, _userSeed, _requester, _nonce) */\n      add(0x20, mload(0x40))\n      dup1\n      dup6\n      dup2\n      mstore\n      0x20\n      add\n      dup5\n      dup2\n      mstore\n      0x20\n      add\n      dup4\n      0xffffffffffffffffffffffffffffffffffffffff\n      and\n      0xffffffffffffffffffffffffffffffffffffffff\n      and\n      dup2\n      mstore\n      0x20\n      add\n      dup3\n      dup2\n      mstore\n      0x20\n      add\n      swap5\n      pop\n      pop\n      pop\n      pop\n      pop\n      mload(0x40)\n        /* \"--CODEGEN--\":49:53   */\n      0x20\n        /* \"--CODEGEN--\":39:46   */\n      dup2\n        /* \"--CODEGEN--\":30:37   */\n      dup4\n        /* \"--CODEGEN--\":26:47   */\n      sub\n        /* \"--CODEGEN--\":22:54   */\n      sub\n        /* \"--CODEGEN--\":13:20   */\n      dup2\n        /* \"--CODEGEN--\":6:55   */\n      mstore\n        /* \"AllContracts.sol\":3327:3378  abi.encode(_keyHash, _userSeed, _requester, _nonce) */\n      swap1\n      0x40\n      mstore\n        /* \"AllContracts.sol\":3317:3379  keccak256(abi.encode(_keyHash, _userSeed, _requester, _nonce)) */\n      dup1\n      mload\n      swap1\n      0x20\n      add\n      keccak256\n        /* \"AllContracts.sol\":3309:3380  uint256(keccak256(abi.encode(_keyHash, _userSeed, _requester, _nonce))) */\n      0x00\n      shr\n        /* \"AllContracts.sol\":3301:3380  return  uint256(keccak256(abi.encode(_keyHash, _userSeed, _requester, _nonce))) */\n      swap1\n      pop\n        /* \"AllContracts.sol\":3154:3385  function makeVRFInputSeed(bytes32 _keyHash, uint256 _userSeed,... */\n      swap5\n      swap4\n      pop\n      pop\n      pop\n      pop\n      jump\t// out\n        /* \"AllContracts.sol\":3389:3560  function makeRequestId(... */\n    tag_354:\n        /* \"AllContracts.sol\":3481:3488  bytes32 */\n      0x00\n        /* \"AllContracts.sol\":3530:3538  _keyHash */\n      dup3\n        /* \"AllContracts.sol\":3540:3553  _vRFInputSeed */\n      dup3\n        /* \"AllContracts.sol\":3513:3554  abi.encodePacked(_keyHash, _vRFInputSeed) */\n      add(0x20, mload(0x40))\n      dup1\n      dup4\n      dup2\n      mstore\n      0x20\n      add\n      dup3\n      dup2\n      mstore\n      0x20\n      add\n      swap3\n      pop\n      pop\n      pop\n      mload(0x40)\n        /* \"--CODEGEN--\":49:53   */\n      0x20\n        /* \"--CODEGEN--\":39:46   */\n      dup2\n        /* \"--CODEGEN--\":30:37   */\n      dup4\n        /* \"--CODEGEN--\":26:47   */\n      sub\n        /* \"--CODEGEN--\":22:54   */\n      sub\n        /* \"--CODEGEN--\":13:20   */\n      dup2\n        /* \"--CODEGEN--\":6:55   */\n      mstore\n        /* \"AllContracts.sol\":3513:3554  abi.encodePacked(_keyHash, _vRFInputSeed) */\n      swap1\n      0x40\n      mstore\n        /* \"AllContracts.sol\":3503:3555  keccak256(abi.encodePacked(_keyHash, _vRFInputSeed)) */\n      dup1\n      mload\n      swap1\n      0x20\n      add\n      keccak256\n        /* \"AllContracts.sol\":3496:3555  return keccak256(abi.encodePacked(_keyHash, _vRFInputSeed)) */\n      swap1\n      pop\n        /* \"AllContracts.sol\":3389:3560  function makeRequestId(... */\n      swap3\n      swap2\n      pop\n      pop\n      jump\t// out\n        /* \"AllContracts.sol\":5733:14995  contract LuckyMachine is VRFConsumerBase, Ownable {... */\n    tag_287:\n      mload(0x40)\n      dup1\n      0xc0\n      add\n      0x40\n      mstore\n      dup1\n      0x00\n      dup2\n      mstore\n      0x20\n      add\n      and(0xffffffffffffffffffffffffffffffffffffffff, 0x00)\n      dup2\n      mstore\n      0x20\n      add\n      0x00\n      dup2\n      mstore\n      0x20\n      add\n      0x00\n      dup2\n      mstore\n      0x20\n      add\n      0x00\n      dup2\n      mstore\n      0x20\n      add\n      iszero(iszero(0x00))\n      dup2\n      mstore\n      pop\n      swap1\n      jump\t// out\n    stop\n    data_104d4309dbdd0d693502d943a07623e5e639a80ec32910748a6b4f701d61cac8 5069636b20697320746f6f20686967682e2043686f6f73652061206c6f776572206e756d6265722e\n    data_245f15ff17f551913a7a18385165551503906a406f905ac1c2437281a7cd0cfe 4f776e61626c653a206e6577206f776e657220697320746865207a65726f2061646472657373\n    data_588b68a2a6ccdc15b2dae26a385280edec71bed95b5b14a24b760c56e4f665d6 436f6e74726163742068617320696e737566666963696e742066756e647320746f207061796f757420706f737369626c652077696e2e\n    data_9113bb53c2876a3805b2c9242029423fc540a728243ce887ab24c82cf119fba3 536166654d6174683a206d756c7469706c69636174696f6e206f766572666c6f77\n    data_b719f220e413600c7e92ed4736b96c6908e0428122610fe965fcc60eefeedbad 436f6e74726163742062616c616e636520746f6f206c6f772e20506c656173652074727920616761696e206c617465722e\n    data_c34c85fa0e0680ac47dc2c21fdf93b1adcc71d9a1a3b3b1788b881c3f4f390ac 47616d6520616c726561647920636f6d706c6574652e204e6f20726566756e6420706f737369626c652e\n    data_ef92889bcd3368ac0e5c94a5c325c5cf21da03eb1576ee7d446327960d5fae81 556e61626c6520746f207061792e20506c6561736520706c617920616761696e206f72207265717565737420726566756e642e\n\n    auxdata: 0xa264697066735822122005540b9381dba42207219f1052036aad4696f32807b656ad3cec09190c61739164736f6c63430006000033\n}\n","bytecode":{"linkReferences":{},"object":"60806040523480156200001157600080fd5b50604051620033f0380380620033f0833981810160405260a08110156200003757600080fd5b81019080805190602001909291908051906020019092919080519060200190929190805190602001909291908051906020019092919050505073dd3782915140c8f3b190b5d67eac6dc5760c46e973a36085f69e2889c224210f603d836748e7dc008881600160006101000a81548173ffffffffffffffffffffffffffffffffffffffff021916908373ffffffffffffffffffffffffffffffffffffffff160217905550806000806101000a81548173ffffffffffffffffffffffffffffffffffffffff021916908373ffffffffffffffffffffffffffffffffffffffff160217905550505060006200012f6200027f60201b60201c565b905080600360006101000a81548173ffffffffffffffffffffffffffffffffffffffff021916908373ffffffffffffffffffffffffffffffffffffffff1602179055508073ffffffffffffffffffffffffffffffffffffffff16600073ffffffffffffffffffffffffffffffffffffffff167f8be0079c531659141344cd1fd0a4f28419497f9722a3daafe3b4186f6b6457e060405160405180910390a3507f6c3699283bda56ad74f6b855546325b68d482e983852a7a82979cc4807b641f460001b60048190555067016345785d8a00006005819055506000600a81905550600060098190555084600b60006101000a81548173ffffffffffffffffffffffffffffffffffffffff021916908373ffffffffffffffffffffffffffffffffffffffff16021790555082600881905550836007819055508160068190555080600c81905550505050505062000287565b600033905090565b61315980620002976000396000f3fe6080604052600436106102135760003560e01c8063881eff1e11610118578063a4b2409e116100a0578063c955e79c1161006f578063c955e79c146109af578063de4fa6af146109c6578063f2fde38b14610a41578063fa63b7ad14610a92578063fafacab214610ae55761021a565b8063a4b2409e146108c0578063ac150fd8146108fb578063b37217a414610949578063b93030b3146109985761021a565b80639619367d116100e75780639619367d1461078f57806398544710146107ba5780639920cf81146107f55780639e317f1214610820578063a02e06161461086f5761021a565b8063881eff1e1461067d57806388ea41b9146106b85780638da5cb5b146106f357806394985ddd1461074a5761021a565b806344c18aa71161019b5780636168eac91161016a5780636168eac91461057c57806363bd1d4a146105c15780636b25d296146105ec578063715018a61461061757806382e39ac51461062e5761021a565b806344c18aa71461045e57806344ff81ce146104995780635873533d146104ea5780635b8d02d7146105255761021a565b80632e5b2168116101e25780632e5b21681461034c5780632ee42d8a1461037757806333ea51a8146103a257806339e7357c146103f35780634051ddac1461041e5761021a565b80630c610a121461021f57806310fe7c4814610272578063117a5b90146102a05780632de0f182146103425761021a565b3661021a57005b600080fd5b34801561022b57600080fd5b506102586004803603602081101561024257600080fd5b8101908080359060200190929190505050610b3d565b604051808215151515815260200191505060405180910390f35b61029e6004803603602081101561028857600080fd5b8101908080359060200190929190505050610b84565b005b3480156102ac57600080fd5b506102d9600480360360208110156102c357600080fd5b8101908080359060200190929190505050610b91565b604051808781526020018673ffffffffffffffffffffffffffffffffffffffff1673ffffffffffffffffffffffffffffffffffffffff16815260200185815260200184815260200183815260200182151515158152602001965050505050505060405180910390f35b61034a610bfa565b005b34801561035857600080fd5b50610361610bfc565b6040518082815260200191505060405180910390f35b34801561038357600080fd5b5061038c610c02565b6040518082815260200191505060405180910390f35b3480156103ae57600080fd5b506103f1600480360360208110156103c557600080fd5b81019080803573ffffffffffffffffffffffffffffffffffffffff169060200190929190505050610c08565b005b3480156103ff57600080fd5b50610408610d16565b6040518082815260200191505060405180910390f35b34801561042a57600080fd5b50610433610d20565b6040518085815260200184815260200183815260200182815260200194505050505060405180910390f35b34801561046a57600080fd5b506104976004803603602081101561048157600080fd5b8101908080359060200190929190505050610d40565b005b3480156104a557600080fd5b506104e8600480360360208110156104bc57600080fd5b81019080803573ffffffffffffffffffffffffffffffffffffffff169060200190929190505050610e14565b005b3480156104f657600080fd5b506105236004803603602081101561050d57600080fd5b8101908080359060200190929190505050610f22565b005b34801561053157600080fd5b5061053a610ff0565b604051808273ffffffffffffffffffffffffffffffffffffffff1673ffffffffffffffffffffffffffffffffffffffff16815260200191505060405180910390f35b34801561058857600080fd5b506105bf6004803603604081101561059f57600080fd5b810190808035906020019092919080359060200190929190505050611016565b005b3480156105cd57600080fd5b506105d6611144565b6040518082815260200191505060405180910390f35b3480156105f857600080fd5b5061060161114a565b6040518082815260200191505060405180910390f35b34801561062357600080fd5b5061062c611150565b005b34801561063a57600080fd5b506106676004803603602081101561065157600080fd5b81019080803590602001909291905050506112db565b6040518082815260200191505060405180910390f35b34801561068957600080fd5b506106b6600480360360208110156106a057600080fd5b81019080803590602001909291905050506112f3565b005b3480156106c457600080fd5b506106f1600480360360208110156106db57600080fd5b81019080803590602001909291905050506113c7565b005b3480156106ff57600080fd5b5061070861149b565b604051808273ffffffffffffffffffffffffffffffffffffffff1673ffffffffffffffffffffffffffffffffffffffff16815260200191505060405180910390f35b34801561075657600080fd5b5061078d6004803603604081101561076d57600080fd5b8101908080359060200190929190803590602001909291905050506114c5565b005b34801561079b57600080fd5b506107a4611596565b6040518082815260200191505060405180910390f35b3480156107c657600080fd5b506107f3600480360360208110156107dd57600080fd5b810190808035906020019092919050505061159c565b005b34801561080157600080fd5b5061080a611670565b6040518082815260200191505060405180910390f35b34801561082c57600080fd5b506108596004803603602081101561084357600080fd5b8101908080359060200190929190505050611676565b6040518082815260200191505060405180910390f35b34801561087b57600080fd5b506108be6004803603602081101561089257600080fd5b81019080803573ffffffffffffffffffffffffffffffffffffffff16906020019092919050505061168e565b005b3480156108cc57600080fd5b506108f9600480360360208110156108e357600080fd5b810190808035906020019092919050505061179b565b005b6109476004803603604081101561091157600080fd5b81019080803573ffffffffffffffffffffffffffffffffffffffff1690602001909291908035906020019092919050505061193c565b005b34801561095557600080fd5b506109826004803603602081101561096c57600080fd5b8101908080359060200190929190505050611aa5565b6040518082815260200191505060405180910390f35b3480156109a457600080fd5b506109ad611c0c565b005b3480156109bb57600080fd5b506109c4612029565b005b3480156109d257600080fd5b50610a3f600480360360a08110156109e957600080fd5b81019080803573ffffffffffffffffffffffffffffffffffffffff169060200190929190803590602001909291908035906020019092919080351515906020019092919080359060200190929190505050612186565b005b348015610a4d57600080fd5b50610a9060048036036020811015610a6457600080fd5b81019080803573ffffffffffffffffffffffffffffffffffffffff16906020019092919050505061229c565b005b348015610a9e57600080fd5b50610acb60048036036020811015610ab557600080fd5b81019080803590602001909291905050506124ac565b604051808215151515815260200191505060405180910390f35b610b3b60048036036060811015610afb57600080fd5b81019080803573ffffffffffffffffffffffffffffffffffffffff16906020019092919080359060200190929190803590602001909291905050506124da565b005b6000610b6682610b58600c548561264590919063ffffffff16565b6126cb90919063ffffffff16565b610b7b6009544761275390919063ffffffff16565b10159050919050565b610b8e338261193c565b50565b600d6020528060005260406000206000915090508060000154908060010160009054906101000a900473ffffffffffffffffffffffffffffffffffffffff16908060020154908060030154908060040154908060050160009054906101000a900460ff16905086565b565b60075481565b60065481565b610c106127dc565b73ffffffffffffffffffffffffffffffffffffffff16600360009054906101000a900473ffffffffffffffffffffffffffffffffffffffff1673ffffffffffffffffffffffffffffffffffffffff1614610cd2576040517f08c379a00000000000000000000000000000000000000000000000000000000081526004018080602001828103825260208152602001807f4f776e61626c653a2063616c6c6572206973206e6f7420746865206f776e657281525060200191505060405180910390fd5b80600b60006101000a81548173ffffffffffffffffffffffffffffffffffffffff021916908373ffffffffffffffffffffffffffffffffffffffff16021790555050565b6000613039905090565b600080600080600854600754600c54600654935093509350935090919293565b610d486127dc565b73ffffffffffffffffffffffffffffffffffffffff16600360009054906101000a900473ffffffffffffffffffffffffffffffffffffffff1673ffffffffffffffffffffffffffffffffffffffff1614610e0a576040517f08c379a00000000000000000000000000000000000000000000000000000000081526004018080602001828103825260208152602001807f4f776e61626c653a2063616c6c6572206973206e6f7420746865206f776e657281525060200191505060405180910390fd5b80600c8190555050565b610e1c6127dc565b73ffffffffffffffffffffffffffffffffffffffff16600360009054906101000a900473ffffffffffffffffffffffffffffffffffffffff1673ffffffffffffffffffffffffffffffffffffffff1614610ede576040517f08c379a00000000000000000000000000000000000000000000000000000000081526004018080602001828103825260208152602001807f4f776e61626c653a2063616c6c6572206973206e6f7420746865206f776e657281525060200191505060405180910390fd5b80600160006101000a81548173ffffffffffffffffffffffffffffffffffffffff021916908373ffffffffffffffffffffffffffffffffffffffff16021790555050565b60001515600d600083815260200190815260200160002060050160009054906101000a900460ff16151514610fbf576040517f08c379a00000000000000000000000000000000000000000000000000000000081526004018080602001828103825260138152602001807f67616d6520616c726561647920706c617965640000000000000000000000000081525060200191505060405180910390fd5b600061303990506000610fd182611aa5565b905082600e600083815260200190815260200160002081905550505050565b600b60009054906101000a900473ffffffffffffffffffffffffffffffffffffffff1681565b60001515600d600084815260200190815260200160002060050160009054906101000a900460ff161515146110b3576040517f08c379a00000000000000000000000000000000000000000000000000000000081526004018080602001828103825260138152602001807f67616d6520616c726561647920706c617965640000000000000000000000000081525060200191505060405180910390fd5b6000424433604051602001808481526020018381526020018273ffffffffffffffffffffffffffffffffffffffff1673ffffffffffffffffffffffffffffffffffffffff1660601b8152601401935050505060405160208183030381529060405280519060200120905082600e60008381526020019081526020016000208190555061113f81836127e4565b505050565b600c5481565b60095481565b6111586127dc565b73ffffffffffffffffffffffffffffffffffffffff16600360009054906101000a900473ffffffffffffffffffffffffffffffffffffffff1673ffffffffffffffffffffffffffffffffffffffff161461121a576040517f08c379a00000000000000000000000000000000000000000000000000000000081526004018080602001828103825260208152602001807f4f776e61626c653a2063616c6c6572206973206e6f7420746865206f776e657281525060200191505060405180910390fd5b600073ffffffffffffffffffffffffffffffffffffffff16600360009054906101000a900473ffffffffffffffffffffffffffffffffffffffff1673ffffffffffffffffffffffffffffffffffffffff167f8be0079c531659141344cd1fd0a4f28419497f9722a3daafe3b4186f6b6457e060405160405180910390a36000600360006101000a81548173ffffffffffffffffffffffffffffffffffffffff021916908373ffffffffffffffffffffffffffffffffffffffff160217905550565b600e6020528060005260406000206000915090505481565b6112fb6127dc565b73ffffffffffffffffffffffffffffffffffffffff16600360009054906101000a900473ffffffffffffffffffffffffffffffffffffffff1673ffffffffffffffffffffffffffffffffffffffff16146113bd576040517f08c379a00000000000000000000000000000000000000000000000000000000081526004018080602001828103825260208152602001807f4f776e61626c653a2063616c6c6572206973206e6f7420746865206f776e657281525060200191505060405180910390fd5b8060078190555050565b6113cf6127dc565b73ffffffffffffffffffffffffffffffffffffffff16600360009054906101000a900473ffffffffffffffffffffffffffffffffffffffff1673ffffffffffffffffffffffffffffffffffffffff1614611491576040517f08c379a00000000000000000000000000000000000000000000000000000000081526004018080602001828103825260208152602001807f4f776e61626c653a2063616c6c6572206973206e6f7420746865206f776e657281525060200191505060405180910390fd5b8060088190555050565b6000600360009054906101000a900473ffffffffffffffffffffffffffffffffffffffff16905090565b600160009054906101000a900473ffffffffffffffffffffffffffffffffffffffff1673ffffffffffffffffffffffffffffffffffffffff163373ffffffffffffffffffffffffffffffffffffffff1614611588576040517f08c379a000000000000000000000000000000000000000000000000000000000815260040180806020018281038252601f8152602001807f4f6e6c7920565246436f6f7264696e61746f722063616e2066756c66696c6c0081525060200191505060405180910390fd5b611592828261296f565b5050565b60085481565b6115a46127dc565b73ffffffffffffffffffffffffffffffffffffffff16600360009054906101000a900473ffffffffffffffffffffffffffffffffffffffff1673ffffffffffffffffffffffffffffffffffffffff1614611666576040517f08c379a00000000000000000000000000000000000000000000000000000000081526004018080602001828103825260208152602001807f4f776e61626c653a2063616c6c6572206973206e6f7420746865206f776e657281525060200191505060405180910390fd5b8060048190555050565b600a5481565b60026020528060005260406000206000915090505481565b6116966127dc565b73ffffffffffffffffffffffffffffffffffffffff16600360009054906101000a900473ffffffffffffffffffffffffffffffffffffffff1673ffffffffffffffffffffffffffffffffffffffff1614611758576040517f08c379a00000000000000000000000000000000000000000000000000000000081526004018080602001828103825260208152602001807f4f776e61626c653a2063616c6c6572206973206e6f7420746865206f776e657281525060200191505060405180910390fd5b806000806101000a81548173ffffffffffffffffffffffffffffffffffffffff021916908373ffffffffffffffffffffffffffffffffffffffff16021790555050565b6000600d60008381526020019081526020016000209050600015158160050160009054906101000a900460ff16151514611820576040517f08c379a000000000000000000000000000000000000000000000000000000000815260040180806020018281038252602a8152602001806130c7602a913960400191505060405180910390fd5b806002015447101561187d576040517f08c379a00000000000000000000000000000000000000000000000000000000081526004018080602001828103825260318152602001806130966031913960400191505060405180910390fd5b60018160050160006101000a81548160ff0219169083151502179055508060020154600954106118c05780600201546009600082825403925050819055506118c9565b60006009819055505b8060010160009054906101000a900473ffffffffffffffffffffffffffffffffffffffff1673ffffffffffffffffffffffffffffffffffffffff166108fc82600201549081150290604051600060405180830381858888f19350505050158015611937573d6000803e3d6000fd5b505050565b61194534610b3d565b61199a576040517f08c379a000000000000000000000000000000000000000000000000000000000815260040180806020018281038252603681526020018061303f6036913960400191505060405180910390fd5b6006548111156119f5576040517f08c379a0000000000000000000000000000000000000000000000000000000008152600401808060200182810382526028815260200180612ff16028913960400191505060405180910390fd5b6119fe346124ac565b611a70576040517f08c379a00000000000000000000000000000000000000000000000000000000081526004018080602001828103825260158152602001807f4f757469736465206f66206265742072616e67652e000000000000000000000081525060200191505060405180910390fd5b611a85346009546126cb90919063ffffffff16565b600981905550611a96823483612b21565b611aa1600a54610f22565b5050565b60006005546000809054906101000a900473ffffffffffffffffffffffffffffffffffffffff1673ffffffffffffffffffffffffffffffffffffffff166370a08231306040518263ffffffff1660e01b8152600401808273ffffffffffffffffffffffffffffffffffffffff1673ffffffffffffffffffffffffffffffffffffffff16815260200191505060206040518083038186803b158015611b4857600080fd5b505afa158015611b5c573d6000803e3d6000fd5b505050506040513d6020811015611b7257600080fd5b810190808051906020019092919050505011611bf6576040517f08c379a000000000000000000000000000000000000000000000000000000000815260040180806020018281038252600f8152602001807f4e6f7420656e6f756768204c494e4b000000000000000000000000000000000081525060200191505060405180910390fd5b611c0560045460055484612c54565b9050919050565b611c146127dc565b73ffffffffffffffffffffffffffffffffffffffff16600360009054906101000a900473ffffffffffffffffffffffffffffffffffffffff1673ffffffffffffffffffffffffffffffffffffffff1614611cd6576040517f08c379a00000000000000000000000000000000000000000000000000000000081526004018080602001828103825260208152602001807f4f776e61626c653a2063616c6c6572206973206e6f7420746865206f776e657281525060200191505060405180910390fd5b6009544711611ce457600080fd5b6000611cfb6009544761275390919063ffffffff16565b9050600b60009054906101000a900473ffffffffffffffffffffffffffffffffffffffff1673ffffffffffffffffffffffffffffffffffffffff166108fc829081150290604051600060405180830381858888f19350505050158015611d65573d6000803e3d6000fd5b5060008060009054906101000a900473ffffffffffffffffffffffffffffffffffffffff1673ffffffffffffffffffffffffffffffffffffffff166370a08231306040518263ffffffff1660e01b8152600401808273ffffffffffffffffffffffffffffffffffffffff1673ffffffffffffffffffffffffffffffffffffffff16815260200191505060206040518083038186803b158015611e0657600080fd5b505afa158015611e1a573d6000803e3d6000fd5b505050506040513d6020811015611e3057600080fd5b81019080805190602001909291905050501115612026576000809054906101000a900473ffffffffffffffffffffffffffffffffffffffff1673ffffffffffffffffffffffffffffffffffffffff1663a9059cbb600b60009054906101000a900473ffffffffffffffffffffffffffffffffffffffff166000809054906101000a900473ffffffffffffffffffffffffffffffffffffffff1673ffffffffffffffffffffffffffffffffffffffff166370a08231306040518263ffffffff1660e01b8152600401808273ffffffffffffffffffffffffffffffffffffffff1673ffffffffffffffffffffffffffffffffffffffff16815260200191505060206040518083038186803b158015611f4557600080fd5b505afa158015611f59573d6000803e3d6000fd5b505050506040513d6020811015611f6f57600080fd5b81019080805190602001909291905050506040518363ffffffff1660e01b8152600401808373ffffffffffffffffffffffffffffffffffffffff1673ffffffffffffffffffffffffffffffffffffffff16815260200182815260200192505050602060405180830381600087803b158015611fe957600080fd5b505af1158015611ffd573d6000803e3d6000fd5b505050506040513d602081101561201357600080fd5b8101908080519060200190929190505050505b50565b6120316127dc565b73ffffffffffffffffffffffffffffffffffffffff16600360009054906101000a900473ffffffffffffffffffffffffffffffffffffffff1673ffffffffffffffffffffffffffffffffffffffff16146120f3576040517f08c379a00000000000000000000000000000000000000000000000000000000081526004018080602001828103825260208152602001807f4f776e61626c653a2063616c6c6572206973206e6f7420746865206f776e657281525060200191505060405180910390fd5b600954471161210157600080fd5b60006121186009544761275390919063ffffffff16565b9050600b60009054906101000a900473ffffffffffffffffffffffffffffffffffffffff1673ffffffffffffffffffffffffffffffffffffffff166108fc829081150290604051600060405180830381858888f19350505050158015612182573d6000803e3d6000fd5b5050565b61218e612fa2565b6040518060c001604052808381526020018773ffffffffffffffffffffffffffffffffffffffff1681526020018681526020018581526020016121dd600a6006546126cb90919063ffffffff16565b8152602001841515815250905080600d6000836000015181526020019081526020016000206000820151816000015560208201518160010160006101000a81548173ffffffffffffffffffffffffffffffffffffffff021916908373ffffffffffffffffffffffffffffffffffffffff16021790555060408201518160020155606082015181600301556080820151816004015560a08201518160050160006101000a81548160ff021916908315150217905550905050505050505050565b6122a46127dc565b73ffffffffffffffffffffffffffffffffffffffff16600360009054906101000a900473ffffffffffffffffffffffffffffffffffffffff1673ffffffffffffffffffffffffffffffffffffffff1614612366576040517f08c379a00000000000000000000000000000000000000000000000000000000081526004018080602001828103825260208152602001807f4f776e61626c653a2063616c6c6572206973206e6f7420746865206f776e657281525060200191505060405180910390fd5b600073ffffffffffffffffffffffffffffffffffffffff168173ffffffffffffffffffffffffffffffffffffffff1614156123ec576040517f08c379a00000000000000000000000000000000000000000000000000000000081526004018080602001828103825260268152602001806130196026913960400191505060405180910390fd5b8073ffffffffffffffffffffffffffffffffffffffff16600360009054906101000a900473ffffffffffffffffffffffffffffffffffffffff1673ffffffffffffffffffffffffffffffffffffffff167f8be0079c531659141344cd1fd0a4f28419497f9722a3daafe3b4186f6b6457e060405160405180910390a380600360006101000a81548173ffffffffffffffffffffffffffffffffffffffff021916908373ffffffffffffffffffffffffffffffffffffffff16021790555050565b600060085482101580156124c257506007548211155b156124d057600190506124d5565b600090505b919050565b6124e334610b3d565b612538576040517f08c379a000000000000000000000000000000000000000000000000000000000815260040180806020018281038252603681526020018061303f6036913960400191505060405180910390fd5b600654821115612593576040517f08c379a0000000000000000000000000000000000000000000000000000000008152600401808060200182810382526028815260200180612ff16028913960400191505060405180910390fd5b61259c346124ac565b61260e576040517f08c379a00000000000000000000000000000000000000000000000000000000081526004018080602001828103825260158152602001807f4f757469736465206f66206265742072616e67652e000000000000000000000081525060200191505060405180910390fd5b612623346009546126cb90919063ffffffff16565b600981905550612634833484612b21565b612640600a5482611016565b505050565b60008083141561265857600090506126c5565b600082840290508284828161266957fe5b04146126c0576040517f08c379a00000000000000000000000000000000000000000000000000000000081526004018080602001828103825260218152602001806130756021913960400191505060405180910390fd5b809150505b92915050565b600080828401905083811015612749576040517f08c379a000000000000000000000000000000000000000000000000000000000815260040180806020018281038252601b8152602001807f536166654d6174683a206164646974696f6e206f766572666c6f77000000000081525060200191505060405180910390fd5b8091505092915050565b6000828211156127cb576040517f08c379a000000000000000000000000000000000000000000000000000000000815260040180806020018281038252601e8152602001807f536166654d6174683a207375627472616374696f6e206f766572666c6f77000081525060200191505060405180910390fd5b600082840390508091505092915050565b600033905090565b6000600d6000600e6000868152602001908152602001600020548152602001908152602001600020905060008160000154111561296a576000816002015461283b600c54846002015461264590919063ffffffff16565b01905080471015612897576040517f08c379a00000000000000000000000000000000000000000000000000000000081526004018080602001828103825260338152602001806130f16033913960400191505060405180910390fd5b82826004018190555060018260050160006101000a81548160ff0219169083151502179055508160020154600954106128e35781600201546009600082825403925050819055506128ec565b60006009819055505b816004015482600301541415612968578160010160009054906101000a900473ffffffffffffffffffffffffffffffffffffffff1673ffffffffffffffffffffffffffffffffffffffff166108fc829081150290604051600060405180830381858888f19350505050158015612966573d6000803e3d6000fd5b505b505b505050565b6000600d6000600e60008681526020019081526020016000205481526020019081526020016000209050600081600001541115612b1c57600081600201546129c6600c54846002015461264590919063ffffffff16565b01905080471015612a22576040517f08c379a00000000000000000000000000000000000000000000000000000000081526004018080602001828103825260338152602001806130f16033913960400191505060405180910390fd5b612a4a612a3b60016006546126cb90919063ffffffff16565b84612e6590919063ffffffff16565b826004018190555060018260050160006101000a81548160ff021916908315150217905550816002015460095410612a95578160020154600960008282540392505081905550612a9e565b60006009819055505b816004015482600301541415612b1a578160010160009054906101000a900473ffffffffffffffffffffffffffffffffffffffff1673ffffffffffffffffffffffffffffffffffffffff166108fc829081150290604051600060405180830381858888f19350505050158015612b18573d6000803e3d6000fd5b505b505b505050565b612b376001600a546126cb90919063ffffffff16565b600a81905550612b45612fa2565b6040518060c00160405280600a5481526020018573ffffffffffffffffffffffffffffffffffffffff168152602001848152602001838152602001612b96600a6006546126cb90919063ffffffff16565b815260200160001515815250905080600d6000836000015181526020019081526020016000206000820151816000015560208201518160010160006101000a81548173ffffffffffffffffffffffffffffffffffffffff021916908373ffffffffffffffffffffffffffffffffffffffff16021790555060408201518160020155606082015181600301556080820151816004015560a08201518160050160006101000a81548160ff02191690831515021790555090505050505050565b60008060009054906101000a900473ffffffffffffffffffffffffffffffffffffffff1673ffffffffffffffffffffffffffffffffffffffff16634000aea0600160009054906101000a900473ffffffffffffffffffffffffffffffffffffffff1685878660405160200180838152602001828152602001925050506040516020818303038152906040526040518463ffffffff1660e01b8152600401808473ffffffffffffffffffffffffffffffffffffffff1673ffffffffffffffffffffffffffffffffffffffff16815260200183815260200180602001828103825283818151815260200191508051906020019080838360005b83811015612d66578082015181840152602081019050612d4b565b50505050905090810190601f168015612d935780820380516001836020036101000a031916815260200191505b50945050505050602060405180830381600087803b158015612db457600080fd5b505af1158015612dc8573d6000803e3d6000fd5b505050506040513d6020811015612dde57600080fd5b8101908080519060200190929190505050506000612e11858430600260008a815260200190815260200160002054612eef565b9050612e3a600160026000888152602001908152602001600020546126cb90919063ffffffff16565b6002600087815260200190815260200160002081905550612e5b8582612f69565b9150509392505050565b600080821415612edd576040517f08c379a00000000000000000000000000000000000000000000000000000000081526004018080602001828103825260188152602001807f536166654d6174683a206d6f64756c6f206279207a65726f000000000000000081525060200191505060405180910390fd5b818381612ee657fe5b06905092915050565b600084848484604051602001808581526020018481526020018373ffffffffffffffffffffffffffffffffffffffff1673ffffffffffffffffffffffffffffffffffffffff1681526020018281526020019450505050506040516020818303038152906040528051906020012060001c9050949350505050565b60008282604051602001808381526020018281526020019250505060405160208183030381529060405280519060200120905092915050565b6040518060c0016040528060008152602001600073ffffffffffffffffffffffffffffffffffffffff168152602001600081526020016000815260200160008152602001600015158152509056fe5069636b20697320746f6f20686967682e2043686f6f73652061206c6f776572206e756d6265722e4f776e61626c653a206e6577206f776e657220697320746865207a65726f2061646472657373436f6e74726163742068617320696e737566666963696e742066756e647320746f207061796f757420706f737369626c652077696e2e536166654d6174683a206d756c7469706c69636174696f6e206f766572666c6f77436f6e74726163742062616c616e636520746f6f206c6f772e20506c656173652074727920616761696e206c617465722e47616d6520616c726561647920636f6d706c6574652e204e6f20726566756e6420706f737369626c652e556e61626c6520746f207061792e20506c6561736520706c617920616761696e206f72207265717565737420726566756e642ea264697066735822122005540b9381dba42207219f1052036aad4696f32807b656ad3cec09190c61739164736f6c63430006000033","opcodes":"PUSH1 0x80 PUSH1 0x40 MSTORE CALLVALUE DUP1 ISZERO PUSH3 0x11 JUMPI PUSH1 0x0 DUP1 REVERT JUMPDEST POP PUSH1 0x40 MLOAD PUSH3 0x33F0 CODESIZE SUB DUP1 PUSH3 0x33F0 DUP4 CODECOPY DUP2 DUP2 ADD PUSH1 0x40 MSTORE PUSH1 0xA0 DUP2 LT ISZERO PUSH3 0x37 JUMPI PUSH1 0x0 DUP1 REVERT JUMPDEST DUP2 ADD SWAP1 DUP1 DUP1 MLOAD SWAP1 PUSH1 0x20 ADD SWAP1 SWAP3 SWAP2 SWAP1 DUP1 MLOAD SWAP1 PUSH1 0x20 ADD SWAP1 SWAP3 SWAP2 SWAP1 DUP1 MLOAD SWAP1 PUSH1 0x20 ADD SWAP1 SWAP3 SWAP2 SWAP1 DUP1 MLOAD SWAP1 PUSH1 0x20 ADD SWAP1 SWAP3 SWAP2 SWAP1 DUP1 MLOAD SWAP1 PUSH1 0x20 ADD SWAP1 SWAP3 SWAP2 SWAP1 POP POP POP PUSH20 0xDD3782915140C8F3B190B5D67EAC6DC5760C46E9 PUSH20 0xA36085F69E2889C224210F603D836748E7DC0088 DUP2 PUSH1 0x1 PUSH1 0x0 PUSH2 0x100 EXP DUP2 SLOAD DUP2 PUSH20 0xFFFFFFFFFFFFFFFFFFFFFFFFFFFFFFFFFFFFFFFF MUL NOT AND SWAP1 DUP4 PUSH20 0xFFFFFFFFFFFFFFFFFFFFFFFFFFFFFFFFFFFFFFFF AND MUL OR SWAP1 SSTORE POP DUP1 PUSH1 0x0 DUP1 PUSH2 0x100 EXP DUP2 SLOAD DUP2 PUSH20 0xFFFFFFFFFFFFFFFFFFFFFFFFFFFFFFFFFFFFFFFF MUL NOT AND SWAP1 DUP4 PUSH20 0xFFFFFFFFFFFFFFFFFFFFFFFFFFFFFFFFFFFFFFFF AND MUL OR SWAP1 SSTORE POP POP POP PUSH1 0x0 PUSH3 0x12F PUSH3 0x27F PUSH1 0x20 SHL PUSH1 0x20 SHR JUMP JUMPDEST SWAP1 POP DUP1 PUSH1 0x3 PUSH1 0x0 PUSH2 0x100 EXP DUP2 SLOAD DUP2 PUSH20 0xFFFFFFFFFFFFFFFFFFFFFFFFFFFFFFFFFFFFFFFF MUL NOT AND SWAP1 DUP4 PUSH20 0xFFFFFFFFFFFFFFFFFFFFFFFFFFFFFFFFFFFFFFFF AND MUL OR SWAP1 SSTORE POP DUP1 PUSH20 0xFFFFFFFFFFFFFFFFFFFFFFFFFFFFFFFFFFFFFFFF AND PUSH1 0x0 PUSH20 0xFFFFFFFFFFFFFFFFFFFFFFFFFFFFFFFFFFFFFFFF AND PUSH32 0x8BE0079C531659141344CD1FD0A4F28419497F9722A3DAAFE3B4186F6B6457E0 PUSH1 0x40 MLOAD PUSH1 0x40 MLOAD DUP1 SWAP2 SUB SWAP1 LOG3 POP PUSH32 0x6C3699283BDA56AD74F6B855546325B68D482E983852A7A82979CC4807B641F4 PUSH1 0x0 SHL PUSH1 0x4 DUP2 SWAP1 SSTORE POP PUSH8 0x16345785D8A0000 PUSH1 0x5 DUP2 SWAP1 SSTORE POP PUSH1 0x0 PUSH1 0xA DUP2 SWAP1 SSTORE POP PUSH1 0x0 PUSH1 0x9 DUP2 SWAP1 SSTORE POP DUP5 PUSH1 0xB PUSH1 0x0 PUSH2 0x100 EXP DUP2 SLOAD DUP2 PUSH20 0xFFFFFFFFFFFFFFFFFFFFFFFFFFFFFFFFFFFFFFFF MUL NOT AND SWAP1 DUP4 PUSH20 0xFFFFFFFFFFFFFFFFFFFFFFFFFFFFFFFFFFFFFFFF AND MUL OR SWAP1 SSTORE POP DUP3 PUSH1 0x8 DUP2 SWAP1 SSTORE POP DUP4 PUSH1 0x7 DUP2 SWAP1 SSTORE POP DUP2 PUSH1 0x6 DUP2 SWAP1 SSTORE POP DUP1 PUSH1 0xC DUP2 SWAP1 SSTORE POP POP POP POP POP POP PUSH3 0x287 JUMP JUMPDEST PUSH1 0x0 CALLER SWAP1 POP SWAP1 JUMP JUMPDEST PUSH2 0x3159 DUP1 PUSH3 0x297 PUSH1 0x0 CODECOPY PUSH1 0x0 RETURN INVALID PUSH1 0x80 PUSH1 0x40 MSTORE PUSH1 0x4 CALLDATASIZE LT PUSH2 0x213 JUMPI PUSH1 0x0 CALLDATALOAD PUSH1 0xE0 SHR DUP1 PUSH4 0x881EFF1E GT PUSH2 0x118 JUMPI DUP1 PUSH4 0xA4B2409E GT PUSH2 0xA0 JUMPI DUP1 PUSH4 0xC955E79C GT PUSH2 0x6F JUMPI DUP1 PUSH4 0xC955E79C EQ PUSH2 0x9AF JUMPI DUP1 PUSH4 0xDE4FA6AF EQ PUSH2 0x9C6 JUMPI DUP1 PUSH4 0xF2FDE38B EQ PUSH2 0xA41 JUMPI DUP1 PUSH4 0xFA63B7AD EQ PUSH2 0xA92 JUMPI DUP1 PUSH4 0xFAFACAB2 EQ PUSH2 0xAE5 JUMPI PUSH2 0x21A JUMP JUMPDEST DUP1 PUSH4 0xA4B2409E EQ PUSH2 0x8C0 JUMPI DUP1 PUSH4 0xAC150FD8 EQ PUSH2 0x8FB JUMPI DUP1 PUSH4 0xB37217A4 EQ PUSH2 0x949 JUMPI DUP1 PUSH4 0xB93030B3 EQ PUSH2 0x998 JUMPI PUSH2 0x21A JUMP JUMPDEST DUP1 PUSH4 0x9619367D GT PUSH2 0xE7 JUMPI DUP1 PUSH4 0x9619367D EQ PUSH2 0x78F JUMPI DUP1 PUSH4 0x98544710 EQ PUSH2 0x7BA JUMPI DUP1 PUSH4 0x9920CF81 EQ PUSH2 0x7F5 JUMPI DUP1 PUSH4 0x9E317F12 EQ PUSH2 0x820 JUMPI DUP1 PUSH4 0xA02E0616 EQ PUSH2 0x86F JUMPI PUSH2 0x21A JUMP JUMPDEST DUP1 PUSH4 0x881EFF1E EQ PUSH2 0x67D JUMPI DUP1 PUSH4 0x88EA41B9 EQ PUSH2 0x6B8 JUMPI DUP1 PUSH4 0x8DA5CB5B EQ PUSH2 0x6F3 JUMPI DUP1 PUSH4 0x94985DDD EQ PUSH2 0x74A JUMPI PUSH2 0x21A JUMP JUMPDEST DUP1 PUSH4 0x44C18AA7 GT PUSH2 0x19B JUMPI DUP1 PUSH4 0x6168EAC9 GT PUSH2 0x16A JUMPI DUP1 PUSH4 0x6168EAC9 EQ PUSH2 0x57C JUMPI DUP1 PUSH4 0x63BD1D4A EQ PUSH2 0x5C1 JUMPI DUP1 PUSH4 0x6B25D296 EQ PUSH2 0x5EC JUMPI DUP1 PUSH4 0x715018A6 EQ PUSH2 0x617 JUMPI DUP1 PUSH4 0x82E39AC5 EQ PUSH2 0x62E JUMPI PUSH2 0x21A JUMP JUMPDEST DUP1 PUSH4 0x44C18AA7 EQ PUSH2 0x45E JUMPI DUP1 PUSH4 0x44FF81CE EQ PUSH2 0x499 JUMPI DUP1 PUSH4 0x5873533D EQ PUSH2 0x4EA JUMPI DUP1 PUSH4 0x5B8D02D7 EQ PUSH2 0x525 JUMPI PUSH2 0x21A JUMP JUMPDEST DUP1 PUSH4 0x2E5B2168 GT PUSH2 0x1E2 JUMPI DUP1 PUSH4 0x2E5B2168 EQ PUSH2 0x34C JUMPI DUP1 PUSH4 0x2EE42D8A EQ PUSH2 0x377 JUMPI DUP1 PUSH4 0x33EA51A8 EQ PUSH2 0x3A2 JUMPI DUP1 PUSH4 0x39E7357C EQ PUSH2 0x3F3 JUMPI DUP1 PUSH4 0x4051DDAC EQ PUSH2 0x41E JUMPI PUSH2 0x21A JUMP JUMPDEST DUP1 PUSH4 0xC610A12 EQ PUSH2 0x21F JUMPI DUP1 PUSH4 0x10FE7C48 EQ PUSH2 0x272 JUMPI DUP1 PUSH4 0x117A5B90 EQ PUSH2 0x2A0 JUMPI DUP1 PUSH4 0x2DE0F182 EQ PUSH2 0x342 JUMPI PUSH2 0x21A JUMP JUMPDEST CALLDATASIZE PUSH2 0x21A JUMPI STOP JUMPDEST PUSH1 0x0 DUP1 REVERT JUMPDEST CALLVALUE DUP1 ISZERO PUSH2 0x22B JUMPI PUSH1 0x0 DUP1 REVERT JUMPDEST POP PUSH2 0x258 PUSH1 0x4 DUP1 CALLDATASIZE SUB PUSH1 0x20 DUP2 LT ISZERO PUSH2 0x242 JUMPI PUSH1 0x0 DUP1 REVERT JUMPDEST DUP2 ADD SWAP1 DUP1 DUP1 CALLDATALOAD SWAP1 PUSH1 0x20 ADD SWAP1 SWAP3 SWAP2 SWAP1 POP POP POP PUSH2 0xB3D JUMP JUMPDEST PUSH1 0x40 MLOAD DUP1 DUP3 ISZERO ISZERO ISZERO ISZERO DUP2 MSTORE PUSH1 0x20 ADD SWAP2 POP POP PUSH1 0x40 MLOAD DUP1 SWAP2 SUB SWAP1 RETURN JUMPDEST PUSH2 0x29E PUSH1 0x4 DUP1 CALLDATASIZE SUB PUSH1 0x20 DUP2 LT ISZERO PUSH2 0x288 JUMPI PUSH1 0x0 DUP1 REVERT JUMPDEST DUP2 ADD SWAP1 DUP1 DUP1 CALLDATALOAD SWAP1 PUSH1 0x20 ADD SWAP1 SWAP3 SWAP2 SWAP1 POP POP POP PUSH2 0xB84 JUMP JUMPDEST STOP JUMPDEST CALLVALUE DUP1 ISZERO PUSH2 0x2AC JUMPI PUSH1 0x0 DUP1 REVERT JUMPDEST POP PUSH2 0x2D9 PUSH1 0x4 DUP1 CALLDATASIZE SUB PUSH1 0x20 DUP2 LT ISZERO PUSH2 0x2C3 JUMPI PUSH1 0x0 DUP1 REVERT JUMPDEST DUP2 ADD SWAP1 DUP1 DUP1 CALLDATALOAD SWAP1 PUSH1 0x20 ADD SWAP1 SWAP3 SWAP2 SWAP1 POP POP POP PUSH2 0xB91 JUMP JUMPDEST PUSH1 0x40 MLOAD DUP1 DUP8 DUP2 MSTORE PUSH1 0x20 ADD DUP7 PUSH20 0xFFFFFFFFFFFFFFFFFFFFFFFFFFFFFFFFFFFFFFFF AND PUSH20 0xFFFFFFFFFFFFFFFFFFFFFFFFFFFFFFFFFFFFFFFF AND DUP2 MSTORE PUSH1 0x20 ADD DUP6 DUP2 MSTORE PUSH1 0x20 ADD DUP5 DUP2 MSTORE PUSH1 0x20 ADD DUP4 DUP2 MSTORE PUSH1 0x20 ADD DUP3 ISZERO ISZERO ISZERO ISZERO DUP2 MSTORE PUSH1 0x20 ADD SWAP7 POP POP POP POP POP POP POP PUSH1 0x40 MLOAD DUP1 SWAP2 SUB SWAP1 RETURN JUMPDEST PUSH2 0x34A PUSH2 0xBFA JUMP JUMPDEST STOP JUMPDEST CALLVALUE DUP1 ISZERO PUSH2 0x358 JUMPI PUSH1 0x0 DUP1 REVERT JUMPDEST POP PUSH2 0x361 PUSH2 0xBFC JUMP JUMPDEST PUSH1 0x40 MLOAD DUP1 DUP3 DUP2 MSTORE PUSH1 0x20 ADD SWAP2 POP POP PUSH1 0x40 MLOAD DUP1 SWAP2 SUB SWAP1 RETURN JUMPDEST CALLVALUE DUP1 ISZERO PUSH2 0x383 JUMPI PUSH1 0x0 DUP1 REVERT JUMPDEST POP PUSH2 0x38C PUSH2 0xC02 JUMP JUMPDEST PUSH1 0x40 MLOAD DUP1 DUP3 DUP2 MSTORE PUSH1 0x20 ADD SWAP2 POP POP PUSH1 0x40 MLOAD DUP1 SWAP2 SUB SWAP1 RETURN JUMPDEST CALLVALUE DUP1 ISZERO PUSH2 0x3AE JUMPI PUSH1 0x0 DUP1 REVERT JUMPDEST POP PUSH2 0x3F1 PUSH1 0x4 DUP1 CALLDATASIZE SUB PUSH1 0x20 DUP2 LT ISZERO PUSH2 0x3C5 JUMPI PUSH1 0x0 DUP1 REVERT JUMPDEST DUP2 ADD SWAP1 DUP1 DUP1 CALLDATALOAD PUSH20 0xFFFFFFFFFFFFFFFFFFFFFFFFFFFFFFFFFFFFFFFF AND SWAP1 PUSH1 0x20 ADD SWAP1 SWAP3 SWAP2 SWAP1 POP POP POP PUSH2 0xC08 JUMP JUMPDEST STOP JUMPDEST CALLVALUE DUP1 ISZERO PUSH2 0x3FF JUMPI PUSH1 0x0 DUP1 REVERT JUMPDEST POP PUSH2 0x408 PUSH2 0xD16 JUMP JUMPDEST PUSH1 0x40 MLOAD DUP1 DUP3 DUP2 MSTORE PUSH1 0x20 ADD SWAP2 POP POP PUSH1 0x40 MLOAD DUP1 SWAP2 SUB SWAP1 RETURN JUMPDEST CALLVALUE DUP1 ISZERO PUSH2 0x42A JUMPI PUSH1 0x0 DUP1 REVERT JUMPDEST POP PUSH2 0x433 PUSH2 0xD20 JUMP JUMPDEST PUSH1 0x40 MLOAD DUP1 DUP6 DUP2 MSTORE PUSH1 0x20 ADD DUP5 DUP2 MSTORE PUSH1 0x20 ADD DUP4 DUP2 MSTORE PUSH1 0x20 ADD DUP3 DUP2 MSTORE PUSH1 0x20 ADD SWAP5 POP POP POP POP POP PUSH1 0x40 MLOAD DUP1 SWAP2 SUB SWAP1 RETURN JUMPDEST CALLVALUE DUP1 ISZERO PUSH2 0x46A JUMPI PUSH1 0x0 DUP1 REVERT JUMPDEST POP PUSH2 0x497 PUSH1 0x4 DUP1 CALLDATASIZE SUB PUSH1 0x20 DUP2 LT ISZERO PUSH2 0x481 JUMPI PUSH1 0x0 DUP1 REVERT JUMPDEST DUP2 ADD SWAP1 DUP1 DUP1 CALLDATALOAD SWAP1 PUSH1 0x20 ADD SWAP1 SWAP3 SWAP2 SWAP1 POP POP POP PUSH2 0xD40 JUMP JUMPDEST STOP JUMPDEST CALLVALUE DUP1 ISZERO PUSH2 0x4A5 JUMPI PUSH1 0x0 DUP1 REVERT JUMPDEST POP PUSH2 0x4E8 PUSH1 0x4 DUP1 CALLDATASIZE SUB PUSH1 0x20 DUP2 LT ISZERO PUSH2 0x4BC JUMPI PUSH1 0x0 DUP1 REVERT JUMPDEST DUP2 ADD SWAP1 DUP1 DUP1 CALLDATALOAD PUSH20 0xFFFFFFFFFFFFFFFFFFFFFFFFFFFFFFFFFFFFFFFF AND SWAP1 PUSH1 0x20 ADD SWAP1 SWAP3 SWAP2 SWAP1 POP POP POP PUSH2 0xE14 JUMP JUMPDEST STOP JUMPDEST CALLVALUE DUP1 ISZERO PUSH2 0x4F6 JUMPI PUSH1 0x0 DUP1 REVERT JUMPDEST POP PUSH2 0x523 PUSH1 0x4 DUP1 CALLDATASIZE SUB PUSH1 0x20 DUP2 LT ISZERO PUSH2 0x50D JUMPI PUSH1 0x0 DUP1 REVERT JUMPDEST DUP2 ADD SWAP1 DUP1 DUP1 CALLDATALOAD SWAP1 PUSH1 0x20 ADD SWAP1 SWAP3 SWAP2 SWAP1 POP POP POP PUSH2 0xF22 JUMP JUMPDEST STOP JUMPDEST CALLVALUE DUP1 ISZERO PUSH2 0x531 JUMPI PUSH1 0x0 DUP1 REVERT JUMPDEST POP PUSH2 0x53A PUSH2 0xFF0 JUMP JUMPDEST PUSH1 0x40 MLOAD DUP1 DUP3 PUSH20 0xFFFFFFFFFFFFFFFFFFFFFFFFFFFFFFFFFFFFFFFF AND PUSH20 0xFFFFFFFFFFFFFFFFFFFFFFFFFFFFFFFFFFFFFFFF AND DUP2 MSTORE PUSH1 0x20 ADD SWAP2 POP POP PUSH1 0x40 MLOAD DUP1 SWAP2 SUB SWAP1 RETURN JUMPDEST CALLVALUE DUP1 ISZERO PUSH2 0x588 JUMPI PUSH1 0x0 DUP1 REVERT JUMPDEST POP PUSH2 0x5BF PUSH1 0x4 DUP1 CALLDATASIZE SUB PUSH1 0x40 DUP2 LT ISZERO PUSH2 0x59F JUMPI PUSH1 0x0 DUP1 REVERT JUMPDEST DUP2 ADD SWAP1 DUP1 DUP1 CALLDATALOAD SWAP1 PUSH1 0x20 ADD SWAP1 SWAP3 SWAP2 SWAP1 DUP1 CALLDATALOAD SWAP1 PUSH1 0x20 ADD SWAP1 SWAP3 SWAP2 SWAP1 POP POP POP PUSH2 0x1016 JUMP JUMPDEST STOP JUMPDEST CALLVALUE DUP1 ISZERO PUSH2 0x5CD JUMPI PUSH1 0x0 DUP1 REVERT JUMPDEST POP PUSH2 0x5D6 PUSH2 0x1144 JUMP JUMPDEST PUSH1 0x40 MLOAD DUP1 DUP3 DUP2 MSTORE PUSH1 0x20 ADD SWAP2 POP POP PUSH1 0x40 MLOAD DUP1 SWAP2 SUB SWAP1 RETURN JUMPDEST CALLVALUE DUP1 ISZERO PUSH2 0x5F8 JUMPI PUSH1 0x0 DUP1 REVERT JUMPDEST POP PUSH2 0x601 PUSH2 0x114A JUMP JUMPDEST PUSH1 0x40 MLOAD DUP1 DUP3 DUP2 MSTORE PUSH1 0x20 ADD SWAP2 POP POP PUSH1 0x40 MLOAD DUP1 SWAP2 SUB SWAP1 RETURN JUMPDEST CALLVALUE DUP1 ISZERO PUSH2 0x623 JUMPI PUSH1 0x0 DUP1 REVERT JUMPDEST POP PUSH2 0x62C PUSH2 0x1150 JUMP JUMPDEST STOP JUMPDEST CALLVALUE DUP1 ISZERO PUSH2 0x63A JUMPI PUSH1 0x0 DUP1 REVERT JUMPDEST POP PUSH2 0x667 PUSH1 0x4 DUP1 CALLDATASIZE SUB PUSH1 0x20 DUP2 LT ISZERO PUSH2 0x651 JUMPI PUSH1 0x0 DUP1 REVERT JUMPDEST DUP2 ADD SWAP1 DUP1 DUP1 CALLDATALOAD SWAP1 PUSH1 0x20 ADD SWAP1 SWAP3 SWAP2 SWAP1 POP POP POP PUSH2 0x12DB JUMP JUMPDEST PUSH1 0x40 MLOAD DUP1 DUP3 DUP2 MSTORE PUSH1 0x20 ADD SWAP2 POP POP PUSH1 0x40 MLOAD DUP1 SWAP2 SUB SWAP1 RETURN JUMPDEST CALLVALUE DUP1 ISZERO PUSH2 0x689 JUMPI PUSH1 0x0 DUP1 REVERT JUMPDEST POP PUSH2 0x6B6 PUSH1 0x4 DUP1 CALLDATASIZE SUB PUSH1 0x20 DUP2 LT ISZERO PUSH2 0x6A0 JUMPI PUSH1 0x0 DUP1 REVERT JUMPDEST DUP2 ADD SWAP1 DUP1 DUP1 CALLDATALOAD SWAP1 PUSH1 0x20 ADD SWAP1 SWAP3 SWAP2 SWAP1 POP POP POP PUSH2 0x12F3 JUMP JUMPDEST STOP JUMPDEST CALLVALUE DUP1 ISZERO PUSH2 0x6C4 JUMPI PUSH1 0x0 DUP1 REVERT JUMPDEST POP PUSH2 0x6F1 PUSH1 0x4 DUP1 CALLDATASIZE SUB PUSH1 0x20 DUP2 LT ISZERO PUSH2 0x6DB JUMPI PUSH1 0x0 DUP1 REVERT JUMPDEST DUP2 ADD SWAP1 DUP1 DUP1 CALLDATALOAD SWAP1 PUSH1 0x20 ADD SWAP1 SWAP3 SWAP2 SWAP1 POP POP POP PUSH2 0x13C7 JUMP JUMPDEST STOP JUMPDEST CALLVALUE DUP1 ISZERO PUSH2 0x6FF JUMPI PUSH1 0x0 DUP1 REVERT JUMPDEST POP PUSH2 0x708 PUSH2 0x149B JUMP JUMPDEST PUSH1 0x40 MLOAD DUP1 DUP3 PUSH20 0xFFFFFFFFFFFFFFFFFFFFFFFFFFFFFFFFFFFFFFFF AND PUSH20 0xFFFFFFFFFFFFFFFFFFFFFFFFFFFFFFFFFFFFFFFF AND DUP2 MSTORE PUSH1 0x20 ADD SWAP2 POP POP PUSH1 0x40 MLOAD DUP1 SWAP2 SUB SWAP1 RETURN JUMPDEST CALLVALUE DUP1 ISZERO PUSH2 0x756 JUMPI PUSH1 0x0 DUP1 REVERT JUMPDEST POP PUSH2 0x78D PUSH1 0x4 DUP1 CALLDATASIZE SUB PUSH1 0x40 DUP2 LT ISZERO PUSH2 0x76D JUMPI PUSH1 0x0 DUP1 REVERT JUMPDEST DUP2 ADD SWAP1 DUP1 DUP1 CALLDATALOAD SWAP1 PUSH1 0x20 ADD SWAP1 SWAP3 SWAP2 SWAP1 DUP1 CALLDATALOAD SWAP1 PUSH1 0x20 ADD SWAP1 SWAP3 SWAP2 SWAP1 POP POP POP PUSH2 0x14C5 JUMP JUMPDEST STOP JUMPDEST CALLVALUE DUP1 ISZERO PUSH2 0x79B JUMPI PUSH1 0x0 DUP1 REVERT JUMPDEST POP PUSH2 0x7A4 PUSH2 0x1596 JUMP JUMPDEST PUSH1 0x40 MLOAD DUP1 DUP3 DUP2 MSTORE PUSH1 0x20 ADD SWAP2 POP POP PUSH1 0x40 MLOAD DUP1 SWAP2 SUB SWAP1 RETURN JUMPDEST CALLVALUE DUP1 ISZERO PUSH2 0x7C6 JUMPI PUSH1 0x0 DUP1 REVERT JUMPDEST POP PUSH2 0x7F3 PUSH1 0x4 DUP1 CALLDATASIZE SUB PUSH1 0x20 DUP2 LT ISZERO PUSH2 0x7DD JUMPI PUSH1 0x0 DUP1 REVERT JUMPDEST DUP2 ADD SWAP1 DUP1 DUP1 CALLDATALOAD SWAP1 PUSH1 0x20 ADD SWAP1 SWAP3 SWAP2 SWAP1 POP POP POP PUSH2 0x159C JUMP JUMPDEST STOP JUMPDEST CALLVALUE DUP1 ISZERO PUSH2 0x801 JUMPI PUSH1 0x0 DUP1 REVERT JUMPDEST POP PUSH2 0x80A PUSH2 0x1670 JUMP JUMPDEST PUSH1 0x40 MLOAD DUP1 DUP3 DUP2 MSTORE PUSH1 0x20 ADD SWAP2 POP POP PUSH1 0x40 MLOAD DUP1 SWAP2 SUB SWAP1 RETURN JUMPDEST CALLVALUE DUP1 ISZERO PUSH2 0x82C JUMPI PUSH1 0x0 DUP1 REVERT JUMPDEST POP PUSH2 0x859 PUSH1 0x4 DUP1 CALLDATASIZE SUB PUSH1 0x20 DUP2 LT ISZERO PUSH2 0x843 JUMPI PUSH1 0x0 DUP1 REVERT JUMPDEST DUP2 ADD SWAP1 DUP1 DUP1 CALLDATALOAD SWAP1 PUSH1 0x20 ADD SWAP1 SWAP3 SWAP2 SWAP1 POP POP POP PUSH2 0x1676 JUMP JUMPDEST PUSH1 0x40 MLOAD DUP1 DUP3 DUP2 MSTORE PUSH1 0x20 ADD SWAP2 POP POP PUSH1 0x40 MLOAD DUP1 SWAP2 SUB SWAP1 RETURN JUMPDEST CALLVALUE DUP1 ISZERO PUSH2 0x87B JUMPI PUSH1 0x0 DUP1 REVERT JUMPDEST POP PUSH2 0x8BE PUSH1 0x4 DUP1 CALLDATASIZE SUB PUSH1 0x20 DUP2 LT ISZERO PUSH2 0x892 JUMPI PUSH1 0x0 DUP1 REVERT JUMPDEST DUP2 ADD SWAP1 DUP1 DUP1 CALLDATALOAD PUSH20 0xFFFFFFFFFFFFFFFFFFFFFFFFFFFFFFFFFFFFFFFF AND SWAP1 PUSH1 0x20 ADD SWAP1 SWAP3 SWAP2 SWAP1 POP POP POP PUSH2 0x168E JUMP JUMPDEST STOP JUMPDEST CALLVALUE DUP1 ISZERO PUSH2 0x8CC JUMPI PUSH1 0x0 DUP1 REVERT JUMPDEST POP PUSH2 0x8F9 PUSH1 0x4 DUP1 CALLDATASIZE SUB PUSH1 0x20 DUP2 LT ISZERO PUSH2 0x8E3 JUMPI PUSH1 0x0 DUP1 REVERT JUMPDEST DUP2 ADD SWAP1 DUP1 DUP1 CALLDATALOAD SWAP1 PUSH1 0x20 ADD SWAP1 SWAP3 SWAP2 SWAP1 POP POP POP PUSH2 0x179B JUMP JUMPDEST STOP JUMPDEST PUSH2 0x947 PUSH1 0x4 DUP1 CALLDATASIZE SUB PUSH1 0x40 DUP2 LT ISZERO PUSH2 0x911 JUMPI PUSH1 0x0 DUP1 REVERT JUMPDEST DUP2 ADD SWAP1 DUP1 DUP1 CALLDATALOAD PUSH20 0xFFFFFFFFFFFFFFFFFFFFFFFFFFFFFFFFFFFFFFFF AND SWAP1 PUSH1 0x20 ADD SWAP1 SWAP3 SWAP2 SWAP1 DUP1 CALLDATALOAD SWAP1 PUSH1 0x20 ADD SWAP1 SWAP3 SWAP2 SWAP1 POP POP POP PUSH2 0x193C JUMP JUMPDEST STOP JUMPDEST CALLVALUE DUP1 ISZERO PUSH2 0x955 JUMPI PUSH1 0x0 DUP1 REVERT JUMPDEST POP PUSH2 0x982 PUSH1 0x4 DUP1 CALLDATASIZE SUB PUSH1 0x20 DUP2 LT ISZERO PUSH2 0x96C JUMPI PUSH1 0x0 DUP1 REVERT JUMPDEST DUP2 ADD SWAP1 DUP1 DUP1 CALLDATALOAD SWAP1 PUSH1 0x20 ADD SWAP1 SWAP3 SWAP2 SWAP1 POP POP POP PUSH2 0x1AA5 JUMP JUMPDEST PUSH1 0x40 MLOAD DUP1 DUP3 DUP2 MSTORE PUSH1 0x20 ADD SWAP2 POP POP PUSH1 0x40 MLOAD DUP1 SWAP2 SUB SWAP1 RETURN JUMPDEST CALLVALUE DUP1 ISZERO PUSH2 0x9A4 JUMPI PUSH1 0x0 DUP1 REVERT JUMPDEST POP PUSH2 0x9AD PUSH2 0x1C0C JUMP JUMPDEST STOP JUMPDEST CALLVALUE DUP1 ISZERO PUSH2 0x9BB JUMPI PUSH1 0x0 DUP1 REVERT JUMPDEST POP PUSH2 0x9C4 PUSH2 0x2029 JUMP JUMPDEST STOP JUMPDEST CALLVALUE DUP1 ISZERO PUSH2 0x9D2 JUMPI PUSH1 0x0 DUP1 REVERT JUMPDEST POP PUSH2 0xA3F PUSH1 0x4 DUP1 CALLDATASIZE SUB PUSH1 0xA0 DUP2 LT ISZERO PUSH2 0x9E9 JUMPI PUSH1 0x0 DUP1 REVERT JUMPDEST DUP2 ADD SWAP1 DUP1 DUP1 CALLDATALOAD PUSH20 0xFFFFFFFFFFFFFFFFFFFFFFFFFFFFFFFFFFFFFFFF AND SWAP1 PUSH1 0x20 ADD SWAP1 SWAP3 SWAP2 SWAP1 DUP1 CALLDATALOAD SWAP1 PUSH1 0x20 ADD SWAP1 SWAP3 SWAP2 SWAP1 DUP1 CALLDATALOAD SWAP1 PUSH1 0x20 ADD SWAP1 SWAP3 SWAP2 SWAP1 DUP1 CALLDATALOAD ISZERO ISZERO SWAP1 PUSH1 0x20 ADD SWAP1 SWAP3 SWAP2 SWAP1 DUP1 CALLDATALOAD SWAP1 PUSH1 0x20 ADD SWAP1 SWAP3 SWAP2 SWAP1 POP POP POP PUSH2 0x2186 JUMP JUMPDEST STOP JUMPDEST CALLVALUE DUP1 ISZERO PUSH2 0xA4D JUMPI PUSH1 0x0 DUP1 REVERT JUMPDEST POP PUSH2 0xA90 PUSH1 0x4 DUP1 CALLDATASIZE SUB PUSH1 0x20 DUP2 LT ISZERO PUSH2 0xA64 JUMPI PUSH1 0x0 DUP1 REVERT JUMPDEST DUP2 ADD SWAP1 DUP1 DUP1 CALLDATALOAD PUSH20 0xFFFFFFFFFFFFFFFFFFFFFFFFFFFFFFFFFFFFFFFF AND SWAP1 PUSH1 0x20 ADD SWAP1 SWAP3 SWAP2 SWAP1 POP POP POP PUSH2 0x229C JUMP JUMPDEST STOP JUMPDEST CALLVALUE DUP1 ISZERO PUSH2 0xA9E JUMPI PUSH1 0x0 DUP1 REVERT JUMPDEST POP PUSH2 0xACB PUSH1 0x4 DUP1 CALLDATASIZE SUB PUSH1 0x20 DUP2 LT ISZERO PUSH2 0xAB5 JUMPI PUSH1 0x0 DUP1 REVERT JUMPDEST DUP2 ADD SWAP1 DUP1 DUP1 CALLDATALOAD SWAP1 PUSH1 0x20 ADD SWAP1 SWAP3 SWAP2 SWAP1 POP POP POP PUSH2 0x24AC JUMP JUMPDEST PUSH1 0x40 MLOAD DUP1 DUP3 ISZERO ISZERO ISZERO ISZERO DUP2 MSTORE PUSH1 0x20 ADD SWAP2 POP POP PUSH1 0x40 MLOAD DUP1 SWAP2 SUB SWAP1 RETURN JUMPDEST PUSH2 0xB3B PUSH1 0x4 DUP1 CALLDATASIZE SUB PUSH1 0x60 DUP2 LT ISZERO PUSH2 0xAFB JUMPI PUSH1 0x0 DUP1 REVERT JUMPDEST DUP2 ADD SWAP1 DUP1 DUP1 CALLDATALOAD PUSH20 0xFFFFFFFFFFFFFFFFFFFFFFFFFFFFFFFFFFFFFFFF AND SWAP1 PUSH1 0x20 ADD SWAP1 SWAP3 SWAP2 SWAP1 DUP1 CALLDATALOAD SWAP1 PUSH1 0x20 ADD SWAP1 SWAP3 SWAP2 SWAP1 DUP1 CALLDATALOAD SWAP1 PUSH1 0x20 ADD SWAP1 SWAP3 SWAP2 SWAP1 POP POP POP PUSH2 0x24DA JUMP JUMPDEST STOP JUMPDEST PUSH1 0x0 PUSH2 0xB66 DUP3 PUSH2 0xB58 PUSH1 0xC SLOAD DUP6 PUSH2 0x2645 SWAP1 SWAP2 SWAP1 PUSH4 0xFFFFFFFF AND JUMP JUMPDEST PUSH2 0x26CB SWAP1 SWAP2 SWAP1 PUSH4 0xFFFFFFFF AND JUMP JUMPDEST PUSH2 0xB7B PUSH1 0x9 SLOAD SELFBALANCE PUSH2 0x2753 SWAP1 SWAP2 SWAP1 PUSH4 0xFFFFFFFF AND JUMP JUMPDEST LT ISZERO SWAP1 POP SWAP2 SWAP1 POP JUMP JUMPDEST PUSH2 0xB8E CALLER DUP3 PUSH2 0x193C JUMP JUMPDEST POP JUMP JUMPDEST PUSH1 0xD PUSH1 0x20 MSTORE DUP1 PUSH1 0x0 MSTORE PUSH1 0x40 PUSH1 0x0 KECCAK256 PUSH1 0x0 SWAP2 POP SWAP1 POP DUP1 PUSH1 0x0 ADD SLOAD SWAP1 DUP1 PUSH1 0x1 ADD PUSH1 0x0 SWAP1 SLOAD SWAP1 PUSH2 0x100 EXP SWAP1 DIV PUSH20 0xFFFFFFFFFFFFFFFFFFFFFFFFFFFFFFFFFFFFFFFF AND SWAP1 DUP1 PUSH1 0x2 ADD SLOAD SWAP1 DUP1 PUSH1 0x3 ADD SLOAD SWAP1 DUP1 PUSH1 0x4 ADD SLOAD SWAP1 DUP1 PUSH1 0x5 ADD PUSH1 0x0 SWAP1 SLOAD SWAP1 PUSH2 0x100 EXP SWAP1 DIV PUSH1 0xFF AND SWAP1 POP DUP7 JUMP JUMPDEST JUMP JUMPDEST PUSH1 0x7 SLOAD DUP2 JUMP JUMPDEST PUSH1 0x6 SLOAD DUP2 JUMP JUMPDEST PUSH2 0xC10 PUSH2 0x27DC JUMP JUMPDEST PUSH20 0xFFFFFFFFFFFFFFFFFFFFFFFFFFFFFFFFFFFFFFFF AND PUSH1 0x3 PUSH1 0x0 SWAP1 SLOAD SWAP1 PUSH2 0x100 EXP SWAP1 DIV PUSH20 0xFFFFFFFFFFFFFFFFFFFFFFFFFFFFFFFFFFFFFFFF AND PUSH20 0xFFFFFFFFFFFFFFFFFFFFFFFFFFFFFFFFFFFFFFFF AND EQ PUSH2 0xCD2 JUMPI PUSH1 0x40 MLOAD PUSH32 0x8C379A000000000000000000000000000000000000000000000000000000000 DUP2 MSTORE PUSH1 0x4 ADD DUP1 DUP1 PUSH1 0x20 ADD DUP3 DUP2 SUB DUP3 MSTORE PUSH1 0x20 DUP2 MSTORE PUSH1 0x20 ADD DUP1 PUSH32 0x4F776E61626C653A2063616C6C6572206973206E6F7420746865206F776E6572 DUP2 MSTORE POP PUSH1 0x20 ADD SWAP2 POP POP PUSH1 0x40 MLOAD DUP1 SWAP2 SUB SWAP1 REVERT JUMPDEST DUP1 PUSH1 0xB PUSH1 0x0 PUSH2 0x100 EXP DUP2 SLOAD DUP2 PUSH20 0xFFFFFFFFFFFFFFFFFFFFFFFFFFFFFFFFFFFFFFFF MUL NOT AND SWAP1 DUP4 PUSH20 0xFFFFFFFFFFFFFFFFFFFFFFFFFFFFFFFFFFFFFFFF AND MUL OR SWAP1 SSTORE POP POP JUMP JUMPDEST PUSH1 0x0 PUSH2 0x3039 SWAP1 POP SWAP1 JUMP JUMPDEST PUSH1 0x0 DUP1 PUSH1 0x0 DUP1 PUSH1 0x8 SLOAD PUSH1 0x7 SLOAD PUSH1 0xC SLOAD PUSH1 0x6 SLOAD SWAP4 POP SWAP4 POP SWAP4 POP SWAP4 POP SWAP1 SWAP2 SWAP3 SWAP4 JUMP JUMPDEST PUSH2 0xD48 PUSH2 0x27DC JUMP JUMPDEST PUSH20 0xFFFFFFFFFFFFFFFFFFFFFFFFFFFFFFFFFFFFFFFF AND PUSH1 0x3 PUSH1 0x0 SWAP1 SLOAD SWAP1 PUSH2 0x100 EXP SWAP1 DIV PUSH20 0xFFFFFFFFFFFFFFFFFFFFFFFFFFFFFFFFFFFFFFFF AND PUSH20 0xFFFFFFFFFFFFFFFFFFFFFFFFFFFFFFFFFFFFFFFF AND EQ PUSH2 0xE0A JUMPI PUSH1 0x40 MLOAD PUSH32 0x8C379A000000000000000000000000000000000000000000000000000000000 DUP2 MSTORE PUSH1 0x4 ADD DUP1 DUP1 PUSH1 0x20 ADD DUP3 DUP2 SUB DUP3 MSTORE PUSH1 0x20 DUP2 MSTORE PUSH1 0x20 ADD DUP1 PUSH32 0x4F776E61626C653A2063616C6C6572206973206E6F7420746865206F776E6572 DUP2 MSTORE POP PUSH1 0x20 ADD SWAP2 POP POP PUSH1 0x40 MLOAD DUP1 SWAP2 SUB SWAP1 REVERT JUMPDEST DUP1 PUSH1 0xC DUP2 SWAP1 SSTORE POP POP JUMP JUMPDEST PUSH2 0xE1C PUSH2 0x27DC JUMP JUMPDEST PUSH20 0xFFFFFFFFFFFFFFFFFFFFFFFFFFFFFFFFFFFFFFFF AND PUSH1 0x3 PUSH1 0x0 SWAP1 SLOAD SWAP1 PUSH2 0x100 EXP SWAP1 DIV PUSH20 0xFFFFFFFFFFFFFFFFFFFFFFFFFFFFFFFFFFFFFFFF AND PUSH20 0xFFFFFFFFFFFFFFFFFFFFFFFFFFFFFFFFFFFFFFFF AND EQ PUSH2 0xEDE JUMPI PUSH1 0x40 MLOAD PUSH32 0x8C379A000000000000000000000000000000000000000000000000000000000 DUP2 MSTORE PUSH1 0x4 ADD DUP1 DUP1 PUSH1 0x20 ADD DUP3 DUP2 SUB DUP3 MSTORE PUSH1 0x20 DUP2 MSTORE PUSH1 0x20 ADD DUP1 PUSH32 0x4F776E61626C653A2063616C6C6572206973206E6F7420746865206F776E6572 DUP2 MSTORE POP PUSH1 0x20 ADD SWAP2 POP POP PUSH1 0x40 MLOAD DUP1 SWAP2 SUB SWAP1 REVERT JUMPDEST DUP1 PUSH1 0x1 PUSH1 0x0 PUSH2 0x100 EXP DUP2 SLOAD DUP2 PUSH20 0xFFFFFFFFFFFFFFFFFFFFFFFFFFFFFFFFFFFFFFFF MUL NOT AND SWAP1 DUP4 PUSH20 0xFFFFFFFFFFFFFFFFFFFFFFFFFFFFFFFFFFFFFFFF AND MUL OR SWAP1 SSTORE POP POP JUMP JUMPDEST PUSH1 0x0 ISZERO ISZERO PUSH1 0xD PUSH1 0x0 DUP4 DUP2 MSTORE PUSH1 0x20 ADD SWAP1 DUP2 MSTORE PUSH1 0x20 ADD PUSH1 0x0 KECCAK256 PUSH1 0x5 ADD PUSH1 0x0 SWAP1 SLOAD SWAP1 PUSH2 0x100 EXP SWAP1 DIV PUSH1 0xFF AND ISZERO ISZERO EQ PUSH2 0xFBF JUMPI PUSH1 0x40 MLOAD PUSH32 0x8C379A000000000000000000000000000000000000000000000000000000000 DUP2 MSTORE PUSH1 0x4 ADD DUP1 DUP1 PUSH1 0x20 ADD DUP3 DUP2 SUB DUP3 MSTORE PUSH1 0x13 DUP2 MSTORE PUSH1 0x20 ADD DUP1 PUSH32 0x67616D6520616C726561647920706C6179656400000000000000000000000000 DUP2 MSTORE POP PUSH1 0x20 ADD SWAP2 POP POP PUSH1 0x40 MLOAD DUP1 SWAP2 SUB SWAP1 REVERT JUMPDEST PUSH1 0x0 PUSH2 0x3039 SWAP1 POP PUSH1 0x0 PUSH2 0xFD1 DUP3 PUSH2 0x1AA5 JUMP JUMPDEST SWAP1 POP DUP3 PUSH1 0xE PUSH1 0x0 DUP4 DUP2 MSTORE PUSH1 0x20 ADD SWAP1 DUP2 MSTORE PUSH1 0x20 ADD PUSH1 0x0 KECCAK256 DUP2 SWAP1 SSTORE POP POP POP POP JUMP JUMPDEST PUSH1 0xB PUSH1 0x0 SWAP1 SLOAD SWAP1 PUSH2 0x100 EXP SWAP1 DIV PUSH20 0xFFFFFFFFFFFFFFFFFFFFFFFFFFFFFFFFFFFFFFFF AND DUP2 JUMP JUMPDEST PUSH1 0x0 ISZERO ISZERO PUSH1 0xD PUSH1 0x0 DUP5 DUP2 MSTORE PUSH1 0x20 ADD SWAP1 DUP2 MSTORE PUSH1 0x20 ADD PUSH1 0x0 KECCAK256 PUSH1 0x5 ADD PUSH1 0x0 SWAP1 SLOAD SWAP1 PUSH2 0x100 EXP SWAP1 DIV PUSH1 0xFF AND ISZERO ISZERO EQ PUSH2 0x10B3 JUMPI PUSH1 0x40 MLOAD PUSH32 0x8C379A000000000000000000000000000000000000000000000000000000000 DUP2 MSTORE PUSH1 0x4 ADD DUP1 DUP1 PUSH1 0x20 ADD DUP3 DUP2 SUB DUP3 MSTORE PUSH1 0x13 DUP2 MSTORE PUSH1 0x20 ADD DUP1 PUSH32 0x67616D6520616C726561647920706C6179656400000000000000000000000000 DUP2 MSTORE POP PUSH1 0x20 ADD SWAP2 POP POP PUSH1 0x40 MLOAD DUP1 SWAP2 SUB SWAP1 REVERT JUMPDEST PUSH1 0x0 TIMESTAMP DIFFICULTY CALLER PUSH1 0x40 MLOAD PUSH1 0x20 ADD DUP1 DUP5 DUP2 MSTORE PUSH1 0x20 ADD DUP4 DUP2 MSTORE PUSH1 0x20 ADD DUP3 PUSH20 0xFFFFFFFFFFFFFFFFFFFFFFFFFFFFFFFFFFFFFFFF AND PUSH20 0xFFFFFFFFFFFFFFFFFFFFFFFFFFFFFFFFFFFFFFFF AND PUSH1 0x60 SHL DUP2 MSTORE PUSH1 0x14 ADD SWAP4 POP POP POP POP PUSH1 0x40 MLOAD PUSH1 0x20 DUP2 DUP4 SUB SUB DUP2 MSTORE SWAP1 PUSH1 0x40 MSTORE DUP1 MLOAD SWAP1 PUSH1 0x20 ADD KECCAK256 SWAP1 POP DUP3 PUSH1 0xE PUSH1 0x0 DUP4 DUP2 MSTORE PUSH1 0x20 ADD SWAP1 DUP2 MSTORE PUSH1 0x20 ADD PUSH1 0x0 KECCAK256 DUP2 SWAP1 SSTORE POP PUSH2 0x113F DUP2 DUP4 PUSH2 0x27E4 JUMP JUMPDEST POP POP POP JUMP JUMPDEST PUSH1 0xC SLOAD DUP2 JUMP JUMPDEST PUSH1 0x9 SLOAD DUP2 JUMP JUMPDEST PUSH2 0x1158 PUSH2 0x27DC JUMP JUMPDEST PUSH20 0xFFFFFFFFFFFFFFFFFFFFFFFFFFFFFFFFFFFFFFFF AND PUSH1 0x3 PUSH1 0x0 SWAP1 SLOAD SWAP1 PUSH2 0x100 EXP SWAP1 DIV PUSH20 0xFFFFFFFFFFFFFFFFFFFFFFFFFFFFFFFFFFFFFFFF AND PUSH20 0xFFFFFFFFFFFFFFFFFFFFFFFFFFFFFFFFFFFFFFFF AND EQ PUSH2 0x121A JUMPI PUSH1 0x40 MLOAD PUSH32 0x8C379A000000000000000000000000000000000000000000000000000000000 DUP2 MSTORE PUSH1 0x4 ADD DUP1 DUP1 PUSH1 0x20 ADD DUP3 DUP2 SUB DUP3 MSTORE PUSH1 0x20 DUP2 MSTORE PUSH1 0x20 ADD DUP1 PUSH32 0x4F776E61626C653A2063616C6C6572206973206E6F7420746865206F776E6572 DUP2 MSTORE POP PUSH1 0x20 ADD SWAP2 POP POP PUSH1 0x40 MLOAD DUP1 SWAP2 SUB SWAP1 REVERT JUMPDEST PUSH1 0x0 PUSH20 0xFFFFFFFFFFFFFFFFFFFFFFFFFFFFFFFFFFFFFFFF AND PUSH1 0x3 PUSH1 0x0 SWAP1 SLOAD SWAP1 PUSH2 0x100 EXP SWAP1 DIV PUSH20 0xFFFFFFFFFFFFFFFFFFFFFFFFFFFFFFFFFFFFFFFF AND PUSH20 0xFFFFFFFFFFFFFFFFFFFFFFFFFFFFFFFFFFFFFFFF AND PUSH32 0x8BE0079C531659141344CD1FD0A4F28419497F9722A3DAAFE3B4186F6B6457E0 PUSH1 0x40 MLOAD PUSH1 0x40 MLOAD DUP1 SWAP2 SUB SWAP1 LOG3 PUSH1 0x0 PUSH1 0x3 PUSH1 0x0 PUSH2 0x100 EXP DUP2 SLOAD DUP2 PUSH20 0xFFFFFFFFFFFFFFFFFFFFFFFFFFFFFFFFFFFFFFFF MUL NOT AND SWAP1 DUP4 PUSH20 0xFFFFFFFFFFFFFFFFFFFFFFFFFFFFFFFFFFFFFFFF AND MUL OR SWAP1 SSTORE POP JUMP JUMPDEST PUSH1 0xE PUSH1 0x20 MSTORE DUP1 PUSH1 0x0 MSTORE PUSH1 0x40 PUSH1 0x0 KECCAK256 PUSH1 0x0 SWAP2 POP SWAP1 POP SLOAD DUP2 JUMP JUMPDEST PUSH2 0x12FB PUSH2 0x27DC JUMP JUMPDEST PUSH20 0xFFFFFFFFFFFFFFFFFFFFFFFFFFFFFFFFFFFFFFFF AND PUSH1 0x3 PUSH1 0x0 SWAP1 SLOAD SWAP1 PUSH2 0x100 EXP SWAP1 DIV PUSH20 0xFFFFFFFFFFFFFFFFFFFFFFFFFFFFFFFFFFFFFFFF AND PUSH20 0xFFFFFFFFFFFFFFFFFFFFFFFFFFFFFFFFFFFFFFFF AND EQ PUSH2 0x13BD JUMPI PUSH1 0x40 MLOAD PUSH32 0x8C379A000000000000000000000000000000000000000000000000000000000 DUP2 MSTORE PUSH1 0x4 ADD DUP1 DUP1 PUSH1 0x20 ADD DUP3 DUP2 SUB DUP3 MSTORE PUSH1 0x20 DUP2 MSTORE PUSH1 0x20 ADD DUP1 PUSH32 0x4F776E61626C653A2063616C6C6572206973206E6F7420746865206F776E6572 DUP2 MSTORE POP PUSH1 0x20 ADD SWAP2 POP POP PUSH1 0x40 MLOAD DUP1 SWAP2 SUB SWAP1 REVERT JUMPDEST DUP1 PUSH1 0x7 DUP2 SWAP1 SSTORE POP POP JUMP JUMPDEST PUSH2 0x13CF PUSH2 0x27DC JUMP JUMPDEST PUSH20 0xFFFFFFFFFFFFFFFFFFFFFFFFFFFFFFFFFFFFFFFF AND PUSH1 0x3 PUSH1 0x0 SWAP1 SLOAD SWAP1 PUSH2 0x100 EXP SWAP1 DIV PUSH20 0xFFFFFFFFFFFFFFFFFFFFFFFFFFFFFFFFFFFFFFFF AND PUSH20 0xFFFFFFFFFFFFFFFFFFFFFFFFFFFFFFFFFFFFFFFF AND EQ PUSH2 0x1491 JUMPI PUSH1 0x40 MLOAD PUSH32 0x8C379A000000000000000000000000000000000000000000000000000000000 DUP2 MSTORE PUSH1 0x4 ADD DUP1 DUP1 PUSH1 0x20 ADD DUP3 DUP2 SUB DUP3 MSTORE PUSH1 0x20 DUP2 MSTORE PUSH1 0x20 ADD DUP1 PUSH32 0x4F776E61626C653A2063616C6C6572206973206E6F7420746865206F776E6572 DUP2 MSTORE POP PUSH1 0x20 ADD SWAP2 POP POP PUSH1 0x40 MLOAD DUP1 SWAP2 SUB SWAP1 REVERT JUMPDEST DUP1 PUSH1 0x8 DUP2 SWAP1 SSTORE POP POP JUMP JUMPDEST PUSH1 0x0 PUSH1 0x3 PUSH1 0x0 SWAP1 SLOAD SWAP1 PUSH2 0x100 EXP SWAP1 DIV PUSH20 0xFFFFFFFFFFFFFFFFFFFFFFFFFFFFFFFFFFFFFFFF AND SWAP1 POP SWAP1 JUMP JUMPDEST PUSH1 0x1 PUSH1 0x0 SWAP1 SLOAD SWAP1 PUSH2 0x100 EXP SWAP1 DIV PUSH20 0xFFFFFFFFFFFFFFFFFFFFFFFFFFFFFFFFFFFFFFFF AND PUSH20 0xFFFFFFFFFFFFFFFFFFFFFFFFFFFFFFFFFFFFFFFF AND CALLER PUSH20 0xFFFFFFFFFFFFFFFFFFFFFFFFFFFFFFFFFFFFFFFF AND EQ PUSH2 0x1588 JUMPI PUSH1 0x40 MLOAD PUSH32 0x8C379A000000000000000000000000000000000000000000000000000000000 DUP2 MSTORE PUSH1 0x4 ADD DUP1 DUP1 PUSH1 0x20 ADD DUP3 DUP2 SUB DUP3 MSTORE PUSH1 0x1F DUP2 MSTORE PUSH1 0x20 ADD DUP1 PUSH32 0x4F6E6C7920565246436F6F7264696E61746F722063616E2066756C66696C6C00 DUP2 MSTORE POP PUSH1 0x20 ADD SWAP2 POP POP PUSH1 0x40 MLOAD DUP1 SWAP2 SUB SWAP1 REVERT JUMPDEST PUSH2 0x1592 DUP3 DUP3 PUSH2 0x296F JUMP JUMPDEST POP POP JUMP JUMPDEST PUSH1 0x8 SLOAD DUP2 JUMP JUMPDEST PUSH2 0x15A4 PUSH2 0x27DC JUMP JUMPDEST PUSH20 0xFFFFFFFFFFFFFFFFFFFFFFFFFFFFFFFFFFFFFFFF AND PUSH1 0x3 PUSH1 0x0 SWAP1 SLOAD SWAP1 PUSH2 0x100 EXP SWAP1 DIV PUSH20 0xFFFFFFFFFFFFFFFFFFFFFFFFFFFFFFFFFFFFFFFF AND PUSH20 0xFFFFFFFFFFFFFFFFFFFFFFFFFFFFFFFFFFFFFFFF AND EQ PUSH2 0x1666 JUMPI PUSH1 0x40 MLOAD PUSH32 0x8C379A000000000000000000000000000000000000000000000000000000000 DUP2 MSTORE PUSH1 0x4 ADD DUP1 DUP1 PUSH1 0x20 ADD DUP3 DUP2 SUB DUP3 MSTORE PUSH1 0x20 DUP2 MSTORE PUSH1 0x20 ADD DUP1 PUSH32 0x4F776E61626C653A2063616C6C6572206973206E6F7420746865206F776E6572 DUP2 MSTORE POP PUSH1 0x20 ADD SWAP2 POP POP PUSH1 0x40 MLOAD DUP1 SWAP2 SUB SWAP1 REVERT JUMPDEST DUP1 PUSH1 0x4 DUP2 SWAP1 SSTORE POP POP JUMP JUMPDEST PUSH1 0xA SLOAD DUP2 JUMP JUMPDEST PUSH1 0x2 PUSH1 0x20 MSTORE DUP1 PUSH1 0x0 MSTORE PUSH1 0x40 PUSH1 0x0 KECCAK256 PUSH1 0x0 SWAP2 POP SWAP1 POP SLOAD DUP2 JUMP JUMPDEST PUSH2 0x1696 PUSH2 0x27DC JUMP JUMPDEST PUSH20 0xFFFFFFFFFFFFFFFFFFFFFFFFFFFFFFFFFFFFFFFF AND PUSH1 0x3 PUSH1 0x0 SWAP1 SLOAD SWAP1 PUSH2 0x100 EXP SWAP1 DIV PUSH20 0xFFFFFFFFFFFFFFFFFFFFFFFFFFFFFFFFFFFFFFFF AND PUSH20 0xFFFFFFFFFFFFFFFFFFFFFFFFFFFFFFFFFFFFFFFF AND EQ PUSH2 0x1758 JUMPI PUSH1 0x40 MLOAD PUSH32 0x8C379A000000000000000000000000000000000000000000000000000000000 DUP2 MSTORE PUSH1 0x4 ADD DUP1 DUP1 PUSH1 0x20 ADD DUP3 DUP2 SUB DUP3 MSTORE PUSH1 0x20 DUP2 MSTORE PUSH1 0x20 ADD DUP1 PUSH32 0x4F776E61626C653A2063616C6C6572206973206E6F7420746865206F776E6572 DUP2 MSTORE POP PUSH1 0x20 ADD SWAP2 POP POP PUSH1 0x40 MLOAD DUP1 SWAP2 SUB SWAP1 REVERT JUMPDEST DUP1 PUSH1 0x0 DUP1 PUSH2 0x100 EXP DUP2 SLOAD DUP2 PUSH20 0xFFFFFFFFFFFFFFFFFFFFFFFFFFFFFFFFFFFFFFFF MUL NOT AND SWAP1 DUP4 PUSH20 0xFFFFFFFFFFFFFFFFFFFFFFFFFFFFFFFFFFFFFFFF AND MUL OR SWAP1 SSTORE POP POP JUMP JUMPDEST PUSH1 0x0 PUSH1 0xD PUSH1 0x0 DUP4 DUP2 MSTORE PUSH1 0x20 ADD SWAP1 DUP2 MSTORE PUSH1 0x20 ADD PUSH1 0x0 KECCAK256 SWAP1 POP PUSH1 0x0 ISZERO ISZERO DUP2 PUSH1 0x5 ADD PUSH1 0x0 SWAP1 SLOAD SWAP1 PUSH2 0x100 EXP SWAP1 DIV PUSH1 0xFF AND ISZERO ISZERO EQ PUSH2 0x1820 JUMPI PUSH1 0x40 MLOAD PUSH32 0x8C379A000000000000000000000000000000000000000000000000000000000 DUP2 MSTORE PUSH1 0x4 ADD DUP1 DUP1 PUSH1 0x20 ADD DUP3 DUP2 SUB DUP3 MSTORE PUSH1 0x2A DUP2 MSTORE PUSH1 0x20 ADD DUP1 PUSH2 0x30C7 PUSH1 0x2A SWAP2 CODECOPY PUSH1 0x40 ADD SWAP2 POP POP PUSH1 0x40 MLOAD DUP1 SWAP2 SUB SWAP1 REVERT JUMPDEST DUP1 PUSH1 0x2 ADD SLOAD SELFBALANCE LT ISZERO PUSH2 0x187D JUMPI PUSH1 0x40 MLOAD PUSH32 0x8C379A000000000000000000000000000000000000000000000000000000000 DUP2 MSTORE PUSH1 0x4 ADD DUP1 DUP1 PUSH1 0x20 ADD DUP3 DUP2 SUB DUP3 MSTORE PUSH1 0x31 DUP2 MSTORE PUSH1 0x20 ADD DUP1 PUSH2 0x3096 PUSH1 0x31 SWAP2 CODECOPY PUSH1 0x40 ADD SWAP2 POP POP PUSH1 0x40 MLOAD DUP1 SWAP2 SUB SWAP1 REVERT JUMPDEST PUSH1 0x1 DUP2 PUSH1 0x5 ADD PUSH1 0x0 PUSH2 0x100 EXP DUP2 SLOAD DUP2 PUSH1 0xFF MUL NOT AND SWAP1 DUP4 ISZERO ISZERO MUL OR SWAP1 SSTORE POP DUP1 PUSH1 0x2 ADD SLOAD PUSH1 0x9 SLOAD LT PUSH2 0x18C0 JUMPI DUP1 PUSH1 0x2 ADD SLOAD PUSH1 0x9 PUSH1 0x0 DUP3 DUP3 SLOAD SUB SWAP3 POP POP DUP2 SWAP1 SSTORE POP PUSH2 0x18C9 JUMP JUMPDEST PUSH1 0x0 PUSH1 0x9 DUP2 SWAP1 SSTORE POP JUMPDEST DUP1 PUSH1 0x1 ADD PUSH1 0x0 SWAP1 SLOAD SWAP1 PUSH2 0x100 EXP SWAP1 DIV PUSH20 0xFFFFFFFFFFFFFFFFFFFFFFFFFFFFFFFFFFFFFFFF AND PUSH20 0xFFFFFFFFFFFFFFFFFFFFFFFFFFFFFFFFFFFFFFFF AND PUSH2 0x8FC DUP3 PUSH1 0x2 ADD SLOAD SWAP1 DUP2 ISZERO MUL SWAP1 PUSH1 0x40 MLOAD PUSH1 0x0 PUSH1 0x40 MLOAD DUP1 DUP4 SUB DUP2 DUP6 DUP9 DUP9 CALL SWAP4 POP POP POP POP ISZERO DUP1 ISZERO PUSH2 0x1937 JUMPI RETURNDATASIZE PUSH1 0x0 DUP1 RETURNDATACOPY RETURNDATASIZE PUSH1 0x0 REVERT JUMPDEST POP POP POP JUMP JUMPDEST PUSH2 0x1945 CALLVALUE PUSH2 0xB3D JUMP JUMPDEST PUSH2 0x199A JUMPI PUSH1 0x40 MLOAD PUSH32 0x8C379A000000000000000000000000000000000000000000000000000000000 DUP2 MSTORE PUSH1 0x4 ADD DUP1 DUP1 PUSH1 0x20 ADD DUP3 DUP2 SUB DUP3 MSTORE PUSH1 0x36 DUP2 MSTORE PUSH1 0x20 ADD DUP1 PUSH2 0x303F PUSH1 0x36 SWAP2 CODECOPY PUSH1 0x40 ADD SWAP2 POP POP PUSH1 0x40 MLOAD DUP1 SWAP2 SUB SWAP1 REVERT JUMPDEST PUSH1 0x6 SLOAD DUP2 GT ISZERO PUSH2 0x19F5 JUMPI PUSH1 0x40 MLOAD PUSH32 0x8C379A000000000000000000000000000000000000000000000000000000000 DUP2 MSTORE PUSH1 0x4 ADD DUP1 DUP1 PUSH1 0x20 ADD DUP3 DUP2 SUB DUP3 MSTORE PUSH1 0x28 DUP2 MSTORE PUSH1 0x20 ADD DUP1 PUSH2 0x2FF1 PUSH1 0x28 SWAP2 CODECOPY PUSH1 0x40 ADD SWAP2 POP POP PUSH1 0x40 MLOAD DUP1 SWAP2 SUB SWAP1 REVERT JUMPDEST PUSH2 0x19FE CALLVALUE PUSH2 0x24AC JUMP JUMPDEST PUSH2 0x1A70 JUMPI PUSH1 0x40 MLOAD PUSH32 0x8C379A000000000000000000000000000000000000000000000000000000000 DUP2 MSTORE PUSH1 0x4 ADD DUP1 DUP1 PUSH1 0x20 ADD DUP3 DUP2 SUB DUP3 MSTORE PUSH1 0x15 DUP2 MSTORE PUSH1 0x20 ADD DUP1 PUSH32 0x4F757469736465206F66206265742072616E67652E0000000000000000000000 DUP2 MSTORE POP PUSH1 0x20 ADD SWAP2 POP POP PUSH1 0x40 MLOAD DUP1 SWAP2 SUB SWAP1 REVERT JUMPDEST PUSH2 0x1A85 CALLVALUE PUSH1 0x9 SLOAD PUSH2 0x26CB SWAP1 SWAP2 SWAP1 PUSH4 0xFFFFFFFF AND JUMP JUMPDEST PUSH1 0x9 DUP2 SWAP1 SSTORE POP PUSH2 0x1A96 DUP3 CALLVALUE DUP4 PUSH2 0x2B21 JUMP JUMPDEST PUSH2 0x1AA1 PUSH1 0xA SLOAD PUSH2 0xF22 JUMP JUMPDEST POP POP JUMP JUMPDEST PUSH1 0x0 PUSH1 0x5 SLOAD PUSH1 0x0 DUP1 SWAP1 SLOAD SWAP1 PUSH2 0x100 EXP SWAP1 DIV PUSH20 0xFFFFFFFFFFFFFFFFFFFFFFFFFFFFFFFFFFFFFFFF AND PUSH20 0xFFFFFFFFFFFFFFFFFFFFFFFFFFFFFFFFFFFFFFFF AND PUSH4 0x70A08231 ADDRESS PUSH1 0x40 MLOAD DUP3 PUSH4 0xFFFFFFFF AND PUSH1 0xE0 SHL DUP2 MSTORE PUSH1 0x4 ADD DUP1 DUP3 PUSH20 0xFFFFFFFFFFFFFFFFFFFFFFFFFFFFFFFFFFFFFFFF AND PUSH20 0xFFFFFFFFFFFFFFFFFFFFFFFFFFFFFFFFFFFFFFFF AND DUP2 MSTORE PUSH1 0x20 ADD SWAP2 POP POP PUSH1 0x20 PUSH1 0x40 MLOAD DUP1 DUP4 SUB DUP2 DUP7 DUP1 EXTCODESIZE ISZERO DUP1 ISZERO PUSH2 0x1B48 JUMPI PUSH1 0x0 DUP1 REVERT JUMPDEST POP GAS STATICCALL ISZERO DUP1 ISZERO PUSH2 0x1B5C JUMPI RETURNDATASIZE PUSH1 0x0 DUP1 RETURNDATACOPY RETURNDATASIZE PUSH1 0x0 REVERT JUMPDEST POP POP POP POP PUSH1 0x40 MLOAD RETURNDATASIZE PUSH1 0x20 DUP2 LT ISZERO PUSH2 0x1B72 JUMPI PUSH1 0x0 DUP1 REVERT JUMPDEST DUP2 ADD SWAP1 DUP1 DUP1 MLOAD SWAP1 PUSH1 0x20 ADD SWAP1 SWAP3 SWAP2 SWAP1 POP POP POP GT PUSH2 0x1BF6 JUMPI PUSH1 0x40 MLOAD PUSH32 0x8C379A000000000000000000000000000000000000000000000000000000000 DUP2 MSTORE PUSH1 0x4 ADD DUP1 DUP1 PUSH1 0x20 ADD DUP3 DUP2 SUB DUP3 MSTORE PUSH1 0xF DUP2 MSTORE PUSH1 0x20 ADD DUP1 PUSH32 0x4E6F7420656E6F756768204C494E4B0000000000000000000000000000000000 DUP2 MSTORE POP PUSH1 0x20 ADD SWAP2 POP POP PUSH1 0x40 MLOAD DUP1 SWAP2 SUB SWAP1 REVERT JUMPDEST PUSH2 0x1C05 PUSH1 0x4 SLOAD PUSH1 0x5 SLOAD DUP5 PUSH2 0x2C54 JUMP JUMPDEST SWAP1 POP SWAP2 SWAP1 POP JUMP JUMPDEST PUSH2 0x1C14 PUSH2 0x27DC JUMP JUMPDEST PUSH20 0xFFFFFFFFFFFFFFFFFFFFFFFFFFFFFFFFFFFFFFFF AND PUSH1 0x3 PUSH1 0x0 SWAP1 SLOAD SWAP1 PUSH2 0x100 EXP SWAP1 DIV PUSH20 0xFFFFFFFFFFFFFFFFFFFFFFFFFFFFFFFFFFFFFFFF AND PUSH20 0xFFFFFFFFFFFFFFFFFFFFFFFFFFFFFFFFFFFFFFFF AND EQ PUSH2 0x1CD6 JUMPI PUSH1 0x40 MLOAD PUSH32 0x8C379A000000000000000000000000000000000000000000000000000000000 DUP2 MSTORE PUSH1 0x4 ADD DUP1 DUP1 PUSH1 0x20 ADD DUP3 DUP2 SUB DUP3 MSTORE PUSH1 0x20 DUP2 MSTORE PUSH1 0x20 ADD DUP1 PUSH32 0x4F776E61626C653A2063616C6C6572206973206E6F7420746865206F776E6572 DUP2 MSTORE POP PUSH1 0x20 ADD SWAP2 POP POP PUSH1 0x40 MLOAD DUP1 SWAP2 SUB SWAP1 REVERT JUMPDEST PUSH1 0x9 SLOAD SELFBALANCE GT PUSH2 0x1CE4 JUMPI PUSH1 0x0 DUP1 REVERT JUMPDEST PUSH1 0x0 PUSH2 0x1CFB PUSH1 0x9 SLOAD SELFBALANCE PUSH2 0x2753 SWAP1 SWAP2 SWAP1 PUSH4 0xFFFFFFFF AND JUMP JUMPDEST SWAP1 POP PUSH1 0xB PUSH1 0x0 SWAP1 SLOAD SWAP1 PUSH2 0x100 EXP SWAP1 DIV PUSH20 0xFFFFFFFFFFFFFFFFFFFFFFFFFFFFFFFFFFFFFFFF AND PUSH20 0xFFFFFFFFFFFFFFFFFFFFFFFFFFFFFFFFFFFFFFFF AND PUSH2 0x8FC DUP3 SWAP1 DUP2 ISZERO MUL SWAP1 PUSH1 0x40 MLOAD PUSH1 0x0 PUSH1 0x40 MLOAD DUP1 DUP4 SUB DUP2 DUP6 DUP9 DUP9 CALL SWAP4 POP POP POP POP ISZERO DUP1 ISZERO PUSH2 0x1D65 JUMPI RETURNDATASIZE PUSH1 0x0 DUP1 RETURNDATACOPY RETURNDATASIZE PUSH1 0x0 REVERT JUMPDEST POP PUSH1 0x0 DUP1 PUSH1 0x0 SWAP1 SLOAD SWAP1 PUSH2 0x100 EXP SWAP1 DIV PUSH20 0xFFFFFFFFFFFFFFFFFFFFFFFFFFFFFFFFFFFFFFFF AND PUSH20 0xFFFFFFFFFFFFFFFFFFFFFFFFFFFFFFFFFFFFFFFF AND PUSH4 0x70A08231 ADDRESS PUSH1 0x40 MLOAD DUP3 PUSH4 0xFFFFFFFF AND PUSH1 0xE0 SHL DUP2 MSTORE PUSH1 0x4 ADD DUP1 DUP3 PUSH20 0xFFFFFFFFFFFFFFFFFFFFFFFFFFFFFFFFFFFFFFFF AND PUSH20 0xFFFFFFFFFFFFFFFFFFFFFFFFFFFFFFFFFFFFFFFF AND DUP2 MSTORE PUSH1 0x20 ADD SWAP2 POP POP PUSH1 0x20 PUSH1 0x40 MLOAD DUP1 DUP4 SUB DUP2 DUP7 DUP1 EXTCODESIZE ISZERO DUP1 ISZERO PUSH2 0x1E06 JUMPI PUSH1 0x0 DUP1 REVERT JUMPDEST POP GAS STATICCALL ISZERO DUP1 ISZERO PUSH2 0x1E1A JUMPI RETURNDATASIZE PUSH1 0x0 DUP1 RETURNDATACOPY RETURNDATASIZE PUSH1 0x0 REVERT JUMPDEST POP POP POP POP PUSH1 0x40 MLOAD RETURNDATASIZE PUSH1 0x20 DUP2 LT ISZERO PUSH2 0x1E30 JUMPI PUSH1 0x0 DUP1 REVERT JUMPDEST DUP2 ADD SWAP1 DUP1 DUP1 MLOAD SWAP1 PUSH1 0x20 ADD SWAP1 SWAP3 SWAP2 SWAP1 POP POP POP GT ISZERO PUSH2 0x2026 JUMPI PUSH1 0x0 DUP1 SWAP1 SLOAD SWAP1 PUSH2 0x100 EXP SWAP1 DIV PUSH20 0xFFFFFFFFFFFFFFFFFFFFFFFFFFFFFFFFFFFFFFFF AND PUSH20 0xFFFFFFFFFFFFFFFFFFFFFFFFFFFFFFFFFFFFFFFF AND PUSH4 0xA9059CBB PUSH1 0xB PUSH1 0x0 SWAP1 SLOAD SWAP1 PUSH2 0x100 EXP SWAP1 DIV PUSH20 0xFFFFFFFFFFFFFFFFFFFFFFFFFFFFFFFFFFFFFFFF AND PUSH1 0x0 DUP1 SWAP1 SLOAD SWAP1 PUSH2 0x100 EXP SWAP1 DIV PUSH20 0xFFFFFFFFFFFFFFFFFFFFFFFFFFFFFFFFFFFFFFFF AND PUSH20 0xFFFFFFFFFFFFFFFFFFFFFFFFFFFFFFFFFFFFFFFF AND PUSH4 0x70A08231 ADDRESS PUSH1 0x40 MLOAD DUP3 PUSH4 0xFFFFFFFF AND PUSH1 0xE0 SHL DUP2 MSTORE PUSH1 0x4 ADD DUP1 DUP3 PUSH20 0xFFFFFFFFFFFFFFFFFFFFFFFFFFFFFFFFFFFFFFFF AND PUSH20 0xFFFFFFFFFFFFFFFFFFFFFFFFFFFFFFFFFFFFFFFF AND DUP2 MSTORE PUSH1 0x20 ADD SWAP2 POP POP PUSH1 0x20 PUSH1 0x40 MLOAD DUP1 DUP4 SUB DUP2 DUP7 DUP1 EXTCODESIZE ISZERO DUP1 ISZERO PUSH2 0x1F45 JUMPI PUSH1 0x0 DUP1 REVERT JUMPDEST POP GAS STATICCALL ISZERO DUP1 ISZERO PUSH2 0x1F59 JUMPI RETURNDATASIZE PUSH1 0x0 DUP1 RETURNDATACOPY RETURNDATASIZE PUSH1 0x0 REVERT JUMPDEST POP POP POP POP PUSH1 0x40 MLOAD RETURNDATASIZE PUSH1 0x20 DUP2 LT ISZERO PUSH2 0x1F6F JUMPI PUSH1 0x0 DUP1 REVERT JUMPDEST DUP2 ADD SWAP1 DUP1 DUP1 MLOAD SWAP1 PUSH1 0x20 ADD SWAP1 SWAP3 SWAP2 SWAP1 POP POP POP PUSH1 0x40 MLOAD DUP4 PUSH4 0xFFFFFFFF AND PUSH1 0xE0 SHL DUP2 MSTORE PUSH1 0x4 ADD DUP1 DUP4 PUSH20 0xFFFFFFFFFFFFFFFFFFFFFFFFFFFFFFFFFFFFFFFF AND PUSH20 0xFFFFFFFFFFFFFFFFFFFFFFFFFFFFFFFFFFFFFFFF AND DUP2 MSTORE PUSH1 0x20 ADD DUP3 DUP2 MSTORE PUSH1 0x20 ADD SWAP3 POP POP POP PUSH1 0x20 PUSH1 0x40 MLOAD DUP1 DUP4 SUB DUP2 PUSH1 0x0 DUP8 DUP1 EXTCODESIZE ISZERO DUP1 ISZERO PUSH2 0x1FE9 JUMPI PUSH1 0x0 DUP1 REVERT JUMPDEST POP GAS CALL ISZERO DUP1 ISZERO PUSH2 0x1FFD JUMPI RETURNDATASIZE PUSH1 0x0 DUP1 RETURNDATACOPY RETURNDATASIZE PUSH1 0x0 REVERT JUMPDEST POP POP POP POP PUSH1 0x40 MLOAD RETURNDATASIZE PUSH1 0x20 DUP2 LT ISZERO PUSH2 0x2013 JUMPI PUSH1 0x0 DUP1 REVERT JUMPDEST DUP2 ADD SWAP1 DUP1 DUP1 MLOAD SWAP1 PUSH1 0x20 ADD SWAP1 SWAP3 SWAP2 SWAP1 POP POP POP POP JUMPDEST POP JUMP JUMPDEST PUSH2 0x2031 PUSH2 0x27DC JUMP JUMPDEST PUSH20 0xFFFFFFFFFFFFFFFFFFFFFFFFFFFFFFFFFFFFFFFF AND PUSH1 0x3 PUSH1 0x0 SWAP1 SLOAD SWAP1 PUSH2 0x100 EXP SWAP1 DIV PUSH20 0xFFFFFFFFFFFFFFFFFFFFFFFFFFFFFFFFFFFFFFFF AND PUSH20 0xFFFFFFFFFFFFFFFFFFFFFFFFFFFFFFFFFFFFFFFF AND EQ PUSH2 0x20F3 JUMPI PUSH1 0x40 MLOAD PUSH32 0x8C379A000000000000000000000000000000000000000000000000000000000 DUP2 MSTORE PUSH1 0x4 ADD DUP1 DUP1 PUSH1 0x20 ADD DUP3 DUP2 SUB DUP3 MSTORE PUSH1 0x20 DUP2 MSTORE PUSH1 0x20 ADD DUP1 PUSH32 0x4F776E61626C653A2063616C6C6572206973206E6F7420746865206F776E6572 DUP2 MSTORE POP PUSH1 0x20 ADD SWAP2 POP POP PUSH1 0x40 MLOAD DUP1 SWAP2 SUB SWAP1 REVERT JUMPDEST PUSH1 0x9 SLOAD SELFBALANCE GT PUSH2 0x2101 JUMPI PUSH1 0x0 DUP1 REVERT JUMPDEST PUSH1 0x0 PUSH2 0x2118 PUSH1 0x9 SLOAD SELFBALANCE PUSH2 0x2753 SWAP1 SWAP2 SWAP1 PUSH4 0xFFFFFFFF AND JUMP JUMPDEST SWAP1 POP PUSH1 0xB PUSH1 0x0 SWAP1 SLOAD SWAP1 PUSH2 0x100 EXP SWAP1 DIV PUSH20 0xFFFFFFFFFFFFFFFFFFFFFFFFFFFFFFFFFFFFFFFF AND PUSH20 0xFFFFFFFFFFFFFFFFFFFFFFFFFFFFFFFFFFFFFFFF AND PUSH2 0x8FC DUP3 SWAP1 DUP2 ISZERO MUL SWAP1 PUSH1 0x40 MLOAD PUSH1 0x0 PUSH1 0x40 MLOAD DUP1 DUP4 SUB DUP2 DUP6 DUP9 DUP9 CALL SWAP4 POP POP POP POP ISZERO DUP1 ISZERO PUSH2 0x2182 JUMPI RETURNDATASIZE PUSH1 0x0 DUP1 RETURNDATACOPY RETURNDATASIZE PUSH1 0x0 REVERT JUMPDEST POP POP JUMP JUMPDEST PUSH2 0x218E PUSH2 0x2FA2 JUMP JUMPDEST PUSH1 0x40 MLOAD DUP1 PUSH1 0xC0 ADD PUSH1 0x40 MSTORE DUP1 DUP4 DUP2 MSTORE PUSH1 0x20 ADD DUP8 PUSH20 0xFFFFFFFFFFFFFFFFFFFFFFFFFFFFFFFFFFFFFFFF AND DUP2 MSTORE PUSH1 0x20 ADD DUP7 DUP2 MSTORE PUSH1 0x20 ADD DUP6 DUP2 MSTORE PUSH1 0x20 ADD PUSH2 0x21DD PUSH1 0xA PUSH1 0x6 SLOAD PUSH2 0x26CB SWAP1 SWAP2 SWAP1 PUSH4 0xFFFFFFFF AND JUMP JUMPDEST DUP2 MSTORE PUSH1 0x20 ADD DUP5 ISZERO ISZERO DUP2 MSTORE POP SWAP1 POP DUP1 PUSH1 0xD PUSH1 0x0 DUP4 PUSH1 0x0 ADD MLOAD DUP2 MSTORE PUSH1 0x20 ADD SWAP1 DUP2 MSTORE PUSH1 0x20 ADD PUSH1 0x0 KECCAK256 PUSH1 0x0 DUP3 ADD MLOAD DUP2 PUSH1 0x0 ADD SSTORE PUSH1 0x20 DUP3 ADD MLOAD DUP2 PUSH1 0x1 ADD PUSH1 0x0 PUSH2 0x100 EXP DUP2 SLOAD DUP2 PUSH20 0xFFFFFFFFFFFFFFFFFFFFFFFFFFFFFFFFFFFFFFFF MUL NOT AND SWAP1 DUP4 PUSH20 0xFFFFFFFFFFFFFFFFFFFFFFFFFFFFFFFFFFFFFFFF AND MUL OR SWAP1 SSTORE POP PUSH1 0x40 DUP3 ADD MLOAD DUP2 PUSH1 0x2 ADD SSTORE PUSH1 0x60 DUP3 ADD MLOAD DUP2 PUSH1 0x3 ADD SSTORE PUSH1 0x80 DUP3 ADD MLOAD DUP2 PUSH1 0x4 ADD SSTORE PUSH1 0xA0 DUP3 ADD MLOAD DUP2 PUSH1 0x5 ADD PUSH1 0x0 PUSH2 0x100 EXP DUP2 SLOAD DUP2 PUSH1 0xFF MUL NOT AND SWAP1 DUP4 ISZERO ISZERO MUL OR SWAP1 SSTORE POP SWAP1 POP POP POP POP POP POP POP POP JUMP JUMPDEST PUSH2 0x22A4 PUSH2 0x27DC JUMP JUMPDEST PUSH20 0xFFFFFFFFFFFFFFFFFFFFFFFFFFFFFFFFFFFFFFFF AND PUSH1 0x3 PUSH1 0x0 SWAP1 SLOAD SWAP1 PUSH2 0x100 EXP SWAP1 DIV PUSH20 0xFFFFFFFFFFFFFFFFFFFFFFFFFFFFFFFFFFFFFFFF AND PUSH20 0xFFFFFFFFFFFFFFFFFFFFFFFFFFFFFFFFFFFFFFFF AND EQ PUSH2 0x2366 JUMPI PUSH1 0x40 MLOAD PUSH32 0x8C379A000000000000000000000000000000000000000000000000000000000 DUP2 MSTORE PUSH1 0x4 ADD DUP1 DUP1 PUSH1 0x20 ADD DUP3 DUP2 SUB DUP3 MSTORE PUSH1 0x20 DUP2 MSTORE PUSH1 0x20 ADD DUP1 PUSH32 0x4F776E61626C653A2063616C6C6572206973206E6F7420746865206F776E6572 DUP2 MSTORE POP PUSH1 0x20 ADD SWAP2 POP POP PUSH1 0x40 MLOAD DUP1 SWAP2 SUB SWAP1 REVERT JUMPDEST PUSH1 0x0 PUSH20 0xFFFFFFFFFFFFFFFFFFFFFFFFFFFFFFFFFFFFFFFF AND DUP2 PUSH20 0xFFFFFFFFFFFFFFFFFFFFFFFFFFFFFFFFFFFFFFFF AND EQ ISZERO PUSH2 0x23EC JUMPI PUSH1 0x40 MLOAD PUSH32 0x8C379A000000000000000000000000000000000000000000000000000000000 DUP2 MSTORE PUSH1 0x4 ADD DUP1 DUP1 PUSH1 0x20 ADD DUP3 DUP2 SUB DUP3 MSTORE PUSH1 0x26 DUP2 MSTORE PUSH1 0x20 ADD DUP1 PUSH2 0x3019 PUSH1 0x26 SWAP2 CODECOPY PUSH1 0x40 ADD SWAP2 POP POP PUSH1 0x40 MLOAD DUP1 SWAP2 SUB SWAP1 REVERT JUMPDEST DUP1 PUSH20 0xFFFFFFFFFFFFFFFFFFFFFFFFFFFFFFFFFFFFFFFF AND PUSH1 0x3 PUSH1 0x0 SWAP1 SLOAD SWAP1 PUSH2 0x100 EXP SWAP1 DIV PUSH20 0xFFFFFFFFFFFFFFFFFFFFFFFFFFFFFFFFFFFFFFFF AND PUSH20 0xFFFFFFFFFFFFFFFFFFFFFFFFFFFFFFFFFFFFFFFF AND PUSH32 0x8BE0079C531659141344CD1FD0A4F28419497F9722A3DAAFE3B4186F6B6457E0 PUSH1 0x40 MLOAD PUSH1 0x40 MLOAD DUP1 SWAP2 SUB SWAP1 LOG3 DUP1 PUSH1 0x3 PUSH1 0x0 PUSH2 0x100 EXP DUP2 SLOAD DUP2 PUSH20 0xFFFFFFFFFFFFFFFFFFFFFFFFFFFFFFFFFFFFFFFF MUL NOT AND SWAP1 DUP4 PUSH20 0xFFFFFFFFFFFFFFFFFFFFFFFFFFFFFFFFFFFFFFFF AND MUL OR SWAP1 SSTORE POP POP JUMP JUMPDEST PUSH1 0x0 PUSH1 0x8 SLOAD DUP3 LT ISZERO DUP1 ISZERO PUSH2 0x24C2 JUMPI POP PUSH1 0x7 SLOAD DUP3 GT ISZERO JUMPDEST ISZERO PUSH2 0x24D0 JUMPI PUSH1 0x1 SWAP1 POP PUSH2 0x24D5 JUMP JUMPDEST PUSH1 0x0 SWAP1 POP JUMPDEST SWAP2 SWAP1 POP JUMP JUMPDEST PUSH2 0x24E3 CALLVALUE PUSH2 0xB3D JUMP JUMPDEST PUSH2 0x2538 JUMPI PUSH1 0x40 MLOAD PUSH32 0x8C379A000000000000000000000000000000000000000000000000000000000 DUP2 MSTORE PUSH1 0x4 ADD DUP1 DUP1 PUSH1 0x20 ADD DUP3 DUP2 SUB DUP3 MSTORE PUSH1 0x36 DUP2 MSTORE PUSH1 0x20 ADD DUP1 PUSH2 0x303F PUSH1 0x36 SWAP2 CODECOPY PUSH1 0x40 ADD SWAP2 POP POP PUSH1 0x40 MLOAD DUP1 SWAP2 SUB SWAP1 REVERT JUMPDEST PUSH1 0x6 SLOAD DUP3 GT ISZERO PUSH2 0x2593 JUMPI PUSH1 0x40 MLOAD PUSH32 0x8C379A000000000000000000000000000000000000000000000000000000000 DUP2 MSTORE PUSH1 0x4 ADD DUP1 DUP1 PUSH1 0x20 ADD DUP3 DUP2 SUB DUP3 MSTORE PUSH1 0x28 DUP2 MSTORE PUSH1 0x20 ADD DUP1 PUSH2 0x2FF1 PUSH1 0x28 SWAP2 CODECOPY PUSH1 0x40 ADD SWAP2 POP POP PUSH1 0x40 MLOAD DUP1 SWAP2 SUB SWAP1 REVERT JUMPDEST PUSH2 0x259C CALLVALUE PUSH2 0x24AC JUMP JUMPDEST PUSH2 0x260E JUMPI PUSH1 0x40 MLOAD PUSH32 0x8C379A000000000000000000000000000000000000000000000000000000000 DUP2 MSTORE PUSH1 0x4 ADD DUP1 DUP1 PUSH1 0x20 ADD DUP3 DUP2 SUB DUP3 MSTORE PUSH1 0x15 DUP2 MSTORE PUSH1 0x20 ADD DUP1 PUSH32 0x4F757469736465206F66206265742072616E67652E0000000000000000000000 DUP2 MSTORE POP PUSH1 0x20 ADD SWAP2 POP POP PUSH1 0x40 MLOAD DUP1 SWAP2 SUB SWAP1 REVERT JUMPDEST PUSH2 0x2623 CALLVALUE PUSH1 0x9 SLOAD PUSH2 0x26CB SWAP1 SWAP2 SWAP1 PUSH4 0xFFFFFFFF AND JUMP JUMPDEST PUSH1 0x9 DUP2 SWAP1 SSTORE POP PUSH2 0x2634 DUP4 CALLVALUE DUP5 PUSH2 0x2B21 JUMP JUMPDEST PUSH2 0x2640 PUSH1 0xA SLOAD DUP3 PUSH2 0x1016 JUMP JUMPDEST POP POP POP JUMP JUMPDEST PUSH1 0x0 DUP1 DUP4 EQ ISZERO PUSH2 0x2658 JUMPI PUSH1 0x0 SWAP1 POP PUSH2 0x26C5 JUMP JUMPDEST PUSH1 0x0 DUP3 DUP5 MUL SWAP1 POP DUP3 DUP5 DUP3 DUP2 PUSH2 0x2669 JUMPI INVALID JUMPDEST DIV EQ PUSH2 0x26C0 JUMPI PUSH1 0x40 MLOAD PUSH32 0x8C379A000000000000000000000000000000000000000000000000000000000 DUP2 MSTORE PUSH1 0x4 ADD DUP1 DUP1 PUSH1 0x20 ADD DUP3 DUP2 SUB DUP3 MSTORE PUSH1 0x21 DUP2 MSTORE PUSH1 0x20 ADD DUP1 PUSH2 0x3075 PUSH1 0x21 SWAP2 CODECOPY PUSH1 0x40 ADD SWAP2 POP POP PUSH1 0x40 MLOAD DUP1 SWAP2 SUB SWAP1 REVERT JUMPDEST DUP1 SWAP2 POP POP JUMPDEST SWAP3 SWAP2 POP POP JUMP JUMPDEST PUSH1 0x0 DUP1 DUP3 DUP5 ADD SWAP1 POP DUP4 DUP2 LT ISZERO PUSH2 0x2749 JUMPI PUSH1 0x40 MLOAD PUSH32 0x8C379A000000000000000000000000000000000000000000000000000000000 DUP2 MSTORE PUSH1 0x4 ADD DUP1 DUP1 PUSH1 0x20 ADD DUP3 DUP2 SUB DUP3 MSTORE PUSH1 0x1B DUP2 MSTORE PUSH1 0x20 ADD DUP1 PUSH32 0x536166654D6174683A206164646974696F6E206F766572666C6F770000000000 DUP2 MSTORE POP PUSH1 0x20 ADD SWAP2 POP POP PUSH1 0x40 MLOAD DUP1 SWAP2 SUB SWAP1 REVERT JUMPDEST DUP1 SWAP2 POP POP SWAP3 SWAP2 POP POP JUMP JUMPDEST PUSH1 0x0 DUP3 DUP3 GT ISZERO PUSH2 0x27CB JUMPI PUSH1 0x40 MLOAD PUSH32 0x8C379A000000000000000000000000000000000000000000000000000000000 DUP2 MSTORE PUSH1 0x4 ADD DUP1 DUP1 PUSH1 0x20 ADD DUP3 DUP2 SUB DUP3 MSTORE PUSH1 0x1E DUP2 MSTORE PUSH1 0x20 ADD DUP1 PUSH32 0x536166654D6174683A207375627472616374696F6E206F766572666C6F770000 DUP2 MSTORE POP PUSH1 0x20 ADD SWAP2 POP POP PUSH1 0x40 MLOAD DUP1 SWAP2 SUB SWAP1 REVERT JUMPDEST PUSH1 0x0 DUP3 DUP5 SUB SWAP1 POP DUP1 SWAP2 POP POP SWAP3 SWAP2 POP POP JUMP JUMPDEST PUSH1 0x0 CALLER SWAP1 POP SWAP1 JUMP JUMPDEST PUSH1 0x0 PUSH1 0xD PUSH1 0x0 PUSH1 0xE PUSH1 0x0 DUP7 DUP2 MSTORE PUSH1 0x20 ADD SWAP1 DUP2 MSTORE PUSH1 0x20 ADD PUSH1 0x0 KECCAK256 SLOAD DUP2 MSTORE PUSH1 0x20 ADD SWAP1 DUP2 MSTORE PUSH1 0x20 ADD PUSH1 0x0 KECCAK256 SWAP1 POP PUSH1 0x0 DUP2 PUSH1 0x0 ADD SLOAD GT ISZERO PUSH2 0x296A JUMPI PUSH1 0x0 DUP2 PUSH1 0x2 ADD SLOAD PUSH2 0x283B PUSH1 0xC SLOAD DUP5 PUSH1 0x2 ADD SLOAD PUSH2 0x2645 SWAP1 SWAP2 SWAP1 PUSH4 0xFFFFFFFF AND JUMP JUMPDEST ADD SWAP1 POP DUP1 SELFBALANCE LT ISZERO PUSH2 0x2897 JUMPI PUSH1 0x40 MLOAD PUSH32 0x8C379A000000000000000000000000000000000000000000000000000000000 DUP2 MSTORE PUSH1 0x4 ADD DUP1 DUP1 PUSH1 0x20 ADD DUP3 DUP2 SUB DUP3 MSTORE PUSH1 0x33 DUP2 MSTORE PUSH1 0x20 ADD DUP1 PUSH2 0x30F1 PUSH1 0x33 SWAP2 CODECOPY PUSH1 0x40 ADD SWAP2 POP POP PUSH1 0x40 MLOAD DUP1 SWAP2 SUB SWAP1 REVERT JUMPDEST DUP3 DUP3 PUSH1 0x4 ADD DUP2 SWAP1 SSTORE POP PUSH1 0x1 DUP3 PUSH1 0x5 ADD PUSH1 0x0 PUSH2 0x100 EXP DUP2 SLOAD DUP2 PUSH1 0xFF MUL NOT AND SWAP1 DUP4 ISZERO ISZERO MUL OR SWAP1 SSTORE POP DUP2 PUSH1 0x2 ADD SLOAD PUSH1 0x9 SLOAD LT PUSH2 0x28E3 JUMPI DUP2 PUSH1 0x2 ADD SLOAD PUSH1 0x9 PUSH1 0x0 DUP3 DUP3 SLOAD SUB SWAP3 POP POP DUP2 SWAP1 SSTORE POP PUSH2 0x28EC JUMP JUMPDEST PUSH1 0x0 PUSH1 0x9 DUP2 SWAP1 SSTORE POP JUMPDEST DUP2 PUSH1 0x4 ADD SLOAD DUP3 PUSH1 0x3 ADD SLOAD EQ ISZERO PUSH2 0x2968 JUMPI DUP2 PUSH1 0x1 ADD PUSH1 0x0 SWAP1 SLOAD SWAP1 PUSH2 0x100 EXP SWAP1 DIV PUSH20 0xFFFFFFFFFFFFFFFFFFFFFFFFFFFFFFFFFFFFFFFF AND PUSH20 0xFFFFFFFFFFFFFFFFFFFFFFFFFFFFFFFFFFFFFFFF AND PUSH2 0x8FC DUP3 SWAP1 DUP2 ISZERO MUL SWAP1 PUSH1 0x40 MLOAD PUSH1 0x0 PUSH1 0x40 MLOAD DUP1 DUP4 SUB DUP2 DUP6 DUP9 DUP9 CALL SWAP4 POP POP POP POP ISZERO DUP1 ISZERO PUSH2 0x2966 JUMPI RETURNDATASIZE PUSH1 0x0 DUP1 RETURNDATACOPY RETURNDATASIZE PUSH1 0x0 REVERT JUMPDEST POP JUMPDEST POP JUMPDEST POP POP POP JUMP JUMPDEST PUSH1 0x0 PUSH1 0xD PUSH1 0x0 PUSH1 0xE PUSH1 0x0 DUP7 DUP2 MSTORE PUSH1 0x20 ADD SWAP1 DUP2 MSTORE PUSH1 0x20 ADD PUSH1 0x0 KECCAK256 SLOAD DUP2 MSTORE PUSH1 0x20 ADD SWAP1 DUP2 MSTORE PUSH1 0x20 ADD PUSH1 0x0 KECCAK256 SWAP1 POP PUSH1 0x0 DUP2 PUSH1 0x0 ADD SLOAD GT ISZERO PUSH2 0x2B1C JUMPI PUSH1 0x0 DUP2 PUSH1 0x2 ADD SLOAD PUSH2 0x29C6 PUSH1 0xC SLOAD DUP5 PUSH1 0x2 ADD SLOAD PUSH2 0x2645 SWAP1 SWAP2 SWAP1 PUSH4 0xFFFFFFFF AND JUMP JUMPDEST ADD SWAP1 POP DUP1 SELFBALANCE LT ISZERO PUSH2 0x2A22 JUMPI PUSH1 0x40 MLOAD PUSH32 0x8C379A000000000000000000000000000000000000000000000000000000000 DUP2 MSTORE PUSH1 0x4 ADD DUP1 DUP1 PUSH1 0x20 ADD DUP3 DUP2 SUB DUP3 MSTORE PUSH1 0x33 DUP2 MSTORE PUSH1 0x20 ADD DUP1 PUSH2 0x30F1 PUSH1 0x33 SWAP2 CODECOPY PUSH1 0x40 ADD SWAP2 POP POP PUSH1 0x40 MLOAD DUP1 SWAP2 SUB SWAP1 REVERT JUMPDEST PUSH2 0x2A4A PUSH2 0x2A3B PUSH1 0x1 PUSH1 0x6 SLOAD PUSH2 0x26CB SWAP1 SWAP2 SWAP1 PUSH4 0xFFFFFFFF AND JUMP JUMPDEST DUP5 PUSH2 0x2E65 SWAP1 SWAP2 SWAP1 PUSH4 0xFFFFFFFF AND JUMP JUMPDEST DUP3 PUSH1 0x4 ADD DUP2 SWAP1 SSTORE POP PUSH1 0x1 DUP3 PUSH1 0x5 ADD PUSH1 0x0 PUSH2 0x100 EXP DUP2 SLOAD DUP2 PUSH1 0xFF MUL NOT AND SWAP1 DUP4 ISZERO ISZERO MUL OR SWAP1 SSTORE POP DUP2 PUSH1 0x2 ADD SLOAD PUSH1 0x9 SLOAD LT PUSH2 0x2A95 JUMPI DUP2 PUSH1 0x2 ADD SLOAD PUSH1 0x9 PUSH1 0x0 DUP3 DUP3 SLOAD SUB SWAP3 POP POP DUP2 SWAP1 SSTORE POP PUSH2 0x2A9E JUMP JUMPDEST PUSH1 0x0 PUSH1 0x9 DUP2 SWAP1 SSTORE POP JUMPDEST DUP2 PUSH1 0x4 ADD SLOAD DUP3 PUSH1 0x3 ADD SLOAD EQ ISZERO PUSH2 0x2B1A JUMPI DUP2 PUSH1 0x1 ADD PUSH1 0x0 SWAP1 SLOAD SWAP1 PUSH2 0x100 EXP SWAP1 DIV PUSH20 0xFFFFFFFFFFFFFFFFFFFFFFFFFFFFFFFFFFFFFFFF AND PUSH20 0xFFFFFFFFFFFFFFFFFFFFFFFFFFFFFFFFFFFFFFFF AND PUSH2 0x8FC DUP3 SWAP1 DUP2 ISZERO MUL SWAP1 PUSH1 0x40 MLOAD PUSH1 0x0 PUSH1 0x40 MLOAD DUP1 DUP4 SUB DUP2 DUP6 DUP9 DUP9 CALL SWAP4 POP POP POP POP ISZERO DUP1 ISZERO PUSH2 0x2B18 JUMPI RETURNDATASIZE PUSH1 0x0 DUP1 RETURNDATACOPY RETURNDATASIZE PUSH1 0x0 REVERT JUMPDEST POP JUMPDEST POP JUMPDEST POP POP POP JUMP JUMPDEST PUSH2 0x2B37 PUSH1 0x1 PUSH1 0xA SLOAD PUSH2 0x26CB SWAP1 SWAP2 SWAP1 PUSH4 0xFFFFFFFF AND JUMP JUMPDEST PUSH1 0xA DUP2 SWAP1 SSTORE POP PUSH2 0x2B45 PUSH2 0x2FA2 JUMP JUMPDEST PUSH1 0x40 MLOAD DUP1 PUSH1 0xC0 ADD PUSH1 0x40 MSTORE DUP1 PUSH1 0xA SLOAD DUP2 MSTORE PUSH1 0x20 ADD DUP6 PUSH20 0xFFFFFFFFFFFFFFFFFFFFFFFFFFFFFFFFFFFFFFFF AND DUP2 MSTORE PUSH1 0x20 ADD DUP5 DUP2 MSTORE PUSH1 0x20 ADD DUP4 DUP2 MSTORE PUSH1 0x20 ADD PUSH2 0x2B96 PUSH1 0xA PUSH1 0x6 SLOAD PUSH2 0x26CB SWAP1 SWAP2 SWAP1 PUSH4 0xFFFFFFFF AND JUMP JUMPDEST DUP2 MSTORE PUSH1 0x20 ADD PUSH1 0x0 ISZERO ISZERO DUP2 MSTORE POP SWAP1 POP DUP1 PUSH1 0xD PUSH1 0x0 DUP4 PUSH1 0x0 ADD MLOAD DUP2 MSTORE PUSH1 0x20 ADD SWAP1 DUP2 MSTORE PUSH1 0x20 ADD PUSH1 0x0 KECCAK256 PUSH1 0x0 DUP3 ADD MLOAD DUP2 PUSH1 0x0 ADD SSTORE PUSH1 0x20 DUP3 ADD MLOAD DUP2 PUSH1 0x1 ADD PUSH1 0x0 PUSH2 0x100 EXP DUP2 SLOAD DUP2 PUSH20 0xFFFFFFFFFFFFFFFFFFFFFFFFFFFFFFFFFFFFFFFF MUL NOT AND SWAP1 DUP4 PUSH20 0xFFFFFFFFFFFFFFFFFFFFFFFFFFFFFFFFFFFFFFFF AND MUL OR SWAP1 SSTORE POP PUSH1 0x40 DUP3 ADD MLOAD DUP2 PUSH1 0x2 ADD SSTORE PUSH1 0x60 DUP3 ADD MLOAD DUP2 PUSH1 0x3 ADD SSTORE PUSH1 0x80 DUP3 ADD MLOAD DUP2 PUSH1 0x4 ADD SSTORE PUSH1 0xA0 DUP3 ADD MLOAD DUP2 PUSH1 0x5 ADD PUSH1 0x0 PUSH2 0x100 EXP DUP2 SLOAD DUP2 PUSH1 0xFF MUL NOT AND SWAP1 DUP4 ISZERO ISZERO MUL OR SWAP1 SSTORE POP SWAP1 POP POP POP POP POP POP JUMP JUMPDEST PUSH1 0x0 DUP1 PUSH1 0x0 SWAP1 SLOAD SWAP1 PUSH2 0x100 EXP SWAP1 DIV PUSH20 0xFFFFFFFFFFFFFFFFFFFFFFFFFFFFFFFFFFFFFFFF AND PUSH20 0xFFFFFFFFFFFFFFFFFFFFFFFFFFFFFFFFFFFFFFFF AND PUSH4 0x4000AEA0 PUSH1 0x1 PUSH1 0x0 SWAP1 SLOAD SWAP1 PUSH2 0x100 EXP SWAP1 DIV PUSH20 0xFFFFFFFFFFFFFFFFFFFFFFFFFFFFFFFFFFFFFFFF AND DUP6 DUP8 DUP7 PUSH1 0x40 MLOAD PUSH1 0x20 ADD DUP1 DUP4 DUP2 MSTORE PUSH1 0x20 ADD DUP3 DUP2 MSTORE PUSH1 0x20 ADD SWAP3 POP POP POP PUSH1 0x40 MLOAD PUSH1 0x20 DUP2 DUP4 SUB SUB DUP2 MSTORE SWAP1 PUSH1 0x40 MSTORE PUSH1 0x40 MLOAD DUP5 PUSH4 0xFFFFFFFF AND PUSH1 0xE0 SHL DUP2 MSTORE PUSH1 0x4 ADD DUP1 DUP5 PUSH20 0xFFFFFFFFFFFFFFFFFFFFFFFFFFFFFFFFFFFFFFFF AND PUSH20 0xFFFFFFFFFFFFFFFFFFFFFFFFFFFFFFFFFFFFFFFF AND DUP2 MSTORE PUSH1 0x20 ADD DUP4 DUP2 MSTORE PUSH1 0x20 ADD DUP1 PUSH1 0x20 ADD DUP3 DUP2 SUB DUP3 MSTORE DUP4 DUP2 DUP2 MLOAD DUP2 MSTORE PUSH1 0x20 ADD SWAP2 POP DUP1 MLOAD SWAP1 PUSH1 0x20 ADD SWAP1 DUP1 DUP4 DUP4 PUSH1 0x0 JUMPDEST DUP4 DUP2 LT ISZERO PUSH2 0x2D66 JUMPI DUP1 DUP3 ADD MLOAD DUP2 DUP5 ADD MSTORE PUSH1 0x20 DUP2 ADD SWAP1 POP PUSH2 0x2D4B JUMP JUMPDEST POP POP POP POP SWAP1 POP SWAP1 DUP2 ADD SWAP1 PUSH1 0x1F AND DUP1 ISZERO PUSH2 0x2D93 JUMPI DUP1 DUP3 SUB DUP1 MLOAD PUSH1 0x1 DUP4 PUSH1 0x20 SUB PUSH2 0x100 EXP SUB NOT AND DUP2 MSTORE PUSH1 0x20 ADD SWAP2 POP JUMPDEST POP SWAP5 POP POP POP POP POP PUSH1 0x20 PUSH1 0x40 MLOAD DUP1 DUP4 SUB DUP2 PUSH1 0x0 DUP8 DUP1 EXTCODESIZE ISZERO DUP1 ISZERO PUSH2 0x2DB4 JUMPI PUSH1 0x0 DUP1 REVERT JUMPDEST POP GAS CALL ISZERO DUP1 ISZERO PUSH2 0x2DC8 JUMPI RETURNDATASIZE PUSH1 0x0 DUP1 RETURNDATACOPY RETURNDATASIZE PUSH1 0x0 REVERT JUMPDEST POP POP POP POP PUSH1 0x40 MLOAD RETURNDATASIZE PUSH1 0x20 DUP2 LT ISZERO PUSH2 0x2DDE JUMPI PUSH1 0x0 DUP1 REVERT JUMPDEST DUP2 ADD SWAP1 DUP1 DUP1 MLOAD SWAP1 PUSH1 0x20 ADD SWAP1 SWAP3 SWAP2 SWAP1 POP POP POP POP PUSH1 0x0 PUSH2 0x2E11 DUP6 DUP5 ADDRESS PUSH1 0x2 PUSH1 0x0 DUP11 DUP2 MSTORE PUSH1 0x20 ADD SWAP1 DUP2 MSTORE PUSH1 0x20 ADD PUSH1 0x0 KECCAK256 SLOAD PUSH2 0x2EEF JUMP JUMPDEST SWAP1 POP PUSH2 0x2E3A PUSH1 0x1 PUSH1 0x2 PUSH1 0x0 DUP9 DUP2 MSTORE PUSH1 0x20 ADD SWAP1 DUP2 MSTORE PUSH1 0x20 ADD PUSH1 0x0 KECCAK256 SLOAD PUSH2 0x26CB SWAP1 SWAP2 SWAP1 PUSH4 0xFFFFFFFF AND JUMP JUMPDEST PUSH1 0x2 PUSH1 0x0 DUP8 DUP2 MSTORE PUSH1 0x20 ADD SWAP1 DUP2 MSTORE PUSH1 0x20 ADD PUSH1 0x0 KECCAK256 DUP2 SWAP1 SSTORE POP PUSH2 0x2E5B DUP6 DUP3 PUSH2 0x2F69 JUMP JUMPDEST SWAP2 POP POP SWAP4 SWAP3 POP POP POP JUMP JUMPDEST PUSH1 0x0 DUP1 DUP3 EQ ISZERO PUSH2 0x2EDD JUMPI PUSH1 0x40 MLOAD PUSH32 0x8C379A000000000000000000000000000000000000000000000000000000000 DUP2 MSTORE PUSH1 0x4 ADD DUP1 DUP1 PUSH1 0x20 ADD DUP3 DUP2 SUB DUP3 MSTORE PUSH1 0x18 DUP2 MSTORE PUSH1 0x20 ADD DUP1 PUSH32 0x536166654D6174683A206D6F64756C6F206279207A65726F0000000000000000 DUP2 MSTORE POP PUSH1 0x20 ADD SWAP2 POP POP PUSH1 0x40 MLOAD DUP1 SWAP2 SUB SWAP1 REVERT JUMPDEST DUP2 DUP4 DUP2 PUSH2 0x2EE6 JUMPI INVALID JUMPDEST MOD SWAP1 POP SWAP3 SWAP2 POP POP JUMP JUMPDEST PUSH1 0x0 DUP5 DUP5 DUP5 DUP5 PUSH1 0x40 MLOAD PUSH1 0x20 ADD DUP1 DUP6 DUP2 MSTORE PUSH1 0x20 ADD DUP5 DUP2 MSTORE PUSH1 0x20 ADD DUP4 PUSH20 0xFFFFFFFFFFFFFFFFFFFFFFFFFFFFFFFFFFFFFFFF AND PUSH20 0xFFFFFFFFFFFFFFFFFFFFFFFFFFFFFFFFFFFFFFFF AND DUP2 MSTORE PUSH1 0x20 ADD DUP3 DUP2 MSTORE PUSH1 0x20 ADD SWAP5 POP POP POP POP POP PUSH1 0x40 MLOAD PUSH1 0x20 DUP2 DUP4 SUB SUB DUP2 MSTORE SWAP1 PUSH1 0x40 MSTORE DUP1 MLOAD SWAP1 PUSH1 0x20 ADD KECCAK256 PUSH1 0x0 SHR SWAP1 POP SWAP5 SWAP4 POP POP POP POP JUMP JUMPDEST PUSH1 0x0 DUP3 DUP3 PUSH1 0x40 MLOAD PUSH1 0x20 ADD DUP1 DUP4 DUP2 MSTORE PUSH1 0x20 ADD DUP3 DUP2 MSTORE PUSH1 0x20 ADD SWAP3 POP POP POP PUSH1 0x40 MLOAD PUSH1 0x20 DUP2 DUP4 SUB SUB DUP2 MSTORE SWAP1 PUSH1 0x40 MSTORE DUP1 MLOAD SWAP1 PUSH1 0x20 ADD KECCAK256 SWAP1 POP SWAP3 SWAP2 POP POP JUMP JUMPDEST PUSH1 0x40 MLOAD DUP1 PUSH1 0xC0 ADD PUSH1 0x40 MSTORE DUP1 PUSH1 0x0 DUP2 MSTORE PUSH1 0x20 ADD PUSH1 0x0 PUSH20 0xFFFFFFFFFFFFFFFFFFFFFFFFFFFFFFFFFFFFFFFF AND DUP2 MSTORE PUSH1 0x20 ADD PUSH1 0x0 DUP2 MSTORE PUSH1 0x20 ADD PUSH1 0x0 DUP2 MSTORE PUSH1 0x20 ADD PUSH1 0x0 DUP2 MSTORE PUSH1 0x20 ADD PUSH1 0x0 ISZERO ISZERO DUP2 MSTORE POP SWAP1 JUMP INVALID POP PUSH10 0x636B20697320746F6F20 PUSH9 0x6967682E2043686F6F PUSH20 0x652061206C6F776572206E756D6265722E4F776E PUSH2 0x626C PUSH6 0x3A206E657720 PUSH16 0x776E657220697320746865207A65726F KECCAK256 PUSH2 0x6464 PUSH19 0x657373436F6E74726163742068617320696E73 PUSH22 0x66666963696E742066756E647320746F207061796F75 PUSH21 0x20706F737369626C652077696E2E536166654D6174 PUSH9 0x3A206D756C7469706C PUSH10 0x636174696F6E206F7665 PUSH19 0x666C6F77436F6E74726163742062616C616E63 PUSH6 0x20746F6F206C PUSH16 0x772E20506C6561736520747279206167 PUSH2 0x696E KECCAK256 PUSH13 0x617465722E47616D6520616C72 PUSH6 0x61647920636F PUSH14 0x706C6574652E204E6F2072656675 PUSH15 0x6420706F737369626C652E556E6162 PUSH13 0x6520746F207061792E20506C65 PUSH2 0x7365 KECCAK256 PUSH17 0x6C617920616761696E206F722072657175 PUSH6 0x737420726566 PUSH22 0x6E642EA264697066735822122005540B9381DBA42207 0x21 SWAP16 LT MSTORE SUB PUSH11 0xAD4696F32807B656AD3CEC MULMOD NOT 0xC PUSH2 0x7391 PUSH5 0x736F6C6343 STOP MOD STOP STOP CALLER "},"gasEstimates":{"creation":{"codeDepositCost":"2526600","executionCost":"infinite","totalCost":"infinite"},"external":{"_currentGame()":"1094","_gameRequests(bytes32)":"1296","_unplayedBets()":"1094","betInRange(uint256)":"2096","betPayable(uint256)":"infinite","closeMachine()":"infinite","fundMachine()":"233","games(uint256)":"5524","getRandomNumber(uint256)":"infinite","getSeed()":"325","getSummary()":"3649","maxBet()":"1051","maxPick()":"1073","minBet()":"1050","nonces(bytes32)":"1274","owner()":"1151","payout()":"1072","payoutAddress()":"1165","placeBet(uint256)":"infinite","placeBetFor(address,uint256)":"infinite","playGame(uint256)":"infinite","rawFulfillRandomness(bytes32,uint256)":"infinite","renounceOwnership()":"24408","requestRefund(uint256)":"infinite","setKeyHash(bytes32)":"21214","setLINK(address)":"22139","setMaxBet(uint256)":"21193","setMinBet(uint256)":"21215","setPayout(uint256)":"21193","setPayoutAddress(address)":"22096","setVRFCoordinator(address)":"22074","testCloseMachine()":"infinite","testCreateGame(address,uint256,uint256,bool,uint256)":"infinite","testPlaceBetFor(address,uint256,uint256)":"infinite","testPlayGame(uint256,uint256)":"infinite","transferOwnership(address)":"infinite"},"internal":{"createGame(address payable,uint256,uint256)":"infinite","fulfillRandomness(bytes32,uint256)":"infinite","testFulfillRandomness(bytes32,uint256)":"infinite"}},"methodIdentifiers":{"_currentGame()":"9920cf81","_gameRequests(bytes32)":"82e39ac5","_unplayedBets()":"6b25d296","betInRange(uint256)":"fa63b7ad","betPayable(uint256)":"0c610a12","closeMachine()":"b93030b3","fundMachine()":"2de0f182","games(uint256)":"117a5b90","getRandomNumber(uint256)":"b37217a4","getSeed()":"39e7357c","getSummary()":"4051ddac","maxBet()":"2e5b2168","maxPick()":"2ee42d8a","minBet()":"9619367d","nonces(bytes32)":"9e317f12","owner()":"8da5cb5b","payout()":"63bd1d4a","payoutAddress()":"5b8d02d7","placeBet(uint256)":"10fe7c48","placeBetFor(address,uint256)":"ac150fd8","playGame(uint256)":"5873533d","rawFulfillRandomness(bytes32,uint256)":"94985ddd","renounceOwnership()":"715018a6","requestRefund(uint256)":"a4b2409e","setKeyHash(bytes32)":"98544710","setLINK(address)":"a02e0616","setMaxBet(uint256)":"881eff1e","setMinBet(uint256)":"88ea41b9","setPayout(uint256)":"44c18aa7","setPayoutAddress(address)":"33ea51a8","setVRFCoordinator(address)":"44ff81ce","testCloseMachine()":"c955e79c","testCreateGame(address,uint256,uint256,bool,uint256)":"de4fa6af","testPlaceBetFor(address,uint256,uint256)":"fafacab2","testPlayGame(uint256,uint256)":"6168eac9","transferOwnership(address)":"f2fde38b"}},"storageLayout":{"storage":[{"astId":460,"contract":"AllContracts.sol:LuckyMachine","label":"LINK","offset":0,"slot":"0","type":"t_contract(LinkTokenInterface)392"},{"astId":462,"contract":"AllContracts.sol:LuckyMachine","label":"vrfCoordinator","offset":0,"slot":"1","type":"t_address"},{"astId":466,"contract":"AllContracts.sol:LuckyMachine","label":"nonces","offset":0,"slot":"2","type":"t_mapping(t_bytes32,t_uint256)"},{"astId":26,"contract":"AllContracts.sol:LuckyMachine","label":"_owner","offset":0,"slot":"3","type":"t_address"},{"astId":515,"contract":"AllContracts.sol:LuckyMachine","label":"keyHash","offset":0,"slot":"4","type":"t_bytes32"},{"astId":517,"contract":"AllContracts.sol:LuckyMachine","label":"fee","offset":0,"slot":"5","type":"t_uint256"},{"astId":532,"contract":"AllContracts.sol:LuckyMachine","label":"maxPick","offset":0,"slot":"6","type":"t_uint256"},{"astId":534,"contract":"AllContracts.sol:LuckyMachine","label":"maxBet","offset":0,"slot":"7","type":"t_uint256"},{"astId":536,"contract":"AllContracts.sol:LuckyMachine","label":"minBet","offset":0,"slot":"8","type":"t_uint256"},{"astId":538,"contract":"AllContracts.sol:LuckyMachine","label":"_unplayedBets","offset":0,"slot":"9","type":"t_uint256"},{"astId":540,"contract":"AllContracts.sol:LuckyMachine","label":"_currentGame","offset":0,"slot":"10","type":"t_uint256"},{"astId":542,"contract":"AllContracts.sol:LuckyMachine","label":"payoutAddress","offset":0,"slot":"11","type":"t_address_payable"},{"astId":544,"contract":"AllContracts.sol:LuckyMachine","label":"payout","offset":0,"slot":"12","type":"t_uint256"},{"astId":548,"contract":"AllContracts.sol:LuckyMachine","label":"games","offset":0,"slot":"13","type":"t_mapping(t_uint256,t_struct(Game)530_storage)"},{"astId":552,"contract":"AllContracts.sol:LuckyMachine","label":"_gameRequests","offset":0,"slot":"14","type":"t_mapping(t_bytes32,t_uint256)"}],"types":{"t_address":{"encoding":"inplace","label":"address","numberOfBytes":"20"},"t_address_payable":{"encoding":"inplace","label":"address payable","numberOfBytes":"20"},"t_bool":{"encoding":"inplace","label":"bool","numberOfBytes":"1"},"t_bytes32":{"encoding":"inplace","label":"bytes32","numberOfBytes":"32"},"t_contract(LinkTokenInterface)392":{"encoding":"inplace","label":"contract LinkTokenInterface","numberOfBytes":"20"},"t_mapping(t_bytes32,t_uint256)":{"encoding":"mapping","key":"t_bytes32","label":"mapping(bytes32 => uint256)","numberOfBytes":"32","value":"t_uint256"},"t_mapping(t_uint256,t_struct(Game)530_storage)":{"encoding":"mapping","key":"t_uint256","label":"mapping(uint256 => struct LuckyMachine.Game)","numberOfBytes":"32","value":"t_struct(Game)530_storage"},"t_struct(Game)530_storage":{"encoding":"inplace","label":"struct LuckyMachine.Game","members":[{"astId":519,"contract":"AllContracts.sol:LuckyMachine","label":"id","offset":0,"slot":"0","type":"t_uint256"},{"astId":521,"contract":"AllContracts.sol:LuckyMachine","label":"player","offset":0,"slot":"1","type":"t_address_payable"},{"astId":523,"contract":"AllContracts.sol:LuckyMachine","label":"bet","offset":0,"slot":"2","type":"t_uint256"},{"astId":525,"contract":"AllContracts.sol:LuckyMachine","label":"pick","offset":0,"slot":"3","type":"t_uint256"},{"astId":527,"contract":"AllContracts.sol:LuckyMachine","label":"winner","offset":0,"slot":"4","type":"t_uint256"},{"astId":529,"contract":"AllContracts.sol:LuckyMachine","label":"played","offset":0,"slot":"5","type":"t_bool"}],"numberOfBytes":"192"},"t_uint256":{"encoding":"inplace","label":"uint256","numberOfBytes":"32"}}},"userdoc":{"methods":{}}}