{"abi":[{"inputs":[{"internalType":"address payable","name":"_payoutAddress","type":"address"},{"internalType":"uint256","name":"_maxBet","type":"uint256"},{"internalType":"uint256","name":"_minBet","type":"uint256"},{"internalType":"uint256","name":"_maxPick","type":"uint256"},{"internalType":"uint256","name":"_payout","type":"uint256"}],"stateMutability":"nonpayable","type":"constructor"},{"anonymous":false,"inputs":[{"indexed":true,"internalType":"address","name":"previousOwner","type":"address"},{"indexed":true,"internalType":"address","name":"newOwner","type":"address"}],"name":"OwnershipTransferred","type":"event"},{"inputs":[{"internalType":"bytes32","name":"","type":"bytes32"}],"name":"_gameRequests","outputs":[{"internalType":"uint256","name":"","type":"uint256"}],"stateMutability":"view","type":"function"},{"inputs":[],"name":"closeMachine","outputs":[],"stateMutability":"nonpayable","type":"function"},{"inputs":[{"internalType":"uint256","name":"","type":"uint256"}],"name":"games","outputs":[{"internalType":"uint256","name":"id","type":"uint256"},{"internalType":"address payable","name":"player","type":"address"},{"internalType":"uint256","name":"bet","type":"uint256"},{"internalType":"uint256","name":"pick","type":"uint256"},{"internalType":"uint256","name":"winner","type":"uint256"},{"internalType":"bool","name":"played","type":"bool"}],"stateMutability":"view","type":"function"},{"inputs":[],"name":"getLinkBalance","outputs":[{"internalType":"uint256","name":"","type":"uint256"}],"stateMutability":"view","type":"function"},{"inputs":[],"name":"getSeed","outputs":[{"internalType":"uint256","name":"","type":"uint256"}],"stateMutability":"view","type":"function"},{"inputs":[],"name":"getSummary","outputs":[{"internalType":"uint256","name":"","type":"uint256"},{"internalType":"uint256","name":"","type":"uint256"},{"internalType":"uint256","name":"","type":"uint256"},{"internalType":"uint256","name":"","type":"uint256"}],"stateMutability":"view","type":"function"},{"inputs":[],"name":"maxBet","outputs":[{"internalType":"uint256","name":"","type":"uint256"}],"stateMutability":"view","type":"function"},{"inputs":[],"name":"maxPick","outputs":[{"internalType":"uint256","name":"","type":"uint256"}],"stateMutability":"view","type":"function"},{"inputs":[],"name":"minBet","outputs":[{"internalType":"uint256","name":"","type":"uint256"}],"stateMutability":"view","type":"function"},{"inputs":[{"internalType":"bytes32","name":"","type":"bytes32"}],"name":"nonces","outputs":[{"internalType":"uint256","name":"","type":"uint256"}],"stateMutability":"view","type":"function"},{"inputs":[],"name":"owner","outputs":[{"internalType":"address","name":"","type":"address"}],"stateMutability":"view","type":"function"},{"inputs":[],"name":"payout","outputs":[{"internalType":"uint256","name":"","type":"uint256"}],"stateMutability":"view","type":"function"},{"inputs":[],"name":"payoutAddress","outputs":[{"internalType":"address payable","name":"","type":"address"}],"stateMutability":"view","type":"function"},{"inputs":[{"internalType":"address payable","name":"player","type":"address"},{"internalType":"uint256","name":"pick","type":"uint256"}],"name":"placeBetFor","outputs":[],"stateMutability":"payable","type":"function"},{"inputs":[{"internalType":"bytes32","name":"requestId","type":"bytes32"},{"internalType":"uint256","name":"randomness","type":"uint256"}],"name":"rawFulfillRandomness","outputs":[],"stateMutability":"nonpayable","type":"function"},{"inputs":[],"name":"renounceOwnership","outputs":[],"stateMutability":"nonpayable","type":"function"},{"inputs":[{"internalType":"uint256","name":"gameID","type":"uint256"}],"name":"replayGame","outputs":[],"stateMutability":"nonpayable","type":"function"},{"inputs":[{"internalType":"uint256","name":"gameID","type":"uint256"}],"name":"requestRefund","outputs":[],"stateMutability":"nonpayable","type":"function"},{"inputs":[{"internalType":"address payable","name":"player","type":"address"},{"internalType":"uint256","name":"pick","type":"uint256"}],"name":"safeBetFor","outputs":[],"stateMutability":"payable","type":"function"},{"inputs":[{"internalType":"bytes32","name":"_keyHash","type":"bytes32"}],"name":"setKeyHash","outputs":[],"stateMutability":"nonpayable","type":"function"},{"inputs":[{"internalType":"address","name":"_linkAddress","type":"address"}],"name":"setLINK","outputs":[],"stateMutability":"nonpayable","type":"function"},{"inputs":[{"internalType":"address payable","name":"_payoutAddress","type":"address"}],"name":"setPayoutAddress","outputs":[],"stateMutability":"nonpayable","type":"function"},{"inputs":[{"internalType":"address","name":"_vrfCoordinator","type":"address"}],"name":"setVRFCoordinator","outputs":[],"stateMutability":"nonpayable","type":"function"},{"inputs":[{"internalType":"address","name":"newOwner","type":"address"}],"name":"transferOwnership","outputs":[],"stateMutability":"nonpayable","type":"function"},{"inputs":[{"internalType":"uint256","name":"amount","type":"uint256"}],"name":"withdrawEth","outputs":[],"stateMutability":"nonpayable","type":"function"},{"inputs":[{"internalType":"uint256","name":"amount","type":"uint256"}],"name":"withdrawLink","outputs":[],"stateMutability":"nonpayable","type":"function"},{"stateMutability":"payable","type":"receive"}],"devdoc":{"methods":{"owner()":{"details":"Returns the address of the current owner."},"renounceOwnership()":{"details":"Leaves the contract without owner. It will not be possible to call `onlyOwner` functions anymore. Can only be called by the current owner.     * NOTE: Renouncing ownership will leave the contract without an owner, thereby removing any functionality that is only available to the owner."},"transferOwnership(address)":{"details":"Transfers ownership of the contract to a new account (`newOwner`). Can only be called by the current owner."}}},"evm":{"assembly":"    /* \"AllContracts.sol\":5733:13868  contract LuckyMachine is VRFConsumerBase, Ownable {... */\n  mstore(0x40, 0x80)\n    /* \"AllContracts.sol\":6616:7570  constructor(address payable _payoutAddress, uint _maxBet, uint _minBet, uint _maxPick, uint _payout)... */\n  callvalue\n    /* \"--CODEGEN--\":8:17   */\n  dup1\n    /* \"--CODEGEN--\":5:7   */\n  iszero\n  tag_1\n  jumpi\n    /* \"--CODEGEN--\":30:31   */\n  0x00\n    /* \"--CODEGEN--\":27:28   */\n  dup1\n    /* \"--CODEGEN--\":20:32   */\n  revert\n    /* \"--CODEGEN--\":5:7   */\ntag_1:\n    /* \"AllContracts.sol\":6616:7570  constructor(address payable _payoutAddress, uint _maxBet, uint _minBet, uint _maxPick, uint _payout)... */\n  pop\n  mload(0x40)\n  sub(codesize, bytecodeSize)\n  dup1\n  bytecodeSize\n  dup4\n  codecopy\n  dup2\n  dup2\n  add\n  0x40\n  mstore\n    /* \"--CODEGEN--\":13:16   */\n  0xa0\n    /* \"--CODEGEN--\":8:11   */\n  dup2\n    /* \"--CODEGEN--\":5:17   */\n  lt\n    /* \"--CODEGEN--\":2:4   */\n  iszero\n  tag_2\n  jumpi\n    /* \"--CODEGEN--\":30:31   */\n  0x00\n    /* \"--CODEGEN--\":27:28   */\n  dup1\n    /* \"--CODEGEN--\":20:32   */\n  revert\n    /* \"--CODEGEN--\":2:4   */\ntag_2:\n    /* \"AllContracts.sol\":6616:7570  constructor(address payable _payoutAddress, uint _maxBet, uint _minBet, uint _maxPick, uint _payout)... */\n  dup2\n  add\n  swap1\n  dup1\n  dup1\n  mload\n  swap1\n  0x20\n  add\n  swap1\n  swap3\n  swap2\n  swap1\n  dup1\n  mload\n  swap1\n  0x20\n  add\n  swap1\n  swap3\n  swap2\n  swap1\n  dup1\n  mload\n  swap1\n  0x20\n  add\n  swap1\n  swap3\n  swap2\n  swap1\n  dup1\n  mload\n  swap1\n  0x20\n  add\n  swap1\n  swap3\n  swap2\n  swap1\n  dup1\n  mload\n  swap1\n  0x20\n  add\n  swap1\n  swap3\n  swap2\n  swap1\n  pop\n  pop\n  pop\n    /* \"AllContracts.sol\":6827:6869  0xdD3782915140c8f3b190B5D67eAc6dc5760C46E9 */\n  0xdd3782915140c8f3b190b5d67eac6dc5760c46e9\n    /* \"AllContracts.sol\":6902:6944  0xa36085F69e2889c224210F603D836748e7dC0088 */\n  0xa36085f69e2889c224210f603d836748e7dc0088\n    /* \"AllContracts.sol\":5460:5475  _vrfCoordinator */\n  dup2\n    /* \"AllContracts.sol\":5443:5457  vrfCoordinator */\n  0x01\n  0x00\n    /* \"AllContracts.sol\":5443:5475  vrfCoordinator = _vrfCoordinator */\n  0x0100\n  exp\n  dup2\n  sload\n  dup2\n  0xffffffffffffffffffffffffffffffffffffffff\n  mul\n  not\n  and\n  swap1\n  dup4\n  0xffffffffffffffffffffffffffffffffffffffff\n  and\n  mul\n  or\n  swap1\n  sstore\n  pop\n    /* \"AllContracts.sol\":5507:5512  _link */\n  dup1\n    /* \"AllContracts.sol\":5481:5485  LINK */\n  0x00\n  dup1\n    /* \"AllContracts.sol\":5481:5513  LINK = LinkTokenInterface(_link) */\n  0x0100\n  exp\n  dup2\n  sload\n  dup2\n  0xffffffffffffffffffffffffffffffffffffffff\n  mul\n  not\n  and\n  swap1\n  dup4\n  0xffffffffffffffffffffffffffffffffffffffff\n  and\n  mul\n  or\n  swap1\n  sstore\n  pop\n    /* \"AllContracts.sol\":5378:5518  constructor(address _vrfCoordinator, address _link) public {... */\n  pop\n  pop\n    /* \"AllContracts.sol\":726:743  address msgSender */\n  0x00\n    /* \"AllContracts.sol\":746:758  _msgSender() */\n  tag_8\n    /* \"AllContracts.sol\":746:756  _msgSender */\n  shl(0x20, tag_9)\n    /* \"AllContracts.sol\":746:758  _msgSender() */\n  0x20\n  shr\n  jump\t// in\ntag_8:\n    /* \"AllContracts.sol\":726:758  address msgSender = _msgSender() */\n  swap1\n  pop\n    /* \"AllContracts.sol\":777:786  msgSender */\n  dup1\n    /* \"AllContracts.sol\":768:774  _owner */\n  0x03\n  0x00\n    /* \"AllContracts.sol\":768:786  _owner = msgSender */\n  0x0100\n  exp\n  dup2\n  sload\n  dup2\n  0xffffffffffffffffffffffffffffffffffffffff\n  mul\n  not\n  and\n  swap1\n  dup4\n  0xffffffffffffffffffffffffffffffffffffffff\n  and\n  mul\n  or\n  swap1\n  sstore\n  pop\n    /* \"AllContracts.sol\":834:843  msgSender */\n  dup1\n    /* \"AllContracts.sol\":801:844  OwnershipTransferred(address(0), msgSender) */\n  0xffffffffffffffffffffffffffffffffffffffff\n  and\n    /* \"AllContracts.sol\":830:831  0 */\n  0x00\n    /* \"AllContracts.sol\":801:844  OwnershipTransferred(address(0), msgSender) */\n  0xffffffffffffffffffffffffffffffffffffffff\n  and\n  0x8be0079c531659141344cd1fd0a4f28419497f9722a3daafe3b4186f6b6457e0\n  mload(0x40)\n  mload(0x40)\n  dup1\n  swap2\n  sub\n  swap1\n  log3\n    /* \"AllContracts.sol\":692:851  constructor () internal {... */\n  pop\n    /* \"AllContracts.sol\":7001:7067  0x6c3699283bda56ad74f6b855546325b68d482e983852a7a82979cc4807b641f4 */\n  0x6c3699283bda56ad74f6b855546325b68d482e983852a7a82979cc4807b641f4\n    /* \"AllContracts.sol\":6991:7067  keyHash = 0x6c3699283bda56ad74f6b855546325b68d482e983852a7a82979cc4807b641f4 */\n  0x00\n  shl\n    /* \"AllContracts.sol\":6991:6998  keyHash */\n  0x04\n    /* \"AllContracts.sol\":6991:7067  keyHash = 0x6c3699283bda56ad74f6b855546325b68d482e983852a7a82979cc4807b641f4 */\n  dup2\n  swap1\n  sstore\n  pop\n    /* \"AllContracts.sol\":7087:7101  0.1 * 10 ** 18 */\n  0x016345785d8a0000\n    /* \"AllContracts.sol\":7081:7084  fee */\n  0x05\n    /* \"AllContracts.sol\":7081:7101  fee = 0.1 * 10 ** 18 */\n  dup2\n  swap1\n  sstore\n  pop\n    /* \"AllContracts.sol\":7143:7144  1 */\n  0x01\n    /* \"AllContracts.sol\":7128:7140  _currentGame */\n  0x14\n    /* \"AllContracts.sol\":7128:7144  _currentGame = 1 */\n  dup2\n  swap1\n  sstore\n  pop\n    /* \"AllContracts.sol\":7174:7175  0 */\n  0x00\n    /* \"AllContracts.sol\":7158:7171  _unplayedBets */\n  0x13\n    /* \"AllContracts.sol\":7158:7175  _unplayedBets = 0 */\n  dup2\n  swap1\n  sstore\n  pop\n    /* \"AllContracts.sol\":7205:7219  _payoutAddress */\n  dup5\n    /* \"AllContracts.sol\":7189:7202  payoutAddress */\n  0x15\n  0x00\n    /* \"AllContracts.sol\":7189:7219  payoutAddress = _payoutAddress */\n  0x0100\n  exp\n  dup2\n  sload\n  dup2\n  0xffffffffffffffffffffffffffffffffffffffff\n  mul\n  not\n  and\n  swap1\n  dup4\n  0xffffffffffffffffffffffffffffffffffffffff\n  and\n  mul\n  or\n  swap1\n  sstore\n  pop\n    /* \"AllContracts.sol\":7242:7249  _minBet */\n  dup3\n    /* \"AllContracts.sol\":7233:7239  minBet */\n  0x12\n    /* \"AllContracts.sol\":7233:7249  minBet = _minBet */\n  dup2\n  swap1\n  sstore\n  pop\n    /* \"AllContracts.sol\":7272:7279  _maxBet */\n  dup4\n    /* \"AllContracts.sol\":7263:7269  maxBet */\n  0x11\n    /* \"AllContracts.sol\":7263:7279  maxBet = _maxBet */\n  dup2\n  swap1\n  sstore\n  pop\n    /* \"AllContracts.sol\":7303:7311  _maxPick */\n  dup2\n    /* \"AllContracts.sol\":7293:7300  maxPick */\n  0x10\n    /* \"AllContracts.sol\":7293:7311  maxPick = _maxPick */\n  dup2\n  swap1\n  sstore\n  pop\n    /* \"AllContracts.sol\":7334:7341  _payout */\n  dup1\n    /* \"AllContracts.sol\":7325:7331  payout */\n  0x16\n    /* \"AllContracts.sol\":7325:7341  payout = _payout */\n  dup2\n  swap1\n  sstore\n  pop\n    /* \"AllContracts.sol\":7363:7364  1 */\n  0x01\n    /* \"AllContracts.sol\":7356:7360  gas1 */\n  0x06\n    /* \"AllContracts.sol\":7356:7364  gas1 = 1 */\n  dup2\n  swap1\n  sstore\n  pop\n    /* \"AllContracts.sol\":7385:7386  1 */\n  0x01\n    /* \"AllContracts.sol\":7378:7382  gas2 */\n  0x07\n    /* \"AllContracts.sol\":7378:7386  gas2 = 1 */\n  dup2\n  swap1\n  sstore\n  pop\n    /* \"AllContracts.sol\":7407:7408  1 */\n  0x01\n    /* \"AllContracts.sol\":7400:7404  gas3 */\n  0x08\n    /* \"AllContracts.sol\":7400:7408  gas3 = 1 */\n  dup2\n  swap1\n  sstore\n  pop\n    /* \"AllContracts.sol\":7429:7430  1 */\n  0x01\n    /* \"AllContracts.sol\":7422:7426  gas4 */\n  0x09\n    /* \"AllContracts.sol\":7422:7430  gas4 = 1 */\n  dup2\n  swap1\n  sstore\n  pop\n    /* \"AllContracts.sol\":7451:7452  1 */\n  0x01\n    /* \"AllContracts.sol\":7444:7448  gas5 */\n  0x0a\n    /* \"AllContracts.sol\":7444:7452  gas5 = 1 */\n  dup2\n  swap1\n  sstore\n  pop\n    /* \"AllContracts.sol\":7473:7474  1 */\n  0x01\n    /* \"AllContracts.sol\":7466:7470  gas6 */\n  0x0b\n    /* \"AllContracts.sol\":7466:7474  gas6 = 1 */\n  dup2\n  swap1\n  sstore\n  pop\n    /* \"AllContracts.sol\":7495:7496  1 */\n  0x01\n    /* \"AllContracts.sol\":7488:7492  gas7 */\n  0x0c\n    /* \"AllContracts.sol\":7488:7496  gas7 = 1 */\n  dup2\n  swap1\n  sstore\n  pop\n    /* \"AllContracts.sol\":7517:7518  1 */\n  0x01\n    /* \"AllContracts.sol\":7510:7514  gas8 */\n  0x0d\n    /* \"AllContracts.sol\":7510:7518  gas8 = 1 */\n  dup2\n  swap1\n  sstore\n  pop\n    /* \"AllContracts.sol\":7539:7540  1 */\n  0x01\n    /* \"AllContracts.sol\":7532:7536  gas9 */\n  0x0e\n    /* \"AllContracts.sol\":7532:7540  gas9 = 1 */\n  dup2\n  swap1\n  sstore\n  pop\n    /* \"AllContracts.sol\":7562:7563  1 */\n  0x01\n    /* \"AllContracts.sol\":7554:7559  gas10 */\n  0x0f\n    /* \"AllContracts.sol\":7554:7563  gas10 = 1 */\n  dup2\n  swap1\n  sstore\n  pop\n    /* \"AllContracts.sol\":6616:7570  constructor(address payable _payoutAddress, uint _maxBet, uint _minBet, uint _maxPick, uint _payout)... */\n  pop\n  pop\n  pop\n  pop\n  pop\n    /* \"AllContracts.sol\":5733:13868  contract LuckyMachine is VRFConsumerBase, Ownable {... */\n  jump(tag_11)\n    /* \"AllContracts.sol\":90:194  function _msgSender() internal view virtual returns (address payable) {... */\ntag_9:\n    /* \"AllContracts.sol\":143:158  address payable */\n  0x00\n    /* \"AllContracts.sol\":177:187  msg.sender */\n  caller\n    /* \"AllContracts.sol\":170:187  return msg.sender */\n  swap1\n  pop\n    /* \"AllContracts.sol\":90:194  function _msgSender() internal view virtual returns (address payable) {... */\n  swap1\n  jump\t// out\n    /* \"AllContracts.sol\":5733:13868  contract LuckyMachine is VRFConsumerBase, Ownable {... */\ntag_11:\n  dataSize(sub_0)\n  dup1\n  dataOffset(sub_0)\n  0x00\n  codecopy\n  0x00\n  return\nstop\n\nsub_0: assembly {\n        /* \"AllContracts.sol\":5733:13868  contract LuckyMachine is VRFConsumerBase, Ownable {... */\n      mstore(0x40, 0x80)\n      jumpi(tag_1, lt(calldatasize, 0x04))\n      shr(0xe0, calldataload(0x00))\n      dup1\n      0x8da5cb5b\n      gt\n      tag_29\n      jumpi\n      dup1\n      0xa4b2409e\n      gt\n      tag_30\n      jumpi\n      dup1\n      0xc311d049\n      gt\n      tag_31\n      jumpi\n      dup1\n      0xc311d049\n      eq\n      tag_25\n      jumpi\n      dup1\n      0xd9e721f8\n      eq\n      tag_26\n      jumpi\n      dup1\n      0xf2fde38b\n      eq\n      tag_27\n      jumpi\n      dup1\n      0xf31a4dcd\n      eq\n      tag_28\n      jumpi\n      jump(tag_2)\n    tag_31:\n      dup1\n      0xa4b2409e\n      eq\n      tag_22\n      jumpi\n      dup1\n      0xac150fd8\n      eq\n      tag_23\n      jumpi\n      dup1\n      0xb93030b3\n      eq\n      tag_24\n      jumpi\n      jump(tag_2)\n    tag_30:\n      dup1\n      0x8da5cb5b\n      eq\n      tag_16\n      jumpi\n      dup1\n      0x94985ddd\n      eq\n      tag_17\n      jumpi\n      dup1\n      0x9619367d\n      eq\n      tag_18\n      jumpi\n      dup1\n      0x98544710\n      eq\n      tag_19\n      jumpi\n      dup1\n      0x9e317f12\n      eq\n      tag_20\n      jumpi\n      dup1\n      0xa02e0616\n      eq\n      tag_21\n      jumpi\n      jump(tag_2)\n    tag_29:\n      dup1\n      0x44ff81ce\n      gt\n      tag_32\n      jumpi\n      dup1\n      0x63bd1d4a\n      gt\n      tag_33\n      jumpi\n      dup1\n      0x63bd1d4a\n      eq\n      tag_12\n      jumpi\n      dup1\n      0x715018a6\n      eq\n      tag_13\n      jumpi\n      dup1\n      0x7a8042bd\n      eq\n      tag_14\n      jumpi\n      dup1\n      0x82e39ac5\n      eq\n      tag_15\n      jumpi\n      jump(tag_2)\n    tag_33:\n      dup1\n      0x44ff81ce\n      eq\n      tag_9\n      jumpi\n      dup1\n      0x50c5f975\n      eq\n      tag_10\n      jumpi\n      dup1\n      0x5b8d02d7\n      eq\n      tag_11\n      jumpi\n      jump(tag_2)\n    tag_32:\n      dup1\n      0x117a5b90\n      eq\n      tag_3\n      jumpi\n      dup1\n      0x2e5b2168\n      eq\n      tag_4\n      jumpi\n      dup1\n      0x2ee42d8a\n      eq\n      tag_5\n      jumpi\n      dup1\n      0x33ea51a8\n      eq\n      tag_6\n      jumpi\n      dup1\n      0x39e7357c\n      eq\n      tag_7\n      jumpi\n      dup1\n      0x4051ddac\n      eq\n      tag_8\n      jumpi\n      jump(tag_2)\n    tag_1:\n      jumpi(tag_2, calldatasize)\n      stop\n    tag_2:\n      0x00\n      dup1\n      revert\n        /* \"AllContracts.sol\":6524:6558  mapping(uint => Game) public games */\n    tag_3:\n      callvalue\n        /* \"--CODEGEN--\":8:17   */\n      dup1\n        /* \"--CODEGEN--\":5:7   */\n      iszero\n      tag_36\n      jumpi\n        /* \"--CODEGEN--\":30:31   */\n      0x00\n        /* \"--CODEGEN--\":27:28   */\n      dup1\n        /* \"--CODEGEN--\":20:32   */\n      revert\n        /* \"--CODEGEN--\":5:7   */\n    tag_36:\n        /* \"AllContracts.sol\":6524:6558  mapping(uint => Game) public games */\n      pop\n      tag_37\n      0x04\n      dup1\n      calldatasize\n      sub\n        /* \"--CODEGEN--\":13:15   */\n      0x20\n        /* \"--CODEGEN--\":8:11   */\n      dup2\n        /* \"--CODEGEN--\":5:16   */\n      lt\n        /* \"--CODEGEN--\":2:4   */\n      iszero\n      tag_38\n      jumpi\n        /* \"--CODEGEN--\":29:30   */\n      0x00\n        /* \"--CODEGEN--\":26:27   */\n      dup1\n        /* \"--CODEGEN--\":19:31   */\n      revert\n        /* \"--CODEGEN--\":2:4   */\n    tag_38:\n        /* \"AllContracts.sol\":6524:6558  mapping(uint => Game) public games */\n      dup2\n      add\n      swap1\n      dup1\n      dup1\n      calldataload\n      swap1\n      0x20\n      add\n      swap1\n      swap3\n      swap2\n      swap1\n      pop\n      pop\n      pop\n      tag_39\n      jump\t// in\n    tag_37:\n      mload(0x40)\n      dup1\n      dup8\n      dup2\n      mstore\n      0x20\n      add\n      dup7\n      0xffffffffffffffffffffffffffffffffffffffff\n      and\n      0xffffffffffffffffffffffffffffffffffffffff\n      and\n      dup2\n      mstore\n      0x20\n      add\n      dup6\n      dup2\n      mstore\n      0x20\n      add\n      dup5\n      dup2\n      mstore\n      0x20\n      add\n      dup4\n      dup2\n      mstore\n      0x20\n      add\n      dup3\n      iszero\n      iszero\n      iszero\n      iszero\n      dup2\n      mstore\n      0x20\n      add\n      swap7\n      pop\n      pop\n      pop\n      pop\n      pop\n      pop\n      pop\n      mload(0x40)\n      dup1\n      swap2\n      sub\n      swap1\n      return\n        /* \"AllContracts.sol\":6299:6317  uint public maxBet */\n    tag_4:\n      callvalue\n        /* \"--CODEGEN--\":8:17   */\n      dup1\n        /* \"--CODEGEN--\":5:7   */\n      iszero\n      tag_40\n      jumpi\n        /* \"--CODEGEN--\":30:31   */\n      0x00\n        /* \"--CODEGEN--\":27:28   */\n      dup1\n        /* \"--CODEGEN--\":20:32   */\n      revert\n        /* \"--CODEGEN--\":5:7   */\n    tag_40:\n        /* \"AllContracts.sol\":6299:6317  uint public maxBet */\n      pop\n      tag_41\n      tag_42\n      jump\t// in\n    tag_41:\n      mload(0x40)\n      dup1\n      dup3\n      dup2\n      mstore\n      0x20\n      add\n      swap2\n      pop\n      pop\n      mload(0x40)\n      dup1\n      swap2\n      sub\n      swap1\n      return\n        /* \"AllContracts.sol\":6274:6293  uint public maxPick */\n    tag_5:\n      callvalue\n        /* \"--CODEGEN--\":8:17   */\n      dup1\n        /* \"--CODEGEN--\":5:7   */\n      iszero\n      tag_43\n      jumpi\n        /* \"--CODEGEN--\":30:31   */\n      0x00\n        /* \"--CODEGEN--\":27:28   */\n      dup1\n        /* \"--CODEGEN--\":20:32   */\n      revert\n        /* \"--CODEGEN--\":5:7   */\n    tag_43:\n        /* \"AllContracts.sol\":6274:6293  uint public maxPick */\n      pop\n      tag_44\n      tag_45\n      jump\t// in\n    tag_44:\n      mload(0x40)\n      dup1\n      dup3\n      dup2\n      mstore\n      0x20\n      add\n      swap2\n      pop\n      pop\n      mload(0x40)\n      dup1\n      swap2\n      sub\n      swap1\n      return\n        /* \"AllContracts.sol\":13011:13133  function setPayoutAddress(address payable _payoutAddress) public onlyOwner {... */\n    tag_6:\n      callvalue\n        /* \"--CODEGEN--\":8:17   */\n      dup1\n        /* \"--CODEGEN--\":5:7   */\n      iszero\n      tag_46\n      jumpi\n        /* \"--CODEGEN--\":30:31   */\n      0x00\n        /* \"--CODEGEN--\":27:28   */\n      dup1\n        /* \"--CODEGEN--\":20:32   */\n      revert\n        /* \"--CODEGEN--\":5:7   */\n    tag_46:\n        /* \"AllContracts.sol\":13011:13133  function setPayoutAddress(address payable _payoutAddress) public onlyOwner {... */\n      pop\n      tag_47\n      0x04\n      dup1\n      calldatasize\n      sub\n        /* \"--CODEGEN--\":13:15   */\n      0x20\n        /* \"--CODEGEN--\":8:11   */\n      dup2\n        /* \"--CODEGEN--\":5:16   */\n      lt\n        /* \"--CODEGEN--\":2:4   */\n      iszero\n      tag_48\n      jumpi\n        /* \"--CODEGEN--\":29:30   */\n      0x00\n        /* \"--CODEGEN--\":26:27   */\n      dup1\n        /* \"--CODEGEN--\":19:31   */\n      revert\n        /* \"--CODEGEN--\":2:4   */\n    tag_48:\n        /* \"AllContracts.sol\":13011:13133  function setPayoutAddress(address payable _payoutAddress) public onlyOwner {... */\n      dup2\n      add\n      swap1\n      dup1\n      dup1\n      calldataload\n      0xffffffffffffffffffffffffffffffffffffffff\n      and\n      swap1\n      0x20\n      add\n      swap1\n      swap3\n      swap2\n      swap1\n      pop\n      pop\n      pop\n      tag_49\n      jump\t// in\n    tag_47:\n      stop\n        /* \"AllContracts.sol\":10084:10161  function getSeed() public view returns(uint256) {... */\n    tag_7:\n      callvalue\n        /* \"--CODEGEN--\":8:17   */\n      dup1\n        /* \"--CODEGEN--\":5:7   */\n      iszero\n      tag_50\n      jumpi\n        /* \"--CODEGEN--\":30:31   */\n      0x00\n        /* \"--CODEGEN--\":27:28   */\n      dup1\n        /* \"--CODEGEN--\":20:32   */\n      revert\n        /* \"--CODEGEN--\":5:7   */\n    tag_50:\n        /* \"AllContracts.sol\":10084:10161  function getSeed() public view returns(uint256) {... */\n      pop\n      tag_51\n      tag_52\n      jump\t// in\n    tag_51:\n      mload(0x40)\n      dup1\n      dup3\n      dup2\n      mstore\n      0x20\n      add\n      swap2\n      pop\n      pop\n      mload(0x40)\n      dup1\n      swap2\n      sub\n      swap1\n      return\n        /* \"AllContracts.sol\":12479:12643  function getSummary() public view returns(uint, uint, uint, uint) {... */\n    tag_8:\n      callvalue\n        /* \"--CODEGEN--\":8:17   */\n      dup1\n        /* \"--CODEGEN--\":5:7   */\n      iszero\n      tag_53\n      jumpi\n        /* \"--CODEGEN--\":30:31   */\n      0x00\n        /* \"--CODEGEN--\":27:28   */\n      dup1\n        /* \"--CODEGEN--\":20:32   */\n      revert\n        /* \"--CODEGEN--\":5:7   */\n    tag_53:\n        /* \"AllContracts.sol\":12479:12643  function getSummary() public view returns(uint, uint, uint, uint) {... */\n      pop\n      tag_54\n      tag_55\n      jump\t// in\n    tag_54:\n      mload(0x40)\n      dup1\n      dup6\n      dup2\n      mstore\n      0x20\n      add\n      dup5\n      dup2\n      mstore\n      0x20\n      add\n      dup4\n      dup2\n      mstore\n      0x20\n      add\n      dup3\n      dup2\n      mstore\n      0x20\n      add\n      swap5\n      pop\n      pop\n      pop\n      pop\n      pop\n      mload(0x40)\n      dup1\n      swap2\n      sub\n      swap1\n      return\n        /* \"AllContracts.sol\":12673:12791  function setVRFCoordinator(address _vrfCoordinator) public onlyOwner {... */\n    tag_9:\n      callvalue\n        /* \"--CODEGEN--\":8:17   */\n      dup1\n        /* \"--CODEGEN--\":5:7   */\n      iszero\n      tag_56\n      jumpi\n        /* \"--CODEGEN--\":30:31   */\n      0x00\n        /* \"--CODEGEN--\":27:28   */\n      dup1\n        /* \"--CODEGEN--\":20:32   */\n      revert\n        /* \"--CODEGEN--\":5:7   */\n    tag_56:\n        /* \"AllContracts.sol\":12673:12791  function setVRFCoordinator(address _vrfCoordinator) public onlyOwner {... */\n      pop\n      tag_57\n      0x04\n      dup1\n      calldatasize\n      sub\n        /* \"--CODEGEN--\":13:15   */\n      0x20\n        /* \"--CODEGEN--\":8:11   */\n      dup2\n        /* \"--CODEGEN--\":5:16   */\n      lt\n        /* \"--CODEGEN--\":2:4   */\n      iszero\n      tag_58\n      jumpi\n        /* \"--CODEGEN--\":29:30   */\n      0x00\n        /* \"--CODEGEN--\":26:27   */\n      dup1\n        /* \"--CODEGEN--\":19:31   */\n      revert\n        /* \"--CODEGEN--\":2:4   */\n    tag_58:\n        /* \"AllContracts.sol\":12673:12791  function setVRFCoordinator(address _vrfCoordinator) public onlyOwner {... */\n      dup2\n      add\n      swap1\n      dup1\n      dup1\n      calldataload\n      0xffffffffffffffffffffffffffffffffffffffff\n      and\n      swap1\n      0x20\n      add\n      swap1\n      swap3\n      swap2\n      swap1\n      pop\n      pop\n      pop\n      tag_59\n      jump\t// in\n    tag_57:\n      stop\n        /* \"AllContracts.sol\":7617:7721  function getLinkBalance() public view returns(uint){... */\n    tag_10:\n      callvalue\n        /* \"--CODEGEN--\":8:17   */\n      dup1\n        /* \"--CODEGEN--\":5:7   */\n      iszero\n      tag_60\n      jumpi\n        /* \"--CODEGEN--\":30:31   */\n      0x00\n        /* \"--CODEGEN--\":27:28   */\n      dup1\n        /* \"--CODEGEN--\":20:32   */\n      revert\n        /* \"--CODEGEN--\":5:7   */\n    tag_60:\n        /* \"AllContracts.sol\":7617:7721  function getLinkBalance() public view returns(uint){... */\n      pop\n      tag_61\n      tag_62\n      jump\t// in\n    tag_61:\n      mload(0x40)\n      dup1\n      dup3\n      dup2\n      mstore\n      0x20\n      add\n      swap2\n      pop\n      pop\n      mload(0x40)\n      dup1\n      swap2\n      sub\n      swap1\n      return\n        /* \"AllContracts.sol\":6410:6446  address payable public payoutAddress */\n    tag_11:\n      callvalue\n        /* \"--CODEGEN--\":8:17   */\n      dup1\n        /* \"--CODEGEN--\":5:7   */\n      iszero\n      tag_63\n      jumpi\n        /* \"--CODEGEN--\":30:31   */\n      0x00\n        /* \"--CODEGEN--\":27:28   */\n      dup1\n        /* \"--CODEGEN--\":20:32   */\n      revert\n        /* \"--CODEGEN--\":5:7   */\n    tag_63:\n        /* \"AllContracts.sol\":6410:6446  address payable public payoutAddress */\n      pop\n      tag_64\n      tag_65\n      jump\t// in\n    tag_64:\n      mload(0x40)\n      dup1\n      dup3\n      0xffffffffffffffffffffffffffffffffffffffff\n      and\n      0xffffffffffffffffffffffffffffffffffffffff\n      and\n      dup2\n      mstore\n      0x20\n      add\n      swap2\n      pop\n      pop\n      mload(0x40)\n      dup1\n      swap2\n      sub\n      swap1\n      return\n        /* \"AllContracts.sol\":6452:6470  uint public payout */\n    tag_12:\n      callvalue\n        /* \"--CODEGEN--\":8:17   */\n      dup1\n        /* \"--CODEGEN--\":5:7   */\n      iszero\n      tag_66\n      jumpi\n        /* \"--CODEGEN--\":30:31   */\n      0x00\n        /* \"--CODEGEN--\":27:28   */\n      dup1\n        /* \"--CODEGEN--\":20:32   */\n      revert\n        /* \"--CODEGEN--\":5:7   */\n    tag_66:\n        /* \"AllContracts.sol\":6452:6470  uint public payout */\n      pop\n      tag_67\n      tag_68\n      jump\t// in\n    tag_67:\n      mload(0x40)\n      dup1\n      dup3\n      dup2\n      mstore\n      0x20\n      add\n      swap2\n      pop\n      pop\n      mload(0x40)\n      dup1\n      swap2\n      sub\n      swap1\n      return\n        /* \"AllContracts.sol\":1550:1695  function renounceOwnership() public virtual onlyOwner {... */\n    tag_13:\n      callvalue\n        /* \"--CODEGEN--\":8:17   */\n      dup1\n        /* \"--CODEGEN--\":5:7   */\n      iszero\n      tag_69\n      jumpi\n        /* \"--CODEGEN--\":30:31   */\n      0x00\n        /* \"--CODEGEN--\":27:28   */\n      dup1\n        /* \"--CODEGEN--\":20:32   */\n      revert\n        /* \"--CODEGEN--\":5:7   */\n    tag_69:\n        /* \"AllContracts.sol\":1550:1695  function renounceOwnership() public virtual onlyOwner {... */\n      pop\n      tag_70\n      tag_71\n      jump\t// in\n    tag_70:\n      stop\n        /* \"AllContracts.sol\":13344:13449  function withdrawLink(uint amount) public onlyOwner {... */\n    tag_14:\n      callvalue\n        /* \"--CODEGEN--\":8:17   */\n      dup1\n        /* \"--CODEGEN--\":5:7   */\n      iszero\n      tag_72\n      jumpi\n        /* \"--CODEGEN--\":30:31   */\n      0x00\n        /* \"--CODEGEN--\":27:28   */\n      dup1\n        /* \"--CODEGEN--\":20:32   */\n      revert\n        /* \"--CODEGEN--\":5:7   */\n    tag_72:\n        /* \"AllContracts.sol\":13344:13449  function withdrawLink(uint amount) public onlyOwner {... */\n      pop\n      tag_73\n      0x04\n      dup1\n      calldatasize\n      sub\n        /* \"--CODEGEN--\":13:15   */\n      0x20\n        /* \"--CODEGEN--\":8:11   */\n      dup2\n        /* \"--CODEGEN--\":5:16   */\n      lt\n        /* \"--CODEGEN--\":2:4   */\n      iszero\n      tag_74\n      jumpi\n        /* \"--CODEGEN--\":29:30   */\n      0x00\n        /* \"--CODEGEN--\":26:27   */\n      dup1\n        /* \"--CODEGEN--\":19:31   */\n      revert\n        /* \"--CODEGEN--\":2:4   */\n    tag_74:\n        /* \"AllContracts.sol\":13344:13449  function withdrawLink(uint amount) public onlyOwner {... */\n      dup2\n      add\n      swap1\n      dup1\n      dup1\n      calldataload\n      swap1\n      0x20\n      add\n      swap1\n      swap3\n      swap2\n      swap1\n      pop\n      pop\n      pop\n      tag_75\n      jump\t// in\n    tag_73:\n      stop\n        /* \"AllContracts.sol\":6564:6609  mapping(bytes32 => uint) public _gameRequests */\n    tag_15:\n      callvalue\n        /* \"--CODEGEN--\":8:17   */\n      dup1\n        /* \"--CODEGEN--\":5:7   */\n      iszero\n      tag_76\n      jumpi\n        /* \"--CODEGEN--\":30:31   */\n      0x00\n        /* \"--CODEGEN--\":27:28   */\n      dup1\n        /* \"--CODEGEN--\":20:32   */\n      revert\n        /* \"--CODEGEN--\":5:7   */\n    tag_76:\n        /* \"AllContracts.sol\":6564:6609  mapping(bytes32 => uint) public _gameRequests */\n      pop\n      tag_77\n      0x04\n      dup1\n      calldatasize\n      sub\n        /* \"--CODEGEN--\":13:15   */\n      0x20\n        /* \"--CODEGEN--\":8:11   */\n      dup2\n        /* \"--CODEGEN--\":5:16   */\n      lt\n        /* \"--CODEGEN--\":2:4   */\n      iszero\n      tag_78\n      jumpi\n        /* \"--CODEGEN--\":29:30   */\n      0x00\n        /* \"--CODEGEN--\":26:27   */\n      dup1\n        /* \"--CODEGEN--\":19:31   */\n      revert\n        /* \"--CODEGEN--\":2:4   */\n    tag_78:\n        /* \"AllContracts.sol\":6564:6609  mapping(bytes32 => uint) public _gameRequests */\n      dup2\n      add\n      swap1\n      dup1\n      dup1\n      calldataload\n      swap1\n      0x20\n      add\n      swap1\n      swap3\n      swap2\n      swap1\n      pop\n      pop\n      pop\n      tag_79\n      jump\t// in\n    tag_77:\n      mload(0x40)\n      dup1\n      dup3\n      dup2\n      mstore\n      0x20\n      add\n      swap2\n      pop\n      pop\n      mload(0x40)\n      dup1\n      swap2\n      sub\n      swap1\n      return\n        /* \"AllContracts.sol\":927:1004  function owner() public view returns (address) {... */\n    tag_16:\n      callvalue\n        /* \"--CODEGEN--\":8:17   */\n      dup1\n        /* \"--CODEGEN--\":5:7   */\n      iszero\n      tag_80\n      jumpi\n        /* \"--CODEGEN--\":30:31   */\n      0x00\n        /* \"--CODEGEN--\":27:28   */\n      dup1\n        /* \"--CODEGEN--\":20:32   */\n      revert\n        /* \"--CODEGEN--\":5:7   */\n    tag_80:\n        /* \"AllContracts.sol\":927:1004  function owner() public view returns (address) {... */\n      pop\n      tag_81\n      tag_82\n      jump\t// in\n    tag_81:\n      mload(0x40)\n      dup1\n      dup3\n      0xffffffffffffffffffffffffffffffffffffffff\n      and\n      0xffffffffffffffffffffffffffffffffffffffff\n      and\n      dup2\n      mstore\n      0x20\n      add\n      swap2\n      pop\n      pop\n      mload(0x40)\n      dup1\n      swap2\n      sub\n      swap1\n      return\n        /* \"AllContracts.sol\":5522:5729  function rawFulfillRandomness(bytes32 requestId, uint256 randomness) external {... */\n    tag_17:\n      callvalue\n        /* \"--CODEGEN--\":8:17   */\n      dup1\n        /* \"--CODEGEN--\":5:7   */\n      iszero\n      tag_83\n      jumpi\n        /* \"--CODEGEN--\":30:31   */\n      0x00\n        /* \"--CODEGEN--\":27:28   */\n      dup1\n        /* \"--CODEGEN--\":20:32   */\n      revert\n        /* \"--CODEGEN--\":5:7   */\n    tag_83:\n        /* \"AllContracts.sol\":5522:5729  function rawFulfillRandomness(bytes32 requestId, uint256 randomness) external {... */\n      pop\n      tag_84\n      0x04\n      dup1\n      calldatasize\n      sub\n        /* \"--CODEGEN--\":13:15   */\n      0x40\n        /* \"--CODEGEN--\":8:11   */\n      dup2\n        /* \"--CODEGEN--\":5:16   */\n      lt\n        /* \"--CODEGEN--\":2:4   */\n      iszero\n      tag_85\n      jumpi\n        /* \"--CODEGEN--\":29:30   */\n      0x00\n        /* \"--CODEGEN--\":26:27   */\n      dup1\n        /* \"--CODEGEN--\":19:31   */\n      revert\n        /* \"--CODEGEN--\":2:4   */\n    tag_85:\n        /* \"AllContracts.sol\":5522:5729  function rawFulfillRandomness(bytes32 requestId, uint256 randomness) external {... */\n      dup2\n      add\n      swap1\n      dup1\n      dup1\n      calldataload\n      swap1\n      0x20\n      add\n      swap1\n      swap3\n      swap2\n      swap1\n      dup1\n      calldataload\n      swap1\n      0x20\n      add\n      swap1\n      swap3\n      swap2\n      swap1\n      pop\n      pop\n      pop\n      tag_86\n      jump\t// in\n    tag_84:\n      stop\n        /* \"AllContracts.sol\":6323:6341  uint public minBet */\n    tag_18:\n      callvalue\n        /* \"--CODEGEN--\":8:17   */\n      dup1\n        /* \"--CODEGEN--\":5:7   */\n      iszero\n      tag_87\n      jumpi\n        /* \"--CODEGEN--\":30:31   */\n      0x00\n        /* \"--CODEGEN--\":27:28   */\n      dup1\n        /* \"--CODEGEN--\":20:32   */\n      revert\n        /* \"--CODEGEN--\":5:7   */\n    tag_87:\n        /* \"AllContracts.sol\":6323:6341  uint public minBet */\n      pop\n      tag_88\n      tag_89\n      jump\t// in\n    tag_88:\n      mload(0x40)\n      dup1\n      dup3\n      dup2\n      mstore\n      0x20\n      add\n      swap2\n      pop\n      pop\n      mload(0x40)\n      dup1\n      swap2\n      sub\n      swap1\n      return\n        /* \"AllContracts.sol\":12797:12887  function setKeyHash(bytes32 _keyHash) public onlyOwner {... */\n    tag_19:\n      callvalue\n        /* \"--CODEGEN--\":8:17   */\n      dup1\n        /* \"--CODEGEN--\":5:7   */\n      iszero\n      tag_90\n      jumpi\n        /* \"--CODEGEN--\":30:31   */\n      0x00\n        /* \"--CODEGEN--\":27:28   */\n      dup1\n        /* \"--CODEGEN--\":20:32   */\n      revert\n        /* \"--CODEGEN--\":5:7   */\n    tag_90:\n        /* \"AllContracts.sol\":12797:12887  function setKeyHash(bytes32 _keyHash) public onlyOwner {... */\n      pop\n      tag_91\n      0x04\n      dup1\n      calldatasize\n      sub\n        /* \"--CODEGEN--\":13:15   */\n      0x20\n        /* \"--CODEGEN--\":8:11   */\n      dup2\n        /* \"--CODEGEN--\":5:16   */\n      lt\n        /* \"--CODEGEN--\":2:4   */\n      iszero\n      tag_92\n      jumpi\n        /* \"--CODEGEN--\":29:30   */\n      0x00\n        /* \"--CODEGEN--\":26:27   */\n      dup1\n        /* \"--CODEGEN--\":19:31   */\n      revert\n        /* \"--CODEGEN--\":2:4   */\n    tag_92:\n        /* \"AllContracts.sol\":12797:12887  function setKeyHash(bytes32 _keyHash) public onlyOwner {... */\n      dup2\n      add\n      swap1\n      dup1\n      dup1\n      calldataload\n      swap1\n      0x20\n      add\n      swap1\n      swap3\n      swap2\n      swap1\n      pop\n      pop\n      pop\n      tag_93\n      jump\t// in\n    tag_91:\n      stop\n        /* \"AllContracts.sol\":5307:5374  mapping(bytes32 /* keyHash */ => uint256 /* nonce */) public nonces */\n    tag_20:\n      callvalue\n        /* \"--CODEGEN--\":8:17   */\n      dup1\n        /* \"--CODEGEN--\":5:7   */\n      iszero\n      tag_94\n      jumpi\n        /* \"--CODEGEN--\":30:31   */\n      0x00\n        /* \"--CODEGEN--\":27:28   */\n      dup1\n        /* \"--CODEGEN--\":20:32   */\n      revert\n        /* \"--CODEGEN--\":5:7   */\n    tag_94:\n        /* \"AllContracts.sol\":5307:5374  mapping(bytes32 /* keyHash */ => uint256 /* nonce */) public nonces */\n      pop\n      tag_95\n      0x04\n      dup1\n      calldatasize\n      sub\n        /* \"--CODEGEN--\":13:15   */\n      0x20\n        /* \"--CODEGEN--\":8:11   */\n      dup2\n        /* \"--CODEGEN--\":5:16   */\n      lt\n        /* \"--CODEGEN--\":2:4   */\n      iszero\n      tag_96\n      jumpi\n        /* \"--CODEGEN--\":29:30   */\n      0x00\n        /* \"--CODEGEN--\":26:27   */\n      dup1\n        /* \"--CODEGEN--\":19:31   */\n      revert\n        /* \"--CODEGEN--\":2:4   */\n    tag_96:\n        /* \"AllContracts.sol\":5307:5374  mapping(bytes32 /* keyHash */ => uint256 /* nonce */) public nonces */\n      dup2\n      add\n      swap1\n      dup1\n      dup1\n      calldataload\n      swap1\n      0x20\n      add\n      swap1\n      swap3\n      swap2\n      swap1\n      pop\n      pop\n      pop\n      tag_97\n      jump\t// in\n    tag_95:\n      mload(0x40)\n      dup1\n      dup3\n      dup2\n      mstore\n      0x20\n      add\n      swap2\n      pop\n      pop\n      mload(0x40)\n      dup1\n      swap2\n      sub\n      swap1\n      return\n        /* \"AllContracts.sol\":12893:13005  function setLINK(address _linkAddress) public onlyOwner {... */\n    tag_21:\n      callvalue\n        /* \"--CODEGEN--\":8:17   */\n      dup1\n        /* \"--CODEGEN--\":5:7   */\n      iszero\n      tag_98\n      jumpi\n        /* \"--CODEGEN--\":30:31   */\n      0x00\n        /* \"--CODEGEN--\":27:28   */\n      dup1\n        /* \"--CODEGEN--\":20:32   */\n      revert\n        /* \"--CODEGEN--\":5:7   */\n    tag_98:\n        /* \"AllContracts.sol\":12893:13005  function setLINK(address _linkAddress) public onlyOwner {... */\n      pop\n      tag_99\n      0x04\n      dup1\n      calldatasize\n      sub\n        /* \"--CODEGEN--\":13:15   */\n      0x20\n        /* \"--CODEGEN--\":8:11   */\n      dup2\n        /* \"--CODEGEN--\":5:16   */\n      lt\n        /* \"--CODEGEN--\":2:4   */\n      iszero\n      tag_100\n      jumpi\n        /* \"--CODEGEN--\":29:30   */\n      0x00\n        /* \"--CODEGEN--\":26:27   */\n      dup1\n        /* \"--CODEGEN--\":19:31   */\n      revert\n        /* \"--CODEGEN--\":2:4   */\n    tag_100:\n        /* \"AllContracts.sol\":12893:13005  function setLINK(address _linkAddress) public onlyOwner {... */\n      dup2\n      add\n      swap1\n      dup1\n      dup1\n      calldataload\n      0xffffffffffffffffffffffffffffffffffffffff\n      and\n      swap1\n      0x20\n      add\n      swap1\n      swap3\n      swap2\n      swap1\n      pop\n      pop\n      pop\n      tag_101\n      jump\t// in\n    tag_99:\n      stop\n        /* \"AllContracts.sol\":12010:12473  function requestRefund(uint gameID) public{... */\n    tag_22:\n      callvalue\n        /* \"--CODEGEN--\":8:17   */\n      dup1\n        /* \"--CODEGEN--\":5:7   */\n      iszero\n      tag_102\n      jumpi\n        /* \"--CODEGEN--\":30:31   */\n      0x00\n        /* \"--CODEGEN--\":27:28   */\n      dup1\n        /* \"--CODEGEN--\":20:32   */\n      revert\n        /* \"--CODEGEN--\":5:7   */\n    tag_102:\n        /* \"AllContracts.sol\":12010:12473  function requestRefund(uint gameID) public{... */\n      pop\n      tag_103\n      0x04\n      dup1\n      calldatasize\n      sub\n        /* \"--CODEGEN--\":13:15   */\n      0x20\n        /* \"--CODEGEN--\":8:11   */\n      dup2\n        /* \"--CODEGEN--\":5:16   */\n      lt\n        /* \"--CODEGEN--\":2:4   */\n      iszero\n      tag_104\n      jumpi\n        /* \"--CODEGEN--\":29:30   */\n      0x00\n        /* \"--CODEGEN--\":26:27   */\n      dup1\n        /* \"--CODEGEN--\":19:31   */\n      revert\n        /* \"--CODEGEN--\":2:4   */\n    tag_104:\n        /* \"AllContracts.sol\":12010:12473  function requestRefund(uint gameID) public{... */\n      dup2\n      add\n      swap1\n      dup1\n      dup1\n      calldataload\n      swap1\n      0x20\n      add\n      swap1\n      swap3\n      swap2\n      swap1\n      pop\n      pop\n      pop\n      tag_105\n      jump\t// in\n    tag_103:\n      stop\n        /* \"AllContracts.sol\":8363:8972  function placeBetFor(address payable player, uint pick) public payable {... */\n    tag_23:\n      tag_106\n      0x04\n      dup1\n      calldatasize\n      sub\n        /* \"--CODEGEN--\":13:15   */\n      0x40\n        /* \"--CODEGEN--\":8:11   */\n      dup2\n        /* \"--CODEGEN--\":5:16   */\n      lt\n        /* \"--CODEGEN--\":2:4   */\n      iszero\n      tag_107\n      jumpi\n        /* \"--CODEGEN--\":29:30   */\n      0x00\n        /* \"--CODEGEN--\":26:27   */\n      dup1\n        /* \"--CODEGEN--\":19:31   */\n      revert\n        /* \"--CODEGEN--\":2:4   */\n    tag_107:\n        /* \"AllContracts.sol\":8363:8972  function placeBetFor(address payable player, uint pick) public payable {... */\n      dup2\n      add\n      swap1\n      dup1\n      dup1\n      calldataload\n      0xffffffffffffffffffffffffffffffffffffffff\n      and\n      swap1\n      0x20\n      add\n      swap1\n      swap3\n      swap2\n      swap1\n      dup1\n      calldataload\n      swap1\n      0x20\n      add\n      swap1\n      swap3\n      swap2\n      swap1\n      pop\n      pop\n      pop\n      tag_108\n      jump\t// in\n    tag_106:\n      stop\n        /* \"AllContracts.sol\":13455:13777  function closeMachine() public onlyOwner {... */\n    tag_24:\n      callvalue\n        /* \"--CODEGEN--\":8:17   */\n      dup1\n        /* \"--CODEGEN--\":5:7   */\n      iszero\n      tag_109\n      jumpi\n        /* \"--CODEGEN--\":30:31   */\n      0x00\n        /* \"--CODEGEN--\":27:28   */\n      dup1\n        /* \"--CODEGEN--\":20:32   */\n      revert\n        /* \"--CODEGEN--\":5:7   */\n    tag_109:\n        /* \"AllContracts.sol\":13455:13777  function closeMachine() public onlyOwner {... */\n      pop\n      tag_110\n      tag_111\n      jump\t// in\n    tag_110:\n      stop\n        /* \"AllContracts.sol\":13139:13338  function withdrawEth(uint amount) public onlyOwner {... */\n    tag_25:\n      callvalue\n        /* \"--CODEGEN--\":8:17   */\n      dup1\n        /* \"--CODEGEN--\":5:7   */\n      iszero\n      tag_112\n      jumpi\n        /* \"--CODEGEN--\":30:31   */\n      0x00\n        /* \"--CODEGEN--\":27:28   */\n      dup1\n        /* \"--CODEGEN--\":20:32   */\n      revert\n        /* \"--CODEGEN--\":5:7   */\n    tag_112:\n        /* \"AllContracts.sol\":13139:13338  function withdrawEth(uint amount) public onlyOwner {... */\n      pop\n      tag_113\n      0x04\n      dup1\n      calldatasize\n      sub\n        /* \"--CODEGEN--\":13:15   */\n      0x20\n        /* \"--CODEGEN--\":8:11   */\n      dup2\n        /* \"--CODEGEN--\":5:16   */\n      lt\n        /* \"--CODEGEN--\":2:4   */\n      iszero\n      tag_114\n      jumpi\n        /* \"--CODEGEN--\":29:30   */\n      0x00\n        /* \"--CODEGEN--\":26:27   */\n      dup1\n        /* \"--CODEGEN--\":19:31   */\n      revert\n        /* \"--CODEGEN--\":2:4   */\n    tag_114:\n        /* \"AllContracts.sol\":13139:13338  function withdrawEth(uint amount) public onlyOwner {... */\n      dup2\n      add\n      swap1\n      dup1\n      dup1\n      calldataload\n      swap1\n      0x20\n      add\n      swap1\n      swap3\n      swap2\n      swap1\n      pop\n      pop\n      pop\n      tag_115\n      jump\t// in\n    tag_113:\n      stop\n        /* \"AllContracts.sol\":8978:9639  function safeBetFor(address payable player, uint pick) public payable {... */\n    tag_26:\n      tag_116\n      0x04\n      dup1\n      calldatasize\n      sub\n        /* \"--CODEGEN--\":13:15   */\n      0x40\n        /* \"--CODEGEN--\":8:11   */\n      dup2\n        /* \"--CODEGEN--\":5:16   */\n      lt\n        /* \"--CODEGEN--\":2:4   */\n      iszero\n      tag_117\n      jumpi\n        /* \"--CODEGEN--\":29:30   */\n      0x00\n        /* \"--CODEGEN--\":26:27   */\n      dup1\n        /* \"--CODEGEN--\":19:31   */\n      revert\n        /* \"--CODEGEN--\":2:4   */\n    tag_117:\n        /* \"AllContracts.sol\":8978:9639  function safeBetFor(address payable player, uint pick) public payable {... */\n      dup2\n      add\n      swap1\n      dup1\n      dup1\n      calldataload\n      0xffffffffffffffffffffffffffffffffffffffff\n      and\n      swap1\n      0x20\n      add\n      swap1\n      swap3\n      swap2\n      swap1\n      dup1\n      calldataload\n      swap1\n      0x20\n      add\n      swap1\n      swap3\n      swap2\n      swap1\n      pop\n      pop\n      pop\n      tag_118\n      jump\t// in\n    tag_116:\n      stop\n        /* \"AllContracts.sol\":1844:2084  function transferOwnership(address newOwner) public virtual onlyOwner {... */\n    tag_27:\n      callvalue\n        /* \"--CODEGEN--\":8:17   */\n      dup1\n        /* \"--CODEGEN--\":5:7   */\n      iszero\n      tag_119\n      jumpi\n        /* \"--CODEGEN--\":30:31   */\n      0x00\n        /* \"--CODEGEN--\":27:28   */\n      dup1\n        /* \"--CODEGEN--\":20:32   */\n      revert\n        /* \"--CODEGEN--\":5:7   */\n    tag_119:\n        /* \"AllContracts.sol\":1844:2084  function transferOwnership(address newOwner) public virtual onlyOwner {... */\n      pop\n      tag_120\n      0x04\n      dup1\n      calldatasize\n      sub\n        /* \"--CODEGEN--\":13:15   */\n      0x20\n        /* \"--CODEGEN--\":8:11   */\n      dup2\n        /* \"--CODEGEN--\":5:16   */\n      lt\n        /* \"--CODEGEN--\":2:4   */\n      iszero\n      tag_121\n      jumpi\n        /* \"--CODEGEN--\":29:30   */\n      0x00\n        /* \"--CODEGEN--\":26:27   */\n      dup1\n        /* \"--CODEGEN--\":19:31   */\n      revert\n        /* \"--CODEGEN--\":2:4   */\n    tag_121:\n        /* \"AllContracts.sol\":1844:2084  function transferOwnership(address newOwner) public virtual onlyOwner {... */\n      dup2\n      add\n      swap1\n      dup1\n      dup1\n      calldataload\n      0xffffffffffffffffffffffffffffffffffffffff\n      and\n      swap1\n      0x20\n      add\n      swap1\n      swap3\n      swap2\n      swap1\n      pop\n      pop\n      pop\n      tag_122\n      jump\t// in\n    tag_120:\n      stop\n        /* \"AllContracts.sol\":13783:13866  function replayGame(uint gameID) public onlyOwner {... */\n    tag_28:\n      callvalue\n        /* \"--CODEGEN--\":8:17   */\n      dup1\n        /* \"--CODEGEN--\":5:7   */\n      iszero\n      tag_123\n      jumpi\n        /* \"--CODEGEN--\":30:31   */\n      0x00\n        /* \"--CODEGEN--\":27:28   */\n      dup1\n        /* \"--CODEGEN--\":20:32   */\n      revert\n        /* \"--CODEGEN--\":5:7   */\n    tag_123:\n        /* \"AllContracts.sol\":13783:13866  function replayGame(uint gameID) public onlyOwner {... */\n      pop\n      tag_124\n      0x04\n      dup1\n      calldatasize\n      sub\n        /* \"--CODEGEN--\":13:15   */\n      0x20\n        /* \"--CODEGEN--\":8:11   */\n      dup2\n        /* \"--CODEGEN--\":5:16   */\n      lt\n        /* \"--CODEGEN--\":2:4   */\n      iszero\n      tag_125\n      jumpi\n        /* \"--CODEGEN--\":29:30   */\n      0x00\n        /* \"--CODEGEN--\":26:27   */\n      dup1\n        /* \"--CODEGEN--\":19:31   */\n      revert\n        /* \"--CODEGEN--\":2:4   */\n    tag_125:\n        /* \"AllContracts.sol\":13783:13866  function replayGame(uint gameID) public onlyOwner {... */\n      dup2\n      add\n      swap1\n      dup1\n      dup1\n      calldataload\n      swap1\n      0x20\n      add\n      swap1\n      swap3\n      swap2\n      swap1\n      pop\n      pop\n      pop\n      tag_126\n      jump\t// in\n    tag_124:\n      stop\n        /* \"AllContracts.sol\":6524:6558  mapping(uint => Game) public games */\n    tag_39:\n      mstore(0x20, 0x17)\n      dup1\n      0x00\n      mstore\n      keccak256(0x00, 0x40)\n      0x00\n      swap2\n      pop\n      swap1\n      pop\n      dup1\n      0x00\n      add\n      sload\n      swap1\n      dup1\n      0x01\n      add\n      0x00\n      swap1\n      sload\n      swap1\n      0x0100\n      exp\n      swap1\n      div\n      0xffffffffffffffffffffffffffffffffffffffff\n      and\n      swap1\n      dup1\n      0x02\n      add\n      sload\n      swap1\n      dup1\n      0x03\n      add\n      sload\n      swap1\n      dup1\n      0x04\n      add\n      sload\n      swap1\n      dup1\n      0x05\n      add\n      0x00\n      swap1\n      sload\n      swap1\n      0x0100\n      exp\n      swap1\n      div\n      0xff\n      and\n      swap1\n      pop\n      dup7\n      jump\t// out\n        /* \"AllContracts.sol\":6299:6317  uint public maxBet */\n    tag_42:\n      sload(0x11)\n      dup2\n      jump\t// out\n        /* \"AllContracts.sol\":6274:6293  uint public maxPick */\n    tag_45:\n      sload(0x10)\n      dup2\n      jump\t// out\n        /* \"AllContracts.sol\":13011:13133  function setPayoutAddress(address payable _payoutAddress) public onlyOwner {... */\n    tag_49:\n        /* \"AllContracts.sol\":1141:1153  _msgSender() */\n      tag_128\n        /* \"AllContracts.sol\":1141:1151  _msgSender */\n      tag_129\n        /* \"AllContracts.sol\":1141:1153  _msgSender() */\n      jump\t// in\n    tag_128:\n        /* \"AllContracts.sol\":1131:1153  _owner == _msgSender() */\n      0xffffffffffffffffffffffffffffffffffffffff\n      and\n        /* \"AllContracts.sol\":1131:1137  _owner */\n      0x03\n      0x00\n      swap1\n      sload\n      swap1\n      0x0100\n      exp\n      swap1\n      div\n      0xffffffffffffffffffffffffffffffffffffffff\n      and\n        /* \"AllContracts.sol\":1131:1153  _owner == _msgSender() */\n      0xffffffffffffffffffffffffffffffffffffffff\n      and\n      eq\n        /* \"AllContracts.sol\":1123:1190  require(_owner == _msgSender(), \"Ownable: caller is not the owner\") */\n      tag_130\n      jumpi\n      mload(0x40)\n      0x08c379a000000000000000000000000000000000000000000000000000000000\n      dup2\n      mstore\n      0x04\n      add\n      dup1\n      dup1\n      0x20\n      add\n      dup3\n      dup2\n      sub\n      dup3\n      mstore\n      0x20\n      dup2\n      mstore\n      0x20\n      add\n      dup1\n      0x4f776e61626c653a2063616c6c6572206973206e6f7420746865206f776e6572\n      dup2\n      mstore\n      pop\n      0x20\n      add\n      swap2\n      pop\n      pop\n      mload(0x40)\n      dup1\n      swap2\n      sub\n      swap1\n      revert\n    tag_130:\n        /* \"AllContracts.sol\":13112:13126  _payoutAddress */\n      dup1\n        /* \"AllContracts.sol\":13096:13109  payoutAddress */\n      0x15\n      0x00\n        /* \"AllContracts.sol\":13096:13126  payoutAddress = _payoutAddress */\n      0x0100\n      exp\n      dup2\n      sload\n      dup2\n      0xffffffffffffffffffffffffffffffffffffffff\n      mul\n      not\n      and\n      swap1\n      dup4\n      0xffffffffffffffffffffffffffffffffffffffff\n      and\n      mul\n      or\n      swap1\n      sstore\n      pop\n        /* \"AllContracts.sol\":13011:13133  function setPayoutAddress(address payable _payoutAddress) public onlyOwner {... */\n      pop\n      jump\t// out\n        /* \"AllContracts.sol\":10084:10161  function getSeed() public view returns(uint256) {... */\n    tag_52:\n        /* \"AllContracts.sol\":10123:10130  uint256 */\n      0x00\n        /* \"AllContracts.sol\":10149:10154  12345 */\n      0x3039\n        /* \"AllContracts.sol\":10142:10154  return 12345 */\n      swap1\n      pop\n        /* \"AllContracts.sol\":10084:10161  function getSeed() public view returns(uint256) {... */\n      swap1\n      jump\t// out\n        /* \"AllContracts.sol\":12479:12643  function getSummary() public view returns(uint, uint, uint, uint) {... */\n    tag_55:\n        /* \"AllContracts.sol\":12521:12525  uint */\n      0x00\n        /* \"AllContracts.sol\":12527:12531  uint */\n      dup1\n        /* \"AllContracts.sol\":12533:12537  uint */\n      0x00\n        /* \"AllContracts.sol\":12539:12543  uint */\n      dup1\n        /* \"AllContracts.sol\":12604:12610  minBet */\n      sload(0x12)\n        /* \"AllContracts.sol\":12612:12618  maxBet */\n      sload(0x11)\n        /* \"AllContracts.sol\":12620:12626  payout */\n      sload(0x16)\n        /* \"AllContracts.sol\":12628:12635  maxPick */\n      sload(0x10)\n        /* \"AllContracts.sol\":12597:12636  return(minBet, maxBet, payout, maxPick) */\n      swap4\n      pop\n      swap4\n      pop\n      swap4\n      pop\n      swap4\n      pop\n        /* \"AllContracts.sol\":12479:12643  function getSummary() public view returns(uint, uint, uint, uint) {... */\n      swap1\n      swap2\n      swap3\n      swap4\n      jump\t// out\n        /* \"AllContracts.sol\":12673:12791  function setVRFCoordinator(address _vrfCoordinator) public onlyOwner {... */\n    tag_59:\n        /* \"AllContracts.sol\":1141:1153  _msgSender() */\n      tag_135\n        /* \"AllContracts.sol\":1141:1151  _msgSender */\n      tag_129\n        /* \"AllContracts.sol\":1141:1153  _msgSender() */\n      jump\t// in\n    tag_135:\n        /* \"AllContracts.sol\":1131:1153  _owner == _msgSender() */\n      0xffffffffffffffffffffffffffffffffffffffff\n      and\n        /* \"AllContracts.sol\":1131:1137  _owner */\n      0x03\n      0x00\n      swap1\n      sload\n      swap1\n      0x0100\n      exp\n      swap1\n      div\n      0xffffffffffffffffffffffffffffffffffffffff\n      and\n        /* \"AllContracts.sol\":1131:1153  _owner == _msgSender() */\n      0xffffffffffffffffffffffffffffffffffffffff\n      and\n      eq\n        /* \"AllContracts.sol\":1123:1190  require(_owner == _msgSender(), \"Ownable: caller is not the owner\") */\n      tag_136\n      jumpi\n      mload(0x40)\n      0x08c379a000000000000000000000000000000000000000000000000000000000\n      dup2\n      mstore\n      0x04\n      add\n      dup1\n      dup1\n      0x20\n      add\n      dup3\n      dup2\n      sub\n      dup3\n      mstore\n      0x20\n      dup2\n      mstore\n      0x20\n      add\n      dup1\n      0x4f776e61626c653a2063616c6c6572206973206e6f7420746865206f776e6572\n      dup2\n      mstore\n      pop\n      0x20\n      add\n      swap2\n      pop\n      pop\n      mload(0x40)\n      dup1\n      swap2\n      sub\n      swap1\n      revert\n    tag_136:\n        /* \"AllContracts.sol\":12769:12784  _vrfCoordinator */\n      dup1\n        /* \"AllContracts.sol\":12752:12766  vrfCoordinator */\n      0x01\n      0x00\n        /* \"AllContracts.sol\":12752:12784  vrfCoordinator = _vrfCoordinator */\n      0x0100\n      exp\n      dup2\n      sload\n      dup2\n      0xffffffffffffffffffffffffffffffffffffffff\n      mul\n      not\n      and\n      swap1\n      dup4\n      0xffffffffffffffffffffffffffffffffffffffff\n      and\n      mul\n      or\n      swap1\n      sstore\n      pop\n        /* \"AllContracts.sol\":12673:12791  function setVRFCoordinator(address _vrfCoordinator) public onlyOwner {... */\n      pop\n      jump\t// out\n        /* \"AllContracts.sol\":7617:7721  function getLinkBalance() public view returns(uint){... */\n    tag_62:\n        /* \"AllContracts.sol\":7663:7667  uint */\n      0x00\n        /* \"AllContracts.sol\":7685:7689  LINK */\n      dup1\n      0x00\n      swap1\n      sload\n      swap1\n      0x0100\n      exp\n      swap1\n      div\n      0xffffffffffffffffffffffffffffffffffffffff\n      and\n        /* \"AllContracts.sol\":7685:7699  LINK.balanceOf */\n      0xffffffffffffffffffffffffffffffffffffffff\n      and\n      0x70a08231\n        /* \"AllContracts.sol\":7708:7712  this */\n      address\n        /* \"AllContracts.sol\":7685:7714  LINK.balanceOf(address(this)) */\n      mload(0x40)\n      dup3\n      0xffffffff\n      and\n      0xe0\n      shl\n      dup2\n      mstore\n      0x04\n      add\n      dup1\n      dup3\n      0xffffffffffffffffffffffffffffffffffffffff\n      and\n      0xffffffffffffffffffffffffffffffffffffffff\n      and\n      dup2\n      mstore\n      0x20\n      add\n      swap2\n      pop\n      pop\n      0x20\n      mload(0x40)\n      dup1\n      dup4\n      sub\n      dup2\n      dup7\n      dup1\n      extcodesize\n      iszero\n        /* \"--CODEGEN--\":8:17   */\n      dup1\n        /* \"--CODEGEN--\":5:7   */\n      iszero\n      tag_139\n      jumpi\n        /* \"--CODEGEN--\":30:31   */\n      0x00\n        /* \"--CODEGEN--\":27:28   */\n      dup1\n        /* \"--CODEGEN--\":20:32   */\n      revert\n        /* \"--CODEGEN--\":5:7   */\n    tag_139:\n        /* \"AllContracts.sol\":7685:7714  LINK.balanceOf(address(this)) */\n      pop\n      gas\n      staticcall\n      iszero\n        /* \"--CODEGEN--\":8:17   */\n      dup1\n        /* \"--CODEGEN--\":5:7   */\n      iszero\n      tag_141\n      jumpi\n        /* \"--CODEGEN--\":45:61   */\n      returndatasize\n        /* \"--CODEGEN--\":42:43   */\n      0x00\n        /* \"--CODEGEN--\":39:40   */\n      dup1\n        /* \"--CODEGEN--\":24:62   */\n      returndatacopy\n        /* \"--CODEGEN--\":77:93   */\n      returndatasize\n        /* \"--CODEGEN--\":74:75   */\n      0x00\n        /* \"--CODEGEN--\":67:94   */\n      revert\n        /* \"--CODEGEN--\":5:7   */\n    tag_141:\n        /* \"AllContracts.sol\":7685:7714  LINK.balanceOf(address(this)) */\n      pop\n      pop\n      pop\n      pop\n      mload(0x40)\n      returndatasize\n        /* \"--CODEGEN--\":13:15   */\n      0x20\n        /* \"--CODEGEN--\":8:11   */\n      dup2\n        /* \"--CODEGEN--\":5:16   */\n      lt\n        /* \"--CODEGEN--\":2:4   */\n      iszero\n      tag_142\n      jumpi\n        /* \"--CODEGEN--\":29:30   */\n      0x00\n        /* \"--CODEGEN--\":26:27   */\n      dup1\n        /* \"--CODEGEN--\":19:31   */\n      revert\n        /* \"--CODEGEN--\":2:4   */\n    tag_142:\n        /* \"AllContracts.sol\":7685:7714  LINK.balanceOf(address(this)) */\n      dup2\n      add\n      swap1\n      dup1\n      dup1\n      mload\n      swap1\n      0x20\n      add\n      swap1\n      swap3\n      swap2\n      swap1\n      pop\n      pop\n      pop\n        /* \"AllContracts.sol\":7678:7714  return LINK.balanceOf(address(this)) */\n      swap1\n      pop\n        /* \"AllContracts.sol\":7617:7721  function getLinkBalance() public view returns(uint){... */\n      swap1\n      jump\t// out\n        /* \"AllContracts.sol\":6410:6446  address payable public payoutAddress */\n    tag_65:\n      0x15\n      0x00\n      swap1\n      sload\n      swap1\n      0x0100\n      exp\n      swap1\n      div\n      0xffffffffffffffffffffffffffffffffffffffff\n      and\n      dup2\n      jump\t// out\n        /* \"AllContracts.sol\":6452:6470  uint public payout */\n    tag_68:\n      sload(0x16)\n      dup2\n      jump\t// out\n        /* \"AllContracts.sol\":1550:1695  function renounceOwnership() public virtual onlyOwner {... */\n    tag_71:\n        /* \"AllContracts.sol\":1141:1153  _msgSender() */\n      tag_144\n        /* \"AllContracts.sol\":1141:1151  _msgSender */\n      tag_129\n        /* \"AllContracts.sol\":1141:1153  _msgSender() */\n      jump\t// in\n    tag_144:\n        /* \"AllContracts.sol\":1131:1153  _owner == _msgSender() */\n      0xffffffffffffffffffffffffffffffffffffffff\n      and\n        /* \"AllContracts.sol\":1131:1137  _owner */\n      0x03\n      0x00\n      swap1\n      sload\n      swap1\n      0x0100\n      exp\n      swap1\n      div\n      0xffffffffffffffffffffffffffffffffffffffff\n      and\n        /* \"AllContracts.sol\":1131:1153  _owner == _msgSender() */\n      0xffffffffffffffffffffffffffffffffffffffff\n      and\n      eq\n        /* \"AllContracts.sol\":1123:1190  require(_owner == _msgSender(), \"Ownable: caller is not the owner\") */\n      tag_145\n      jumpi\n      mload(0x40)\n      0x08c379a000000000000000000000000000000000000000000000000000000000\n      dup2\n      mstore\n      0x04\n      add\n      dup1\n      dup1\n      0x20\n      add\n      dup3\n      dup2\n      sub\n      dup3\n      mstore\n      0x20\n      dup2\n      mstore\n      0x20\n      add\n      dup1\n      0x4f776e61626c653a2063616c6c6572206973206e6f7420746865206f776e6572\n      dup2\n      mstore\n      pop\n      0x20\n      add\n      swap2\n      pop\n      pop\n      mload(0x40)\n      dup1\n      swap2\n      sub\n      swap1\n      revert\n    tag_145:\n        /* \"AllContracts.sol\":1656:1657  0 */\n      0x00\n        /* \"AllContracts.sol\":1619:1659  OwnershipTransferred(_owner, address(0)) */\n      0xffffffffffffffffffffffffffffffffffffffff\n      and\n        /* \"AllContracts.sol\":1640:1646  _owner */\n      0x03\n      0x00\n      swap1\n      sload\n      swap1\n      0x0100\n      exp\n      swap1\n      div\n      0xffffffffffffffffffffffffffffffffffffffff\n      and\n        /* \"AllContracts.sol\":1619:1659  OwnershipTransferred(_owner, address(0)) */\n      0xffffffffffffffffffffffffffffffffffffffff\n      and\n      0x8be0079c531659141344cd1fd0a4f28419497f9722a3daafe3b4186f6b6457e0\n      mload(0x40)\n      mload(0x40)\n      dup1\n      swap2\n      sub\n      swap1\n      log3\n        /* \"AllContracts.sol\":1686:1687  0 */\n      0x00\n        /* \"AllContracts.sol\":1669:1675  _owner */\n      0x03\n      0x00\n        /* \"AllContracts.sol\":1669:1688  _owner = address(0) */\n      0x0100\n      exp\n      dup2\n      sload\n      dup2\n      0xffffffffffffffffffffffffffffffffffffffff\n      mul\n      not\n      and\n      swap1\n      dup4\n      0xffffffffffffffffffffffffffffffffffffffff\n      and\n      mul\n      or\n      swap1\n      sstore\n      pop\n        /* \"AllContracts.sol\":1550:1695  function renounceOwnership() public virtual onlyOwner {... */\n      jump\t// out\n        /* \"AllContracts.sol\":13344:13449  function withdrawLink(uint amount) public onlyOwner {... */\n    tag_75:\n        /* \"AllContracts.sol\":1141:1153  _msgSender() */\n      tag_148\n        /* \"AllContracts.sol\":1141:1151  _msgSender */\n      tag_129\n        /* \"AllContracts.sol\":1141:1153  _msgSender() */\n      jump\t// in\n    tag_148:\n        /* \"AllContracts.sol\":1131:1153  _owner == _msgSender() */\n      0xffffffffffffffffffffffffffffffffffffffff\n      and\n        /* \"AllContracts.sol\":1131:1137  _owner */\n      0x03\n      0x00\n      swap1\n      sload\n      swap1\n      0x0100\n      exp\n      swap1\n      div\n      0xffffffffffffffffffffffffffffffffffffffff\n      and\n        /* \"AllContracts.sol\":1131:1153  _owner == _msgSender() */\n      0xffffffffffffffffffffffffffffffffffffffff\n      and\n      eq\n        /* \"AllContracts.sol\":1123:1190  require(_owner == _msgSender(), \"Ownable: caller is not the owner\") */\n      tag_149\n      jumpi\n      mload(0x40)\n      0x08c379a000000000000000000000000000000000000000000000000000000000\n      dup2\n      mstore\n      0x04\n      add\n      dup1\n      dup1\n      0x20\n      add\n      dup3\n      dup2\n      sub\n      dup3\n      mstore\n      0x20\n      dup2\n      mstore\n      0x20\n      add\n      dup1\n      0x4f776e61626c653a2063616c6c6572206973206e6f7420746865206f776e6572\n      dup2\n      mstore\n      pop\n      0x20\n      add\n      swap2\n      pop\n      pop\n      mload(0x40)\n      dup1\n      swap2\n      sub\n      swap1\n      revert\n    tag_149:\n        /* \"AllContracts.sol\":13406:13410  LINK */\n      0x00\n      dup1\n      swap1\n      sload\n      swap1\n      0x0100\n      exp\n      swap1\n      div\n      0xffffffffffffffffffffffffffffffffffffffff\n      and\n        /* \"AllContracts.sol\":13406:13419  LINK.transfer */\n      0xffffffffffffffffffffffffffffffffffffffff\n      and\n      0xa9059cbb\n        /* \"AllContracts.sol\":13420:13433  payoutAddress */\n      0x15\n      0x00\n      swap1\n      sload\n      swap1\n      0x0100\n      exp\n      swap1\n      div\n      0xffffffffffffffffffffffffffffffffffffffff\n      and\n        /* \"AllContracts.sol\":13435:13441  amount */\n      dup4\n        /* \"AllContracts.sol\":13406:13442  LINK.transfer(payoutAddress, amount) */\n      mload(0x40)\n      dup4\n      0xffffffff\n      and\n      0xe0\n      shl\n      dup2\n      mstore\n      0x04\n      add\n      dup1\n      dup4\n      0xffffffffffffffffffffffffffffffffffffffff\n      and\n      0xffffffffffffffffffffffffffffffffffffffff\n      and\n      dup2\n      mstore\n      0x20\n      add\n      dup3\n      dup2\n      mstore\n      0x20\n      add\n      swap3\n      pop\n      pop\n      pop\n      0x20\n      mload(0x40)\n      dup1\n      dup4\n      sub\n      dup2\n      0x00\n      dup8\n      dup1\n      extcodesize\n      iszero\n        /* \"--CODEGEN--\":8:17   */\n      dup1\n        /* \"--CODEGEN--\":5:7   */\n      iszero\n      tag_151\n      jumpi\n        /* \"--CODEGEN--\":30:31   */\n      0x00\n        /* \"--CODEGEN--\":27:28   */\n      dup1\n        /* \"--CODEGEN--\":20:32   */\n      revert\n        /* \"--CODEGEN--\":5:7   */\n    tag_151:\n        /* \"AllContracts.sol\":13406:13442  LINK.transfer(payoutAddress, amount) */\n      pop\n      gas\n      call\n      iszero\n        /* \"--CODEGEN--\":8:17   */\n      dup1\n        /* \"--CODEGEN--\":5:7   */\n      iszero\n      tag_153\n      jumpi\n        /* \"--CODEGEN--\":45:61   */\n      returndatasize\n        /* \"--CODEGEN--\":42:43   */\n      0x00\n        /* \"--CODEGEN--\":39:40   */\n      dup1\n        /* \"--CODEGEN--\":24:62   */\n      returndatacopy\n        /* \"--CODEGEN--\":77:93   */\n      returndatasize\n        /* \"--CODEGEN--\":74:75   */\n      0x00\n        /* \"--CODEGEN--\":67:94   */\n      revert\n        /* \"--CODEGEN--\":5:7   */\n    tag_153:\n        /* \"AllContracts.sol\":13406:13442  LINK.transfer(payoutAddress, amount) */\n      pop\n      pop\n      pop\n      pop\n      mload(0x40)\n      returndatasize\n        /* \"--CODEGEN--\":13:15   */\n      0x20\n        /* \"--CODEGEN--\":8:11   */\n      dup2\n        /* \"--CODEGEN--\":5:16   */\n      lt\n        /* \"--CODEGEN--\":2:4   */\n      iszero\n      tag_154\n      jumpi\n        /* \"--CODEGEN--\":29:30   */\n      0x00\n        /* \"--CODEGEN--\":26:27   */\n      dup1\n        /* \"--CODEGEN--\":19:31   */\n      revert\n        /* \"--CODEGEN--\":2:4   */\n    tag_154:\n        /* \"AllContracts.sol\":13406:13442  LINK.transfer(payoutAddress, amount) */\n      dup2\n      add\n      swap1\n      dup1\n      dup1\n      mload\n      swap1\n      0x20\n      add\n      swap1\n      swap3\n      swap2\n      swap1\n      pop\n      pop\n      pop\n      pop\n        /* \"AllContracts.sol\":13344:13449  function withdrawLink(uint amount) public onlyOwner {... */\n      pop\n      jump\t// out\n        /* \"AllContracts.sol\":6564:6609  mapping(bytes32 => uint) public _gameRequests */\n    tag_79:\n      mstore(0x20, 0x18)\n      dup1\n      0x00\n      mstore\n      keccak256(0x00, 0x40)\n      0x00\n      swap2\n      pop\n      swap1\n      pop\n      sload\n      dup2\n      jump\t// out\n        /* \"AllContracts.sol\":927:1004  function owner() public view returns (address) {... */\n    tag_82:\n        /* \"AllContracts.sol\":965:972  address */\n      0x00\n        /* \"AllContracts.sol\":991:997  _owner */\n      0x03\n      0x00\n      swap1\n      sload\n      swap1\n      0x0100\n      exp\n      swap1\n      div\n      0xffffffffffffffffffffffffffffffffffffffff\n      and\n        /* \"AllContracts.sol\":984:997  return _owner */\n      swap1\n      pop\n        /* \"AllContracts.sol\":927:1004  function owner() public view returns (address) {... */\n      swap1\n      jump\t// out\n        /* \"AllContracts.sol\":5522:5729  function rawFulfillRandomness(bytes32 requestId, uint256 randomness) external {... */\n    tag_86:\n        /* \"AllContracts.sol\":5628:5642  vrfCoordinator */\n      0x01\n      0x00\n      swap1\n      sload\n      swap1\n      0x0100\n      exp\n      swap1\n      div\n      0xffffffffffffffffffffffffffffffffffffffff\n      and\n        /* \"AllContracts.sol\":5614:5642  msg.sender == vrfCoordinator */\n      0xffffffffffffffffffffffffffffffffffffffff\n      and\n        /* \"AllContracts.sol\":5614:5624  msg.sender */\n      caller\n        /* \"AllContracts.sol\":5614:5642  msg.sender == vrfCoordinator */\n      0xffffffffffffffffffffffffffffffffffffffff\n      and\n      eq\n        /* \"AllContracts.sol\":5606:5678  require(msg.sender == vrfCoordinator, \"Only VRFCoordinator can fulfill\") */\n      tag_157\n      jumpi\n      mload(0x40)\n      0x08c379a000000000000000000000000000000000000000000000000000000000\n      dup2\n      mstore\n      0x04\n      add\n      dup1\n      dup1\n      0x20\n      add\n      dup3\n      dup2\n      sub\n      dup3\n      mstore\n      0x1f\n      dup2\n      mstore\n      0x20\n      add\n      dup1\n      0x4f6e6c7920565246436f6f7264696e61746f722063616e2066756c66696c6c00\n      dup2\n      mstore\n      pop\n      0x20\n      add\n      swap2\n      pop\n      pop\n      mload(0x40)\n      dup1\n      swap2\n      sub\n      swap1\n      revert\n    tag_157:\n        /* \"AllContracts.sol\":5684:5724  fulfillRandomness(requestId, randomness) */\n      tag_158\n        /* \"AllContracts.sol\":5702:5711  requestId */\n      dup3\n        /* \"AllContracts.sol\":5713:5723  randomness */\n      dup3\n        /* \"AllContracts.sol\":5684:5701  fulfillRandomness */\n      tag_159\n        /* \"AllContracts.sol\":5684:5724  fulfillRandomness(requestId, randomness) */\n      jump\t// in\n    tag_158:\n        /* \"AllContracts.sol\":5522:5729  function rawFulfillRandomness(bytes32 requestId, uint256 randomness) external {... */\n      pop\n      pop\n      jump\t// out\n        /* \"AllContracts.sol\":6323:6341  uint public minBet */\n    tag_89:\n      sload(0x12)\n      dup2\n      jump\t// out\n        /* \"AllContracts.sol\":12797:12887  function setKeyHash(bytes32 _keyHash) public onlyOwner {... */\n    tag_93:\n        /* \"AllContracts.sol\":1141:1153  _msgSender() */\n      tag_161\n        /* \"AllContracts.sol\":1141:1151  _msgSender */\n      tag_129\n        /* \"AllContracts.sol\":1141:1153  _msgSender() */\n      jump\t// in\n    tag_161:\n        /* \"AllContracts.sol\":1131:1153  _owner == _msgSender() */\n      0xffffffffffffffffffffffffffffffffffffffff\n      and\n        /* \"AllContracts.sol\":1131:1137  _owner */\n      0x03\n      0x00\n      swap1\n      sload\n      swap1\n      0x0100\n      exp\n      swap1\n      div\n      0xffffffffffffffffffffffffffffffffffffffff\n      and\n        /* \"AllContracts.sol\":1131:1153  _owner == _msgSender() */\n      0xffffffffffffffffffffffffffffffffffffffff\n      and\n      eq\n        /* \"AllContracts.sol\":1123:1190  require(_owner == _msgSender(), \"Ownable: caller is not the owner\") */\n      tag_162\n      jumpi\n      mload(0x40)\n      0x08c379a000000000000000000000000000000000000000000000000000000000\n      dup2\n      mstore\n      0x04\n      add\n      dup1\n      dup1\n      0x20\n      add\n      dup3\n      dup2\n      sub\n      dup3\n      mstore\n      0x20\n      dup2\n      mstore\n      0x20\n      add\n      dup1\n      0x4f776e61626c653a2063616c6c6572206973206e6f7420746865206f776e6572\n      dup2\n      mstore\n      pop\n      0x20\n      add\n      swap2\n      pop\n      pop\n      mload(0x40)\n      dup1\n      swap2\n      sub\n      swap1\n      revert\n    tag_162:\n        /* \"AllContracts.sol\":12872:12880  _keyHash */\n      dup1\n        /* \"AllContracts.sol\":12862:12869  keyHash */\n      0x04\n        /* \"AllContracts.sol\":12862:12880  keyHash = _keyHash */\n      dup2\n      swap1\n      sstore\n      pop\n        /* \"AllContracts.sol\":12797:12887  function setKeyHash(bytes32 _keyHash) public onlyOwner {... */\n      pop\n      jump\t// out\n        /* \"AllContracts.sol\":5307:5374  mapping(bytes32 /* keyHash */ => uint256 /* nonce */) public nonces */\n    tag_97:\n      mstore(0x20, 0x02)\n      dup1\n      0x00\n      mstore\n      keccak256(0x00, 0x40)\n      0x00\n      swap2\n      pop\n      swap1\n      pop\n      sload\n      dup2\n      jump\t// out\n        /* \"AllContracts.sol\":12893:13005  function setLINK(address _linkAddress) public onlyOwner {... */\n    tag_101:\n        /* \"AllContracts.sol\":1141:1153  _msgSender() */\n      tag_165\n        /* \"AllContracts.sol\":1141:1151  _msgSender */\n      tag_129\n        /* \"AllContracts.sol\":1141:1153  _msgSender() */\n      jump\t// in\n    tag_165:\n        /* \"AllContracts.sol\":1131:1153  _owner == _msgSender() */\n      0xffffffffffffffffffffffffffffffffffffffff\n      and\n        /* \"AllContracts.sol\":1131:1137  _owner */\n      0x03\n      0x00\n      swap1\n      sload\n      swap1\n      0x0100\n      exp\n      swap1\n      div\n      0xffffffffffffffffffffffffffffffffffffffff\n      and\n        /* \"AllContracts.sol\":1131:1153  _owner == _msgSender() */\n      0xffffffffffffffffffffffffffffffffffffffff\n      and\n      eq\n        /* \"AllContracts.sol\":1123:1190  require(_owner == _msgSender(), \"Ownable: caller is not the owner\") */\n      tag_166\n      jumpi\n      mload(0x40)\n      0x08c379a000000000000000000000000000000000000000000000000000000000\n      dup2\n      mstore\n      0x04\n      add\n      dup1\n      dup1\n      0x20\n      add\n      dup3\n      dup2\n      sub\n      dup3\n      mstore\n      0x20\n      dup2\n      mstore\n      0x20\n      add\n      dup1\n      0x4f776e61626c653a2063616c6c6572206973206e6f7420746865206f776e6572\n      dup2\n      mstore\n      pop\n      0x20\n      add\n      swap2\n      pop\n      pop\n      mload(0x40)\n      dup1\n      swap2\n      sub\n      swap1\n      revert\n    tag_166:\n        /* \"AllContracts.sol\":12985:12997  _linkAddress */\n      dup1\n        /* \"AllContracts.sol\":12959:12963  LINK */\n      0x00\n      dup1\n        /* \"AllContracts.sol\":12959:12998  LINK = LinkTokenInterface(_linkAddress) */\n      0x0100\n      exp\n      dup2\n      sload\n      dup2\n      0xffffffffffffffffffffffffffffffffffffffff\n      mul\n      not\n      and\n      swap1\n      dup4\n      0xffffffffffffffffffffffffffffffffffffffff\n      and\n      mul\n      or\n      swap1\n      sstore\n      pop\n        /* \"AllContracts.sol\":12893:13005  function setLINK(address _linkAddress) public onlyOwner {... */\n      pop\n      jump\t// out\n        /* \"AllContracts.sol\":12010:12473  function requestRefund(uint gameID) public{... */\n    tag_105:\n        /* \"AllContracts.sol\":12062:12076  Game storage g */\n      0x00\n        /* \"AllContracts.sol\":12079:12084  games */\n      0x17\n        /* \"AllContracts.sol\":12079:12092  games[gameID] */\n      0x00\n        /* \"AllContracts.sol\":12085:12091  gameID */\n      dup4\n        /* \"AllContracts.sol\":12079:12092  games[gameID] */\n      dup2\n      mstore\n      0x20\n      add\n      swap1\n      dup2\n      mstore\n      0x20\n      add\n      0x00\n      keccak256\n        /* \"AllContracts.sol\":12062:12092  Game storage g = games[gameID] */\n      swap1\n      pop\n        /* \"AllContracts.sol\":12122:12127  false */\n      0x00\n        /* \"AllContracts.sol\":12110:12127  g.played == false */\n      iszero\n      iszero\n        /* \"AllContracts.sol\":12110:12111  g */\n      dup2\n        /* \"AllContracts.sol\":12110:12118  g.played */\n      0x05\n      add\n      0x00\n      swap1\n      sload\n      swap1\n      0x0100\n      exp\n      swap1\n      div\n      0xff\n      and\n        /* \"AllContracts.sol\":12110:12127  g.played == false */\n      iszero\n      iszero\n      eq\n        /* \"AllContracts.sol\":12102:12174  require(g.played == false, \"Game already complete. No refund possible.\") */\n      tag_169\n      jumpi\n      mload(0x40)\n      0x08c379a000000000000000000000000000000000000000000000000000000000\n      dup2\n      mstore\n      0x04\n      add\n      dup1\n      dup1\n      0x20\n      add\n      dup3\n      dup2\n      sub\n      dup3\n      mstore\n      0x2a\n      dup2\n      mstore\n      0x20\n      add\n      dup1\n      data_c34c85fa0e0680ac47dc2c21fdf93b1adcc71d9a1a3b3b1788b881c3f4f390ac\n      0x2a\n      swap2\n      codecopy\n      0x40\n      add\n      swap2\n      pop\n      pop\n      mload(0x40)\n      dup1\n      swap2\n      sub\n      swap1\n      revert\n    tag_169:\n        /* \"AllContracts.sol\":12217:12218  g */\n      dup1\n        /* \"AllContracts.sol\":12217:12222  g.bet */\n      0x02\n      add\n      sload\n        /* \"AllContracts.sol\":12192:12213  address(this).balance */\n      selfbalance\n        /* \"AllContracts.sol\":12192:12222  address(this).balance >= g.bet */\n      lt\n      iszero\n        /* \"AllContracts.sol\":12184:12276  require(address(this).balance >= g.bet, \"Contract balance too low. Please try again later.\") */\n      tag_170\n      jumpi\n      mload(0x40)\n      0x08c379a000000000000000000000000000000000000000000000000000000000\n      dup2\n      mstore\n      0x04\n      add\n      dup1\n      dup1\n      0x20\n      add\n      dup3\n      dup2\n      sub\n      dup3\n      mstore\n      0x31\n      dup2\n      mstore\n      0x20\n      add\n      dup1\n      data_b719f220e413600c7e92ed4736b96c6908e0428122610fe965fcc60eefeedbad\n      0x31\n      swap2\n      codecopy\n      0x40\n      add\n      swap2\n      pop\n      pop\n      mload(0x40)\n      dup1\n      swap2\n      sub\n      swap1\n      revert\n    tag_170:\n        /* \"AllContracts.sol\":12297:12301  true */\n      0x01\n        /* \"AllContracts.sol\":12286:12287  g */\n      dup2\n        /* \"AllContracts.sol\":12286:12294  g.played */\n      0x05\n      add\n      0x00\n        /* \"AllContracts.sol\":12286:12301  g.played = true */\n      0x0100\n      exp\n      dup2\n      sload\n      dup2\n      0xff\n      mul\n      not\n      and\n      swap1\n      dup4\n      iszero\n      iszero\n      mul\n      or\n      swap1\n      sstore\n      pop\n        /* \"AllContracts.sol\":12331:12332  g */\n      dup1\n        /* \"AllContracts.sol\":12331:12336  g.bet */\n      0x02\n      add\n      sload\n        /* \"AllContracts.sol\":12314:12327  _unplayedBets */\n      sload(0x13)\n        /* \"AllContracts.sol\":12314:12336  _unplayedBets >= g.bet */\n      lt\n        /* \"AllContracts.sol\":12311:12433  if(_unplayedBets >= g.bet) {... */\n      tag_171\n      jumpi\n        /* \"AllContracts.sol\":12369:12370  g */\n      dup1\n        /* \"AllContracts.sol\":12369:12374  g.bet */\n      0x02\n      add\n      sload\n        /* \"AllContracts.sol\":12352:12365  _unplayedBets */\n      0x13\n      0x00\n        /* \"AllContracts.sol\":12352:12374  _unplayedBets -= g.bet */\n      dup3\n      dup3\n      sload\n      sub\n      swap3\n      pop\n      pop\n      dup2\n      swap1\n      sstore\n      pop\n        /* \"AllContracts.sol\":12311:12433  if(_unplayedBets >= g.bet) {... */\n      jump(tag_172)\n    tag_171:\n        /* \"AllContracts.sol\":12421:12422  0 */\n      0x00\n        /* \"AllContracts.sol\":12405:12418  _unplayedBets */\n      0x13\n        /* \"AllContracts.sol\":12405:12422  _unplayedBets = 0 */\n      dup2\n      swap1\n      sstore\n      pop\n        /* \"AllContracts.sol\":12311:12433  if(_unplayedBets >= g.bet) {... */\n    tag_172:\n        /* \"AllContracts.sol\":12442:12443  g */\n      dup1\n        /* \"AllContracts.sol\":12442:12450  g.player */\n      0x01\n      add\n      0x00\n      swap1\n      sload\n      swap1\n      0x0100\n      exp\n      swap1\n      div\n      0xffffffffffffffffffffffffffffffffffffffff\n      and\n        /* \"AllContracts.sol\":12442:12459  g.player.transfer */\n      0xffffffffffffffffffffffffffffffffffffffff\n      and\n        /* \"AllContracts.sol\":12442:12466  g.player.transfer(g.bet) */\n      0x08fc\n        /* \"AllContracts.sol\":12460:12461  g */\n      dup3\n        /* \"AllContracts.sol\":12460:12465  g.bet */\n      0x02\n      add\n      sload\n        /* \"AllContracts.sol\":12442:12466  g.player.transfer(g.bet) */\n      swap1\n      dup2\n      iszero\n      mul\n      swap1\n      mload(0x40)\n      0x00\n      mload(0x40)\n      dup1\n      dup4\n      sub\n      dup2\n      dup6\n      dup9\n      dup9\n      call\n      swap4\n      pop\n      pop\n      pop\n      pop\n      iszero\n        /* \"--CODEGEN--\":8:17   */\n      dup1\n        /* \"--CODEGEN--\":5:7   */\n      iszero\n      tag_174\n      jumpi\n        /* \"--CODEGEN--\":45:61   */\n      returndatasize\n        /* \"--CODEGEN--\":42:43   */\n      0x00\n        /* \"--CODEGEN--\":39:40   */\n      dup1\n        /* \"--CODEGEN--\":24:62   */\n      returndatacopy\n        /* \"--CODEGEN--\":77:93   */\n      returndatasize\n        /* \"--CODEGEN--\":74:75   */\n      0x00\n        /* \"--CODEGEN--\":67:94   */\n      revert\n        /* \"--CODEGEN--\":5:7   */\n    tag_174:\n        /* \"AllContracts.sol\":12442:12466  g.player.transfer(g.bet) */\n      pop\n        /* \"AllContracts.sol\":12010:12473  function requestRefund(uint gameID) public{... */\n      pop\n      pop\n      jump\t// out\n        /* \"AllContracts.sol\":8363:8972  function placeBetFor(address payable player, uint pick) public payable {... */\n    tag_108:\n        /* \"AllContracts.sol\":8592:8598  minBet */\n      sload(0x12)\n        /* \"AllContracts.sol\":8579:8588  msg.value */\n      callvalue\n        /* \"AllContracts.sol\":8579:8598  msg.value >= minBet */\n      lt\n      iszero\n        /* \"AllContracts.sol\":8571:8622  require(msg.value >= minBet, \"minimum bet not met\") */\n      tag_176\n      jumpi\n      mload(0x40)\n      0x08c379a000000000000000000000000000000000000000000000000000000000\n      dup2\n      mstore\n      0x04\n      add\n      dup1\n      dup1\n      0x20\n      add\n      dup3\n      dup2\n      sub\n      dup3\n      mstore\n      0x13\n      dup2\n      mstore\n      0x20\n      add\n      dup1\n      0x6d696e696d756d20626574206e6f74206d657400000000000000000000000000\n      dup2\n      mstore\n      pop\n      0x20\n      add\n      swap2\n      pop\n      pop\n      mload(0x40)\n      dup1\n      swap2\n      sub\n      swap1\n      revert\n    tag_176:\n        /* \"AllContracts.sol\":8639:8643  gas1 */\n      0x06\n        /* \"AllContracts.sol\":8632:8643  delete gas1 */\n      0x00\n      swap1\n      sstore\n        /* \"AllContracts.sol\":8660:8664  gas2 */\n      0x07\n        /* \"AllContracts.sol\":8653:8664  delete gas2 */\n      0x00\n      swap1\n      sstore\n        /* \"AllContracts.sol\":8681:8685  gas3 */\n      0x08\n        /* \"AllContracts.sol\":8674:8685  delete gas3 */\n      0x00\n      swap1\n      sstore\n        /* \"AllContracts.sol\":8702:8706  gas4 */\n      0x09\n        /* \"AllContracts.sol\":8695:8706  delete gas4 */\n      0x00\n      swap1\n      sstore\n        /* \"AllContracts.sol\":8723:8727  gas5 */\n      0x0a\n        /* \"AllContracts.sol\":8716:8727  delete gas5 */\n      0x00\n      swap1\n      sstore\n        /* \"AllContracts.sol\":8744:8748  gas6 */\n      0x0b\n        /* \"AllContracts.sol\":8737:8748  delete gas6 */\n      0x00\n      swap1\n      sstore\n        /* \"AllContracts.sol\":8765:8769  gas7 */\n      0x0c\n        /* \"AllContracts.sol\":8758:8769  delete gas7 */\n      0x00\n      swap1\n      sstore\n        /* \"AllContracts.sol\":8786:8790  gas8 */\n      0x0d\n        /* \"AllContracts.sol\":8779:8790  delete gas8 */\n      0x00\n      swap1\n      sstore\n        /* \"AllContracts.sol\":8807:8811  gas9 */\n      0x0e\n        /* \"AllContracts.sol\":8800:8811  delete gas9 */\n      0x00\n      swap1\n      sstore\n        /* \"AllContracts.sol\":8828:8833  gas10 */\n      0x0f\n        /* \"AllContracts.sol\":8821:8833  delete gas10 */\n      0x00\n      swap1\n      sstore\n        /* \"AllContracts.sol\":8860:8888  _unplayedBets.add(msg.value) */\n      tag_177\n        /* \"AllContracts.sol\":8878:8887  msg.value */\n      callvalue\n        /* \"AllContracts.sol\":8860:8873  _unplayedBets */\n      sload(0x13)\n        /* \"AllContracts.sol\":8860:8877  _unplayedBets.add */\n      tag_178\n      swap1\n        /* \"AllContracts.sol\":8860:8888  _unplayedBets.add(msg.value) */\n      swap2\n      swap1\n      0xffffffff\n      and\n      jump\t// in\n    tag_177:\n        /* \"AllContracts.sol\":8844:8857  _unplayedBets */\n      0x13\n        /* \"AllContracts.sol\":8844:8888  _unplayedBets = _unplayedBets.add(msg.value) */\n      dup2\n      swap1\n      sstore\n      pop\n        /* \"AllContracts.sol\":8898:8933  createGame(player, msg.value, pick) */\n      tag_179\n        /* \"AllContracts.sol\":8909:8915  player */\n      dup3\n        /* \"AllContracts.sol\":8917:8926  msg.value */\n      callvalue\n        /* \"AllContracts.sol\":8928:8932  pick */\n      dup4\n        /* \"AllContracts.sol\":8898:8908  createGame */\n      tag_180\n        /* \"AllContracts.sol\":8898:8933  createGame(player, msg.value, pick) */\n      jump\t// in\n    tag_179:\n        /* \"AllContracts.sol\":8943:8965  playGame(_currentGame) */\n      tag_181\n        /* \"AllContracts.sol\":8952:8964  _currentGame */\n      sload(0x14)\n        /* \"AllContracts.sol\":8943:8951  playGame */\n      tag_182\n        /* \"AllContracts.sol\":8943:8965  playGame(_currentGame) */\n      jump\t// in\n    tag_181:\n        /* \"AllContracts.sol\":8363:8972  function placeBetFor(address payable player, uint pick) public payable {... */\n      pop\n      pop\n      jump\t// out\n        /* \"AllContracts.sol\":13455:13777  function closeMachine() public onlyOwner {... */\n    tag_111:\n        /* \"AllContracts.sol\":1141:1153  _msgSender() */\n      tag_184\n        /* \"AllContracts.sol\":1141:1151  _msgSender */\n      tag_129\n        /* \"AllContracts.sol\":1141:1153  _msgSender() */\n      jump\t// in\n    tag_184:\n        /* \"AllContracts.sol\":1131:1153  _owner == _msgSender() */\n      0xffffffffffffffffffffffffffffffffffffffff\n      and\n        /* \"AllContracts.sol\":1131:1137  _owner */\n      0x03\n      0x00\n      swap1\n      sload\n      swap1\n      0x0100\n      exp\n      swap1\n      div\n      0xffffffffffffffffffffffffffffffffffffffff\n      and\n        /* \"AllContracts.sol\":1131:1153  _owner == _msgSender() */\n      0xffffffffffffffffffffffffffffffffffffffff\n      and\n      eq\n        /* \"AllContracts.sol\":1123:1190  require(_owner == _msgSender(), \"Ownable: caller is not the owner\") */\n      tag_185\n      jumpi\n      mload(0x40)\n      0x08c379a000000000000000000000000000000000000000000000000000000000\n      dup2\n      mstore\n      0x04\n      add\n      dup1\n      dup1\n      0x20\n      add\n      dup3\n      dup2\n      sub\n      dup3\n      mstore\n      0x20\n      dup2\n      mstore\n      0x20\n      add\n      dup1\n      0x4f776e61626c653a2063616c6c6572206973206e6f7420746865206f776e6572\n      dup2\n      mstore\n      pop\n      0x20\n      add\n      swap2\n      pop\n      pop\n      mload(0x40)\n      dup1\n      swap2\n      sub\n      swap1\n      revert\n    tag_185:\n        /* \"AllContracts.sol\":13506:13535  uint availableContractBalance */\n      0x00\n        /* \"AllContracts.sol\":13538:13578  address(this).balance.sub(_unplayedBets) */\n      tag_187\n        /* \"AllContracts.sol\":13564:13577  _unplayedBets */\n      sload(0x13)\n        /* \"AllContracts.sol\":13538:13559  address(this).balance */\n      selfbalance\n        /* \"AllContracts.sol\":13538:13563  address(this).balance.sub */\n      tag_188\n      swap1\n        /* \"AllContracts.sol\":13538:13578  address(this).balance.sub(_unplayedBets) */\n      swap2\n      swap1\n      0xffffffff\n      and\n      jump\t// in\n    tag_187:\n        /* \"AllContracts.sol\":13506:13578  uint availableContractBalance = address(this).balance.sub(_unplayedBets) */\n      swap1\n      pop\n        /* \"AllContracts.sol\":13588:13601  payoutAddress */\n      0x15\n      0x00\n      swap1\n      sload\n      swap1\n      0x0100\n      exp\n      swap1\n      div\n      0xffffffffffffffffffffffffffffffffffffffff\n      and\n        /* \"AllContracts.sol\":13588:13610  payoutAddress.transfer */\n      0xffffffffffffffffffffffffffffffffffffffff\n      and\n        /* \"AllContracts.sol\":13588:13636  payoutAddress.transfer(availableContractBalance) */\n      0x08fc\n        /* \"AllContracts.sol\":13611:13635  availableContractBalance */\n      dup3\n        /* \"AllContracts.sol\":13588:13636  payoutAddress.transfer(availableContractBalance) */\n      swap1\n      dup2\n      iszero\n      mul\n      swap1\n      mload(0x40)\n      0x00\n      mload(0x40)\n      dup1\n      dup4\n      sub\n      dup2\n      dup6\n      dup9\n      dup9\n      call\n      swap4\n      pop\n      pop\n      pop\n      pop\n      iszero\n        /* \"--CODEGEN--\":8:17   */\n      dup1\n        /* \"--CODEGEN--\":5:7   */\n      iszero\n      tag_190\n      jumpi\n        /* \"--CODEGEN--\":45:61   */\n      returndatasize\n        /* \"--CODEGEN--\":42:43   */\n      0x00\n        /* \"--CODEGEN--\":39:40   */\n      dup1\n        /* \"--CODEGEN--\":24:62   */\n      returndatacopy\n        /* \"--CODEGEN--\":77:93   */\n      returndatasize\n        /* \"--CODEGEN--\":74:75   */\n      0x00\n        /* \"--CODEGEN--\":67:94   */\n      revert\n        /* \"--CODEGEN--\":5:7   */\n    tag_190:\n        /* \"AllContracts.sol\":13588:13636  payoutAddress.transfer(availableContractBalance) */\n      pop\n        /* \"AllContracts.sol\":13683:13684  0 */\n      0x00\n        /* \"AllContracts.sol\":13651:13655  LINK */\n      dup1\n      0x00\n      swap1\n      sload\n      swap1\n      0x0100\n      exp\n      swap1\n      div\n      0xffffffffffffffffffffffffffffffffffffffff\n      and\n        /* \"AllContracts.sol\":13651:13665  LINK.balanceOf */\n      0xffffffffffffffffffffffffffffffffffffffff\n      and\n      0x70a08231\n        /* \"AllContracts.sol\":13674:13678  this */\n      address\n        /* \"AllContracts.sol\":13651:13680  LINK.balanceOf(address(this)) */\n      mload(0x40)\n      dup3\n      0xffffffff\n      and\n      0xe0\n      shl\n      dup2\n      mstore\n      0x04\n      add\n      dup1\n      dup3\n      0xffffffffffffffffffffffffffffffffffffffff\n      and\n      0xffffffffffffffffffffffffffffffffffffffff\n      and\n      dup2\n      mstore\n      0x20\n      add\n      swap2\n      pop\n      pop\n      0x20\n      mload(0x40)\n      dup1\n      dup4\n      sub\n      dup2\n      dup7\n      dup1\n      extcodesize\n      iszero\n        /* \"--CODEGEN--\":8:17   */\n      dup1\n        /* \"--CODEGEN--\":5:7   */\n      iszero\n      tag_191\n      jumpi\n        /* \"--CODEGEN--\":30:31   */\n      0x00\n        /* \"--CODEGEN--\":27:28   */\n      dup1\n        /* \"--CODEGEN--\":20:32   */\n      revert\n        /* \"--CODEGEN--\":5:7   */\n    tag_191:\n        /* \"AllContracts.sol\":13651:13680  LINK.balanceOf(address(this)) */\n      pop\n      gas\n      staticcall\n      iszero\n        /* \"--CODEGEN--\":8:17   */\n      dup1\n        /* \"--CODEGEN--\":5:7   */\n      iszero\n      tag_193\n      jumpi\n        /* \"--CODEGEN--\":45:61   */\n      returndatasize\n        /* \"--CODEGEN--\":42:43   */\n      0x00\n        /* \"--CODEGEN--\":39:40   */\n      dup1\n        /* \"--CODEGEN--\":24:62   */\n      returndatacopy\n        /* \"--CODEGEN--\":77:93   */\n      returndatasize\n        /* \"--CODEGEN--\":74:75   */\n      0x00\n        /* \"--CODEGEN--\":67:94   */\n      revert\n        /* \"--CODEGEN--\":5:7   */\n    tag_193:\n        /* \"AllContracts.sol\":13651:13680  LINK.balanceOf(address(this)) */\n      pop\n      pop\n      pop\n      pop\n      mload(0x40)\n      returndatasize\n        /* \"--CODEGEN--\":13:15   */\n      0x20\n        /* \"--CODEGEN--\":8:11   */\n      dup2\n        /* \"--CODEGEN--\":5:16   */\n      lt\n        /* \"--CODEGEN--\":2:4   */\n      iszero\n      tag_194\n      jumpi\n        /* \"--CODEGEN--\":29:30   */\n      0x00\n        /* \"--CODEGEN--\":26:27   */\n      dup1\n        /* \"--CODEGEN--\":19:31   */\n      revert\n        /* \"--CODEGEN--\":2:4   */\n    tag_194:\n        /* \"AllContracts.sol\":13651:13680  LINK.balanceOf(address(this)) */\n      dup2\n      add\n      swap1\n      dup1\n      dup1\n      mload\n      swap1\n      0x20\n      add\n      swap1\n      swap3\n      swap2\n      swap1\n      pop\n      pop\n      pop\n        /* \"AllContracts.sol\":13651:13684  LINK.balanceOf(address(this)) > 0 */\n      gt\n        /* \"AllContracts.sol\":13647:13770  if (LINK.balanceOf(address(this)) > 0) {... */\n      iszero\n      tag_195\n      jumpi\n        /* \"AllContracts.sol\":13700:13704  LINK */\n      0x00\n      dup1\n      swap1\n      sload\n      swap1\n      0x0100\n      exp\n      swap1\n      div\n      0xffffffffffffffffffffffffffffffffffffffff\n      and\n        /* \"AllContracts.sol\":13700:13713  LINK.transfer */\n      0xffffffffffffffffffffffffffffffffffffffff\n      and\n      0xa9059cbb\n        /* \"AllContracts.sol\":13714:13727  payoutAddress */\n      0x15\n      0x00\n      swap1\n      sload\n      swap1\n      0x0100\n      exp\n      swap1\n      div\n      0xffffffffffffffffffffffffffffffffffffffff\n      and\n        /* \"AllContracts.sol\":13729:13733  LINK */\n      0x00\n      dup1\n      swap1\n      sload\n      swap1\n      0x0100\n      exp\n      swap1\n      div\n      0xffffffffffffffffffffffffffffffffffffffff\n      and\n        /* \"AllContracts.sol\":13729:13743  LINK.balanceOf */\n      0xffffffffffffffffffffffffffffffffffffffff\n      and\n      0x70a08231\n        /* \"AllContracts.sol\":13752:13756  this */\n      address\n        /* \"AllContracts.sol\":13729:13758  LINK.balanceOf(address(this)) */\n      mload(0x40)\n      dup3\n      0xffffffff\n      and\n      0xe0\n      shl\n      dup2\n      mstore\n      0x04\n      add\n      dup1\n      dup3\n      0xffffffffffffffffffffffffffffffffffffffff\n      and\n      0xffffffffffffffffffffffffffffffffffffffff\n      and\n      dup2\n      mstore\n      0x20\n      add\n      swap2\n      pop\n      pop\n      0x20\n      mload(0x40)\n      dup1\n      dup4\n      sub\n      dup2\n      dup7\n      dup1\n      extcodesize\n      iszero\n        /* \"--CODEGEN--\":8:17   */\n      dup1\n        /* \"--CODEGEN--\":5:7   */\n      iszero\n      tag_196\n      jumpi\n        /* \"--CODEGEN--\":30:31   */\n      0x00\n        /* \"--CODEGEN--\":27:28   */\n      dup1\n        /* \"--CODEGEN--\":20:32   */\n      revert\n        /* \"--CODEGEN--\":5:7   */\n    tag_196:\n        /* \"AllContracts.sol\":13729:13758  LINK.balanceOf(address(this)) */\n      pop\n      gas\n      staticcall\n      iszero\n        /* \"--CODEGEN--\":8:17   */\n      dup1\n        /* \"--CODEGEN--\":5:7   */\n      iszero\n      tag_198\n      jumpi\n        /* \"--CODEGEN--\":45:61   */\n      returndatasize\n        /* \"--CODEGEN--\":42:43   */\n      0x00\n        /* \"--CODEGEN--\":39:40   */\n      dup1\n        /* \"--CODEGEN--\":24:62   */\n      returndatacopy\n        /* \"--CODEGEN--\":77:93   */\n      returndatasize\n        /* \"--CODEGEN--\":74:75   */\n      0x00\n        /* \"--CODEGEN--\":67:94   */\n      revert\n        /* \"--CODEGEN--\":5:7   */\n    tag_198:\n        /* \"AllContracts.sol\":13729:13758  LINK.balanceOf(address(this)) */\n      pop\n      pop\n      pop\n      pop\n      mload(0x40)\n      returndatasize\n        /* \"--CODEGEN--\":13:15   */\n      0x20\n        /* \"--CODEGEN--\":8:11   */\n      dup2\n        /* \"--CODEGEN--\":5:16   */\n      lt\n        /* \"--CODEGEN--\":2:4   */\n      iszero\n      tag_199\n      jumpi\n        /* \"--CODEGEN--\":29:30   */\n      0x00\n        /* \"--CODEGEN--\":26:27   */\n      dup1\n        /* \"--CODEGEN--\":19:31   */\n      revert\n        /* \"--CODEGEN--\":2:4   */\n    tag_199:\n        /* \"AllContracts.sol\":13729:13758  LINK.balanceOf(address(this)) */\n      dup2\n      add\n      swap1\n      dup1\n      dup1\n      mload\n      swap1\n      0x20\n      add\n      swap1\n      swap3\n      swap2\n      swap1\n      pop\n      pop\n      pop\n        /* \"AllContracts.sol\":13700:13759  LINK.transfer(payoutAddress, LINK.balanceOf(address(this))) */\n      mload(0x40)\n      dup4\n      0xffffffff\n      and\n      0xe0\n      shl\n      dup2\n      mstore\n      0x04\n      add\n      dup1\n      dup4\n      0xffffffffffffffffffffffffffffffffffffffff\n      and\n      0xffffffffffffffffffffffffffffffffffffffff\n      and\n      dup2\n      mstore\n      0x20\n      add\n      dup3\n      dup2\n      mstore\n      0x20\n      add\n      swap3\n      pop\n      pop\n      pop\n      0x20\n      mload(0x40)\n      dup1\n      dup4\n      sub\n      dup2\n      0x00\n      dup8\n      dup1\n      extcodesize\n      iszero\n        /* \"--CODEGEN--\":8:17   */\n      dup1\n        /* \"--CODEGEN--\":5:7   */\n      iszero\n      tag_200\n      jumpi\n        /* \"--CODEGEN--\":30:31   */\n      0x00\n        /* \"--CODEGEN--\":27:28   */\n      dup1\n        /* \"--CODEGEN--\":20:32   */\n      revert\n        /* \"--CODEGEN--\":5:7   */\n    tag_200:\n        /* \"AllContracts.sol\":13700:13759  LINK.transfer(payoutAddress, LINK.balanceOf(address(this))) */\n      pop\n      gas\n      call\n      iszero\n        /* \"--CODEGEN--\":8:17   */\n      dup1\n        /* \"--CODEGEN--\":5:7   */\n      iszero\n      tag_202\n      jumpi\n        /* \"--CODEGEN--\":45:61   */\n      returndatasize\n        /* \"--CODEGEN--\":42:43   */\n      0x00\n        /* \"--CODEGEN--\":39:40   */\n      dup1\n        /* \"--CODEGEN--\":24:62   */\n      returndatacopy\n        /* \"--CODEGEN--\":77:93   */\n      returndatasize\n        /* \"--CODEGEN--\":74:75   */\n      0x00\n        /* \"--CODEGEN--\":67:94   */\n      revert\n        /* \"--CODEGEN--\":5:7   */\n    tag_202:\n        /* \"AllContracts.sol\":13700:13759  LINK.transfer(payoutAddress, LINK.balanceOf(address(this))) */\n      pop\n      pop\n      pop\n      pop\n      mload(0x40)\n      returndatasize\n        /* \"--CODEGEN--\":13:15   */\n      0x20\n        /* \"--CODEGEN--\":8:11   */\n      dup2\n        /* \"--CODEGEN--\":5:16   */\n      lt\n        /* \"--CODEGEN--\":2:4   */\n      iszero\n      tag_203\n      jumpi\n        /* \"--CODEGEN--\":29:30   */\n      0x00\n        /* \"--CODEGEN--\":26:27   */\n      dup1\n        /* \"--CODEGEN--\":19:31   */\n      revert\n        /* \"--CODEGEN--\":2:4   */\n    tag_203:\n        /* \"AllContracts.sol\":13700:13759  LINK.transfer(payoutAddress, LINK.balanceOf(address(this))) */\n      dup2\n      add\n      swap1\n      dup1\n      dup1\n      mload\n      swap1\n      0x20\n      add\n      swap1\n      swap3\n      swap2\n      swap1\n      pop\n      pop\n      pop\n      pop\n        /* \"AllContracts.sol\":13647:13770  if (LINK.balanceOf(address(this)) > 0) {... */\n    tag_195:\n        /* \"AllContracts.sol\":1200:1201  _ */\n      pop\n        /* \"AllContracts.sol\":13455:13777  function closeMachine() public onlyOwner {... */\n      jump\t// out\n        /* \"AllContracts.sol\":13139:13338  function withdrawEth(uint amount) public onlyOwner {... */\n    tag_115:\n        /* \"AllContracts.sol\":1141:1153  _msgSender() */\n      tag_205\n        /* \"AllContracts.sol\":1141:1151  _msgSender */\n      tag_129\n        /* \"AllContracts.sol\":1141:1153  _msgSender() */\n      jump\t// in\n    tag_205:\n        /* \"AllContracts.sol\":1131:1153  _owner == _msgSender() */\n      0xffffffffffffffffffffffffffffffffffffffff\n      and\n        /* \"AllContracts.sol\":1131:1137  _owner */\n      0x03\n      0x00\n      swap1\n      sload\n      swap1\n      0x0100\n      exp\n      swap1\n      div\n      0xffffffffffffffffffffffffffffffffffffffff\n      and\n        /* \"AllContracts.sol\":1131:1153  _owner == _msgSender() */\n      0xffffffffffffffffffffffffffffffffffffffff\n      and\n      eq\n        /* \"AllContracts.sol\":1123:1190  require(_owner == _msgSender(), \"Ownable: caller is not the owner\") */\n      tag_206\n      jumpi\n      mload(0x40)\n      0x08c379a000000000000000000000000000000000000000000000000000000000\n      dup2\n      mstore\n      0x04\n      add\n      dup1\n      dup1\n      0x20\n      add\n      dup3\n      dup2\n      sub\n      dup3\n      mstore\n      0x20\n      dup2\n      mstore\n      0x20\n      add\n      dup1\n      0x4f776e61626c653a2063616c6c6572206973206e6f7420746865206f776e6572\n      dup2\n      mstore\n      pop\n      0x20\n      add\n      swap2\n      pop\n      pop\n      mload(0x40)\n      dup1\n      swap2\n      sub\n      swap1\n      revert\n    tag_206:\n        /* \"AllContracts.sol\":13245:13258  _unplayedBets */\n      sload(0x13)\n        /* \"AllContracts.sol\":13234:13240  amount */\n      dup2\n        /* \"AllContracts.sol\":13210:13231  address(this).balance */\n      selfbalance\n        /* \"AllContracts.sol\":13210:13240  address(this).balance - amount */\n      sub\n        /* \"AllContracts.sol\":13209:13258  (address(this).balance - amount) >= _unplayedBets */\n      lt\n      iszero\n        /* \"AllContracts.sol\":13200:13291  require ((address(this).balance - amount) >= _unplayedBets, \"Can't withdraw unplayed bets\") */\n      tag_208\n      jumpi\n      mload(0x40)\n      0x08c379a000000000000000000000000000000000000000000000000000000000\n      dup2\n      mstore\n      0x04\n      add\n      dup1\n      dup1\n      0x20\n      add\n      dup3\n      dup2\n      sub\n      dup3\n      mstore\n      0x1c\n      dup2\n      mstore\n      0x20\n      add\n      dup1\n      0x43616e277420776974686472617720756e706c61796564206265747300000000\n      dup2\n      mstore\n      pop\n      0x20\n      add\n      swap2\n      pop\n      pop\n      mload(0x40)\n      dup1\n      swap2\n      sub\n      swap1\n      revert\n    tag_208:\n        /* \"AllContracts.sol\":13301:13314  payoutAddress */\n      0x15\n      0x00\n      swap1\n      sload\n      swap1\n      0x0100\n      exp\n      swap1\n      div\n      0xffffffffffffffffffffffffffffffffffffffff\n      and\n        /* \"AllContracts.sol\":13301:13323  payoutAddress.transfer */\n      0xffffffffffffffffffffffffffffffffffffffff\n      and\n        /* \"AllContracts.sol\":13301:13331  payoutAddress.transfer(amount) */\n      0x08fc\n        /* \"AllContracts.sol\":13324:13330  amount */\n      dup3\n        /* \"AllContracts.sol\":13301:13331  payoutAddress.transfer(amount) */\n      swap1\n      dup2\n      iszero\n      mul\n      swap1\n      mload(0x40)\n      0x00\n      mload(0x40)\n      dup1\n      dup4\n      sub\n      dup2\n      dup6\n      dup9\n      dup9\n      call\n      swap4\n      pop\n      pop\n      pop\n      pop\n      iszero\n        /* \"--CODEGEN--\":8:17   */\n      dup1\n        /* \"--CODEGEN--\":5:7   */\n      iszero\n      tag_210\n      jumpi\n        /* \"--CODEGEN--\":45:61   */\n      returndatasize\n        /* \"--CODEGEN--\":42:43   */\n      0x00\n        /* \"--CODEGEN--\":39:40   */\n      dup1\n        /* \"--CODEGEN--\":24:62   */\n      returndatacopy\n        /* \"--CODEGEN--\":77:93   */\n      returndatasize\n        /* \"--CODEGEN--\":74:75   */\n      0x00\n        /* \"--CODEGEN--\":67:94   */\n      revert\n        /* \"--CODEGEN--\":5:7   */\n    tag_210:\n        /* \"AllContracts.sol\":13301:13331  payoutAddress.transfer(amount) */\n      pop\n        /* \"AllContracts.sol\":13139:13338  function withdrawEth(uint amount) public onlyOwner {... */\n      pop\n      jump\t// out\n        /* \"AllContracts.sol\":8978:9639  function safeBetFor(address payable player, uint pick) public payable {... */\n    tag_118:\n        /* \"AllContracts.sol\":9066:9087  betPayable(msg.value) */\n      tag_212\n        /* \"AllContracts.sol\":9077:9086  msg.value */\n      callvalue\n        /* \"AllContracts.sol\":9066:9076  betPayable */\n      tag_213\n        /* \"AllContracts.sol\":9066:9087  betPayable(msg.value) */\n      jump\t// in\n    tag_212:\n        /* \"AllContracts.sol\":9058:9146  require(betPayable(msg.value), \"Contract has insufficint funds to payout possible win.\") */\n      tag_214\n      jumpi\n      mload(0x40)\n      0x08c379a000000000000000000000000000000000000000000000000000000000\n      dup2\n      mstore\n      0x04\n      add\n      dup1\n      dup1\n      0x20\n      add\n      dup3\n      dup2\n      sub\n      dup3\n      mstore\n      0x36\n      dup2\n      mstore\n      0x20\n      add\n      dup1\n      data_588b68a2a6ccdc15b2dae26a385280edec71bed95b5b14a24b760c56e4f665d6\n      0x36\n      swap2\n      codecopy\n      0x40\n      add\n      swap2\n      pop\n      pop\n      mload(0x40)\n      dup1\n      swap2\n      sub\n      swap1\n      revert\n    tag_214:\n        /* \"AllContracts.sol\":9172:9179  maxPick */\n      sload(0x10)\n        /* \"AllContracts.sol\":9164:9168  pick */\n      dup2\n        /* \"AllContracts.sol\":9164:9179  pick <= maxPick */\n      gt\n      iszero\n        /* \"AllContracts.sol\":9156:9224  require(pick <= maxPick, \"Pick is too high. Choose a lower number.\") */\n      tag_215\n      jumpi\n      mload(0x40)\n      0x08c379a000000000000000000000000000000000000000000000000000000000\n      dup2\n      mstore\n      0x04\n      add\n      dup1\n      dup1\n      0x20\n      add\n      dup3\n      dup2\n      sub\n      dup3\n      mstore\n      0x28\n      dup2\n      mstore\n      0x20\n      add\n      dup1\n      data_104d4309dbdd0d693502d943a07623e5e639a80ec32910748a6b4f701d61cac8\n      0x28\n      swap2\n      codecopy\n      0x40\n      add\n      swap2\n      pop\n      pop\n      mload(0x40)\n      dup1\n      swap2\n      sub\n      swap1\n      revert\n    tag_215:\n        /* \"AllContracts.sol\":9242:9263  betInRange(msg.value) */\n      tag_216\n        /* \"AllContracts.sol\":9253:9262  msg.value */\n      callvalue\n        /* \"AllContracts.sol\":9242:9252  betInRange */\n      tag_217\n        /* \"AllContracts.sol\":9242:9263  betInRange(msg.value) */\n      jump\t// in\n    tag_216:\n        /* \"AllContracts.sol\":9234:9288  require(betInRange(msg.value),\"Outisde of bet range.\") */\n      tag_218\n      jumpi\n      mload(0x40)\n      0x08c379a000000000000000000000000000000000000000000000000000000000\n      dup2\n      mstore\n      0x04\n      add\n      dup1\n      dup1\n      0x20\n      add\n      dup3\n      dup2\n      sub\n      dup3\n      mstore\n      0x15\n      dup2\n      mstore\n      0x20\n      add\n      dup1\n      0x4f757469736465206f66206265742072616e67652e0000000000000000000000\n      dup2\n      mstore\n      pop\n      0x20\n      add\n      swap2\n      pop\n      pop\n      mload(0x40)\n      dup1\n      swap2\n      sub\n      swap1\n      revert\n    tag_218:\n        /* \"AllContracts.sol\":9306:9310  gas1 */\n      0x06\n        /* \"AllContracts.sol\":9299:9310  delete gas1 */\n      0x00\n      swap1\n      sstore\n        /* \"AllContracts.sol\":9327:9331  gas2 */\n      0x07\n        /* \"AllContracts.sol\":9320:9331  delete gas2 */\n      0x00\n      swap1\n      sstore\n        /* \"AllContracts.sol\":9348:9352  gas3 */\n      0x08\n        /* \"AllContracts.sol\":9341:9352  delete gas3 */\n      0x00\n      swap1\n      sstore\n        /* \"AllContracts.sol\":9369:9373  gas4 */\n      0x09\n        /* \"AllContracts.sol\":9362:9373  delete gas4 */\n      0x00\n      swap1\n      sstore\n        /* \"AllContracts.sol\":9390:9394  gas5 */\n      0x0a\n        /* \"AllContracts.sol\":9383:9394  delete gas5 */\n      0x00\n      swap1\n      sstore\n        /* \"AllContracts.sol\":9411:9415  gas6 */\n      0x0b\n        /* \"AllContracts.sol\":9404:9415  delete gas6 */\n      0x00\n      swap1\n      sstore\n        /* \"AllContracts.sol\":9432:9436  gas7 */\n      0x0c\n        /* \"AllContracts.sol\":9425:9436  delete gas7 */\n      0x00\n      swap1\n      sstore\n        /* \"AllContracts.sol\":9453:9457  gas8 */\n      0x0d\n        /* \"AllContracts.sol\":9446:9457  delete gas8 */\n      0x00\n      swap1\n      sstore\n        /* \"AllContracts.sol\":9474:9478  gas9 */\n      0x0e\n        /* \"AllContracts.sol\":9467:9478  delete gas9 */\n      0x00\n      swap1\n      sstore\n        /* \"AllContracts.sol\":9495:9500  gas10 */\n      0x0f\n        /* \"AllContracts.sol\":9488:9500  delete gas10 */\n      0x00\n      swap1\n      sstore\n        /* \"AllContracts.sol\":9527:9555  _unplayedBets.add(msg.value) */\n      tag_219\n        /* \"AllContracts.sol\":9545:9554  msg.value */\n      callvalue\n        /* \"AllContracts.sol\":9527:9540  _unplayedBets */\n      sload(0x13)\n        /* \"AllContracts.sol\":9527:9544  _unplayedBets.add */\n      tag_178\n      swap1\n        /* \"AllContracts.sol\":9527:9555  _unplayedBets.add(msg.value) */\n      swap2\n      swap1\n      0xffffffff\n      and\n      jump\t// in\n    tag_219:\n        /* \"AllContracts.sol\":9511:9524  _unplayedBets */\n      0x13\n        /* \"AllContracts.sol\":9511:9555  _unplayedBets = _unplayedBets.add(msg.value) */\n      dup2\n      swap1\n      sstore\n      pop\n        /* \"AllContracts.sol\":9565:9600  createGame(player, msg.value, pick) */\n      tag_220\n        /* \"AllContracts.sol\":9576:9582  player */\n      dup3\n        /* \"AllContracts.sol\":9584:9593  msg.value */\n      callvalue\n        /* \"AllContracts.sol\":9595:9599  pick */\n      dup4\n        /* \"AllContracts.sol\":9565:9575  createGame */\n      tag_180\n        /* \"AllContracts.sol\":9565:9600  createGame(player, msg.value, pick) */\n      jump\t// in\n    tag_220:\n        /* \"AllContracts.sol\":9610:9632  playGame(_currentGame) */\n      tag_221\n        /* \"AllContracts.sol\":9619:9631  _currentGame */\n      sload(0x14)\n        /* \"AllContracts.sol\":9610:9618  playGame */\n      tag_182\n        /* \"AllContracts.sol\":9610:9632  playGame(_currentGame) */\n      jump\t// in\n    tag_221:\n        /* \"AllContracts.sol\":8978:9639  function safeBetFor(address payable player, uint pick) public payable {... */\n      pop\n      pop\n      jump\t// out\n        /* \"AllContracts.sol\":1844:2084  function transferOwnership(address newOwner) public virtual onlyOwner {... */\n    tag_122:\n        /* \"AllContracts.sol\":1141:1153  _msgSender() */\n      tag_223\n        /* \"AllContracts.sol\":1141:1151  _msgSender */\n      tag_129\n        /* \"AllContracts.sol\":1141:1153  _msgSender() */\n      jump\t// in\n    tag_223:\n        /* \"AllContracts.sol\":1131:1153  _owner == _msgSender() */\n      0xffffffffffffffffffffffffffffffffffffffff\n      and\n        /* \"AllContracts.sol\":1131:1137  _owner */\n      0x03\n      0x00\n      swap1\n      sload\n      swap1\n      0x0100\n      exp\n      swap1\n      div\n      0xffffffffffffffffffffffffffffffffffffffff\n      and\n        /* \"AllContracts.sol\":1131:1153  _owner == _msgSender() */\n      0xffffffffffffffffffffffffffffffffffffffff\n      and\n      eq\n        /* \"AllContracts.sol\":1123:1190  require(_owner == _msgSender(), \"Ownable: caller is not the owner\") */\n      tag_224\n      jumpi\n      mload(0x40)\n      0x08c379a000000000000000000000000000000000000000000000000000000000\n      dup2\n      mstore\n      0x04\n      add\n      dup1\n      dup1\n      0x20\n      add\n      dup3\n      dup2\n      sub\n      dup3\n      mstore\n      0x20\n      dup2\n      mstore\n      0x20\n      add\n      dup1\n      0x4f776e61626c653a2063616c6c6572206973206e6f7420746865206f776e6572\n      dup2\n      mstore\n      pop\n      0x20\n      add\n      swap2\n      pop\n      pop\n      mload(0x40)\n      dup1\n      swap2\n      sub\n      swap1\n      revert\n    tag_224:\n        /* \"AllContracts.sol\":1952:1953  0 */\n      0x00\n        /* \"AllContracts.sol\":1932:1954  newOwner != address(0) */\n      0xffffffffffffffffffffffffffffffffffffffff\n      and\n        /* \"AllContracts.sol\":1932:1940  newOwner */\n      dup2\n        /* \"AllContracts.sol\":1932:1954  newOwner != address(0) */\n      0xffffffffffffffffffffffffffffffffffffffff\n      and\n      eq\n      iszero\n        /* \"AllContracts.sol\":1924:1997  require(newOwner != address(0), \"Ownable: new owner is the zero address\") */\n      tag_226\n      jumpi\n      mload(0x40)\n      0x08c379a000000000000000000000000000000000000000000000000000000000\n      dup2\n      mstore\n      0x04\n      add\n      dup1\n      dup1\n      0x20\n      add\n      dup3\n      dup2\n      sub\n      dup3\n      mstore\n      0x26\n      dup2\n      mstore\n      0x20\n      add\n      dup1\n      data_245f15ff17f551913a7a18385165551503906a406f905ac1c2437281a7cd0cfe\n      0x26\n      swap2\n      codecopy\n      0x40\n      add\n      swap2\n      pop\n      pop\n      mload(0x40)\n      dup1\n      swap2\n      sub\n      swap1\n      revert\n    tag_226:\n        /* \"AllContracts.sol\":2041:2049  newOwner */\n      dup1\n        /* \"AllContracts.sol\":2012:2050  OwnershipTransferred(_owner, newOwner) */\n      0xffffffffffffffffffffffffffffffffffffffff\n      and\n        /* \"AllContracts.sol\":2033:2039  _owner */\n      0x03\n      0x00\n      swap1\n      sload\n      swap1\n      0x0100\n      exp\n      swap1\n      div\n      0xffffffffffffffffffffffffffffffffffffffff\n      and\n        /* \"AllContracts.sol\":2012:2050  OwnershipTransferred(_owner, newOwner) */\n      0xffffffffffffffffffffffffffffffffffffffff\n      and\n      0x8be0079c531659141344cd1fd0a4f28419497f9722a3daafe3b4186f6b6457e0\n      mload(0x40)\n      mload(0x40)\n      dup1\n      swap2\n      sub\n      swap1\n      log3\n        /* \"AllContracts.sol\":2069:2077  newOwner */\n      dup1\n        /* \"AllContracts.sol\":2060:2066  _owner */\n      0x03\n      0x00\n        /* \"AllContracts.sol\":2060:2077  _owner = newOwner */\n      0x0100\n      exp\n      dup2\n      sload\n      dup2\n      0xffffffffffffffffffffffffffffffffffffffff\n      mul\n      not\n      and\n      swap1\n      dup4\n      0xffffffffffffffffffffffffffffffffffffffff\n      and\n      mul\n      or\n      swap1\n      sstore\n      pop\n        /* \"AllContracts.sol\":1844:2084  function transferOwnership(address newOwner) public virtual onlyOwner {... */\n      pop\n      jump\t// out\n        /* \"AllContracts.sol\":13783:13866  function replayGame(uint gameID) public onlyOwner {... */\n    tag_126:\n        /* \"AllContracts.sol\":1141:1153  _msgSender() */\n      tag_228\n        /* \"AllContracts.sol\":1141:1151  _msgSender */\n      tag_129\n        /* \"AllContracts.sol\":1141:1153  _msgSender() */\n      jump\t// in\n    tag_228:\n        /* \"AllContracts.sol\":1131:1153  _owner == _msgSender() */\n      0xffffffffffffffffffffffffffffffffffffffff\n      and\n        /* \"AllContracts.sol\":1131:1137  _owner */\n      0x03\n      0x00\n      swap1\n      sload\n      swap1\n      0x0100\n      exp\n      swap1\n      div\n      0xffffffffffffffffffffffffffffffffffffffff\n      and\n        /* \"AllContracts.sol\":1131:1153  _owner == _msgSender() */\n      0xffffffffffffffffffffffffffffffffffffffff\n      and\n      eq\n        /* \"AllContracts.sol\":1123:1190  require(_owner == _msgSender(), \"Ownable: caller is not the owner\") */\n      tag_229\n      jumpi\n      mload(0x40)\n      0x08c379a000000000000000000000000000000000000000000000000000000000\n      dup2\n      mstore\n      0x04\n      add\n      dup1\n      dup1\n      0x20\n      add\n      dup3\n      dup2\n      sub\n      dup3\n      mstore\n      0x20\n      dup2\n      mstore\n      0x20\n      add\n      dup1\n      0x4f776e61626c653a2063616c6c6572206973206e6f7420746865206f776e6572\n      dup2\n      mstore\n      pop\n      0x20\n      add\n      swap2\n      pop\n      pop\n      mload(0x40)\n      dup1\n      swap2\n      sub\n      swap1\n      revert\n    tag_229:\n        /* \"AllContracts.sol\":13843:13859  playGame(gameID) */\n      tag_231\n        /* \"AllContracts.sol\":13852:13858  gameID */\n      dup2\n        /* \"AllContracts.sol\":13843:13851  playGame */\n      tag_182\n        /* \"AllContracts.sol\":13843:13859  playGame(gameID) */\n      jump\t// in\n    tag_231:\n        /* \"AllContracts.sol\":13783:13866  function replayGame(uint gameID) public onlyOwner {... */\n      pop\n      jump\t// out\n        /* \"AllContracts.sol\":90:194  function _msgSender() internal view virtual returns (address payable) {... */\n    tag_129:\n        /* \"AllContracts.sol\":143:158  address payable */\n      0x00\n        /* \"AllContracts.sol\":177:187  msg.sender */\n      caller\n        /* \"AllContracts.sol\":170:187  return msg.sender */\n      swap1\n      pop\n        /* \"AllContracts.sol\":90:194  function _msgSender() internal view virtual returns (address payable) {... */\n      swap1\n      jump\t// out\n        /* \"AllContracts.sol\":10649:12004  function fulfillRandomness(bytes32 requestId, uint256 randomness) internal override {... */\n    tag_159:\n        /* \"AllContracts.sol\":10780:10794  Game storage g */\n      0x00\n        /* \"AllContracts.sol\":10797:10802  games */\n      0x17\n        /* \"AllContracts.sol\":10797:10828  games[_gameRequests[requestId]] */\n      0x00\n        /* \"AllContracts.sol\":10803:10816  _gameRequests */\n      0x18\n        /* \"AllContracts.sol\":10803:10827  _gameRequests[requestId] */\n      0x00\n        /* \"AllContracts.sol\":10817:10826  requestId */\n      dup7\n        /* \"AllContracts.sol\":10803:10827  _gameRequests[requestId] */\n      dup2\n      mstore\n      0x20\n      add\n      swap1\n      dup2\n      mstore\n      0x20\n      add\n      0x00\n      keccak256\n      sload\n        /* \"AllContracts.sol\":10797:10828  games[_gameRequests[requestId]] */\n      dup2\n      mstore\n      0x20\n      add\n      swap1\n      dup2\n      mstore\n      0x20\n      add\n      0x00\n      keccak256\n        /* \"AllContracts.sol\":10780:10828  Game storage g = games[_gameRequests[requestId]] */\n      swap1\n      pop\n        /* \"AllContracts.sol\":10848:10849  0 */\n      0x00\n        /* \"AllContracts.sol\":10841:10842  g */\n      dup2\n        /* \"AllContracts.sol\":10841:10845  g.id */\n      0x00\n      add\n      sload\n        /* \"AllContracts.sol\":10841:10849  g.id > 0 */\n      gt\n        /* \"AllContracts.sol\":10838:11817  if(g.id > 0){... */\n      iszero\n      tag_234\n      jumpi\n        /* \"AllContracts.sol\":10875:10881  maxBet */\n      sload(0x11)\n        /* \"AllContracts.sol\":10867:10868  g */\n      dup2\n        /* \"AllContracts.sol\":10867:10872  g.bet */\n      0x02\n      add\n      sload\n        /* \"AllContracts.sol\":10867:10881  g.bet > maxBet */\n      gt\n        /* \"AllContracts.sol\":10864:11077  if(g.bet > maxBet) {... */\n      iszero\n      tag_235\n      jumpi\n        /* \"AllContracts.sol\":10909:10915  maxBet */\n      sload(0x11)\n        /* \"AllContracts.sol\":10901:10902  g */\n      dup2\n        /* \"AllContracts.sol\":10901:10906  g.bet */\n      0x02\n      add\n        /* \"AllContracts.sol\":10901:10915  g.bet = maxBet */\n      dup2\n      swap1\n      sstore\n      pop\n        /* \"AllContracts.sol\":10864:11077  if(g.bet > maxBet) {... */\n    tag_235:\n        /* \"AllContracts.sol\":11090:11106  uint totalPayout */\n      0x00\n        /* \"AllContracts.sol\":11129:11130  g */\n      dup2\n        /* \"AllContracts.sol\":11129:11134  g.bet */\n      0x02\n      add\n      sload\n        /* \"AllContracts.sol\":11109:11126  g.bet.mul(payout) */\n      tag_236\n        /* \"AllContracts.sol\":11119:11125  payout */\n      sload(0x16)\n        /* \"AllContracts.sol\":11109:11110  g */\n      dup5\n        /* \"AllContracts.sol\":11109:11114  g.bet */\n      0x02\n      add\n      sload\n        /* \"AllContracts.sol\":11109:11118  g.bet.mul */\n      tag_237\n      swap1\n        /* \"AllContracts.sol\":11109:11126  g.bet.mul(payout) */\n      swap2\n      swap1\n      0xffffffff\n      and\n      jump\t// in\n    tag_236:\n        /* \"AllContracts.sol\":11109:11134  g.bet.mul(payout) + g.bet */\n      add\n        /* \"AllContracts.sol\":11090:11134  uint totalPayout = g.bet.mul(payout) + g.bet */\n      swap1\n      pop\n        /* \"AllContracts.sol\":11181:11192  totalPayout */\n      dup1\n        /* \"AllContracts.sol\":11156:11177  address(this).balance */\n      selfbalance\n        /* \"AllContracts.sol\":11156:11192  address(this).balance >= totalPayout */\n      lt\n      iszero\n        /* \"AllContracts.sol\":11148:11248  require(address(this).balance >= totalPayout, \"Unable to pay. Please play again or request refund.\") */\n      tag_238\n      jumpi\n      mload(0x40)\n      0x08c379a000000000000000000000000000000000000000000000000000000000\n      dup2\n      mstore\n      0x04\n      add\n      dup1\n      dup1\n      0x20\n      add\n      dup3\n      dup2\n      sub\n      dup3\n      mstore\n      0x33\n      dup2\n      mstore\n      0x20\n      add\n      dup1\n      data_ef92889bcd3368ac0e5c94a5c325c5cf21da03eb1576ee7d446327960d5fae81\n      0x33\n      swap2\n      codecopy\n      0x40\n      add\n      swap2\n      pop\n      pop\n      mload(0x40)\n      dup1\n      swap2\n      sub\n      swap1\n      revert\n    tag_238:\n        /* \"AllContracts.sol\":11320:11350  randomness.mod(maxPick.add(1)) */\n      tag_239\n        /* \"AllContracts.sol\":11335:11349  maxPick.add(1) */\n      tag_240\n        /* \"AllContracts.sol\":11347:11348  1 */\n      0x01\n        /* \"AllContracts.sol\":11335:11342  maxPick */\n      sload(0x10)\n        /* \"AllContracts.sol\":11335:11346  maxPick.add */\n      tag_178\n      swap1\n        /* \"AllContracts.sol\":11335:11349  maxPick.add(1) */\n      swap2\n      swap1\n      0xffffffff\n      and\n      jump\t// in\n    tag_240:\n        /* \"AllContracts.sol\":11320:11330  randomness */\n      dup5\n        /* \"AllContracts.sol\":11320:11334  randomness.mod */\n      tag_241\n      swap1\n        /* \"AllContracts.sol\":11320:11350  randomness.mod(maxPick.add(1)) */\n      swap2\n      swap1\n      0xffffffff\n      and\n      jump\t// in\n    tag_239:\n        /* \"AllContracts.sol\":11309:11310  g */\n      dup3\n        /* \"AllContracts.sol\":11309:11317  g.winner */\n      0x04\n      add\n        /* \"AllContracts.sol\":11309:11350  g.winner = randomness.mod(maxPick.add(1)) */\n      dup2\n      swap1\n      sstore\n      pop\n        /* \"AllContracts.sol\":11410:11414  true */\n      0x01\n        /* \"AllContracts.sol\":11399:11400  g */\n      dup3\n        /* \"AllContracts.sol\":11399:11407  g.played */\n      0x05\n      add\n      0x00\n        /* \"AllContracts.sol\":11399:11414  g.played = true */\n      0x0100\n      exp\n      dup2\n      sload\n      dup2\n      0xff\n      mul\n      not\n      and\n      swap1\n      dup4\n      iszero\n      iszero\n      mul\n      or\n      swap1\n      sstore\n      pop\n        /* \"AllContracts.sol\":11490:11491  g */\n      dup2\n        /* \"AllContracts.sol\":11490:11495  g.bet */\n      0x02\n      add\n      sload\n        /* \"AllContracts.sol\":11473:11486  _unplayedBets */\n      sload(0x13)\n        /* \"AllContracts.sol\":11473:11495  _unplayedBets >= g.bet */\n      lt\n        /* \"AllContracts.sol\":11470:11608  if(_unplayedBets >= g.bet) {... */\n      tag_242\n      jumpi\n        /* \"AllContracts.sol\":11532:11533  g */\n      dup2\n        /* \"AllContracts.sol\":11532:11537  g.bet */\n      0x02\n      add\n      sload\n        /* \"AllContracts.sol\":11515:11528  _unplayedBets */\n      0x13\n      0x00\n        /* \"AllContracts.sol\":11515:11537  _unplayedBets -= g.bet */\n      dup3\n      dup3\n      sload\n      sub\n      swap3\n      pop\n      pop\n      dup2\n      swap1\n      sstore\n      pop\n        /* \"AllContracts.sol\":11470:11608  if(_unplayedBets >= g.bet) {... */\n      jump(tag_243)\n    tag_242:\n        /* \"AllContracts.sol\":11592:11593  0 */\n      0x00\n        /* \"AllContracts.sol\":11576:11589  _unplayedBets */\n      0x13\n        /* \"AllContracts.sol\":11576:11593  _unplayedBets = 0 */\n      dup2\n      swap1\n      sstore\n      pop\n        /* \"AllContracts.sol\":11470:11608  if(_unplayedBets >= g.bet) {... */\n    tag_243:\n        /* \"AllContracts.sol\":11696:11697  g */\n      dup2\n        /* \"AllContracts.sol\":11696:11704  g.winner */\n      0x04\n      add\n      sload\n        /* \"AllContracts.sol\":11686:11687  g */\n      dup3\n        /* \"AllContracts.sol\":11686:11692  g.pick */\n      0x03\n      add\n      sload\n        /* \"AllContracts.sol\":11686:11704  g.pick == g.winner */\n      eq\n        /* \"AllContracts.sol\":11682:11769  if (g.pick == g.winner) {... */\n      iszero\n      tag_244\n      jumpi\n        /* \"AllContracts.sol\":11724:11725  g */\n      dup2\n        /* \"AllContracts.sol\":11724:11732  g.player */\n      0x01\n      add\n      0x00\n      swap1\n      sload\n      swap1\n      0x0100\n      exp\n      swap1\n      div\n      0xffffffffffffffffffffffffffffffffffffffff\n      and\n        /* \"AllContracts.sol\":11724:11741  g.player.transfer */\n      0xffffffffffffffffffffffffffffffffffffffff\n      and\n        /* \"AllContracts.sol\":11724:11754  g.player.transfer(totalPayout) */\n      0x08fc\n        /* \"AllContracts.sol\":11742:11753  totalPayout */\n      dup3\n        /* \"AllContracts.sol\":11724:11754  g.player.transfer(totalPayout) */\n      swap1\n      dup2\n      iszero\n      mul\n      swap1\n      mload(0x40)\n      0x00\n      mload(0x40)\n      dup1\n      dup4\n      sub\n      dup2\n      dup6\n      dup9\n      dup9\n      call\n      swap4\n      pop\n      pop\n      pop\n      pop\n      iszero\n        /* \"--CODEGEN--\":8:17   */\n      dup1\n        /* \"--CODEGEN--\":5:7   */\n      iszero\n      tag_246\n      jumpi\n        /* \"--CODEGEN--\":45:61   */\n      returndatasize\n        /* \"--CODEGEN--\":42:43   */\n      0x00\n        /* \"--CODEGEN--\":39:40   */\n      dup1\n        /* \"--CODEGEN--\":24:62   */\n      returndatacopy\n        /* \"--CODEGEN--\":77:93   */\n      returndatasize\n        /* \"--CODEGEN--\":74:75   */\n      0x00\n        /* \"--CODEGEN--\":67:94   */\n      revert\n        /* \"--CODEGEN--\":5:7   */\n    tag_246:\n        /* \"AllContracts.sol\":11724:11754  g.player.transfer(totalPayout) */\n      pop\n        /* \"AllContracts.sol\":11682:11769  if (g.pick == g.winner) {... */\n    tag_244:\n        /* \"AllContracts.sol\":10838:11817  if(g.id > 0){... */\n      pop\n    tag_234:\n        /* \"AllContracts.sol\":11833:11834  1 */\n      0x01\n        /* \"AllContracts.sol\":11826:11830  gas1 */\n      0x06\n        /* \"AllContracts.sol\":11826:11834  gas1 = 1 */\n      dup2\n      swap1\n      sstore\n      pop\n        /* \"AllContracts.sol\":11851:11852  1 */\n      0x01\n        /* \"AllContracts.sol\":11844:11848  gas2 */\n      0x07\n        /* \"AllContracts.sol\":11844:11852  gas2 = 1 */\n      dup2\n      swap1\n      sstore\n      pop\n        /* \"AllContracts.sol\":11869:11870  1 */\n      0x01\n        /* \"AllContracts.sol\":11862:11866  gas3 */\n      0x08\n        /* \"AllContracts.sol\":11862:11870  gas3 = 1 */\n      dup2\n      swap1\n      sstore\n      pop\n        /* \"AllContracts.sol\":11887:11888  1 */\n      0x01\n        /* \"AllContracts.sol\":11880:11884  gas4 */\n      0x09\n        /* \"AllContracts.sol\":11880:11888  gas4 = 1 */\n      dup2\n      swap1\n      sstore\n      pop\n        /* \"AllContracts.sol\":11905:11906  1 */\n      0x01\n        /* \"AllContracts.sol\":11898:11902  gas5 */\n      0x0a\n        /* \"AllContracts.sol\":11898:11906  gas5 = 1 */\n      dup2\n      swap1\n      sstore\n      pop\n        /* \"AllContracts.sol\":11923:11924  1 */\n      0x01\n        /* \"AllContracts.sol\":11916:11920  gas6 */\n      0x0b\n        /* \"AllContracts.sol\":11916:11924  gas6 = 1 */\n      dup2\n      swap1\n      sstore\n      pop\n        /* \"AllContracts.sol\":11941:11942  1 */\n      0x01\n        /* \"AllContracts.sol\":11934:11938  gas7 */\n      0x0c\n        /* \"AllContracts.sol\":11934:11942  gas7 = 1 */\n      dup2\n      swap1\n      sstore\n      pop\n        /* \"AllContracts.sol\":11959:11960  1 */\n      0x01\n        /* \"AllContracts.sol\":11952:11956  gas8 */\n      0x0d\n        /* \"AllContracts.sol\":11952:11960  gas8 = 1 */\n      dup2\n      swap1\n      sstore\n      pop\n        /* \"AllContracts.sol\":11977:11978  1 */\n      0x01\n        /* \"AllContracts.sol\":11970:11974  gas9 */\n      0x0e\n        /* \"AllContracts.sol\":11970:11978  gas9 = 1 */\n      dup2\n      swap1\n      sstore\n      pop\n        /* \"AllContracts.sol\":11996:11997  1 */\n      0x01\n        /* \"AllContracts.sol\":11988:11993  gas10 */\n      0x0f\n        /* \"AllContracts.sol\":11988:11997  gas10 = 1 */\n      dup2\n      swap1\n      sstore\n      pop\n        /* \"AllContracts.sol\":10649:12004  function fulfillRandomness(bytes32 requestId, uint256 randomness) internal override {... */\n      pop\n      pop\n      pop\n      jump\t// out\n        /* \"AllContracts.sol\":2119:2281  function add(uint256 a, uint256 b) internal pure returns (uint256) {... */\n    tag_178:\n        /* \"AllContracts.sol\":2177:2184  uint256 */\n      0x00\n        /* \"AllContracts.sol\":2192:2201  uint256 c */\n      dup1\n        /* \"AllContracts.sol\":2208:2209  b */\n      dup3\n        /* \"AllContracts.sol\":2204:2205  a */\n      dup5\n        /* \"AllContracts.sol\":2204:2209  a + b */\n      add\n        /* \"AllContracts.sol\":2192:2209  uint256 c = a + b */\n      swap1\n      pop\n        /* \"AllContracts.sol\":2228:2229  a */\n      dup4\n        /* \"AllContracts.sol\":2223:2224  c */\n      dup2\n        /* \"AllContracts.sol\":2223:2229  c >= a */\n      lt\n      iszero\n        /* \"AllContracts.sol\":2215:2261  require(c >= a, \"SafeMath: addition overflow\") */\n      tag_248\n      jumpi\n      mload(0x40)\n      0x08c379a000000000000000000000000000000000000000000000000000000000\n      dup2\n      mstore\n      0x04\n      add\n      dup1\n      dup1\n      0x20\n      add\n      dup3\n      dup2\n      sub\n      dup3\n      mstore\n      0x1b\n      dup2\n      mstore\n      0x20\n      add\n      dup1\n      0x536166654d6174683a206164646974696f6e206f766572666c6f770000000000\n      dup2\n      mstore\n      pop\n      0x20\n      add\n      swap2\n      pop\n      pop\n      mload(0x40)\n      dup1\n      swap2\n      sub\n      swap1\n      revert\n    tag_248:\n        /* \"AllContracts.sol\":2275:2276  c */\n      dup1\n        /* \"AllContracts.sol\":2268:2276  return c */\n      swap2\n      pop\n      pop\n        /* \"AllContracts.sol\":2119:2281  function add(uint256 a, uint256 b) internal pure returns (uint256) {... */\n      swap3\n      swap2\n      pop\n      pop\n      jump\t// out\n        /* \"AllContracts.sol\":9645:10078  function createGame(address payable _player, uint _bet, uint _pick) internal {... */\n    tag_180:\n        /* \"AllContracts.sol\":9748:9767  _currentGame.add(1) */\n      tag_250\n        /* \"AllContracts.sol\":9765:9766  1 */\n      0x01\n        /* \"AllContracts.sol\":9748:9760  _currentGame */\n      sload(0x14)\n        /* \"AllContracts.sol\":9748:9764  _currentGame.add */\n      tag_178\n      swap1\n        /* \"AllContracts.sol\":9748:9767  _currentGame.add(1) */\n      swap2\n      swap1\n      0xffffffff\n      and\n      jump\t// in\n    tag_250:\n        /* \"AllContracts.sol\":9733:9745  _currentGame */\n      0x14\n        /* \"AllContracts.sol\":9733:9767  _currentGame = _currentGame.add(1) */\n      dup2\n      swap1\n      sstore\n      pop\n        /* \"AllContracts.sol\":9777:9796  Game memory newGame */\n      tag_251\n      tag_252\n      jump\t// in\n    tag_251:\n        /* \"AllContracts.sol\":9799:10034  Game ({... */\n      mload(0x40)\n      dup1\n      0xc0\n      add\n      0x40\n      mstore\n      dup1\n        /* \"AllContracts.sol\":9823:9835  _currentGame */\n      sload(0x14)\n        /* \"AllContracts.sol\":9799:10034  Game ({... */\n      dup2\n      mstore\n      0x20\n      add\n        /* \"AllContracts.sol\":9857:9864  _player */\n      dup6\n        /* \"AllContracts.sol\":9799:10034  Game ({... */\n      0xffffffffffffffffffffffffffffffffffffffff\n      and\n      dup2\n      mstore\n      0x20\n      add\n        /* \"AllContracts.sol\":9883:9887  _bet */\n      dup5\n        /* \"AllContracts.sol\":9799:10034  Game ({... */\n      dup2\n      mstore\n      0x20\n      add\n        /* \"AllContracts.sol\":9907:9912  _pick */\n      dup4\n        /* \"AllContracts.sol\":9799:10034  Game ({... */\n      dup2\n      mstore\n      0x20\n      add\n        /* \"AllContracts.sol\":9934:9949  maxPick.add(10) */\n      tag_253\n        /* \"AllContracts.sol\":9946:9948  10 */\n      0x0a\n        /* \"AllContracts.sol\":9934:9941  maxPick */\n      sload(0x10)\n        /* \"AllContracts.sol\":9934:9945  maxPick.add */\n      tag_178\n      swap1\n        /* \"AllContracts.sol\":9934:9949  maxPick.add(10) */\n      swap2\n      swap1\n      0xffffffff\n      and\n      jump\t// in\n    tag_253:\n        /* \"AllContracts.sol\":9799:10034  Game ({... */\n      dup2\n      mstore\n      0x20\n      add\n        /* \"AllContracts.sol\":10018:10023  false */\n      0x00\n        /* \"AllContracts.sol\":9799:10034  Game ({... */\n      iszero\n      iszero\n      dup2\n      mstore\n      pop\n        /* \"AllContracts.sol\":9777:10034  Game memory newGame = Game ({... */\n      swap1\n      pop\n        /* \"AllContracts.sol\":10064:10071  newGame */\n      dup1\n        /* \"AllContracts.sol\":10044:10049  games */\n      0x17\n        /* \"AllContracts.sol\":10044:10061  games[newGame.id] */\n      0x00\n        /* \"AllContracts.sol\":10050:10057  newGame */\n      dup4\n        /* \"AllContracts.sol\":10050:10060  newGame.id */\n      0x00\n      add\n      mload\n        /* \"AllContracts.sol\":10044:10061  games[newGame.id] */\n      dup2\n      mstore\n      0x20\n      add\n      swap1\n      dup2\n      mstore\n      0x20\n      add\n      0x00\n      keccak256\n        /* \"AllContracts.sol\":10044:10071  games[newGame.id] = newGame */\n      0x00\n      dup3\n      add\n      mload\n      dup2\n      0x00\n      add\n      sstore\n      0x20\n      dup3\n      add\n      mload\n      dup2\n      0x01\n      add\n      exp(0x0100, 0x00)\n      dup2\n      sload\n      dup2\n      0xffffffffffffffffffffffffffffffffffffffff\n      mul\n      not\n      and\n      swap1\n      dup4\n      0xffffffffffffffffffffffffffffffffffffffff\n      and\n      mul\n      or\n      swap1\n      sstore\n      pop\n      0x40\n      dup3\n      add\n      mload\n      dup2\n      0x02\n      add\n      sstore\n      0x60\n      dup3\n      add\n      mload\n      dup2\n      0x03\n      add\n      sstore\n      0x80\n      dup3\n      add\n      mload\n      dup2\n      0x04\n      add\n      sstore\n      0xa0\n      dup3\n      add\n      mload\n      dup2\n      0x05\n      add\n      exp(0x0100, 0x00)\n      dup2\n      sload\n      dup2\n      0xff\n      mul\n      not\n      and\n      swap1\n      dup4\n      iszero\n      iszero\n      mul\n      or\n      swap1\n      sstore\n      pop\n      swap1\n      pop\n      pop\n        /* \"AllContracts.sol\":9645:10078  function createGame(address payable _player, uint _bet, uint _pick) internal {... */\n      pop\n      pop\n      pop\n      pop\n      jump\t// out\n        /* \"AllContracts.sol\":10167:10427  function playGame(uint gameID) internal {... */\n    tag_182:\n        /* \"AllContracts.sol\":10249:10254  false */\n      0x00\n        /* \"AllContracts.sol\":10225:10254  games[gameID].played == false */\n      iszero\n      iszero\n        /* \"AllContracts.sol\":10225:10230  games */\n      0x17\n        /* \"AllContracts.sol\":10225:10238  games[gameID] */\n      0x00\n        /* \"AllContracts.sol\":10231:10237  gameID */\n      dup4\n        /* \"AllContracts.sol\":10225:10238  games[gameID] */\n      dup2\n      mstore\n      0x20\n      add\n      swap1\n      dup2\n      mstore\n      0x20\n      add\n      0x00\n      keccak256\n        /* \"AllContracts.sol\":10225:10245  games[gameID].played */\n      0x05\n      add\n      0x00\n      swap1\n      sload\n      swap1\n      0x0100\n      exp\n      swap1\n      div\n      0xff\n      and\n        /* \"AllContracts.sol\":10225:10254  games[gameID].played == false */\n      iszero\n      iszero\n      eq\n        /* \"AllContracts.sol\":10217:10278  require(games[gameID].played == false, \"game already played\") */\n      tag_255\n      jumpi\n      mload(0x40)\n      0x08c379a000000000000000000000000000000000000000000000000000000000\n      dup2\n      mstore\n      0x04\n      add\n      dup1\n      dup1\n      0x20\n      add\n      dup3\n      dup2\n      sub\n      dup3\n      mstore\n      0x13\n      dup2\n      mstore\n      0x20\n      add\n      dup1\n      0x67616d6520616c726561647920706c6179656400000000000000000000000000\n      dup2\n      mstore\n      pop\n      0x20\n      add\n      swap2\n      pop\n      pop\n      mload(0x40)\n      dup1\n      swap2\n      sub\n      swap1\n      revert\n    tag_255:\n        /* \"AllContracts.sol\":10317:10326  uint seed */\n      0x00\n        /* \"AllContracts.sol\":10329:10334  12345 */\n      0x3039\n        /* \"AllContracts.sol\":10317:10334  uint seed = 12345 */\n      swap1\n      pop\n        /* \"AllContracts.sol\":10344:10357  bytes32 reqID */\n      0x00\n        /* \"AllContracts.sol\":10360:10381  getRandomNumber(seed) */\n      tag_256\n        /* \"AllContracts.sol\":10376:10380  seed */\n      dup3\n        /* \"AllContracts.sol\":10360:10375  getRandomNumber */\n      tag_257\n        /* \"AllContracts.sol\":10360:10381  getRandomNumber(seed) */\n      jump\t// in\n    tag_256:\n        /* \"AllContracts.sol\":10344:10381  bytes32 reqID = getRandomNumber(seed) */\n      swap1\n      pop\n        /* \"AllContracts.sol\":10414:10420  gameID */\n      dup3\n        /* \"AllContracts.sol\":10391:10404  _gameRequests */\n      0x18\n        /* \"AllContracts.sol\":10391:10411  _gameRequests[reqID] */\n      0x00\n        /* \"AllContracts.sol\":10405:10410  reqID */\n      dup4\n        /* \"AllContracts.sol\":10391:10411  _gameRequests[reqID] */\n      dup2\n      mstore\n      0x20\n      add\n      swap1\n      dup2\n      mstore\n      0x20\n      add\n      0x00\n      keccak256\n        /* \"AllContracts.sol\":10391:10420  _gameRequests[reqID] = gameID */\n      dup2\n      swap1\n      sstore\n      pop\n        /* \"AllContracts.sol\":10167:10427  function playGame(uint gameID) internal {... */\n      pop\n      pop\n      pop\n      jump\t// out\n        /* \"AllContracts.sol\":2285:2450  function sub(uint256 a, uint256 b) internal pure returns (uint256) {... */\n    tag_188:\n        /* \"AllContracts.sol\":2343:2350  uint256 */\n      0x00\n        /* \"AllContracts.sol\":2371:2372  a */\n      dup3\n        /* \"AllContracts.sol\":2366:2367  b */\n      dup3\n        /* \"AllContracts.sol\":2366:2372  b <= a */\n      gt\n      iszero\n        /* \"AllContracts.sol\":2358:2407  require(b <= a, \"SafeMath: subtraction overflow\") */\n      tag_259\n      jumpi\n      mload(0x40)\n      0x08c379a000000000000000000000000000000000000000000000000000000000\n      dup2\n      mstore\n      0x04\n      add\n      dup1\n      dup1\n      0x20\n      add\n      dup3\n      dup2\n      sub\n      dup3\n      mstore\n      0x1e\n      dup2\n      mstore\n      0x20\n      add\n      dup1\n      0x536166654d6174683a207375627472616374696f6e206f766572666c6f770000\n      dup2\n      mstore\n      pop\n      0x20\n      add\n      swap2\n      pop\n      pop\n      mload(0x40)\n      dup1\n      swap2\n      sub\n      swap1\n      revert\n    tag_259:\n        /* \"AllContracts.sol\":2413:2422  uint256 c */\n      0x00\n        /* \"AllContracts.sol\":2429:2430  b */\n      dup3\n        /* \"AllContracts.sol\":2425:2426  a */\n      dup5\n        /* \"AllContracts.sol\":2425:2430  a - b */\n      sub\n        /* \"AllContracts.sol\":2413:2430  uint256 c = a - b */\n      swap1\n      pop\n        /* \"AllContracts.sol\":2444:2445  c */\n      dup1\n        /* \"AllContracts.sol\":2437:2445  return c */\n      swap2\n      pop\n      pop\n        /* \"AllContracts.sol\":2285:2450  function sub(uint256 a, uint256 b) internal pure returns (uint256) {... */\n      swap3\n      swap2\n      pop\n      pop\n      jump\t// out\n        /* \"AllContracts.sol\":8206:8357  function betPayable(uint bet) internal view returns(bool){... */\n    tag_213:\n        /* \"AllContracts.sol\":8258:8262  bool */\n      0x00\n        /* \"AllContracts.sol\":8325:8349  bet.mul(payout).add(bet) */\n      tag_261\n        /* \"AllContracts.sol\":8345:8348  bet */\n      dup3\n        /* \"AllContracts.sol\":8325:8340  bet.mul(payout) */\n      tag_262\n        /* \"AllContracts.sol\":8333:8339  payout */\n      sload(0x16)\n        /* \"AllContracts.sol\":8325:8328  bet */\n      dup6\n        /* \"AllContracts.sol\":8325:8332  bet.mul */\n      tag_237\n      swap1\n        /* \"AllContracts.sol\":8325:8340  bet.mul(payout) */\n      swap2\n      swap1\n      0xffffffff\n      and\n      jump\t// in\n    tag_262:\n        /* \"AllContracts.sol\":8325:8344  bet.mul(payout).add */\n      tag_178\n      swap1\n        /* \"AllContracts.sol\":8325:8349  bet.mul(payout).add(bet) */\n      swap2\n      swap1\n      0xffffffff\n      and\n      jump\t// in\n    tag_261:\n        /* \"AllContracts.sol\":8281:8321  address(this).balance.sub(_unplayedBets) */\n      tag_263\n        /* \"AllContracts.sol\":8307:8320  _unplayedBets */\n      sload(0x13)\n        /* \"AllContracts.sol\":8281:8302  address(this).balance */\n      selfbalance\n        /* \"AllContracts.sol\":8281:8306  address(this).balance.sub */\n      tag_188\n      swap1\n        /* \"AllContracts.sol\":8281:8321  address(this).balance.sub(_unplayedBets) */\n      swap2\n      swap1\n      0xffffffff\n      and\n      jump\t// in\n    tag_263:\n        /* \"AllContracts.sol\":8281:8349  address(this).balance.sub(_unplayedBets) >= bet.mul(payout).add(bet) */\n      lt\n      iszero\n        /* \"AllContracts.sol\":8273:8350  return (address(this).balance.sub(_unplayedBets) >= bet.mul(payout).add(bet)) */\n      swap1\n      pop\n        /* \"AllContracts.sol\":8206:8357  function betPayable(uint bet) internal view returns(bool){... */\n      swap2\n      swap1\n      pop\n      jump\t// out\n        /* \"AllContracts.sol\":7727:8200  function betInRange(uint bet) internal view returns(bool){... */\n    tag_217:\n        /* \"AllContracts.sol\":7779:7783  bool */\n      0x00\n        /* \"AllContracts.sol\":7805:7811  minBet */\n      sload(0x12)\n        /* \"AllContracts.sol\":7798:7801  bet */\n      dup3\n        /* \"AllContracts.sol\":7798:7811  bet >= minBet */\n      lt\n      iszero\n        /* \"AllContracts.sol\":7798:7828  bet >= minBet && bet <= maxBet */\n      dup1\n      iszero\n      tag_265\n      jumpi\n      pop\n        /* \"AllContracts.sol\":7822:7828  maxBet */\n      sload(0x11)\n        /* \"AllContracts.sol\":7815:7818  bet */\n      dup3\n        /* \"AllContracts.sol\":7815:7828  bet <= maxBet */\n      gt\n      iszero\n        /* \"AllContracts.sol\":7798:7828  bet >= minBet && bet <= maxBet */\n    tag_265:\n        /* \"AllContracts.sol\":7794:8194  if (bet >= minBet && bet <= maxBet) {... */\n      iszero\n      tag_266\n      jumpi\n        /* \"AllContracts.sol\":8136:8140  true */\n      0x01\n        /* \"AllContracts.sol\":8129:8140  return true */\n      swap1\n      pop\n      jump(tag_264)\n        /* \"AllContracts.sol\":7794:8194  if (bet >= minBet && bet <= maxBet) {... */\n    tag_266:\n        /* \"AllContracts.sol\":8178:8183  false */\n      0x00\n        /* \"AllContracts.sol\":8171:8183  return false */\n      swap1\n      pop\n        /* \"AllContracts.sol\":7727:8200  function betInRange(uint bet) internal view returns(bool){... */\n    tag_264:\n      swap2\n      swap1\n      pop\n      jump\t// out\n        /* \"AllContracts.sol\":2454:2668  function mul(uint256 a, uint256 b) internal pure returns (uint256) {... */\n    tag_237:\n        /* \"AllContracts.sol\":2512:2519  uint256 */\n      0x00\n        /* \"AllContracts.sol\":2537:2538  0 */\n      dup1\n        /* \"AllContracts.sol\":2532:2533  a */\n      dup4\n        /* \"AllContracts.sol\":2532:2538  a == 0 */\n      eq\n        /* \"AllContracts.sol\":2528:2563  if (a == 0) {... */\n      iszero\n      tag_269\n      jumpi\n        /* \"AllContracts.sol\":2555:2556  0 */\n      0x00\n        /* \"AllContracts.sol\":2548:2556  return 0 */\n      swap1\n      pop\n      jump(tag_268)\n        /* \"AllContracts.sol\":2528:2563  if (a == 0) {... */\n    tag_269:\n        /* \"AllContracts.sol\":2569:2578  uint256 c */\n      0x00\n        /* \"AllContracts.sol\":2585:2586  b */\n      dup3\n        /* \"AllContracts.sol\":2581:2582  a */\n      dup5\n        /* \"AllContracts.sol\":2581:2586  a * b */\n      mul\n        /* \"AllContracts.sol\":2569:2586  uint256 c = a * b */\n      swap1\n      pop\n        /* \"AllContracts.sol\":2609:2610  b */\n      dup3\n        /* \"AllContracts.sol\":2604:2605  a */\n      dup5\n        /* \"AllContracts.sol\":2600:2601  c */\n      dup3\n        /* \"AllContracts.sol\":2600:2605  c / a */\n      dup2\n      tag_270\n      jumpi\n      invalid\n    tag_270:\n      div\n        /* \"AllContracts.sol\":2600:2610  c / a == b */\n      eq\n        /* \"AllContracts.sol\":2592:2648  require(c / a == b, \"SafeMath: multiplication overflow\") */\n      tag_271\n      jumpi\n      mload(0x40)\n      0x08c379a000000000000000000000000000000000000000000000000000000000\n      dup2\n      mstore\n      0x04\n      add\n      dup1\n      dup1\n      0x20\n      add\n      dup3\n      dup2\n      sub\n      dup3\n      mstore\n      0x21\n      dup2\n      mstore\n      0x20\n      add\n      dup1\n      data_9113bb53c2876a3805b2c9242029423fc540a728243ce887ab24c82cf119fba3\n      0x21\n      swap2\n      codecopy\n      0x40\n      add\n      swap2\n      pop\n      pop\n      mload(0x40)\n      dup1\n      swap2\n      sub\n      swap1\n      revert\n    tag_271:\n        /* \"AllContracts.sol\":2662:2663  c */\n      dup1\n        /* \"AllContracts.sol\":2655:2663  return c */\n      swap2\n      pop\n      pop\n        /* \"AllContracts.sol\":2454:2668  function mul(uint256 a, uint256 b) internal pure returns (uint256) {... */\n    tag_268:\n      swap3\n      swap2\n      pop\n      pop\n      jump\t// out\n        /* \"AllContracts.sol\":2980:3119  function mod(uint256 a, uint256 b) internal pure returns (uint256) {... */\n    tag_241:\n        /* \"AllContracts.sol\":3038:3045  uint256 */\n      0x00\n        /* \"AllContracts.sol\":3066:3067  0 */\n      dup1\n        /* \"AllContracts.sol\":3061:3062  b */\n      dup3\n        /* \"AllContracts.sol\":3061:3067  b != 0 */\n      eq\n      iszero\n        /* \"AllContracts.sol\":3053:3096  require(b != 0, \"SafeMath: modulo by zero\") */\n      tag_273\n      jumpi\n      mload(0x40)\n      0x08c379a000000000000000000000000000000000000000000000000000000000\n      dup2\n      mstore\n      0x04\n      add\n      dup1\n      dup1\n      0x20\n      add\n      dup3\n      dup2\n      sub\n      dup3\n      mstore\n      0x18\n      dup2\n      mstore\n      0x20\n      add\n      dup1\n      0x536166654d6174683a206d6f64756c6f206279207a65726f0000000000000000\n      dup2\n      mstore\n      pop\n      0x20\n      add\n      swap2\n      pop\n      pop\n      mload(0x40)\n      dup1\n      swap2\n      sub\n      swap1\n      revert\n    tag_273:\n        /* \"AllContracts.sol\":3113:3114  b */\n      dup2\n        /* \"AllContracts.sol\":3109:3110  a */\n      dup4\n        /* \"AllContracts.sol\":3109:3114  a % b */\n      dup2\n      tag_274\n      jumpi\n      invalid\n    tag_274:\n      mod\n        /* \"AllContracts.sol\":3102:3114  return a % b */\n      swap1\n      pop\n        /* \"AllContracts.sol\":2980:3119  function mod(uint256 a, uint256 b) internal pure returns (uint256) {... */\n      swap3\n      swap2\n      pop\n      pop\n      jump\t// out\n        /* \"AllContracts.sol\":10433:10643  function getRandomNumber(uint256 seed) internal returns (bytes32 requestId) {... */\n    tag_257:\n        /* \"AllContracts.sol\":10490:10507  bytes32 requestId */\n      0x00\n        /* \"AllContracts.sol\":10559:10562  fee */\n      sload(0x05)\n        /* \"AllContracts.sol\":10527:10531  LINK */\n      0x00\n      dup1\n      swap1\n      sload\n      swap1\n      0x0100\n      exp\n      swap1\n      div\n      0xffffffffffffffffffffffffffffffffffffffff\n      and\n        /* \"AllContracts.sol\":10527:10541  LINK.balanceOf */\n      0xffffffffffffffffffffffffffffffffffffffff\n      and\n      0x70a08231\n        /* \"AllContracts.sol\":10550:10554  this */\n      address\n        /* \"AllContracts.sol\":10527:10556  LINK.balanceOf(address(this)) */\n      mload(0x40)\n      dup3\n      0xffffffff\n      and\n      0xe0\n      shl\n      dup2\n      mstore\n      0x04\n      add\n      dup1\n      dup3\n      0xffffffffffffffffffffffffffffffffffffffff\n      and\n      0xffffffffffffffffffffffffffffffffffffffff\n      and\n      dup2\n      mstore\n      0x20\n      add\n      swap2\n      pop\n      pop\n      0x20\n      mload(0x40)\n      dup1\n      dup4\n      sub\n      dup2\n      dup7\n      dup1\n      extcodesize\n      iszero\n        /* \"--CODEGEN--\":8:17   */\n      dup1\n        /* \"--CODEGEN--\":5:7   */\n      iszero\n      tag_276\n      jumpi\n        /* \"--CODEGEN--\":30:31   */\n      0x00\n        /* \"--CODEGEN--\":27:28   */\n      dup1\n        /* \"--CODEGEN--\":20:32   */\n      revert\n        /* \"--CODEGEN--\":5:7   */\n    tag_276:\n        /* \"AllContracts.sol\":10527:10556  LINK.balanceOf(address(this)) */\n      pop\n      gas\n      staticcall\n      iszero\n        /* \"--CODEGEN--\":8:17   */\n      dup1\n        /* \"--CODEGEN--\":5:7   */\n      iszero\n      tag_278\n      jumpi\n        /* \"--CODEGEN--\":45:61   */\n      returndatasize\n        /* \"--CODEGEN--\":42:43   */\n      0x00\n        /* \"--CODEGEN--\":39:40   */\n      dup1\n        /* \"--CODEGEN--\":24:62   */\n      returndatacopy\n        /* \"--CODEGEN--\":77:93   */\n      returndatasize\n        /* \"--CODEGEN--\":74:75   */\n      0x00\n        /* \"--CODEGEN--\":67:94   */\n      revert\n        /* \"--CODEGEN--\":5:7   */\n    tag_278:\n        /* \"AllContracts.sol\":10527:10556  LINK.balanceOf(address(this)) */\n      pop\n      pop\n      pop\n      pop\n      mload(0x40)\n      returndatasize\n        /* \"--CODEGEN--\":13:15   */\n      0x20\n        /* \"--CODEGEN--\":8:11   */\n      dup2\n        /* \"--CODEGEN--\":5:16   */\n      lt\n        /* \"--CODEGEN--\":2:4   */\n      iszero\n      tag_279\n      jumpi\n        /* \"--CODEGEN--\":29:30   */\n      0x00\n        /* \"--CODEGEN--\":26:27   */\n      dup1\n        /* \"--CODEGEN--\":19:31   */\n      revert\n        /* \"--CODEGEN--\":2:4   */\n    tag_279:\n        /* \"AllContracts.sol\":10527:10556  LINK.balanceOf(address(this)) */\n      dup2\n      add\n      swap1\n      dup1\n      dup1\n      mload\n      swap1\n      0x20\n      add\n      swap1\n      swap3\n      swap2\n      swap1\n      pop\n      pop\n      pop\n        /* \"AllContracts.sol\":10527:10562  LINK.balanceOf(address(this)) > fee */\n      gt\n        /* \"AllContracts.sol\":10519:10582  require(LINK.balanceOf(address(this)) > fee, \"Not enough LINK\") */\n      tag_280\n      jumpi\n      mload(0x40)\n      0x08c379a000000000000000000000000000000000000000000000000000000000\n      dup2\n      mstore\n      0x04\n      add\n      dup1\n      dup1\n      0x20\n      add\n      dup3\n      dup2\n      sub\n      dup3\n      mstore\n      0x0f\n      dup2\n      mstore\n      0x20\n      add\n      dup1\n      0x4e6f7420656e6f756768204c494e4b0000000000000000000000000000000000\n      dup2\n      mstore\n      pop\n      0x20\n      add\n      swap2\n      pop\n      pop\n      mload(0x40)\n      dup1\n      swap2\n      sub\n      swap1\n      revert\n    tag_280:\n        /* \"AllContracts.sol\":10599:10636  requestRandomness(keyHash, fee, seed) */\n      tag_281\n        /* \"AllContracts.sol\":10617:10624  keyHash */\n      sload(0x04)\n        /* \"AllContracts.sol\":10626:10629  fee */\n      sload(0x05)\n        /* \"AllContracts.sol\":10631:10635  seed */\n      dup5\n        /* \"AllContracts.sol\":10599:10616  requestRandomness */\n      tag_282\n        /* \"AllContracts.sol\":10599:10636  requestRandomness(keyHash, fee, seed) */\n      jump\t// in\n    tag_281:\n        /* \"AllContracts.sol\":10592:10636  return requestRandomness(keyHash, fee, seed) */\n      swap1\n      pop\n        /* \"AllContracts.sol\":10433:10643  function getRandomNumber(uint256 seed) internal returns (bytes32 requestId) {... */\n      swap2\n      swap1\n      pop\n      jump\t// out\n        /* \"AllContracts.sol\":4790:5175  function requestRandomness(bytes32 _keyHash, uint256 _fee, uint256 _seed)... */\n    tag_282:\n        /* \"AllContracts.sol\":4886:4903  bytes32 requestId */\n      0x00\n        /* \"AllContracts.sol\":4913:4917  LINK */\n      dup1\n      0x00\n      swap1\n      sload\n      swap1\n      0x0100\n      exp\n      swap1\n      div\n      0xffffffffffffffffffffffffffffffffffffffff\n      and\n        /* \"AllContracts.sol\":4913:4933  LINK.transferAndCall */\n      0xffffffffffffffffffffffffffffffffffffffff\n      and\n      0x4000aea0\n        /* \"AllContracts.sol\":4934:4948  vrfCoordinator */\n      0x01\n      0x00\n      swap1\n      sload\n      swap1\n      0x0100\n      exp\n      swap1\n      div\n      0xffffffffffffffffffffffffffffffffffffffff\n      and\n        /* \"AllContracts.sol\":4950:4954  _fee */\n      dup6\n        /* \"AllContracts.sol\":4967:4975  _keyHash */\n      dup8\n        /* \"AllContracts.sol\":4977:4982  _seed */\n      dup7\n        /* \"AllContracts.sol\":4956:4983  abi.encode(_keyHash, _seed) */\n      add(0x20, mload(0x40))\n      dup1\n      dup4\n      dup2\n      mstore\n      0x20\n      add\n      dup3\n      dup2\n      mstore\n      0x20\n      add\n      swap3\n      pop\n      pop\n      pop\n      mload(0x40)\n        /* \"--CODEGEN--\":49:53   */\n      0x20\n        /* \"--CODEGEN--\":39:46   */\n      dup2\n        /* \"--CODEGEN--\":30:37   */\n      dup4\n        /* \"--CODEGEN--\":26:47   */\n      sub\n        /* \"--CODEGEN--\":22:54   */\n      sub\n        /* \"--CODEGEN--\":13:20   */\n      dup2\n        /* \"--CODEGEN--\":6:55   */\n      mstore\n        /* \"AllContracts.sol\":4956:4983  abi.encode(_keyHash, _seed) */\n      swap1\n      0x40\n      mstore\n        /* \"AllContracts.sol\":4913:4984  LINK.transferAndCall(vrfCoordinator, _fee, abi.encode(_keyHash, _seed)) */\n      mload(0x40)\n      dup5\n      0xffffffff\n      and\n      0xe0\n      shl\n      dup2\n      mstore\n      0x04\n      add\n      dup1\n      dup5\n      0xffffffffffffffffffffffffffffffffffffffff\n      and\n      0xffffffffffffffffffffffffffffffffffffffff\n      and\n      dup2\n      mstore\n      0x20\n      add\n      dup4\n      dup2\n      mstore\n      0x20\n      add\n      dup1\n      0x20\n      add\n      dup3\n      dup2\n      sub\n      dup3\n      mstore\n      dup4\n      dup2\n      dup2\n      mload\n      dup2\n      mstore\n      0x20\n      add\n      swap2\n      pop\n      dup1\n      mload\n      swap1\n      0x20\n      add\n      swap1\n      dup1\n      dup4\n      dup4\n        /* \"--CODEGEN--\":23:24   */\n      0x00\n        /* \"--CODEGEN--\":8:108   */\n    tag_284:\n        /* \"--CODEGEN--\":33:36   */\n      dup4\n        /* \"--CODEGEN--\":30:31   */\n      dup2\n        /* \"--CODEGEN--\":27:37   */\n      lt\n        /* \"--CODEGEN--\":8:108   */\n      iszero\n      tag_286\n      jumpi\n        /* \"--CODEGEN--\":99:100   */\n      dup1\n        /* \"--CODEGEN--\":94:97   */\n      dup3\n        /* \"--CODEGEN--\":90:101   */\n      add\n        /* \"--CODEGEN--\":84:102   */\n      mload\n        /* \"--CODEGEN--\":80:81   */\n      dup2\n        /* \"--CODEGEN--\":75:78   */\n      dup5\n        /* \"--CODEGEN--\":71:82   */\n      add\n        /* \"--CODEGEN--\":64:103   */\n      mstore\n        /* \"--CODEGEN--\":52:54   */\n      0x20\n        /* \"--CODEGEN--\":49:50   */\n      dup2\n        /* \"--CODEGEN--\":45:55   */\n      add\n        /* \"--CODEGEN--\":40:55   */\n      swap1\n      pop\n        /* \"--CODEGEN--\":8:108   */\n      jump(tag_284)\n    tag_286:\n        /* \"--CODEGEN--\":12:26   */\n      pop\n        /* \"AllContracts.sol\":4913:4984  LINK.transferAndCall(vrfCoordinator, _fee, abi.encode(_keyHash, _seed)) */\n      pop\n      pop\n      pop\n      swap1\n      pop\n      swap1\n      dup2\n      add\n      swap1\n      0x1f\n      and\n      dup1\n      iszero\n      tag_287\n      jumpi\n      dup1\n      dup3\n      sub\n      dup1\n      mload\n      0x01\n      dup4\n      0x20\n      sub\n      0x0100\n      exp\n      sub\n      not\n      and\n      dup2\n      mstore\n      0x20\n      add\n      swap2\n      pop\n    tag_287:\n      pop\n      swap5\n      pop\n      pop\n      pop\n      pop\n      pop\n      0x20\n      mload(0x40)\n      dup1\n      dup4\n      sub\n      dup2\n      0x00\n      dup8\n      dup1\n      extcodesize\n      iszero\n        /* \"--CODEGEN--\":8:17   */\n      dup1\n        /* \"--CODEGEN--\":5:7   */\n      iszero\n      tag_288\n      jumpi\n        /* \"--CODEGEN--\":30:31   */\n      0x00\n        /* \"--CODEGEN--\":27:28   */\n      dup1\n        /* \"--CODEGEN--\":20:32   */\n      revert\n        /* \"--CODEGEN--\":5:7   */\n    tag_288:\n        /* \"AllContracts.sol\":4913:4984  LINK.transferAndCall(vrfCoordinator, _fee, abi.encode(_keyHash, _seed)) */\n      pop\n      gas\n      call\n      iszero\n        /* \"--CODEGEN--\":8:17   */\n      dup1\n        /* \"--CODEGEN--\":5:7   */\n      iszero\n      tag_290\n      jumpi\n        /* \"--CODEGEN--\":45:61   */\n      returndatasize\n        /* \"--CODEGEN--\":42:43   */\n      0x00\n        /* \"--CODEGEN--\":39:40   */\n      dup1\n        /* \"--CODEGEN--\":24:62   */\n      returndatacopy\n        /* \"--CODEGEN--\":77:93   */\n      returndatasize\n        /* \"--CODEGEN--\":74:75   */\n      0x00\n        /* \"--CODEGEN--\":67:94   */\n      revert\n        /* \"--CODEGEN--\":5:7   */\n    tag_290:\n        /* \"AllContracts.sol\":4913:4984  LINK.transferAndCall(vrfCoordinator, _fee, abi.encode(_keyHash, _seed)) */\n      pop\n      pop\n      pop\n      pop\n      mload(0x40)\n      returndatasize\n        /* \"--CODEGEN--\":13:15   */\n      0x20\n        /* \"--CODEGEN--\":8:11   */\n      dup2\n        /* \"--CODEGEN--\":5:16   */\n      lt\n        /* \"--CODEGEN--\":2:4   */\n      iszero\n      tag_291\n      jumpi\n        /* \"--CODEGEN--\":29:30   */\n      0x00\n        /* \"--CODEGEN--\":26:27   */\n      dup1\n        /* \"--CODEGEN--\":19:31   */\n      revert\n        /* \"--CODEGEN--\":2:4   */\n    tag_291:\n        /* \"AllContracts.sol\":4913:4984  LINK.transferAndCall(vrfCoordinator, _fee, abi.encode(_keyHash, _seed)) */\n      dup2\n      add\n      swap1\n      dup1\n      dup1\n      mload\n      swap1\n      0x20\n      add\n      swap1\n      swap3\n      swap2\n      swap1\n      pop\n      pop\n      pop\n      pop\n        /* \"AllContracts.sol\":4991:5006  uint256 vRFSeed */\n      0x00\n        /* \"AllContracts.sol\":5010:5076  makeVRFInputSeed(_keyHash, _seed, address(this), nonces[_keyHash]) */\n      tag_292\n        /* \"AllContracts.sol\":5027:5035  _keyHash */\n      dup6\n        /* \"AllContracts.sol\":5037:5042  _seed */\n      dup5\n        /* \"AllContracts.sol\":5052:5056  this */\n      address\n        /* \"AllContracts.sol\":5059:5065  nonces */\n      0x02\n        /* \"AllContracts.sol\":5059:5075  nonces[_keyHash] */\n      0x00\n        /* \"AllContracts.sol\":5066:5074  _keyHash */\n      dup11\n        /* \"AllContracts.sol\":5059:5075  nonces[_keyHash] */\n      dup2\n      mstore\n      0x20\n      add\n      swap1\n      dup2\n      mstore\n      0x20\n      add\n      0x00\n      keccak256\n      sload\n        /* \"AllContracts.sol\":5010:5026  makeVRFInputSeed */\n      tag_293\n        /* \"AllContracts.sol\":5010:5076  makeVRFInputSeed(_keyHash, _seed, address(this), nonces[_keyHash]) */\n      jump\t// in\n    tag_292:\n        /* \"AllContracts.sol\":4991:5076  uint256 vRFSeed  = makeVRFInputSeed(_keyHash, _seed, address(this), nonces[_keyHash]) */\n      swap1\n      pop\n        /* \"AllContracts.sol\":5102:5125  nonces[_keyHash].add(1) */\n      tag_294\n        /* \"AllContracts.sol\":5123:5124  1 */\n      0x01\n        /* \"AllContracts.sol\":5102:5108  nonces */\n      0x02\n        /* \"AllContracts.sol\":5102:5118  nonces[_keyHash] */\n      0x00\n        /* \"AllContracts.sol\":5109:5117  _keyHash */\n      dup9\n        /* \"AllContracts.sol\":5102:5118  nonces[_keyHash] */\n      dup2\n      mstore\n      0x20\n      add\n      swap1\n      dup2\n      mstore\n      0x20\n      add\n      0x00\n      keccak256\n      sload\n        /* \"AllContracts.sol\":5102:5122  nonces[_keyHash].add */\n      tag_178\n      swap1\n        /* \"AllContracts.sol\":5102:5125  nonces[_keyHash].add(1) */\n      swap2\n      swap1\n      0xffffffff\n      and\n      jump\t// in\n    tag_294:\n        /* \"AllContracts.sol\":5083:5089  nonces */\n      0x02\n        /* \"AllContracts.sol\":5083:5099  nonces[_keyHash] */\n      0x00\n        /* \"AllContracts.sol\":5090:5098  _keyHash */\n      dup8\n        /* \"AllContracts.sol\":5083:5099  nonces[_keyHash] */\n      dup2\n      mstore\n      0x20\n      add\n      swap1\n      dup2\n      mstore\n      0x20\n      add\n      0x00\n      keccak256\n        /* \"AllContracts.sol\":5083:5125  nonces[_keyHash] = nonces[_keyHash].add(1) */\n      dup2\n      swap1\n      sstore\n      pop\n        /* \"AllContracts.sol\":5138:5170  makeRequestId(_keyHash, vRFSeed) */\n      tag_295\n        /* \"AllContracts.sol\":5152:5160  _keyHash */\n      dup6\n        /* \"AllContracts.sol\":5162:5169  vRFSeed */\n      dup3\n        /* \"AllContracts.sol\":5138:5151  makeRequestId */\n      tag_296\n        /* \"AllContracts.sol\":5138:5170  makeRequestId(_keyHash, vRFSeed) */\n      jump\t// in\n    tag_295:\n        /* \"AllContracts.sol\":5131:5170  return makeRequestId(_keyHash, vRFSeed) */\n      swap2\n      pop\n      pop\n        /* \"AllContracts.sol\":4790:5175  function requestRandomness(bytes32 _keyHash, uint256 _fee, uint256 _seed)... */\n      swap4\n      swap3\n      pop\n      pop\n      pop\n      jump\t// out\n        /* \"AllContracts.sol\":3154:3385  function makeVRFInputSeed(bytes32 _keyHash, uint256 _userSeed,... */\n    tag_293:\n        /* \"AllContracts.sol\":3284:3291  uint256 */\n      0x00\n        /* \"AllContracts.sol\":3338:3346  _keyHash */\n      dup5\n        /* \"AllContracts.sol\":3348:3357  _userSeed */\n      dup5\n        /* \"AllContracts.sol\":3359:3369  _requester */\n      dup5\n        /* \"AllContracts.sol\":3371:3377  _nonce */\n      dup5\n        /* \"AllContracts.sol\":3327:3378  abi.encode(_keyHash, _userSeed, _requester, _nonce) */\n      add(0x20, mload(0x40))\n      dup1\n      dup6\n      dup2\n      mstore\n      0x20\n      add\n      dup5\n      dup2\n      mstore\n      0x20\n      add\n      dup4\n      0xffffffffffffffffffffffffffffffffffffffff\n      and\n      0xffffffffffffffffffffffffffffffffffffffff\n      and\n      dup2\n      mstore\n      0x20\n      add\n      dup3\n      dup2\n      mstore\n      0x20\n      add\n      swap5\n      pop\n      pop\n      pop\n      pop\n      pop\n      mload(0x40)\n        /* \"--CODEGEN--\":49:53   */\n      0x20\n        /* \"--CODEGEN--\":39:46   */\n      dup2\n        /* \"--CODEGEN--\":30:37   */\n      dup4\n        /* \"--CODEGEN--\":26:47   */\n      sub\n        /* \"--CODEGEN--\":22:54   */\n      sub\n        /* \"--CODEGEN--\":13:20   */\n      dup2\n        /* \"--CODEGEN--\":6:55   */\n      mstore\n        /* \"AllContracts.sol\":3327:3378  abi.encode(_keyHash, _userSeed, _requester, _nonce) */\n      swap1\n      0x40\n      mstore\n        /* \"AllContracts.sol\":3317:3379  keccak256(abi.encode(_keyHash, _userSeed, _requester, _nonce)) */\n      dup1\n      mload\n      swap1\n      0x20\n      add\n      keccak256\n        /* \"AllContracts.sol\":3309:3380  uint256(keccak256(abi.encode(_keyHash, _userSeed, _requester, _nonce))) */\n      0x00\n      shr\n        /* \"AllContracts.sol\":3301:3380  return  uint256(keccak256(abi.encode(_keyHash, _userSeed, _requester, _nonce))) */\n      swap1\n      pop\n        /* \"AllContracts.sol\":3154:3385  function makeVRFInputSeed(bytes32 _keyHash, uint256 _userSeed,... */\n      swap5\n      swap4\n      pop\n      pop\n      pop\n      pop\n      jump\t// out\n        /* \"AllContracts.sol\":3389:3560  function makeRequestId(... */\n    tag_296:\n        /* \"AllContracts.sol\":3481:3488  bytes32 */\n      0x00\n        /* \"AllContracts.sol\":3530:3538  _keyHash */\n      dup3\n        /* \"AllContracts.sol\":3540:3553  _vRFInputSeed */\n      dup3\n        /* \"AllContracts.sol\":3513:3554  abi.encodePacked(_keyHash, _vRFInputSeed) */\n      add(0x20, mload(0x40))\n      dup1\n      dup4\n      dup2\n      mstore\n      0x20\n      add\n      dup3\n      dup2\n      mstore\n      0x20\n      add\n      swap3\n      pop\n      pop\n      pop\n      mload(0x40)\n        /* \"--CODEGEN--\":49:53   */\n      0x20\n        /* \"--CODEGEN--\":39:46   */\n      dup2\n        /* \"--CODEGEN--\":30:37   */\n      dup4\n        /* \"--CODEGEN--\":26:47   */\n      sub\n        /* \"--CODEGEN--\":22:54   */\n      sub\n        /* \"--CODEGEN--\":13:20   */\n      dup2\n        /* \"--CODEGEN--\":6:55   */\n      mstore\n        /* \"AllContracts.sol\":3513:3554  abi.encodePacked(_keyHash, _vRFInputSeed) */\n      swap1\n      0x40\n      mstore\n        /* \"AllContracts.sol\":3503:3555  keccak256(abi.encodePacked(_keyHash, _vRFInputSeed)) */\n      dup1\n      mload\n      swap1\n      0x20\n      add\n      keccak256\n        /* \"AllContracts.sol\":3496:3555  return keccak256(abi.encodePacked(_keyHash, _vRFInputSeed)) */\n      swap1\n      pop\n        /* \"AllContracts.sol\":3389:3560  function makeRequestId(... */\n      swap3\n      swap2\n      pop\n      pop\n      jump\t// out\n        /* \"AllContracts.sol\":5733:13868  contract LuckyMachine is VRFConsumerBase, Ownable {... */\n    tag_252:\n      mload(0x40)\n      dup1\n      0xc0\n      add\n      0x40\n      mstore\n      dup1\n      0x00\n      dup2\n      mstore\n      0x20\n      add\n      and(0xffffffffffffffffffffffffffffffffffffffff, 0x00)\n      dup2\n      mstore\n      0x20\n      add\n      0x00\n      dup2\n      mstore\n      0x20\n      add\n      0x00\n      dup2\n      mstore\n      0x20\n      add\n      0x00\n      dup2\n      mstore\n      0x20\n      add\n      iszero(iszero(0x00))\n      dup2\n      mstore\n      pop\n      swap1\n      jump\t// out\n    stop\n    data_104d4309dbdd0d693502d943a07623e5e639a80ec32910748a6b4f701d61cac8 5069636b20697320746f6f20686967682e2043686f6f73652061206c6f776572206e756d6265722e\n    data_245f15ff17f551913a7a18385165551503906a406f905ac1c2437281a7cd0cfe 4f776e61626c653a206e6577206f776e657220697320746865207a65726f2061646472657373\n    data_588b68a2a6ccdc15b2dae26a385280edec71bed95b5b14a24b760c56e4f665d6 436f6e74726163742068617320696e737566666963696e742066756e647320746f207061796f757420706f737369626c652077696e2e\n    data_9113bb53c2876a3805b2c9242029423fc540a728243ce887ab24c82cf119fba3 536166654d6174683a206d756c7469706c69636174696f6e206f766572666c6f77\n    data_b719f220e413600c7e92ed4736b96c6908e0428122610fe965fcc60eefeedbad 436f6e74726163742062616c616e636520746f6f206c6f772e20506c656173652074727920616761696e206c617465722e\n    data_c34c85fa0e0680ac47dc2c21fdf93b1adcc71d9a1a3b3b1788b881c3f4f390ac 47616d6520616c726561647920636f6d706c6574652e204e6f20726566756e6420706f737369626c652e\n    data_ef92889bcd3368ac0e5c94a5c325c5cf21da03eb1576ee7d446327960d5fae81 556e61626c6520746f207061792e20506c6561736520706c617920616761696e206f72207265717565737420726566756e642e\n\n    auxdata: 0xa26469706673582212207633e8e219d8ee274356c6ac8ae8208960de6fcdd5f2c158636f50f29705727f64736f6c63430006000033\n}\n","bytecode":{"linkReferences":{},"object":"608060405234801561001057600080fd5b5060405162002ec538038062002ec5833981810160405260a081101561003557600080fd5b81019080805190602001909291908051906020019092919080519060200190929190805190602001909291908051906020019092919050505073dd3782915140c8f3b190b5d67eac6dc5760c46e973a36085f69e2889c224210f603d836748e7dc008881600160006101000a81548173ffffffffffffffffffffffffffffffffffffffff021916908373ffffffffffffffffffffffffffffffffffffffff160217905550806000806101000a81548173ffffffffffffffffffffffffffffffffffffffff021916908373ffffffffffffffffffffffffffffffffffffffff1602179055505050600061012b6102ca60201b60201c565b905080600360006101000a81548173ffffffffffffffffffffffffffffffffffffffff021916908373ffffffffffffffffffffffffffffffffffffffff1602179055508073ffffffffffffffffffffffffffffffffffffffff16600073ffffffffffffffffffffffffffffffffffffffff167f8be0079c531659141344cd1fd0a4f28419497f9722a3daafe3b4186f6b6457e060405160405180910390a3507f6c3699283bda56ad74f6b855546325b68d482e983852a7a82979cc4807b641f460001b60048190555067016345785d8a00006005819055506001601481905550600060138190555084601560006101000a81548173ffffffffffffffffffffffffffffffffffffffff021916908373ffffffffffffffffffffffffffffffffffffffff1602179055508260128190555083601181905550816010819055508060168190555060016006819055506001600781905550600160088190555060016009819055506001600a819055506001600b819055506001600c819055506001600d819055506001600e819055506001600f8190555050505050506102d2565b600033905090565b612be380620002e26000396000f3fe6080604052600436106101855760003560e01c80638da5cb5b116100d1578063a4b2409e1161008a578063c311d04911610064578063c311d04914610726578063d9e721f814610761578063f2fde38b146107af578063f31a4dcd146108005761018c565b8063a4b2409e14610686578063ac150fd8146106c1578063b93030b31461070f5761018c565b80638da5cb5b146104e457806394985ddd1461053b5780639619367d1461058057806398544710146105ab5780639e317f12146105e6578063a02e0616146106355761018c565b806344ff81ce1161013e57806363bd1d4a1161011857806363bd1d4a14610418578063715018a6146104435780637a8042bd1461045a57806382e39ac5146104955761018c565b806344ff81ce1461034557806350c5f975146103965780635b8d02d7146103c15761018c565b8063117a5b90146101915780632e5b2168146102335780632ee42d8a1461025e57806333ea51a81461028957806339e7357c146102da5780634051ddac146103055761018c565b3661018c57005b600080fd5b34801561019d57600080fd5b506101ca600480360360208110156101b457600080fd5b810190808035906020019092919050505061083b565b604051808781526020018673ffffffffffffffffffffffffffffffffffffffff1673ffffffffffffffffffffffffffffffffffffffff16815260200185815260200184815260200183815260200182151515158152602001965050505050505060405180910390f35b34801561023f57600080fd5b506102486108a4565b6040518082815260200191505060405180910390f35b34801561026a57600080fd5b506102736108aa565b6040518082815260200191505060405180910390f35b34801561029557600080fd5b506102d8600480360360208110156102ac57600080fd5b81019080803573ffffffffffffffffffffffffffffffffffffffff1690602001909291905050506108b0565b005b3480156102e657600080fd5b506102ef6109be565b6040518082815260200191505060405180910390f35b34801561031157600080fd5b5061031a6109c8565b6040518085815260200184815260200183815260200182815260200194505050505060405180910390f35b34801561035157600080fd5b506103946004803603602081101561036857600080fd5b81019080803573ffffffffffffffffffffffffffffffffffffffff1690602001909291905050506109e8565b005b3480156103a257600080fd5b506103ab610af6565b6040518082815260200191505060405180910390f35b3480156103cd57600080fd5b506103d6610bd6565b604051808273ffffffffffffffffffffffffffffffffffffffff1673ffffffffffffffffffffffffffffffffffffffff16815260200191505060405180910390f35b34801561042457600080fd5b5061042d610bfc565b6040518082815260200191505060405180910390f35b34801561044f57600080fd5b50610458610c02565b005b34801561046657600080fd5b506104936004803603602081101561047d57600080fd5b8101908080359060200190929190505050610d8d565b005b3480156104a157600080fd5b506104ce600480360360208110156104b857600080fd5b8101908080359060200190929190505050610f60565b6040518082815260200191505060405180910390f35b3480156104f057600080fd5b506104f9610f78565b604051808273ffffffffffffffffffffffffffffffffffffffff1673ffffffffffffffffffffffffffffffffffffffff16815260200191505060405180910390f35b34801561054757600080fd5b5061057e6004803603604081101561055e57600080fd5b810190808035906020019092919080359060200190929190505050610fa2565b005b34801561058c57600080fd5b50610595611073565b6040518082815260200191505060405180910390f35b3480156105b757600080fd5b506105e4600480360360208110156105ce57600080fd5b8101908080359060200190929190505050611079565b005b3480156105f257600080fd5b5061061f6004803603602081101561060957600080fd5b810190808035906020019092919050505061114d565b6040518082815260200191505060405180910390f35b34801561064157600080fd5b506106846004803603602081101561065857600080fd5b81019080803573ffffffffffffffffffffffffffffffffffffffff169060200190929190505050611165565b005b34801561069257600080fd5b506106bf600480360360208110156106a957600080fd5b8101908080359060200190929190505050611272565b005b61070d600480360360408110156106d757600080fd5b81019080803573ffffffffffffffffffffffffffffffffffffffff16906020019092919080359060200190929190505050611413565b005b34801561071b57600080fd5b506107246114fc565b005b34801561073257600080fd5b5061075f6004803603602081101561074957600080fd5b810190808035906020019092919050505061190b565b005b6107ad6004803603604081101561077757600080fd5b81019080803573ffffffffffffffffffffffffffffffffffffffff16906020019092919080359060200190929190505050611abb565b005b3480156107bb57600080fd5b506107fe600480360360208110156107d257600080fd5b81019080803573ffffffffffffffffffffffffffffffffffffffff169060200190929190505050611c60565b005b34801561080c57600080fd5b506108396004803603602081101561082357600080fd5b8101908080359060200190929190505050611e70565b005b60176020528060005260406000206000915090508060000154908060010160009054906101000a900473ffffffffffffffffffffffffffffffffffffffff16908060020154908060030154908060040154908060050160009054906101000a900460ff16905086565b60115481565b60105481565b6108b8611f46565b73ffffffffffffffffffffffffffffffffffffffff16600360009054906101000a900473ffffffffffffffffffffffffffffffffffffffff1673ffffffffffffffffffffffffffffffffffffffff161461097a576040517f08c379a00000000000000000000000000000000000000000000000000000000081526004018080602001828103825260208152602001807f4f776e61626c653a2063616c6c6572206973206e6f7420746865206f776e657281525060200191505060405180910390fd5b80601560006101000a81548173ffffffffffffffffffffffffffffffffffffffff021916908373ffffffffffffffffffffffffffffffffffffffff16021790555050565b6000613039905090565b600080600080601254601154601654601054935093509350935090919293565b6109f0611f46565b73ffffffffffffffffffffffffffffffffffffffff16600360009054906101000a900473ffffffffffffffffffffffffffffffffffffffff1673ffffffffffffffffffffffffffffffffffffffff1614610ab2576040517f08c379a00000000000000000000000000000000000000000000000000000000081526004018080602001828103825260208152602001807f4f776e61626c653a2063616c6c6572206973206e6f7420746865206f776e657281525060200191505060405180910390fd5b80600160006101000a81548173ffffffffffffffffffffffffffffffffffffffff021916908373ffffffffffffffffffffffffffffffffffffffff16021790555050565b60008060009054906101000a900473ffffffffffffffffffffffffffffffffffffffff1673ffffffffffffffffffffffffffffffffffffffff166370a08231306040518263ffffffff1660e01b8152600401808273ffffffffffffffffffffffffffffffffffffffff1673ffffffffffffffffffffffffffffffffffffffff16815260200191505060206040518083038186803b158015610b9657600080fd5b505afa158015610baa573d6000803e3d6000fd5b505050506040513d6020811015610bc057600080fd5b8101908080519060200190929190505050905090565b601560009054906101000a900473ffffffffffffffffffffffffffffffffffffffff1681565b60165481565b610c0a611f46565b73ffffffffffffffffffffffffffffffffffffffff16600360009054906101000a900473ffffffffffffffffffffffffffffffffffffffff1673ffffffffffffffffffffffffffffffffffffffff1614610ccc576040517f08c379a00000000000000000000000000000000000000000000000000000000081526004018080602001828103825260208152602001807f4f776e61626c653a2063616c6c6572206973206e6f7420746865206f776e657281525060200191505060405180910390fd5b600073ffffffffffffffffffffffffffffffffffffffff16600360009054906101000a900473ffffffffffffffffffffffffffffffffffffffff1673ffffffffffffffffffffffffffffffffffffffff167f8be0079c531659141344cd1fd0a4f28419497f9722a3daafe3b4186f6b6457e060405160405180910390a36000600360006101000a81548173ffffffffffffffffffffffffffffffffffffffff021916908373ffffffffffffffffffffffffffffffffffffffff160217905550565b610d95611f46565b73ffffffffffffffffffffffffffffffffffffffff16600360009054906101000a900473ffffffffffffffffffffffffffffffffffffffff1673ffffffffffffffffffffffffffffffffffffffff1614610e57576040517f08c379a00000000000000000000000000000000000000000000000000000000081526004018080602001828103825260208152602001807f4f776e61626c653a2063616c6c6572206973206e6f7420746865206f776e657281525060200191505060405180910390fd5b6000809054906101000a900473ffffffffffffffffffffffffffffffffffffffff1673ffffffffffffffffffffffffffffffffffffffff1663a9059cbb601560009054906101000a900473ffffffffffffffffffffffffffffffffffffffff16836040518363ffffffff1660e01b8152600401808373ffffffffffffffffffffffffffffffffffffffff1673ffffffffffffffffffffffffffffffffffffffff16815260200182815260200192505050602060405180830381600087803b158015610f2157600080fd5b505af1158015610f35573d6000803e3d6000fd5b505050506040513d6020811015610f4b57600080fd5b81019080805190602001909291905050505050565b60186020528060005260406000206000915090505481565b6000600360009054906101000a900473ffffffffffffffffffffffffffffffffffffffff16905090565b600160009054906101000a900473ffffffffffffffffffffffffffffffffffffffff1673ffffffffffffffffffffffffffffffffffffffff163373ffffffffffffffffffffffffffffffffffffffff1614611065576040517f08c379a000000000000000000000000000000000000000000000000000000000815260040180806020018281038252601f8152602001807f4f6e6c7920565246436f6f7264696e61746f722063616e2066756c66696c6c0081525060200191505060405180910390fd5b61106f8282611f4e565b5050565b60125481565b611081611f46565b73ffffffffffffffffffffffffffffffffffffffff16600360009054906101000a900473ffffffffffffffffffffffffffffffffffffffff1673ffffffffffffffffffffffffffffffffffffffff1614611143576040517f08c379a00000000000000000000000000000000000000000000000000000000081526004018080602001828103825260208152602001807f4f776e61626c653a2063616c6c6572206973206e6f7420746865206f776e657281525060200191505060405180910390fd5b8060048190555050565b60026020528060005260406000206000915090505481565b61116d611f46565b73ffffffffffffffffffffffffffffffffffffffff16600360009054906101000a900473ffffffffffffffffffffffffffffffffffffffff1673ffffffffffffffffffffffffffffffffffffffff161461122f576040517f08c379a00000000000000000000000000000000000000000000000000000000081526004018080602001828103825260208152602001807f4f776e61626c653a2063616c6c6572206973206e6f7420746865206f776e657281525060200191505060405180910390fd5b806000806101000a81548173ffffffffffffffffffffffffffffffffffffffff021916908373ffffffffffffffffffffffffffffffffffffffff16021790555050565b6000601760008381526020019081526020016000209050600015158160050160009054906101000a900460ff161515146112f7576040517f08c379a000000000000000000000000000000000000000000000000000000000815260040180806020018281038252602a815260200180612b51602a913960400191505060405180910390fd5b8060020154471015611354576040517f08c379a0000000000000000000000000000000000000000000000000000000008152600401808060200182810382526031815260200180612b206031913960400191505060405180910390fd5b60018160050160006101000a81548160ff0219169083151502179055508060020154601354106113975780600201546013600082825403925050819055506113a0565b60006013819055505b8060010160009054906101000a900473ffffffffffffffffffffffffffffffffffffffff1673ffffffffffffffffffffffffffffffffffffffff166108fc82600201549081150290604051600060405180830381858888f1935050505015801561140e573d6000803e3d6000fd5b505050565b60125434101561148b576040517f08c379a00000000000000000000000000000000000000000000000000000000081526004018080602001828103825260138152602001807f6d696e696d756d20626574206e6f74206d65740000000000000000000000000081525060200191505060405180910390fd5b600660009055600760009055600860009055600960009055600a60009055600b60009055600c60009055600d60009055600e60009055600f600090556114dc3460135461216a90919063ffffffff16565b6013819055506114ed8234836121f2565b6114f8601454612325565b5050565b611504611f46565b73ffffffffffffffffffffffffffffffffffffffff16600360009054906101000a900473ffffffffffffffffffffffffffffffffffffffff1673ffffffffffffffffffffffffffffffffffffffff16146115c6576040517f08c379a00000000000000000000000000000000000000000000000000000000081526004018080602001828103825260208152602001807f4f776e61626c653a2063616c6c6572206973206e6f7420746865206f776e657281525060200191505060405180910390fd5b60006115dd601354476123f390919063ffffffff16565b9050601560009054906101000a900473ffffffffffffffffffffffffffffffffffffffff1673ffffffffffffffffffffffffffffffffffffffff166108fc829081150290604051600060405180830381858888f19350505050158015611647573d6000803e3d6000fd5b5060008060009054906101000a900473ffffffffffffffffffffffffffffffffffffffff1673ffffffffffffffffffffffffffffffffffffffff166370a08231306040518263ffffffff1660e01b8152600401808273ffffffffffffffffffffffffffffffffffffffff1673ffffffffffffffffffffffffffffffffffffffff16815260200191505060206040518083038186803b1580156116e857600080fd5b505afa1580156116fc573d6000803e3d6000fd5b505050506040513d602081101561171257600080fd5b81019080805190602001909291905050501115611908576000809054906101000a900473ffffffffffffffffffffffffffffffffffffffff1673ffffffffffffffffffffffffffffffffffffffff1663a9059cbb601560009054906101000a900473ffffffffffffffffffffffffffffffffffffffff166000809054906101000a900473ffffffffffffffffffffffffffffffffffffffff1673ffffffffffffffffffffffffffffffffffffffff166370a08231306040518263ffffffff1660e01b8152600401808273ffffffffffffffffffffffffffffffffffffffff1673ffffffffffffffffffffffffffffffffffffffff16815260200191505060206040518083038186803b15801561182757600080fd5b505afa15801561183b573d6000803e3d6000fd5b505050506040513d602081101561185157600080fd5b81019080805190602001909291905050506040518363ffffffff1660e01b8152600401808373ffffffffffffffffffffffffffffffffffffffff1673ffffffffffffffffffffffffffffffffffffffff16815260200182815260200192505050602060405180830381600087803b1580156118cb57600080fd5b505af11580156118df573d6000803e3d6000fd5b505050506040513d60208110156118f557600080fd5b8101908080519060200190929190505050505b50565b611913611f46565b73ffffffffffffffffffffffffffffffffffffffff16600360009054906101000a900473ffffffffffffffffffffffffffffffffffffffff1673ffffffffffffffffffffffffffffffffffffffff16146119d5576040517f08c379a00000000000000000000000000000000000000000000000000000000081526004018080602001828103825260208152602001807f4f776e61626c653a2063616c6c6572206973206e6f7420746865206f776e657281525060200191505060405180910390fd5b6013548147031015611a4f576040517f08c379a000000000000000000000000000000000000000000000000000000000815260040180806020018281038252601c8152602001807f43616e277420776974686472617720756e706c6179656420626574730000000081525060200191505060405180910390fd5b601560009054906101000a900473ffffffffffffffffffffffffffffffffffffffff1673ffffffffffffffffffffffffffffffffffffffff166108fc829081150290604051600060405180830381858888f19350505050158015611ab7573d6000803e3d6000fd5b5050565b611ac43461247c565b611b19576040517f08c379a0000000000000000000000000000000000000000000000000000000008152600401808060200182810382526036815260200180612ac96036913960400191505060405180910390fd5b601054811115611b74576040517f08c379a0000000000000000000000000000000000000000000000000000000008152600401808060200182810382526028815260200180612a7b6028913960400191505060405180910390fd5b611b7d346124c3565b611bef576040517f08c379a00000000000000000000000000000000000000000000000000000000081526004018080602001828103825260158152602001807f4f757469736465206f66206265742072616e67652e000000000000000000000081525060200191505060405180910390fd5b600660009055600760009055600860009055600960009055600a60009055600b60009055600c60009055600d60009055600e60009055600f60009055611c403460135461216a90919063ffffffff16565b601381905550611c518234836121f2565b611c5c601454612325565b5050565b611c68611f46565b73ffffffffffffffffffffffffffffffffffffffff16600360009054906101000a900473ffffffffffffffffffffffffffffffffffffffff1673ffffffffffffffffffffffffffffffffffffffff1614611d2a576040517f08c379a00000000000000000000000000000000000000000000000000000000081526004018080602001828103825260208152602001807f4f776e61626c653a2063616c6c6572206973206e6f7420746865206f776e657281525060200191505060405180910390fd5b600073ffffffffffffffffffffffffffffffffffffffff168173ffffffffffffffffffffffffffffffffffffffff161415611db0576040517f08c379a0000000000000000000000000000000000000000000000000000000008152600401808060200182810382526026815260200180612aa36026913960400191505060405180910390fd5b8073ffffffffffffffffffffffffffffffffffffffff16600360009054906101000a900473ffffffffffffffffffffffffffffffffffffffff1673ffffffffffffffffffffffffffffffffffffffff167f8be0079c531659141344cd1fd0a4f28419497f9722a3daafe3b4186f6b6457e060405160405180910390a380600360006101000a81548173ffffffffffffffffffffffffffffffffffffffff021916908373ffffffffffffffffffffffffffffffffffffffff16021790555050565b611e78611f46565b73ffffffffffffffffffffffffffffffffffffffff16600360009054906101000a900473ffffffffffffffffffffffffffffffffffffffff1673ffffffffffffffffffffffffffffffffffffffff1614611f3a576040517f08c379a00000000000000000000000000000000000000000000000000000000081526004018080602001828103825260208152602001807f4f776e61626c653a2063616c6c6572206973206e6f7420746865206f776e657281525060200191505060405180910390fd5b611f4381612325565b50565b600033905090565b6000601760006018600086815260200190815260200160002054815260200190815260200160002090506000816000015411156121155760115481600201541115611f9f5760115481600201819055505b60008160020154611fbf60165484600201546124f190919063ffffffff16565b0190508047101561201b576040517f08c379a0000000000000000000000000000000000000000000000000000000008152600401808060200182810382526033815260200180612b7b6033913960400191505060405180910390fd5b612043612034600160105461216a90919063ffffffff16565b8461257790919063ffffffff16565b826004018190555060018260050160006101000a81548160ff02191690831515021790555081600201546013541061208e578160020154601360008282540392505081905550612097565b60006013819055505b816004015482600301541415612113578160010160009054906101000a900473ffffffffffffffffffffffffffffffffffffffff1673ffffffffffffffffffffffffffffffffffffffff166108fc829081150290604051600060405180830381858888f19350505050158015612111573d6000803e3d6000fd5b505b505b60016006819055506001600781905550600160088190555060016009819055506001600a819055506001600b819055506001600c819055506001600d819055506001600e819055506001600f81905550505050565b6000808284019050838110156121e8576040517f08c379a000000000000000000000000000000000000000000000000000000000815260040180806020018281038252601b8152602001807f536166654d6174683a206164646974696f6e206f766572666c6f77000000000081525060200191505060405180910390fd5b8091505092915050565b612208600160145461216a90919063ffffffff16565b601481905550612216612a2c565b6040518060c0016040528060145481526020018573ffffffffffffffffffffffffffffffffffffffff168152602001848152602001838152602001612267600a60105461216a90919063ffffffff16565b81526020016000151581525090508060176000836000015181526020019081526020016000206000820151816000015560208201518160010160006101000a81548173ffffffffffffffffffffffffffffffffffffffff021916908373ffffffffffffffffffffffffffffffffffffffff16021790555060408201518160020155606082015181600301556080820151816004015560a08201518160050160006101000a81548160ff02191690831515021790555090505050505050565b600015156017600083815260200190815260200160002060050160009054906101000a900460ff161515146123c2576040517f08c379a00000000000000000000000000000000000000000000000000000000081526004018080602001828103825260138152602001807f67616d6520616c726561647920706c617965640000000000000000000000000081525060200191505060405180910390fd5b6000613039905060006123d482612601565b9050826018600083815260200190815260200160002081905550505050565b60008282111561246b576040517f08c379a000000000000000000000000000000000000000000000000000000000815260040180806020018281038252601e8152602001807f536166654d6174683a207375627472616374696f6e206f766572666c6f77000081525060200191505060405180910390fd5b600082840390508091505092915050565b60006124a582612497601654856124f190919063ffffffff16565b61216a90919063ffffffff16565b6124ba601354476123f390919063ffffffff16565b10159050919050565b600060125482101580156124d957506011548211155b156124e757600190506124ec565b600090505b919050565b6000808314156125045760009050612571565b600082840290508284828161251557fe5b041461256c576040517f08c379a0000000000000000000000000000000000000000000000000000000008152600401808060200182810382526021815260200180612aff6021913960400191505060405180910390fd5b809150505b92915050565b6000808214156125ef576040517f08c379a00000000000000000000000000000000000000000000000000000000081526004018080602001828103825260188152602001807f536166654d6174683a206d6f64756c6f206279207a65726f000000000000000081525060200191505060405180910390fd5b8183816125f857fe5b06905092915050565b60006005546000809054906101000a900473ffffffffffffffffffffffffffffffffffffffff1673ffffffffffffffffffffffffffffffffffffffff166370a08231306040518263ffffffff1660e01b8152600401808273ffffffffffffffffffffffffffffffffffffffff1673ffffffffffffffffffffffffffffffffffffffff16815260200191505060206040518083038186803b1580156126a457600080fd5b505afa1580156126b8573d6000803e3d6000fd5b505050506040513d60208110156126ce57600080fd5b810190808051906020019092919050505011612752576040517f08c379a000000000000000000000000000000000000000000000000000000000815260040180806020018281038252600f8152602001807f4e6f7420656e6f756768204c494e4b000000000000000000000000000000000081525060200191505060405180910390fd5b61276160045460055484612768565b9050919050565b60008060009054906101000a900473ffffffffffffffffffffffffffffffffffffffff1673ffffffffffffffffffffffffffffffffffffffff16634000aea0600160009054906101000a900473ffffffffffffffffffffffffffffffffffffffff1685878660405160200180838152602001828152602001925050506040516020818303038152906040526040518463ffffffff1660e01b8152600401808473ffffffffffffffffffffffffffffffffffffffff1673ffffffffffffffffffffffffffffffffffffffff16815260200183815260200180602001828103825283818151815260200191508051906020019080838360005b8381101561287a57808201518184015260208101905061285f565b50505050905090810190601f1680156128a75780820380516001836020036101000a031916815260200191505b50945050505050602060405180830381600087803b1580156128c857600080fd5b505af11580156128dc573d6000803e3d6000fd5b505050506040513d60208110156128f257600080fd5b8101908080519060200190929190505050506000612925858430600260008a815260200190815260200160002054612979565b905061294e6001600260008881526020019081526020016000205461216a90919063ffffffff16565b600260008781526020019081526020016000208190555061296f85826129f3565b9150509392505050565b600084848484604051602001808581526020018481526020018373ffffffffffffffffffffffffffffffffffffffff1673ffffffffffffffffffffffffffffffffffffffff1681526020018281526020019450505050506040516020818303038152906040528051906020012060001c9050949350505050565b60008282604051602001808381526020018281526020019250505060405160208183030381529060405280519060200120905092915050565b6040518060c0016040528060008152602001600073ffffffffffffffffffffffffffffffffffffffff168152602001600081526020016000815260200160008152602001600015158152509056fe5069636b20697320746f6f20686967682e2043686f6f73652061206c6f776572206e756d6265722e4f776e61626c653a206e6577206f776e657220697320746865207a65726f2061646472657373436f6e74726163742068617320696e737566666963696e742066756e647320746f207061796f757420706f737369626c652077696e2e536166654d6174683a206d756c7469706c69636174696f6e206f766572666c6f77436f6e74726163742062616c616e636520746f6f206c6f772e20506c656173652074727920616761696e206c617465722e47616d6520616c726561647920636f6d706c6574652e204e6f20726566756e6420706f737369626c652e556e61626c6520746f207061792e20506c6561736520706c617920616761696e206f72207265717565737420726566756e642ea26469706673582212207633e8e219d8ee274356c6ac8ae8208960de6fcdd5f2c158636f50f29705727f64736f6c63430006000033","opcodes":"PUSH1 0x80 PUSH1 0x40 MSTORE CALLVALUE DUP1 ISZERO PUSH2 0x10 JUMPI PUSH1 0x0 DUP1 REVERT JUMPDEST POP PUSH1 0x40 MLOAD PUSH3 0x2EC5 CODESIZE SUB DUP1 PUSH3 0x2EC5 DUP4 CODECOPY DUP2 DUP2 ADD PUSH1 0x40 MSTORE PUSH1 0xA0 DUP2 LT ISZERO PUSH2 0x35 JUMPI PUSH1 0x0 DUP1 REVERT JUMPDEST DUP2 ADD SWAP1 DUP1 DUP1 MLOAD SWAP1 PUSH1 0x20 ADD SWAP1 SWAP3 SWAP2 SWAP1 DUP1 MLOAD SWAP1 PUSH1 0x20 ADD SWAP1 SWAP3 SWAP2 SWAP1 DUP1 MLOAD SWAP1 PUSH1 0x20 ADD SWAP1 SWAP3 SWAP2 SWAP1 DUP1 MLOAD SWAP1 PUSH1 0x20 ADD SWAP1 SWAP3 SWAP2 SWAP1 DUP1 MLOAD SWAP1 PUSH1 0x20 ADD SWAP1 SWAP3 SWAP2 SWAP1 POP POP POP PUSH20 0xDD3782915140C8F3B190B5D67EAC6DC5760C46E9 PUSH20 0xA36085F69E2889C224210F603D836748E7DC0088 DUP2 PUSH1 0x1 PUSH1 0x0 PUSH2 0x100 EXP DUP2 SLOAD DUP2 PUSH20 0xFFFFFFFFFFFFFFFFFFFFFFFFFFFFFFFFFFFFFFFF MUL NOT AND SWAP1 DUP4 PUSH20 0xFFFFFFFFFFFFFFFFFFFFFFFFFFFFFFFFFFFFFFFF AND MUL OR SWAP1 SSTORE POP DUP1 PUSH1 0x0 DUP1 PUSH2 0x100 EXP DUP2 SLOAD DUP2 PUSH20 0xFFFFFFFFFFFFFFFFFFFFFFFFFFFFFFFFFFFFFFFF MUL NOT AND SWAP1 DUP4 PUSH20 0xFFFFFFFFFFFFFFFFFFFFFFFFFFFFFFFFFFFFFFFF AND MUL OR SWAP1 SSTORE POP POP POP PUSH1 0x0 PUSH2 0x12B PUSH2 0x2CA PUSH1 0x20 SHL PUSH1 0x20 SHR JUMP JUMPDEST SWAP1 POP DUP1 PUSH1 0x3 PUSH1 0x0 PUSH2 0x100 EXP DUP2 SLOAD DUP2 PUSH20 0xFFFFFFFFFFFFFFFFFFFFFFFFFFFFFFFFFFFFFFFF MUL NOT AND SWAP1 DUP4 PUSH20 0xFFFFFFFFFFFFFFFFFFFFFFFFFFFFFFFFFFFFFFFF AND MUL OR SWAP1 SSTORE POP DUP1 PUSH20 0xFFFFFFFFFFFFFFFFFFFFFFFFFFFFFFFFFFFFFFFF AND PUSH1 0x0 PUSH20 0xFFFFFFFFFFFFFFFFFFFFFFFFFFFFFFFFFFFFFFFF AND PUSH32 0x8BE0079C531659141344CD1FD0A4F28419497F9722A3DAAFE3B4186F6B6457E0 PUSH1 0x40 MLOAD PUSH1 0x40 MLOAD DUP1 SWAP2 SUB SWAP1 LOG3 POP PUSH32 0x6C3699283BDA56AD74F6B855546325B68D482E983852A7A82979CC4807B641F4 PUSH1 0x0 SHL PUSH1 0x4 DUP2 SWAP1 SSTORE POP PUSH8 0x16345785D8A0000 PUSH1 0x5 DUP2 SWAP1 SSTORE POP PUSH1 0x1 PUSH1 0x14 DUP2 SWAP1 SSTORE POP PUSH1 0x0 PUSH1 0x13 DUP2 SWAP1 SSTORE POP DUP5 PUSH1 0x15 PUSH1 0x0 PUSH2 0x100 EXP DUP2 SLOAD DUP2 PUSH20 0xFFFFFFFFFFFFFFFFFFFFFFFFFFFFFFFFFFFFFFFF MUL NOT AND SWAP1 DUP4 PUSH20 0xFFFFFFFFFFFFFFFFFFFFFFFFFFFFFFFFFFFFFFFF AND MUL OR SWAP1 SSTORE POP DUP3 PUSH1 0x12 DUP2 SWAP1 SSTORE POP DUP4 PUSH1 0x11 DUP2 SWAP1 SSTORE POP DUP2 PUSH1 0x10 DUP2 SWAP1 SSTORE POP DUP1 PUSH1 0x16 DUP2 SWAP1 SSTORE POP PUSH1 0x1 PUSH1 0x6 DUP2 SWAP1 SSTORE POP PUSH1 0x1 PUSH1 0x7 DUP2 SWAP1 SSTORE POP PUSH1 0x1 PUSH1 0x8 DUP2 SWAP1 SSTORE POP PUSH1 0x1 PUSH1 0x9 DUP2 SWAP1 SSTORE POP PUSH1 0x1 PUSH1 0xA DUP2 SWAP1 SSTORE POP PUSH1 0x1 PUSH1 0xB DUP2 SWAP1 SSTORE POP PUSH1 0x1 PUSH1 0xC DUP2 SWAP1 SSTORE POP PUSH1 0x1 PUSH1 0xD DUP2 SWAP1 SSTORE POP PUSH1 0x1 PUSH1 0xE DUP2 SWAP1 SSTORE POP PUSH1 0x1 PUSH1 0xF DUP2 SWAP1 SSTORE POP POP POP POP POP POP PUSH2 0x2D2 JUMP JUMPDEST PUSH1 0x0 CALLER SWAP1 POP SWAP1 JUMP JUMPDEST PUSH2 0x2BE3 DUP1 PUSH3 0x2E2 PUSH1 0x0 CODECOPY PUSH1 0x0 RETURN INVALID PUSH1 0x80 PUSH1 0x40 MSTORE PUSH1 0x4 CALLDATASIZE LT PUSH2 0x185 JUMPI PUSH1 0x0 CALLDATALOAD PUSH1 0xE0 SHR DUP1 PUSH4 0x8DA5CB5B GT PUSH2 0xD1 JUMPI DUP1 PUSH4 0xA4B2409E GT PUSH2 0x8A JUMPI DUP1 PUSH4 0xC311D049 GT PUSH2 0x64 JUMPI DUP1 PUSH4 0xC311D049 EQ PUSH2 0x726 JUMPI DUP1 PUSH4 0xD9E721F8 EQ PUSH2 0x761 JUMPI DUP1 PUSH4 0xF2FDE38B EQ PUSH2 0x7AF JUMPI DUP1 PUSH4 0xF31A4DCD EQ PUSH2 0x800 JUMPI PUSH2 0x18C JUMP JUMPDEST DUP1 PUSH4 0xA4B2409E EQ PUSH2 0x686 JUMPI DUP1 PUSH4 0xAC150FD8 EQ PUSH2 0x6C1 JUMPI DUP1 PUSH4 0xB93030B3 EQ PUSH2 0x70F JUMPI PUSH2 0x18C JUMP JUMPDEST DUP1 PUSH4 0x8DA5CB5B EQ PUSH2 0x4E4 JUMPI DUP1 PUSH4 0x94985DDD EQ PUSH2 0x53B JUMPI DUP1 PUSH4 0x9619367D EQ PUSH2 0x580 JUMPI DUP1 PUSH4 0x98544710 EQ PUSH2 0x5AB JUMPI DUP1 PUSH4 0x9E317F12 EQ PUSH2 0x5E6 JUMPI DUP1 PUSH4 0xA02E0616 EQ PUSH2 0x635 JUMPI PUSH2 0x18C JUMP JUMPDEST DUP1 PUSH4 0x44FF81CE GT PUSH2 0x13E JUMPI DUP1 PUSH4 0x63BD1D4A GT PUSH2 0x118 JUMPI DUP1 PUSH4 0x63BD1D4A EQ PUSH2 0x418 JUMPI DUP1 PUSH4 0x715018A6 EQ PUSH2 0x443 JUMPI DUP1 PUSH4 0x7A8042BD EQ PUSH2 0x45A JUMPI DUP1 PUSH4 0x82E39AC5 EQ PUSH2 0x495 JUMPI PUSH2 0x18C JUMP JUMPDEST DUP1 PUSH4 0x44FF81CE EQ PUSH2 0x345 JUMPI DUP1 PUSH4 0x50C5F975 EQ PUSH2 0x396 JUMPI DUP1 PUSH4 0x5B8D02D7 EQ PUSH2 0x3C1 JUMPI PUSH2 0x18C JUMP JUMPDEST DUP1 PUSH4 0x117A5B90 EQ PUSH2 0x191 JUMPI DUP1 PUSH4 0x2E5B2168 EQ PUSH2 0x233 JUMPI DUP1 PUSH4 0x2EE42D8A EQ PUSH2 0x25E JUMPI DUP1 PUSH4 0x33EA51A8 EQ PUSH2 0x289 JUMPI DUP1 PUSH4 0x39E7357C EQ PUSH2 0x2DA JUMPI DUP1 PUSH4 0x4051DDAC EQ PUSH2 0x305 JUMPI PUSH2 0x18C JUMP JUMPDEST CALLDATASIZE PUSH2 0x18C JUMPI STOP JUMPDEST PUSH1 0x0 DUP1 REVERT JUMPDEST CALLVALUE DUP1 ISZERO PUSH2 0x19D JUMPI PUSH1 0x0 DUP1 REVERT JUMPDEST POP PUSH2 0x1CA PUSH1 0x4 DUP1 CALLDATASIZE SUB PUSH1 0x20 DUP2 LT ISZERO PUSH2 0x1B4 JUMPI PUSH1 0x0 DUP1 REVERT JUMPDEST DUP2 ADD SWAP1 DUP1 DUP1 CALLDATALOAD SWAP1 PUSH1 0x20 ADD SWAP1 SWAP3 SWAP2 SWAP1 POP POP POP PUSH2 0x83B JUMP JUMPDEST PUSH1 0x40 MLOAD DUP1 DUP8 DUP2 MSTORE PUSH1 0x20 ADD DUP7 PUSH20 0xFFFFFFFFFFFFFFFFFFFFFFFFFFFFFFFFFFFFFFFF AND PUSH20 0xFFFFFFFFFFFFFFFFFFFFFFFFFFFFFFFFFFFFFFFF AND DUP2 MSTORE PUSH1 0x20 ADD DUP6 DUP2 MSTORE PUSH1 0x20 ADD DUP5 DUP2 MSTORE PUSH1 0x20 ADD DUP4 DUP2 MSTORE PUSH1 0x20 ADD DUP3 ISZERO ISZERO ISZERO ISZERO DUP2 MSTORE PUSH1 0x20 ADD SWAP7 POP POP POP POP POP POP POP PUSH1 0x40 MLOAD DUP1 SWAP2 SUB SWAP1 RETURN JUMPDEST CALLVALUE DUP1 ISZERO PUSH2 0x23F JUMPI PUSH1 0x0 DUP1 REVERT JUMPDEST POP PUSH2 0x248 PUSH2 0x8A4 JUMP JUMPDEST PUSH1 0x40 MLOAD DUP1 DUP3 DUP2 MSTORE PUSH1 0x20 ADD SWAP2 POP POP PUSH1 0x40 MLOAD DUP1 SWAP2 SUB SWAP1 RETURN JUMPDEST CALLVALUE DUP1 ISZERO PUSH2 0x26A JUMPI PUSH1 0x0 DUP1 REVERT JUMPDEST POP PUSH2 0x273 PUSH2 0x8AA JUMP JUMPDEST PUSH1 0x40 MLOAD DUP1 DUP3 DUP2 MSTORE PUSH1 0x20 ADD SWAP2 POP POP PUSH1 0x40 MLOAD DUP1 SWAP2 SUB SWAP1 RETURN JUMPDEST CALLVALUE DUP1 ISZERO PUSH2 0x295 JUMPI PUSH1 0x0 DUP1 REVERT JUMPDEST POP PUSH2 0x2D8 PUSH1 0x4 DUP1 CALLDATASIZE SUB PUSH1 0x20 DUP2 LT ISZERO PUSH2 0x2AC JUMPI PUSH1 0x0 DUP1 REVERT JUMPDEST DUP2 ADD SWAP1 DUP1 DUP1 CALLDATALOAD PUSH20 0xFFFFFFFFFFFFFFFFFFFFFFFFFFFFFFFFFFFFFFFF AND SWAP1 PUSH1 0x20 ADD SWAP1 SWAP3 SWAP2 SWAP1 POP POP POP PUSH2 0x8B0 JUMP JUMPDEST STOP JUMPDEST CALLVALUE DUP1 ISZERO PUSH2 0x2E6 JUMPI PUSH1 0x0 DUP1 REVERT JUMPDEST POP PUSH2 0x2EF PUSH2 0x9BE JUMP JUMPDEST PUSH1 0x40 MLOAD DUP1 DUP3 DUP2 MSTORE PUSH1 0x20 ADD SWAP2 POP POP PUSH1 0x40 MLOAD DUP1 SWAP2 SUB SWAP1 RETURN JUMPDEST CALLVALUE DUP1 ISZERO PUSH2 0x311 JUMPI PUSH1 0x0 DUP1 REVERT JUMPDEST POP PUSH2 0x31A PUSH2 0x9C8 JUMP JUMPDEST PUSH1 0x40 MLOAD DUP1 DUP6 DUP2 MSTORE PUSH1 0x20 ADD DUP5 DUP2 MSTORE PUSH1 0x20 ADD DUP4 DUP2 MSTORE PUSH1 0x20 ADD DUP3 DUP2 MSTORE PUSH1 0x20 ADD SWAP5 POP POP POP POP POP PUSH1 0x40 MLOAD DUP1 SWAP2 SUB SWAP1 RETURN JUMPDEST CALLVALUE DUP1 ISZERO PUSH2 0x351 JUMPI PUSH1 0x0 DUP1 REVERT JUMPDEST POP PUSH2 0x394 PUSH1 0x4 DUP1 CALLDATASIZE SUB PUSH1 0x20 DUP2 LT ISZERO PUSH2 0x368 JUMPI PUSH1 0x0 DUP1 REVERT JUMPDEST DUP2 ADD SWAP1 DUP1 DUP1 CALLDATALOAD PUSH20 0xFFFFFFFFFFFFFFFFFFFFFFFFFFFFFFFFFFFFFFFF AND SWAP1 PUSH1 0x20 ADD SWAP1 SWAP3 SWAP2 SWAP1 POP POP POP PUSH2 0x9E8 JUMP JUMPDEST STOP JUMPDEST CALLVALUE DUP1 ISZERO PUSH2 0x3A2 JUMPI PUSH1 0x0 DUP1 REVERT JUMPDEST POP PUSH2 0x3AB PUSH2 0xAF6 JUMP JUMPDEST PUSH1 0x40 MLOAD DUP1 DUP3 DUP2 MSTORE PUSH1 0x20 ADD SWAP2 POP POP PUSH1 0x40 MLOAD DUP1 SWAP2 SUB SWAP1 RETURN JUMPDEST CALLVALUE DUP1 ISZERO PUSH2 0x3CD JUMPI PUSH1 0x0 DUP1 REVERT JUMPDEST POP PUSH2 0x3D6 PUSH2 0xBD6 JUMP JUMPDEST PUSH1 0x40 MLOAD DUP1 DUP3 PUSH20 0xFFFFFFFFFFFFFFFFFFFFFFFFFFFFFFFFFFFFFFFF AND PUSH20 0xFFFFFFFFFFFFFFFFFFFFFFFFFFFFFFFFFFFFFFFF AND DUP2 MSTORE PUSH1 0x20 ADD SWAP2 POP POP PUSH1 0x40 MLOAD DUP1 SWAP2 SUB SWAP1 RETURN JUMPDEST CALLVALUE DUP1 ISZERO PUSH2 0x424 JUMPI PUSH1 0x0 DUP1 REVERT JUMPDEST POP PUSH2 0x42D PUSH2 0xBFC JUMP JUMPDEST PUSH1 0x40 MLOAD DUP1 DUP3 DUP2 MSTORE PUSH1 0x20 ADD SWAP2 POP POP PUSH1 0x40 MLOAD DUP1 SWAP2 SUB SWAP1 RETURN JUMPDEST CALLVALUE DUP1 ISZERO PUSH2 0x44F JUMPI PUSH1 0x0 DUP1 REVERT JUMPDEST POP PUSH2 0x458 PUSH2 0xC02 JUMP JUMPDEST STOP JUMPDEST CALLVALUE DUP1 ISZERO PUSH2 0x466 JUMPI PUSH1 0x0 DUP1 REVERT JUMPDEST POP PUSH2 0x493 PUSH1 0x4 DUP1 CALLDATASIZE SUB PUSH1 0x20 DUP2 LT ISZERO PUSH2 0x47D JUMPI PUSH1 0x0 DUP1 REVERT JUMPDEST DUP2 ADD SWAP1 DUP1 DUP1 CALLDATALOAD SWAP1 PUSH1 0x20 ADD SWAP1 SWAP3 SWAP2 SWAP1 POP POP POP PUSH2 0xD8D JUMP JUMPDEST STOP JUMPDEST CALLVALUE DUP1 ISZERO PUSH2 0x4A1 JUMPI PUSH1 0x0 DUP1 REVERT JUMPDEST POP PUSH2 0x4CE PUSH1 0x4 DUP1 CALLDATASIZE SUB PUSH1 0x20 DUP2 LT ISZERO PUSH2 0x4B8 JUMPI PUSH1 0x0 DUP1 REVERT JUMPDEST DUP2 ADD SWAP1 DUP1 DUP1 CALLDATALOAD SWAP1 PUSH1 0x20 ADD SWAP1 SWAP3 SWAP2 SWAP1 POP POP POP PUSH2 0xF60 JUMP JUMPDEST PUSH1 0x40 MLOAD DUP1 DUP3 DUP2 MSTORE PUSH1 0x20 ADD SWAP2 POP POP PUSH1 0x40 MLOAD DUP1 SWAP2 SUB SWAP1 RETURN JUMPDEST CALLVALUE DUP1 ISZERO PUSH2 0x4F0 JUMPI PUSH1 0x0 DUP1 REVERT JUMPDEST POP PUSH2 0x4F9 PUSH2 0xF78 JUMP JUMPDEST PUSH1 0x40 MLOAD DUP1 DUP3 PUSH20 0xFFFFFFFFFFFFFFFFFFFFFFFFFFFFFFFFFFFFFFFF AND PUSH20 0xFFFFFFFFFFFFFFFFFFFFFFFFFFFFFFFFFFFFFFFF AND DUP2 MSTORE PUSH1 0x20 ADD SWAP2 POP POP PUSH1 0x40 MLOAD DUP1 SWAP2 SUB SWAP1 RETURN JUMPDEST CALLVALUE DUP1 ISZERO PUSH2 0x547 JUMPI PUSH1 0x0 DUP1 REVERT JUMPDEST POP PUSH2 0x57E PUSH1 0x4 DUP1 CALLDATASIZE SUB PUSH1 0x40 DUP2 LT ISZERO PUSH2 0x55E JUMPI PUSH1 0x0 DUP1 REVERT JUMPDEST DUP2 ADD SWAP1 DUP1 DUP1 CALLDATALOAD SWAP1 PUSH1 0x20 ADD SWAP1 SWAP3 SWAP2 SWAP1 DUP1 CALLDATALOAD SWAP1 PUSH1 0x20 ADD SWAP1 SWAP3 SWAP2 SWAP1 POP POP POP PUSH2 0xFA2 JUMP JUMPDEST STOP JUMPDEST CALLVALUE DUP1 ISZERO PUSH2 0x58C JUMPI PUSH1 0x0 DUP1 REVERT JUMPDEST POP PUSH2 0x595 PUSH2 0x1073 JUMP JUMPDEST PUSH1 0x40 MLOAD DUP1 DUP3 DUP2 MSTORE PUSH1 0x20 ADD SWAP2 POP POP PUSH1 0x40 MLOAD DUP1 SWAP2 SUB SWAP1 RETURN JUMPDEST CALLVALUE DUP1 ISZERO PUSH2 0x5B7 JUMPI PUSH1 0x0 DUP1 REVERT JUMPDEST POP PUSH2 0x5E4 PUSH1 0x4 DUP1 CALLDATASIZE SUB PUSH1 0x20 DUP2 LT ISZERO PUSH2 0x5CE JUMPI PUSH1 0x0 DUP1 REVERT JUMPDEST DUP2 ADD SWAP1 DUP1 DUP1 CALLDATALOAD SWAP1 PUSH1 0x20 ADD SWAP1 SWAP3 SWAP2 SWAP1 POP POP POP PUSH2 0x1079 JUMP JUMPDEST STOP JUMPDEST CALLVALUE DUP1 ISZERO PUSH2 0x5F2 JUMPI PUSH1 0x0 DUP1 REVERT JUMPDEST POP PUSH2 0x61F PUSH1 0x4 DUP1 CALLDATASIZE SUB PUSH1 0x20 DUP2 LT ISZERO PUSH2 0x609 JUMPI PUSH1 0x0 DUP1 REVERT JUMPDEST DUP2 ADD SWAP1 DUP1 DUP1 CALLDATALOAD SWAP1 PUSH1 0x20 ADD SWAP1 SWAP3 SWAP2 SWAP1 POP POP POP PUSH2 0x114D JUMP JUMPDEST PUSH1 0x40 MLOAD DUP1 DUP3 DUP2 MSTORE PUSH1 0x20 ADD SWAP2 POP POP PUSH1 0x40 MLOAD DUP1 SWAP2 SUB SWAP1 RETURN JUMPDEST CALLVALUE DUP1 ISZERO PUSH2 0x641 JUMPI PUSH1 0x0 DUP1 REVERT JUMPDEST POP PUSH2 0x684 PUSH1 0x4 DUP1 CALLDATASIZE SUB PUSH1 0x20 DUP2 LT ISZERO PUSH2 0x658 JUMPI PUSH1 0x0 DUP1 REVERT JUMPDEST DUP2 ADD SWAP1 DUP1 DUP1 CALLDATALOAD PUSH20 0xFFFFFFFFFFFFFFFFFFFFFFFFFFFFFFFFFFFFFFFF AND SWAP1 PUSH1 0x20 ADD SWAP1 SWAP3 SWAP2 SWAP1 POP POP POP PUSH2 0x1165 JUMP JUMPDEST STOP JUMPDEST CALLVALUE DUP1 ISZERO PUSH2 0x692 JUMPI PUSH1 0x0 DUP1 REVERT JUMPDEST POP PUSH2 0x6BF PUSH1 0x4 DUP1 CALLDATASIZE SUB PUSH1 0x20 DUP2 LT ISZERO PUSH2 0x6A9 JUMPI PUSH1 0x0 DUP1 REVERT JUMPDEST DUP2 ADD SWAP1 DUP1 DUP1 CALLDATALOAD SWAP1 PUSH1 0x20 ADD SWAP1 SWAP3 SWAP2 SWAP1 POP POP POP PUSH2 0x1272 JUMP JUMPDEST STOP JUMPDEST PUSH2 0x70D PUSH1 0x4 DUP1 CALLDATASIZE SUB PUSH1 0x40 DUP2 LT ISZERO PUSH2 0x6D7 JUMPI PUSH1 0x0 DUP1 REVERT JUMPDEST DUP2 ADD SWAP1 DUP1 DUP1 CALLDATALOAD PUSH20 0xFFFFFFFFFFFFFFFFFFFFFFFFFFFFFFFFFFFFFFFF AND SWAP1 PUSH1 0x20 ADD SWAP1 SWAP3 SWAP2 SWAP1 DUP1 CALLDATALOAD SWAP1 PUSH1 0x20 ADD SWAP1 SWAP3 SWAP2 SWAP1 POP POP POP PUSH2 0x1413 JUMP JUMPDEST STOP JUMPDEST CALLVALUE DUP1 ISZERO PUSH2 0x71B JUMPI PUSH1 0x0 DUP1 REVERT JUMPDEST POP PUSH2 0x724 PUSH2 0x14FC JUMP JUMPDEST STOP JUMPDEST CALLVALUE DUP1 ISZERO PUSH2 0x732 JUMPI PUSH1 0x0 DUP1 REVERT JUMPDEST POP PUSH2 0x75F PUSH1 0x4 DUP1 CALLDATASIZE SUB PUSH1 0x20 DUP2 LT ISZERO PUSH2 0x749 JUMPI PUSH1 0x0 DUP1 REVERT JUMPDEST DUP2 ADD SWAP1 DUP1 DUP1 CALLDATALOAD SWAP1 PUSH1 0x20 ADD SWAP1 SWAP3 SWAP2 SWAP1 POP POP POP PUSH2 0x190B JUMP JUMPDEST STOP JUMPDEST PUSH2 0x7AD PUSH1 0x4 DUP1 CALLDATASIZE SUB PUSH1 0x40 DUP2 LT ISZERO PUSH2 0x777 JUMPI PUSH1 0x0 DUP1 REVERT JUMPDEST DUP2 ADD SWAP1 DUP1 DUP1 CALLDATALOAD PUSH20 0xFFFFFFFFFFFFFFFFFFFFFFFFFFFFFFFFFFFFFFFF AND SWAP1 PUSH1 0x20 ADD SWAP1 SWAP3 SWAP2 SWAP1 DUP1 CALLDATALOAD SWAP1 PUSH1 0x20 ADD SWAP1 SWAP3 SWAP2 SWAP1 POP POP POP PUSH2 0x1ABB JUMP JUMPDEST STOP JUMPDEST CALLVALUE DUP1 ISZERO PUSH2 0x7BB JUMPI PUSH1 0x0 DUP1 REVERT JUMPDEST POP PUSH2 0x7FE PUSH1 0x4 DUP1 CALLDATASIZE SUB PUSH1 0x20 DUP2 LT ISZERO PUSH2 0x7D2 JUMPI PUSH1 0x0 DUP1 REVERT JUMPDEST DUP2 ADD SWAP1 DUP1 DUP1 CALLDATALOAD PUSH20 0xFFFFFFFFFFFFFFFFFFFFFFFFFFFFFFFFFFFFFFFF AND SWAP1 PUSH1 0x20 ADD SWAP1 SWAP3 SWAP2 SWAP1 POP POP POP PUSH2 0x1C60 JUMP JUMPDEST STOP JUMPDEST CALLVALUE DUP1 ISZERO PUSH2 0x80C JUMPI PUSH1 0x0 DUP1 REVERT JUMPDEST POP PUSH2 0x839 PUSH1 0x4 DUP1 CALLDATASIZE SUB PUSH1 0x20 DUP2 LT ISZERO PUSH2 0x823 JUMPI PUSH1 0x0 DUP1 REVERT JUMPDEST DUP2 ADD SWAP1 DUP1 DUP1 CALLDATALOAD SWAP1 PUSH1 0x20 ADD SWAP1 SWAP3 SWAP2 SWAP1 POP POP POP PUSH2 0x1E70 JUMP JUMPDEST STOP JUMPDEST PUSH1 0x17 PUSH1 0x20 MSTORE DUP1 PUSH1 0x0 MSTORE PUSH1 0x40 PUSH1 0x0 KECCAK256 PUSH1 0x0 SWAP2 POP SWAP1 POP DUP1 PUSH1 0x0 ADD SLOAD SWAP1 DUP1 PUSH1 0x1 ADD PUSH1 0x0 SWAP1 SLOAD SWAP1 PUSH2 0x100 EXP SWAP1 DIV PUSH20 0xFFFFFFFFFFFFFFFFFFFFFFFFFFFFFFFFFFFFFFFF AND SWAP1 DUP1 PUSH1 0x2 ADD SLOAD SWAP1 DUP1 PUSH1 0x3 ADD SLOAD SWAP1 DUP1 PUSH1 0x4 ADD SLOAD SWAP1 DUP1 PUSH1 0x5 ADD PUSH1 0x0 SWAP1 SLOAD SWAP1 PUSH2 0x100 EXP SWAP1 DIV PUSH1 0xFF AND SWAP1 POP DUP7 JUMP JUMPDEST PUSH1 0x11 SLOAD DUP2 JUMP JUMPDEST PUSH1 0x10 SLOAD DUP2 JUMP JUMPDEST PUSH2 0x8B8 PUSH2 0x1F46 JUMP JUMPDEST PUSH20 0xFFFFFFFFFFFFFFFFFFFFFFFFFFFFFFFFFFFFFFFF AND PUSH1 0x3 PUSH1 0x0 SWAP1 SLOAD SWAP1 PUSH2 0x100 EXP SWAP1 DIV PUSH20 0xFFFFFFFFFFFFFFFFFFFFFFFFFFFFFFFFFFFFFFFF AND PUSH20 0xFFFFFFFFFFFFFFFFFFFFFFFFFFFFFFFFFFFFFFFF AND EQ PUSH2 0x97A JUMPI PUSH1 0x40 MLOAD PUSH32 0x8C379A000000000000000000000000000000000000000000000000000000000 DUP2 MSTORE PUSH1 0x4 ADD DUP1 DUP1 PUSH1 0x20 ADD DUP3 DUP2 SUB DUP3 MSTORE PUSH1 0x20 DUP2 MSTORE PUSH1 0x20 ADD DUP1 PUSH32 0x4F776E61626C653A2063616C6C6572206973206E6F7420746865206F776E6572 DUP2 MSTORE POP PUSH1 0x20 ADD SWAP2 POP POP PUSH1 0x40 MLOAD DUP1 SWAP2 SUB SWAP1 REVERT JUMPDEST DUP1 PUSH1 0x15 PUSH1 0x0 PUSH2 0x100 EXP DUP2 SLOAD DUP2 PUSH20 0xFFFFFFFFFFFFFFFFFFFFFFFFFFFFFFFFFFFFFFFF MUL NOT AND SWAP1 DUP4 PUSH20 0xFFFFFFFFFFFFFFFFFFFFFFFFFFFFFFFFFFFFFFFF AND MUL OR SWAP1 SSTORE POP POP JUMP JUMPDEST PUSH1 0x0 PUSH2 0x3039 SWAP1 POP SWAP1 JUMP JUMPDEST PUSH1 0x0 DUP1 PUSH1 0x0 DUP1 PUSH1 0x12 SLOAD PUSH1 0x11 SLOAD PUSH1 0x16 SLOAD PUSH1 0x10 SLOAD SWAP4 POP SWAP4 POP SWAP4 POP SWAP4 POP SWAP1 SWAP2 SWAP3 SWAP4 JUMP JUMPDEST PUSH2 0x9F0 PUSH2 0x1F46 JUMP JUMPDEST PUSH20 0xFFFFFFFFFFFFFFFFFFFFFFFFFFFFFFFFFFFFFFFF AND PUSH1 0x3 PUSH1 0x0 SWAP1 SLOAD SWAP1 PUSH2 0x100 EXP SWAP1 DIV PUSH20 0xFFFFFFFFFFFFFFFFFFFFFFFFFFFFFFFFFFFFFFFF AND PUSH20 0xFFFFFFFFFFFFFFFFFFFFFFFFFFFFFFFFFFFFFFFF AND EQ PUSH2 0xAB2 JUMPI PUSH1 0x40 MLOAD PUSH32 0x8C379A000000000000000000000000000000000000000000000000000000000 DUP2 MSTORE PUSH1 0x4 ADD DUP1 DUP1 PUSH1 0x20 ADD DUP3 DUP2 SUB DUP3 MSTORE PUSH1 0x20 DUP2 MSTORE PUSH1 0x20 ADD DUP1 PUSH32 0x4F776E61626C653A2063616C6C6572206973206E6F7420746865206F776E6572 DUP2 MSTORE POP PUSH1 0x20 ADD SWAP2 POP POP PUSH1 0x40 MLOAD DUP1 SWAP2 SUB SWAP1 REVERT JUMPDEST DUP1 PUSH1 0x1 PUSH1 0x0 PUSH2 0x100 EXP DUP2 SLOAD DUP2 PUSH20 0xFFFFFFFFFFFFFFFFFFFFFFFFFFFFFFFFFFFFFFFF MUL NOT AND SWAP1 DUP4 PUSH20 0xFFFFFFFFFFFFFFFFFFFFFFFFFFFFFFFFFFFFFFFF AND MUL OR SWAP1 SSTORE POP POP JUMP JUMPDEST PUSH1 0x0 DUP1 PUSH1 0x0 SWAP1 SLOAD SWAP1 PUSH2 0x100 EXP SWAP1 DIV PUSH20 0xFFFFFFFFFFFFFFFFFFFFFFFFFFFFFFFFFFFFFFFF AND PUSH20 0xFFFFFFFFFFFFFFFFFFFFFFFFFFFFFFFFFFFFFFFF AND PUSH4 0x70A08231 ADDRESS PUSH1 0x40 MLOAD DUP3 PUSH4 0xFFFFFFFF AND PUSH1 0xE0 SHL DUP2 MSTORE PUSH1 0x4 ADD DUP1 DUP3 PUSH20 0xFFFFFFFFFFFFFFFFFFFFFFFFFFFFFFFFFFFFFFFF AND PUSH20 0xFFFFFFFFFFFFFFFFFFFFFFFFFFFFFFFFFFFFFFFF AND DUP2 MSTORE PUSH1 0x20 ADD SWAP2 POP POP PUSH1 0x20 PUSH1 0x40 MLOAD DUP1 DUP4 SUB DUP2 DUP7 DUP1 EXTCODESIZE ISZERO DUP1 ISZERO PUSH2 0xB96 JUMPI PUSH1 0x0 DUP1 REVERT JUMPDEST POP GAS STATICCALL ISZERO DUP1 ISZERO PUSH2 0xBAA JUMPI RETURNDATASIZE PUSH1 0x0 DUP1 RETURNDATACOPY RETURNDATASIZE PUSH1 0x0 REVERT JUMPDEST POP POP POP POP PUSH1 0x40 MLOAD RETURNDATASIZE PUSH1 0x20 DUP2 LT ISZERO PUSH2 0xBC0 JUMPI PUSH1 0x0 DUP1 REVERT JUMPDEST DUP2 ADD SWAP1 DUP1 DUP1 MLOAD SWAP1 PUSH1 0x20 ADD SWAP1 SWAP3 SWAP2 SWAP1 POP POP POP SWAP1 POP SWAP1 JUMP JUMPDEST PUSH1 0x15 PUSH1 0x0 SWAP1 SLOAD SWAP1 PUSH2 0x100 EXP SWAP1 DIV PUSH20 0xFFFFFFFFFFFFFFFFFFFFFFFFFFFFFFFFFFFFFFFF AND DUP2 JUMP JUMPDEST PUSH1 0x16 SLOAD DUP2 JUMP JUMPDEST PUSH2 0xC0A PUSH2 0x1F46 JUMP JUMPDEST PUSH20 0xFFFFFFFFFFFFFFFFFFFFFFFFFFFFFFFFFFFFFFFF AND PUSH1 0x3 PUSH1 0x0 SWAP1 SLOAD SWAP1 PUSH2 0x100 EXP SWAP1 DIV PUSH20 0xFFFFFFFFFFFFFFFFFFFFFFFFFFFFFFFFFFFFFFFF AND PUSH20 0xFFFFFFFFFFFFFFFFFFFFFFFFFFFFFFFFFFFFFFFF AND EQ PUSH2 0xCCC JUMPI PUSH1 0x40 MLOAD PUSH32 0x8C379A000000000000000000000000000000000000000000000000000000000 DUP2 MSTORE PUSH1 0x4 ADD DUP1 DUP1 PUSH1 0x20 ADD DUP3 DUP2 SUB DUP3 MSTORE PUSH1 0x20 DUP2 MSTORE PUSH1 0x20 ADD DUP1 PUSH32 0x4F776E61626C653A2063616C6C6572206973206E6F7420746865206F776E6572 DUP2 MSTORE POP PUSH1 0x20 ADD SWAP2 POP POP PUSH1 0x40 MLOAD DUP1 SWAP2 SUB SWAP1 REVERT JUMPDEST PUSH1 0x0 PUSH20 0xFFFFFFFFFFFFFFFFFFFFFFFFFFFFFFFFFFFFFFFF AND PUSH1 0x3 PUSH1 0x0 SWAP1 SLOAD SWAP1 PUSH2 0x100 EXP SWAP1 DIV PUSH20 0xFFFFFFFFFFFFFFFFFFFFFFFFFFFFFFFFFFFFFFFF AND PUSH20 0xFFFFFFFFFFFFFFFFFFFFFFFFFFFFFFFFFFFFFFFF AND PUSH32 0x8BE0079C531659141344CD1FD0A4F28419497F9722A3DAAFE3B4186F6B6457E0 PUSH1 0x40 MLOAD PUSH1 0x40 MLOAD DUP1 SWAP2 SUB SWAP1 LOG3 PUSH1 0x0 PUSH1 0x3 PUSH1 0x0 PUSH2 0x100 EXP DUP2 SLOAD DUP2 PUSH20 0xFFFFFFFFFFFFFFFFFFFFFFFFFFFFFFFFFFFFFFFF MUL NOT AND SWAP1 DUP4 PUSH20 0xFFFFFFFFFFFFFFFFFFFFFFFFFFFFFFFFFFFFFFFF AND MUL OR SWAP1 SSTORE POP JUMP JUMPDEST PUSH2 0xD95 PUSH2 0x1F46 JUMP JUMPDEST PUSH20 0xFFFFFFFFFFFFFFFFFFFFFFFFFFFFFFFFFFFFFFFF AND PUSH1 0x3 PUSH1 0x0 SWAP1 SLOAD SWAP1 PUSH2 0x100 EXP SWAP1 DIV PUSH20 0xFFFFFFFFFFFFFFFFFFFFFFFFFFFFFFFFFFFFFFFF AND PUSH20 0xFFFFFFFFFFFFFFFFFFFFFFFFFFFFFFFFFFFFFFFF AND EQ PUSH2 0xE57 JUMPI PUSH1 0x40 MLOAD PUSH32 0x8C379A000000000000000000000000000000000000000000000000000000000 DUP2 MSTORE PUSH1 0x4 ADD DUP1 DUP1 PUSH1 0x20 ADD DUP3 DUP2 SUB DUP3 MSTORE PUSH1 0x20 DUP2 MSTORE PUSH1 0x20 ADD DUP1 PUSH32 0x4F776E61626C653A2063616C6C6572206973206E6F7420746865206F776E6572 DUP2 MSTORE POP PUSH1 0x20 ADD SWAP2 POP POP PUSH1 0x40 MLOAD DUP1 SWAP2 SUB SWAP1 REVERT JUMPDEST PUSH1 0x0 DUP1 SWAP1 SLOAD SWAP1 PUSH2 0x100 EXP SWAP1 DIV PUSH20 0xFFFFFFFFFFFFFFFFFFFFFFFFFFFFFFFFFFFFFFFF AND PUSH20 0xFFFFFFFFFFFFFFFFFFFFFFFFFFFFFFFFFFFFFFFF AND PUSH4 0xA9059CBB PUSH1 0x15 PUSH1 0x0 SWAP1 SLOAD SWAP1 PUSH2 0x100 EXP SWAP1 DIV PUSH20 0xFFFFFFFFFFFFFFFFFFFFFFFFFFFFFFFFFFFFFFFF AND DUP4 PUSH1 0x40 MLOAD DUP4 PUSH4 0xFFFFFFFF AND PUSH1 0xE0 SHL DUP2 MSTORE PUSH1 0x4 ADD DUP1 DUP4 PUSH20 0xFFFFFFFFFFFFFFFFFFFFFFFFFFFFFFFFFFFFFFFF AND PUSH20 0xFFFFFFFFFFFFFFFFFFFFFFFFFFFFFFFFFFFFFFFF AND DUP2 MSTORE PUSH1 0x20 ADD DUP3 DUP2 MSTORE PUSH1 0x20 ADD SWAP3 POP POP POP PUSH1 0x20 PUSH1 0x40 MLOAD DUP1 DUP4 SUB DUP2 PUSH1 0x0 DUP8 DUP1 EXTCODESIZE ISZERO DUP1 ISZERO PUSH2 0xF21 JUMPI PUSH1 0x0 DUP1 REVERT JUMPDEST POP GAS CALL ISZERO DUP1 ISZERO PUSH2 0xF35 JUMPI RETURNDATASIZE PUSH1 0x0 DUP1 RETURNDATACOPY RETURNDATASIZE PUSH1 0x0 REVERT JUMPDEST POP POP POP POP PUSH1 0x40 MLOAD RETURNDATASIZE PUSH1 0x20 DUP2 LT ISZERO PUSH2 0xF4B JUMPI PUSH1 0x0 DUP1 REVERT JUMPDEST DUP2 ADD SWAP1 DUP1 DUP1 MLOAD SWAP1 PUSH1 0x20 ADD SWAP1 SWAP3 SWAP2 SWAP1 POP POP POP POP POP JUMP JUMPDEST PUSH1 0x18 PUSH1 0x20 MSTORE DUP1 PUSH1 0x0 MSTORE PUSH1 0x40 PUSH1 0x0 KECCAK256 PUSH1 0x0 SWAP2 POP SWAP1 POP SLOAD DUP2 JUMP JUMPDEST PUSH1 0x0 PUSH1 0x3 PUSH1 0x0 SWAP1 SLOAD SWAP1 PUSH2 0x100 EXP SWAP1 DIV PUSH20 0xFFFFFFFFFFFFFFFFFFFFFFFFFFFFFFFFFFFFFFFF AND SWAP1 POP SWAP1 JUMP JUMPDEST PUSH1 0x1 PUSH1 0x0 SWAP1 SLOAD SWAP1 PUSH2 0x100 EXP SWAP1 DIV PUSH20 0xFFFFFFFFFFFFFFFFFFFFFFFFFFFFFFFFFFFFFFFF AND PUSH20 0xFFFFFFFFFFFFFFFFFFFFFFFFFFFFFFFFFFFFFFFF AND CALLER PUSH20 0xFFFFFFFFFFFFFFFFFFFFFFFFFFFFFFFFFFFFFFFF AND EQ PUSH2 0x1065 JUMPI PUSH1 0x40 MLOAD PUSH32 0x8C379A000000000000000000000000000000000000000000000000000000000 DUP2 MSTORE PUSH1 0x4 ADD DUP1 DUP1 PUSH1 0x20 ADD DUP3 DUP2 SUB DUP3 MSTORE PUSH1 0x1F DUP2 MSTORE PUSH1 0x20 ADD DUP1 PUSH32 0x4F6E6C7920565246436F6F7264696E61746F722063616E2066756C66696C6C00 DUP2 MSTORE POP PUSH1 0x20 ADD SWAP2 POP POP PUSH1 0x40 MLOAD DUP1 SWAP2 SUB SWAP1 REVERT JUMPDEST PUSH2 0x106F DUP3 DUP3 PUSH2 0x1F4E JUMP JUMPDEST POP POP JUMP JUMPDEST PUSH1 0x12 SLOAD DUP2 JUMP JUMPDEST PUSH2 0x1081 PUSH2 0x1F46 JUMP JUMPDEST PUSH20 0xFFFFFFFFFFFFFFFFFFFFFFFFFFFFFFFFFFFFFFFF AND PUSH1 0x3 PUSH1 0x0 SWAP1 SLOAD SWAP1 PUSH2 0x100 EXP SWAP1 DIV PUSH20 0xFFFFFFFFFFFFFFFFFFFFFFFFFFFFFFFFFFFFFFFF AND PUSH20 0xFFFFFFFFFFFFFFFFFFFFFFFFFFFFFFFFFFFFFFFF AND EQ PUSH2 0x1143 JUMPI PUSH1 0x40 MLOAD PUSH32 0x8C379A000000000000000000000000000000000000000000000000000000000 DUP2 MSTORE PUSH1 0x4 ADD DUP1 DUP1 PUSH1 0x20 ADD DUP3 DUP2 SUB DUP3 MSTORE PUSH1 0x20 DUP2 MSTORE PUSH1 0x20 ADD DUP1 PUSH32 0x4F776E61626C653A2063616C6C6572206973206E6F7420746865206F776E6572 DUP2 MSTORE POP PUSH1 0x20 ADD SWAP2 POP POP PUSH1 0x40 MLOAD DUP1 SWAP2 SUB SWAP1 REVERT JUMPDEST DUP1 PUSH1 0x4 DUP2 SWAP1 SSTORE POP POP JUMP JUMPDEST PUSH1 0x2 PUSH1 0x20 MSTORE DUP1 PUSH1 0x0 MSTORE PUSH1 0x40 PUSH1 0x0 KECCAK256 PUSH1 0x0 SWAP2 POP SWAP1 POP SLOAD DUP2 JUMP JUMPDEST PUSH2 0x116D PUSH2 0x1F46 JUMP JUMPDEST PUSH20 0xFFFFFFFFFFFFFFFFFFFFFFFFFFFFFFFFFFFFFFFF AND PUSH1 0x3 PUSH1 0x0 SWAP1 SLOAD SWAP1 PUSH2 0x100 EXP SWAP1 DIV PUSH20 0xFFFFFFFFFFFFFFFFFFFFFFFFFFFFFFFFFFFFFFFF AND PUSH20 0xFFFFFFFFFFFFFFFFFFFFFFFFFFFFFFFFFFFFFFFF AND EQ PUSH2 0x122F JUMPI PUSH1 0x40 MLOAD PUSH32 0x8C379A000000000000000000000000000000000000000000000000000000000 DUP2 MSTORE PUSH1 0x4 ADD DUP1 DUP1 PUSH1 0x20 ADD DUP3 DUP2 SUB DUP3 MSTORE PUSH1 0x20 DUP2 MSTORE PUSH1 0x20 ADD DUP1 PUSH32 0x4F776E61626C653A2063616C6C6572206973206E6F7420746865206F776E6572 DUP2 MSTORE POP PUSH1 0x20 ADD SWAP2 POP POP PUSH1 0x40 MLOAD DUP1 SWAP2 SUB SWAP1 REVERT JUMPDEST DUP1 PUSH1 0x0 DUP1 PUSH2 0x100 EXP DUP2 SLOAD DUP2 PUSH20 0xFFFFFFFFFFFFFFFFFFFFFFFFFFFFFFFFFFFFFFFF MUL NOT AND SWAP1 DUP4 PUSH20 0xFFFFFFFFFFFFFFFFFFFFFFFFFFFFFFFFFFFFFFFF AND MUL OR SWAP1 SSTORE POP POP JUMP JUMPDEST PUSH1 0x0 PUSH1 0x17 PUSH1 0x0 DUP4 DUP2 MSTORE PUSH1 0x20 ADD SWAP1 DUP2 MSTORE PUSH1 0x20 ADD PUSH1 0x0 KECCAK256 SWAP1 POP PUSH1 0x0 ISZERO ISZERO DUP2 PUSH1 0x5 ADD PUSH1 0x0 SWAP1 SLOAD SWAP1 PUSH2 0x100 EXP SWAP1 DIV PUSH1 0xFF AND ISZERO ISZERO EQ PUSH2 0x12F7 JUMPI PUSH1 0x40 MLOAD PUSH32 0x8C379A000000000000000000000000000000000000000000000000000000000 DUP2 MSTORE PUSH1 0x4 ADD DUP1 DUP1 PUSH1 0x20 ADD DUP3 DUP2 SUB DUP3 MSTORE PUSH1 0x2A DUP2 MSTORE PUSH1 0x20 ADD DUP1 PUSH2 0x2B51 PUSH1 0x2A SWAP2 CODECOPY PUSH1 0x40 ADD SWAP2 POP POP PUSH1 0x40 MLOAD DUP1 SWAP2 SUB SWAP1 REVERT JUMPDEST DUP1 PUSH1 0x2 ADD SLOAD SELFBALANCE LT ISZERO PUSH2 0x1354 JUMPI PUSH1 0x40 MLOAD PUSH32 0x8C379A000000000000000000000000000000000000000000000000000000000 DUP2 MSTORE PUSH1 0x4 ADD DUP1 DUP1 PUSH1 0x20 ADD DUP3 DUP2 SUB DUP3 MSTORE PUSH1 0x31 DUP2 MSTORE PUSH1 0x20 ADD DUP1 PUSH2 0x2B20 PUSH1 0x31 SWAP2 CODECOPY PUSH1 0x40 ADD SWAP2 POP POP PUSH1 0x40 MLOAD DUP1 SWAP2 SUB SWAP1 REVERT JUMPDEST PUSH1 0x1 DUP2 PUSH1 0x5 ADD PUSH1 0x0 PUSH2 0x100 EXP DUP2 SLOAD DUP2 PUSH1 0xFF MUL NOT AND SWAP1 DUP4 ISZERO ISZERO MUL OR SWAP1 SSTORE POP DUP1 PUSH1 0x2 ADD SLOAD PUSH1 0x13 SLOAD LT PUSH2 0x1397 JUMPI DUP1 PUSH1 0x2 ADD SLOAD PUSH1 0x13 PUSH1 0x0 DUP3 DUP3 SLOAD SUB SWAP3 POP POP DUP2 SWAP1 SSTORE POP PUSH2 0x13A0 JUMP JUMPDEST PUSH1 0x0 PUSH1 0x13 DUP2 SWAP1 SSTORE POP JUMPDEST DUP1 PUSH1 0x1 ADD PUSH1 0x0 SWAP1 SLOAD SWAP1 PUSH2 0x100 EXP SWAP1 DIV PUSH20 0xFFFFFFFFFFFFFFFFFFFFFFFFFFFFFFFFFFFFFFFF AND PUSH20 0xFFFFFFFFFFFFFFFFFFFFFFFFFFFFFFFFFFFFFFFF AND PUSH2 0x8FC DUP3 PUSH1 0x2 ADD SLOAD SWAP1 DUP2 ISZERO MUL SWAP1 PUSH1 0x40 MLOAD PUSH1 0x0 PUSH1 0x40 MLOAD DUP1 DUP4 SUB DUP2 DUP6 DUP9 DUP9 CALL SWAP4 POP POP POP POP ISZERO DUP1 ISZERO PUSH2 0x140E JUMPI RETURNDATASIZE PUSH1 0x0 DUP1 RETURNDATACOPY RETURNDATASIZE PUSH1 0x0 REVERT JUMPDEST POP POP POP JUMP JUMPDEST PUSH1 0x12 SLOAD CALLVALUE LT ISZERO PUSH2 0x148B JUMPI PUSH1 0x40 MLOAD PUSH32 0x8C379A000000000000000000000000000000000000000000000000000000000 DUP2 MSTORE PUSH1 0x4 ADD DUP1 DUP1 PUSH1 0x20 ADD DUP3 DUP2 SUB DUP3 MSTORE PUSH1 0x13 DUP2 MSTORE PUSH1 0x20 ADD DUP1 PUSH32 0x6D696E696D756D20626574206E6F74206D657400000000000000000000000000 DUP2 MSTORE POP PUSH1 0x20 ADD SWAP2 POP POP PUSH1 0x40 MLOAD DUP1 SWAP2 SUB SWAP1 REVERT JUMPDEST PUSH1 0x6 PUSH1 0x0 SWAP1 SSTORE PUSH1 0x7 PUSH1 0x0 SWAP1 SSTORE PUSH1 0x8 PUSH1 0x0 SWAP1 SSTORE PUSH1 0x9 PUSH1 0x0 SWAP1 SSTORE PUSH1 0xA PUSH1 0x0 SWAP1 SSTORE PUSH1 0xB PUSH1 0x0 SWAP1 SSTORE PUSH1 0xC PUSH1 0x0 SWAP1 SSTORE PUSH1 0xD PUSH1 0x0 SWAP1 SSTORE PUSH1 0xE PUSH1 0x0 SWAP1 SSTORE PUSH1 0xF PUSH1 0x0 SWAP1 SSTORE PUSH2 0x14DC CALLVALUE PUSH1 0x13 SLOAD PUSH2 0x216A SWAP1 SWAP2 SWAP1 PUSH4 0xFFFFFFFF AND JUMP JUMPDEST PUSH1 0x13 DUP2 SWAP1 SSTORE POP PUSH2 0x14ED DUP3 CALLVALUE DUP4 PUSH2 0x21F2 JUMP JUMPDEST PUSH2 0x14F8 PUSH1 0x14 SLOAD PUSH2 0x2325 JUMP JUMPDEST POP POP JUMP JUMPDEST PUSH2 0x1504 PUSH2 0x1F46 JUMP JUMPDEST PUSH20 0xFFFFFFFFFFFFFFFFFFFFFFFFFFFFFFFFFFFFFFFF AND PUSH1 0x3 PUSH1 0x0 SWAP1 SLOAD SWAP1 PUSH2 0x100 EXP SWAP1 DIV PUSH20 0xFFFFFFFFFFFFFFFFFFFFFFFFFFFFFFFFFFFFFFFF AND PUSH20 0xFFFFFFFFFFFFFFFFFFFFFFFFFFFFFFFFFFFFFFFF AND EQ PUSH2 0x15C6 JUMPI PUSH1 0x40 MLOAD PUSH32 0x8C379A000000000000000000000000000000000000000000000000000000000 DUP2 MSTORE PUSH1 0x4 ADD DUP1 DUP1 PUSH1 0x20 ADD DUP3 DUP2 SUB DUP3 MSTORE PUSH1 0x20 DUP2 MSTORE PUSH1 0x20 ADD DUP1 PUSH32 0x4F776E61626C653A2063616C6C6572206973206E6F7420746865206F776E6572 DUP2 MSTORE POP PUSH1 0x20 ADD SWAP2 POP POP PUSH1 0x40 MLOAD DUP1 SWAP2 SUB SWAP1 REVERT JUMPDEST PUSH1 0x0 PUSH2 0x15DD PUSH1 0x13 SLOAD SELFBALANCE PUSH2 0x23F3 SWAP1 SWAP2 SWAP1 PUSH4 0xFFFFFFFF AND JUMP JUMPDEST SWAP1 POP PUSH1 0x15 PUSH1 0x0 SWAP1 SLOAD SWAP1 PUSH2 0x100 EXP SWAP1 DIV PUSH20 0xFFFFFFFFFFFFFFFFFFFFFFFFFFFFFFFFFFFFFFFF AND PUSH20 0xFFFFFFFFFFFFFFFFFFFFFFFFFFFFFFFFFFFFFFFF AND PUSH2 0x8FC DUP3 SWAP1 DUP2 ISZERO MUL SWAP1 PUSH1 0x40 MLOAD PUSH1 0x0 PUSH1 0x40 MLOAD DUP1 DUP4 SUB DUP2 DUP6 DUP9 DUP9 CALL SWAP4 POP POP POP POP ISZERO DUP1 ISZERO PUSH2 0x1647 JUMPI RETURNDATASIZE PUSH1 0x0 DUP1 RETURNDATACOPY RETURNDATASIZE PUSH1 0x0 REVERT JUMPDEST POP PUSH1 0x0 DUP1 PUSH1 0x0 SWAP1 SLOAD SWAP1 PUSH2 0x100 EXP SWAP1 DIV PUSH20 0xFFFFFFFFFFFFFFFFFFFFFFFFFFFFFFFFFFFFFFFF AND PUSH20 0xFFFFFFFFFFFFFFFFFFFFFFFFFFFFFFFFFFFFFFFF AND PUSH4 0x70A08231 ADDRESS PUSH1 0x40 MLOAD DUP3 PUSH4 0xFFFFFFFF AND PUSH1 0xE0 SHL DUP2 MSTORE PUSH1 0x4 ADD DUP1 DUP3 PUSH20 0xFFFFFFFFFFFFFFFFFFFFFFFFFFFFFFFFFFFFFFFF AND PUSH20 0xFFFFFFFFFFFFFFFFFFFFFFFFFFFFFFFFFFFFFFFF AND DUP2 MSTORE PUSH1 0x20 ADD SWAP2 POP POP PUSH1 0x20 PUSH1 0x40 MLOAD DUP1 DUP4 SUB DUP2 DUP7 DUP1 EXTCODESIZE ISZERO DUP1 ISZERO PUSH2 0x16E8 JUMPI PUSH1 0x0 DUP1 REVERT JUMPDEST POP GAS STATICCALL ISZERO DUP1 ISZERO PUSH2 0x16FC JUMPI RETURNDATASIZE PUSH1 0x0 DUP1 RETURNDATACOPY RETURNDATASIZE PUSH1 0x0 REVERT JUMPDEST POP POP POP POP PUSH1 0x40 MLOAD RETURNDATASIZE PUSH1 0x20 DUP2 LT ISZERO PUSH2 0x1712 JUMPI PUSH1 0x0 DUP1 REVERT JUMPDEST DUP2 ADD SWAP1 DUP1 DUP1 MLOAD SWAP1 PUSH1 0x20 ADD SWAP1 SWAP3 SWAP2 SWAP1 POP POP POP GT ISZERO PUSH2 0x1908 JUMPI PUSH1 0x0 DUP1 SWAP1 SLOAD SWAP1 PUSH2 0x100 EXP SWAP1 DIV PUSH20 0xFFFFFFFFFFFFFFFFFFFFFFFFFFFFFFFFFFFFFFFF AND PUSH20 0xFFFFFFFFFFFFFFFFFFFFFFFFFFFFFFFFFFFFFFFF AND PUSH4 0xA9059CBB PUSH1 0x15 PUSH1 0x0 SWAP1 SLOAD SWAP1 PUSH2 0x100 EXP SWAP1 DIV PUSH20 0xFFFFFFFFFFFFFFFFFFFFFFFFFFFFFFFFFFFFFFFF AND PUSH1 0x0 DUP1 SWAP1 SLOAD SWAP1 PUSH2 0x100 EXP SWAP1 DIV PUSH20 0xFFFFFFFFFFFFFFFFFFFFFFFFFFFFFFFFFFFFFFFF AND PUSH20 0xFFFFFFFFFFFFFFFFFFFFFFFFFFFFFFFFFFFFFFFF AND PUSH4 0x70A08231 ADDRESS PUSH1 0x40 MLOAD DUP3 PUSH4 0xFFFFFFFF AND PUSH1 0xE0 SHL DUP2 MSTORE PUSH1 0x4 ADD DUP1 DUP3 PUSH20 0xFFFFFFFFFFFFFFFFFFFFFFFFFFFFFFFFFFFFFFFF AND PUSH20 0xFFFFFFFFFFFFFFFFFFFFFFFFFFFFFFFFFFFFFFFF AND DUP2 MSTORE PUSH1 0x20 ADD SWAP2 POP POP PUSH1 0x20 PUSH1 0x40 MLOAD DUP1 DUP4 SUB DUP2 DUP7 DUP1 EXTCODESIZE ISZERO DUP1 ISZERO PUSH2 0x1827 JUMPI PUSH1 0x0 DUP1 REVERT JUMPDEST POP GAS STATICCALL ISZERO DUP1 ISZERO PUSH2 0x183B JUMPI RETURNDATASIZE PUSH1 0x0 DUP1 RETURNDATACOPY RETURNDATASIZE PUSH1 0x0 REVERT JUMPDEST POP POP POP POP PUSH1 0x40 MLOAD RETURNDATASIZE PUSH1 0x20 DUP2 LT ISZERO PUSH2 0x1851 JUMPI PUSH1 0x0 DUP1 REVERT JUMPDEST DUP2 ADD SWAP1 DUP1 DUP1 MLOAD SWAP1 PUSH1 0x20 ADD SWAP1 SWAP3 SWAP2 SWAP1 POP POP POP PUSH1 0x40 MLOAD DUP4 PUSH4 0xFFFFFFFF AND PUSH1 0xE0 SHL DUP2 MSTORE PUSH1 0x4 ADD DUP1 DUP4 PUSH20 0xFFFFFFFFFFFFFFFFFFFFFFFFFFFFFFFFFFFFFFFF AND PUSH20 0xFFFFFFFFFFFFFFFFFFFFFFFFFFFFFFFFFFFFFFFF AND DUP2 MSTORE PUSH1 0x20 ADD DUP3 DUP2 MSTORE PUSH1 0x20 ADD SWAP3 POP POP POP PUSH1 0x20 PUSH1 0x40 MLOAD DUP1 DUP4 SUB DUP2 PUSH1 0x0 DUP8 DUP1 EXTCODESIZE ISZERO DUP1 ISZERO PUSH2 0x18CB JUMPI PUSH1 0x0 DUP1 REVERT JUMPDEST POP GAS CALL ISZERO DUP1 ISZERO PUSH2 0x18DF JUMPI RETURNDATASIZE PUSH1 0x0 DUP1 RETURNDATACOPY RETURNDATASIZE PUSH1 0x0 REVERT JUMPDEST POP POP POP POP PUSH1 0x40 MLOAD RETURNDATASIZE PUSH1 0x20 DUP2 LT ISZERO PUSH2 0x18F5 JUMPI PUSH1 0x0 DUP1 REVERT JUMPDEST DUP2 ADD SWAP1 DUP1 DUP1 MLOAD SWAP1 PUSH1 0x20 ADD SWAP1 SWAP3 SWAP2 SWAP1 POP POP POP POP JUMPDEST POP JUMP JUMPDEST PUSH2 0x1913 PUSH2 0x1F46 JUMP JUMPDEST PUSH20 0xFFFFFFFFFFFFFFFFFFFFFFFFFFFFFFFFFFFFFFFF AND PUSH1 0x3 PUSH1 0x0 SWAP1 SLOAD SWAP1 PUSH2 0x100 EXP SWAP1 DIV PUSH20 0xFFFFFFFFFFFFFFFFFFFFFFFFFFFFFFFFFFFFFFFF AND PUSH20 0xFFFFFFFFFFFFFFFFFFFFFFFFFFFFFFFFFFFFFFFF AND EQ PUSH2 0x19D5 JUMPI PUSH1 0x40 MLOAD PUSH32 0x8C379A000000000000000000000000000000000000000000000000000000000 DUP2 MSTORE PUSH1 0x4 ADD DUP1 DUP1 PUSH1 0x20 ADD DUP3 DUP2 SUB DUP3 MSTORE PUSH1 0x20 DUP2 MSTORE PUSH1 0x20 ADD DUP1 PUSH32 0x4F776E61626C653A2063616C6C6572206973206E6F7420746865206F776E6572 DUP2 MSTORE POP PUSH1 0x20 ADD SWAP2 POP POP PUSH1 0x40 MLOAD DUP1 SWAP2 SUB SWAP1 REVERT JUMPDEST PUSH1 0x13 SLOAD DUP2 SELFBALANCE SUB LT ISZERO PUSH2 0x1A4F JUMPI PUSH1 0x40 MLOAD PUSH32 0x8C379A000000000000000000000000000000000000000000000000000000000 DUP2 MSTORE PUSH1 0x4 ADD DUP1 DUP1 PUSH1 0x20 ADD DUP3 DUP2 SUB DUP3 MSTORE PUSH1 0x1C DUP2 MSTORE PUSH1 0x20 ADD DUP1 PUSH32 0x43616E277420776974686472617720756E706C61796564206265747300000000 DUP2 MSTORE POP PUSH1 0x20 ADD SWAP2 POP POP PUSH1 0x40 MLOAD DUP1 SWAP2 SUB SWAP1 REVERT JUMPDEST PUSH1 0x15 PUSH1 0x0 SWAP1 SLOAD SWAP1 PUSH2 0x100 EXP SWAP1 DIV PUSH20 0xFFFFFFFFFFFFFFFFFFFFFFFFFFFFFFFFFFFFFFFF AND PUSH20 0xFFFFFFFFFFFFFFFFFFFFFFFFFFFFFFFFFFFFFFFF AND PUSH2 0x8FC DUP3 SWAP1 DUP2 ISZERO MUL SWAP1 PUSH1 0x40 MLOAD PUSH1 0x0 PUSH1 0x40 MLOAD DUP1 DUP4 SUB DUP2 DUP6 DUP9 DUP9 CALL SWAP4 POP POP POP POP ISZERO DUP1 ISZERO PUSH2 0x1AB7 JUMPI RETURNDATASIZE PUSH1 0x0 DUP1 RETURNDATACOPY RETURNDATASIZE PUSH1 0x0 REVERT JUMPDEST POP POP JUMP JUMPDEST PUSH2 0x1AC4 CALLVALUE PUSH2 0x247C JUMP JUMPDEST PUSH2 0x1B19 JUMPI PUSH1 0x40 MLOAD PUSH32 0x8C379A000000000000000000000000000000000000000000000000000000000 DUP2 MSTORE PUSH1 0x4 ADD DUP1 DUP1 PUSH1 0x20 ADD DUP3 DUP2 SUB DUP3 MSTORE PUSH1 0x36 DUP2 MSTORE PUSH1 0x20 ADD DUP1 PUSH2 0x2AC9 PUSH1 0x36 SWAP2 CODECOPY PUSH1 0x40 ADD SWAP2 POP POP PUSH1 0x40 MLOAD DUP1 SWAP2 SUB SWAP1 REVERT JUMPDEST PUSH1 0x10 SLOAD DUP2 GT ISZERO PUSH2 0x1B74 JUMPI PUSH1 0x40 MLOAD PUSH32 0x8C379A000000000000000000000000000000000000000000000000000000000 DUP2 MSTORE PUSH1 0x4 ADD DUP1 DUP1 PUSH1 0x20 ADD DUP3 DUP2 SUB DUP3 MSTORE PUSH1 0x28 DUP2 MSTORE PUSH1 0x20 ADD DUP1 PUSH2 0x2A7B PUSH1 0x28 SWAP2 CODECOPY PUSH1 0x40 ADD SWAP2 POP POP PUSH1 0x40 MLOAD DUP1 SWAP2 SUB SWAP1 REVERT JUMPDEST PUSH2 0x1B7D CALLVALUE PUSH2 0x24C3 JUMP JUMPDEST PUSH2 0x1BEF JUMPI PUSH1 0x40 MLOAD PUSH32 0x8C379A000000000000000000000000000000000000000000000000000000000 DUP2 MSTORE PUSH1 0x4 ADD DUP1 DUP1 PUSH1 0x20 ADD DUP3 DUP2 SUB DUP3 MSTORE PUSH1 0x15 DUP2 MSTORE PUSH1 0x20 ADD DUP1 PUSH32 0x4F757469736465206F66206265742072616E67652E0000000000000000000000 DUP2 MSTORE POP PUSH1 0x20 ADD SWAP2 POP POP PUSH1 0x40 MLOAD DUP1 SWAP2 SUB SWAP1 REVERT JUMPDEST PUSH1 0x6 PUSH1 0x0 SWAP1 SSTORE PUSH1 0x7 PUSH1 0x0 SWAP1 SSTORE PUSH1 0x8 PUSH1 0x0 SWAP1 SSTORE PUSH1 0x9 PUSH1 0x0 SWAP1 SSTORE PUSH1 0xA PUSH1 0x0 SWAP1 SSTORE PUSH1 0xB PUSH1 0x0 SWAP1 SSTORE PUSH1 0xC PUSH1 0x0 SWAP1 SSTORE PUSH1 0xD PUSH1 0x0 SWAP1 SSTORE PUSH1 0xE PUSH1 0x0 SWAP1 SSTORE PUSH1 0xF PUSH1 0x0 SWAP1 SSTORE PUSH2 0x1C40 CALLVALUE PUSH1 0x13 SLOAD PUSH2 0x216A SWAP1 SWAP2 SWAP1 PUSH4 0xFFFFFFFF AND JUMP JUMPDEST PUSH1 0x13 DUP2 SWAP1 SSTORE POP PUSH2 0x1C51 DUP3 CALLVALUE DUP4 PUSH2 0x21F2 JUMP JUMPDEST PUSH2 0x1C5C PUSH1 0x14 SLOAD PUSH2 0x2325 JUMP JUMPDEST POP POP JUMP JUMPDEST PUSH2 0x1C68 PUSH2 0x1F46 JUMP JUMPDEST PUSH20 0xFFFFFFFFFFFFFFFFFFFFFFFFFFFFFFFFFFFFFFFF AND PUSH1 0x3 PUSH1 0x0 SWAP1 SLOAD SWAP1 PUSH2 0x100 EXP SWAP1 DIV PUSH20 0xFFFFFFFFFFFFFFFFFFFFFFFFFFFFFFFFFFFFFFFF AND PUSH20 0xFFFFFFFFFFFFFFFFFFFFFFFFFFFFFFFFFFFFFFFF AND EQ PUSH2 0x1D2A JUMPI PUSH1 0x40 MLOAD PUSH32 0x8C379A000000000000000000000000000000000000000000000000000000000 DUP2 MSTORE PUSH1 0x4 ADD DUP1 DUP1 PUSH1 0x20 ADD DUP3 DUP2 SUB DUP3 MSTORE PUSH1 0x20 DUP2 MSTORE PUSH1 0x20 ADD DUP1 PUSH32 0x4F776E61626C653A2063616C6C6572206973206E6F7420746865206F776E6572 DUP2 MSTORE POP PUSH1 0x20 ADD SWAP2 POP POP PUSH1 0x40 MLOAD DUP1 SWAP2 SUB SWAP1 REVERT JUMPDEST PUSH1 0x0 PUSH20 0xFFFFFFFFFFFFFFFFFFFFFFFFFFFFFFFFFFFFFFFF AND DUP2 PUSH20 0xFFFFFFFFFFFFFFFFFFFFFFFFFFFFFFFFFFFFFFFF AND EQ ISZERO PUSH2 0x1DB0 JUMPI PUSH1 0x40 MLOAD PUSH32 0x8C379A000000000000000000000000000000000000000000000000000000000 DUP2 MSTORE PUSH1 0x4 ADD DUP1 DUP1 PUSH1 0x20 ADD DUP3 DUP2 SUB DUP3 MSTORE PUSH1 0x26 DUP2 MSTORE PUSH1 0x20 ADD DUP1 PUSH2 0x2AA3 PUSH1 0x26 SWAP2 CODECOPY PUSH1 0x40 ADD SWAP2 POP POP PUSH1 0x40 MLOAD DUP1 SWAP2 SUB SWAP1 REVERT JUMPDEST DUP1 PUSH20 0xFFFFFFFFFFFFFFFFFFFFFFFFFFFFFFFFFFFFFFFF AND PUSH1 0x3 PUSH1 0x0 SWAP1 SLOAD SWAP1 PUSH2 0x100 EXP SWAP1 DIV PUSH20 0xFFFFFFFFFFFFFFFFFFFFFFFFFFFFFFFFFFFFFFFF AND PUSH20 0xFFFFFFFFFFFFFFFFFFFFFFFFFFFFFFFFFFFFFFFF AND PUSH32 0x8BE0079C531659141344CD1FD0A4F28419497F9722A3DAAFE3B4186F6B6457E0 PUSH1 0x40 MLOAD PUSH1 0x40 MLOAD DUP1 SWAP2 SUB SWAP1 LOG3 DUP1 PUSH1 0x3 PUSH1 0x0 PUSH2 0x100 EXP DUP2 SLOAD DUP2 PUSH20 0xFFFFFFFFFFFFFFFFFFFFFFFFFFFFFFFFFFFFFFFF MUL NOT AND SWAP1 DUP4 PUSH20 0xFFFFFFFFFFFFFFFFFFFFFFFFFFFFFFFFFFFFFFFF AND MUL OR SWAP1 SSTORE POP POP JUMP JUMPDEST PUSH2 0x1E78 PUSH2 0x1F46 JUMP JUMPDEST PUSH20 0xFFFFFFFFFFFFFFFFFFFFFFFFFFFFFFFFFFFFFFFF AND PUSH1 0x3 PUSH1 0x0 SWAP1 SLOAD SWAP1 PUSH2 0x100 EXP SWAP1 DIV PUSH20 0xFFFFFFFFFFFFFFFFFFFFFFFFFFFFFFFFFFFFFFFF AND PUSH20 0xFFFFFFFFFFFFFFFFFFFFFFFFFFFFFFFFFFFFFFFF AND EQ PUSH2 0x1F3A JUMPI PUSH1 0x40 MLOAD PUSH32 0x8C379A000000000000000000000000000000000000000000000000000000000 DUP2 MSTORE PUSH1 0x4 ADD DUP1 DUP1 PUSH1 0x20 ADD DUP3 DUP2 SUB DUP3 MSTORE PUSH1 0x20 DUP2 MSTORE PUSH1 0x20 ADD DUP1 PUSH32 0x4F776E61626C653A2063616C6C6572206973206E6F7420746865206F776E6572 DUP2 MSTORE POP PUSH1 0x20 ADD SWAP2 POP POP PUSH1 0x40 MLOAD DUP1 SWAP2 SUB SWAP1 REVERT JUMPDEST PUSH2 0x1F43 DUP2 PUSH2 0x2325 JUMP JUMPDEST POP JUMP JUMPDEST PUSH1 0x0 CALLER SWAP1 POP SWAP1 JUMP JUMPDEST PUSH1 0x0 PUSH1 0x17 PUSH1 0x0 PUSH1 0x18 PUSH1 0x0 DUP7 DUP2 MSTORE PUSH1 0x20 ADD SWAP1 DUP2 MSTORE PUSH1 0x20 ADD PUSH1 0x0 KECCAK256 SLOAD DUP2 MSTORE PUSH1 0x20 ADD SWAP1 DUP2 MSTORE PUSH1 0x20 ADD PUSH1 0x0 KECCAK256 SWAP1 POP PUSH1 0x0 DUP2 PUSH1 0x0 ADD SLOAD GT ISZERO PUSH2 0x2115 JUMPI PUSH1 0x11 SLOAD DUP2 PUSH1 0x2 ADD SLOAD GT ISZERO PUSH2 0x1F9F JUMPI PUSH1 0x11 SLOAD DUP2 PUSH1 0x2 ADD DUP2 SWAP1 SSTORE POP JUMPDEST PUSH1 0x0 DUP2 PUSH1 0x2 ADD SLOAD PUSH2 0x1FBF PUSH1 0x16 SLOAD DUP5 PUSH1 0x2 ADD SLOAD PUSH2 0x24F1 SWAP1 SWAP2 SWAP1 PUSH4 0xFFFFFFFF AND JUMP JUMPDEST ADD SWAP1 POP DUP1 SELFBALANCE LT ISZERO PUSH2 0x201B JUMPI PUSH1 0x40 MLOAD PUSH32 0x8C379A000000000000000000000000000000000000000000000000000000000 DUP2 MSTORE PUSH1 0x4 ADD DUP1 DUP1 PUSH1 0x20 ADD DUP3 DUP2 SUB DUP3 MSTORE PUSH1 0x33 DUP2 MSTORE PUSH1 0x20 ADD DUP1 PUSH2 0x2B7B PUSH1 0x33 SWAP2 CODECOPY PUSH1 0x40 ADD SWAP2 POP POP PUSH1 0x40 MLOAD DUP1 SWAP2 SUB SWAP1 REVERT JUMPDEST PUSH2 0x2043 PUSH2 0x2034 PUSH1 0x1 PUSH1 0x10 SLOAD PUSH2 0x216A SWAP1 SWAP2 SWAP1 PUSH4 0xFFFFFFFF AND JUMP JUMPDEST DUP5 PUSH2 0x2577 SWAP1 SWAP2 SWAP1 PUSH4 0xFFFFFFFF AND JUMP JUMPDEST DUP3 PUSH1 0x4 ADD DUP2 SWAP1 SSTORE POP PUSH1 0x1 DUP3 PUSH1 0x5 ADD PUSH1 0x0 PUSH2 0x100 EXP DUP2 SLOAD DUP2 PUSH1 0xFF MUL NOT AND SWAP1 DUP4 ISZERO ISZERO MUL OR SWAP1 SSTORE POP DUP2 PUSH1 0x2 ADD SLOAD PUSH1 0x13 SLOAD LT PUSH2 0x208E JUMPI DUP2 PUSH1 0x2 ADD SLOAD PUSH1 0x13 PUSH1 0x0 DUP3 DUP3 SLOAD SUB SWAP3 POP POP DUP2 SWAP1 SSTORE POP PUSH2 0x2097 JUMP JUMPDEST PUSH1 0x0 PUSH1 0x13 DUP2 SWAP1 SSTORE POP JUMPDEST DUP2 PUSH1 0x4 ADD SLOAD DUP3 PUSH1 0x3 ADD SLOAD EQ ISZERO PUSH2 0x2113 JUMPI DUP2 PUSH1 0x1 ADD PUSH1 0x0 SWAP1 SLOAD SWAP1 PUSH2 0x100 EXP SWAP1 DIV PUSH20 0xFFFFFFFFFFFFFFFFFFFFFFFFFFFFFFFFFFFFFFFF AND PUSH20 0xFFFFFFFFFFFFFFFFFFFFFFFFFFFFFFFFFFFFFFFF AND PUSH2 0x8FC DUP3 SWAP1 DUP2 ISZERO MUL SWAP1 PUSH1 0x40 MLOAD PUSH1 0x0 PUSH1 0x40 MLOAD DUP1 DUP4 SUB DUP2 DUP6 DUP9 DUP9 CALL SWAP4 POP POP POP POP ISZERO DUP1 ISZERO PUSH2 0x2111 JUMPI RETURNDATASIZE PUSH1 0x0 DUP1 RETURNDATACOPY RETURNDATASIZE PUSH1 0x0 REVERT JUMPDEST POP JUMPDEST POP JUMPDEST PUSH1 0x1 PUSH1 0x6 DUP2 SWAP1 SSTORE POP PUSH1 0x1 PUSH1 0x7 DUP2 SWAP1 SSTORE POP PUSH1 0x1 PUSH1 0x8 DUP2 SWAP1 SSTORE POP PUSH1 0x1 PUSH1 0x9 DUP2 SWAP1 SSTORE POP PUSH1 0x1 PUSH1 0xA DUP2 SWAP1 SSTORE POP PUSH1 0x1 PUSH1 0xB DUP2 SWAP1 SSTORE POP PUSH1 0x1 PUSH1 0xC DUP2 SWAP1 SSTORE POP PUSH1 0x1 PUSH1 0xD DUP2 SWAP1 SSTORE POP PUSH1 0x1 PUSH1 0xE DUP2 SWAP1 SSTORE POP PUSH1 0x1 PUSH1 0xF DUP2 SWAP1 SSTORE POP POP POP POP JUMP JUMPDEST PUSH1 0x0 DUP1 DUP3 DUP5 ADD SWAP1 POP DUP4 DUP2 LT ISZERO PUSH2 0x21E8 JUMPI PUSH1 0x40 MLOAD PUSH32 0x8C379A000000000000000000000000000000000000000000000000000000000 DUP2 MSTORE PUSH1 0x4 ADD DUP1 DUP1 PUSH1 0x20 ADD DUP3 DUP2 SUB DUP3 MSTORE PUSH1 0x1B DUP2 MSTORE PUSH1 0x20 ADD DUP1 PUSH32 0x536166654D6174683A206164646974696F6E206F766572666C6F770000000000 DUP2 MSTORE POP PUSH1 0x20 ADD SWAP2 POP POP PUSH1 0x40 MLOAD DUP1 SWAP2 SUB SWAP1 REVERT JUMPDEST DUP1 SWAP2 POP POP SWAP3 SWAP2 POP POP JUMP JUMPDEST PUSH2 0x2208 PUSH1 0x1 PUSH1 0x14 SLOAD PUSH2 0x216A SWAP1 SWAP2 SWAP1 PUSH4 0xFFFFFFFF AND JUMP JUMPDEST PUSH1 0x14 DUP2 SWAP1 SSTORE POP PUSH2 0x2216 PUSH2 0x2A2C JUMP JUMPDEST PUSH1 0x40 MLOAD DUP1 PUSH1 0xC0 ADD PUSH1 0x40 MSTORE DUP1 PUSH1 0x14 SLOAD DUP2 MSTORE PUSH1 0x20 ADD DUP6 PUSH20 0xFFFFFFFFFFFFFFFFFFFFFFFFFFFFFFFFFFFFFFFF AND DUP2 MSTORE PUSH1 0x20 ADD DUP5 DUP2 MSTORE PUSH1 0x20 ADD DUP4 DUP2 MSTORE PUSH1 0x20 ADD PUSH2 0x2267 PUSH1 0xA PUSH1 0x10 SLOAD PUSH2 0x216A SWAP1 SWAP2 SWAP1 PUSH4 0xFFFFFFFF AND JUMP JUMPDEST DUP2 MSTORE PUSH1 0x20 ADD PUSH1 0x0 ISZERO ISZERO DUP2 MSTORE POP SWAP1 POP DUP1 PUSH1 0x17 PUSH1 0x0 DUP4 PUSH1 0x0 ADD MLOAD DUP2 MSTORE PUSH1 0x20 ADD SWAP1 DUP2 MSTORE PUSH1 0x20 ADD PUSH1 0x0 KECCAK256 PUSH1 0x0 DUP3 ADD MLOAD DUP2 PUSH1 0x0 ADD SSTORE PUSH1 0x20 DUP3 ADD MLOAD DUP2 PUSH1 0x1 ADD PUSH1 0x0 PUSH2 0x100 EXP DUP2 SLOAD DUP2 PUSH20 0xFFFFFFFFFFFFFFFFFFFFFFFFFFFFFFFFFFFFFFFF MUL NOT AND SWAP1 DUP4 PUSH20 0xFFFFFFFFFFFFFFFFFFFFFFFFFFFFFFFFFFFFFFFF AND MUL OR SWAP1 SSTORE POP PUSH1 0x40 DUP3 ADD MLOAD DUP2 PUSH1 0x2 ADD SSTORE PUSH1 0x60 DUP3 ADD MLOAD DUP2 PUSH1 0x3 ADD SSTORE PUSH1 0x80 DUP3 ADD MLOAD DUP2 PUSH1 0x4 ADD SSTORE PUSH1 0xA0 DUP3 ADD MLOAD DUP2 PUSH1 0x5 ADD PUSH1 0x0 PUSH2 0x100 EXP DUP2 SLOAD DUP2 PUSH1 0xFF MUL NOT AND SWAP1 DUP4 ISZERO ISZERO MUL OR SWAP1 SSTORE POP SWAP1 POP POP POP POP POP POP JUMP JUMPDEST PUSH1 0x0 ISZERO ISZERO PUSH1 0x17 PUSH1 0x0 DUP4 DUP2 MSTORE PUSH1 0x20 ADD SWAP1 DUP2 MSTORE PUSH1 0x20 ADD PUSH1 0x0 KECCAK256 PUSH1 0x5 ADD PUSH1 0x0 SWAP1 SLOAD SWAP1 PUSH2 0x100 EXP SWAP1 DIV PUSH1 0xFF AND ISZERO ISZERO EQ PUSH2 0x23C2 JUMPI PUSH1 0x40 MLOAD PUSH32 0x8C379A000000000000000000000000000000000000000000000000000000000 DUP2 MSTORE PUSH1 0x4 ADD DUP1 DUP1 PUSH1 0x20 ADD DUP3 DUP2 SUB DUP3 MSTORE PUSH1 0x13 DUP2 MSTORE PUSH1 0x20 ADD DUP1 PUSH32 0x67616D6520616C726561647920706C6179656400000000000000000000000000 DUP2 MSTORE POP PUSH1 0x20 ADD SWAP2 POP POP PUSH1 0x40 MLOAD DUP1 SWAP2 SUB SWAP1 REVERT JUMPDEST PUSH1 0x0 PUSH2 0x3039 SWAP1 POP PUSH1 0x0 PUSH2 0x23D4 DUP3 PUSH2 0x2601 JUMP JUMPDEST SWAP1 POP DUP3 PUSH1 0x18 PUSH1 0x0 DUP4 DUP2 MSTORE PUSH1 0x20 ADD SWAP1 DUP2 MSTORE PUSH1 0x20 ADD PUSH1 0x0 KECCAK256 DUP2 SWAP1 SSTORE POP POP POP POP JUMP JUMPDEST PUSH1 0x0 DUP3 DUP3 GT ISZERO PUSH2 0x246B JUMPI PUSH1 0x40 MLOAD PUSH32 0x8C379A000000000000000000000000000000000000000000000000000000000 DUP2 MSTORE PUSH1 0x4 ADD DUP1 DUP1 PUSH1 0x20 ADD DUP3 DUP2 SUB DUP3 MSTORE PUSH1 0x1E DUP2 MSTORE PUSH1 0x20 ADD DUP1 PUSH32 0x536166654D6174683A207375627472616374696F6E206F766572666C6F770000 DUP2 MSTORE POP PUSH1 0x20 ADD SWAP2 POP POP PUSH1 0x40 MLOAD DUP1 SWAP2 SUB SWAP1 REVERT JUMPDEST PUSH1 0x0 DUP3 DUP5 SUB SWAP1 POP DUP1 SWAP2 POP POP SWAP3 SWAP2 POP POP JUMP JUMPDEST PUSH1 0x0 PUSH2 0x24A5 DUP3 PUSH2 0x2497 PUSH1 0x16 SLOAD DUP6 PUSH2 0x24F1 SWAP1 SWAP2 SWAP1 PUSH4 0xFFFFFFFF AND JUMP JUMPDEST PUSH2 0x216A SWAP1 SWAP2 SWAP1 PUSH4 0xFFFFFFFF AND JUMP JUMPDEST PUSH2 0x24BA PUSH1 0x13 SLOAD SELFBALANCE PUSH2 0x23F3 SWAP1 SWAP2 SWAP1 PUSH4 0xFFFFFFFF AND JUMP JUMPDEST LT ISZERO SWAP1 POP SWAP2 SWAP1 POP JUMP JUMPDEST PUSH1 0x0 PUSH1 0x12 SLOAD DUP3 LT ISZERO DUP1 ISZERO PUSH2 0x24D9 JUMPI POP PUSH1 0x11 SLOAD DUP3 GT ISZERO JUMPDEST ISZERO PUSH2 0x24E7 JUMPI PUSH1 0x1 SWAP1 POP PUSH2 0x24EC JUMP JUMPDEST PUSH1 0x0 SWAP1 POP JUMPDEST SWAP2 SWAP1 POP JUMP JUMPDEST PUSH1 0x0 DUP1 DUP4 EQ ISZERO PUSH2 0x2504 JUMPI PUSH1 0x0 SWAP1 POP PUSH2 0x2571 JUMP JUMPDEST PUSH1 0x0 DUP3 DUP5 MUL SWAP1 POP DUP3 DUP5 DUP3 DUP2 PUSH2 0x2515 JUMPI INVALID JUMPDEST DIV EQ PUSH2 0x256C JUMPI PUSH1 0x40 MLOAD PUSH32 0x8C379A000000000000000000000000000000000000000000000000000000000 DUP2 MSTORE PUSH1 0x4 ADD DUP1 DUP1 PUSH1 0x20 ADD DUP3 DUP2 SUB DUP3 MSTORE PUSH1 0x21 DUP2 MSTORE PUSH1 0x20 ADD DUP1 PUSH2 0x2AFF PUSH1 0x21 SWAP2 CODECOPY PUSH1 0x40 ADD SWAP2 POP POP PUSH1 0x40 MLOAD DUP1 SWAP2 SUB SWAP1 REVERT JUMPDEST DUP1 SWAP2 POP POP JUMPDEST SWAP3 SWAP2 POP POP JUMP JUMPDEST PUSH1 0x0 DUP1 DUP3 EQ ISZERO PUSH2 0x25EF JUMPI PUSH1 0x40 MLOAD PUSH32 0x8C379A000000000000000000000000000000000000000000000000000000000 DUP2 MSTORE PUSH1 0x4 ADD DUP1 DUP1 PUSH1 0x20 ADD DUP3 DUP2 SUB DUP3 MSTORE PUSH1 0x18 DUP2 MSTORE PUSH1 0x20 ADD DUP1 PUSH32 0x536166654D6174683A206D6F64756C6F206279207A65726F0000000000000000 DUP2 MSTORE POP PUSH1 0x20 ADD SWAP2 POP POP PUSH1 0x40 MLOAD DUP1 SWAP2 SUB SWAP1 REVERT JUMPDEST DUP2 DUP4 DUP2 PUSH2 0x25F8 JUMPI INVALID JUMPDEST MOD SWAP1 POP SWAP3 SWAP2 POP POP JUMP JUMPDEST PUSH1 0x0 PUSH1 0x5 SLOAD PUSH1 0x0 DUP1 SWAP1 SLOAD SWAP1 PUSH2 0x100 EXP SWAP1 DIV PUSH20 0xFFFFFFFFFFFFFFFFFFFFFFFFFFFFFFFFFFFFFFFF AND PUSH20 0xFFFFFFFFFFFFFFFFFFFFFFFFFFFFFFFFFFFFFFFF AND PUSH4 0x70A08231 ADDRESS PUSH1 0x40 MLOAD DUP3 PUSH4 0xFFFFFFFF AND PUSH1 0xE0 SHL DUP2 MSTORE PUSH1 0x4 ADD DUP1 DUP3 PUSH20 0xFFFFFFFFFFFFFFFFFFFFFFFFFFFFFFFFFFFFFFFF AND PUSH20 0xFFFFFFFFFFFFFFFFFFFFFFFFFFFFFFFFFFFFFFFF AND DUP2 MSTORE PUSH1 0x20 ADD SWAP2 POP POP PUSH1 0x20 PUSH1 0x40 MLOAD DUP1 DUP4 SUB DUP2 DUP7 DUP1 EXTCODESIZE ISZERO DUP1 ISZERO PUSH2 0x26A4 JUMPI PUSH1 0x0 DUP1 REVERT JUMPDEST POP GAS STATICCALL ISZERO DUP1 ISZERO PUSH2 0x26B8 JUMPI RETURNDATASIZE PUSH1 0x0 DUP1 RETURNDATACOPY RETURNDATASIZE PUSH1 0x0 REVERT JUMPDEST POP POP POP POP PUSH1 0x40 MLOAD RETURNDATASIZE PUSH1 0x20 DUP2 LT ISZERO PUSH2 0x26CE JUMPI PUSH1 0x0 DUP1 REVERT JUMPDEST DUP2 ADD SWAP1 DUP1 DUP1 MLOAD SWAP1 PUSH1 0x20 ADD SWAP1 SWAP3 SWAP2 SWAP1 POP POP POP GT PUSH2 0x2752 JUMPI PUSH1 0x40 MLOAD PUSH32 0x8C379A000000000000000000000000000000000000000000000000000000000 DUP2 MSTORE PUSH1 0x4 ADD DUP1 DUP1 PUSH1 0x20 ADD DUP3 DUP2 SUB DUP3 MSTORE PUSH1 0xF DUP2 MSTORE PUSH1 0x20 ADD DUP1 PUSH32 0x4E6F7420656E6F756768204C494E4B0000000000000000000000000000000000 DUP2 MSTORE POP PUSH1 0x20 ADD SWAP2 POP POP PUSH1 0x40 MLOAD DUP1 SWAP2 SUB SWAP1 REVERT JUMPDEST PUSH2 0x2761 PUSH1 0x4 SLOAD PUSH1 0x5 SLOAD DUP5 PUSH2 0x2768 JUMP JUMPDEST SWAP1 POP SWAP2 SWAP1 POP JUMP JUMPDEST PUSH1 0x0 DUP1 PUSH1 0x0 SWAP1 SLOAD SWAP1 PUSH2 0x100 EXP SWAP1 DIV PUSH20 0xFFFFFFFFFFFFFFFFFFFFFFFFFFFFFFFFFFFFFFFF AND PUSH20 0xFFFFFFFFFFFFFFFFFFFFFFFFFFFFFFFFFFFFFFFF AND PUSH4 0x4000AEA0 PUSH1 0x1 PUSH1 0x0 SWAP1 SLOAD SWAP1 PUSH2 0x100 EXP SWAP1 DIV PUSH20 0xFFFFFFFFFFFFFFFFFFFFFFFFFFFFFFFFFFFFFFFF AND DUP6 DUP8 DUP7 PUSH1 0x40 MLOAD PUSH1 0x20 ADD DUP1 DUP4 DUP2 MSTORE PUSH1 0x20 ADD DUP3 DUP2 MSTORE PUSH1 0x20 ADD SWAP3 POP POP POP PUSH1 0x40 MLOAD PUSH1 0x20 DUP2 DUP4 SUB SUB DUP2 MSTORE SWAP1 PUSH1 0x40 MSTORE PUSH1 0x40 MLOAD DUP5 PUSH4 0xFFFFFFFF AND PUSH1 0xE0 SHL DUP2 MSTORE PUSH1 0x4 ADD DUP1 DUP5 PUSH20 0xFFFFFFFFFFFFFFFFFFFFFFFFFFFFFFFFFFFFFFFF AND PUSH20 0xFFFFFFFFFFFFFFFFFFFFFFFFFFFFFFFFFFFFFFFF AND DUP2 MSTORE PUSH1 0x20 ADD DUP4 DUP2 MSTORE PUSH1 0x20 ADD DUP1 PUSH1 0x20 ADD DUP3 DUP2 SUB DUP3 MSTORE DUP4 DUP2 DUP2 MLOAD DUP2 MSTORE PUSH1 0x20 ADD SWAP2 POP DUP1 MLOAD SWAP1 PUSH1 0x20 ADD SWAP1 DUP1 DUP4 DUP4 PUSH1 0x0 JUMPDEST DUP4 DUP2 LT ISZERO PUSH2 0x287A JUMPI DUP1 DUP3 ADD MLOAD DUP2 DUP5 ADD MSTORE PUSH1 0x20 DUP2 ADD SWAP1 POP PUSH2 0x285F JUMP JUMPDEST POP POP POP POP SWAP1 POP SWAP1 DUP2 ADD SWAP1 PUSH1 0x1F AND DUP1 ISZERO PUSH2 0x28A7 JUMPI DUP1 DUP3 SUB DUP1 MLOAD PUSH1 0x1 DUP4 PUSH1 0x20 SUB PUSH2 0x100 EXP SUB NOT AND DUP2 MSTORE PUSH1 0x20 ADD SWAP2 POP JUMPDEST POP SWAP5 POP POP POP POP POP PUSH1 0x20 PUSH1 0x40 MLOAD DUP1 DUP4 SUB DUP2 PUSH1 0x0 DUP8 DUP1 EXTCODESIZE ISZERO DUP1 ISZERO PUSH2 0x28C8 JUMPI PUSH1 0x0 DUP1 REVERT JUMPDEST POP GAS CALL ISZERO DUP1 ISZERO PUSH2 0x28DC JUMPI RETURNDATASIZE PUSH1 0x0 DUP1 RETURNDATACOPY RETURNDATASIZE PUSH1 0x0 REVERT JUMPDEST POP POP POP POP PUSH1 0x40 MLOAD RETURNDATASIZE PUSH1 0x20 DUP2 LT ISZERO PUSH2 0x28F2 JUMPI PUSH1 0x0 DUP1 REVERT JUMPDEST DUP2 ADD SWAP1 DUP1 DUP1 MLOAD SWAP1 PUSH1 0x20 ADD SWAP1 SWAP3 SWAP2 SWAP1 POP POP POP POP PUSH1 0x0 PUSH2 0x2925 DUP6 DUP5 ADDRESS PUSH1 0x2 PUSH1 0x0 DUP11 DUP2 MSTORE PUSH1 0x20 ADD SWAP1 DUP2 MSTORE PUSH1 0x20 ADD PUSH1 0x0 KECCAK256 SLOAD PUSH2 0x2979 JUMP JUMPDEST SWAP1 POP PUSH2 0x294E PUSH1 0x1 PUSH1 0x2 PUSH1 0x0 DUP9 DUP2 MSTORE PUSH1 0x20 ADD SWAP1 DUP2 MSTORE PUSH1 0x20 ADD PUSH1 0x0 KECCAK256 SLOAD PUSH2 0x216A SWAP1 SWAP2 SWAP1 PUSH4 0xFFFFFFFF AND JUMP JUMPDEST PUSH1 0x2 PUSH1 0x0 DUP8 DUP2 MSTORE PUSH1 0x20 ADD SWAP1 DUP2 MSTORE PUSH1 0x20 ADD PUSH1 0x0 KECCAK256 DUP2 SWAP1 SSTORE POP PUSH2 0x296F DUP6 DUP3 PUSH2 0x29F3 JUMP JUMPDEST SWAP2 POP POP SWAP4 SWAP3 POP POP POP JUMP JUMPDEST PUSH1 0x0 DUP5 DUP5 DUP5 DUP5 PUSH1 0x40 MLOAD PUSH1 0x20 ADD DUP1 DUP6 DUP2 MSTORE PUSH1 0x20 ADD DUP5 DUP2 MSTORE PUSH1 0x20 ADD DUP4 PUSH20 0xFFFFFFFFFFFFFFFFFFFFFFFFFFFFFFFFFFFFFFFF AND PUSH20 0xFFFFFFFFFFFFFFFFFFFFFFFFFFFFFFFFFFFFFFFF AND DUP2 MSTORE PUSH1 0x20 ADD DUP3 DUP2 MSTORE PUSH1 0x20 ADD SWAP5 POP POP POP POP POP PUSH1 0x40 MLOAD PUSH1 0x20 DUP2 DUP4 SUB SUB DUP2 MSTORE SWAP1 PUSH1 0x40 MSTORE DUP1 MLOAD SWAP1 PUSH1 0x20 ADD KECCAK256 PUSH1 0x0 SHR SWAP1 POP SWAP5 SWAP4 POP POP POP POP JUMP JUMPDEST PUSH1 0x0 DUP3 DUP3 PUSH1 0x40 MLOAD PUSH1 0x20 ADD DUP1 DUP4 DUP2 MSTORE PUSH1 0x20 ADD DUP3 DUP2 MSTORE PUSH1 0x20 ADD SWAP3 POP POP POP PUSH1 0x40 MLOAD PUSH1 0x20 DUP2 DUP4 SUB SUB DUP2 MSTORE SWAP1 PUSH1 0x40 MSTORE DUP1 MLOAD SWAP1 PUSH1 0x20 ADD KECCAK256 SWAP1 POP SWAP3 SWAP2 POP POP JUMP JUMPDEST PUSH1 0x40 MLOAD DUP1 PUSH1 0xC0 ADD PUSH1 0x40 MSTORE DUP1 PUSH1 0x0 DUP2 MSTORE PUSH1 0x20 ADD PUSH1 0x0 PUSH20 0xFFFFFFFFFFFFFFFFFFFFFFFFFFFFFFFFFFFFFFFF AND DUP2 MSTORE PUSH1 0x20 ADD PUSH1 0x0 DUP2 MSTORE PUSH1 0x20 ADD PUSH1 0x0 DUP2 MSTORE PUSH1 0x20 ADD PUSH1 0x0 DUP2 MSTORE PUSH1 0x20 ADD PUSH1 0x0 ISZERO ISZERO DUP2 MSTORE POP SWAP1 JUMP INVALID POP PUSH10 0x636B20697320746F6F20 PUSH9 0x6967682E2043686F6F PUSH20 0x652061206C6F776572206E756D6265722E4F776E PUSH2 0x626C PUSH6 0x3A206E657720 PUSH16 0x776E657220697320746865207A65726F KECCAK256 PUSH2 0x6464 PUSH19 0x657373436F6E74726163742068617320696E73 PUSH22 0x66666963696E742066756E647320746F207061796F75 PUSH21 0x20706F737369626C652077696E2E536166654D6174 PUSH9 0x3A206D756C7469706C PUSH10 0x636174696F6E206F7665 PUSH19 0x666C6F77436F6E74726163742062616C616E63 PUSH6 0x20746F6F206C PUSH16 0x772E20506C6561736520747279206167 PUSH2 0x696E KECCAK256 PUSH13 0x617465722E47616D6520616C72 PUSH6 0x61647920636F PUSH14 0x706C6574652E204E6F2072656675 PUSH15 0x6420706F737369626C652E556E6162 PUSH13 0x6520746F207061792E20506C65 PUSH2 0x7365 KECCAK256 PUSH17 0x6C617920616761696E206F722072657175 PUSH6 0x737420726566 PUSH22 0x6E642EA26469706673582212207633E8E219D8EE2743 JUMP 0xC6 0xAC DUP11 0xE8 KECCAK256 DUP10 PUSH1 0xDE PUSH16 0xCDD5F2C158636F50F29705727F64736F PUSH13 0x63430006000033000000000000 "},"gasEstimates":{"creation":{"codeDepositCost":"2247000","executionCost":"infinite","totalCost":"infinite"},"external":{"_gameRequests(bytes32)":"1274","closeMachine()":"infinite","games(uint256)":"5457","getLinkBalance()":"infinite","getSeed()":"325","getSummary()":"3649","maxBet()":"1051","maxPick()":"1073","minBet()":"1072","nonces(bytes32)":"1274","owner()":"1084","payout()":"1050","payoutAddress()":"1143","placeBetFor(address,uint256)":"infinite","rawFulfillRandomness(bytes32,uint256)":"infinite","renounceOwnership()":"24364","replayGame(uint256)":"infinite","requestRefund(uint256)":"infinite","safeBetFor(address,uint256)":"infinite","setKeyHash(bytes32)":"21236","setLINK(address)":"22139","setPayoutAddress(address)":"22096","setVRFCoordinator(address)":"22052","transferOwnership(address)":"infinite","withdrawEth(uint256)":"infinite","withdrawLink(uint256)":"infinite"},"internal":{"betInRange(uint256)":"1702","betPayable(uint256)":"infinite","createGame(address payable,uint256,uint256)":"infinite","fulfillRandomness(bytes32,uint256)":"infinite","getRandomNumber(uint256)":"infinite","playGame(uint256)":"infinite"}},"methodIdentifiers":{"_gameRequests(bytes32)":"82e39ac5","closeMachine()":"b93030b3","games(uint256)":"117a5b90","getLinkBalance()":"50c5f975","getSeed()":"39e7357c","getSummary()":"4051ddac","maxBet()":"2e5b2168","maxPick()":"2ee42d8a","minBet()":"9619367d","nonces(bytes32)":"9e317f12","owner()":"8da5cb5b","payout()":"63bd1d4a","payoutAddress()":"5b8d02d7","placeBetFor(address,uint256)":"ac150fd8","rawFulfillRandomness(bytes32,uint256)":"94985ddd","renounceOwnership()":"715018a6","replayGame(uint256)":"f31a4dcd","requestRefund(uint256)":"a4b2409e","safeBetFor(address,uint256)":"d9e721f8","setKeyHash(bytes32)":"98544710","setLINK(address)":"a02e0616","setPayoutAddress(address)":"33ea51a8","setVRFCoordinator(address)":"44ff81ce","transferOwnership(address)":"f2fde38b","withdrawEth(uint256)":"c311d049","withdrawLink(uint256)":"7a8042bd"}},"storageLayout":{"storage":[{"astId":460,"contract":"AllContracts.sol:LuckyMachine","label":"LINK","offset":0,"slot":"0","type":"t_contract(LinkTokenInterface)392"},{"astId":462,"contract":"AllContracts.sol:LuckyMachine","label":"vrfCoordinator","offset":0,"slot":"1","type":"t_address"},{"astId":466,"contract":"AllContracts.sol:LuckyMachine","label":"nonces","offset":0,"slot":"2","type":"t_mapping(t_bytes32,t_uint256)"},{"astId":26,"contract":"AllContracts.sol:LuckyMachine","label":"_owner","offset":0,"slot":"3","type":"t_address"},{"astId":515,"contract":"AllContracts.sol:LuckyMachine","label":"keyHash","offset":0,"slot":"4","type":"t_bytes32"},{"astId":517,"contract":"AllContracts.sol:LuckyMachine","label":"fee","offset":0,"slot":"5","type":"t_uint256"},{"astId":532,"contract":"AllContracts.sol:LuckyMachine","label":"gas1","offset":0,"slot":"6","type":"t_uint256"},{"astId":534,"contract":"AllContracts.sol:LuckyMachine","label":"gas2","offset":0,"slot":"7","type":"t_uint256"},{"astId":536,"contract":"AllContracts.sol:LuckyMachine","label":"gas3","offset":0,"slot":"8","type":"t_uint256"},{"astId":538,"contract":"AllContracts.sol:LuckyMachine","label":"gas4","offset":0,"slot":"9","type":"t_uint256"},{"astId":540,"contract":"AllContracts.sol:LuckyMachine","label":"gas5","offset":0,"slot":"10","type":"t_uint256"},{"astId":542,"contract":"AllContracts.sol:LuckyMachine","label":"gas6","offset":0,"slot":"11","type":"t_uint256"},{"astId":544,"contract":"AllContracts.sol:LuckyMachine","label":"gas7","offset":0,"slot":"12","type":"t_uint256"},{"astId":546,"contract":"AllContracts.sol:LuckyMachine","label":"gas8","offset":0,"slot":"13","type":"t_uint256"},{"astId":548,"contract":"AllContracts.sol:LuckyMachine","label":"gas9","offset":0,"slot":"14","type":"t_uint256"},{"astId":550,"contract":"AllContracts.sol:LuckyMachine","label":"gas10","offset":0,"slot":"15","type":"t_uint256"},{"astId":552,"contract":"AllContracts.sol:LuckyMachine","label":"maxPick","offset":0,"slot":"16","type":"t_uint256"},{"astId":554,"contract":"AllContracts.sol:LuckyMachine","label":"maxBet","offset":0,"slot":"17","type":"t_uint256"},{"astId":556,"contract":"AllContracts.sol:LuckyMachine","label":"minBet","offset":0,"slot":"18","type":"t_uint256"},{"astId":558,"contract":"AllContracts.sol:LuckyMachine","label":"_unplayedBets","offset":0,"slot":"19","type":"t_uint256"},{"astId":560,"contract":"AllContracts.sol:LuckyMachine","label":"_currentGame","offset":0,"slot":"20","type":"t_uint256"},{"astId":562,"contract":"AllContracts.sol:LuckyMachine","label":"payoutAddress","offset":0,"slot":"21","type":"t_address_payable"},{"astId":564,"contract":"AllContracts.sol:LuckyMachine","label":"payout","offset":0,"slot":"22","type":"t_uint256"},{"astId":568,"contract":"AllContracts.sol:LuckyMachine","label":"games","offset":0,"slot":"23","type":"t_mapping(t_uint256,t_struct(Game)530_storage)"},{"astId":572,"contract":"AllContracts.sol:LuckyMachine","label":"_gameRequests","offset":0,"slot":"24","type":"t_mapping(t_bytes32,t_uint256)"}],"types":{"t_address":{"encoding":"inplace","label":"address","numberOfBytes":"20"},"t_address_payable":{"encoding":"inplace","label":"address payable","numberOfBytes":"20"},"t_bool":{"encoding":"inplace","label":"bool","numberOfBytes":"1"},"t_bytes32":{"encoding":"inplace","label":"bytes32","numberOfBytes":"32"},"t_contract(LinkTokenInterface)392":{"encoding":"inplace","label":"contract LinkTokenInterface","numberOfBytes":"20"},"t_mapping(t_bytes32,t_uint256)":{"encoding":"mapping","key":"t_bytes32","label":"mapping(bytes32 => uint256)","numberOfBytes":"32","value":"t_uint256"},"t_mapping(t_uint256,t_struct(Game)530_storage)":{"encoding":"mapping","key":"t_uint256","label":"mapping(uint256 => struct LuckyMachine.Game)","numberOfBytes":"32","value":"t_struct(Game)530_storage"},"t_struct(Game)530_storage":{"encoding":"inplace","label":"struct LuckyMachine.Game","members":[{"astId":519,"contract":"AllContracts.sol:LuckyMachine","label":"id","offset":0,"slot":"0","type":"t_uint256"},{"astId":521,"contract":"AllContracts.sol:LuckyMachine","label":"player","offset":0,"slot":"1","type":"t_address_payable"},{"astId":523,"contract":"AllContracts.sol:LuckyMachine","label":"bet","offset":0,"slot":"2","type":"t_uint256"},{"astId":525,"contract":"AllContracts.sol:LuckyMachine","label":"pick","offset":0,"slot":"3","type":"t_uint256"},{"astId":527,"contract":"AllContracts.sol:LuckyMachine","label":"winner","offset":0,"slot":"4","type":"t_uint256"},{"astId":529,"contract":"AllContracts.sol:LuckyMachine","label":"played","offset":0,"slot":"5","type":"t_bool"}],"numberOfBytes":"192"},"t_uint256":{"encoding":"inplace","label":"uint256","numberOfBytes":"32"}}},"userdoc":{"methods":{}}}