{
  "contractName": "LuckyMachineCoordinator",
  "abi": [
    {
      "inputs": [
        {
          "internalType": "address",
          "name": "_coordinator",
          "type": "address"
        },
        {
          "internalType": "address",
          "name": "_linkToken",
          "type": "address"
        },
        {
          "internalType": "bytes32",
          "name": "_keyHash",
          "type": "bytes32"
        },
        {
          "internalType": "uint256",
          "name": "_fee",
          "type": "uint256"
        }
      ],
      "stateMutability": "nonpayable",
      "type": "constructor"
    },
    {
      "anonymous": false,
      "inputs": [
        {
          "indexed": true,
          "internalType": "address",
          "name": "previousOwner",
          "type": "address"
        },
        {
          "indexed": true,
          "internalType": "address",
          "name": "newOwner",
          "type": "address"
        }
      ],
      "name": "OwnershipTransferred",
      "type": "event"
    },
    {
      "inputs": [],
      "name": "maxRandomNumbers",
      "outputs": [
        {
          "internalType": "uint8",
          "name": "",
          "type": "uint8"
        }
      ],
      "stateMutability": "view",
      "type": "function"
    },
    {
      "inputs": [],
      "name": "owner",
      "outputs": [
        {
          "internalType": "address",
          "name": "",
          "type": "address"
        }
      ],
      "stateMutability": "view",
      "type": "function"
    },
    {
      "inputs": [
        {
          "internalType": "bytes32",
          "name": "requestId",
          "type": "bytes32"
        },
        {
          "internalType": "uint256",
          "name": "randomness",
          "type": "uint256"
        }
      ],
      "name": "rawFulfillRandomness",
      "outputs": [],
      "stateMutability": "nonpayable",
      "type": "function"
    },
    {
      "inputs": [],
      "name": "renounceOwnership",
      "outputs": [],
      "stateMutability": "nonpayable",
      "type": "function"
    },
    {
      "inputs": [
        {
          "internalType": "address",
          "name": "newOwner",
          "type": "address"
        }
      ],
      "name": "transferOwnership",
      "outputs": [],
      "stateMutability": "nonpayable",
      "type": "function"
    },
    {
      "stateMutability": "payable",
      "type": "receive"
    },
    {
      "inputs": [
        {
          "internalType": "bytes32",
          "name": "_keyHash",
          "type": "bytes32"
        }
      ],
      "name": "setKeyHash",
      "outputs": [],
      "stateMutability": "nonpayable",
      "type": "function"
    },
    {
      "inputs": [
        {
          "internalType": "uint256",
          "name": "_fee",
          "type": "uint256"
        }
      ],
      "name": "setFee",
      "outputs": [],
      "stateMutability": "nonpayable",
      "type": "function"
    },
    {
      "inputs": [
        {
          "internalType": "uint8",
          "name": "quantity",
          "type": "uint8"
        }
      ],
      "name": "getRandomNumbers",
      "outputs": [
        {
          "internalType": "bytes32",
          "name": "requestID",
          "type": "bytes32"
        }
      ],
      "stateMutability": "nonpayable",
      "type": "function"
    },
    {
      "inputs": [
        {
          "internalType": "uint256",
          "name": "number",
          "type": "uint256"
        },
        {
          "internalType": "uint256",
          "name": "n",
          "type": "uint256"
        }
      ],
      "name": "lastN",
      "outputs": [
        {
          "internalType": "uint256",
          "name": "",
          "type": "uint256"
        }
      ],
      "stateMutability": "pure",
      "type": "function"
    },
    {
      "inputs": [
        {
          "internalType": "uint8",
          "name": "quantity",
          "type": "uint8"
        }
      ],
      "name": "setMaxRandomQuantity",
      "outputs": [],
      "stateMutability": "nonpayable",
      "type": "function"
    },
    {
      "inputs": [],
      "name": "getLinkBalance",
      "outputs": [
        {
          "internalType": "uint256",
          "name": "",
          "type": "uint256"
        }
      ],
      "stateMutability": "view",
      "type": "function"
    },
    {
      "inputs": [],
      "name": "withdrawLink",
      "outputs": [],
      "stateMutability": "nonpayable",
      "type": "function"
    }
  ],
  "bytecode": "0x60c060405234801561001057600080fd5b50604051611b4e380380611b4e8339818101604052608081101561003357600080fd5b810190808051906020019092919080519060200190929190805190602001909291908051906020019092919050505083838173ffffffffffffffffffffffffffffffffffffffff1660a08173ffffffffffffffffffffffffffffffffffffffff1660601b815250508073ffffffffffffffffffffffffffffffffffffffff1660808173ffffffffffffffffffffffffffffffffffffffff1660601b81525050505060006100e46101b660201b60201c565b905080600160006101000a81548173ffffffffffffffffffffffffffffffffffffffff021916908373ffffffffffffffffffffffffffffffffffffffff1602179055508073ffffffffffffffffffffffffffffffffffffffff16600073ffffffffffffffffffffffffffffffffffffffff167f8be0079c531659141344cd1fd0a4f28419497f9722a3daafe3b4186f6b6457e060405160405180910390a3508160028190555080600381905550604e600660006101000a81548160ff021916908360ff160217905550505050506101be565b600033905090565b60805160601c60a05160601c61193f61020f60003980610ecb528061128652508061041552806104e2528061061c52806106e452806108925280610d3b5280610d78528061124a525061193f6000f3fe6080604052600436106100ab5760003560e01c8063715018a611610064578063715018a6146102345780638da5cb5b1461024b5780638dc654a21461028c57806394985ddd146102a357806398544710146102e8578063f2fde38b14610323576100b2565b806339418765146100b75780634bdef5281461010957806350c5f9751461016257806354ffb1191461018d578063620c5b42146101cb57806369fe0e2d146101f9576100b2565b366100b257005b600080fd5b3480156100c357600080fd5b506100f3600480360360208110156100da57600080fd5b81019080803560ff169060200190929190505050610374565b6040518082815260200191505060405180910390f35b34801561011557600080fd5b5061014c6004803603604081101561012c57600080fd5b810190808035906020019092919080359060200190929190505050610877565b6040518082815260200191505060405180910390f35b34801561016e57600080fd5b5061017761088e565b6040518082815260200191505060405180910390f35b34801561019957600080fd5b506101c9600480360360208110156101b057600080fd5b81019080803560ff169060200190929190505050610957565b005b3480156101d757600080fd5b506101e0610a24565b604051808260ff16815260200191505060405180910390f35b34801561020557600080fd5b506102326004803603602081101561021c57600080fd5b8101908080359060200190929190505050610a37565b005b34801561024057600080fd5b50610249610af0565b005b34801561025757600080fd5b50610260610c60565b604051808273ffffffffffffffffffffffffffffffffffffffff16815260200191505060405180910390f35b34801561029857600080fd5b506102a1610c8a565b005b3480156102af57600080fd5b506102e6600480360360408110156102c657600080fd5b810190808035906020019092919080359060200190929190505050610ec9565b005b3480156102f457600080fd5b506103216004803603602081101561030b57600080fd5b8101908080359060200190929190505050610f98565b005b34801561032f57600080fd5b506103726004803603602081101561034657600080fd5b81019080803573ffffffffffffffffffffffffffffffffffffffff169060200190929190505050611051565b005b6000600660009054906101000a900460ff1660ff168260ff161115801561039e575060008260ff16115b610410576040517f08c379a000000000000000000000000000000000000000000000000000000000815260040180806020018281038252601a8152602001807f7175616e74697479206f757473696465206f6620626f756e647300000000000081525060200191505060405180910390fd5b6003547f000000000000000000000000000000000000000000000000000000000000000073ffffffffffffffffffffffffffffffffffffffff166370a08231306040518263ffffffff1660e01b8152600401808273ffffffffffffffffffffffffffffffffffffffff16815260200191505060206040518083038186803b15801561049a57600080fd5b505afa1580156104ae573d6000803e3d6000fd5b505050506040513d60208110156104c457600080fd5b81019080805190602001909291905050501015806105a557506003547f000000000000000000000000000000000000000000000000000000000000000073ffffffffffffffffffffffffffffffffffffffff166370a08231336040518263ffffffff1660e01b8152600401808273ffffffffffffffffffffffffffffffffffffffff16815260200191505060206040518083038186803b15801561056757600080fd5b505afa15801561057b573d6000803e3d6000fd5b505050506040513d602081101561059157600080fd5b810190808051906020019092919050505010155b610617576040517f08c379a000000000000000000000000000000000000000000000000000000000815260040180806020018281038252600f8152602001807f4e6f7420656e6f756768204c494e4b000000000000000000000000000000000081525060200191505060405180910390fd5b6003547f000000000000000000000000000000000000000000000000000000000000000073ffffffffffffffffffffffffffffffffffffffff166370a08231306040518263ffffffff1660e01b8152600401808273ffffffffffffffffffffffffffffffffffffffff16815260200191505060206040518083038186803b1580156106a157600080fd5b505afa1580156106b5573d6000803e3d6000fd5b505050506040513d60208110156106cb57600080fd5b810190808051906020019092919050505010156107d0577f000000000000000000000000000000000000000000000000000000000000000073ffffffffffffffffffffffffffffffffffffffff166323b872dd33306003546040518463ffffffff1660e01b8152600401808473ffffffffffffffffffffffffffffffffffffffff1681526020018373ffffffffffffffffffffffffffffffffffffffff1681526020018281526020019350505050602060405180830381600087803b15801561079357600080fd5b505af11580156107a7573d6000803e3d6000fd5b505050506040513d60208110156107bd57600080fd5b8101908080519060200190929190505050505b6000600143034060001c905060006107ed60025460035484611246565b9050336004600083815260200190815260200160002060006101000a81548173ffffffffffffffffffffffffffffffffffffffff021916908373ffffffffffffffffffffffffffffffffffffffff160217905550836005600083815260200190815260200160002060006101000a81548160ff021916908360ff1602179055508092505050919050565b600081600a0a838161088557fe5b06905092915050565b60007f000000000000000000000000000000000000000000000000000000000000000073ffffffffffffffffffffffffffffffffffffffff166370a08231306040518263ffffffff1660e01b8152600401808273ffffffffffffffffffffffffffffffffffffffff16815260200191505060206040518083038186803b15801561091757600080fd5b505afa15801561092b573d6000803e3d6000fd5b505050506040513d602081101561094157600080fd5b8101908080519060200190929190505050905090565b61095f61143b565b73ffffffffffffffffffffffffffffffffffffffff1661097d610c60565b73ffffffffffffffffffffffffffffffffffffffff1614610a06576040517f08c379a00000000000000000000000000000000000000000000000000000000081526004018080602001828103825260208152602001807f4f776e61626c653a2063616c6c6572206973206e6f7420746865206f776e657281525060200191505060405180910390fd5b80600660006101000a81548160ff021916908360ff16021790555050565b600660009054906101000a900460ff1681565b610a3f61143b565b73ffffffffffffffffffffffffffffffffffffffff16610a5d610c60565b73ffffffffffffffffffffffffffffffffffffffff1614610ae6576040517f08c379a00000000000000000000000000000000000000000000000000000000081526004018080602001828103825260208152602001807f4f776e61626c653a2063616c6c6572206973206e6f7420746865206f776e657281525060200191505060405180910390fd5b8060038190555050565b610af861143b565b73ffffffffffffffffffffffffffffffffffffffff16610b16610c60565b73ffffffffffffffffffffffffffffffffffffffff1614610b9f576040517f08c379a00000000000000000000000000000000000000000000000000000000081526004018080602001828103825260208152602001807f4f776e61626c653a2063616c6c6572206973206e6f7420746865206f776e657281525060200191505060405180910390fd5b600073ffffffffffffffffffffffffffffffffffffffff16600160009054906101000a900473ffffffffffffffffffffffffffffffffffffffff1673ffffffffffffffffffffffffffffffffffffffff167f8be0079c531659141344cd1fd0a4f28419497f9722a3daafe3b4186f6b6457e060405160405180910390a36000600160006101000a81548173ffffffffffffffffffffffffffffffffffffffff021916908373ffffffffffffffffffffffffffffffffffffffff160217905550565b6000600160009054906101000a900473ffffffffffffffffffffffffffffffffffffffff16905090565b610c9261143b565b73ffffffffffffffffffffffffffffffffffffffff16610cb0610c60565b73ffffffffffffffffffffffffffffffffffffffff1614610d39576040517f08c379a00000000000000000000000000000000000000000000000000000000081526004018080602001828103825260208152602001807f4f776e61626c653a2063616c6c6572206973206e6f7420746865206f776e657281525060200191505060405180910390fd5b7f000000000000000000000000000000000000000000000000000000000000000073ffffffffffffffffffffffffffffffffffffffff1663a9059cbb337f000000000000000000000000000000000000000000000000000000000000000073ffffffffffffffffffffffffffffffffffffffff166370a08231306040518263ffffffff1660e01b8152600401808273ffffffffffffffffffffffffffffffffffffffff16815260200191505060206040518083038186803b158015610dfd57600080fd5b505afa158015610e11573d6000803e3d6000fd5b505050506040513d6020811015610e2757600080fd5b81019080805190602001909291905050506040518363ffffffff1660e01b8152600401808373ffffffffffffffffffffffffffffffffffffffff16815260200182815260200192505050602060405180830381600087803b158015610e8b57600080fd5b505af1158015610e9f573d6000803e3d6000fd5b505050506040513d6020811015610eb557600080fd5b810190808051906020019092919050505050565b7f000000000000000000000000000000000000000000000000000000000000000073ffffffffffffffffffffffffffffffffffffffff163373ffffffffffffffffffffffffffffffffffffffff1614610f8a576040517f08c379a000000000000000000000000000000000000000000000000000000000815260040180806020018281038252601f8152602001807f4f6e6c7920565246436f6f7264696e61746f722063616e2066756c66696c6c0081525060200191505060405180910390fd5b610f948282611443565b5050565b610fa061143b565b73ffffffffffffffffffffffffffffffffffffffff16610fbe610c60565b73ffffffffffffffffffffffffffffffffffffffff1614611047576040517f08c379a00000000000000000000000000000000000000000000000000000000081526004018080602001828103825260208152602001807f4f776e61626c653a2063616c6c6572206973206e6f7420746865206f776e657281525060200191505060405180910390fd5b8060028190555050565b61105961143b565b73ffffffffffffffffffffffffffffffffffffffff16611077610c60565b73ffffffffffffffffffffffffffffffffffffffff1614611100576040517f08c379a00000000000000000000000000000000000000000000000000000000081526004018080602001828103825260208152602001807f4f776e61626c653a2063616c6c6572206973206e6f7420746865206f776e657281525060200191505060405180910390fd5b600073ffffffffffffffffffffffffffffffffffffffff168173ffffffffffffffffffffffffffffffffffffffff161415611186576040517f08c379a00000000000000000000000000000000000000000000000000000000081526004018080602001828103825260268152602001806118e46026913960400191505060405180910390fd5b8073ffffffffffffffffffffffffffffffffffffffff16600160009054906101000a900473ffffffffffffffffffffffffffffffffffffffff1673ffffffffffffffffffffffffffffffffffffffff167f8be0079c531659141344cd1fd0a4f28419497f9722a3daafe3b4186f6b6457e060405160405180910390a380600160006101000a81548173ffffffffffffffffffffffffffffffffffffffff021916908373ffffffffffffffffffffffffffffffffffffffff16021790555050565b60007f000000000000000000000000000000000000000000000000000000000000000073ffffffffffffffffffffffffffffffffffffffff16634000aea07f000000000000000000000000000000000000000000000000000000000000000085878660405160200180838152602001828152602001925050506040516020818303038152906040526040518463ffffffff1660e01b8152600401808473ffffffffffffffffffffffffffffffffffffffff16815260200183815260200180602001828103825283818151815260200191508051906020019080838360005b8381101561133f578082015181840152602081019050611324565b50505050905090810190601f16801561136c5780820380516001836020036101000a031916815260200191505b50945050505050602060405180830381600087803b15801561138d57600080fd5b505af11580156113a1573d6000803e3d6000fd5b505050506040513d60208110156113b757600080fd5b81019080805190602001909291905050505060006113e98584306000808a8152602001908152602001600020546116b0565b905061141160016000808881526020019081526020016000205461171490919063ffffffff16565b60008087815260200190815260200160002081905550611431858261179c565b9150509392505050565b600033905090565b60006004600084815260200190815260200160002060009054906101000a900473ffffffffffffffffffffffffffffffffffffffff16905060016005600085815260200190815260200160002060009054906101000a900460ff1660ff16111561158f5760606114d3836005600087815260200190815260200160002060009054906101000a900460ff166117d5565b90508173ffffffffffffffffffffffffffffffffffffffff16636da64a5e85836040518363ffffffff1660e01b81526004018083815260200180602001828103825283818151815260200191508051906020019060200280838360005b8381101561154b578082015181840152602081019050611530565b505050509050019350505050600060405180830381600087803b15801561157157600080fd5b505af1158015611585573d6000803e3d6000fd5b50505050506116ab565b6060600167ffffffffffffffff811180156115a957600080fd5b506040519080825280602002602001820160405280156115d85781602001602082028036833780820191505090505b50905082816000815181106115e957fe5b6020026020010181815250508173ffffffffffffffffffffffffffffffffffffffff16636da64a5e85836040518363ffffffff1660e01b81526004018083815260200180602001828103825283818151815260200191508051906020019060200280838360005b8381101561166b578082015181840152602081019050611650565b505050509050019350505050600060405180830381600087803b15801561169157600080fd5b505af11580156116a5573d6000803e3d6000fd5b50505050505b505050565b600084848484604051602001808581526020018481526020018373ffffffffffffffffffffffffffffffffffffffff1681526020018281526020019450505050506040516020818303038152906040528051906020012060001c9050949350505050565b600080828401905083811015611792576040517f08c379a000000000000000000000000000000000000000000000000000000000815260040180806020018281038252601b8152602001807f536166654d6174683a206164646974696f6e206f766572666c6f77000000000081525060200191505060405180910390fd5b8091505092915050565b60008282604051602001808381526020018281526020019250505060405160208183030381529060405280519060200120905092915050565b6060808260ff1667ffffffffffffffff811180156117f257600080fd5b506040519080825280602002602001820160405280156118215781602001602082028036833780820191505090505b50905060008360ff16604e8161183357fe5b0460ff16905060006118458683610877565b905080836001870360ff168151811061185a57fe5b602002602001018181525050600082600a0a8288038161187657fe5b04905060006001870360ff1690505b60008111156118d5576118988285610877565b9250828560018303815181106118aa57fe5b60200260200101818152505083600a0a838303816118c457fe5b049150808060019003915050611885565b50839450505050509291505056fe4f776e61626c653a206e6577206f776e657220697320746865207a65726f2061646472657373a2646970667358221220a64e93c7a7474084fe1ca500f9be84ec0155c0d30b52ad6b526d6e03eed38c5264736f6c634300060c0033",
  "immutableReferences": {
    "83": [
      {
        "length": 32,
        "start": 1045
      },
      {
        "length": 32,
        "start": 1250
      },
      {
        "length": 32,
        "start": 1564
      },
      {
        "length": 32,
        "start": 1764
      },
      {
        "length": 32,
        "start": 2194
      },
      {
        "length": 32,
        "start": 3387
      },
      {
        "length": 32,
        "start": 3448
      },
      {
        "length": 32,
        "start": 4682
      }
    ],
    "85": [
      {
        "length": 32,
        "start": 3787
      },
      {
        "length": 32,
        "start": 4742
      }
    ]
  },
  "source": "// SPDX-License-Identifier: MIT\npragma solidity ^0.6.0;\n\nimport \"@openzeppelin/contracts/access/Ownable.sol\";\nimport \"@chainlink/contracts/src/v0.6/vendor/SafeMathChainlink.sol\";\nimport \"@chainlink/contracts/src/v0.6/interfaces/LinkTokenInterface.sol\";\nimport \"@chainlink/contracts/src/v0.6/VRFRequestIDBase.sol\";\nimport \"@chainlink/contracts/src/v0.6/VRFConsumerBase.sol\";\nimport \"./LuckyMachines.sol\";\n\ncontract LuckyMachineCoordinator is VRFConsumerBase, Ownable {\n    using SafeMathChainlink for uint256;\n\n    bytes32 internal keyHash;\n    uint256 internal fee;\n\n    mapping(bytes32 => address payable) private _machineRequests;\n    mapping(bytes32 => uint8) private _requestQuantities;\n    uint8 public maxRandomNumbers;\n\n    constructor(address _coordinator, address _linkToken, bytes32 _keyHash, uint256 _fee)\n        VRFConsumerBase(\n            _coordinator, // VRF Coordinator\n            _linkToken  // LINK Token\n        ) public {\n            keyHash = _keyHash;\n            fee = _fee;\n            maxRandomNumbers = 78;\n    }\n\n    receive() external payable {\n\n    }\n\n    /**\n     * @dev Shouldn't be updated unless set incorrectly to begin with.\n     */\n    function setKeyHash(bytes32 _keyHash) public onlyOwner {\n        keyHash = _keyHash;\n    }\n\n    /**\n     * @dev Can update fee if operator changes fee amount.\n     */\n    function setFee(uint256 _fee) public onlyOwner {\n      fee = _fee;\n    }\n\n    function getRandomNumbers(uint8 quantity) external returns(bytes32 requestID){\n        require(quantity <= maxRandomNumbers && quantity > 0, \"quantity outside of bounds\");\n        require(LINK.balanceOf(address(this)) >= fee || LINK.balanceOf(msg.sender) >= fee, \"Not enough LINK\");\n        if (LINK.balanceOf(address(this)) < fee) {\n            LINK.transferFrom(msg.sender, address(this), fee);\n        }\n        uint256 seed = uint256(blockhash(block.number - 1));\n        bytes32 rid = requestRandomness(keyHash, fee, seed);\n        _machineRequests[rid] = msg.sender;\n        _requestQuantities[rid] = quantity;\n        return rid;\n    }\n\n    function fulfillRandomness(bytes32 requestId, uint256 randomness) internal override {\n        LuckyMachine machine = LuckyMachine(_machineRequests[requestId]);\n        if(_requestQuantities[requestId] > 1){\n          uint256[] memory randomArray = sliceNumber(randomness, _requestQuantities[requestId]);\n          // send array to machine\n          machine.fulfillRandomness(requestId, randomArray);\n        } else {\n          uint256[] memory numberArray = new uint256[](1);\n          numberArray[0] = randomness;\n          machine.fulfillRandomness(requestId, numberArray);\n        }\n    }\n\n    function sliceNumber(uint256 inputNumber, uint8 elements) internal returns (uint256[] memory){\n\n        uint256[] memory numberArray = new uint256[](elements);\n        uint digitsPerSection = 78 / elements;\n\n        // get last digits\n        uint lastDigits = lastN(inputNumber, digitsPerSection);\n\n        // add to end of array\n        numberArray[elements - 1] = lastDigits;\n\n        // strip away digits added to the array\n        uint newNumber = (inputNumber - lastDigits) / (10 ** digitsPerSection);\n\n        for (uint i = (elements - 1); i > 0; i--) {\n            lastDigits = lastN(newNumber, digitsPerSection);\n            // add to end of array\n            numberArray[i-1] = lastDigits;\n            // strip away digits added to the array\n            newNumber = (newNumber - lastDigits) / (10 ** digitsPerSection);\n        }\n\n        return numberArray;\n    }\n\n    function lastN(uint number, uint n) public pure returns (uint) {\n        return number % 10 ** n;\n    }\n\n    function setMaxRandomQuantity(uint8 quantity) public onlyOwner {\n      maxRandomNumbers = quantity;\n    }\n\n    function getLinkBalance() public view returns(uint){\n        return LINK.balanceOf(address(this));\n    }\n\n    function withdrawLink() public onlyOwner {\n        LINK.transfer(msg.sender, LINK.balanceOf(address(this)));\n    }\n}\n",
  "sourcePath": "@luckymachines/contracts/src/v0.2/LuckyMachineCoordinator.sol",
  "compiler": {
    "name": "solc",
    "version": "0.6.12+commit.27d51765.Emscripten.clang"
  },
  "schemaVersion": "3.3.4",
  "updatedAt": "2021-04-09T04:16:55.951Z",
  "devdoc": {
    "kind": "dev",
    "methods": {
      "owner()": {
        "details": "Returns the address of the current owner."
      },
      "renounceOwnership()": {
        "details": "Leaves the contract without owner. It will not be possible to call `onlyOwner` functions anymore. Can only be called by the current owner. NOTE: Renouncing ownership will leave the contract without an owner, thereby removing any functionality that is only available to the owner."
      },
      "setFee(uint256)": {
        "details": "Can update fee if operator changes fee amount."
      },
      "setKeyHash(bytes32)": {
        "details": "Shouldn't be updated unless set incorrectly to begin with."
      },
      "transferOwnership(address)": {
        "details": "Transfers ownership of the contract to a new account (`newOwner`). Can only be called by the current owner."
      }
    },
    "version": 1
  },
  "userdoc": {
    "kind": "user",
    "methods": {},
    "version": 1
  }
}