{
  "contractName": "LuckyMachineFactory",
  "abi": [
    {
      "inputs": [
        {
          "internalType": "uint256",
          "name": "",
          "type": "uint256"
        }
      ],
      "name": "machines",
      "outputs": [
        {
          "internalType": "address",
          "name": "",
          "type": "address"
        }
      ],
      "stateMutability": "view",
      "type": "function",
      "constant": true
    },
    {
      "inputs": [
        {
          "internalType": "address payable",
          "name": "machineCoordinator",
          "type": "address"
        },
        {
          "internalType": "address",
          "name": "linkToken",
          "type": "address"
        },
        {
          "internalType": "uint256",
          "name": "maxBet",
          "type": "uint256"
        },
        {
          "internalType": "uint256",
          "name": "minBet",
          "type": "uint256"
        },
        {
          "internalType": "uint256",
          "name": "maxPick",
          "type": "uint256"
        },
        {
          "internalType": "uint256",
          "name": "payout",
          "type": "uint256"
        }
      ],
      "name": "createMachine",
      "outputs": [
        {
          "internalType": "address",
          "name": "",
          "type": "address"
        }
      ],
      "stateMutability": "nonpayable",
      "type": "function"
    },
    {
      "inputs": [],
      "name": "getMachines",
      "outputs": [
        {
          "internalType": "address[]",
          "name": "",
          "type": "address[]"
        }
      ],
      "stateMutability": "view",
      "type": "function",
      "constant": true
    },
    {
      "inputs": [],
      "name": "getOwnedMachines",
      "outputs": [
        {
          "internalType": "address[]",
          "name": "",
          "type": "address[]"
        }
      ],
      "stateMutability": "view",
      "type": "function",
      "constant": true
    }
  ],
  "bytecode": "0x608060405234801561001057600080fd5b5061366f806100206000396000f3fe608060405234801561001057600080fd5b506004361061004c5760003560e01c80632eb47613146100515780634d42845c146100b057806352b07b3414610108578063695e0f2a14610167575b600080fd5b61005961021d565b6040518080602001828103825283818151815260200191508051906020019060200280838360005b8381101561009c578082015181840152602081019050610081565b505050509050019250505060405180910390f35b6100dc600480360360208110156100c657600080fd5b81019080803590602001909291905050506102e8565b604051808273ffffffffffffffffffffffffffffffffffffffff16815260200191505060405180910390f35b610110610324565b6040518080602001828103825283818151815260200191508051906020019060200280838360005b83811015610153578082015181840152602081019050610138565b505050509050019250505060405180910390f35b6101f1600480360360c081101561017d57600080fd5b81019080803573ffffffffffffffffffffffffffffffffffffffff169060200190929190803573ffffffffffffffffffffffffffffffffffffffff169060200190929190803590602001909291908035906020019092919080359060200190929190803590602001909291905050506103b2565b604051808273ffffffffffffffffffffffffffffffffffffffff16815260200191505060405180910390f35b6060600160003373ffffffffffffffffffffffffffffffffffffffff1673ffffffffffffffffffffffffffffffffffffffff1681526020019081526020016000208054806020026020016040519081016040528092919081815260200182805480156102de57602002820191906000526020600020905b8160009054906101000a900473ffffffffffffffffffffffffffffffffffffffff1673ffffffffffffffffffffffffffffffffffffffff1681526020019060010190808311610294575b5050505050905090565b600081815481106102f557fe5b906000526020600020016000915054906101000a900473ffffffffffffffffffffffffffffffffffffffff1681565b606060008054806020026020016040519081016040528092919081815260200182805480156103a857602002820191906000526020600020905b8160009054906101000a900473ffffffffffffffffffffffffffffffffffffffff1673ffffffffffffffffffffffffffffffffffffffff168152602001906001019080831161035e575b5050505050905090565b600080873388888888886040516103c8906105f5565b808873ffffffffffffffffffffffffffffffffffffffff1681526020018773ffffffffffffffffffffffffffffffffffffffff1681526020018673ffffffffffffffffffffffffffffffffffffffff168152602001858152602001848152602001838152602001828152602001975050505050505050604051809103906000f08015801561045a573d6000803e3d6000fd5b5090508073ffffffffffffffffffffffffffffffffffffffff1663f2fde38b336040518263ffffffff1660e01b8152600401808273ffffffffffffffffffffffffffffffffffffffff168152602001915050600060405180830381600087803b1580156104c657600080fd5b505af11580156104da573d6000803e3d6000fd5b5050505060008190506000819080600181540180825580915050600190039060005260206000200160009091909190916101000a81548173ffffffffffffffffffffffffffffffffffffffff021916908373ffffffffffffffffffffffffffffffffffffffff160217905550600160003373ffffffffffffffffffffffffffffffffffffffff1673ffffffffffffffffffffffffffffffffffffffff168152602001908152602001600020819080600181540180825580915050600190039060005260206000200160009091909190916101000a81548173ffffffffffffffffffffffffffffffffffffffff021916908373ffffffffffffffffffffffffffffffffffffffff16021790555080925050509695505050505050565b613037806106038339019056fe60806040523480156200001157600080fd5b506040516200303738038062003037833981810160405260e08110156200003757600080fd5b81019080805190602001909291908051906020019092919080519060200190929190805190602001909291908051906020019092919080519060200190929190805190602001909291905050506000620000966200038560201b60201c565b9050806000806101000a81548173ffffffffffffffffffffffffffffffffffffffff021916908373ffffffffffffffffffffffffffffffffffffffff1602179055508073ffffffffffffffffffffffffffffffffffffffff16600073ffffffffffffffffffffffffffffffffffffffff167f8be0079c531659141344cd1fd0a4f28419497f9722a3daafe3b4186f6b6457e060405160405180910390a35086600260006101000a81548173ffffffffffffffffffffffffffffffffffffffff021916908373ffffffffffffffffffffffffffffffffffffffff1602179055506001601281905550600060118190555085601360006101000a81548173ffffffffffffffffffffffffffffffffffffffff021916908373ffffffffffffffffffffffffffffffffffffffff1602179055508260108190555083600f8190555081600e819055508060148190555060016003819055506001600481905550600160058190555060016006819055506001600781905550600160088190555060016009819055506001600a819055506001600b819055506001600c819055506001600d8190555084600160006101000a81548173ffffffffffffffffffffffffffffffffffffffff021916908373ffffffffffffffffffffffffffffffffffffffff1602179055506000600181039050600160009054906101000a900473ffffffffffffffffffffffffffffffffffffffff1673ffffffffffffffffffffffffffffffffffffffff1663095ea7b3600260009054906101000a900473ffffffffffffffffffffffffffffffffffffffff16836040518363ffffffff1660e01b8152600401808373ffffffffffffffffffffffffffffffffffffffff16815260200182815260200192505050602060405180830381600087803b1580156200033957600080fd5b505af11580156200034e573d6000803e3d6000fd5b505050506040513d60208110156200036557600080fd5b81019080805190602001909291905050505050505050505050506200038d565b600033905090565b612c9a806200039d6000396000f3fe6080604052600436106101bb5760003560e01c80638da5cb5b116100ec578063b843f5ab1161008a578063d9e721f811610064578063d9e721f814610894578063dfad4c11146108e2578063f2fde38b14610949578063f31a4dcd1461099a576101c2565b8063b843f5ab146107dd578063b93030b314610842578063c311d04914610859576101c2565b8063a249225e116100c6578063a249225e146106a6578063a4b2409e14610703578063ac150fd81461073e578063b1017eb71461078c576101c2565b80638da5cb5b146105e95780639619367d1461062a578063a02e061614610655576101c2565b80634051ddac1161015957806363bd1d4a1161013357806363bd1d4a1461049d5780636da64a5e146104c8578063715018a6146105975780637a8042bd146105ae576101c2565b80634051ddac146103f157806350c5f975146104315780635b8d02d71461045c576101c2565b80632e5b2168116101955780632e5b2168146102e35780632ee42d8a1461030e57806333ea51a8146103395780633638104a1461038a576101c2565b80630c610a12146101c7578063117a5b901461021857806319465b7c146102a2576101c2565b366101c257005b600080fd5b3480156101d357600080fd5b50610200600480360360208110156101ea57600080fd5b81019080803590602001909291905050506109d5565b60405180821515815260200191505060405180910390f35b34801561022457600080fd5b506102516004803603602081101561023b57600080fd5b8101908080359060200190929190505050610a0a565b604051808781526020018673ffffffffffffffffffffffffffffffffffffffff1681526020018581526020018481526020018381526020018215158152602001965050505050505060405180910390f35b3480156102ae57600080fd5b506102b7610a73565b604051808273ffffffffffffffffffffffffffffffffffffffff16815260200191505060405180910390f35b3480156102ef57600080fd5b506102f8610a99565b6040518082815260200191505060405180910390f35b34801561031a57600080fd5b50610323610a9f565b6040518082815260200191505060405180910390f35b34801561034557600080fd5b506103886004803603602081101561035c57600080fd5b81019080803573ffffffffffffffffffffffffffffffffffffffff169060200190929190505050610aa5565b005b34801561039657600080fd5b506103d9600480360360208110156103ad57600080fd5b81019080803573ffffffffffffffffffffffffffffffffffffffff169060200190929190505050610b98565b60405180821515815260200191505060405180910390f35b3480156103fd57600080fd5b50610406610bb8565b6040518085815260200184815260200183815260200182815260200194505050505060405180910390f35b34801561043d57600080fd5b50610446610bd8565b6040518082815260200191505060405180910390f35b34801561046857600080fd5b50610471610ca3565b604051808273ffffffffffffffffffffffffffffffffffffffff16815260200191505060405180910390f35b3480156104a957600080fd5b506104b2610cc9565b6040518082815260200191505060405180910390f35b3480156104d457600080fd5b50610595600480360360408110156104eb57600080fd5b81019080803590602001909291908035906020019064010000000081111561051257600080fd5b82018360208201111561052457600080fd5b8035906020019184602083028401116401000000008311171561054657600080fd5b919080806020026020016040519081016040528093929190818152602001838360200280828437600081840152601f19601f820116905080830192505050505050509192919290505050610ccf565b005b3480156105a357600080fd5b506105ac611055565b005b3480156105ba57600080fd5b506105e7600480360360208110156105d157600080fd5b81019080803590602001909291905050506111c2565b005b3480156105f557600080fd5b506105fe6113b2565b604051808273ffffffffffffffffffffffffffffffffffffffff16815260200191505060405180910390f35b34801561063657600080fd5b5061063f6113db565b6040518082815260200191505060405180910390f35b34801561066157600080fd5b506106a46004803603602081101561067857600080fd5b81019080803573ffffffffffffffffffffffffffffffffffffffff1690602001909291905050506113e1565b005b3480156106b257600080fd5b50610701600480360360408110156106c957600080fd5b81019080803573ffffffffffffffffffffffffffffffffffffffff1690602001909291908035151590602001909291905050506114d4565b005b34801561070f57600080fd5b5061073c6004803603602081101561072657600080fd5b81019080803590602001909291905050506115de565b005b61078a6004803603604081101561075457600080fd5b81019080803573ffffffffffffffffffffffffffffffffffffffff169060200190929190803590602001909291905050506118d5565b005b34801561079857600080fd5b506107c5600480360360208110156107af57600080fd5b8101908080359060200190929190505050611a16565b60405180821515815260200191505060405180910390f35b3480156107e957600080fd5b5061082c6004803603602081101561080057600080fd5b81019080803573ffffffffffffffffffffffffffffffffffffffff169060200190929190505050611ba4565b6040518082815260200191505060405180910390f35b34801561084e57600080fd5b50610857611bbc565b005b34801561086557600080fd5b506108926004803603602081101561087c57600080fd5b8101908080359060200190929190505050611f71565b005b6108e0600480360360408110156108aa57600080fd5b81019080803573ffffffffffffffffffffffffffffffffffffffff16906020019092919080359060200190929190505050612153565b005b3480156108ee57600080fd5b506109316004803603602081101561090557600080fd5b81019080803573ffffffffffffffffffffffffffffffffffffffff169060200190929190505050612379565b60405180821515815260200191505060405180910390f35b34801561095557600080fd5b506109986004803603602081101561096c57600080fd5b81019080803573ffffffffffffffffffffffffffffffffffffffff169060200190929190505050612399565b005b3480156109a657600080fd5b506109d3600480360360208110156109bd57600080fd5b810190808035906020019092919050505061258b565b005b60006109ec6014548361264690919063ffffffff16565b610a01601154476126cc90919063ffffffff16565b10159050919050565b60176020528060005260406000206000915090508060000154908060010160009054906101000a900473ffffffffffffffffffffffffffffffffffffffff16908060020154908060030154908060040154908060050160009054906101000a900460ff16905086565b600260009054906101000a900473ffffffffffffffffffffffffffffffffffffffff1681565b600f5481565b600e5481565b610aad612755565b73ffffffffffffffffffffffffffffffffffffffff16610acb6113b2565b73ffffffffffffffffffffffffffffffffffffffff1614610b54576040517f08c379a00000000000000000000000000000000000000000000000000000000081526004018080602001828103825260208152602001807f4f776e61626c653a2063616c6c6572206973206e6f7420746865206f776e657281525060200191505060405180910390fd5b80601360006101000a81548173ffffffffffffffffffffffffffffffffffffffff021916908373ffffffffffffffffffffffffffffffffffffffff16021790555050565b60156020528060005260406000206000915054906101000a900460ff1681565b600080600080601054600f54601454600e54935093509350935090919293565b6000600160009054906101000a900473ffffffffffffffffffffffffffffffffffffffff1673ffffffffffffffffffffffffffffffffffffffff166370a08231306040518263ffffffff1660e01b8152600401808273ffffffffffffffffffffffffffffffffffffffff16815260200191505060206040518083038186803b158015610c6357600080fd5b505afa158015610c77573d6000803e3d6000fd5b505050506040513d6020811015610c8d57600080fd5b8101908080519060200190929190505050905090565b601360009054906101000a900473ffffffffffffffffffffffffffffffffffffffff1681565b60145481565b600260009054906101000a900473ffffffffffffffffffffffffffffffffffffffff1673ffffffffffffffffffffffffffffffffffffffff163373ffffffffffffffffffffffffffffffffffffffff1614610d2957600080fd5b60006017600060186000868152602001908152602001600020548152602001908152602001600020905060008160000154118015610d7c5750600015158160050160009054906101000a900460ff161515145b15610ff857600f5481600201541115610d9b57600f5481600201819055505b6000610dcc8260020154610dbe601454856002015461264690919063ffffffff16565b61275d90919063ffffffff16565b905080471015610e44576040517f08c379a00000000000000000000000000000000000000000000000000000000081526004018080602001828103825260208152602001807f436f6e74726163742062616c616e636520746f6f206c6f7720746f20706c617981525060200191505060405180910390fd5b610e806001610e72600e5486600081518110610e5c57fe5b60200260200101516127e590919063ffffffff16565b61275d90919063ffffffff16565b826004018190555060018260050160006101000a81548160ff021916908315150217905550816002015460115410610ecb578160020154601160008282540392505081905550610ed4565b60006011819055505b816004015482600301541415610f54578160010160009054906101000a900473ffffffffffffffffffffffffffffffffffffffff1673ffffffffffffffffffffffffffffffffffffffff166108fc829081150290604051600060405180830381858888f19350505050158015610f4e573d6000803e3d6000fd5b50610f59565b600090505b7fc06600d6399308f270bc6ae70d5377121b685c974bb7f7355824fddd8a2b34978260010160009054906101000a900473ffffffffffffffffffffffffffffffffffffffff1683600201548460030154856004015485604051808673ffffffffffffffffffffffffffffffffffffffff1681526020018581526020018481526020018381526020018281526020019550505050505060405180910390a1505b60016003819055506001600481905550600160058190555060016006819055506001600781905550600160088190555060016009819055506001600a819055506001600b819055506001600c819055506001600d81905550505050565b61105d612755565b73ffffffffffffffffffffffffffffffffffffffff1661107b6113b2565b73ffffffffffffffffffffffffffffffffffffffff1614611104576040517f08c379a00000000000000000000000000000000000000000000000000000000081526004018080602001828103825260208152602001807f4f776e61626c653a2063616c6c6572206973206e6f7420746865206f776e657281525060200191505060405180910390fd5b600073ffffffffffffffffffffffffffffffffffffffff1660008054906101000a900473ffffffffffffffffffffffffffffffffffffffff1673ffffffffffffffffffffffffffffffffffffffff167f8be0079c531659141344cd1fd0a4f28419497f9722a3daafe3b4186f6b6457e060405160405180910390a360008060006101000a81548173ffffffffffffffffffffffffffffffffffffffff021916908373ffffffffffffffffffffffffffffffffffffffff160217905550565b3373ffffffffffffffffffffffffffffffffffffffff166111e16113b2565b73ffffffffffffffffffffffffffffffffffffffff16148061124c5750601560003373ffffffffffffffffffffffffffffffffffffffff1673ffffffffffffffffffffffffffffffffffffffff16815260200190815260200160002060009054906101000a900460ff165b6112be576040517f08c379a00000000000000000000000000000000000000000000000000000000081526004018080602001828103825260188152602001807f63616c6c6572206973206e6f7420617574686f72697a6564000000000000000081525060200191505060405180910390fd5b600160009054906101000a900473ffffffffffffffffffffffffffffffffffffffff1673ffffffffffffffffffffffffffffffffffffffff1663a9059cbb601360009054906101000a900473ffffffffffffffffffffffffffffffffffffffff16836040518363ffffffff1660e01b8152600401808373ffffffffffffffffffffffffffffffffffffffff16815260200182815260200192505050602060405180830381600087803b15801561137357600080fd5b505af1158015611387573d6000803e3d6000fd5b505050506040513d602081101561139d57600080fd5b81019080805190602001909291905050505050565b60008060009054906101000a900473ffffffffffffffffffffffffffffffffffffffff16905090565b60105481565b6113e9612755565b73ffffffffffffffffffffffffffffffffffffffff166114076113b2565b73ffffffffffffffffffffffffffffffffffffffff1614611490576040517f08c379a00000000000000000000000000000000000000000000000000000000081526004018080602001828103825260208152602001807f4f776e61626c653a2063616c6c6572206973206e6f7420746865206f776e657281525060200191505060405180910390fd5b80600160006101000a81548173ffffffffffffffffffffffffffffffffffffffff021916908373ffffffffffffffffffffffffffffffffffffffff16021790555050565b6114dc612755565b73ffffffffffffffffffffffffffffffffffffffff166114fa6113b2565b73ffffffffffffffffffffffffffffffffffffffff1614611583576040517f08c379a00000000000000000000000000000000000000000000000000000000081526004018080602001828103825260208152602001807f4f776e61626c653a2063616c6c6572206973206e6f7420746865206f776e657281525060200191505060405180910390fd5b80601560008473ffffffffffffffffffffffffffffffffffffffff1673ffffffffffffffffffffffffffffffffffffffff16815260200190815260200160002060006101000a81548160ff0219169083151502179055505050565b6000601760008381526020019081526020016000209050601560003373ffffffffffffffffffffffffffffffffffffffff1673ffffffffffffffffffffffffffffffffffffffff16815260200190815260200160002060009054906101000a900460ff168061167f57503373ffffffffffffffffffffffffffffffffffffffff166116676113b2565b73ffffffffffffffffffffffffffffffffffffffff16145b806116d957503373ffffffffffffffffffffffffffffffffffffffff168160010160009054906101000a900473ffffffffffffffffffffffffffffffffffffffff1673ffffffffffffffffffffffffffffffffffffffff16145b61174b576040517f08c379a00000000000000000000000000000000000000000000000000000000081526004018080602001828103825260208152602001807f4e6f7420617574686f72697a656420746f207265717565737420726566756e6481525060200191505060405180910390fd5b600015158160050160009054906101000a900460ff161515146117b9576040517f08c379a000000000000000000000000000000000000000000000000000000000815260040180806020018281038252602a815260200180612c3b602a913960400191505060405180910390fd5b8060020154471015611816576040517f08c379a0000000000000000000000000000000000000000000000000000000008152600401808060200182810382526031815260200180612c0a6031913960400191505060405180910390fd5b60018160050160006101000a81548160ff021916908315150217905550806002015460115410611859578060020154601160008282540392505081905550611862565b60006011819055505b8060010160009054906101000a900473ffffffffffffffffffffffffffffffffffffffff1673ffffffffffffffffffffffffffffffffffffffff166108fc82600201549081150290604051600060405180830381858888f193505050501580156118d0573d6000803e3d6000fd5b505050565b60105434101561194d576040517f08c379a00000000000000000000000000000000000000000000000000000000081526004018080602001828103825260138152602001807f6d696e696d756d20626574206e6f74206d65740000000000000000000000000081525060200191505060405180910390fd5b6001600354141561199b57600360009055600460009055600560009055600660009055600760009055600860009055600960009055600a60009055600b60009055600c60009055600d600090555b6119b03460115461275d90919063ffffffff16565b6011819055506119c182348361286f565b6119cc60125461298e565b601254601960008473ffffffffffffffffffffffffffffffffffffffff1673ffffffffffffffffffffffffffffffffffffffff168152602001908152602001600020819055505050565b600080600260009054906101000a900473ffffffffffffffffffffffffffffffffffffffff16905060008173ffffffffffffffffffffffffffffffffffffffff166350c5f9756040518163ffffffff1660e01b815260040160206040518083038186803b158015611a8657600080fd5b505afa158015611a9a573d6000803e3d6000fd5b505050506040513d6020811015611ab057600080fd5b810190808051906020019092919050505090506000600160009054906101000a900473ffffffffffffffffffffffffffffffffffffffff1673ffffffffffffffffffffffffffffffffffffffff166370a08231306040518263ffffffff1660e01b8152600401808273ffffffffffffffffffffffffffffffffffffffff16815260200191505060206040518083038186803b158015611b4e57600080fd5b505afa158015611b62573d6000803e3d6000fd5b505050506040513d6020811015611b7857600080fd5b810190808051906020019092919050505090508481101580611b9a5750848210155b9350505050919050565b60196020528060005260406000206000915090505481565b611bc4612755565b73ffffffffffffffffffffffffffffffffffffffff16611be26113b2565b73ffffffffffffffffffffffffffffffffffffffff1614611c6b576040517f08c379a00000000000000000000000000000000000000000000000000000000081526004018080602001828103825260208152602001807f4f776e61626c653a2063616c6c6572206973206e6f7420746865206f776e657281525060200191505060405180910390fd5b6000611c82601154476126cc90919063ffffffff16565b9050601360009054906101000a900473ffffffffffffffffffffffffffffffffffffffff1673ffffffffffffffffffffffffffffffffffffffff166108fc829081150290604051600060405180830381858888f19350505050158015611cec573d6000803e3d6000fd5b506000600160009054906101000a900473ffffffffffffffffffffffffffffffffffffffff1673ffffffffffffffffffffffffffffffffffffffff166370a08231306040518263ffffffff1660e01b8152600401808273ffffffffffffffffffffffffffffffffffffffff16815260200191505060206040518083038186803b158015611d7857600080fd5b505afa158015611d8c573d6000803e3d6000fd5b505050506040513d6020811015611da257600080fd5b81019080805190602001909291905050501115611f6e57600160009054906101000a900473ffffffffffffffffffffffffffffffffffffffff1673ffffffffffffffffffffffffffffffffffffffff1663a9059cbb601360009054906101000a900473ffffffffffffffffffffffffffffffffffffffff16600160009054906101000a900473ffffffffffffffffffffffffffffffffffffffff1673ffffffffffffffffffffffffffffffffffffffff166370a08231306040518263ffffffff1660e01b8152600401808273ffffffffffffffffffffffffffffffffffffffff16815260200191505060206040518083038186803b158015611ea357600080fd5b505afa158015611eb7573d6000803e3d6000fd5b505050506040513d6020811015611ecd57600080fd5b81019080805190602001909291905050506040518363ffffffff1660e01b8152600401808373ffffffffffffffffffffffffffffffffffffffff16815260200182815260200192505050602060405180830381600087803b158015611f3157600080fd5b505af1158015611f45573d6000803e3d6000fd5b505050506040513d6020811015611f5b57600080fd5b8101908080519060200190929190505050505b50565b3373ffffffffffffffffffffffffffffffffffffffff16611f906113b2565b73ffffffffffffffffffffffffffffffffffffffff161480611ffb5750601560003373ffffffffffffffffffffffffffffffffffffffff1673ffffffffffffffffffffffffffffffffffffffff16815260200190815260200160002060009054906101000a900460ff165b61206d576040517f08c379a00000000000000000000000000000000000000000000000000000000081526004018080602001828103825260188152602001807f63616c6c6572206973206e6f7420617574686f72697a6564000000000000000081525060200191505060405180910390fd5b60115481470310156120e7576040517f08c379a000000000000000000000000000000000000000000000000000000000815260040180806020018281038252601c8152602001807f43616e277420776974686472617720756e706c6179656420626574730000000081525060200191505060405180910390fd5b601360009054906101000a900473ffffffffffffffffffffffffffffffffffffffff1673ffffffffffffffffffffffffffffffffffffffff166108fc829081150290604051600060405180830381858888f1935050505015801561214f573d6000803e3d6000fd5b5050565b61215c346109d5565b6121b1576040517f08c379a0000000000000000000000000000000000000000000000000000000008152600401808060200182810382526036815260200180612bb36036913960400191505060405180910390fd5b600e5481111580156121c35750600081115b612235576040517f08c379a000000000000000000000000000000000000000000000000000000000815260040180806020018281038252601a8152602001807f4f757473696465206f66207069636b61626c6520626f756e647300000000000081525060200191505060405180910390fd5b61223e34612a53565b6122b0576040517f08c379a00000000000000000000000000000000000000000000000000000000081526004018080602001828103825260158152602001807f4f757469736465206f66206265742072616e67652e000000000000000000000081525060200191505060405180910390fd5b600160035414156122fe57600360009055600460009055600560009055600660009055600760009055600860009055600960009055600a60009055600b60009055600c60009055600d600090555b6123133460115461275d90919063ffffffff16565b60118190555061232482348361286f565b61232f60125461298e565b601254601960008473ffffffffffffffffffffffffffffffffffffffff1673ffffffffffffffffffffffffffffffffffffffff168152602001908152602001600020819055505050565b60166020528060005260406000206000915054906101000a900460ff1681565b6123a1612755565b73ffffffffffffffffffffffffffffffffffffffff166123bf6113b2565b73ffffffffffffffffffffffffffffffffffffffff1614612448576040517f08c379a00000000000000000000000000000000000000000000000000000000081526004018080602001828103825260208152602001807f4f776e61626c653a2063616c6c6572206973206e6f7420746865206f776e657281525060200191505060405180910390fd5b600073ffffffffffffffffffffffffffffffffffffffff168173ffffffffffffffffffffffffffffffffffffffff1614156124ce576040517f08c379a0000000000000000000000000000000000000000000000000000000008152600401808060200182810382526026815260200180612b8d6026913960400191505060405180910390fd5b8073ffffffffffffffffffffffffffffffffffffffff1660008054906101000a900473ffffffffffffffffffffffffffffffffffffffff1673ffffffffffffffffffffffffffffffffffffffff167f8be0079c531659141344cd1fd0a4f28419497f9722a3daafe3b4186f6b6457e060405160405180910390a3806000806101000a81548173ffffffffffffffffffffffffffffffffffffffff021916908373ffffffffffffffffffffffffffffffffffffffff16021790555050565b612593612755565b73ffffffffffffffffffffffffffffffffffffffff166125b16113b2565b73ffffffffffffffffffffffffffffffffffffffff161461263a576040517f08c379a00000000000000000000000000000000000000000000000000000000081526004018080602001828103825260208152602001807f4f776e61626c653a2063616c6c6572206973206e6f7420746865206f776e657281525060200191505060405180910390fd5b6126438161298e565b50565b60008083141561265957600090506126c6565b600082840290508284828161266a57fe5b04146126c1576040517f08c379a0000000000000000000000000000000000000000000000000000000008152600401808060200182810382526021815260200180612be96021913960400191505060405180910390fd5b809150505b92915050565b600082821115612744576040517f08c379a000000000000000000000000000000000000000000000000000000000815260040180806020018281038252601e8152602001807f536166654d6174683a207375627472616374696f6e206f766572666c6f77000081525060200191505060405180910390fd5b600082840390508091505092915050565b600033905090565b6000808284019050838110156127db576040517f08c379a000000000000000000000000000000000000000000000000000000000815260040180806020018281038252601b8152602001807f536166654d6174683a206164646974696f6e206f766572666c6f77000000000081525060200191505060405180910390fd5b8091505092915050565b60008082141561285d576040517f08c379a00000000000000000000000000000000000000000000000000000000081526004018080602001828103825260188152602001807f536166654d6174683a206d6f64756c6f206279207a65726f000000000000000081525060200191505060405180910390fd5b81838161286657fe5b06905092915050565b612885600160125461275d90919063ffffffff16565b601281905550612893612b3e565b6040518060c0016040528060125481526020018573ffffffffffffffffffffffffffffffffffffffff168152602001848152602001838152602001600081526020016000151581525090508060176000836000015181526020019081526020016000206000820151816000015560208201518160010160006101000a81548173ffffffffffffffffffffffffffffffffffffffff021916908373ffffffffffffffffffffffffffffffffffffffff16021790555060408201518160020155606082015181600301556080820151816004015560a08201518160050160006101000a81548160ff02191690831515021790555090505050505050565b600015156017600083815260200190815260200160002060050160009054906101000a900460ff16151514612a2b576040517f08c379a00000000000000000000000000000000000000000000000000000000081526004018080602001828103825260138152602001807f67616d6520616c726561647920706c617965640000000000000000000000000081525060200191505060405180910390fd5b6000612a35612a81565b90508160186000838152602001908152602001600020819055505050565b60006010548210158015612a695750600f548211155b15612a775760019050612a7c565b600090505b919050565b600080600260009054906101000a900473ffffffffffffffffffffffffffffffffffffffff1690508073ffffffffffffffffffffffffffffffffffffffff16633941876560016040518263ffffffff1660e01b815260040180828152602001915050602060405180830381600087803b158015612afd57600080fd5b505af1158015612b11573d6000803e3d6000fd5b505050506040513d6020811015612b2757600080fd5b810190808051906020019092919050505091505090565b6040518060c0016040528060008152602001600073ffffffffffffffffffffffffffffffffffffffff168152602001600081526020016000815260200160008152602001600015158152509056fe4f776e61626c653a206e6577206f776e657220697320746865207a65726f2061646472657373436f6e74726163742068617320696e737566666963696e742066756e647320746f207061796f757420706f737369626c652077696e2e536166654d6174683a206d756c7469706c69636174696f6e206f766572666c6f77436f6e74726163742062616c616e636520746f6f206c6f772e20506c656173652074727920616761696e206c617465722e47616d6520616c726561647920636f6d706c6574652e204e6f20726566756e6420706f737369626c652ea2646970667358221220e6a373f23cbc844662aab42aeb1b05acf14d7948f2b9a3a74e3d8e53baf8cda064736f6c634300060c0033a2646970667358221220bc0d6df6f3bf05248ee0e0f3e836289bd059e9b484afdf25567f67cdc774b37664736f6c634300060c0033",
  "immutableReferences": {},
  "source": "// SPDX-License-Identifier: MIT\npragma solidity ^0.6.0;\n\nimport \"@openzeppelin/contracts/access/Ownable.sol\";\nimport \"@chainlink/contracts/src/v0.6/vendor/SafeMathChainlink.sol\";\nimport \"@chainlink/contracts/src/v0.6/interfaces/LinkTokenInterface.sol\";\nimport \"./LuckyMachineCoordinator.sol\";\n\ncontract LuckyMachine is Ownable {\n\n    LinkTokenInterface internal LINK;\n\n    using SafeMathChainlink for uint256;\n\n    address payable public machineCoordinator;\n\n    struct Game {\n        uint id;\n        address payable player;\n        uint bet;\n        uint pick;\n        uint winner;\n        bool played;\n    }\n\n    uint private gas1;\n    uint private gas2;\n    uint private gas3;\n    uint private gas4;\n    uint private gas5;\n    uint private gas6;\n    uint private gas7;\n    uint private gas8;\n    uint private gas9;\n    uint private gas10;\n    uint private gas11;\n\n    uint public maxPick;\n    uint public maxBet;\n    uint public minBet;\n    uint private _unplayedBets;\n    uint private _currentGame;\n    address payable public payoutAddress;\n    uint public payout; // Payout Ratio (payout : 1), e.g. 10 : 1 = payout (10) * bet (X)\n\n    mapping(address => bool) public authorizedAddress;\n    mapping(address => bool) public gasFreeBetAllowed;\n\n    mapping(uint => Game) public games;\n    mapping(bytes32 => uint) private _gameRequests;\n    mapping(address => uint) public lastGameCreated;\n\n    event GamePlayed(address _player, uint256 _bet, uint256 _pick, uint256 _winner, uint256 _payout);\n\n    constructor(address payable _machineCoordinator, address payable _payoutAddress,  address _linkToken, uint _maxBet, uint _minBet, uint _maxPick, uint _payout) public {\n            machineCoordinator = _machineCoordinator;\n            _currentGame = 1;\n            _unplayedBets = 0;\n            payoutAddress = _payoutAddress;\n            minBet = _minBet;\n            maxBet = _maxBet;\n            maxPick = _maxPick;\n            payout = _payout;\n\n            gas1 = 1;\n            gas2 = 1;\n            gas3 = 1;\n            gas4 = 1;\n            gas5 = 1;\n            gas6 = 1;\n            gas7 = 1;\n            gas8 = 1;\n            gas9 = 1;\n            gas10 = 1;\n            gas11 = 1;\n\n            LINK = LinkTokenInterface(_linkToken);\n            uint256 approvalAmount = 0;\n            approvalAmount -= 1;\n            LINK.approve(machineCoordinator, approvalAmount);\n    }\n\n    receive() external payable {\n\n    }\n\n    modifier onlyAuthorized() {\n        require(owner() == msg.sender || authorizedAddress[msg.sender], \"caller is not authorized\");\n        _;\n    }\n\n    function getLinkBalance() public view returns(uint){\n        return LINK.balanceOf(address(this));\n    }\n\n    /**\n     * @dev Returns whether bet is within range of minimum and maximum\n     * allowable bets\n     */\n    function betInRange(uint bet) internal view returns(bool){\n        if (bet >= minBet && bet <= maxBet) {\n            return true;\n        } else {\n            return false;\n        }\n    }\n\n    /**\n     * @dev Returns whether a winning bet can by paid out by machine. Balance of\n     * machine must be at least (value of bet * payout).\n     */\n    function betPayable(uint bet) public view returns(bool){\n        return (address(this).balance.sub(_unplayedBets) >= bet.mul(payout));\n    }\n\n    function canPayFee(uint _fee) public view returns(bool){\n        LuckyMachineCoordinator coord = LuckyMachineCoordinator(machineCoordinator);\n        uint256 coordBalance = coord.getLinkBalance();\n        uint256 thisBalance = LINK.balanceOf(address(this));\n        return (thisBalance >= _fee || coordBalance >= _fee);\n    }\n\n    /**\n     * @dev Returns Game ID, which can be queried for status of game using games('gameID').\n     * This will fail if machine conditions are not met.\n     * Use safeBetFor() if all conditions have not been pre-verified.\n     */\n    function placeBetFor(address payable player, uint pick) public payable{\n        require(msg.value >= minBet, \"minimum bet not met\");\n        if(gas1 == 1) {\n            delete gas1;\n            delete gas2;\n            delete gas3;\n            delete gas4;\n            delete gas5;\n            delete gas6;\n            delete gas7;\n            delete gas8;\n            delete gas9;\n            delete gas10;\n            delete gas11;\n        }\n\n        _unplayedBets = _unplayedBets.add(msg.value);\n        createGame(player, msg.value, pick);\n        playGame(_currentGame);\n        lastGameCreated[player] = _currentGame;\n    }\n\n    /**s\n     * @dev Returns Game ID, which can be queried for status of game using games('gameID').\n     * Places bet after ensuring all conditions are met (bet within minimum - maximum\n     * range, maximum pick not exceeded, winning bet is payable).\n     */\n    function safeBetFor(address payable player, uint pick) public payable{\n        require(betPayable(msg.value), \"Contract has insufficint funds to payout possible win.\");\n        require(pick <= maxPick && pick > 0, \"Outside of pickable bounds\");\n        require(betInRange(msg.value),\"Outisde of bet range.\");\n\n        if(gas1 == 1) {\n            delete gas1;\n            delete gas2;\n            delete gas3;\n            delete gas4;\n            delete gas5;\n            delete gas6;\n            delete gas7;\n            delete gas8;\n            delete gas9;\n            delete gas10;\n            delete gas11;\n        }\n\n        _unplayedBets = _unplayedBets.add(msg.value);\n        createGame(player, msg.value, pick);\n        playGame(_currentGame);\n        lastGameCreated[player] = _currentGame;\n    }\n\n    /**\n     * @dev Creates a Game record, which is updated as game is played.\n     */\n    function createGame(address payable _player, uint _bet, uint _pick) internal {\n\n        _currentGame = _currentGame.add(1);\n        Game memory newGame = Game ({\n            id: _currentGame,\n            player: _player,\n            bet: _bet,\n            pick: _pick,\n            winner: 0,\n            played: false\n        });\n        games[newGame.id] = newGame;\n    }\n\n    /**\n     * @dev If game is ready to be played, but random number not yet generated,\n     * this function may be called. Limited to only when bet is placed to avoid\n     * over-calling / over-spending Link since random number is generated with\n     * each call of this. replayGame() may be called by owner in cases of \"stuck\"\n     * or unplayed games.\n     */\n    function playGame(uint gameID) internal {\n        require(games[gameID].played == false, \"game already played\");\n        bytes32 reqID = getRandomNumber();\n        _gameRequests[reqID] = gameID;\n    }\n\n    /**\n     * @dev Requests a random number, which will be returned through the\n     * fulfillRandomness() function.\n     */\n    function getRandomNumber() internal returns (bytes32 requestId) {\n        LuckyMachineCoordinator mc = LuckyMachineCoordinator(machineCoordinator);\n        return mc.getRandomNumbers(1);\n    }\n\n    /**\n     * @dev Called by VRF Coordinator only once number is generated. Gas reserves are\n     * refilled here so they can be cleared for gas savings when next bet is placed.\n     */\n    function fulfillRandomness(bytes32 requestId, uint256[] memory randomness) external {\n        // ONLY CALLABLE BY MACHINE COORDINATOR\n        require(msg.sender == machineCoordinator);\n        Game storage g = games[_gameRequests[requestId]];\n        if(g.id > 0 && g.played == false){\n            if(g.bet > maxBet) {\n                g.bet = maxBet;\n            }\n            uint totalPayout = g.bet.mul(payout).add(g.bet);\n            require(address(this).balance >= totalPayout, \"Contract balance too low to play\");\n\n            g.winner = randomness[0].mod(maxPick).add(1);\n\n            g.played = true;\n\n            if(_unplayedBets >= g.bet) {\n                _unplayedBets -= g.bet;\n            } else {\n                _unplayedBets = 0;\n            }\n\n            if (g.pick == g.winner) {\n                g.player.transfer(totalPayout);\n            } else {\n                totalPayout = 0;\n            }\n\n            emit GamePlayed(g.player, g.bet, g.pick, g.winner, totalPayout);\n        }\n        gas1 = 1;\n        gas2 = 1;\n        gas3 = 1;\n        gas4 = 1;\n        gas5 = 1;\n        gas6 = 1;\n        gas7 = 1;\n        gas8 = 1;\n        gas9 = 1;\n        gas10 = 1;\n        gas11 = 1;\n    }\n\n    /**\n     * @dev Returns summary of machine requirements for play and payout multiplier.\n     */\n    function getSummary() public view returns(uint, uint, uint, uint) {\n        //minBet, maxBet, payout, maxPick\n        return(minBet, maxBet, payout, maxPick);\n    }\n\n    // Authorized Functions\n    /**\n     * @dev Request a refund for an unplayed game. If game is created, but\n     * machine conditions are not appropriate to allow play, no number will\n     * be generated and player or authorized address can request refund.\n     * Regardless of who requests refund, payout will always be to player\n     * listed in game.\n     */\n    function requestRefund(uint gameID) public{\n        Game storage g = games[gameID];\n        require(authorizedAddress[msg.sender] || owner() == msg.sender || g.player == msg.sender, \"Not authorized to request refund\");\n        require(g.played == false, \"Game already complete. No refund possible.\");\n        require(address(this).balance >= g.bet, \"Contract balance too low. Please try again later.\");\n        g.played = true;\n        if(_unplayedBets >= g.bet) {\n            _unplayedBets -= g.bet;\n        } else {\n            _unplayedBets = 0;\n        }\n        g.player.transfer(g.bet);\n    }\n\n    /**\n     * @dev Withdraw specified amount of ETH from machine. Amount must be less than\n     * any unplayed bets in machine to allow for refunds.\n     */\n    function withdrawEth(uint amount) public onlyAuthorized {\n        require ((address(this).balance - amount) >= _unplayedBets, \"Can't withdraw unplayed bets\");\n        payoutAddress.transfer(amount);\n    }\n\n    /**\n     * @dev Withdraw specified amount of LINK from machine.\n     */\n    function withdrawLink(uint amount) public onlyAuthorized {\n        LINK.transfer(payoutAddress, amount);\n    }\n\n    // Owner Functions\n    /**\n     * @dev Add any address as authorized user. Can be used to whitelist other contracts\n     * that may want to interact with authorized functions.\n     */\n    function setAuthorizedUser(address userAddress, bool authorized) public onlyOwner {\n        authorizedAddress[userAddress] = authorized;\n    }\n\n    /**\n     * @dev Updates the address to which all withdrawals of ETH & LINK will be sent. If\n     * machine is closed (all funds withdrawn), this address receives all available funds.\n     */\n    function setPayoutAddress(address payable _payoutAddress) public onlyOwner {\n        payoutAddress = _payoutAddress;\n    }\n\n    /**\n     * @dev Withdraws all available funds from the machine, leaving behind only\n     * _unplayedBets, which must remain for any refund requests. This does not\n     * do anything to halt operations other than removing funding, which\n     * automatically disallows play. If machine is re-funded, play may continue.\n     */\n    function closeMachine() public onlyOwner {\n        uint availableContractBalance = address(this).balance.sub(_unplayedBets);\n        payoutAddress.transfer(availableContractBalance);\n\n        if (LINK.balanceOf(address(this)) > 0) {\n            LINK.transfer(payoutAddress, LINK.balanceOf(address(this)));\n        }\n    }\n\n    /**\n     * @dev Can update LINK address if necessary. Should not have to call this,\n     * but herein case token address is updated for any reason. Can also be set to any\n     * ERC-20 token in case of other tokens inadvertently sent to contract.\n     */\n    function setLINK(address _linkAddress) public onlyOwner {\n        LINK = LinkTokenInterface(_linkAddress);\n    }\n\n    /**\n     * @dev Option to replay any games that may have been created, but unable to complete initial\n     * play for some reason. Unplayed games may be refunded or replayed until the number has been\n     * generated and game is marked as played.\n     */\n    function replayGame(uint gameID) public onlyOwner {\n        playGame(gameID);\n    }\n\n}\n\ncontract LuckyMachineFactory{\n    address[] public machines;\n    mapping(address => address[]) private ownedMachines;\n\n    /**\n     * @dev Used to create a LuckyMachine that can be verified and included in the\n     * factory list.\n     */\n    function createMachine(address payable machineCoordinator, address linkToken, uint maxBet, uint minBet, uint maxPick, uint payout) public returns(address){\n        LuckyMachine newMachine = new LuckyMachine(machineCoordinator, msg.sender, linkToken, maxBet, minBet, maxPick, payout);\n        newMachine.transferOwnership(msg.sender);\n        address newMachineAddress = address(newMachine);\n        machines.push(newMachineAddress);\n        ownedMachines[msg.sender].push(newMachineAddress);\n        return newMachineAddress;\n    }\n\n    /**\n     * @dev Returns a list of all machines created from this factory. Useful to verify\n     * a machine was setup appropriately and is a \"legitimate\" LuckyMachine.\n     */\n    function getMachines() public view returns (address[] memory) {\n        return machines;\n    }\n\n    /**\n     * @dev Returns a list of all machines created by the sender.\n     */\n    function getOwnedMachines() public view returns (address[] memory) {\n        return ownedMachines[msg.sender];\n    }\n}\n",
  "sourcePath": "@luckymachines/contracts/src/v0.1/LuckyMachines.sol",
  "compiler": {
    "name": "solc",
    "version": "0.6.12+commit.27d51765.Emscripten.clang"
  },
  "schemaVersion": "3.3.4",
  "updatedAt": "2021-03-30T05:44:06.508Z",
  "networkType": "ethereum",
  "devdoc": {
    "kind": "dev",
    "methods": {
      "createMachine(address,address,uint256,uint256,uint256,uint256)": {
        "details": "Used to create a LuckyMachine that can be verified and included in the factory list."
      },
      "getMachines()": {
        "details": "Returns a list of all machines created from this factory. Useful to verify a machine was setup appropriately and is a \"legitimate\" LuckyMachine."
      },
      "getOwnedMachines()": {
        "details": "Returns a list of all machines created by the sender."
      }
    },
    "version": 1
  },
  "userdoc": {
    "kind": "user",
    "methods": {},
    "version": 1
  }
}