{
  "contractName": "LuckyMachineJackpotFactory",
  "abi": [
    {
      "inputs": [
        {
          "internalType": "uint256",
          "name": "",
          "type": "uint256"
        }
      ],
      "name": "machines",
      "outputs": [
        {
          "internalType": "address",
          "name": "",
          "type": "address"
        }
      ],
      "stateMutability": "view",
      "type": "function"
    },
    {
      "inputs": [
        {
          "internalType": "address payable",
          "name": "jackpotAddress",
          "type": "address"
        },
        {
          "internalType": "address payable",
          "name": "machineCoordinator",
          "type": "address"
        },
        {
          "internalType": "address",
          "name": "linkToken",
          "type": "address"
        },
        {
          "internalType": "uint256",
          "name": "entryFee",
          "type": "uint256"
        },
        {
          "internalType": "uint256",
          "name": "maxPick",
          "type": "uint256"
        },
        {
          "internalType": "uint8",
          "name": "totalPicks",
          "type": "uint8"
        },
        {
          "internalType": "uint8[]",
          "name": "winningMatchQuantities",
          "type": "uint8[]"
        },
        {
          "internalType": "uint256[]",
          "name": "winningMatchPayouts",
          "type": "uint256[]"
        }
      ],
      "name": "createMachine",
      "outputs": [
        {
          "internalType": "address",
          "name": "",
          "type": "address"
        }
      ],
      "stateMutability": "nonpayable",
      "type": "function"
    },
    {
      "inputs": [],
      "name": "getMachines",
      "outputs": [
        {
          "internalType": "address[]",
          "name": "",
          "type": "address[]"
        }
      ],
      "stateMutability": "view",
      "type": "function"
    },
    {
      "inputs": [],
      "name": "getOwnedMachines",
      "outputs": [
        {
          "internalType": "address[]",
          "name": "",
          "type": "address[]"
        }
      ],
      "stateMutability": "view",
      "type": "function"
    }
  ],
  "bytecode": "0x608060405234801561001057600080fd5b506151ec806100206000396000f3fe60806040523480156200001157600080fd5b5060043610620000525760003560e01c80631345714714620000575780632eb4761314620002585780634d42845c14620002bb57806352b07b341462000316575b600080fd5b6200022c60048036036101008110156200007057600080fd5b81019080803573ffffffffffffffffffffffffffffffffffffffff169060200190929190803573ffffffffffffffffffffffffffffffffffffffff169060200190929190803573ffffffffffffffffffffffffffffffffffffffff1690602001909291908035906020019092919080359060200190929190803560ff169060200190929190803590602001906401000000008111156200010f57600080fd5b8201836020820111156200012257600080fd5b803590602001918460208302840111640100000000831117156200014557600080fd5b919080806020026020016040519081016040528093929190818152602001838360200280828437600081840152601f19601f82011690508083019250505050505050919291929080359060200190640100000000811115620001a657600080fd5b820183602082011115620001b957600080fd5b80359060200191846020830284011164010000000083111715620001dc57600080fd5b919080806020026020016040519081016040528093929190818152602001838360200280828437600081840152601f19601f82011690508083019250505050505050919291929050505062000379565b604051808273ffffffffffffffffffffffffffffffffffffffff16815260200191505060405180910390f35b6200026262000672565b6040518080602001828103825283818151815260200191508051906020019060200280838360005b83811015620002a75780820151818401526020810190506200028a565b505050509050019250505060405180910390f35b620002ea60048036036020811015620002d357600080fd5b81019080803590602001909291905050506200073f565b604051808273ffffffffffffffffffffffffffffffffffffffff16815260200191505060405180910390f35b620003206200077c565b6040518080602001828103825283818151815260200191508051906020019060200280838360005b838110156200036557808201518184015260208101905062000348565b505050509050019250505060405180910390f35b6000808989338a8a8a8a8a8a60405162000393906200080c565b808a73ffffffffffffffffffffffffffffffffffffffff1681526020018973ffffffffffffffffffffffffffffffffffffffff1681526020018873ffffffffffffffffffffffffffffffffffffffff1681526020018773ffffffffffffffffffffffffffffffffffffffff1681526020018681526020018581526020018460ff1681526020018060200180602001838103835285818151815260200191508051906020019060200280838360005b838110156200045e57808201518184015260208101905062000441565b50505050905001838103825284818151815260200191508051906020019060200280838360005b83811015620004a257808201518184015260208101905062000485565b505050509050019b505050505050505050505050604051809103906000f080158015620004d3573d6000803e3d6000fd5b5090508073ffffffffffffffffffffffffffffffffffffffff1663f2fde38b336040518263ffffffff1660e01b8152600401808273ffffffffffffffffffffffffffffffffffffffff168152602001915050600060405180830381600087803b1580156200054057600080fd5b505af115801562000555573d6000803e3d6000fd5b5050505060008190506000819080600181540180825580915050600190039060005260206000200160009091909190916101000a81548173ffffffffffffffffffffffffffffffffffffffff021916908373ffffffffffffffffffffffffffffffffffffffff160217905550600160003373ffffffffffffffffffffffffffffffffffffffff1673ffffffffffffffffffffffffffffffffffffffff168152602001908152602001600020819080600181540180825580915050600190039060005260206000200160009091909190916101000a81548173ffffffffffffffffffffffffffffffffffffffff021916908373ffffffffffffffffffffffffffffffffffffffff160217905550809250505098975050505050505050565b6060600160003373ffffffffffffffffffffffffffffffffffffffff1673ffffffffffffffffffffffffffffffffffffffff1681526020019081526020016000208054806020026020016040519081016040528092919081815260200182805480156200073557602002820191906000526020600020905b8160009054906101000a900473ffffffffffffffffffffffffffffffffffffffff1673ffffffffffffffffffffffffffffffffffffffff1681526020019060010190808311620006ea575b5050505050905090565b600081815481106200074d57fe5b906000526020600020016000915054906101000a900473ffffffffffffffffffffffffffffffffffffffff1681565b606060008054806020026020016040519081016040528092919081815260200182805480156200080257602002820191906000526020600020905b8160009054906101000a900473ffffffffffffffffffffffffffffffffffffffff1673ffffffffffffffffffffffffffffffffffffffff1681526020019060010190808311620007b7575b5050505050905090565b61499c806200081b8339019056fe60806040526019601f60006101000a81548160ff021916908360ff1602179055506064601f60016101000a81548160ff021916908360ff1602179055503480156200004957600080fd5b506040516200499c3803806200499c83398181016040526101208110156200007057600080fd5b810190808051906020019092919080519060200190929190805190602001909291908051906020019092919080519060200190929190805190602001909291908051906020019092919080516040519392919084640100000000821115620000d757600080fd5b83820191506020820185811115620000ee57600080fd5b82518660208202830111640100000000821117156200010c57600080fd5b8083526020830192505050908051906020019060200280838360005b838110156200014557808201518184015260208101905062000128565b50505050905001604052602001805160405193929190846401000000008211156200016f57600080fd5b838201915060208201858111156200018657600080fd5b8251866020820283011164010000000082111715620001a457600080fd5b8083526020830192505050908051906020019060200280838360005b83811015620001dd578082015181840152602081019050620001c0565b50505050905001604052505050878787878888600080620002036200078860201b60201c565b9050806000806101000a81548173ffffffffffffffffffffffffffffffffffffffff021916908373ffffffffffffffffffffffffffffffffffffffff1602179055508073ffffffffffffffffffffffffffffffffffffffff16600073ffffffffffffffffffffffffffffffffffffffff167f8be0079c531659141344cd1fd0a4f28419497f9722a3daafe3b4186f6b6457e060405160405180910390a35086600260006101000a81548173ffffffffffffffffffffffffffffffffffffffff021916908373ffffffffffffffffffffffffffffffffffffffff1602179055506001601281905550600060118190555085601360006101000a81548173ffffffffffffffffffffffffffffffffffffffff021916908373ffffffffffffffffffffffffffffffffffffffff1602179055508260108190555083600f8190555081600e819055508060148190555060016003819055506001600481905550600160058190555060016006819055506001600781905550600160088190555060016009819055506001600a819055506001600b819055506001600c819055506001600d8190555084600160006101000a81548173ffffffffffffffffffffffffffffffffffffffff021916908373ffffffffffffffffffffffffffffffffffffffff16021790555060007fffffffffffffffffffffffffffffffffffffffffffffffffffffffffffffffff9050600160009054906101000a900473ffffffffffffffffffffffffffffffffffffffff1673ffffffffffffffffffffffffffffffffffffffff1663095ea7b3600260009054906101000a900473ffffffffffffffffffffffffffffffffffffffff16836040518363ffffffff1660e01b8152600401808373ffffffffffffffffffffffffffffffffffffffff16815260200182815260200192505050602060405180830381600087803b158015620004c357600080fd5b505af1158015620004d8573d6000803e3d6000fd5b505050506040513d6020811015620004ef57600080fd5b8101908080519060200190929190505050505050505050505050601f60019054906101000a900460ff1660ff1684111562000592576040517f08c379a000000000000000000000000000000000000000000000000000000000815260040180806020018281038252601a8152602001807f53696e676c65207069636b206c696d697420657863656564656400000000000081525060200191505060405180910390fd5b8051825114620005ee576040517f08c379a000000000000000000000000000000000000000000000000000000000815260040180806020018281038252602b81526020018062004971602b913960400191505060405180910390fd5b601f60009054906101000a900460ff1660ff16825111156200060f57600080fd5b82601c60006101000a81548160ff021916908360ff16021790555060005b82518160ff1610156200069457818160ff16815181106200064a57fe5b6020026020010151601b6000858460ff16815181106200066657fe5b602002602001015160ff1660ff1681526020019081526020016000208190555080806001019150506200062d565b5081601d9080519060200190620006ad92919062000790565b5088601a60006101000a81548173ffffffffffffffffffffffffffffffffffffffff021916908373ffffffffffffffffffffffffffffffffffffffff1602179055506000601a60009054906101000a900473ffffffffffffffffffffffffffffffffffffffff1690508073ffffffffffffffffffffffffffffffffffffffff1663d2154c926040518163ffffffff1660e01b8152600401600060405180830381600087803b1580156200075f57600080fd5b505af115801562000774573d6000803e3d6000fd5b505050505050505050505050505062000868565b600033905090565b82805482825590600052602060002090601f016020900481019282156200082b5791602002820160005b83821115620007fa57835183826101000a81548160ff021916908360ff1602179055509260200192600101602081600001049283019260010302620007ba565b8015620008295782816101000a81549060ff0219169055600101602081600001049283019260010302620007fa565b505b5090506200083a91906200083e565b5090565b5b808211156200086457600081816101000a81549060ff0219169055506001016200083f565b5090565b6140f980620008786000396000f3fe6080604052600436106102345760003560e01c80638da5cb5b1161012e578063b93030b3116100ab578063dfad4c111161006f578063dfad4c1114611082578063f039d9d5146110e9578063f2fde38b14611117578063f31a4dcd14611168578063f50ceb4c146111a35761023b565b8063b93030b314610f00578063bd23774114610f17578063c311d04914610f21578063d0196fb714610f5c578063d9e721f8146110345761023b565b8063a4b2409e116100f2578063a4b2409e14610c51578063a744bdc814610c8c578063ac150fd814610dfc578063b1017eb714610e4a578063b843f5ab14610e9b5761023b565b80638da5cb5b146109895780639619367d146109ca5780639b582e41146109f5578063a02e061614610ba3578063a249225e14610bf45761023b565b80634051ddac116101bc5780636bf90c84116101805780636bf90c84146107315780636da64a5e146107e5578063715018a6146108b45780637a8042bd146108cb57806383bec993146109065761023b565b80634051ddac1461061957806350c5f975146106595780635b8d02d71461068457806363bd1d4a146106c55780636bc0b3ba146106f05761023b565b80632da6eb0c116102035780632da6eb0c146104385780632e5b21681461050b5780632ee42d8a1461053657806333ea51a8146105615780633638104a146105b25761023b565b80630c610a1214610240578063117a5b901461029157806313cbf8c31461031b57806319465b7c146103f75761023b565b3661023b57005b600080fd5b34801561024c57600080fd5b506102796004803603602081101561026357600080fd5b810190808035906020019092919050505061127b565b60405180821515815260200191505060405180910390f35b34801561029d57600080fd5b506102ca600480360360208110156102b457600080fd5b81019080803590602001909291905050506112f9565b604051808781526020018673ffffffffffffffffffffffffffffffffffffffff1681526020018581526020018481526020018381526020018215158152602001965050505050505060405180910390f35b34801561032757600080fd5b506103de6004803603602081101561033e57600080fd5b810190808035906020019064010000000081111561035b57600080fd5b82018360208201111561036d57600080fd5b8035906020019184602083028401116401000000008311171561038f57600080fd5b919080806020026020016040519081016040528093929190818152602001838360200280828437600081840152601f19601f820116905080830192505050505050509192919290505050611362565b604051808260ff16815260200191505060405180910390f35b34801561040357600080fd5b5061040c6113b0565b604051808273ffffffffffffffffffffffffffffffffffffffff16815260200191505060405180910390f35b34801561044457600080fd5b5061044d6113d6565b6040518087815260200180602001806020018681526020018560ff168152602001848152602001838103835288818151815260200191508051906020019060200280838360005b838110156104af578082015181840152602081019050610494565b50505050905001838103825287818151815260200191508051906020019060200280838360005b838110156104f15780820151818401526020810190506104d6565b505050509050019850505050505050505060405180910390f35b34801561051757600080fd5b50610520611600565b6040518082815260200191505060405180910390f35b34801561054257600080fd5b5061054b611606565b6040518082815260200191505060405180910390f35b34801561056d57600080fd5b506105b06004803603602081101561058457600080fd5b81019080803573ffffffffffffffffffffffffffffffffffffffff16906020019092919050505061160c565b005b3480156105be57600080fd5b50610601600480360360208110156105d557600080fd5b81019080803573ffffffffffffffffffffffffffffffffffffffff1690602001909291905050506116ff565b60405180821515815260200191505060405180910390f35b34801561062557600080fd5b5061062e61171f565b6040518085815260200184815260200183815260200182815260200194505050505060405180910390f35b34801561066557600080fd5b5061066e61173f565b6040518082815260200191505060405180910390f35b34801561069057600080fd5b5061069961180a565b604051808273ffffffffffffffffffffffffffffffffffffffff16815260200191505060405180910390f35b3480156106d157600080fd5b506106da611830565b6040518082815260200191505060405180910390f35b3480156106fc57600080fd5b50610705611836565b604051808273ffffffffffffffffffffffffffffffffffffffff16815260200191505060405180910390f35b34801561073d57600080fd5b5061074661185c565b604051808060200180602001838103835285818151815260200191508051906020019060200280838360005b8381101561078d578082015181840152602081019050610772565b50505050905001838103825284818151815260200191508051906020019060200280838360005b838110156107cf5780820151818401526020810190506107b4565b5050505090500194505050505060405180910390f35b3480156107f157600080fd5b506108b26004803603604081101561080857600080fd5b81019080803590602001909291908035906020019064010000000081111561082f57600080fd5b82018360208201111561084157600080fd5b8035906020019184602083028401116401000000008311171561086357600080fd5b919080806020026020016040519081016040528093929190818152602001838360200280828437600081840152601f19601f8201169050808301925050505050505091929192905050506119af565b005b3480156108c057600080fd5b506108c9611fa0565b005b3480156108d757600080fd5b50610904600480360360208110156108ee57600080fd5b810190808035906020019092919050505061210d565b005b34801561091257600080fd5b5061093f6004803603602081101561092957600080fd5b81019080803590602001909291905050506122fd565b604051808681526020018573ffffffffffffffffffffffffffffffffffffffff16815260200184815260200183815260200182151581526020019550505050505060405180910390f35b34801561099557600080fd5b5061099e612360565b604051808273ffffffffffffffffffffffffffffffffffffffff16815260200191505060405180910390f35b3480156109d657600080fd5b506109df612389565b6040518082815260200191505060405180910390f35b348015610a0157600080fd5b50610b4c60048036036040811015610a1857600080fd5b8101908080359060200190640100000000811115610a3557600080fd5b820183602082011115610a4757600080fd5b80359060200191846020830284011164010000000083111715610a6957600080fd5b919080806020026020016040519081016040528093929190818152602001838360200280828437600081840152601f19601f82011690508083019250505050505050919291929080359060200190640100000000811115610ac957600080fd5b820183602082011115610adb57600080fd5b80359060200191846020830284011164010000000083111715610afd57600080fd5b919080806020026020016040519081016040528093929190818152602001838360200280828437600081840152601f19601f82011690508083019250505050505050919291929050505061238f565b6040518080602001828103825283818151815260200191508051906020019060200280838360005b83811015610b8f578082015181840152602081019050610b74565b505050509050019250505060405180910390f35b348015610baf57600080fd5b50610bf260048036036020811015610bc657600080fd5b81019080803573ffffffffffffffffffffffffffffffffffffffff16906020019092919050505061250f565b005b348015610c0057600080fd5b50610c4f60048036036040811015610c1757600080fd5b81019080803573ffffffffffffffffffffffffffffffffffffffff169060200190929190803515159060200190929190505050612602565b005b348015610c5d57600080fd5b50610c8a60048036036020811015610c7457600080fd5b810190808035906020019092919050505061270c565b005b348015610c9857600080fd5b50610de360048036036040811015610caf57600080fd5b8101908080359060200190640100000000811115610ccc57600080fd5b820183602082011115610cde57600080fd5b80359060200191846020830284011164010000000083111715610d0057600080fd5b919080806020026020016040519081016040528093929190818152602001838360200280828437600081840152601f19601f82011690508083019250505050505050919291929080359060200190640100000000811115610d6057600080fd5b820183602082011115610d7257600080fd5b80359060200191846020830284011164010000000083111715610d9457600080fd5b919080806020026020016040519081016040528093929190818152602001838360200280828437600081840152601f19601f820116905080830192505050505050509192919290505050612a03565b604051808260ff16815260200191505060405180910390f35b610e4860048036036040811015610e1257600080fd5b81019080803573ffffffffffffffffffffffffffffffffffffffff16906020019092919080359060200190929190505050612a1f565b005b348015610e5657600080fd5b50610e8360048036036020811015610e6d57600080fd5b8101908080359060200190929190505050612a7a565b60405180821515815260200191505060405180910390f35b348015610ea757600080fd5b50610eea60048036036020811015610ebe57600080fd5b81019080803573ffffffffffffffffffffffffffffffffffffffff169060200190929190505050612c08565b6040518082815260200191505060405180910390f35b348015610f0c57600080fd5b50610f15612c20565b005b610f1f612fd5565b005b348015610f2d57600080fd5b50610f5a60048036036020811015610f4457600080fd5b8101908080359060200190929190505050613060565b005b61103260048036036040811015610f7257600080fd5b81019080803573ffffffffffffffffffffffffffffffffffffffff16906020019092919080359060200190640100000000811115610faf57600080fd5b820183602082011115610fc157600080fd5b80359060200191846020830284011164010000000083111715610fe357600080fd5b919080806020026020016040519081016040528093929190818152602001838360200280828437600081840152601f19601f820116905080830192505050505050509192919290505050613242565b005b6110806004803603604081101561104a57600080fd5b81019080803573ffffffffffffffffffffffffffffffffffffffff1690602001909291908035906020019092919050505061354a565b005b34801561108e57600080fd5b506110d1600480360360208110156110a557600080fd5b81019080803573ffffffffffffffffffffffffffffffffffffffff1690602001909291905050506135a5565b60405180821515815260200191505060405180910390f35b3480156110f557600080fd5b506110fe6135c5565b604051808260ff16815260200191505060405180910390f35b34801561112357600080fd5b506111666004803603602081101561113a57600080fd5b81019080803573ffffffffffffffffffffffffffffffffffffffff1690602001909291905050506135d8565b005b34801561117457600080fd5b506111a16004803603602081101561118b57600080fd5b81019080803590602001909291905050506137ca565b005b611279600480360360408110156111b957600080fd5b81019080803573ffffffffffffffffffffffffffffffffffffffff169060200190929190803590602001906401000000008111156111f657600080fd5b82018360208201111561120857600080fd5b8035906020019184602083028401116401000000008311171561122a57600080fd5b919080806020026020016040519081016040528093929190818152602001838360200280828437600081840152601f19601f820116905080830192505050505050509192919290505050613885565b005b6000601b6000601d61129c6001601d805490506139c690919063ffffffff16565b815481106112a657fe5b90600052602060002090602091828204019190069054906101000a900460ff1660ff1660ff168152602001908152602001600020546112f0601154476139c690919063ffffffff16565b10159050919050565b60176020528060005260406000206000915090508060000154908060010160009054906101000a900473ffffffffffffffffffffffffffffffffffffffff16908060020154908060030154908060040154908060050160009054906101000a900460ff16905086565b6000806000905060005b83518110156113a657600084828151811061138357fe5b6020026020010151146113995781806001019250505b808060010191505061136c565b5080915050919050565b600260009054906101000a900473ffffffffffffffffffffffffffffffffffffffff1681565b6000606080600080600080601a60009054906101000a900473ffffffffffffffffffffffffffffffffffffffff16905060008173ffffffffffffffffffffffffffffffffffffffff166312065fe06040518163ffffffff1660e01b815260040160206040518083038186803b15801561144e57600080fd5b505afa158015611462573d6000803e3d6000fd5b505050506040513d602081101561147857600080fd5b810190808051906020019092919050505090506060601d8054905067ffffffffffffffff811180156114a957600080fd5b506040519080825280602002602001820160405280156114d85781602001602082028036833780820191505090505b50905060005b601d8054905081101561155657601b6000601d83815481106114fc57fe5b90600052602060002090602091828204019190069054906101000a900460ff1660ff1660ff1681526020019081526020016000205482828151811061153d57fe5b60200260200101818152505080806001019150506114de565b50601054601d82600e54601c60009054906101000a900460ff1686848054806020026020016040519081016040528092919081815260200182805480156115e257602002820191906000526020600020906000905b82829054906101000a900460ff1660ff16815260200190600101906020826000010492830192600103820291508084116115ab5790505b50505050509450985098509850985098509850505050909192939495565b600f5481565b600e5481565b611614613a4f565b73ffffffffffffffffffffffffffffffffffffffff16611632612360565b73ffffffffffffffffffffffffffffffffffffffff16146116bb576040517f08c379a00000000000000000000000000000000000000000000000000000000081526004018080602001828103825260208152602001807f4f776e61626c653a2063616c6c6572206973206e6f7420746865206f776e657281525060200191505060405180910390fd5b80601360006101000a81548173ffffffffffffffffffffffffffffffffffffffff021916908373ffffffffffffffffffffffffffffffffffffffff16021790555050565b60156020528060005260406000206000915054906101000a900460ff1681565b600080600080601054600f54601454600e54935093509350935090919293565b6000600160009054906101000a900473ffffffffffffffffffffffffffffffffffffffff1673ffffffffffffffffffffffffffffffffffffffff166370a08231306040518263ffffffff1660e01b8152600401808273ffffffffffffffffffffffffffffffffffffffff16815260200191505060206040518083038186803b1580156117ca57600080fd5b505afa1580156117de573d6000803e3d6000fd5b505050506040513d60208110156117f457600080fd5b8101908080519060200190929190505050905090565b601360009054906101000a900473ffffffffffffffffffffffffffffffffffffffff1681565b60145481565b601a60009054906101000a900473ffffffffffffffffffffffffffffffffffffffff1681565b6060806060601d8054905067ffffffffffffffff8111801561187d57600080fd5b506040519080825280602002602001820160405280156118ac5781602001602082028036833780820191505090505b50905060005b601d8054905081101561192a57601b6000601d83815481106118d057fe5b90600052602060002090602091828204019190069054906101000a900460ff1660ff1660ff1681526020019081526020016000205482828151811061191157fe5b60200260200101818152505080806001019150506118b2565b50601d818180548060200260200160405190810160405280929190818152602001828054801561199f57602002820191906000526020600020906000905b82829054906101000a900460ff1660ff16815260200190600101906020826000010492830192600103820291508084116119685790505b5050505050915092509250509091565b600260009054906101000a900473ffffffffffffffffffffffffffffffffffffffff1673ffffffffffffffffffffffffffffffffffffffff163373ffffffffffffffffffffffffffffffffffffffff1614611a0957600080fd5b6000601e600060186000868152602001908152602001600020548152602001908152602001600020905060008160000154118015611a5c5750600015158160060160009054906101000a900460ff161515145b15611f4357600f5481600201541115611a7b57600f5481600201819055505b611a85600161127b565b611a8e57600080fd5b60005b601c60009054906101000a900460ff1660ff168160ff161015611b1957611aec6001611ade600e54868560ff1681518110611ac857fe5b6020026020010151613a5790919063ffffffff16565b613ae190919063ffffffff16565b826004018260ff1681548110611afe57fe5b90600052602060002001819055508080600101915050611a91565b5060018160060160006101000a81548160ff021916908315150217905550806002015460115410611b5d578060020154601160008282540392505081905550611b66565b60006011819055505b6000611c1682600301805480602002602001604051908101604052809291908181526020018280548015611bb957602002820191906000526020600020905b815481526020019060010190808311611ba5575b505050505083600401805480602002602001604051908101604052809291908181526020018280548015611c0c57602002820191906000526020600020905b815481526020019060010190808311611bf8575b5050505050612a03565b90506000808260ff161115611e2057601c60009054906101000a900460ff1660ff168260ff161415611d97576000601a60009054906101000a900473ffffffffffffffffffffffffffffffffffffffff1690508073ffffffffffffffffffffffffffffffffffffffff166312065fe06040518163ffffffff1660e01b815260040160206040518083038186803b158015611caf57600080fd5b505afa158015611cc3573d6000803e3d6000fd5b505050506040513d6020811015611cd957600080fd5b810190808051906020019092919050505091508073ffffffffffffffffffffffffffffffffffffffff16630c1e8bc18560010160009054906101000a900473ffffffffffffffffffffffffffffffffffffffff166040518263ffffffff1660e01b8152600401808273ffffffffffffffffffffffffffffffffffffffff168152602001915050600060405180830381600087803b158015611d7957600080fd5b505af1158015611d8d573d6000803e3d6000fd5b5050505050611e1f565b601b60008360ff1660ff1681526020019081526020016000205490508260010160009054906101000a900473ffffffffffffffffffffffffffffffffffffffff1673ffffffffffffffffffffffffffffffffffffffff166108fc829081150290604051600060405180830381858888f19350505050158015611e1d573d6000803e3d6000fd5b505b5b8083600501819055507fa6cb1ec482c3fc2195375d491afa6cd9c444f72990732d47680ebe021b0045da8360010160009054906101000a900473ffffffffffffffffffffffffffffffffffffffff168460020154856003018660040185604051808673ffffffffffffffffffffffffffffffffffffffff16815260200185815260200180602001806020018481526020018381038352868181548152602001915080548015611eee57602002820191906000526020600020905b815481526020019060010190808311611eda575b50508381038252858181548152602001915080548015611f2d57602002820191906000526020600020905b815481526020019060010190808311611f19575b505097505050505050505060405180910390a150505b60016003819055506001600481905550600160058190555060016006819055506001600781905550600160088190555060016009819055506001600a819055506001600b819055506001600c819055506001600d81905550505050565b611fa8613a4f565b73ffffffffffffffffffffffffffffffffffffffff16611fc6612360565b73ffffffffffffffffffffffffffffffffffffffff161461204f576040517f08c379a00000000000000000000000000000000000000000000000000000000081526004018080602001828103825260208152602001807f4f776e61626c653a2063616c6c6572206973206e6f7420746865206f776e657281525060200191505060405180910390fd5b600073ffffffffffffffffffffffffffffffffffffffff1660008054906101000a900473ffffffffffffffffffffffffffffffffffffffff1673ffffffffffffffffffffffffffffffffffffffff167f8be0079c531659141344cd1fd0a4f28419497f9722a3daafe3b4186f6b6457e060405160405180910390a360008060006101000a81548173ffffffffffffffffffffffffffffffffffffffff021916908373ffffffffffffffffffffffffffffffffffffffff160217905550565b3373ffffffffffffffffffffffffffffffffffffffff1661212c612360565b73ffffffffffffffffffffffffffffffffffffffff1614806121975750601560003373ffffffffffffffffffffffffffffffffffffffff1673ffffffffffffffffffffffffffffffffffffffff16815260200190815260200160002060009054906101000a900460ff165b612209576040517f08c379a00000000000000000000000000000000000000000000000000000000081526004018080602001828103825260188152602001807f63616c6c6572206973206e6f7420617574686f72697a6564000000000000000081525060200191505060405180910390fd5b600160009054906101000a900473ffffffffffffffffffffffffffffffffffffffff1673ffffffffffffffffffffffffffffffffffffffff1663a9059cbb601360009054906101000a900473ffffffffffffffffffffffffffffffffffffffff16836040518363ffffffff1660e01b8152600401808373ffffffffffffffffffffffffffffffffffffffff16815260200182815260200192505050602060405180830381600087803b1580156122be57600080fd5b505af11580156122d2573d6000803e3d6000fd5b505050506040513d60208110156122e857600080fd5b81019080805190602001909291905050505050565b601e6020528060005260406000206000915090508060000154908060010160009054906101000a900473ffffffffffffffffffffffffffffffffffffffff16908060020154908060050154908060060160009054906101000a900460ff16905085565b60008060009054906101000a900473ffffffffffffffffffffffffffffffffffffffff16905090565b60105481565b60608151835114612408576040517f08c379a000000000000000000000000000000000000000000000000000000000815260040180806020018281038252601a8152602001807f617272617973206d7573742062652073616d65206c656e67746800000000000081525060200191505060405180910390fd5b60008351905060608167ffffffffffffffff8111801561242757600080fd5b506040519080825280602002602001820160405280156124565781602001602082028036833780820191505090505b50905060005b828110156125035760005b838110156124f55785818151811061247b57fe5b602002602001015187838151811061248f57fe5b602002602001015114156124e8578682815181106124a957fe5b60200260200101518383815181106124bd57fe5b60200260200101818152505060008682815181106124d757fe5b6020026020010181815250506124f5565b8080600101915050612467565b50808060010191505061245c565b50809250505092915050565b612517613a4f565b73ffffffffffffffffffffffffffffffffffffffff16612535612360565b73ffffffffffffffffffffffffffffffffffffffff16146125be576040517f08c379a00000000000000000000000000000000000000000000000000000000081526004018080602001828103825260208152602001807f4f776e61626c653a2063616c6c6572206973206e6f7420746865206f776e657281525060200191505060405180910390fd5b80600160006101000a81548173ffffffffffffffffffffffffffffffffffffffff021916908373ffffffffffffffffffffffffffffffffffffffff16021790555050565b61260a613a4f565b73ffffffffffffffffffffffffffffffffffffffff16612628612360565b73ffffffffffffffffffffffffffffffffffffffff16146126b1576040517f08c379a00000000000000000000000000000000000000000000000000000000081526004018080602001828103825260208152602001807f4f776e61626c653a2063616c6c6572206973206e6f7420746865206f776e657281525060200191505060405180910390fd5b80601560008473ffffffffffffffffffffffffffffffffffffffff1673ffffffffffffffffffffffffffffffffffffffff16815260200190815260200160002060006101000a81548160ff0219169083151502179055505050565b6000601e60008381526020019081526020016000209050601560003373ffffffffffffffffffffffffffffffffffffffff1673ffffffffffffffffffffffffffffffffffffffff16815260200190815260200160002060009054906101000a900460ff16806127ad57503373ffffffffffffffffffffffffffffffffffffffff16612795612360565b73ffffffffffffffffffffffffffffffffffffffff16145b8061280757503373ffffffffffffffffffffffffffffffffffffffff168160010160009054906101000a900473ffffffffffffffffffffffffffffffffffffffff1673ffffffffffffffffffffffffffffffffffffffff16145b612879576040517f08c379a00000000000000000000000000000000000000000000000000000000081526004018080602001828103825260208152602001807f4e6f7420617574686f72697a656420746f207265717565737420726566756e6481525060200191505060405180910390fd5b600015158160060160009054906101000a900460ff161515146128e7576040517f08c379a000000000000000000000000000000000000000000000000000000000815260040180806020018281038252602a81526020018061409a602a913960400191505060405180910390fd5b8060020154471015612944576040517f08c379a00000000000000000000000000000000000000000000000000000000081526004018080602001828103825260318152602001806140696031913960400191505060405180910390fd5b60018160060160006101000a81548160ff021916908315150217905550806002015460115410612987578060020154601160008282540392505081905550612990565b60006011819055505b8060010160009054906101000a900473ffffffffffffffffffffffffffffffffffffffff1673ffffffffffffffffffffffffffffffffffffffff166108fc82600201549081150290604051600060405180830381858888f193505050501580156129fe573d6000803e3d6000fd5b505050565b6000612a17612a12848461238f565b611362565b905092915050565b6000612a76576040517f08c379a000000000000000000000000000000000000000000000000000000000815260040180806020018281038252603a81526020018061402f603a913960400191505060405180910390fd5b5050565b600080600260009054906101000a900473ffffffffffffffffffffffffffffffffffffffff16905060008173ffffffffffffffffffffffffffffffffffffffff166350c5f9756040518163ffffffff1660e01b815260040160206040518083038186803b158015612aea57600080fd5b505afa158015612afe573d6000803e3d6000fd5b505050506040513d6020811015612b1457600080fd5b810190808051906020019092919050505090506000600160009054906101000a900473ffffffffffffffffffffffffffffffffffffffff1673ffffffffffffffffffffffffffffffffffffffff166370a08231306040518263ffffffff1660e01b8152600401808273ffffffffffffffffffffffffffffffffffffffff16815260200191505060206040518083038186803b158015612bb257600080fd5b505afa158015612bc6573d6000803e3d6000fd5b505050506040513d6020811015612bdc57600080fd5b810190808051906020019092919050505090508481101580612bfe5750848210155b9350505050919050565b60196020528060005260406000206000915090505481565b612c28613a4f565b73ffffffffffffffffffffffffffffffffffffffff16612c46612360565b73ffffffffffffffffffffffffffffffffffffffff1614612ccf576040517f08c379a00000000000000000000000000000000000000000000000000000000081526004018080602001828103825260208152602001807f4f776e61626c653a2063616c6c6572206973206e6f7420746865206f776e657281525060200191505060405180910390fd5b6000612ce6601154476139c690919063ffffffff16565b9050601360009054906101000a900473ffffffffffffffffffffffffffffffffffffffff1673ffffffffffffffffffffffffffffffffffffffff166108fc829081150290604051600060405180830381858888f19350505050158015612d50573d6000803e3d6000fd5b506000600160009054906101000a900473ffffffffffffffffffffffffffffffffffffffff1673ffffffffffffffffffffffffffffffffffffffff166370a08231306040518263ffffffff1660e01b8152600401808273ffffffffffffffffffffffffffffffffffffffff16815260200191505060206040518083038186803b158015612ddc57600080fd5b505afa158015612df0573d6000803e3d6000fd5b505050506040513d6020811015612e0657600080fd5b81019080805190602001909291905050501115612fd257600160009054906101000a900473ffffffffffffffffffffffffffffffffffffffff1673ffffffffffffffffffffffffffffffffffffffff1663a9059cbb601360009054906101000a900473ffffffffffffffffffffffffffffffffffffffff16600160009054906101000a900473ffffffffffffffffffffffffffffffffffffffff1673ffffffffffffffffffffffffffffffffffffffff166370a08231306040518263ffffffff1660e01b8152600401808273ffffffffffffffffffffffffffffffffffffffff16815260200191505060206040518083038186803b158015612f0757600080fd5b505afa158015612f1b573d6000803e3d6000fd5b505050506040513d6020811015612f3157600080fd5b81019080805190602001909291905050506040518363ffffffff1660e01b8152600401808373ffffffffffffffffffffffffffffffffffffffff16815260200182815260200192505050602060405180830381600087803b158015612f9557600080fd5b505af1158015612fa9573d6000803e3d6000fd5b505050506040513d6020811015612fbf57600080fd5b8101908080519060200190929190505050505b50565b6000601a60009054906101000a900473ffffffffffffffffffffffffffffffffffffffff1690508073ffffffffffffffffffffffffffffffffffffffff1663256bcaa0346040518263ffffffff1660e01b81526004016000604051808303818588803b15801561304457600080fd5b505af1158015613058573d6000803e3d6000fd5b505050505050565b3373ffffffffffffffffffffffffffffffffffffffff1661307f612360565b73ffffffffffffffffffffffffffffffffffffffff1614806130ea5750601560003373ffffffffffffffffffffffffffffffffffffffff1673ffffffffffffffffffffffffffffffffffffffff16815260200190815260200160002060009054906101000a900460ff165b61315c576040517f08c379a00000000000000000000000000000000000000000000000000000000081526004018080602001828103825260188152602001807f63616c6c6572206973206e6f7420617574686f72697a6564000000000000000081525060200191505060405180910390fd5b60115481470310156131d6576040517f08c379a000000000000000000000000000000000000000000000000000000000815260040180806020018281038252601c8152602001807f43616e277420776974686472617720756e706c6179656420626574730000000081525060200191505060405180910390fd5b601360009054906101000a900473ffffffffffffffffffffffffffffffffffffffff1673ffffffffffffffffffffffffffffffffffffffff166108fc829081150290604051600060405180830381858888f1935050505015801561323e573d6000803e3d6000fd5b5050565b601c60009054906101000a900460ff1660ff168151146132ca576040517f08c379a00000000000000000000000000000000000000000000000000000000081526004018080602001828103825260198152602001807f496e636f7272656374206e756d626572206f66207069636b730000000000000081525060200191505060405180910390fd5b6132d33461127b565b613328576040517f08c379a0000000000000000000000000000000000000000000000000000000008152600401808060200182810382526036815260200180613fc06036913960400191505060405180910390fd5b60005b601c60009054906101000a900460ff1660ff168160ff16101561340557600e54828260ff168151811061335a57fe5b60200260200101511115801561338657506000828260ff168151811061337c57fe5b6020026020010151115b6133f8576040517f08c379a000000000000000000000000000000000000000000000000000000000815260040180806020018281038252601a8152602001807f4f757473696465206f66207069636b61626c6520626f756e647300000000000081525060200191505060405180910390fd5b808060010191505061332b565b5061340f34613b69565b613481576040517f08c379a00000000000000000000000000000000000000000000000000000000081526004018080602001828103825260158152602001807f4f757469736465206f66206265742072616e67652e000000000000000000000081525060200191505060405180910390fd5b600160035414156134cf57600360009055600460009055600560009055600660009055600760009055600860009055600960009055600a60009055600b60009055600c60009055600d600090555b6134e434601154613ae190919063ffffffff16565b6011819055506134f5823483613b97565b613500601254613d44565b601254601960008473ffffffffffffffffffffffffffffffffffffffff1673ffffffffffffffffffffffffffffffffffffffff168152602001908152602001600020819055505050565b60006135a1576040517f08c379a0000000000000000000000000000000000000000000000000000000008152600401808060200182810382526039815260200180613ff66039913960400191505060405180910390fd5b5050565b60166020528060005260406000206000915054906101000a900460ff1681565b601c60009054906101000a900460ff1681565b6135e0613a4f565b73ffffffffffffffffffffffffffffffffffffffff166135fe612360565b73ffffffffffffffffffffffffffffffffffffffff1614613687576040517f08c379a00000000000000000000000000000000000000000000000000000000081526004018080602001828103825260208152602001807f4f776e61626c653a2063616c6c6572206973206e6f7420746865206f776e657281525060200191505060405180910390fd5b600073ffffffffffffffffffffffffffffffffffffffff168173ffffffffffffffffffffffffffffffffffffffff16141561370d576040517f08c379a0000000000000000000000000000000000000000000000000000000008152600401808060200182810382526026815260200180613f9a6026913960400191505060405180910390fd5b8073ffffffffffffffffffffffffffffffffffffffff1660008054906101000a900473ffffffffffffffffffffffffffffffffffffffff1673ffffffffffffffffffffffffffffffffffffffff167f8be0079c531659141344cd1fd0a4f28419497f9722a3daafe3b4186f6b6457e060405160405180910390a3806000806101000a81548173ffffffffffffffffffffffffffffffffffffffff021916908373ffffffffffffffffffffffffffffffffffffffff16021790555050565b6137d2613a4f565b73ffffffffffffffffffffffffffffffffffffffff166137f0612360565b73ffffffffffffffffffffffffffffffffffffffff1614613879576040517f08c379a00000000000000000000000000000000000000000000000000000000081526004018080602001828103825260208152602001807f4f776e61626c653a2063616c6c6572206973206e6f7420746865206f776e657281525060200191505060405180910390fd5b61388281613d44565b50565b6010543410156138fd576040517f08c379a00000000000000000000000000000000000000000000000000000000081526004018080602001828103825260138152602001807f6d696e696d756d20626574206e6f74206d65740000000000000000000000000081525060200191505060405180910390fd5b6001600354141561394b57600360009055600460009055600560009055600660009055600760009055600860009055600960009055600a60009055600b60009055600c60009055600d600090555b61396034601154613ae190919063ffffffff16565b601181905550613971823483613b97565b61397c601254613d44565b601254601960008473ffffffffffffffffffffffffffffffffffffffff1673ffffffffffffffffffffffffffffffffffffffff168152602001908152602001600020819055505050565b600082821115613a3e576040517f08c379a000000000000000000000000000000000000000000000000000000000815260040180806020018281038252601e8152602001807f536166654d6174683a207375627472616374696f6e206f766572666c6f77000081525060200191505060405180910390fd5b600082840390508091505092915050565b600033905090565b600080821415613acf576040517f08c379a00000000000000000000000000000000000000000000000000000000081526004018080602001828103825260188152602001807f536166654d6174683a206d6f64756c6f206279207a65726f000000000000000081525060200191505060405180910390fd5b818381613ad857fe5b06905092915050565b600080828401905083811015613b5f576040517f08c379a000000000000000000000000000000000000000000000000000000000815260040180806020018281038252601b8152602001807f536166654d6174683a206164646974696f6e206f766572666c6f77000000000081525060200191505060405180910390fd5b8091505092915050565b60006010548210158015613b7f5750600f548211155b15613b8d5760019050613b92565b600090505b919050565b613bad6001601254613ae190919063ffffffff16565b601281905550613bbb613eda565b6040518060e0016040528060125481526020018573ffffffffffffffffffffffffffffffffffffffff168152602001848152602001838152602001601c60009054906101000a900460ff1660ff1667ffffffffffffffff81118015613c1f57600080fd5b50604051908082528060200260200182016040528015613c4e5781602001602082028036833780820191505090505b5081526020016000815260200160001515815250905080601e6000836000015181526020019081526020016000206000820151816000015560208201518160010160006101000a81548173ffffffffffffffffffffffffffffffffffffffff021916908373ffffffffffffffffffffffffffffffffffffffff160217905550604082015181600201556060820151816003019080519060200190613cf3929190613f2f565b506080820151816004019080519060200190613d10929190613f2f565b5060a0820151816005015560c08201518160060160006101000a81548160ff02191690831515021790555090505050505050565b60001515601e600083815260200190815260200160002060060160009054906101000a900460ff16151514613de1576040517f08c379a00000000000000000000000000000000000000000000000000000000081526004018080602001828103825260138152602001807f67616d6520616c726561647920706c617965640000000000000000000000000081525060200191505060405180910390fd5b6000613dfb601c60009054906101000a900460ff16613e19565b90508160186000838152602001908152602001600020819055505050565b600080600260009054906101000a900473ffffffffffffffffffffffffffffffffffffffff1690508073ffffffffffffffffffffffffffffffffffffffff166339418765846040518263ffffffff1660e01b8152600401808260ff168152602001915050602060405180830381600087803b158015613e9757600080fd5b505af1158015613eab573d6000803e3d6000fd5b505050506040513d6020811015613ec157600080fd5b8101908080519060200190929190505050915050919050565b6040518060e0016040528060008152602001600073ffffffffffffffffffffffffffffffffffffffff168152602001600081526020016060815260200160608152602001600081526020016000151581525090565b828054828255906000526020600020908101928215613f6b579160200282015b82811115613f6a578251825591602001919060010190613f4f565b5b509050613f789190613f7c565b5090565b5b80821115613f95576000816000905550600101613f7d565b509056fe4f776e61626c653a206e6577206f776e657220697320746865207a65726f2061646472657373436f6e74726163742068617320696e737566666963696e742066756e647320746f207061796f757420706f737369626c652077696e2e46756e6374696f6e206e6f74207573656420696e207468697320636f6e74726163742e2055736520736166654a61636b706f74426574466f7246756e6374696f6e206e6f74207573656420696e207468697320636f6e74726163742e2055736520706c6163654a61636b706f74426574466f72436f6e74726163742062616c616e636520746f6f206c6f772e20506c656173652074727920616761696e206c617465722e47616d6520616c726561647920636f6d706c6574652e204e6f20726566756e6420706f737369626c652ea264697066735822122089e5f59a12a421a34a02445c8117372d11ee7519976a5fb4c5770ec6b484646a64736f6c634300060c00334d617463682051747920262057696e205061796f757473206d7573742062652073616d65206c656e677468a2646970667358221220553dd151a2b3d562bf22e3f7997f35deb0f8117db49ffbc9a7d44ab55cda304364736f6c634300060c0033",
  "immutableReferences": {},
  "source": "pragma solidity ^0.6.0;\n\nimport \"./LuckyMachines.sol\";\nimport \"./Jackpots.sol\";\n\ncontract LuckyMachineJackpot is LuckyMachine {\n\n    address payable public jackpotAddress;\n\n    mapping(uint8 => uint256) internal _payouts; //(number of matches => amount paid out)\n    uint8 public totalPicks;\n    uint8[] internal winTiers;\n\n    struct JackpotGame {\n        uint id;\n        address payable player;\n        uint bet;\n        uint[] picks;\n        uint[] winners;\n        uint payout;\n        bool played;\n    }\n\n    mapping(uint => JackpotGame) public jackpotGames;\n\n    event JackpotGamePlayed(address _player, uint256 _bet, uint256[] _picks, uint256[] _winners, uint256 _payout);\n\n    // SAFE LIMITS\n    uint8 internal numPicksLimit = 25; //note: too many picks will return too small of numbers\n    uint8 internal singlePickLimit = 100; // highest single pick, if too high some numbers will never get picked\n\n    constructor(address payable _jackpotAddress, address payable _machineCoordinator, address payable _payoutAddress,  address _linkToken, uint _entryFee, uint _maxPick, uint8 _totalPicks, uint8[] memory _winningMatchQuantities, uint[] memory _winningMatchPayouts)\n            LuckyMachine(\n                _machineCoordinator,\n                _payoutAddress,\n                _linkToken,\n                _entryFee,\n                _entryFee,\n                _maxPick,\n                0 //payout - this contract uses other methods for payout structure\n            ) public {\n                require(_maxPick <= singlePickLimit, \"Single pick limit exceeded\");\n                require(_winningMatchQuantities.length == _winningMatchPayouts.length, \"Match Qty & Win Payouts must be same length\");\n                require(_winningMatchQuantities.length <= numPicksLimit);\n                totalPicks = _totalPicks;\n                for (uint8 i = 0; i < _winningMatchQuantities.length; i++) {\n                    _payouts[_winningMatchQuantities[i]] = _winningMatchPayouts[i];\n                }\n                winTiers = _winningMatchQuantities;\n                jackpotAddress = _jackpotAddress;\n                Jackpots jackpots = Jackpots(jackpotAddress);\n                jackpots.registerMachine();\n    }\n\n    function compare(uint[] memory arr1, uint[] memory arr2) public pure returns(uint[] memory) {\n        require(arr1.length == arr2.length, \"arrays must be same length\");\n        uint elements = arr1.length;\n        uint[] memory matches = new uint256[](elements);\n        for (uint i = 0; i < elements; i++) {\n            for(uint j = 0; j < elements; j++) {\n                if(arr1[i] == arr2[j]) {\n                    matches[i] = arr1[i];\n                    arr2[j] = 0;\n                    break;\n                }\n            }\n        }\n        return matches;\n    }\n\n    function countMatches(uint[] memory matches) public pure returns(uint8) {\n        uint8 matchCount = 0;\n        for(uint i = 0; i < matches.length; i++) {\n            if(matches[i] != 0) {\n                matchCount++;\n            }\n        }\n        return matchCount;\n    }\n\n    function checkPicks(uint[] memory userPicks, uint[] memory winningNumbers) public pure returns(uint8) {\n        return countMatches(compare(userPicks, winningNumbers));\n    }\n\n    // Returns [number of matches], [associated payout] e.g. [1,2,3], [100000...,200000...,300000...]\n    // These are independent of jackpot payout\n    function getPayouts() public view returns(uint8[] memory, uint256[] memory) {\n        uint[] memory tierPayouts = new uint[](winTiers.length);\n        for (uint i = 0; i < winTiers.length; i++) {\n            tierPayouts[i] = _payouts[winTiers[i]];\n        }\n        return (winTiers, tierPayouts);\n    }\n\n    function createJackpotGame(address payable _player, uint _bet, uint[] memory _picks) internal {\n        _currentGame = _currentGame.add(1);\n        JackpotGame memory newGame = JackpotGame ({\n            id: _currentGame,\n            player: _player,\n            bet: _bet,\n            picks: _picks,\n            winners: new uint[](totalPicks),\n            payout: 0,\n            played: false\n        });\n        jackpotGames[newGame.id] = newGame;\n    }\n\n    function safeJackpotBetFor(address payable player, uint[] memory picks) public payable{\n        require(picks.length == totalPicks, \"Incorrect number of picks\");\n        require(betPayable(msg.value), \"Contract has insufficint funds to payout possible win.\");\n        for(uint8 i = 0; i < totalPicks; i++){\n            require(picks[i] <= maxPick && picks[i] > 0, \"Outside of pickable bounds\");\n        }\n        require(betInRange(msg.value),\"Outisde of bet range.\");\n\n        if(gas1 == 1) {\n            delete gas1;\n            delete gas2;\n            delete gas3;\n            delete gas4;\n            delete gas5;\n            delete gas6;\n            delete gas7;\n            delete gas8;\n            delete gas9;\n            delete gas10;\n            delete gas11;\n        }\n\n        _unplayedBets = _unplayedBets.add(msg.value);\n        createJackpotGame(player, msg.value, picks);\n        playGame(_currentGame);\n        lastGameCreated[player] = _currentGame;\n    }\n\n    function placeJackpotBetFor(address payable player, uint[] memory picks) public payable{\n        require(msg.value >= minBet, \"minimum bet not met\");\n\n        if(gas1 == 1) {\n            delete gas1;\n            delete gas2;\n            delete gas3;\n            delete gas4;\n            delete gas5;\n            delete gas6;\n            delete gas7;\n            delete gas8;\n            delete gas9;\n            delete gas10;\n            delete gas11;\n        }\n\n        _unplayedBets = _unplayedBets.add(msg.value);\n        createJackpotGame(player, msg.value, picks);\n        playGame(_currentGame);\n        lastGameCreated[player] = _currentGame;\n    }\n\n    function getRandomNumbers(uint8 quantity) internal returns (bytes32 requestId) {\n        LuckyMachineCoordinator mc = LuckyMachineCoordinator(machineCoordinator);\n        return mc.getRandomNumbers(quantity);\n    }\n\n    function getJackpotMachineSummary() public view returns(uint, uint8[] memory, uint[] memory, uint, uint8, uint) {\n        //entryFee, payoutTiers, payouts, maxPick, totalPicks, currentJackpot\n        Jackpots jackpots = Jackpots(jackpotAddress);\n        uint jackpotBal = jackpots.getBalance();\n        uint[] memory tierPayouts = new uint[](winTiers.length);\n        for (uint i = 0; i < winTiers.length; i++) {\n            tierPayouts[i] = _payouts[winTiers[i]];\n        }\n        return(minBet, winTiers, tierPayouts, maxPick, totalPicks, jackpotBal);\n    }\n\n    // Lucky Machine functions to override:\n    function betPayable(uint bet) override public view returns(bool){\n        return (address(this).balance.sub(_unplayedBets) >= _payouts[winTiers[winTiers.length.sub(1)]]);\n    }\n\n    function playGame(uint gameID) override internal {\n        require(jackpotGames[gameID].played == false, \"game already played\");\n        bytes32 reqID = getRandomNumbers(totalPicks);\n        _gameRequests[reqID] = gameID;\n    }\n\n    function fulfillRandomness(bytes32 requestId, uint256[] memory randomness) override external {\n        // ONLY CALLABLE BY MACHINE COORDINATOR\n        require(msg.sender == machineCoordinator);\n        JackpotGame storage g = jackpotGames[_gameRequests[requestId]];\n        if(g.id > 0 && g.played == false){\n            if(g.bet > maxBet) {\n                g.bet = maxBet;\n            }\n            require(betPayable(1));\n\n            // store winning numbers\n            for (uint8 i = 0; i < totalPicks; i++) {\n                g.winners[i] = randomness[i].mod(maxPick).add(1);\n            }\n\n            g.played = true;\n\n            if(_unplayedBets >= g.bet) {\n                _unplayedBets -= g.bet;\n            } else {\n                _unplayedBets = 0;\n            }\n\n            // Check for winning numbers\n            uint8 winningPicks = checkPicks(g.picks, g.winners);\n            uint totalPayout = 0;\n\n            // Payout if winner\n            if(winningPicks > 0) {\n                if (winningPicks == totalPicks) {\n                    // Trigger jackpot payout\n                    Jackpots jackpots = Jackpots(jackpotAddress);\n                    totalPayout = jackpots.getBalance();\n                    jackpots.payoutJackpot(g.player);\n                } else {\n                    totalPayout = _payouts[winningPicks];\n                    g.player.transfer(totalPayout);\n                }\n            }\n            g.payout = totalPayout;\n            emit JackpotGamePlayed(g.player, g.bet, g.picks, g.winners, totalPayout);\n        }\n        gas1 = 1;\n        gas2 = 1;\n        gas3 = 1;\n        gas4 = 1;\n        gas5 = 1;\n        gas6 = 1;\n        gas7 = 1;\n        gas8 = 1;\n        gas9 = 1;\n        gas10 = 1;\n        gas11 = 1;\n    }\n\n    function requestRefund(uint gameID) override public{\n        JackpotGame storage g = jackpotGames[gameID];\n        require(authorizedAddress[msg.sender] || owner() == msg.sender || g.player == msg.sender, \"Not authorized to request refund\");\n        require(g.played == false, \"Game already complete. No refund possible.\");\n        require(address(this).balance >= g.bet, \"Contract balance too low. Please try again later.\");\n        g.played = true;\n        if(_unplayedBets >= g.bet) {\n            _unplayedBets -= g.bet;\n        } else {\n            _unplayedBets = 0;\n        }\n        g.player.transfer(g.bet);\n    }\n\n    function fundJackpot() public payable{\n        // WARNING: Funds deposited here cannot be refunded, only won from jackpot\n        Jackpots jackpots = Jackpots(jackpotAddress);\n        jackpots.addToJackpot{value:msg.value}();\n    }\n\n    // disable unused functions\n    function placeBetFor(address payable player, uint pick) override public payable{\n        require(false, \"Function not used in this contract. Use placeJackpotBetFor\");\n    }\n\n    function createGame(address payable _player, uint _bet, uint _pick) override internal {\n        require(false, \"Function not used in this contract. Use createJackpotGame\");\n    }\n\n    function safeBetFor(address payable player, uint pick) override public payable{\n        require(false, \"Function not used in this contract. Use safeJackpotBetFor\");\n    }\n\n    // Create Factory specific to these types of machines\n\n}\n\ncontract LuckyMachineJackpotFactory{\n    address[] public machines;\n    mapping(address => address[]) internal ownedMachines;\n\n    /**\n     * @dev Used to create a LuckyMachine that can be verified and included in the\n     * factory list.\n     */\n\n    function createMachine(\n                address payable jackpotAddress,\n                address payable machineCoordinator,\n                address linkToken,\n                uint entryFee,\n                uint maxPick,\n                uint8 totalPicks,\n                uint8[] memory winningMatchQuantities,\n                uint[] memory winningMatchPayouts\n            ) public returns(address){\n                LuckyMachineJackpot newMachine = new LuckyMachineJackpot(\n                                                        jackpotAddress,\n                                                        machineCoordinator,\n                                                        msg.sender,\n                                                        linkToken,\n                                                        entryFee,\n                                                        maxPick,\n                                                        totalPicks,\n                                                        winningMatchQuantities,\n                                                        winningMatchPayouts\n                                                    );\n                newMachine.transferOwnership(msg.sender);\n                address newMachineAddress = address(newMachine);\n                machines.push(newMachineAddress);\n                ownedMachines[msg.sender].push(newMachineAddress);\n                return newMachineAddress;\n    }\n\n    /**\n     * @dev Returns a list of all machines created from this factory. Useful to verify\n     * a machine was setup appropriately and is a \"legitimate\" LuckyMachine.\n     */\n    function getMachines() public view returns (address[] memory) {\n        return machines;\n    }\n\n    /**\n     * @dev Returns a list of all machines created by the sender.\n     */\n    function getOwnedMachines() public view returns (address[] memory) {\n        return ownedMachines[msg.sender];\n    }\n}\n",
  "sourcePath": "@luckymachines/contracts/src/v0.2/LuckyMachines+Jackpot.sol",
  "compiler": {
    "name": "solc",
    "version": "0.6.12+commit.27d51765.Emscripten.clang"
  },
  "schemaVersion": "3.3.4",
  "updatedAt": "2021-04-09T02:04:00.623Z",
  "devdoc": {
    "kind": "dev",
    "methods": {
      "createMachine(address,address,address,uint256,uint256,uint8,uint8[],uint256[])": {
        "details": "Used to create a LuckyMachine that can be verified and included in the factory list."
      },
      "getMachines()": {
        "details": "Returns a list of all machines created from this factory. Useful to verify a machine was setup appropriately and is a \"legitimate\" LuckyMachine."
      },
      "getOwnedMachines()": {
        "details": "Returns a list of all machines created by the sender."
      }
    },
    "version": 1
  },
  "userdoc": {
    "kind": "user",
    "methods": {},
    "version": 1
  }
}