{
  "contractName": "LuckyMachineFactory",
  "abi": [
    {
      "inputs": [
        {
          "internalType": "uint256",
          "name": "",
          "type": "uint256"
        }
      ],
      "name": "machines",
      "outputs": [
        {
          "internalType": "address",
          "name": "",
          "type": "address"
        }
      ],
      "stateMutability": "view",
      "type": "function"
    },
    {
      "inputs": [
        {
          "internalType": "address payable",
          "name": "machineCoordinator",
          "type": "address"
        },
        {
          "internalType": "uint256",
          "name": "maxBet",
          "type": "uint256"
        },
        {
          "internalType": "uint256",
          "name": "minBet",
          "type": "uint256"
        },
        {
          "internalType": "uint256",
          "name": "maxPick",
          "type": "uint256"
        },
        {
          "internalType": "uint256",
          "name": "payout",
          "type": "uint256"
        }
      ],
      "name": "createMachine",
      "outputs": [
        {
          "internalType": "address",
          "name": "",
          "type": "address"
        }
      ],
      "stateMutability": "nonpayable",
      "type": "function"
    },
    {
      "inputs": [],
      "name": "getMachines",
      "outputs": [
        {
          "internalType": "address[]",
          "name": "",
          "type": "address[]"
        }
      ],
      "stateMutability": "view",
      "type": "function"
    },
    {
      "inputs": [],
      "name": "getOwnedMachines",
      "outputs": [
        {
          "internalType": "address[]",
          "name": "",
          "type": "address[]"
        }
      ],
      "stateMutability": "view",
      "type": "function"
    }
  ],
  "bytecode": "0x608060405234801561001057600080fd5b5061358f806100206000396000f3fe608060405234801561001057600080fd5b506004361061004c5760003560e01c80632eb47613146100515780633df4f579146100b05780634d42845c1461014657806352b07b341461019e575b600080fd5b6100596101fd565b6040518080602001828103825283818151815260200191508051906020019060200280838360005b8381101561009c578082015181840152602081019050610081565b505050509050019250505060405180910390f35b61011a600480360360a08110156100c657600080fd5b81019080803573ffffffffffffffffffffffffffffffffffffffff169060200190929190803590602001909291908035906020019092919080359060200190929190803590602001909291905050506102c8565b604051808273ffffffffffffffffffffffffffffffffffffffff16815260200191505060405180910390f35b6101726004803603602081101561015c57600080fd5b81019080803590602001909291905050506104ec565b604051808273ffffffffffffffffffffffffffffffffffffffff16815260200191505060405180910390f35b6101a6610528565b6040518080602001828103825283818151815260200191508051906020019060200280838360005b838110156101e95780820151818401526020810190506101ce565b505050509050019250505060405180910390f35b6060600160003373ffffffffffffffffffffffffffffffffffffffff1673ffffffffffffffffffffffffffffffffffffffff1681526020019081526020016000208054806020026020016040519081016040528092919081815260200182805480156102be57602002820191906000526020600020905b8160009054906101000a900473ffffffffffffffffffffffffffffffffffffffff1673ffffffffffffffffffffffffffffffffffffffff1681526020019060010190808311610274575b5050505050905090565b6000808633878787876040516102dd906105b6565b808773ffffffffffffffffffffffffffffffffffffffff1681526020018673ffffffffffffffffffffffffffffffffffffffff1681526020018581526020018481526020018381526020018281526020019650505050505050604051809103906000f080158015610352573d6000803e3d6000fd5b5090508073ffffffffffffffffffffffffffffffffffffffff1663f2fde38b336040518263ffffffff1660e01b8152600401808273ffffffffffffffffffffffffffffffffffffffff168152602001915050600060405180830381600087803b1580156103be57600080fd5b505af11580156103d2573d6000803e3d6000fd5b5050505060008190506000819080600181540180825580915050600190039060005260206000200160009091909190916101000a81548173ffffffffffffffffffffffffffffffffffffffff021916908373ffffffffffffffffffffffffffffffffffffffff160217905550600160003373ffffffffffffffffffffffffffffffffffffffff1673ffffffffffffffffffffffffffffffffffffffff168152602001908152602001600020819080600181540180825580915050600190039060005260206000200160009091909190916101000a81548173ffffffffffffffffffffffffffffffffffffffff021916908373ffffffffffffffffffffffffffffffffffffffff160217905550809250505095945050505050565b600081815481106104f957fe5b906000526020600020016000915054906101000a900473ffffffffffffffffffffffffffffffffffffffff1681565b606060008054806020026020016040519081016040528092919081815260200182805480156105ac57602002820191906000526020600020905b8160009054906101000a900473ffffffffffffffffffffffffffffffffffffffff1673ffffffffffffffffffffffffffffffffffffffff1681526020019060010190808311610562575b5050505050905090565b612f96806105c48339019056fe60806040523480156200001157600080fd5b5060405162002f9638038062002f96833981810160405260c08110156200003757600080fd5b8101908080519060200190929190805190602001909291908051906020019092919080519060200190929190805190602001909291908051906020019092919050505060006200008c6200038e60201b60201c565b9050806000806101000a81548173ffffffffffffffffffffffffffffffffffffffff021916908373ffffffffffffffffffffffffffffffffffffffff1602179055508073ffffffffffffffffffffffffffffffffffffffff16600073ffffffffffffffffffffffffffffffffffffffff167f8be0079c531659141344cd1fd0a4f28419497f9722a3daafe3b4186f6b6457e060405160405180910390a35085600260006101000a81548173ffffffffffffffffffffffffffffffffffffffff021916908373ffffffffffffffffffffffffffffffffffffffff1602179055506001601281905550600060118190555084601360006101000a81548173ffffffffffffffffffffffffffffffffffffffff021916908373ffffffffffffffffffffffffffffffffffffffff1602179055508260108190555083600f8190555081600e819055508060148190555060016003819055506001600481905550600160058190555060016006819055506001600781905550600160088190555060016009819055506001600a819055506001600b819055506001600c819055506001600d8190555073326c977e6efc84e512bb9c30f76e30c160ed06fb600160006101000a81548173ffffffffffffffffffffffffffffffffffffffff021916908373ffffffffffffffffffffffffffffffffffffffff1602179055506000600181039050600160009054906101000a900473ffffffffffffffffffffffffffffffffffffffff1673ffffffffffffffffffffffffffffffffffffffff1663095ea7b3600260009054906101000a900473ffffffffffffffffffffffffffffffffffffffff16836040518363ffffffff1660e01b8152600401808373ffffffffffffffffffffffffffffffffffffffff16815260200182815260200192505050602060405180830381600087803b1580156200034357600080fd5b505af115801562000358573d6000803e3d6000fd5b505050506040513d60208110156200036f57600080fd5b8101908080519060200190929190505050505050505050505062000396565b600033905090565b612bf080620003a66000396000f3fe6080604052600436106101bb5760003560e01c80638da5cb5b116100ec578063b843f5ab1161008a578063d9e721f811610064578063d9e721f81461080a578063dfad4c1114610858578063f2fde38b146108bf578063f31a4dcd14610910576101c2565b8063b843f5ab14610753578063b93030b3146107b8578063c311d049146107cf576101c2565b8063a249225e116100c6578063a249225e1461061c578063a4b2409e14610679578063ac150fd8146106b4578063b1017eb714610702576101c2565b80638da5cb5b1461055f5780639619367d146105a0578063a02e0616146105cb576101c2565b80633638104a116101595780635b8d02d7116101335780635b8d02d7146104a157806363bd1d4a146104e2578063715018a61461050d5780637a8042bd14610524576101c2565b80633638104a146103cf5780634051ddac1461043657806350c5f97514610476576101c2565b80631f1f897f116101955780631f1f897f146102e35780632e5b2168146103285780632ee42d8a1461035357806333ea51a81461037e576101c2565b80630c610a12146101c7578063117a5b901461021857806319465b7c146102a2576101c2565b366101c257005b600080fd5b3480156101d357600080fd5b50610200600480360360208110156101ea57600080fd5b810190808035906020019092919050505061094b565b60405180821515815260200191505060405180910390f35b34801561022457600080fd5b506102516004803603602081101561023b57600080fd5b8101908080359060200190929190505050610980565b604051808781526020018673ffffffffffffffffffffffffffffffffffffffff1681526020018581526020018481526020018381526020018215158152602001965050505050505060405180910390f35b3480156102ae57600080fd5b506102b76109e9565b604051808273ffffffffffffffffffffffffffffffffffffffff16815260200191505060405180910390f35b3480156102ef57600080fd5b506103266004803603604081101561030657600080fd5b810190808035906020019092919080359060200190929190505050610a0f565b005b34801561033457600080fd5b5061033d610d81565b6040518082815260200191505060405180910390f35b34801561035f57600080fd5b50610368610d87565b6040518082815260200191505060405180910390f35b34801561038a57600080fd5b506103cd600480360360208110156103a157600080fd5b81019080803573ffffffffffffffffffffffffffffffffffffffff169060200190929190505050610d8d565b005b3480156103db57600080fd5b5061041e600480360360208110156103f257600080fd5b81019080803573ffffffffffffffffffffffffffffffffffffffff169060200190929190505050610e80565b60405180821515815260200191505060405180910390f35b34801561044257600080fd5b5061044b610ea0565b6040518085815260200184815260200183815260200182815260200194505050505060405180910390f35b34801561048257600080fd5b5061048b610ec0565b6040518082815260200191505060405180910390f35b3480156104ad57600080fd5b506104b6610f8b565b604051808273ffffffffffffffffffffffffffffffffffffffff16815260200191505060405180910390f35b3480156104ee57600080fd5b506104f7610fb1565b6040518082815260200191505060405180910390f35b34801561051957600080fd5b50610522610fb7565b005b34801561053057600080fd5b5061055d6004803603602081101561054757600080fd5b8101908080359060200190929190505050611124565b005b34801561056b57600080fd5b50610574611314565b604051808273ffffffffffffffffffffffffffffffffffffffff16815260200191505060405180910390f35b3480156105ac57600080fd5b506105b561133d565b6040518082815260200191505060405180910390f35b3480156105d757600080fd5b5061061a600480360360208110156105ee57600080fd5b81019080803573ffffffffffffffffffffffffffffffffffffffff169060200190929190505050611343565b005b34801561062857600080fd5b506106776004803603604081101561063f57600080fd5b81019080803573ffffffffffffffffffffffffffffffffffffffff169060200190929190803515159060200190929190505050611436565b005b34801561068557600080fd5b506106b26004803603602081101561069c57600080fd5b8101908080359060200190929190505050611540565b005b610700600480360360408110156106ca57600080fd5b81019080803573ffffffffffffffffffffffffffffffffffffffff16906020019092919080359060200190929190505050611837565b005b34801561070e57600080fd5b5061073b6004803603602081101561072557600080fd5b8101908080359060200190929190505050611978565b60405180821515815260200191505060405180910390f35b34801561075f57600080fd5b506107a26004803603602081101561077657600080fd5b81019080803573ffffffffffffffffffffffffffffffffffffffff169060200190929190505050611b06565b6040518082815260200191505060405180910390f35b3480156107c457600080fd5b506107cd611b1e565b005b3480156107db57600080fd5b50610808600480360360208110156107f257600080fd5b8101908080359060200190929190505050611ed3565b005b6108566004803603604081101561082057600080fd5b81019080803573ffffffffffffffffffffffffffffffffffffffff169060200190929190803590602001909291905050506120b5565b005b34801561086457600080fd5b506108a76004803603602081101561087b57600080fd5b81019080803573ffffffffffffffffffffffffffffffffffffffff1690602001909291905050506122db565b60405180821515815260200191505060405180910390f35b3480156108cb57600080fd5b5061090e600480360360208110156108e257600080fd5b81019080803573ffffffffffffffffffffffffffffffffffffffff1690602001909291905050506122fb565b005b34801561091c57600080fd5b506109496004803603602081101561093357600080fd5b81019080803590602001909291905050506124ed565b005b6000610962601454836125a890919063ffffffff16565b6109776011544761262e90919063ffffffff16565b10159050919050565b60176020528060005260406000206000915090508060000154908060010160009054906101000a900473ffffffffffffffffffffffffffffffffffffffff16908060020154908060030154908060040154908060050160009054906101000a900460ff16905086565b600260009054906101000a900473ffffffffffffffffffffffffffffffffffffffff1681565b600260009054906101000a900473ffffffffffffffffffffffffffffffffffffffff1673ffffffffffffffffffffffffffffffffffffffff163373ffffffffffffffffffffffffffffffffffffffff1614610a6957600080fd5b60006017600060186000868152602001908152602001600020548152602001908152602001600020905060008160000154118015610abc5750600015158160050160009054906101000a900460ff161515145b15610d2457600f5481600201541115610adb57600f5481600201819055505b6000610b0c8260020154610afe60145485600201546125a890919063ffffffff16565b6126b790919063ffffffff16565b905080471015610b84576040517f08c379a00000000000000000000000000000000000000000000000000000000081526004018080602001828103825260208152602001807f436f6e74726163742062616c616e636520746f6f206c6f7720746f20706c617981525060200191505060405180910390fd5b610bac6001610b9e600e548661273f90919063ffffffff16565b6126b790919063ffffffff16565b826004018190555060018260050160006101000a81548160ff021916908315150217905550816002015460115410610bf7578160020154601160008282540392505081905550610c00565b60006011819055505b816004015482600301541415610c80578160010160009054906101000a900473ffffffffffffffffffffffffffffffffffffffff1673ffffffffffffffffffffffffffffffffffffffff166108fc829081150290604051600060405180830381858888f19350505050158015610c7a573d6000803e3d6000fd5b50610c85565b600090505b7fc06600d6399308f270bc6ae70d5377121b685c974bb7f7355824fddd8a2b34978260010160009054906101000a900473ffffffffffffffffffffffffffffffffffffffff1683600201548460030154856004015485604051808673ffffffffffffffffffffffffffffffffffffffff1681526020018581526020018481526020018381526020018281526020019550505050505060405180910390a1505b60016003819055506001600481905550600160058190555060016006819055506001600781905550600160088190555060016009819055506001600a819055506001600b819055506001600c819055506001600d81905550505050565b600f5481565b600e5481565b610d956127c9565b73ffffffffffffffffffffffffffffffffffffffff16610db3611314565b73ffffffffffffffffffffffffffffffffffffffff1614610e3c576040517f08c379a00000000000000000000000000000000000000000000000000000000081526004018080602001828103825260208152602001807f4f776e61626c653a2063616c6c6572206973206e6f7420746865206f776e657281525060200191505060405180910390fd5b80601360006101000a81548173ffffffffffffffffffffffffffffffffffffffff021916908373ffffffffffffffffffffffffffffffffffffffff16021790555050565b60156020528060005260406000206000915054906101000a900460ff1681565b600080600080601054600f54601454600e54935093509350935090919293565b6000600160009054906101000a900473ffffffffffffffffffffffffffffffffffffffff1673ffffffffffffffffffffffffffffffffffffffff166370a08231306040518263ffffffff1660e01b8152600401808273ffffffffffffffffffffffffffffffffffffffff16815260200191505060206040518083038186803b158015610f4b57600080fd5b505afa158015610f5f573d6000803e3d6000fd5b505050506040513d6020811015610f7557600080fd5b8101908080519060200190929190505050905090565b601360009054906101000a900473ffffffffffffffffffffffffffffffffffffffff1681565b60145481565b610fbf6127c9565b73ffffffffffffffffffffffffffffffffffffffff16610fdd611314565b73ffffffffffffffffffffffffffffffffffffffff1614611066576040517f08c379a00000000000000000000000000000000000000000000000000000000081526004018080602001828103825260208152602001807f4f776e61626c653a2063616c6c6572206973206e6f7420746865206f776e657281525060200191505060405180910390fd5b600073ffffffffffffffffffffffffffffffffffffffff1660008054906101000a900473ffffffffffffffffffffffffffffffffffffffff1673ffffffffffffffffffffffffffffffffffffffff167f8be0079c531659141344cd1fd0a4f28419497f9722a3daafe3b4186f6b6457e060405160405180910390a360008060006101000a81548173ffffffffffffffffffffffffffffffffffffffff021916908373ffffffffffffffffffffffffffffffffffffffff160217905550565b3373ffffffffffffffffffffffffffffffffffffffff16611143611314565b73ffffffffffffffffffffffffffffffffffffffff1614806111ae5750601560003373ffffffffffffffffffffffffffffffffffffffff1673ffffffffffffffffffffffffffffffffffffffff16815260200190815260200160002060009054906101000a900460ff165b611220576040517f08c379a00000000000000000000000000000000000000000000000000000000081526004018080602001828103825260188152602001807f63616c6c6572206973206e6f7420617574686f72697a6564000000000000000081525060200191505060405180910390fd5b600160009054906101000a900473ffffffffffffffffffffffffffffffffffffffff1673ffffffffffffffffffffffffffffffffffffffff1663a9059cbb601360009054906101000a900473ffffffffffffffffffffffffffffffffffffffff16836040518363ffffffff1660e01b8152600401808373ffffffffffffffffffffffffffffffffffffffff16815260200182815260200192505050602060405180830381600087803b1580156112d557600080fd5b505af11580156112e9573d6000803e3d6000fd5b505050506040513d60208110156112ff57600080fd5b81019080805190602001909291905050505050565b60008060009054906101000a900473ffffffffffffffffffffffffffffffffffffffff16905090565b60105481565b61134b6127c9565b73ffffffffffffffffffffffffffffffffffffffff16611369611314565b73ffffffffffffffffffffffffffffffffffffffff16146113f2576040517f08c379a00000000000000000000000000000000000000000000000000000000081526004018080602001828103825260208152602001807f4f776e61626c653a2063616c6c6572206973206e6f7420746865206f776e657281525060200191505060405180910390fd5b80600160006101000a81548173ffffffffffffffffffffffffffffffffffffffff021916908373ffffffffffffffffffffffffffffffffffffffff16021790555050565b61143e6127c9565b73ffffffffffffffffffffffffffffffffffffffff1661145c611314565b73ffffffffffffffffffffffffffffffffffffffff16146114e5576040517f08c379a00000000000000000000000000000000000000000000000000000000081526004018080602001828103825260208152602001807f4f776e61626c653a2063616c6c6572206973206e6f7420746865206f776e657281525060200191505060405180910390fd5b80601560008473ffffffffffffffffffffffffffffffffffffffff1673ffffffffffffffffffffffffffffffffffffffff16815260200190815260200160002060006101000a81548160ff0219169083151502179055505050565b6000601760008381526020019081526020016000209050601560003373ffffffffffffffffffffffffffffffffffffffff1673ffffffffffffffffffffffffffffffffffffffff16815260200190815260200160002060009054906101000a900460ff16806115e157503373ffffffffffffffffffffffffffffffffffffffff166115c9611314565b73ffffffffffffffffffffffffffffffffffffffff16145b8061163b57503373ffffffffffffffffffffffffffffffffffffffff168160010160009054906101000a900473ffffffffffffffffffffffffffffffffffffffff1673ffffffffffffffffffffffffffffffffffffffff16145b6116ad576040517f08c379a00000000000000000000000000000000000000000000000000000000081526004018080602001828103825260208152602001807f4e6f7420617574686f72697a656420746f207265717565737420726566756e6481525060200191505060405180910390fd5b600015158160050160009054906101000a900460ff1615151461171b576040517f08c379a000000000000000000000000000000000000000000000000000000000815260040180806020018281038252602a815260200180612b91602a913960400191505060405180910390fd5b8060020154471015611778576040517f08c379a0000000000000000000000000000000000000000000000000000000008152600401808060200182810382526031815260200180612b606031913960400191505060405180910390fd5b60018160050160006101000a81548160ff0219169083151502179055508060020154601154106117bb5780600201546011600082825403925050819055506117c4565b60006011819055505b8060010160009054906101000a900473ffffffffffffffffffffffffffffffffffffffff1673ffffffffffffffffffffffffffffffffffffffff166108fc82600201549081150290604051600060405180830381858888f19350505050158015611832573d6000803e3d6000fd5b505050565b6010543410156118af576040517f08c379a00000000000000000000000000000000000000000000000000000000081526004018080602001828103825260138152602001807f6d696e696d756d20626574206e6f74206d65740000000000000000000000000081525060200191505060405180910390fd5b600160035414156118fd57600360009055600460009055600560009055600660009055600760009055600860009055600960009055600a60009055600b60009055600c60009055600d600090555b611912346011546126b790919063ffffffff16565b6011819055506119238234836127d1565b61192e6012546128f0565b601254601960008473ffffffffffffffffffffffffffffffffffffffff1673ffffffffffffffffffffffffffffffffffffffff168152602001908152602001600020819055505050565b600080600260009054906101000a900473ffffffffffffffffffffffffffffffffffffffff16905060008173ffffffffffffffffffffffffffffffffffffffff166350c5f9756040518163ffffffff1660e01b815260040160206040518083038186803b1580156119e857600080fd5b505afa1580156119fc573d6000803e3d6000fd5b505050506040513d6020811015611a1257600080fd5b810190808051906020019092919050505090506000600160009054906101000a900473ffffffffffffffffffffffffffffffffffffffff1673ffffffffffffffffffffffffffffffffffffffff166370a08231306040518263ffffffff1660e01b8152600401808273ffffffffffffffffffffffffffffffffffffffff16815260200191505060206040518083038186803b158015611ab057600080fd5b505afa158015611ac4573d6000803e3d6000fd5b505050506040513d6020811015611ada57600080fd5b810190808051906020019092919050505090508481101580611afc5750848210155b9350505050919050565b60196020528060005260406000206000915090505481565b611b266127c9565b73ffffffffffffffffffffffffffffffffffffffff16611b44611314565b73ffffffffffffffffffffffffffffffffffffffff1614611bcd576040517f08c379a00000000000000000000000000000000000000000000000000000000081526004018080602001828103825260208152602001807f4f776e61626c653a2063616c6c6572206973206e6f7420746865206f776e657281525060200191505060405180910390fd5b6000611be46011544761262e90919063ffffffff16565b9050601360009054906101000a900473ffffffffffffffffffffffffffffffffffffffff1673ffffffffffffffffffffffffffffffffffffffff166108fc829081150290604051600060405180830381858888f19350505050158015611c4e573d6000803e3d6000fd5b506000600160009054906101000a900473ffffffffffffffffffffffffffffffffffffffff1673ffffffffffffffffffffffffffffffffffffffff166370a08231306040518263ffffffff1660e01b8152600401808273ffffffffffffffffffffffffffffffffffffffff16815260200191505060206040518083038186803b158015611cda57600080fd5b505afa158015611cee573d6000803e3d6000fd5b505050506040513d6020811015611d0457600080fd5b81019080805190602001909291905050501115611ed057600160009054906101000a900473ffffffffffffffffffffffffffffffffffffffff1673ffffffffffffffffffffffffffffffffffffffff1663a9059cbb601360009054906101000a900473ffffffffffffffffffffffffffffffffffffffff16600160009054906101000a900473ffffffffffffffffffffffffffffffffffffffff1673ffffffffffffffffffffffffffffffffffffffff166370a08231306040518263ffffffff1660e01b8152600401808273ffffffffffffffffffffffffffffffffffffffff16815260200191505060206040518083038186803b158015611e0557600080fd5b505afa158015611e19573d6000803e3d6000fd5b505050506040513d6020811015611e2f57600080fd5b81019080805190602001909291905050506040518363ffffffff1660e01b8152600401808373ffffffffffffffffffffffffffffffffffffffff16815260200182815260200192505050602060405180830381600087803b158015611e9357600080fd5b505af1158015611ea7573d6000803e3d6000fd5b505050506040513d6020811015611ebd57600080fd5b8101908080519060200190929190505050505b50565b3373ffffffffffffffffffffffffffffffffffffffff16611ef2611314565b73ffffffffffffffffffffffffffffffffffffffff161480611f5d5750601560003373ffffffffffffffffffffffffffffffffffffffff1673ffffffffffffffffffffffffffffffffffffffff16815260200190815260200160002060009054906101000a900460ff165b611fcf576040517f08c379a00000000000000000000000000000000000000000000000000000000081526004018080602001828103825260188152602001807f63616c6c6572206973206e6f7420617574686f72697a6564000000000000000081525060200191505060405180910390fd5b6011548147031015612049576040517f08c379a000000000000000000000000000000000000000000000000000000000815260040180806020018281038252601c8152602001807f43616e277420776974686472617720756e706c6179656420626574730000000081525060200191505060405180910390fd5b601360009054906101000a900473ffffffffffffffffffffffffffffffffffffffff1673ffffffffffffffffffffffffffffffffffffffff166108fc829081150290604051600060405180830381858888f193505050501580156120b1573d6000803e3d6000fd5b5050565b6120be3461094b565b612113576040517f08c379a0000000000000000000000000000000000000000000000000000000008152600401808060200182810382526036815260200180612b096036913960400191505060405180910390fd5b600e5481111580156121255750600081115b612197576040517f08c379a000000000000000000000000000000000000000000000000000000000815260040180806020018281038252601a8152602001807f4f757473696465206f66207069636b61626c6520626f756e647300000000000081525060200191505060405180910390fd5b6121a0346129b5565b612212576040517f08c379a00000000000000000000000000000000000000000000000000000000081526004018080602001828103825260158152602001807f4f757469736465206f66206265742072616e67652e000000000000000000000081525060200191505060405180910390fd5b6001600354141561226057600360009055600460009055600560009055600660009055600760009055600860009055600960009055600a60009055600b60009055600c60009055600d600090555b612275346011546126b790919063ffffffff16565b6011819055506122868234836127d1565b6122916012546128f0565b601254601960008473ffffffffffffffffffffffffffffffffffffffff1673ffffffffffffffffffffffffffffffffffffffff168152602001908152602001600020819055505050565b60166020528060005260406000206000915054906101000a900460ff1681565b6123036127c9565b73ffffffffffffffffffffffffffffffffffffffff16612321611314565b73ffffffffffffffffffffffffffffffffffffffff16146123aa576040517f08c379a00000000000000000000000000000000000000000000000000000000081526004018080602001828103825260208152602001807f4f776e61626c653a2063616c6c6572206973206e6f7420746865206f776e657281525060200191505060405180910390fd5b600073ffffffffffffffffffffffffffffffffffffffff168173ffffffffffffffffffffffffffffffffffffffff161415612430576040517f08c379a0000000000000000000000000000000000000000000000000000000008152600401808060200182810382526026815260200180612ae36026913960400191505060405180910390fd5b8073ffffffffffffffffffffffffffffffffffffffff1660008054906101000a900473ffffffffffffffffffffffffffffffffffffffff1673ffffffffffffffffffffffffffffffffffffffff167f8be0079c531659141344cd1fd0a4f28419497f9722a3daafe3b4186f6b6457e060405160405180910390a3806000806101000a81548173ffffffffffffffffffffffffffffffffffffffff021916908373ffffffffffffffffffffffffffffffffffffffff16021790555050565b6124f56127c9565b73ffffffffffffffffffffffffffffffffffffffff16612513611314565b73ffffffffffffffffffffffffffffffffffffffff161461259c576040517f08c379a00000000000000000000000000000000000000000000000000000000081526004018080602001828103825260208152602001807f4f776e61626c653a2063616c6c6572206973206e6f7420746865206f776e657281525060200191505060405180910390fd5b6125a5816128f0565b50565b6000808314156125bb5760009050612628565b60008284029050828482816125cc57fe5b0414612623576040517f08c379a0000000000000000000000000000000000000000000000000000000008152600401808060200182810382526021815260200180612b3f6021913960400191505060405180910390fd5b809150505b92915050565b6000828211156126a6576040517f08c379a000000000000000000000000000000000000000000000000000000000815260040180806020018281038252601e8152602001807f536166654d6174683a207375627472616374696f6e206f766572666c6f77000081525060200191505060405180910390fd5b600082840390508091505092915050565b600080828401905083811015612735576040517f08c379a000000000000000000000000000000000000000000000000000000000815260040180806020018281038252601b8152602001807f536166654d6174683a206164646974696f6e206f766572666c6f77000000000081525060200191505060405180910390fd5b8091505092915050565b6000808214156127b7576040517f08c379a00000000000000000000000000000000000000000000000000000000081526004018080602001828103825260188152602001807f536166654d6174683a206d6f64756c6f206279207a65726f000000000000000081525060200191505060405180910390fd5b8183816127c057fe5b06905092915050565b600033905090565b6127e760016012546126b790919063ffffffff16565b6012819055506127f5612a94565b6040518060c0016040528060125481526020018573ffffffffffffffffffffffffffffffffffffffff168152602001848152602001838152602001600081526020016000151581525090508060176000836000015181526020019081526020016000206000820151816000015560208201518160010160006101000a81548173ffffffffffffffffffffffffffffffffffffffff021916908373ffffffffffffffffffffffffffffffffffffffff16021790555060408201518160020155606082015181600301556080820151816004015560a08201518160050160006101000a81548160ff02191690831515021790555090505050505050565b600015156017600083815260200190815260200160002060050160009054906101000a900460ff1615151461298d576040517f08c379a00000000000000000000000000000000000000000000000000000000081526004018080602001828103825260138152602001807f67616d6520616c726561647920706c617965640000000000000000000000000081525060200191505060405180910390fd5b60006129976129e3565b90508160186000838152602001908152602001600020819055505050565b600060105482101580156129cb5750600f548211155b156129d957600190506129de565b600090505b919050565b600080600260009054906101000a900473ffffffffffffffffffffffffffffffffffffffff1690508073ffffffffffffffffffffffffffffffffffffffff1663dbdff2c16040518163ffffffff1660e01b8152600401602060405180830381600087803b158015612a5357600080fd5b505af1158015612a67573d6000803e3d6000fd5b505050506040513d6020811015612a7d57600080fd5b810190808051906020019092919050505091505090565b6040518060c0016040528060008152602001600073ffffffffffffffffffffffffffffffffffffffff168152602001600081526020016000815260200160008152602001600015158152509056fe4f776e61626c653a206e6577206f776e657220697320746865207a65726f2061646472657373436f6e74726163742068617320696e737566666963696e742066756e647320746f207061796f757420706f737369626c652077696e2e536166654d6174683a206d756c7469706c69636174696f6e206f766572666c6f77436f6e74726163742062616c616e636520746f6f206c6f772e20506c656173652074727920616761696e206c617465722e47616d6520616c726561647920636f6d706c6574652e204e6f20726566756e6420706f737369626c652ea2646970667358221220ff88fbfe106431060595db269fb4545b00a6e020f078013c081789d63f3c0d2d64736f6c634300060c0033a26469706673582212201b05e6ff5e4e37dd3a9224920e88fe9a64523aea52daee753c316d1679bcf90364736f6c634300060c0033",
  "immutableReferences": {},
  "source": "pragma solidity ^0.6.0;\n\n// SPDX-License-Identifier: MIT\nimport \"@openzeppelin/contracts/access/Ownable.sol\";\n\nimport \"@chainlink/contracts/src/v0.6/vendor/SafeMathChainlink.sol\";\nimport \"@chainlink/contracts/src/v0.6/interfaces/LinkTokenInterface.sol\";\nimport \"@chainlink/contracts/src/v0.6/VRFRequestIDBase.sol\";\n\nabstract contract VRFConsumerBase is VRFRequestIDBase {\n\n  using SafeMathChainlink for uint256;\n\n  function fulfillRandomness(bytes32 requestId, uint256 randomness)\n    internal virtual;\n\n  function requestRandomness(bytes32 _keyHash, uint256 _fee, uint256 _seed)\n    internal returns (bytes32 requestId)\n  {\n    LINK.transferAndCall(vrfCoordinator, _fee, abi.encode(_keyHash, _seed));\n\n    uint256 vRFSeed  = makeVRFInputSeed(_keyHash, _seed, address(this), nonces[_keyHash]);\n\n    nonces[_keyHash] = nonces[_keyHash].add(1);\n    return makeRequestId(_keyHash, vRFSeed);\n  }\n\n  //NOTE: this is set to immutable in original contract. Using this due to\n  // temporary token used on Polygon/Matic. Will need to be updated eventually.\n  LinkTokenInterface internal LINK;\n  address immutable private vrfCoordinator;\n\n  mapping(bytes32 /* keyHash */ => uint256 /* nonce */) private nonces;\n\n  constructor(address _vrfCoordinator, address _link) public {\n    vrfCoordinator = _vrfCoordinator;\n    LINK = LinkTokenInterface(_link);\n  }\n\n  function rawFulfillRandomness(bytes32 requestId, uint256 randomness) external {\n    require(msg.sender == vrfCoordinator, \"Only VRFCoordinator can fulfill\");\n    fulfillRandomness(requestId, randomness);\n  }\n}\n\n\ncontract LuckyMachineCoordinator is VRFConsumerBase, Ownable {\n    using SafeMathChainlink for uint256;\n\n    bytes32 internal keyHash;\n    uint256 internal fee;\n\n    mapping(bytes32 => address payable) private _machineRequests;\n\n    constructor(address _coordinator, address _linkToken, bytes32 _keyHash, uint256 _fee)\n        //KOVAN ADDRESSES\n        VRFConsumerBase(\n            _coordinator, // VRF Coordinator\n            _linkToken  // LINK Token\n        ) public {\n            keyHash = _keyHash;\n            fee = _fee;\n    }\n\n    receive() external payable {\n\n    }\n\n    /**\n     * @dev Shouldn't be updated unless set incorrectly to begin with.\n     */\n    function setKeyHash(bytes32 _keyHash) public onlyOwner {\n        keyHash = _keyHash;\n    }\n\n    /**\n     * @dev Can update fee if operator changes fee amount.\n     */\n    function setFee(uint256 _fee) public onlyOwner {\n      fee = _fee;\n    }\n\n    /**\n     * @dev Can update LINK address if necessary. Should not have to call this, but here\n     * in case token address updated for any reason.\n     */\n    function setLINK(address _linkAddress) public onlyOwner {\n        LINK = LinkTokenInterface(_linkAddress);\n    }\n\n    function getRandomNumber() external returns(bytes32 requestID){\n        require(LINK.balanceOf(address(this)) >= fee || LINK.balanceOf(msg.sender) >= fee, \"Not enough LINK\");\n        if (LINK.balanceOf(address(this)) < fee) {\n            LINK.transferFrom(msg.sender, address(this), fee);\n        }\n        uint256 seed = uint256(blockhash(block.number - 1));\n        bytes32 rid = requestRandomness(keyHash, fee, seed);\n        _machineRequests[rid] = msg.sender;\n        return rid;\n    }\n\n    function fulfillRandomness(bytes32 requestId, uint256 randomness) internal override {\n        LuckyMachine machine = LuckyMachine(_machineRequests[requestId]);\n        machine.fulfillRandomness(requestId, randomness);\n    }\n\n    function getLinkBalance() public view returns(uint){\n        return LINK.balanceOf(address(this));\n    }\n\n    function withdrawLink() public onlyOwner {\n        LINK.transfer(msg.sender, LINK.balanceOf(address(this)));\n    }\n}\n\ncontract LuckyMachine is Ownable {\n\n    LinkTokenInterface internal LINK;\n\n    using SafeMathChainlink for uint256;\n\n    address payable public machineCoordinator;\n\n    struct Game {\n        uint id;\n        address payable player;\n        uint bet;\n        uint pick;\n        uint winner;\n        bool played;\n    }\n\n    uint private gas1;\n    uint private gas2;\n    uint private gas3;\n    uint private gas4;\n    uint private gas5;\n    uint private gas6;\n    uint private gas7;\n    uint private gas8;\n    uint private gas9;\n    uint private gas10;\n    uint private gas11;\n\n    uint public maxPick;\n    uint public maxBet;\n    uint public minBet;\n    uint private _unplayedBets;\n    uint private _currentGame;\n    address payable public payoutAddress;\n    uint public payout; // Payout Ratio (payout : 1), e.g. 10 : 1 = payout (10) * bet (X)\n\n    mapping(address => bool) public authorizedAddress;\n    mapping(address => bool) public gasFreeBetAllowed;\n\n    mapping(uint => Game) public games;\n    mapping(bytes32 => uint) private _gameRequests;\n    mapping(address => uint) public lastGameCreated;\n\n    event GamePlayed(address _player, uint256 _bet, uint256 _pick, uint256 _winner, uint256 _payout);\n\n    constructor(address payable _machineCoordinator, address payable _payoutAddress, uint _maxBet, uint _minBet, uint _maxPick, uint _payout) public {\n            machineCoordinator = _machineCoordinator;\n            _currentGame = 1;\n            _unplayedBets = 0;\n            payoutAddress = _payoutAddress;\n            minBet = _minBet;\n            maxBet = _maxBet;\n            maxPick = _maxPick;\n            payout = _payout;\n\n            gas1 = 1;\n            gas2 = 1;\n            gas3 = 1;\n            gas4 = 1;\n            gas5 = 1;\n            gas6 = 1;\n            gas7 = 1;\n            gas8 = 1;\n            gas9 = 1;\n            gas10 = 1;\n            gas11 = 1;\n\n            // SET TO KOVAN LINK ADDRESS\n            LINK = LinkTokenInterface(address(0x326C977E6efc84E512bB9C30f76E30c160eD06FB));\n            uint256 approvalAmount = 0;\n            approvalAmount -= 1;\n            LINK.approve(machineCoordinator, approvalAmount);\n    }\n\n    receive() external payable {\n\n    }\n\n    modifier onlyAuthorized() {\n        require(owner() == msg.sender || authorizedAddress[msg.sender], \"caller is not authorized\");\n        _;\n    }\n\n    function getLinkBalance() public view returns(uint){\n        return LINK.balanceOf(address(this));\n    }\n\n    /**\n     * @dev Returns whether bet is within range of minimum and maximum\n     * allowable bets\n     */\n    function betInRange(uint bet) internal view returns(bool){\n        if (bet >= minBet && bet <= maxBet) {\n            return true;\n        } else {\n            return false;\n        }\n    }\n\n    /**\n     * @dev Returns whether a winning bet can by paid out by machine. Balance of\n     * machine must be at least (value of bet * payout).\n     */\n    function betPayable(uint bet) public view returns(bool){\n        return (address(this).balance.sub(_unplayedBets) >= bet.mul(payout));\n    }\n\n    function canPayFee(uint _fee) public view returns(bool){\n        LuckyMachineCoordinator coord = LuckyMachineCoordinator(machineCoordinator);\n        uint256 coordBalance = coord.getLinkBalance();\n        uint256 thisBalance = LINK.balanceOf(address(this));\n        return (thisBalance >= _fee || coordBalance >= _fee);\n    }\n\n    /**\n     * @dev Returns Game ID, which can be queried for status of game using games('gameID').\n     * This will fail if machine conditions are not met.\n     * Use safeBetFor() if all conditions have not been pre-verified.\n     */\n    function placeBetFor(address payable player, uint pick) public payable{\n        require(msg.value >= minBet, \"minimum bet not met\");\n        if(gas1 == 1) {\n            delete gas1;\n            delete gas2;\n            delete gas3;\n            delete gas4;\n            delete gas5;\n            delete gas6;\n            delete gas7;\n            delete gas8;\n            delete gas9;\n            delete gas10;\n            delete gas11;\n        }\n\n        _unplayedBets = _unplayedBets.add(msg.value);\n        createGame(player, msg.value, pick);\n        playGame(_currentGame);\n        lastGameCreated[player] = _currentGame;\n    }\n\n    /**s\n     * @dev Returns Game ID, which can be queried for status of game using games('gameID').\n     * Places bet after ensuring all conditions are met (bet within minimum - maximum\n     * range, maximum pick not exceeded, winning bet is payable).\n     */\n    function safeBetFor(address payable player, uint pick) public payable{\n        require(betPayable(msg.value), \"Contract has insufficint funds to payout possible win.\");\n        require(pick <= maxPick && pick > 0, \"Outside of pickable bounds\");\n        require(betInRange(msg.value),\"Outisde of bet range.\");\n\n        if(gas1 == 1) {\n            delete gas1;\n            delete gas2;\n            delete gas3;\n            delete gas4;\n            delete gas5;\n            delete gas6;\n            delete gas7;\n            delete gas8;\n            delete gas9;\n            delete gas10;\n            delete gas11;\n        }\n\n        _unplayedBets = _unplayedBets.add(msg.value);\n        createGame(player, msg.value, pick);\n        playGame(_currentGame);\n        lastGameCreated[player] = _currentGame;\n    }\n\n    /**\n     * @dev Creates a Game record, which is updated as game is played.\n     */\n    function createGame(address payable _player, uint _bet, uint _pick) internal {\n\n        _currentGame = _currentGame.add(1);\n        Game memory newGame = Game ({\n            id: _currentGame,\n            player: _player,\n            bet: _bet,\n            pick: _pick,\n            winner: 0,\n            played: false\n        });\n        games[newGame.id] = newGame;\n    }\n\n    /**\n     * @dev If game is ready to be played, but random number not yet generated,\n     * this function may be called. Limited to only when bet is placed to avoid\n     * over-calling / over-spending Link since random number is generated with\n     * each call of this. replayGame() may be called by owner in cases of \"stuck\"\n     * or unplayed games.\n     */\n    function playGame(uint gameID) internal {\n        require(games[gameID].played == false, \"game already played\");\n        bytes32 reqID = getRandomNumber();\n        _gameRequests[reqID] = gameID;\n    }\n\n    /**\n     * @dev Requests a random number, which will be returned through the\n     * fulfillRandomness() function.\n     */\n    function getRandomNumber() internal returns (bytes32 requestId) {\n        LuckyMachineCoordinator mc = LuckyMachineCoordinator(machineCoordinator);\n        return mc.getRandomNumber();\n    }\n\n    /**\n     * @dev Called by VRF Coordinator only once number is generated. Gas reserves are\n     * refilled here so they can be cleared for gas savings when next bet is placed.\n     */\n    function fulfillRandomness(bytes32 requestId, uint256 randomness) external {\n        // ONLY CALLABLE BY MACHINE COORDINATOR\n        require(msg.sender == machineCoordinator);\n        //randomResult = randomness;\n        Game storage g = games[_gameRequests[requestId]];\n        if(g.id > 0 && g.played == false){\n            if(g.bet > maxBet) {\n                g.bet = maxBet;\n            }\n            uint totalPayout = g.bet.mul(payout).add(g.bet);\n            require(address(this).balance >= totalPayout, \"Contract balance too low to play\");\n\n            g.winner = randomness.mod(maxPick).add(1);\n\n            g.played = true;\n\n            if(_unplayedBets >= g.bet) {\n                _unplayedBets -= g.bet;\n            } else {\n                _unplayedBets = 0;\n            }\n\n            if (g.pick == g.winner) {\n                g.player.transfer(totalPayout);\n            } else {\n                totalPayout = 0;\n            }\n\n            emit GamePlayed(g.player, g.bet, g.pick, g.winner, totalPayout);\n        }\n        gas1 = 1;\n        gas2 = 1;\n        gas3 = 1;\n        gas4 = 1;\n        gas5 = 1;\n        gas6 = 1;\n        gas7 = 1;\n        gas8 = 1;\n        gas9 = 1;\n        gas10 = 1;\n        gas11 = 1;\n    }\n\n    /**\n     * @dev Returns summary of machine requirements for play and payout multiplier.\n     */\n    function getSummary() public view returns(uint, uint, uint, uint) {\n        //minBet, maxBet, payout, maxPick\n        return(minBet, maxBet, payout, maxPick);\n    }\n\n    // Authorized Functions\n    /**\n     * @dev Request a refund for an unplayed game. If game is created, but\n     * machine conditions are not appropriate to allow play, no number will\n     * be generated and player or authorized address can request refund.\n     * Regardless of who requests refund, payout will always be to player\n     * listed in game.\n     */\n    function requestRefund(uint gameID) public{\n        Game storage g = games[gameID];\n        require(authorizedAddress[msg.sender] || owner() == msg.sender || g.player == msg.sender, \"Not authorized to request refund\");\n        require(g.played == false, \"Game already complete. No refund possible.\");\n        require(address(this).balance >= g.bet, \"Contract balance too low. Please try again later.\");\n        g.played = true;\n        if(_unplayedBets >= g.bet) {\n            _unplayedBets -= g.bet;\n        } else {\n            _unplayedBets = 0;\n        }\n        g.player.transfer(g.bet);\n    }\n\n    /**\n     * @dev Withdraw specified amount of ETH from machine. Amount must be less than\n     * any unplayed bets in machine to allow for refunds.\n     */\n    function withdrawEth(uint amount) public onlyAuthorized {\n        require ((address(this).balance - amount) >= _unplayedBets, \"Can't withdraw unplayed bets\");\n        payoutAddress.transfer(amount);\n    }\n\n    /**\n     * @dev Withdraw specified amount of LINK from machine.\n     */\n    function withdrawLink(uint amount) public onlyAuthorized {\n        LINK.transfer(payoutAddress, amount);\n    }\n\n    // Owner Functions\n    /**\n     * @dev Add any address as authorized user. Can be used to whitelist other contracts\n     * that may want to interact with authorized functions.\n     */\n    function setAuthorizedUser(address userAddress, bool authorized) public onlyOwner {\n        authorizedAddress[userAddress] = authorized;\n    }\n\n    /**\n     * @dev Updates the address to which all withdrawals of ETH & LINK will be sent. If\n     * machine is closed (all funds withdrawn), this address receives all available funds.\n     */\n    function setPayoutAddress(address payable _payoutAddress) public onlyOwner {\n        payoutAddress = _payoutAddress;\n    }\n\n    /**\n     * @dev Withdraws all available funds from the machine, leaving behind only\n     * _unplayedBets, which must remain for any refund requests. This does not\n     * do anything to halt operations other than removing funding, which\n     * automatically disallows play. If machine is re-funded, play may continue.\n     */\n    function closeMachine() public onlyOwner {\n        uint availableContractBalance = address(this).balance.sub(_unplayedBets);\n        payoutAddress.transfer(availableContractBalance);\n\n        if (LINK.balanceOf(address(this)) > 0) {\n            LINK.transfer(payoutAddress, LINK.balanceOf(address(this)));\n        }\n    }\n\n    /**\n     * @dev Can update LINK address if necessary. Should not have to call this,\n     * but herein case token address is updated for any reason. Can also be set to any\n     * ERC-20 token in case of other tokens inadvertently sent to contract.\n     */\n    function setLINK(address _linkAddress) public onlyOwner {\n        LINK = LinkTokenInterface(_linkAddress);\n    }\n\n    /**\n     * @dev Option to replay any games that may have been created, but unable to complete initial\n     * play for some reason. Unplayed games may be refunded or replayed until the number has been\n     * generated and game is marked as played.\n     */\n    function replayGame(uint gameID) public onlyOwner {\n        playGame(gameID);\n    }\n\n}\n\ncontract LuckyMachineFactory{\n    address[] public machines;\n    mapping(address => address[]) private ownedMachines;\n\n    /**\n     * @dev Used to create a LuckyMachine that can be verified and included in the\n     * factory list.\n     */\n    function createMachine(address payable machineCoordinator, uint maxBet, uint minBet, uint maxPick, uint payout) public returns(address){\n        LuckyMachine newMachine = new LuckyMachine(machineCoordinator, msg.sender, maxBet, minBet, maxPick, payout);\n        newMachine.transferOwnership(msg.sender);\n        address newMachineAddress = address(newMachine);\n        machines.push(newMachineAddress);\n        ownedMachines[msg.sender].push(newMachineAddress);\n        return newMachineAddress;\n    }\n\n    /**\n     * @dev Returns a list of all machines created from this factory. Useful to verify\n     * a machine was setup appropriately and is a \"legitimate\" LuckyMachine.\n     */\n    function getMachines() public view returns (address[] memory) {\n        return machines;\n    }\n\n    /**\n     * @dev Returns a list of all machines created by the sender.\n     */\n    function getOwnedMachines() public view returns (address[] memory) {\n        return ownedMachines[msg.sender];\n    }\n}\n",
  "sourcePath": "/Users/maxmeier/Developer/StudioMax/LuckyMachines/contracts/LuckyMachines.sol",
  "compiler": {
    "name": "solc",
    "version": "0.6.12+commit.27d51765.Emscripten.clang"
  },
  "schemaVersion": "3.3.4",
  "updatedAt": "2021-03-19T03:37:23.595Z",
  "devdoc": {
    "kind": "dev",
    "methods": {
      "createMachine(address,uint256,uint256,uint256,uint256)": {
        "details": "Used to create a LuckyMachine that can be verified and included in the factory list."
      },
      "getMachines()": {
        "details": "Returns a list of all machines created from this factory. Useful to verify a machine was setup appropriately and is a \"legitimate\" LuckyMachine."
      },
      "getOwnedMachines()": {
        "details": "Returns a list of all machines created by the sender."
      }
    },
    "version": 1
  },
  "userdoc": {
    "kind": "user",
    "methods": {},
    "version": 1
  }
}